{
  "contractName": "RootChain",
  "abi": [
    {
      "constant": true,
      "inputs": [],
      "name": "vmc",
      "outputs": [
        {
          "name": "",
          "type": "address"
        }
      ],
      "payable": false,
      "stateMutability": "view",
      "type": "function",
      "signature": "0x20cc8e51"
    },
    {
      "constant": true,
      "inputs": [
        {
          "name": "",
          "type": "address"
        }
      ],
      "name": "balances",
      "outputs": [
        {
          "name": "bonded",
          "type": "uint256"
        },
        {
          "name": "withdrawable",
          "type": "uint256"
        }
      ],
      "payable": false,
      "stateMutability": "view",
      "type": "function",
      "signature": "0x27e235e3"
    },
    {
      "constant": true,
      "inputs": [],
      "name": "childBlockInterval",
      "outputs": [
        {
          "name": "",
          "type": "uint256"
        }
      ],
      "payable": false,
      "stateMutability": "view",
      "type": "function",
      "signature": "0x38a9e0bc"
    },
    {
      "constant": true,
      "inputs": [],
      "name": "numCoins",
      "outputs": [
        {
          "name": "",
          "type": "uint64"
        }
      ],
      "payable": false,
      "stateMutability": "view",
      "type": "function",
      "signature": "0xa9737595"
    },
    {
      "constant": true,
      "inputs": [],
      "name": "currentBlock",
      "outputs": [
        {
          "name": "",
          "type": "uint256"
        }
      ],
      "payable": false,
      "stateMutability": "view",
      "type": "function",
      "signature": "0xe12ed13c"
    },
    {
      "constant": true,
      "inputs": [
        {
          "name": "",
          "type": "uint256"
        }
      ],
      "name": "childChain",
      "outputs": [
        {
          "name": "root",
          "type": "bytes32"
        },
        {
          "name": "createdAt",
          "type": "uint256"
        }
      ],
      "payable": false,
      "stateMutability": "view",
      "type": "function",
      "signature": "0xf95643b1"
    },
    {
      "inputs": [
        {
          "name": "_vmc",
          "type": "address"
        }
      ],
      "payable": false,
      "stateMutability": "nonpayable",
      "type": "constructor",
      "signature": "constructor"
    },
    {
      "payable": true,
      "stateMutability": "payable",
      "type": "fallback"
    },
    {
      "anonymous": false,
      "inputs": [
        {
          "indexed": true,
          "name": "slot",
          "type": "uint64"
        },
        {
          "indexed": false,
          "name": "blockNumber",
          "type": "uint256"
        },
        {
          "indexed": false,
          "name": "denomination",
          "type": "uint256"
        },
        {
          "indexed": true,
          "name": "from",
          "type": "address"
        },
        {
          "indexed": true,
          "name": "contractAddress",
          "type": "address"
        }
      ],
      "name": "Deposit",
      "type": "event",
      "signature": "0xaa231413cf2b61ec7d73eeef7c722cd8ef6ed7a76e4d9e533867281e94f9a823"
    },
    {
      "anonymous": false,
      "inputs": [
        {
          "indexed": false,
          "name": "blockNumber",
          "type": "uint256"
        },
        {
          "indexed": false,
          "name": "root",
          "type": "bytes32"
        },
        {
          "indexed": false,
          "name": "timestamp",
          "type": "uint256"
        }
      ],
      "name": "SubmittedBlock",
      "type": "event",
      "signature": "0x6d91cd6ccac8368394df514e6aee19a55264f5ab49a891af91ca86da27bedd4f"
    },
    {
      "anonymous": false,
      "inputs": [
        {
          "indexed": false,
          "name": "message",
          "type": "address"
        }
      ],
      "name": "Debug",
      "type": "event",
      "signature": "0x330da4cde831ccab151372275307c2f0cce2bcce846635cd66e6908f10d20363"
    },
    {
      "anonymous": false,
      "inputs": [
        {
          "indexed": true,
          "name": "slot",
          "type": "uint64"
        },
        {
          "indexed": true,
          "name": "owner",
          "type": "address"
        }
      ],
      "name": "StartedExit",
      "type": "event",
      "signature": "0xbaf912dedc1b0ee4647f945b0432e694bce1aa2c4e21052d9776876415874956"
    },
    {
      "anonymous": false,
      "inputs": [
        {
          "indexed": true,
          "name": "slot",
          "type": "uint64"
        },
        {
          "indexed": false,
          "name": "txHash",
          "type": "bytes32"
        },
        {
          "indexed": false,
          "name": "challengingBlockNumber",
          "type": "uint256"
        }
      ],
      "name": "ChallengedExit",
      "type": "event",
      "signature": "0x057d34b2360e71f2764a7189966401bc058621905c0bef7123a6bdfe9a13284b"
    },
    {
      "anonymous": false,
      "inputs": [
        {
          "indexed": true,
          "name": "slot",
          "type": "uint64"
        }
      ],
      "name": "RespondedExitChallenge",
      "type": "event",
      "signature": "0x7deeb80e1644537d3ba4f917cfcbaba62b54354e9f2598d6885d52e359885e25"
    },
    {
      "anonymous": false,
      "inputs": [
        {
          "indexed": true,
          "name": "slot",
          "type": "uint64"
        },
        {
          "indexed": true,
          "name": "owner",
          "type": "address"
        }
      ],
      "name": "CoinReset",
      "type": "event",
      "signature": "0x35cc9c4d0d9a2ce748d131382582af17dbf1f0d72167ea7906ea3f18597b31a4"
    },
    {
      "anonymous": false,
      "inputs": [
        {
          "indexed": true,
          "name": "slot",
          "type": "uint64"
        },
        {
          "indexed": false,
          "name": "owner",
          "type": "address"
        }
      ],
      "name": "FinalizedExit",
      "type": "event",
      "signature": "0x432647a5fb9bdea356d78f8e3d83b6ddc2e78b4e4a702ac7eb968f7fe03d9dda"
    },
    {
      "anonymous": false,
      "inputs": [
        {
          "indexed": true,
          "name": "from",
          "type": "address"
        },
        {
          "indexed": false,
          "name": "amount",
          "type": "uint256"
        }
      ],
      "name": "FreedBond",
      "type": "event",
      "signature": "0x5406cdbb33189b887da81a90c7ff307f3af1854b2504d0bde438b8bb5b7d8b52"
    },
    {
      "anonymous": false,
      "inputs": [
        {
          "indexed": true,
          "name": "from",
          "type": "address"
        },
        {
          "indexed": true,
          "name": "to",
          "type": "address"
        },
        {
          "indexed": false,
          "name": "amount",
          "type": "uint256"
        }
      ],
      "name": "SlashedBond",
      "type": "event",
      "signature": "0xbd6bf2f753dc1a7dee94a7abd7645adc6c228c2af17fd72d9104674cc5d21273"
    },
    {
      "anonymous": false,
      "inputs": [
        {
          "indexed": true,
          "name": "from",
          "type": "address"
        },
        {
          "indexed": false,
          "name": "amount",
          "type": "uint256"
        }
      ],
      "name": "WithdrewBonds",
      "type": "event",
      "signature": "0xba49a755e2e4831fb6ef34b384178b03af45679532c9ac5a2199b27b4dddea8d"
    },
    {
      "anonymous": false,
      "inputs": [
        {
          "indexed": true,
          "name": "owner",
          "type": "address"
        },
        {
          "indexed": true,
          "name": "slot",
          "type": "uint64"
        },
        {
          "indexed": false,
          "name": "mode",
          "type": "uint8"
        },
        {
          "indexed": false,
          "name": "contractAddress",
          "type": "address"
        },
        {
          "indexed": false,
          "name": "uid",
          "type": "uint256"
        },
        {
          "indexed": false,
          "name": "denomination",
          "type": "uint256"
        }
      ],
      "name": "Withdrew",
      "type": "event",
      "signature": "0xc753e3ccb1413ef7152e8d33fd0abfb140e236ce17bf9ae40a2a6940bcb7ed7b"
    },
    {
      "anonymous": false,
      "inputs": [
        {
          "indexed": false,
          "name": "status",
          "type": "bool"
        }
      ],
      "name": "Paused",
      "type": "event",
      "signature": "0x0e2fb031ee032dc02d8011dc50b816eb450cf856abd8261680dac74f72165bd2"
    },
    {
      "constant": false,
      "inputs": [
        {
          "name": "blockNumber",
          "type": "uint256"
        },
        {
          "name": "root",
          "type": "bytes32"
        }
      ],
      "name": "submitBlock",
      "outputs": [],
      "payable": false,
      "stateMutability": "nonpayable",
      "type": "function",
      "signature": "0x149be19f"
    },
    {
      "constant": false,
      "inputs": [
        {
          "name": "slot",
          "type": "uint64"
        },
        {
          "name": "prevTxBytes",
          "type": "bytes"
        },
        {
          "name": "exitingTxBytes",
          "type": "bytes"
        },
        {
          "name": "prevTxInclusionProof",
          "type": "bytes"
        },
        {
          "name": "exitingTxInclusionProof",
          "type": "bytes"
        },
        {
          "name": "signature",
          "type": "bytes"
        },
        {
          "name": "blocks",
          "type": "uint256[2]"
        }
      ],
      "name": "startExit",
      "outputs": [],
      "payable": true,
      "stateMutability": "payable",
      "type": "function",
      "signature": "0xe9a067c0"
    },
    {
      "constant": false,
      "inputs": [
        {
          "name": "slot",
          "type": "uint64"
        }
      ],
      "name": "finalizeExit",
      "outputs": [],
      "payable": false,
      "stateMutability": "nonpayable",
      "type": "function",
      "signature": "0x78417214"
    },
    {
      "constant": false,
      "inputs": [
        {
          "name": "slots",
          "type": "uint64[]"
        }
      ],
      "name": "finalizeExits",
      "outputs": [],
      "payable": false,
      "stateMutability": "nonpayable",
      "type": "function",
      "signature": "0x74c0a56f"
    },
    {
      "constant": false,
      "inputs": [
        {
          "name": "slot",
          "type": "uint64"
        }
      ],
      "name": "cancelExit",
      "outputs": [],
      "payable": false,
      "stateMutability": "nonpayable",
      "type": "function",
      "signature": "0xcbd8da63"
    },
    {
      "constant": false,
      "inputs": [
        {
          "name": "slots",
          "type": "uint64[]"
        }
      ],
      "name": "cancelExits",
      "outputs": [],
      "payable": false,
      "stateMutability": "nonpayable",
      "type": "function",
      "signature": "0xdf3b8377"
    },
    {
      "constant": false,
      "inputs": [
        {
          "name": "slot",
          "type": "uint64"
        }
      ],
      "name": "withdraw",
      "outputs": [],
      "payable": false,
      "stateMutability": "nonpayable",
      "type": "function",
      "signature": "0x750f0acc"
    },
    {
      "constant": false,
      "inputs": [
        {
          "name": "slot",
          "type": "uint64"
        },
        {
          "name": "txBytes",
          "type": "bytes"
        },
        {
          "name": "txInclusionProof",
          "type": "bytes"
        },
        {
          "name": "signature",
          "type": "bytes"
        },
        {
          "name": "blockNumber",
          "type": "uint256"
        }
      ],
      "name": "challengeBefore",
      "outputs": [],
      "payable": true,
      "stateMutability": "payable",
      "type": "function",
      "signature": "0x7eb7b0f6"
    },
    {
      "constant": false,
      "inputs": [
        {
          "name": "slot",
          "type": "uint64"
        },
        {
          "name": "challengingTxHash",
          "type": "bytes32"
        },
        {
          "name": "respondingBlockNumber",
          "type": "uint256"
        },
        {
          "name": "respondingTransaction",
          "type": "bytes"
        },
        {
          "name": "proof",
          "type": "bytes"
        },
        {
          "name": "signature",
          "type": "bytes"
        }
      ],
      "name": "respondChallengeBefore",
      "outputs": [],
      "payable": false,
      "stateMutability": "nonpayable",
      "type": "function",
      "signature": "0x4d69a8a1"
    },
    {
      "constant": false,
      "inputs": [
        {
          "name": "slot",
          "type": "uint64"
        },
        {
          "name": "challengingBlockNumber",
          "type": "uint256"
        },
        {
          "name": "challengingTransaction",
          "type": "bytes"
        },
        {
          "name": "proof",
          "type": "bytes"
        },
        {
          "name": "signature",
          "type": "bytes"
        }
      ],
      "name": "challengeBetween",
      "outputs": [],
      "payable": false,
      "stateMutability": "nonpayable",
      "type": "function",
      "signature": "0xf6d0ba1a"
    },
    {
      "constant": false,
      "inputs": [
        {
          "name": "slot",
          "type": "uint64"
        },
        {
          "name": "challengingBlockNumber",
          "type": "uint256"
        },
        {
          "name": "challengingTransaction",
          "type": "bytes"
        },
        {
          "name": "proof",
          "type": "bytes"
        },
        {
          "name": "signature",
          "type": "bytes"
        }
      ],
      "name": "challengeAfter",
      "outputs": [],
      "payable": false,
      "stateMutability": "nonpayable",
      "type": "function",
      "signature": "0x058a6508"
    },
    {
      "constant": false,
      "inputs": [],
      "name": "withdrawBonds",
      "outputs": [],
      "payable": false,
      "stateMutability": "nonpayable",
      "type": "function",
      "signature": "0x1cc6ffa0"
    },
    {
      "constant": false,
      "inputs": [],
      "name": "pause",
      "outputs": [],
      "payable": false,
      "stateMutability": "nonpayable",
      "type": "function",
      "signature": "0x8456cb59"
    },
    {
      "constant": false,
      "inputs": [],
      "name": "unpause",
      "outputs": [],
      "payable": false,
      "stateMutability": "nonpayable",
      "type": "function",
      "signature": "0x3f4ba83a"
    },
    {
      "constant": false,
      "inputs": [
        {
          "name": "",
          "type": "address"
        },
        {
          "name": "from",
          "type": "address"
        },
        {
          "name": "tokenId",
          "type": "uint256"
        },
        {
          "name": "",
          "type": "bytes"
        }
      ],
      "name": "onERC721Received",
      "outputs": [
        {
          "name": "",
          "type": "bytes4"
        }
      ],
      "payable": false,
      "stateMutability": "nonpayable",
      "type": "function",
      "signature": "0x150b7a02"
    },
    {
      "constant": false,
      "inputs": [
        {
          "name": "uid",
          "type": "uint256"
        },
        {
          "name": "contractAddress",
          "type": "address"
        }
      ],
      "name": "depositERC721",
      "outputs": [],
      "payable": false,
      "stateMutability": "nonpayable",
      "type": "function",
      "signature": "0xc8ac6542"
    },
    {
      "constant": true,
      "inputs": [
        {
          "name": "txHash",
          "type": "bytes32"
        },
        {
          "name": "root",
          "type": "bytes32"
        },
        {
          "name": "slot",
          "type": "uint64"
        },
        {
          "name": "proof",
          "type": "bytes"
        }
      ],
      "name": "checkMembership",
      "outputs": [
        {
          "name": "",
          "type": "bool"
        }
      ],
      "payable": false,
      "stateMutability": "view",
      "type": "function",
      "signature": "0xf586df65"
    },
    {
      "constant": true,
      "inputs": [
        {
          "name": "slot",
          "type": "uint64"
        }
      ],
      "name": "getPlasmaCoin",
      "outputs": [
        {
          "name": "",
          "type": "uint256"
        },
        {
          "name": "",
          "type": "uint256"
        },
        {
          "name": "",
          "type": "uint256"
        },
        {
          "name": "",
          "type": "address"
        },
        {
          "name": "",
          "type": "uint8"
        },
        {
          "name": "",
          "type": "uint8"
        },
        {
          "name": "",
          "type": "address"
        }
      ],
      "payable": false,
      "stateMutability": "view",
      "type": "function",
      "signature": "0xf8353cf0"
    },
    {
      "constant": true,
      "inputs": [
        {
          "name": "slot",
          "type": "uint64"
        },
        {
          "name": "txHash",
          "type": "bytes32"
        }
      ],
      "name": "getChallenge",
      "outputs": [
        {
          "name": "",
          "type": "address"
        },
        {
          "name": "",
          "type": "address"
        },
        {
          "name": "",
          "type": "bytes32"
        },
        {
          "name": "",
          "type": "uint256"
        }
      ],
      "payable": false,
      "stateMutability": "view",
      "type": "function",
      "signature": "0x81686e6b"
    },
    {
      "constant": true,
      "inputs": [
        {
          "name": "slot",
          "type": "uint64"
        }
      ],
      "name": "getExit",
      "outputs": [
        {
          "name": "",
          "type": "address"
        },
        {
          "name": "",
          "type": "uint256"
        },
        {
          "name": "",
          "type": "uint256"
        },
        {
          "name": "",
          "type": "uint8"
        },
        {
          "name": "",
          "type": "uint256"
        }
      ],
      "payable": false,
      "stateMutability": "view",
      "type": "function",
      "signature": "0xd157796e"
    },
    {
      "constant": true,
      "inputs": [
        {
          "name": "blockNumber",
          "type": "uint256"
        }
      ],
      "name": "getBlockRoot",
      "outputs": [
        {
          "name": "root",
          "type": "bytes32"
        }
      ],
      "payable": false,
      "stateMutability": "view",
      "type": "function",
      "signature": "0xe41a5d17"
    }
  ],
  "bytecode": "0x60806040526000600360006101000a81548167ffffffffffffffff021916908367ffffffffffffffff1602179055506103e860055560006006553480156200004657600080fd5b5060405160208062007a95833981018060405260208110156200006857600080fd5b810190808051906020019092919050505080600860006101000a81548173ffffffffffffffffffffffffffffffffffffffff021916908373ffffffffffffffffffffffffffffffffffffffff160217905550620000c462000129565b604051809103906000f080158015620000e1573d6000803e3d6000fd5b50600960006101000a81548173ffffffffffffffffffffffffffffffffffffffff021916908373ffffffffffffffffffffffffffffffffffffffff160217905550506200013a565b60405161060e806200748783390190565b61733d806200014a6000396000f3fe6080604052600436106101b9576000357c01000000000000000000000000000000000000000000000000000000009004806381686e6b11610109578063e12ed13c116100a7578063f586df6511610081578063f586df6514610f31578063f6d0ba1a14611039578063f8353cf014611187578063f95643b11461127e576101b9565b8063e12ed13c14610ccb578063e41a5d1714610cf6578063e9a067c014610d45576101b9565b8063c8ac6542116100e3578063c8ac654214610af6578063cbd8da6314610b51578063d157796e14610b96578063df3b837714610c45576101b9565b806381686e6b146109d05780638456cb5914610aa0578063a973759514610ab7576101b9565b806338a9e0bc1161017657806374c0a56f1161015057806374c0a56f1461077f578063750f0acc14610805578063784172141461084a5780637eb7b0f61461088f576101b9565b806338a9e0bc146105e55780633f4ba83a146106105780634d69a8a114610627576101b9565b8063058a650814610214578063149be19f14610362578063150b7a02146103a75780631cc6ffa01461050b57806320cc8e511461052257806327e235e314610579575b60001515610212576040517f08c379a00000000000000000000000000000000000000000000000000000000081526004018080602001828103825260248152602001806172c86024913960400191505060405180910390fd5b005b34801561022057600080fd5b50610360600480360360a081101561023757600080fd5b81019080803567ffffffffffffffff169060200190929190803590602001909291908035906020019064010000000081111561027257600080fd5b82018360208201111561028457600080fd5b803590602001918460018302840111640100000000831117156102a657600080fd5b9091929391929390803590602001906401000000008111156102c757600080fd5b8201836020820111156102d957600080fd5b803590602001918460018302840111640100000000831117156102fb57600080fd5b90919293919293908035906020019064010000000081111561031c57600080fd5b82018360208201111561032e57600080fd5b8035906020019184600183028401116401000000008311171561035057600080fd5b90919293919293905050506112d4565b005b34801561036e57600080fd5b506103a56004803603604081101561038557600080fd5b810190808035906020019092919080359060200190929190505050611489565b005b3480156103b357600080fd5b506104b7600480360360808110156103ca57600080fd5b81019080803573ffffffffffffffffffffffffffffffffffffffff169060200190929190803573ffffffffffffffffffffffffffffffffffffffff169060200190929190803590602001909291908035906020019064010000000081111561043157600080fd5b82018360208201111561044357600080fd5b8035906020019184600183028401116401000000008311171561046557600080fd5b91908080601f016020809104026020016040519081016040528093929190818152602001838380828437600081840152601f19601f8201169050808301925050505050505091929192905050506116e5565b60405180827bffffffffffffffffffffffffffffffffffffffffffffffffffffffff19167bffffffffffffffffffffffffffffffffffffffffffffffffffffffff1916815260200191505060405180910390f35b34801561051757600080fd5b506105206119a0565b005b34801561052e57600080fd5b50610537611ac7565b604051808273ffffffffffffffffffffffffffffffffffffffff1673ffffffffffffffffffffffffffffffffffffffff16815260200191505060405180910390f35b34801561058557600080fd5b506105c86004803603602081101561059c57600080fd5b81019080803573ffffffffffffffffffffffffffffffffffffffff169060200190929190505050611aed565b604051808381526020018281526020019250505060405180910390f35b3480156105f157600080fd5b506105fa611b11565b6040518082815260200191505060405180910390f35b34801561061c57600080fd5b50610625611b17565b005b34801561063357600080fd5b5061077d600480360360c081101561064a57600080fd5b81019080803567ffffffffffffffff16906020019092919080359060200190929190803590602001909291908035906020019064010000000081111561068f57600080fd5b8201836020820111156106a157600080fd5b803590602001918460018302840111640100000000831117156106c357600080fd5b9091929391929390803590602001906401000000008111156106e457600080fd5b8201836020820111156106f657600080fd5b8035906020019184600183028401116401000000008311171561071857600080fd5b90919293919293908035906020019064010000000081111561073957600080fd5b82018360208201111561074b57600080fd5b8035906020019184600183028401116401000000008311171561076d57600080fd5b9091929391929390505050611cd9565b005b34801561078b57600080fd5b50610803600480360360208110156107a257600080fd5b81019080803590602001906401000000008111156107bf57600080fd5b8201836020820111156107d157600080fd5b803590602001918460208302840111640100000000831117156107f357600080fd5b9091929391929390505050611f6c565b005b34801561081157600080fd5b506108486004803603602081101561082857600080fd5b81019080803567ffffffffffffffff169060200190929190505050611fbc565b005b34801561085657600080fd5b5061088d6004803603602081101561086d57600080fd5b81019080803567ffffffffffffffff169060200190929190505050612789565b005b6109ce600480360360a08110156108a557600080fd5b81019080803567ffffffffffffffff169060200190929190803590602001906401000000008111156108d657600080fd5b8201836020820111156108e857600080fd5b8035906020019184600183028401116401000000008311171561090a57600080fd5b90919293919293908035906020019064010000000081111561092b57600080fd5b82018360208201111561093d57600080fd5b8035906020019184600183028401116401000000008311171561095f57600080fd5b90919293919293908035906020019064010000000081111561098057600080fd5b82018360208201111561099257600080fd5b803590602001918460018302840111640100000000831117156109b457600080fd5b909192939192939080359060200190929190505050612aa8565b005b3480156109dc57600080fd5b50610a1d600480360360408110156109f357600080fd5b81019080803567ffffffffffffffff16906020019092919080359060200190929190505050612df5565b604051808573ffffffffffffffffffffffffffffffffffffffff1673ffffffffffffffffffffffffffffffffffffffff1681526020018473ffffffffffffffffffffffffffffffffffffffff1673ffffffffffffffffffffffffffffffffffffffff16815260200183815260200182815260200194505050505060405180910390f35b348015610aac57600080fd5b50610ab5612f77565b005b348015610ac357600080fd5b50610acc613139565b604051808267ffffffffffffffff1667ffffffffffffffff16815260200191505060405180910390f35b348015610b0257600080fd5b50610b4f60048036036040811015610b1957600080fd5b8101908080359060200190929190803573ffffffffffffffffffffffffffffffffffffffff169060200190929190505050613153565b005b348015610b5d57600080fd5b50610b9460048036036020811015610b7457600080fd5b81019080803567ffffffffffffffff169060200190929190505050613246565b005b348015610ba257600080fd5b50610bd960048036036020811015610bb957600080fd5b81019080803567ffffffffffffffff1690602001909291905050506134a4565b604051808673ffffffffffffffffffffffffffffffffffffffff1673ffffffffffffffffffffffffffffffffffffffff168152602001858152602001848152602001836002811115610c2757fe5b60ff1681526020018281526020019550505050505060405180910390f35b348015610c5157600080fd5b50610cc960048036036020811015610c6857600080fd5b8101908080359060200190640100000000811115610c8557600080fd5b820183602082011115610c9757600080fd5b80359060200191846020830284011164010000000083111715610cb957600080fd5b9091929391929390505050613620565b005b348015610cd757600080fd5b50610ce0613670565b6040518082815260200191505060405180910390f35b348015610d0257600080fd5b50610d2f60048036036020811015610d1957600080fd5b8101908080359060200190929190505050613676565b6040518082815260200191505060405180910390f35b610f2f6004803603610100811015610d5c57600080fd5b81019080803567ffffffffffffffff16906020019092919080359060200190640100000000811115610d8d57600080fd5b820183602082011115610d9f57600080fd5b80359060200191846001830284011164010000000083111715610dc157600080fd5b909192939192939080359060200190640100000000811115610de257600080fd5b820183602082011115610df457600080fd5b80359060200191846001830284011164010000000083111715610e1657600080fd5b909192939192939080359060200190640100000000811115610e3757600080fd5b820183602082011115610e4957600080fd5b80359060200191846001830284011164010000000083111715610e6b57600080fd5b909192939192939080359060200190640100000000811115610e8c57600080fd5b820183602082011115610e9e57600080fd5b80359060200191846001830284011164010000000083111715610ec057600080fd5b909192939192939080359060200190640100000000811115610ee157600080fd5b820183602082011115610ef357600080fd5b80359060200191846001830284011164010000000083111715610f1557600080fd5b909192939192939080604001909192919290505050613696565b005b348015610f3d57600080fd5b5061101f60048036036080811015610f5457600080fd5b810190808035906020019092919080359060200190929190803567ffffffffffffffff16906020019092919080359060200190640100000000811115610f9957600080fd5b820183602082011115610fab57600080fd5b80359060200191846001830284011164010000000083111715610fcd57600080fd5b91908080601f016020809104026020016040519081016040528093929190818152602001838380828437600081840152601f19601f820116905080830192505050505050509192919290505050613bd6565b604051808215151515815260200191505060405180910390f35b34801561104557600080fd5b50611185600480360360a081101561105c57600080fd5b81019080803567ffffffffffffffff169060200190929190803590602001909291908035906020019064010000000081111561109757600080fd5b8201836020820111156110a957600080fd5b803590602001918460018302840111640100000000831117156110cb57600080fd5b9091929391929390803590602001906401000000008111156110ec57600080fd5b8201836020820111156110fe57600080fd5b8035906020019184600183028401116401000000008311171561112057600080fd5b90919293919293908035906020019064010000000081111561114157600080fd5b82018360208201111561115357600080fd5b8035906020019184600183028401116401000000008311171561117557600080fd5b9091929391929390505050613d3d565b005b34801561119357600080fd5b506111ca600480360360208110156111aa57600080fd5b81019080803567ffffffffffffffff169060200190929190505050613ef2565b604051808881526020018781526020018681526020018573ffffffffffffffffffffffffffffffffffffffff1673ffffffffffffffffffffffffffffffffffffffff16815260200184600281111561121e57fe5b60ff16815260200183600081111561123257fe5b60ff1681526020018273ffffffffffffffffffffffffffffffffffffffff1673ffffffffffffffffffffffffffffffffffffffff16815260200197505050505050505060405180910390f35b34801561128a57600080fd5b506112b7600480360360208110156112a157600080fd5b8101908080359060200190929190505050614185565b604051808381526020018281526020019250505060405180910390f35b8760018060028111156112e357fe5b600460008467ffffffffffffffff1667ffffffffffffffff16815260200190815260200160002060000160019054906101000a900460ff16600281111561132657fe5b14151561139b576040517f08c379a00000000000000000000000000000000000000000000000000000000081526004018080602001828103825260108152602001807f57726f6e6720636f696e2073746174650000000000000000000000000000000081525060200191505060405180910390fd5b6114748a89898080601f016020809104026020016040519081016040528093929190818152602001838380828437600081840152601f19601f820116905080830192505050505050508b87878080601f016020809104026020016040519081016040528093929190818152602001838380828437600081840152601f19601f820116905080830192505050505050508a8a8080601f016020809104026020016040519081016040528093929190818152602001838380828437600081840152601f19601f820116905080830192505050505050506141a9565b61147d8a614489565b50505050505050505050565b600860009054906101000a900473ffffffffffffffffffffffffffffffffffffffff1673ffffffffffffffffffffffffffffffffffffffff1663797327ae336040518263ffffffff167c0100000000000000000000000000000000000000000000000000000000028152600401808273ffffffffffffffffffffffffffffffffffffffff1673ffffffffffffffffffffffffffffffffffffffff16815260200191505060206040518083038186803b15801561154457600080fd5b505afa158015611558573d6000803e3d6000fd5b505050506040513d602081101561156e57600080fd5b810190808051906020019092919050505015156115f3576040517f08c379a00000000000000000000000000000000000000000000000000000000081526004018080602001828103825260198152602001807f53656e646572206973206e6f7420612056616c696461746f720000000000000081525060200191505060405180910390fd5b6006548210151515611650576040517f08c379a00000000000000000000000000000000000000000000000000000000081526004018080602001828103825260328152602001806172966032913960400191505060405180910390fd5b8160068190555060408051908101604052808281526020014281525060076000600654815260200190815260200160002060008201518160000155602082015181600101559050507f6d91cd6ccac8368394df514e6aee19a55264f5ab49a891af91ca86da27bedd4f600654824260405180848152602001838152602001828152602001935050505060405180910390a15050565b600033600860009054906101000a900473ffffffffffffffffffffffffffffffffffffffff1673ffffffffffffffffffffffffffffffffffffffff1663e744092e826040518263ffffffff167c0100000000000000000000000000000000000000000000000000000000028152600401808273ffffffffffffffffffffffffffffffffffffffff1673ffffffffffffffffffffffffffffffffffffffff16815260200191505060206040518083038186803b1580156117a357600080fd5b505afa1580156117b7573d6000803e3d6000fd5b505050506040513d60208110156117cd57600080fd5b81019080805190602001909291905050501515611835576040517f08c379a000000000000000000000000000000000000000000000000000000000815260040180806020018281038252602d81526020018061719c602d913960400191505060405180910390fd5b3073ffffffffffffffffffffffffffffffffffffffff163373ffffffffffffffffffffffffffffffffffffffff16636352211e866040518263ffffffff167c01000000000000000000000000000000000000000000000000000000000281526004018082815260200191505060206040518083038186803b1580156118b957600080fd5b505afa1580156118cd573d6000803e3d6000fd5b505050506040513d60208110156118e357600080fd5b810190808051906020019092919050505073ffffffffffffffffffffffffffffffffffffffff16141515611962576040517f08c379a00000000000000000000000000000000000000000000000000000000081526004018080602001828103825260228152602001806170ae6022913960400191505060405180910390fd5b61197185338660016000614662565b63150b7a027c010000000000000000000000000000000000000000000000000000000002915050949350505050565b6000600160003373ffffffffffffffffffffffffffffffffffffffff1673ffffffffffffffffffffffffffffffffffffffff1681526020019081526020016000206001015490506000600160003373ffffffffffffffffffffffffffffffffffffffff1673ffffffffffffffffffffffffffffffffffffffff168152602001908152602001600020600101819055503373ffffffffffffffffffffffffffffffffffffffff166108fc829081150290604051600060405180830381858888f19350505050158015611a75573d6000803e3d6000fd5b503373ffffffffffffffffffffffffffffffffffffffff167fba49a755e2e4831fb6ef34b384178b03af45679532c9ac5a2199b27b4dddea8d826040518082815260200191505060405180910390a250565b600860009054906101000a900473ffffffffffffffffffffffffffffffffffffffff1681565b60016020528060005260406000206000915090508060000154908060010154905082565b60055481565b600860009054906101000a900473ffffffffffffffffffffffffffffffffffffffff1673ffffffffffffffffffffffffffffffffffffffff1663797327ae336040518263ffffffff167c0100000000000000000000000000000000000000000000000000000000028152600401808273ffffffffffffffffffffffffffffffffffffffff1673ffffffffffffffffffffffffffffffffffffffff16815260200191505060206040518083038186803b158015611bd257600080fd5b505afa158015611be6573d6000803e3d6000fd5b505050506040513d6020811015611bfc57600080fd5b81019080805190602001909291905050501515611c81576040517f08c379a00000000000000000000000000000000000000000000000000000000081526004018080602001828103825260198152602001807f53656e646572206973206e6f7420612056616c696461746f720000000000000081525060200191505060405180910390fd5b60008060006101000a81548160ff0219169083151502179055507f0e2fb031ee032dc02d8011dc50b816eb450cf856abd8261680dac74f72165bd26000604051808215151515815260200191505060405180910390a1565b611d1288600260008c67ffffffffffffffff1667ffffffffffffffff168152602001908152602001600020614a6c90919063ffffffff16565b1515611d69576040517f08c379a000000000000000000000000000000000000000000000000000000000815260040180806020018281038252602481526020018061705f6024913960400191505060405180910390fd5b6000611da489600260008d67ffffffffffffffff1667ffffffffffffffff168152602001908152602001600020614aa890919063ffffffff16565b9050611e808a828a8a8a8080601f016020809104026020016040519081016040528093929190818152602001838380828437600081840152601f19601f8201169050808301925050505050505087878080601f016020809104026020016040519081016040528093929190818152602001838380828437600081840152601f19601f820116905080830192505050505050508a8a8080601f016020809104026020016040519081016040528093929190818152602001838380828437600081840152601f19601f82011690508083019250505050505050614b24565b611eef600260008c67ffffffffffffffff1667ffffffffffffffff16815260200190815260200160002082815481101515611eb757fe5b906000526020600020906004020160010160009054906101000a900473ffffffffffffffffffffffffffffffffffffffff1633614dfc565b611f2889600260008d67ffffffffffffffff1667ffffffffffffffff168152602001908152602001600020614fb390919063ffffffff16565b508967ffffffffffffffff167f7deeb80e1644537d3ba4f917cfcbaba62b54354e9f2598d6885d52e359885e2560405160405180910390a250505050505050505050565b600082829050905060008090505b81811015611fb657611fa98484838181101515611f9357fe5b9050602002013567ffffffffffffffff16612789565b8080600101915050611f7a565b50505050565b806002806002811115611fcb57fe5b600460008467ffffffffffffffff1667ffffffffffffffff16815260200190815260200160002060000160019054906101000a900460ff16600281111561200e57fe5b141515612083576040517f08c379a00000000000000000000000000000000000000000000000000000000081526004018080602001828103825260108152602001807f57726f6e6720636f696e2073746174650000000000000000000000000000000081525060200191505060405180910390fd5b3373ffffffffffffffffffffffffffffffffffffffff16600460008567ffffffffffffffff1667ffffffffffffffff16815260200190815260200160002060000160029054906101000a900473ffffffffffffffffffffffffffffffffffffffff1673ffffffffffffffffffffffffffffffffffffffff16141515612170576040517f08c379a00000000000000000000000000000000000000000000000000000000081526004018080602001828103825260188152602001807f596f7520646f206e6f74206f776e2074686174205554584f000000000000000081525060200191505060405180910390fd5b6000600460008567ffffffffffffffff1667ffffffffffffffff1681526020019081526020016000206008015490506000600460008667ffffffffffffffff1667ffffffffffffffff1681526020019081526020016000206009015490506121d6616d55565b600460008767ffffffffffffffff1667ffffffffffffffff16815260200190815260200160002061010060405190810160405290816000820160009054906101000a900460ff16600081111561222857fe5b600081111561223357fe5b81526020016000820160019054906101000a900460ff16600281111561225557fe5b600281111561226057fe5b81526020016000820160029054906101000a900473ffffffffffffffffffffffffffffffffffffffff1673ffffffffffffffffffffffffffffffffffffffff1673ffffffffffffffffffffffffffffffffffffffff1681526020016001820160009054906101000a900473ffffffffffffffffffffffffffffffffffffffff1673ffffffffffffffffffffffffffffffffffffffff1673ffffffffffffffffffffffffffffffffffffffff1681526020016002820160c060405190810160405290816000820160009054906101000a900473ffffffffffffffffffffffffffffffffffffffff1673ffffffffffffffffffffffffffffffffffffffff1673ffffffffffffffffffffffffffffffffffffffff1681526020016001820160009054906101000a900473ffffffffffffffffffffffffffffffffffffffff1673ffffffffffffffffffffffffffffffffffffffff1673ffffffffffffffffffffffffffffffffffffffff16815260200160028201548152602001600382015481526020016004820154815260200160058201548152505081526020016008820154815260200160098201548152602001600a820154815250509050600460008767ffffffffffffffff1667ffffffffffffffff168152602001908152602001600020600080820160006101000a81549060ff02191690556000820160016101000a81549060ff02191690556000820160026101000a81549073ffffffffffffffffffffffffffffffffffffffff02191690556001820160006101000a81549073ffffffffffffffffffffffffffffffffffffffff021916905560028201600080820160006101000a81549073ffffffffffffffffffffffffffffffffffffffff02191690556001820160006101000a81549073ffffffffffffffffffffffffffffffffffffffff02191690556002820160009055600382016000905560048201600090556005820160009055505060088201600090556009820160009055600a820160009055505060008081111561255257fe5b8160000151600081111561256257fe5b141561266057806060015173ffffffffffffffffffffffffffffffffffffffff166342842e0e3033866040518463ffffffff167c0100000000000000000000000000000000000000000000000000000000028152600401808473ffffffffffffffffffffffffffffffffffffffff1673ffffffffffffffffffffffffffffffffffffffff1681526020018373ffffffffffffffffffffffffffffffffffffffff1673ffffffffffffffffffffffffffffffffffffffff1681526020018281526020019350505050600060405180830381600087803b15801561264357600080fd5b505af1158015612657573d6000803e3d6000fd5b505050506126ce565b6040517f08c379a00000000000000000000000000000000000000000000000000000000081526004018080602001828103825260118152602001807f496e76616c696420636f696e206d6f646500000000000000000000000000000081525060200191505060405180910390fd5b8567ffffffffffffffff163373ffffffffffffffffffffffffffffffffffffffff167fc753e3ccb1413ef7152e8d33fd0abfb140e236ce17bf9ae40a2a6940bcb7ed7b8360000151846060015187876040518085600081111561272d57fe5b60ff1681526020018473ffffffffffffffffffffffffffffffffffffffff1673ffffffffffffffffffffffffffffffffffffffff16815260200183815260200182815260200194505050505060405180910390a3505050505050565b6000600460008367ffffffffffffffff1667ffffffffffffffff1681526020019081526020016000209050600160028111156127c157fe5b8160000160019054906101000a900460ff1660028111156127de57fe5b1415156127eb5750612aa5565b62093a80816002016002015442031115156128065750612aa5565b600061281183615258565b905080151561296e578160020160010160009054906101000a900473ffffffffffffffffffffffffffffffffffffffff168260000160026101000a81548173ffffffffffffffffffffffffffffffffffffffff021916908373ffffffffffffffffffffffffffffffffffffffff16021790555060028260000160016101000a81548160ff021916908360028111156128a557fe5b02179055506128d78260000160029054906101000a900473ffffffffffffffffffffffffffffffffffffffff166154dd565b8267ffffffffffffffff167f432647a5fb9bdea356d78f8e3d83b6ddc2e78b4e4a702ac7eb968f7fe03d9dda8360000160029054906101000a900473ffffffffffffffffffffffffffffffffffffffff16604051808273ffffffffffffffffffffffffffffffffffffffff1673ffffffffffffffffffffffffffffffffffffffff16815260200191505060405180910390a2612a07565b60008260000160016101000a81548160ff0219169083600281111561298f57fe5b02179055508160000160029054906101000a900473ffffffffffffffffffffffffffffffffffffffff1673ffffffffffffffffffffffffffffffffffffffff168367ffffffffffffffff167f35cc9c4d0d9a2ce748d131382582af17dbf1f0d72167ea7906ea3f18597b31a460405160405180910390a35b600460008467ffffffffffffffff1667ffffffffffffffff168152602001908152602001600020600201600080820160006101000a81549073ffffffffffffffffffffffffffffffffffffffff02191690556001820160006101000a81549073ffffffffffffffffffffffffffffffffffffffff02191690556002820160009055600382016000905560048201600090556005820160009055505050505b50565b67016345785d8a000034141515612b0a576040517f08c379a00000000000000000000000000000000000000000000000000000000081526004018080602001828103825260328152602001806170d06032913960400191505060405180910390fd5b612b5f34600160003373ffffffffffffffffffffffffffffffffffffffff1673ffffffffffffffffffffffffffffffffffffffff1681526020019081526020016000206000015461567c90919063ffffffff16565b600160003373ffffffffffffffffffffffffffffffffffffffff1673ffffffffffffffffffffffffffffffffffffffff16815260200190815260200160002060000181905550876001806002811115612bb457fe5b600460008467ffffffffffffffff1667ffffffffffffffff16815260200190815260200160002060000160019054906101000a900460ff166002811115612bf757fe5b141515612c6c576040517f08c379a00000000000000000000000000000000000000000000000000000000081526004018080602001828103825260108152602001807f57726f6e6720636f696e2073746174650000000000000000000000000000000081525060200191505060405180910390fd5b612d458a8a8a8080601f016020809104026020016040519081016040528093929190818152602001838380828437600081840152601f19601f820116905080830192505050505050508588888080601f016020809104026020016040519081016040528093929190818152602001838380828437600081840152601f19601f820116905080830192505050505050508b8b8080601f016020809104026020016040519081016040528093929190818152602001838380828437600081840152601f19601f8201169050808301925050505050505061569d565b612de98a612d968b8b8080601f016020809104026020016040519081016040528093929190818152602001838380828437600081840152601f19601f8201169050808301925050505050505061589a565b85612de48d8d8080601f016020809104026020016040519081016040528093929190818152602001838380828437600081840152601f19601f820116905080830192505050505050506158da565b6159b4565b50505050505050505050565b6000806000806000612e3686600260008a67ffffffffffffffff1667ffffffffffffffff168152602001908152602001600020614aa890919063ffffffff16565b9050612e40616de2565b600260008967ffffffffffffffff1667ffffffffffffffff16815260200190815260200160002082815481101515612e7457fe5b9060005260206000209060040201608060405190810160405290816000820160009054906101000a900473ffffffffffffffffffffffffffffffffffffffff1673ffffffffffffffffffffffffffffffffffffffff1673ffffffffffffffffffffffffffffffffffffffff1681526020016001820160009054906101000a900473ffffffffffffffffffffffffffffffffffffffff1673ffffffffffffffffffffffffffffffffffffffff1673ffffffffffffffffffffffffffffffffffffffff16815260200160028201548152602001600382015481525050905080600001518160200151826040015183606001519550955095509550505092959194509250565b600860009054906101000a900473ffffffffffffffffffffffffffffffffffffffff1673ffffffffffffffffffffffffffffffffffffffff1663797327ae336040518263ffffffff167c0100000000000000000000000000000000000000000000000000000000028152600401808273ffffffffffffffffffffffffffffffffffffffff1673ffffffffffffffffffffffffffffffffffffffff16815260200191505060206040518083038186803b15801561303257600080fd5b505afa158015613046573d6000803e3d6000fd5b505050506040513d602081101561305c57600080fd5b810190808051906020019092919050505015156130e1576040517f08c379a00000000000000000000000000000000000000000000000000000000081526004018080602001828103825260198152602001807f53656e646572206973206e6f7420612056616c696461746f720000000000000081525060200191505060405180910390fd5b60016000806101000a81548160ff0219169083151502179055507f0e2fb031ee032dc02d8011dc50b816eb450cf856abd8261680dac74f72165bd26001604051808215151515815260200191505060405180910390a1565b600360009054906101000a900467ffffffffffffffff1681565b8073ffffffffffffffffffffffffffffffffffffffff166342842e0e3330856040518463ffffffff167c0100000000000000000000000000000000000000000000000000000000028152600401808473ffffffffffffffffffffffffffffffffffffffff1673ffffffffffffffffffffffffffffffffffffffff1681526020018373ffffffffffffffffffffffffffffffffffffffff1673ffffffffffffffffffffffffffffffffffffffff1681526020018281526020019350505050600060405180830381600087803b15801561322a57600080fd5b505af115801561323e573d6000803e3d6000fd5b505050505050565b3373ffffffffffffffffffffffffffffffffffffffff16600460008367ffffffffffffffff1667ffffffffffffffff16815260200190815260200160002060020160010160009054906101000a900473ffffffffffffffffffffffffffffffffffffffff1673ffffffffffffffffffffffffffffffffffffffff16141515613319576040517f08c379a000000000000000000000000000000000000000000000000000000000815260040180806020018281038252602f815260200180617217602f913960400191505060405180910390fd5b600460008267ffffffffffffffff1667ffffffffffffffff168152602001908152602001600020600201600080820160006101000a81549073ffffffffffffffffffffffffffffffffffffffff02191690556001820160006101000a81549073ffffffffffffffffffffffffffffffffffffffff0219169055600282016000905560038201600090556004820160009055600582016000905550506000600460008367ffffffffffffffff1667ffffffffffffffff16815260200190815260200160002060000160016101000a81548160ff021916908360028111156133fb57fe5b0217905550613409336154dd565b600460008267ffffffffffffffff1667ffffffffffffffff16815260200190815260200160002060000160029054906101000a900473ffffffffffffffffffffffffffffffffffffffff1673ffffffffffffffffffffffffffffffffffffffff168167ffffffffffffffff167f35cc9c4d0d9a2ce748d131382582af17dbf1f0d72167ea7906ea3f18597b31a460405160405180910390a350565b60008060008060006134b4616e3a565b600460008867ffffffffffffffff1667ffffffffffffffff16815260200190815260200160002060020160c060405190810160405290816000820160009054906101000a900473ffffffffffffffffffffffffffffffffffffffff1673ffffffffffffffffffffffffffffffffffffffff1673ffffffffffffffffffffffffffffffffffffffff1681526020016001820160009054906101000a900473ffffffffffffffffffffffffffffffffffffffff1673ffffffffffffffffffffffffffffffffffffffff1673ffffffffffffffffffffffffffffffffffffffff1681526020016002820154815260200160038201548152602001600482015481526020016005820154815250509050806020015181608001518260a00151600460008b67ffffffffffffffff1667ffffffffffffffff16815260200190815260200160002060000160019054906101000a900460ff168460400151955095509550955095505091939590929450565b600082829050905060008090505b8181101561366a5761365d848483818110151561364757fe5b9050602002013567ffffffffffffffff16613246565b808060010191505061362e565b50505050565b60065481565b600060076000838152602001908152602001600020600001549050919050565b67016345785d8a0000341415156136f8576040517f08c379a00000000000000000000000000000000000000000000000000000000081526004018080602001828103825260328152602001806170d06032913960400191505060405180910390fd5b61374d34600160003373ffffffffffffffffffffffffffffffffffffffff1673ffffffffffffffffffffffffffffffffffffffff1681526020019081526020016000206000015461567c90919063ffffffff16565b600160003373ffffffffffffffffffffffffffffffffffffffff1673ffffffffffffffffffffffffffffffffffffffff168152602001908152602001600020600001819055508b60008060028111156137a257fe5b600460008467ffffffffffffffff1667ffffffffffffffff16815260200190815260200160002060000160019054906101000a900460ff1660028111156137e557fe5b14151561385a576040517f08c379a00000000000000000000000000000000000000000000000000000000081526004018080602001828103825260108152602001807f57726f6e6720636f696e2073746174650000000000000000000000000000000081525060200191505060405180910390fd5b6138a78b8b8080601f016020809104026020016040519081016040528093929190818152602001838380828437600081840152601f19601f8201169050808301925050505050505061589a565b73ffffffffffffffffffffffffffffffffffffffff163373ffffffffffffffffffffffffffffffffffffffff1614151561392c576040517f08c379a000000000000000000000000000000000000000000000000000000000815260040180806020018281038252602a815260200180617246602a913960400191505060405180910390fd5b613ac58d8d8080601f016020809104026020016040519081016040528093929190818152602001838380828437600081840152601f19601f820116905080830192505050505050508c8c8080601f016020809104026020016040519081016040528093929190818152602001838380828437600081840152601f19601f820116905080830192505050505050508b8b8080601f016020809104026020016040519081016040528093929190818152602001838380828437600081840152601f19601f820116905080830192505050505050508a8a8080601f016020809104026020016040519081016040528093929190818152602001838380828437600081840152601f19601f8201169050808301925050505050505089898080601f016020809104026020016040519081016040528093929190818152602001838380828437600081840152601f19601f82011690508083019250505050505050886002806020026040519081016040528092919082600260200280828437600081840152601f19601f820116905080830192505050505050615c84565b6000600554846001600281101515613ad957fe5b6020020135811515613ae757fe5b06141515613b3757613b328e6000856002806020026040519081016040528092919082600260200280828437600081840152601f19601f820116905080830192505050505050615ce9565b613bc6565b613bc58e613b888f8f8080601f016020809104026020016040519081016040528093929190818152602001838380828437600081840152601f19601f8201169050808301925050505050505061589a565b856002806020026040519081016040528092919082600260200280828437600081840152601f19601f820116905080830192505050505050615ce9565b5b5050505050505050505050505050565b6000600960009054906101000a900473ffffffffffffffffffffffffffffffffffffffff1673ffffffffffffffffffffffffffffffffffffffff1663f586df65868686866040518563ffffffff167c0100000000000000000000000000000000000000000000000000000000028152600401808581526020018481526020018367ffffffffffffffff1667ffffffffffffffff16815260200180602001828103825283818151815260200191508051906020019080838360005b83811015613cab578082015181840152602081019050613c90565b50505050905090810190601f168015613cd85780820380516001836020036101000a031916815260200191505b509550505050505060206040518083038186803b158015613cf857600080fd5b505afa158015613d0c573d6000803e3d6000fd5b505050506040513d6020811015613d2257600080fd5b81019080805190602001909291905050509050949350505050565b876001806002811115613d4c57fe5b600460008467ffffffffffffffff1667ffffffffffffffff16815260200190815260200160002060000160019054906101000a900460ff166002811115613d8f57fe5b141515613e04576040517f08c379a00000000000000000000000000000000000000000000000000000000081526004018080602001828103825260108152602001807f57726f6e6720636f696e2073746174650000000000000000000000000000000081525060200191505060405180910390fd5b613edd8a89898080601f016020809104026020016040519081016040528093929190818152602001838380828437600081840152601f19601f820116905080830192505050505050508b87878080601f016020809104026020016040519081016040528093929190818152602001838380828437600081840152601f19601f820116905080830192505050505050508a8a8080601f016020809104026020016040519081016040528093929190818152602001838380828437600081840152601f19601f82011690508083019250505050505050615ecb565b613ee68a614489565b50505050505050505050565b6000806000806000806000613f05616d55565b600460008a67ffffffffffffffff1667ffffffffffffffff16815260200190815260200160002061010060405190810160405290816000820160009054906101000a900460ff166000811115613f5757fe5b6000811115613f6257fe5b81526020016000820160019054906101000a900460ff166002811115613f8457fe5b6002811115613f8f57fe5b81526020016000820160029054906101000a900473ffffffffffffffffffffffffffffffffffffffff1673ffffffffffffffffffffffffffffffffffffffff1673ffffffffffffffffffffffffffffffffffffffff1681526020016001820160009054906101000a900473ffffffffffffffffffffffffffffffffffffffff1673ffffffffffffffffffffffffffffffffffffffff1673ffffffffffffffffffffffffffffffffffffffff1681526020016002820160c060405190810160405290816000820160009054906101000a900473ffffffffffffffffffffffffffffffffffffffff1673ffffffffffffffffffffffffffffffffffffffff1673ffffffffffffffffffffffffffffffffffffffff1681526020016001820160009054906101000a900473ffffffffffffffffffffffffffffffffffffffff1673ffffffffffffffffffffffffffffffffffffffff1673ffffffffffffffffffffffffffffffffffffffff16815260200160028201548152602001600382015481526020016004820154815260200160058201548152505081526020016008820154815260200160098201548152602001600a8201548152505090508060a001518160e001518260c001518360400151846020015185600001518660600151975097509750975097509750975050919395979092949650565b60076020528060005260406000206000915090508060000154908060010154905082565b82600460008767ffffffffffffffff1667ffffffffffffffff1681526020019081526020016000206002016005015410151561424d576040517f08c379a00000000000000000000000000000000000000000000000000000000081526004018080602001828103825260208152602001807f54782073686f756c64206265206166746572207468652065786974426c6f636b81525060200191505060405180910390fd5b614255616e9d565b61425e8561611e565b90506142c683600460008967ffffffffffffffff1667ffffffffffffffff16815260200190815260200160002060020160010160009054906101000a900473ffffffffffffffffffffffffffffffffffffffff1683604001516162c09092919063ffffffff16565b151561433a576040517f08c379a00000000000000000000000000000000000000000000000000000000081526004018080602001828103825260118152602001807f496e76616c6964207369676e617475726500000000000000000000000000000081525060200191505060405180910390fd5b8567ffffffffffffffff16816000015167ffffffffffffffff161415156143c9576040517f08c379a000000000000000000000000000000000000000000000000000000000815260040180806020018281038252601e8152602001807f5478206973207265666572656e63696e6720616e6f7468657220736c6f74000081525060200191505060405180910390fd5b600460008767ffffffffffffffff1667ffffffffffffffff168152602001908152602001600020600201600501548160600151141515614471576040517f08c379a00000000000000000000000000000000000000000000000000000000081526004018080602001828103825260128152602001807f4e6f74206120646972656374207370656e64000000000000000000000000000081525060200191505060405180910390fd5b6144818682604001518685616303565b505050505050565b6144e0600460008367ffffffffffffffff1667ffffffffffffffff16815260200190815260200160002060020160010160009054906101000a900473ffffffffffffffffffffffffffffffffffffffff1633614dfc565b6000600460008367ffffffffffffffff1667ffffffffffffffff16815260200190815260200160002060000160016101000a81548160ff0219169083600281111561452757fe5b0217905550600460008267ffffffffffffffff1667ffffffffffffffff168152602001908152602001600020600201600080820160006101000a81549073ffffffffffffffffffffffffffffffffffffffff02191690556001820160006101000a81549073ffffffffffffffffffffffffffffffffffffffff021916905560028201600090556003820160009055600482016000905560058201600090555050600460008267ffffffffffffffff1667ffffffffffffffff16815260200190815260200160002060000160029054906101000a900473ffffffffffffffffffffffffffffffffffffffff1673ffffffffffffffffffffffffffffffffffffffff168167ffffffffffffffff167f35cc9c4d0d9a2ce748d131382582af17dbf1f0d72167ea7906ea3f18597b31a460405160405180910390a350565b6000809054906101000a900460ff161515156146c9576040517f08c379a00000000000000000000000000000000000000000000000000000000081526004018080602001828103825260288152602001806170376028913960400191505060405180910390fd5b6146df600160065461567c90919063ffffffff16565b6006819055506000600360009054906101000a900467ffffffffffffffff163387604051602001808467ffffffffffffffff1667ffffffffffffffff1678010000000000000000000000000000000000000000000000000281526008018373ffffffffffffffffffffffffffffffffffffffff1673ffffffffffffffffffffffffffffffffffffffff166c010000000000000000000000000281526014018273ffffffffffffffffffffffffffffffffffffffff1673ffffffffffffffffffffffffffffffffffffffff166c010000000000000000000000000281526014019350505050604051602081830303815290604052805190602001207801000000000000000000000000000000000000000000000000900490506000600460008367ffffffffffffffff1667ffffffffffffffff1681526020019081526020016000209050848160080181905550858160010160006101000a81548173ffffffffffffffffffffffffffffffffffffffff021916908373ffffffffffffffffffffffffffffffffffffffff16021790555083816009018190555060065481600a0181905550868160000160026101000a81548173ffffffffffffffffffffffffffffffffffffffff021916908373ffffffffffffffffffffffffffffffffffffffff16021790555060008160000160016101000a81548160ff021916908360028111156148e657fe5b0217905550828160000160006101000a81548160ff0219169083600081111561490b57fe5b0217905550604080519081016040528083604051602001808267ffffffffffffffff1667ffffffffffffffff1678010000000000000000000000000000000000000000000000000281526008019150506040516020818303038152906040528051906020012081526020014281525060076000600654815260200190815260200160002060008201518160000155602082015181600101559050508573ffffffffffffffffffffffffffffffffffffffff168773ffffffffffffffffffffffffffffffffffffffff168367ffffffffffffffff167faa231413cf2b61ec7d73eeef7c722cd8ef6ed7a76e4d9e533867281e94f9a82360065488604051808381526020018281526020019250505060405180910390a46001600360008282829054906101000a900467ffffffffffffffff160192506101000a81548167ffffffffffffffff021916908367ffffffffffffffff16021790555050505050505050565b600080614a798484614aa8565b90507fffffffffffffffffffffffffffffffffffffffffffffffffffffffffffffffff81141591505092915050565b600080600090505b8380549050811015614af957828482815481101515614acb57fe5b9060005260206000209060040201600201541415614aec5780915050614b1e565b8080600101915050614ab0565b507fffffffffffffffffffffffffffffffffffffffffffffffffffffffffffffffff90505b92915050565b614b2c616e9d565b614b358461611e565b9050614bb583600260008a67ffffffffffffffff1667ffffffffffffffff16815260200190815260200160002088815481101515614b6f57fe5b906000526020600020906004020160000160009054906101000a900473ffffffffffffffffffffffffffffffffffffffff1683604001516162c09092919063ffffffff16565b1515614c29576040517f08c379a00000000000000000000000000000000000000000000000000000000081526004018080602001828103825260118152602001807f496e76616c6964207369676e617475726500000000000000000000000000000081525060200191505060405180910390fd5b8667ffffffffffffffff16816000015167ffffffffffffffff16141515614cb8576040517f08c379a000000000000000000000000000000000000000000000000000000000815260040180806020018281038252601e8152602001807f5478206973207265666572656e63696e6720616e6f7468657220736c6f74000081525060200191505060405180910390fd5b600260008867ffffffffffffffff1667ffffffffffffffff16815260200190815260200160002086815481101515614cec57fe5b90600052602060002090600402016003015485111515614d57576040517f08c379a00000000000000000000000000000000000000000000000000000000081526004018080602001828103825260268152602001806172706026913960400191505060405180910390fd5b600460008867ffffffffffffffff1667ffffffffffffffff168152602001908152602001600020600201600501548511151515614ddf576040517f08c379a00000000000000000000000000000000000000000000000000000000081526004018080602001828103825260278152602001806171026027913960400191505060405180910390fd5b614df3816000015182604001518785616303565b50505050505050565b614e5967016345785d8a0000600160008573ffffffffffffffffffffffffffffffffffffffff1673ffffffffffffffffffffffffffffffffffffffff1681526020019081526020016000206000015461641c90919063ffffffff16565b600160008473ffffffffffffffffffffffffffffffffffffffff1673ffffffffffffffffffffffffffffffffffffffff16815260200190815260200160002060000181905550614efc67016345785d8a0000600160008473ffffffffffffffffffffffffffffffffffffffff1673ffffffffffffffffffffffffffffffffffffffff1681526020019081526020016000206001015461567c90919063ffffffff16565b600160008373ffffffffffffffffffffffffffffffffffffffff1673ffffffffffffffffffffffffffffffffffffffff168152602001908152602001600020600101819055508073ffffffffffffffffffffffffffffffffffffffff168273ffffffffffffffffffffffffffffffffffffffff167fbd6bf2f753dc1a7dee94a7abd7645adc6c228c2af17fd72d9104674cc5d2127367016345785d8a00006040518082815260200191505060405180910390a35050565b600080614fc08484614aa8565b90507fffffffffffffffffffffffffffffffffffffffffffffffffffffffffffffffff811415614ff4576000915050615252565b614ffc616de2565b84600186805490500381548110151561501157fe5b9060005260206000209060040201608060405190810160405290816000820160009054906101000a900473ffffffffffffffffffffffffffffffffffffffff1673ffffffffffffffffffffffffffffffffffffffff1673ffffffffffffffffffffffffffffffffffffffff1681526020016001820160009054906101000a900473ffffffffffffffffffffffffffffffffffffffff1673ffffffffffffffffffffffffffffffffffffffff1673ffffffffffffffffffffffffffffffffffffffff1681526020016002820154815260200160038201548152505090508085838154811015156150fc57fe5b906000526020600020906004020160008201518160000160006101000a81548173ffffffffffffffffffffffffffffffffffffffff021916908373ffffffffffffffffffffffffffffffffffffffff16021790555060208201518160010160006101000a81548173ffffffffffffffffffffffffffffffffffffffff021916908373ffffffffffffffffffffffffffffffffffffffff16021790555060408201518160020155606082015181600301559050508460018680549050038154811015156151c457fe5b9060005260206000209060040201600080820160006101000a81549073ffffffffffffffffffffffffffffffffffffffff02191690556001820160006101000a81549073ffffffffffffffffffffffffffffffffffffffff02191690556002820160009055600382016000905550506001858181805490500391508161524a9190616ef0565b506001925050505b92915050565b600080600260008467ffffffffffffffff1667ffffffffffffffff168152602001908152602001600020805490509050600080600090505b828110156154d5576000600102600260008767ffffffffffffffff1667ffffffffffffffff168152602001908152602001600020828154811015156152d157fe5b9060005260206000209060040201600201541415156154c8578115156153b2576153ad600460008767ffffffffffffffff1667ffffffffffffffff16815260200190815260200160002060020160010160009054906101000a900473ffffffffffffffffffffffffffffffffffffffff16600260008867ffffffffffffffff1667ffffffffffffffff1681526020019081526020016000208381548110151561537657fe5b906000526020600020906004020160010160009054906101000a900473ffffffffffffffffffffffffffffffffffffffff16614dfc565b600191505b615420600260008767ffffffffffffffff1667ffffffffffffffff168152602001908152602001600020828154811015156153e957fe5b906000526020600020906004020160010160009054906101000a900473ffffffffffffffffffffffffffffffffffffffff166154dd565b600260008667ffffffffffffffff1667ffffffffffffffff1681526020019081526020016000208181548110151561545457fe5b9060005260206000209060040201600080820160006101000a81549073ffffffffffffffffffffffffffffffffffffffff02191690556001820160006101000a81549073ffffffffffffffffffffffffffffffffffffffff0219169055600282016000905560038201600090555050600193505b8080600101915050615290565b505050919050565b61553a67016345785d8a0000600160008473ffffffffffffffffffffffffffffffffffffffff1673ffffffffffffffffffffffffffffffffffffffff1681526020019081526020016000206000015461641c90919063ffffffff16565b600160008373ffffffffffffffffffffffffffffffffffffffff1673ffffffffffffffffffffffffffffffffffffffff168152602001908152602001600020600001819055506155dd67016345785d8a0000600160008473ffffffffffffffffffffffffffffffffffffffff1673ffffffffffffffffffffffffffffffffffffffff1681526020019081526020016000206001015461567c90919063ffffffff16565b600160008373ffffffffffffffffffffffffffffffffffffffff1673ffffffffffffffffffffffffffffffffffffffff168152602001908152602001600020600101819055508073ffffffffffffffffffffffffffffffffffffffff167f5406cdbb33189b887da81a90c7ff307f3af1854b2504d0bde438b8bb5b7d8b5267016345785d8a00006040518082815260200191505060405180910390a250565b600080828401905083811015151561569357600080fd5b8091505092915050565b600460008667ffffffffffffffff1667ffffffffffffffff168152602001908152602001600020600201600401548311151515615725576040517f08c379a000000000000000000000000000000000000000000000000000000000815260040180806020018281038252602b815260200180617083602b913960400191505060405180910390fd5b61572d616e9d565b6157368561611e565b9050600073ffffffffffffffffffffffffffffffffffffffff1661576784836040015161643e90919063ffffffff16565b73ffffffffffffffffffffffffffffffffffffffff16141515156157f3576040517f08c379a00000000000000000000000000000000000000000000000000000000081526004018080602001828103825260118152602001807f496e76616c6964207369676e617475726500000000000000000000000000000081525060200191505060405180910390fd5b8567ffffffffffffffff16816000015167ffffffffffffffff16141515615882576040517f08c379a000000000000000000000000000000000000000000000000000000000815260040180806020018281038252601e8152602001807f5478206973207265666572656e63696e6720616e6f7468657220736c6f74000081525060200191505060405180910390fd5b6158928682604001518685616303565b505050505050565b600060606158af6158aa846166f3565b616721565b90506158d28160038151811015156158c357fe5b906020019060200201516167fe565b915050919050565b600060606158ef6158ea846166f3565b616721565b9050600061591482600081518110151561590557fe5b90602001906020020151616823565b9050600061593983600181518110151561592a57fe5b90602001906020020151616823565b905060008114156159a15781604051602001808267ffffffffffffffff1667ffffffffffffffff1678010000000000000000000000000000000000000000000000000281526008019150506040516020818303038152906040528051906020012093506159ac565b848051906020012093505b505050919050565b62049d40600460008667ffffffffffffffff1667ffffffffffffffff16815260200190815260200160002060020160020154014211151515615a5e576040517f08c379a00000000000000000000000000000000000000000000000000000000081526004018080602001828103825260198152602001807f4368616c6c656e67652077696e646f7773206973206f7665720000000000000081525060200191505060405180910390fd5b615a9781600260008767ffffffffffffffff1667ffffffffffffffff168152602001908152602001600020614a6c90919063ffffffff16565b151515615aef576040517f08c379a00000000000000000000000000000000000000000000000000000000081526004018080602001828103825260268152602001806171f16026913960400191505060405180910390fd5b600260008567ffffffffffffffff1667ffffffffffffffff1681526020019081526020016000206080604051908101604052808573ffffffffffffffffffffffffffffffffffffffff1681526020013373ffffffffffffffffffffffffffffffffffffffff168152602001838152602001848152509080600181540180825580915050906001820390600052602060002090600402016000909192909190915060008201518160000160006101000a81548173ffffffffffffffffffffffffffffffffffffffff021916908373ffffffffffffffffffffffffffffffffffffffff16021790555060208201518160010160006101000a81548173ffffffffffffffffffffffffffffffffffffffff021916908373ffffffffffffffffffffffffffffffffffffffff16021790555060408201518160020155606082015181600301555050508367ffffffffffffffff167f057d34b2360e71f2764a7189966401bc058621905c0bef7123a6bdfe9a13284b8284604051808381526020018281526020019250505060405180910390a250505050565b6000600554826001600281101515615c9857fe5b6020020151811515615ca657fe5b06141515615cd257615ccd858484846001600281101515615cc357fe5b6020020151616896565b615ce1565b615ce0868686868686616955565b5b505050505050565b6000600460008567ffffffffffffffff1667ffffffffffffffff168152602001908152602001600020905060c0604051908101604052808473ffffffffffffffffffffffffffffffffffffffff1681526020013373ffffffffffffffffffffffffffffffffffffffff168152602001428152602001348152602001836000600281101515615d7357fe5b60200201518152602001836001600281101515615d8c57fe5b60200201518152508160020160008201518160000160006101000a81548173ffffffffffffffffffffffffffffffffffffffff021916908373ffffffffffffffffffffffffffffffffffffffff16021790555060208201518160010160006101000a81548173ffffffffffffffffffffffffffffffffffffffff021916908373ffffffffffffffffffffffffffffffffffffffff16021790555060408201518160020155606082015181600301556080820151816004015560a0820151816005015590505060018160000160016101000a81548160ff02191690836002811115615e7257fe5b02179055503373ffffffffffffffffffffffffffffffffffffffff168467ffffffffffffffff167fbaf912dedc1b0ee4647f945b0432e694bce1aa2c4e21052d977687641587495660405160405180910390a350505050565b82600460008767ffffffffffffffff1667ffffffffffffffff16815260200190815260200160002060020160050154118015615f33575082600460008767ffffffffffffffff1667ffffffffffffffff16815260200190815260200160002060020160040154105b1515615f8a576040517f08c379a00000000000000000000000000000000000000000000000000000000081526004018080602001828103825260268152602001806172ec6026913960400191505060405180910390fd5b615f92616e9d565b615f9b8561611e565b905061600383600460008967ffffffffffffffff1667ffffffffffffffff16815260200190815260200160002060020160000160009054906101000a900473ffffffffffffffffffffffffffffffffffffffff1683604001516162c09092919063ffffffff16565b1515616077576040517f08c379a00000000000000000000000000000000000000000000000000000000081526004018080602001828103825260118152602001807f496e76616c6964207369676e617475726500000000000000000000000000000081525060200191505060405180910390fd5b8567ffffffffffffffff16816000015167ffffffffffffffff16141515616106576040517f08c379a000000000000000000000000000000000000000000000000000000000815260040180806020018281038252601e8152602001807f5478206973207265666572656e63696e6720616e6f7468657220736c6f74000081525060200191505060405180910390fd5b6161168682604001518685616303565b505050505050565b616126616e9d565b6060616139616134846166f3565b616721565b9050616143616e9d565b61616482600081518110151561615557fe5b90602001906020020151616823565b816000019067ffffffffffffffff16908167ffffffffffffffff16815250506161a482600181518110151561619557fe5b90602001906020020151616823565b8160600181815250506161ce8260028151811015156161bf57fe5b90602001906020020151616823565b8160800181815250506161f88260038151811015156161e957fe5b906020019060200201516167fe565b816020019073ffffffffffffffffffffffffffffffffffffffff16908173ffffffffffffffffffffffffffffffffffffffff16815250506000816060015114156162a4578060000151604051602001808267ffffffffffffffff1667ffffffffffffffff167801000000000000000000000000000000000000000000000000028152600801915050604051602081830303815290604052805190602001208160400181815250506162b6565b83805190602001208160400181815250505b8092505050919050565b60006162cc848461643e565b73ffffffffffffffffffffffffffffffffffffffff168273ffffffffffffffffffffffffffffffffffffffff161490509392505050565b60006007600084815260200190815260200160002060000154905060006005548481151561632d57fe5b0614151561639457808414151561638f576040517f08c379a00000000000000000000000000000000000000000000000000000000081526004018080602001828103825260288152602001806171c96028913960400191505060405180910390fd5b616415565b6163a084828785613bd6565b1515616414576040517f08c379a00000000000000000000000000000000000000000000000000000000081526004018080602001828103825260208152602001807f5478206e6f7420696e636c7564656420696e20636c61696d656420626c6f636b81525060200191505060405180910390fd5b5b5050505050565b600082821115151561642d57600080fd5b600082840390508091505092915050565b6000604182511480616451575060428251145b15156164c5576040517f08c379a000000000000000000000000000000000000000000000000000000000815260040180806020018281038252601b8152602001807f5369676e6174757265206c656e67687420697320696e76616c6964000000000081525060200191505060405180910390fd5b600080849050600080600080600190506041885114156164ec57600090506000955061657a565b8760008151811015156164fb57fe5b9060200101517f010000000000000000000000000000000000000000000000000000000000000090047f0100000000000000000000000000000000000000000000000000000000000000027f0100000000000000000000000000000000000000000000000000000000000000900460ff16600281111561657757fe5b95505b80602001880151925080604001880151915060ff81604101890151169350600160028111156165a557fe5b8660028111156165b157fe5b141561660d578460405160200180807f19457468657265756d205369676e6564204d6573736167653a0a333200000000815250601c0182815260200191505060405160208183030381529060405280519060200120945061667e565b60028081111561661957fe5b86600281111561662557fe5b141561667d578460405160200180807f19457468657265756d205369676e6564204d6573736167653a0a200000000000815250601b018281526020019150506040516020818303038152906040528051906020012094505b5b60018585858560405160008152602001604052604051808581526020018460ff1660ff1681526020018381526020018281526020019450505050506020604051602081039080840390855afa1580156166db573d6000803e3d6000fd5b50505060206040510351965050505050505092915050565b6166fb616f22565b600060208301905060408051908101604052808451815260200182815250915050919050565b606061672c82616b5a565b151561673757600080fd5b600061674283616ba8565b90508060405190808252806020026020018201604052801561677e57816020015b61676b616f3c565b8152602001906001900390816167635790505b50915060006167908460200151616c19565b8460200151019050600080600090505b838110156167f5576167b183616ca2565b915060408051908101604052808381526020018481525085828151811015156167d657fe5b90602001906020020181905250818301925080806001019150506167a0565b50505050919050565b60006015826000015114151561681357600080fd5b61681c82616823565b9050919050565b600080826000015111801561683d57506021826000015111155b151561684857600080fd5b60006168578360200151616c19565b9050600081846000015103905060008083866020015101905080519150602083101561688a57826020036101000a820491505b81945050505050919050565b61689e616e9d565b6168a78561611e565b90506168c683826020015183604001516162c09092919063ffffffff16565b151561693a576040517f08c379a00000000000000000000000000000000000000000000000000000000081526004018080602001828103825260118152602001807f496e76616c6964207369676e617475726500000000000000000000000000000081525060200191505060405180910390fd5b61694e816000015182604001518487616303565b5050505050565b80600160028110151561696457fe5b602002015181600060028110151561697857fe5b60200201511015156169d5576040517f08c379a000000000000000000000000000000000000000000000000000000000815260040180806020018281038252603c815260200180617160603c913960400191505060405180910390fd5b6169dd616e9d565b6169e68661611e565b90506169f0616e9d565b6169f98861611e565b9050806000015167ffffffffffffffff16826000015167ffffffffffffffff16141515616a71576040517f08c379a00000000000000000000000000000000000000000000000000000000081526004018080602001828103825260378152602001806171296037913960400191505060405180910390fd5b616a8e84826020015184604001516162c09092919063ffffffff16565b1515616b02576040517f08c379a00000000000000000000000000000000000000000000000000000000081526004018080602001828103825260118152602001807f496e76616c6964207369676e617475726500000000000000000000000000000081525060200191505060405180910390fd5b616b2981600001518260400151856000600281101515616b1e57fe5b602002015189616303565b616b5082600001518360400151856001600281101515616b4557fe5b602002015188616303565b5050505050505050565b60008082600001511415616b715760009050616ba3565b60008083602001519050805160001a915060c060ff168260ff161015616b9c57600092505050616ba3565b6001925050505b919050565b60008082600001511415616bbf5760009050616c14565b60008090506000616bd38460200151616c19565b84602001510190506000846000015185602001510190505b80821015616c0d57616bfc82616ca2565b820191508280600101935050616beb565b8293505050505b919050565b600080825160001a9050608060ff16811015616c39576000915050616c9d565b60b860ff16811080616c5e575060c060ff168110158015616c5d575060f860ff1681105b5b15616c6d576001915050616c9d565b60c060ff16811015616c8d5760018060b80360ff16820301915050616c9d565b60018060f80360ff168203019150505b919050565b600080825160001a9050608060ff16811015616cc2576001915050616d50565b60b860ff16811015616ce0576001608060ff16820301915050616d50565b60c060ff16811015616d105760b78103600184019350806020036101000a84510460018201810193505050616d4e565b60f860ff16811015616d2e57600160c060ff16820301915050616d50565b60f78103600184019350806020036101000a845104600182018101935050505b505b919050565b6101a060405190810160405280600080811115616d6e57fe5b815260200160006002811115616d8057fe5b8152602001600073ffffffffffffffffffffffffffffffffffffffff168152602001600073ffffffffffffffffffffffffffffffffffffffff168152602001616dc7616f56565b81526020016000815260200160008152602001600081525090565b608060405190810160405280600073ffffffffffffffffffffffffffffffffffffffff168152602001600073ffffffffffffffffffffffffffffffffffffffff16815260200160008019168152602001600081525090565b60c060405190810160405280600073ffffffffffffffffffffffffffffffffffffffff168152602001600073ffffffffffffffffffffffffffffffffffffffff168152602001600081526020016000815260200160008152602001600081525090565b60a060405190810160405280600067ffffffffffffffff168152602001600073ffffffffffffffffffffffffffffffffffffffff1681526020016000801916815260200160008152602001600081525090565b815481835581811115616f1d57600402816004028360005260206000209182019101616f1c9190616fb9565b5b505050565b604080519081016040528060008152602001600081525090565b604080519081016040528060008152602001600081525090565b60c060405190810160405280600073ffffffffffffffffffffffffffffffffffffffff168152602001600073ffffffffffffffffffffffffffffffffffffffff168152602001600081526020016000815260200160008152602001600081525090565b61703391905b8082111561702f57600080820160006101000a81549073ffffffffffffffffffffffffffffffffffffffff02191690556001820160006101000a81549073ffffffffffffffffffffffffffffffffffffffff02191690556002820160009055600382016000905550600401616fbf565b5090565b9056fe436f6e7472616374206973206e6f7420616363657074696e67206d6f7265206465706f7369747321526573706f6e64696e6720746f206e6f6e206578697374696e67206368616c6c656e676554782073686f756c64206265206265666f7265207468652065786974277320706172656e7420626c6f636b546f6b656e20776173206e6f74207472616e73666572656420636f72726563746c795472616e73616374696f6e206d757374206265206163636f6d70616e6965642062792074686520424f4e4420414d4f554e5443616e6e6f7420726573706f6e6420776974682061207478206166746572207468652065786974536c6f74206f6e207468652045786974696e67547820646f6573206e6f74206d617463682074686174206f6e2074686520707265765478426c6f636b206f6e2074686520666972737420696e646578206d75737420626520746865206561726c696572206f6620746865203220626c6f636b73436f6e74726163742061646472657373206973206e6f7420617070726f76656420666f72206465706f736974735472616e73616374696f6e206861736820646f6573206e6f74206d6174636820726f6f74486173685472616e73616374696f6e207573656420666f72206368616c6c656e676520616c72656164794f6e6c7920636f696e2773206f776e657220697320616c6c6f77656420746f2063616e63656c20746865206578697453656e64657220646f6573206e6f74206d617463682065786974696e6754784279746573206f776e6572426c6f636b4e756d626572206d75737420626520616674657220746865206368616c656e67654120626c6f636b206c657373207468616e2063757272656e74426c6f636b2063616e6e6f74206265207375626d69747465645468697320636f6e747261637420646f6573206e6f742072656365697665206d6f6e657954782073686f756c64206265206265747765656e207468652065786974277320626c6f636b73a165627a7a72305820f0c15708208e9beab5a520c1d6d31557bc28618ee7c8666be2cafb79164c98ba0029608060405234801561001057600080fd5b507f290decd9548b62a8d60345a988386fc84ba6bc95484008f6362f93160ef3e56360010260008060418110151561004457fe5b018190555061006460016040610069640100000000026401000000009004565b610102565b60008290505b8160ff168160ff161115156100fd5760006001820360ff1660418110151561009357fe5b015460006001830360ff166041811015156100aa57fe5b015460405160200180838152602001828152602001925050506040516020818303038152906040528051906020012060008260ff166041811015156100eb57fe5b0181905550808060010191505061006f565b505050565b6104fd806101116000396000f3fe608060405234801561001057600080fd5b506004361061005e576000357c01000000000000000000000000000000000000000000000000000000009004806348419ad814610063578063509a7e54146100a5578063f586df6514610192575b600080fd5b61008f6004803603602081101561007957600080fd5b810190808035906020019092919050505061028d565b6040518082815260200191505060405180910390f35b61017c600480360360608110156100bb57600080fd5b8101908080359060200190929190803567ffffffffffffffff169060200190929190803590602001906401000000008111156100f657600080fd5b82018360208201111561010857600080fd5b8035906020019184600183028401116401000000008311171561012a57600080fd5b91908080601f016020809104026020016040519081016040528093929190818152602001838380828437600081840152601f19601f8201169050808301925050505050505091929192905050506102a7565b6040518082815260200191505060405180910390f35b610273600480360360808110156101a857600080fd5b810190808035906020019092919080359060200190929190803567ffffffffffffffff169060200190929190803590602001906401000000008111156101ed57600080fd5b8201836020820111156101ff57600080fd5b8035906020019184600183028401116401000000008311171561022157600080fd5b91908080601f016020809104026020016040519081016040528093929190818152602001838380828437600081840152601f19601f8201169050808301925050505050505091929192905050506104b3565b604051808215151515815260200191505060405180910390f35b60008160418110151561029c57fe5b016000915090505481565b600080602060088451038115156102ba57fe5b061480156102cb5750610808825111155b151561033f576040517f08c379a00000000000000000000000000000000000000000000000000000000081526004018080602001828103825260178152602001807f50726f6f66206c656e67746820697320696e76616c696400000000000000000081525060200191505060405180910390fd5b60008085905060006008905060008087905060186101000a602088015104915060008090505b604060ff168110156104a357600060028467ffffffffffffffff1681151561038957fe5b0667ffffffffffffffff1614156103b2576000816041811015156103a957fe5b015495506103d3565b6020840193508361ffff168851101515156103cc57600080fd5b8388015195505b600060028367ffffffffffffffff168115156103eb57fe5b0667ffffffffffffffff1614156104325784866040516020018083815260200182815260200192505050604051602081830303815290604052805190602001209450610464565b858560405160200180838152602001828152602001925050506040516020818303038152906040528051906020012094505b60028367ffffffffffffffff1681151561047a57fe5b04925060028267ffffffffffffffff1681151561049357fe5b0491508080600101915050610365565b5083955050505050509392505050565b6000806104c18685856102a7565b905084811491505094935050505056fea165627a7a723058201615d5dc6e6e9a7f2dd8c7b4967d359c1e95d00b05d4cf0145883ed27d2c136b0029",
  "source": "// Copyright Loom Network 2018 - All rights reserved, Dual licensed on GPLV3\n// Learn more about Loom DappChains at https://loomx.io\n// All derivitive works of this code must incluse this copyright header on every file\n\npragma solidity ^0.5.2;\n\n\n// ERC721\nimport \"openzeppelin-solidity/contracts/token/ERC721/ERC721.sol\";\nimport \"openzeppelin-solidity/contracts/token/ERC721/IERC721Receiver.sol\";\n\n// Lib deps\nimport \"openzeppelin-solidity/contracts/math/SafeMath.sol\";\nimport \"../Libraries/Transaction/Transaction.sol\";\nimport \"../Libraries/ECVerify.sol\";\nimport \"../Libraries/ChallengeLib.sol\";\n\n// SMT and VMC\nimport \"./SparseMerkleTree.sol\";\nimport \"./ValidatorManagerContract.sol\";\n\n\ncontract RootChain is IERC721Receiver {\n\n    /**\n     * Event for coin deposit logging.\n     * @notice The Deposit event indicates that a deposit block has been added\n     *         to the Plasma chain\n     * @param slot Plasma slot, a unique identifier, assigned to the deposit\n     * @param blockNumber The index of the block in which a deposit transaction\n     *                    is included\n     * @param denomination Quantity of a particular coin deposited\n     * @param from The address of the depositor\n     * @param contractAddress The address of the contract making the deposit\n     */\n    event Deposit(uint64 indexed slot, uint256 blockNumber, uint256 denomination,\n                  address indexed from, address indexed contractAddress);\n\n    /**\n     * Event for block submission logging\n     * @notice The event indicates the addition of a new Plasma block\n     * @param blockNumber The block number of the submitted block\n     * @param root The root hash of the Merkle tree containing all of a block's\n     *             transactions.\n     * @param timestamp The time when a block was added to the Plasma chain\n     */\n    event SubmittedBlock(uint256 blockNumber, bytes32 root, uint256 timestamp);\n\n    event Debug(address message);\n\n    /**\n     * Event for logging exit starts\n     * @param slot The slot of the coin being exited\n     * @param owner The user who claims to own the coin being exited\n     */\n    event StartedExit(uint64 indexed slot, address indexed owner);\n\n    /**\n     * Event for exit challenge logging\n     * @notice This event only fires if `challengeBefore` is called.\n     * @param slot The slot of the coin whose exit was challenged\n     * @param txHash The hash of the tx used for the challenge\n     */\n    event ChallengedExit(uint64 indexed slot, bytes32 txHash, uint256 challengingBlockNumber);\n\n    /**\n     * Event for exit response logging\n     * @notice This only logs responses to `challengeBefore`\n     * @param slot The slot of the coin whose challenge was responded to\n     */\n    event RespondedExitChallenge(uint64 indexed slot);\n\n    /**\n     * Event for logging when an exit was successfully challenged\n     * @param slot The slot of the coin being reset to NOT_EXITING\n     * @param owner The owner of the coin\n     */\n    event CoinReset(uint64 indexed slot, address indexed owner);\n\n    /**\n     * Event for exit finalization logging\n     * @param slot The slot of the coin whose exit has been finalized\n     * @param owner The owner of the coin whose exit has been finalized\n     */\n    event FinalizedExit(uint64 indexed slot, address owner);\n\n    /**\n     * Event to log the freeing of a bond\n     * @param from The address of the user whose bonds have been freed\n     * @param amount The bond amount which can now be withdrawn\n     */\n    event FreedBond(address indexed from, uint256 amount);\n\n    /**\n     * Event to log the slashing of a bond\n     * @param from The address of the user whose bonds have been slashed\n     * @param to The recipient of the slashed bonds\n     * @param amount The bound amount which has been forfeited\n     */\n    event SlashedBond(address indexed from, address indexed to, uint256 amount);\n\n    /**\n     * Event to log the withdrawal of a bond\n     * @param from The address of the user who withdrew bonds\n     * @param amount The bond amount which has been withdrawn\n     */\n    event WithdrewBonds(address indexed from, uint256 amount);\n\n    /**\n     * Event to log the withdrawal of a coin\n     * @param owner The address of the user who withdrew bonds\n     * @param slot the slot of the coin that was exited\n     * @param mode The type of coin that is being withdrawn (ERC721) (Extendible in the future)\n     * @param contractAddress The contract address where the coin is being withdrawn from\n              is same as `from` when withdrawing a ETH coin\n     * @param uid The uid of the coin being withdrawn if ERC721, else 0\n     * @param denomination The denomination of the coin which has been withdrawn (=1 for ERC721)\n     */\n    event Withdrew(address indexed owner, uint64 indexed slot, Mode mode, address contractAddress, uint uid, uint denomination);\n\n    /**\n     * Event to pause deposits in the contract.\n     * Temporarily added while the contract is being battle tested\n     * @param status Boolean value of the contract's status\n     */\n    event Paused(bool status);\n\n    using SafeMath for uint256;\n    using Transaction for bytes;\n    using ECVerify for bytes32;\n    using ChallengeLib for ChallengeLib.Challenge[];\n\n    uint256 constant BOND_AMOUNT = 0.1 ether;\n    // The contract does not accept more than that amount\n    uint256 constant MAX_VALUE = 10 ether;\n    // An exit can be finalized after it has matured,\n    // after T2 = T0 + MATURITY_PERIOD\n    // An exit can be challenged in the first window\n    // between T0 and T1 ( T1 = T0 + CHALLENGE_WINDOW)\n    // A challenge can be responded to in the second window\n    // between T1 and T2\n    uint256 constant MATURITY_PERIOD = 7 days;\n    uint256 constant CHALLENGE_WINDOW = 3 days + 12 hours;\n    bool paused;\n\n    /*\n     * Modifiers\n     */\n    modifier isValidator() {\n        require(vmc.checkValidator(msg.sender), \"Sender is not a Validator\");\n        _;\n    }\n\n    modifier isTokenApproved(address _address) {\n        require(vmc.allowedTokens(_address), \"Contract address is not approved for deposits\");\n        _;\n    }\n\n    modifier isBonded() {\n        require(msg.value == BOND_AMOUNT, \"Transaction must be accompanied by the BOND AMOUNT\");\n\n        // Save challenger's bond\n        balances[msg.sender].bonded = balances[msg.sender].bonded.add(msg.value);\n        _;\n    }\n\n    modifier isState(uint64 slot, State state) {\n        require(coins[slot].state == state, \"Wrong coin state\");\n        _;\n    }\n\n    struct Balance {\n        uint256 bonded;\n        uint256 withdrawable;\n    }\n    mapping (address => Balance) public balances;\n\n    // Each exit can only be challenged by a single challenger at a time\n    struct Exit {\n        address prevOwner; // previous owner of coin\n        address owner;\n        uint256 createdAt;\n        uint256 bond;\n        uint256 prevBlock;\n        uint256 exitBlock;\n    }\n    enum State {\n        NOT_EXITING,\n        EXITING,\n        EXITED\n    }\n\n    // Track owners of txs that are pending a response\n    struct Challenge {\n        address owner;\n        uint256 blockNumber;\n    }\n    mapping (uint64 => ChallengeLib.Challenge[]) challenges;\n\n    // tracking of NFTs deposited in each slot\n    enum Mode {\n        ERC721\n    }\n    uint64 public numCoins = 0;\n    mapping (uint64 => Coin) coins;\n    struct Coin {\n        Mode mode;\n        State state;\n        address owner; // who owns that nft\n        address contractAddress; // which contract does the coin belong to\n        Exit exit;\n        uint256 uid;\n        uint256 denomination;\n        uint256 depositBlock;\n    }\n\n    // child chain\n    uint256 public childBlockInterval = 1000;\n    uint256 public currentBlock = 0;\n    struct ChildBlock {\n        bytes32 root;\n        uint256 createdAt;\n    }\n\n    mapping(uint256 => ChildBlock) public childChain;\n    ValidatorManagerContract public vmc;\n    SparseMerkleTree smt;\n\n    constructor (ValidatorManagerContract _vmc) public {\n        vmc = _vmc;\n        smt = new SparseMerkleTree();\n    }\n\n\n    /// @dev called by a Validator to append a Plasma block to the Plasma chain\n    /// @param root The transaction root hash of the Plasma block being added\n    function submitBlock(uint256 blockNumber, bytes32 root)\n        public\n        isValidator\n    {\n        // rounding to next whole `childBlockInterval`\n        require(blockNumber >= currentBlock, \"A block less than currentBlock cannot be submitted\");\n        currentBlock = blockNumber;\n\n        childChain[currentBlock] = ChildBlock({\n            root: root,\n            createdAt: block.timestamp\n        });\n\n        emit SubmittedBlock(currentBlock, root, block.timestamp);\n    }\n\n    /// @dev Allows anyone to deposit funds into the Plasma chain, called when\n    //       contract receives ERC721\n    /// @notice Appends a deposit block to the Plasma chain\n    /// @param from The address of the user who is depositing a coin\n    /// @param uid The uid of the ERC721 coin being deposited. This is an\n    ///            identifier allocated by the ERC721 token contract; it is not\n    ///            related to `slot`. If the coin is ETH or ERC20 the uid is 0\n    /// @param denomination The quantity of a particular coin being deposited (1 for ERC721) (Extensible in the future)\n    /// @param mode The type of coin that is being deposited (ERC721)\n    function deposit(\n        address from,\n        address contractAddress,\n        uint256 uid,\n        uint256 denomination,\n        Mode mode\n    )\n        private\n    {\n        require(!paused, \"Contract is not accepting more deposits!\");\n        currentBlock = currentBlock.add(1);\n        uint64 slot = uint64(bytes8(keccak256(abi.encodePacked(numCoins, msg.sender, from))));\n\n        // Update state. Leave `exit` empty\n        Coin storage coin = coins[slot];\n        coin.uid = uid;\n        coin.contractAddress = contractAddress;\n        coin.denomination = denomination;\n        coin.depositBlock = currentBlock;\n        coin.owner = from;\n        coin.state = State.NOT_EXITING;\n        coin.mode = mode;\n\n        childChain[currentBlock] = ChildBlock({\n            // save signed transaction hash as root\n            // hash for deposit transactions is the hash of its slot\n            root: keccak256(abi.encodePacked(slot)),\n            createdAt: block.timestamp\n        });\n\n        // create a utxo at `slot`\n        emit Deposit(\n            slot,\n            currentBlock,\n            denomination,\n            from,\n            contractAddress\n        );\n\n        numCoins += 1;\n    }\n\n    /******************** EXIT RELATED ********************/\n\n    function startExit(\n        uint64 slot,\n        bytes calldata prevTxBytes, bytes calldata exitingTxBytes,\n        bytes calldata prevTxInclusionProof, bytes calldata exitingTxInclusionProof,\n        bytes calldata signature,\n        uint256[2] calldata blocks)\n        external\n        payable isBonded\n        isState(slot, State.NOT_EXITING)\n    {\n        require(msg.sender == exitingTxBytes.getOwner(), \"Sender does not match exitingTxBytes owner\");\n\n        doInclusionChecks(\n            prevTxBytes, exitingTxBytes,\n            prevTxInclusionProof, exitingTxInclusionProof,\n            signature,\n            blocks\n        );\n\n        if (blocks[1] % childBlockInterval != 0) {\n            pushExit(slot, address(0), blocks);\n        } else {\n            pushExit(slot, prevTxBytes.getOwner(), blocks);\n        }\n    }\n\n    /// @dev Verifies that consecutive two transaction involving the same coin\n    ///      are valid\n    /// @notice If exitingTxBytes corresponds to a deposit transaction,\n    ///         prevTxBytes cannot have a meaningul value and thus it is ignored.\n    /// @param prevTxBytes The RLP-encoded transaction involving a particular\n    ///        coin which took place directly before exitingTxBytes\n    /// @param exitingTxBytes The RLP-encoded transaction involving a particular\n    ///        coin which an exiting owner of the coin claims to be the latest\n    /// @param prevTxInclusionProof An inclusion proof of prevTx\n    /// @param exitingTxInclusionProof An inclusion proof of exitingTx\n    /// @param signature The signature of the exitingTxBytes by the coin\n    ///        owner indicated in prevTx\n    /// @param blocks An array of two block numbers, at index 0, the block\n    ///        containing the prevTx and at index 1, the block containing\n    ///        the exitingTx\n    function doInclusionChecks(\n        bytes memory prevTxBytes, bytes memory exitingTxBytes,\n        bytes memory prevTxInclusionProof, bytes memory exitingTxInclusionProof,\n        bytes memory signature,\n        uint256[2] memory blocks)\n        private\n        view\n    {\n    if (blocks[1] % childBlockInterval != 0) {\n            checkIncludedAndSigned(\n                exitingTxBytes,\n                exitingTxInclusionProof,\n                signature,\n                blocks[1]\n            );\n        } else {\n            checkBothIncludedAndSigned(\n                prevTxBytes, exitingTxBytes, prevTxInclusionProof,\n                exitingTxInclusionProof, signature,\n                blocks\n            );\n        }\n    }\n\n    // Needed to bypass stack limit errors\n    function pushExit(\n        uint64 slot,\n        address prevOwner,\n        uint256[2] memory blocks)\n        private\n    {\n        // Create exit\n        Coin storage c = coins[slot];\n        c.exit = Exit({\n            prevOwner: prevOwner,\n            owner: msg.sender,\n            createdAt: block.timestamp,\n            bond: msg.value,\n            prevBlock: blocks[0],\n            exitBlock: blocks[1]\n        });\n\n        // Update coin state\n        c.state = State.EXITING;\n        emit StartedExit(slot, msg.sender);\n    }\n\n    /// @dev Finalizes an exit, i.e. puts the exiting coin into the EXITED\n    ///      state which will allow it to be withdrawn, provided the exit has\n    ///      matured and has not been successfully challenged\n    function finalizeExit(uint64 slot) public {\n        Coin storage coin = coins[slot];\n\n        // If a coin is not under exit/challenge, then ignore it\n        if (coin.state != State.EXITING)\n            return;\n\n        // If an exit is not matured, ignore it\n        if ((block.timestamp - coin.exit.createdAt) <= MATURITY_PERIOD)\n            /// TODO time error\n            return;\n\n        // Check if there are any pending challenges for the coin.\n        // `checkPendingChallenges` will also penalize\n        // for each challenge that has not been responded to\n        bool hasChallenges = checkPendingChallenges(slot);\n\n        if (!hasChallenges) {\n            // Update coin's owner\n            coin.owner = coin.exit.owner;\n            coin.state = State.EXITED;\n\n            // Allow the exitor to withdraw their bond\n            freeBond(coin.owner);\n\n            emit FinalizedExit(slot, coin.owner);\n        } else {\n            // Reset coin state since it was challenged\n            coin.state = State.NOT_EXITING;\n            emit CoinReset(slot, coin.owner);\n        }\n\n        delete coins[slot].exit;\n    }\n\n    function checkPendingChallenges(uint64 slot) private returns (bool hasChallenges) {\n        uint256 length = challenges[slot].length;\n        bool slashed;\n        for (uint i = 0; i < length; i++) {\n            if (challenges[slot][i].txHash != 0x0) {\n                // Penalize the exitor and reward the first valid challenger.\n                if (!slashed) {\n                    slashBond(coins[slot].exit.owner, challenges[slot][i].challenger);\n                    slashed = true;\n                }\n                // Also free the bond of the challenger.\n                freeBond(challenges[slot][i].challenger);\n\n                // Challenge resolved, delete it\n                delete challenges[slot][i];\n                hasChallenges = true;\n            }\n        }\n    }\n\n    /// @dev Iterates through all of the initiated exits and finalizes those\n    ///      which have matured without being successfully challenged\n    function finalizeExits(uint64[] calldata slots) external {\n        uint256 slotsLength = slots.length;\n        for (uint256 i = 0; i < slotsLength; i++) {\n            finalizeExit(slots[i]);\n        }\n    }\n\n    function cancelExit(uint64 slot) public {\n        require(coins[slot].exit.owner == msg.sender, \"Only coin's owner is allowed to cancel the exit\");\n        delete coins[slot].exit;\n        coins[slot].state = State.NOT_EXITING;\n        freeBond(msg.sender);\n        emit CoinReset(slot, coins[slot].owner);\n    }\n\n    function cancelExits(uint64[] calldata slots) external {\n        uint256 slotsLength = slots.length;\n        for (uint256 i = 0; i < slotsLength; i++) {\n            cancelExit(slots[i]);\n        }\n    }\n\n\n\n    /// @dev Withdraw a UTXO that has been exited\n    /// @param slot The slot of the coin being withdrawn\n    function withdraw(uint64 slot) external isState(slot, State.EXITED) {\n        require(coins[slot].owner == msg.sender, \"You do not own that UTXO\");\n        uint256 uid = coins[slot].uid;\n        uint256 denomination = coins[slot].denomination;\n\n        // Delete the coin that is being withdrawn\n        Coin memory c = coins[slot];\n        delete coins[slot];\n        if (c.mode == Mode.ERC721) {\n            ERC721(c.contractAddress).safeTransferFrom(address(this), msg.sender, uid);\n        } else {\n            revert(\"Invalid coin mode\");\n        }\n\n        emit Withdrew(\n            msg.sender,\n            slot,\n            c.mode,\n            c.contractAddress,\n            uid,\n            denomination\n        );\n    }\n\n    /******************** CHALLENGES ********************/\n\n    /// @dev Submits proof of a transaction before prevTx as an exit challenge\n    /// @notice Exitor has to call respondChallengeBefore and submit a\n    ///         transaction before prevTx or prevTx itself.\n    /// @param slot The slot corresponding to the coin whose exit is being challenged\n    /// @param txBytes The RLP-encoded transaction involving a particular\n    ///        coin which an exiting owner of the coin claims to be the latest\n    /// @param txInclusionProof An inclusion proof of exitingTx\n    /// @param signature The signature of the txBytes by the coin\n    ///        owner indicated in prevTx\n    /// @param blockNumber The block containing the exitingTx\n    function challengeBefore(\n        uint64 slot,\n        bytes calldata txBytes,\n        bytes calldata txInclusionProof,\n        bytes calldata signature,\n        uint256 blockNumber)\n        external\n        payable isBonded\n        isState(slot, State.EXITING)\n    {\n        checkBefore(slot, txBytes, blockNumber, signature, txInclusionProof);\n        setChallenged(slot, txBytes.getOwner(), blockNumber, txBytes.getHash());\n    }\n\n    /// @dev Submits proof of a later transaction that corresponds to a challenge\n    /// @notice Can only be called in the second window of the exit period.\n    /// @param slot The slot corresponding to the coin whose exit is being challenged\n    /// @param challengingTxHash The hash of the transaction\n    ///        corresponding to the challenge we're responding to\n    /// @param respondingBlockNumber The block number which included the transaction\n    ///        we are responding with\n    /// @param respondingTransaction The RLP-encoded transaction involving a particular\n    ///        coin which took place directly after challengingTransaction\n    /// @param proof An inclusion proof of respondingTransaction\n    /// @param signature The signature which proves a direct spend from the challenger\n    function respondChallengeBefore(\n        uint64 slot,\n        bytes32 challengingTxHash,\n        uint256 respondingBlockNumber,\n        bytes calldata respondingTransaction,\n        bytes calldata proof,\n        bytes calldata signature)\n        external\n    {\n        // Check that the transaction being challenged exists\n        require(challenges[slot].contains(challengingTxHash), \"Responding to non existing challenge\");\n\n        // Get index of challenge in the challenges array\n        uint256 index = uint256(challenges[slot].indexOf(challengingTxHash));\n\n        checkResponse(slot, index, respondingBlockNumber, respondingTransaction, signature, proof);\n\n        // If the exit was actually challenged and responded, penalize the challenger and award the responder\n        slashBond(challenges[slot][index].challenger, msg.sender);\n\n        challenges[slot].remove(challengingTxHash);\n        emit RespondedExitChallenge(slot);\n    }\n\n    function checkResponse(\n        uint64 slot,\n        uint256 index,\n        uint256 blockNumber,\n        bytes memory txBytes,\n        bytes memory signature,\n        bytes memory proof\n    )\n        private\n        view\n    {\n        Transaction.TX memory txData = txBytes.getTx();\n        require(txData.hash.ecverify(signature, challenges[slot][index].owner), \"Invalid signature\");\n        require(txData.slot == slot, \"Tx is referencing another slot\");\n        require(blockNumber > challenges[slot][index].challengingBlockNumber, \"BlockNumber must be after the chalenge\");\n        require(blockNumber <= coins[slot].exit.exitBlock, \"Cannot respond with a tx after the exit\");\n        checkTxIncluded(txData.slot, txData.hash, blockNumber, proof);\n    }\n\n    function challengeBetween(\n        uint64 slot,\n        uint256 challengingBlockNumber,\n        bytes calldata challengingTransaction,\n        bytes calldata proof,\n        bytes calldata signature)\n        external isState(slot, State.EXITING)\n    {\n        checkBetween(slot, challengingTransaction, challengingBlockNumber, signature, proof);\n        applyPenalties(slot);\n    }\n\n    function challengeAfter(\n        uint64 slot,\n        uint256 challengingBlockNumber,\n        bytes calldata challengingTransaction,\n        bytes calldata proof,\n        bytes calldata signature)\n        external\n        isState(slot, State.EXITING)\n    {\n        checkAfter(slot, challengingTransaction, challengingBlockNumber, signature, proof);\n        applyPenalties(slot);\n    }\n\n\n    // Must challenge with a tx in between\n\n    function checkBefore(\n        uint64 slot,\n        bytes memory txBytes,\n        uint blockNumber,\n        bytes memory signature,\n        bytes memory proof\n    )\n        private\n        view\n    {\n        require(\n            blockNumber <= coins[slot].exit.prevBlock,\n            \"Tx should be before the exit's parent block\"\n        );\n\n        Transaction.TX memory txData = txBytes.getTx();\n        require(txData.hash.recover(signature) != address(0x0), \"Invalid signature\");\n        require(txData.slot == slot, \"Tx is referencing another slot\");\n        checkTxIncluded(slot, txData.hash, blockNumber, proof);\n    }\n\n\n    // Check that the challenging transaction has been signed\n    // by the attested previous owner of the coin in the exit\n    function checkBetween(\n        uint64 slot,\n        bytes memory txBytes,\n        uint blockNumber,\n        bytes memory signature,\n        bytes memory proof\n    )\n        private\n        view\n    {\n        require(\n            coins[slot].exit.exitBlock > blockNumber &&\n            coins[slot].exit.prevBlock < blockNumber,\n            \"Tx should be between the exit's blocks\"\n        );\n\n        Transaction.TX memory txData = txBytes.getTx();\n        require(txData.hash.ecverify(signature, coins[slot].exit.prevOwner), \"Invalid signature\");\n        require(txData.slot == slot, \"Tx is referencing another slot\");\n        checkTxIncluded(slot, txData.hash, blockNumber, proof);\n    }\n\n    function checkAfter(uint64 slot, bytes memory txBytes, uint blockNumber, bytes memory signature, bytes memory proof) private view {\n        require(\n            coins[slot].exit.exitBlock < blockNumber,\n            \"Tx should be after the exitBlock\"\n        );\n\n        Transaction.TX memory txData = txBytes.getTx();\n        require(txData.hash.ecverify(signature, coins[slot].exit.owner), \"Invalid signature\");\n        require(txData.slot == slot, \"Tx is referencing another slot\");\n        require(txData.prevBlock == coins[slot].exit.exitBlock, \"Not a direct spend\");\n        checkTxIncluded(slot, txData.hash, blockNumber, proof);\n    }\n\n    function applyPenalties(uint64 slot) private {\n        // Apply penalties and change state\n        slashBond(coins[slot].exit.owner, msg.sender);\n        coins[slot].state = State.NOT_EXITING;\n        delete coins[slot].exit;\n        emit CoinReset(slot, coins[slot].owner);\n    }\n\n    /// @param slot The slot of the coin being challenged\n    /// @param owner The user claimed to be the true owner of the coin\n    function setChallenged(uint64 slot, address owner, uint256 challengingBlockNumber, bytes32 txHash) private {\n        // Require that the challenge is in the first half of the challenge window\n        require(block.timestamp <= coins[slot].exit.createdAt + CHALLENGE_WINDOW, \"Challenge windows is over\");\n\n        require(!challenges[slot].contains(txHash),\n                \"Transaction used for challenge already\");\n\n        // Need to save the exiting transaction's owner, to verify\n        // that the response is valid\n        challenges[slot].push(\n            ChallengeLib.Challenge({\n                owner: owner,\n                challenger: msg.sender,\n                txHash: txHash,\n                challengingBlockNumber: challengingBlockNumber\n            })\n        );\n\n        emit ChallengedExit(slot, txHash, challengingBlockNumber);\n    }\n\n    /******************** BOND RELATED ********************/\n\n    function freeBond(address from) private {\n        balances[from].bonded = balances[from].bonded.sub(BOND_AMOUNT);\n        balances[from].withdrawable = balances[from].withdrawable.add(BOND_AMOUNT);\n        emit FreedBond(from, BOND_AMOUNT);\n    }\n\n    function withdrawBonds() external {\n        // Can only withdraw bond if the msg.sender\n        uint256 amount = balances[msg.sender].withdrawable;\n        balances[msg.sender].withdrawable = 0; // no reentrancy!\n\n        msg.sender.transfer(amount);\n        emit WithdrewBonds(msg.sender, amount);\n    }\n\n    function slashBond(address from, address to) private {\n        balances[from].bonded = balances[from].bonded.sub(BOND_AMOUNT);\n        balances[to].withdrawable = balances[to].withdrawable.add(BOND_AMOUNT);\n        emit SlashedBond(from, to, BOND_AMOUNT);\n    }\n\n    /******************** PROOF CHECKING ********************/\n\n    function checkIncludedAndSigned(\n        bytes memory exitingTxBytes,\n        bytes memory exitingTxInclusionProof,\n        bytes memory signature,\n        uint256 blk)\n        private\n        view\n    {\n        Transaction.TX memory txData = exitingTxBytes.getTx();\n\n        // Deposit transactions need to be signed by their owners\n        // e.g. Alice signs a transaction to Alice\n        require(txData.hash.ecverify(signature, txData.owner), \"Invalid signature\");\n        checkTxIncluded(txData.slot, txData.hash, blk, exitingTxInclusionProof);\n    }\n\n    function checkBothIncludedAndSigned(\n        bytes memory prevTxBytes, bytes memory exitingTxBytes,\n        bytes memory prevTxInclusionProof, bytes memory exitingTxInclusionProof,\n        bytes memory signature,\n        uint256[2] memory blocks)\n        private\n        view\n    {\n        require(blocks[0] < blocks[1], \"Block on the first index must be the earlier of the 2 blocks\");\n\n        Transaction.TX memory exitingTxData = exitingTxBytes.getTx();\n        Transaction.TX memory prevTxData = prevTxBytes.getTx();\n\n        // Both transactions need to be referring to the same slot\n        require(exitingTxData.slot == prevTxData.slot,\"Slot on the ExitingTx does not match that on the prevTx\");\n\n        // The exiting transaction must be signed by the previous transaciton's owner\n        require(exitingTxData.hash.ecverify(signature, prevTxData.owner), \"Invalid signature\");\n\n        // Both transactions must be included in their respective blocks\n        checkTxIncluded(prevTxData.slot, prevTxData.hash, blocks[0], prevTxInclusionProof);\n        checkTxIncluded(exitingTxData.slot, exitingTxData.hash, blocks[1], exitingTxInclusionProof);\n    }\n\n    function checkTxIncluded(\n        uint64 slot,\n        bytes32 txHash,\n        uint256 blockNumber,\n        bytes memory proof\n    )\n        private\n        view\n    {\n        bytes32 root = childChain[blockNumber].root;\n\n        if (blockNumber % childBlockInterval != 0) {\n            // Check against block root for deposit block numbers\n            require(txHash == root, \"Transaction hash does not match rootHash\");\n        } else {\n            // Check against merkle tree for all other block numbers\n            require(\n                checkMembership(\n                    txHash,\n                    root,\n                    slot,\n                    proof\n            ),\n            \"Tx not included in claimed block\"\n            );\n        }\n    }\n\n    /******************** DEPOSIT FUNCTIONS ********************/\n\n    function pause() external isValidator {\n        paused = true;\n        emit Paused(true);\n    }\n\n    function unpause() external isValidator {\n        paused = false;\n        emit Paused(false);\n    }\n\n    function() external payable {\n        //TODO: Not quite sure about this\n        require(false, \"This contract does not receive money\");\n    }\n\n    function onERC721Received(address /*operator*/, address from, uint256 tokenId, bytes memory /*data*/) public isTokenApproved(msg.sender)\n    returns (bytes4)\n     {\n        require(ERC721(msg.sender).ownerOf(tokenId) == address(this), \"Token was not transfered correctly\");\n        //TODO: Should we allow any contracts? Also is this enough proof of a ERC721 transaction?\n        deposit(from, msg.sender, tokenId, 1, Mode.ERC721);\n        return this.onERC721Received.selector;\n    }\n\n    // Approve and Deposit function for 2-step deposits without having to approve the token by the validators\n    // Requires first to have called `approve` on the specified ERC721 contract\n    function depositERC721(uint256 uid, address contractAddress) external {\n        ERC721(contractAddress).safeTransferFrom(msg.sender, address(this), uid);\n    }\n\n    /******************** HELPERS ********************/\n\n    function checkMembership(\n        bytes32 txHash,\n        bytes32 root,\n        uint64 slot,\n        bytes memory proof) public view returns (bool)\n    {\n        return smt.checkMembership(\n            txHash,\n            root,\n            slot,\n            proof);\n    }\n\n    function getPlasmaCoin(uint64 slot) external view returns(uint256, uint256, uint256, address, State, Mode, address) {\n        Coin memory c = coins[slot];\n        return (c.uid, c.depositBlock, c.denomination, c.owner, c.state, c.mode, c.contractAddress);\n    }\n\n    function getChallenge(uint64 slot, bytes32 txHash)\n        external\n        view\n        returns(address, address, bytes32, uint256)\n    {\n        uint256 index = uint256(challenges[slot].indexOf(txHash));\n        ChallengeLib.Challenge memory c = challenges[slot][index];\n        return (c.owner, c.challenger, c.txHash, c.challengingBlockNumber);\n    }\n\n    function getExit(uint64 slot) external view returns(address, uint256, uint256, State, uint256) {\n        Exit memory e = coins[slot].exit;\n        return (e.owner, e.prevBlock, e.exitBlock, coins[slot].state, e.createdAt);\n    }\n\n    function getBlockRoot(uint256 blockNumber) public view returns (bytes32 root) {\n        root = childChain[blockNumber].root;\n    }\n}\n",
  "sourcePath": "/Users/epord/Desktop/PF/Plasma-Cash-RootChain/contracts/Core/RootChain.sol",
  "compiler": {
    "name": "solc",
    "version": "0.5.2+commit.1df8f40c.Emscripten.clang"
  },
  "schemaVersion": "3.0.0",
  "updatedAt": "2019-08-20T20:32:12.439Z",
  "devdoc": {
    "methods": {
      "challengeBefore(uint64,bytes,bytes,bytes,uint256)": {
        "details": "Submits proof of a transaction before prevTx as an exit challenge",
        "params": {
          "blockNumber": "The block containing the exitingTx",
          "signature": "The signature of the txBytes by the coin        owner indicated in prevTx",
          "slot": "The slot corresponding to the coin whose exit is being challenged",
          "txBytes": "The RLP-encoded transaction involving a particular        coin which an exiting owner of the coin claims to be the latest",
          "txInclusionProof": "An inclusion proof of exitingTx"
        }
      },
      "finalizeExit(uint64)": {
        "details": "Finalizes an exit, i.e. puts the exiting coin into the EXITED      state which will allow it to be withdrawn, provided the exit has      matured and has not been successfully challenged"
      },
      "finalizeExits(uint64[])": {
        "details": "Iterates through all of the initiated exits and finalizes those      which have matured without being successfully challenged"
      },
      "respondChallengeBefore(uint64,bytes32,uint256,bytes,bytes,bytes)": {
        "details": "Submits proof of a later transaction that corresponds to a challenge",
        "params": {
          "challengingTxHash": "The hash of the transaction        corresponding to the challenge we're responding to",
          "proof": "An inclusion proof of respondingTransaction",
          "respondingBlockNumber": "The block number which included the transaction        we are responding with",
          "respondingTransaction": "The RLP-encoded transaction involving a particular        coin which took place directly after challengingTransaction",
          "signature": "The signature which proves a direct spend from the challenger",
          "slot": "The slot corresponding to the coin whose exit is being challenged"
        }
      },
      "submitBlock(uint256,bytes32)": {
        "details": "called by a Validator to append a Plasma block to the Plasma chain",
        "params": {
          "root": "The transaction root hash of the Plasma block being added"
        }
      },
      "withdraw(uint64)": {
        "details": "Withdraw a UTXO that has been exited",
        "params": {
          "slot": "The slot of the coin being withdrawn"
        }
      }
    }
  },
  "userdoc": {
    "methods": {
      "challengeBefore(uint64,bytes,bytes,bytes,uint256)": {
        "notice": "Exitor has to call respondChallengeBefore and submit a         transaction before prevTx or prevTx itself."
      },
      "checkMembership(bytes32,bytes32,uint64,bytes)": {
        "notice": "****************** HELPERS *******************"
      },
      "pause()": {
        "notice": "****************** DEPOSIT FUNCTIONS *******************"
      },
      "respondChallengeBefore(uint64,bytes32,uint256,bytes,bytes,bytes)": {
        "notice": "Can only be called in the second window of the exit period."
      },
      "startExit(uint64,bytes,bytes,bytes,bytes,bytes,uint256[2])": {
        "notice": "****************** EXIT RELATED *******************"
      }
    }
  }
}