{
  "contractName": "CryptoMons",
  "abi": [
    {
      "constant": true,
      "inputs": [
        {
          "name": "interfaceId",
          "type": "bytes4"
        }
      ],
      "name": "supportsInterface",
      "outputs": [
        {
          "name": "",
          "type": "bool"
        }
      ],
      "payable": false,
      "stateMutability": "view",
      "type": "function",
      "signature": "0x01ffc9a7"
    },
    {
      "constant": true,
      "inputs": [
        {
          "name": "tokenId",
          "type": "uint256"
        }
      ],
      "name": "getApproved",
      "outputs": [
        {
          "name": "",
          "type": "address"
        }
      ],
      "payable": false,
      "stateMutability": "view",
      "type": "function",
      "signature": "0x081812fc"
    },
    {
      "constant": false,
      "inputs": [
        {
          "name": "to",
          "type": "address"
        },
        {
          "name": "tokenId",
          "type": "uint256"
        }
      ],
      "name": "approve",
      "outputs": [],
      "payable": false,
      "stateMutability": "nonpayable",
      "type": "function",
      "signature": "0x095ea7b3"
    },
    {
      "constant": false,
      "inputs": [
        {
          "name": "from",
          "type": "address"
        },
        {
          "name": "to",
          "type": "address"
        },
        {
          "name": "tokenId",
          "type": "uint256"
        }
      ],
      "name": "transferFrom",
      "outputs": [],
      "payable": false,
      "stateMutability": "nonpayable",
      "type": "function",
      "signature": "0x23b872dd"
    },
    {
      "constant": false,
      "inputs": [
        {
          "name": "from",
          "type": "address"
        },
        {
          "name": "to",
          "type": "address"
        },
        {
          "name": "tokenId",
          "type": "uint256"
        }
      ],
      "name": "safeTransferFrom",
      "outputs": [],
      "payable": false,
      "stateMutability": "nonpayable",
      "type": "function",
      "signature": "0x42842e0e"
    },
    {
      "constant": true,
      "inputs": [
        {
          "name": "tokenId",
          "type": "uint256"
        }
      ],
      "name": "ownerOf",
      "outputs": [
        {
          "name": "",
          "type": "address"
        }
      ],
      "payable": false,
      "stateMutability": "view",
      "type": "function",
      "signature": "0x6352211e"
    },
    {
      "constant": true,
      "inputs": [
        {
          "name": "owner",
          "type": "address"
        }
      ],
      "name": "balanceOf",
      "outputs": [
        {
          "name": "",
          "type": "uint256"
        }
      ],
      "payable": false,
      "stateMutability": "view",
      "type": "function",
      "signature": "0x70a08231"
    },
    {
      "constant": false,
      "inputs": [],
      "name": "renounceOwnership",
      "outputs": [],
      "payable": false,
      "stateMutability": "nonpayable",
      "type": "function",
      "signature": "0x715018a6"
    },
    {
      "constant": true,
      "inputs": [],
      "name": "owner",
      "outputs": [
        {
          "name": "",
          "type": "address"
        }
      ],
      "payable": false,
      "stateMutability": "view",
      "type": "function",
      "signature": "0x8da5cb5b"
    },
    {
      "constant": true,
      "inputs": [
        {
          "name": "id",
          "type": "uint8"
        }
      ],
      "name": "getPokemonData",
      "outputs": [
        {
          "components": [
            {
              "name": "Id",
              "type": "uint8"
            },
            {
              "name": "type1",
              "type": "uint8"
            },
            {
              "name": "type2",
              "type": "uint8"
            },
            {
              "components": [
                {
                  "name": "hp",
                  "type": "uint8"
                },
                {
                  "name": "atk",
                  "type": "uint8"
                },
                {
                  "name": "def",
                  "type": "uint8"
                },
                {
                  "name": "spAtk",
                  "type": "uint8"
                },
                {
                  "name": "spDef",
                  "type": "uint8"
                },
                {
                  "name": "speed",
                  "type": "uint8"
                }
              ],
              "name": "base",
              "type": "tuple"
            }
          ],
          "name": "",
          "type": "tuple"
        }
      ],
      "payable": false,
      "stateMutability": "view",
      "type": "function",
      "signature": "0x8ef9e13e"
    },
    {
      "constant": true,
      "inputs": [],
      "name": "isOwner",
      "outputs": [
        {
          "name": "",
          "type": "bool"
        }
      ],
      "payable": false,
      "stateMutability": "view",
      "type": "function",
      "signature": "0x8f32d59b"
    },
    {
      "constant": false,
      "inputs": [
        {
          "name": "to",
          "type": "address"
        },
        {
          "name": "approved",
          "type": "bool"
        }
      ],
      "name": "setApprovalForAll",
      "outputs": [],
      "payable": false,
      "stateMutability": "nonpayable",
      "type": "function",
      "signature": "0xa22cb465"
    },
    {
      "constant": false,
      "inputs": [
        {
          "name": "from",
          "type": "address"
        },
        {
          "name": "to",
          "type": "address"
        },
        {
          "name": "tokenId",
          "type": "uint256"
        },
        {
          "name": "_data",
          "type": "bytes"
        }
      ],
      "name": "safeTransferFrom",
      "outputs": [],
      "payable": false,
      "stateMutability": "nonpayable",
      "type": "function",
      "signature": "0xb88d4fde"
    },
    {
      "constant": true,
      "inputs": [
        {
          "name": "owner",
          "type": "address"
        },
        {
          "name": "operator",
          "type": "address"
        }
      ],
      "name": "isApprovedForAll",
      "outputs": [
        {
          "name": "",
          "type": "bool"
        }
      ],
      "payable": false,
      "stateMutability": "view",
      "type": "function",
      "signature": "0xe985e9c5"
    },
    {
      "constant": false,
      "inputs": [
        {
          "name": "newOwner",
          "type": "address"
        }
      ],
      "name": "transferOwnership",
      "outputs": [],
      "payable": false,
      "stateMutability": "nonpayable",
      "type": "function",
      "signature": "0xf2fde38b"
    },
    {
      "inputs": [
        {
          "name": "_plasma",
          "type": "address"
        }
      ],
      "payable": false,
      "stateMutability": "nonpayable",
      "type": "constructor",
      "signature": "constructor"
    },
    {
      "anonymous": false,
      "inputs": [
        {
          "indexed": true,
          "name": "previousOwner",
          "type": "address"
        },
        {
          "indexed": true,
          "name": "newOwner",
          "type": "address"
        }
      ],
      "name": "OwnershipTransferred",
      "type": "event",
      "signature": "0x8be0079c531659141344cd1fd0a4f28419497f9722a3daafe3b4186f6b6457e0"
    },
    {
      "anonymous": false,
      "inputs": [
        {
          "indexed": true,
          "name": "from",
          "type": "address"
        },
        {
          "indexed": true,
          "name": "to",
          "type": "address"
        },
        {
          "indexed": true,
          "name": "tokenId",
          "type": "uint256"
        }
      ],
      "name": "Transfer",
      "type": "event",
      "signature": "0xddf252ad1be2c89b69c2b068fc378daa952ba7f163c4a11628f55a4df523b3ef"
    },
    {
      "anonymous": false,
      "inputs": [
        {
          "indexed": true,
          "name": "owner",
          "type": "address"
        },
        {
          "indexed": true,
          "name": "approved",
          "type": "address"
        },
        {
          "indexed": true,
          "name": "tokenId",
          "type": "uint256"
        }
      ],
      "name": "Approval",
      "type": "event",
      "signature": "0x8c5be1e5ebec7d5bd14f71427d1e84f3dd0314c0f7b2291e5b200ac8c7c3b925"
    },
    {
      "anonymous": false,
      "inputs": [
        {
          "indexed": true,
          "name": "owner",
          "type": "address"
        },
        {
          "indexed": true,
          "name": "operator",
          "type": "address"
        },
        {
          "indexed": false,
          "name": "approved",
          "type": "bool"
        }
      ],
      "name": "ApprovalForAll",
      "type": "event",
      "signature": "0x17307eab39ab6107e8899845ad3d59bd9653f200f220920489ca2b5937696c31"
    },
    {
      "constant": false,
      "inputs": [
        {
          "name": "newPlasma",
          "type": "address"
        }
      ],
      "name": "changePlasma",
      "outputs": [],
      "payable": false,
      "stateMutability": "nonpayable",
      "type": "function",
      "signature": "0x852bd6e0"
    },
    {
      "constant": false,
      "inputs": [],
      "name": "buyCryptoMon",
      "outputs": [],
      "payable": true,
      "stateMutability": "payable",
      "type": "function",
      "signature": "0x1fb15ecf"
    },
    {
      "constant": false,
      "inputs": [
        {
          "name": "tokenId",
          "type": "uint256"
        },
        {
          "name": "_data",
          "type": "bytes"
        }
      ],
      "name": "depositToPlasmaWithData",
      "outputs": [],
      "payable": false,
      "stateMutability": "nonpayable",
      "type": "function",
      "signature": "0x319876f8"
    },
    {
      "constant": false,
      "inputs": [
        {
          "name": "tokenId",
          "type": "uint256"
        }
      ],
      "name": "depositToPlasma",
      "outputs": [],
      "payable": false,
      "stateMutability": "nonpayable",
      "type": "function",
      "signature": "0x36ce5e47"
    },
    {
      "constant": true,
      "inputs": [
        {
          "name": "id",
          "type": "uint8"
        }
      ],
      "name": "getCryptomon",
      "outputs": [
        {
          "components": [
            {
              "name": "Id",
              "type": "uint8"
            },
            {
              "name": "gender",
              "type": "uint8"
            },
            {
              "name": "isShiny",
              "type": "bool"
            },
            {
              "components": [
                {
                  "name": "hp",
                  "type": "uint8"
                },
                {
                  "name": "atk",
                  "type": "uint8"
                },
                {
                  "name": "def",
                  "type": "uint8"
                },
                {
                  "name": "spAtk",
                  "type": "uint8"
                },
                {
                  "name": "spDef",
                  "type": "uint8"
                },
                {
                  "name": "speed",
                  "type": "uint8"
                }
              ],
              "name": "IVs",
              "type": "tuple"
            },
            {
              "components": [
                {
                  "name": "hp",
                  "type": "uint8"
                },
                {
                  "name": "atk",
                  "type": "uint8"
                },
                {
                  "name": "def",
                  "type": "uint8"
                },
                {
                  "name": "spAtk",
                  "type": "uint8"
                },
                {
                  "name": "spDef",
                  "type": "uint8"
                },
                {
                  "name": "speed",
                  "type": "uint8"
                }
              ],
              "name": "stats",
              "type": "tuple"
            }
          ],
          "name": "",
          "type": "tuple"
        }
      ],
      "payable": false,
      "stateMutability": "view",
      "type": "function",
      "signature": "0x9a0ea318"
    }
  ],
  "bytecode": "0x60806040523480156200001157600080fd5b506040516020806201580b833981018060405262000033919081019062012f3b565b620000706301ffc9a77c01000000000000000000000000000000000000000000000000000000000262012e67640100000000026401000000009004565b620000ad6380ac58cd7c01000000000000000000000000000000000000000000000000000000000262012e67640100000000026401000000009004565b33600560006101000a81548173ffffffffffffffffffffffffffffffffffffffff021916908373ffffffffffffffffffffffffffffffffffffffff160217905550600560009054906101000a900473ffffffffffffffffffffffffffffffffffffffff1673ffffffffffffffffffffffffffffffffffffffff16600073ffffffffffffffffffffffffffffffffffffffff167f8be0079c531659141344cd1fd0a4f28419497f9722a3daafe3b4186f6b6457e060405160405180910390a36006608060405190810160405280600060ff1681526020016012808111156200019057fe5b8152602001601280811115620001a257fe5b815260200160c060405190810160405280600060ff168152602001600060ff168152602001600060ff168152602001600060ff168152602001600060ff168152602001600060ff168152508152509080600181540180825580915050906001820390600052602060002090600202016000909192909190915060008201518160000160006101000a81548160ff021916908360ff16021790555060208201518160000160016101000a81548160ff021916908360128111156200026157fe5b021790555060408201518160000160026101000a81548160ff021916908360128111156200028b57fe5b021790555060608201518160010160008201518160000160006101000a81548160ff021916908360ff16021790555060208201518160000160016101000a81548160ff021916908360ff16021790555060408201518160000160026101000a81548160ff021916908360ff16021790555060608201518160000160036101000a81548160ff021916908360ff16021790555060808201518160000160046101000a81548160ff021916908360ff16021790555060a08201518160000160056101000a81548160ff021916908360ff16021790555050505050506006608060405190810160405280600160ff168152602001600b60128111156200038a57fe5b8152602001600360128111156200039d57fe5b815260200160c060405190810160405280602d60ff168152602001603160ff168152602001603160ff168152602001604160ff168152602001604160ff168152602001602d60ff168152508152509080600181540180825580915050906001820390600052602060002090600202016000909192909190915060008201518160000160006101000a81548160ff021916908360ff16021790555060208201518160000160016101000a81548160ff021916908360128111156200045c57fe5b021790555060408201518160000160026101000a81548160ff021916908360128111156200048657fe5b021790555060608201518160010160008201518160000160006101000a81548160ff021916908360ff16021790555060208201518160000160016101000a81548160ff021916908360ff16021790555060408201518160000160026101000a81548160ff021916908360ff16021790555060608201518160000160036101000a81548160ff021916908360ff16021790555060808201518160000160046101000a81548160ff021916908360ff16021790555060a08201518160000160056101000a81548160ff021916908360ff16021790555050505050506006608060405190810160405280600260ff168152602001600b60128111156200058557fe5b8152602001600360128111156200059857fe5b815260200160c060405190810160405280603c60ff168152602001603e60ff168152602001603f60ff168152602001605060ff168152602001605060ff168152602001603c60ff168152508152509080600181540180825580915050906001820390600052602060002090600202016000909192909190915060008201518160000160006101000a81548160ff021916908360ff16021790555060208201518160000160016101000a81548160ff021916908360128111156200065757fe5b021790555060408201518160000160026101000a81548160ff021916908360128111156200068157fe5b021790555060608201518160010160008201518160000160006101000a81548160ff021916908360ff16021790555060208201518160000160016101000a81548160ff021916908360ff16021790555060408201518160000160026101000a81548160ff021916908360ff16021790555060608201518160000160036101000a81548160ff021916908360ff16021790555060808201518160000160046101000a81548160ff021916908360ff16021790555060a08201518160000160056101000a81548160ff021916908360ff16021790555050505050506006608060405190810160405280600360ff168152602001600b60128111156200078057fe5b8152602001600360128111156200079357fe5b815260200160c060405190810160405280605060ff168152602001605260ff168152602001605360ff168152602001606460ff168152602001606460ff168152602001605060ff168152508152509080600181540180825580915050906001820390600052602060002090600202016000909192909190915060008201518160000160006101000a81548160ff021916908360ff16021790555060208201518160000160016101000a81548160ff021916908360128111156200085257fe5b021790555060408201518160000160026101000a81548160ff021916908360128111156200087c57fe5b021790555060608201518160010160008201518160000160006101000a81548160ff021916908360ff16021790555060208201518160000160016101000a81548160ff021916908360ff16021790555060408201518160000160026101000a81548160ff021916908360ff16021790555060608201518160000160036101000a81548160ff021916908360ff16021790555060808201518160000160046101000a81548160ff021916908360ff16021790555060a08201518160000160056101000a81548160ff021916908360ff16021790555050505050506006608060405190810160405280600460ff168152602001600960128111156200097b57fe5b81526020016012808111156200098d57fe5b815260200160c060405190810160405280602760ff168152602001603460ff168152602001602b60ff168152602001603c60ff168152602001603260ff168152602001604160ff168152508152509080600181540180825580915050906001820390600052602060002090600202016000909192909190915060008201518160000160006101000a81548160ff021916908360ff16021790555060208201518160000160016101000a81548160ff0219169083601281111562000a4c57fe5b021790555060408201518160000160026101000a81548160ff0219169083601281111562000a7657fe5b021790555060608201518160010160008201518160000160006101000a81548160ff021916908360ff16021790555060208201518160000160016101000a81548160ff021916908360ff16021790555060408201518160000160026101000a81548160ff021916908360ff16021790555060608201518160000160036101000a81548160ff021916908360ff16021790555060808201518160000160046101000a81548160ff021916908360ff16021790555060a08201518160000160056101000a81548160ff021916908360ff16021790555050505050506006608060405190810160405280600560ff1681526020016009601281111562000b7557fe5b815260200160128081111562000b8757fe5b815260200160c060405190810160405280603a60ff168152602001604060ff168152602001603a60ff168152602001605060ff168152602001604160ff168152602001605060ff168152508152509080600181540180825580915050906001820390600052602060002090600202016000909192909190915060008201518160000160006101000a81548160ff021916908360ff16021790555060208201518160000160016101000a81548160ff0219169083601281111562000c4657fe5b021790555060408201518160000160026101000a81548160ff0219169083601281111562000c7057fe5b021790555060608201518160010160008201518160000160006101000a81548160ff021916908360ff16021790555060208201518160000160016101000a81548160ff021916908360ff16021790555060408201518160000160026101000a81548160ff021916908360ff16021790555060608201518160000160036101000a81548160ff021916908360ff16021790555060808201518160000160046101000a81548160ff021916908360ff16021790555060a08201518160000160056101000a81548160ff021916908360ff16021790555050505050506006608060405190810160405280600660ff1681526020016009601281111562000d6f57fe5b81526020016002601281111562000d8257fe5b815260200160c060405190810160405280604e60ff168152602001605460ff168152602001604e60ff168152602001606d60ff168152602001605560ff168152602001606460ff168152508152509080600181540180825580915050906001820390600052602060002090600202016000909192909190915060008201518160000160006101000a81548160ff021916908360ff16021790555060208201518160000160016101000a81548160ff0219169083601281111562000e4157fe5b021790555060408201518160000160026101000a81548160ff0219169083601281111562000e6b57fe5b021790555060608201518160010160008201518160000160006101000a81548160ff021916908360ff16021790555060208201518160000160016101000a81548160ff021916908360ff16021790555060408201518160000160026101000a81548160ff021916908360ff16021790555060608201518160000160036101000a81548160ff021916908360ff16021790555060808201518160000160046101000a81548160ff021916908360ff16021790555060a08201518160000160056101000a81548160ff021916908360ff16021790555050505050506006608060405190810160405280600760ff168152602001600a601281111562000f6a57fe5b815260200160128081111562000f7c57fe5b815260200160c060405190810160405280602c60ff168152602001603060ff168152602001604160ff168152602001603260ff168152602001604060ff168152602001602b60ff168152508152509080600181540180825580915050906001820390600052602060002090600202016000909192909190915060008201518160000160006101000a81548160ff021916908360ff16021790555060208201518160000160016101000a81548160ff021916908360128111156200103b57fe5b021790555060408201518160000160026101000a81548160ff021916908360128111156200106557fe5b021790555060608201518160010160008201518160000160006101000a81548160ff021916908360ff16021790555060208201518160000160016101000a81548160ff021916908360ff16021790555060408201518160000160026101000a81548160ff021916908360ff16021790555060608201518160000160036101000a81548160ff021916908360ff16021790555060808201518160000160046101000a81548160ff021916908360ff16021790555060a08201518160000160056101000a81548160ff021916908360ff16021790555050505050506006608060405190810160405280600860ff168152602001600a60128111156200116457fe5b81526020016012808111156200117657fe5b815260200160c060405190810160405280603b60ff168152602001603f60ff168152602001605060ff168152602001604160ff168152602001605060ff168152602001603a60ff168152508152509080600181540180825580915050906001820390600052602060002090600202016000909192909190915060008201518160000160006101000a81548160ff021916908360ff16021790555060208201518160000160016101000a81548160ff021916908360128111156200123557fe5b021790555060408201518160000160026101000a81548160ff021916908360128111156200125f57fe5b021790555060608201518160010160008201518160000160006101000a81548160ff021916908360ff16021790555060208201518160000160016101000a81548160ff021916908360ff16021790555060408201518160000160026101000a81548160ff021916908360ff16021790555060608201518160000160036101000a81548160ff021916908360ff16021790555060808201518160000160046101000a81548160ff021916908360ff16021790555060a08201518160000160056101000a81548160ff021916908360ff16021790555050505050506006608060405190810160405280600960ff168152602001600a60128111156200135e57fe5b81526020016012808111156200137057fe5b815260200160c060405190810160405280604f60ff168152602001605360ff168152602001606460ff168152602001605560ff168152602001606960ff168152602001604e60ff168152508152509080600181540180825580915050906001820390600052602060002090600202016000909192909190915060008201518160000160006101000a81548160ff021916908360ff16021790555060208201518160000160016101000a81548160ff021916908360128111156200142f57fe5b021790555060408201518160000160026101000a81548160ff021916908360128111156200145957fe5b021790555060608201518160010160008201518160000160006101000a81548160ff021916908360ff16021790555060208201518160000160016101000a81548160ff021916908360ff16021790555060408201518160000160026101000a81548160ff021916908360ff16021790555060608201518160000160036101000a81548160ff021916908360ff16021790555060808201518160000160046101000a81548160ff021916908360ff16021790555060a08201518160000160056101000a81548160ff021916908360ff16021790555050505050506006608060405190810160405280600a60ff168152602001600660128111156200155857fe5b81526020016012808111156200156a57fe5b815260200160c060405190810160405280602d60ff168152602001601e60ff168152602001602360ff168152602001601460ff168152602001601460ff168152602001602d60ff168152508152509080600181540180825580915050906001820390600052602060002090600202016000909192909190915060008201518160000160006101000a81548160ff021916908360ff16021790555060208201518160000160016101000a81548160ff021916908360128111156200162957fe5b021790555060408201518160000160026101000a81548160ff021916908360128111156200165357fe5b021790555060608201518160010160008201518160000160006101000a81548160ff021916908360ff16021790555060208201518160000160016101000a81548160ff021916908360ff16021790555060408201518160000160026101000a81548160ff021916908360ff16021790555060608201518160000160036101000a81548160ff021916908360ff16021790555060808201518160000160046101000a81548160ff021916908360ff16021790555060a08201518160000160056101000a81548160ff021916908360ff16021790555050505050506006608060405190810160405280600b60ff168152602001600660128111156200175257fe5b81526020016012808111156200176457fe5b815260200160c060405190810160405280603260ff168152602001601460ff168152602001603760ff168152602001601960ff168152602001601960ff168152602001601e60ff168152508152509080600181540180825580915050906001820390600052602060002090600202016000909192909190915060008201518160000160006101000a81548160ff021916908360ff16021790555060208201518160000160016101000a81548160ff021916908360128111156200182357fe5b021790555060408201518160000160026101000a81548160ff021916908360128111156200184d57fe5b021790555060608201518160010160008201518160000160006101000a81548160ff021916908360ff16021790555060208201518160000160016101000a81548160ff021916908360ff16021790555060408201518160000160026101000a81548160ff021916908360ff16021790555060608201518160000160036101000a81548160ff021916908360ff16021790555060808201518160000160046101000a81548160ff021916908360ff16021790555060a08201518160000160056101000a81548160ff021916908360ff16021790555050505050506006608060405190810160405280600c60ff168152602001600660128111156200194c57fe5b8152602001600260128111156200195f57fe5b815260200160c060405190810160405280603c60ff168152602001602d60ff168152602001603260ff168152602001605a60ff168152602001605060ff168152602001604660ff168152508152509080600181540180825580915050906001820390600052602060002090600202016000909192909190915060008201518160000160006101000a81548160ff021916908360ff16021790555060208201518160000160016101000a81548160ff0219169083601281111562001a1e57fe5b021790555060408201518160000160026101000a81548160ff0219169083601281111562001a4857fe5b021790555060608201518160010160008201518160000160006101000a81548160ff021916908360ff16021790555060208201518160000160016101000a81548160ff021916908360ff16021790555060408201518160000160026101000a81548160ff021916908360ff16021790555060608201518160000160036101000a81548160ff021916908360ff16021790555060808201518160000160046101000a81548160ff021916908360ff16021790555060a08201518160000160056101000a81548160ff021916908360ff16021790555050505050506006608060405190810160405280600d60ff1681526020016006601281111562001b4757fe5b81526020016003601281111562001b5a57fe5b815260200160c060405190810160405280602860ff168152602001602360ff168152602001601e60ff168152602001601460ff168152602001601460ff168152602001603260ff168152508152509080600181540180825580915050906001820390600052602060002090600202016000909192909190915060008201518160000160006101000a81548160ff021916908360ff16021790555060208201518160000160016101000a81548160ff0219169083601281111562001c1957fe5b021790555060408201518160000160026101000a81548160ff0219169083601281111562001c4357fe5b021790555060608201518160010160008201518160000160006101000a81548160ff021916908360ff16021790555060208201518160000160016101000a81548160ff021916908360ff16021790555060408201518160000160026101000a81548160ff021916908360ff16021790555060608201518160000160036101000a81548160ff021916908360ff16021790555060808201518160000160046101000a81548160ff021916908360ff16021790555060a08201518160000160056101000a81548160ff021916908360ff16021790555050505050506006608060405190810160405280600e60ff1681526020016006601281111562001d4257fe5b81526020016003601281111562001d5557fe5b815260200160c060405190810160405280602d60ff168152602001601960ff168152602001603260ff168152602001601960ff168152602001601960ff168152602001602360ff168152508152509080600181540180825580915050906001820390600052602060002090600202016000909192909190915060008201518160000160006101000a81548160ff021916908360ff16021790555060208201518160000160016101000a81548160ff0219169083601281111562001e1457fe5b021790555060408201518160000160026101000a81548160ff0219169083601281111562001e3e57fe5b021790555060608201518160010160008201518160000160006101000a81548160ff021916908360ff16021790555060208201518160000160016101000a81548160ff021916908360ff16021790555060408201518160000160026101000a81548160ff021916908360ff16021790555060608201518160000160036101000a81548160ff021916908360ff16021790555060808201518160000160046101000a81548160ff021916908360ff16021790555060a08201518160000160056101000a81548160ff021916908360ff16021790555050505050506006608060405190810160405280600f60ff1681526020016006601281111562001f3d57fe5b81526020016003601281111562001f5057fe5b815260200160c060405190810160405280604160ff168152602001605a60ff168152602001602860ff168152602001602d60ff168152602001605060ff168152602001604b60ff168152508152509080600181540180825580915050906001820390600052602060002090600202016000909192909190915060008201518160000160006101000a81548160ff021916908360ff16021790555060208201518160000160016101000a81548160ff021916908360128111156200200f57fe5b021790555060408201518160000160026101000a81548160ff021916908360128111156200203957fe5b021790555060608201518160010160008201518160000160006101000a81548160ff021916908360ff16021790555060208201518160000160016101000a81548160ff021916908360ff16021790555060408201518160000160026101000a81548160ff021916908360ff16021790555060608201518160000160036101000a81548160ff021916908360ff16021790555060808201518160000160046101000a81548160ff021916908360ff16021790555060a08201518160000160056101000a81548160ff021916908360ff16021790555050505050506006608060405190810160405280601060ff168152602001600060128111156200213857fe5b8152602001600260128111156200214b57fe5b815260200160c060405190810160405280602860ff168152602001602d60ff168152602001602860ff168152602001602360ff168152602001602360ff168152602001603860ff168152508152509080600181540180825580915050906001820390600052602060002090600202016000909192909190915060008201518160000160006101000a81548160ff021916908360ff16021790555060208201518160000160016101000a81548160ff021916908360128111156200220a57fe5b021790555060408201518160000160026101000a81548160ff021916908360128111156200223457fe5b021790555060608201518160010160008201518160000160006101000a81548160ff021916908360ff16021790555060208201518160000160016101000a81548160ff021916908360ff16021790555060408201518160000160026101000a81548160ff021916908360ff16021790555060608201518160000160036101000a81548160ff021916908360ff16021790555060808201518160000160046101000a81548160ff021916908360ff16021790555060a08201518160000160056101000a81548160ff021916908360ff16021790555050505050506006608060405190810160405280601160ff168152602001600060128111156200233357fe5b8152602001600260128111156200234657fe5b815260200160c060405190810160405280603f60ff168152602001603c60ff168152602001603760ff168152602001603260ff168152602001603260ff168152602001604760ff168152508152509080600181540180825580915050906001820390600052602060002090600202016000909192909190915060008201518160000160006101000a81548160ff021916908360ff16021790555060208201518160000160016101000a81548160ff021916908360128111156200240557fe5b021790555060408201518160000160026101000a81548160ff021916908360128111156200242f57fe5b021790555060608201518160010160008201518160000160006101000a81548160ff021916908360ff16021790555060208201518160000160016101000a81548160ff021916908360ff16021790555060408201518160000160026101000a81548160ff021916908360ff16021790555060608201518160000160036101000a81548160ff021916908360ff16021790555060808201518160000160046101000a81548160ff021916908360ff16021790555060a08201518160000160056101000a81548160ff021916908360ff16021790555050505050506006608060405190810160405280601260ff168152602001600060128111156200252e57fe5b8152602001600260128111156200254157fe5b815260200160c060405190810160405280605360ff168152602001605060ff168152602001604b60ff168152602001604660ff168152602001604660ff168152602001606560ff168152508152509080600181540180825580915050906001820390600052602060002090600202016000909192909190915060008201518160000160006101000a81548160ff021916908360ff16021790555060208201518160000160016101000a81548160ff021916908360128111156200260057fe5b021790555060408201518160000160026101000a81548160ff021916908360128111156200262a57fe5b021790555060608201518160010160008201518160000160006101000a81548160ff021916908360ff16021790555060208201518160000160016101000a81548160ff021916908360ff16021790555060408201518160000160026101000a81548160ff021916908360ff16021790555060608201518160000160036101000a81548160ff021916908360ff16021790555060808201518160000160046101000a81548160ff021916908360ff16021790555060a08201518160000160056101000a81548160ff021916908360ff16021790555050505050506006608060405190810160405280601360ff168152602001600060128111156200272957fe5b81526020016012808111156200273b57fe5b815260200160c060405190810160405280601e60ff168152602001603860ff168152602001602360ff168152602001601960ff168152602001602360ff168152602001604860ff168152508152509080600181540180825580915050906001820390600052602060002090600202016000909192909190915060008201518160000160006101000a81548160ff021916908360ff16021790555060208201518160000160016101000a81548160ff02191690836012811115620027fa57fe5b021790555060408201518160000160026101000a81548160ff021916908360128111156200282457fe5b021790555060608201518160010160008201518160000160006101000a81548160ff021916908360ff16021790555060208201518160000160016101000a81548160ff021916908360ff16021790555060408201518160000160026101000a81548160ff021916908360ff16021790555060608201518160000160036101000a81548160ff021916908360ff16021790555060808201518160000160046101000a81548160ff021916908360ff16021790555060a08201518160000160056101000a81548160ff021916908360ff16021790555050505050506006608060405190810160405280601460ff168152602001600060128111156200292357fe5b81526020016012808111156200293557fe5b815260200160c060405190810160405280603760ff168152602001605160ff168152602001603c60ff168152602001603260ff168152602001604660ff168152602001606160ff168152508152509080600181540180825580915050906001820390600052602060002090600202016000909192909190915060008201518160000160006101000a81548160ff021916908360ff16021790555060208201518160000160016101000a81548160ff02191690836012811115620029f457fe5b021790555060408201518160000160026101000a81548160ff0219169083601281111562002a1e57fe5b021790555060608201518160010160008201518160000160006101000a81548160ff021916908360ff16021790555060208201518160000160016101000a81548160ff021916908360ff16021790555060408201518160000160026101000a81548160ff021916908360ff16021790555060608201518160000160036101000a81548160ff021916908360ff16021790555060808201518160000160046101000a81548160ff021916908360ff16021790555060a08201518160000160056101000a81548160ff021916908360ff16021790555050505050506006608060405190810160405280601560ff1681526020016000601281111562002b1d57fe5b81526020016002601281111562002b3057fe5b815260200160c060405190810160405280602860ff168152602001603c60ff168152602001601e60ff168152602001601f60ff168152602001601f60ff168152602001604660ff168152508152509080600181540180825580915050906001820390600052602060002090600202016000909192909190915060008201518160000160006101000a81548160ff021916908360ff16021790555060208201518160000160016101000a81548160ff0219169083601281111562002bef57fe5b021790555060408201518160000160026101000a81548160ff0219169083601281111562002c1957fe5b021790555060608201518160010160008201518160000160006101000a81548160ff021916908360ff16021790555060208201518160000160016101000a81548160ff021916908360ff16021790555060408201518160000160026101000a81548160ff021916908360ff16021790555060608201518160000160036101000a81548160ff021916908360ff16021790555060808201518160000160046101000a81548160ff021916908360ff16021790555060a08201518160000160056101000a81548160ff021916908360ff16021790555050505050506006608060405190810160405280601660ff1681526020016000601281111562002d1857fe5b81526020016002601281111562002d2b57fe5b815260200160c060405190810160405280604160ff168152602001605a60ff168152602001604160ff168152602001603d60ff168152602001603d60ff168152602001606460ff168152508152509080600181540180825580915050906001820390600052602060002090600202016000909192909190915060008201518160000160006101000a81548160ff021916908360ff16021790555060208201518160000160016101000a81548160ff0219169083601281111562002dea57fe5b021790555060408201518160000160026101000a81548160ff0219169083601281111562002e1457fe5b021790555060608201518160010160008201518160000160006101000a81548160ff021916908360ff16021790555060208201518160000160016101000a81548160ff021916908360ff16021790555060408201518160000160026101000a81548160ff021916908360ff16021790555060608201518160000160036101000a81548160ff021916908360ff16021790555060808201518160000160046101000a81548160ff021916908360ff16021790555060a08201518160000160056101000a81548160ff021916908360ff16021790555050505050506006608060405190810160405280601760ff1681526020016003601281111562002f1357fe5b815260200160128081111562002f2557fe5b815260200160c060405190810160405280602360ff168152602001603c60ff168152602001602c60ff168152602001602860ff168152602001603660ff168152602001603760ff168152508152509080600181540180825580915050906001820390600052602060002090600202016000909192909190915060008201518160000160006101000a81548160ff021916908360ff16021790555060208201518160000160016101000a81548160ff0219169083601281111562002fe457fe5b021790555060408201518160000160026101000a81548160ff021916908360128111156200300e57fe5b021790555060608201518160010160008201518160000160006101000a81548160ff021916908360ff16021790555060208201518160000160016101000a81548160ff021916908360ff16021790555060408201518160000160026101000a81548160ff021916908360ff16021790555060608201518160000160036101000a81548160ff021916908360ff16021790555060808201518160000160046101000a81548160ff021916908360ff16021790555060a08201518160000160056101000a81548160ff021916908360ff16021790555050505050506006608060405190810160405280601860ff168152602001600360128111156200310d57fe5b81526020016012808111156200311f57fe5b815260200160c060405190810160405280603c60ff168152602001605f60ff168152602001604560ff168152602001604160ff168152602001604f60ff168152602001605060ff168152508152509080600181540180825580915050906001820390600052602060002090600202016000909192909190915060008201518160000160006101000a81548160ff021916908360ff16021790555060208201518160000160016101000a81548160ff02191690836012811115620031de57fe5b021790555060408201518160000160026101000a81548160ff021916908360128111156200320857fe5b021790555060608201518160010160008201518160000160006101000a81548160ff021916908360ff16021790555060208201518160000160016101000a81548160ff021916908360ff16021790555060408201518160000160026101000a81548160ff021916908360ff16021790555060608201518160000160036101000a81548160ff021916908360ff16021790555060808201518160000160046101000a81548160ff021916908360ff16021790555060a08201518160000160056101000a81548160ff021916908360ff16021790555050505050506006608060405190810160405280601960ff168152602001600c60128111156200330757fe5b81526020016012808111156200331957fe5b815260200160c060405190810160405280602360ff168152602001603760ff168152602001602860ff168152602001603260ff168152602001603260ff168152602001605a60ff168152508152509080600181540180825580915050906001820390600052602060002090600202016000909192909190915060008201518160000160006101000a81548160ff021916908360ff16021790555060208201518160000160016101000a81548160ff02191690836012811115620033d857fe5b021790555060408201518160000160026101000a81548160ff021916908360128111156200340257fe5b021790555060608201518160010160008201518160000160006101000a81548160ff021916908360ff16021790555060208201518160000160016101000a81548160ff021916908360ff16021790555060408201518160000160026101000a81548160ff021916908360ff16021790555060608201518160000160036101000a81548160ff021916908360ff16021790555060808201518160000160046101000a81548160ff021916908360ff16021790555060a08201518160000160056101000a81548160ff021916908360ff16021790555050505050506006608060405190810160405280601a60ff168152602001600c60128111156200350157fe5b81526020016012808111156200351357fe5b815260200160c060405190810160405280603c60ff168152602001605a60ff168152602001603760ff168152602001605a60ff168152602001605060ff168152602001606e60ff168152508152509080600181540180825580915050906001820390600052602060002090600202016000909192909190915060008201518160000160006101000a81548160ff021916908360ff16021790555060208201518160000160016101000a81548160ff02191690836012811115620035d257fe5b021790555060408201518160000160026101000a81548160ff02191690836012811115620035fc57fe5b021790555060608201518160010160008201518160000160006101000a81548160ff021916908360ff16021790555060208201518160000160016101000a81548160ff021916908360ff16021790555060408201518160000160026101000a81548160ff021916908360ff16021790555060608201518160000160036101000a81548160ff021916908360ff16021790555060808201518160000160046101000a81548160ff021916908360ff16021790555060a08201518160000160056101000a81548160ff021916908360ff16021790555050505050506006608060405190810160405280601b60ff16815260200160046012811115620036fb57fe5b81526020016012808111156200370d57fe5b815260200160c060405190810160405280603260ff168152602001604b60ff168152602001605560ff168152602001601460ff168152602001601e60ff168152602001602860ff168152508152509080600181540180825580915050906001820390600052602060002090600202016000909192909190915060008201518160000160006101000a81548160ff021916908360ff16021790555060208201518160000160016101000a81548160ff02191690836012811115620037cc57fe5b021790555060408201518160000160026101000a81548160ff02191690836012811115620037f657fe5b021790555060608201518160010160008201518160000160006101000a81548160ff021916908360ff16021790555060208201518160000160016101000a81548160ff021916908360ff16021790555060408201518160000160026101000a81548160ff021916908360ff16021790555060608201518160000160036101000a81548160ff021916908360ff16021790555060808201518160000160046101000a81548160ff021916908360ff16021790555060a08201518160000160056101000a81548160ff021916908360ff16021790555050505050506006608060405190810160405280601c60ff16815260200160046012811115620038f557fe5b81526020016012808111156200390757fe5b815260200160c060405190810160405280604b60ff168152602001606460ff168152602001606e60ff168152602001602d60ff168152602001603760ff168152602001604160ff168152508152509080600181540180825580915050906001820390600052602060002090600202016000909192909190915060008201518160000160006101000a81548160ff021916908360ff16021790555060208201518160000160016101000a81548160ff02191690836012811115620039c657fe5b021790555060408201518160000160026101000a81548160ff02191690836012811115620039f057fe5b021790555060608201518160010160008201518160000160006101000a81548160ff021916908360ff16021790555060208201518160000160016101000a81548160ff021916908360ff16021790555060408201518160000160026101000a81548160ff021916908360ff16021790555060608201518160000160036101000a81548160ff021916908360ff16021790555060808201518160000160046101000a81548160ff021916908360ff16021790555060a08201518160000160056101000a81548160ff021916908360ff16021790555050505050506006608060405190810160405280601d60ff1681526020016003601281111562003aef57fe5b815260200160128081111562003b0157fe5b815260200160c060405190810160405280603760ff168152602001602f60ff168152602001603460ff168152602001602860ff168152602001602860ff168152602001602960ff168152508152509080600181540180825580915050906001820390600052602060002090600202016000909192909190915060008201518160000160006101000a81548160ff021916908360ff16021790555060208201518160000160016101000a81548160ff0219169083601281111562003bc057fe5b021790555060408201518160000160026101000a81548160ff0219169083601281111562003bea57fe5b021790555060608201518160010160008201518160000160006101000a81548160ff021916908360ff16021790555060208201518160000160016101000a81548160ff021916908360ff16021790555060408201518160000160026101000a81548160ff021916908360ff16021790555060608201518160000160036101000a81548160ff021916908360ff16021790555060808201518160000160046101000a81548160ff021916908360ff16021790555060a08201518160000160056101000a81548160ff021916908360ff16021790555050505050506006608060405190810160405280601e60ff1681526020016003601281111562003ce957fe5b815260200160128081111562003cfb57fe5b815260200160c060405190810160405280604660ff168152602001603e60ff168152602001604360ff168152602001603760ff168152602001603760ff168152602001603860ff168152508152509080600181540180825580915050906001820390600052602060002090600202016000909192909190915060008201518160000160006101000a81548160ff021916908360ff16021790555060208201518160000160016101000a81548160ff0219169083601281111562003dba57fe5b021790555060408201518160000160026101000a81548160ff0219169083601281111562003de457fe5b021790555060608201518160010160008201518160000160006101000a81548160ff021916908360ff16021790555060208201518160000160016101000a81548160ff021916908360ff16021790555060408201518160000160026101000a81548160ff021916908360ff16021790555060608201518160000160036101000a81548160ff021916908360ff16021790555060808201518160000160046101000a81548160ff021916908360ff16021790555060a08201518160000160056101000a81548160ff021916908360ff16021790555050505050506006608060405190810160405280601f60ff1681526020016003601281111562003ee357fe5b81526020016004601281111562003ef657fe5b815260200160c060405190810160405280605a60ff168152602001605c60ff168152602001605760ff168152602001604b60ff168152602001605560ff168152602001604c60ff168152508152509080600181540180825580915050906001820390600052602060002090600202016000909192909190915060008201518160000160006101000a81548160ff021916908360ff16021790555060208201518160000160016101000a81548160ff0219169083601281111562003fb557fe5b021790555060408201518160000160026101000a81548160ff0219169083601281111562003fdf57fe5b021790555060608201518160010160008201518160000160006101000a81548160ff021916908360ff16021790555060208201518160000160016101000a81548160ff021916908360ff16021790555060408201518160000160026101000a81548160ff021916908360ff16021790555060608201518160000160036101000a81548160ff021916908360ff16021790555060808201518160000160046101000a81548160ff021916908360ff16021790555060a08201518160000160056101000a81548160ff021916908360ff16021790555050505050506006608060405190810160405280602060ff16815260200160036012811115620040de57fe5b8152602001601280811115620040f057fe5b815260200160c060405190810160405280602e60ff168152602001603960ff168152602001602860ff168152602001602860ff168152602001602860ff168152602001603260ff168152508152509080600181540180825580915050906001820390600052602060002090600202016000909192909190915060008201518160000160006101000a81548160ff021916908360ff16021790555060208201518160000160016101000a81548160ff02191690836012811115620041af57fe5b021790555060408201518160000160026101000a81548160ff02191690836012811115620041d957fe5b021790555060608201518160010160008201518160000160006101000a81548160ff021916908360ff16021790555060208201518160000160016101000a81548160ff021916908360ff16021790555060408201518160000160026101000a81548160ff021916908360ff16021790555060608201518160000160036101000a81548160ff021916908360ff16021790555060808201518160000160046101000a81548160ff021916908360ff16021790555060a08201518160000160056101000a81548160ff021916908360ff16021790555050505050506006608060405190810160405280602160ff16815260200160036012811115620042d857fe5b8152602001601280811115620042ea57fe5b815260200160c060405190810160405280603d60ff168152602001604860ff168152602001603960ff168152602001603760ff168152602001603760ff168152602001604160ff168152508152509080600181540180825580915050906001820390600052602060002090600202016000909192909190915060008201518160000160006101000a81548160ff021916908360ff16021790555060208201518160000160016101000a81548160ff02191690836012811115620043a957fe5b021790555060408201518160000160026101000a81548160ff02191690836012811115620043d357fe5b021790555060608201518160010160008201518160000160006101000a81548160ff021916908360ff16021790555060208201518160000160016101000a81548160ff021916908360ff16021790555060408201518160000160026101000a81548160ff021916908360ff16021790555060608201518160000160036101000a81548160ff021916908360ff16021790555060808201518160000160046101000a81548160ff021916908360ff16021790555060a08201518160000160056101000a81548160ff021916908360ff16021790555050505050506006608060405190810160405280602260ff16815260200160036012811115620044d257fe5b815260200160046012811115620044e557fe5b815260200160c060405190810160405280605160ff168152602001606660ff168152602001604d60ff168152602001605560ff168152602001604b60ff168152602001605560ff168152508152509080600181540180825580915050906001820390600052602060002090600202016000909192909190915060008201518160000160006101000a81548160ff021916908360ff16021790555060208201518160000160016101000a81548160ff02191690836012811115620045a457fe5b021790555060408201518160000160026101000a81548160ff02191690836012811115620045ce57fe5b021790555060608201518160010160008201518160000160006101000a81548160ff021916908360ff16021790555060208201518160000160016101000a81548160ff021916908360ff16021790555060408201518160000160026101000a81548160ff021916908360ff16021790555060608201518160000160036101000a81548160ff021916908360ff16021790555060808201518160000160046101000a81548160ff021916908360ff16021790555060a08201518160000160056101000a81548160ff021916908360ff16021790555050505050506006608060405190810160405280602360ff16815260200160116012811115620046cd57fe5b8152602001601280811115620046df57fe5b815260200160c060405190810160405280604660ff168152602001602d60ff168152602001603060ff168152602001603c60ff168152602001604160ff168152602001602360ff168152508152509080600181540180825580915050906001820390600052602060002090600202016000909192909190915060008201518160000160006101000a81548160ff021916908360ff16021790555060208201518160000160016101000a81548160ff021916908360128111156200479e57fe5b021790555060408201518160000160026101000a81548160ff02191690836012811115620047c857fe5b021790555060608201518160010160008201518160000160006101000a81548160ff021916908360ff16021790555060208201518160000160016101000a81548160ff021916908360ff16021790555060408201518160000160026101000a81548160ff021916908360ff16021790555060608201518160000160036101000a81548160ff021916908360ff16021790555060808201518160000160046101000a81548160ff021916908360ff16021790555060a08201518160000160056101000a81548160ff021916908360ff16021790555050505050506006608060405190810160405280602460ff16815260200160116012811115620048c757fe5b8152602001601280811115620048d957fe5b815260200160c060405190810160405280605f60ff168152602001604660ff168152602001604960ff168152602001605f60ff168152602001605a60ff168152602001603c60ff168152508152509080600181540180825580915050906001820390600052602060002090600202016000909192909190915060008201518160000160006101000a81548160ff021916908360ff16021790555060208201518160000160016101000a81548160ff021916908360128111156200499857fe5b021790555060408201518160000160026101000a81548160ff02191690836012811115620049c257fe5b021790555060608201518160010160008201518160000160006101000a81548160ff021916908360ff16021790555060208201518160000160016101000a81548160ff021916908360ff16021790555060408201518160000160026101000a81548160ff021916908360ff16021790555060608201518160000160036101000a81548160ff021916908360ff16021790555060808201518160000160046101000a81548160ff021916908360ff16021790555060a08201518160000160056101000a81548160ff021916908360ff16021790555050505050506006608060405190810160405280602560ff1681526020016009601281111562004ac157fe5b815260200160128081111562004ad357fe5b815260200160c060405190810160405280602660ff168152602001602960ff168152602001602860ff168152602001603260ff168152602001604160ff168152602001604160ff168152508152509080600181540180825580915050906001820390600052602060002090600202016000909192909190915060008201518160000160006101000a81548160ff021916908360ff16021790555060208201518160000160016101000a81548160ff0219169083601281111562004b9257fe5b021790555060408201518160000160026101000a81548160ff0219169083601281111562004bbc57fe5b021790555060608201518160010160008201518160000160006101000a81548160ff021916908360ff16021790555060208201518160000160016101000a81548160ff021916908360ff16021790555060408201518160000160026101000a81548160ff021916908360ff16021790555060608201518160000160036101000a81548160ff021916908360ff16021790555060808201518160000160046101000a81548160ff021916908360ff16021790555060a08201518160000160056101000a81548160ff021916908360ff16021790555050505050506006608060405190810160405280602660ff1681526020016009601281111562004cbb57fe5b815260200160128081111562004ccd57fe5b815260200160c060405190810160405280604960ff168152602001604c60ff168152602001604b60ff168152602001605160ff168152602001606460ff168152602001606460ff168152508152509080600181540180825580915050906001820390600052602060002090600202016000909192909190915060008201518160000160006101000a81548160ff021916908360ff16021790555060208201518160000160016101000a81548160ff0219169083601281111562004d8c57fe5b021790555060408201518160000160026101000a81548160ff0219169083601281111562004db657fe5b021790555060608201518160010160008201518160000160006101000a81548160ff021916908360ff16021790555060208201518160000160016101000a81548160ff021916908360ff16021790555060408201518160000160026101000a81548160ff021916908360ff16021790555060608201518160000160036101000a81548160ff021916908360ff16021790555060808201518160000160046101000a81548160ff021916908360ff16021790555060a08201518160000160056101000a81548160ff021916908360ff16021790555050505050506006608060405190810160405280602760ff1681526020016000601281111562004eb557fe5b81526020016011601281111562004ec857fe5b815260200160c060405190810160405280607360ff168152602001602d60ff168152602001601460ff168152602001602d60ff168152602001601960ff168152602001601460ff168152508152509080600181540180825580915050906001820390600052602060002090600202016000909192909190915060008201518160000160006101000a81548160ff021916908360ff16021790555060208201518160000160016101000a81548160ff0219169083601281111562004f8757fe5b021790555060408201518160000160026101000a81548160ff0219169083601281111562004fb157fe5b021790555060608201518160010160008201518160000160006101000a81548160ff021916908360ff16021790555060208201518160000160016101000a81548160ff021916908360ff16021790555060408201518160000160026101000a81548160ff021916908360ff16021790555060608201518160000160036101000a81548160ff021916908360ff16021790555060808201518160000160046101000a81548160ff021916908360ff16021790555060a08201518160000160056101000a81548160ff021916908360ff16021790555050505050506006608060405190810160405280602860ff16815260200160006012811115620050b057fe5b815260200160116012811115620050c357fe5b815260200160c060405190810160405280608c60ff168152602001604660ff168152602001602d60ff168152602001605560ff168152602001603260ff168152602001602d60ff168152508152509080600181540180825580915050906001820390600052602060002090600202016000909192909190915060008201518160000160006101000a81548160ff021916908360ff16021790555060208201518160000160016101000a81548160ff021916908360128111156200518257fe5b021790555060408201518160000160026101000a81548160ff02191690836012811115620051ac57fe5b021790555060608201518160010160008201518160000160006101000a81548160ff021916908360ff16021790555060208201518160000160016101000a81548160ff021916908360ff16021790555060408201518160000160026101000a81548160ff021916908360ff16021790555060608201518160000160036101000a81548160ff021916908360ff16021790555060808201518160000160046101000a81548160ff021916908360ff16021790555060a08201518160000160056101000a81548160ff021916908360ff16021790555050505050506006608060405190810160405280602960ff16815260200160036012811115620052ab57fe5b815260200160026012811115620052be57fe5b815260200160c060405190810160405280602860ff168152602001602d60ff168152602001602360ff168152602001601e60ff168152602001602860ff168152602001603760ff168152508152509080600181540180825580915050906001820390600052602060002090600202016000909192909190915060008201518160000160006101000a81548160ff021916908360ff16021790555060208201518160000160016101000a81548160ff021916908360128111156200537d57fe5b021790555060408201518160000160026101000a81548160ff02191690836012811115620053a757fe5b021790555060608201518160010160008201518160000160006101000a81548160ff021916908360ff16021790555060208201518160000160016101000a81548160ff021916908360ff16021790555060408201518160000160026101000a81548160ff021916908360ff16021790555060608201518160000160036101000a81548160ff021916908360ff16021790555060808201518160000160046101000a81548160ff021916908360ff16021790555060a08201518160000160056101000a81548160ff021916908360ff16021790555050505050506006608060405190810160405280602a60ff16815260200160036012811115620054a657fe5b815260200160026012811115620054b957fe5b815260200160c060405190810160405280604b60ff168152602001605060ff168152602001604660ff168152602001604160ff168152602001604b60ff168152602001605a60ff168152508152509080600181540180825580915050906001820390600052602060002090600202016000909192909190915060008201518160000160006101000a81548160ff021916908360ff16021790555060208201518160000160016101000a81548160ff021916908360128111156200557857fe5b021790555060408201518160000160026101000a81548160ff02191690836012811115620055a257fe5b021790555060608201518160010160008201518160000160006101000a81548160ff021916908360ff16021790555060208201518160000160016101000a81548160ff021916908360ff16021790555060408201518160000160026101000a81548160ff021916908360ff16021790555060608201518160000160036101000a81548160ff021916908360ff16021790555060808201518160000160046101000a81548160ff021916908360ff16021790555060a08201518160000160056101000a81548160ff021916908360ff16021790555050505050506006608060405190810160405280602b60ff168152602001600b6012811115620056a157fe5b815260200160036012811115620056b457fe5b815260200160c060405190810160405280602d60ff168152602001603260ff168152602001603760ff168152602001604b60ff168152602001604160ff168152602001601e60ff168152508152509080600181540180825580915050906001820390600052602060002090600202016000909192909190915060008201518160000160006101000a81548160ff021916908360ff16021790555060208201518160000160016101000a81548160ff021916908360128111156200577357fe5b021790555060408201518160000160026101000a81548160ff021916908360128111156200579d57fe5b021790555060608201518160010160008201518160000160006101000a81548160ff021916908360ff16021790555060208201518160000160016101000a81548160ff021916908360ff16021790555060408201518160000160026101000a81548160ff021916908360ff16021790555060608201518160000160036101000a81548160ff021916908360ff16021790555060808201518160000160046101000a81548160ff021916908360ff16021790555060a08201518160000160056101000a81548160ff021916908360ff16021790555050505050506006608060405190810160405280602c60ff168152602001600b60128111156200589c57fe5b815260200160036012811115620058af57fe5b815260200160c060405190810160405280603c60ff168152602001604160ff168152602001604660ff168152602001605560ff168152602001604b60ff168152602001602860ff168152508152509080600181540180825580915050906001820390600052602060002090600202016000909192909190915060008201518160000160006101000a81548160ff021916908360ff16021790555060208201518160000160016101000a81548160ff021916908360128111156200596e57fe5b021790555060408201518160000160026101000a81548160ff021916908360128111156200599857fe5b021790555060608201518160010160008201518160000160006101000a81548160ff021916908360ff16021790555060208201518160000160016101000a81548160ff021916908360ff16021790555060408201518160000160026101000a81548160ff021916908360ff16021790555060608201518160000160036101000a81548160ff021916908360ff16021790555060808201518160000160046101000a81548160ff021916908360ff16021790555060a08201518160000160056101000a81548160ff021916908360ff16021790555050505050506006608060405190810160405280602d60ff168152602001600b601281111562005a9757fe5b81526020016003601281111562005aaa57fe5b815260200160c060405190810160405280604b60ff168152602001605060ff168152602001605560ff168152602001606e60ff168152602001605a60ff168152602001603260ff168152508152509080600181540180825580915050906001820390600052602060002090600202016000909192909190915060008201518160000160006101000a81548160ff021916908360ff16021790555060208201518160000160016101000a81548160ff0219169083601281111562005b6957fe5b021790555060408201518160000160026101000a81548160ff0219169083601281111562005b9357fe5b021790555060608201518160010160008201518160000160006101000a81548160ff021916908360ff16021790555060208201518160000160016101000a81548160ff021916908360ff16021790555060408201518160000160026101000a81548160ff021916908360ff16021790555060608201518160000160036101000a81548160ff021916908360ff16021790555060808201518160000160046101000a81548160ff021916908360ff16021790555060a08201518160000160056101000a81548160ff021916908360ff16021790555050505050506006608060405190810160405280602e60ff1681526020016006601281111562005c9257fe5b8152602001600b601281111562005ca557fe5b815260200160c060405190810160405280602360ff168152602001604660ff168152602001603760ff168152602001602d60ff168152602001603760ff168152602001601960ff168152508152509080600181540180825580915050906001820390600052602060002090600202016000909192909190915060008201518160000160006101000a81548160ff021916908360ff16021790555060208201518160000160016101000a81548160ff0219169083601281111562005d6457fe5b021790555060408201518160000160026101000a81548160ff0219169083601281111562005d8e57fe5b021790555060608201518160010160008201518160000160006101000a81548160ff021916908360ff16021790555060208201518160000160016101000a81548160ff021916908360ff16021790555060408201518160000160026101000a81548160ff021916908360ff16021790555060608201518160000160036101000a81548160ff021916908360ff16021790555060808201518160000160046101000a81548160ff021916908360ff16021790555060a08201518160000160056101000a81548160ff021916908360ff16021790555050505050506006608060405190810160405280602f60ff1681526020016006601281111562005e8d57fe5b8152602001600b601281111562005ea057fe5b815260200160c060405190810160405280603c60ff168152602001605f60ff168152602001605060ff168152602001603c60ff168152602001605060ff168152602001601e60ff168152508152509080600181540180825580915050906001820390600052602060002090600202016000909192909190915060008201518160000160006101000a81548160ff021916908360ff16021790555060208201518160000160016101000a81548160ff0219169083601281111562005f5f57fe5b021790555060408201518160000160026101000a81548160ff0219169083601281111562005f8957fe5b021790555060608201518160010160008201518160000160006101000a81548160ff021916908360ff16021790555060208201518160000160016101000a81548160ff021916908360ff16021790555060408201518160000160026101000a81548160ff021916908360ff16021790555060608201518160000160036101000a81548160ff021916908360ff16021790555060808201518160000160046101000a81548160ff021916908360ff16021790555060a08201518160000160056101000a81548160ff021916908360ff16021790555050505050506006608060405190810160405280603060ff168152602001600660128111156200608857fe5b8152602001600360128111156200609b57fe5b815260200160c060405190810160405280603c60ff168152602001603760ff168152602001603260ff168152602001602860ff168152602001603760ff168152602001602d60ff168152508152509080600181540180825580915050906001820390600052602060002090600202016000909192909190915060008201518160000160006101000a81548160ff021916908360ff16021790555060208201518160000160016101000a81548160ff021916908360128111156200615a57fe5b021790555060408201518160000160026101000a81548160ff021916908360128111156200618457fe5b021790555060608201518160010160008201518160000160006101000a81548160ff021916908360ff16021790555060208201518160000160016101000a81548160ff021916908360ff16021790555060408201518160000160026101000a81548160ff021916908360ff16021790555060608201518160000160036101000a81548160ff021916908360ff16021790555060808201518160000160046101000a81548160ff021916908360ff16021790555060a08201518160000160056101000a81548160ff021916908360ff16021790555050505050506006608060405190810160405280603160ff168152602001600660128111156200628357fe5b8152602001600360128111156200629657fe5b815260200160c060405190810160405280604660ff168152602001604160ff168152602001603c60ff168152602001605a60ff168152602001604b60ff168152602001605a60ff168152508152509080600181540180825580915050906001820390600052602060002090600202016000909192909190915060008201518160000160006101000a81548160ff021916908360ff16021790555060208201518160000160016101000a81548160ff021916908360128111156200635557fe5b021790555060408201518160000160026101000a81548160ff021916908360128111156200637f57fe5b021790555060608201518160010160008201518160000160006101000a81548160ff021916908360ff16021790555060208201518160000160016101000a81548160ff021916908360ff16021790555060408201518160000160026101000a81548160ff021916908360ff16021790555060608201518160000160036101000a81548160ff021916908360ff16021790555060808201518160000160046101000a81548160ff021916908360ff16021790555060a08201518160000160056101000a81548160ff021916908360ff16021790555050505050506006608060405190810160405280603260ff168152602001600460128111156200647e57fe5b81526020016012808111156200649057fe5b815260200160c060405190810160405280600a60ff168152602001603760ff168152602001601960ff168152602001602360ff168152602001602d60ff168152602001605f60ff168152508152509080600181540180825580915050906001820390600052602060002090600202016000909192909190915060008201518160000160006101000a81548160ff021916908360ff16021790555060208201518160000160016101000a81548160ff021916908360128111156200654f57fe5b021790555060408201518160000160026101000a81548160ff021916908360128111156200657957fe5b021790555060608201518160010160008201518160000160006101000a81548160ff021916908360ff16021790555060208201518160000160016101000a81548160ff021916908360ff16021790555060408201518160000160026101000a81548160ff021916908360ff16021790555060608201518160000160036101000a81548160ff021916908360ff16021790555060808201518160000160046101000a81548160ff021916908360ff16021790555060a08201518160000160056101000a81548160ff021916908360ff16021790555050505050506006608060405190810160405280603360ff168152602001600460128111156200667857fe5b81526020016012808111156200668a57fe5b815260200160c060405190810160405280602360ff168152602001606460ff168152602001603260ff168152602001603260ff168152602001604660ff168152602001607860ff168152508152509080600181540180825580915050906001820390600052602060002090600202016000909192909190915060008201518160000160006101000a81548160ff021916908360ff16021790555060208201518160000160016101000a81548160ff021916908360128111156200674957fe5b021790555060408201518160000160026101000a81548160ff021916908360128111156200677357fe5b021790555060608201518160010160008201518160000160006101000a81548160ff021916908360ff16021790555060208201518160000160016101000a81548160ff021916908360ff16021790555060408201518160000160026101000a81548160ff021916908360ff16021790555060608201518160000160036101000a81548160ff021916908360ff16021790555060808201518160000160046101000a81548160ff021916908360ff16021790555060a08201518160000160056101000a81548160ff021916908360ff16021790555050505050506006608060405190810160405280603460ff168152602001600060128111156200687257fe5b81526020016012808111156200688457fe5b815260200160c060405190810160405280602860ff168152602001602d60ff168152602001602360ff168152602001602860ff168152602001602860ff168152602001605a60ff168152508152509080600181540180825580915050906001820390600052602060002090600202016000909192909190915060008201518160000160006101000a81548160ff021916908360ff16021790555060208201518160000160016101000a81548160ff021916908360128111156200694357fe5b021790555060408201518160000160026101000a81548160ff021916908360128111156200696d57fe5b021790555060608201518160010160008201518160000160006101000a81548160ff021916908360ff16021790555060208201518160000160016101000a81548160ff021916908360ff16021790555060408201518160000160026101000a81548160ff021916908360ff16021790555060608201518160000160036101000a81548160ff021916908360ff16021790555060808201518160000160046101000a81548160ff021916908360ff16021790555060a08201518160000160056101000a81548160ff021916908360ff16021790555050505050506006608060405190810160405280603560ff1681526020016000601281111562006a6c57fe5b815260200160128081111562006a7e57fe5b815260200160c060405190810160405280604160ff168152602001604660ff168152602001603c60ff168152602001604160ff168152602001604160ff168152602001607360ff168152508152509080600181540180825580915050906001820390600052602060002090600202016000909192909190915060008201518160000160006101000a81548160ff021916908360ff16021790555060208201518160000160016101000a81548160ff0219169083601281111562006b3d57fe5b021790555060408201518160000160026101000a81548160ff0219169083601281111562006b6757fe5b021790555060608201518160010160008201518160000160006101000a81548160ff021916908360ff16021790555060208201518160000160016101000a81548160ff021916908360ff16021790555060408201518160000160026101000a81548160ff021916908360ff16021790555060608201518160000160036101000a81548160ff021916908360ff16021790555060808201518160000160046101000a81548160ff021916908360ff16021790555060a08201518160000160056101000a81548160ff021916908360ff16021790555050505050506006608060405190810160405280603660ff168152602001600a601281111562006c6657fe5b815260200160128081111562006c7857fe5b815260200160c060405190810160405280603260ff168152602001603460ff168152602001603060ff168152602001604160ff168152602001603260ff168152602001603760ff168152508152509080600181540180825580915050906001820390600052602060002090600202016000909192909190915060008201518160000160006101000a81548160ff021916908360ff16021790555060208201518160000160016101000a81548160ff0219169083601281111562006d3757fe5b021790555060408201518160000160026101000a81548160ff0219169083601281111562006d6157fe5b021790555060608201518160010160008201518160000160006101000a81548160ff021916908360ff16021790555060208201518160000160016101000a81548160ff021916908360ff16021790555060408201518160000160026101000a81548160ff021916908360ff16021790555060608201518160000160036101000a81548160ff021916908360ff16021790555060808201518160000160046101000a81548160ff021916908360ff16021790555060a08201518160000160056101000a81548160ff021916908360ff16021790555050505050506006608060405190810160405280603760ff168152602001600a601281111562006e6057fe5b815260200160128081111562006e7257fe5b815260200160c060405190810160405280605060ff168152602001605260ff168152602001604e60ff168152602001605f60ff168152602001605060ff168152602001605560ff168152508152509080600181540180825580915050906001820390600052602060002090600202016000909192909190915060008201518160000160006101000a81548160ff021916908360ff16021790555060208201518160000160016101000a81548160ff0219169083601281111562006f3157fe5b021790555060408201518160000160026101000a81548160ff0219169083601281111562006f5b57fe5b021790555060608201518160010160008201518160000160006101000a81548160ff021916908360ff16021790555060208201518160000160016101000a81548160ff021916908360ff16021790555060408201518160000160026101000a81548160ff021916908360ff16021790555060608201518160000160036101000a81548160ff021916908360ff16021790555060808201518160000160046101000a81548160ff021916908360ff16021790555060a08201518160000160056101000a81548160ff021916908360ff16021790555050505050506006608060405190810160405280603860ff168152602001600160128111156200705a57fe5b81526020016012808111156200706c57fe5b815260200160c060405190810160405280602860ff168152602001605060ff168152602001602360ff168152602001602360ff168152602001602d60ff168152602001604660ff168152508152509080600181540180825580915050906001820390600052602060002090600202016000909192909190915060008201518160000160006101000a81548160ff021916908360ff16021790555060208201518160000160016101000a81548160ff021916908360128111156200712b57fe5b021790555060408201518160000160026101000a81548160ff021916908360128111156200715557fe5b021790555060608201518160010160008201518160000160006101000a81548160ff021916908360ff16021790555060208201518160000160016101000a81548160ff021916908360ff16021790555060408201518160000160026101000a81548160ff021916908360ff16021790555060608201518160000160036101000a81548160ff021916908360ff16021790555060808201518160000160046101000a81548160ff021916908360ff16021790555060a08201518160000160056101000a81548160ff021916908360ff16021790555050505050506006608060405190810160405280603960ff168152602001600160128111156200725457fe5b81526020016012808111156200726657fe5b815260200160c060405190810160405280604160ff168152602001606960ff168152602001603c60ff168152602001603c60ff168152602001604660ff168152602001605f60ff168152508152509080600181540180825580915050906001820390600052602060002090600202016000909192909190915060008201518160000160006101000a81548160ff021916908360ff16021790555060208201518160000160016101000a81548160ff021916908360128111156200732557fe5b021790555060408201518160000160026101000a81548160ff021916908360128111156200734f57fe5b021790555060608201518160010160008201518160000160006101000a81548160ff021916908360ff16021790555060208201518160000160016101000a81548160ff021916908360ff16021790555060408201518160000160026101000a81548160ff021916908360ff16021790555060608201518160000160036101000a81548160ff021916908360ff16021790555060808201518160000160046101000a81548160ff021916908360ff16021790555060a08201518160000160056101000a81548160ff021916908360ff16021790555050505050506006608060405190810160405280603a60ff168152602001600960128111156200744e57fe5b81526020016012808111156200746057fe5b815260200160c060405190810160405280603760ff168152602001604660ff168152602001602d60ff168152602001604660ff168152602001603260ff168152602001603c60ff168152508152509080600181540180825580915050906001820390600052602060002090600202016000909192909190915060008201518160000160006101000a81548160ff021916908360ff16021790555060208201518160000160016101000a81548160ff021916908360128111156200751f57fe5b021790555060408201518160000160026101000a81548160ff021916908360128111156200754957fe5b021790555060608201518160010160008201518160000160006101000a81548160ff021916908360ff16021790555060208201518160000160016101000a81548160ff021916908360ff16021790555060408201518160000160026101000a81548160ff021916908360ff16021790555060608201518160000160036101000a81548160ff021916908360ff16021790555060808201518160000160046101000a81548160ff021916908360ff16021790555060a08201518160000160056101000a81548160ff021916908360ff16021790555050505050506006608060405190810160405280603b60ff168152602001600960128111156200764857fe5b81526020016012808111156200765a57fe5b815260200160c060405190810160405280605a60ff168152602001606e60ff168152602001605060ff168152602001606460ff168152602001605060ff168152602001605f60ff168152508152509080600181540180825580915050906001820390600052602060002090600202016000909192909190915060008201518160000160006101000a81548160ff021916908360ff16021790555060208201518160000160016101000a81548160ff021916908360128111156200771957fe5b021790555060408201518160000160026101000a81548160ff021916908360128111156200774357fe5b021790555060608201518160010160008201518160000160006101000a81548160ff021916908360ff16021790555060208201518160000160016101000a81548160ff021916908360ff16021790555060408201518160000160026101000a81548160ff021916908360ff16021790555060608201518160000160036101000a81548160ff021916908360ff16021790555060808201518160000160046101000a81548160ff021916908360ff16021790555060a08201518160000160056101000a81548160ff021916908360ff16021790555050505050506006608060405190810160405280603c60ff168152602001600a60128111156200784257fe5b81526020016012808111156200785457fe5b815260200160c060405190810160405280602860ff168152602001603260ff168152602001602860ff168152602001602860ff168152602001602860ff168152602001605a60ff168152508152509080600181540180825580915050906001820390600052602060002090600202016000909192909190915060008201518160000160006101000a81548160ff021916908360ff16021790555060208201518160000160016101000a81548160ff021916908360128111156200791357fe5b021790555060408201518160000160026101000a81548160ff021916908360128111156200793d57fe5b021790555060608201518160010160008201518160000160006101000a81548160ff021916908360ff16021790555060208201518160000160016101000a81548160ff021916908360ff16021790555060408201518160000160026101000a81548160ff021916908360ff16021790555060608201518160000160036101000a81548160ff021916908360ff16021790555060808201518160000160046101000a81548160ff021916908360ff16021790555060a08201518160000160056101000a81548160ff021916908360ff16021790555050505050506006608060405190810160405280603d60ff168152602001600a601281111562007a3c57fe5b815260200160128081111562007a4e57fe5b815260200160c060405190810160405280604160ff168152602001604160ff168152602001604160ff168152602001603260ff168152602001603260ff168152602001605a60ff168152508152509080600181540180825580915050906001820390600052602060002090600202016000909192909190915060008201518160000160006101000a81548160ff021916908360ff16021790555060208201518160000160016101000a81548160ff0219169083601281111562007b0d57fe5b021790555060408201518160000160026101000a81548160ff0219169083601281111562007b3757fe5b021790555060608201518160010160008201518160000160006101000a81548160ff021916908360ff16021790555060208201518160000160016101000a81548160ff021916908360ff16021790555060408201518160000160026101000a81548160ff021916908360ff16021790555060608201518160000160036101000a81548160ff021916908360ff16021790555060808201518160000160046101000a81548160ff021916908360ff16021790555060a08201518160000160056101000a81548160ff021916908360ff16021790555050505050506006608060405190810160405280603e60ff168152602001600a601281111562007c3657fe5b81526020016001601281111562007c4957fe5b815260200160c060405190810160405280605a60ff168152602001605f60ff168152602001605f60ff168152602001604660ff168152602001605a60ff168152602001604660ff168152508152509080600181540180825580915050906001820390600052602060002090600202016000909192909190915060008201518160000160006101000a81548160ff021916908360ff16021790555060208201518160000160016101000a81548160ff0219169083601281111562007d0857fe5b021790555060408201518160000160026101000a81548160ff0219169083601281111562007d3257fe5b021790555060608201518160010160008201518160000160006101000a81548160ff021916908360ff16021790555060208201518160000160016101000a81548160ff021916908360ff16021790555060408201518160000160026101000a81548160ff021916908360ff16021790555060608201518160000160036101000a81548160ff021916908360ff16021790555060808201518160000160046101000a81548160ff021916908360ff16021790555060a08201518160000160056101000a81548160ff021916908360ff16021790555050505050506006608060405190810160405280603f60ff168152602001600d601281111562007e3157fe5b815260200160128081111562007e4357fe5b815260200160c060405190810160405280601960ff168152602001601460ff168152602001600f60ff168152602001606960ff168152602001603760ff168152602001605a60ff168152508152509080600181540180825580915050906001820390600052602060002090600202016000909192909190915060008201518160000160006101000a81548160ff021916908360ff16021790555060208201518160000160016101000a81548160ff0219169083601281111562007f0257fe5b021790555060408201518160000160026101000a81548160ff0219169083601281111562007f2c57fe5b021790555060608201518160010160008201518160000160006101000a81548160ff021916908360ff16021790555060208201518160000160016101000a81548160ff021916908360ff16021790555060408201518160000160026101000a81548160ff021916908360ff16021790555060608201518160000160036101000a81548160ff021916908360ff16021790555060808201518160000160046101000a81548160ff021916908360ff16021790555060a08201518160000160056101000a81548160ff021916908360ff16021790555050505050506006608060405190810160405280604060ff168152602001600d60128111156200802b57fe5b81526020016012808111156200803d57fe5b815260200160c060405190810160405280602860ff168152602001602360ff168152602001601e60ff168152602001607860ff168152602001604660ff168152602001606960ff168152508152509080600181540180825580915050906001820390600052602060002090600202016000909192909190915060008201518160000160006101000a81548160ff021916908360ff16021790555060208201518160000160016101000a81548160ff02191690836012811115620080fc57fe5b021790555060408201518160000160026101000a81548160ff021916908360128111156200812657fe5b021790555060608201518160010160008201518160000160006101000a81548160ff021916908360ff16021790555060208201518160000160016101000a81548160ff021916908360ff16021790555060408201518160000160026101000a81548160ff021916908360ff16021790555060608201518160000160036101000a81548160ff021916908360ff16021790555060808201518160000160046101000a81548160ff021916908360ff16021790555060a08201518160000160056101000a81548160ff021916908360ff16021790555050505050506006608060405190810160405280604160ff168152602001600d60128111156200822557fe5b81526020016012808111156200823757fe5b815260200160c060405190810160405280603760ff168152602001603260ff168152602001602d60ff168152602001608760ff168152602001605f60ff168152602001607860ff168152508152509080600181540180825580915050906001820390600052602060002090600202016000909192909190915060008201518160000160006101000a81548160ff021916908360ff16021790555060208201518160000160016101000a81548160ff02191690836012811115620082f657fe5b021790555060408201518160000160026101000a81548160ff021916908360128111156200832057fe5b021790555060608201518160010160008201518160000160006101000a81548160ff021916908360ff16021790555060208201518160000160016101000a81548160ff021916908360ff16021790555060408201518160000160026101000a81548160ff021916908360ff16021790555060608201518160000160036101000a81548160ff021916908360ff16021790555060808201518160000160046101000a81548160ff021916908360ff16021790555060a08201518160000160056101000a81548160ff021916908360ff16021790555050505050506006608060405190810160405280604260ff168152602001600160128111156200841f57fe5b81526020016012808111156200843157fe5b815260200160c060405190810160405280604660ff168152602001605060ff168152602001603260ff168152602001602360ff168152602001602360ff168152602001602360ff168152508152509080600181540180825580915050906001820390600052602060002090600202016000909192909190915060008201518160000160006101000a81548160ff021916908360ff16021790555060208201518160000160016101000a81548160ff02191690836012811115620084f057fe5b021790555060408201518160000160026101000a81548160ff021916908360128111156200851a57fe5b021790555060608201518160010160008201518160000160006101000a81548160ff021916908360ff16021790555060208201518160000160016101000a81548160ff021916908360ff16021790555060408201518160000160026101000a81548160ff021916908360ff16021790555060608201518160000160036101000a81548160ff021916908360ff16021790555060808201518160000160046101000a81548160ff021916908360ff16021790555060a08201518160000160056101000a81548160ff021916908360ff16021790555050505050506006608060405190810160405280604360ff168152602001600160128111156200861957fe5b81526020016012808111156200862b57fe5b815260200160c060405190810160405280605060ff168152602001606460ff168152602001604660ff168152602001603260ff168152602001603c60ff168152602001602d60ff168152508152509080600181540180825580915050906001820390600052602060002090600202016000909192909190915060008201518160000160006101000a81548160ff021916908360ff16021790555060208201518160000160016101000a81548160ff02191690836012811115620086ea57fe5b021790555060408201518160000160026101000a81548160ff021916908360128111156200871457fe5b021790555060608201518160010160008201518160000160006101000a81548160ff021916908360ff16021790555060208201518160000160016101000a81548160ff021916908360ff16021790555060408201518160000160026101000a81548160ff021916908360ff16021790555060608201518160000160036101000a81548160ff021916908360ff16021790555060808201518160000160046101000a81548160ff021916908360ff16021790555060a08201518160000160056101000a81548160ff021916908360ff16021790555050505050506006608060405190810160405280604460ff168152602001600160128111156200881357fe5b81526020016012808111156200882557fe5b815260200160c060405190810160405280605a60ff168152602001608260ff168152602001605060ff168152602001604160ff168152602001605560ff168152602001603760ff168152508152509080600181540180825580915050906001820390600052602060002090600202016000909192909190915060008201518160000160006101000a81548160ff021916908360ff16021790555060208201518160000160016101000a81548160ff02191690836012811115620088e457fe5b021790555060408201518160000160026101000a81548160ff021916908360128111156200890e57fe5b021790555060608201518160010160008201518160000160006101000a81548160ff021916908360ff16021790555060208201518160000160016101000a81548160ff021916908360ff16021790555060408201518160000160026101000a81548160ff021916908360ff16021790555060608201518160000160036101000a81548160ff021916908360ff16021790555060808201518160000160046101000a81548160ff021916908360ff16021790555060a08201518160000160056101000a81548160ff021916908360ff16021790555050505050506006608060405190810160405280604560ff168152602001600b601281111562008a0d57fe5b81526020016003601281111562008a2057fe5b815260200160c060405190810160405280603260ff168152602001604b60ff168152602001602360ff168152602001604660ff168152602001601e60ff168152602001602860ff168152508152509080600181540180825580915050906001820390600052602060002090600202016000909192909190915060008201518160000160006101000a81548160ff021916908360ff16021790555060208201518160000160016101000a81548160ff0219169083601281111562008adf57fe5b021790555060408201518160000160026101000a81548160ff0219169083601281111562008b0957fe5b021790555060608201518160010160008201518160000160006101000a81548160ff021916908360ff16021790555060208201518160000160016101000a81548160ff021916908360ff16021790555060408201518160000160026101000a81548160ff021916908360ff16021790555060608201518160000160036101000a81548160ff021916908360ff16021790555060808201518160000160046101000a81548160ff021916908360ff16021790555060a08201518160000160056101000a81548160ff021916908360ff16021790555050505050506006608060405190810160405280604660ff168152602001600b601281111562008c0857fe5b81526020016003601281111562008c1b57fe5b815260200160c060405190810160405280604160ff168152602001605a60ff168152602001603260ff168152602001605560ff168152602001602d60ff168152602001603760ff168152508152509080600181540180825580915050906001820390600052602060002090600202016000909192909190915060008201518160000160006101000a81548160ff021916908360ff16021790555060208201518160000160016101000a81548160ff0219169083601281111562008cda57fe5b021790555060408201518160000160026101000a81548160ff0219169083601281111562008d0457fe5b021790555060608201518160010160008201518160000160006101000a81548160ff021916908360ff16021790555060208201518160000160016101000a81548160ff021916908360ff16021790555060408201518160000160026101000a81548160ff021916908360ff16021790555060608201518160000160036101000a81548160ff021916908360ff16021790555060808201518160000160046101000a81548160ff021916908360ff16021790555060a08201518160000160056101000a81548160ff021916908360ff16021790555050505050506006608060405190810160405280604760ff168152602001600b601281111562008e0357fe5b81526020016003601281111562008e1657fe5b815260200160c060405190810160405280605060ff168152602001606960ff168152602001604160ff168152602001606460ff168152602001604660ff168152602001604660ff168152508152509080600181540180825580915050906001820390600052602060002090600202016000909192909190915060008201518160000160006101000a81548160ff021916908360ff16021790555060208201518160000160016101000a81548160ff0219169083601281111562008ed557fe5b021790555060408201518160000160026101000a81548160ff0219169083601281111562008eff57fe5b021790555060608201518160010160008201518160000160006101000a81548160ff021916908360ff16021790555060208201518160000160016101000a81548160ff021916908360ff16021790555060408201518160000160026101000a81548160ff021916908360ff16021790555060608201518160000160036101000a81548160ff021916908360ff16021790555060808201518160000160046101000a81548160ff021916908360ff16021790555060a08201518160000160056101000a81548160ff021916908360ff16021790555050505050506006608060405190810160405280604860ff168152602001600a601281111562008ffe57fe5b8152602001600360128111156200901157fe5b815260200160c060405190810160405280602860ff168152602001602860ff168152602001602360ff168152602001603260ff168152602001606460ff168152602001604660ff168152508152509080600181540180825580915050906001820390600052602060002090600202016000909192909190915060008201518160000160006101000a81548160ff021916908360ff16021790555060208201518160000160016101000a81548160ff02191690836012811115620090d057fe5b021790555060408201518160000160026101000a81548160ff02191690836012811115620090fa57fe5b021790555060608201518160010160008201518160000160006101000a81548160ff021916908360ff16021790555060208201518160000160016101000a81548160ff021916908360ff16021790555060408201518160000160026101000a81548160ff021916908360ff16021790555060608201518160000160036101000a81548160ff021916908360ff16021790555060808201518160000160046101000a81548160ff021916908360ff16021790555060a08201518160000160056101000a81548160ff021916908360ff16021790555050505050506006608060405190810160405280604960ff168152602001600a6012811115620091f957fe5b8152602001600360128111156200920c57fe5b815260200160c060405190810160405280605060ff168152602001604660ff168152602001604160ff168152602001605060ff168152602001607860ff168152602001606460ff168152508152509080600181540180825580915050906001820390600052602060002090600202016000909192909190915060008201518160000160006101000a81548160ff021916908360ff16021790555060208201518160000160016101000a81548160ff02191690836012811115620092cb57fe5b021790555060408201518160000160026101000a81548160ff02191690836012811115620092f557fe5b021790555060608201518160010160008201518160000160006101000a81548160ff021916908360ff16021790555060208201518160000160016101000a81548160ff021916908360ff16021790555060408201518160000160026101000a81548160ff021916908360ff16021790555060608201518160000160036101000a81548160ff021916908360ff16021790555060808201518160000160046101000a81548160ff021916908360ff16021790555060a08201518160000160056101000a81548160ff021916908360ff16021790555050505050506006608060405190810160405280604a60ff16815260200160056012811115620093f457fe5b8152602001600460128111156200940757fe5b815260200160c060405190810160405280602860ff168152602001605060ff168152602001606460ff168152602001601e60ff168152602001601e60ff168152602001601460ff168152508152509080600181540180825580915050906001820390600052602060002090600202016000909192909190915060008201518160000160006101000a81548160ff021916908360ff16021790555060208201518160000160016101000a81548160ff02191690836012811115620094c657fe5b021790555060408201518160000160026101000a81548160ff02191690836012811115620094f057fe5b021790555060608201518160010160008201518160000160006101000a81548160ff021916908360ff16021790555060208201518160000160016101000a81548160ff021916908360ff16021790555060408201518160000160026101000a81548160ff021916908360ff16021790555060608201518160000160036101000a81548160ff021916908360ff16021790555060808201518160000160046101000a81548160ff021916908360ff16021790555060a08201518160000160056101000a81548160ff021916908360ff16021790555050505050506006608060405190810160405280604b60ff16815260200160056012811115620095ef57fe5b8152602001600460128111156200960257fe5b815260200160c060405190810160405280603760ff168152602001605f60ff168152602001607360ff168152602001602d60ff168152602001602d60ff168152602001602360ff168152508152509080600181540180825580915050906001820390600052602060002090600202016000909192909190915060008201518160000160006101000a81548160ff021916908360ff16021790555060208201518160000160016101000a81548160ff02191690836012811115620096c157fe5b021790555060408201518160000160026101000a81548160ff02191690836012811115620096eb57fe5b021790555060608201518160010160008201518160000160006101000a81548160ff021916908360ff16021790555060208201518160000160016101000a81548160ff021916908360ff16021790555060408201518160000160026101000a81548160ff021916908360ff16021790555060608201518160000160036101000a81548160ff021916908360ff16021790555060808201518160000160046101000a81548160ff021916908360ff16021790555060a08201518160000160056101000a81548160ff021916908360ff16021790555050505050506006608060405190810160405280604c60ff16815260200160056012811115620097ea57fe5b815260200160046012811115620097fd57fe5b815260200160c060405190810160405280605060ff168152602001607860ff168152602001608260ff168152602001603760ff168152602001604160ff168152602001602d60ff168152508152509080600181540180825580915050906001820390600052602060002090600202016000909192909190915060008201518160000160006101000a81548160ff021916908360ff16021790555060208201518160000160016101000a81548160ff02191690836012811115620098bc57fe5b021790555060408201518160000160026101000a81548160ff02191690836012811115620098e657fe5b021790555060608201518160010160008201518160000160006101000a81548160ff021916908360ff16021790555060208201518160000160016101000a81548160ff021916908360ff16021790555060408201518160000160026101000a81548160ff021916908360ff16021790555060608201518160000160036101000a81548160ff021916908360ff16021790555060808201518160000160046101000a81548160ff021916908360ff16021790555060a08201518160000160056101000a81548160ff021916908360ff16021790555050505050506006608060405190810160405280604d60ff16815260200160096012811115620099e557fe5b8152602001601280811115620099f757fe5b815260200160c060405190810160405280603260ff168152602001605560ff168152602001603760ff168152602001604160ff168152602001604160ff168152602001605a60ff168152508152509080600181540180825580915050906001820390600052602060002090600202016000909192909190915060008201518160000160006101000a81548160ff021916908360ff16021790555060208201518160000160016101000a81548160ff0219169083601281111562009ab657fe5b021790555060408201518160000160026101000a81548160ff0219169083601281111562009ae057fe5b021790555060608201518160010160008201518160000160006101000a81548160ff021916908360ff16021790555060208201518160000160016101000a81548160ff021916908360ff16021790555060408201518160000160026101000a81548160ff021916908360ff16021790555060608201518160000160036101000a81548160ff021916908360ff16021790555060808201518160000160046101000a81548160ff021916908360ff16021790555060a08201518160000160056101000a81548160ff021916908360ff16021790555050505050506006608060405190810160405280604e60ff1681526020016009601281111562009bdf57fe5b815260200160128081111562009bf157fe5b815260200160c060405190810160405280604160ff168152602001606460ff168152602001604660ff168152602001605060ff168152602001605060ff168152602001606960ff168152508152509080600181540180825580915050906001820390600052602060002090600202016000909192909190915060008201518160000160006101000a81548160ff021916908360ff16021790555060208201518160000160016101000a81548160ff0219169083601281111562009cb057fe5b021790555060408201518160000160026101000a81548160ff0219169083601281111562009cda57fe5b021790555060608201518160010160008201518160000160006101000a81548160ff021916908360ff16021790555060208201518160000160016101000a81548160ff021916908360ff16021790555060408201518160000160026101000a81548160ff021916908360ff16021790555060608201518160000160036101000a81548160ff021916908360ff16021790555060808201518160000160046101000a81548160ff021916908360ff16021790555060a08201518160000160056101000a81548160ff021916908360ff16021790555050505050506006608060405190810160405280604f60ff168152602001600a601281111562009dd957fe5b8152602001600d601281111562009dec57fe5b815260200160c060405190810160405280605a60ff168152602001604160ff168152602001604160ff168152602001602860ff168152602001602860ff168152602001600f60ff168152508152509080600181540180825580915050906001820390600052602060002090600202016000909192909190915060008201518160000160006101000a81548160ff021916908360ff16021790555060208201518160000160016101000a81548160ff0219169083601281111562009eab57fe5b021790555060408201518160000160026101000a81548160ff0219169083601281111562009ed557fe5b021790555060608201518160010160008201518160000160006101000a81548160ff021916908360ff16021790555060208201518160000160016101000a81548160ff021916908360ff16021790555060408201518160000160026101000a81548160ff021916908360ff16021790555060608201518160000160036101000a81548160ff021916908360ff16021790555060808201518160000160046101000a81548160ff021916908360ff16021790555060a08201518160000160056101000a81548160ff021916908360ff16021790555050505050506006608060405190810160405280605060ff168152602001600a601281111562009fd457fe5b8152602001600d601281111562009fe757fe5b815260200160c060405190810160405280605f60ff168152602001604b60ff168152602001606e60ff168152602001606460ff168152602001605060ff168152602001601e60ff168152508152509080600181540180825580915050906001820390600052602060002090600202016000909192909190915060008201518160000160006101000a81548160ff021916908360ff16021790555060208201518160000160016101000a81548160ff021916908360128111156200a0a657fe5b021790555060408201518160000160026101000a81548160ff021916908360128111156200a0d057fe5b021790555060608201518160010160008201518160000160006101000a81548160ff021916908360ff16021790555060208201518160000160016101000a81548160ff021916908360ff16021790555060408201518160000160026101000a81548160ff021916908360ff16021790555060608201518160000160036101000a81548160ff021916908360ff16021790555060808201518160000160046101000a81548160ff021916908360ff16021790555060a08201518160000160056101000a81548160ff021916908360ff16021790555050505050506006608060405190810160405280605160ff168152602001600c60128111156200a1cf57fe5b8152602001600860128111156200a1e257fe5b815260200160c060405190810160405280601960ff168152602001602360ff168152602001604660ff168152602001605f60ff168152602001603760ff168152602001602d60ff168152508152509080600181540180825580915050906001820390600052602060002090600202016000909192909190915060008201518160000160006101000a81548160ff021916908360ff16021790555060208201518160000160016101000a81548160ff021916908360128111156200a2a157fe5b021790555060408201518160000160026101000a81548160ff021916908360128111156200a2cb57fe5b021790555060608201518160010160008201518160000160006101000a81548160ff021916908360ff16021790555060208201518160000160016101000a81548160ff021916908360ff16021790555060408201518160000160026101000a81548160ff021916908360ff16021790555060608201518160000160036101000a81548160ff021916908360ff16021790555060808201518160000160046101000a81548160ff021916908360ff16021790555060a08201518160000160056101000a81548160ff021916908360ff16021790555050505050506006608060405190810160405280605260ff168152602001600c60128111156200a3ca57fe5b8152602001600860128111156200a3dd57fe5b815260200160c060405190810160405280603260ff168152602001603c60ff168152602001605f60ff168152602001607860ff168152602001604660ff168152602001604660ff168152508152509080600181540180825580915050906001820390600052602060002090600202016000909192909190915060008201518160000160006101000a81548160ff021916908360ff16021790555060208201518160000160016101000a81548160ff021916908360128111156200a49c57fe5b021790555060408201518160000160026101000a81548160ff021916908360128111156200a4c657fe5b021790555060608201518160010160008201518160000160006101000a81548160ff021916908360ff16021790555060208201518160000160016101000a81548160ff021916908360ff16021790555060408201518160000160026101000a81548160ff021916908360ff16021790555060608201518160000160036101000a81548160ff021916908360ff16021790555060808201518160000160046101000a81548160ff021916908360ff16021790555060a08201518160000160056101000a81548160ff021916908360ff16021790555050505050506006608060405190810160405280605360ff168152602001600060128111156200a5c557fe5b8152602001600260128111156200a5d857fe5b815260200160c060405190810160405280603460ff168152602001605a60ff168152602001603760ff168152602001603a60ff168152602001603e60ff168152602001603c60ff168152508152509080600181540180825580915050906001820390600052602060002090600202016000909192909190915060008201518160000160006101000a81548160ff021916908360ff16021790555060208201518160000160016101000a81548160ff021916908360128111156200a69757fe5b021790555060408201518160000160026101000a81548160ff021916908360128111156200a6c157fe5b021790555060608201518160010160008201518160000160006101000a81548160ff021916908360ff16021790555060208201518160000160016101000a81548160ff021916908360ff16021790555060408201518160000160026101000a81548160ff021916908360ff16021790555060608201518160000160036101000a81548160ff021916908360ff16021790555060808201518160000160046101000a81548160ff021916908360ff16021790555060a08201518160000160056101000a81548160ff021916908360ff16021790555050505050506006608060405190810160405280605460ff168152602001600060128111156200a7c057fe5b8152602001600260128111156200a7d357fe5b815260200160c060405190810160405280602360ff168152602001605560ff168152602001602d60ff168152602001602360ff168152602001602360ff168152602001604b60ff168152508152509080600181540180825580915050906001820390600052602060002090600202016000909192909190915060008201518160000160006101000a81548160ff021916908360ff16021790555060208201518160000160016101000a81548160ff021916908360128111156200a89257fe5b021790555060408201518160000160026101000a81548160ff021916908360128111156200a8bc57fe5b021790555060608201518160010160008201518160000160006101000a81548160ff021916908360ff16021790555060208201518160000160016101000a81548160ff021916908360ff16021790555060408201518160000160026101000a81548160ff021916908360ff16021790555060608201518160000160036101000a81548160ff021916908360ff16021790555060808201518160000160046101000a81548160ff021916908360ff16021790555060a08201518160000160056101000a81548160ff021916908360ff16021790555050505050506006608060405190810160405280605560ff168152602001600060128111156200a9bb57fe5b8152602001600260128111156200a9ce57fe5b815260200160c060405190810160405280603c60ff168152602001606e60ff168152602001604660ff168152602001603c60ff168152602001603c60ff168152602001606e60ff168152508152509080600181540180825580915050906001820390600052602060002090600202016000909192909190915060008201518160000160006101000a81548160ff021916908360ff16021790555060208201518160000160016101000a81548160ff021916908360128111156200aa8d57fe5b021790555060408201518160000160026101000a81548160ff021916908360128111156200aab757fe5b021790555060608201518160010160008201518160000160006101000a81548160ff021916908360ff16021790555060208201518160000160016101000a81548160ff021916908360ff16021790555060408201518160000160026101000a81548160ff021916908360ff16021790555060608201518160000160036101000a81548160ff021916908360ff16021790555060808201518160000160046101000a81548160ff021916908360ff16021790555060a08201518160000160056101000a81548160ff021916908360ff16021790555050505050506006608060405190810160405280605660ff168152602001600a60128111156200abb657fe5b81526020016012808111156200abc857fe5b815260200160c060405190810160405280604160ff168152602001602d60ff168152602001603760ff168152602001602d60ff168152602001604660ff168152602001602d60ff168152508152509080600181540180825580915050906001820390600052602060002090600202016000909192909190915060008201518160000160006101000a81548160ff021916908360ff16021790555060208201518160000160016101000a81548160ff021916908360128111156200ac8757fe5b021790555060408201518160000160026101000a81548160ff021916908360128111156200acb157fe5b021790555060608201518160010160008201518160000160006101000a81548160ff021916908360ff16021790555060208201518160000160016101000a81548160ff021916908360ff16021790555060408201518160000160026101000a81548160ff021916908360ff16021790555060608201518160000160036101000a81548160ff021916908360ff16021790555060808201518160000160046101000a81548160ff021916908360ff16021790555060a08201518160000160056101000a81548160ff021916908360ff16021790555050505050506006608060405190810160405280605760ff168152602001600a60128111156200adb057fe5b8152602001600e60128111156200adc357fe5b815260200160c060405190810160405280605a60ff168152602001604660ff168152602001605060ff168152602001604660ff168152602001605f60ff168152602001604660ff168152508152509080600181540180825580915050906001820390600052602060002090600202016000909192909190915060008201518160000160006101000a81548160ff021916908360ff16021790555060208201518160000160016101000a81548160ff021916908360128111156200ae8257fe5b021790555060408201518160000160026101000a81548160ff021916908360128111156200aeac57fe5b021790555060608201518160010160008201518160000160006101000a81548160ff021916908360ff16021790555060208201518160000160016101000a81548160ff021916908360ff16021790555060408201518160000160026101000a81548160ff021916908360ff16021790555060608201518160000160036101000a81548160ff021916908360ff16021790555060808201518160000160046101000a81548160ff021916908360ff16021790555060a08201518160000160056101000a81548160ff021916908360ff16021790555050505050506006608060405190810160405280605860ff168152602001600360128111156200afab57fe5b81526020016012808111156200afbd57fe5b815260200160c060405190810160405280605060ff168152602001605060ff168152602001603260ff168152602001602860ff168152602001603260ff168152602001601960ff168152508152509080600181540180825580915050906001820390600052602060002090600202016000909192909190915060008201518160000160006101000a81548160ff021916908360ff16021790555060208201518160000160016101000a81548160ff021916908360128111156200b07c57fe5b021790555060408201518160000160026101000a81548160ff021916908360128111156200b0a657fe5b021790555060608201518160010160008201518160000160006101000a81548160ff021916908360ff16021790555060208201518160000160016101000a81548160ff021916908360ff16021790555060408201518160000160026101000a81548160ff021916908360ff16021790555060608201518160000160036101000a81548160ff021916908360ff16021790555060808201518160000160046101000a81548160ff021916908360ff16021790555060a08201518160000160056101000a81548160ff021916908360ff16021790555050505050506006608060405190810160405280605960ff168152602001600360128111156200b1a557fe5b81526020016012808111156200b1b757fe5b815260200160c060405190810160405280606960ff168152602001606960ff168152602001604b60ff168152602001604160ff168152602001606460ff168152602001603260ff168152508152509080600181540180825580915050906001820390600052602060002090600202016000909192909190915060008201518160000160006101000a81548160ff021916908360ff16021790555060208201518160000160016101000a81548160ff021916908360128111156200b27657fe5b021790555060408201518160000160026101000a81548160ff021916908360128111156200b2a057fe5b021790555060608201518160010160008201518160000160006101000a81548160ff021916908360ff16021790555060208201518160000160016101000a81548160ff021916908360ff16021790555060408201518160000160026101000a81548160ff021916908360ff16021790555060608201518160000160036101000a81548160ff021916908360ff16021790555060808201518160000160046101000a81548160ff021916908360ff16021790555060a08201518160000160056101000a81548160ff021916908360ff16021790555050505050506006608060405190810160405280605a60ff168152602001600a60128111156200b39f57fe5b81526020016012808111156200b3b157fe5b815260200160c060405190810160405280601e60ff168152602001604160ff168152602001606460ff168152602001602d60ff168152602001601960ff168152602001602860ff168152508152509080600181540180825580915050906001820390600052602060002090600202016000909192909190915060008201518160000160006101000a81548160ff021916908360ff16021790555060208201518160000160016101000a81548160ff021916908360128111156200b47057fe5b021790555060408201518160000160026101000a81548160ff021916908360128111156200b49a57fe5b021790555060608201518160010160008201518160000160006101000a81548160ff021916908360ff16021790555060208201518160000160016101000a81548160ff021916908360ff16021790555060408201518160000160026101000a81548160ff021916908360ff16021790555060608201518160000160036101000a81548160ff021916908360ff16021790555060808201518160000160046101000a81548160ff021916908360ff16021790555060a08201518160000160056101000a81548160ff021916908360ff16021790555050505050506006608060405190810160405280605b60ff168152602001600a60128111156200b59957fe5b8152602001600e60128111156200b5ac57fe5b815260200160c060405190810160405280603260ff168152602001605f60ff16815260200160b460ff168152602001605560ff168152602001602d60ff168152602001604660ff168152508152509080600181540180825580915050906001820390600052602060002090600202016000909192909190915060008201518160000160006101000a81548160ff021916908360ff16021790555060208201518160000160016101000a81548160ff021916908360128111156200b66b57fe5b021790555060408201518160000160026101000a81548160ff021916908360128111156200b69557fe5b021790555060608201518160010160008201518160000160006101000a81548160ff021916908360ff16021790555060208201518160000160016101000a81548160ff021916908360ff16021790555060408201518160000160026101000a81548160ff021916908360ff16021790555060608201518160000160036101000a81548160ff021916908360ff16021790555060808201518160000160046101000a81548160ff021916908360ff16021790555060a08201518160000160056101000a81548160ff021916908360ff16021790555050505050506006608060405190810160405280605c60ff168152602001600760128111156200b79457fe5b8152602001600360128111156200b7a757fe5b815260200160c060405190810160405280601e60ff168152602001602360ff168152602001601e60ff168152602001606460ff168152602001602360ff168152602001605060ff168152508152509080600181540180825580915050906001820390600052602060002090600202016000909192909190915060008201518160000160006101000a81548160ff021916908360ff16021790555060208201518160000160016101000a81548160ff021916908360128111156200b86657fe5b021790555060408201518160000160026101000a81548160ff021916908360128111156200b89057fe5b021790555060608201518160010160008201518160000160006101000a81548160ff021916908360ff16021790555060208201518160000160016101000a81548160ff021916908360ff16021790555060408201518160000160026101000a81548160ff021916908360ff16021790555060608201518160000160036101000a81548160ff021916908360ff16021790555060808201518160000160046101000a81548160ff021916908360ff16021790555060a08201518160000160056101000a81548160ff021916908360ff16021790555050505050506006608060405190810160405280605d60ff168152602001600760128111156200b98f57fe5b8152602001600360128111156200b9a257fe5b815260200160c060405190810160405280602d60ff168152602001603260ff168152602001602d60ff168152602001607360ff168152602001603760ff168152602001605f60ff168152508152509080600181540180825580915050906001820390600052602060002090600202016000909192909190915060008201518160000160006101000a81548160ff021916908360ff16021790555060208201518160000160016101000a81548160ff021916908360128111156200ba6157fe5b021790555060408201518160000160026101000a81548160ff021916908360128111156200ba8b57fe5b021790555060608201518160010160008201518160000160006101000a81548160ff021916908360ff16021790555060208201518160000160016101000a81548160ff021916908360ff16021790555060408201518160000160026101000a81548160ff021916908360ff16021790555060608201518160000160036101000a81548160ff021916908360ff16021790555060808201518160000160046101000a81548160ff021916908360ff16021790555060a08201518160000160056101000a81548160ff021916908360ff16021790555050505050506006608060405190810160405280605e60ff168152602001600760128111156200bb8a57fe5b8152602001600360128111156200bb9d57fe5b815260200160c060405190810160405280603c60ff168152602001604160ff168152602001603c60ff168152602001608260ff168152602001604b60ff168152602001606e60ff168152508152509080600181540180825580915050906001820390600052602060002090600202016000909192909190915060008201518160000160006101000a81548160ff021916908360ff16021790555060208201518160000160016101000a81548160ff021916908360128111156200bc5c57fe5b021790555060408201518160000160026101000a81548160ff021916908360128111156200bc8657fe5b021790555060608201518160010160008201518160000160006101000a81548160ff021916908360ff16021790555060208201518160000160016101000a81548160ff021916908360ff16021790555060408201518160000160026101000a81548160ff021916908360ff16021790555060608201518160000160036101000a81548160ff021916908360ff16021790555060808201518160000160046101000a81548160ff021916908360ff16021790555060a08201518160000160056101000a81548160ff021916908360ff16021790555050505050506006608060405190810160405280605f60ff168152602001600560128111156200bd8557fe5b8152602001600460128111156200bd9857fe5b815260200160c060405190810160405280602360ff168152602001602d60ff16815260200160a060ff168152602001601e60ff168152602001602d60ff168152602001604660ff168152508152509080600181540180825580915050906001820390600052602060002090600202016000909192909190915060008201518160000160006101000a81548160ff021916908360ff16021790555060208201518160000160016101000a81548160ff021916908360128111156200be5757fe5b021790555060408201518160000160026101000a81548160ff021916908360128111156200be8157fe5b021790555060608201518160010160008201518160000160006101000a81548160ff021916908360ff16021790555060208201518160000160016101000a81548160ff021916908360ff16021790555060408201518160000160026101000a81548160ff021916908360ff16021790555060608201518160000160036101000a81548160ff021916908360ff16021790555060808201518160000160046101000a81548160ff021916908360ff16021790555060a08201518160000160056101000a81548160ff021916908360ff16021790555050505050506006608060405190810160405280606060ff168152602001600d60128111156200bf8057fe5b81526020016012808111156200bf9257fe5b815260200160c060405190810160405280603c60ff168152602001603060ff168152602001602d60ff168152602001602b60ff168152602001605a60ff168152602001602a60ff168152508152509080600181540180825580915050906001820390600052602060002090600202016000909192909190915060008201518160000160006101000a81548160ff021916908360ff16021790555060208201518160000160016101000a81548160ff021916908360128111156200c05157fe5b021790555060408201518160000160026101000a81548160ff021916908360128111156200c07b57fe5b021790555060608201518160010160008201518160000160006101000a81548160ff021916908360ff16021790555060208201518160000160016101000a81548160ff021916908360ff16021790555060408201518160000160026101000a81548160ff021916908360ff16021790555060608201518160000160036101000a81548160ff021916908360ff16021790555060808201518160000160046101000a81548160ff021916908360ff16021790555060a08201518160000160056101000a81548160ff021916908360ff16021790555050505050506006608060405190810160405280606160ff168152602001600d60128111156200c17a57fe5b81526020016012808111156200c18c57fe5b815260200160c060405190810160405280605560ff168152602001604960ff168152602001604660ff168152602001604960ff168152602001607360ff168152602001604360ff168152508152509080600181540180825580915050906001820390600052602060002090600202016000909192909190915060008201518160000160006101000a81548160ff021916908360ff16021790555060208201518160000160016101000a81548160ff021916908360128111156200c24b57fe5b021790555060408201518160000160026101000a81548160ff021916908360128111156200c27557fe5b021790555060608201518160010160008201518160000160006101000a81548160ff021916908360ff16021790555060208201518160000160016101000a81548160ff021916908360ff16021790555060408201518160000160026101000a81548160ff021916908360ff16021790555060608201518160000160036101000a81548160ff021916908360ff16021790555060808201518160000160046101000a81548160ff021916908360ff16021790555060a08201518160000160056101000a81548160ff021916908360ff16021790555050505050506006608060405190810160405280606260ff168152602001600a60128111156200c37457fe5b81526020016012808111156200c38657fe5b815260200160c060405190810160405280601e60ff168152602001606960ff168152602001605a60ff168152602001601960ff168152602001601960ff168152602001603260ff168152508152509080600181540180825580915050906001820390600052602060002090600202016000909192909190915060008201518160000160006101000a81548160ff021916908360ff16021790555060208201518160000160016101000a81548160ff021916908360128111156200c44557fe5b021790555060408201518160000160026101000a81548160ff021916908360128111156200c46f57fe5b021790555060608201518160010160008201518160000160006101000a81548160ff021916908360ff16021790555060208201518160000160016101000a81548160ff021916908360ff16021790555060408201518160000160026101000a81548160ff021916908360ff16021790555060608201518160000160036101000a81548160ff021916908360ff16021790555060808201518160000160046101000a81548160ff021916908360ff16021790555060a08201518160000160056101000a81548160ff021916908360ff16021790555050505050506006608060405190810160405280606360ff168152602001600a60128111156200c56e57fe5b81526020016012808111156200c58057fe5b815260200160c060405190810160405280603760ff168152602001608260ff168152602001607360ff168152602001603260ff168152602001603260ff168152602001604b60ff168152508152509080600181540180825580915050906001820390600052602060002090600202016000909192909190915060008201518160000160006101000a81548160ff021916908360ff16021790555060208201518160000160016101000a81548160ff021916908360128111156200c63f57fe5b021790555060408201518160000160026101000a81548160ff021916908360128111156200c66957fe5b021790555060608201518160010160008201518160000160006101000a81548160ff021916908360ff16021790555060208201518160000160016101000a81548160ff021916908360ff16021790555060408201518160000160026101000a81548160ff021916908360ff16021790555060608201518160000160036101000a81548160ff021916908360ff16021790555060808201518160000160046101000a81548160ff021916908360ff16021790555060a08201518160000160056101000a81548160ff021916908360ff16021790555050505050506006608060405190810160405280606460ff168152602001600c60128111156200c76857fe5b81526020016012808111156200c77a57fe5b815260200160c060405190810160405280602860ff168152602001601e60ff168152602001603260ff168152602001603760ff168152602001603760ff168152602001606460ff168152508152509080600181540180825580915050906001820390600052602060002090600202016000909192909190915060008201518160000160006101000a81548160ff021916908360ff16021790555060208201518160000160016101000a81548160ff021916908360128111156200c83957fe5b021790555060408201518160000160026101000a81548160ff021916908360128111156200c86357fe5b021790555060608201518160010160008201518160000160006101000a81548160ff021916908360ff16021790555060208201518160000160016101000a81548160ff021916908360ff16021790555060408201518160000160026101000a81548160ff021916908360ff16021790555060608201518160000160036101000a81548160ff021916908360ff16021790555060808201518160000160046101000a81548160ff021916908360ff16021790555060a08201518160000160056101000a81548160ff021916908360ff16021790555050505050506006608060405190810160405280606560ff168152602001600c60128111156200c96257fe5b81526020016012808111156200c97457fe5b815260200160c060405190810160405280603c60ff168152602001603260ff168152602001604660ff168152602001605060ff168152602001605060ff168152602001609660ff168152508152509080600181540180825580915050906001820390600052602060002090600202016000909192909190915060008201518160000160006101000a81548160ff021916908360ff16021790555060208201518160000160016101000a81548160ff021916908360128111156200ca3357fe5b021790555060408201518160000160026101000a81548160ff021916908360128111156200ca5d57fe5b021790555060608201518160010160008201518160000160006101000a81548160ff021916908360ff16021790555060208201518160000160016101000a81548160ff021916908360ff16021790555060408201518160000160026101000a81548160ff021916908360ff16021790555060608201518160000160036101000a81548160ff021916908360ff16021790555060808201518160000160046101000a81548160ff021916908360ff16021790555060a08201518160000160056101000a81548160ff021916908360ff16021790555050505050506006608060405190810160405280606660ff168152602001600b60128111156200cb5c57fe5b8152602001600d60128111156200cb6f57fe5b815260200160c060405190810160405280603c60ff168152602001602860ff168152602001605060ff168152602001603c60ff168152602001602d60ff168152602001602860ff168152508152509080600181540180825580915050906001820390600052602060002090600202016000909192909190915060008201518160000160006101000a81548160ff021916908360ff16021790555060208201518160000160016101000a81548160ff021916908360128111156200cc2e57fe5b021790555060408201518160000160026101000a81548160ff021916908360128111156200cc5857fe5b021790555060608201518160010160008201518160000160006101000a81548160ff021916908360ff16021790555060208201518160000160016101000a81548160ff021916908360ff16021790555060408201518160000160026101000a81548160ff021916908360ff16021790555060608201518160000160036101000a81548160ff021916908360ff16021790555060808201518160000160046101000a81548160ff021916908360ff16021790555060a08201518160000160056101000a81548160ff021916908360ff16021790555050505050506006608060405190810160405280606760ff168152602001600b60128111156200cd5757fe5b8152602001600d60128111156200cd6a57fe5b815260200160c060405190810160405280605f60ff168152602001605f60ff168152602001605560ff168152602001607d60ff168152602001604b60ff168152602001603760ff168152508152509080600181540180825580915050906001820390600052602060002090600202016000909192909190915060008201518160000160006101000a81548160ff021916908360ff16021790555060208201518160000160016101000a81548160ff021916908360128111156200ce2957fe5b021790555060408201518160000160026101000a81548160ff021916908360128111156200ce5357fe5b021790555060608201518160010160008201518160000160006101000a81548160ff021916908360ff16021790555060208201518160000160016101000a81548160ff021916908360ff16021790555060408201518160000160026101000a81548160ff021916908360ff16021790555060608201518160000160036101000a81548160ff021916908360ff16021790555060808201518160000160046101000a81548160ff021916908360ff16021790555060a08201518160000160056101000a81548160ff021916908360ff16021790555050505050506006608060405190810160405280606860ff168152602001600460128111156200cf5257fe5b81526020016012808111156200cf6457fe5b815260200160c060405190810160405280603260ff168152602001603260ff168152602001605f60ff168152602001602860ff168152602001603260ff168152602001602360ff168152508152509080600181540180825580915050906001820390600052602060002090600202016000909192909190915060008201518160000160006101000a81548160ff021916908360ff16021790555060208201518160000160016101000a81548160ff021916908360128111156200d02357fe5b021790555060408201518160000160026101000a81548160ff021916908360128111156200d04d57fe5b021790555060608201518160010160008201518160000160006101000a81548160ff021916908360ff16021790555060208201518160000160016101000a81548160ff021916908360ff16021790555060408201518160000160026101000a81548160ff021916908360ff16021790555060608201518160000160036101000a81548160ff021916908360ff16021790555060808201518160000160046101000a81548160ff021916908360ff16021790555060a08201518160000160056101000a81548160ff021916908360ff16021790555050505050506006608060405190810160405280606960ff168152602001600460128111156200d14c57fe5b81526020016012808111156200d15e57fe5b815260200160c060405190810160405280603c60ff168152602001605060ff168152602001606e60ff168152602001603260ff168152602001605060ff168152602001602d60ff168152508152509080600181540180825580915050906001820390600052602060002090600202016000909192909190915060008201518160000160006101000a81548160ff021916908360ff16021790555060208201518160000160016101000a81548160ff021916908360128111156200d21d57fe5b021790555060408201518160000160026101000a81548160ff021916908360128111156200d24757fe5b021790555060608201518160010160008201518160000160006101000a81548160ff021916908360ff16021790555060208201518160000160016101000a81548160ff021916908360ff16021790555060408201518160000160026101000a81548160ff021916908360ff16021790555060608201518160000160036101000a81548160ff021916908360ff16021790555060808201518160000160046101000a81548160ff021916908360ff16021790555060a08201518160000160056101000a81548160ff021916908360ff16021790555050505050506006608060405190810160405280606a60ff168152602001600160128111156200d34657fe5b81526020016012808111156200d35857fe5b815260200160c060405190810160405280603260ff168152602001607860ff168152602001603560ff168152602001602360ff168152602001606e60ff168152602001605760ff168152508152509080600181540180825580915050906001820390600052602060002090600202016000909192909190915060008201518160000160006101000a81548160ff021916908360ff16021790555060208201518160000160016101000a81548160ff021916908360128111156200d41757fe5b021790555060408201518160000160026101000a81548160ff021916908360128111156200d44157fe5b021790555060608201518160010160008201518160000160006101000a81548160ff021916908360ff16021790555060208201518160000160016101000a81548160ff021916908360ff16021790555060408201518160000160026101000a81548160ff021916908360ff16021790555060608201518160000160036101000a81548160ff021916908360ff16021790555060808201518160000160046101000a81548160ff021916908360ff16021790555060a08201518160000160056101000a81548160ff021916908360ff16021790555050505050506006608060405190810160405280606b60ff168152602001600160128111156200d54057fe5b81526020016012808111156200d55257fe5b815260200160c060405190810160405280603260ff168152602001606960ff168152602001604f60ff168152602001602360ff168152602001606e60ff168152602001604c60ff168152508152509080600181540180825580915050906001820390600052602060002090600202016000909192909190915060008201518160000160006101000a81548160ff021916908360ff16021790555060208201518160000160016101000a81548160ff021916908360128111156200d61157fe5b021790555060408201518160000160026101000a81548160ff021916908360128111156200d63b57fe5b021790555060608201518160010160008201518160000160006101000a81548160ff021916908360ff16021790555060208201518160000160016101000a81548160ff021916908360ff16021790555060408201518160000160026101000a81548160ff021916908360ff16021790555060608201518160000160036101000a81548160ff021916908360ff16021790555060808201518160000160046101000a81548160ff021916908360ff16021790555060a08201518160000160056101000a81548160ff021916908360ff16021790555050505050506006608060405190810160405280606c60ff168152602001600060128111156200d73a57fe5b81526020016012808111156200d74c57fe5b815260200160c060405190810160405280605a60ff168152602001603760ff168152602001604b60ff168152602001603c60ff168152602001604b60ff168152602001601e60ff168152508152509080600181540180825580915050906001820390600052602060002090600202016000909192909190915060008201518160000160006101000a81548160ff021916908360ff16021790555060208201518160000160016101000a81548160ff021916908360128111156200d80b57fe5b021790555060408201518160000160026101000a81548160ff021916908360128111156200d83557fe5b021790555060608201518160010160008201518160000160006101000a81548160ff021916908360ff16021790555060208201518160000160016101000a81548160ff021916908360ff16021790555060408201518160000160026101000a81548160ff021916908360ff16021790555060608201518160000160036101000a81548160ff021916908360ff16021790555060808201518160000160046101000a81548160ff021916908360ff16021790555060a08201518160000160056101000a81548160ff021916908360ff16021790555050505050506006608060405190810160405280606d60ff168152602001600360128111156200d93457fe5b81526020016012808111156200d94657fe5b815260200160c060405190810160405280602860ff168152602001604160ff168152602001605f60ff168152602001603c60ff168152602001602d60ff168152602001602360ff168152508152509080600181540180825580915050906001820390600052602060002090600202016000909192909190915060008201518160000160006101000a81548160ff021916908360ff16021790555060208201518160000160016101000a81548160ff021916908360128111156200da0557fe5b021790555060408201518160000160026101000a81548160ff021916908360128111156200da2f57fe5b021790555060608201518160010160008201518160000160006101000a81548160ff021916908360ff16021790555060208201518160000160016101000a81548160ff021916908360ff16021790555060408201518160000160026101000a81548160ff021916908360ff16021790555060608201518160000160036101000a81548160ff021916908360ff16021790555060808201518160000160046101000a81548160ff021916908360ff16021790555060a08201518160000160056101000a81548160ff021916908360ff16021790555050505050506006608060405190810160405280606e60ff168152602001600360128111156200db2e57fe5b81526020016012808111156200db4057fe5b815260200160c060405190810160405280604160ff168152602001605a60ff168152602001607860ff168152602001605560ff168152602001604660ff168152602001603c60ff168152508152509080600181540180825580915050906001820390600052602060002090600202016000909192909190915060008201518160000160006101000a81548160ff021916908360ff16021790555060208201518160000160016101000a81548160ff021916908360128111156200dbff57fe5b021790555060408201518160000160026101000a81548160ff021916908360128111156200dc2957fe5b021790555060608201518160010160008201518160000160006101000a81548160ff021916908360ff16021790555060208201518160000160016101000a81548160ff021916908360ff16021790555060408201518160000160026101000a81548160ff021916908360ff16021790555060608201518160000160036101000a81548160ff021916908360ff16021790555060808201518160000160046101000a81548160ff021916908360ff16021790555060a08201518160000160056101000a81548160ff021916908360ff16021790555050505050506006608060405190810160405280606f60ff168152602001600460128111156200dd2857fe5b8152602001600560128111156200dd3b57fe5b815260200160c060405190810160405280605060ff168152602001605560ff168152602001605f60ff168152602001601e60ff168152602001601e60ff168152602001601960ff168152508152509080600181540180825580915050906001820390600052602060002090600202016000909192909190915060008201518160000160006101000a81548160ff021916908360ff16021790555060208201518160000160016101000a81548160ff021916908360128111156200ddfa57fe5b021790555060408201518160000160026101000a81548160ff021916908360128111156200de2457fe5b021790555060608201518160010160008201518160000160006101000a81548160ff021916908360ff16021790555060208201518160000160016101000a81548160ff021916908360ff16021790555060408201518160000160026101000a81548160ff021916908360ff16021790555060608201518160000160036101000a81548160ff021916908360ff16021790555060808201518160000160046101000a81548160ff021916908360ff16021790555060a08201518160000160056101000a81548160ff021916908360ff16021790555050505050506006608060405190810160405280607060ff168152602001600460128111156200df2357fe5b8152602001600560128111156200df3657fe5b815260200160c060405190810160405280606960ff168152602001608260ff168152602001607860ff168152602001602d60ff168152602001602d60ff168152602001602860ff168152508152509080600181540180825580915050906001820390600052602060002090600202016000909192909190915060008201518160000160006101000a81548160ff021916908360ff16021790555060208201518160000160016101000a81548160ff021916908360128111156200dff557fe5b021790555060408201518160000160026101000a81548160ff021916908360128111156200e01f57fe5b021790555060608201518160010160008201518160000160006101000a81548160ff021916908360ff16021790555060208201518160000160016101000a81548160ff021916908360ff16021790555060408201518160000160026101000a81548160ff021916908360ff16021790555060608201518160000160036101000a81548160ff021916908360ff16021790555060808201518160000160046101000a81548160ff021916908360ff16021790555060a08201518160000160056101000a81548160ff021916908360ff16021790555050505050506006608060405190810160405280607160ff168152602001600060128111156200e11e57fe5b81526020016012808111156200e13057fe5b815260200160c06040519081016040528060fa60ff168152602001600560ff168152602001600560ff168152602001602360ff168152602001606960ff168152602001603260ff168152508152509080600181540180825580915050906001820390600052602060002090600202016000909192909190915060008201518160000160006101000a81548160ff021916908360ff16021790555060208201518160000160016101000a81548160ff021916908360128111156200e1ef57fe5b021790555060408201518160000160026101000a81548160ff021916908360128111156200e21957fe5b021790555060608201518160010160008201518160000160006101000a81548160ff021916908360ff16021790555060208201518160000160016101000a81548160ff021916908360ff16021790555060408201518160000160026101000a81548160ff021916908360ff16021790555060608201518160000160036101000a81548160ff021916908360ff16021790555060808201518160000160046101000a81548160ff021916908360ff16021790555060a08201518160000160056101000a81548160ff021916908360ff16021790555050505050506006608060405190810160405280607260ff168152602001600b60128111156200e31857fe5b81526020016012808111156200e32a57fe5b815260200160c060405190810160405280604160ff168152602001603760ff168152602001607360ff168152602001606460ff168152602001602860ff168152602001603c60ff168152508152509080600181540180825580915050906001820390600052602060002090600202016000909192909190915060008201518160000160006101000a81548160ff021916908360ff16021790555060208201518160000160016101000a81548160ff021916908360128111156200e3e957fe5b021790555060408201518160000160026101000a81548160ff021916908360128111156200e41357fe5b021790555060608201518160010160008201518160000160006101000a81548160ff021916908360ff16021790555060208201518160000160016101000a81548160ff021916908360ff16021790555060408201518160000160026101000a81548160ff021916908360ff16021790555060608201518160000160036101000a81548160ff021916908360ff16021790555060808201518160000160046101000a81548160ff021916908360ff16021790555060a08201518160000160056101000a81548160ff021916908360ff16021790555050505050506006608060405190810160405280607360ff168152602001600060128111156200e51257fe5b81526020016012808111156200e52457fe5b815260200160c060405190810160405280606960ff168152602001605f60ff168152602001605060ff168152602001602860ff168152602001605060ff168152602001605a60ff168152508152509080600181540180825580915050906001820390600052602060002090600202016000909192909190915060008201518160000160006101000a81548160ff021916908360ff16021790555060208201518160000160016101000a81548160ff021916908360128111156200e5e357fe5b021790555060408201518160000160026101000a81548160ff021916908360128111156200e60d57fe5b021790555060608201518160010160008201518160000160006101000a81548160ff021916908360ff16021790555060208201518160000160016101000a81548160ff021916908360ff16021790555060408201518160000160026101000a81548160ff021916908360ff16021790555060608201518160000160036101000a81548160ff021916908360ff16021790555060808201518160000160046101000a81548160ff021916908360ff16021790555060a08201518160000160056101000a81548160ff021916908360ff16021790555050505050506006608060405190810160405280607460ff168152602001600a60128111156200e70c57fe5b81526020016012808111156200e71e57fe5b815260200160c060405190810160405280601e60ff168152602001602860ff168152602001604660ff168152602001604660ff168152602001601960ff168152602001603c60ff168152508152509080600181540180825580915050906001820390600052602060002090600202016000909192909190915060008201518160000160006101000a81548160ff021916908360ff16021790555060208201518160000160016101000a81548160ff021916908360128111156200e7dd57fe5b021790555060408201518160000160026101000a81548160ff021916908360128111156200e80757fe5b021790555060608201518160010160008201518160000160006101000a81548160ff021916908360ff16021790555060208201518160000160016101000a81548160ff021916908360ff16021790555060408201518160000160026101000a81548160ff021916908360ff16021790555060608201518160000160036101000a81548160ff021916908360ff16021790555060808201518160000160046101000a81548160ff021916908360ff16021790555060a08201518160000160056101000a81548160ff021916908360ff16021790555050505050506006608060405190810160405280607560ff168152602001600a60128111156200e90657fe5b81526020016012808111156200e91857fe5b815260200160c060405190810160405280603760ff168152602001604160ff168152602001605f60ff168152602001605f60ff168152602001602d60ff168152602001605560ff168152508152509080600181540180825580915050906001820390600052602060002090600202016000909192909190915060008201518160000160006101000a81548160ff021916908360ff16021790555060208201518160000160016101000a81548160ff021916908360128111156200e9d757fe5b021790555060408201518160000160026101000a81548160ff021916908360128111156200ea0157fe5b021790555060608201518160010160008201518160000160006101000a81548160ff021916908360ff16021790555060208201518160000160016101000a81548160ff021916908360ff16021790555060408201518160000160026101000a81548160ff021916908360ff16021790555060608201518160000160036101000a81548160ff021916908360ff16021790555060808201518160000160046101000a81548160ff021916908360ff16021790555060a08201518160000160056101000a81548160ff021916908360ff16021790555050505050506006608060405190810160405280607660ff168152602001600a60128111156200eb0057fe5b81526020016012808111156200eb1257fe5b815260200160c060405190810160405280602d60ff168152602001604360ff168152602001603c60ff168152602001602360ff168152602001603260ff168152602001603f60ff168152508152509080600181540180825580915050906001820390600052602060002090600202016000909192909190915060008201518160000160006101000a81548160ff021916908360ff16021790555060208201518160000160016101000a81548160ff021916908360128111156200ebd157fe5b021790555060408201518160000160026101000a81548160ff021916908360128111156200ebfb57fe5b021790555060608201518160010160008201518160000160006101000a81548160ff021916908360ff16021790555060208201518160000160016101000a81548160ff021916908360ff16021790555060408201518160000160026101000a81548160ff021916908360ff16021790555060608201518160000160036101000a81548160ff021916908360ff16021790555060808201518160000160046101000a81548160ff021916908360ff16021790555060a08201518160000160056101000a81548160ff021916908360ff16021790555050505050506006608060405190810160405280607760ff168152602001600a60128111156200ecfa57fe5b81526020016012808111156200ed0c57fe5b815260200160c060405190810160405280605060ff168152602001605c60ff168152602001604160ff168152602001604160ff168152602001605060ff168152602001604460ff168152508152509080600181540180825580915050906001820390600052602060002090600202016000909192909190915060008201518160000160006101000a81548160ff021916908360ff16021790555060208201518160000160016101000a81548160ff021916908360128111156200edcb57fe5b021790555060408201518160000160026101000a81548160ff021916908360128111156200edf557fe5b021790555060608201518160010160008201518160000160006101000a81548160ff021916908360ff16021790555060208201518160000160016101000a81548160ff021916908360ff16021790555060408201518160000160026101000a81548160ff021916908360ff16021790555060608201518160000160036101000a81548160ff021916908360ff16021790555060808201518160000160046101000a81548160ff021916908360ff16021790555060a08201518160000160056101000a81548160ff021916908360ff16021790555050505050506006608060405190810160405280607860ff168152602001600a60128111156200eef457fe5b81526020016012808111156200ef0657fe5b815260200160c060405190810160405280601e60ff168152602001602d60ff168152602001603760ff168152602001604660ff168152602001603760ff168152602001605560ff168152508152509080600181540180825580915050906001820390600052602060002090600202016000909192909190915060008201518160000160006101000a81548160ff021916908360ff16021790555060208201518160000160016101000a81548160ff021916908360128111156200efc557fe5b021790555060408201518160000160026101000a81548160ff021916908360128111156200efef57fe5b021790555060608201518160010160008201518160000160006101000a81548160ff021916908360ff16021790555060208201518160000160016101000a81548160ff021916908360ff16021790555060408201518160000160026101000a81548160ff021916908360ff16021790555060608201518160000160036101000a81548160ff021916908360ff16021790555060808201518160000160046101000a81548160ff021916908360ff16021790555060a08201518160000160056101000a81548160ff021916908360ff16021790555050505050506006608060405190810160405280607960ff168152602001600a60128111156200f0ee57fe5b8152602001600d60128111156200f10157fe5b815260200160c060405190810160405280603c60ff168152602001604b60ff168152602001605560ff168152602001606460ff168152602001605560ff168152602001607360ff168152508152509080600181540180825580915050906001820390600052602060002090600202016000909192909190915060008201518160000160006101000a81548160ff021916908360ff16021790555060208201518160000160016101000a81548160ff021916908360128111156200f1c057fe5b021790555060408201518160000160026101000a81548160ff021916908360128111156200f1ea57fe5b021790555060608201518160010160008201518160000160006101000a81548160ff021916908360ff16021790555060208201518160000160016101000a81548160ff021916908360ff16021790555060408201518160000160026101000a81548160ff021916908360ff16021790555060608201518160000160036101000a81548160ff021916908360ff16021790555060808201518160000160046101000a81548160ff021916908360ff16021790555060a08201518160000160056101000a81548160ff021916908360ff16021790555050505050506006608060405190810160405280607a60ff168152602001600d60128111156200f2e957fe5b8152602001601160128111156200f2fc57fe5b815260200160c060405190810160405280602860ff168152602001602d60ff168152602001604160ff168152602001606460ff168152602001607860ff168152602001605a60ff168152508152509080600181540180825580915050906001820390600052602060002090600202016000909192909190915060008201518160000160006101000a81548160ff021916908360ff16021790555060208201518160000160016101000a81548160ff021916908360128111156200f3bb57fe5b021790555060408201518160000160026101000a81548160ff021916908360128111156200f3e557fe5b021790555060608201518160010160008201518160000160006101000a81548160ff021916908360ff16021790555060208201518160000160016101000a81548160ff021916908360ff16021790555060408201518160000160026101000a81548160ff021916908360ff16021790555060608201518160000160036101000a81548160ff021916908360ff16021790555060808201518160000160046101000a81548160ff021916908360ff16021790555060a08201518160000160056101000a81548160ff021916908360ff16021790555050505050506006608060405190810160405280607b60ff168152602001600660128111156200f4e457fe5b8152602001600260128111156200f4f757fe5b815260200160c060405190810160405280604660ff168152602001606e60ff168152602001605060ff168152602001603760ff168152602001605060ff168152602001606960ff168152508152509080600181540180825580915050906001820390600052602060002090600202016000909192909190915060008201518160000160006101000a81548160ff021916908360ff16021790555060208201518160000160016101000a81548160ff021916908360128111156200f5b657fe5b021790555060408201518160000160026101000a81548160ff021916908360128111156200f5e057fe5b021790555060608201518160010160008201518160000160006101000a81548160ff021916908360ff16021790555060208201518160000160016101000a81548160ff021916908360ff16021790555060408201518160000160026101000a81548160ff021916908360ff16021790555060608201518160000160036101000a81548160ff021916908360ff16021790555060808201518160000160046101000a81548160ff021916908360ff16021790555060a08201518160000160056101000a81548160ff021916908360ff16021790555050505050506006608060405190810160405280607c60ff168152602001600e60128111156200f6df57fe5b8152602001600d60128111156200f6f257fe5b815260200160c060405190810160405280604160ff168152602001603260ff168152602001602360ff168152602001607360ff168152602001605f60ff168152602001605f60ff168152508152509080600181540180825580915050906001820390600052602060002090600202016000909192909190915060008201518160000160006101000a81548160ff021916908360ff16021790555060208201518160000160016101000a81548160ff021916908360128111156200f7b157fe5b021790555060408201518160000160026101000a81548160ff021916908360128111156200f7db57fe5b021790555060608201518160010160008201518160000160006101000a81548160ff021916908360ff16021790555060208201518160000160016101000a81548160ff021916908360ff16021790555060408201518160000160026101000a81548160ff021916908360ff16021790555060608201518160000160036101000a81548160ff021916908360ff16021790555060808201518160000160046101000a81548160ff021916908360ff16021790555060a08201518160000160056101000a81548160ff021916908360ff16021790555050505050506006608060405190810160405280607d60ff168152602001600c60128111156200f8da57fe5b81526020016012808111156200f8ec57fe5b815260200160c060405190810160405280604160ff168152602001605360ff168152602001603960ff168152602001605f60ff168152602001605560ff168152602001606960ff168152508152509080600181540180825580915050906001820390600052602060002090600202016000909192909190915060008201518160000160006101000a81548160ff021916908360ff16021790555060208201518160000160016101000a81548160ff021916908360128111156200f9ab57fe5b021790555060408201518160000160026101000a81548160ff021916908360128111156200f9d557fe5b021790555060608201518160010160008201518160000160006101000a81548160ff021916908360ff16021790555060208201518160000160016101000a81548160ff021916908360ff16021790555060408201518160000160026101000a81548160ff021916908360ff16021790555060608201518160000160036101000a81548160ff021916908360ff16021790555060808201518160000160046101000a81548160ff021916908360ff16021790555060a08201518160000160056101000a81548160ff021916908360ff16021790555050505050506006608060405190810160405280607e60ff168152602001600960128111156200fad457fe5b81526020016012808111156200fae657fe5b815260200160c060405190810160405280604160ff168152602001605f60ff168152602001603960ff168152602001606460ff168152602001605560ff168152602001605d60ff168152508152509080600181540180825580915050906001820390600052602060002090600202016000909192909190915060008201518160000160006101000a81548160ff021916908360ff16021790555060208201518160000160016101000a81548160ff021916908360128111156200fba557fe5b021790555060408201518160000160026101000a81548160ff021916908360128111156200fbcf57fe5b021790555060608201518160010160008201518160000160006101000a81548160ff021916908360ff16021790555060208201518160000160016101000a81548160ff021916908360ff16021790555060408201518160000160026101000a81548160ff021916908360ff16021790555060608201518160000160036101000a81548160ff021916908360ff16021790555060808201518160000160046101000a81548160ff021916908360ff16021790555060a08201518160000160056101000a81548160ff021916908360ff16021790555050505050506006608060405190810160405280607f60ff168152602001600660128111156200fcce57fe5b81526020016012808111156200fce057fe5b815260200160c060405190810160405280604160ff168152602001607d60ff168152602001606460ff168152602001603760ff168152602001604660ff168152602001605560ff168152508152509080600181540180825580915050906001820390600052602060002090600202016000909192909190915060008201518160000160006101000a81548160ff021916908360ff16021790555060208201518160000160016101000a81548160ff021916908360128111156200fd9f57fe5b021790555060408201518160000160026101000a81548160ff021916908360128111156200fdc957fe5b021790555060608201518160010160008201518160000160006101000a81548160ff021916908360ff16021790555060208201518160000160016101000a81548160ff021916908360ff16021790555060408201518160000160026101000a81548160ff021916908360ff16021790555060608201518160000160036101000a81548160ff021916908360ff16021790555060808201518160000160046101000a81548160ff021916908360ff16021790555060a08201518160000160056101000a81548160ff021916908360ff16021790555050505050506006608060405190810160405280608060ff168152602001600060128111156200fec857fe5b81526020016012808111156200feda57fe5b815260200160c060405190810160405280604b60ff168152602001606460ff168152602001605f60ff168152602001602860ff168152602001604660ff168152602001606e60ff168152508152509080600181540180825580915050906001820390600052602060002090600202016000909192909190915060008201518160000160006101000a81548160ff021916908360ff16021790555060208201518160000160016101000a81548160ff021916908360128111156200ff9957fe5b021790555060408201518160000160026101000a81548160ff021916908360128111156200ffc357fe5b021790555060608201518160010160008201518160000160006101000a81548160ff021916908360ff16021790555060208201518160000160016101000a81548160ff021916908360ff16021790555060408201518160000160026101000a81548160ff021916908360ff16021790555060608201518160000160036101000a81548160ff021916908360ff16021790555060808201518160000160046101000a81548160ff021916908360ff16021790555060a08201518160000160056101000a81548160ff021916908360ff16021790555050505050506006608060405190810160405280608160ff168152602001600a6012811115620100c257fe5b8152602001601280811115620100d457fe5b815260200160c060405190810160405280601460ff168152602001600a60ff168152602001603760ff168152602001600f60ff168152602001601460ff168152602001605060ff168152508152509080600181540180825580915050906001820390600052602060002090600202016000909192909190915060008201518160000160006101000a81548160ff021916908360ff16021790555060208201518160000160016101000a81548160ff021916908360128111156201019357fe5b021790555060408201518160000160026101000a81548160ff02191690836012811115620101bd57fe5b021790555060608201518160010160008201518160000160006101000a81548160ff021916908360ff16021790555060208201518160000160016101000a81548160ff021916908360ff16021790555060408201518160000160026101000a81548160ff021916908360ff16021790555060608201518160000160036101000a81548160ff021916908360ff16021790555060808201518160000160046101000a81548160ff021916908360ff16021790555060a08201518160000160056101000a81548160ff021916908360ff16021790555050505050506006608060405190810160405280608260ff168152602001600a6012811115620102bc57fe5b815260200160026012811115620102cf57fe5b815260200160c060405190810160405280605f60ff168152602001607d60ff168152602001604f60ff168152602001603c60ff168152602001606460ff168152602001605160ff168152508152509080600181540180825580915050906001820390600052602060002090600202016000909192909190915060008201518160000160006101000a81548160ff021916908360ff16021790555060208201518160000160016101000a81548160ff021916908360128111156201038e57fe5b021790555060408201518160000160026101000a81548160ff02191690836012811115620103b857fe5b021790555060608201518160010160008201518160000160006101000a81548160ff021916908360ff16021790555060208201518160000160016101000a81548160ff021916908360ff16021790555060408201518160000160026101000a81548160ff021916908360ff16021790555060608201518160000160036101000a81548160ff021916908360ff16021790555060808201518160000160046101000a81548160ff021916908360ff16021790555060a08201518160000160056101000a81548160ff021916908360ff16021790555050505050506006608060405190810160405280608360ff168152602001600a6012811115620104b757fe5b8152602001600e6012811115620104ca57fe5b815260200160c060405190810160405280608260ff168152602001605560ff168152602001605060ff168152602001605560ff168152602001605f60ff168152602001603c60ff168152508152509080600181540180825580915050906001820390600052602060002090600202016000909192909190915060008201518160000160006101000a81548160ff021916908360ff16021790555060208201518160000160016101000a81548160ff021916908360128111156201058957fe5b021790555060408201518160000160026101000a81548160ff02191690836012811115620105b357fe5b021790555060608201518160010160008201518160000160006101000a81548160ff021916908360ff16021790555060208201518160000160016101000a81548160ff021916908360ff16021790555060408201518160000160026101000a81548160ff021916908360ff16021790555060608201518160000160036101000a81548160ff021916908360ff16021790555060808201518160000160046101000a81548160ff021916908360ff16021790555060a08201518160000160056101000a81548160ff021916908360ff16021790555050505050506006608060405190810160405280608460ff16815260200160006012811115620106b257fe5b8152602001601280811115620106c457fe5b815260200160c060405190810160405280603060ff168152602001603060ff168152602001603060ff168152602001603060ff168152602001603060ff168152602001603060ff168152508152509080600181540180825580915050906001820390600052602060002090600202016000909192909190915060008201518160000160006101000a81548160ff021916908360ff16021790555060208201518160000160016101000a81548160ff021916908360128111156201078357fe5b021790555060408201518160000160026101000a81548160ff02191690836012811115620107ad57fe5b021790555060608201518160010160008201518160000160006101000a81548160ff021916908360ff16021790555060208201518160000160016101000a81548160ff021916908360ff16021790555060408201518160000160026101000a81548160ff021916908360ff16021790555060608201518160000160036101000a81548160ff021916908360ff16021790555060808201518160000160046101000a81548160ff021916908360ff16021790555060a08201518160000160056101000a81548160ff021916908360ff16021790555050505050506006608060405190810160405280608560ff16815260200160006012811115620108ac57fe5b8152602001601280811115620108be57fe5b815260200160c060405190810160405280603760ff168152602001603760ff168152602001603260ff168152602001602d60ff168152602001604160ff168152602001603760ff168152508152509080600181540180825580915050906001820390600052602060002090600202016000909192909190915060008201518160000160006101000a81548160ff021916908360ff16021790555060208201518160000160016101000a81548160ff021916908360128111156201097d57fe5b021790555060408201518160000160026101000a81548160ff02191690836012811115620109a757fe5b021790555060608201518160010160008201518160000160006101000a81548160ff021916908360ff16021790555060208201518160000160016101000a81548160ff021916908360ff16021790555060408201518160000160026101000a81548160ff021916908360ff16021790555060608201518160000160036101000a81548160ff021916908360ff16021790555060808201518160000160046101000a81548160ff021916908360ff16021790555060a08201518160000160056101000a81548160ff021916908360ff16021790555050505050506006608060405190810160405280608660ff168152602001600a601281111562010aa657fe5b815260200160128081111562010ab857fe5b815260200160c060405190810160405280608260ff168152602001604160ff168152602001603c60ff168152602001606e60ff168152602001605f60ff168152602001604160ff168152508152509080600181540180825580915050906001820390600052602060002090600202016000909192909190915060008201518160000160006101000a81548160ff021916908360ff16021790555060208201518160000160016101000a81548160ff0219169083601281111562010b7757fe5b021790555060408201518160000160026101000a81548160ff0219169083601281111562010ba157fe5b021790555060608201518160010160008201518160000160006101000a81548160ff021916908360ff16021790555060208201518160000160016101000a81548160ff021916908360ff16021790555060408201518160000160026101000a81548160ff021916908360ff16021790555060608201518160000160036101000a81548160ff021916908360ff16021790555060808201518160000160046101000a81548160ff021916908360ff16021790555060a08201518160000160056101000a81548160ff021916908360ff16021790555050505050506006608060405190810160405280608760ff168152602001600c601281111562010ca057fe5b815260200160128081111562010cb257fe5b815260200160c060405190810160405280604160ff168152602001604160ff168152602001603c60ff168152602001606e60ff168152602001605f60ff168152602001608260ff168152508152509080600181540180825580915050906001820390600052602060002090600202016000909192909190915060008201518160000160006101000a81548160ff021916908360ff16021790555060208201518160000160016101000a81548160ff0219169083601281111562010d7157fe5b021790555060408201518160000160026101000a81548160ff0219169083601281111562010d9b57fe5b021790555060608201518160010160008201518160000160006101000a81548160ff021916908360ff16021790555060208201518160000160016101000a81548160ff021916908360ff16021790555060408201518160000160026101000a81548160ff021916908360ff16021790555060608201518160000160036101000a81548160ff021916908360ff16021790555060808201518160000160046101000a81548160ff021916908360ff16021790555060a08201518160000160056101000a81548160ff021916908360ff16021790555050505050506006608060405190810160405280608860ff1681526020016009601281111562010e9a57fe5b815260200160128081111562010eac57fe5b815260200160c060405190810160405280604160ff168152602001608260ff168152602001603c60ff168152602001605f60ff168152602001606e60ff168152602001604160ff168152508152509080600181540180825580915050906001820390600052602060002090600202016000909192909190915060008201518160000160006101000a81548160ff021916908360ff16021790555060208201518160000160016101000a81548160ff0219169083601281111562010f6b57fe5b021790555060408201518160000160026101000a81548160ff0219169083601281111562010f9557fe5b021790555060608201518160010160008201518160000160006101000a81548160ff021916908360ff16021790555060208201518160000160016101000a81548160ff021916908360ff16021790555060408201518160000160026101000a81548160ff021916908360ff16021790555060608201518160000160036101000a81548160ff021916908360ff16021790555060808201518160000160046101000a81548160ff021916908360ff16021790555060a08201518160000160056101000a81548160ff021916908360ff16021790555050505050506006608060405190810160405280608960ff168152602001600060128111156201109457fe5b8152602001601280811115620110a657fe5b815260200160c060405190810160405280604160ff168152602001603c60ff168152602001604660ff168152602001605560ff168152602001604b60ff168152602001602860ff168152508152509080600181540180825580915050906001820390600052602060002090600202016000909192909190915060008201518160000160006101000a81548160ff021916908360ff16021790555060208201518160000160016101000a81548160ff021916908360128111156201116557fe5b021790555060408201518160000160026101000a81548160ff021916908360128111156201118f57fe5b021790555060608201518160010160008201518160000160006101000a81548160ff021916908360ff16021790555060208201518160000160016101000a81548160ff021916908360ff16021790555060408201518160000160026101000a81548160ff021916908360ff16021790555060608201518160000160036101000a81548160ff021916908360ff16021790555060808201518160000160046101000a81548160ff021916908360ff16021790555060a08201518160000160056101000a81548160ff021916908360ff16021790555050505050506006608060405190810160405280608a60ff168152602001600560128111156201128e57fe5b8152602001600a6012811115620112a157fe5b815260200160c060405190810160405280602360ff168152602001602860ff168152602001606460ff168152602001605a60ff168152602001603760ff168152602001602360ff168152508152509080600181540180825580915050906001820390600052602060002090600202016000909192909190915060008201518160000160006101000a81548160ff021916908360ff16021790555060208201518160000160016101000a81548160ff021916908360128111156201136057fe5b021790555060408201518160000160026101000a81548160ff021916908360128111156201138a57fe5b021790555060608201518160010160008201518160000160006101000a81548160ff021916908360ff16021790555060208201518160000160016101000a81548160ff021916908360ff16021790555060408201518160000160026101000a81548160ff021916908360ff16021790555060608201518160000160036101000a81548160ff021916908360ff16021790555060808201518160000160046101000a81548160ff021916908360ff16021790555060a08201518160000160056101000a81548160ff021916908360ff16021790555050505050506006608060405190810160405280608b60ff168152602001600560128111156201148957fe5b8152602001600a60128111156201149c57fe5b815260200160c060405190810160405280604660ff168152602001603c60ff168152602001607d60ff168152602001607360ff168152602001604660ff168152602001603760ff168152508152509080600181540180825580915050906001820390600052602060002090600202016000909192909190915060008201518160000160006101000a81548160ff021916908360ff16021790555060208201518160000160016101000a81548160ff021916908360128111156201155b57fe5b021790555060408201518160000160026101000a81548160ff021916908360128111156201158557fe5b021790555060608201518160010160008201518160000160006101000a81548160ff021916908360ff16021790555060208201518160000160016101000a81548160ff021916908360ff16021790555060408201518160000160026101000a81548160ff021916908360ff16021790555060608201518160000160036101000a81548160ff021916908360ff16021790555060808201518160000160046101000a81548160ff021916908360ff16021790555060a08201518160000160056101000a81548160ff021916908360ff16021790555050505050506006608060405190810160405280608c60ff168152602001600560128111156201168457fe5b8152602001600a60128111156201169757fe5b815260200160c060405190810160405280601e60ff168152602001605060ff168152602001605a60ff168152602001603760ff168152602001602d60ff168152602001603760ff168152508152509080600181540180825580915050906001820390600052602060002090600202016000909192909190915060008201518160000160006101000a81548160ff021916908360ff16021790555060208201518160000160016101000a81548160ff021916908360128111156201175657fe5b021790555060408201518160000160026101000a81548160ff021916908360128111156201178057fe5b021790555060608201518160010160008201518160000160006101000a81548160ff021916908360ff16021790555060208201518160000160016101000a81548160ff021916908360ff16021790555060408201518160000160026101000a81548160ff021916908360ff16021790555060608201518160000160036101000a81548160ff021916908360ff16021790555060808201518160000160046101000a81548160ff021916908360ff16021790555060a08201518160000160056101000a81548160ff021916908360ff16021790555050505050506006608060405190810160405280608d60ff168152602001600560128111156201187f57fe5b8152602001600a60128111156201189257fe5b815260200160c060405190810160405280603c60ff168152602001607360ff168152602001606960ff168152602001604160ff168152602001604660ff168152602001605060ff168152508152509080600181540180825580915050906001820390600052602060002090600202016000909192909190915060008201518160000160006101000a81548160ff021916908360ff16021790555060208201518160000160016101000a81548160ff021916908360128111156201195157fe5b021790555060408201518160000160026101000a81548160ff021916908360128111156201197b57fe5b021790555060608201518160010160008201518160000160006101000a81548160ff021916908360ff16021790555060208201518160000160016101000a81548160ff021916908360ff16021790555060408201518160000160026101000a81548160ff021916908360ff16021790555060608201518160000160036101000a81548160ff021916908360ff16021790555060808201518160000160046101000a81548160ff021916908360ff16021790555060a08201518160000160056101000a81548160ff021916908360ff16021790555050505050506006608060405190810160405280608e60ff1681526020016005601281111562011a7a57fe5b81526020016002601281111562011a8d57fe5b815260200160c060405190810160405280605060ff168152602001606960ff168152602001604160ff168152602001603c60ff168152602001604b60ff168152602001608260ff168152508152509080600181540180825580915050906001820390600052602060002090600202016000909192909190915060008201518160000160006101000a81548160ff021916908360ff16021790555060208201518160000160016101000a81548160ff0219169083601281111562011b4c57fe5b021790555060408201518160000160026101000a81548160ff0219169083601281111562011b7657fe5b021790555060608201518160010160008201518160000160006101000a81548160ff021916908360ff16021790555060208201518160000160016101000a81548160ff021916908360ff16021790555060408201518160000160026101000a81548160ff021916908360ff16021790555060608201518160000160036101000a81548160ff021916908360ff16021790555060808201518160000160046101000a81548160ff021916908360ff16021790555060a08201518160000160056101000a81548160ff021916908360ff16021790555050505050506006608060405190810160405280608f60ff1681526020016000601281111562011c7557fe5b815260200160128081111562011c8757fe5b815260200160c06040519081016040528060a060ff168152602001606e60ff168152602001604160ff168152602001604160ff168152602001606e60ff168152602001601e60ff168152508152509080600181540180825580915050906001820390600052602060002090600202016000909192909190915060008201518160000160006101000a81548160ff021916908360ff16021790555060208201518160000160016101000a81548160ff0219169083601281111562011d4657fe5b021790555060408201518160000160026101000a81548160ff0219169083601281111562011d7057fe5b021790555060608201518160010160008201518160000160006101000a81548160ff021916908360ff16021790555060208201518160000160016101000a81548160ff021916908360ff16021790555060408201518160000160026101000a81548160ff021916908360ff16021790555060608201518160000160036101000a81548160ff021916908360ff16021790555060808201518160000160046101000a81548160ff021916908360ff16021790555060a08201518160000160056101000a81548160ff021916908360ff16021790555050505050506006608060405190810160405280609060ff168152602001600e601281111562011e6f57fe5b81526020016002601281111562011e8257fe5b815260200160c060405190810160405280605a60ff168152602001605560ff168152602001606460ff168152602001605f60ff168152602001607d60ff168152602001605560ff168152508152509080600181540180825580915050906001820390600052602060002090600202016000909192909190915060008201518160000160006101000a81548160ff021916908360ff16021790555060208201518160000160016101000a81548160ff0219169083601281111562011f4157fe5b021790555060408201518160000160026101000a81548160ff0219169083601281111562011f6b57fe5b021790555060608201518160010160008201518160000160006101000a81548160ff021916908360ff16021790555060208201518160000160016101000a81548160ff021916908360ff16021790555060408201518160000160026101000a81548160ff021916908360ff16021790555060608201518160000160036101000a81548160ff021916908360ff16021790555060808201518160000160046101000a81548160ff021916908360ff16021790555060a08201518160000160056101000a81548160ff021916908360ff16021790555050505050506006608060405190810160405280609160ff168152602001600c60128111156201206a57fe5b8152602001600260128111156201207d57fe5b815260200160c060405190810160405280605a60ff168152602001605a60ff168152602001605560ff168152602001607d60ff168152602001605a60ff168152602001606460ff168152508152509080600181540180825580915050906001820390600052602060002090600202016000909192909190915060008201518160000160006101000a81548160ff021916908360ff16021790555060208201518160000160016101000a81548160ff021916908360128111156201213c57fe5b021790555060408201518160000160026101000a81548160ff021916908360128111156201216657fe5b021790555060608201518160010160008201518160000160006101000a81548160ff021916908360ff16021790555060208201518160000160016101000a81548160ff021916908360ff16021790555060408201518160000160026101000a81548160ff021916908360ff16021790555060608201518160000160036101000a81548160ff021916908360ff16021790555060808201518160000160046101000a81548160ff021916908360ff16021790555060a08201518160000160056101000a81548160ff021916908360ff16021790555050505050506006608060405190810160405280609260ff168152602001600960128111156201226557fe5b8152602001600260128111156201227857fe5b815260200160c060405190810160405280605a60ff168152602001606460ff168152602001605a60ff168152602001607d60ff168152602001605560ff168152602001605a60ff168152508152509080600181540180825580915050906001820390600052602060002090600202016000909192909190915060008201518160000160006101000a81548160ff021916908360ff16021790555060208201518160000160016101000a81548160ff021916908360128111156201233757fe5b021790555060408201518160000160026101000a81548160ff021916908360128111156201236157fe5b021790555060608201518160010160008201518160000160006101000a81548160ff021916908360ff16021790555060208201518160000160016101000a81548160ff021916908360ff16021790555060408201518160000160026101000a81548160ff021916908360ff16021790555060608201518160000160036101000a81548160ff021916908360ff16021790555060808201518160000160046101000a81548160ff021916908360ff16021790555060a08201518160000160056101000a81548160ff021916908360ff16021790555050505050506006608060405190810160405280609360ff168152602001600f60128111156201246057fe5b81526020016012808111156201247257fe5b815260200160c060405190810160405280602960ff168152602001604060ff168152602001602d60ff168152602001603260ff168152602001603260ff168152602001603260ff168152508152509080600181540180825580915050906001820390600052602060002090600202016000909192909190915060008201518160000160006101000a81548160ff021916908360ff16021790555060208201518160000160016101000a81548160ff021916908360128111156201253157fe5b021790555060408201518160000160026101000a81548160ff021916908360128111156201255b57fe5b021790555060608201518160010160008201518160000160006101000a81548160ff021916908360ff16021790555060208201518160000160016101000a81548160ff021916908360ff16021790555060408201518160000160026101000a81548160ff021916908360ff16021790555060608201518160000160036101000a81548160ff021916908360ff16021790555060808201518160000160046101000a81548160ff021916908360ff16021790555060a08201518160000160056101000a81548160ff021916908360ff16021790555050505050506006608060405190810160405280609460ff168152602001600f60128111156201265a57fe5b81526020016012808111156201266c57fe5b815260200160c060405190810160405280603d60ff168152602001605460ff168152602001604160ff168152602001604660ff168152602001604660ff168152602001604660ff168152508152509080600181540180825580915050906001820390600052602060002090600202016000909192909190915060008201518160000160006101000a81548160ff021916908360ff16021790555060208201518160000160016101000a81548160ff021916908360128111156201272b57fe5b021790555060408201518160000160026101000a81548160ff021916908360128111156201275557fe5b021790555060608201518160010160008201518160000160006101000a81548160ff021916908360ff16021790555060208201518160000160016101000a81548160ff021916908360ff16021790555060408201518160000160026101000a81548160ff021916908360ff16021790555060608201518160000160036101000a81548160ff021916908360ff16021790555060808201518160000160046101000a81548160ff021916908360ff16021790555060a08201518160000160056101000a81548160ff021916908360ff16021790555050505050506006608060405190810160405280609560ff168152602001600f60128111156201285457fe5b8152602001600260128111156201286757fe5b815260200160c060405190810160405280605b60ff168152602001608660ff168152602001605f60ff168152602001606460ff168152602001606460ff168152602001605060ff168152508152509080600181540180825580915050906001820390600052602060002090600202016000909192909190915060008201518160000160006101000a81548160ff021916908360ff16021790555060208201518160000160016101000a81548160ff021916908360128111156201292657fe5b021790555060408201518160000160026101000a81548160ff021916908360128111156201295057fe5b021790555060608201518160010160008201518160000160006101000a81548160ff021916908360ff16021790555060208201518160000160016101000a81548160ff021916908360ff16021790555060408201518160000160026101000a81548160ff021916908360ff16021790555060608201518160000160036101000a81548160ff021916908360ff16021790555060808201518160000160046101000a81548160ff021916908360ff16021790555060a08201518160000160056101000a81548160ff021916908360ff16021790555050505050506006608060405190810160405280609660ff168152602001600d601281111562012a4f57fe5b815260200160128081111562012a6157fe5b815260200160c060405190810160405280606a60ff168152602001606e60ff168152602001605a60ff168152602001609a60ff168152602001605a60ff168152602001608260ff168152508152509080600181540180825580915050906001820390600052602060002090600202016000909192909190915060008201518160000160006101000a81548160ff021916908360ff16021790555060208201518160000160016101000a81548160ff0219169083601281111562012b2057fe5b021790555060408201518160000160026101000a81548160ff0219169083601281111562012b4a57fe5b021790555060608201518160010160008201518160000160006101000a81548160ff021916908360ff16021790555060208201518160000160016101000a81548160ff021916908360ff16021790555060408201518160000160026101000a81548160ff021916908360ff16021790555060608201518160000160036101000a81548160ff021916908360ff16021790555060808201518160000160046101000a81548160ff021916908360ff16021790555060a08201518160000160056101000a81548160ff021916908360ff16021790555050505050506006608060405190810160405280609760ff168152602001600d601281111562012c4957fe5b815260200160128081111562012c5b57fe5b815260200160c060405190810160405280606460ff168152602001606460ff168152602001606460ff168152602001606460ff168152602001606460ff168152602001606460ff168152508152509080600181540180825580915050906001820390600052602060002090600202016000909192909190915060008201518160000160006101000a81548160ff021916908360ff16021790555060208201518160000160016101000a81548160ff0219169083601281111562012d1a57fe5b021790555060408201518160000160026101000a81548160ff0219169083601281111562012d4457fe5b021790555060608201518160010160008201518160000160006101000a81548160ff021916908360ff16021790555060208201518160000160016101000a81548160ff021916908360ff16021790555060408201518160000160026101000a81548160ff021916908360ff16021790555060608201518160000160036101000a81548160ff021916908360ff16021790555060808201518160000160046101000a81548160ff021916908360ff16021790555060a08201518160000160056101000a81548160ff021916908360ff16021790555050505050508081600760006101000a81548173ffffffffffffffffffffffffffffffffffffffff021916908373ffffffffffffffffffffffffffffffffffffffff160217905550505062012f9b565b63ffffffff7c010000000000000000000000000000000000000000000000000000000002817bffffffffffffffffffffffffffffffffffffffffffffffffffffffff19161415151562012eb957600080fd5b6001600080837bffffffffffffffffffffffffffffffffffffffffffffffffffffffff19167bffffffffffffffffffffffffffffffffffffffffffffffffffffffff1916815260200190815260200160002060006101000a81548160ff02191690831515021790555050565b600062012f33825162012f87565b905092915050565b60006020828403121562012f4e57600080fd5b600062012f5e8482850162012f25565b91505092915050565b600073ffffffffffffffffffffffffffffffffffffffff82169050919050565b600062012f948262012f67565b9050919050565b6128608062012fab6000396000f3fe60806040526004361061013c576000357c010000000000000000000000000000000000000000000000000000000090048063715018a6116100bd5780639a0ea318116100815780639a0ea318146103df578063a22cb4651461041c578063b88d4fde14610445578063e985e9c51461046e578063f2fde38b146104ab5761013c565b8063715018a61461030c578063852bd6e0146103235780638da5cb5b1461034c5780638ef9e13e146103775780638f32d59b146103b45761013c565b8063319876f811610104578063319876f81461021757806336ce5e471461024057806342842e0e146102695780636352211e1461029257806370a08231146102cf5761013c565b806301ffc9a714610141578063081812fc1461017e578063095ea7b3146101bb5780631fb15ecf146101e457806323b872dd146101ee575b600080fd5b34801561014d57600080fd5b5061016860048036036101639190810190612235565b6104d4565b60405161017591906125a5565b60405180910390f35b34801561018a57600080fd5b506101a560048036036101a09190810190612287565b61053b565b6040516101b2919061253e565b60405180910390f35b3480156101c757600080fd5b506101e260048036036101dd91908101906121f9565b61058c565b005b6101ec6106d1565b005b3480156101fa57600080fd5b50610215600480360361021091908101906120f3565b610726565b005b34801561022357600080fd5b5061023e600480360361023991908101906122b0565b61074b565b005b34801561024c57600080fd5b5061026760048036036102629190810190612287565b61077d565b005b34801561027557600080fd5b50610290600480360361028b91908101906120f3565b6107ad565b005b34801561029e57600080fd5b506102b960048036036102b49190810190612287565b6107ce565b6040516102c6919061253e565b60405180910390f35b3480156102db57600080fd5b506102f660048036036102f1919081019061208e565b61084c565b6040516103039190612618565b60405180910390f35b34801561031857600080fd5b506103216108d7565b005b34801561032f57600080fd5b5061034a6004803603610345919081019061208e565b6109ab565b005b34801561035857600080fd5b50610361610a04565b60405161036e919061253e565b60405180910390f35b34801561038357600080fd5b5061039e60048036036103999190810190612304565b610a2e565b6040516103ab91906125e0565b60405180910390f35b3480156103c057600080fd5b506103c9610ba3565b6040516103d691906125a5565b60405180910390f35b3480156103eb57600080fd5b5061040660048036036104019190810190612304565b610bfb565b60405161041391906125fc565b60405180910390f35b34801561042857600080fd5b50610443600480360361043e91908101906121bd565b610e17565b005b34801561045157600080fd5b5061046c60048036036104679190810190612142565b610f4f565b005b34801561047a57600080fd5b50610495600480360361049091908101906120b7565b610f77565b6040516104a291906125a5565b60405180910390f35b3480156104b757600080fd5b506104d260048036036104cd919081019061208e565b61100b565b005b6000806000837bffffffffffffffffffffffffffffffffffffffffffffffffffffffff19167bffffffffffffffffffffffffffffffffffffffffffffffffffffffff1916815260200190815260200160002060009054906101000a900460ff169050919050565b60006105468261102a565b151561055157600080fd5b6002600083815260200190815260200160002060009054906101000a900473ffffffffffffffffffffffffffffffffffffffff169050919050565b6000610597826107ce565b90508073ffffffffffffffffffffffffffffffffffffffff168373ffffffffffffffffffffffffffffffffffffffff16141515156105d457600080fd5b8073ffffffffffffffffffffffffffffffffffffffff163373ffffffffffffffffffffffffffffffffffffffff16148061061457506106138133610f77565b5b151561061f57600080fd5b826002600084815260200190815260200160002060006101000a81548173ffffffffffffffffffffffffffffffffffffffff021916908373ffffffffffffffffffffffffffffffffffffffff160217905550818373ffffffffffffffffffffffffffffffffffffffff168273ffffffffffffffffffffffffffffffffffffffff167f8c5be1e5ebec7d5bd14f71427d1e84f3dd0314c0f7b2291e5b200ac8c7c3b92560405160405180910390a4505050565b66038d7ea4c680003414151561071c576040517f08c379a0000000000000000000000000000000000000000000000000000000008152600401610713906125c0565b60405180910390fd5b61072461109c565b565b61073033826112ee565b151561073b57600080fd5b610746838383611383565b505050565b61077933600760009054906101000a900473ffffffffffffffffffffffffffffffffffffffff168484610f4f565b5050565b6107aa33600760009054906101000a900473ffffffffffffffffffffffffffffffffffffffff16836107ad565b50565b6107c98383836020604051908101604052806000815250610f4f565b505050565b6000806001600084815260200190815260200160002060009054906101000a900473ffffffffffffffffffffffffffffffffffffffff169050600073ffffffffffffffffffffffffffffffffffffffff168173ffffffffffffffffffffffffffffffffffffffff161415151561084357600080fd5b80915050919050565b60008073ffffffffffffffffffffffffffffffffffffffff168273ffffffffffffffffffffffffffffffffffffffff161415151561088957600080fd5b6108d0600360008473ffffffffffffffffffffffffffffffffffffffff1673ffffffffffffffffffffffffffffffffffffffff16815260200190815260200160002061154a565b9050919050565b6108df610ba3565b15156108ea57600080fd5b600073ffffffffffffffffffffffffffffffffffffffff16600560009054906101000a900473ffffffffffffffffffffffffffffffffffffffff1673ffffffffffffffffffffffffffffffffffffffff167f8be0079c531659141344cd1fd0a4f28419497f9722a3daafe3b4186f6b6457e060405160405180910390a36000600560006101000a81548173ffffffffffffffffffffffffffffffffffffffff021916908373ffffffffffffffffffffffffffffffffffffffff160217905550565b6109b3610ba3565b15156109be57600080fd5b8081600760006101000a81548173ffffffffffffffffffffffffffffffffffffffff021916908373ffffffffffffffffffffffffffffffffffffffff1602179055505050565b6000600560009054906101000a900473ffffffffffffffffffffffffffffffffffffffff16905090565b610a36611ee1565b60068260ff16815481101515610a4857fe5b9060005260206000209060020201608060405190810160405290816000820160009054906101000a900460ff1660ff1660ff1681526020016000820160019054906101000a900460ff166012811115610a9d57fe5b6012811115610aa857fe5b81526020016000820160029054906101000a900460ff166012811115610aca57fe5b6012811115610ad557fe5b81526020016001820160c060405190810160405290816000820160009054906101000a900460ff1660ff1660ff1681526020016000820160019054906101000a900460ff1660ff1660ff1681526020016000820160029054906101000a900460ff1660ff1660ff1681526020016000820160039054906101000a900460ff1660ff1660ff1681526020016000820160049054906101000a900460ff1660ff1660ff1681526020016000820160059054906101000a900460ff1660ff1660ff1681525050815250509050919050565b6000600560009054906101000a900473ffffffffffffffffffffffffffffffffffffffff1673ffffffffffffffffffffffffffffffffffffffff163373ffffffffffffffffffffffffffffffffffffffff1614905090565b610c03611f2a565b600860008360ff16815260200190815260200160002060a060405190810160405290816000820160009054906101000a900460ff1660ff1660ff1681526020016000820160019054906101000a900460ff166002811115610c6057fe5b6002811115610c6b57fe5b81526020016000820160029054906101000a900460ff161515151581526020016001820160c060405190810160405290816000820160009054906101000a900460ff1660ff1660ff1681526020016000820160019054906101000a900460ff1660ff1660ff1681526020016000820160029054906101000a900460ff1660ff1660ff1681526020016000820160039054906101000a900460ff1660ff1660ff1681526020016000820160049054906101000a900460ff1660ff1660ff1681526020016000820160059054906101000a900460ff1660ff1660ff168152505081526020016002820160c060405190810160405290816000820160009054906101000a900460ff1660ff1660ff1681526020016000820160019054906101000a900460ff1660ff1660ff1681526020016000820160029054906101000a900460ff1660ff1660ff1681526020016000820160039054906101000a900460ff1660ff1660ff1681526020016000820160049054906101000a900460ff1660ff1660ff1681526020016000820160059054906101000a900460ff1660ff1660ff1681525050815250509050919050565b3373ffffffffffffffffffffffffffffffffffffffff168273ffffffffffffffffffffffffffffffffffffffff1614151515610e5257600080fd5b80600460003373ffffffffffffffffffffffffffffffffffffffff1673ffffffffffffffffffffffffffffffffffffffff16815260200190815260200160002060008473ffffffffffffffffffffffffffffffffffffffff1673ffffffffffffffffffffffffffffffffffffffff16815260200190815260200160002060006101000a81548160ff0219169083151502179055508173ffffffffffffffffffffffffffffffffffffffff163373ffffffffffffffffffffffffffffffffffffffff167f17307eab39ab6107e8899845ad3d59bd9653f200f220920489ca2b5937696c3183604051610f4391906125a5565b60405180910390a35050565b610f5a848484610726565b610f6684848484611558565b1515610f7157600080fd5b50505050565b6000600460008473ffffffffffffffffffffffffffffffffffffffff1673ffffffffffffffffffffffffffffffffffffffff16815260200190815260200160002060008373ffffffffffffffffffffffffffffffffffffffff1673ffffffffffffffffffffffffffffffffffffffff16815260200190815260200160002060009054906101000a900460ff16905092915050565b611013610ba3565b151561101e57600080fd5b611027816116a9565b50565b6000806001600084815260200190815260200160002060009054906101000a900473ffffffffffffffffffffffffffffffffffffffff169050600073ffffffffffffffffffffffffffffffffffffffff168173ffffffffffffffffffffffffffffffffffffffff161415915050919050565b6110a660096117a5565b6110b9336110b4600961154a565b6117bb565b6110c1611905565b600860006110cf600961154a565b815260200190815260200160002060008201518160000160006101000a81548160ff021916908360ff16021790555060208201518160000160016101000a81548160ff0219169083600281111561112257fe5b021790555060408201518160000160026101000a81548160ff02191690831515021790555060608201518160010160008201518160000160006101000a81548160ff021916908360ff16021790555060208201518160000160016101000a81548160ff021916908360ff16021790555060408201518160000160026101000a81548160ff021916908360ff16021790555060608201518160000160036101000a81548160ff021916908360ff16021790555060808201518160000160046101000a81548160ff021916908360ff16021790555060a08201518160000160056101000a81548160ff021916908360ff160217905550505060808201518160020160008201518160000160006101000a81548160ff021916908360ff16021790555060208201518160000160016101000a81548160ff021916908360ff16021790555060408201518160000160026101000a81548160ff021916908360ff16021790555060608201518160000160036101000a81548160ff021916908360ff16021790555060808201518160000160046101000a81548160ff021916908360ff16021790555060a08201518160000160056101000a81548160ff021916908360ff1602179055505050905050565b6000806112fa836107ce565b90508073ffffffffffffffffffffffffffffffffffffffff168473ffffffffffffffffffffffffffffffffffffffff16148061136957508373ffffffffffffffffffffffffffffffffffffffff166113518461053b565b73ffffffffffffffffffffffffffffffffffffffff16145b8061137a57506113798185610f77565b5b91505092915050565b8273ffffffffffffffffffffffffffffffffffffffff166113a3826107ce565b73ffffffffffffffffffffffffffffffffffffffff161415156113c557600080fd5b600073ffffffffffffffffffffffffffffffffffffffff168273ffffffffffffffffffffffffffffffffffffffff161415151561140157600080fd5b61140a81611d83565b611451600360008573ffffffffffffffffffffffffffffffffffffffff1673ffffffffffffffffffffffffffffffffffffffff168152602001908152602001600020611e43565b611498600360008473ffffffffffffffffffffffffffffffffffffffff1673ffffffffffffffffffffffffffffffffffffffff1681526020019081526020016000206117a5565b816001600083815260200190815260200160002060006101000a81548173ffffffffffffffffffffffffffffffffffffffff021916908373ffffffffffffffffffffffffffffffffffffffff160217905550808273ffffffffffffffffffffffffffffffffffffffff168473ffffffffffffffffffffffffffffffffffffffff167fddf252ad1be2c89b69c2b068fc378daa952ba7f163c4a11628f55a4df523b3ef60405160405180910390a4505050565b600081600001549050919050565b60006115798473ffffffffffffffffffffffffffffffffffffffff16611e66565b151561158857600190506116a1565b60008473ffffffffffffffffffffffffffffffffffffffff1663150b7a02338887876040518563ffffffff167c01000000000000000000000000000000000000000000000000000000000281526004016115e59493929190612559565b602060405180830381600087803b1580156115ff57600080fd5b505af1158015611613573d6000803e3d6000fd5b505050506040513d601f19601f82011682018060405250611637919081019061225e565b905063150b7a027c0100000000000000000000000000000000000000000000000000000000027bffffffffffffffffffffffffffffffffffffffffffffffffffffffff1916817bffffffffffffffffffffffffffffffffffffffffffffffffffffffff1916149150505b949350505050565b600073ffffffffffffffffffffffffffffffffffffffff168173ffffffffffffffffffffffffffffffffffffffff16141515156116e557600080fd5b8073ffffffffffffffffffffffffffffffffffffffff16600560009054906101000a900473ffffffffffffffffffffffffffffffffffffffff1673ffffffffffffffffffffffffffffffffffffffff167f8be0079c531659141344cd1fd0a4f28419497f9722a3daafe3b4186f6b6457e060405160405180910390a380600560006101000a81548173ffffffffffffffffffffffffffffffffffffffff021916908373ffffffffffffffffffffffffffffffffffffffff16021790555050565b6001816000016000828254019250508190555050565b600073ffffffffffffffffffffffffffffffffffffffff168273ffffffffffffffffffffffffffffffffffffffff16141515156117f757600080fd5b6118008161102a565b15151561180c57600080fd5b816001600083815260200190815260200160002060006101000a81548173ffffffffffffffffffffffffffffffffffffffff021916908373ffffffffffffffffffffffffffffffffffffffff1602179055506118a5600360008473ffffffffffffffffffffffffffffffffffffffff1673ffffffffffffffffffffffffffffffffffffffff1681526020019081526020016000206117a5565b808273ffffffffffffffffffffffffffffffffffffffff16600073ffffffffffffffffffffffffffffffffffffffff167fddf252ad1be2c89b69c2b068fc378daa952ba7f163c4a11628f55a4df523b3ef60405160405180910390a45050565b61190d611f2a565b6000424460405160200180838152602001828152602001925050506040516020818303038152906040528051906020012090505b60016006805490500360ff6001028216600190041115611989578060405160200180828152602001915050604051602081830303815290604052805190602001209050611941565b6000600160ff60010283166001900401905060006001610100806001028516600190048115156119b557fe5b0460ff161490506000610200613e006001028516600190048115156119d657fe5b04905060006140006207c0006001028616600190048115156119f457fe5b04905060006208000062f80000600102871660019004811515611a1357fe5b04905060006301000000631f000000600102881660019004811515611a3457fe5b049050600063200000006403e0000000600102891660019004811515611a5657fe5b0490506000640400000000647c000000006001028a1660019004811515611a7957fe5b0490506000806480000000006601ff80000000006001028c1660019004811515611a9f57fe5b0460ff16149050611aae611ee1565b600660018b0160ff16815481101515611ac357fe5b9060005260206000209060020201608060405190810160405290816000820160009054906101000a900460ff1660ff1660ff1681526020016000820160019054906101000a900460ff166012811115611b1857fe5b6012811115611b2357fe5b81526020016000820160029054906101000a900460ff166012811115611b4557fe5b6012811115611b5057fe5b81526020016001820160c060405190810160405290816000820160009054906101000a900460ff1660ff1660ff1681526020016000820160019054906101000a900460ff1660ff1660ff1681526020016000820160029054906101000a900460ff1660ff1660ff1681526020016000820160039054906101000a900460ff1660ff1660ff1681526020016000820160049054906101000a900460ff1660ff1660ff1681526020016000820160059054906101000a900460ff1660ff1660ff168152505081525050905060a0604051908101604052808b60ff1681526020018a611c3a576001611c3d565b60005b6002811115611c4857fe5b8152602001831515815260200160c0604051908101604052808b60ff1681526020018a60ff1681526020018960ff1681526020018860ff1681526020018760ff1681526020018660ff16815250815260200160c060405190810160405280611cc085606001516000015160ff168d60ff166064611e79565b60ff168152602001611ce285606001516020015160ff168c60ff166064611e9d565b60ff168152602001611d0485606001516040015160ff168b60ff166064611e9d565b60ff168152602001611d2685606001516060015160ff168a60ff166064611e9d565b60ff168152602001611d4885606001516080015160ff168960ff166064611e9d565b60ff168152602001611d6a856060015160a0015160ff168860ff166064611e9d565b60ff168152508152509b50505050505050505050505090565b600073ffffffffffffffffffffffffffffffffffffffff166002600083815260200190815260200160002060009054906101000a900473ffffffffffffffffffffffffffffffffffffffff1673ffffffffffffffffffffffffffffffffffffffff16141515611e405760006002600083815260200190815260200160002060006101000a81548173ffffffffffffffffffffffffffffffffffffffff021916908373ffffffffffffffffffffffffffffffffffffffff1602179055505b50565b611e5b60018260000154611ebf90919063ffffffff16565b816000018190555050565b600080823b905060008111915050919050565b600060648260028587010202811515611e8e57fe5b04600a83010190509392505050565b600060648260028587010202811515611eb257fe5b0460050190509392505050565b6000828211151515611ed057600080fd5b600082840390508091505092915050565b61012060405190810160405280600060ff16815260200160006012811115611f0557fe5b815260200160006012811115611f1757fe5b8152602001611f24611f77565b81525090565b6101e060405190810160405280600060ff16815260200160006002811115611f4e57fe5b8152602001600015158152602001611f64611f77565b8152602001611f71611f77565b81525090565b60c060405190810160405280600060ff168152602001600060ff168152602001600060ff168152602001600060ff168152602001600060ff168152602001600060ff1681525090565b6000611fcc8235612718565b905092915050565b6000611fe0823561272a565b905092915050565b6000611ff48235612736565b905092915050565b60006120088251612736565b905092915050565b600082601f830112151561202357600080fd5b813561203661203182612660565b612633565b9150808252602083016020830185838301111561205257600080fd5b61205d8382846127d3565b50505092915050565b60006120728235612762565b905092915050565b6000612086823561276c565b905092915050565b6000602082840312156120a057600080fd5b60006120ae84828501611fc0565b91505092915050565b600080604083850312156120ca57600080fd5b60006120d885828601611fc0565b92505060206120e985828601611fc0565b9150509250929050565b60008060006060848603121561210857600080fd5b600061211686828701611fc0565b935050602061212786828701611fc0565b925050604061213886828701612066565b9150509250925092565b6000806000806080858703121561215857600080fd5b600061216687828801611fc0565b945050602061217787828801611fc0565b935050604061218887828801612066565b925050606085013567ffffffffffffffff8111156121a557600080fd5b6121b187828801612010565b91505092959194509250565b600080604083850312156121d057600080fd5b60006121de85828601611fc0565b92505060206121ef85828601611fd4565b9150509250929050565b6000806040838503121561220c57600080fd5b600061221a85828601611fc0565b925050602061222b85828601612066565b9150509250929050565b60006020828403121561224757600080fd5b600061225584828501611fe8565b91505092915050565b60006020828403121561227057600080fd5b600061227e84828501611ffc565b91505092915050565b60006020828403121561229957600080fd5b60006122a784828501612066565b91505092915050565b600080604083850312156122c357600080fd5b60006122d185828601612066565b925050602083013567ffffffffffffffff8111156122ee57600080fd5b6122fa85828601612010565b9150509250929050565b60006020828403121561231657600080fd5b60006123248482850161207a565b91505092915050565b61233681612779565b82525050565b61234581612697565b82525050565b612354816126a9565b82525050565b60006123658261268c565b8084526123798160208601602086016127e2565b61238281612815565b602085010191505092915050565b6123998161278b565b82525050565b6123a88161279d565b82525050565b6000601f82527f5061796d656e74206d7573742062652043727970746f4d6f6e2076616c7565006020830152604082019050919050565b610120820160008201516123fc600085018261252f565b50602082015161240f602085018261239f565b506040820151612422604085018261239f565b50606082015161243560608501826124a5565b50505050565b6101e082016000820151612452600085018261252f565b5060208201516124656020850182612390565b506040820151612478604085018261234b565b50606082015161248b60608501826124a5565b50608082015161249f6101208501826124a5565b50505050565b60c0820160008201516124bb600085018261252f565b5060208201516124ce602085018261252f565b5060408201516124e1604085018261252f565b5060608201516124f4606085018261252f565b506080820151612507608085018261252f565b5060a082015161251a60a085018261252f565b50505050565b61252981612701565b82525050565b6125388161270b565b82525050565b6000602082019050612553600083018461233c565b92915050565b600060808201905061256e600083018761232d565b61257b602083018661233c565b6125886040830185612520565b818103606083015261259a818461235a565b905095945050505050565b60006020820190506125ba600083018461234b565b92915050565b600060208201905081810360008301526125d9816123ae565b9050919050565b6000610120820190506125f660008301846123e5565b92915050565b60006101e082019050612612600083018461243b565b92915050565b600060208201905061262d6000830184612520565b92915050565b6000604051905081810181811067ffffffffffffffff8211171561265657600080fd5b8060405250919050565b600067ffffffffffffffff82111561267757600080fd5b601f19601f8301169050602081019050919050565b600081519050919050565b60006126a2826126e1565b9050919050565b60008115159050919050565b60006003821015156126c357fe5b819050919050565b60006013821015156126d957fe5b819050919050565b600073ffffffffffffffffffffffffffffffffffffffff82169050919050565b6000819050919050565b600060ff82169050919050565b6000612723826126e1565b9050919050565b60008115159050919050565b60007fffffffff0000000000000000000000000000000000000000000000000000000082169050919050565b6000819050919050565b600060ff82169050919050565b6000612784826127af565b9050919050565b6000612796826126b5565b9050919050565b60006127a8826126cb565b9050919050565b60006127ba826127c1565b9050919050565b60006127cc826126e1565b9050919050565b82818337600083830152505050565b60005b838110156128005780820151818401526020810190506127e5565b8381111561280f576000848401525b50505050565b6000601f19601f830116905091905056fea265627a7a723058206c2a6ec8ab2112ec1756ff4bacc1791cbedd5745823092155ced57984b3fabf46c6578706572696d656e74616cf50037",
  "source": "pragma solidity ^0.5.2;\npragma experimental ABIEncoderV2;\n\nimport 'openzeppelin-solidity/contracts/token/ERC721/ERC721.sol';\nimport 'openzeppelin-solidity/contracts/ownership/Ownable.sol';\nimport \"openzeppelin-solidity/contracts/drafts/Counters.sol\";\nimport \"../Libraries/Pokedex.sol\";\n\ncontract CryptoMons is ERC721, Ownable, Pokedex {\n\n    using Counters for Counters.Counter;\n\n    address plasma;\n    mapping (uint256 => Pokemon) cryptomons;\n\n    uint256 constant CRYPTOMON_VALUE = 0.001 ether;\n    Counters.Counter tokenCount;\n\n    modifier CMPayment() {\n        require(msg.value == CRYPTOMON_VALUE, \"Payment must be CryptoMon value\");\n        _;\n    }\n\n    modifier isERC721Receiver(address to) {\n        // require(_checkOnERC721Received(address(0), to, 0, \"\"), \"Plasma must be an ERC721Receiver implementer\");\n        _;\n    }\n\n    constructor (address _plasma) public isERC721Receiver(_plasma) {\n        plasma = _plasma;\n    }\n\n    function changePlasma(address newPlasma) public onlyOwner isERC721Receiver(newPlasma) {\n        plasma = newPlasma;\n    }\n\n    function buyCryptoMon() external payable CMPayment {\n        create();\n    }\n\n    function depositToPlasmaWithData(uint tokenId, bytes memory _data) public {\n        safeTransferFrom(msg.sender, plasma, tokenId, _data);\n    }\n\n    function depositToPlasma(uint tokenId) public {\n        safeTransferFrom(msg.sender, plasma, tokenId);\n    }\n\n    function create() private {\n        tokenCount.increment();\n        _mint(msg.sender, tokenCount.current());\n        cryptomons[tokenCount.current()] = generateNewPokemon();\n    }\n\n    function getCryptomon(uint8 id) public view returns (Pokemon memory) {\n        return cryptomons[id];\n    }\n\n}\n",
  "sourcePath": "/Users/epord/Desktop/PF/Plasma-Cash-RootChain/contracts/Core/CryptoMons.sol",
  "compiler": {
    "name": "solc",
    "version": "0.5.2+commit.1df8f40c.Emscripten.clang"
  },
  "schemaVersion": "3.0.0",
  "updatedAt": "2019-10-18T20:11:02.283Z",
  "devdoc": {
    "methods": {
      "approve(address,uint256)": {
        "details": "Approves another address to transfer the given token ID The zero address indicates there is no approved address. There can only be one approved address per token at a given time. Can only be called by the token owner or an approved operator.",
        "params": {
          "to": "address to be approved for the given token ID",
          "tokenId": "uint256 ID of the token to be approved"
        }
      },
      "balanceOf(address)": {
        "details": "Gets the balance of the specified address",
        "params": {
          "owner": "address to query the balance of"
        },
        "return": "uint256 representing the amount owned by the passed address"
      },
      "getApproved(uint256)": {
        "details": "Gets the approved address for a token ID, or zero if no address set Reverts if the token ID does not exist.",
        "params": {
          "tokenId": "uint256 ID of the token to query the approval of"
        },
        "return": "address currently approved for the given token ID"
      },
      "isApprovedForAll(address,address)": {
        "details": "Tells whether an operator is approved by a given owner",
        "params": {
          "operator": "operator address which you want to query the approval of",
          "owner": "owner address which you want to query the approval of"
        },
        "return": "bool whether the given operator is approved by the given owner"
      },
      "isOwner()": {
        "return": "true if `msg.sender` is the owner of the contract."
      },
      "owner()": {
        "return": "the address of the owner."
      },
      "ownerOf(uint256)": {
        "details": "Gets the owner of the specified token ID",
        "params": {
          "tokenId": "uint256 ID of the token to query the owner of"
        },
        "return": "address currently marked as the owner of the given token ID"
      },
      "renounceOwnership()": {
        "details": "Allows the current owner to relinquish control of the contract. It will not be possible to call the functions with the `onlyOwner` modifier anymore."
      },
      "safeTransferFrom(address,address,uint256)": {
        "details": "Safely transfers the ownership of a given token ID to another address If the target address is a contract, it must implement `onERC721Received`, which is called upon a safe transfer, and return the magic value `bytes4(keccak256(\"onERC721Received(address,address,uint256,bytes)\"))`; otherwise, the transfer is reverted. Requires the msg.sender to be the owner, approved, or operator",
        "params": {
          "from": "current owner of the token",
          "to": "address to receive the ownership of the given token ID",
          "tokenId": "uint256 ID of the token to be transferred"
        }
      },
      "safeTransferFrom(address,address,uint256,bytes)": {
        "details": "Safely transfers the ownership of a given token ID to another address If the target address is a contract, it must implement `onERC721Received`, which is called upon a safe transfer, and return the magic value `bytes4(keccak256(\"onERC721Received(address,address,uint256,bytes)\"))`; otherwise, the transfer is reverted. Requires the msg.sender to be the owner, approved, or operator",
        "params": {
          "_data": "bytes data to send along with a safe transfer check",
          "from": "current owner of the token",
          "to": "address to receive the ownership of the given token ID",
          "tokenId": "uint256 ID of the token to be transferred"
        }
      },
      "setApprovalForAll(address,bool)": {
        "details": "Sets or unsets the approval of a given operator An operator is allowed to transfer all tokens of the sender on their behalf",
        "params": {
          "approved": "representing the status of the approval to be set",
          "to": "operator address to set the approval"
        }
      },
      "supportsInterface(bytes4)": {
        "details": "implement supportsInterface(bytes4) using a lookup table"
      },
      "transferFrom(address,address,uint256)": {
        "details": "Transfers the ownership of a given token ID to another address Usage of this method is discouraged, use `safeTransferFrom` whenever possible Requires the msg.sender to be the owner, approved, or operator",
        "params": {
          "from": "current owner of the token",
          "to": "address to receive the ownership of the given token ID",
          "tokenId": "uint256 ID of the token to be transferred"
        }
      },
      "transferOwnership(address)": {
        "details": "Allows the current owner to transfer control of the contract to a newOwner.",
        "params": {
          "newOwner": "The address to transfer ownership to."
        }
      }
    }
  },
  "userdoc": {
    "methods": {
      "renounceOwnership()": {
        "notice": "Renouncing ownership will leave the contract without an owner, thereby removing any functionality that is only available to the owner."
      }
    }
  }
}