{
  "contractName": "CryptoMonBattles",
  "abi": [
    {
      "constant": false,
      "inputs": [],
      "name": "renounceOwnership",
      "outputs": [],
      "payable": false,
      "stateMutability": "nonpayable",
      "type": "function"
    },
    {
      "constant": true,
      "inputs": [],
      "name": "owner",
      "outputs": [
        {
          "name": "",
          "type": "address"
        }
      ],
      "payable": false,
      "stateMutability": "view",
      "type": "function"
    },
    {
      "constant": true,
      "inputs": [],
      "name": "isOwner",
      "outputs": [
        {
          "name": "",
          "type": "bool"
        }
      ],
      "payable": false,
      "stateMutability": "view",
      "type": "function"
    },
    {
      "constant": false,
      "inputs": [
        {
          "name": "newOwner",
          "type": "address"
        }
      ],
      "name": "transferOwnership",
      "outputs": [],
      "payable": false,
      "stateMutability": "nonpayable",
      "type": "function"
    },
    {
      "constant": true,
      "inputs": [
        {
          "name": "",
          "type": "address"
        }
      ],
      "name": "validators",
      "outputs": [
        {
          "name": "",
          "type": "bool"
        }
      ],
      "payable": false,
      "stateMutability": "view",
      "type": "function"
    },
    {
      "inputs": [
        {
          "name": "_plasma",
          "type": "address"
        },
        {
          "name": "_cryptomons",
          "type": "address"
        }
      ],
      "payable": false,
      "stateMutability": "nonpayable",
      "type": "constructor"
    },
    {
      "anonymous": false,
      "inputs": [
        {
          "indexed": true,
          "name": "gameId",
          "type": "uint256"
        },
        {
          "indexed": true,
          "name": "player",
          "type": "address"
        },
        {
          "indexed": true,
          "name": "CryptoMon",
          "type": "uint256"
        }
      ],
      "name": "CryptoMonBattleRequested",
      "type": "event"
    },
    {
      "anonymous": false,
      "inputs": [
        {
          "indexed": true,
          "name": "gameId",
          "type": "uint256"
        },
        {
          "indexed": true,
          "name": "player",
          "type": "address"
        },
        {
          "indexed": true,
          "name": "CryptoMon",
          "type": "uint256"
        }
      ],
      "name": "CryptoMonBattleStarted",
      "type": "event"
    },
    {
      "anonymous": false,
      "inputs": [
        {
          "indexed": true,
          "name": "previousOwner",
          "type": "address"
        },
        {
          "indexed": true,
          "name": "newOwner",
          "type": "address"
        }
      ],
      "name": "OwnershipTransferred",
      "type": "event"
    },
    {
      "constant": true,
      "inputs": [
        {
          "name": "state",
          "type": "bytes"
        }
      ],
      "name": "validateStartState",
      "outputs": [],
      "payable": false,
      "stateMutability": "view",
      "type": "function"
    },
    {
      "constant": true,
      "inputs": [
        {
          "name": "oldState",
          "type": "bytes"
        },
        {
          "name": "turnNum",
          "type": "uint256"
        },
        {
          "name": "newState",
          "type": "bytes"
        }
      ],
      "name": "validateTurnTransition",
      "outputs": [],
      "payable": false,
      "stateMutability": "view",
      "type": "function"
    },
    {
      "constant": true,
      "inputs": [
        {
          "name": "startState",
          "type": "bytes"
        },
        {
          "name": "firstTurn",
          "type": "bytes"
        }
      ],
      "name": "validateInitialTransition",
      "outputs": [],
      "payable": false,
      "stateMutability": "pure",
      "type": "function"
    },
    {
      "constant": true,
      "inputs": [
        {
          "name": "state",
          "type": "bytes"
        },
        {
          "name": "turnNum",
          "type": "uint256"
        },
        {
          "name": "player",
          "type": "address"
        },
        {
          "name": "opponent",
          "type": "address"
        }
      ],
      "name": "winner",
      "outputs": [
        {
          "name": "",
          "type": "address"
        }
      ],
      "payable": false,
      "stateMutability": "pure",
      "type": "function"
    },
    {
      "constant": true,
      "inputs": [
        {
          "name": "state",
          "type": "bytes"
        },
        {
          "name": "",
          "type": "uint256"
        }
      ],
      "name": "isOver",
      "outputs": [
        {
          "name": "",
          "type": "bool"
        }
      ],
      "payable": false,
      "stateMutability": "pure",
      "type": "function"
    },
    {
      "constant": true,
      "inputs": [
        {
          "name": "",
          "type": "bytes"
        },
        {
          "name": "turnNum",
          "type": "uint256"
        },
        {
          "name": "player",
          "type": "address"
        },
        {
          "name": "opponent",
          "type": "address"
        }
      ],
      "name": "mover",
      "outputs": [
        {
          "name": "",
          "type": "address"
        }
      ],
      "payable": false,
      "stateMutability": "pure",
      "type": "function"
    },
    {
      "constant": true,
      "inputs": [
        {
          "name": "plasmaID",
          "type": "uint256"
        }
      ],
      "name": "getCryptoMon",
      "outputs": [
        {
          "components": [
            {
              "name": "id",
              "type": "uint8"
            },
            {
              "name": "gender",
              "type": "uint8"
            },
            {
              "name": "isShiny",
              "type": "bool"
            },
            {
              "components": [
                {
                  "name": "hp",
                  "type": "uint16"
                },
                {
                  "name": "atk",
                  "type": "uint16"
                },
                {
                  "name": "def",
                  "type": "uint16"
                },
                {
                  "name": "spAtk",
                  "type": "uint16"
                },
                {
                  "name": "spDef",
                  "type": "uint16"
                },
                {
                  "name": "speed",
                  "type": "uint16"
                }
              ],
              "name": "IVs",
              "type": "tuple"
            },
            {
              "components": [
                {
                  "name": "hp",
                  "type": "uint16"
                },
                {
                  "name": "atk",
                  "type": "uint16"
                },
                {
                  "name": "def",
                  "type": "uint16"
                },
                {
                  "name": "spAtk",
                  "type": "uint16"
                },
                {
                  "name": "spDef",
                  "type": "uint16"
                },
                {
                  "name": "speed",
                  "type": "uint16"
                }
              ],
              "name": "stats",
              "type": "tuple"
            }
          ],
          "name": "",
          "type": "tuple"
        }
      ],
      "payable": false,
      "stateMutability": "view",
      "type": "function"
    },
    {
      "constant": false,
      "inputs": [
        {
          "name": "gameId",
          "type": "uint256"
        },
        {
          "name": "state",
          "type": "bytes"
        },
        {
          "name": "player",
          "type": "address"
        },
        {
          "name": "opponent",
          "type": "address"
        }
      ],
      "name": "eventRequestState",
      "outputs": [],
      "payable": false,
      "stateMutability": "nonpayable",
      "type": "function"
    },
    {
      "constant": false,
      "inputs": [
        {
          "name": "gameId",
          "type": "uint256"
        },
        {
          "name": "state",
          "type": "bytes"
        },
        {
          "name": "player",
          "type": "address"
        },
        {
          "name": "opponent",
          "type": "address"
        }
      ],
      "name": "eventStartState",
      "outputs": [],
      "payable": false,
      "stateMutability": "nonpayable",
      "type": "function"
    },
    {
      "constant": false,
      "inputs": [
        {
          "name": "_address",
          "type": "address"
        },
        {
          "name": "value",
          "type": "bool"
        }
      ],
      "name": "setValidator",
      "outputs": [],
      "payable": false,
      "stateMutability": "nonpayable",
      "type": "function"
    }
  ],
  "bytecode": "0x60806040523480156200001157600080fd5b50604051604080620098bd8339810180604052620000339190810190620001a5565b336000806101000a81548173ffffffffffffffffffffffffffffffffffffffff021916908373ffffffffffffffffffffffffffffffffffffffff1602179055506000809054906101000a900473ffffffffffffffffffffffffffffffffffffffff1673ffffffffffffffffffffffffffffffffffffffff16600073ffffffffffffffffffffffffffffffffffffffff167f8be0079c531659141344cd1fd0a4f28419497f9722a3daafe3b4186f6b6457e060405160405180910390a381600160006101000a81548173ffffffffffffffffffffffffffffffffffffffff021916908373ffffffffffffffffffffffffffffffffffffffff16021790555080600260006101000a81548173ffffffffffffffffffffffffffffffffffffffff021916908373ffffffffffffffffffffffffffffffffffffffff160217905550505062000256565b60006200018782516200022e565b905092915050565b60006200019d825162000242565b905092915050565b60008060408385031215620001b957600080fd5b6000620001c9858286016200018f565b9250506020620001dc8582860162000179565b9150509250929050565b6000620001f3826200020e565b9050919050565b600062000207826200020e565b9050919050565b600073ffffffffffffffffffffffffffffffffffffffff82169050919050565b60006200023b82620001e6565b9050919050565b60006200024f82620001fa565b9050919050565b61965780620002666000396000f3fe608060405234801561001057600080fd5b5060043610610112576000357c0100000000000000000000000000000000000000000000000000000000900480638f32d59b116100b4578063ca62b96e11610083578063ca62b96e14610265578063d2f6722c14610295578063f2fde38b146102c5578063fa52c7d8146102e157610112565b80638f32d59b146101df5780639608d1d3146101fd578063afb531c11461022d578063be8290e21461024957610112565b8063715018a6116100f0578063715018a61461016b578063748eaa74146101755780638cfd80d8146101a55780638da5cb5b146101c157610112565b806308487b521461011757806332a4b4eb146101335780634623c91d1461014f575b600080fd5b610131600480360361012c9190810190617b26565b610311565b005b61014d60048036036101489190810190617d9e565b61083a565b005b61016960048036036101649190810190617ac1565b6109d2565b005b610173610a40565b005b61018f600480360361018a9190810190617d75565b610b12565b60405161019c91906193f3565b60405180910390f35b6101bf60048036036101ba9190810190617ca2565b610d06565b005b6101c9610d61565b6040516101d69190618d42565b60405180910390f35b6101e7610d8a565b6040516101f49190618d5d565b60405180910390f35b61021760048036036102129190810190617c27565b610de1565b6040516102249190618d42565b60405180910390f35b61024760048036036102429190810190617d9e565b610ed5565b005b610263600480360361025e9190810190617b67565b61106d565b005b61027f600480360361027a9190810190617c27565b6111c0565b60405161028c9190618d42565b60405180910390f35b6102af60048036036102aa9190810190617bd3565b6111e7565b6040516102bc9190618d5d565b60405180910390f35b6102df60048036036102da9190810190617a98565b611278565b005b6102fb60048036036102f69190810190617a98565b611297565b6040516103089190618d5d565b60405180910390f35b606061032461031f836112b7565b6112e5565b905060016009600f81111561033557fe5b01815114151561037a576040517f08c379a000000000000000000000000000000000000000000000000000000000815260040161037190618f13565b60405180910390fd5b610382617536565b6103b66103b1836000600f81111561039657fe5b8151811015156103a257fe5b906020019060200201516113f8565b610b12565b90506000816000015160ff16111515610404576040517f08c379a00000000000000000000000000000000000000000000000000000000081526004016103fb906193d3565b60405180910390fd5b80608001516000015161ffff1661043d836001600f81111561042257fe5b81518110151561042e57fe5b906020019060200201516113f8565b14151561047f576040517f08c379a000000000000000000000000000000000000000000000000000000000815260040161047690618eb3565b60405180910390fd5b600015156104af836002600f81111561049457fe5b8151811015156104a057fe5b906020019060200201516114a1565b15151415156104f3576040517f08c379a00000000000000000000000000000000000000000000000000000000081526004016104ea906191b3565b60405180910390fd5b60001515610523836003600f81111561050857fe5b81518110151561051457fe5b906020019060200201516114a1565b1515141515610567576040517f08c379a000000000000000000000000000000000000000000000000000000000815260040161055e90619253565b60405180910390fd5b6001610595836004600f81111561057a57fe5b81518110151561058657fe5b906020019060200201516113f8565b1415156105d7576040517f08c379a00000000000000000000000000000000000000000000000000000000081526004016105ce90619133565b60405180910390fd5b6105df617536565b61061361060e846005600f8111156105f357fe5b8151811015156105ff57fe5b906020019060200201516113f8565b610b12565b90506000816000015160ff16111515610661576040517f08c379a0000000000000000000000000000000000000000000000000000000008152600401610658906193d3565b60405180910390fd5b80608001516000015161ffff1661069a846006600f81111561067f57fe5b81518110151561068b57fe5b906020019060200201516113f8565b1415156106dc576040517f08c379a00000000000000000000000000000000000000000000000000000000081526004016106d390619373565b60405180910390fd5b6000151561070c846007600f8111156106f157fe5b8151811015156106fd57fe5b906020019060200201516114a1565b1515141515610750576040517f08c379a000000000000000000000000000000000000000000000000000000000815260040161074790619113565b60405180910390fd5b60001515610780846008600f81111561076557fe5b81518110151561077157fe5b906020019060200201516114a1565b15151415156107c4576040517f08c379a00000000000000000000000000000000000000000000000000000000081526004016107bb90618ed3565b60405180910390fd5b60016107f2846009600f8111156107d757fe5b8151811015156107e357fe5b906020019060200201516113f8565b141515610834576040517f08c379a000000000000000000000000000000000000000000000000000000000815260040161082b90619353565b60405180910390fd5b50505050565b33600360008273ffffffffffffffffffffffffffffffffffffffff1673ffffffffffffffffffffffffffffffffffffffff16815260200190815260200160002060009054906101000a900460ff1615156108c9576040517f08c379a00000000000000000000000000000000000000000000000000000000081526004016108c090618ff3565b60405180910390fd5b60606108dc6108d7866112b7565b6112e5565b9050600061090c826000600f8111156108f157fe5b8151811015156108fd57fe5b906020019060200201516113f8565b9050600061093c836005600f81111561092157fe5b81518110151561092d57fe5b906020019060200201516113f8565b9050818673ffffffffffffffffffffffffffffffffffffffff16897fe347f51b2c52adb2dc38a860aba042721bb546727c26d4a52d86dd4bcfb2567460405160405180910390a4808573ffffffffffffffffffffffffffffffffffffffff16897fe347f51b2c52adb2dc38a860aba042721bb546727c26d4a52d86dd4bcfb2567460405160405180910390a45050505050505050565b6109da610d8a565b15156109e557600080fd5b80600360008473ffffffffffffffffffffffffffffffffffffffff1673ffffffffffffffffffffffffffffffffffffffff16815260200190815260200160002060006101000a81548160ff0219169083151502179055505050565b610a48610d8a565b1515610a5357600080fd5b600073ffffffffffffffffffffffffffffffffffffffff166000809054906101000a900473ffffffffffffffffffffffffffffffffffffffff1673ffffffffffffffffffffffffffffffffffffffff167f8be0079c531659141344cd1fd0a4f28419497f9722a3daafe3b4186f6b6457e060405160405180910390a360008060006101000a81548173ffffffffffffffffffffffffffffffffffffffff021916908373ffffffffffffffffffffffffffffffffffffffff160217905550565b610b1a617536565b6801000000000000000082101515610b67576040517f08c379a0000000000000000000000000000000000000000000000000000000008152600401610b5e90619393565b60405180910390fd5b6000600160009054906101000a900473ffffffffffffffffffffffffffffffffffffffff1673ffffffffffffffffffffffffffffffffffffffff1663f8353cf0846040518263ffffffff167c0100000000000000000000000000000000000000000000000000000000028152600401610be0919061942a565b60a06040518083038186803b158015610bf857600080fd5b505afa158015610c0c573d6000803e3d6000fd5b505050506040513d601f19601f82011682018060405250610c309190810190617e19565b505050509050600260009054906101000a900473ffffffffffffffffffffffffffffffffffffffff1673ffffffffffffffffffffffffffffffffffffffff1663467fb1e4826040518263ffffffff167c0100000000000000000000000000000000000000000000000000000000028152600401610cad919061940f565b6101e06040518083038186803b158015610cc657600080fd5b505afa158015610cda573d6000803e3d6000fd5b505050506040513d601f19601f82011682018060405250610cfe9190810190617d4b565b915050919050565b6000821415610d1e57610d19838261106d565b610d5c565b6000600283811515610d2c57fe5b061415610d4c57610d478382610d4284866111e7565b611518565b610d5b565b610d5a83826001851461244c565b5b5b505050565b60008060009054906101000a900473ffffffffffffffffffffffffffffffffffffffff16905090565b60008060009054906101000a900473ffffffffffffffffffffffffffffffffffffffff1673ffffffffffffffffffffffffffffffffffffffff163373ffffffffffffffffffffffffffffffffffffffff1614905090565b6000610ded85856111e7565b15610ec8576060610e05610e00876112b7565b6112e5565b90506000610e35826001600f811115610e1a57fe5b815181101515610e2657fe5b906020019060200201516113f8565b90506000610e65836006600f811115610e4a57fe5b815181101515610e5657fe5b906020019060200201516113f8565b905080821115610e7a57859350505050610ecd565b81811115610e8d57849350505050610ecd565b6040517f08c379a0000000000000000000000000000000000000000000000000000000008152600401610ebf90618f73565b60405180910390fd5b600090505b949350505050565b33600360008273ffffffffffffffffffffffffffffffffffffffff1673ffffffffffffffffffffffffffffffffffffffff16815260200190815260200160002060009054906101000a900460ff161515610f64576040517f08c379a0000000000000000000000000000000000000000000000000000000008152600401610f5b90618ff3565b60405180910390fd5b6060610f77610f72866112b7565b6112e5565b90506000610fa7826000600f811115610f8c57fe5b815181101515610f9857fe5b906020019060200201516113f8565b90506000610fd7836005600f811115610fbc57fe5b815181101515610fc857fe5b906020019060200201516113f8565b9050818673ffffffffffffffffffffffffffffffffffffffff16897f503d5d704014c475b98c9861a0e457d66badaaeda096375d871241d5f456025960405160405180910390a4808573ffffffffffffffffffffffffffffffffffffffff16897f503d5d704014c475b98c9861a0e457d66badaaeda096375d871241d5f456025960405160405180910390a45050505050505050565b606061108061107b846112b7565b6112e5565b90506060611095611090846112b7565b6112e5565b905060016009600f8111156110a657fe5b0182511415156110eb576040517f08c379a00000000000000000000000000000000000000000000000000000000081526004016110e290618e13565b60405180910390fd5b6001600a600f8111156110fa57fe5b01815114151561113f576040517f08c379a000000000000000000000000000000000000000000000000000000000815260040161113690618db3565b60405180910390fd5b6111498282612b1b565b600061117782600a600f81111561115c57fe5b81518110151561116857fe5b906020019060200201516113f8565b141515156111ba576040517f08c379a00000000000000000000000000000000000000000000000000000000081526004016111b190619193565b60405180910390fd5b50505050565b6000806002858115156111cf57fe5b06146111db57816111dd565b825b9050949350505050565b600060606111fc6111f7856112b7565b6112e5565b9050600061122c826001600f81111561121157fe5b81518110151561121d57fe5b906020019060200201516113f8565b9050600061125c836006600f81111561124157fe5b81518110151561124d57fe5b906020019060200201516113f8565b9050600082148061126d5750600081145b935050505092915050565b611280610d8a565b151561128b57600080fd5b61129481613133565b50565b60036020528060005260406000206000915054906101000a900460ff1681565b6112bf617583565b600060208301905060408051908101604052808451815260200182815250915050919050565b60606112f08261322d565b1515611331576040517f08c379a000000000000000000000000000000000000000000000000000000000815260040161132890619013565b60405180910390fd5b600061133c8361327b565b90508060405190808252806020026020018201604052801561137857816020015b61136561759d565b81526020019060019003908161135d5790505b509150600061138a84602001516132ec565b8460200151019050600080600090505b838110156113ef576113ab83613375565b915060408051908101604052808381526020018481525085828151811015156113d057fe5b906020019060200201819052508183019250808060010191505061139a565b50505050919050565b600080826000015111801561141257506021826000015111155b1515611453576040517f08c379a000000000000000000000000000000000000000000000000000000000815260040161144a90619173565b60405180910390fd5b600061146283602001516132ec565b9050600081846000015103905060008083866020015101905080519150602083101561149557826020036101000a820491505b81945050505050919050565b6000600182600001511415156114ec576040517f08c379a00000000000000000000000000000000000000000000000000000000081526004016114e3906193b3565b60405180910390fd5b60008083602001519050805160001a91506000821461150c57600161150f565b60005b92505050919050565b606061152b611526856112b7565b6112e5565b9050606061154061153b856112b7565b6112e5565b905082156115a1576001600e600f81111561155757fe5b01815114151561159c576040517f08c379a000000000000000000000000000000000000000000000000000000000815260040161159390619033565b60405180910390fd5b611665565b6001600f808111156115af57fe5b0181511415156115f4576040517f08c379a00000000000000000000000000000000000000000000000000000000081526004016115eb90619033565b60405180910390fd5b600061162182600f8081111561160657fe5b81518110151561161257fe5b906020019060200201516113f8565b14151515611664576040517f08c379a000000000000000000000000000000000000000000000000000000000815260040161165b90619193565b60405180910390fd5b5b611691816000600f81111561167657fe5b81518110151561168257fe5b906020019060200201516113f8565b6116bd836000600f8111156116a257fe5b8151811015156116ae57fe5b906020019060200201516113f8565b1415156116ff576040517f08c379a00000000000000000000000000000000000000000000000000000000081526004016116f6906190b3565b60405180910390fd5b61172b816005600f81111561171057fe5b81518110151561171c57fe5b906020019060200201516113f8565b611757836005600f81111561173c57fe5b81518110151561174857fe5b906020019060200201516113f8565b141515611799576040517f08c379a0000000000000000000000000000000000000000000000000000000008152600401611790906192d3565b60405180910390fd5b6117c581600a600f8111156117aa57fe5b8151811015156117b657fe5b906020019060200201516113f8565b6117f183600a600f8111156117d657fe5b8151811015156117e257fe5b906020019060200201516113f8565b141515611833576040517f08c379a000000000000000000000000000000000000000000000000000000000815260040161182a90618df3565b60405180910390fd5b61185f81600b600f81111561184457fe5b81518110151561185057fe5b906020019060200201516113f8565b61188b83600b600f81111561187057fe5b81518110151561187c57fe5b906020019060200201516113f8565b1415156118cd576040517f08c379a00000000000000000000000000000000000000000000000000000000081526004016118c490619053565b60405180910390fd5b6118f981600c600f8111156118de57fe5b8151811015156118ea57fe5b906020019060200201516113f8565b61192583600c600f81111561190a57fe5b81518110151561191657fe5b906020019060200201516113f8565b141515611967576040517f08c379a000000000000000000000000000000000000000000000000000000000815260040161195e90618e73565b60405180910390fd5b60098081111561197357fe5b61199f82600b600f81111561198457fe5b81518110151561199057fe5b906020019060200201516113f8565b111515156119e2576040517f08c379a00000000000000000000000000000000000000000000000000000000081526004016119d990618e33565b60405180910390fd5b6009808111156119ee57fe5b611a1a82600d600f8111156119ff57fe5b815181101515611a0b57fe5b906020019060200201516113f8565b11151515611a5d576040517f08c379a0000000000000000000000000000000000000000000000000000000008152600401611a5490618f33565b60405180910390fd5b611a8981600d600f811115611a6e57fe5b815181101515611a7a57fe5b906020019060200201516113f8565b611ab582600e600f811115611a9a57fe5b815181101515611aa657fe5b906020019060200201516113f8565b604051602001808381526020018281526020019250505060405160208183030381529060405280519060200120611b0e83600a600f811115611af357fe5b815181101515611aff57fe5b906020019060200201516113f8565b600102141515611b53576040517f08c379a0000000000000000000000000000000000000000000000000000000008152600401611b4a906192f3565b60405180910390fd5b611b5b617536565b611b8f611b8a846000600f811115611b6f57fe5b815181101515611b7b57fe5b906020019060200201516113f8565b610b12565b9050611b996175b7565b600260009054906101000a900473ffffffffffffffffffffffffffffffffffffffff1673ffffffffffffffffffffffffffffffffffffffff16638ef9e13e83600001516040518263ffffffff167c0100000000000000000000000000000000000000000000000000000000028152600401611c149190619445565b6101206040518083038186803b158015611c2d57600080fd5b505afa158015611c41573d6000803e3d6000fd5b505050506040513d601f19601f82011682018060405250611c659190810190617d21565b9050611c6f617536565b611ca3611c9e866005600f811115611c8357fe5b815181101515611c8f57fe5b906020019060200201516113f8565b610b12565b9050611cad6175b7565b600260009054906101000a900473ffffffffffffffffffffffffffffffffffffffff1673ffffffffffffffffffffffffffffffffffffffff16638ef9e13e83600001516040518263ffffffff167c0100000000000000000000000000000000000000000000000000000000028152600401611d289190619445565b6101206040518083038186803b158015611d4157600080fd5b505afa158015611d55573d6000803e3d6000fd5b505050506040513d601f19601f82011682018060405250611d799190810190617d21565b9050611d83617600565b60606040519081016040528060e060405190810160405280611dc78b6001600f811115611dac57fe5b815181101515611db857fe5b906020019060200201516113f8565b8152602001611df88b6002600f811115611ddd57fe5b815181101515611de957fe5b906020019060200201516114a1565b15158152602001611e2b8b6003600f811115611e1057fe5b815181101515611e1c57fe5b906020019060200201516114a1565b15158152602001611e5e8b6004600f811115611e4357fe5b815181101515611e4f57fe5b906020019060200201516113f8565b8152602001888152602001878152602001611e9b8a600b600f811115611e8057fe5b815181101515611e8c57fe5b906020019060200201516113f8565b6009811115611ea657fe5b6009811115611eb157fe5b815250815260200160e060405190810160405280611ef18b6006600f811115611ed657fe5b815181101515611ee257fe5b906020019060200201516113f8565b8152602001611f228b6007600f811115611f0757fe5b815181101515611f1357fe5b906020019060200201516114a1565b15158152602001611f558b6008600f811115611f3a57fe5b815181101515611f4657fe5b906020019060200201516114a1565b15158152602001611f888b6009600f811115611f6d57fe5b815181101515611f7957fe5b906020019060200201516113f8565b8152602001868152602001858152602001611fc58a600d600f811115611faa57fe5b815181101515611fb657fe5b906020019060200201516113f8565b6009811115611fd057fe5b6009811115611fdb57fe5b815250815260200161200f88600c600f811115611ff457fe5b81518110151561200057fe5b906020019060200201516113f8565b61203b89600e600f81111561202057fe5b81518110151561202c57fe5b906020019060200201516113f8565b604051602001808381526020018281526020019250505060405160208183030381529060405280519060200120815250905061207681613428565b90506120a4866001600f81111561208957fe5b81518110151561209557fe5b906020019060200201516113f8565b8160000151600001511415156120ef576040517f08c379a00000000000000000000000000000000000000000000000000000000081526004016120e6906190f3565b60405180910390fd5b61211b866004600f81111561210057fe5b81518110151561210c57fe5b906020019060200201516113f8565b816000015160600151141515612166576040517f08c379a000000000000000000000000000000000000000000000000000000000815260040161215d90619293565b60405180910390fd5b612192866002600f81111561217757fe5b81518110151561218357fe5b906020019060200201516114a1565b151581600001516020015115151415156121e1576040517f08c379a00000000000000000000000000000000000000000000000000000000081526004016121d890619273565b60405180910390fd5b61220d866003600f8111156121f257fe5b8151811015156121fe57fe5b906020019060200201516114a1565b1515816000015160400151151514151561225c576040517f08c379a000000000000000000000000000000000000000000000000000000000815260040161225390618d93565b60405180910390fd5b612288866006600f81111561226d57fe5b81518110151561227957fe5b906020019060200201516113f8565b8160200151600001511415156122d3576040517f08c379a00000000000000000000000000000000000000000000000000000000081526004016122ca906190f3565b60405180910390fd5b6122ff866009600f8111156122e457fe5b8151811015156122f057fe5b906020019060200201516113f8565b81602001516060015114151561234a576040517f08c379a000000000000000000000000000000000000000000000000000000000815260040161234190619293565b60405180910390fd5b612376866007600f81111561235b57fe5b81518110151561236757fe5b906020019060200201516114a1565b151581602001516020015115151415156123c5576040517f08c379a00000000000000000000000000000000000000000000000000000000081526004016123bc90619273565b60405180910390fd5b6123f1866008600f8111156123d657fe5b8151811015156123e257fe5b906020019060200201516114a1565b15158160200151604001511515141515612440576040517f08c379a000000000000000000000000000000000000000000000000000000000815260040161243790618d93565b60405180910390fd5b50505050505050505050565b606061245f61245a856112b7565b6112e5565b9050606061247461246f856112b7565b6112e5565b905060008315612508576001600a600f81111561248d57fe5b0183511415156124d2576040517f08c379a00000000000000000000000000000000000000000000000000000000081526004016124c990618f93565b60405180910390fd5b6124fe83600a600f8111156124e357fe5b8151811015156124ef57fe5b906020019060200201516113f8565b600102905061258c565b6001600f8081111561251657fe5b01835114151561255b576040517f08c379a000000000000000000000000000000000000000000000000000000000815260040161255290618f93565b60405180910390fd5b61258683600f8081111561256b57fe5b81518110151561257757fe5b906020019060200201516113f8565b60010290505b6001600c600f81111561259b57fe5b0182511415156125e0576040517f08c379a00000000000000000000000000000000000000000000000000000000081526004016125d790619313565b60405180910390fd5b6125ea8383612b1b565b61261682600a600f8111156125fb57fe5b81518110151561260757fe5b906020019060200201516113f8565b6001028114151561265c576040517f08c379a000000000000000000000000000000000000000000000000000000000815260040161265390618e53565b60405180910390fd5b600061268a83600b600f81111561266f57fe5b81518110151561267b57fe5b906020019060200201516113f8565b905060098081111561269857fe5b81111515156126dc576040517f08c379a00000000000000000000000000000000000000000000000000000000081526004016126d390618e33565b60405180910390fd5b6126f08160098111156126eb57fe5b61358e565b15612766576000612723846004600f81111561270857fe5b81518110151561271457fe5b906020019060200201516113f8565b111515612765576040517f08c379a000000000000000000000000000000000000000000000000000000000815260040161275c906190d3565b60405180910390fd5b5b61276e617536565b6127a261279d856000600f81111561278257fe5b81518110151561278e57fe5b906020019060200201516113f8565b610b12565b90506127ac6175b7565b600260009054906101000a900473ffffffffffffffffffffffffffffffffffffffff1673ffffffffffffffffffffffffffffffffffffffff16638ef9e13e83600001516040518263ffffffff167c01000000000000000000000000000000000000000000000000000000000281526004016128279190619445565b6101206040518083038186803b15801561284057600080fd5b505afa158015612854573d6000803e3d6000fd5b505050506040513d601f19601f820116820180604052506128789190810190617d21565b905073__BattleDamageCalculator________________62fdb43784600981111561289f57fe5b6040518263ffffffff167c01000000000000000000000000000000000000000000000000000000000281526004016128d79190618d78565b60206040518083038186803b1580156128ef57600080fd5b505af4158015612903573d6000803e3d6000fd5b505050506040513d601f19601f820116820180604052506129279190810190617afd565b1561298c5760128081111561293857fe5b8160200151601281111561294857fe5b1415151561298b576040517f08c379a000000000000000000000000000000000000000000000000000000000815260040161298290619233565b60405180910390fd5b5b73__BattleDamageCalculator________________63da36f29c8460098111156129b257fe5b6040518263ffffffff167c01000000000000000000000000000000000000000000000000000000000281526004016129ea9190618d78565b60206040518083038186803b158015612a0257600080fd5b505af4158015612a16573d6000803e3d6000fd5b505050506040513d601f19601f82011682018060405250612a3a9190810190617afd565b15612a9f57601280811115612a4b57fe5b81604001516012811115612a5b57fe5b14151515612a9e576040517f08c379a0000000000000000000000000000000000000000000000000000000008152600401612a9590619233565b60405180910390fd5b5b6000612acd86600c600f811115612ab257fe5b815181101515612abe57fe5b906020019060200201516113f8565b14151515612b10576040517f08c379a0000000000000000000000000000000000000000000000000000000008152600401612b0790618ef3565b60405180910390fd5b505050505050505050565b612b47816000600f811115612b2c57fe5b815181101515612b3857fe5b906020019060200201516113f8565b612b73836000600f811115612b5857fe5b815181101515612b6457fe5b906020019060200201516113f8565b141515612bb5576040517f08c379a0000000000000000000000000000000000000000000000000000000008152600401612bac906190b3565b60405180910390fd5b612be1816001600f811115612bc657fe5b815181101515612bd257fe5b906020019060200201516113f8565b612c0d836001600f811115612bf257fe5b815181101515612bfe57fe5b906020019060200201516113f8565b141515612c4f576040517f08c379a0000000000000000000000000000000000000000000000000000000008152600401612c46906191f3565b60405180910390fd5b612c7b816002600f811115612c6057fe5b815181101515612c6c57fe5b906020019060200201516114a1565b1515612ca9836002600f811115612c8e57fe5b815181101515612c9a57fe5b906020019060200201516114a1565b1515141515612ced576040517f08c379a0000000000000000000000000000000000000000000000000000000008152600401612ce490618fd3565b60405180910390fd5b612d19816003600f811115612cfe57fe5b815181101515612d0a57fe5b906020019060200201516114a1565b1515612d47836003600f811115612d2c57fe5b815181101515612d3857fe5b906020019060200201516114a1565b1515141515612d8b576040517f08c379a0000000000000000000000000000000000000000000000000000000008152600401612d8290619213565b60405180910390fd5b612db7816004600f811115612d9c57fe5b815181101515612da857fe5b906020019060200201516113f8565b612de3836004600f811115612dc857fe5b815181101515612dd457fe5b906020019060200201516113f8565b141515612e25576040517f08c379a0000000000000000000000000000000000000000000000000000000008152600401612e1c906192b3565b60405180910390fd5b612e51816005600f811115612e3657fe5b815181101515612e4257fe5b906020019060200201516113f8565b612e7d836005600f811115612e6257fe5b815181101515612e6e57fe5b906020019060200201516113f8565b141515612ebf576040517f08c379a0000000000000000000000000000000000000000000000000000000008152600401612eb6906192d3565b60405180910390fd5b612eeb816006600f811115612ed057fe5b815181101515612edc57fe5b906020019060200201516113f8565b612f17836006600f811115612efc57fe5b815181101515612f0857fe5b906020019060200201516113f8565b141515612f59576040517f08c379a0000000000000000000000000000000000000000000000000000000008152600401612f5090619093565b60405180910390fd5b612f85816007600f811115612f6a57fe5b815181101515612f7657fe5b906020019060200201516114a1565b1515612fb3836007600f811115612f9857fe5b815181101515612fa457fe5b906020019060200201516114a1565b1515141515612ff7576040517f08c379a0000000000000000000000000000000000000000000000000000000008152600401612fee906191d3565b60405180910390fd5b613023816008600f81111561300857fe5b81518110151561301457fe5b906020019060200201516114a1565b1515613051836008600f81111561303657fe5b81518110151561304257fe5b906020019060200201516114a1565b1515141515613095576040517f08c379a000000000000000000000000000000000000000000000000000000000815260040161308c90618dd3565b60405180910390fd5b6130c1816009600f8111156130a657fe5b8151811015156130b257fe5b906020019060200201516113f8565b6130ed836009600f8111156130d257fe5b8151811015156130de57fe5b906020019060200201516113f8565b14151561312f576040517f08c379a000000000000000000000000000000000000000000000000000000000815260040161312690618f53565b60405180910390fd5b5050565b600073ffffffffffffffffffffffffffffffffffffffff168173ffffffffffffffffffffffffffffffffffffffff161415151561316f57600080fd5b8073ffffffffffffffffffffffffffffffffffffffff166000809054906101000a900473ffffffffffffffffffffffffffffffffffffffff1673ffffffffffffffffffffffffffffffffffffffff167f8be0079c531659141344cd1fd0a4f28419497f9722a3daafe3b4186f6b6457e060405160405180910390a3806000806101000a81548173ffffffffffffffffffffffffffffffffffffffff021916908373ffffffffffffffffffffffffffffffffffffffff16021790555050565b600080826000015114156132445760009050613276565b60008083602001519050805160001a915060c060ff168260ff16101561326f57600092505050613276565b6001925050505b919050565b6000808260000151141561329257600090506132e7565b600080905060006132a684602001516132ec565b84602001510190506000846000015185602001510190505b808210156132e0576132cf82613375565b8201915082806001019350506132be565b8293505050505b919050565b600080825160001a9050608060ff1681101561330c576000915050613370565b60b860ff16811080613331575060c060ff168110158015613330575060f860ff1681105b5b15613340576001915050613370565b60c060ff168110156133605760018060b80360ff16820301915050613370565b60018060f80360ff168203019150505b919050565b600080825160001a9050608060ff16811015613395576001915050613423565b60b860ff168110156133b3576001608060ff16820301915050613423565b60c060ff168110156133e35760b78103600184019350806020036101000a84510460018201810193505050613421565b60f860ff1681101561340157600160c060ff16820301915050613423565b60f78103600184019350806020036101000a845104600182018101935050505b505b919050565b613430617600565b6000613444836000015184602001516135d4565b9050600061345a846020015185600001516135d4565b905060008183109050818314156134985760008061347b8760400151613670565b9150915081876040018181525050600f60ff168160ff1611925050505b80156134aa576134a785613696565b94505b6134b3856136cc565b94506134be85613d51565b156134d7576134cd8582613d78565b9350505050613589565b6134e86134e386613696565b6136cc565b94506134f385613d51565b1561350d57613503858215613d78565b9350505050613589565b61351e61351986613696565b613da0565b945061352985613d51565b15613542576135388582613d78565b9350505050613589565b61355361354e86613696565b613da0565b945061355e85613d51565b156135785761356e858215613d78565b9350505050613589565b613583858215613d78565b93505050505b919050565b600080600981111561359c57fe5b8260098111156135a857fe5b141580156135cd5750600260098111156135be57fe5b8260098111156135ca57fe5b14155b9050919050565b60008083608001516080015160a0015161ffff16905083602001511561360957613606818460a0015160200151613efd565b90505b83604001511561362857613625818460a0015160400151613efd565b90505b82604001511561364757613644818560a0015160400151613f9d565b90505b82604001511561366657613663818560a0015160400151613f9d565b90505b8091505092915050565b600080600060ff600102841660019004905061368b84613fdf565b819250925050915091565b61369e617600565b6136a6617632565b826020015190508260000151836020018190525080836000018190525082915050919050565b6136d4617600565b600260098111156136e157fe5b826000015160c0015160098111156136f557fe5b141561370357819050613d4c565b613714826000015160c0015161358e565b15613780576000826000015160600151111515613766576040517f08c379a000000000000000000000000000000000000000000000000000000000815260040161375d90619153565b60405180910390fd5b600182600001516060015103826000015160600181815250505b6000600981111561378d57fe5b826000015160c0015160098111156137a157fe5b14156138155760038260000151606001511015156137f4576040517f08c379a00000000000000000000000000000000000000000000000000000000081526004016137eb90619073565b60405180910390fd5b60018260000151606001510182600001516060018181525050819050613d4c565b613826826000015160c00151613ffd565b156138935760128081111561383757fe5b826000015160a0015160200151601281111561384f57fe5b14151515613892576040517f08c379a000000000000000000000000000000000000000000000000000000000815260040161388990619233565b60405180910390fd5b5b6138a4826000015160c00151614062565b15613911576012808111156138b557fe5b826000015160a001516040015160128111156138cd57fe5b14151515613910576040517f08c379a000000000000000000000000000000000000000000000000000000000815260040161390790619233565b60405180910390fd5b5b613922826000015160c001516140c6565b15613b07576000806139378460400151613670565b9150915060008061394784613670565b9150915060008061395784613670565b9150915081886040018181525050600061397a89600001518a602001518461414c565b90508015613a1d5760006139988a600001518b6020015189886142e7565b90506012808111156139a657fe5b8a6000015160a001516040015160128111156139be57fe5b14156139da576064607860ff1682028115156139d657fe5b0490505b808a602001516000015110156139fe5760008a602001516000018181525050613a17565b808a6020015160000151038a6020015160000181815250505b50613af8565b60018960000151606001510189600001516060018181525050613a4889600001518a60200151614625565b15613af7576000896000015160800151608001516020015161ffff16905060008a6000015160800151608001516040015161ffff1690506000600260328385600a600260056064600202811515613a9b57fe5b04010202811515613aa857fe5b04811515613ab257fe5b04019050808c60000151600001511015613ada5760008c600001516000018181525050613af3565b808c6000015160000151038c6000015160000181815250505b5050505b5b88975050505050505050613d4c565b60036009811115613b1457fe5b826000015160c001516009811115613b2857fe5b1415613bcc5760026009811115613b3b57fe5b826020015160c001516009811115613b4f57fe5b1415613bc45760006003836020015160800151608001516000015161ffff16811515613b7757fe5b0461ffff169050808360200151600001511015613ba257600083602001516000018181525050613bbb565b8083602001516000015103836020015160000181815250505b82915050613d4c565b819050613d4c565b60066009811115613bd957fe5b826000015160c001516009811115613bed57fe5b1415613c5e57600080613c038460400151613670565b9150915081846040018181525050613c1b84826146ac565b15613c3a57600184602001516020019015159081151581525050613c54565b600184600001516060015101846000015160600181815250505b8392505050613d4c565b600980811115613c6a57fe5b826000015160c001516009811115613c7e57fe5b1415613cef57600080613c948460400151613670565b9150915081846040018181525050613cac84826146ac565b15613ccb57600184602001516040019015159081151581525050613ce5565b600184600001516060015101846000015160600181815250505b8392505050613d4c565b60016009811115613cfc57fe5b826000015160c001516009811115613d1057fe5b1415613d4857600082600001516020019015159081151581525050600082600001516040019015159081151581525050819050613d4c565b8190505b919050565b6000808260000151600001511480613d7157506000826020015160000151145b9050919050565b613d80617600565b8115613d9657613d8f83613696565b9050613d9a565b8290505b92915050565b613da8617600565b600082602001516020015115613dd357613dce83846000015160a00151602001516147ab565b810190505b82602001516040015115613dfc57613df783846000015160a00151604001516147ab565b810190505b826000015160800151608001516000015161ffff1681846000015160000151011015613e3f57808360000151600001510183600001516000018181525050613e62565b826000015160800151608001516000015161ffff16836000015160000181815250505b600083600001516020015115613e8d57613e8884856020015160a0015160200151614812565b810190505b83600001516040015115613eb657613eb184856020015160a0015160400151614812565b810190505b808460000151600001511015613eda57600084600001516000018181525050613ef3565b8084600001516000015103846000015160000181815250505b8392505050919050565b6000600a6012811115613f0c57fe5b826012811115613f1857fe5b1415613f35576064603c8402811515613f2d57fe5b049050613f97565b600c6012811115613f4257fe5b826012811115613f4e57fe5b1415613f6b576064603c8402811515613f6357fe5b049050613f97565b600e6012811115613f7857fe5b826012811115613f8457fe5b1415613f935760009050613f97565b8290505b92915050565b600060026012811115613fac57fe5b826012811115613fb857fe5b1415613fd557606460968402811515613fcd57fe5b049050613fd9565b8290505b92915050565b60006101008260019004811515613ff257fe5b046001029050919050565b60006004600981111561400c57fe5b82600981111561401857fe5b148061403a57506005600981111561402c57fe5b82600981111561403857fe5b145b8061405b57506006600981111561404d57fe5b82600981111561405957fe5b145b9050919050565b60006007600981111561407157fe5b82600981111561407d57fe5b148061409f57506008600981111561409157fe5b82600981111561409d57fe5b145b806140bf57506009808111156140b157fe5b8260098111156140bd57fe5b145b9050919050565b6000600460098111156140d557fe5b8260098111156140e157fe5b14806141035750600760098111156140f557fe5b82600981111561410157fe5b145b8061412457506005600981111561411657fe5b82600981111561412257fe5b145b8061414557506008600981111561413757fe5b82600981111561414357fe5b145b9050919050565b600083602001518015614160575083604001515b156142355760006141a18460a0015160200151856080015160200151600281111561418757fe5b876080015160200151600281111561419b57fe5b14614a6c565b905060006141df8560a001516040015186608001516020015160028111156141c557fe5b88608001516020015160028111156141d957fe5b14614a6c565b90506000620f4240800260ff80620f42408560ff16028115156141fe57fe5b0460ff620f42408760ff160281151561421357fe5b04020281151561421f57fe5b0490508060ff168560ff161093505050506142e0565b836020015115614288576142798360a0015160200151846080015160200151600281111561425f57fe5b866080015160200151600281111561427357fe5b14614a6c565b60ff168260ff161090506142e0565b8360400151156142db576142cc8360a001516040015184608001516020015160028111156142b257fe5b86608001516020015160028111156142c657fe5b14614a6c565b60ff168260ff161090506142e0565b600190505b9392505050565b6000600260098111156142f657fe5b8460c00151600981111561430657fe5b1415614315576000905061461d565b60006004600981111561432457fe5b8660c00151600981111561433457fe5b148061435a57506007600981111561434857fe5b8660c00151600981111561435857fe5b145b156143b757600061436b8787614bbc565b905060006143798789614c58565b9050600260328284601460026005606460020281151561439557fe5b040102028115156143a257fe5b048115156143ac57fe5b040192505050614493565b600560098111156143c457fe5b8660c0015160098111156143d457fe5b14806143fa5750600860098111156143e857fe5b8660c0015160098111156143f857fe5b145b1561445757600061440b8787614cf4565b905060006144198789614d90565b9050600260328284601460026005606460020281151561443557fe5b0401020281151561444257fe5b0481151561444c57fe5b040192505050614492565b6040517f08c379a000000000000000000000000000000000000000000000000000000000815260040161448990618e93565b60405180910390fd5b5b600061449f8787614e2c565b60ff168560ff1610905080156144c2576064609683028115156144be57fe5b0491505b6000620f424060d902602660ff620f42408860ff16028115156144e157fe5b0402019050620f424060ff8285028115156144f857fe5b0481151561450257fe5b04925060006145148960c00151613ffd565b15614529578860a00151602001519050614535565b8860a001516040015190505b6000614552828a60a00151602001518b60a0015160400151614ee5565b60ff169050600381141561456d57849550505050505061461d565b60048111156145b7576064609660ff16860281151561458857fe5b04945060058114156145aa576064609660ff1686028115156145a657fe5b0494505b849550505050505061461d565b6003811015614614576064604b60ff1686028115156145d257fe5b0494506002811015614613576064604b60ff1686028115156145f057fe5b0494506000811415614612576064604b60ff16860281151561460e57fe5b0494505b5b5b84955050505050505b949350505050565b6000826020015180156146565750600d601281111561464057fe5b8260a0015160200151601281111561465457fe5b145b1561466457600190506146a6565b826040015180156146935750600d601281111561467d57fe5b8260a0015160400151601281111561469157fe5b145b156146a157600190506146a6565b600090505b92915050565b60008260000151602001511561472557600e60128111156146c957fe5b836020015160a001516020015160128111156146e157fe5b14151515614724576040517f08c379a000000000000000000000000000000000000000000000000000000000815260040161471b90618fb3565b60405180910390fd5b5b8260000151604001511561479c57600e601281111561474057fe5b836020015160a0015160400151601281111561475857fe5b1415151561479b576040517f08c379a000000000000000000000000000000000000000000000000000000000815260040161479290618fb3565b60405180910390fd5b5b60be8260ff1610905092915050565b6000600b60128111156147ba57fe5b8260128111156147c657fe5b141561480757620f42406010620f4240856020015160800151608001516000015161ffff16028115156147f557fe5b048115156147ff57fe5b04905061480c565b600090505b92915050565b6000600b601281111561482157fe5b82601281111561482d57fe5b141561486e57620f42406010620f4240856000015160800151608001516000015161ffff160281151561485c57fe5b0481151561486657fe5b049050614a66565b6003601281111561487b57fe5b82601281111561488757fe5b14156148c857620f4240600a620f4240856000015160800151608001516000015161ffff16028115156148b657fe5b048115156148c057fe5b049050614a66565b600960128111156148d557fe5b8260128111156148e157fe5b141561492257620f42406010620f4240856000015160800151608001516000015161ffff160281151561491057fe5b0481151561491a57fe5b049050614a66565b6002601281111561492f57fe5b82601281111561493b57fe5b141561497c57620f42406010620f4240856000015160800151608001516000015161ffff160281151561496a57fe5b0481151561497457fe5b049050614a66565b6005601281111561498957fe5b82601281111561499557fe5b14156149d657620f42406010620f4240856000015160800151608001516000015161ffff16028115156149c457fe5b048115156149ce57fe5b049050614a66565b600460128111156149e357fe5b8260128111156149ef57fe5b148015614a215750614a08836000015160c001516140c6565b80614a205750614a1f836000015160c001516172e5565b5b5b15614a6157620f42406010620f4240856000015160800151608001516000015161ffff1602811515614a4f57fe5b04811515614a5957fe5b049050614a66565b600090505b92915050565b600060066012811115614a7b57fe5b836012811115614a8757fe5b1415614aa857606460ff606460320202811515614aa057fe5b049050614bb6565b600c6012811115614ab557fe5b836012811115614ac157fe5b1415614ae257606460ff6064604b0202811515614ada57fe5b049050614bb6565b60076012811115614aef57fe5b836012811115614afb57fe5b1415614b1c57606460ff606460460202811515614b1457fe5b049050614bb6565b600d6012811115614b2957fe5b836012811115614b3557fe5b1415614b5657606460ff606460550202811515614b4e57fe5b049050614bb6565b60116012811115614b6357fe5b836012811115614b6f57fe5b1415614bb1578115614b9657606460ff606460410202811515614b8e57fe5b049050614bb6565b606460ff6064601e0202811515614ba957fe5b049050614bb6565b600090505b92915050565b6000808360800151608001516020015161ffff169050836020015115614bf157614bee818460a0015160200151617328565b90505b836040015115614c1057614c0d818460a0015160400151617328565b90505b826040015115614c2f57614c2c818560a00151604001516173d6565b90505b826040015115614c4e57614c4b818560a00151604001516173d6565b90505b8091505092915050565b6000808360800151608001516040015161ffff169050836020015115614c8d57614c8a818460a0015160200151617418565b90505b836040015115614cac57614ca9818460a0015160400151617418565b90505b826040015115614ccb57614cc8818560a0015160400151617423565b90505b826040015115614cea57614ce7818560a0015160400151617423565b90505b8091505092915050565b6000808360800151608001516060015161ffff169050836020015115614d2957614d26818460a0015160200151617465565b90505b836040015115614d4857614d45818460a0015160400151617465565b90505b826040015115614d6757614d64818560a00151604001516174a7565b90505b826040015115614d8657614d83818560a00151604001516174a7565b90505b8091505092915050565b6000808360800151608001516080015161ffff169050836020015115614dc557614dc2818460a00151602001516174e9565b90505b836040015115614de457614de1818460a00151604001516174e9565b90505b826040015115614e0357614e00818560a00151604001516174f4565b90505b826040015115614e2257614e1f818560a00151604001516174f4565b90505b8091505092915050565b6000808360a001516060015160a0015161ffff16905082602001518015614e71575060016012811115614e5b57fe5b8460a00151602001516012811115614e6f57fe5b145b80614ea7575082604001518015614ea6575060016012811115614e9057fe5b8460a00151604001516012811115614ea457fe5b145b5b15614eb757600881029050614ec7565b600281811515614ec357fe5b0490505b60ff811115614eda5760ff915050614edf565b809150505b92915050565b6000806003905060006012811115614ef957fe5b856012811115614f0557fe5b1415614fe85760076012811115614f1857fe5b846012811115614f2457fe5b1480614f46575060076012811115614f3857fe5b836012811115614f4457fe5b145b15614f555760009150506172de565b60056012811115614f6257fe5b846012811115614f6e57fe5b1480614f90575060056012811115614f8257fe5b836012811115614f8e57fe5b145b15614f9c576001810390505b60086012811115614fa957fe5b846012811115614fb557fe5b1480614fd7575060086012811115614fc957fe5b836012811115614fd557fe5b145b15614fe3576001810390505b6172d9565b60016012811115614ff557fe5b85601281111561500157fe5b14156152d5576007601281111561501457fe5b84601281111561502057fe5b148061504257506007601281111561503457fe5b83601281111561504057fe5b145b156150515760009150506172de565b6005601281111561505e57fe5b84601281111561506a57fe5b148061508c57506005601281111561507e57fe5b83601281111561508a57fe5b145b15615098576001810190505b600860128111156150a557fe5b8460128111156150b157fe5b14806150d35750600860128111156150c557fe5b8360128111156150d157fe5b145b156150df576001810190505b600e60128111156150ec57fe5b8460128111156150f857fe5b148061511a5750600e601281111561510c57fe5b83601281111561511857fe5b145b15615126576001810190505b6010601281111561513357fe5b84601281111561513f57fe5b148061516157506010601281111561515357fe5b83601281111561515f57fe5b145b1561516d576001810190505b6002601281111561517a57fe5b84601281111561518657fe5b14806151a857506002601281111561519a57fe5b8360128111156151a657fe5b145b156151b4576001810390505b600360128111156151c157fe5b8460128111156151cd57fe5b14806151ef5750600360128111156151e157fe5b8360128111156151ed57fe5b145b156151fb576001810390505b600d601281111561520857fe5b84601281111561521457fe5b14806152365750600d601281111561522857fe5b83601281111561523457fe5b145b15615242576001810390505b6006601281111561524f57fe5b84601281111561525b57fe5b148061527d57506006601281111561526f57fe5b83601281111561527b57fe5b145b15615289576001810390505b6011601281111561529657fe5b8460128111156152a257fe5b14806152c45750601160128111156152b657fe5b8360128111156152c257fe5b145b156152d0576001810390505b6172d8565b600260128111156152e257fe5b8560128111156152ee57fe5b14156154a3576001601281111561530157fe5b84601281111561530d57fe5b148061532f57506001601281111561532157fe5b83601281111561532d57fe5b145b1561533b576001810190505b6006601281111561534857fe5b84601281111561535457fe5b148061537657506006601281111561536857fe5b83601281111561537457fe5b145b15615382576001810190505b600b601281111561538f57fe5b84601281111561539b57fe5b14806153bd5750600b60128111156153af57fe5b8360128111156153bb57fe5b145b156153c9576001810190505b600560128111156153d657fe5b8460128111156153e257fe5b14806154045750600560128111156153f657fe5b83601281111561540257fe5b145b15615410576001810390505b6008601281111561541d57fe5b84601281111561542957fe5b148061544b57506008601281111561543d57fe5b83601281111561544957fe5b145b15615457576001810390505b600c601281111561546457fe5b84601281111561547057fe5b14806154925750600c601281111561548457fe5b83601281111561549057fe5b145b1561549e576001810390505b6172d7565b600360128111156154b057fe5b8560128111156154bc57fe5b14156156bb57600860128111156154cf57fe5b8460128111156154db57fe5b14806154fd5750600860128111156154ef57fe5b8360128111156154fb57fe5b145b1561550c5760009150506172de565b600b601281111561551957fe5b84601281111561552557fe5b14806155475750600b601281111561553957fe5b83601281111561554557fe5b145b15615553576001810190505b6011601281111561556057fe5b84601281111561556c57fe5b148061558e57506011601281111561558057fe5b83601281111561558c57fe5b145b1561559a576001810190505b600360128111156155a757fe5b8460128111156155b357fe5b14806155d55750600360128111156155c757fe5b8360128111156155d357fe5b145b156155e1576001810390505b600460128111156155ee57fe5b8460128111156155fa57fe5b148061561c57506004601281111561560e57fe5b83601281111561561a57fe5b145b15615628576001810390505b6005601281111561563557fe5b84601281111561564157fe5b148061566357506005601281111561565557fe5b83601281111561566157fe5b145b1561566f576001810390505b6007601281111561567c57fe5b84601281111561568857fe5b14806156aa57506007601281111561569c57fe5b8360128111156156a857fe5b145b156156b6576001810390505b6172d6565b600460128111156156c857fe5b8560128111156156d457fe5b141561591a57600360128111156156e757fe5b8460128111156156f357fe5b148061571557506003601281111561570757fe5b83601281111561571357fe5b145b15615721576001810190505b6005601281111561572e57fe5b84601281111561573a57fe5b148061575c57506005601281111561574e57fe5b83601281111561575a57fe5b145b15615768576001810190505b6008601281111561577557fe5b84601281111561578157fe5b14806157a357506008601281111561579557fe5b8360128111156157a157fe5b145b156157af576001810190505b600960128111156157bc57fe5b8460128111156157c857fe5b14806157ea5750600960128111156157dc57fe5b8360128111156157e857fe5b145b156157f6576001810190505b600c601281111561580357fe5b84601281111561580f57fe5b14806158315750600c601281111561582357fe5b83601281111561582f57fe5b145b1561583d576001810190505b6002601281111561584a57fe5b84601281111561585657fe5b148061587857506002601281111561586a57fe5b83601281111561587657fe5b145b156158875760009150506172de565b6006601281111561589457fe5b8460128111156158a057fe5b14806158c25750600660128111156158b457fe5b8360128111156158c057fe5b145b156158ce576001810390505b600b60128111156158db57fe5b8460128111156158e757fe5b14806159095750600b60128111156158fb57fe5b83601281111561590757fe5b145b15615915576001810390505b6172d5565b6005601281111561592757fe5b85601281111561593357fe5b1415615b2f576002601281111561594657fe5b84601281111561595257fe5b148061597457506002601281111561596657fe5b83601281111561597257fe5b145b15615980576001810190505b6006601281111561598d57fe5b84601281111561599957fe5b14806159bb5750600660128111156159ad57fe5b8360128111156159b957fe5b145b156159c7576001810190505b600960128111156159d457fe5b8460128111156159e057fe5b1480615a025750600960128111156159f457fe5b836012811115615a0057fe5b145b15615a0e576001810190505b600e6012811115615a1b57fe5b846012811115615a2757fe5b1480615a495750600e6012811115615a3b57fe5b836012811115615a4757fe5b145b15615a55576001810190505b60016012811115615a6257fe5b846012811115615a6e57fe5b1480615a90575060016012811115615a8257fe5b836012811115615a8e57fe5b145b15615a9c576001810390505b60046012811115615aa957fe5b846012811115615ab557fe5b1480615ad7575060046012811115615ac957fe5b836012811115615ad557fe5b145b15615ae3576001810390505b60086012811115615af057fe5b846012811115615afc57fe5b1480615b1e575060086012811115615b1057fe5b836012811115615b1c57fe5b145b15615b2a576001810390505b6172d4565b60066012811115615b3c57fe5b856012811115615b4857fe5b1415615e1957600b6012811115615b5b57fe5b846012811115615b6757fe5b1480615b895750600b6012811115615b7b57fe5b836012811115615b8757fe5b145b15615b95576001810190505b600d6012811115615ba257fe5b846012811115615bae57fe5b1480615bd05750600d6012811115615bc257fe5b836012811115615bce57fe5b145b15615bdc576001810190505b60106012811115615be957fe5b846012811115615bf557fe5b1480615c17575060106012811115615c0957fe5b836012811115615c1557fe5b145b15615c23576001810190505b60016012811115615c3057fe5b846012811115615c3c57fe5b1480615c5e575060016012811115615c5057fe5b836012811115615c5c57fe5b145b15615c6a576001810390505b60026012811115615c7757fe5b846012811115615c8357fe5b1480615ca5575060026012811115615c9757fe5b836012811115615ca357fe5b145b15615cb1576001810390505b60036012811115615cbe57fe5b846012811115615cca57fe5b1480615cec575060036012811115615cde57fe5b836012811115615cea57fe5b145b15615cf8576001810390505b60076012811115615d0557fe5b846012811115615d1157fe5b1480615d33575060076012811115615d2557fe5b836012811115615d3157fe5b145b15615d3f576001810390505b60086012811115615d4c57fe5b846012811115615d5857fe5b1480615d7a575060086012811115615d6c57fe5b836012811115615d7857fe5b145b15615d86576001810390505b60096012811115615d9357fe5b846012811115615d9f57fe5b1480615dc1575060096012811115615db357fe5b836012811115615dbf57fe5b145b15615dcd576001810390505b60116012811115615dda57fe5b846012811115615de657fe5b1480615e08575060116012811115615dfa57fe5b836012811115615e0657fe5b145b15615e14576001810390505b6172d3565b60076012811115615e2657fe5b856012811115615e3257fe5b1415615f5c5760076012811115615e4557fe5b846012811115615e5157fe5b1480615e73575060076012811115615e6557fe5b836012811115615e7157fe5b145b15615e7f576001810190505b600d6012811115615e8c57fe5b846012811115615e9857fe5b1480615eba5750600d6012811115615eac57fe5b836012811115615eb857fe5b145b15615ec6576001810190505b60006012811115615ed357fe5b846012811115615edf57fe5b1480615f01575060006012811115615ef357fe5b836012811115615eff57fe5b145b15615f105760009150506172de565b60106012811115615f1d57fe5b846012811115615f2957fe5b1480615f4b575060106012811115615f3d57fe5b836012811115615f4957fe5b145b15615f57576001810390505b6172d2565b60086012811115615f6957fe5b856012811115615f7557fe5b14156161715760056012811115615f8857fe5b846012811115615f9457fe5b1480615fb6575060056012811115615fa857fe5b836012811115615fb457fe5b145b15615fc2576001810190505b600e6012811115615fcf57fe5b846012811115615fdb57fe5b1480615ffd5750600e6012811115615fef57fe5b836012811115615ffb57fe5b145b15616009576001810190505b6011601281111561601657fe5b84601281111561602257fe5b148061604457506011601281111561603657fe5b83601281111561604257fe5b145b15616050576001810190505b6008601281111561605d57fe5b84601281111561606957fe5b148061608b57506008601281111561607d57fe5b83601281111561608957fe5b145b15616097576001810390505b600960128111156160a457fe5b8460128111156160b057fe5b14806160d25750600960128111156160c457fe5b8360128111156160d057fe5b145b156160de576001810390505b600a60128111156160eb57fe5b8460128111156160f757fe5b14806161195750600a601281111561610b57fe5b83601281111561611757fe5b145b15616125576001810390505b600c601281111561613257fe5b84601281111561613e57fe5b14806161605750600c601281111561615257fe5b83601281111561615e57fe5b145b1561616c576001810390505b6172d1565b6009601281111561617e57fe5b85601281111561618a57fe5b14156163cd576006601281111561619d57fe5b8460128111156161a957fe5b14806161cb5750600660128111156161bd57fe5b8360128111156161c957fe5b145b156161d7576001810190505b600860128111156161e457fe5b8460128111156161f057fe5b148061621257506008601281111561620457fe5b83601281111561621057fe5b145b1561621e576001810190505b600b601281111561622b57fe5b84601281111561623757fe5b14806162595750600b601281111561624b57fe5b83601281111561625757fe5b145b15616265576001810190505b600e601281111561627257fe5b84601281111561627e57fe5b14806162a05750600e601281111561629257fe5b83601281111561629e57fe5b145b156162ac576001810190505b600560128111156162b957fe5b8460128111156162c557fe5b14806162e75750600560128111156162d957fe5b8360128111156162e557fe5b145b156162f3576001810390505b6009601281111561630057fe5b84601281111561630c57fe5b148061632e57506009601281111561632057fe5b83601281111561632c57fe5b145b1561633a576001810390505b600a601281111561634757fe5b84601281111561635357fe5b14806163755750600a601281111561636757fe5b83601281111561637357fe5b145b15616381576001810390505b600f601281111561638e57fe5b84601281111561639a57fe5b14806163bc5750600f60128111156163ae57fe5b8360128111156163ba57fe5b145b156163c8576001810390505b6172d0565b600a60128111156163da57fe5b8560128111156163e657fe5b141561659b57600460128111156163f957fe5b84601281111561640557fe5b148061642757506004601281111561641957fe5b83601281111561642557fe5b145b15616433576001810190505b6005601281111561644057fe5b84601281111561644c57fe5b148061646e57506005601281111561646057fe5b83601281111561646c57fe5b145b1561647a576001810190505b6009601281111561648757fe5b84601281111561649357fe5b14806164b55750600960128111156164a757fe5b8360128111156164b357fe5b145b156164c1576001810190505b600a60128111156164ce57fe5b8460128111156164da57fe5b14806164fc5750600a60128111156164ee57fe5b8360128111156164fa57fe5b145b15616508576001810390505b600b601281111561651557fe5b84601281111561652157fe5b14806165435750600b601281111561653557fe5b83601281111561654157fe5b145b1561654f576001810390505b600f601281111561655c57fe5b84601281111561656857fe5b148061658a5750600f601281111561657c57fe5b83601281111561658857fe5b145b15616596576001810390505b6172cf565b600b60128111156165a857fe5b8560128111156165b457fe5b141561688557600460128111156165c757fe5b8460128111156165d357fe5b14806165f55750600460128111156165e757fe5b8360128111156165f357fe5b145b15616601576001810190505b6005601281111561660e57fe5b84601281111561661a57fe5b148061663c57506005601281111561662e57fe5b83601281111561663a57fe5b145b15616648576001810190505b600a601281111561665557fe5b84601281111561666157fe5b14806166835750600a601281111561667557fe5b83601281111561668157fe5b145b1561668f576001810190505b6002601281111561669c57fe5b8460128111156166a857fe5b14806166ca5750600260128111156166bc57fe5b8360128111156166c857fe5b145b156166d6576001810390505b600360128111156166e357fe5b8460128111156166ef57fe5b148061671157506003601281111561670357fe5b83601281111561670f57fe5b145b1561671d576001810390505b6006601281111561672a57fe5b84601281111561673657fe5b148061675857506006601281111561674a57fe5b83601281111561675657fe5b145b15616764576001810390505b6008601281111561677157fe5b84601281111561677d57fe5b148061679f57506008601281111561679157fe5b83601281111561679d57fe5b145b156167ab576001810390505b600960128111156167b857fe5b8460128111156167c457fe5b14806167e65750600960128111156167d857fe5b8360128111156167e457fe5b145b156167f2576001810390505b600b60128111156167ff57fe5b84601281111561680b57fe5b148061682d5750600b601281111561681f57fe5b83601281111561682b57fe5b145b15616839576001810390505b600f601281111561684657fe5b84601281111561685257fe5b14806168745750600f601281111561686657fe5b83601281111561687257fe5b145b15616880576001810390505b6172ce565b600c601281111561689257fe5b85601281111561689e57fe5b1415616a5657600a60128111156168b157fe5b8460128111156168bd57fe5b14806168df5750600a60128111156168d157fe5b8360128111156168dd57fe5b145b156168eb576001810190505b600260128111156168f857fe5b84601281111561690457fe5b148061692657506002601281111561691857fe5b83601281111561692457fe5b145b15616932576001810190505b6004601281111561693f57fe5b84601281111561694b57fe5b148061696d57506004601281111561695f57fe5b83601281111561696b57fe5b145b1561697c5760009150506172de565b600b601281111561698957fe5b84601281111561699557fe5b14806169b75750600b60128111156169a957fe5b8360128111156169b557fe5b145b156169c3576001810390505b600c60128111156169d057fe5b8460128111156169dc57fe5b14806169fe5750600c60128111156169f057fe5b8360128111156169fc57fe5b145b15616a0a576001810390505b600f6012811115616a1757fe5b846012811115616a2357fe5b1480616a455750600f6012811115616a3757fe5b836012811115616a4357fe5b145b15616a51576001810390505b6172cd565b600d6012811115616a6357fe5b856012811115616a6f57fe5b1415616be05760016012811115616a8257fe5b846012811115616a8e57fe5b1480616ab0575060016012811115616aa257fe5b836012811115616aae57fe5b145b15616abc576001810190505b60036012811115616ac957fe5b846012811115616ad557fe5b1480616af7575060036012811115616ae957fe5b836012811115616af557fe5b145b15616b03576001810190505b60086012811115616b1057fe5b846012811115616b1c57fe5b1480616b3e575060086012811115616b3057fe5b836012811115616b3c57fe5b145b15616b4a576001810390505b600d6012811115616b5757fe5b846012811115616b6357fe5b1480616b855750600d6012811115616b7757fe5b836012811115616b8357fe5b145b15616b91576001810390505b60106012811115616b9e57fe5b846012811115616baa57fe5b1480616bcc575060106012811115616bbe57fe5b836012811115616bca57fe5b145b15616bdb5760009150506172de565b6172cc565b600e6012811115616bed57fe5b856012811115616bf957fe5b1415616e3c5760026012811115616c0c57fe5b846012811115616c1857fe5b1480616c3a575060026012811115616c2c57fe5b836012811115616c3857fe5b145b15616c46576001810190505b60046012811115616c5357fe5b846012811115616c5f57fe5b1480616c81575060046012811115616c7357fe5b836012811115616c7f57fe5b145b15616c8d576001810190505b600b6012811115616c9a57fe5b846012811115616ca657fe5b1480616cc85750600b6012811115616cba57fe5b836012811115616cc657fe5b145b15616cd4576001810190505b600f6012811115616ce157fe5b846012811115616ced57fe5b1480616d0f5750600f6012811115616d0157fe5b836012811115616d0d57fe5b145b15616d1b576001810190505b60086012811115616d2857fe5b846012811115616d3457fe5b1480616d56575060086012811115616d4857fe5b836012811115616d5457fe5b145b15616d62576001810390505b60096012811115616d6f57fe5b846012811115616d7b57fe5b1480616d9d575060096012811115616d8f57fe5b836012811115616d9b57fe5b145b15616da9576001810390505b600a6012811115616db657fe5b846012811115616dc257fe5b1480616de45750600a6012811115616dd657fe5b836012811115616de257fe5b145b15616df0576001810390505b600e6012811115616dfd57fe5b846012811115616e0957fe5b1480616e2b5750600e6012811115616e1d57fe5b836012811115616e2957fe5b145b15616e37576001810390505b6172cb565b600f6012811115616e4957fe5b856012811115616e5557fe5b1415616f3857600f6012811115616e6857fe5b846012811115616e7457fe5b1480616e965750600f6012811115616e8857fe5b836012811115616e9457fe5b145b15616ea2576001810190505b60086012811115616eaf57fe5b846012811115616ebb57fe5b1480616edd575060086012811115616ecf57fe5b836012811115616edb57fe5b145b15616ee9576001810390505b60116012811115616ef657fe5b846012811115616f0257fe5b1480616f24575060116012811115616f1657fe5b836012811115616f2257fe5b145b15616f335760009150506172de565b6172ca565b60106012811115616f4557fe5b856012811115616f5157fe5b14156170bf5760076012811115616f6457fe5b846012811115616f7057fe5b1480616f92575060076012811115616f8457fe5b836012811115616f9057fe5b145b15616f9e576001810190505b600d6012811115616fab57fe5b846012811115616fb757fe5b1480616fd95750600d6012811115616fcb57fe5b836012811115616fd757fe5b145b15616fe5576001810190505b60016012811115616ff257fe5b846012811115616ffe57fe5b148061702057506001601281111561701257fe5b83601281111561701e57fe5b145b1561702c576001810390505b6010601281111561703957fe5b84601281111561704557fe5b148061706757506010601281111561705957fe5b83601281111561706557fe5b145b15617073576001810390505b6011601281111561708057fe5b84601281111561708c57fe5b14806170ae5750601160128111156170a057fe5b8360128111156170ac57fe5b145b156170ba576001810390505b6172c9565b601160128111156170cc57fe5b8560128111156170d857fe5b141561728d57600160128111156170eb57fe5b8460128111156170f757fe5b148061711957506001601281111561710b57fe5b83601281111561711757fe5b145b15617125576001810190505b600f601281111561713257fe5b84601281111561713e57fe5b14806171605750600f601281111561715257fe5b83601281111561715e57fe5b145b1561716c576001810190505b6010601281111561717957fe5b84601281111561718557fe5b14806171a757506010601281111561719957fe5b8360128111156171a557fe5b145b156171b3576001810190505b600360128111156171c057fe5b8460128111156171cc57fe5b14806171ee5750600360128111156171e057fe5b8360128111156171ec57fe5b145b156171fa576001810390505b6008601281111561720757fe5b84601281111561721357fe5b148061723557506008601281111561722757fe5b83601281111561723357fe5b145b15617241576001810390505b6009601281111561724e57fe5b84601281111561725a57fe5b148061727c57506009601281111561726e57fe5b83601281111561727a57fe5b145b15617288576001810390505b6172c8565b6040517f08c379a00000000000000000000000000000000000000000000000000000000081526004016172bf90619333565b60405180910390fd5b5b5b5b5b5b5b5b5b5b5b5b5b5b5b5b5b5b809150505b9392505050565b6000600660098111156172f457fe5b82600981111561730057fe5b1480617321575060098081111561731357fe5b82600981111561731f57fe5b145b9050919050565b60006009601281111561733757fe5b82601281111561734357fe5b14156173605760646050840281151561735857fe5b0490506173d0565b6000601281111561736d57fe5b82601281111561737957fe5b14156173965760646032840281151561738e57fe5b0490506173d0565b600760128111156173a357fe5b8260128111156173af57fe5b14156173cc576064604684028115156173c457fe5b0490506173d0565b8290505b92915050565b6000600f60128111156173e557fe5b8260128111156173f157fe5b141561740e5760646082840281151561740657fe5b049050617412565b8290505b92915050565b600082905092915050565b60006005601281111561743257fe5b82601281111561743e57fe5b141561745b5760646096840281151561745357fe5b04905061745f565b8290505b92915050565b6000600a601281111561747457fe5b82601281111561748057fe5b141561749d5760646050840281151561749557fe5b0490506174a1565b8290505b92915050565b6000600f60128111156174b657fe5b8260128111156174c257fe5b14156174df576064608284028115156174d757fe5b0490506174e3565b8290505b92915050565b600082905092915050565b60006008601281111561750357fe5b82601281111561750f57fe5b141561752c5760646096840281151561752457fe5b049050617530565b8290505b92915050565b6101e060405190810160405280600060ff1681526020016000600281111561755a57fe5b815260200160001515815260200161757061768c565b815260200161757d61768c565b81525090565b604080519081016040528060008152602001600081525090565b604080519081016040528060008152602001600081525090565b61012060405190810160405280600060ff168152602001600060128111156175db57fe5b8152602001600060128111156175ed57fe5b81526020016175fa61768c565b81525090565b610760604051908101604052806176156176db565b81526020016176226176db565b8152602001600080191681525090565b6103a0604051908101604052806000815260200160001515815260200160001515815260200160008152602001617667617735565b8152602001617674617782565b81526020016000600981111561768657fe5b81525090565b60c060405190810160405280600061ffff168152602001600061ffff168152602001600061ffff168152602001600061ffff168152602001600061ffff168152602001600061ffff1681525090565b6103a0604051908101604052806000815260200160001515815260200160001515815260200160008152602001617710617735565b815260200161771d617782565b81526020016000600981111561772f57fe5b81525090565b6101e060405190810160405280600060ff1681526020016000600281111561775957fe5b815260200160001515815260200161776f61768c565b815260200161777c61768c565b81525090565b61012060405190810160405280600060ff168152602001600060128111156177a657fe5b8152602001600060128111156177b857fe5b81526020016177c561768c565b81525090565b60006177d7823561955c565b905092915050565b60006177eb825161955c565b905092915050565b60006177ff823561956e565b905092915050565b6000617813825161956e565b905092915050565b600082601f830112151561782e57600080fd5b813561784161783c8261948d565b619460565b9150808252602083016020830185838301111561785d57600080fd5b61786883828461960e565b50505092915050565b600061787d825161957a565b905092915050565b60006178918251619593565b905092915050565b60006178a582516195ac565b905092915050565b600061012082840312156178c057600080fd5b6178ca6080619460565b905060006178da84828501617a84565b60008301525060206178ee84828501617899565b602083015250604061790284828501617899565b6040830152506060617916848285016179ac565b60608301525092915050565b60006101e0828403121561793557600080fd5b61793f60a0619460565b9050600061794f84828501617a84565b600083015250602061796384828501617871565b602083015250604061797784828501617807565b604083015250606061798b848285016179ac565b6060830152506101206179a0848285016179ac565b60808301525092915050565b600060c082840312156179be57600080fd5b6179c860c0619460565b905060006179d884828501617a48565b60008301525060206179ec84828501617a48565b6020830152506040617a0084828501617a48565b6040830152506060617a1484828501617a48565b6060830152506080617a2884828501617a48565b60808301525060a0617a3c84828501617a48565b60a08301525092915050565b6000617a5482516195c5565b905092915050565b6000617a6882356195d3565b905092915050565b6000617a7c82516195d3565b905092915050565b6000617a9082516195dd565b905092915050565b600060208284031215617aaa57600080fd5b6000617ab8848285016177cb565b91505092915050565b60008060408385031215617ad457600080fd5b6000617ae2858286016177cb565b9250506020617af3858286016177f3565b9150509250929050565b600060208284031215617b0f57600080fd5b6000617b1d84828501617807565b91505092915050565b600060208284031215617b3857600080fd5b600082013567ffffffffffffffff811115617b5257600080fd5b617b5e8482850161781b565b91505092915050565b60008060408385031215617b7a57600080fd5b600083013567ffffffffffffffff811115617b9457600080fd5b617ba08582860161781b565b925050602083013567ffffffffffffffff811115617bbd57600080fd5b617bc98582860161781b565b9150509250929050565b60008060408385031215617be657600080fd5b600083013567ffffffffffffffff811115617c0057600080fd5b617c0c8582860161781b565b9250506020617c1d85828601617a5c565b9150509250929050565b60008060008060808587031215617c3d57600080fd5b600085013567ffffffffffffffff811115617c5757600080fd5b617c638782880161781b565b9450506020617c7487828801617a5c565b9350506040617c85878288016177cb565b9250506060617c96878288016177cb565b91505092959194509250565b600080600060608486031215617cb757600080fd5b600084013567ffffffffffffffff811115617cd157600080fd5b617cdd8682870161781b565b9350506020617cee86828701617a5c565b925050604084013567ffffffffffffffff811115617d0b57600080fd5b617d178682870161781b565b9150509250925092565b60006101208284031215617d3457600080fd5b6000617d42848285016178ad565b91505092915050565b60006101e08284031215617d5e57600080fd5b6000617d6c84828501617922565b91505092915050565b600060208284031215617d8757600080fd5b6000617d9584828501617a5c565b91505092915050565b60008060008060808587031215617db457600080fd5b6000617dc287828801617a5c565b945050602085013567ffffffffffffffff811115617ddf57600080fd5b617deb8782880161781b565b9350506040617dfc878288016177cb565b9250506060617e0d878288016177cb565b91505092959194509250565b600080600080600060a08688031215617e3157600080fd5b6000617e3f88828901617a70565b9550506020617e5088828901617a70565b9450506040617e61888289016177df565b9350506060617e7288828901617885565b9250506080617e83888289016177df565b9150509295509295909350565b617e99816194b9565b82525050565b617ea8816194cb565b82525050565b617eb7816195ea565b82525050565b617ec6816195fc565b82525050565b6000602882527f506c61796572207374617475733220616674657220626174746c65206973206960208301527f6e636f72726563740000000000000000000000000000000000000000000000006040830152606082019050919050565b6000601d82527f496e76616c6964206669727374207475726e20524c50206c656e6774680000006020830152604082019050919050565b6000601f82527f4f70706f6e656e742053746174757332206d75737420737461792073616d65006020830152604082019050919050565b6000601b82527f486173684465636973696f6e206d75737420737461792073616d6500000000006020830152604082019050919050565b6000601d82527f496e76616c6964207374617274207475726e20524c50206c656e6774680000006020830152604082019050919050565b6000601882527f506c6179657273206465636973696f6e20696e76616c696400000000000000006020830152604082019050919050565b6000601f82527f48617368206465636973696f6e206d75737420737461792064652073616d65006020830152604082019050919050565b6000601a82527f506c617965722053616c74206d75737420737461792073616d650000000000006020830152604082019050919050565b6000602a82527f41747461636b696e67206d6f76652073686f756c6420626520616e206174746160208301527f636b696e67206d6f7665000000000000000000000000000000000000000000006040830152606082019050919050565b6000601882527f506c6179657220485020646f6573206e6f74206d6174636800000000000000006020830152604082019050919050565b6000602082527f4f70706f6e656e7420537461747573322073686f756c642062652066616c73656020830152604082019050919050565b6000601a82527f506c61796572206d7573742070726f7669646520612073616c740000000000006020830152604082019050919050565b6000601882527f496e76616c696420524c50207374617274206c656e67746800000000000000006020830152604082019050919050565b6000601982527f4f70706f6e656e74206465636973696f6e20696e76616c6964000000000000006020830152604082019050919050565b6000601f82527f4f70706f6e656e742063686172676573206d75737420737461792073616d65006020830152604082019050919050565b6000603282527f426f746820706c617965727320617420302c207468657265206973206e6f207360208301527f696d756c74616e656f75732064616d61676500000000000000000000000000006040830152606082019050919050565b6000601b82527f496e76616c6964206f6464207475726e20524c50206c656e67746800000000006020830152604082019050919050565b6000601b82527f43616e742075736520537461747573207768696c652046726f7a6500000000006020830152604082019050919050565b6000601d82527f506c617965722053746174757331206d75737420737461792073616d650000006020830152604082019050919050565b6000602a82527f4576656e74732063616e206f6e6c79206265207472696767657265642062792060208301527f76616c696461746f7273000000000000000000000000000000000000000000006040830152606082019050919050565b6000601482527f524c50204974656d206973206e6f74206c6973740000000000000000000000006020830152604082019050919050565b6000601e82527f496e76616c696420656e64696e67207475726e20524c50206c656e67746800006020830152604082019050919050565b6000601e82527f506c61796572204465636973696f6e206d75737420737461792073616d6500006020830152604082019050919050565b6000602882527f506c61796572207265636861726765206e6f7420706f737369626c652077686560208301527f6e206f76657220330000000000000000000000000000000000000000000000006040830152606082019050919050565b6000601a82527f4f70706f6e656e74204850206d75737420737461792073616d650000000000006020830152604082019050919050565b6000601f82527f506c617965722043727970746f6d6f6e206d75737420737461792073616d65006020830152604082019050919050565b6000602982527f506c61796572206d75737420686176652063686172676520746f206d616b652060208301527f74686174206d6f766500000000000000000000000000000000000000000000006040830152606082019050919050565b6000602382527f506c6179657220485020616674657220626174746c6520697320696e636f727260208301527f65637400000000000000000000000000000000000000000000000000000000006040830152606082019050919050565b6000602082527f4f70706f6e656e7420537461747573312073686f756c642062652066616c73656020830152604082019050919050565b6000601e82527f506c617965722063686172676573206d75737420626520696e697469616c00006020830152604082019050919050565b6000602582527f506c61796572206e6565647320612063686172676520746f20646f207468697360208301527f206d6f76650000000000000000000000000000000000000000000000000000006040830152606082019050919050565b6000602782527f524c502055696e74206d757374206265206265747765656e203120616e64203360208301527f33206279746573000000000000000000000000000000000000000000000000006040830152606082019050919050565b6000602982527f4f70706f6e656e74206d7573742070726f766964652061206861736820666f7260208301527f206465636973696f6e00000000000000000000000000000000000000000000006040830152606082019050919050565b6000601e82527f506c6179657220537461747573312073686f756c642062652066616c736500006020830152604082019050919050565b6000601f82527f4f70706f6e656e742053746174757331206d75737420737461792073616d65006020830152604082019050919050565b6000601882527f506c61796572204850206d75737420737461792073616d6500000000000000006020830152604082019050919050565b6000601d82527f506c617965722053746174757332206d75737420737461792073616d650000006020830152604082019050919050565b6000602c82527f506c617965722061747461636b2063616e7420626520646f6e6520776974682060208301527f556e6b6e6f776e207479706500000000000000000000000000000000000000006040830152606082019050919050565b6000601e82527f506c6179657220537461747573322073686f756c642062652066616c736500006020830152604082019050919050565b6000602882527f506c61796572207374617475733120616674657220626174746c65206973206960208301527f6e636f72726563740000000000000000000000000000000000000000000000006040830152606082019050919050565b6000602882527f506c61796572206368617267657320616674657220626174746c65206973206960208301527f6e636f72726563740000000000000000000000000000000000000000000000006040830152606082019050919050565b6000601d82527f506c617965722063686172676573206d75737420737461792073616d650000006020830152604082019050919050565b6000602182527f4f70706f6e656e742043727970746f6d6f6e206d75737420737461792073616d60208301527f65000000000000000000000000000000000000000000000000000000000000006040830152606082019050919050565b6000602582527f4f70706f6e656e74206465636973696f6e20646f6573206e6f74206d6174636860208301527f20686173680000000000000000000000000000000000000000000000000000006040830152606082019050919050565b6000601c82527f496e76616c6964206576656e207475726e20524c50206c656e677468000000006020830152604082019050919050565b6000600c82527f556e6b6e6f776e207479706500000000000000000000000000000000000000006020830152604082019050919050565b6000602082527f4f70706f6e656e742063686172676573206d75737420626520696e697469616c6020830152604082019050919050565b6000601a82527f4f70706f6e656e7420485020646f6573206e6f74206d617463680000000000006020830152604082019050919050565b6000602782527f496e76616c696420506c61736d6149442c2069742073686f756c64206265206160208301527f2075696e743634000000000000000000000000000000000000000000000000006040830152606082019050919050565b6000601a82527f524c5020426f6f6c65616e206d757374206265203120627974650000000000006020830152604082019050919050565b6000601882527f496e76616c696420506c617965722043727970746f6d6f6e00000000000000006020830152604082019050919050565b6101e082016000820151618c386000850182618d33565b506020820151618c4b6020850182617eae565b506040820151618c5e6040850182617e9f565b506060820151618c716060850182618c8b565b506080820151618c85610120850182618c8b565b50505050565b60c082016000820151618ca16000850182618d06565b506020820151618cb46020850182618d06565b506040820151618cc76040850182618d06565b506060820151618cda6060850182618d06565b506080820151618ced6080850182618d06565b5060a0820151618d0060a0850182618d06565b50505050565b618d0f81619503565b82525050565b618d1e81619531565b82525050565b618d2d8161953b565b82525050565b618d3c8161954f565b82525050565b6000602082019050618d576000830184617e90565b92915050565b6000602082019050618d726000830184617e9f565b92915050565b6000602082019050618d8d6000830184617ebd565b92915050565b60006020820190508181036000830152618dac81617ecc565b9050919050565b60006020820190508181036000830152618dcc81617f29565b9050919050565b60006020820190508181036000830152618dec81617f60565b9050919050565b60006020820190508181036000830152618e0c81617f97565b9050919050565b60006020820190508181036000830152618e2c81617fce565b9050919050565b60006020820190508181036000830152618e4c81618005565b9050919050565b60006020820190508181036000830152618e6c8161803c565b9050919050565b60006020820190508181036000830152618e8c81618073565b9050919050565b60006020820190508181036000830152618eac816180aa565b9050919050565b60006020820190508181036000830152618ecc81618107565b9050919050565b60006020820190508181036000830152618eec8161813e565b9050919050565b60006020820190508181036000830152618f0c81618175565b9050919050565b60006020820190508181036000830152618f2c816181ac565b9050919050565b60006020820190508181036000830152618f4c816181e3565b9050919050565b60006020820190508181036000830152618f6c8161821a565b9050919050565b60006020820190508181036000830152618f8c81618251565b9050919050565b60006020820190508181036000830152618fac816182ae565b9050919050565b60006020820190508181036000830152618fcc816182e5565b9050919050565b60006020820190508181036000830152618fec8161831c565b9050919050565b6000602082019050818103600083015261900c81618353565b9050919050565b6000602082019050818103600083015261902c816183b0565b9050919050565b6000602082019050818103600083015261904c816183e7565b9050919050565b6000602082019050818103600083015261906c8161841e565b9050919050565b6000602082019050818103600083015261908c81618455565b9050919050565b600060208201905081810360008301526190ac816184b2565b9050919050565b600060208201905081810360008301526190cc816184e9565b9050919050565b600060208201905081810360008301526190ec81618520565b9050919050565b6000602082019050818103600083015261910c8161857d565b9050919050565b6000602082019050818103600083015261912c816185da565b9050919050565b6000602082019050818103600083015261914c81618611565b9050919050565b6000602082019050818103600083015261916c81618648565b9050919050565b6000602082019050818103600083015261918c816186a5565b9050919050565b600060208201905081810360008301526191ac81618702565b9050919050565b600060208201905081810360008301526191cc8161875f565b9050919050565b600060208201905081810360008301526191ec81618796565b9050919050565b6000602082019050818103600083015261920c816187cd565b9050919050565b6000602082019050818103600083015261922c81618804565b9050919050565b6000602082019050818103600083015261924c8161883b565b9050919050565b6000602082019050818103600083015261926c81618898565b9050919050565b6000602082019050818103600083015261928c816188cf565b9050919050565b600060208201905081810360008301526192ac8161892c565b9050919050565b600060208201905081810360008301526192cc81618989565b9050919050565b600060208201905081810360008301526192ec816189c0565b9050919050565b6000602082019050818103600083015261930c81618a1d565b9050919050565b6000602082019050818103600083015261932c81618a7a565b9050919050565b6000602082019050818103600083015261934c81618ab1565b9050919050565b6000602082019050818103600083015261936c81618ae8565b9050919050565b6000602082019050818103600083015261938c81618b1f565b9050919050565b600060208201905081810360008301526193ac81618b56565b9050919050565b600060208201905081810360008301526193cc81618bb3565b9050919050565b600060208201905081810360008301526193ec81618bea565b9050919050565b60006101e0820190506194096000830184618c21565b92915050565b60006020820190506194246000830184618d15565b92915050565b600060208201905061943f6000830184618d24565b92915050565b600060208201905061945a6000830184618d33565b92915050565b6000604051905081810181811067ffffffffffffffff8211171561948357600080fd5b8060405250919050565b600067ffffffffffffffff8211156194a457600080fd5b601f19601f8301169050602081019050919050565b60006194c482619511565b9050919050565b60008115159050919050565b60006003821015156194e557fe5b819050919050565b6000600a821015156194fb57fe5b819050919050565b600061ffff82169050919050565b600073ffffffffffffffffffffffffffffffffffffffff82169050919050565b6000819050919050565b600067ffffffffffffffff82169050919050565b600060ff82169050919050565b600061956782619511565b9050919050565b60008115159050919050565b600060038210151561958b57600080fd5b819050919050565b60006003821015156195a457600080fd5b819050919050565b60006013821015156195bd57600080fd5b819050919050565b600061ffff82169050919050565b6000819050919050565b600060ff82169050919050565b60006195f5826194d7565b9050919050565b6000619607826194ed565b9050919050565b8281833760008383015250505056fea265627a7a72305820a857dec3f98235abdef5220aab386b7c2118ae28889980d21dcae440e313ff9d6c6578706572696d656e74616cf50037",
  "source": "pragma solidity ^0.5.2;\npragma experimental ABIEncoderV2;\n\nimport \"./PlasmaTurnGame.sol\";\nimport \"../Core/RootChain.sol\";\nimport \"../Core/CryptoMons.sol\";\nimport \"../Libraries/Pokedex.sol\";\nimport \"./BattleDamageCalculator.sol\";\nimport \"openzeppelin-solidity/contracts/ownership/Ownable.sol\";\n\ncontract CryptoMonBattles is PlasmaTurnGame, Ownable {\n\n    using BattleDamageCalculator for BattleDamageCalculator.BattleState;\n    using RLPReader for bytes;\n    using RLPReader for RLPReader.RLPItem;\n    //Signed Player -> Signed OP        -> Signed Player\n\n    //initialState  + //State 1    + //State even   + //State odd  +  //State ending (odd)\n\n    //CryptoMonPL   | CryptoMonPL   | CryptoMonPL   | 0 CryptoMonPL        | CryptoMonPL\n    //HPPL          | HPPL          | HPPL          | 1 HPPL               | HPPL\n    //Status1PL     | Status1PL     | Status1PL     | 2 Status1PL          | Status1PL\n    //Status2PL     | Status2PL     | Status2PL     | 3 Status2PL          | Status2PL\n    //ChargePL      | ChargePL      | ChargePL      | 4 ChargePL           | ChargePL\n    //CryptoMonOP   | CryptoMonOP   | CryptoMonOP   | 5 CryptoMonOP        | CryptoMonOP\n    //HPOP          | HPOP          | HPOP          | 6 HPOP               | HPOP\n    //Status1OP     | Status1OP     | Status1OP     | 7 Status1OP          | Status1OP\n    //Status2OP     | Status2OP     | Status2OP     | 8 Status2OP          | Status2OP\n    //ChargeOP      | ChargeOP      | ChargeOP      | 9  ChargeOP          | ChargeOP\n    //              | HashDecision  | HashDecision  | 10 HashDecision      | HashDecision\n    //              |               | DecisionPL    | 11 DecisionPL        | DecisionPL\n    //              |               | SaltPL        | 12 SaltPL            | SaltPL\n    //              |               |               | 13 DecisionOp        | DecisionOp\n    //              |               |               | 14 SaltOP            | SaltOP\n    //              |               |               | 15 nextHashDecision  |\n\n    enum Battle {\n        CryptoMonPL,\n        HPPL,\n        Status1PL,\n        Status2PL,\n        ChargePL,\n        CryptoMonOP,\n        HPOP,\n        Status1OP,\n        Status2OP,\n        ChargeOP,\n        HashDecision,\n        DecisionPL,\n        SaltPL,\n        DecisionOP,\n        SaltOP,\n        NextHashDecision\n    }\n\n    RootChain plasma;\n    CryptoMons cryptomons;\n\n    uint constant INITIAL_CHARGES = 1;\n\n    constructor(RootChain _plasma, CryptoMons _cryptomons) public {\n        plasma = _plasma;\n        cryptomons = _cryptomons;\n    }\n\n    function validateStartState(bytes memory state) public view {\n        RLPReader.RLPItem[] memory start = state.toRlpItem().toList();\n        require(start.length == uint(Battle.ChargeOP) + 1, \"Invalid RLP start length\");\n\n        //Player\n        Pokedex.Pokemon memory cryptoMonPL = getCryptoMon(start[uint(Battle.CryptoMonPL)].toUint());\n        require(cryptoMonPL.id > 0                                        , \"Invalid Player Cryptomon\");\n        require(start[uint(Battle.HPPL)].toUint() == cryptoMonPL.stats.hp , \"Player HP does not match\");\n        require(start[uint(Battle.Status1PL)].toBoolean() == false        , \"Player Status1 should be false\");\n        require(start[uint(Battle.Status2PL)].toBoolean() == false        , \"Player Status2 should be false\");\n        require(start[uint(Battle.ChargePL)].toUint() == INITIAL_CHARGES  , \"Player charges must be initial\");\n\n        //Opponent\n        Pokedex.Pokemon memory cryptoMonOP = getCryptoMon(start[uint(Battle.CryptoMonOP)].toUint());\n        require(cryptoMonOP.id > 0                                        , \"Invalid Player Cryptomon\");\n        require(start[uint(Battle.HPOP)].toUint() == cryptoMonOP.stats.hp , \"Opponent HP does not match\");\n        require(start[uint(Battle.Status1OP)].toBoolean() == false        , \"Opponent Status1 should be false\");\n        require(start[uint(Battle.Status2OP)].toBoolean() == false        , \"Opponent Status2 should be false\");\n        require(start[uint(Battle.ChargeOP)].toUint() == INITIAL_CHARGES  , \"Opponent charges must be initial\");\n    }\n\n    function validateTurnTransition(bytes memory oldState, uint turnNum, bytes memory newState) public view {\n        if(turnNum == 0) {\n            validateInitialTransition(oldState, newState);\n        } else if(turnNum%2 == 0) {\n            validateEvenToOdd(oldState, newState, isOver(newState, turnNum));\n        } else {\n            validateOddToEven(oldState, newState, turnNum == 1);\n        }\n    }\n\n    function validateTransitionKeepBasics(RLPReader.RLPItem[] memory first, RLPReader.RLPItem[] memory second) private pure {\n        //Player\n        require(first[uint(Battle.CryptoMonPL)].toUint() == second[uint(Battle.CryptoMonPL)].toUint() , \"Player Cryptomon must stay same\");\n        require(first[uint(Battle.HPPL)].toUint()        == second[uint(Battle.HPPL)].toUint()        , \"Player HP must stay same\");\n        require(first[uint(Battle.Status1PL)].toBoolean()== second[uint(Battle.Status1PL)].toBoolean(), \"Player Status1 must stay same\");\n        require(first[uint(Battle.Status2PL)].toBoolean()== second[uint(Battle.Status2PL)].toBoolean(), \"Player Status2 must stay same\");\n        require(first[uint(Battle.ChargePL)].toUint()    == second[uint(Battle.ChargePL)].toUint()    , \"Player charges must stay same\");\n        //Opponent\n        require(first[uint(Battle.CryptoMonOP)].toUint() == second[uint(Battle.CryptoMonOP)].toUint()  , \"Opponent Cryptomon must stay same\");\n        require(first[uint(Battle.HPOP)].toUint()        == second[uint(Battle.HPOP)].toUint()         , \"Opponent HP must stay same\");\n        require(first[uint(Battle.Status1OP)].toBoolean()== second[uint(Battle.Status1OP)].toBoolean() , \"Opponent Status1 must stay same\");\n        require(first[uint(Battle.Status2OP)].toBoolean()== second[uint(Battle.Status2OP)].toBoolean() , \"Opponent Status2 must stay same\");\n        require(first[uint(Battle.ChargeOP)].toUint()    == second[uint(Battle.ChargeOP)].toUint()     , \"Opponent charges must stay same\");\n    }\n\n    function validateInitialTransition(bytes memory startState, bytes memory firstTurn) public pure {\n        RLPReader.RLPItem[] memory start = startState.toRlpItem().toList();\n        RLPReader.RLPItem[] memory first = firstTurn.toRlpItem().toList();\n\n        require(start.length == uint(Battle.ChargeOP) + 1    , \"Invalid start turn RLP length\");\n        require(first.length == uint(Battle.HashDecision) + 1, \"Invalid first turn RLP length\");\n        validateTransitionKeepBasics(start, first);\n        require(first[uint(Battle.HashDecision)].toUint() != 0, \"Opponent must provide a hash for decision\");\n    }\n\n    function validateEvenToOdd(bytes memory evenTurn, bytes memory oddTurn, bool isFinal) private view {\n        RLPReader.RLPItem[] memory even = evenTurn.toRlpItem().toList();\n        RLPReader.RLPItem[] memory odd  = oddTurn.toRlpItem().toList();\n\n        if(isFinal) {\n            require(odd.length == uint(Battle.SaltOP) + 1, \"Invalid ending turn RLP length\");\n        } else {\n            require(odd.length == uint(Battle.NextHashDecision) + 1, \"Invalid ending turn RLP length\");\n            require(odd[uint(Battle.NextHashDecision)].toUint() != 0, \"Opponent must provide a hash for decision\");\n        }\n\n        require(even[uint(Battle.CryptoMonPL)].toUint() == odd[uint(Battle.CryptoMonPL)].toUint()  , \"Player Cryptomon must stay same\");\n        require(even[uint(Battle.CryptoMonOP)].toUint() == odd[uint(Battle.CryptoMonOP)].toUint()  , \"Opponent Cryptomon must stay same\");\n        require(even[uint(Battle.HashDecision)].toUint()== odd[uint(Battle.HashDecision)].toUint() , \"HashDecision must stay same\");\n        require(even[uint(Battle.DecisionPL  )].toUint()== odd[uint(Battle.DecisionPL   )].toUint(), \"Player Decision must stay same\");\n        require(even[uint(Battle.SaltPL      )].toUint()== odd[uint(Battle.SaltPL      )].toUint() , \"Player Salt must stay same\");\n\n        require(odd[uint(Battle.DecisionPL)].toUint() <= uint(BattleDamageCalculator.Moves.STATUS2), \"Players decision invalid\");\n        require(odd[uint(Battle.DecisionOP)].toUint() <= uint(BattleDamageCalculator.Moves.STATUS2), \"Opponent decision invalid\");\n\n        require(bytes32(even[uint(Battle.HashDecision)].toUint()) ==\n            keccak256(abi.encodePacked(odd[uint(Battle.DecisionOP)].toUint(), odd[uint(Battle.SaltOP)].toUint())),\n                        \"Opponent decision does not match hash\");\n\n        Pokedex.Pokemon memory cryptoMonPL = getCryptoMon(even[uint(Battle.CryptoMonPL)].toUint());\n        Pokedex.PokemonData memory cryptoMonPLData = cryptomons.getPokemonData(cryptoMonPL.id);\n\n        Pokedex.Pokemon memory cryptoMonOP = getCryptoMon(even[uint(Battle.CryptoMonOP)].toUint());\n        Pokedex.PokemonData memory cryptoMonOPData = cryptomons.getPokemonData(cryptoMonOP.id);\n\n        BattleDamageCalculator.BattleState memory state = BattleDamageCalculator.BattleState(\n            BattleDamageCalculator.CryptoMonState(\n                even[uint(Battle.HPPL)].toUint(),\n                even[uint(Battle.Status1PL)].toBoolean(),\n                even[uint(Battle.Status2PL)].toBoolean(),\n                even[uint(Battle.ChargePL)].toUint(),\n                cryptoMonPL,\n                cryptoMonPLData,\n                BattleDamageCalculator.Moves(odd[uint(Battle.DecisionPL)].toUint())\n            ),\n            BattleDamageCalculator.CryptoMonState(\n                even[uint(Battle.HPOP)].toUint(),\n                even[uint(Battle.Status1OP)].toBoolean(),\n                even[uint(Battle.Status2OP)].toBoolean(),\n                even[uint(Battle.ChargeOP)].toUint(),\n                cryptoMonOP,\n                cryptoMonOPData,\n                BattleDamageCalculator.Moves(odd[uint(Battle.DecisionOP)].toUint())\n            ),\n            keccak256(abi.encodePacked(odd[uint(Battle.SaltPL)].toUint(), odd[uint(Battle.SaltOP)].toUint()))\n        );\n\n        state = state.calculateBattle();\n\n        require(state.player.hp      == odd[uint(Battle.HPPL )].toUint()        , \"Player HP after battle is incorrect\");\n        require(state.player.charges == odd[uint(Battle.ChargePL )].toUint()    , \"Player charges after battle is incorrect\");\n        require(state.player.status1 == odd[uint(Battle.Status1PL )].toBoolean(), \"Player status1 after battle is incorrect\");\n        require(state.player.status2 == odd[uint(Battle.Status2PL )].toBoolean(), \"Player status2 after battle is incorrect\");\n\n        require(state.opponent.hp      == odd[uint(Battle.HPOP )].toUint()        , \"Player HP after battle is incorrect\");\n        require(state.opponent.charges == odd[uint(Battle.ChargeOP )].toUint()    , \"Player charges after battle is incorrect\");\n        require(state.opponent.status1 == odd[uint(Battle.Status1OP )].toBoolean(), \"Player status1 after battle is incorrect\");\n        require(state.opponent.status2 == odd[uint(Battle.Status2OP )].toBoolean(), \"Player status2 after battle is incorrect\");\n    }\n\n    function validateOddToEven(bytes memory oddTurn, bytes memory evenTurn, bool isFirst) private view {\n        RLPReader.RLPItem[] memory odd = oddTurn.toRlpItem().toList();\n        RLPReader.RLPItem[] memory even = evenTurn.toRlpItem().toList();\n\n        bytes32 oddNewHashDec;\n        if(isFirst) {\n            require(odd.length == uint(Battle.HashDecision) + 1, \"Invalid odd turn RLP length\");\n            oddNewHashDec = bytes32(odd[uint(Battle.HashDecision)].toUint());\n        } else {\n            require(odd.length == uint(Battle.NextHashDecision) + 1, \"Invalid odd turn RLP length\");\n            oddNewHashDec = bytes32(odd[uint(Battle.NextHashDecision)].toUint());\n        }\n\n        require(even.length == uint(Battle.SaltPL) + 1, \"Invalid even turn RLP length\");\n\n        validateTransitionKeepBasics(odd, even);\n\n        require(oddNewHashDec == bytes32(even[uint(Battle.HashDecision)].toUint()) , \"Hash decision must stay de same\");\n\n        uint playerDecision = even[uint(Battle.DecisionPL)].toUint();\n        require(playerDecision <= uint(BattleDamageCalculator.Moves.STATUS2), \"Players decision invalid\");\n\n        if(BattleDamageCalculator.needsCharge(BattleDamageCalculator.Moves(playerDecision))) {\n            require(even[uint(Battle.ChargePL)].toUint() > 0, \"Player must have charge to make that move\");\n        }\n\n        Pokedex.Pokemon memory cryptoMonPL = getCryptoMon(even[uint(Battle.CryptoMonPL)].toUint());\n        Pokedex.PokemonData memory cryptoMonPLData = cryptomons.getPokemonData(cryptoMonPL.id);\n\n        if(BattleDamageCalculator.usesFirstType(BattleDamageCalculator.Moves(playerDecision))) {\n            require(cryptoMonPLData.type1 != Pokedex.Type.Unknown, \"Player attack cant be done with Unknown type\");\n        }\n\n        if(BattleDamageCalculator.usesSecondType(BattleDamageCalculator.Moves(playerDecision))) {\n            require(cryptoMonPLData.type2 != Pokedex.Type.Unknown, \"Player attack cant be done with Unknown type\");\n        }\n\n        require(even[uint(Battle.SaltPL)].toUint() != 0, \"Player must provide a salt\");\n    }\n\n    function winner(bytes memory state, uint turnNum, address player, address opponent) public pure returns (address) {\n        if(isOver(state, turnNum)) {\n            RLPReader.RLPItem[] memory ending = state.toRlpItem().toList();\n            uint HPPL = ending[uint(Battle.HPPL)].toUint();\n            uint HPOP = ending[uint(Battle.HPOP)].toUint();\n\n            if(HPPL > HPOP) {\n                return player;\n            } else if(HPOP > HPPL) {\n                return opponent;\n            } else {\n                revert(\"Both players at 0, there is no simultaneous damage\");\n            }\n        } else {\n            return address(0);\n        }\n    }\n\n    function isOver(bytes memory state, uint /*turnNum*/) public pure returns (bool) {\n        RLPReader.RLPItem[] memory ending = state.toRlpItem().toList();\n        uint HPPL = ending[uint(Battle.HPPL)].toUint();\n        uint HPOP = ending[uint(Battle.HPOP)].toUint();\n        return HPPL == 0 || HPOP == 0;\n    }\n\n    function mover(bytes memory /*state*/, uint turnNum, address player, address opponent) public pure returns (address) {\n        return turnNum%2 == 0 ? player: opponent;\n    }\n\n    function getCryptoMon(uint plasmaID) public view returns (Pokedex.Pokemon memory) {\n        if(plasmaID >= 2**64) revert(\"Invalid PlasmaID, it should be a uint64\");\n        (uint256 cryptoMonId, , , , ) = plasma.getPlasmaCoin(uint64(plasmaID));\n        return cryptomons.getCryptomon(cryptoMonId);\n    }\n\n    event CryptoMonBattleRequested(uint indexed gameId, address indexed player, uint indexed CryptoMon);\n    event CryptoMonBattleStarted(uint indexed gameId, address indexed player, uint indexed CryptoMon);\n\n    function eventRequestState(uint gameId, bytes memory state, address player, address opponent) public isApproved(msg.sender) {\n        RLPReader.RLPItem[] memory decoded = state.toRlpItem().toList();\n        uint CryptoMonPL = decoded[uint(Battle.CryptoMonPL)].toUint();\n        uint CryptoMonOP = decoded[uint(Battle.CryptoMonOP)].toUint();\n\n        emit CryptoMonBattleRequested(gameId, player, CryptoMonPL);\n        emit CryptoMonBattleRequested(gameId, opponent, CryptoMonOP);\n    }\n    function eventStartState(uint gameId, bytes memory state, address player, address opponent) public isApproved(msg.sender) {\n        RLPReader.RLPItem[] memory decoded = state.toRlpItem().toList();\n        uint CryptoMonPL = decoded[uint(Battle.CryptoMonPL)].toUint();\n        uint CryptoMonOP = decoded[uint(Battle.CryptoMonOP)].toUint();\n\n        emit CryptoMonBattleStarted(gameId, player, CryptoMonPL);\n        emit CryptoMonBattleStarted(gameId, opponent, CryptoMonOP);\n    }\n\n    //VALIDATOR\n    mapping (address => bool) public validators;\n\n    function setValidator(address _address, bool value) public onlyOwner {\n        validators[_address] = value;\n    }\n\n    modifier isApproved(address _address) {\n        require(validators[_address], \"Events can only be triggered by validators\");\n        _;\n    }\n\n\n}\n",
  "sourcePath": "/home/juanfra/Documents/ITBA/PF/Plasma-Cash-RootChain/contracts/Battles/CryptMonBattles.sol",
  "compiler": {
    "name": "solc",
    "version": "0.5.2+commit.1df8f40c.Emscripten.clang"
  },
  "schemaVersion": "3.0.9",
  "updatedAt": "2019-10-26T11:21:02.561Z",
  "devdoc": {
    "methods": {
      "isOwner()": {
        "return": "true if `msg.sender` is the owner of the contract."
      },
      "owner()": {
        "return": "the address of the owner."
      },
      "renounceOwnership()": {
        "details": "Allows the current owner to relinquish control of the contract. It will not be possible to call the functions with the `onlyOwner` modifier anymore."
      },
      "transferOwnership(address)": {
        "details": "Allows the current owner to transfer control of the contract to a newOwner.",
        "params": {
          "newOwner": "The address to transfer ownership to."
        }
      }
    }
  },
  "userdoc": {
    "methods": {
      "renounceOwnership()": {
        "notice": "Renouncing ownership will leave the contract without an owner, thereby removing any functionality that is only available to the owner."
      }
    }
  }
}