{
  "contractName": "CryptoMons",
  "abi": [
    {
      "constant": true,
      "inputs": [
        {
          "name": "interfaceId",
          "type": "bytes4"
        }
      ],
      "name": "supportsInterface",
      "outputs": [
        {
          "name": "",
          "type": "bool"
        }
      ],
      "payable": false,
      "stateMutability": "view",
      "type": "function"
    },
    {
      "constant": true,
      "inputs": [
        {
          "name": "tokenId",
          "type": "uint256"
        }
      ],
      "name": "getApproved",
      "outputs": [
        {
          "name": "",
          "type": "address"
        }
      ],
      "payable": false,
      "stateMutability": "view",
      "type": "function"
    },
    {
      "constant": false,
      "inputs": [
        {
          "name": "to",
          "type": "address"
        },
        {
          "name": "tokenId",
          "type": "uint256"
        }
      ],
      "name": "approve",
      "outputs": [],
      "payable": false,
      "stateMutability": "nonpayable",
      "type": "function"
    },
    {
      "constant": false,
      "inputs": [
        {
          "name": "from",
          "type": "address"
        },
        {
          "name": "to",
          "type": "address"
        },
        {
          "name": "tokenId",
          "type": "uint256"
        }
      ],
      "name": "transferFrom",
      "outputs": [],
      "payable": false,
      "stateMutability": "nonpayable",
      "type": "function"
    },
    {
      "constant": false,
      "inputs": [
        {
          "name": "from",
          "type": "address"
        },
        {
          "name": "to",
          "type": "address"
        },
        {
          "name": "tokenId",
          "type": "uint256"
        }
      ],
      "name": "safeTransferFrom",
      "outputs": [],
      "payable": false,
      "stateMutability": "nonpayable",
      "type": "function"
    },
    {
      "constant": true,
      "inputs": [
        {
          "name": "tokenId",
          "type": "uint256"
        }
      ],
      "name": "ownerOf",
      "outputs": [
        {
          "name": "",
          "type": "address"
        }
      ],
      "payable": false,
      "stateMutability": "view",
      "type": "function"
    },
    {
      "constant": true,
      "inputs": [
        {
          "name": "owner",
          "type": "address"
        }
      ],
      "name": "balanceOf",
      "outputs": [
        {
          "name": "",
          "type": "uint256"
        }
      ],
      "payable": false,
      "stateMutability": "view",
      "type": "function"
    },
    {
      "constant": false,
      "inputs": [],
      "name": "renounceOwnership",
      "outputs": [],
      "payable": false,
      "stateMutability": "nonpayable",
      "type": "function"
    },
    {
      "constant": true,
      "inputs": [],
      "name": "owner",
      "outputs": [
        {
          "name": "",
          "type": "address"
        }
      ],
      "payable": false,
      "stateMutability": "view",
      "type": "function"
    },
    {
      "constant": true,
      "inputs": [
        {
          "name": "id",
          "type": "uint8"
        }
      ],
      "name": "getPokemonData",
      "outputs": [
        {
          "components": [
            {
              "name": "id",
              "type": "uint8"
            },
            {
              "name": "type1",
              "type": "uint8"
            },
            {
              "name": "type2",
              "type": "uint8"
            },
            {
              "components": [
                {
                  "name": "hp",
                  "type": "uint16"
                },
                {
                  "name": "atk",
                  "type": "uint16"
                },
                {
                  "name": "def",
                  "type": "uint16"
                },
                {
                  "name": "spAtk",
                  "type": "uint16"
                },
                {
                  "name": "spDef",
                  "type": "uint16"
                },
                {
                  "name": "speed",
                  "type": "uint16"
                }
              ],
              "name": "base",
              "type": "tuple"
            }
          ],
          "name": "",
          "type": "tuple"
        }
      ],
      "payable": false,
      "stateMutability": "view",
      "type": "function"
    },
    {
      "constant": true,
      "inputs": [],
      "name": "isOwner",
      "outputs": [
        {
          "name": "",
          "type": "bool"
        }
      ],
      "payable": false,
      "stateMutability": "view",
      "type": "function"
    },
    {
      "constant": false,
      "inputs": [
        {
          "name": "to",
          "type": "address"
        },
        {
          "name": "approved",
          "type": "bool"
        }
      ],
      "name": "setApprovalForAll",
      "outputs": [],
      "payable": false,
      "stateMutability": "nonpayable",
      "type": "function"
    },
    {
      "constant": false,
      "inputs": [
        {
          "name": "from",
          "type": "address"
        },
        {
          "name": "to",
          "type": "address"
        },
        {
          "name": "tokenId",
          "type": "uint256"
        },
        {
          "name": "_data",
          "type": "bytes"
        }
      ],
      "name": "safeTransferFrom",
      "outputs": [],
      "payable": false,
      "stateMutability": "nonpayable",
      "type": "function"
    },
    {
      "constant": true,
      "inputs": [
        {
          "name": "owner",
          "type": "address"
        },
        {
          "name": "operator",
          "type": "address"
        }
      ],
      "name": "isApprovedForAll",
      "outputs": [
        {
          "name": "",
          "type": "bool"
        }
      ],
      "payable": false,
      "stateMutability": "view",
      "type": "function"
    },
    {
      "constant": false,
      "inputs": [
        {
          "name": "newOwner",
          "type": "address"
        }
      ],
      "name": "transferOwnership",
      "outputs": [],
      "payable": false,
      "stateMutability": "nonpayable",
      "type": "function"
    },
    {
      "inputs": [
        {
          "name": "_plasma",
          "type": "address"
        }
      ],
      "payable": false,
      "stateMutability": "nonpayable",
      "type": "constructor"
    },
    {
      "anonymous": false,
      "inputs": [
        {
          "indexed": true,
          "name": "previousOwner",
          "type": "address"
        },
        {
          "indexed": true,
          "name": "newOwner",
          "type": "address"
        }
      ],
      "name": "OwnershipTransferred",
      "type": "event"
    },
    {
      "anonymous": false,
      "inputs": [
        {
          "indexed": true,
          "name": "from",
          "type": "address"
        },
        {
          "indexed": true,
          "name": "to",
          "type": "address"
        },
        {
          "indexed": true,
          "name": "tokenId",
          "type": "uint256"
        }
      ],
      "name": "Transfer",
      "type": "event"
    },
    {
      "anonymous": false,
      "inputs": [
        {
          "indexed": true,
          "name": "owner",
          "type": "address"
        },
        {
          "indexed": true,
          "name": "approved",
          "type": "address"
        },
        {
          "indexed": true,
          "name": "tokenId",
          "type": "uint256"
        }
      ],
      "name": "Approval",
      "type": "event"
    },
    {
      "anonymous": false,
      "inputs": [
        {
          "indexed": true,
          "name": "owner",
          "type": "address"
        },
        {
          "indexed": true,
          "name": "operator",
          "type": "address"
        },
        {
          "indexed": false,
          "name": "approved",
          "type": "bool"
        }
      ],
      "name": "ApprovalForAll",
      "type": "event"
    },
    {
      "constant": false,
      "inputs": [
        {
          "name": "newPlasma",
          "type": "address"
        }
      ],
      "name": "changePlasma",
      "outputs": [],
      "payable": false,
      "stateMutability": "nonpayable",
      "type": "function"
    },
    {
      "constant": false,
      "inputs": [],
      "name": "buyCryptoMon",
      "outputs": [],
      "payable": true,
      "stateMutability": "payable",
      "type": "function"
    },
    {
      "constant": false,
      "inputs": [
        {
          "name": "tokenId",
          "type": "uint256"
        },
        {
          "name": "_data",
          "type": "bytes"
        }
      ],
      "name": "depositToPlasmaWithData",
      "outputs": [],
      "payable": false,
      "stateMutability": "nonpayable",
      "type": "function"
    },
    {
      "constant": false,
      "inputs": [
        {
          "name": "tokenId",
          "type": "uint256"
        }
      ],
      "name": "depositToPlasma",
      "outputs": [],
      "payable": false,
      "stateMutability": "nonpayable",
      "type": "function"
    },
    {
      "constant": true,
      "inputs": [
        {
          "name": "id",
          "type": "uint256"
        }
      ],
      "name": "getCryptomon",
      "outputs": [
        {
          "components": [
            {
              "name": "id",
              "type": "uint8"
            },
            {
              "name": "gender",
              "type": "uint8"
            },
            {
              "name": "isShiny",
              "type": "bool"
            },
            {
              "components": [
                {
                  "name": "hp",
                  "type": "uint16"
                },
                {
                  "name": "atk",
                  "type": "uint16"
                },
                {
                  "name": "def",
                  "type": "uint16"
                },
                {
                  "name": "spAtk",
                  "type": "uint16"
                },
                {
                  "name": "spDef",
                  "type": "uint16"
                },
                {
                  "name": "speed",
                  "type": "uint16"
                }
              ],
              "name": "IVs",
              "type": "tuple"
            },
            {
              "components": [
                {
                  "name": "hp",
                  "type": "uint16"
                },
                {
                  "name": "atk",
                  "type": "uint16"
                },
                {
                  "name": "def",
                  "type": "uint16"
                },
                {
                  "name": "spAtk",
                  "type": "uint16"
                },
                {
                  "name": "spDef",
                  "type": "uint16"
                },
                {
                  "name": "speed",
                  "type": "uint16"
                }
              ],
              "name": "stats",
              "type": "tuple"
            }
          ],
          "name": "",
          "type": "tuple"
        }
      ],
      "payable": false,
      "stateMutability": "view",
      "type": "function"
    }
  ],
  "bytecode": "0x60806040523480156200001157600080fd5b506040516020806201635b8339810180604052620000339190810190620139eb565b620000706301ffc9a77c01000000000000000000000000000000000000000000000000000000000262013917640100000000026401000000009004565b620000ad6380ac58cd7c01000000000000000000000000000000000000000000000000000000000262013917640100000000026401000000009004565b33600560006101000a81548173ffffffffffffffffffffffffffffffffffffffff021916908373ffffffffffffffffffffffffffffffffffffffff160217905550600560009054906101000a900473ffffffffffffffffffffffffffffffffffffffff1673ffffffffffffffffffffffffffffffffffffffff16600073ffffffffffffffffffffffffffffffffffffffff167f8be0079c531659141344cd1fd0a4f28419497f9722a3daafe3b4186f6b6457e060405160405180910390a36006608060405190810160405280600060ff1681526020016012808111156200019057fe5b8152602001601280811115620001a257fe5b815260200160c060405190810160405280600061ffff168152602001600061ffff168152602001600061ffff168152602001600061ffff168152602001600061ffff168152602001600061ffff168152508152509080600181540180825580915050906001820390600052602060002090600202016000909192909190915060008201518160000160006101000a81548160ff021916908360ff16021790555060208201518160000160016101000a81548160ff021916908360128111156200026757fe5b021790555060408201518160000160026101000a81548160ff021916908360128111156200029157fe5b021790555060608201518160010160008201518160000160006101000a81548161ffff021916908361ffff16021790555060208201518160000160026101000a81548161ffff021916908361ffff16021790555060408201518160000160046101000a81548161ffff021916908361ffff16021790555060608201518160000160066101000a81548161ffff021916908361ffff16021790555060808201518160000160086101000a81548161ffff021916908361ffff16021790555060a082015181600001600a6101000a81548161ffff021916908361ffff16021790555050505050506006608060405190810160405280600160ff168152602001600b60128111156200039c57fe5b815260200160036012811115620003af57fe5b815260200160c060405190810160405280602d61ffff168152602001603161ffff168152602001603161ffff168152602001604161ffff168152602001604161ffff168152602001602d61ffff168152508152509080600181540180825580915050906001820390600052602060002090600202016000909192909190915060008201518160000160006101000a81548160ff021916908360ff16021790555060208201518160000160016101000a81548160ff021916908360128111156200047457fe5b021790555060408201518160000160026101000a81548160ff021916908360128111156200049e57fe5b021790555060608201518160010160008201518160000160006101000a81548161ffff021916908361ffff16021790555060208201518160000160026101000a81548161ffff021916908361ffff16021790555060408201518160000160046101000a81548161ffff021916908361ffff16021790555060608201518160000160066101000a81548161ffff021916908361ffff16021790555060808201518160000160086101000a81548161ffff021916908361ffff16021790555060a082015181600001600a6101000a81548161ffff021916908361ffff16021790555050505050506006608060405190810160405280600260ff168152602001600b6012811115620005a957fe5b815260200160036012811115620005bc57fe5b815260200160c060405190810160405280603c61ffff168152602001603e61ffff168152602001603f61ffff168152602001605061ffff168152602001605061ffff168152602001603c61ffff168152508152509080600181540180825580915050906001820390600052602060002090600202016000909192909190915060008201518160000160006101000a81548160ff021916908360ff16021790555060208201518160000160016101000a81548160ff021916908360128111156200068157fe5b021790555060408201518160000160026101000a81548160ff02191690836012811115620006ab57fe5b021790555060608201518160010160008201518160000160006101000a81548161ffff021916908361ffff16021790555060208201518160000160026101000a81548161ffff021916908361ffff16021790555060408201518160000160046101000a81548161ffff021916908361ffff16021790555060608201518160000160066101000a81548161ffff021916908361ffff16021790555060808201518160000160086101000a81548161ffff021916908361ffff16021790555060a082015181600001600a6101000a81548161ffff021916908361ffff16021790555050505050506006608060405190810160405280600360ff168152602001600b6012811115620007b657fe5b815260200160036012811115620007c957fe5b815260200160c060405190810160405280605061ffff168152602001605261ffff168152602001605361ffff168152602001606461ffff168152602001606461ffff168152602001605061ffff168152508152509080600181540180825580915050906001820390600052602060002090600202016000909192909190915060008201518160000160006101000a81548160ff021916908360ff16021790555060208201518160000160016101000a81548160ff021916908360128111156200088e57fe5b021790555060408201518160000160026101000a81548160ff02191690836012811115620008b857fe5b021790555060608201518160010160008201518160000160006101000a81548161ffff021916908361ffff16021790555060208201518160000160026101000a81548161ffff021916908361ffff16021790555060408201518160000160046101000a81548161ffff021916908361ffff16021790555060608201518160000160066101000a81548161ffff021916908361ffff16021790555060808201518160000160086101000a81548161ffff021916908361ffff16021790555060a082015181600001600a6101000a81548161ffff021916908361ffff16021790555050505050506006608060405190810160405280600460ff16815260200160096012811115620009c357fe5b8152602001601280811115620009d557fe5b815260200160c060405190810160405280602761ffff168152602001603461ffff168152602001602b61ffff168152602001603c61ffff168152602001603261ffff168152602001604161ffff168152508152509080600181540180825580915050906001820390600052602060002090600202016000909192909190915060008201518160000160006101000a81548160ff021916908360ff16021790555060208201518160000160016101000a81548160ff0219169083601281111562000a9a57fe5b021790555060408201518160000160026101000a81548160ff0219169083601281111562000ac457fe5b021790555060608201518160010160008201518160000160006101000a81548161ffff021916908361ffff16021790555060208201518160000160026101000a81548161ffff021916908361ffff16021790555060408201518160000160046101000a81548161ffff021916908361ffff16021790555060608201518160000160066101000a81548161ffff021916908361ffff16021790555060808201518160000160086101000a81548161ffff021916908361ffff16021790555060a082015181600001600a6101000a81548161ffff021916908361ffff16021790555050505050506006608060405190810160405280600560ff1681526020016009601281111562000bcf57fe5b815260200160128081111562000be157fe5b815260200160c060405190810160405280603a61ffff168152602001604061ffff168152602001603a61ffff168152602001605061ffff168152602001604161ffff168152602001605061ffff168152508152509080600181540180825580915050906001820390600052602060002090600202016000909192909190915060008201518160000160006101000a81548160ff021916908360ff16021790555060208201518160000160016101000a81548160ff0219169083601281111562000ca657fe5b021790555060408201518160000160026101000a81548160ff0219169083601281111562000cd057fe5b021790555060608201518160010160008201518160000160006101000a81548161ffff021916908361ffff16021790555060208201518160000160026101000a81548161ffff021916908361ffff16021790555060408201518160000160046101000a81548161ffff021916908361ffff16021790555060608201518160000160066101000a81548161ffff021916908361ffff16021790555060808201518160000160086101000a81548161ffff021916908361ffff16021790555060a082015181600001600a6101000a81548161ffff021916908361ffff16021790555050505050506006608060405190810160405280600660ff1681526020016009601281111562000ddb57fe5b81526020016002601281111562000dee57fe5b815260200160c060405190810160405280604e61ffff168152602001605461ffff168152602001604e61ffff168152602001606d61ffff168152602001605561ffff168152602001606461ffff168152508152509080600181540180825580915050906001820390600052602060002090600202016000909192909190915060008201518160000160006101000a81548160ff021916908360ff16021790555060208201518160000160016101000a81548160ff0219169083601281111562000eb357fe5b021790555060408201518160000160026101000a81548160ff0219169083601281111562000edd57fe5b021790555060608201518160010160008201518160000160006101000a81548161ffff021916908361ffff16021790555060208201518160000160026101000a81548161ffff021916908361ffff16021790555060408201518160000160046101000a81548161ffff021916908361ffff16021790555060608201518160000160066101000a81548161ffff021916908361ffff16021790555060808201518160000160086101000a81548161ffff021916908361ffff16021790555060a082015181600001600a6101000a81548161ffff021916908361ffff16021790555050505050506006608060405190810160405280600760ff168152602001600a601281111562000fe857fe5b815260200160128081111562000ffa57fe5b815260200160c060405190810160405280602c61ffff168152602001603061ffff168152602001604161ffff168152602001603261ffff168152602001604061ffff168152602001602b61ffff168152508152509080600181540180825580915050906001820390600052602060002090600202016000909192909190915060008201518160000160006101000a81548160ff021916908360ff16021790555060208201518160000160016101000a81548160ff02191690836012811115620010bf57fe5b021790555060408201518160000160026101000a81548160ff02191690836012811115620010e957fe5b021790555060608201518160010160008201518160000160006101000a81548161ffff021916908361ffff16021790555060208201518160000160026101000a81548161ffff021916908361ffff16021790555060408201518160000160046101000a81548161ffff021916908361ffff16021790555060608201518160000160066101000a81548161ffff021916908361ffff16021790555060808201518160000160086101000a81548161ffff021916908361ffff16021790555060a082015181600001600a6101000a81548161ffff021916908361ffff16021790555050505050506006608060405190810160405280600860ff168152602001600a6012811115620011f457fe5b81526020016012808111156200120657fe5b815260200160c060405190810160405280603b61ffff168152602001603f61ffff168152602001605061ffff168152602001604161ffff168152602001605061ffff168152602001603a61ffff168152508152509080600181540180825580915050906001820390600052602060002090600202016000909192909190915060008201518160000160006101000a81548160ff021916908360ff16021790555060208201518160000160016101000a81548160ff02191690836012811115620012cb57fe5b021790555060408201518160000160026101000a81548160ff02191690836012811115620012f557fe5b021790555060608201518160010160008201518160000160006101000a81548161ffff021916908361ffff16021790555060208201518160000160026101000a81548161ffff021916908361ffff16021790555060408201518160000160046101000a81548161ffff021916908361ffff16021790555060608201518160000160066101000a81548161ffff021916908361ffff16021790555060808201518160000160086101000a81548161ffff021916908361ffff16021790555060a082015181600001600a6101000a81548161ffff021916908361ffff16021790555050505050506006608060405190810160405280600960ff168152602001600a60128111156200140057fe5b81526020016012808111156200141257fe5b815260200160c060405190810160405280604f61ffff168152602001605361ffff168152602001606461ffff168152602001605561ffff168152602001606961ffff168152602001604e61ffff168152508152509080600181540180825580915050906001820390600052602060002090600202016000909192909190915060008201518160000160006101000a81548160ff021916908360ff16021790555060208201518160000160016101000a81548160ff02191690836012811115620014d757fe5b021790555060408201518160000160026101000a81548160ff021916908360128111156200150157fe5b021790555060608201518160010160008201518160000160006101000a81548161ffff021916908361ffff16021790555060208201518160000160026101000a81548161ffff021916908361ffff16021790555060408201518160000160046101000a81548161ffff021916908361ffff16021790555060608201518160000160066101000a81548161ffff021916908361ffff16021790555060808201518160000160086101000a81548161ffff021916908361ffff16021790555060a082015181600001600a6101000a81548161ffff021916908361ffff16021790555050505050506006608060405190810160405280600a60ff168152602001600660128111156200160c57fe5b81526020016012808111156200161e57fe5b815260200160c060405190810160405280602d61ffff168152602001601e61ffff168152602001602361ffff168152602001601461ffff168152602001601461ffff168152602001602d61ffff168152508152509080600181540180825580915050906001820390600052602060002090600202016000909192909190915060008201518160000160006101000a81548160ff021916908360ff16021790555060208201518160000160016101000a81548160ff02191690836012811115620016e357fe5b021790555060408201518160000160026101000a81548160ff021916908360128111156200170d57fe5b021790555060608201518160010160008201518160000160006101000a81548161ffff021916908361ffff16021790555060208201518160000160026101000a81548161ffff021916908361ffff16021790555060408201518160000160046101000a81548161ffff021916908361ffff16021790555060608201518160000160066101000a81548161ffff021916908361ffff16021790555060808201518160000160086101000a81548161ffff021916908361ffff16021790555060a082015181600001600a6101000a81548161ffff021916908361ffff16021790555050505050506006608060405190810160405280600b60ff168152602001600660128111156200181857fe5b81526020016012808111156200182a57fe5b815260200160c060405190810160405280603261ffff168152602001601461ffff168152602001603761ffff168152602001601961ffff168152602001601961ffff168152602001601e61ffff168152508152509080600181540180825580915050906001820390600052602060002090600202016000909192909190915060008201518160000160006101000a81548160ff021916908360ff16021790555060208201518160000160016101000a81548160ff02191690836012811115620018ef57fe5b021790555060408201518160000160026101000a81548160ff021916908360128111156200191957fe5b021790555060608201518160010160008201518160000160006101000a81548161ffff021916908361ffff16021790555060208201518160000160026101000a81548161ffff021916908361ffff16021790555060408201518160000160046101000a81548161ffff021916908361ffff16021790555060608201518160000160066101000a81548161ffff021916908361ffff16021790555060808201518160000160086101000a81548161ffff021916908361ffff16021790555060a082015181600001600a6101000a81548161ffff021916908361ffff16021790555050505050506006608060405190810160405280600c60ff1681526020016006601281111562001a2457fe5b81526020016002601281111562001a3757fe5b815260200160c060405190810160405280603c61ffff168152602001602d61ffff168152602001603261ffff168152602001605a61ffff168152602001605061ffff168152602001604661ffff168152508152509080600181540180825580915050906001820390600052602060002090600202016000909192909190915060008201518160000160006101000a81548160ff021916908360ff16021790555060208201518160000160016101000a81548160ff0219169083601281111562001afc57fe5b021790555060408201518160000160026101000a81548160ff0219169083601281111562001b2657fe5b021790555060608201518160010160008201518160000160006101000a81548161ffff021916908361ffff16021790555060208201518160000160026101000a81548161ffff021916908361ffff16021790555060408201518160000160046101000a81548161ffff021916908361ffff16021790555060608201518160000160066101000a81548161ffff021916908361ffff16021790555060808201518160000160086101000a81548161ffff021916908361ffff16021790555060a082015181600001600a6101000a81548161ffff021916908361ffff16021790555050505050506006608060405190810160405280600d60ff1681526020016006601281111562001c3157fe5b81526020016003601281111562001c4457fe5b815260200160c060405190810160405280602861ffff168152602001602361ffff168152602001601e61ffff168152602001601461ffff168152602001601461ffff168152602001603261ffff168152508152509080600181540180825580915050906001820390600052602060002090600202016000909192909190915060008201518160000160006101000a81548160ff021916908360ff16021790555060208201518160000160016101000a81548160ff0219169083601281111562001d0957fe5b021790555060408201518160000160026101000a81548160ff0219169083601281111562001d3357fe5b021790555060608201518160010160008201518160000160006101000a81548161ffff021916908361ffff16021790555060208201518160000160026101000a81548161ffff021916908361ffff16021790555060408201518160000160046101000a81548161ffff021916908361ffff16021790555060608201518160000160066101000a81548161ffff021916908361ffff16021790555060808201518160000160086101000a81548161ffff021916908361ffff16021790555060a082015181600001600a6101000a81548161ffff021916908361ffff16021790555050505050506006608060405190810160405280600e60ff1681526020016006601281111562001e3e57fe5b81526020016003601281111562001e5157fe5b815260200160c060405190810160405280602d61ffff168152602001601961ffff168152602001603261ffff168152602001601961ffff168152602001601961ffff168152602001602361ffff168152508152509080600181540180825580915050906001820390600052602060002090600202016000909192909190915060008201518160000160006101000a81548160ff021916908360ff16021790555060208201518160000160016101000a81548160ff0219169083601281111562001f1657fe5b021790555060408201518160000160026101000a81548160ff0219169083601281111562001f4057fe5b021790555060608201518160010160008201518160000160006101000a81548161ffff021916908361ffff16021790555060208201518160000160026101000a81548161ffff021916908361ffff16021790555060408201518160000160046101000a81548161ffff021916908361ffff16021790555060608201518160000160066101000a81548161ffff021916908361ffff16021790555060808201518160000160086101000a81548161ffff021916908361ffff16021790555060a082015181600001600a6101000a81548161ffff021916908361ffff16021790555050505050506006608060405190810160405280600f60ff168152602001600660128111156200204b57fe5b8152602001600360128111156200205e57fe5b815260200160c060405190810160405280604161ffff168152602001605a61ffff168152602001602861ffff168152602001602d61ffff168152602001605061ffff168152602001604b61ffff168152508152509080600181540180825580915050906001820390600052602060002090600202016000909192909190915060008201518160000160006101000a81548160ff021916908360ff16021790555060208201518160000160016101000a81548160ff021916908360128111156200212357fe5b021790555060408201518160000160026101000a81548160ff021916908360128111156200214d57fe5b021790555060608201518160010160008201518160000160006101000a81548161ffff021916908361ffff16021790555060208201518160000160026101000a81548161ffff021916908361ffff16021790555060408201518160000160046101000a81548161ffff021916908361ffff16021790555060608201518160000160066101000a81548161ffff021916908361ffff16021790555060808201518160000160086101000a81548161ffff021916908361ffff16021790555060a082015181600001600a6101000a81548161ffff021916908361ffff16021790555050505050506006608060405190810160405280601060ff168152602001600060128111156200225857fe5b8152602001600260128111156200226b57fe5b815260200160c060405190810160405280602861ffff168152602001602d61ffff168152602001602861ffff168152602001602361ffff168152602001602361ffff168152602001603861ffff168152508152509080600181540180825580915050906001820390600052602060002090600202016000909192909190915060008201518160000160006101000a81548160ff021916908360ff16021790555060208201518160000160016101000a81548160ff021916908360128111156200233057fe5b021790555060408201518160000160026101000a81548160ff021916908360128111156200235a57fe5b021790555060608201518160010160008201518160000160006101000a81548161ffff021916908361ffff16021790555060208201518160000160026101000a81548161ffff021916908361ffff16021790555060408201518160000160046101000a81548161ffff021916908361ffff16021790555060608201518160000160066101000a81548161ffff021916908361ffff16021790555060808201518160000160086101000a81548161ffff021916908361ffff16021790555060a082015181600001600a6101000a81548161ffff021916908361ffff16021790555050505050506006608060405190810160405280601160ff168152602001600060128111156200246557fe5b8152602001600260128111156200247857fe5b815260200160c060405190810160405280603f61ffff168152602001603c61ffff168152602001603761ffff168152602001603261ffff168152602001603261ffff168152602001604761ffff168152508152509080600181540180825580915050906001820390600052602060002090600202016000909192909190915060008201518160000160006101000a81548160ff021916908360ff16021790555060208201518160000160016101000a81548160ff021916908360128111156200253d57fe5b021790555060408201518160000160026101000a81548160ff021916908360128111156200256757fe5b021790555060608201518160010160008201518160000160006101000a81548161ffff021916908361ffff16021790555060208201518160000160026101000a81548161ffff021916908361ffff16021790555060408201518160000160046101000a81548161ffff021916908361ffff16021790555060608201518160000160066101000a81548161ffff021916908361ffff16021790555060808201518160000160086101000a81548161ffff021916908361ffff16021790555060a082015181600001600a6101000a81548161ffff021916908361ffff16021790555050505050506006608060405190810160405280601260ff168152602001600060128111156200267257fe5b8152602001600260128111156200268557fe5b815260200160c060405190810160405280605361ffff168152602001605061ffff168152602001604b61ffff168152602001604661ffff168152602001604661ffff168152602001606561ffff168152508152509080600181540180825580915050906001820390600052602060002090600202016000909192909190915060008201518160000160006101000a81548160ff021916908360ff16021790555060208201518160000160016101000a81548160ff021916908360128111156200274a57fe5b021790555060408201518160000160026101000a81548160ff021916908360128111156200277457fe5b021790555060608201518160010160008201518160000160006101000a81548161ffff021916908361ffff16021790555060208201518160000160026101000a81548161ffff021916908361ffff16021790555060408201518160000160046101000a81548161ffff021916908361ffff16021790555060608201518160000160066101000a81548161ffff021916908361ffff16021790555060808201518160000160086101000a81548161ffff021916908361ffff16021790555060a082015181600001600a6101000a81548161ffff021916908361ffff16021790555050505050506006608060405190810160405280601360ff168152602001600060128111156200287f57fe5b81526020016012808111156200289157fe5b815260200160c060405190810160405280601e61ffff168152602001603861ffff168152602001602361ffff168152602001601961ffff168152602001602361ffff168152602001604861ffff168152508152509080600181540180825580915050906001820390600052602060002090600202016000909192909190915060008201518160000160006101000a81548160ff021916908360ff16021790555060208201518160000160016101000a81548160ff021916908360128111156200295657fe5b021790555060408201518160000160026101000a81548160ff021916908360128111156200298057fe5b021790555060608201518160010160008201518160000160006101000a81548161ffff021916908361ffff16021790555060208201518160000160026101000a81548161ffff021916908361ffff16021790555060408201518160000160046101000a81548161ffff021916908361ffff16021790555060608201518160000160066101000a81548161ffff021916908361ffff16021790555060808201518160000160086101000a81548161ffff021916908361ffff16021790555060a082015181600001600a6101000a81548161ffff021916908361ffff16021790555050505050506006608060405190810160405280601460ff1681526020016000601281111562002a8b57fe5b815260200160128081111562002a9d57fe5b815260200160c060405190810160405280603761ffff168152602001605161ffff168152602001603c61ffff168152602001603261ffff168152602001604661ffff168152602001606161ffff168152508152509080600181540180825580915050906001820390600052602060002090600202016000909192909190915060008201518160000160006101000a81548160ff021916908360ff16021790555060208201518160000160016101000a81548160ff0219169083601281111562002b6257fe5b021790555060408201518160000160026101000a81548160ff0219169083601281111562002b8c57fe5b021790555060608201518160010160008201518160000160006101000a81548161ffff021916908361ffff16021790555060208201518160000160026101000a81548161ffff021916908361ffff16021790555060408201518160000160046101000a81548161ffff021916908361ffff16021790555060608201518160000160066101000a81548161ffff021916908361ffff16021790555060808201518160000160086101000a81548161ffff021916908361ffff16021790555060a082015181600001600a6101000a81548161ffff021916908361ffff16021790555050505050506006608060405190810160405280601560ff1681526020016000601281111562002c9757fe5b81526020016002601281111562002caa57fe5b815260200160c060405190810160405280602861ffff168152602001603c61ffff168152602001601e61ffff168152602001601f61ffff168152602001601f61ffff168152602001604661ffff168152508152509080600181540180825580915050906001820390600052602060002090600202016000909192909190915060008201518160000160006101000a81548160ff021916908360ff16021790555060208201518160000160016101000a81548160ff0219169083601281111562002d6f57fe5b021790555060408201518160000160026101000a81548160ff0219169083601281111562002d9957fe5b021790555060608201518160010160008201518160000160006101000a81548161ffff021916908361ffff16021790555060208201518160000160026101000a81548161ffff021916908361ffff16021790555060408201518160000160046101000a81548161ffff021916908361ffff16021790555060608201518160000160066101000a81548161ffff021916908361ffff16021790555060808201518160000160086101000a81548161ffff021916908361ffff16021790555060a082015181600001600a6101000a81548161ffff021916908361ffff16021790555050505050506006608060405190810160405280601660ff1681526020016000601281111562002ea457fe5b81526020016002601281111562002eb757fe5b815260200160c060405190810160405280604161ffff168152602001605a61ffff168152602001604161ffff168152602001603d61ffff168152602001603d61ffff168152602001606461ffff168152508152509080600181540180825580915050906001820390600052602060002090600202016000909192909190915060008201518160000160006101000a81548160ff021916908360ff16021790555060208201518160000160016101000a81548160ff0219169083601281111562002f7c57fe5b021790555060408201518160000160026101000a81548160ff0219169083601281111562002fa657fe5b021790555060608201518160010160008201518160000160006101000a81548161ffff021916908361ffff16021790555060208201518160000160026101000a81548161ffff021916908361ffff16021790555060408201518160000160046101000a81548161ffff021916908361ffff16021790555060608201518160000160066101000a81548161ffff021916908361ffff16021790555060808201518160000160086101000a81548161ffff021916908361ffff16021790555060a082015181600001600a6101000a81548161ffff021916908361ffff16021790555050505050506006608060405190810160405280601760ff16815260200160036012811115620030b157fe5b8152602001601280811115620030c357fe5b815260200160c060405190810160405280602361ffff168152602001603c61ffff168152602001602c61ffff168152602001602861ffff168152602001603661ffff168152602001603761ffff168152508152509080600181540180825580915050906001820390600052602060002090600202016000909192909190915060008201518160000160006101000a81548160ff021916908360ff16021790555060208201518160000160016101000a81548160ff021916908360128111156200318857fe5b021790555060408201518160000160026101000a81548160ff02191690836012811115620031b257fe5b021790555060608201518160010160008201518160000160006101000a81548161ffff021916908361ffff16021790555060208201518160000160026101000a81548161ffff021916908361ffff16021790555060408201518160000160046101000a81548161ffff021916908361ffff16021790555060608201518160000160066101000a81548161ffff021916908361ffff16021790555060808201518160000160086101000a81548161ffff021916908361ffff16021790555060a082015181600001600a6101000a81548161ffff021916908361ffff16021790555050505050506006608060405190810160405280601860ff16815260200160036012811115620032bd57fe5b8152602001601280811115620032cf57fe5b815260200160c060405190810160405280603c61ffff168152602001605f61ffff168152602001604561ffff168152602001604161ffff168152602001604f61ffff168152602001605061ffff168152508152509080600181540180825580915050906001820390600052602060002090600202016000909192909190915060008201518160000160006101000a81548160ff021916908360ff16021790555060208201518160000160016101000a81548160ff021916908360128111156200339457fe5b021790555060408201518160000160026101000a81548160ff02191690836012811115620033be57fe5b021790555060608201518160010160008201518160000160006101000a81548161ffff021916908361ffff16021790555060208201518160000160026101000a81548161ffff021916908361ffff16021790555060408201518160000160046101000a81548161ffff021916908361ffff16021790555060608201518160000160066101000a81548161ffff021916908361ffff16021790555060808201518160000160086101000a81548161ffff021916908361ffff16021790555060a082015181600001600a6101000a81548161ffff021916908361ffff16021790555050505050506006608060405190810160405280601960ff168152602001600c6012811115620034c957fe5b8152602001601280811115620034db57fe5b815260200160c060405190810160405280602361ffff168152602001603761ffff168152602001602861ffff168152602001603261ffff168152602001603261ffff168152602001605a61ffff168152508152509080600181540180825580915050906001820390600052602060002090600202016000909192909190915060008201518160000160006101000a81548160ff021916908360ff16021790555060208201518160000160016101000a81548160ff02191690836012811115620035a057fe5b021790555060408201518160000160026101000a81548160ff02191690836012811115620035ca57fe5b021790555060608201518160010160008201518160000160006101000a81548161ffff021916908361ffff16021790555060208201518160000160026101000a81548161ffff021916908361ffff16021790555060408201518160000160046101000a81548161ffff021916908361ffff16021790555060608201518160000160066101000a81548161ffff021916908361ffff16021790555060808201518160000160086101000a81548161ffff021916908361ffff16021790555060a082015181600001600a6101000a81548161ffff021916908361ffff16021790555050505050506006608060405190810160405280601a60ff168152602001600c6012811115620036d557fe5b8152602001601280811115620036e757fe5b815260200160c060405190810160405280603c61ffff168152602001605a61ffff168152602001603761ffff168152602001605a61ffff168152602001605061ffff168152602001606e61ffff168152508152509080600181540180825580915050906001820390600052602060002090600202016000909192909190915060008201518160000160006101000a81548160ff021916908360ff16021790555060208201518160000160016101000a81548160ff02191690836012811115620037ac57fe5b021790555060408201518160000160026101000a81548160ff02191690836012811115620037d657fe5b021790555060608201518160010160008201518160000160006101000a81548161ffff021916908361ffff16021790555060208201518160000160026101000a81548161ffff021916908361ffff16021790555060408201518160000160046101000a81548161ffff021916908361ffff16021790555060608201518160000160066101000a81548161ffff021916908361ffff16021790555060808201518160000160086101000a81548161ffff021916908361ffff16021790555060a082015181600001600a6101000a81548161ffff021916908361ffff16021790555050505050506006608060405190810160405280601b60ff16815260200160046012811115620038e157fe5b8152602001601280811115620038f357fe5b815260200160c060405190810160405280603261ffff168152602001604b61ffff168152602001605561ffff168152602001601461ffff168152602001601e61ffff168152602001602861ffff168152508152509080600181540180825580915050906001820390600052602060002090600202016000909192909190915060008201518160000160006101000a81548160ff021916908360ff16021790555060208201518160000160016101000a81548160ff02191690836012811115620039b857fe5b021790555060408201518160000160026101000a81548160ff02191690836012811115620039e257fe5b021790555060608201518160010160008201518160000160006101000a81548161ffff021916908361ffff16021790555060208201518160000160026101000a81548161ffff021916908361ffff16021790555060408201518160000160046101000a81548161ffff021916908361ffff16021790555060608201518160000160066101000a81548161ffff021916908361ffff16021790555060808201518160000160086101000a81548161ffff021916908361ffff16021790555060a082015181600001600a6101000a81548161ffff021916908361ffff16021790555050505050506006608060405190810160405280601c60ff1681526020016004601281111562003aed57fe5b815260200160128081111562003aff57fe5b815260200160c060405190810160405280604b61ffff168152602001606461ffff168152602001606e61ffff168152602001602d61ffff168152602001603761ffff168152602001604161ffff168152508152509080600181540180825580915050906001820390600052602060002090600202016000909192909190915060008201518160000160006101000a81548160ff021916908360ff16021790555060208201518160000160016101000a81548160ff0219169083601281111562003bc457fe5b021790555060408201518160000160026101000a81548160ff0219169083601281111562003bee57fe5b021790555060608201518160010160008201518160000160006101000a81548161ffff021916908361ffff16021790555060208201518160000160026101000a81548161ffff021916908361ffff16021790555060408201518160000160046101000a81548161ffff021916908361ffff16021790555060608201518160000160066101000a81548161ffff021916908361ffff16021790555060808201518160000160086101000a81548161ffff021916908361ffff16021790555060a082015181600001600a6101000a81548161ffff021916908361ffff16021790555050505050506006608060405190810160405280601d60ff1681526020016003601281111562003cf957fe5b815260200160128081111562003d0b57fe5b815260200160c060405190810160405280603761ffff168152602001602f61ffff168152602001603461ffff168152602001602861ffff168152602001602861ffff168152602001602961ffff168152508152509080600181540180825580915050906001820390600052602060002090600202016000909192909190915060008201518160000160006101000a81548160ff021916908360ff16021790555060208201518160000160016101000a81548160ff0219169083601281111562003dd057fe5b021790555060408201518160000160026101000a81548160ff0219169083601281111562003dfa57fe5b021790555060608201518160010160008201518160000160006101000a81548161ffff021916908361ffff16021790555060208201518160000160026101000a81548161ffff021916908361ffff16021790555060408201518160000160046101000a81548161ffff021916908361ffff16021790555060608201518160000160066101000a81548161ffff021916908361ffff16021790555060808201518160000160086101000a81548161ffff021916908361ffff16021790555060a082015181600001600a6101000a81548161ffff021916908361ffff16021790555050505050506006608060405190810160405280601e60ff1681526020016003601281111562003f0557fe5b815260200160128081111562003f1757fe5b815260200160c060405190810160405280604661ffff168152602001603e61ffff168152602001604361ffff168152602001603761ffff168152602001603761ffff168152602001603861ffff168152508152509080600181540180825580915050906001820390600052602060002090600202016000909192909190915060008201518160000160006101000a81548160ff021916908360ff16021790555060208201518160000160016101000a81548160ff0219169083601281111562003fdc57fe5b021790555060408201518160000160026101000a81548160ff021916908360128111156200400657fe5b021790555060608201518160010160008201518160000160006101000a81548161ffff021916908361ffff16021790555060208201518160000160026101000a81548161ffff021916908361ffff16021790555060408201518160000160046101000a81548161ffff021916908361ffff16021790555060608201518160000160066101000a81548161ffff021916908361ffff16021790555060808201518160000160086101000a81548161ffff021916908361ffff16021790555060a082015181600001600a6101000a81548161ffff021916908361ffff16021790555050505050506006608060405190810160405280601f60ff168152602001600360128111156200411157fe5b8152602001600460128111156200412457fe5b815260200160c060405190810160405280605a61ffff168152602001605c61ffff168152602001605761ffff168152602001604b61ffff168152602001605561ffff168152602001604c61ffff168152508152509080600181540180825580915050906001820390600052602060002090600202016000909192909190915060008201518160000160006101000a81548160ff021916908360ff16021790555060208201518160000160016101000a81548160ff02191690836012811115620041e957fe5b021790555060408201518160000160026101000a81548160ff021916908360128111156200421357fe5b021790555060608201518160010160008201518160000160006101000a81548161ffff021916908361ffff16021790555060208201518160000160026101000a81548161ffff021916908361ffff16021790555060408201518160000160046101000a81548161ffff021916908361ffff16021790555060608201518160000160066101000a81548161ffff021916908361ffff16021790555060808201518160000160086101000a81548161ffff021916908361ffff16021790555060a082015181600001600a6101000a81548161ffff021916908361ffff16021790555050505050506006608060405190810160405280602060ff168152602001600360128111156200431e57fe5b81526020016012808111156200433057fe5b815260200160c060405190810160405280602e61ffff168152602001603961ffff168152602001602861ffff168152602001602861ffff168152602001602861ffff168152602001603261ffff168152508152509080600181540180825580915050906001820390600052602060002090600202016000909192909190915060008201518160000160006101000a81548160ff021916908360ff16021790555060208201518160000160016101000a81548160ff02191690836012811115620043f557fe5b021790555060408201518160000160026101000a81548160ff021916908360128111156200441f57fe5b021790555060608201518160010160008201518160000160006101000a81548161ffff021916908361ffff16021790555060208201518160000160026101000a81548161ffff021916908361ffff16021790555060408201518160000160046101000a81548161ffff021916908361ffff16021790555060608201518160000160066101000a81548161ffff021916908361ffff16021790555060808201518160000160086101000a81548161ffff021916908361ffff16021790555060a082015181600001600a6101000a81548161ffff021916908361ffff16021790555050505050506006608060405190810160405280602160ff168152602001600360128111156200452a57fe5b81526020016012808111156200453c57fe5b815260200160c060405190810160405280603d61ffff168152602001604861ffff168152602001603961ffff168152602001603761ffff168152602001603761ffff168152602001604161ffff168152508152509080600181540180825580915050906001820390600052602060002090600202016000909192909190915060008201518160000160006101000a81548160ff021916908360ff16021790555060208201518160000160016101000a81548160ff021916908360128111156200460157fe5b021790555060408201518160000160026101000a81548160ff021916908360128111156200462b57fe5b021790555060608201518160010160008201518160000160006101000a81548161ffff021916908361ffff16021790555060208201518160000160026101000a81548161ffff021916908361ffff16021790555060408201518160000160046101000a81548161ffff021916908361ffff16021790555060608201518160000160066101000a81548161ffff021916908361ffff16021790555060808201518160000160086101000a81548161ffff021916908361ffff16021790555060a082015181600001600a6101000a81548161ffff021916908361ffff16021790555050505050506006608060405190810160405280602260ff168152602001600360128111156200473657fe5b8152602001600460128111156200474957fe5b815260200160c060405190810160405280605161ffff168152602001606661ffff168152602001604d61ffff168152602001605561ffff168152602001604b61ffff168152602001605561ffff168152508152509080600181540180825580915050906001820390600052602060002090600202016000909192909190915060008201518160000160006101000a81548160ff021916908360ff16021790555060208201518160000160016101000a81548160ff021916908360128111156200480e57fe5b021790555060408201518160000160026101000a81548160ff021916908360128111156200483857fe5b021790555060608201518160010160008201518160000160006101000a81548161ffff021916908361ffff16021790555060208201518160000160026101000a81548161ffff021916908361ffff16021790555060408201518160000160046101000a81548161ffff021916908361ffff16021790555060608201518160000160066101000a81548161ffff021916908361ffff16021790555060808201518160000160086101000a81548161ffff021916908361ffff16021790555060a082015181600001600a6101000a81548161ffff021916908361ffff16021790555050505050506006608060405190810160405280602360ff168152602001601160128111156200494357fe5b81526020016012808111156200495557fe5b815260200160c060405190810160405280604661ffff168152602001602d61ffff168152602001603061ffff168152602001603c61ffff168152602001604161ffff168152602001602361ffff168152508152509080600181540180825580915050906001820390600052602060002090600202016000909192909190915060008201518160000160006101000a81548160ff021916908360ff16021790555060208201518160000160016101000a81548160ff0219169083601281111562004a1a57fe5b021790555060408201518160000160026101000a81548160ff0219169083601281111562004a4457fe5b021790555060608201518160010160008201518160000160006101000a81548161ffff021916908361ffff16021790555060208201518160000160026101000a81548161ffff021916908361ffff16021790555060408201518160000160046101000a81548161ffff021916908361ffff16021790555060608201518160000160066101000a81548161ffff021916908361ffff16021790555060808201518160000160086101000a81548161ffff021916908361ffff16021790555060a082015181600001600a6101000a81548161ffff021916908361ffff16021790555050505050506006608060405190810160405280602460ff1681526020016011601281111562004b4f57fe5b815260200160128081111562004b6157fe5b815260200160c060405190810160405280605f61ffff168152602001604661ffff168152602001604961ffff168152602001605f61ffff168152602001605a61ffff168152602001603c61ffff168152508152509080600181540180825580915050906001820390600052602060002090600202016000909192909190915060008201518160000160006101000a81548160ff021916908360ff16021790555060208201518160000160016101000a81548160ff0219169083601281111562004c2657fe5b021790555060408201518160000160026101000a81548160ff0219169083601281111562004c5057fe5b021790555060608201518160010160008201518160000160006101000a81548161ffff021916908361ffff16021790555060208201518160000160026101000a81548161ffff021916908361ffff16021790555060408201518160000160046101000a81548161ffff021916908361ffff16021790555060608201518160000160066101000a81548161ffff021916908361ffff16021790555060808201518160000160086101000a81548161ffff021916908361ffff16021790555060a082015181600001600a6101000a81548161ffff021916908361ffff16021790555050505050506006608060405190810160405280602560ff1681526020016009601281111562004d5b57fe5b815260200160128081111562004d6d57fe5b815260200160c060405190810160405280602661ffff168152602001602961ffff168152602001602861ffff168152602001603261ffff168152602001604161ffff168152602001604161ffff168152508152509080600181540180825580915050906001820390600052602060002090600202016000909192909190915060008201518160000160006101000a81548160ff021916908360ff16021790555060208201518160000160016101000a81548160ff0219169083601281111562004e3257fe5b021790555060408201518160000160026101000a81548160ff0219169083601281111562004e5c57fe5b021790555060608201518160010160008201518160000160006101000a81548161ffff021916908361ffff16021790555060208201518160000160026101000a81548161ffff021916908361ffff16021790555060408201518160000160046101000a81548161ffff021916908361ffff16021790555060608201518160000160066101000a81548161ffff021916908361ffff16021790555060808201518160000160086101000a81548161ffff021916908361ffff16021790555060a082015181600001600a6101000a81548161ffff021916908361ffff16021790555050505050506006608060405190810160405280602660ff1681526020016009601281111562004f6757fe5b815260200160128081111562004f7957fe5b815260200160c060405190810160405280604961ffff168152602001604c61ffff168152602001604b61ffff168152602001605161ffff168152602001606461ffff168152602001606461ffff168152508152509080600181540180825580915050906001820390600052602060002090600202016000909192909190915060008201518160000160006101000a81548160ff021916908360ff16021790555060208201518160000160016101000a81548160ff021916908360128111156200503e57fe5b021790555060408201518160000160026101000a81548160ff021916908360128111156200506857fe5b021790555060608201518160010160008201518160000160006101000a81548161ffff021916908361ffff16021790555060208201518160000160026101000a81548161ffff021916908361ffff16021790555060408201518160000160046101000a81548161ffff021916908361ffff16021790555060608201518160000160066101000a81548161ffff021916908361ffff16021790555060808201518160000160086101000a81548161ffff021916908361ffff16021790555060a082015181600001600a6101000a81548161ffff021916908361ffff16021790555050505050506006608060405190810160405280602760ff168152602001600060128111156200517357fe5b8152602001601160128111156200518657fe5b815260200160c060405190810160405280607361ffff168152602001602d61ffff168152602001601461ffff168152602001602d61ffff168152602001601961ffff168152602001601461ffff168152508152509080600181540180825580915050906001820390600052602060002090600202016000909192909190915060008201518160000160006101000a81548160ff021916908360ff16021790555060208201518160000160016101000a81548160ff021916908360128111156200524b57fe5b021790555060408201518160000160026101000a81548160ff021916908360128111156200527557fe5b021790555060608201518160010160008201518160000160006101000a81548161ffff021916908361ffff16021790555060208201518160000160026101000a81548161ffff021916908361ffff16021790555060408201518160000160046101000a81548161ffff021916908361ffff16021790555060608201518160000160066101000a81548161ffff021916908361ffff16021790555060808201518160000160086101000a81548161ffff021916908361ffff16021790555060a082015181600001600a6101000a81548161ffff021916908361ffff16021790555050505050506006608060405190810160405280602860ff168152602001600060128111156200538057fe5b8152602001601160128111156200539357fe5b815260200160c060405190810160405280608c61ffff168152602001604661ffff168152602001602d61ffff168152602001605561ffff168152602001603261ffff168152602001602d61ffff168152508152509080600181540180825580915050906001820390600052602060002090600202016000909192909190915060008201518160000160006101000a81548160ff021916908360ff16021790555060208201518160000160016101000a81548160ff021916908360128111156200545857fe5b021790555060408201518160000160026101000a81548160ff021916908360128111156200548257fe5b021790555060608201518160010160008201518160000160006101000a81548161ffff021916908361ffff16021790555060208201518160000160026101000a81548161ffff021916908361ffff16021790555060408201518160000160046101000a81548161ffff021916908361ffff16021790555060608201518160000160066101000a81548161ffff021916908361ffff16021790555060808201518160000160086101000a81548161ffff021916908361ffff16021790555060a082015181600001600a6101000a81548161ffff021916908361ffff16021790555050505050506006608060405190810160405280602960ff168152602001600360128111156200558d57fe5b815260200160026012811115620055a057fe5b815260200160c060405190810160405280602861ffff168152602001602d61ffff168152602001602361ffff168152602001601e61ffff168152602001602861ffff168152602001603761ffff168152508152509080600181540180825580915050906001820390600052602060002090600202016000909192909190915060008201518160000160006101000a81548160ff021916908360ff16021790555060208201518160000160016101000a81548160ff021916908360128111156200566557fe5b021790555060408201518160000160026101000a81548160ff021916908360128111156200568f57fe5b021790555060608201518160010160008201518160000160006101000a81548161ffff021916908361ffff16021790555060208201518160000160026101000a81548161ffff021916908361ffff16021790555060408201518160000160046101000a81548161ffff021916908361ffff16021790555060608201518160000160066101000a81548161ffff021916908361ffff16021790555060808201518160000160086101000a81548161ffff021916908361ffff16021790555060a082015181600001600a6101000a81548161ffff021916908361ffff16021790555050505050506006608060405190810160405280602a60ff168152602001600360128111156200579a57fe5b815260200160026012811115620057ad57fe5b815260200160c060405190810160405280604b61ffff168152602001605061ffff168152602001604661ffff168152602001604161ffff168152602001604b61ffff168152602001605a61ffff168152508152509080600181540180825580915050906001820390600052602060002090600202016000909192909190915060008201518160000160006101000a81548160ff021916908360ff16021790555060208201518160000160016101000a81548160ff021916908360128111156200587257fe5b021790555060408201518160000160026101000a81548160ff021916908360128111156200589c57fe5b021790555060608201518160010160008201518160000160006101000a81548161ffff021916908361ffff16021790555060208201518160000160026101000a81548161ffff021916908361ffff16021790555060408201518160000160046101000a81548161ffff021916908361ffff16021790555060608201518160000160066101000a81548161ffff021916908361ffff16021790555060808201518160000160086101000a81548161ffff021916908361ffff16021790555060a082015181600001600a6101000a81548161ffff021916908361ffff16021790555050505050506006608060405190810160405280602b60ff168152602001600b6012811115620059a757fe5b815260200160036012811115620059ba57fe5b815260200160c060405190810160405280602d61ffff168152602001603261ffff168152602001603761ffff168152602001604b61ffff168152602001604161ffff168152602001601e61ffff168152508152509080600181540180825580915050906001820390600052602060002090600202016000909192909190915060008201518160000160006101000a81548160ff021916908360ff16021790555060208201518160000160016101000a81548160ff0219169083601281111562005a7f57fe5b021790555060408201518160000160026101000a81548160ff0219169083601281111562005aa957fe5b021790555060608201518160010160008201518160000160006101000a81548161ffff021916908361ffff16021790555060208201518160000160026101000a81548161ffff021916908361ffff16021790555060408201518160000160046101000a81548161ffff021916908361ffff16021790555060608201518160000160066101000a81548161ffff021916908361ffff16021790555060808201518160000160086101000a81548161ffff021916908361ffff16021790555060a082015181600001600a6101000a81548161ffff021916908361ffff16021790555050505050506006608060405190810160405280602c60ff168152602001600b601281111562005bb457fe5b81526020016003601281111562005bc757fe5b815260200160c060405190810160405280603c61ffff168152602001604161ffff168152602001604661ffff168152602001605561ffff168152602001604b61ffff168152602001602861ffff168152508152509080600181540180825580915050906001820390600052602060002090600202016000909192909190915060008201518160000160006101000a81548160ff021916908360ff16021790555060208201518160000160016101000a81548160ff0219169083601281111562005c8c57fe5b021790555060408201518160000160026101000a81548160ff0219169083601281111562005cb657fe5b021790555060608201518160010160008201518160000160006101000a81548161ffff021916908361ffff16021790555060208201518160000160026101000a81548161ffff021916908361ffff16021790555060408201518160000160046101000a81548161ffff021916908361ffff16021790555060608201518160000160066101000a81548161ffff021916908361ffff16021790555060808201518160000160086101000a81548161ffff021916908361ffff16021790555060a082015181600001600a6101000a81548161ffff021916908361ffff16021790555050505050506006608060405190810160405280602d60ff168152602001600b601281111562005dc157fe5b81526020016003601281111562005dd457fe5b815260200160c060405190810160405280604b61ffff168152602001605061ffff168152602001605561ffff168152602001606e61ffff168152602001605a61ffff168152602001603261ffff168152508152509080600181540180825580915050906001820390600052602060002090600202016000909192909190915060008201518160000160006101000a81548160ff021916908360ff16021790555060208201518160000160016101000a81548160ff0219169083601281111562005e9957fe5b021790555060408201518160000160026101000a81548160ff0219169083601281111562005ec357fe5b021790555060608201518160010160008201518160000160006101000a81548161ffff021916908361ffff16021790555060208201518160000160026101000a81548161ffff021916908361ffff16021790555060408201518160000160046101000a81548161ffff021916908361ffff16021790555060608201518160000160066101000a81548161ffff021916908361ffff16021790555060808201518160000160086101000a81548161ffff021916908361ffff16021790555060a082015181600001600a6101000a81548161ffff021916908361ffff16021790555050505050506006608060405190810160405280602e60ff1681526020016006601281111562005fce57fe5b8152602001600b601281111562005fe157fe5b815260200160c060405190810160405280602361ffff168152602001604661ffff168152602001603761ffff168152602001602d61ffff168152602001603761ffff168152602001601961ffff168152508152509080600181540180825580915050906001820390600052602060002090600202016000909192909190915060008201518160000160006101000a81548160ff021916908360ff16021790555060208201518160000160016101000a81548160ff02191690836012811115620060a657fe5b021790555060408201518160000160026101000a81548160ff02191690836012811115620060d057fe5b021790555060608201518160010160008201518160000160006101000a81548161ffff021916908361ffff16021790555060208201518160000160026101000a81548161ffff021916908361ffff16021790555060408201518160000160046101000a81548161ffff021916908361ffff16021790555060608201518160000160066101000a81548161ffff021916908361ffff16021790555060808201518160000160086101000a81548161ffff021916908361ffff16021790555060a082015181600001600a6101000a81548161ffff021916908361ffff16021790555050505050506006608060405190810160405280602f60ff16815260200160066012811115620061db57fe5b8152602001600b6012811115620061ee57fe5b815260200160c060405190810160405280603c61ffff168152602001605f61ffff168152602001605061ffff168152602001603c61ffff168152602001605061ffff168152602001601e61ffff168152508152509080600181540180825580915050906001820390600052602060002090600202016000909192909190915060008201518160000160006101000a81548160ff021916908360ff16021790555060208201518160000160016101000a81548160ff02191690836012811115620062b357fe5b021790555060408201518160000160026101000a81548160ff02191690836012811115620062dd57fe5b021790555060608201518160010160008201518160000160006101000a81548161ffff021916908361ffff16021790555060208201518160000160026101000a81548161ffff021916908361ffff16021790555060408201518160000160046101000a81548161ffff021916908361ffff16021790555060608201518160000160066101000a81548161ffff021916908361ffff16021790555060808201518160000160086101000a81548161ffff021916908361ffff16021790555060a082015181600001600a6101000a81548161ffff021916908361ffff16021790555050505050506006608060405190810160405280603060ff16815260200160066012811115620063e857fe5b815260200160036012811115620063fb57fe5b815260200160c060405190810160405280603c61ffff168152602001603761ffff168152602001603261ffff168152602001602861ffff168152602001603761ffff168152602001602d61ffff168152508152509080600181540180825580915050906001820390600052602060002090600202016000909192909190915060008201518160000160006101000a81548160ff021916908360ff16021790555060208201518160000160016101000a81548160ff02191690836012811115620064c057fe5b021790555060408201518160000160026101000a81548160ff02191690836012811115620064ea57fe5b021790555060608201518160010160008201518160000160006101000a81548161ffff021916908361ffff16021790555060208201518160000160026101000a81548161ffff021916908361ffff16021790555060408201518160000160046101000a81548161ffff021916908361ffff16021790555060608201518160000160066101000a81548161ffff021916908361ffff16021790555060808201518160000160086101000a81548161ffff021916908361ffff16021790555060a082015181600001600a6101000a81548161ffff021916908361ffff16021790555050505050506006608060405190810160405280603160ff16815260200160066012811115620065f557fe5b8152602001600360128111156200660857fe5b815260200160c060405190810160405280604661ffff168152602001604161ffff168152602001603c61ffff168152602001605a61ffff168152602001604b61ffff168152602001605a61ffff168152508152509080600181540180825580915050906001820390600052602060002090600202016000909192909190915060008201518160000160006101000a81548160ff021916908360ff16021790555060208201518160000160016101000a81548160ff02191690836012811115620066cd57fe5b021790555060408201518160000160026101000a81548160ff02191690836012811115620066f757fe5b021790555060608201518160010160008201518160000160006101000a81548161ffff021916908361ffff16021790555060208201518160000160026101000a81548161ffff021916908361ffff16021790555060408201518160000160046101000a81548161ffff021916908361ffff16021790555060608201518160000160066101000a81548161ffff021916908361ffff16021790555060808201518160000160086101000a81548161ffff021916908361ffff16021790555060a082015181600001600a6101000a81548161ffff021916908361ffff16021790555050505050506006608060405190810160405280603260ff168152602001600460128111156200680257fe5b81526020016012808111156200681457fe5b815260200160c060405190810160405280600a61ffff168152602001603761ffff168152602001601961ffff168152602001602361ffff168152602001602d61ffff168152602001605f61ffff168152508152509080600181540180825580915050906001820390600052602060002090600202016000909192909190915060008201518160000160006101000a81548160ff021916908360ff16021790555060208201518160000160016101000a81548160ff02191690836012811115620068d957fe5b021790555060408201518160000160026101000a81548160ff021916908360128111156200690357fe5b021790555060608201518160010160008201518160000160006101000a81548161ffff021916908361ffff16021790555060208201518160000160026101000a81548161ffff021916908361ffff16021790555060408201518160000160046101000a81548161ffff021916908361ffff16021790555060608201518160000160066101000a81548161ffff021916908361ffff16021790555060808201518160000160086101000a81548161ffff021916908361ffff16021790555060a082015181600001600a6101000a81548161ffff021916908361ffff16021790555050505050506006608060405190810160405280603360ff1681526020016004601281111562006a0e57fe5b815260200160128081111562006a2057fe5b815260200160c060405190810160405280602361ffff168152602001606461ffff168152602001603261ffff168152602001603261ffff168152602001604661ffff168152602001607861ffff168152508152509080600181540180825580915050906001820390600052602060002090600202016000909192909190915060008201518160000160006101000a81548160ff021916908360ff16021790555060208201518160000160016101000a81548160ff0219169083601281111562006ae557fe5b021790555060408201518160000160026101000a81548160ff0219169083601281111562006b0f57fe5b021790555060608201518160010160008201518160000160006101000a81548161ffff021916908361ffff16021790555060208201518160000160026101000a81548161ffff021916908361ffff16021790555060408201518160000160046101000a81548161ffff021916908361ffff16021790555060608201518160000160066101000a81548161ffff021916908361ffff16021790555060808201518160000160086101000a81548161ffff021916908361ffff16021790555060a082015181600001600a6101000a81548161ffff021916908361ffff16021790555050505050506006608060405190810160405280603460ff1681526020016000601281111562006c1a57fe5b815260200160128081111562006c2c57fe5b815260200160c060405190810160405280602861ffff168152602001602d61ffff168152602001602361ffff168152602001602861ffff168152602001602861ffff168152602001605a61ffff168152508152509080600181540180825580915050906001820390600052602060002090600202016000909192909190915060008201518160000160006101000a81548160ff021916908360ff16021790555060208201518160000160016101000a81548160ff0219169083601281111562006cf157fe5b021790555060408201518160000160026101000a81548160ff0219169083601281111562006d1b57fe5b021790555060608201518160010160008201518160000160006101000a81548161ffff021916908361ffff16021790555060208201518160000160026101000a81548161ffff021916908361ffff16021790555060408201518160000160046101000a81548161ffff021916908361ffff16021790555060608201518160000160066101000a81548161ffff021916908361ffff16021790555060808201518160000160086101000a81548161ffff021916908361ffff16021790555060a082015181600001600a6101000a81548161ffff021916908361ffff16021790555050505050506006608060405190810160405280603560ff1681526020016000601281111562006e2657fe5b815260200160128081111562006e3857fe5b815260200160c060405190810160405280604161ffff168152602001604661ffff168152602001603c61ffff168152602001604161ffff168152602001604161ffff168152602001607361ffff168152508152509080600181540180825580915050906001820390600052602060002090600202016000909192909190915060008201518160000160006101000a81548160ff021916908360ff16021790555060208201518160000160016101000a81548160ff0219169083601281111562006efd57fe5b021790555060408201518160000160026101000a81548160ff0219169083601281111562006f2757fe5b021790555060608201518160010160008201518160000160006101000a81548161ffff021916908361ffff16021790555060208201518160000160026101000a81548161ffff021916908361ffff16021790555060408201518160000160046101000a81548161ffff021916908361ffff16021790555060608201518160000160066101000a81548161ffff021916908361ffff16021790555060808201518160000160086101000a81548161ffff021916908361ffff16021790555060a082015181600001600a6101000a81548161ffff021916908361ffff16021790555050505050506006608060405190810160405280603660ff168152602001600a60128111156200703257fe5b81526020016012808111156200704457fe5b815260200160c060405190810160405280603261ffff168152602001603461ffff168152602001603061ffff168152602001604161ffff168152602001603261ffff168152602001603761ffff168152508152509080600181540180825580915050906001820390600052602060002090600202016000909192909190915060008201518160000160006101000a81548160ff021916908360ff16021790555060208201518160000160016101000a81548160ff021916908360128111156200710957fe5b021790555060408201518160000160026101000a81548160ff021916908360128111156200713357fe5b021790555060608201518160010160008201518160000160006101000a81548161ffff021916908361ffff16021790555060208201518160000160026101000a81548161ffff021916908361ffff16021790555060408201518160000160046101000a81548161ffff021916908361ffff16021790555060608201518160000160066101000a81548161ffff021916908361ffff16021790555060808201518160000160086101000a81548161ffff021916908361ffff16021790555060a082015181600001600a6101000a81548161ffff021916908361ffff16021790555050505050506006608060405190810160405280603760ff168152602001600a60128111156200723e57fe5b81526020016012808111156200725057fe5b815260200160c060405190810160405280605061ffff168152602001605261ffff168152602001604e61ffff168152602001605f61ffff168152602001605061ffff168152602001605561ffff168152508152509080600181540180825580915050906001820390600052602060002090600202016000909192909190915060008201518160000160006101000a81548160ff021916908360ff16021790555060208201518160000160016101000a81548160ff021916908360128111156200731557fe5b021790555060408201518160000160026101000a81548160ff021916908360128111156200733f57fe5b021790555060608201518160010160008201518160000160006101000a81548161ffff021916908361ffff16021790555060208201518160000160026101000a81548161ffff021916908361ffff16021790555060408201518160000160046101000a81548161ffff021916908361ffff16021790555060608201518160000160066101000a81548161ffff021916908361ffff16021790555060808201518160000160086101000a81548161ffff021916908361ffff16021790555060a082015181600001600a6101000a81548161ffff021916908361ffff16021790555050505050506006608060405190810160405280603860ff168152602001600160128111156200744a57fe5b81526020016012808111156200745c57fe5b815260200160c060405190810160405280602861ffff168152602001605061ffff168152602001602361ffff168152602001602361ffff168152602001602d61ffff168152602001604661ffff168152508152509080600181540180825580915050906001820390600052602060002090600202016000909192909190915060008201518160000160006101000a81548160ff021916908360ff16021790555060208201518160000160016101000a81548160ff021916908360128111156200752157fe5b021790555060408201518160000160026101000a81548160ff021916908360128111156200754b57fe5b021790555060608201518160010160008201518160000160006101000a81548161ffff021916908361ffff16021790555060208201518160000160026101000a81548161ffff021916908361ffff16021790555060408201518160000160046101000a81548161ffff021916908361ffff16021790555060608201518160000160066101000a81548161ffff021916908361ffff16021790555060808201518160000160086101000a81548161ffff021916908361ffff16021790555060a082015181600001600a6101000a81548161ffff021916908361ffff16021790555050505050506006608060405190810160405280603960ff168152602001600160128111156200765657fe5b81526020016012808111156200766857fe5b815260200160c060405190810160405280604161ffff168152602001606961ffff168152602001603c61ffff168152602001603c61ffff168152602001604661ffff168152602001605f61ffff168152508152509080600181540180825580915050906001820390600052602060002090600202016000909192909190915060008201518160000160006101000a81548160ff021916908360ff16021790555060208201518160000160016101000a81548160ff021916908360128111156200772d57fe5b021790555060408201518160000160026101000a81548160ff021916908360128111156200775757fe5b021790555060608201518160010160008201518160000160006101000a81548161ffff021916908361ffff16021790555060208201518160000160026101000a81548161ffff021916908361ffff16021790555060408201518160000160046101000a81548161ffff021916908361ffff16021790555060608201518160000160066101000a81548161ffff021916908361ffff16021790555060808201518160000160086101000a81548161ffff021916908361ffff16021790555060a082015181600001600a6101000a81548161ffff021916908361ffff16021790555050505050506006608060405190810160405280603a60ff168152602001600960128111156200786257fe5b81526020016012808111156200787457fe5b815260200160c060405190810160405280603761ffff168152602001604661ffff168152602001602d61ffff168152602001604661ffff168152602001603261ffff168152602001603c61ffff168152508152509080600181540180825580915050906001820390600052602060002090600202016000909192909190915060008201518160000160006101000a81548160ff021916908360ff16021790555060208201518160000160016101000a81548160ff021916908360128111156200793957fe5b021790555060408201518160000160026101000a81548160ff021916908360128111156200796357fe5b021790555060608201518160010160008201518160000160006101000a81548161ffff021916908361ffff16021790555060208201518160000160026101000a81548161ffff021916908361ffff16021790555060408201518160000160046101000a81548161ffff021916908361ffff16021790555060608201518160000160066101000a81548161ffff021916908361ffff16021790555060808201518160000160086101000a81548161ffff021916908361ffff16021790555060a082015181600001600a6101000a81548161ffff021916908361ffff16021790555050505050506006608060405190810160405280603b60ff1681526020016009601281111562007a6e57fe5b815260200160128081111562007a8057fe5b815260200160c060405190810160405280605a61ffff168152602001606e61ffff168152602001605061ffff168152602001606461ffff168152602001605061ffff168152602001605f61ffff168152508152509080600181540180825580915050906001820390600052602060002090600202016000909192909190915060008201518160000160006101000a81548160ff021916908360ff16021790555060208201518160000160016101000a81548160ff0219169083601281111562007b4557fe5b021790555060408201518160000160026101000a81548160ff0219169083601281111562007b6f57fe5b021790555060608201518160010160008201518160000160006101000a81548161ffff021916908361ffff16021790555060208201518160000160026101000a81548161ffff021916908361ffff16021790555060408201518160000160046101000a81548161ffff021916908361ffff16021790555060608201518160000160066101000a81548161ffff021916908361ffff16021790555060808201518160000160086101000a81548161ffff021916908361ffff16021790555060a082015181600001600a6101000a81548161ffff021916908361ffff16021790555050505050506006608060405190810160405280603c60ff168152602001600a601281111562007c7a57fe5b815260200160128081111562007c8c57fe5b815260200160c060405190810160405280602861ffff168152602001603261ffff168152602001602861ffff168152602001602861ffff168152602001602861ffff168152602001605a61ffff168152508152509080600181540180825580915050906001820390600052602060002090600202016000909192909190915060008201518160000160006101000a81548160ff021916908360ff16021790555060208201518160000160016101000a81548160ff0219169083601281111562007d5157fe5b021790555060408201518160000160026101000a81548160ff0219169083601281111562007d7b57fe5b021790555060608201518160010160008201518160000160006101000a81548161ffff021916908361ffff16021790555060208201518160000160026101000a81548161ffff021916908361ffff16021790555060408201518160000160046101000a81548161ffff021916908361ffff16021790555060608201518160000160066101000a81548161ffff021916908361ffff16021790555060808201518160000160086101000a81548161ffff021916908361ffff16021790555060a082015181600001600a6101000a81548161ffff021916908361ffff16021790555050505050506006608060405190810160405280603d60ff168152602001600a601281111562007e8657fe5b815260200160128081111562007e9857fe5b815260200160c060405190810160405280604161ffff168152602001604161ffff168152602001604161ffff168152602001603261ffff168152602001603261ffff168152602001605a61ffff168152508152509080600181540180825580915050906001820390600052602060002090600202016000909192909190915060008201518160000160006101000a81548160ff021916908360ff16021790555060208201518160000160016101000a81548160ff0219169083601281111562007f5d57fe5b021790555060408201518160000160026101000a81548160ff0219169083601281111562007f8757fe5b021790555060608201518160010160008201518160000160006101000a81548161ffff021916908361ffff16021790555060208201518160000160026101000a81548161ffff021916908361ffff16021790555060408201518160000160046101000a81548161ffff021916908361ffff16021790555060608201518160000160066101000a81548161ffff021916908361ffff16021790555060808201518160000160086101000a81548161ffff021916908361ffff16021790555060a082015181600001600a6101000a81548161ffff021916908361ffff16021790555050505050506006608060405190810160405280603e60ff168152602001600a60128111156200809257fe5b815260200160016012811115620080a557fe5b815260200160c060405190810160405280605a61ffff168152602001605f61ffff168152602001605f61ffff168152602001604661ffff168152602001605a61ffff168152602001604661ffff168152508152509080600181540180825580915050906001820390600052602060002090600202016000909192909190915060008201518160000160006101000a81548160ff021916908360ff16021790555060208201518160000160016101000a81548160ff021916908360128111156200816a57fe5b021790555060408201518160000160026101000a81548160ff021916908360128111156200819457fe5b021790555060608201518160010160008201518160000160006101000a81548161ffff021916908361ffff16021790555060208201518160000160026101000a81548161ffff021916908361ffff16021790555060408201518160000160046101000a81548161ffff021916908361ffff16021790555060608201518160000160066101000a81548161ffff021916908361ffff16021790555060808201518160000160086101000a81548161ffff021916908361ffff16021790555060a082015181600001600a6101000a81548161ffff021916908361ffff16021790555050505050506006608060405190810160405280603f60ff168152602001600d60128111156200829f57fe5b8152602001601280811115620082b157fe5b815260200160c060405190810160405280601961ffff168152602001601461ffff168152602001600f61ffff168152602001606961ffff168152602001603761ffff168152602001605a61ffff168152508152509080600181540180825580915050906001820390600052602060002090600202016000909192909190915060008201518160000160006101000a81548160ff021916908360ff16021790555060208201518160000160016101000a81548160ff021916908360128111156200837657fe5b021790555060408201518160000160026101000a81548160ff02191690836012811115620083a057fe5b021790555060608201518160010160008201518160000160006101000a81548161ffff021916908361ffff16021790555060208201518160000160026101000a81548161ffff021916908361ffff16021790555060408201518160000160046101000a81548161ffff021916908361ffff16021790555060608201518160000160066101000a81548161ffff021916908361ffff16021790555060808201518160000160086101000a81548161ffff021916908361ffff16021790555060a082015181600001600a6101000a81548161ffff021916908361ffff16021790555050505050506006608060405190810160405280604060ff168152602001600d6012811115620084ab57fe5b8152602001601280811115620084bd57fe5b815260200160c060405190810160405280602861ffff168152602001602361ffff168152602001601e61ffff168152602001607861ffff168152602001604661ffff168152602001606961ffff168152508152509080600181540180825580915050906001820390600052602060002090600202016000909192909190915060008201518160000160006101000a81548160ff021916908360ff16021790555060208201518160000160016101000a81548160ff021916908360128111156200858257fe5b021790555060408201518160000160026101000a81548160ff02191690836012811115620085ac57fe5b021790555060608201518160010160008201518160000160006101000a81548161ffff021916908361ffff16021790555060208201518160000160026101000a81548161ffff021916908361ffff16021790555060408201518160000160046101000a81548161ffff021916908361ffff16021790555060608201518160000160066101000a81548161ffff021916908361ffff16021790555060808201518160000160086101000a81548161ffff021916908361ffff16021790555060a082015181600001600a6101000a81548161ffff021916908361ffff16021790555050505050506006608060405190810160405280604160ff168152602001600d6012811115620086b757fe5b8152602001601280811115620086c957fe5b815260200160c060405190810160405280603761ffff168152602001603261ffff168152602001602d61ffff168152602001608761ffff168152602001605f61ffff168152602001607861ffff168152508152509080600181540180825580915050906001820390600052602060002090600202016000909192909190915060008201518160000160006101000a81548160ff021916908360ff16021790555060208201518160000160016101000a81548160ff021916908360128111156200878e57fe5b021790555060408201518160000160026101000a81548160ff02191690836012811115620087b857fe5b021790555060608201518160010160008201518160000160006101000a81548161ffff021916908361ffff16021790555060208201518160000160026101000a81548161ffff021916908361ffff16021790555060408201518160000160046101000a81548161ffff021916908361ffff16021790555060608201518160000160066101000a81548161ffff021916908361ffff16021790555060808201518160000160086101000a81548161ffff021916908361ffff16021790555060a082015181600001600a6101000a81548161ffff021916908361ffff16021790555050505050506006608060405190810160405280604260ff16815260200160016012811115620088c357fe5b8152602001601280811115620088d557fe5b815260200160c060405190810160405280604661ffff168152602001605061ffff168152602001603261ffff168152602001602361ffff168152602001602361ffff168152602001602361ffff168152508152509080600181540180825580915050906001820390600052602060002090600202016000909192909190915060008201518160000160006101000a81548160ff021916908360ff16021790555060208201518160000160016101000a81548160ff021916908360128111156200899a57fe5b021790555060408201518160000160026101000a81548160ff02191690836012811115620089c457fe5b021790555060608201518160010160008201518160000160006101000a81548161ffff021916908361ffff16021790555060208201518160000160026101000a81548161ffff021916908361ffff16021790555060408201518160000160046101000a81548161ffff021916908361ffff16021790555060608201518160000160066101000a81548161ffff021916908361ffff16021790555060808201518160000160086101000a81548161ffff021916908361ffff16021790555060a082015181600001600a6101000a81548161ffff021916908361ffff16021790555050505050506006608060405190810160405280604360ff1681526020016001601281111562008acf57fe5b815260200160128081111562008ae157fe5b815260200160c060405190810160405280605061ffff168152602001606461ffff168152602001604661ffff168152602001603261ffff168152602001603c61ffff168152602001602d61ffff168152508152509080600181540180825580915050906001820390600052602060002090600202016000909192909190915060008201518160000160006101000a81548160ff021916908360ff16021790555060208201518160000160016101000a81548160ff0219169083601281111562008ba657fe5b021790555060408201518160000160026101000a81548160ff0219169083601281111562008bd057fe5b021790555060608201518160010160008201518160000160006101000a81548161ffff021916908361ffff16021790555060208201518160000160026101000a81548161ffff021916908361ffff16021790555060408201518160000160046101000a81548161ffff021916908361ffff16021790555060608201518160000160066101000a81548161ffff021916908361ffff16021790555060808201518160000160086101000a81548161ffff021916908361ffff16021790555060a082015181600001600a6101000a81548161ffff021916908361ffff16021790555050505050506006608060405190810160405280604460ff1681526020016001601281111562008cdb57fe5b815260200160128081111562008ced57fe5b815260200160c060405190810160405280605a61ffff168152602001608261ffff168152602001605061ffff168152602001604161ffff168152602001605561ffff168152602001603761ffff168152508152509080600181540180825580915050906001820390600052602060002090600202016000909192909190915060008201518160000160006101000a81548160ff021916908360ff16021790555060208201518160000160016101000a81548160ff0219169083601281111562008db257fe5b021790555060408201518160000160026101000a81548160ff0219169083601281111562008ddc57fe5b021790555060608201518160010160008201518160000160006101000a81548161ffff021916908361ffff16021790555060208201518160000160026101000a81548161ffff021916908361ffff16021790555060408201518160000160046101000a81548161ffff021916908361ffff16021790555060608201518160000160066101000a81548161ffff021916908361ffff16021790555060808201518160000160086101000a81548161ffff021916908361ffff16021790555060a082015181600001600a6101000a81548161ffff021916908361ffff16021790555050505050506006608060405190810160405280604560ff168152602001600b601281111562008ee757fe5b81526020016003601281111562008efa57fe5b815260200160c060405190810160405280603261ffff168152602001604b61ffff168152602001602361ffff168152602001604661ffff168152602001601e61ffff168152602001602861ffff168152508152509080600181540180825580915050906001820390600052602060002090600202016000909192909190915060008201518160000160006101000a81548160ff021916908360ff16021790555060208201518160000160016101000a81548160ff0219169083601281111562008fbf57fe5b021790555060408201518160000160026101000a81548160ff0219169083601281111562008fe957fe5b021790555060608201518160010160008201518160000160006101000a81548161ffff021916908361ffff16021790555060208201518160000160026101000a81548161ffff021916908361ffff16021790555060408201518160000160046101000a81548161ffff021916908361ffff16021790555060608201518160000160066101000a81548161ffff021916908361ffff16021790555060808201518160000160086101000a81548161ffff021916908361ffff16021790555060a082015181600001600a6101000a81548161ffff021916908361ffff16021790555050505050506006608060405190810160405280604660ff168152602001600b6012811115620090f457fe5b8152602001600360128111156200910757fe5b815260200160c060405190810160405280604161ffff168152602001605a61ffff168152602001603261ffff168152602001605561ffff168152602001602d61ffff168152602001603761ffff168152508152509080600181540180825580915050906001820390600052602060002090600202016000909192909190915060008201518160000160006101000a81548160ff021916908360ff16021790555060208201518160000160016101000a81548160ff02191690836012811115620091cc57fe5b021790555060408201518160000160026101000a81548160ff02191690836012811115620091f657fe5b021790555060608201518160010160008201518160000160006101000a81548161ffff021916908361ffff16021790555060208201518160000160026101000a81548161ffff021916908361ffff16021790555060408201518160000160046101000a81548161ffff021916908361ffff16021790555060608201518160000160066101000a81548161ffff021916908361ffff16021790555060808201518160000160086101000a81548161ffff021916908361ffff16021790555060a082015181600001600a6101000a81548161ffff021916908361ffff16021790555050505050506006608060405190810160405280604760ff168152602001600b60128111156200930157fe5b8152602001600360128111156200931457fe5b815260200160c060405190810160405280605061ffff168152602001606961ffff168152602001604161ffff168152602001606461ffff168152602001604661ffff168152602001604661ffff168152508152509080600181540180825580915050906001820390600052602060002090600202016000909192909190915060008201518160000160006101000a81548160ff021916908360ff16021790555060208201518160000160016101000a81548160ff02191690836012811115620093d957fe5b021790555060408201518160000160026101000a81548160ff021916908360128111156200940357fe5b021790555060608201518160010160008201518160000160006101000a81548161ffff021916908361ffff16021790555060208201518160000160026101000a81548161ffff021916908361ffff16021790555060408201518160000160046101000a81548161ffff021916908361ffff16021790555060608201518160000160066101000a81548161ffff021916908361ffff16021790555060808201518160000160086101000a81548161ffff021916908361ffff16021790555060a082015181600001600a6101000a81548161ffff021916908361ffff16021790555050505050506006608060405190810160405280604860ff168152602001600a60128111156200950e57fe5b8152602001600360128111156200952157fe5b815260200160c060405190810160405280602861ffff168152602001602861ffff168152602001602361ffff168152602001603261ffff168152602001606461ffff168152602001604661ffff168152508152509080600181540180825580915050906001820390600052602060002090600202016000909192909190915060008201518160000160006101000a81548160ff021916908360ff16021790555060208201518160000160016101000a81548160ff02191690836012811115620095e657fe5b021790555060408201518160000160026101000a81548160ff021916908360128111156200961057fe5b021790555060608201518160010160008201518160000160006101000a81548161ffff021916908361ffff16021790555060208201518160000160026101000a81548161ffff021916908361ffff16021790555060408201518160000160046101000a81548161ffff021916908361ffff16021790555060608201518160000160066101000a81548161ffff021916908361ffff16021790555060808201518160000160086101000a81548161ffff021916908361ffff16021790555060a082015181600001600a6101000a81548161ffff021916908361ffff16021790555050505050506006608060405190810160405280604960ff168152602001600a60128111156200971b57fe5b8152602001600360128111156200972e57fe5b815260200160c060405190810160405280605061ffff168152602001604661ffff168152602001604161ffff168152602001605061ffff168152602001607861ffff168152602001606461ffff168152508152509080600181540180825580915050906001820390600052602060002090600202016000909192909190915060008201518160000160006101000a81548160ff021916908360ff16021790555060208201518160000160016101000a81548160ff02191690836012811115620097f357fe5b021790555060408201518160000160026101000a81548160ff021916908360128111156200981d57fe5b021790555060608201518160010160008201518160000160006101000a81548161ffff021916908361ffff16021790555060208201518160000160026101000a81548161ffff021916908361ffff16021790555060408201518160000160046101000a81548161ffff021916908361ffff16021790555060608201518160000160066101000a81548161ffff021916908361ffff16021790555060808201518160000160086101000a81548161ffff021916908361ffff16021790555060a082015181600001600a6101000a81548161ffff021916908361ffff16021790555050505050506006608060405190810160405280604a60ff168152602001600560128111156200992857fe5b8152602001600460128111156200993b57fe5b815260200160c060405190810160405280602861ffff168152602001605061ffff168152602001606461ffff168152602001601e61ffff168152602001601e61ffff168152602001601461ffff168152508152509080600181540180825580915050906001820390600052602060002090600202016000909192909190915060008201518160000160006101000a81548160ff021916908360ff16021790555060208201518160000160016101000a81548160ff0219169083601281111562009a0057fe5b021790555060408201518160000160026101000a81548160ff0219169083601281111562009a2a57fe5b021790555060608201518160010160008201518160000160006101000a81548161ffff021916908361ffff16021790555060208201518160000160026101000a81548161ffff021916908361ffff16021790555060408201518160000160046101000a81548161ffff021916908361ffff16021790555060608201518160000160066101000a81548161ffff021916908361ffff16021790555060808201518160000160086101000a81548161ffff021916908361ffff16021790555060a082015181600001600a6101000a81548161ffff021916908361ffff16021790555050505050506006608060405190810160405280604b60ff1681526020016005601281111562009b3557fe5b81526020016004601281111562009b4857fe5b815260200160c060405190810160405280603761ffff168152602001605f61ffff168152602001607361ffff168152602001602d61ffff168152602001602d61ffff168152602001602361ffff168152508152509080600181540180825580915050906001820390600052602060002090600202016000909192909190915060008201518160000160006101000a81548160ff021916908360ff16021790555060208201518160000160016101000a81548160ff0219169083601281111562009c0d57fe5b021790555060408201518160000160026101000a81548160ff0219169083601281111562009c3757fe5b021790555060608201518160010160008201518160000160006101000a81548161ffff021916908361ffff16021790555060208201518160000160026101000a81548161ffff021916908361ffff16021790555060408201518160000160046101000a81548161ffff021916908361ffff16021790555060608201518160000160066101000a81548161ffff021916908361ffff16021790555060808201518160000160086101000a81548161ffff021916908361ffff16021790555060a082015181600001600a6101000a81548161ffff021916908361ffff16021790555050505050506006608060405190810160405280604c60ff1681526020016005601281111562009d4257fe5b81526020016004601281111562009d5557fe5b815260200160c060405190810160405280605061ffff168152602001607861ffff168152602001608261ffff168152602001603761ffff168152602001604161ffff168152602001602d61ffff168152508152509080600181540180825580915050906001820390600052602060002090600202016000909192909190915060008201518160000160006101000a81548160ff021916908360ff16021790555060208201518160000160016101000a81548160ff0219169083601281111562009e1a57fe5b021790555060408201518160000160026101000a81548160ff0219169083601281111562009e4457fe5b021790555060608201518160010160008201518160000160006101000a81548161ffff021916908361ffff16021790555060208201518160000160026101000a81548161ffff021916908361ffff16021790555060408201518160000160046101000a81548161ffff021916908361ffff16021790555060608201518160000160066101000a81548161ffff021916908361ffff16021790555060808201518160000160086101000a81548161ffff021916908361ffff16021790555060a082015181600001600a6101000a81548161ffff021916908361ffff16021790555050505050506006608060405190810160405280604d60ff1681526020016009601281111562009f4f57fe5b815260200160128081111562009f6157fe5b815260200160c060405190810160405280603261ffff168152602001605561ffff168152602001603761ffff168152602001604161ffff168152602001604161ffff168152602001605a61ffff168152508152509080600181540180825580915050906001820390600052602060002090600202016000909192909190915060008201518160000160006101000a81548160ff021916908360ff16021790555060208201518160000160016101000a81548160ff021916908360128111156200a02657fe5b021790555060408201518160000160026101000a81548160ff021916908360128111156200a05057fe5b021790555060608201518160010160008201518160000160006101000a81548161ffff021916908361ffff16021790555060208201518160000160026101000a81548161ffff021916908361ffff16021790555060408201518160000160046101000a81548161ffff021916908361ffff16021790555060608201518160000160066101000a81548161ffff021916908361ffff16021790555060808201518160000160086101000a81548161ffff021916908361ffff16021790555060a082015181600001600a6101000a81548161ffff021916908361ffff16021790555050505050506006608060405190810160405280604e60ff168152602001600960128111156200a15b57fe5b81526020016012808111156200a16d57fe5b815260200160c060405190810160405280604161ffff168152602001606461ffff168152602001604661ffff168152602001605061ffff168152602001605061ffff168152602001606961ffff168152508152509080600181540180825580915050906001820390600052602060002090600202016000909192909190915060008201518160000160006101000a81548160ff021916908360ff16021790555060208201518160000160016101000a81548160ff021916908360128111156200a23257fe5b021790555060408201518160000160026101000a81548160ff021916908360128111156200a25c57fe5b021790555060608201518160010160008201518160000160006101000a81548161ffff021916908361ffff16021790555060208201518160000160026101000a81548161ffff021916908361ffff16021790555060408201518160000160046101000a81548161ffff021916908361ffff16021790555060608201518160000160066101000a81548161ffff021916908361ffff16021790555060808201518160000160086101000a81548161ffff021916908361ffff16021790555060a082015181600001600a6101000a81548161ffff021916908361ffff16021790555050505050506006608060405190810160405280604f60ff168152602001600a60128111156200a36757fe5b8152602001600d60128111156200a37a57fe5b815260200160c060405190810160405280605a61ffff168152602001604161ffff168152602001604161ffff168152602001602861ffff168152602001602861ffff168152602001600f61ffff168152508152509080600181540180825580915050906001820390600052602060002090600202016000909192909190915060008201518160000160006101000a81548160ff021916908360ff16021790555060208201518160000160016101000a81548160ff021916908360128111156200a43f57fe5b021790555060408201518160000160026101000a81548160ff021916908360128111156200a46957fe5b021790555060608201518160010160008201518160000160006101000a81548161ffff021916908361ffff16021790555060208201518160000160026101000a81548161ffff021916908361ffff16021790555060408201518160000160046101000a81548161ffff021916908361ffff16021790555060608201518160000160066101000a81548161ffff021916908361ffff16021790555060808201518160000160086101000a81548161ffff021916908361ffff16021790555060a082015181600001600a6101000a81548161ffff021916908361ffff16021790555050505050506006608060405190810160405280605060ff168152602001600a60128111156200a57457fe5b8152602001600d60128111156200a58757fe5b815260200160c060405190810160405280605f61ffff168152602001604b61ffff168152602001606e61ffff168152602001606461ffff168152602001605061ffff168152602001601e61ffff168152508152509080600181540180825580915050906001820390600052602060002090600202016000909192909190915060008201518160000160006101000a81548160ff021916908360ff16021790555060208201518160000160016101000a81548160ff021916908360128111156200a64c57fe5b021790555060408201518160000160026101000a81548160ff021916908360128111156200a67657fe5b021790555060608201518160010160008201518160000160006101000a81548161ffff021916908361ffff16021790555060208201518160000160026101000a81548161ffff021916908361ffff16021790555060408201518160000160046101000a81548161ffff021916908361ffff16021790555060608201518160000160066101000a81548161ffff021916908361ffff16021790555060808201518160000160086101000a81548161ffff021916908361ffff16021790555060a082015181600001600a6101000a81548161ffff021916908361ffff16021790555050505050506006608060405190810160405280605160ff168152602001600c60128111156200a78157fe5b8152602001600860128111156200a79457fe5b815260200160c060405190810160405280601961ffff168152602001602361ffff168152602001604661ffff168152602001605f61ffff168152602001603761ffff168152602001602d61ffff168152508152509080600181540180825580915050906001820390600052602060002090600202016000909192909190915060008201518160000160006101000a81548160ff021916908360ff16021790555060208201518160000160016101000a81548160ff021916908360128111156200a85957fe5b021790555060408201518160000160026101000a81548160ff021916908360128111156200a88357fe5b021790555060608201518160010160008201518160000160006101000a81548161ffff021916908361ffff16021790555060208201518160000160026101000a81548161ffff021916908361ffff16021790555060408201518160000160046101000a81548161ffff021916908361ffff16021790555060608201518160000160066101000a81548161ffff021916908361ffff16021790555060808201518160000160086101000a81548161ffff021916908361ffff16021790555060a082015181600001600a6101000a81548161ffff021916908361ffff16021790555050505050506006608060405190810160405280605260ff168152602001600c60128111156200a98e57fe5b8152602001600860128111156200a9a157fe5b815260200160c060405190810160405280603261ffff168152602001603c61ffff168152602001605f61ffff168152602001607861ffff168152602001604661ffff168152602001604661ffff168152508152509080600181540180825580915050906001820390600052602060002090600202016000909192909190915060008201518160000160006101000a81548160ff021916908360ff16021790555060208201518160000160016101000a81548160ff021916908360128111156200aa6657fe5b021790555060408201518160000160026101000a81548160ff021916908360128111156200aa9057fe5b021790555060608201518160010160008201518160000160006101000a81548161ffff021916908361ffff16021790555060208201518160000160026101000a81548161ffff021916908361ffff16021790555060408201518160000160046101000a81548161ffff021916908361ffff16021790555060608201518160000160066101000a81548161ffff021916908361ffff16021790555060808201518160000160086101000a81548161ffff021916908361ffff16021790555060a082015181600001600a6101000a81548161ffff021916908361ffff16021790555050505050506006608060405190810160405280605360ff168152602001600060128111156200ab9b57fe5b8152602001600260128111156200abae57fe5b815260200160c060405190810160405280603461ffff168152602001605a61ffff168152602001603761ffff168152602001603a61ffff168152602001603e61ffff168152602001603c61ffff168152508152509080600181540180825580915050906001820390600052602060002090600202016000909192909190915060008201518160000160006101000a81548160ff021916908360ff16021790555060208201518160000160016101000a81548160ff021916908360128111156200ac7357fe5b021790555060408201518160000160026101000a81548160ff021916908360128111156200ac9d57fe5b021790555060608201518160010160008201518160000160006101000a81548161ffff021916908361ffff16021790555060208201518160000160026101000a81548161ffff021916908361ffff16021790555060408201518160000160046101000a81548161ffff021916908361ffff16021790555060608201518160000160066101000a81548161ffff021916908361ffff16021790555060808201518160000160086101000a81548161ffff021916908361ffff16021790555060a082015181600001600a6101000a81548161ffff021916908361ffff16021790555050505050506006608060405190810160405280605460ff168152602001600060128111156200ada857fe5b8152602001600260128111156200adbb57fe5b815260200160c060405190810160405280602361ffff168152602001605561ffff168152602001602d61ffff168152602001602361ffff168152602001602361ffff168152602001604b61ffff168152508152509080600181540180825580915050906001820390600052602060002090600202016000909192909190915060008201518160000160006101000a81548160ff021916908360ff16021790555060208201518160000160016101000a81548160ff021916908360128111156200ae8057fe5b021790555060408201518160000160026101000a81548160ff021916908360128111156200aeaa57fe5b021790555060608201518160010160008201518160000160006101000a81548161ffff021916908361ffff16021790555060208201518160000160026101000a81548161ffff021916908361ffff16021790555060408201518160000160046101000a81548161ffff021916908361ffff16021790555060608201518160000160066101000a81548161ffff021916908361ffff16021790555060808201518160000160086101000a81548161ffff021916908361ffff16021790555060a082015181600001600a6101000a81548161ffff021916908361ffff16021790555050505050506006608060405190810160405280605560ff168152602001600060128111156200afb557fe5b8152602001600260128111156200afc857fe5b815260200160c060405190810160405280603c61ffff168152602001606e61ffff168152602001604661ffff168152602001603c61ffff168152602001603c61ffff168152602001606e61ffff168152508152509080600181540180825580915050906001820390600052602060002090600202016000909192909190915060008201518160000160006101000a81548160ff021916908360ff16021790555060208201518160000160016101000a81548160ff021916908360128111156200b08d57fe5b021790555060408201518160000160026101000a81548160ff021916908360128111156200b0b757fe5b021790555060608201518160010160008201518160000160006101000a81548161ffff021916908361ffff16021790555060208201518160000160026101000a81548161ffff021916908361ffff16021790555060408201518160000160046101000a81548161ffff021916908361ffff16021790555060608201518160000160066101000a81548161ffff021916908361ffff16021790555060808201518160000160086101000a81548161ffff021916908361ffff16021790555060a082015181600001600a6101000a81548161ffff021916908361ffff16021790555050505050506006608060405190810160405280605660ff168152602001600a60128111156200b1c257fe5b81526020016012808111156200b1d457fe5b815260200160c060405190810160405280604161ffff168152602001602d61ffff168152602001603761ffff168152602001602d61ffff168152602001604661ffff168152602001602d61ffff168152508152509080600181540180825580915050906001820390600052602060002090600202016000909192909190915060008201518160000160006101000a81548160ff021916908360ff16021790555060208201518160000160016101000a81548160ff021916908360128111156200b29957fe5b021790555060408201518160000160026101000a81548160ff021916908360128111156200b2c357fe5b021790555060608201518160010160008201518160000160006101000a81548161ffff021916908361ffff16021790555060208201518160000160026101000a81548161ffff021916908361ffff16021790555060408201518160000160046101000a81548161ffff021916908361ffff16021790555060608201518160000160066101000a81548161ffff021916908361ffff16021790555060808201518160000160086101000a81548161ffff021916908361ffff16021790555060a082015181600001600a6101000a81548161ffff021916908361ffff16021790555050505050506006608060405190810160405280605760ff168152602001600a60128111156200b3ce57fe5b8152602001600e60128111156200b3e157fe5b815260200160c060405190810160405280605a61ffff168152602001604661ffff168152602001605061ffff168152602001604661ffff168152602001605f61ffff168152602001604661ffff168152508152509080600181540180825580915050906001820390600052602060002090600202016000909192909190915060008201518160000160006101000a81548160ff021916908360ff16021790555060208201518160000160016101000a81548160ff021916908360128111156200b4a657fe5b021790555060408201518160000160026101000a81548160ff021916908360128111156200b4d057fe5b021790555060608201518160010160008201518160000160006101000a81548161ffff021916908361ffff16021790555060208201518160000160026101000a81548161ffff021916908361ffff16021790555060408201518160000160046101000a81548161ffff021916908361ffff16021790555060608201518160000160066101000a81548161ffff021916908361ffff16021790555060808201518160000160086101000a81548161ffff021916908361ffff16021790555060a082015181600001600a6101000a81548161ffff021916908361ffff16021790555050505050506006608060405190810160405280605860ff168152602001600360128111156200b5db57fe5b81526020016012808111156200b5ed57fe5b815260200160c060405190810160405280605061ffff168152602001605061ffff168152602001603261ffff168152602001602861ffff168152602001603261ffff168152602001601961ffff168152508152509080600181540180825580915050906001820390600052602060002090600202016000909192909190915060008201518160000160006101000a81548160ff021916908360ff16021790555060208201518160000160016101000a81548160ff021916908360128111156200b6b257fe5b021790555060408201518160000160026101000a81548160ff021916908360128111156200b6dc57fe5b021790555060608201518160010160008201518160000160006101000a81548161ffff021916908361ffff16021790555060208201518160000160026101000a81548161ffff021916908361ffff16021790555060408201518160000160046101000a81548161ffff021916908361ffff16021790555060608201518160000160066101000a81548161ffff021916908361ffff16021790555060808201518160000160086101000a81548161ffff021916908361ffff16021790555060a082015181600001600a6101000a81548161ffff021916908361ffff16021790555050505050506006608060405190810160405280605960ff168152602001600360128111156200b7e757fe5b81526020016012808111156200b7f957fe5b815260200160c060405190810160405280606961ffff168152602001606961ffff168152602001604b61ffff168152602001604161ffff168152602001606461ffff168152602001603261ffff168152508152509080600181540180825580915050906001820390600052602060002090600202016000909192909190915060008201518160000160006101000a81548160ff021916908360ff16021790555060208201518160000160016101000a81548160ff021916908360128111156200b8be57fe5b021790555060408201518160000160026101000a81548160ff021916908360128111156200b8e857fe5b021790555060608201518160010160008201518160000160006101000a81548161ffff021916908361ffff16021790555060208201518160000160026101000a81548161ffff021916908361ffff16021790555060408201518160000160046101000a81548161ffff021916908361ffff16021790555060608201518160000160066101000a81548161ffff021916908361ffff16021790555060808201518160000160086101000a81548161ffff021916908361ffff16021790555060a082015181600001600a6101000a81548161ffff021916908361ffff16021790555050505050506006608060405190810160405280605a60ff168152602001600a60128111156200b9f357fe5b81526020016012808111156200ba0557fe5b815260200160c060405190810160405280601e61ffff168152602001604161ffff168152602001606461ffff168152602001602d61ffff168152602001601961ffff168152602001602861ffff168152508152509080600181540180825580915050906001820390600052602060002090600202016000909192909190915060008201518160000160006101000a81548160ff021916908360ff16021790555060208201518160000160016101000a81548160ff021916908360128111156200baca57fe5b021790555060408201518160000160026101000a81548160ff021916908360128111156200baf457fe5b021790555060608201518160010160008201518160000160006101000a81548161ffff021916908361ffff16021790555060208201518160000160026101000a81548161ffff021916908361ffff16021790555060408201518160000160046101000a81548161ffff021916908361ffff16021790555060608201518160000160066101000a81548161ffff021916908361ffff16021790555060808201518160000160086101000a81548161ffff021916908361ffff16021790555060a082015181600001600a6101000a81548161ffff021916908361ffff16021790555050505050506006608060405190810160405280605b60ff168152602001600a60128111156200bbff57fe5b8152602001600e60128111156200bc1257fe5b815260200160c060405190810160405280603261ffff168152602001605f61ffff16815260200160b461ffff168152602001605561ffff168152602001602d61ffff168152602001604661ffff168152508152509080600181540180825580915050906001820390600052602060002090600202016000909192909190915060008201518160000160006101000a81548160ff021916908360ff16021790555060208201518160000160016101000a81548160ff021916908360128111156200bcd757fe5b021790555060408201518160000160026101000a81548160ff021916908360128111156200bd0157fe5b021790555060608201518160010160008201518160000160006101000a81548161ffff021916908361ffff16021790555060208201518160000160026101000a81548161ffff021916908361ffff16021790555060408201518160000160046101000a81548161ffff021916908361ffff16021790555060608201518160000160066101000a81548161ffff021916908361ffff16021790555060808201518160000160086101000a81548161ffff021916908361ffff16021790555060a082015181600001600a6101000a81548161ffff021916908361ffff16021790555050505050506006608060405190810160405280605c60ff168152602001600760128111156200be0c57fe5b8152602001600360128111156200be1f57fe5b815260200160c060405190810160405280601e61ffff168152602001602361ffff168152602001601e61ffff168152602001606461ffff168152602001602361ffff168152602001605061ffff168152508152509080600181540180825580915050906001820390600052602060002090600202016000909192909190915060008201518160000160006101000a81548160ff021916908360ff16021790555060208201518160000160016101000a81548160ff021916908360128111156200bee457fe5b021790555060408201518160000160026101000a81548160ff021916908360128111156200bf0e57fe5b021790555060608201518160010160008201518160000160006101000a81548161ffff021916908361ffff16021790555060208201518160000160026101000a81548161ffff021916908361ffff16021790555060408201518160000160046101000a81548161ffff021916908361ffff16021790555060608201518160000160066101000a81548161ffff021916908361ffff16021790555060808201518160000160086101000a81548161ffff021916908361ffff16021790555060a082015181600001600a6101000a81548161ffff021916908361ffff16021790555050505050506006608060405190810160405280605d60ff168152602001600760128111156200c01957fe5b8152602001600360128111156200c02c57fe5b815260200160c060405190810160405280602d61ffff168152602001603261ffff168152602001602d61ffff168152602001607361ffff168152602001603761ffff168152602001605f61ffff168152508152509080600181540180825580915050906001820390600052602060002090600202016000909192909190915060008201518160000160006101000a81548160ff021916908360ff16021790555060208201518160000160016101000a81548160ff021916908360128111156200c0f157fe5b021790555060408201518160000160026101000a81548160ff021916908360128111156200c11b57fe5b021790555060608201518160010160008201518160000160006101000a81548161ffff021916908361ffff16021790555060208201518160000160026101000a81548161ffff021916908361ffff16021790555060408201518160000160046101000a81548161ffff021916908361ffff16021790555060608201518160000160066101000a81548161ffff021916908361ffff16021790555060808201518160000160086101000a81548161ffff021916908361ffff16021790555060a082015181600001600a6101000a81548161ffff021916908361ffff16021790555050505050506006608060405190810160405280605e60ff168152602001600760128111156200c22657fe5b8152602001600360128111156200c23957fe5b815260200160c060405190810160405280603c61ffff168152602001604161ffff168152602001603c61ffff168152602001608261ffff168152602001604b61ffff168152602001606e61ffff168152508152509080600181540180825580915050906001820390600052602060002090600202016000909192909190915060008201518160000160006101000a81548160ff021916908360ff16021790555060208201518160000160016101000a81548160ff021916908360128111156200c2fe57fe5b021790555060408201518160000160026101000a81548160ff021916908360128111156200c32857fe5b021790555060608201518160010160008201518160000160006101000a81548161ffff021916908361ffff16021790555060208201518160000160026101000a81548161ffff021916908361ffff16021790555060408201518160000160046101000a81548161ffff021916908361ffff16021790555060608201518160000160066101000a81548161ffff021916908361ffff16021790555060808201518160000160086101000a81548161ffff021916908361ffff16021790555060a082015181600001600a6101000a81548161ffff021916908361ffff16021790555050505050506006608060405190810160405280605f60ff168152602001600560128111156200c43357fe5b8152602001600460128111156200c44657fe5b815260200160c060405190810160405280602361ffff168152602001602d61ffff16815260200160a061ffff168152602001601e61ffff168152602001602d61ffff168152602001604661ffff168152508152509080600181540180825580915050906001820390600052602060002090600202016000909192909190915060008201518160000160006101000a81548160ff021916908360ff16021790555060208201518160000160016101000a81548160ff021916908360128111156200c50b57fe5b021790555060408201518160000160026101000a81548160ff021916908360128111156200c53557fe5b021790555060608201518160010160008201518160000160006101000a81548161ffff021916908361ffff16021790555060208201518160000160026101000a81548161ffff021916908361ffff16021790555060408201518160000160046101000a81548161ffff021916908361ffff16021790555060608201518160000160066101000a81548161ffff021916908361ffff16021790555060808201518160000160086101000a81548161ffff021916908361ffff16021790555060a082015181600001600a6101000a81548161ffff021916908361ffff16021790555050505050506006608060405190810160405280606060ff168152602001600d60128111156200c64057fe5b81526020016012808111156200c65257fe5b815260200160c060405190810160405280603c61ffff168152602001603061ffff168152602001602d61ffff168152602001602b61ffff168152602001605a61ffff168152602001602a61ffff168152508152509080600181540180825580915050906001820390600052602060002090600202016000909192909190915060008201518160000160006101000a81548160ff021916908360ff16021790555060208201518160000160016101000a81548160ff021916908360128111156200c71757fe5b021790555060408201518160000160026101000a81548160ff021916908360128111156200c74157fe5b021790555060608201518160010160008201518160000160006101000a81548161ffff021916908361ffff16021790555060208201518160000160026101000a81548161ffff021916908361ffff16021790555060408201518160000160046101000a81548161ffff021916908361ffff16021790555060608201518160000160066101000a81548161ffff021916908361ffff16021790555060808201518160000160086101000a81548161ffff021916908361ffff16021790555060a082015181600001600a6101000a81548161ffff021916908361ffff16021790555050505050506006608060405190810160405280606160ff168152602001600d60128111156200c84c57fe5b81526020016012808111156200c85e57fe5b815260200160c060405190810160405280605561ffff168152602001604961ffff168152602001604661ffff168152602001604961ffff168152602001607361ffff168152602001604361ffff168152508152509080600181540180825580915050906001820390600052602060002090600202016000909192909190915060008201518160000160006101000a81548160ff021916908360ff16021790555060208201518160000160016101000a81548160ff021916908360128111156200c92357fe5b021790555060408201518160000160026101000a81548160ff021916908360128111156200c94d57fe5b021790555060608201518160010160008201518160000160006101000a81548161ffff021916908361ffff16021790555060208201518160000160026101000a81548161ffff021916908361ffff16021790555060408201518160000160046101000a81548161ffff021916908361ffff16021790555060608201518160000160066101000a81548161ffff021916908361ffff16021790555060808201518160000160086101000a81548161ffff021916908361ffff16021790555060a082015181600001600a6101000a81548161ffff021916908361ffff16021790555050505050506006608060405190810160405280606260ff168152602001600a60128111156200ca5857fe5b81526020016012808111156200ca6a57fe5b815260200160c060405190810160405280601e61ffff168152602001606961ffff168152602001605a61ffff168152602001601961ffff168152602001601961ffff168152602001603261ffff168152508152509080600181540180825580915050906001820390600052602060002090600202016000909192909190915060008201518160000160006101000a81548160ff021916908360ff16021790555060208201518160000160016101000a81548160ff021916908360128111156200cb2f57fe5b021790555060408201518160000160026101000a81548160ff021916908360128111156200cb5957fe5b021790555060608201518160010160008201518160000160006101000a81548161ffff021916908361ffff16021790555060208201518160000160026101000a81548161ffff021916908361ffff16021790555060408201518160000160046101000a81548161ffff021916908361ffff16021790555060608201518160000160066101000a81548161ffff021916908361ffff16021790555060808201518160000160086101000a81548161ffff021916908361ffff16021790555060a082015181600001600a6101000a81548161ffff021916908361ffff16021790555050505050506006608060405190810160405280606360ff168152602001600a60128111156200cc6457fe5b81526020016012808111156200cc7657fe5b815260200160c060405190810160405280603761ffff168152602001608261ffff168152602001607361ffff168152602001603261ffff168152602001603261ffff168152602001604b61ffff168152508152509080600181540180825580915050906001820390600052602060002090600202016000909192909190915060008201518160000160006101000a81548160ff021916908360ff16021790555060208201518160000160016101000a81548160ff021916908360128111156200cd3b57fe5b021790555060408201518160000160026101000a81548160ff021916908360128111156200cd6557fe5b021790555060608201518160010160008201518160000160006101000a81548161ffff021916908361ffff16021790555060208201518160000160026101000a81548161ffff021916908361ffff16021790555060408201518160000160046101000a81548161ffff021916908361ffff16021790555060608201518160000160066101000a81548161ffff021916908361ffff16021790555060808201518160000160086101000a81548161ffff021916908361ffff16021790555060a082015181600001600a6101000a81548161ffff021916908361ffff16021790555050505050506006608060405190810160405280606460ff168152602001600c60128111156200ce7057fe5b81526020016012808111156200ce8257fe5b815260200160c060405190810160405280602861ffff168152602001601e61ffff168152602001603261ffff168152602001603761ffff168152602001603761ffff168152602001606461ffff168152508152509080600181540180825580915050906001820390600052602060002090600202016000909192909190915060008201518160000160006101000a81548160ff021916908360ff16021790555060208201518160000160016101000a81548160ff021916908360128111156200cf4757fe5b021790555060408201518160000160026101000a81548160ff021916908360128111156200cf7157fe5b021790555060608201518160010160008201518160000160006101000a81548161ffff021916908361ffff16021790555060208201518160000160026101000a81548161ffff021916908361ffff16021790555060408201518160000160046101000a81548161ffff021916908361ffff16021790555060608201518160000160066101000a81548161ffff021916908361ffff16021790555060808201518160000160086101000a81548161ffff021916908361ffff16021790555060a082015181600001600a6101000a81548161ffff021916908361ffff16021790555050505050506006608060405190810160405280606560ff168152602001600c60128111156200d07c57fe5b81526020016012808111156200d08e57fe5b815260200160c060405190810160405280603c61ffff168152602001603261ffff168152602001604661ffff168152602001605061ffff168152602001605061ffff168152602001609661ffff168152508152509080600181540180825580915050906001820390600052602060002090600202016000909192909190915060008201518160000160006101000a81548160ff021916908360ff16021790555060208201518160000160016101000a81548160ff021916908360128111156200d15357fe5b021790555060408201518160000160026101000a81548160ff021916908360128111156200d17d57fe5b021790555060608201518160010160008201518160000160006101000a81548161ffff021916908361ffff16021790555060208201518160000160026101000a81548161ffff021916908361ffff16021790555060408201518160000160046101000a81548161ffff021916908361ffff16021790555060608201518160000160066101000a81548161ffff021916908361ffff16021790555060808201518160000160086101000a81548161ffff021916908361ffff16021790555060a082015181600001600a6101000a81548161ffff021916908361ffff16021790555050505050506006608060405190810160405280606660ff168152602001600b60128111156200d28857fe5b8152602001600d60128111156200d29b57fe5b815260200160c060405190810160405280603c61ffff168152602001602861ffff168152602001605061ffff168152602001603c61ffff168152602001602d61ffff168152602001602861ffff168152508152509080600181540180825580915050906001820390600052602060002090600202016000909192909190915060008201518160000160006101000a81548160ff021916908360ff16021790555060208201518160000160016101000a81548160ff021916908360128111156200d36057fe5b021790555060408201518160000160026101000a81548160ff021916908360128111156200d38a57fe5b021790555060608201518160010160008201518160000160006101000a81548161ffff021916908361ffff16021790555060208201518160000160026101000a81548161ffff021916908361ffff16021790555060408201518160000160046101000a81548161ffff021916908361ffff16021790555060608201518160000160066101000a81548161ffff021916908361ffff16021790555060808201518160000160086101000a81548161ffff021916908361ffff16021790555060a082015181600001600a6101000a81548161ffff021916908361ffff16021790555050505050506006608060405190810160405280606760ff168152602001600b60128111156200d49557fe5b8152602001600d60128111156200d4a857fe5b815260200160c060405190810160405280605f61ffff168152602001605f61ffff168152602001605561ffff168152602001607d61ffff168152602001604b61ffff168152602001603761ffff168152508152509080600181540180825580915050906001820390600052602060002090600202016000909192909190915060008201518160000160006101000a81548160ff021916908360ff16021790555060208201518160000160016101000a81548160ff021916908360128111156200d56d57fe5b021790555060408201518160000160026101000a81548160ff021916908360128111156200d59757fe5b021790555060608201518160010160008201518160000160006101000a81548161ffff021916908361ffff16021790555060208201518160000160026101000a81548161ffff021916908361ffff16021790555060408201518160000160046101000a81548161ffff021916908361ffff16021790555060608201518160000160066101000a81548161ffff021916908361ffff16021790555060808201518160000160086101000a81548161ffff021916908361ffff16021790555060a082015181600001600a6101000a81548161ffff021916908361ffff16021790555050505050506006608060405190810160405280606860ff168152602001600460128111156200d6a257fe5b81526020016012808111156200d6b457fe5b815260200160c060405190810160405280603261ffff168152602001603261ffff168152602001605f61ffff168152602001602861ffff168152602001603261ffff168152602001602361ffff168152508152509080600181540180825580915050906001820390600052602060002090600202016000909192909190915060008201518160000160006101000a81548160ff021916908360ff16021790555060208201518160000160016101000a81548160ff021916908360128111156200d77957fe5b021790555060408201518160000160026101000a81548160ff021916908360128111156200d7a357fe5b021790555060608201518160010160008201518160000160006101000a81548161ffff021916908361ffff16021790555060208201518160000160026101000a81548161ffff021916908361ffff16021790555060408201518160000160046101000a81548161ffff021916908361ffff16021790555060608201518160000160066101000a81548161ffff021916908361ffff16021790555060808201518160000160086101000a81548161ffff021916908361ffff16021790555060a082015181600001600a6101000a81548161ffff021916908361ffff16021790555050505050506006608060405190810160405280606960ff168152602001600460128111156200d8ae57fe5b81526020016012808111156200d8c057fe5b815260200160c060405190810160405280603c61ffff168152602001605061ffff168152602001606e61ffff168152602001603261ffff168152602001605061ffff168152602001602d61ffff168152508152509080600181540180825580915050906001820390600052602060002090600202016000909192909190915060008201518160000160006101000a81548160ff021916908360ff16021790555060208201518160000160016101000a81548160ff021916908360128111156200d98557fe5b021790555060408201518160000160026101000a81548160ff021916908360128111156200d9af57fe5b021790555060608201518160010160008201518160000160006101000a81548161ffff021916908361ffff16021790555060208201518160000160026101000a81548161ffff021916908361ffff16021790555060408201518160000160046101000a81548161ffff021916908361ffff16021790555060608201518160000160066101000a81548161ffff021916908361ffff16021790555060808201518160000160086101000a81548161ffff021916908361ffff16021790555060a082015181600001600a6101000a81548161ffff021916908361ffff16021790555050505050506006608060405190810160405280606a60ff168152602001600160128111156200daba57fe5b81526020016012808111156200dacc57fe5b815260200160c060405190810160405280603261ffff168152602001607861ffff168152602001603561ffff168152602001602361ffff168152602001606e61ffff168152602001605761ffff168152508152509080600181540180825580915050906001820390600052602060002090600202016000909192909190915060008201518160000160006101000a81548160ff021916908360ff16021790555060208201518160000160016101000a81548160ff021916908360128111156200db9157fe5b021790555060408201518160000160026101000a81548160ff021916908360128111156200dbbb57fe5b021790555060608201518160010160008201518160000160006101000a81548161ffff021916908361ffff16021790555060208201518160000160026101000a81548161ffff021916908361ffff16021790555060408201518160000160046101000a81548161ffff021916908361ffff16021790555060608201518160000160066101000a81548161ffff021916908361ffff16021790555060808201518160000160086101000a81548161ffff021916908361ffff16021790555060a082015181600001600a6101000a81548161ffff021916908361ffff16021790555050505050506006608060405190810160405280606b60ff168152602001600160128111156200dcc657fe5b81526020016012808111156200dcd857fe5b815260200160c060405190810160405280603261ffff168152602001606961ffff168152602001604f61ffff168152602001602361ffff168152602001606e61ffff168152602001604c61ffff168152508152509080600181540180825580915050906001820390600052602060002090600202016000909192909190915060008201518160000160006101000a81548160ff021916908360ff16021790555060208201518160000160016101000a81548160ff021916908360128111156200dd9d57fe5b021790555060408201518160000160026101000a81548160ff021916908360128111156200ddc757fe5b021790555060608201518160010160008201518160000160006101000a81548161ffff021916908361ffff16021790555060208201518160000160026101000a81548161ffff021916908361ffff16021790555060408201518160000160046101000a81548161ffff021916908361ffff16021790555060608201518160000160066101000a81548161ffff021916908361ffff16021790555060808201518160000160086101000a81548161ffff021916908361ffff16021790555060a082015181600001600a6101000a81548161ffff021916908361ffff16021790555050505050506006608060405190810160405280606c60ff168152602001600060128111156200ded257fe5b81526020016012808111156200dee457fe5b815260200160c060405190810160405280605a61ffff168152602001603761ffff168152602001604b61ffff168152602001603c61ffff168152602001604b61ffff168152602001601e61ffff168152508152509080600181540180825580915050906001820390600052602060002090600202016000909192909190915060008201518160000160006101000a81548160ff021916908360ff16021790555060208201518160000160016101000a81548160ff021916908360128111156200dfa957fe5b021790555060408201518160000160026101000a81548160ff021916908360128111156200dfd357fe5b021790555060608201518160010160008201518160000160006101000a81548161ffff021916908361ffff16021790555060208201518160000160026101000a81548161ffff021916908361ffff16021790555060408201518160000160046101000a81548161ffff021916908361ffff16021790555060608201518160000160066101000a81548161ffff021916908361ffff16021790555060808201518160000160086101000a81548161ffff021916908361ffff16021790555060a082015181600001600a6101000a81548161ffff021916908361ffff16021790555050505050506006608060405190810160405280606d60ff168152602001600360128111156200e0de57fe5b81526020016012808111156200e0f057fe5b815260200160c060405190810160405280602861ffff168152602001604161ffff168152602001605f61ffff168152602001603c61ffff168152602001602d61ffff168152602001602361ffff168152508152509080600181540180825580915050906001820390600052602060002090600202016000909192909190915060008201518160000160006101000a81548160ff021916908360ff16021790555060208201518160000160016101000a81548160ff021916908360128111156200e1b557fe5b021790555060408201518160000160026101000a81548160ff021916908360128111156200e1df57fe5b021790555060608201518160010160008201518160000160006101000a81548161ffff021916908361ffff16021790555060208201518160000160026101000a81548161ffff021916908361ffff16021790555060408201518160000160046101000a81548161ffff021916908361ffff16021790555060608201518160000160066101000a81548161ffff021916908361ffff16021790555060808201518160000160086101000a81548161ffff021916908361ffff16021790555060a082015181600001600a6101000a81548161ffff021916908361ffff16021790555050505050506006608060405190810160405280606e60ff168152602001600360128111156200e2ea57fe5b81526020016012808111156200e2fc57fe5b815260200160c060405190810160405280604161ffff168152602001605a61ffff168152602001607861ffff168152602001605561ffff168152602001604661ffff168152602001603c61ffff168152508152509080600181540180825580915050906001820390600052602060002090600202016000909192909190915060008201518160000160006101000a81548160ff021916908360ff16021790555060208201518160000160016101000a81548160ff021916908360128111156200e3c157fe5b021790555060408201518160000160026101000a81548160ff021916908360128111156200e3eb57fe5b021790555060608201518160010160008201518160000160006101000a81548161ffff021916908361ffff16021790555060208201518160000160026101000a81548161ffff021916908361ffff16021790555060408201518160000160046101000a81548161ffff021916908361ffff16021790555060608201518160000160066101000a81548161ffff021916908361ffff16021790555060808201518160000160086101000a81548161ffff021916908361ffff16021790555060a082015181600001600a6101000a81548161ffff021916908361ffff16021790555050505050506006608060405190810160405280606f60ff168152602001600460128111156200e4f657fe5b8152602001600560128111156200e50957fe5b815260200160c060405190810160405280605061ffff168152602001605561ffff168152602001605f61ffff168152602001601e61ffff168152602001601e61ffff168152602001601961ffff168152508152509080600181540180825580915050906001820390600052602060002090600202016000909192909190915060008201518160000160006101000a81548160ff021916908360ff16021790555060208201518160000160016101000a81548160ff021916908360128111156200e5ce57fe5b021790555060408201518160000160026101000a81548160ff021916908360128111156200e5f857fe5b021790555060608201518160010160008201518160000160006101000a81548161ffff021916908361ffff16021790555060208201518160000160026101000a81548161ffff021916908361ffff16021790555060408201518160000160046101000a81548161ffff021916908361ffff16021790555060608201518160000160066101000a81548161ffff021916908361ffff16021790555060808201518160000160086101000a81548161ffff021916908361ffff16021790555060a082015181600001600a6101000a81548161ffff021916908361ffff16021790555050505050506006608060405190810160405280607060ff168152602001600460128111156200e70357fe5b8152602001600560128111156200e71657fe5b815260200160c060405190810160405280606961ffff168152602001608261ffff168152602001607861ffff168152602001602d61ffff168152602001602d61ffff168152602001602861ffff168152508152509080600181540180825580915050906001820390600052602060002090600202016000909192909190915060008201518160000160006101000a81548160ff021916908360ff16021790555060208201518160000160016101000a81548160ff021916908360128111156200e7db57fe5b021790555060408201518160000160026101000a81548160ff021916908360128111156200e80557fe5b021790555060608201518160010160008201518160000160006101000a81548161ffff021916908361ffff16021790555060208201518160000160026101000a81548161ffff021916908361ffff16021790555060408201518160000160046101000a81548161ffff021916908361ffff16021790555060608201518160000160066101000a81548161ffff021916908361ffff16021790555060808201518160000160086101000a81548161ffff021916908361ffff16021790555060a082015181600001600a6101000a81548161ffff021916908361ffff16021790555050505050506006608060405190810160405280607160ff168152602001600060128111156200e91057fe5b81526020016012808111156200e92257fe5b815260200160c06040519081016040528060fa61ffff168152602001600561ffff168152602001600561ffff168152602001602361ffff168152602001606961ffff168152602001603261ffff168152508152509080600181540180825580915050906001820390600052602060002090600202016000909192909190915060008201518160000160006101000a81548160ff021916908360ff16021790555060208201518160000160016101000a81548160ff021916908360128111156200e9e757fe5b021790555060408201518160000160026101000a81548160ff021916908360128111156200ea1157fe5b021790555060608201518160010160008201518160000160006101000a81548161ffff021916908361ffff16021790555060208201518160000160026101000a81548161ffff021916908361ffff16021790555060408201518160000160046101000a81548161ffff021916908361ffff16021790555060608201518160000160066101000a81548161ffff021916908361ffff16021790555060808201518160000160086101000a81548161ffff021916908361ffff16021790555060a082015181600001600a6101000a81548161ffff021916908361ffff16021790555050505050506006608060405190810160405280607260ff168152602001600b60128111156200eb1c57fe5b81526020016012808111156200eb2e57fe5b815260200160c060405190810160405280604161ffff168152602001603761ffff168152602001607361ffff168152602001606461ffff168152602001602861ffff168152602001603c61ffff168152508152509080600181540180825580915050906001820390600052602060002090600202016000909192909190915060008201518160000160006101000a81548160ff021916908360ff16021790555060208201518160000160016101000a81548160ff021916908360128111156200ebf357fe5b021790555060408201518160000160026101000a81548160ff021916908360128111156200ec1d57fe5b021790555060608201518160010160008201518160000160006101000a81548161ffff021916908361ffff16021790555060208201518160000160026101000a81548161ffff021916908361ffff16021790555060408201518160000160046101000a81548161ffff021916908361ffff16021790555060608201518160000160066101000a81548161ffff021916908361ffff16021790555060808201518160000160086101000a81548161ffff021916908361ffff16021790555060a082015181600001600a6101000a81548161ffff021916908361ffff16021790555050505050506006608060405190810160405280607360ff168152602001600060128111156200ed2857fe5b81526020016012808111156200ed3a57fe5b815260200160c060405190810160405280606961ffff168152602001605f61ffff168152602001605061ffff168152602001602861ffff168152602001605061ffff168152602001605a61ffff168152508152509080600181540180825580915050906001820390600052602060002090600202016000909192909190915060008201518160000160006101000a81548160ff021916908360ff16021790555060208201518160000160016101000a81548160ff021916908360128111156200edff57fe5b021790555060408201518160000160026101000a81548160ff021916908360128111156200ee2957fe5b021790555060608201518160010160008201518160000160006101000a81548161ffff021916908361ffff16021790555060208201518160000160026101000a81548161ffff021916908361ffff16021790555060408201518160000160046101000a81548161ffff021916908361ffff16021790555060608201518160000160066101000a81548161ffff021916908361ffff16021790555060808201518160000160086101000a81548161ffff021916908361ffff16021790555060a082015181600001600a6101000a81548161ffff021916908361ffff16021790555050505050506006608060405190810160405280607460ff168152602001600a60128111156200ef3457fe5b81526020016012808111156200ef4657fe5b815260200160c060405190810160405280601e61ffff168152602001602861ffff168152602001604661ffff168152602001604661ffff168152602001601961ffff168152602001603c61ffff168152508152509080600181540180825580915050906001820390600052602060002090600202016000909192909190915060008201518160000160006101000a81548160ff021916908360ff16021790555060208201518160000160016101000a81548160ff021916908360128111156200f00b57fe5b021790555060408201518160000160026101000a81548160ff021916908360128111156200f03557fe5b021790555060608201518160010160008201518160000160006101000a81548161ffff021916908361ffff16021790555060208201518160000160026101000a81548161ffff021916908361ffff16021790555060408201518160000160046101000a81548161ffff021916908361ffff16021790555060608201518160000160066101000a81548161ffff021916908361ffff16021790555060808201518160000160086101000a81548161ffff021916908361ffff16021790555060a082015181600001600a6101000a81548161ffff021916908361ffff16021790555050505050506006608060405190810160405280607560ff168152602001600a60128111156200f14057fe5b81526020016012808111156200f15257fe5b815260200160c060405190810160405280603761ffff168152602001604161ffff168152602001605f61ffff168152602001605f61ffff168152602001602d61ffff168152602001605561ffff168152508152509080600181540180825580915050906001820390600052602060002090600202016000909192909190915060008201518160000160006101000a81548160ff021916908360ff16021790555060208201518160000160016101000a81548160ff021916908360128111156200f21757fe5b021790555060408201518160000160026101000a81548160ff021916908360128111156200f24157fe5b021790555060608201518160010160008201518160000160006101000a81548161ffff021916908361ffff16021790555060208201518160000160026101000a81548161ffff021916908361ffff16021790555060408201518160000160046101000a81548161ffff021916908361ffff16021790555060608201518160000160066101000a81548161ffff021916908361ffff16021790555060808201518160000160086101000a81548161ffff021916908361ffff16021790555060a082015181600001600a6101000a81548161ffff021916908361ffff16021790555050505050506006608060405190810160405280607660ff168152602001600a60128111156200f34c57fe5b81526020016012808111156200f35e57fe5b815260200160c060405190810160405280602d61ffff168152602001604361ffff168152602001603c61ffff168152602001602361ffff168152602001603261ffff168152602001603f61ffff168152508152509080600181540180825580915050906001820390600052602060002090600202016000909192909190915060008201518160000160006101000a81548160ff021916908360ff16021790555060208201518160000160016101000a81548160ff021916908360128111156200f42357fe5b021790555060408201518160000160026101000a81548160ff021916908360128111156200f44d57fe5b021790555060608201518160010160008201518160000160006101000a81548161ffff021916908361ffff16021790555060208201518160000160026101000a81548161ffff021916908361ffff16021790555060408201518160000160046101000a81548161ffff021916908361ffff16021790555060608201518160000160066101000a81548161ffff021916908361ffff16021790555060808201518160000160086101000a81548161ffff021916908361ffff16021790555060a082015181600001600a6101000a81548161ffff021916908361ffff16021790555050505050506006608060405190810160405280607760ff168152602001600a60128111156200f55857fe5b81526020016012808111156200f56a57fe5b815260200160c060405190810160405280605061ffff168152602001605c61ffff168152602001604161ffff168152602001604161ffff168152602001605061ffff168152602001604461ffff168152508152509080600181540180825580915050906001820390600052602060002090600202016000909192909190915060008201518160000160006101000a81548160ff021916908360ff16021790555060208201518160000160016101000a81548160ff021916908360128111156200f62f57fe5b021790555060408201518160000160026101000a81548160ff021916908360128111156200f65957fe5b021790555060608201518160010160008201518160000160006101000a81548161ffff021916908361ffff16021790555060208201518160000160026101000a81548161ffff021916908361ffff16021790555060408201518160000160046101000a81548161ffff021916908361ffff16021790555060608201518160000160066101000a81548161ffff021916908361ffff16021790555060808201518160000160086101000a81548161ffff021916908361ffff16021790555060a082015181600001600a6101000a81548161ffff021916908361ffff16021790555050505050506006608060405190810160405280607860ff168152602001600a60128111156200f76457fe5b81526020016012808111156200f77657fe5b815260200160c060405190810160405280601e61ffff168152602001602d61ffff168152602001603761ffff168152602001604661ffff168152602001603761ffff168152602001605561ffff168152508152509080600181540180825580915050906001820390600052602060002090600202016000909192909190915060008201518160000160006101000a81548160ff021916908360ff16021790555060208201518160000160016101000a81548160ff021916908360128111156200f83b57fe5b021790555060408201518160000160026101000a81548160ff021916908360128111156200f86557fe5b021790555060608201518160010160008201518160000160006101000a81548161ffff021916908361ffff16021790555060208201518160000160026101000a81548161ffff021916908361ffff16021790555060408201518160000160046101000a81548161ffff021916908361ffff16021790555060608201518160000160066101000a81548161ffff021916908361ffff16021790555060808201518160000160086101000a81548161ffff021916908361ffff16021790555060a082015181600001600a6101000a81548161ffff021916908361ffff16021790555050505050506006608060405190810160405280607960ff168152602001600a60128111156200f97057fe5b8152602001600d60128111156200f98357fe5b815260200160c060405190810160405280603c61ffff168152602001604b61ffff168152602001605561ffff168152602001606461ffff168152602001605561ffff168152602001607361ffff168152508152509080600181540180825580915050906001820390600052602060002090600202016000909192909190915060008201518160000160006101000a81548160ff021916908360ff16021790555060208201518160000160016101000a81548160ff021916908360128111156200fa4857fe5b021790555060408201518160000160026101000a81548160ff021916908360128111156200fa7257fe5b021790555060608201518160010160008201518160000160006101000a81548161ffff021916908361ffff16021790555060208201518160000160026101000a81548161ffff021916908361ffff16021790555060408201518160000160046101000a81548161ffff021916908361ffff16021790555060608201518160000160066101000a81548161ffff021916908361ffff16021790555060808201518160000160086101000a81548161ffff021916908361ffff16021790555060a082015181600001600a6101000a81548161ffff021916908361ffff16021790555050505050506006608060405190810160405280607a60ff168152602001600d60128111156200fb7d57fe5b8152602001601160128111156200fb9057fe5b815260200160c060405190810160405280602861ffff168152602001602d61ffff168152602001604161ffff168152602001606461ffff168152602001607861ffff168152602001605a61ffff168152508152509080600181540180825580915050906001820390600052602060002090600202016000909192909190915060008201518160000160006101000a81548160ff021916908360ff16021790555060208201518160000160016101000a81548160ff021916908360128111156200fc5557fe5b021790555060408201518160000160026101000a81548160ff021916908360128111156200fc7f57fe5b021790555060608201518160010160008201518160000160006101000a81548161ffff021916908361ffff16021790555060208201518160000160026101000a81548161ffff021916908361ffff16021790555060408201518160000160046101000a81548161ffff021916908361ffff16021790555060608201518160000160066101000a81548161ffff021916908361ffff16021790555060808201518160000160086101000a81548161ffff021916908361ffff16021790555060a082015181600001600a6101000a81548161ffff021916908361ffff16021790555050505050506006608060405190810160405280607b60ff168152602001600660128111156200fd8a57fe5b8152602001600260128111156200fd9d57fe5b815260200160c060405190810160405280604661ffff168152602001606e61ffff168152602001605061ffff168152602001603761ffff168152602001605061ffff168152602001606961ffff168152508152509080600181540180825580915050906001820390600052602060002090600202016000909192909190915060008201518160000160006101000a81548160ff021916908360ff16021790555060208201518160000160016101000a81548160ff021916908360128111156200fe6257fe5b021790555060408201518160000160026101000a81548160ff021916908360128111156200fe8c57fe5b021790555060608201518160010160008201518160000160006101000a81548161ffff021916908361ffff16021790555060208201518160000160026101000a81548161ffff021916908361ffff16021790555060408201518160000160046101000a81548161ffff021916908361ffff16021790555060608201518160000160066101000a81548161ffff021916908361ffff16021790555060808201518160000160086101000a81548161ffff021916908361ffff16021790555060a082015181600001600a6101000a81548161ffff021916908361ffff16021790555050505050506006608060405190810160405280607c60ff168152602001600e60128111156200ff9757fe5b8152602001600d60128111156200ffaa57fe5b815260200160c060405190810160405280604161ffff168152602001603261ffff168152602001602361ffff168152602001607361ffff168152602001605f61ffff168152602001605f61ffff168152508152509080600181540180825580915050906001820390600052602060002090600202016000909192909190915060008201518160000160006101000a81548160ff021916908360ff16021790555060208201518160000160016101000a81548160ff021916908360128111156201006f57fe5b021790555060408201518160000160026101000a81548160ff021916908360128111156201009957fe5b021790555060608201518160010160008201518160000160006101000a81548161ffff021916908361ffff16021790555060208201518160000160026101000a81548161ffff021916908361ffff16021790555060408201518160000160046101000a81548161ffff021916908361ffff16021790555060608201518160000160066101000a81548161ffff021916908361ffff16021790555060808201518160000160086101000a81548161ffff021916908361ffff16021790555060a082015181600001600a6101000a81548161ffff021916908361ffff16021790555050505050506006608060405190810160405280607d60ff168152602001600c6012811115620101a457fe5b8152602001601280811115620101b657fe5b815260200160c060405190810160405280604161ffff168152602001605361ffff168152602001603961ffff168152602001605f61ffff168152602001605561ffff168152602001606961ffff168152508152509080600181540180825580915050906001820390600052602060002090600202016000909192909190915060008201518160000160006101000a81548160ff021916908360ff16021790555060208201518160000160016101000a81548160ff021916908360128111156201027b57fe5b021790555060408201518160000160026101000a81548160ff02191690836012811115620102a557fe5b021790555060608201518160010160008201518160000160006101000a81548161ffff021916908361ffff16021790555060208201518160000160026101000a81548161ffff021916908361ffff16021790555060408201518160000160046101000a81548161ffff021916908361ffff16021790555060608201518160000160066101000a81548161ffff021916908361ffff16021790555060808201518160000160086101000a81548161ffff021916908361ffff16021790555060a082015181600001600a6101000a81548161ffff021916908361ffff16021790555050505050506006608060405190810160405280607e60ff16815260200160096012811115620103b057fe5b8152602001601280811115620103c257fe5b815260200160c060405190810160405280604161ffff168152602001605f61ffff168152602001603961ffff168152602001606461ffff168152602001605561ffff168152602001605d61ffff168152508152509080600181540180825580915050906001820390600052602060002090600202016000909192909190915060008201518160000160006101000a81548160ff021916908360ff16021790555060208201518160000160016101000a81548160ff021916908360128111156201048757fe5b021790555060408201518160000160026101000a81548160ff02191690836012811115620104b157fe5b021790555060608201518160010160008201518160000160006101000a81548161ffff021916908361ffff16021790555060208201518160000160026101000a81548161ffff021916908361ffff16021790555060408201518160000160046101000a81548161ffff021916908361ffff16021790555060608201518160000160066101000a81548161ffff021916908361ffff16021790555060808201518160000160086101000a81548161ffff021916908361ffff16021790555060a082015181600001600a6101000a81548161ffff021916908361ffff16021790555050505050506006608060405190810160405280607f60ff16815260200160066012811115620105bc57fe5b8152602001601280811115620105ce57fe5b815260200160c060405190810160405280604161ffff168152602001607d61ffff168152602001606461ffff168152602001603761ffff168152602001604661ffff168152602001605561ffff168152508152509080600181540180825580915050906001820390600052602060002090600202016000909192909190915060008201518160000160006101000a81548160ff021916908360ff16021790555060208201518160000160016101000a81548160ff021916908360128111156201069357fe5b021790555060408201518160000160026101000a81548160ff02191690836012811115620106bd57fe5b021790555060608201518160010160008201518160000160006101000a81548161ffff021916908361ffff16021790555060208201518160000160026101000a81548161ffff021916908361ffff16021790555060408201518160000160046101000a81548161ffff021916908361ffff16021790555060608201518160000160066101000a81548161ffff021916908361ffff16021790555060808201518160000160086101000a81548161ffff021916908361ffff16021790555060a082015181600001600a6101000a81548161ffff021916908361ffff16021790555050505050506006608060405190810160405280608060ff16815260200160006012811115620107c857fe5b8152602001601280811115620107da57fe5b815260200160c060405190810160405280604b61ffff168152602001606461ffff168152602001605f61ffff168152602001602861ffff168152602001604661ffff168152602001606e61ffff168152508152509080600181540180825580915050906001820390600052602060002090600202016000909192909190915060008201518160000160006101000a81548160ff021916908360ff16021790555060208201518160000160016101000a81548160ff021916908360128111156201089f57fe5b021790555060408201518160000160026101000a81548160ff02191690836012811115620108c957fe5b021790555060608201518160010160008201518160000160006101000a81548161ffff021916908361ffff16021790555060208201518160000160026101000a81548161ffff021916908361ffff16021790555060408201518160000160046101000a81548161ffff021916908361ffff16021790555060608201518160000160066101000a81548161ffff021916908361ffff16021790555060808201518160000160086101000a81548161ffff021916908361ffff16021790555060a082015181600001600a6101000a81548161ffff021916908361ffff16021790555050505050506006608060405190810160405280608160ff168152602001600a6012811115620109d457fe5b8152602001601280811115620109e657fe5b815260200160c060405190810160405280601461ffff168152602001600a61ffff168152602001603761ffff168152602001600f61ffff168152602001601461ffff168152602001605061ffff168152508152509080600181540180825580915050906001820390600052602060002090600202016000909192909190915060008201518160000160006101000a81548160ff021916908360ff16021790555060208201518160000160016101000a81548160ff0219169083601281111562010aab57fe5b021790555060408201518160000160026101000a81548160ff0219169083601281111562010ad557fe5b021790555060608201518160010160008201518160000160006101000a81548161ffff021916908361ffff16021790555060208201518160000160026101000a81548161ffff021916908361ffff16021790555060408201518160000160046101000a81548161ffff021916908361ffff16021790555060608201518160000160066101000a81548161ffff021916908361ffff16021790555060808201518160000160086101000a81548161ffff021916908361ffff16021790555060a082015181600001600a6101000a81548161ffff021916908361ffff16021790555050505050506006608060405190810160405280608260ff168152602001600a601281111562010be057fe5b81526020016002601281111562010bf357fe5b815260200160c060405190810160405280605f61ffff168152602001607d61ffff168152602001604f61ffff168152602001603c61ffff168152602001606461ffff168152602001605161ffff168152508152509080600181540180825580915050906001820390600052602060002090600202016000909192909190915060008201518160000160006101000a81548160ff021916908360ff16021790555060208201518160000160016101000a81548160ff0219169083601281111562010cb857fe5b021790555060408201518160000160026101000a81548160ff0219169083601281111562010ce257fe5b021790555060608201518160010160008201518160000160006101000a81548161ffff021916908361ffff16021790555060208201518160000160026101000a81548161ffff021916908361ffff16021790555060408201518160000160046101000a81548161ffff021916908361ffff16021790555060608201518160000160066101000a81548161ffff021916908361ffff16021790555060808201518160000160086101000a81548161ffff021916908361ffff16021790555060a082015181600001600a6101000a81548161ffff021916908361ffff16021790555050505050506006608060405190810160405280608360ff168152602001600a601281111562010ded57fe5b8152602001600e601281111562010e0057fe5b815260200160c060405190810160405280608261ffff168152602001605561ffff168152602001605061ffff168152602001605561ffff168152602001605f61ffff168152602001603c61ffff168152508152509080600181540180825580915050906001820390600052602060002090600202016000909192909190915060008201518160000160006101000a81548160ff021916908360ff16021790555060208201518160000160016101000a81548160ff0219169083601281111562010ec557fe5b021790555060408201518160000160026101000a81548160ff0219169083601281111562010eef57fe5b021790555060608201518160010160008201518160000160006101000a81548161ffff021916908361ffff16021790555060208201518160000160026101000a81548161ffff021916908361ffff16021790555060408201518160000160046101000a81548161ffff021916908361ffff16021790555060608201518160000160066101000a81548161ffff021916908361ffff16021790555060808201518160000160086101000a81548161ffff021916908361ffff16021790555060a082015181600001600a6101000a81548161ffff021916908361ffff16021790555050505050506006608060405190810160405280608460ff1681526020016000601281111562010ffa57fe5b81526020016012808111156201100c57fe5b815260200160c060405190810160405280603061ffff168152602001603061ffff168152602001603061ffff168152602001603061ffff168152602001603061ffff168152602001603061ffff168152508152509080600181540180825580915050906001820390600052602060002090600202016000909192909190915060008201518160000160006101000a81548160ff021916908360ff16021790555060208201518160000160016101000a81548160ff02191690836012811115620110d157fe5b021790555060408201518160000160026101000a81548160ff02191690836012811115620110fb57fe5b021790555060608201518160010160008201518160000160006101000a81548161ffff021916908361ffff16021790555060208201518160000160026101000a81548161ffff021916908361ffff16021790555060408201518160000160046101000a81548161ffff021916908361ffff16021790555060608201518160000160066101000a81548161ffff021916908361ffff16021790555060808201518160000160086101000a81548161ffff021916908361ffff16021790555060a082015181600001600a6101000a81548161ffff021916908361ffff16021790555050505050506006608060405190810160405280608560ff168152602001600060128111156201120657fe5b81526020016012808111156201121857fe5b815260200160c060405190810160405280603761ffff168152602001603761ffff168152602001603261ffff168152602001602d61ffff168152602001604161ffff168152602001603761ffff168152508152509080600181540180825580915050906001820390600052602060002090600202016000909192909190915060008201518160000160006101000a81548160ff021916908360ff16021790555060208201518160000160016101000a81548160ff02191690836012811115620112dd57fe5b021790555060408201518160000160026101000a81548160ff021916908360128111156201130757fe5b021790555060608201518160010160008201518160000160006101000a81548161ffff021916908361ffff16021790555060208201518160000160026101000a81548161ffff021916908361ffff16021790555060408201518160000160046101000a81548161ffff021916908361ffff16021790555060608201518160000160066101000a81548161ffff021916908361ffff16021790555060808201518160000160086101000a81548161ffff021916908361ffff16021790555060a082015181600001600a6101000a81548161ffff021916908361ffff16021790555050505050506006608060405190810160405280608660ff168152602001600a60128111156201141257fe5b81526020016012808111156201142457fe5b815260200160c060405190810160405280608261ffff168152602001604161ffff168152602001603c61ffff168152602001606e61ffff168152602001605f61ffff168152602001604161ffff168152508152509080600181540180825580915050906001820390600052602060002090600202016000909192909190915060008201518160000160006101000a81548160ff021916908360ff16021790555060208201518160000160016101000a81548160ff02191690836012811115620114e957fe5b021790555060408201518160000160026101000a81548160ff021916908360128111156201151357fe5b021790555060608201518160010160008201518160000160006101000a81548161ffff021916908361ffff16021790555060208201518160000160026101000a81548161ffff021916908361ffff16021790555060408201518160000160046101000a81548161ffff021916908361ffff16021790555060608201518160000160066101000a81548161ffff021916908361ffff16021790555060808201518160000160086101000a81548161ffff021916908361ffff16021790555060a082015181600001600a6101000a81548161ffff021916908361ffff16021790555050505050506006608060405190810160405280608760ff168152602001600c60128111156201161e57fe5b81526020016012808111156201163057fe5b815260200160c060405190810160405280604161ffff168152602001604161ffff168152602001603c61ffff168152602001606e61ffff168152602001605f61ffff168152602001608261ffff168152508152509080600181540180825580915050906001820390600052602060002090600202016000909192909190915060008201518160000160006101000a81548160ff021916908360ff16021790555060208201518160000160016101000a81548160ff02191690836012811115620116f557fe5b021790555060408201518160000160026101000a81548160ff021916908360128111156201171f57fe5b021790555060608201518160010160008201518160000160006101000a81548161ffff021916908361ffff16021790555060208201518160000160026101000a81548161ffff021916908361ffff16021790555060408201518160000160046101000a81548161ffff021916908361ffff16021790555060608201518160000160066101000a81548161ffff021916908361ffff16021790555060808201518160000160086101000a81548161ffff021916908361ffff16021790555060a082015181600001600a6101000a81548161ffff021916908361ffff16021790555050505050506006608060405190810160405280608860ff168152602001600960128111156201182a57fe5b81526020016012808111156201183c57fe5b815260200160c060405190810160405280604161ffff168152602001608261ffff168152602001603c61ffff168152602001605f61ffff168152602001606e61ffff168152602001604161ffff168152508152509080600181540180825580915050906001820390600052602060002090600202016000909192909190915060008201518160000160006101000a81548160ff021916908360ff16021790555060208201518160000160016101000a81548160ff021916908360128111156201190157fe5b021790555060408201518160000160026101000a81548160ff021916908360128111156201192b57fe5b021790555060608201518160010160008201518160000160006101000a81548161ffff021916908361ffff16021790555060208201518160000160026101000a81548161ffff021916908361ffff16021790555060408201518160000160046101000a81548161ffff021916908361ffff16021790555060608201518160000160066101000a81548161ffff021916908361ffff16021790555060808201518160000160086101000a81548161ffff021916908361ffff16021790555060a082015181600001600a6101000a81548161ffff021916908361ffff16021790555050505050506006608060405190810160405280608960ff1681526020016000601281111562011a3657fe5b815260200160128081111562011a4857fe5b815260200160c060405190810160405280604161ffff168152602001603c61ffff168152602001604661ffff168152602001605561ffff168152602001604b61ffff168152602001602861ffff168152508152509080600181540180825580915050906001820390600052602060002090600202016000909192909190915060008201518160000160006101000a81548160ff021916908360ff16021790555060208201518160000160016101000a81548160ff0219169083601281111562011b0d57fe5b021790555060408201518160000160026101000a81548160ff0219169083601281111562011b3757fe5b021790555060608201518160010160008201518160000160006101000a81548161ffff021916908361ffff16021790555060208201518160000160026101000a81548161ffff021916908361ffff16021790555060408201518160000160046101000a81548161ffff021916908361ffff16021790555060608201518160000160066101000a81548161ffff021916908361ffff16021790555060808201518160000160086101000a81548161ffff021916908361ffff16021790555060a082015181600001600a6101000a81548161ffff021916908361ffff16021790555050505050506006608060405190810160405280608a60ff1681526020016005601281111562011c4257fe5b8152602001600a601281111562011c5557fe5b815260200160c060405190810160405280602361ffff168152602001602861ffff168152602001606461ffff168152602001605a61ffff168152602001603761ffff168152602001602361ffff168152508152509080600181540180825580915050906001820390600052602060002090600202016000909192909190915060008201518160000160006101000a81548160ff021916908360ff16021790555060208201518160000160016101000a81548160ff0219169083601281111562011d1a57fe5b021790555060408201518160000160026101000a81548160ff0219169083601281111562011d4457fe5b021790555060608201518160010160008201518160000160006101000a81548161ffff021916908361ffff16021790555060208201518160000160026101000a81548161ffff021916908361ffff16021790555060408201518160000160046101000a81548161ffff021916908361ffff16021790555060608201518160000160066101000a81548161ffff021916908361ffff16021790555060808201518160000160086101000a81548161ffff021916908361ffff16021790555060a082015181600001600a6101000a81548161ffff021916908361ffff16021790555050505050506006608060405190810160405280608b60ff1681526020016005601281111562011e4f57fe5b8152602001600a601281111562011e6257fe5b815260200160c060405190810160405280604661ffff168152602001603c61ffff168152602001607d61ffff168152602001607361ffff168152602001604661ffff168152602001603761ffff168152508152509080600181540180825580915050906001820390600052602060002090600202016000909192909190915060008201518160000160006101000a81548160ff021916908360ff16021790555060208201518160000160016101000a81548160ff0219169083601281111562011f2757fe5b021790555060408201518160000160026101000a81548160ff0219169083601281111562011f5157fe5b021790555060608201518160010160008201518160000160006101000a81548161ffff021916908361ffff16021790555060208201518160000160026101000a81548161ffff021916908361ffff16021790555060408201518160000160046101000a81548161ffff021916908361ffff16021790555060608201518160000160066101000a81548161ffff021916908361ffff16021790555060808201518160000160086101000a81548161ffff021916908361ffff16021790555060a082015181600001600a6101000a81548161ffff021916908361ffff16021790555050505050506006608060405190810160405280608c60ff168152602001600560128111156201205c57fe5b8152602001600a60128111156201206f57fe5b815260200160c060405190810160405280601e61ffff168152602001605061ffff168152602001605a61ffff168152602001603761ffff168152602001602d61ffff168152602001603761ffff168152508152509080600181540180825580915050906001820390600052602060002090600202016000909192909190915060008201518160000160006101000a81548160ff021916908360ff16021790555060208201518160000160016101000a81548160ff021916908360128111156201213457fe5b021790555060408201518160000160026101000a81548160ff021916908360128111156201215e57fe5b021790555060608201518160010160008201518160000160006101000a81548161ffff021916908361ffff16021790555060208201518160000160026101000a81548161ffff021916908361ffff16021790555060408201518160000160046101000a81548161ffff021916908361ffff16021790555060608201518160000160066101000a81548161ffff021916908361ffff16021790555060808201518160000160086101000a81548161ffff021916908361ffff16021790555060a082015181600001600a6101000a81548161ffff021916908361ffff16021790555050505050506006608060405190810160405280608d60ff168152602001600560128111156201226957fe5b8152602001600a60128111156201227c57fe5b815260200160c060405190810160405280603c61ffff168152602001607361ffff168152602001606961ffff168152602001604161ffff168152602001604661ffff168152602001605061ffff168152508152509080600181540180825580915050906001820390600052602060002090600202016000909192909190915060008201518160000160006101000a81548160ff021916908360ff16021790555060208201518160000160016101000a81548160ff021916908360128111156201234157fe5b021790555060408201518160000160026101000a81548160ff021916908360128111156201236b57fe5b021790555060608201518160010160008201518160000160006101000a81548161ffff021916908361ffff16021790555060208201518160000160026101000a81548161ffff021916908361ffff16021790555060408201518160000160046101000a81548161ffff021916908361ffff16021790555060608201518160000160066101000a81548161ffff021916908361ffff16021790555060808201518160000160086101000a81548161ffff021916908361ffff16021790555060a082015181600001600a6101000a81548161ffff021916908361ffff16021790555050505050506006608060405190810160405280608e60ff168152602001600560128111156201247657fe5b8152602001600260128111156201248957fe5b815260200160c060405190810160405280605061ffff168152602001606961ffff168152602001604161ffff168152602001603c61ffff168152602001604b61ffff168152602001608261ffff168152508152509080600181540180825580915050906001820390600052602060002090600202016000909192909190915060008201518160000160006101000a81548160ff021916908360ff16021790555060208201518160000160016101000a81548160ff021916908360128111156201254e57fe5b021790555060408201518160000160026101000a81548160ff021916908360128111156201257857fe5b021790555060608201518160010160008201518160000160006101000a81548161ffff021916908361ffff16021790555060208201518160000160026101000a81548161ffff021916908361ffff16021790555060408201518160000160046101000a81548161ffff021916908361ffff16021790555060608201518160000160066101000a81548161ffff021916908361ffff16021790555060808201518160000160086101000a81548161ffff021916908361ffff16021790555060a082015181600001600a6101000a81548161ffff021916908361ffff16021790555050505050506006608060405190810160405280608f60ff168152602001600060128111156201268357fe5b81526020016012808111156201269557fe5b815260200160c06040519081016040528060a061ffff168152602001606e61ffff168152602001604161ffff168152602001604161ffff168152602001606e61ffff168152602001601e61ffff168152508152509080600181540180825580915050906001820390600052602060002090600202016000909192909190915060008201518160000160006101000a81548160ff021916908360ff16021790555060208201518160000160016101000a81548160ff021916908360128111156201275a57fe5b021790555060408201518160000160026101000a81548160ff021916908360128111156201278457fe5b021790555060608201518160010160008201518160000160006101000a81548161ffff021916908361ffff16021790555060208201518160000160026101000a81548161ffff021916908361ffff16021790555060408201518160000160046101000a81548161ffff021916908361ffff16021790555060608201518160000160066101000a81548161ffff021916908361ffff16021790555060808201518160000160086101000a81548161ffff021916908361ffff16021790555060a082015181600001600a6101000a81548161ffff021916908361ffff16021790555050505050506006608060405190810160405280609060ff168152602001600e60128111156201288f57fe5b815260200160026012811115620128a257fe5b815260200160c060405190810160405280605a61ffff168152602001605561ffff168152602001606461ffff168152602001605f61ffff168152602001607d61ffff168152602001605561ffff168152508152509080600181540180825580915050906001820390600052602060002090600202016000909192909190915060008201518160000160006101000a81548160ff021916908360ff16021790555060208201518160000160016101000a81548160ff021916908360128111156201296757fe5b021790555060408201518160000160026101000a81548160ff021916908360128111156201299157fe5b021790555060608201518160010160008201518160000160006101000a81548161ffff021916908361ffff16021790555060208201518160000160026101000a81548161ffff021916908361ffff16021790555060408201518160000160046101000a81548161ffff021916908361ffff16021790555060608201518160000160066101000a81548161ffff021916908361ffff16021790555060808201518160000160086101000a81548161ffff021916908361ffff16021790555060a082015181600001600a6101000a81548161ffff021916908361ffff16021790555050505050506006608060405190810160405280609160ff168152602001600c601281111562012a9c57fe5b81526020016002601281111562012aaf57fe5b815260200160c060405190810160405280605a61ffff168152602001605a61ffff168152602001605561ffff168152602001607d61ffff168152602001605a61ffff168152602001606461ffff168152508152509080600181540180825580915050906001820390600052602060002090600202016000909192909190915060008201518160000160006101000a81548160ff021916908360ff16021790555060208201518160000160016101000a81548160ff0219169083601281111562012b7457fe5b021790555060408201518160000160026101000a81548160ff0219169083601281111562012b9e57fe5b021790555060608201518160010160008201518160000160006101000a81548161ffff021916908361ffff16021790555060208201518160000160026101000a81548161ffff021916908361ffff16021790555060408201518160000160046101000a81548161ffff021916908361ffff16021790555060608201518160000160066101000a81548161ffff021916908361ffff16021790555060808201518160000160086101000a81548161ffff021916908361ffff16021790555060a082015181600001600a6101000a81548161ffff021916908361ffff16021790555050505050506006608060405190810160405280609260ff1681526020016009601281111562012ca957fe5b81526020016002601281111562012cbc57fe5b815260200160c060405190810160405280605a61ffff168152602001606461ffff168152602001605a61ffff168152602001607d61ffff168152602001605561ffff168152602001605a61ffff168152508152509080600181540180825580915050906001820390600052602060002090600202016000909192909190915060008201518160000160006101000a81548160ff021916908360ff16021790555060208201518160000160016101000a81548160ff0219169083601281111562012d8157fe5b021790555060408201518160000160026101000a81548160ff0219169083601281111562012dab57fe5b021790555060608201518160010160008201518160000160006101000a81548161ffff021916908361ffff16021790555060208201518160000160026101000a81548161ffff021916908361ffff16021790555060408201518160000160046101000a81548161ffff021916908361ffff16021790555060608201518160000160066101000a81548161ffff021916908361ffff16021790555060808201518160000160086101000a81548161ffff021916908361ffff16021790555060a082015181600001600a6101000a81548161ffff021916908361ffff16021790555050505050506006608060405190810160405280609360ff168152602001600f601281111562012eb657fe5b815260200160128081111562012ec857fe5b815260200160c060405190810160405280602961ffff168152602001604061ffff168152602001602d61ffff168152602001603261ffff168152602001603261ffff168152602001603261ffff168152508152509080600181540180825580915050906001820390600052602060002090600202016000909192909190915060008201518160000160006101000a81548160ff021916908360ff16021790555060208201518160000160016101000a81548160ff0219169083601281111562012f8d57fe5b021790555060408201518160000160026101000a81548160ff0219169083601281111562012fb757fe5b021790555060608201518160010160008201518160000160006101000a81548161ffff021916908361ffff16021790555060208201518160000160026101000a81548161ffff021916908361ffff16021790555060408201518160000160046101000a81548161ffff021916908361ffff16021790555060608201518160000160066101000a81548161ffff021916908361ffff16021790555060808201518160000160086101000a81548161ffff021916908361ffff16021790555060a082015181600001600a6101000a81548161ffff021916908361ffff16021790555050505050506006608060405190810160405280609460ff168152602001600f6012811115620130c257fe5b8152602001601280811115620130d457fe5b815260200160c060405190810160405280603d61ffff168152602001605461ffff168152602001604161ffff168152602001604661ffff168152602001604661ffff168152602001604661ffff168152508152509080600181540180825580915050906001820390600052602060002090600202016000909192909190915060008201518160000160006101000a81548160ff021916908360ff16021790555060208201518160000160016101000a81548160ff021916908360128111156201319957fe5b021790555060408201518160000160026101000a81548160ff02191690836012811115620131c357fe5b021790555060608201518160010160008201518160000160006101000a81548161ffff021916908361ffff16021790555060208201518160000160026101000a81548161ffff021916908361ffff16021790555060408201518160000160046101000a81548161ffff021916908361ffff16021790555060608201518160000160066101000a81548161ffff021916908361ffff16021790555060808201518160000160086101000a81548161ffff021916908361ffff16021790555060a082015181600001600a6101000a81548161ffff021916908361ffff16021790555050505050506006608060405190810160405280609560ff168152602001600f6012811115620132ce57fe5b815260200160026012811115620132e157fe5b815260200160c060405190810160405280605b61ffff168152602001608661ffff168152602001605f61ffff168152602001606461ffff168152602001606461ffff168152602001605061ffff168152508152509080600181540180825580915050906001820390600052602060002090600202016000909192909190915060008201518160000160006101000a81548160ff021916908360ff16021790555060208201518160000160016101000a81548160ff02191690836012811115620133a657fe5b021790555060408201518160000160026101000a81548160ff02191690836012811115620133d057fe5b021790555060608201518160010160008201518160000160006101000a81548161ffff021916908361ffff16021790555060208201518160000160026101000a81548161ffff021916908361ffff16021790555060408201518160000160046101000a81548161ffff021916908361ffff16021790555060608201518160000160066101000a81548161ffff021916908361ffff16021790555060808201518160000160086101000a81548161ffff021916908361ffff16021790555060a082015181600001600a6101000a81548161ffff021916908361ffff16021790555050505050506006608060405190810160405280609660ff168152602001600d6012811115620134db57fe5b8152602001601280811115620134ed57fe5b815260200160c060405190810160405280606a61ffff168152602001606e61ffff168152602001605a61ffff168152602001609a61ffff168152602001605a61ffff168152602001608261ffff168152508152509080600181540180825580915050906001820390600052602060002090600202016000909192909190915060008201518160000160006101000a81548160ff021916908360ff16021790555060208201518160000160016101000a81548160ff02191690836012811115620135b257fe5b021790555060408201518160000160026101000a81548160ff02191690836012811115620135dc57fe5b021790555060608201518160010160008201518160000160006101000a81548161ffff021916908361ffff16021790555060208201518160000160026101000a81548161ffff021916908361ffff16021790555060408201518160000160046101000a81548161ffff021916908361ffff16021790555060608201518160000160066101000a81548161ffff021916908361ffff16021790555060808201518160000160086101000a81548161ffff021916908361ffff16021790555060a082015181600001600a6101000a81548161ffff021916908361ffff16021790555050505050506006608060405190810160405280609760ff168152602001600d6012811115620136e757fe5b8152602001601280811115620136f957fe5b815260200160c060405190810160405280606461ffff168152602001606461ffff168152602001606461ffff168152602001606461ffff168152602001606461ffff168152602001606461ffff168152508152509080600181540180825580915050906001820390600052602060002090600202016000909192909190915060008201518160000160006101000a81548160ff021916908360ff16021790555060208201518160000160016101000a81548160ff02191690836012811115620137be57fe5b021790555060408201518160000160026101000a81548160ff02191690836012811115620137e857fe5b021790555060608201518160010160008201518160000160006101000a81548161ffff021916908361ffff16021790555060208201518160000160026101000a81548161ffff021916908361ffff16021790555060408201518160000160046101000a81548161ffff021916908361ffff16021790555060608201518160000160066101000a81548161ffff021916908361ffff16021790555060808201518160000160086101000a81548161ffff021916908361ffff16021790555060a082015181600001600a6101000a81548161ffff021916908361ffff16021790555050505050508081600760006101000a81548173ffffffffffffffffffffffffffffffffffffffff021916908373ffffffffffffffffffffffffffffffffffffffff160217905550505062013a4b565b63ffffffff7c010000000000000000000000000000000000000000000000000000000002817bffffffffffffffffffffffffffffffffffffffffffffffffffffffff1916141515156201396957600080fd5b6001600080837bffffffffffffffffffffffffffffffffffffffffffffffffffffffff19167bffffffffffffffffffffffffffffffffffffffffffffffffffffffff1916815260200190815260200160002060006101000a81548160ff02191690831515021790555050565b6000620139e3825162013a37565b905092915050565b600060208284031215620139fe57600080fd5b600062013a0e84828501620139d5565b91505092915050565b600073ffffffffffffffffffffffffffffffffffffffff82169050919050565b600062013a448262013a17565b9050919050565b6129008062013a5b6000396000f3fe60806040526004361061013c576000357c01000000000000000000000000000000000000000000000000000000009004806370a08231116100bd5780638f32d59b116100815780638f32d59b146103f1578063a22cb4651461041c578063b88d4fde14610445578063e985e9c51461046e578063f2fde38b146104ab5761013c565b806370a082311461030c578063715018a614610349578063852bd6e0146103605780638da5cb5b146103895780638ef9e13e146103b45761013c565b8063319876f811610104578063319876f81461021757806336ce5e471461024057806342842e0e14610269578063467fb1e4146102925780636352211e146102cf5761013c565b806301ffc9a714610141578063081812fc1461017e578063095ea7b3146101bb5780631fb15ecf146101e457806323b872dd146101ee575b600080fd5b34801561014d57600080fd5b50610168600480360361016391908101906122b8565b6104d4565b6040516101759190612637565b60405180910390f35b34801561018a57600080fd5b506101a560048036036101a0919081019061230a565b61053b565b6040516101b291906125d0565b60405180910390f35b3480156101c757600080fd5b506101e260048036036101dd919081019061227c565b61058c565b005b6101ec6106d1565b005b3480156101fa57600080fd5b5061021560048036036102109190810190612176565b610726565b005b34801561022357600080fd5b5061023e60048036036102399190810190612333565b61074b565b005b34801561024c57600080fd5b506102676004803603610262919081019061230a565b61077d565b005b34801561027557600080fd5b50610290600480360361028b9190810190612176565b6107ad565b005b34801561029e57600080fd5b506102b960048036036102b4919081019061230a565b6107ce565b6040516102c6919061268e565b60405180910390f35b3480156102db57600080fd5b506102f660048036036102f1919081019061230a565b610a0b565b60405161030391906125d0565b60405180910390f35b34801561031857600080fd5b50610333600480360361032e9190810190612111565b610a89565b60405161034091906126aa565b60405180910390f35b34801561035557600080fd5b5061035e610b14565b005b34801561036c57600080fd5b5061038760048036036103829190810190612111565b610be8565b005b34801561039557600080fd5b5061039e610c41565b6040516103ab91906125d0565b60405180910390f35b3480156103c057600080fd5b506103db60048036036103d69190810190612387565b610c6b565b6040516103e89190612672565b60405180910390f35b3480156103fd57600080fd5b50610406610df2565b6040516104139190612637565b60405180910390f35b34801561042857600080fd5b50610443600480360361043e9190810190612240565b610e4a565b005b34801561045157600080fd5b5061046c600480360361046791908101906121c5565b610f82565b005b34801561047a57600080fd5b506104956004803603610490919081019061213a565b610faa565b6040516104a29190612637565b60405180910390f35b3480156104b757600080fd5b506104d260048036036104cd9190810190612111565b61103e565b005b6000806000837bffffffffffffffffffffffffffffffffffffffffffffffffffffffff19167bffffffffffffffffffffffffffffffffffffffffffffffffffffffff1916815260200190815260200160002060009054906101000a900460ff169050919050565b60006105468261105d565b151561055157600080fd5b6002600083815260200190815260200160002060009054906101000a900473ffffffffffffffffffffffffffffffffffffffff169050919050565b600061059782610a0b565b90508073ffffffffffffffffffffffffffffffffffffffff168373ffffffffffffffffffffffffffffffffffffffff16141515156105d457600080fd5b8073ffffffffffffffffffffffffffffffffffffffff163373ffffffffffffffffffffffffffffffffffffffff16148061061457506106138133610faa565b5b151561061f57600080fd5b826002600084815260200190815260200160002060006101000a81548173ffffffffffffffffffffffffffffffffffffffff021916908373ffffffffffffffffffffffffffffffffffffffff160217905550818373ffffffffffffffffffffffffffffffffffffffff168273ffffffffffffffffffffffffffffffffffffffff167f8c5be1e5ebec7d5bd14f71427d1e84f3dd0314c0f7b2291e5b200ac8c7c3b92560405160405180910390a4505050565b66038d7ea4c680003414151561071c576040517f08c379a000000000000000000000000000000000000000000000000000000000815260040161071390612652565b60405180910390fd5b6107246110cf565b565b6107303382611339565b151561073b57600080fd5b6107468383836113ce565b505050565b61077933600760009054906101000a900473ffffffffffffffffffffffffffffffffffffffff168484610f82565b5050565b6107aa33600760009054906101000a900473ffffffffffffffffffffffffffffffffffffffff16836107ad565b50565b6107c98383836020604051908101604052806000815250610f82565b505050565b6107d6611f5e565b6008600083815260200190815260200160002060a060405190810160405290816000820160009054906101000a900460ff1660ff1660ff1681526020016000820160019054906101000a900460ff16600281111561083057fe5b600281111561083b57fe5b81526020016000820160029054906101000a900460ff161515151581526020016001820160c060405190810160405290816000820160009054906101000a900461ffff1661ffff1661ffff1681526020016000820160029054906101000a900461ffff1661ffff1661ffff1681526020016000820160049054906101000a900461ffff1661ffff1661ffff1681526020016000820160069054906101000a900461ffff1661ffff1661ffff1681526020016000820160089054906101000a900461ffff1661ffff1661ffff16815260200160008201600a9054906101000a900461ffff1661ffff1661ffff168152505081526020016002820160c060405190810160405290816000820160009054906101000a900461ffff1661ffff1661ffff1681526020016000820160029054906101000a900461ffff1661ffff1661ffff1681526020016000820160049054906101000a900461ffff1661ffff1661ffff1681526020016000820160069054906101000a900461ffff1661ffff1661ffff1681526020016000820160089054906101000a900461ffff1661ffff1661ffff16815260200160008201600a9054906101000a900461ffff1661ffff1661ffff1681525050815250509050919050565b6000806001600084815260200190815260200160002060009054906101000a900473ffffffffffffffffffffffffffffffffffffffff169050600073ffffffffffffffffffffffffffffffffffffffff168173ffffffffffffffffffffffffffffffffffffffff1614151515610a8057600080fd5b80915050919050565b60008073ffffffffffffffffffffffffffffffffffffffff168273ffffffffffffffffffffffffffffffffffffffff1614151515610ac657600080fd5b610b0d600360008473ffffffffffffffffffffffffffffffffffffffff1673ffffffffffffffffffffffffffffffffffffffff168152602001908152602001600020611595565b9050919050565b610b1c610df2565b1515610b2757600080fd5b600073ffffffffffffffffffffffffffffffffffffffff16600560009054906101000a900473ffffffffffffffffffffffffffffffffffffffff1673ffffffffffffffffffffffffffffffffffffffff167f8be0079c531659141344cd1fd0a4f28419497f9722a3daafe3b4186f6b6457e060405160405180910390a36000600560006101000a81548173ffffffffffffffffffffffffffffffffffffffff021916908373ffffffffffffffffffffffffffffffffffffffff160217905550565b610bf0610df2565b1515610bfb57600080fd5b8081600760006101000a81548173ffffffffffffffffffffffffffffffffffffffff021916908373ffffffffffffffffffffffffffffffffffffffff1602179055505050565b6000600560009054906101000a900473ffffffffffffffffffffffffffffffffffffffff16905090565b610c73611fab565b60068260ff16815481101515610c8557fe5b9060005260206000209060020201608060405190810160405290816000820160009054906101000a900460ff1660ff1660ff1681526020016000820160019054906101000a900460ff166012811115610cda57fe5b6012811115610ce557fe5b81526020016000820160029054906101000a900460ff166012811115610d0757fe5b6012811115610d1257fe5b81526020016001820160c060405190810160405290816000820160009054906101000a900461ffff1661ffff1661ffff1681526020016000820160029054906101000a900461ffff1661ffff1661ffff1681526020016000820160049054906101000a900461ffff1661ffff1661ffff1681526020016000820160069054906101000a900461ffff1661ffff1661ffff1681526020016000820160089054906101000a900461ffff1661ffff1661ffff16815260200160008201600a9054906101000a900461ffff1661ffff1661ffff1681525050815250509050919050565b6000600560009054906101000a900473ffffffffffffffffffffffffffffffffffffffff1673ffffffffffffffffffffffffffffffffffffffff163373ffffffffffffffffffffffffffffffffffffffff1614905090565b3373ffffffffffffffffffffffffffffffffffffffff168273ffffffffffffffffffffffffffffffffffffffff1614151515610e8557600080fd5b80600460003373ffffffffffffffffffffffffffffffffffffffff1673ffffffffffffffffffffffffffffffffffffffff16815260200190815260200160002060008473ffffffffffffffffffffffffffffffffffffffff1673ffffffffffffffffffffffffffffffffffffffff16815260200190815260200160002060006101000a81548160ff0219169083151502179055508173ffffffffffffffffffffffffffffffffffffffff163373ffffffffffffffffffffffffffffffffffffffff167f17307eab39ab6107e8899845ad3d59bd9653f200f220920489ca2b5937696c3183604051610f769190612637565b60405180910390a35050565b610f8d848484610726565b610f99848484846115a3565b1515610fa457600080fd5b50505050565b6000600460008473ffffffffffffffffffffffffffffffffffffffff1673ffffffffffffffffffffffffffffffffffffffff16815260200190815260200160002060008373ffffffffffffffffffffffffffffffffffffffff1673ffffffffffffffffffffffffffffffffffffffff16815260200190815260200160002060009054906101000a900460ff16905092915050565b611046610df2565b151561105157600080fd5b61105a816116f4565b50565b6000806001600084815260200190815260200160002060009054906101000a900473ffffffffffffffffffffffffffffffffffffffff169050600073ffffffffffffffffffffffffffffffffffffffff168173ffffffffffffffffffffffffffffffffffffffff161415915050919050565b6110d960096117f0565b6110ec336110e76009611595565b611806565b6110f4611950565b600860006111026009611595565b815260200190815260200160002060008201518160000160006101000a81548160ff021916908360ff16021790555060208201518160000160016101000a81548160ff0219169083600281111561115557fe5b021790555060408201518160000160026101000a81548160ff02191690831515021790555060608201518160010160008201518160000160006101000a81548161ffff021916908361ffff16021790555060208201518160000160026101000a81548161ffff021916908361ffff16021790555060408201518160000160046101000a81548161ffff021916908361ffff16021790555060608201518160000160066101000a81548161ffff021916908361ffff16021790555060808201518160000160086101000a81548161ffff021916908361ffff16021790555060a082015181600001600a6101000a81548161ffff021916908361ffff160217905550505060808201518160020160008201518160000160006101000a81548161ffff021916908361ffff16021790555060208201518160000160026101000a81548161ffff021916908361ffff16021790555060408201518160000160046101000a81548161ffff021916908361ffff16021790555060608201518160000160066101000a81548161ffff021916908361ffff16021790555060808201518160000160086101000a81548161ffff021916908361ffff16021790555060a082015181600001600a6101000a81548161ffff021916908361ffff1602179055505050905050565b60008061134583610a0b565b90508073ffffffffffffffffffffffffffffffffffffffff168473ffffffffffffffffffffffffffffffffffffffff1614806113b457508373ffffffffffffffffffffffffffffffffffffffff1661139c8461053b565b73ffffffffffffffffffffffffffffffffffffffff16145b806113c557506113c48185610faa565b5b91505092915050565b8273ffffffffffffffffffffffffffffffffffffffff166113ee82610a0b565b73ffffffffffffffffffffffffffffffffffffffff1614151561141057600080fd5b600073ffffffffffffffffffffffffffffffffffffffff168273ffffffffffffffffffffffffffffffffffffffff161415151561144c57600080fd5b61145581611e00565b61149c600360008573ffffffffffffffffffffffffffffffffffffffff1673ffffffffffffffffffffffffffffffffffffffff168152602001908152602001600020611ec0565b6114e3600360008473ffffffffffffffffffffffffffffffffffffffff1673ffffffffffffffffffffffffffffffffffffffff1681526020019081526020016000206117f0565b816001600083815260200190815260200160002060006101000a81548173ffffffffffffffffffffffffffffffffffffffff021916908373ffffffffffffffffffffffffffffffffffffffff160217905550808273ffffffffffffffffffffffffffffffffffffffff168473ffffffffffffffffffffffffffffffffffffffff167fddf252ad1be2c89b69c2b068fc378daa952ba7f163c4a11628f55a4df523b3ef60405160405180910390a4505050565b600081600001549050919050565b60006115c48473ffffffffffffffffffffffffffffffffffffffff16611ee3565b15156115d357600190506116ec565b60008473ffffffffffffffffffffffffffffffffffffffff1663150b7a02338887876040518563ffffffff167c010000000000000000000000000000000000000000000000000000000002815260040161163094939291906125eb565b602060405180830381600087803b15801561164a57600080fd5b505af115801561165e573d6000803e3d6000fd5b505050506040513d601f19601f8201168201806040525061168291908101906122e1565b905063150b7a027c0100000000000000000000000000000000000000000000000000000000027bffffffffffffffffffffffffffffffffffffffffffffffffffffffff1916817bffffffffffffffffffffffffffffffffffffffffffffffffffffffff1916149150505b949350505050565b600073ffffffffffffffffffffffffffffffffffffffff168173ffffffffffffffffffffffffffffffffffffffff161415151561173057600080fd5b8073ffffffffffffffffffffffffffffffffffffffff16600560009054906101000a900473ffffffffffffffffffffffffffffffffffffffff1673ffffffffffffffffffffffffffffffffffffffff167f8be0079c531659141344cd1fd0a4f28419497f9722a3daafe3b4186f6b6457e060405160405180910390a380600560006101000a81548173ffffffffffffffffffffffffffffffffffffffff021916908373ffffffffffffffffffffffffffffffffffffffff16021790555050565b6001816000016000828254019250508190555050565b600073ffffffffffffffffffffffffffffffffffffffff168273ffffffffffffffffffffffffffffffffffffffff161415151561184257600080fd5b61184b8161105d565b15151561185757600080fd5b816001600083815260200190815260200160002060006101000a81548173ffffffffffffffffffffffffffffffffffffffff021916908373ffffffffffffffffffffffffffffffffffffffff1602179055506118f0600360008473ffffffffffffffffffffffffffffffffffffffff1673ffffffffffffffffffffffffffffffffffffffff1681526020019081526020016000206117f0565b808273ffffffffffffffffffffffffffffffffffffffff16600073ffffffffffffffffffffffffffffffffffffffff167fddf252ad1be2c89b69c2b068fc378daa952ba7f163c4a11628f55a4df523b3ef60405160405180910390a45050565b611958611f5e565b6000424460405160200180838152602001828152602001925050506040516020818303038152906040528051906020012090505b60016006805490500360ff60010282166001900411156119d457806040516020018082815260200191505060405160208183030381529060405280519060200120905061198c565b6000600160ff6001028316600190040190506000600161010080600102851660019004811515611a0057fe5b041490506000610200613e00600102851660019004811515611a1e57fe5b04905060006140006207c000600102861660019004811515611a3c57fe5b04905060006208000062f80000600102871660019004811515611a5b57fe5b04905060006301000000631f000000600102881660019004811515611a7c57fe5b049050600063200000006403e0000000600102891660019004811515611a9e57fe5b0490506000640400000000647c000000006001028a1660019004811515611ac157fe5b04905060006101f46480000000006601ff80000000006001028c1660019004811515611ae957fe5b04149050611af5611fab565b600660018b0160ff16815481101515611b0a57fe5b9060005260206000209060020201608060405190810160405290816000820160009054906101000a900460ff1660ff1660ff1681526020016000820160019054906101000a900460ff166012811115611b5f57fe5b6012811115611b6a57fe5b81526020016000820160029054906101000a900460ff166012811115611b8c57fe5b6012811115611b9757fe5b81526020016001820160c060405190810160405290816000820160009054906101000a900461ffff1661ffff1661ffff1681526020016000820160029054906101000a900461ffff1661ffff1661ffff1681526020016000820160049054906101000a900461ffff1661ffff1661ffff1681526020016000820160069054906101000a900461ffff1661ffff1661ffff1681526020016000820160089054906101000a900461ffff1661ffff1661ffff16815260200160008201600a9054906101000a900461ffff1661ffff1661ffff168152505081525050905060a0604051908101604052808b60ff1681526020018a611c93576001611c96565b60005b6002811115611ca157fe5b8152602001831515815260200160c0604051908101604052808b60ff1661ffff1681526020018a60ff1661ffff1681526020018960ff1661ffff1681526020018860ff1661ffff1681526020018760ff1661ffff1681526020018660ff1661ffff16815250815260200160c060405190810160405280611d3285606001516000015161ffff168d60ff166064611ef6565b61ffff168152602001611d5685606001516020015161ffff168c60ff166064611f1a565b61ffff168152602001611d7a85606001516040015161ffff168b60ff166064611f1a565b61ffff168152602001611d9e85606001516060015161ffff168a60ff166064611f1a565b61ffff168152602001611dc285606001516080015161ffff168960ff166064611f1a565b61ffff168152602001611de6856060015160a0015161ffff168860ff166064611f1a565b61ffff168152508152509b50505050505050505050505090565b600073ffffffffffffffffffffffffffffffffffffffff166002600083815260200190815260200160002060009054906101000a900473ffffffffffffffffffffffffffffffffffffffff1673ffffffffffffffffffffffffffffffffffffffff16141515611ebd5760006002600083815260200190815260200160002060006101000a81548173ffffffffffffffffffffffffffffffffffffffff021916908373ffffffffffffffffffffffffffffffffffffffff1602179055505b50565b611ed860018260000154611f3c90919063ffffffff16565b816000018190555050565b600080823b905060008111915050919050565b600060648260028587010202811515611f0b57fe5b04600a83010190509392505050565b600060648260028587010202811515611f2f57fe5b0460050190509392505050565b6000828211151515611f4d57600080fd5b600082840390508091505092915050565b6101e060405190810160405280600060ff16815260200160006002811115611f8257fe5b8152602001600015158152602001611f98611ff4565b8152602001611fa5611ff4565b81525090565b61012060405190810160405280600060ff16815260200160006012811115611fcf57fe5b815260200160006012811115611fe157fe5b8152602001611fee611ff4565b81525090565b60c060405190810160405280600061ffff168152602001600061ffff168152602001600061ffff168152602001600061ffff168152602001600061ffff168152602001600061ffff1681525090565b600061204f82356127b8565b905092915050565b600061206382356127ca565b905092915050565b600061207782356127d6565b905092915050565b600061208b82516127d6565b905092915050565b600082601f83011215156120a657600080fd5b81356120b96120b4826126f2565b6126c5565b915080825260208301602083018583830111156120d557600080fd5b6120e0838284612873565b50505092915050565b60006120f58235612802565b905092915050565b6000612109823561280c565b905092915050565b60006020828403121561212357600080fd5b600061213184828501612043565b91505092915050565b6000806040838503121561214d57600080fd5b600061215b85828601612043565b925050602061216c85828601612043565b9150509250929050565b60008060006060848603121561218b57600080fd5b600061219986828701612043565b93505060206121aa86828701612043565b92505060406121bb868287016120e9565b9150509250925092565b600080600080608085870312156121db57600080fd5b60006121e987828801612043565b94505060206121fa87828801612043565b935050604061220b878288016120e9565b925050606085013567ffffffffffffffff81111561222857600080fd5b61223487828801612093565b91505092959194509250565b6000806040838503121561225357600080fd5b600061226185828601612043565b925050602061227285828601612057565b9150509250929050565b6000806040838503121561228f57600080fd5b600061229d85828601612043565b92505060206122ae858286016120e9565b9150509250929050565b6000602082840312156122ca57600080fd5b60006122d88482850161206b565b91505092915050565b6000602082840312156122f357600080fd5b60006123018482850161207f565b91505092915050565b60006020828403121561231c57600080fd5b600061232a848285016120e9565b91505092915050565b6000806040838503121561234657600080fd5b6000612354858286016120e9565b925050602083013567ffffffffffffffff81111561237157600080fd5b61237d85828601612093565b9150509250929050565b60006020828403121561239957600080fd5b60006123a7848285016120fd565b91505092915050565b6123b981612819565b82525050565b6123c881612729565b82525050565b6123d78161273b565b82525050565b60006123e88261271e565b8084526123fc816020860160208601612882565b612405816128b5565b602085010191505092915050565b61241c8161282b565b82525050565b61242b8161283d565b82525050565b6000601f82527f5061796d656e74206d7573742062652043727970746f4d6f6e2076616c7565006020830152604082019050919050565b6101208201600082015161247f60008501826125c1565b5060208201516124926020850182612422565b5060408201516124a56040850182612422565b5060608201516124b86060850182612528565b50505050565b6101e0820160008201516124d560008501826125c1565b5060208201516124e86020850182612413565b5060408201516124fb60408501826123ce565b50606082015161250e6060850182612528565b506080820151612522610120850182612528565b50505050565b60c08201600082015161253e60008501826125a3565b50602082015161255160208501826125a3565b50604082015161256460408501826125a3565b50606082015161257760608501826125a3565b50608082015161258a60808501826125a3565b5060a082015161259d60a08501826125a3565b50505050565b6125ac81612773565b82525050565b6125bb816127a1565b82525050565b6125ca816127ab565b82525050565b60006020820190506125e560008301846123bf565b92915050565b600060808201905061260060008301876123b0565b61260d60208301866123bf565b61261a60408301856125b2565b818103606083015261262c81846123dd565b905095945050505050565b600060208201905061264c60008301846123ce565b92915050565b6000602082019050818103600083015261266b81612431565b9050919050565b6000610120820190506126886000830184612468565b92915050565b60006101e0820190506126a460008301846124be565b92915050565b60006020820190506126bf60008301846125b2565b92915050565b6000604051905081810181811067ffffffffffffffff821117156126e857600080fd5b8060405250919050565b600067ffffffffffffffff82111561270957600080fd5b601f19601f8301169050602081019050919050565b600081519050919050565b600061273482612781565b9050919050565b60008115159050919050565b600060038210151561275557fe5b819050919050565b600060138210151561276b57fe5b819050919050565b600061ffff82169050919050565b600073ffffffffffffffffffffffffffffffffffffffff82169050919050565b6000819050919050565b600060ff82169050919050565b60006127c382612781565b9050919050565b60008115159050919050565b60007fffffffff0000000000000000000000000000000000000000000000000000000082169050919050565b6000819050919050565b600060ff82169050919050565b60006128248261284f565b9050919050565b600061283682612747565b9050919050565b60006128488261275d565b9050919050565b600061285a82612861565b9050919050565b600061286c82612781565b9050919050565b82818337600083830152505050565b60005b838110156128a0578082015181840152602081019050612885565b838111156128af576000848401525b50505050565b6000601f19601f830116905091905056fea265627a7a7230582025a31a3c6ac1e8c2cc25bbba3e8f1976c3adea0f6df9109107fcb1683108379d6c6578706572696d656e74616cf50037",
  "source": "pragma solidity ^0.5.2;\npragma experimental ABIEncoderV2;\n\nimport 'openzeppelin-solidity/contracts/token/ERC721/ERC721.sol';\nimport 'openzeppelin-solidity/contracts/ownership/Ownable.sol';\nimport \"openzeppelin-solidity/contracts/drafts/Counters.sol\";\n\nimport \"../Libraries/Pokedex.sol\";\n\ncontract CryptoMons is ERC721, Ownable, Pokedex {\n\n    using Counters for Counters.Counter;\n\n    address plasma;\n    mapping (uint256 => Pokemon) cryptomons;\n\n    uint256 constant CRYPTOMON_VALUE = 0.001 ether;\n    Counters.Counter tokenCount;\n\n    modifier CMPayment() {\n        require(msg.value == CRYPTOMON_VALUE, \"Payment must be CryptoMon value\");\n        _;\n    }\n\n    modifier isERC721Receiver(address to) {\n        // require(_checkOnERC721Received(address(0), to, 0, \"\"), \"Plasma must be an ERC721Receiver implementer\");\n        _;\n    }\n\n    constructor (address _plasma) public isERC721Receiver(_plasma) {\n        plasma = _plasma;\n    }\n\n    function changePlasma(address newPlasma) public onlyOwner isERC721Receiver(newPlasma) {\n        plasma = newPlasma;\n    }\n\n    function buyCryptoMon() external payable CMPayment {\n        create();\n    }\n\n    function depositToPlasmaWithData(uint tokenId, bytes memory _data) public {\n        safeTransferFrom(msg.sender, plasma, tokenId, _data);\n    }\n\n    function depositToPlasma(uint tokenId) public {\n        safeTransferFrom(msg.sender, plasma, tokenId);\n    }\n\n    function create() private {\n        tokenCount.increment();\n        _mint(msg.sender, tokenCount.current());\n        cryptomons[tokenCount.current()] = generateNewPokemon();\n    }\n\n    function getCryptomon(uint256 id) public view returns (Pokemon memory) {\n        return cryptomons[id];\n    }\n\n}\n",
  "sourcePath": "/home/juanfra/Documents/ITBA/PF/Plasma-Cash-RootChain/contracts/CryptoMonExample/Plasma/CryptoMons.sol",
  "compiler": {
    "name": "solc",
    "version": "0.5.2+commit.1df8f40c.Emscripten.clang"
  },
  "schemaVersion": "3.0.16",
  "updatedAt": "2019-11-11T16:36:47.797Z",
  "devdoc": {
    "methods": {
      "approve(address,uint256)": {
        "details": "Approves another address to transfer the given token ID The zero address indicates there is no approved address. There can only be one approved address per token at a given time. Can only be called by the token owner or an approved operator.",
        "params": {
          "to": "address to be approved for the given token ID",
          "tokenId": "uint256 ID of the token to be approved"
        }
      },
      "balanceOf(address)": {
        "details": "Gets the balance of the specified address",
        "params": {
          "owner": "address to query the balance of"
        },
        "return": "uint256 representing the amount owned by the passed address"
      },
      "getApproved(uint256)": {
        "details": "Gets the approved address for a token ID, or zero if no address set Reverts if the token ID does not exist.",
        "params": {
          "tokenId": "uint256 ID of the token to query the approval of"
        },
        "return": "address currently approved for the given token ID"
      },
      "isApprovedForAll(address,address)": {
        "details": "Tells whether an operator is approved by a given owner",
        "params": {
          "operator": "operator address which you want to query the approval of",
          "owner": "owner address which you want to query the approval of"
        },
        "return": "bool whether the given operator is approved by the given owner"
      },
      "isOwner()": {
        "return": "true if `msg.sender` is the owner of the contract."
      },
      "owner()": {
        "return": "the address of the owner."
      },
      "ownerOf(uint256)": {
        "details": "Gets the owner of the specified token ID",
        "params": {
          "tokenId": "uint256 ID of the token to query the owner of"
        },
        "return": "address currently marked as the owner of the given token ID"
      },
      "renounceOwnership()": {
        "details": "Allows the current owner to relinquish control of the contract. It will not be possible to call the functions with the `onlyOwner` modifier anymore."
      },
      "safeTransferFrom(address,address,uint256)": {
        "details": "Safely transfers the ownership of a given token ID to another address If the target address is a contract, it must implement `onERC721Received`, which is called upon a safe transfer, and return the magic value `bytes4(keccak256(\"onERC721Received(address,address,uint256,bytes)\"))`; otherwise, the transfer is reverted. Requires the msg.sender to be the owner, approved, or operator",
        "params": {
          "from": "current owner of the token",
          "to": "address to receive the ownership of the given token ID",
          "tokenId": "uint256 ID of the token to be transferred"
        }
      },
      "safeTransferFrom(address,address,uint256,bytes)": {
        "details": "Safely transfers the ownership of a given token ID to another address If the target address is a contract, it must implement `onERC721Received`, which is called upon a safe transfer, and return the magic value `bytes4(keccak256(\"onERC721Received(address,address,uint256,bytes)\"))`; otherwise, the transfer is reverted. Requires the msg.sender to be the owner, approved, or operator",
        "params": {
          "_data": "bytes data to send along with a safe transfer check",
          "from": "current owner of the token",
          "to": "address to receive the ownership of the given token ID",
          "tokenId": "uint256 ID of the token to be transferred"
        }
      },
      "setApprovalForAll(address,bool)": {
        "details": "Sets or unsets the approval of a given operator An operator is allowed to transfer all tokens of the sender on their behalf",
        "params": {
          "approved": "representing the status of the approval to be set",
          "to": "operator address to set the approval"
        }
      },
      "supportsInterface(bytes4)": {
        "details": "implement supportsInterface(bytes4) using a lookup table"
      },
      "transferFrom(address,address,uint256)": {
        "details": "Transfers the ownership of a given token ID to another address Usage of this method is discouraged, use `safeTransferFrom` whenever possible Requires the msg.sender to be the owner, approved, or operator",
        "params": {
          "from": "current owner of the token",
          "to": "address to receive the ownership of the given token ID",
          "tokenId": "uint256 ID of the token to be transferred"
        }
      },
      "transferOwnership(address)": {
        "details": "Allows the current owner to transfer control of the contract to a newOwner.",
        "params": {
          "newOwner": "The address to transfer ownership to."
        }
      }
    }
  },
  "userdoc": {
    "methods": {
      "renounceOwnership()": {
        "notice": "Renouncing ownership will leave the contract without an owner, thereby removing any functionality that is only available to the owner."
      }
    }
  }
}