{
  "contractName": "CryptoMonBattles",
  "abi": [
    {
      "constant": false,
      "inputs": [],
      "name": "renounceOwnership",
      "outputs": [],
      "payable": false,
      "stateMutability": "nonpayable",
      "type": "function"
    },
    {
      "constant": true,
      "inputs": [],
      "name": "owner",
      "outputs": [
        {
          "name": "",
          "type": "address"
        }
      ],
      "payable": false,
      "stateMutability": "view",
      "type": "function"
    },
    {
      "constant": true,
      "inputs": [],
      "name": "isOwner",
      "outputs": [
        {
          "name": "",
          "type": "bool"
        }
      ],
      "payable": false,
      "stateMutability": "view",
      "type": "function"
    },
    {
      "constant": false,
      "inputs": [
        {
          "name": "newOwner",
          "type": "address"
        }
      ],
      "name": "transferOwnership",
      "outputs": [],
      "payable": false,
      "stateMutability": "nonpayable",
      "type": "function"
    },
    {
      "constant": true,
      "inputs": [
        {
          "name": "",
          "type": "address"
        }
      ],
      "name": "validators",
      "outputs": [
        {
          "name": "",
          "type": "bool"
        }
      ],
      "payable": false,
      "stateMutability": "view",
      "type": "function"
    },
    {
      "inputs": [
        {
          "name": "_rootChain",
          "type": "address"
        },
        {
          "name": "_cryptomons",
          "type": "address"
        }
      ],
      "payable": false,
      "stateMutability": "nonpayable",
      "type": "constructor"
    },
    {
      "anonymous": false,
      "inputs": [
        {
          "indexed": true,
          "name": "gameId",
          "type": "uint256"
        },
        {
          "indexed": true,
          "name": "player",
          "type": "address"
        },
        {
          "indexed": true,
          "name": "CryptoMon",
          "type": "uint256"
        }
      ],
      "name": "CryptoMonBattleRequested",
      "type": "event"
    },
    {
      "anonymous": false,
      "inputs": [
        {
          "indexed": true,
          "name": "gameId",
          "type": "uint256"
        },
        {
          "indexed": true,
          "name": "player",
          "type": "address"
        },
        {
          "indexed": true,
          "name": "CryptoMon",
          "type": "uint256"
        }
      ],
      "name": "CryptoMonBattleStarted",
      "type": "event"
    },
    {
      "anonymous": false,
      "inputs": [
        {
          "indexed": true,
          "name": "previousOwner",
          "type": "address"
        },
        {
          "indexed": true,
          "name": "newOwner",
          "type": "address"
        }
      ],
      "name": "OwnershipTransferred",
      "type": "event"
    },
    {
      "constant": true,
      "inputs": [
        {
          "name": "state",
          "type": "bytes"
        },
        {
          "name": "players",
          "type": "address[2]"
        },
        {
          "name": "exitData",
          "type": "bytes"
        }
      ],
      "name": "validateStartState",
      "outputs": [
        {
          "components": [
            {
              "name": "slot",
              "type": "uint64"
            },
            {
              "name": "prevOwner",
              "type": "address"
            },
            {
              "name": "owner",
              "type": "address"
            },
            {
              "name": "createdAt",
              "type": "uint256"
            },
            {
              "name": "prevBlock",
              "type": "uint256"
            },
            {
              "name": "exitBlock",
              "type": "uint256"
            }
          ],
          "name": "",
          "type": "tuple[]"
        }
      ],
      "payable": false,
      "stateMutability": "view",
      "type": "function"
    },
    {
      "constant": true,
      "inputs": [
        {
          "name": "oldState",
          "type": "bytes"
        },
        {
          "name": "turnNum",
          "type": "uint256"
        },
        {
          "name": "newState",
          "type": "bytes"
        }
      ],
      "name": "validateTurnTransition",
      "outputs": [],
      "payable": false,
      "stateMutability": "view",
      "type": "function"
    },
    {
      "constant": true,
      "inputs": [
        {
          "name": "startState",
          "type": "bytes"
        },
        {
          "name": "firstTurn",
          "type": "bytes"
        }
      ],
      "name": "validateInitialTransition",
      "outputs": [],
      "payable": false,
      "stateMutability": "pure",
      "type": "function"
    },
    {
      "constant": true,
      "inputs": [
        {
          "name": "state",
          "type": "bytes"
        },
        {
          "name": "turnNum",
          "type": "uint256"
        },
        {
          "name": "player",
          "type": "address"
        },
        {
          "name": "opponent",
          "type": "address"
        }
      ],
      "name": "winner",
      "outputs": [
        {
          "name": "",
          "type": "address"
        }
      ],
      "payable": false,
      "stateMutability": "pure",
      "type": "function"
    },
    {
      "constant": true,
      "inputs": [
        {
          "name": "state",
          "type": "bytes"
        },
        {
          "name": "",
          "type": "uint256"
        }
      ],
      "name": "isOver",
      "outputs": [
        {
          "name": "",
          "type": "bool"
        }
      ],
      "payable": false,
      "stateMutability": "pure",
      "type": "function"
    },
    {
      "constant": true,
      "inputs": [
        {
          "name": "",
          "type": "bytes"
        },
        {
          "name": "turnNum",
          "type": "uint256"
        },
        {
          "name": "player",
          "type": "address"
        },
        {
          "name": "opponent",
          "type": "address"
        }
      ],
      "name": "mover",
      "outputs": [
        {
          "name": "",
          "type": "address"
        }
      ],
      "payable": false,
      "stateMutability": "pure",
      "type": "function"
    },
    {
      "constant": true,
      "inputs": [
        {
          "name": "plasmaID",
          "type": "uint256"
        }
      ],
      "name": "getCryptoMon",
      "outputs": [
        {
          "components": [
            {
              "name": "id",
              "type": "uint8"
            },
            {
              "name": "gender",
              "type": "uint8"
            },
            {
              "name": "isShiny",
              "type": "bool"
            },
            {
              "components": [
                {
                  "name": "hp",
                  "type": "uint16"
                },
                {
                  "name": "atk",
                  "type": "uint16"
                },
                {
                  "name": "def",
                  "type": "uint16"
                },
                {
                  "name": "spAtk",
                  "type": "uint16"
                },
                {
                  "name": "spDef",
                  "type": "uint16"
                },
                {
                  "name": "speed",
                  "type": "uint16"
                }
              ],
              "name": "IVs",
              "type": "tuple"
            },
            {
              "components": [
                {
                  "name": "hp",
                  "type": "uint16"
                },
                {
                  "name": "atk",
                  "type": "uint16"
                },
                {
                  "name": "def",
                  "type": "uint16"
                },
                {
                  "name": "spAtk",
                  "type": "uint16"
                },
                {
                  "name": "spDef",
                  "type": "uint16"
                },
                {
                  "name": "speed",
                  "type": "uint16"
                }
              ],
              "name": "stats",
              "type": "tuple"
            }
          ],
          "name": "",
          "type": "tuple"
        }
      ],
      "payable": false,
      "stateMutability": "view",
      "type": "function"
    },
    {
      "constant": false,
      "inputs": [
        {
          "name": "gameId",
          "type": "uint256"
        },
        {
          "name": "state",
          "type": "bytes"
        },
        {
          "name": "player",
          "type": "address"
        },
        {
          "name": "opponent",
          "type": "address"
        }
      ],
      "name": "eventRequestState",
      "outputs": [],
      "payable": false,
      "stateMutability": "nonpayable",
      "type": "function"
    },
    {
      "constant": false,
      "inputs": [
        {
          "name": "gameId",
          "type": "uint256"
        },
        {
          "name": "state",
          "type": "bytes"
        },
        {
          "name": "player",
          "type": "address"
        },
        {
          "name": "opponent",
          "type": "address"
        }
      ],
      "name": "eventStartState",
      "outputs": [],
      "payable": false,
      "stateMutability": "nonpayable",
      "type": "function"
    },
    {
      "constant": false,
      "inputs": [
        {
          "name": "_address",
          "type": "address"
        },
        {
          "name": "value",
          "type": "bool"
        }
      ],
      "name": "setValidator",
      "outputs": [],
      "payable": false,
      "stateMutability": "nonpayable",
      "type": "function"
    }
  ],
  "bytecode": "0x60806040523480156200001157600080fd5b506040516040806200a9768339810180604052620000339190810190620001a5565b336000806101000a81548173ffffffffffffffffffffffffffffffffffffffff021916908373ffffffffffffffffffffffffffffffffffffffff1602179055506000809054906101000a900473ffffffffffffffffffffffffffffffffffffffff1673ffffffffffffffffffffffffffffffffffffffff16600073ffffffffffffffffffffffffffffffffffffffff167f8be0079c531659141344cd1fd0a4f28419497f9722a3daafe3b4186f6b6457e060405160405180910390a381600160006101000a81548173ffffffffffffffffffffffffffffffffffffffff021916908373ffffffffffffffffffffffffffffffffffffffff16021790555080600260006101000a81548173ffffffffffffffffffffffffffffffffffffffff021916908373ffffffffffffffffffffffffffffffffffffffff160217905550505062000256565b60006200018782516200022e565b905092915050565b60006200019d825162000242565b905092915050565b60008060408385031215620001b957600080fd5b6000620001c9858286016200018f565b9250506020620001dc8582860162000179565b9150509250929050565b6000620001f3826200020e565b9050919050565b600062000207826200020e565b9050919050565b600073ffffffffffffffffffffffffffffffffffffffff82169050919050565b60006200023b82620001e6565b9050919050565b60006200024f82620001fa565b9050919050565b61a71080620002666000396000f3fe608060405234801561001057600080fd5b5060043610610112576000357c0100000000000000000000000000000000000000000000000000000000900480638f32d59b116100b4578063ca62b96e11610083578063ca62b96e14610279578063d2f6722c146102a9578063f2fde38b146102d9578063fa52c7d8146102f557610112565b80638f32d59b146101f35780639608d1d314610211578063afb531c114610241578063be8290e21461025d57610112565b8063748eaa74116100f0578063748eaa7414610159578063764dfafe146101895780638cfd80d8146101b95780638da5cb5b146101d557610112565b806332a4b4eb146101175780634623c91d14610133578063715018a61461014f575b600080fd5b610131600480360361012c9190810190618948565b610325565b005b61014d60048036036101489190810190618623565b6104bd565b005b61015761052b565b005b610173600480360361016e919081019061891f565b6105fd565b604051610180919061a416565b60405180910390f35b6101a3600480360361019e9190810190618688565b6107f1565b6040516101b09190619c1a565b60405180910390f35b6101d360048036036101ce919081019061884c565b611499565b005b6101dd6114f4565b6040516101ea9190619bff565b60405180910390f35b6101fb61151d565b6040516102089190619c3c565b60405180910390f35b61022b600480360361022691908101906187d1565b611574565b6040516102389190619bff565b60405180910390f35b61025b60048036036102569190810190618948565b611668565b005b61027760048036036102729190810190618711565b611800565b005b610293600480360361028e91908101906187d1565b611953565b6040516102a09190619bff565b60405180910390f35b6102c360048036036102be919081019061877d565b61197a565b6040516102d09190619c3c565b60405180910390f35b6102f360048036036102ee91908101906185fa565b611a0b565b005b61030f600480360361030a91908101906185fa565b611a2a565b60405161031c9190619c3c565b60405180910390f35b33600360008273ffffffffffffffffffffffffffffffffffffffff1673ffffffffffffffffffffffffffffffffffffffff16815260200190815260200160002060009054906101000a900460ff1615156103b4576040517f08c379a00000000000000000000000000000000000000000000000000000000081526004016103ab90619f56565b60405180910390fd5b60606103c76103c286611a4a565b611a78565b905060006103f7826000600f8111156103dc57fe5b8151811015156103e857fe5b90602001906020020151611b8b565b90506000610427836005600f81111561040c57fe5b81518110151561041857fe5b90602001906020020151611b8b565b9050818673ffffffffffffffffffffffffffffffffffffffff16897fe347f51b2c52adb2dc38a860aba042721bb546727c26d4a52d86dd4bcfb2567460405160405180910390a4808573ffffffffffffffffffffffffffffffffffffffff16897fe347f51b2c52adb2dc38a860aba042721bb546727c26d4a52d86dd4bcfb2567460405160405180910390a45050505050505050565b6104c561151d565b15156104d057600080fd5b80600360008473ffffffffffffffffffffffffffffffffffffffff1673ffffffffffffffffffffffffffffffffffffffff16815260200190815260200160002060006101000a81548160ff0219169083151502179055505050565b61053361151d565b151561053e57600080fd5b600073ffffffffffffffffffffffffffffffffffffffff166000809054906101000a900473ffffffffffffffffffffffffffffffffffffffff1673ffffffffffffffffffffffffffffffffffffffff167f8be0079c531659141344cd1fd0a4f28419497f9722a3daafe3b4186f6b6457e060405160405180910390a360008060006101000a81548173ffffffffffffffffffffffffffffffffffffffff021916908373ffffffffffffffffffffffffffffffffffffffff160217905550565b610605617f32565b6801000000000000000082101515610652576040517f08c379a00000000000000000000000000000000000000000000000000000000081526004016106499061a396565b60405180910390fd5b6000600160009054906101000a900473ffffffffffffffffffffffffffffffffffffffff1673ffffffffffffffffffffffffffffffffffffffff1663f8353cf0846040518263ffffffff167c01000000000000000000000000000000000000000000000000000000000281526004016106cb919061a44d565b60a06040518083038186803b1580156106e357600080fd5b505afa1580156106f7573d6000803e3d6000fd5b505050506040513d601f19601f8201168201806040525061071b91908101906189c3565b505050509050600260009054906101000a900473ffffffffffffffffffffffffffffffffffffffff1673ffffffffffffffffffffffffffffffffffffffff1663467fb1e4826040518263ffffffff167c0100000000000000000000000000000000000000000000000000000000028152600401610798919061a432565b6101e06040518083038186803b1580156107b157600080fd5b505afa1580156107c5573d6000803e3d6000fd5b505050506040513d601f19601f820116820180604052506107e991908101906188f5565b915050919050565b60608061084961084488888080601f016020809104026020016040519081016040528093929190818152602001838380828437600081840152601f19601f82011690508083019250505050505050611a4a565b611a78565b905060016009600f81111561085a57fe5b01815114151561089f576040517f08c379a000000000000000000000000000000000000000000000000000000000815260040161089690619e76565b60405180910390fd5b6108a7617f32565b6108db6108d6836000600f8111156108bb57fe5b8151811015156108c757fe5b90602001906020020151611b8b565b6105fd565b90506000816000015160ff16111515610929576040517f08c379a00000000000000000000000000000000000000000000000000000000081526004016109209061a3d6565b60405180910390fd5b80608001516000015161ffff16610962836001600f81111561094757fe5b81518110151561095357fe5b90602001906020020151611b8b565b1415156109a4576040517f08c379a000000000000000000000000000000000000000000000000000000000815260040161099b90619e16565b60405180910390fd5b600015156109d4836002600f8111156109b957fe5b8151811015156109c557fe5b90602001906020020151611c34565b1515141515610a18576040517f08c379a0000000000000000000000000000000000000000000000000000000008152600401610a0f9061a176565b60405180910390fd5b60001515610a48836003600f811115610a2d57fe5b815181101515610a3957fe5b90602001906020020151611c34565b1515141515610a8c576040517f08c379a0000000000000000000000000000000000000000000000000000000008152600401610a839061a216565b60405180910390fd5b6001610aba836004600f811115610a9f57fe5b815181101515610aab57fe5b90602001906020020151611b8b565b141515610afc576040517f08c379a0000000000000000000000000000000000000000000000000000000008152600401610af39061a0b6565b60405180910390fd5b610b04617f32565b610b38610b33846005600f811115610b1857fe5b815181101515610b2457fe5b90602001906020020151611b8b565b6105fd565b90506000816000015160ff16111515610b86576040517f08c379a0000000000000000000000000000000000000000000000000000000008152600401610b7d9061a3d6565b60405180910390fd5b80608001516000015161ffff16610bbf846006600f811115610ba457fe5b815181101515610bb057fe5b90602001906020020151611b8b565b141515610c01576040517f08c379a0000000000000000000000000000000000000000000000000000000008152600401610bf89061a376565b60405180910390fd5b60001515610c31846007600f811115610c1657fe5b815181101515610c2257fe5b90602001906020020151611c34565b1515141515610c75576040517f08c379a0000000000000000000000000000000000000000000000000000000008152600401610c6c9061a096565b60405180910390fd5b60001515610ca5846008600f811115610c8a57fe5b815181101515610c9657fe5b90602001906020020151611c34565b1515141515610ce9576040517f08c379a0000000000000000000000000000000000000000000000000000000008152600401610ce090619e36565b60405180910390fd5b6001610d17846009600f811115610cfc57fe5b815181101515610d0857fe5b90602001906020020151611b8b565b141515610d59576040517f08c379a0000000000000000000000000000000000000000000000000000000008152600401610d509061a356565b60405180910390fd5b6060610db0610dab88888080601f016020809104026020016040519081016040528093929190818152602001838380828437600081840152601f19601f82011690508083019250505050505050611a4a565b611a78565b90506000806000610dd8846000815181101515610dc957fe5b90602001906020020151611b8b565b1415610e3d57896000600281101515610ded57fe5b602002013573ffffffffffffffffffffffffffffffffffffffff169150610e36866000600f811115610e1b57fe5b815181101515610e2757fe5b90602001906020020151611b8b565b9050610e98565b896001600281101515610e4c57fe5b602002013573ffffffffffffffffffffffffffffffffffffffff169150610e95866005600f811115610e7a57fe5b815181101515610e8657fe5b90602001906020020151611b8b565b90505b610ea0617f7f565b60018451141561105a57600080600160009054906101000a900473ffffffffffffffffffffffffffffffffffffffff1673ffffffffffffffffffffffffffffffffffffffff1663f8353cf0856040518263ffffffff167c0100000000000000000000000000000000000000000000000000000000028152600401610f24919061a44d565b60a06040518083038186803b158015610f3c57600080fd5b505afa158015610f50573d6000803e3d6000fd5b505050506040513d601f19601f82011682018060405250610f7491908101906189c3565b505092509250508473ffffffffffffffffffffffffffffffffffffffff168173ffffffffffffffffffffffffffffffffffffffff16141515610feb576040517f08c379a0000000000000000000000000000000000000000000000000000000008152600401610fe29061a3f6565b60405180910390fd5b60c0604051908101604052808567ffffffffffffffff168152602001600073ffffffffffffffffffffffffffffffffffffffff1681526020018273ffffffffffffffffffffffffffffffffffffffff168152602001428152602001600081526020018381525092505050611428565b611062617fec565b61108e856002600881111561107357fe5b81518110151561107f57fe5b90602001906020020151611b8b565b81600060028110151561109d57fe5b6020020181815250506110d285600360088111156110b757fe5b8151811015156110c357fe5b90602001906020020151611b8b565b8160016002811015156110e157fe5b60200201818152505060016008808111156110f857fe5b01855114151561113d576040517f08c379a000000000000000000000000000000000000000000000000000000000815260040161113490619fb6565b60405180910390fd5b61117161116c866005600881111561115157fe5b81518110151561115d57fe5b90602001906020020151611cab565b611d6f565b73ffffffffffffffffffffffffffffffffffffffff168473ffffffffffffffffffffffffffffffffffffffff161415156111e0576040517f08c379a00000000000000000000000000000000000000000000000000000000081526004016111d79061a136565b60405180910390fd5b600160009054906101000a900473ffffffffffffffffffffffffffffffffffffffff1673ffffffffffffffffffffffffffffffffffffffff16634cb2870861124a876004600881111561122f57fe5b81518110151561123b57fe5b90602001906020020151611cab565b611276886005600881111561125b57fe5b81518110151561126757fe5b90602001906020020151611cab565b6112a2896006600881111561128757fe5b81518110151561129357fe5b90602001906020020151611cab565b6112ce8a600760088111156112b357fe5b8151811015156112bf57fe5b90602001906020020151611cab565b6112f98b6008808111156112de57fe5b8151811015156112ea57fe5b90602001906020020151611cab565b876040518763ffffffff167c010000000000000000000000000000000000000000000000000000000002815260040161133796959493929190619c57565b60006040518083038186803b15801561134f57600080fd5b505afa158015611363573d6000803e3d6000fd5b5050505060c0604051908101604052808467ffffffffffffffff1681526020016113b76113b2886004600881111561139757fe5b8151811015156113a357fe5b90602001906020020151611cab565b611d6f565b73ffffffffffffffffffffffffffffffffffffffff1681526020018573ffffffffffffffffffffffffffffffffffffffff16815260200142815260200182600060028110151561140357fe5b6020020151815260200182600160028110151561141c57fe5b60200201518152509150505b6060600160405190808252806020026020018201604052801561146557816020015b61145261800e565b81526020019060019003908161144a5790505b5090508181600081518110151561147857fe5b90602001906020020181905250809850505050505050505095945050505050565b60008214156114b1576114ac8382611800565b6114ef565b60006002838115156114bf57fe5b0614156114df576114da83826114d5848661197a565b611e34565b6114ee565b6114ed838260018514612d68565b5b5b505050565b60008060009054906101000a900473ffffffffffffffffffffffffffffffffffffffff16905090565b60008060009054906101000a900473ffffffffffffffffffffffffffffffffffffffff1673ffffffffffffffffffffffffffffffffffffffff163373ffffffffffffffffffffffffffffffffffffffff1614905090565b6000611580858561197a565b1561165b57606061159861159387611a4a565b611a78565b905060006115c8826001600f8111156115ad57fe5b8151811015156115b957fe5b90602001906020020151611b8b565b905060006115f8836006600f8111156115dd57fe5b8151811015156115e957fe5b90602001906020020151611b8b565b90508082111561160d57859350505050611660565b8181111561162057849350505050611660565b6040517f08c379a000000000000000000000000000000000000000000000000000000000815260040161165290619ed6565b60405180910390fd5b600090505b949350505050565b33600360008273ffffffffffffffffffffffffffffffffffffffff1673ffffffffffffffffffffffffffffffffffffffff16815260200190815260200160002060009054906101000a900460ff1615156116f7576040517f08c379a00000000000000000000000000000000000000000000000000000000081526004016116ee90619f56565b60405180910390fd5b606061170a61170586611a4a565b611a78565b9050600061173a826000600f81111561171f57fe5b81518110151561172b57fe5b90602001906020020151611b8b565b9050600061176a836005600f81111561174f57fe5b81518110151561175b57fe5b90602001906020020151611b8b565b9050818673ffffffffffffffffffffffffffffffffffffffff16897f503d5d704014c475b98c9861a0e457d66badaaeda096375d871241d5f456025960405160405180910390a4808573ffffffffffffffffffffffffffffffffffffffff16897f503d5d704014c475b98c9861a0e457d66badaaeda096375d871241d5f456025960405160405180910390a45050505050505050565b606061181361180e84611a4a565b611a78565b9050606061182861182384611a4a565b611a78565b905060016009600f81111561183957fe5b01825114151561187e576040517f08c379a000000000000000000000000000000000000000000000000000000000815260040161187590619d76565b60405180910390fd5b6001600a600f81111561188d57fe5b0181511415156118d2576040517f08c379a00000000000000000000000000000000000000000000000000000000081526004016118c990619d16565b60405180910390fd5b6118dc8282613437565b600061190a82600a600f8111156118ef57fe5b8151811015156118fb57fe5b90602001906020020151611b8b565b1415151561194d576040517f08c379a00000000000000000000000000000000000000000000000000000000081526004016119449061a156565b60405180910390fd5b50505050565b60008060028581151561196257fe5b061461196e5781611970565b825b9050949350505050565b6000606061198f61198a85611a4a565b611a78565b905060006119bf826001600f8111156119a457fe5b8151811015156119b057fe5b90602001906020020151611b8b565b905060006119ef836006600f8111156119d457fe5b8151811015156119e057fe5b90602001906020020151611b8b565b90506000821480611a005750600081145b935050505092915050565b611a1361151d565b1515611a1e57600080fd5b611a2781613a4f565b50565b60036020528060005260406000206000915054906101000a900460ff1681565b611a5261807b565b600060208301905060408051908101604052808451815260200182815250915050919050565b6060611a8382613b49565b1515611ac4576040517f08c379a0000000000000000000000000000000000000000000000000000000008152600401611abb90619f76565b60405180910390fd5b6000611acf83613b97565b905080604051908082528060200260200182016040528015611b0b57816020015b611af8618095565b815260200190600190039081611af05790505b5091506000611b1d8460200151613c08565b8460200151019050600080600090505b83811015611b8257611b3e83613c91565b91506040805190810160405280838152602001848152508582815181101515611b6357fe5b9060200190602002018190525081830192508080600101915050611b2d565b50505050919050565b6000808260000151118015611ba557506021826000015111155b1515611be6576040517f08c379a0000000000000000000000000000000000000000000000000000000008152600401611bdd9061a0f6565b60405180910390fd5b6000611bf58360200151613c08565b90506000818460000151039050600080838660200151019050805191506020831015611c2857826020036101000a820491505b81945050505050919050565b600060018260000151141515611c7f576040517f08c379a0000000000000000000000000000000000000000000000000000000008152600401611c769061a3b6565b60405180910390fd5b60008083602001519050805160001a915060008214611c9f576001611ca2565b60005b92505050919050565b606060008260000151111515611cf6576040517f08c379a0000000000000000000000000000000000000000000000000000000008152600401611ced9061a2f6565b60405180910390fd5b6000611d058360200151613c08565b905060008184600001510390506060816040519080825280601f01601f191660200182016040528015611d475781602001600182028038833980820191505090505b5090506000816020019050611d63848760200151018285613d44565b81945050505050919050565b60006060611d84611d7f84611a4a565b611a78565b9050611d8f81613dad565b15611dbc57611db5816002815181101515611da657fe5b90602001906020020151613dbb565b9150611e2e565b611dc581613e16565b15611df257611deb816003815181101515611ddc57fe5b90602001906020020151613dbb565b9150611e2d565b6040517f08c379a0000000000000000000000000000000000000000000000000000000008152600401611e249061a116565b60405180910390fd5b5b50919050565b6060611e47611e4285611a4a565b611a78565b90506060611e5c611e5785611a4a565b611a78565b90508215611ebd576001600e600f811115611e7357fe5b018151141515611eb8576040517f08c379a0000000000000000000000000000000000000000000000000000000008152600401611eaf90619f96565b60405180910390fd5b611f81565b6001600f80811115611ecb57fe5b018151141515611f10576040517f08c379a0000000000000000000000000000000000000000000000000000000008152600401611f0790619f96565b60405180910390fd5b6000611f3d82600f80811115611f2257fe5b815181101515611f2e57fe5b90602001906020020151611b8b565b14151515611f80576040517f08c379a0000000000000000000000000000000000000000000000000000000008152600401611f779061a156565b60405180910390fd5b5b611fad816000600f811115611f9257fe5b815181101515611f9e57fe5b90602001906020020151611b8b565b611fd9836000600f811115611fbe57fe5b815181101515611fca57fe5b90602001906020020151611b8b565b14151561201b576040517f08c379a00000000000000000000000000000000000000000000000000000000081526004016120129061a036565b60405180910390fd5b612047816005600f81111561202c57fe5b81518110151561203857fe5b90602001906020020151611b8b565b612073836005600f81111561205857fe5b81518110151561206457fe5b90602001906020020151611b8b565b1415156120b5576040517f08c379a00000000000000000000000000000000000000000000000000000000081526004016120ac9061a2b6565b60405180910390fd5b6120e181600a600f8111156120c657fe5b8151811015156120d257fe5b90602001906020020151611b8b565b61210d83600a600f8111156120f257fe5b8151811015156120fe57fe5b90602001906020020151611b8b565b14151561214f576040517f08c379a000000000000000000000000000000000000000000000000000000000815260040161214690619d56565b60405180910390fd5b61217b81600b600f81111561216057fe5b81518110151561216c57fe5b90602001906020020151611b8b565b6121a783600b600f81111561218c57fe5b81518110151561219857fe5b90602001906020020151611b8b565b1415156121e9576040517f08c379a00000000000000000000000000000000000000000000000000000000081526004016121e090619fd6565b60405180910390fd5b61221581600c600f8111156121fa57fe5b81518110151561220657fe5b90602001906020020151611b8b565b61224183600c600f81111561222657fe5b81518110151561223257fe5b90602001906020020151611b8b565b141515612283576040517f08c379a000000000000000000000000000000000000000000000000000000000815260040161227a90619dd6565b60405180910390fd5b60098081111561228f57fe5b6122bb82600b600f8111156122a057fe5b8151811015156122ac57fe5b90602001906020020151611b8b565b111515156122fe576040517f08c379a00000000000000000000000000000000000000000000000000000000081526004016122f590619d96565b60405180910390fd5b60098081111561230a57fe5b61233682600d600f81111561231b57fe5b81518110151561232757fe5b90602001906020020151611b8b565b11151515612379576040517f08c379a000000000000000000000000000000000000000000000000000000000815260040161237090619e96565b60405180910390fd5b6123a581600d600f81111561238a57fe5b81518110151561239657fe5b90602001906020020151611b8b565b6123d182600e600f8111156123b657fe5b8151811015156123c257fe5b90602001906020020151611b8b565b60405160200180838152602001828152602001925050506040516020818303038152906040528051906020012061242a83600a600f81111561240f57fe5b81518110151561241b57fe5b90602001906020020151611b8b565b60010214151561246f576040517f08c379a00000000000000000000000000000000000000000000000000000000081526004016124669061a2d6565b60405180910390fd5b612477617f32565b6124ab6124a6846000600f81111561248b57fe5b81518110151561249757fe5b90602001906020020151611b8b565b6105fd565b90506124b56180af565b600260009054906101000a900473ffffffffffffffffffffffffffffffffffffffff1673ffffffffffffffffffffffffffffffffffffffff16638ef9e13e83600001516040518263ffffffff167c0100000000000000000000000000000000000000000000000000000000028152600401612530919061a468565b6101206040518083038186803b15801561254957600080fd5b505afa15801561255d573d6000803e3d6000fd5b505050506040513d601f19601f8201168201806040525061258191908101906188cb565b905061258b617f32565b6125bf6125ba866005600f81111561259f57fe5b8151811015156125ab57fe5b90602001906020020151611b8b565b6105fd565b90506125c96180af565b600260009054906101000a900473ffffffffffffffffffffffffffffffffffffffff1673ffffffffffffffffffffffffffffffffffffffff16638ef9e13e83600001516040518263ffffffff167c0100000000000000000000000000000000000000000000000000000000028152600401612644919061a468565b6101206040518083038186803b15801561265d57600080fd5b505afa158015612671573d6000803e3d6000fd5b505050506040513d601f19601f8201168201806040525061269591908101906188cb565b905061269f6180f8565b60606040519081016040528060e0604051908101604052806126e38b6001600f8111156126c857fe5b8151811015156126d457fe5b90602001906020020151611b8b565b81526020016127148b6002600f8111156126f957fe5b81518110151561270557fe5b90602001906020020151611c34565b151581526020016127478b6003600f81111561272c57fe5b81518110151561273857fe5b90602001906020020151611c34565b1515815260200161277a8b6004600f81111561275f57fe5b81518110151561276b57fe5b90602001906020020151611b8b565b81526020018881526020018781526020016127b78a600b600f81111561279c57fe5b8151811015156127a857fe5b90602001906020020151611b8b565b60098111156127c257fe5b60098111156127cd57fe5b815250815260200160e06040519081016040528061280d8b6006600f8111156127f257fe5b8151811015156127fe57fe5b90602001906020020151611b8b565b815260200161283e8b6007600f81111561282357fe5b81518110151561282f57fe5b90602001906020020151611c34565b151581526020016128718b6008600f81111561285657fe5b81518110151561286257fe5b90602001906020020151611c34565b151581526020016128a48b6009600f81111561288957fe5b81518110151561289557fe5b90602001906020020151611b8b565b81526020018681526020018581526020016128e18a600d600f8111156128c657fe5b8151811015156128d257fe5b90602001906020020151611b8b565b60098111156128ec57fe5b60098111156128f757fe5b815250815260200161292b88600c600f81111561291057fe5b81518110151561291c57fe5b90602001906020020151611b8b565b61295789600e600f81111561293c57fe5b81518110151561294857fe5b90602001906020020151611b8b565b604051602001808381526020018281526020019250505060405160208183030381529060405280519060200120815250905061299281613e24565b90506129c0866001600f8111156129a557fe5b8151811015156129b157fe5b90602001906020020151611b8b565b816000015160000151141515612a0b576040517f08c379a0000000000000000000000000000000000000000000000000000000008152600401612a029061a076565b60405180910390fd5b612a37866004600f811115612a1c57fe5b815181101515612a2857fe5b90602001906020020151611b8b565b816000015160600151141515612a82576040517f08c379a0000000000000000000000000000000000000000000000000000000008152600401612a799061a276565b60405180910390fd5b612aae866002600f811115612a9357fe5b815181101515612a9f57fe5b90602001906020020151611c34565b15158160000151602001511515141515612afd576040517f08c379a0000000000000000000000000000000000000000000000000000000008152600401612af49061a256565b60405180910390fd5b612b29866003600f811115612b0e57fe5b815181101515612b1a57fe5b90602001906020020151611c34565b15158160000151604001511515141515612b78576040517f08c379a0000000000000000000000000000000000000000000000000000000008152600401612b6f90619cf6565b60405180910390fd5b612ba4866006600f811115612b8957fe5b815181101515612b9557fe5b90602001906020020151611b8b565b816020015160000151141515612bef576040517f08c379a0000000000000000000000000000000000000000000000000000000008152600401612be69061a076565b60405180910390fd5b612c1b866009600f811115612c0057fe5b815181101515612c0c57fe5b90602001906020020151611b8b565b816020015160600151141515612c66576040517f08c379a0000000000000000000000000000000000000000000000000000000008152600401612c5d9061a276565b60405180910390fd5b612c92866007600f811115612c7757fe5b815181101515612c8357fe5b90602001906020020151611c34565b15158160200151602001511515141515612ce1576040517f08c379a0000000000000000000000000000000000000000000000000000000008152600401612cd89061a256565b60405180910390fd5b612d0d866008600f811115612cf257fe5b815181101515612cfe57fe5b90602001906020020151611c34565b15158160200151604001511515141515612d5c576040517f08c379a0000000000000000000000000000000000000000000000000000000008152600401612d5390619cf6565b60405180910390fd5b50505050505050505050565b6060612d7b612d7685611a4a565b611a78565b90506060612d90612d8b85611a4a565b611a78565b905060008315612e24576001600a600f811115612da957fe5b018351141515612dee576040517f08c379a0000000000000000000000000000000000000000000000000000000008152600401612de590619ef6565b60405180910390fd5b612e1a83600a600f811115612dff57fe5b815181101515612e0b57fe5b90602001906020020151611b8b565b6001029050612ea8565b6001600f80811115612e3257fe5b018351141515612e77576040517f08c379a0000000000000000000000000000000000000000000000000000000008152600401612e6e90619ef6565b60405180910390fd5b612ea283600f80811115612e8757fe5b815181101515612e9357fe5b90602001906020020151611b8b565b60010290505b6001600c600f811115612eb757fe5b018251141515612efc576040517f08c379a0000000000000000000000000000000000000000000000000000000008152600401612ef39061a316565b60405180910390fd5b612f068383613437565b612f3282600a600f811115612f1757fe5b815181101515612f2357fe5b90602001906020020151611b8b565b60010281141515612f78576040517f08c379a0000000000000000000000000000000000000000000000000000000008152600401612f6f90619db6565b60405180910390fd5b6000612fa683600b600f811115612f8b57fe5b815181101515612f9757fe5b90602001906020020151611b8b565b9050600980811115612fb457fe5b8111151515612ff8576040517f08c379a0000000000000000000000000000000000000000000000000000000008152600401612fef90619d96565b60405180910390fd5b61300c81600981111561300757fe5b613f8a565b1561308257600061303f846004600f81111561302457fe5b81518110151561303057fe5b90602001906020020151611b8b565b111515613081576040517f08c379a00000000000000000000000000000000000000000000000000000000081526004016130789061a056565b60405180910390fd5b5b61308a617f32565b6130be6130b9856000600f81111561309e57fe5b8151811015156130aa57fe5b90602001906020020151611b8b565b6105fd565b90506130c86180af565b600260009054906101000a900473ffffffffffffffffffffffffffffffffffffffff1673ffffffffffffffffffffffffffffffffffffffff16638ef9e13e83600001516040518263ffffffff167c0100000000000000000000000000000000000000000000000000000000028152600401613143919061a468565b6101206040518083038186803b15801561315c57600080fd5b505afa158015613170573d6000803e3d6000fd5b505050506040513d601f19601f8201168201806040525061319491908101906188cb565b905073__BattleDamageCalculator________________62fdb4378460098111156131bb57fe5b6040518263ffffffff167c01000000000000000000000000000000000000000000000000000000000281526004016131f39190619cdb565b60206040518083038186803b15801561320b57600080fd5b505af415801561321f573d6000803e3d6000fd5b505050506040513d601f19601f82011682018060405250613243919081019061865f565b156132a85760128081111561325457fe5b8160200151601281111561326457fe5b141515156132a7576040517f08c379a000000000000000000000000000000000000000000000000000000000815260040161329e9061a1f6565b60405180910390fd5b5b73__BattleDamageCalculator________________63da36f29c8460098111156132ce57fe5b6040518263ffffffff167c01000000000000000000000000000000000000000000000000000000000281526004016133069190619cdb565b60206040518083038186803b15801561331e57600080fd5b505af4158015613332573d6000803e3d6000fd5b505050506040513d601f19601f82011682018060405250613356919081019061865f565b156133bb5760128081111561336757fe5b8160400151601281111561337757fe5b141515156133ba576040517f08c379a00000000000000000000000000000000000000000000000000000000081526004016133b19061a1f6565b60405180910390fd5b5b60006133e986600c600f8111156133ce57fe5b8151811015156133da57fe5b90602001906020020151611b8b565b1415151561342c576040517f08c379a000000000000000000000000000000000000000000000000000000000815260040161342390619e56565b60405180910390fd5b505050505050505050565b613463816000600f81111561344857fe5b81518110151561345457fe5b90602001906020020151611b8b565b61348f836000600f81111561347457fe5b81518110151561348057fe5b90602001906020020151611b8b565b1415156134d1576040517f08c379a00000000000000000000000000000000000000000000000000000000081526004016134c89061a036565b60405180910390fd5b6134fd816001600f8111156134e257fe5b8151811015156134ee57fe5b90602001906020020151611b8b565b613529836001600f81111561350e57fe5b81518110151561351a57fe5b90602001906020020151611b8b565b14151561356b576040517f08c379a00000000000000000000000000000000000000000000000000000000081526004016135629061a1b6565b60405180910390fd5b613597816002600f81111561357c57fe5b81518110151561358857fe5b90602001906020020151611c34565b15156135c5836002600f8111156135aa57fe5b8151811015156135b657fe5b90602001906020020151611c34565b1515141515613609576040517f08c379a000000000000000000000000000000000000000000000000000000000815260040161360090619f36565b60405180910390fd5b613635816003600f81111561361a57fe5b81518110151561362657fe5b90602001906020020151611c34565b1515613663836003600f81111561364857fe5b81518110151561365457fe5b90602001906020020151611c34565b15151415156136a7576040517f08c379a000000000000000000000000000000000000000000000000000000000815260040161369e9061a1d6565b60405180910390fd5b6136d3816004600f8111156136b857fe5b8151811015156136c457fe5b90602001906020020151611b8b565b6136ff836004600f8111156136e457fe5b8151811015156136f057fe5b90602001906020020151611b8b565b141515613741576040517f08c379a00000000000000000000000000000000000000000000000000000000081526004016137389061a296565b60405180910390fd5b61376d816005600f81111561375257fe5b81518110151561375e57fe5b90602001906020020151611b8b565b613799836005600f81111561377e57fe5b81518110151561378a57fe5b90602001906020020151611b8b565b1415156137db576040517f08c379a00000000000000000000000000000000000000000000000000000000081526004016137d29061a2b6565b60405180910390fd5b613807816006600f8111156137ec57fe5b8151811015156137f857fe5b90602001906020020151611b8b565b613833836006600f81111561381857fe5b81518110151561382457fe5b90602001906020020151611b8b565b141515613875576040517f08c379a000000000000000000000000000000000000000000000000000000000815260040161386c9061a016565b60405180910390fd5b6138a1816007600f81111561388657fe5b81518110151561389257fe5b90602001906020020151611c34565b15156138cf836007600f8111156138b457fe5b8151811015156138c057fe5b90602001906020020151611c34565b1515141515613913576040517f08c379a000000000000000000000000000000000000000000000000000000000815260040161390a9061a196565b60405180910390fd5b61393f816008600f81111561392457fe5b81518110151561393057fe5b90602001906020020151611c34565b151561396d836008600f81111561395257fe5b81518110151561395e57fe5b90602001906020020151611c34565b15151415156139b1576040517f08c379a00000000000000000000000000000000000000000000000000000000081526004016139a890619d36565b60405180910390fd5b6139dd816009600f8111156139c257fe5b8151811015156139ce57fe5b90602001906020020151611b8b565b613a09836009600f8111156139ee57fe5b8151811015156139fa57fe5b90602001906020020151611b8b565b141515613a4b576040517f08c379a0000000000000000000000000000000000000000000000000000000008152600401613a4290619eb6565b60405180910390fd5b5050565b600073ffffffffffffffffffffffffffffffffffffffff168173ffffffffffffffffffffffffffffffffffffffff1614151515613a8b57600080fd5b8073ffffffffffffffffffffffffffffffffffffffff166000809054906101000a900473ffffffffffffffffffffffffffffffffffffffff1673ffffffffffffffffffffffffffffffffffffffff167f8be0079c531659141344cd1fd0a4f28419497f9722a3daafe3b4186f6b6457e060405160405180910390a3806000806101000a81548173ffffffffffffffffffffffffffffffffffffffff021916908373ffffffffffffffffffffffffffffffffffffffff16021790555050565b60008082600001511415613b605760009050613b92565b60008083602001519050805160001a915060c060ff168260ff161015613b8b57600092505050613b92565b6001925050505b919050565b60008082600001511415613bae5760009050613c03565b60008090506000613bc28460200151613c08565b84602001510190506000846000015185602001510190505b80821015613bfc57613beb82613c91565b820191508280600101935050613bda565b8293505050505b919050565b600080825160001a9050608060ff16811015613c28576000915050613c8c565b60b860ff16811080613c4d575060c060ff168110158015613c4c575060f860ff1681105b5b15613c5c576001915050613c8c565b60c060ff16811015613c7c5760018060b80360ff16820301915050613c8c565b60018060f80360ff168203019150505b919050565b600080825160001a9050608060ff16811015613cb1576001915050613d3f565b60b860ff16811015613ccf576001608060ff16820301915050613d3f565b60c060ff16811015613cff5760b78103600184019350806020036101000a84510460018201810193505050613d3d565b60f860ff16811015613d1d57600160c060ff16820301915050613d3f565b60f78103600184019350806020036101000a845104600182018101935050505b505b919050565b6000811415613d5257613da8565b5b602060ff1681101515613d845782518252602060ff1683019250602060ff1682019150602060ff1681039050613d53565b6000600182602060ff16036101000a03905080198451168184511681811785525050505b505050565b600060038251149050919050565b600060158260000151141515613e06576040517f08c379a0000000000000000000000000000000000000000000000000000000008152600401613dfd9061a236565b60405180910390fd5b613e0f82611b8b565b9050919050565b600060098251149050919050565b613e2c6180f8565b6000613e4083600001518460200151613fd0565b90506000613e5684602001518560000151613fd0565b90506000818310905081831415613e9457600080613e77876040015161406c565b9150915081876040018181525050600f60ff168160ff1611925050505b8015613ea657613ea385614092565b94505b613eaf856140c8565b9450613eba8561474d565b15613ed357613ec98582614774565b9350505050613f85565b613ee4613edf86614092565b6140c8565b9450613eef8561474d565b15613f0957613eff858215614774565b9350505050613f85565b613f1a613f1586614092565b61479c565b9450613f258561474d565b15613f3e57613f348582614774565b9350505050613f85565b613f4f613f4a86614092565b61479c565b9450613f5a8561474d565b15613f7457613f6a858215614774565b9350505050613f85565b613f7f858215614774565b93505050505b919050565b6000806009811115613f9857fe5b826009811115613fa457fe5b14158015613fc9575060026009811115613fba57fe5b826009811115613fc657fe5b14155b9050919050565b60008083608001516080015160a0015161ffff16905083602001511561400557614002818460a00151602001516148f9565b90505b83604001511561402457614021818460a00151604001516148f9565b90505b82604001511561404357614040818560a0015160400151614999565b90505b8260400151156140625761405f818560a0015160400151614999565b90505b8091505092915050565b600080600060ff6001028416600190049050614087846149db565b819250925050915091565b61409a6180f8565b6140a261812a565b826020015190508260000151836020018190525080836000018190525082915050919050565b6140d06180f8565b600260098111156140dd57fe5b826000015160c0015160098111156140f157fe5b14156140ff57819050614748565b614110826000015160c00151613f8a565b1561417c576000826000015160600151111515614162576040517f08c379a00000000000000000000000000000000000000000000000000000000081526004016141599061a0d6565b60405180910390fd5b600182600001516060015103826000015160600181815250505b6000600981111561418957fe5b826000015160c00151600981111561419d57fe5b14156142115760038260000151606001511015156141f0576040517f08c379a00000000000000000000000000000000000000000000000000000000081526004016141e790619ff6565b60405180910390fd5b60018260000151606001510182600001516060018181525050819050614748565b614222826000015160c001516149f9565b1561428f5760128081111561423357fe5b826000015160a0015160200151601281111561424b57fe5b1415151561428e576040517f08c379a00000000000000000000000000000000000000000000000000000000081526004016142859061a1f6565b60405180910390fd5b5b6142a0826000015160c00151614a5e565b1561430d576012808111156142b157fe5b826000015160a001516040015160128111156142c957fe5b1415151561430c576040517f08c379a00000000000000000000000000000000000000000000000000000000081526004016143039061a1f6565b60405180910390fd5b5b61431e826000015160c00151614ac2565b1561450357600080614333846040015161406c565b915091506000806143438461406c565b915091506000806143538461406c565b9150915081886040018181525050600061437689600001518a6020015184614b48565b905080156144195760006143948a600001518b602001518988614ce3565b90506012808111156143a257fe5b8a6000015160a001516040015160128111156143ba57fe5b14156143d6576064607860ff1682028115156143d257fe5b0490505b808a602001516000015110156143fa5760008a602001516000018181525050614413565b808a6020015160000151038a6020015160000181815250505b506144f4565b6001896000015160600151018960000151606001818152505061444489600001518a60200151615021565b156144f3576000896000015160800151608001516020015161ffff16905060008a6000015160800151608001516040015161ffff1690506000600260328385600a60026005606460020281151561449757fe5b040102028115156144a457fe5b048115156144ae57fe5b04019050808c600001516000015110156144d65760008c6000015160000181815250506144ef565b808c6000015160000151038c6000015160000181815250505b5050505b5b88975050505050505050614748565b6003600981111561451057fe5b826000015160c00151600981111561452457fe5b14156145c8576002600981111561453757fe5b826020015160c00151600981111561454b57fe5b14156145c05760006003836020015160800151608001516000015161ffff1681151561457357fe5b0461ffff16905080836020015160000151101561459e576000836020015160000181815250506145b7565b8083602001516000015103836020015160000181815250505b82915050614748565b819050614748565b600660098111156145d557fe5b826000015160c0015160098111156145e957fe5b141561465a576000806145ff846040015161406c565b915091508184604001818152505061461784826150a8565b1561463657600184602001516020019015159081151581525050614650565b600184600001516060015101846000015160600181815250505b8392505050614748565b60098081111561466657fe5b826000015160c00151600981111561467a57fe5b14156146eb57600080614690846040015161406c565b91509150818460400181815250506146a884826150a8565b156146c7576001846020015160400190151590811515815250506146e1565b600184600001516060015101846000015160600181815250505b8392505050614748565b600160098111156146f857fe5b826000015160c00151600981111561470c57fe5b141561474457600082600001516020019015159081151581525050600082600001516040019015159081151581525050819050614748565b8190505b919050565b600080826000015160000151148061476d57506000826020015160000151145b9050919050565b61477c6180f8565b81156147925761478b83614092565b9050614796565b8290505b92915050565b6147a46180f8565b6000826020015160200151156147cf576147ca83846000015160a00151602001516151a7565b810190505b826020015160400151156147f8576147f383846000015160a00151604001516151a7565b810190505b826000015160800151608001516000015161ffff168184600001516000015101101561483b5780836000015160000151018360000151600001818152505061485e565b826000015160800151608001516000015161ffff16836000015160000181815250505b6000836000015160200151156148895761488484856020015160a001516020015161520e565b810190505b836000015160400151156148b2576148ad84856020015160a001516040015161520e565b810190505b8084600001516000015110156148d6576000846000015160000181815250506148ef565b8084600001516000015103846000015160000181815250505b8392505050919050565b6000600a601281111561490857fe5b82601281111561491457fe5b1415614931576064603c840281151561492957fe5b049050614993565b600c601281111561493e57fe5b82601281111561494a57fe5b1415614967576064603c840281151561495f57fe5b049050614993565b600e601281111561497457fe5b82601281111561498057fe5b141561498f5760009050614993565b8290505b92915050565b6000600260128111156149a857fe5b8260128111156149b457fe5b14156149d1576064609684028115156149c957fe5b0490506149d5565b8290505b92915050565b600061010082600190048115156149ee57fe5b046001029050919050565b600060046009811115614a0857fe5b826009811115614a1457fe5b1480614a36575060056009811115614a2857fe5b826009811115614a3457fe5b145b80614a57575060066009811115614a4957fe5b826009811115614a5557fe5b145b9050919050565b600060076009811115614a6d57fe5b826009811115614a7957fe5b1480614a9b575060086009811115614a8d57fe5b826009811115614a9957fe5b145b80614abb5750600980811115614aad57fe5b826009811115614ab957fe5b145b9050919050565b600060046009811115614ad157fe5b826009811115614add57fe5b1480614aff575060076009811115614af157fe5b826009811115614afd57fe5b145b80614b20575060056009811115614b1257fe5b826009811115614b1e57fe5b145b80614b41575060086009811115614b3357fe5b826009811115614b3f57fe5b145b9050919050565b600083602001518015614b5c575083604001515b15614c31576000614b9d8460a00151602001518560800151602001516002811115614b8357fe5b8760800151602001516002811115614b9757fe5b14615468565b90506000614bdb8560a00151604001518660800151602001516002811115614bc157fe5b8860800151602001516002811115614bd557fe5b14615468565b90506000620f4240800260ff80620f42408560ff1602811515614bfa57fe5b0460ff620f42408760ff1602811515614c0f57fe5b040202811515614c1b57fe5b0490508060ff168560ff16109350505050614cdc565b836020015115614c8457614c758360a00151602001518460800151602001516002811115614c5b57fe5b8660800151602001516002811115614c6f57fe5b14615468565b60ff168260ff16109050614cdc565b836040015115614cd757614cc88360a00151604001518460800151602001516002811115614cae57fe5b8660800151602001516002811115614cc257fe5b14615468565b60ff168260ff16109050614cdc565b600190505b9392505050565b600060026009811115614cf257fe5b8460c001516009811115614d0257fe5b1415614d115760009050615019565b600060046009811115614d2057fe5b8660c001516009811115614d3057fe5b1480614d56575060076009811115614d4457fe5b8660c001516009811115614d5457fe5b145b15614db3576000614d6787876155b8565b90506000614d758789615654565b90506002603282846014600260056064600202811515614d9157fe5b04010202811515614d9e57fe5b04811515614da857fe5b040192505050614e8f565b60056009811115614dc057fe5b8660c001516009811115614dd057fe5b1480614df6575060086009811115614de457fe5b8660c001516009811115614df457fe5b145b15614e53576000614e0787876156f0565b90506000614e15878961578c565b90506002603282846014600260056064600202811515614e3157fe5b04010202811515614e3e57fe5b04811515614e4857fe5b040192505050614e8e565b6040517f08c379a0000000000000000000000000000000000000000000000000000000008152600401614e8590619df6565b60405180910390fd5b5b6000614e9b8787615828565b60ff168560ff161090508015614ebe57606460968302811515614eba57fe5b0491505b6000620f424060d902602660ff620f42408860ff1602811515614edd57fe5b0402019050620f424060ff828502811515614ef457fe5b04811515614efe57fe5b0492506000614f108960c001516149f9565b15614f25578860a00151602001519050614f31565b8860a001516040015190505b6000614f4e828a60a00151602001518b60a00151604001516158e1565b60ff1690506003811415614f69578495505050505050615019565b6004811115614fb3576064609660ff168602811515614f8457fe5b0494506005811415614fa6576064609660ff168602811515614fa257fe5b0494505b8495505050505050615019565b6003811015615010576064604b60ff168602811515614fce57fe5b049450600281101561500f576064604b60ff168602811515614fec57fe5b049450600081141561500e576064604b60ff16860281151561500a57fe5b0494505b5b5b84955050505050505b949350505050565b6000826020015180156150525750600d601281111561503c57fe5b8260a0015160200151601281111561505057fe5b145b1561506057600190506150a2565b8260400151801561508f5750600d601281111561507957fe5b8260a0015160400151601281111561508d57fe5b145b1561509d57600190506150a2565b600090505b92915050565b60008260000151602001511561512157600e60128111156150c557fe5b836020015160a001516020015160128111156150dd57fe5b14151515615120576040517f08c379a000000000000000000000000000000000000000000000000000000000815260040161511790619f16565b60405180910390fd5b5b8260000151604001511561519857600e601281111561513c57fe5b836020015160a0015160400151601281111561515457fe5b14151515615197576040517f08c379a000000000000000000000000000000000000000000000000000000000815260040161518e90619f16565b60405180910390fd5b5b60be8260ff1610905092915050565b6000600b60128111156151b657fe5b8260128111156151c257fe5b141561520357620f42406010620f4240856020015160800151608001516000015161ffff16028115156151f157fe5b048115156151fb57fe5b049050615208565b600090505b92915050565b6000600b601281111561521d57fe5b82601281111561522957fe5b141561526a57620f42406010620f4240856000015160800151608001516000015161ffff160281151561525857fe5b0481151561526257fe5b049050615462565b6003601281111561527757fe5b82601281111561528357fe5b14156152c457620f4240600a620f4240856000015160800151608001516000015161ffff16028115156152b257fe5b048115156152bc57fe5b049050615462565b600960128111156152d157fe5b8260128111156152dd57fe5b141561531e57620f42406010620f4240856000015160800151608001516000015161ffff160281151561530c57fe5b0481151561531657fe5b049050615462565b6002601281111561532b57fe5b82601281111561533757fe5b141561537857620f42406010620f4240856000015160800151608001516000015161ffff160281151561536657fe5b0481151561537057fe5b049050615462565b6005601281111561538557fe5b82601281111561539157fe5b14156153d257620f42406010620f4240856000015160800151608001516000015161ffff16028115156153c057fe5b048115156153ca57fe5b049050615462565b600460128111156153df57fe5b8260128111156153eb57fe5b14801561541d5750615404836000015160c00151614ac2565b8061541c575061541b836000015160c00151617ce1565b5b5b1561545d57620f42406010620f4240856000015160800151608001516000015161ffff160281151561544b57fe5b0481151561545557fe5b049050615462565b600090505b92915050565b60006006601281111561547757fe5b83601281111561548357fe5b14156154a457606460ff60646032020281151561549c57fe5b0490506155b2565b600c60128111156154b157fe5b8360128111156154bd57fe5b14156154de57606460ff6064604b02028115156154d657fe5b0490506155b2565b600760128111156154eb57fe5b8360128111156154f757fe5b141561551857606460ff60646046020281151561551057fe5b0490506155b2565b600d601281111561552557fe5b83601281111561553157fe5b141561555257606460ff60646055020281151561554a57fe5b0490506155b2565b6011601281111561555f57fe5b83601281111561556b57fe5b14156155ad57811561559257606460ff60646041020281151561558a57fe5b0490506155b2565b606460ff6064601e02028115156155a557fe5b0490506155b2565b600090505b92915050565b6000808360800151608001516020015161ffff1690508360200151156155ed576155ea818460a0015160200151617d24565b90505b83604001511561560c57615609818460a0015160400151617d24565b90505b82604001511561562b57615628818560a0015160400151617dd2565b90505b82604001511561564a57615647818560a0015160400151617dd2565b90505b8091505092915050565b6000808360800151608001516040015161ffff16905083602001511561568957615686818460a0015160200151617e14565b90505b8360400151156156a8576156a5818460a0015160400151617e14565b90505b8260400151156156c7576156c4818560a0015160400151617e1f565b90505b8260400151156156e6576156e3818560a0015160400151617e1f565b90505b8091505092915050565b6000808360800151608001516060015161ffff16905083602001511561572557615722818460a0015160200151617e61565b90505b83604001511561574457615741818460a0015160400151617e61565b90505b82604001511561576357615760818560a0015160400151617ea3565b90505b8260400151156157825761577f818560a0015160400151617ea3565b90505b8091505092915050565b6000808360800151608001516080015161ffff1690508360200151156157c1576157be818460a0015160200151617ee5565b90505b8360400151156157e0576157dd818460a0015160400151617ee5565b90505b8260400151156157ff576157fc818560a0015160400151617ef0565b90505b82604001511561581e5761581b818560a0015160400151617ef0565b90505b8091505092915050565b6000808360a001516060015160a0015161ffff1690508260200151801561586d57506001601281111561585757fe5b8460a0015160200151601281111561586b57fe5b145b806158a35750826040015180156158a257506001601281111561588c57fe5b8460a001516040015160128111156158a057fe5b145b5b156158b3576008810290506158c3565b6002818115156158bf57fe5b0490505b60ff8111156158d65760ff9150506158db565b809150505b92915050565b60008060039050600060128111156158f557fe5b85601281111561590157fe5b14156159e4576007601281111561591457fe5b84601281111561592057fe5b148061594257506007601281111561593457fe5b83601281111561594057fe5b145b15615951576000915050617cda565b6005601281111561595e57fe5b84601281111561596a57fe5b148061598c57506005601281111561597e57fe5b83601281111561598a57fe5b145b15615998576001810390505b600860128111156159a557fe5b8460128111156159b157fe5b14806159d35750600860128111156159c557fe5b8360128111156159d157fe5b145b156159df576001810390505b617cd5565b600160128111156159f157fe5b8560128111156159fd57fe5b1415615cd15760076012811115615a1057fe5b846012811115615a1c57fe5b1480615a3e575060076012811115615a3057fe5b836012811115615a3c57fe5b145b15615a4d576000915050617cda565b60056012811115615a5a57fe5b846012811115615a6657fe5b1480615a88575060056012811115615a7a57fe5b836012811115615a8657fe5b145b15615a94576001810190505b60086012811115615aa157fe5b846012811115615aad57fe5b1480615acf575060086012811115615ac157fe5b836012811115615acd57fe5b145b15615adb576001810190505b600e6012811115615ae857fe5b846012811115615af457fe5b1480615b165750600e6012811115615b0857fe5b836012811115615b1457fe5b145b15615b22576001810190505b60106012811115615b2f57fe5b846012811115615b3b57fe5b1480615b5d575060106012811115615b4f57fe5b836012811115615b5b57fe5b145b15615b69576001810190505b60026012811115615b7657fe5b846012811115615b8257fe5b1480615ba4575060026012811115615b9657fe5b836012811115615ba257fe5b145b15615bb0576001810390505b60036012811115615bbd57fe5b846012811115615bc957fe5b1480615beb575060036012811115615bdd57fe5b836012811115615be957fe5b145b15615bf7576001810390505b600d6012811115615c0457fe5b846012811115615c1057fe5b1480615c325750600d6012811115615c2457fe5b836012811115615c3057fe5b145b15615c3e576001810390505b60066012811115615c4b57fe5b846012811115615c5757fe5b1480615c79575060066012811115615c6b57fe5b836012811115615c7757fe5b145b15615c85576001810390505b60116012811115615c9257fe5b846012811115615c9e57fe5b1480615cc0575060116012811115615cb257fe5b836012811115615cbe57fe5b145b15615ccc576001810390505b617cd4565b60026012811115615cde57fe5b856012811115615cea57fe5b1415615e9f5760016012811115615cfd57fe5b846012811115615d0957fe5b1480615d2b575060016012811115615d1d57fe5b836012811115615d2957fe5b145b15615d37576001810190505b60066012811115615d4457fe5b846012811115615d5057fe5b1480615d72575060066012811115615d6457fe5b836012811115615d7057fe5b145b15615d7e576001810190505b600b6012811115615d8b57fe5b846012811115615d9757fe5b1480615db95750600b6012811115615dab57fe5b836012811115615db757fe5b145b15615dc5576001810190505b60056012811115615dd257fe5b846012811115615dde57fe5b1480615e00575060056012811115615df257fe5b836012811115615dfe57fe5b145b15615e0c576001810390505b60086012811115615e1957fe5b846012811115615e2557fe5b1480615e47575060086012811115615e3957fe5b836012811115615e4557fe5b145b15615e53576001810390505b600c6012811115615e6057fe5b846012811115615e6c57fe5b1480615e8e5750600c6012811115615e8057fe5b836012811115615e8c57fe5b145b15615e9a576001810390505b617cd3565b60036012811115615eac57fe5b856012811115615eb857fe5b14156160b75760086012811115615ecb57fe5b846012811115615ed757fe5b1480615ef9575060086012811115615eeb57fe5b836012811115615ef757fe5b145b15615f08576000915050617cda565b600b6012811115615f1557fe5b846012811115615f2157fe5b1480615f435750600b6012811115615f3557fe5b836012811115615f4157fe5b145b15615f4f576001810190505b60116012811115615f5c57fe5b846012811115615f6857fe5b1480615f8a575060116012811115615f7c57fe5b836012811115615f8857fe5b145b15615f96576001810190505b60036012811115615fa357fe5b846012811115615faf57fe5b1480615fd1575060036012811115615fc357fe5b836012811115615fcf57fe5b145b15615fdd576001810390505b60046012811115615fea57fe5b846012811115615ff657fe5b148061601857506004601281111561600a57fe5b83601281111561601657fe5b145b15616024576001810390505b6005601281111561603157fe5b84601281111561603d57fe5b148061605f57506005601281111561605157fe5b83601281111561605d57fe5b145b1561606b576001810390505b6007601281111561607857fe5b84601281111561608457fe5b14806160a657506007601281111561609857fe5b8360128111156160a457fe5b145b156160b2576001810390505b617cd2565b600460128111156160c457fe5b8560128111156160d057fe5b141561631657600360128111156160e357fe5b8460128111156160ef57fe5b148061611157506003601281111561610357fe5b83601281111561610f57fe5b145b1561611d576001810190505b6005601281111561612a57fe5b84601281111561613657fe5b148061615857506005601281111561614a57fe5b83601281111561615657fe5b145b15616164576001810190505b6008601281111561617157fe5b84601281111561617d57fe5b148061619f57506008601281111561619157fe5b83601281111561619d57fe5b145b156161ab576001810190505b600960128111156161b857fe5b8460128111156161c457fe5b14806161e65750600960128111156161d857fe5b8360128111156161e457fe5b145b156161f2576001810190505b600c60128111156161ff57fe5b84601281111561620b57fe5b148061622d5750600c601281111561621f57fe5b83601281111561622b57fe5b145b15616239576001810190505b6002601281111561624657fe5b84601281111561625257fe5b148061627457506002601281111561626657fe5b83601281111561627257fe5b145b15616283576000915050617cda565b6006601281111561629057fe5b84601281111561629c57fe5b14806162be5750600660128111156162b057fe5b8360128111156162bc57fe5b145b156162ca576001810390505b600b60128111156162d757fe5b8460128111156162e357fe5b14806163055750600b60128111156162f757fe5b83601281111561630357fe5b145b15616311576001810390505b617cd1565b6005601281111561632357fe5b85601281111561632f57fe5b141561652b576002601281111561634257fe5b84601281111561634e57fe5b148061637057506002601281111561636257fe5b83601281111561636e57fe5b145b1561637c576001810190505b6006601281111561638957fe5b84601281111561639557fe5b14806163b75750600660128111156163a957fe5b8360128111156163b557fe5b145b156163c3576001810190505b600960128111156163d057fe5b8460128111156163dc57fe5b14806163fe5750600960128111156163f057fe5b8360128111156163fc57fe5b145b1561640a576001810190505b600e601281111561641757fe5b84601281111561642357fe5b14806164455750600e601281111561643757fe5b83601281111561644357fe5b145b15616451576001810190505b6001601281111561645e57fe5b84601281111561646a57fe5b148061648c57506001601281111561647e57fe5b83601281111561648a57fe5b145b15616498576001810390505b600460128111156164a557fe5b8460128111156164b157fe5b14806164d35750600460128111156164c557fe5b8360128111156164d157fe5b145b156164df576001810390505b600860128111156164ec57fe5b8460128111156164f857fe5b148061651a57506008601281111561650c57fe5b83601281111561651857fe5b145b15616526576001810390505b617cd0565b6006601281111561653857fe5b85601281111561654457fe5b141561681557600b601281111561655757fe5b84601281111561656357fe5b14806165855750600b601281111561657757fe5b83601281111561658357fe5b145b15616591576001810190505b600d601281111561659e57fe5b8460128111156165aa57fe5b14806165cc5750600d60128111156165be57fe5b8360128111156165ca57fe5b145b156165d8576001810190505b601060128111156165e557fe5b8460128111156165f157fe5b148061661357506010601281111561660557fe5b83601281111561661157fe5b145b1561661f576001810190505b6001601281111561662c57fe5b84601281111561663857fe5b148061665a57506001601281111561664c57fe5b83601281111561665857fe5b145b15616666576001810390505b6002601281111561667357fe5b84601281111561667f57fe5b14806166a157506002601281111561669357fe5b83601281111561669f57fe5b145b156166ad576001810390505b600360128111156166ba57fe5b8460128111156166c657fe5b14806166e85750600360128111156166da57fe5b8360128111156166e657fe5b145b156166f4576001810390505b6007601281111561670157fe5b84601281111561670d57fe5b148061672f57506007601281111561672157fe5b83601281111561672d57fe5b145b1561673b576001810390505b6008601281111561674857fe5b84601281111561675457fe5b148061677657506008601281111561676857fe5b83601281111561677457fe5b145b15616782576001810390505b6009601281111561678f57fe5b84601281111561679b57fe5b14806167bd5750600960128111156167af57fe5b8360128111156167bb57fe5b145b156167c9576001810390505b601160128111156167d657fe5b8460128111156167e257fe5b14806168045750601160128111156167f657fe5b83601281111561680257fe5b145b15616810576001810390505b617ccf565b6007601281111561682257fe5b85601281111561682e57fe5b1415616958576007601281111561684157fe5b84601281111561684d57fe5b148061686f57506007601281111561686157fe5b83601281111561686d57fe5b145b1561687b576001810190505b600d601281111561688857fe5b84601281111561689457fe5b14806168b65750600d60128111156168a857fe5b8360128111156168b457fe5b145b156168c2576001810190505b600060128111156168cf57fe5b8460128111156168db57fe5b14806168fd5750600060128111156168ef57fe5b8360128111156168fb57fe5b145b1561690c576000915050617cda565b6010601281111561691957fe5b84601281111561692557fe5b148061694757506010601281111561693957fe5b83601281111561694557fe5b145b15616953576001810390505b617cce565b6008601281111561696557fe5b85601281111561697157fe5b1415616b6d576005601281111561698457fe5b84601281111561699057fe5b14806169b25750600560128111156169a457fe5b8360128111156169b057fe5b145b156169be576001810190505b600e60128111156169cb57fe5b8460128111156169d757fe5b14806169f95750600e60128111156169eb57fe5b8360128111156169f757fe5b145b15616a05576001810190505b60116012811115616a1257fe5b846012811115616a1e57fe5b1480616a40575060116012811115616a3257fe5b836012811115616a3e57fe5b145b15616a4c576001810190505b60086012811115616a5957fe5b846012811115616a6557fe5b1480616a87575060086012811115616a7957fe5b836012811115616a8557fe5b145b15616a93576001810390505b60096012811115616aa057fe5b846012811115616aac57fe5b1480616ace575060096012811115616ac057fe5b836012811115616acc57fe5b145b15616ada576001810390505b600a6012811115616ae757fe5b846012811115616af357fe5b1480616b155750600a6012811115616b0757fe5b836012811115616b1357fe5b145b15616b21576001810390505b600c6012811115616b2e57fe5b846012811115616b3a57fe5b1480616b5c5750600c6012811115616b4e57fe5b836012811115616b5a57fe5b145b15616b68576001810390505b617ccd565b60096012811115616b7a57fe5b856012811115616b8657fe5b1415616dc95760066012811115616b9957fe5b846012811115616ba557fe5b1480616bc7575060066012811115616bb957fe5b836012811115616bc557fe5b145b15616bd3576001810190505b60086012811115616be057fe5b846012811115616bec57fe5b1480616c0e575060086012811115616c0057fe5b836012811115616c0c57fe5b145b15616c1a576001810190505b600b6012811115616c2757fe5b846012811115616c3357fe5b1480616c555750600b6012811115616c4757fe5b836012811115616c5357fe5b145b15616c61576001810190505b600e6012811115616c6e57fe5b846012811115616c7a57fe5b1480616c9c5750600e6012811115616c8e57fe5b836012811115616c9a57fe5b145b15616ca8576001810190505b60056012811115616cb557fe5b846012811115616cc157fe5b1480616ce3575060056012811115616cd557fe5b836012811115616ce157fe5b145b15616cef576001810390505b60096012811115616cfc57fe5b846012811115616d0857fe5b1480616d2a575060096012811115616d1c57fe5b836012811115616d2857fe5b145b15616d36576001810390505b600a6012811115616d4357fe5b846012811115616d4f57fe5b1480616d715750600a6012811115616d6357fe5b836012811115616d6f57fe5b145b15616d7d576001810390505b600f6012811115616d8a57fe5b846012811115616d9657fe5b1480616db85750600f6012811115616daa57fe5b836012811115616db657fe5b145b15616dc4576001810390505b617ccc565b600a6012811115616dd657fe5b856012811115616de257fe5b1415616f975760046012811115616df557fe5b846012811115616e0157fe5b1480616e23575060046012811115616e1557fe5b836012811115616e2157fe5b145b15616e2f576001810190505b60056012811115616e3c57fe5b846012811115616e4857fe5b1480616e6a575060056012811115616e5c57fe5b836012811115616e6857fe5b145b15616e76576001810190505b60096012811115616e8357fe5b846012811115616e8f57fe5b1480616eb1575060096012811115616ea357fe5b836012811115616eaf57fe5b145b15616ebd576001810190505b600a6012811115616eca57fe5b846012811115616ed657fe5b1480616ef85750600a6012811115616eea57fe5b836012811115616ef657fe5b145b15616f04576001810390505b600b6012811115616f1157fe5b846012811115616f1d57fe5b1480616f3f5750600b6012811115616f3157fe5b836012811115616f3d57fe5b145b15616f4b576001810390505b600f6012811115616f5857fe5b846012811115616f6457fe5b1480616f865750600f6012811115616f7857fe5b836012811115616f8457fe5b145b15616f92576001810390505b617ccb565b600b6012811115616fa457fe5b856012811115616fb057fe5b14156172815760046012811115616fc357fe5b846012811115616fcf57fe5b1480616ff1575060046012811115616fe357fe5b836012811115616fef57fe5b145b15616ffd576001810190505b6005601281111561700a57fe5b84601281111561701657fe5b148061703857506005601281111561702a57fe5b83601281111561703657fe5b145b15617044576001810190505b600a601281111561705157fe5b84601281111561705d57fe5b148061707f5750600a601281111561707157fe5b83601281111561707d57fe5b145b1561708b576001810190505b6002601281111561709857fe5b8460128111156170a457fe5b14806170c65750600260128111156170b857fe5b8360128111156170c457fe5b145b156170d2576001810390505b600360128111156170df57fe5b8460128111156170eb57fe5b148061710d5750600360128111156170ff57fe5b83601281111561710b57fe5b145b15617119576001810390505b6006601281111561712657fe5b84601281111561713257fe5b148061715457506006601281111561714657fe5b83601281111561715257fe5b145b15617160576001810390505b6008601281111561716d57fe5b84601281111561717957fe5b148061719b57506008601281111561718d57fe5b83601281111561719957fe5b145b156171a7576001810390505b600960128111156171b457fe5b8460128111156171c057fe5b14806171e25750600960128111156171d457fe5b8360128111156171e057fe5b145b156171ee576001810390505b600b60128111156171fb57fe5b84601281111561720757fe5b14806172295750600b601281111561721b57fe5b83601281111561722757fe5b145b15617235576001810390505b600f601281111561724257fe5b84601281111561724e57fe5b14806172705750600f601281111561726257fe5b83601281111561726e57fe5b145b1561727c576001810390505b617cca565b600c601281111561728e57fe5b85601281111561729a57fe5b141561745257600a60128111156172ad57fe5b8460128111156172b957fe5b14806172db5750600a60128111156172cd57fe5b8360128111156172d957fe5b145b156172e7576001810190505b600260128111156172f457fe5b84601281111561730057fe5b148061732257506002601281111561731457fe5b83601281111561732057fe5b145b1561732e576001810190505b6004601281111561733b57fe5b84601281111561734757fe5b148061736957506004601281111561735b57fe5b83601281111561736757fe5b145b15617378576000915050617cda565b600b601281111561738557fe5b84601281111561739157fe5b14806173b35750600b60128111156173a557fe5b8360128111156173b157fe5b145b156173bf576001810390505b600c60128111156173cc57fe5b8460128111156173d857fe5b14806173fa5750600c60128111156173ec57fe5b8360128111156173f857fe5b145b15617406576001810390505b600f601281111561741357fe5b84601281111561741f57fe5b14806174415750600f601281111561743357fe5b83601281111561743f57fe5b145b1561744d576001810390505b617cc9565b600d601281111561745f57fe5b85601281111561746b57fe5b14156175dc576001601281111561747e57fe5b84601281111561748a57fe5b14806174ac57506001601281111561749e57fe5b8360128111156174aa57fe5b145b156174b8576001810190505b600360128111156174c557fe5b8460128111156174d157fe5b14806174f35750600360128111156174e557fe5b8360128111156174f157fe5b145b156174ff576001810190505b6008601281111561750c57fe5b84601281111561751857fe5b148061753a57506008601281111561752c57fe5b83601281111561753857fe5b145b15617546576001810390505b600d601281111561755357fe5b84601281111561755f57fe5b14806175815750600d601281111561757357fe5b83601281111561757f57fe5b145b1561758d576001810390505b6010601281111561759a57fe5b8460128111156175a657fe5b14806175c85750601060128111156175ba57fe5b8360128111156175c657fe5b145b156175d7576000915050617cda565b617cc8565b600e60128111156175e957fe5b8560128111156175f557fe5b1415617838576002601281111561760857fe5b84601281111561761457fe5b148061763657506002601281111561762857fe5b83601281111561763457fe5b145b15617642576001810190505b6004601281111561764f57fe5b84601281111561765b57fe5b148061767d57506004601281111561766f57fe5b83601281111561767b57fe5b145b15617689576001810190505b600b601281111561769657fe5b8460128111156176a257fe5b14806176c45750600b60128111156176b657fe5b8360128111156176c257fe5b145b156176d0576001810190505b600f60128111156176dd57fe5b8460128111156176e957fe5b148061770b5750600f60128111156176fd57fe5b83601281111561770957fe5b145b15617717576001810190505b6008601281111561772457fe5b84601281111561773057fe5b148061775257506008601281111561774457fe5b83601281111561775057fe5b145b1561775e576001810390505b6009601281111561776b57fe5b84601281111561777757fe5b148061779957506009601281111561778b57fe5b83601281111561779757fe5b145b156177a5576001810390505b600a60128111156177b257fe5b8460128111156177be57fe5b14806177e05750600a60128111156177d257fe5b8360128111156177de57fe5b145b156177ec576001810390505b600e60128111156177f957fe5b84601281111561780557fe5b14806178275750600e601281111561781957fe5b83601281111561782557fe5b145b15617833576001810390505b617cc7565b600f601281111561784557fe5b85601281111561785157fe5b141561793457600f601281111561786457fe5b84601281111561787057fe5b14806178925750600f601281111561788457fe5b83601281111561789057fe5b145b1561789e576001810190505b600860128111156178ab57fe5b8460128111156178b757fe5b14806178d95750600860128111156178cb57fe5b8360128111156178d757fe5b145b156178e5576001810390505b601160128111156178f257fe5b8460128111156178fe57fe5b148061792057506011601281111561791257fe5b83601281111561791e57fe5b145b1561792f576000915050617cda565b617cc6565b6010601281111561794157fe5b85601281111561794d57fe5b1415617abb576007601281111561796057fe5b84601281111561796c57fe5b148061798e57506007601281111561798057fe5b83601281111561798c57fe5b145b1561799a576001810190505b600d60128111156179a757fe5b8460128111156179b357fe5b14806179d55750600d60128111156179c757fe5b8360128111156179d357fe5b145b156179e1576001810190505b600160128111156179ee57fe5b8460128111156179fa57fe5b1480617a1c575060016012811115617a0e57fe5b836012811115617a1a57fe5b145b15617a28576001810390505b60106012811115617a3557fe5b846012811115617a4157fe5b1480617a63575060106012811115617a5557fe5b836012811115617a6157fe5b145b15617a6f576001810390505b60116012811115617a7c57fe5b846012811115617a8857fe5b1480617aaa575060116012811115617a9c57fe5b836012811115617aa857fe5b145b15617ab6576001810390505b617cc5565b60116012811115617ac857fe5b856012811115617ad457fe5b1415617c895760016012811115617ae757fe5b846012811115617af357fe5b1480617b15575060016012811115617b0757fe5b836012811115617b1357fe5b145b15617b21576001810190505b600f6012811115617b2e57fe5b846012811115617b3a57fe5b1480617b5c5750600f6012811115617b4e57fe5b836012811115617b5a57fe5b145b15617b68576001810190505b60106012811115617b7557fe5b846012811115617b8157fe5b1480617ba3575060106012811115617b9557fe5b836012811115617ba157fe5b145b15617baf576001810190505b60036012811115617bbc57fe5b846012811115617bc857fe5b1480617bea575060036012811115617bdc57fe5b836012811115617be857fe5b145b15617bf6576001810390505b60086012811115617c0357fe5b846012811115617c0f57fe5b1480617c31575060086012811115617c2357fe5b836012811115617c2f57fe5b145b15617c3d576001810390505b60096012811115617c4a57fe5b846012811115617c5657fe5b1480617c78575060096012811115617c6a57fe5b836012811115617c7657fe5b145b15617c84576001810390505b617cc4565b6040517f08c379a0000000000000000000000000000000000000000000000000000000008152600401617cbb9061a336565b60405180910390fd5b5b5b5b5b5b5b5b5b5b5b5b5b5b5b5b5b5b809150505b9392505050565b600060066009811115617cf057fe5b826009811115617cfc57fe5b1480617d1d5750600980811115617d0f57fe5b826009811115617d1b57fe5b145b9050919050565b600060096012811115617d3357fe5b826012811115617d3f57fe5b1415617d5c57606460508402811515617d5457fe5b049050617dcc565b60006012811115617d6957fe5b826012811115617d7557fe5b1415617d9257606460328402811515617d8a57fe5b049050617dcc565b60076012811115617d9f57fe5b826012811115617dab57fe5b1415617dc857606460468402811515617dc057fe5b049050617dcc565b8290505b92915050565b6000600f6012811115617de157fe5b826012811115617ded57fe5b1415617e0a57606460828402811515617e0257fe5b049050617e0e565b8290505b92915050565b600082905092915050565b600060056012811115617e2e57fe5b826012811115617e3a57fe5b1415617e5757606460968402811515617e4f57fe5b049050617e5b565b8290505b92915050565b6000600a6012811115617e7057fe5b826012811115617e7c57fe5b1415617e9957606460508402811515617e9157fe5b049050617e9d565b8290505b92915050565b6000600f6012811115617eb257fe5b826012811115617ebe57fe5b1415617edb57606460828402811515617ed357fe5b049050617edf565b8290505b92915050565b600082905092915050565b600060086012811115617eff57fe5b826012811115617f0b57fe5b1415617f2857606460968402811515617f2057fe5b049050617f2c565b8290505b92915050565b6101e060405190810160405280600060ff16815260200160006002811115617f5657fe5b8152602001600015158152602001617f6c618184565b8152602001617f79618184565b81525090565b60c060405190810160405280600067ffffffffffffffff168152602001600073ffffffffffffffffffffffffffffffffffffffff168152602001600073ffffffffffffffffffffffffffffffffffffffff1681526020016000815260200160008152602001600081525090565b6040805190810160405280600290602082028038833980820191505090505090565b60c060405190810160405280600067ffffffffffffffff168152602001600073ffffffffffffffffffffffffffffffffffffffff168152602001600073ffffffffffffffffffffffffffffffffffffffff1681526020016000815260200160008152602001600081525090565b604080519081016040528060008152602001600081525090565b604080519081016040528060008152602001600081525090565b61012060405190810160405280600060ff168152602001600060128111156180d357fe5b8152602001600060128111156180e557fe5b81526020016180f2618184565b81525090565b6107606040519081016040528061810d6181d3565b815260200161811a6181d3565b8152602001600080191681525090565b6103a060405190810160405280600081526020016000151581526020016000151581526020016000815260200161815f61822d565b815260200161816c61827a565b81526020016000600981111561817e57fe5b81525090565b60c060405190810160405280600061ffff168152602001600061ffff168152602001600061ffff168152602001600061ffff168152602001600061ffff168152602001600061ffff1681525090565b6103a060405190810160405280600081526020016000151581526020016000151581526020016000815260200161820861822d565b815260200161821561827a565b81526020016000600981111561822757fe5b81525090565b6101e060405190810160405280600060ff1681526020016000600281111561825157fe5b8152602001600015158152602001618267618184565b8152602001618274618184565b81525090565b61012060405190810160405280600060ff1681526020016000601281111561829e57fe5b8152602001600060128111156182b057fe5b81526020016182bd618184565b81525090565b60006182cf823561a5d1565b905092915050565b60006182e3825161a5d1565b905092915050565b60008190508260206002028201111561830357600080fd5b92915050565b6000618315823561a5e3565b905092915050565b6000618329825161a5e3565b905092915050565b60008083601f840112151561834557600080fd5b8235905067ffffffffffffffff81111561835e57600080fd5b60208301915083600182028301111561837657600080fd5b9250929050565b600082601f830112151561839057600080fd5b81356183a361839e8261a4b0565b61a483565b915080825260208301602083018583830111156183bf57600080fd5b6183ca83828461a683565b50505092915050565b60006183df825161a5ef565b905092915050565b60006183f3825161a608565b905092915050565b6000618407825161a621565b905092915050565b6000610120828403121561842257600080fd5b61842c608061a483565b9050600061843c848285016185e6565b6000830152506020618450848285016183fb565b6020830152506040618464848285016183fb565b60408301525060606184788482850161850e565b60608301525092915050565b60006101e0828403121561849757600080fd5b6184a160a061a483565b905060006184b1848285016185e6565b60008301525060206184c5848285016183d3565b60208301525060406184d98482850161831d565b60408301525060606184ed8482850161850e565b6060830152506101206185028482850161850e565b60808301525092915050565b600060c0828403121561852057600080fd5b61852a60c061a483565b9050600061853a848285016185aa565b600083015250602061854e848285016185aa565b6020830152506040618562848285016185aa565b6040830152506060618576848285016185aa565b606083015250608061858a848285016185aa565b60808301525060a061859e848285016185aa565b60a08301525092915050565b60006185b6825161a63a565b905092915050565b60006185ca823561a648565b905092915050565b60006185de825161a648565b905092915050565b60006185f2825161a652565b905092915050565b60006020828403121561860c57600080fd5b600061861a848285016182c3565b91505092915050565b6000806040838503121561863657600080fd5b6000618644858286016182c3565b925050602061865585828601618309565b9150509250929050565b60006020828403121561867157600080fd5b600061867f8482850161831d565b91505092915050565b6000806000806000608086880312156186a057600080fd5b600086013567ffffffffffffffff8111156186ba57600080fd5b6186c688828901618331565b955095505060206186d9888289016182eb565b935050606086013567ffffffffffffffff8111156186f657600080fd5b61870288828901618331565b92509250509295509295909350565b6000806040838503121561872457600080fd5b600083013567ffffffffffffffff81111561873e57600080fd5b61874a8582860161837d565b925050602083013567ffffffffffffffff81111561876757600080fd5b6187738582860161837d565b9150509250929050565b6000806040838503121561879057600080fd5b600083013567ffffffffffffffff8111156187aa57600080fd5b6187b68582860161837d565b92505060206187c7858286016185be565b9150509250929050565b600080600080608085870312156187e757600080fd5b600085013567ffffffffffffffff81111561880157600080fd5b61880d8782880161837d565b945050602061881e878288016185be565b935050604061882f878288016182c3565b9250506060618840878288016182c3565b91505092959194509250565b60008060006060848603121561886157600080fd5b600084013567ffffffffffffffff81111561887b57600080fd5b6188878682870161837d565b9350506020618898868287016185be565b925050604084013567ffffffffffffffff8111156188b557600080fd5b6188c18682870161837d565b9150509250925092565b600061012082840312156188de57600080fd5b60006188ec8482850161840f565b91505092915050565b60006101e0828403121561890857600080fd5b600061891684828501618484565b91505092915050565b60006020828403121561893157600080fd5b600061893f848285016185be565b91505092915050565b6000806000806080858703121561895e57600080fd5b600061896c878288016185be565b945050602085013567ffffffffffffffff81111561898957600080fd5b6189958782880161837d565b93505060406189a6878288016182c3565b92505060606189b7878288016182c3565b91505092959194509250565b600080600080600060a086880312156189db57600080fd5b60006189e9888289016185d2565b95505060206189fa888289016185d2565b9450506040618a0b888289016182d7565b9350506060618a1c888289016183e7565b9250506080618a2d888289016182d7565b9150509295509295909350565b618a438161a52e565b82525050565b6000618a548261a4f3565b808452602084019350618a668361a4dc565b60005b82811015618a9857618a7c868351619a63565b618a858261a514565b915060c086019550600181019050618a69565b50849250505092915050565b618aad8161a4fe565b618ab68261a4e9565b60005b82811015618ae857618acc858351619bd2565b618ad58261a521565b9150602085019450600181019050618ab9565b5050505050565b618af88161a540565b82525050565b6000618b098261a509565b808452618b1d81602086016020860161a692565b618b268161a6c5565b602085010191505092915050565b618b3d8161a65f565b82525050565b618b4c8161a671565b82525050565b6000602882527f506c61796572207374617475733220616674657220626174746c65206973206960208301527f6e636f72726563740000000000000000000000000000000000000000000000006040830152606082019050919050565b6000601d82527f496e76616c6964206669727374207475726e20524c50206c656e6774680000006020830152604082019050919050565b6000601f82527f4f70706f6e656e742053746174757332206d75737420737461792073616d65006020830152604082019050919050565b6000601b82527f486173684465636973696f6e206d75737420737461792073616d6500000000006020830152604082019050919050565b6000601d82527f496e76616c6964207374617274207475726e20524c50206c656e6774680000006020830152604082019050919050565b6000601882527f506c6179657273206465636973696f6e20696e76616c696400000000000000006020830152604082019050919050565b6000601f82527f48617368206465636973696f6e206d75737420737461792064652073616d65006020830152604082019050919050565b6000601a82527f506c617965722053616c74206d75737420737461792073616d650000000000006020830152604082019050919050565b6000602a82527f41747461636b696e67206d6f76652073686f756c6420626520616e206174746160208301527f636b696e67206d6f7665000000000000000000000000000000000000000000006040830152606082019050919050565b6000601882527f506c6179657220485020646f6573206e6f74206d6174636800000000000000006020830152604082019050919050565b6000602082527f4f70706f6e656e7420537461747573322073686f756c642062652066616c73656020830152604082019050919050565b6000601a82527f506c61796572206d7573742070726f7669646520612073616c740000000000006020830152604082019050919050565b6000601882527f496e76616c696420524c50207374617274206c656e67746800000000000000006020830152604082019050919050565b6000601982527f4f70706f6e656e74206465636973696f6e20696e76616c6964000000000000006020830152604082019050919050565b6000601f82527f4f70706f6e656e742063686172676573206d75737420737461792073616d65006020830152604082019050919050565b6000603282527f426f746820706c617965727320617420302c207468657265206973206e6f207360208301527f696d756c74616e656f75732064616d61676500000000000000000000000000006040830152606082019050919050565b6000601b82527f496e76616c6964206f6464207475726e20524c50206c656e67746800000000006020830152604082019050919050565b6000601b82527f43616e742075736520537461747573207768696c652046726f7a6500000000006020830152604082019050919050565b6000601d82527f506c617965722053746174757331206d75737420737461792073616d650000006020830152604082019050919050565b6000602a82527f4576656e74732063616e206f6e6c79206265207472696767657265642062792060208301527f76616c696461746f7273000000000000000000000000000000000000000000006040830152606082019050919050565b6000601482527f524c50204974656d206973206e6f74206c6973740000000000000000000000006020830152604082019050919050565b6000601e82527f496e76616c696420656e64696e67207475726e20524c50206c656e67746800006020830152604082019050919050565b6000601b82527f496e76616c696420657869744461746120524c50204c656e67746800000000006020830152604082019050919050565b6000601e82527f506c61796572204465636973696f6e206d75737420737461792073616d6500006020830152604082019050919050565b6000602882527f506c61796572207265636861726765206e6f7420706f737369626c652077686560208301527f6e206f76657220330000000000000000000000000000000000000000000000006040830152606082019050919050565b6000601a82527f4f70706f6e656e74204850206d75737420737461792073616d650000000000006020830152604082019050919050565b6000601f82527f506c617965722043727970746f6d6f6e206d75737420737461792073616d65006020830152604082019050919050565b6000602982527f506c61796572206d75737420686176652063686172676520746f206d616b652060208301527f74686174206d6f766500000000000000000000000000000000000000000000006040830152606082019050919050565b6000602382527f506c6179657220485020616674657220626174746c6520697320696e636f727260208301527f65637400000000000000000000000000000000000000000000000000000000006040830152606082019050919050565b6000602082527f4f70706f6e656e7420537461747573312073686f756c642062652066616c73656020830152604082019050919050565b6000601e82527f506c617965722063686172676573206d75737420626520696e697469616c00006020830152604082019050919050565b6000602582527f506c61796572206e6565647320612063686172676520746f20646f207468697360208301527f206d6f76650000000000000000000000000000000000000000000000000000006040830152606082019050919050565b6000602782527f524c502055696e74206d757374206265206265747765656e203120616e64203360208301527f33206279746573000000000000000000000000000000000000000000000000006040830152606082019050919050565b6000603a82527f436f756c64206e6f742064657465726d696e65207472616e73616374696f6e2060208301527f7479706520746f20726574726965766520746865206f776e65720000000000006040830152606082019050919050565b6000602a82527f506c6179657220646f6573206e6f74206d617463682065786974696e6754784260208301527f79746573206f776e6572000000000000000000000000000000000000000000006040830152606082019050919050565b6000602982527f4f70706f6e656e74206d7573742070726f766964652061206861736820666f7260208301527f206465636973696f6e00000000000000000000000000000000000000000000006040830152606082019050919050565b6000601e82527f506c6179657220537461747573312073686f756c642062652066616c736500006020830152604082019050919050565b6000601f82527f4f70706f6e656e742053746174757331206d75737420737461792073616d65006020830152604082019050919050565b6000601882527f506c61796572204850206d75737420737461792073616d6500000000000000006020830152604082019050919050565b6000601d82527f506c617965722053746174757332206d75737420737461792073616d650000006020830152604082019050919050565b6000602c82527f506c617965722061747461636b2063616e7420626520646f6e6520776974682060208301527f556e6b6e6f776e207479706500000000000000000000000000000000000000006040830152606082019050919050565b6000601e82527f506c6179657220537461747573322073686f756c642062652066616c736500006020830152604082019050919050565b6000601c82527f524c502061646472657373206d757374206265203231206279746573000000006020830152604082019050919050565b6000602882527f506c61796572207374617475733120616674657220626174746c65206973206960208301527f6e636f72726563740000000000000000000000000000000000000000000000006040830152606082019050919050565b6000602882527f506c61796572206368617267657320616674657220626174746c65206973206960208301527f6e636f72726563740000000000000000000000000000000000000000000000006040830152606082019050919050565b6000601d82527f506c617965722063686172676573206d75737420737461792073616d650000006020830152604082019050919050565b6000602182527f4f70706f6e656e742043727970746f6d6f6e206d75737420737461792073616d60208301527f65000000000000000000000000000000000000000000000000000000000000006040830152606082019050919050565b6000602582527f4f70706f6e656e74206465636973696f6e20646f6573206e6f74206d6174636860208301527f20686173680000000000000000000000000000000000000000000000000000006040830152606082019050919050565b6000601d82527f524c50206279746573206d757374206265206d6f7265207468616e20300000006020830152604082019050919050565b6000601c82527f496e76616c6964206576656e207475726e20524c50206c656e677468000000006020830152604082019050919050565b6000600c82527f556e6b6e6f776e207479706500000000000000000000000000000000000000006020830152604082019050919050565b6000602082527f4f70706f6e656e742063686172676573206d75737420626520696e697469616c6020830152604082019050919050565b6000601a82527f4f70706f6e656e7420485020646f6573206e6f74206d617463680000000000006020830152604082019050919050565b6000602782527f496e76616c696420506c61736d6149442c2069742073686f756c64206265206160208301527f2075696e743634000000000000000000000000000000000000000000000000006040830152606082019050919050565b6000601a82527f524c5020426f6f6c65616e206d757374206265203120627974650000000000006020830152604082019050919050565b6000601882527f496e76616c696420506c617965722043727970746f6d6f6e00000000000000006020830152604082019050919050565b6000602382527f53656e64657220646f6573206e6f74206d61746368206465706f736974206f7760208301527f6e657200000000000000000000000000000000000000000000000000000000006040830152606082019050919050565b60c082016000820151619a796000850182619be1565b506020820151619a8c6020850182618a3a565b506040820151619a9f6040850182618a3a565b506060820151619ab26060850182619bd2565b506080820151619ac56080850182619bd2565b5060a0820151619ad860a0850182619bd2565b50505050565b6101e082016000820151619af56000850182619bf0565b506020820151619b086020850182618b34565b506040820151619b1b6040850182618aef565b506060820151619b2e6060850182619b48565b506080820151619b42610120850182619b48565b50505050565b60c082016000820151619b5e6000850182619bc3565b506020820151619b716020850182619bc3565b506040820151619b846040850182619bc3565b506060820151619b976060850182619bc3565b506080820151619baa6080850182619bc3565b5060a0820151619bbd60a0850182619bc3565b50505050565b619bcc8161a578565b82525050565b619bdb8161a5a6565b82525050565b619bea8161a5b0565b82525050565b619bf98161a5c4565b82525050565b6000602082019050619c146000830184618a3a565b92915050565b60006020820190508181036000830152619c348184618a49565b905092915050565b6000602082019050619c516000830184618aef565b92915050565b600060e0820190508181036000830152619c718189618afe565b90508181036020830152619c858188618afe565b90508181036040830152619c998187618afe565b90508181036060830152619cad8186618afe565b90508181036080830152619cc18185618afe565b9050619cd060a0830184618aa4565b979650505050505050565b6000602082019050619cf06000830184618b43565b92915050565b60006020820190508181036000830152619d0f81618b52565b9050919050565b60006020820190508181036000830152619d2f81618baf565b9050919050565b60006020820190508181036000830152619d4f81618be6565b9050919050565b60006020820190508181036000830152619d6f81618c1d565b9050919050565b60006020820190508181036000830152619d8f81618c54565b9050919050565b60006020820190508181036000830152619daf81618c8b565b9050919050565b60006020820190508181036000830152619dcf81618cc2565b9050919050565b60006020820190508181036000830152619def81618cf9565b9050919050565b60006020820190508181036000830152619e0f81618d30565b9050919050565b60006020820190508181036000830152619e2f81618d8d565b9050919050565b60006020820190508181036000830152619e4f81618dc4565b9050919050565b60006020820190508181036000830152619e6f81618dfb565b9050919050565b60006020820190508181036000830152619e8f81618e32565b9050919050565b60006020820190508181036000830152619eaf81618e69565b9050919050565b60006020820190508181036000830152619ecf81618ea0565b9050919050565b60006020820190508181036000830152619eef81618ed7565b9050919050565b60006020820190508181036000830152619f0f81618f34565b9050919050565b60006020820190508181036000830152619f2f81618f6b565b9050919050565b60006020820190508181036000830152619f4f81618fa2565b9050919050565b60006020820190508181036000830152619f6f81618fd9565b9050919050565b60006020820190508181036000830152619f8f81619036565b9050919050565b60006020820190508181036000830152619faf8161906d565b9050919050565b60006020820190508181036000830152619fcf816190a4565b9050919050565b60006020820190508181036000830152619fef816190db565b9050919050565b6000602082019050818103600083015261a00f81619112565b9050919050565b6000602082019050818103600083015261a02f8161916f565b9050919050565b6000602082019050818103600083015261a04f816191a6565b9050919050565b6000602082019050818103600083015261a06f816191dd565b9050919050565b6000602082019050818103600083015261a08f8161923a565b9050919050565b6000602082019050818103600083015261a0af81619297565b9050919050565b6000602082019050818103600083015261a0cf816192ce565b9050919050565b6000602082019050818103600083015261a0ef81619305565b9050919050565b6000602082019050818103600083015261a10f81619362565b9050919050565b6000602082019050818103600083015261a12f816193bf565b9050919050565b6000602082019050818103600083015261a14f8161941c565b9050919050565b6000602082019050818103600083015261a16f81619479565b9050919050565b6000602082019050818103600083015261a18f816194d6565b9050919050565b6000602082019050818103600083015261a1af8161950d565b9050919050565b6000602082019050818103600083015261a1cf81619544565b9050919050565b6000602082019050818103600083015261a1ef8161957b565b9050919050565b6000602082019050818103600083015261a20f816195b2565b9050919050565b6000602082019050818103600083015261a22f8161960f565b9050919050565b6000602082019050818103600083015261a24f81619646565b9050919050565b6000602082019050818103600083015261a26f8161967d565b9050919050565b6000602082019050818103600083015261a28f816196da565b9050919050565b6000602082019050818103600083015261a2af81619737565b9050919050565b6000602082019050818103600083015261a2cf8161976e565b9050919050565b6000602082019050818103600083015261a2ef816197cb565b9050919050565b6000602082019050818103600083015261a30f81619828565b9050919050565b6000602082019050818103600083015261a32f8161985f565b9050919050565b6000602082019050818103600083015261a34f81619896565b9050919050565b6000602082019050818103600083015261a36f816198cd565b9050919050565b6000602082019050818103600083015261a38f81619904565b9050919050565b6000602082019050818103600083015261a3af8161993b565b9050919050565b6000602082019050818103600083015261a3cf81619998565b9050919050565b6000602082019050818103600083015261a3ef816199cf565b9050919050565b6000602082019050818103600083015261a40f81619a06565b9050919050565b60006101e08201905061a42c6000830184619ade565b92915050565b600060208201905061a4476000830184619bd2565b92915050565b600060208201905061a4626000830184619be1565b92915050565b600060208201905061a47d6000830184619bf0565b92915050565b6000604051905081810181811067ffffffffffffffff8211171561a4a657600080fd5b8060405250919050565b600067ffffffffffffffff82111561a4c757600080fd5b601f19601f8301169050602081019050919050565b6000602082019050919050565b6000819050919050565b600081519050919050565b600060029050919050565b600081519050919050565b6000602082019050919050565b6000602082019050919050565b600061a5398261a586565b9050919050565b60008115159050919050565b600060038210151561a55a57fe5b819050919050565b6000600a8210151561a57057fe5b819050919050565b600061ffff82169050919050565b600073ffffffffffffffffffffffffffffffffffffffff82169050919050565b6000819050919050565b600067ffffffffffffffff82169050919050565b600060ff82169050919050565b600061a5dc8261a586565b9050919050565b60008115159050919050565b600060038210151561a60057600080fd5b819050919050565b600060038210151561a61957600080fd5b819050919050565b600060138210151561a63257600080fd5b819050919050565b600061ffff82169050919050565b6000819050919050565b600060ff82169050919050565b600061a66a8261a54c565b9050919050565b600061a67c8261a562565b9050919050565b82818337600083830152505050565b60005b8381101561a6b057808201518184015260208101905061a695565b8381111561a6bf576000848401525b50505050565b6000601f19601f830116905091905056fea265627a7a723058209e1427e253decf3e572af248b4debb902cf557897197720be759cb1c2eab6c296c6578706572696d656e74616cf50037",
  "source": "pragma solidity ^0.5.2;\npragma experimental ABIEncoderV2;\n\nimport \"./PlasmaTurnGame.sol\";\nimport \"../Core/RootChain.sol\";\nimport \"../Core/CryptoMons.sol\";\nimport \"../Libraries/Pokedex.sol\";\nimport \"./BattleDamageCalculator.sol\";\nimport \"openzeppelin-solidity/contracts/ownership/Ownable.sol\";\nimport \"./PlasmaChannelManager.sol\";\n\ncontract CryptoMonBattles is PlasmaTurnGame, Ownable {\n\n    using BattleDamageCalculator for BattleDamageCalculator.BattleState;\n    using RLPReader for bytes;\n    using Transaction for bytes;\n    using RLPReader for RLPReader.RLPItem;\n    //Signed Player -> Signed OP        -> Signed Player\n\n    //initialState  + //State 1    + //State even   + //State odd  +  //State ending (odd)\n\n    //CryptoMonPL   | CryptoMonPL   | CryptoMonPL   | 0 CryptoMonPL        | CryptoMonPL\n    //HPPL          | HPPL          | HPPL          | 1 HPPL               | HPPL\n    //Status1PL     | Status1PL     | Status1PL     | 2 Status1PL          | Status1PL\n    //Status2PL     | Status2PL     | Status2PL     | 3 Status2PL          | Status2PL\n    //ChargePL      | ChargePL      | ChargePL      | 4 ChargePL           | ChargePL\n    //CryptoMonOP   | CryptoMonOP   | CryptoMonOP   | 5 CryptoMonOP        | CryptoMonOP\n    //HPOP          | HPOP          | HPOP          | 6 HPOP               | HPOP\n    //Status1OP     | Status1OP     | Status1OP     | 7 Status1OP          | Status1OP\n    //Status2OP     | Status2OP     | Status2OP     | 8 Status2OP          | Status2OP\n    //ChargeOP      | ChargeOP      | ChargeOP      | 9  ChargeOP          | ChargeOP\n    //              | HashDecision  | HashDecision  | 10 HashDecision      | HashDecision\n    //              |               | DecisionPL    | 11 DecisionPL        | DecisionPL\n    //              |               | SaltPL        | 12 SaltPL            | SaltPL\n    //              |               |               | 13 DecisionOp        | DecisionOp\n    //              |               |               | 14 SaltOP            | SaltOP\n    //              |               |               | 15 nextHashDecision  |\n\n    enum Battle {\n        CryptoMonPL,\n        HPPL,\n        Status1PL,\n        Status2PL,\n        ChargePL,\n        CryptoMonOP,\n        HPOP,\n        Status1OP,\n        Status2OP,\n        ChargeOP,\n        HashDecision,\n        DecisionPL,\n        SaltPL,\n        DecisionOP,\n        SaltOP,\n        NextHashDecision\n    }\n\n    enum RLPExitData {\n        PlayerIndex,\n        Slot,\n        PrevBlockNumber,\n        BlockNumber,\n        PrevTxBytes,\n        ExitingTxBytes,\n        PrevTxInclusionProof,\n        ExitingTxInclusionProof,\n        Signature\n    }\n\n    RootChain rootChain;\n    CryptoMons cryptomons;\n\n    uint constant INITIAL_CHARGES = 1;\n\n    constructor(RootChain _rootChain, CryptoMons _cryptomons) public {\n        rootChain = _rootChain;\n        cryptomons = _cryptomons;\n    }\n\n    function validateStartState(\n        bytes calldata state,\n        address[2] calldata players,\n        bytes calldata exitData\n    ) external view returns (RootChain.Exit[] memory) {\n\n        RLPReader.RLPItem[] memory start = state.toRlpItem().toList();\n        require(start.length == uint(Battle.ChargeOP) + 1, \"Invalid RLP start length\");\n\n        //Player\n        Pokedex.Pokemon memory cryptoMonPL = getCryptoMon(start[uint(Battle.CryptoMonPL)].toUint());\n        require(cryptoMonPL.id > 0                                        , \"Invalid Player Cryptomon\");\n        require(start[uint(Battle.HPPL)].toUint() == cryptoMonPL.stats.hp , \"Player HP does not match\");\n        require(start[uint(Battle.Status1PL)].toBoolean() == false        , \"Player Status1 should be false\");\n        require(start[uint(Battle.Status2PL)].toBoolean() == false        , \"Player Status2 should be false\");\n        require(start[uint(Battle.ChargePL)].toUint() == INITIAL_CHARGES  , \"Player charges must be initial\");\n\n        //Opponent\n        Pokedex.Pokemon memory cryptoMonOP = getCryptoMon(start[uint(Battle.CryptoMonOP)].toUint());\n        require(cryptoMonOP.id > 0                                        , \"Invalid Player Cryptomon\");\n        require(start[uint(Battle.HPOP)].toUint() == cryptoMonOP.stats.hp , \"Opponent HP does not match\");\n        require(start[uint(Battle.Status1OP)].toBoolean() == false        , \"Opponent Status1 should be false\");\n        require(start[uint(Battle.Status2OP)].toBoolean() == false        , \"Opponent Status2 should be false\");\n        require(start[uint(Battle.ChargeOP)].toUint() == INITIAL_CHARGES  , \"Opponent charges must be initial\");\n\n        RLPReader.RLPItem[] memory rlpExit = exitData.toRlpItem().toList();\n\n        address supposedOwner;\n        uint64 token;\n        if(rlpExit[0].toUint() == 0) {\n            supposedOwner = players[0];\n            token = uint64(start[uint(Battle.CryptoMonPL)].toUint());\n        } else {\n            supposedOwner = players[1];\n            token = uint64(start[uint(Battle.CryptoMonOP)].toUint());\n        }\n\n        RootChain.Exit memory exit;\n        if (rlpExit.length == 1) {\n            (,uint256 depositBlock, address owner, , ) = rootChain.getPlasmaCoin(token);\n            require(owner == supposedOwner, \"Sender does not match deposit owner\");\n            exit = RootChain.Exit({\n                slot: token,\n                prevOwner: address(0),\n                owner: owner,\n                createdAt: block.timestamp,\n                prevBlock: 0,\n                exitBlock: depositBlock\n            });\n        } else {\n            uint[2] memory blocks;\n            blocks[0] = rlpExit[uint(RLPExitData.PrevBlockNumber)].toUint();\n            blocks[1] = rlpExit[uint(RLPExitData.BlockNumber)].toUint();\n\n            require(rlpExit.length == uint(RLPExitData.Signature) + 1, \"Invalid exitData RLP Length\");\n            require(supposedOwner == rlpExit[uint(RLPExitData.ExitingTxBytes)].toBytes().getOwner(),\n                \"Player does not match exitingTxBytes owner\");\n\n            rootChain.doInclusionChecks(\n                rlpExit[uint(RLPExitData.PrevTxBytes)].toBytes(),\n                rlpExit[uint(RLPExitData.ExitingTxBytes)].toBytes(),\n                rlpExit[uint(RLPExitData.PrevTxInclusionProof)].toBytes(),\n                rlpExit[uint(RLPExitData.ExitingTxInclusionProof)].toBytes(),\n                rlpExit[uint(RLPExitData.Signature)].toBytes(),\n                blocks\n            );\n\n            exit = RootChain.Exit({\n                slot: token,\n                prevOwner: rlpExit[uint(RLPExitData.PrevTxBytes)].toBytes().getOwner(),\n                owner: supposedOwner,\n                createdAt: block.timestamp,\n                prevBlock: blocks[0],\n                exitBlock: blocks[1]\n            });\n        }\n\n        RootChain.Exit[] memory result = new RootChain.Exit[](1);\n        result[0] = exit;\n        return result;\n    }\n\n    function validateTurnTransition(bytes memory oldState, uint turnNum, bytes memory newState) public view {\n        if(turnNum == 0) {\n            validateInitialTransition(oldState, newState);\n        } else if(turnNum%2 == 0) {\n            validateEvenToOdd(oldState, newState, isOver(newState, turnNum));\n        } else {\n            validateOddToEven(oldState, newState, turnNum == 1);\n        }\n    }\n\n    function validateTransitionKeepBasics(RLPReader.RLPItem[] memory first, RLPReader.RLPItem[] memory second) private pure {\n        //Player\n        require(first[uint(Battle.CryptoMonPL)].toUint() == second[uint(Battle.CryptoMonPL)].toUint() ,\"Player Cryptomon must stay same\");\n        require(first[uint(Battle.HPPL)].toUint()        == second[uint(Battle.HPPL)].toUint()        ,\"Player HP must stay same\");\n        require(first[uint(Battle.Status1PL)].toBoolean()== second[uint(Battle.Status1PL)].toBoolean(),\"Player Status1 must stay same\");\n        require(first[uint(Battle.Status2PL)].toBoolean()== second[uint(Battle.Status2PL)].toBoolean(),\"Player Status2 must stay same\");\n        require(first[uint(Battle.ChargePL)].toUint()    == second[uint(Battle.ChargePL)].toUint()    ,\"Player charges must stay same\");\n        //Opponent\n        require(first[uint(Battle.CryptoMonOP)].toUint() == second[uint(Battle.CryptoMonOP)].toUint() ,\"Opponent Cryptomon must stay same\");\n        require(first[uint(Battle.HPOP)].toUint()        == second[uint(Battle.HPOP)].toUint()        ,\"Opponent HP must stay same\");\n        require(first[uint(Battle.Status1OP)].toBoolean()== second[uint(Battle.Status1OP)].toBoolean(),\"Opponent Status1 must stay same\");\n        require(first[uint(Battle.Status2OP)].toBoolean()== second[uint(Battle.Status2OP)].toBoolean(),\"Opponent Status2 must stay same\");\n        require(first[uint(Battle.ChargeOP)].toUint()    == second[uint(Battle.ChargeOP)].toUint()    ,\"Opponent charges must stay same\");\n    }\n\n    function validateInitialTransition(bytes memory startState, bytes memory firstTurn) public pure {\n        RLPReader.RLPItem[] memory start = startState.toRlpItem().toList();\n        RLPReader.RLPItem[] memory first = firstTurn.toRlpItem().toList();\n\n        require(start.length == uint(Battle.ChargeOP) + 1    , \"Invalid start turn RLP length\");\n        require(first.length == uint(Battle.HashDecision) + 1, \"Invalid first turn RLP length\");\n        validateTransitionKeepBasics(start, first);\n        require(first[uint(Battle.HashDecision)].toUint() != 0, \"Opponent must provide a hash for decision\");\n    }\n\n    function validateEvenToOdd(bytes memory evenTurn, bytes memory oddTurn, bool isFinal) private view {\n        RLPReader.RLPItem[] memory even = evenTurn.toRlpItem().toList();\n        RLPReader.RLPItem[] memory odd  = oddTurn.toRlpItem().toList();\n\n        if(isFinal) {\n            require(odd.length == uint(Battle.SaltOP) + 1, \"Invalid ending turn RLP length\");\n        } else {\n            require(odd.length == uint(Battle.NextHashDecision) + 1, \"Invalid ending turn RLP length\");\n            require(odd[uint(Battle.NextHashDecision)].toUint() != 0, \"Opponent must provide a hash for decision\");\n        }\n\n        require(even[uint(Battle.CryptoMonPL)].toUint() == odd[uint(Battle.CryptoMonPL)].toUint()  , \"Player Cryptomon must stay same\");\n        require(even[uint(Battle.CryptoMonOP)].toUint() == odd[uint(Battle.CryptoMonOP)].toUint()  , \"Opponent Cryptomon must stay same\");\n        require(even[uint(Battle.HashDecision)].toUint()== odd[uint(Battle.HashDecision)].toUint() , \"HashDecision must stay same\");\n        require(even[uint(Battle.DecisionPL  )].toUint()== odd[uint(Battle.DecisionPL   )].toUint(), \"Player Decision must stay same\");\n        require(even[uint(Battle.SaltPL      )].toUint()== odd[uint(Battle.SaltPL      )].toUint() , \"Player Salt must stay same\");\n\n        require(odd[uint(Battle.DecisionPL)].toUint() <= uint(BattleDamageCalculator.Moves.STATUS2), \"Players decision invalid\");\n        require(odd[uint(Battle.DecisionOP)].toUint() <= uint(BattleDamageCalculator.Moves.STATUS2), \"Opponent decision invalid\");\n\n        require(bytes32(even[uint(Battle.HashDecision)].toUint()) ==\n            keccak256(abi.encodePacked(odd[uint(Battle.DecisionOP)].toUint(), odd[uint(Battle.SaltOP)].toUint())),\n                        \"Opponent decision does not match hash\");\n\n        Pokedex.Pokemon memory cryptoMonPL = getCryptoMon(even[uint(Battle.CryptoMonPL)].toUint());\n        Pokedex.PokemonData memory cryptoMonPLData = cryptomons.getPokemonData(cryptoMonPL.id);\n\n        Pokedex.Pokemon memory cryptoMonOP = getCryptoMon(even[uint(Battle.CryptoMonOP)].toUint());\n        Pokedex.PokemonData memory cryptoMonOPData = cryptomons.getPokemonData(cryptoMonOP.id);\n\n        BattleDamageCalculator.BattleState memory state = BattleDamageCalculator.BattleState(\n            BattleDamageCalculator.CryptoMonState(\n                even[uint(Battle.HPPL)].toUint(),\n                even[uint(Battle.Status1PL)].toBoolean(),\n                even[uint(Battle.Status2PL)].toBoolean(),\n                even[uint(Battle.ChargePL)].toUint(),\n                cryptoMonPL,\n                cryptoMonPLData,\n                BattleDamageCalculator.Moves(odd[uint(Battle.DecisionPL)].toUint())\n            ),\n            BattleDamageCalculator.CryptoMonState(\n                even[uint(Battle.HPOP)].toUint(),\n                even[uint(Battle.Status1OP)].toBoolean(),\n                even[uint(Battle.Status2OP)].toBoolean(),\n                even[uint(Battle.ChargeOP)].toUint(),\n                cryptoMonOP,\n                cryptoMonOPData,\n                BattleDamageCalculator.Moves(odd[uint(Battle.DecisionOP)].toUint())\n            ),\n            keccak256(abi.encodePacked(odd[uint(Battle.SaltPL)].toUint(), odd[uint(Battle.SaltOP)].toUint()))\n        );\n\n        state = state.calculateBattle();\n\n        require(state.player.hp      == odd[uint(Battle.HPPL )].toUint()        , \"Player HP after battle is incorrect\");\n        require(state.player.charges == odd[uint(Battle.ChargePL )].toUint()    , \"Player charges after battle is incorrect\");\n        require(state.player.status1 == odd[uint(Battle.Status1PL )].toBoolean(), \"Player status1 after battle is incorrect\");\n        require(state.player.status2 == odd[uint(Battle.Status2PL )].toBoolean(), \"Player status2 after battle is incorrect\");\n\n        require(state.opponent.hp      == odd[uint(Battle.HPOP )].toUint()        , \"Player HP after battle is incorrect\");\n        require(state.opponent.charges == odd[uint(Battle.ChargeOP )].toUint()    , \"Player charges after battle is incorrect\");\n        require(state.opponent.status1 == odd[uint(Battle.Status1OP )].toBoolean(), \"Player status1 after battle is incorrect\");\n        require(state.opponent.status2 == odd[uint(Battle.Status2OP )].toBoolean(), \"Player status2 after battle is incorrect\");\n    }\n\n    function validateOddToEven(bytes memory oddTurn, bytes memory evenTurn, bool isFirst) private view {\n        RLPReader.RLPItem[] memory odd = oddTurn.toRlpItem().toList();\n        RLPReader.RLPItem[] memory even = evenTurn.toRlpItem().toList();\n\n        bytes32 oddNewHashDec;\n        if(isFirst) {\n            require(odd.length == uint(Battle.HashDecision) + 1, \"Invalid odd turn RLP length\");\n            oddNewHashDec = bytes32(odd[uint(Battle.HashDecision)].toUint());\n        } else {\n            require(odd.length == uint(Battle.NextHashDecision) + 1, \"Invalid odd turn RLP length\");\n            oddNewHashDec = bytes32(odd[uint(Battle.NextHashDecision)].toUint());\n        }\n\n        require(even.length == uint(Battle.SaltPL) + 1, \"Invalid even turn RLP length\");\n\n        validateTransitionKeepBasics(odd, even);\n\n        require(oddNewHashDec == bytes32(even[uint(Battle.HashDecision)].toUint()) , \"Hash decision must stay de same\");\n\n        uint playerDecision = even[uint(Battle.DecisionPL)].toUint();\n        require(playerDecision <= uint(BattleDamageCalculator.Moves.STATUS2), \"Players decision invalid\");\n\n        if(BattleDamageCalculator.needsCharge(BattleDamageCalculator.Moves(playerDecision))) {\n            require(even[uint(Battle.ChargePL)].toUint() > 0, \"Player must have charge to make that move\");\n        }\n\n        Pokedex.Pokemon memory cryptoMonPL = getCryptoMon(even[uint(Battle.CryptoMonPL)].toUint());\n        Pokedex.PokemonData memory cryptoMonPLData = cryptomons.getPokemonData(cryptoMonPL.id);\n\n        if(BattleDamageCalculator.usesFirstType(BattleDamageCalculator.Moves(playerDecision))) {\n            require(cryptoMonPLData.type1 != Pokedex.Type.Unknown, \"Player attack cant be done with Unknown type\");\n        }\n\n        if(BattleDamageCalculator.usesSecondType(BattleDamageCalculator.Moves(playerDecision))) {\n            require(cryptoMonPLData.type2 != Pokedex.Type.Unknown, \"Player attack cant be done with Unknown type\");\n        }\n\n        require(even[uint(Battle.SaltPL)].toUint() != 0, \"Player must provide a salt\");\n    }\n\n    function winner(bytes memory state, uint turnNum, address player, address opponent) public pure returns (address) {\n        if(isOver(state, turnNum)) {\n            RLPReader.RLPItem[] memory ending = state.toRlpItem().toList();\n            uint HPPL = ending[uint(Battle.HPPL)].toUint();\n            uint HPOP = ending[uint(Battle.HPOP)].toUint();\n\n            if(HPPL > HPOP) {\n                return player;\n            } else if(HPOP > HPPL) {\n                return opponent;\n            } else {\n                revert(\"Both players at 0, there is no simultaneous damage\");\n            }\n        } else {\n            return address(0);\n        }\n    }\n\n    function isOver(bytes memory state, uint /*turnNum*/) public pure returns (bool) {\n        RLPReader.RLPItem[] memory ending = state.toRlpItem().toList();\n        uint HPPL = ending[uint(Battle.HPPL)].toUint();\n        uint HPOP = ending[uint(Battle.HPOP)].toUint();\n        return HPPL == 0 || HPOP == 0;\n    }\n\n    function mover(bytes memory /*state*/, uint turnNum, address player, address opponent) public pure returns (address) {\n        return turnNum%2 == 0 ? player: opponent;\n    }\n\n    function getCryptoMon(uint plasmaID) public view returns (Pokedex.Pokemon memory) {\n        if(plasmaID >= 2**64) revert(\"Invalid PlasmaID, it should be a uint64\");\n        (uint256 cryptoMonId, , , , ) = rootChain.getPlasmaCoin(uint64(plasmaID));\n        return cryptomons.getCryptomon(cryptoMonId);\n    }\n\n    event CryptoMonBattleRequested(uint indexed gameId, address indexed player, uint indexed CryptoMon);\n    event CryptoMonBattleStarted(uint indexed gameId, address indexed player, uint indexed CryptoMon);\n\n    function eventRequestState(uint gameId, bytes memory state, address player, address opponent) public isApproved(msg.sender) {\n        RLPReader.RLPItem[] memory decoded = state.toRlpItem().toList();\n        uint CryptoMonPL = decoded[uint(Battle.CryptoMonPL)].toUint();\n        uint CryptoMonOP = decoded[uint(Battle.CryptoMonOP)].toUint();\n\n        emit CryptoMonBattleRequested(gameId, player, CryptoMonPL);\n        emit CryptoMonBattleRequested(gameId, opponent, CryptoMonOP);\n    }\n    function eventStartState(uint gameId, bytes memory state, address player, address opponent) public isApproved(msg.sender) {\n        RLPReader.RLPItem[] memory decoded = state.toRlpItem().toList();\n        uint CryptoMonPL = decoded[uint(Battle.CryptoMonPL)].toUint();\n        uint CryptoMonOP = decoded[uint(Battle.CryptoMonOP)].toUint();\n\n        emit CryptoMonBattleStarted(gameId, player, CryptoMonPL);\n        emit CryptoMonBattleStarted(gameId, opponent, CryptoMonOP);\n    }\n\n    //VALIDATOR\n    mapping (address => bool) public validators;\n\n    function setValidator(address _address, bool value) public onlyOwner {\n        validators[_address] = value;\n    }\n\n    modifier isApproved(address _address) {\n        require(validators[_address], \"Events can only be triggered by validators\");\n        _;\n    }\n\n\n}\n",
  "sourcePath": "/home/juanfra/Documents/ITBA/PF/Plasma-Cash-RootChain/contracts/Battles/CryptMonBattles.sol",
  "compiler": {
    "name": "solc",
    "version": "0.5.2+commit.1df8f40c.Emscripten.clang"
  },
  "schemaVersion": "3.0.16",
  "updatedAt": "2019-10-31T20:21:58.194Z",
  "devdoc": {
    "methods": {
      "isOwner()": {
        "return": "true if `msg.sender` is the owner of the contract."
      },
      "owner()": {
        "return": "the address of the owner."
      },
      "renounceOwnership()": {
        "details": "Allows the current owner to relinquish control of the contract. It will not be possible to call the functions with the `onlyOwner` modifier anymore."
      },
      "transferOwnership(address)": {
        "details": "Allows the current owner to transfer control of the contract to a newOwner.",
        "params": {
          "newOwner": "The address to transfer ownership to."
        }
      }
    }
  },
  "userdoc": {
    "methods": {
      "renounceOwnership()": {
        "notice": "Renouncing ownership will leave the contract without an owner, thereby removing any functionality that is only available to the owner."
      }
    }
  }
}