{
  "contractName": "CryptoMonBattles",
  "abi": [
    {
      "constant": false,
      "inputs": [],
      "name": "renounceOwnership",
      "outputs": [],
      "payable": false,
      "stateMutability": "nonpayable",
      "type": "function"
    },
    {
      "constant": true,
      "inputs": [],
      "name": "owner",
      "outputs": [
        {
          "name": "",
          "type": "address"
        }
      ],
      "payable": false,
      "stateMutability": "view",
      "type": "function"
    },
    {
      "constant": true,
      "inputs": [],
      "name": "isOwner",
      "outputs": [
        {
          "name": "",
          "type": "bool"
        }
      ],
      "payable": false,
      "stateMutability": "view",
      "type": "function"
    },
    {
      "constant": false,
      "inputs": [
        {
          "name": "newOwner",
          "type": "address"
        }
      ],
      "name": "transferOwnership",
      "outputs": [],
      "payable": false,
      "stateMutability": "nonpayable",
      "type": "function"
    },
    {
      "constant": true,
      "inputs": [
        {
          "name": "",
          "type": "address"
        }
      ],
      "name": "validators",
      "outputs": [
        {
          "name": "",
          "type": "bool"
        }
      ],
      "payable": false,
      "stateMutability": "view",
      "type": "function"
    },
    {
      "inputs": [
        {
          "name": "_plasma",
          "type": "address"
        },
        {
          "name": "_cryptomons",
          "type": "address"
        }
      ],
      "payable": false,
      "stateMutability": "nonpayable",
      "type": "constructor"
    },
    {
      "anonymous": false,
      "inputs": [
        {
          "indexed": true,
          "name": "gameId",
          "type": "uint256"
        },
        {
          "indexed": true,
          "name": "player",
          "type": "address"
        },
        {
          "indexed": true,
          "name": "CryptoMon",
          "type": "uint256"
        }
      ],
      "name": "CryptoMonBattleRequested",
      "type": "event"
    },
    {
      "anonymous": false,
      "inputs": [
        {
          "indexed": true,
          "name": "gameId",
          "type": "uint256"
        },
        {
          "indexed": true,
          "name": "player",
          "type": "address"
        },
        {
          "indexed": true,
          "name": "CryptoMon",
          "type": "uint256"
        }
      ],
      "name": "CryptoMonBattleStarted",
      "type": "event"
    },
    {
      "anonymous": false,
      "inputs": [
        {
          "indexed": true,
          "name": "previousOwner",
          "type": "address"
        },
        {
          "indexed": true,
          "name": "newOwner",
          "type": "address"
        }
      ],
      "name": "OwnershipTransferred",
      "type": "event"
    },
    {
      "constant": true,
      "inputs": [
        {
          "name": "state",
          "type": "bytes"
        }
      ],
      "name": "validateStartState",
      "outputs": [],
      "payable": false,
      "stateMutability": "view",
      "type": "function"
    },
    {
      "constant": true,
      "inputs": [
        {
          "name": "oldState",
          "type": "bytes"
        },
        {
          "name": "turnNum",
          "type": "uint256"
        },
        {
          "name": "newState",
          "type": "bytes"
        }
      ],
      "name": "validateTurnTransition",
      "outputs": [],
      "payable": false,
      "stateMutability": "view",
      "type": "function"
    },
    {
      "constant": true,
      "inputs": [
        {
          "name": "startState",
          "type": "bytes"
        },
        {
          "name": "firstTurn",
          "type": "bytes"
        }
      ],
      "name": "validateInitialTransition",
      "outputs": [],
      "payable": false,
      "stateMutability": "pure",
      "type": "function"
    },
    {
      "constant": true,
      "inputs": [
        {
          "name": "state",
          "type": "bytes"
        },
        {
          "name": "turnNum",
          "type": "uint256"
        },
        {
          "name": "player",
          "type": "address"
        },
        {
          "name": "opponent",
          "type": "address"
        }
      ],
      "name": "winner",
      "outputs": [
        {
          "name": "",
          "type": "address"
        }
      ],
      "payable": false,
      "stateMutability": "pure",
      "type": "function"
    },
    {
      "constant": true,
      "inputs": [
        {
          "name": "state",
          "type": "bytes"
        },
        {
          "name": "",
          "type": "uint256"
        }
      ],
      "name": "isOver",
      "outputs": [
        {
          "name": "",
          "type": "bool"
        }
      ],
      "payable": false,
      "stateMutability": "pure",
      "type": "function"
    },
    {
      "constant": true,
      "inputs": [
        {
          "name": "",
          "type": "bytes"
        },
        {
          "name": "turnNum",
          "type": "uint256"
        },
        {
          "name": "player",
          "type": "address"
        },
        {
          "name": "opponent",
          "type": "address"
        }
      ],
      "name": "mover",
      "outputs": [
        {
          "name": "",
          "type": "address"
        }
      ],
      "payable": false,
      "stateMutability": "pure",
      "type": "function"
    },
    {
      "constant": true,
      "inputs": [
        {
          "name": "plasmaID",
          "type": "uint256"
        }
      ],
      "name": "getCryptoMon",
      "outputs": [
        {
          "components": [
            {
              "name": "id",
              "type": "uint8"
            },
            {
              "name": "gender",
              "type": "uint8"
            },
            {
              "name": "isShiny",
              "type": "bool"
            },
            {
              "components": [
                {
                  "name": "hp",
                  "type": "uint8"
                },
                {
                  "name": "atk",
                  "type": "uint8"
                },
                {
                  "name": "def",
                  "type": "uint8"
                },
                {
                  "name": "spAtk",
                  "type": "uint8"
                },
                {
                  "name": "spDef",
                  "type": "uint8"
                },
                {
                  "name": "speed",
                  "type": "uint8"
                }
              ],
              "name": "IVs",
              "type": "tuple"
            },
            {
              "components": [
                {
                  "name": "hp",
                  "type": "uint8"
                },
                {
                  "name": "atk",
                  "type": "uint8"
                },
                {
                  "name": "def",
                  "type": "uint8"
                },
                {
                  "name": "spAtk",
                  "type": "uint8"
                },
                {
                  "name": "spDef",
                  "type": "uint8"
                },
                {
                  "name": "speed",
                  "type": "uint8"
                }
              ],
              "name": "stats",
              "type": "tuple"
            }
          ],
          "name": "",
          "type": "tuple"
        }
      ],
      "payable": false,
      "stateMutability": "view",
      "type": "function"
    },
    {
      "constant": false,
      "inputs": [
        {
          "name": "gameId",
          "type": "uint256"
        },
        {
          "name": "state",
          "type": "bytes"
        },
        {
          "name": "player",
          "type": "address"
        },
        {
          "name": "opponent",
          "type": "address"
        }
      ],
      "name": "eventRequestState",
      "outputs": [],
      "payable": false,
      "stateMutability": "nonpayable",
      "type": "function"
    },
    {
      "constant": false,
      "inputs": [
        {
          "name": "gameId",
          "type": "uint256"
        },
        {
          "name": "state",
          "type": "bytes"
        },
        {
          "name": "player",
          "type": "address"
        },
        {
          "name": "opponent",
          "type": "address"
        }
      ],
      "name": "eventStartState",
      "outputs": [],
      "payable": false,
      "stateMutability": "nonpayable",
      "type": "function"
    },
    {
      "constant": false,
      "inputs": [
        {
          "name": "_address",
          "type": "address"
        },
        {
          "name": "value",
          "type": "bool"
        }
      ],
      "name": "setValidator",
      "outputs": [],
      "payable": false,
      "stateMutability": "nonpayable",
      "type": "function"
    }
  ],
  "bytecode": "0x60806040523480156200001157600080fd5b50604051604080620098618339810180604052620000339190810190620001a5565b336000806101000a81548173ffffffffffffffffffffffffffffffffffffffff021916908373ffffffffffffffffffffffffffffffffffffffff1602179055506000809054906101000a900473ffffffffffffffffffffffffffffffffffffffff1673ffffffffffffffffffffffffffffffffffffffff16600073ffffffffffffffffffffffffffffffffffffffff167f8be0079c531659141344cd1fd0a4f28419497f9722a3daafe3b4186f6b6457e060405160405180910390a381600160006101000a81548173ffffffffffffffffffffffffffffffffffffffff021916908373ffffffffffffffffffffffffffffffffffffffff16021790555080600260006101000a81548173ffffffffffffffffffffffffffffffffffffffff021916908373ffffffffffffffffffffffffffffffffffffffff160217905550505062000256565b60006200018782516200022e565b905092915050565b60006200019d825162000242565b905092915050565b60008060408385031215620001b957600080fd5b6000620001c9858286016200018f565b9250506020620001dc8582860162000179565b9150509250929050565b6000620001f3826200020e565b9050919050565b600062000207826200020e565b9050919050565b600073ffffffffffffffffffffffffffffffffffffffff82169050919050565b60006200023b82620001e6565b9050919050565b60006200024f82620001fa565b9050919050565b6195fb80620002666000396000f3fe608060405234801561001057600080fd5b5060043610610112576000357c0100000000000000000000000000000000000000000000000000000000900480638f32d59b116100b4578063ca62b96e11610083578063ca62b96e14610265578063d2f6722c14610295578063f2fde38b146102c5578063fa52c7d8146102e157610112565b80638f32d59b146101df5780639608d1d3146101fd578063afb531c11461022d578063be8290e21461024957610112565b8063715018a6116100f0578063715018a61461016b578063748eaa74146101755780638cfd80d8146101a55780638da5cb5b146101c157610112565b806308487b521461011757806332a4b4eb146101335780634623c91d1461014f575b600080fd5b610131600480360361012c9190810190617af5565b610311565b005b61014d60048036036101489190810190617d6d565b610838565b005b61016960048036036101649190810190617a90565b6109d0565b005b610173610a3e565b005b61018f600480360361018a9190810190617d44565b610b10565b60405161019c91906193b3565b60405180910390f35b6101bf60048036036101ba9190810190617c71565b610d04565b005b6101c9610d5f565b6040516101d69190618d02565b60405180910390f35b6101e7610d88565b6040516101f49190618d1d565b60405180910390f35b61021760048036036102129190810190617bf6565b610ddf565b6040516102249190618d02565b60405180910390f35b61024760048036036102429190810190617d6d565b610ed3565b005b610263600480360361025e9190810190617b36565b61106b565b005b61027f600480360361027a9190810190617bf6565b6111be565b60405161028c9190618d02565b60405180910390f35b6102af60048036036102aa9190810190617ba2565b6111e5565b6040516102bc9190618d1d565b60405180910390f35b6102df60048036036102da9190810190617a67565b611276565b005b6102fb60048036036102f69190810190617a67565b611295565b6040516103089190618d1d565b60405180910390f35b606061032461031f836112b5565b6112e3565b905060016009600f81111561033557fe5b01815114151561037a576040517f08c379a000000000000000000000000000000000000000000000000000000000815260040161037190618ed3565b60405180910390fd5b61038261751f565b6103b66103b1836000600f81111561039657fe5b8151811015156103a257fe5b906020019060200201516113f6565b610b10565b90506000816000015160ff16111515610404576040517f08c379a00000000000000000000000000000000000000000000000000000000081526004016103fb90619393565b60405180910390fd5b80608001516000015160ff1661043c836001600f81111561042157fe5b81518110151561042d57fe5b906020019060200201516113f6565b14151561047e576040517f08c379a000000000000000000000000000000000000000000000000000000000815260040161047590618e73565b60405180910390fd5b600015156104ae836002600f81111561049357fe5b81518110151561049f57fe5b9060200190602002015161149f565b15151415156104f2576040517f08c379a00000000000000000000000000000000000000000000000000000000081526004016104e990619173565b60405180910390fd5b60001515610522836003600f81111561050757fe5b81518110151561051357fe5b9060200190602002015161149f565b1515141515610566576040517f08c379a000000000000000000000000000000000000000000000000000000000815260040161055d90619213565b60405180910390fd5b6001610594836004600f81111561057957fe5b81518110151561058557fe5b906020019060200201516113f6565b1415156105d6576040517f08c379a00000000000000000000000000000000000000000000000000000000081526004016105cd906190f3565b60405180910390fd5b6105de61751f565b61061261060d846005600f8111156105f257fe5b8151811015156105fe57fe5b906020019060200201516113f6565b610b10565b90506000816000015160ff16111515610660576040517f08c379a000000000000000000000000000000000000000000000000000000000815260040161065790619393565b60405180910390fd5b80608001516000015160ff16610698846006600f81111561067d57fe5b81518110151561068957fe5b906020019060200201516113f6565b1415156106da576040517f08c379a00000000000000000000000000000000000000000000000000000000081526004016106d190619333565b60405180910390fd5b6000151561070a846007600f8111156106ef57fe5b8151811015156106fb57fe5b9060200190602002015161149f565b151514151561074e576040517f08c379a0000000000000000000000000000000000000000000000000000000008152600401610745906190d3565b60405180910390fd5b6000151561077e846008600f81111561076357fe5b81518110151561076f57fe5b9060200190602002015161149f565b15151415156107c2576040517f08c379a00000000000000000000000000000000000000000000000000000000081526004016107b990618e93565b60405180910390fd5b60016107f0846009600f8111156107d557fe5b8151811015156107e157fe5b906020019060200201516113f6565b141515610832576040517f08c379a000000000000000000000000000000000000000000000000000000000815260040161082990619313565b60405180910390fd5b50505050565b33600360008273ffffffffffffffffffffffffffffffffffffffff1673ffffffffffffffffffffffffffffffffffffffff16815260200190815260200160002060009054906101000a900460ff1615156108c7576040517f08c379a00000000000000000000000000000000000000000000000000000000081526004016108be90618fb3565b60405180910390fd5b60606108da6108d5866112b5565b6112e3565b9050600061090a826000600f8111156108ef57fe5b8151811015156108fb57fe5b906020019060200201516113f6565b9050600061093a836005600f81111561091f57fe5b81518110151561092b57fe5b906020019060200201516113f6565b9050818673ffffffffffffffffffffffffffffffffffffffff16897fe347f51b2c52adb2dc38a860aba042721bb546727c26d4a52d86dd4bcfb2567460405160405180910390a4808573ffffffffffffffffffffffffffffffffffffffff16897fe347f51b2c52adb2dc38a860aba042721bb546727c26d4a52d86dd4bcfb2567460405160405180910390a45050505050505050565b6109d8610d88565b15156109e357600080fd5b80600360008473ffffffffffffffffffffffffffffffffffffffff1673ffffffffffffffffffffffffffffffffffffffff16815260200190815260200160002060006101000a81548160ff0219169083151502179055505050565b610a46610d88565b1515610a5157600080fd5b600073ffffffffffffffffffffffffffffffffffffffff166000809054906101000a900473ffffffffffffffffffffffffffffffffffffffff1673ffffffffffffffffffffffffffffffffffffffff167f8be0079c531659141344cd1fd0a4f28419497f9722a3daafe3b4186f6b6457e060405160405180910390a360008060006101000a81548173ffffffffffffffffffffffffffffffffffffffff021916908373ffffffffffffffffffffffffffffffffffffffff160217905550565b610b1861751f565b6801000000000000000082101515610b65576040517f08c379a0000000000000000000000000000000000000000000000000000000008152600401610b5c90619353565b60405180910390fd5b6000600160009054906101000a900473ffffffffffffffffffffffffffffffffffffffff1673ffffffffffffffffffffffffffffffffffffffff1663f8353cf0846040518263ffffffff167c0100000000000000000000000000000000000000000000000000000000028152600401610bde91906193ea565b60a06040518083038186803b158015610bf657600080fd5b505afa158015610c0a573d6000803e3d6000fd5b505050506040513d601f19601f82011682018060405250610c2e9190810190617de8565b505050509050600260009054906101000a900473ffffffffffffffffffffffffffffffffffffffff1673ffffffffffffffffffffffffffffffffffffffff1663467fb1e4826040518263ffffffff167c0100000000000000000000000000000000000000000000000000000000028152600401610cab91906193cf565b6101e06040518083038186803b158015610cc457600080fd5b505afa158015610cd8573d6000803e3d6000fd5b505050506040513d601f19601f82011682018060405250610cfc9190810190617d1a565b915050919050565b6000821415610d1c57610d17838261106b565b610d5a565b6000600283811515610d2a57fe5b061415610d4a57610d458382610d4084866111e5565b611516565b610d59565b610d5883826001851461244a565b5b5b505050565b60008060009054906101000a900473ffffffffffffffffffffffffffffffffffffffff16905090565b60008060009054906101000a900473ffffffffffffffffffffffffffffffffffffffff1673ffffffffffffffffffffffffffffffffffffffff163373ffffffffffffffffffffffffffffffffffffffff1614905090565b6000610deb85856111e5565b15610ec6576060610e03610dfe876112b5565b6112e3565b90506000610e33826001600f811115610e1857fe5b815181101515610e2457fe5b906020019060200201516113f6565b90506000610e63836006600f811115610e4857fe5b815181101515610e5457fe5b906020019060200201516113f6565b905080821115610e7857859350505050610ecb565b81811115610e8b57849350505050610ecb565b6040517f08c379a0000000000000000000000000000000000000000000000000000000008152600401610ebd90618f33565b60405180910390fd5b600090505b949350505050565b33600360008273ffffffffffffffffffffffffffffffffffffffff1673ffffffffffffffffffffffffffffffffffffffff16815260200190815260200160002060009054906101000a900460ff161515610f62576040517f08c379a0000000000000000000000000000000000000000000000000000000008152600401610f5990618fb3565b60405180910390fd5b6060610f75610f70866112b5565b6112e3565b90506000610fa5826000600f811115610f8a57fe5b815181101515610f9657fe5b906020019060200201516113f6565b90506000610fd5836005600f811115610fba57fe5b815181101515610fc657fe5b906020019060200201516113f6565b9050818673ffffffffffffffffffffffffffffffffffffffff16897f503d5d704014c475b98c9861a0e457d66badaaeda096375d871241d5f456025960405160405180910390a4808573ffffffffffffffffffffffffffffffffffffffff16897f503d5d704014c475b98c9861a0e457d66badaaeda096375d871241d5f456025960405160405180910390a45050505050505050565b606061107e611079846112b5565b6112e3565b9050606061109361108e846112b5565b6112e3565b905060016009600f8111156110a457fe5b0182511415156110e9576040517f08c379a00000000000000000000000000000000000000000000000000000000081526004016110e090618dd3565b60405180910390fd5b6001600a600f8111156110f857fe5b01815114151561113d576040517f08c379a000000000000000000000000000000000000000000000000000000000815260040161113490618d73565b60405180910390fd5b6111478282612b19565b600061117582600a600f81111561115a57fe5b81518110151561116657fe5b906020019060200201516113f6565b141515156111b8576040517f08c379a00000000000000000000000000000000000000000000000000000000081526004016111af90619153565b60405180910390fd5b50505050565b6000806002858115156111cd57fe5b06146111d957816111db565b825b9050949350505050565b600060606111fa6111f5856112b5565b6112e3565b9050600061122a826001600f81111561120f57fe5b81518110151561121b57fe5b906020019060200201516113f6565b9050600061125a836006600f81111561123f57fe5b81518110151561124b57fe5b906020019060200201516113f6565b9050600082148061126b5750600081145b935050505092915050565b61127e610d88565b151561128957600080fd5b61129281613131565b50565b60036020528060005260406000206000915054906101000a900460ff1681565b6112bd61756c565b600060208301905060408051908101604052808451815260200182815250915050919050565b60606112ee8261322b565b151561132f576040517f08c379a000000000000000000000000000000000000000000000000000000000815260040161132690618fd3565b60405180910390fd5b600061133a83613279565b90508060405190808252806020026020018201604052801561137657816020015b611363617586565b81526020019060019003908161135b5790505b509150600061138884602001516132ea565b8460200151019050600080600090505b838110156113ed576113a983613373565b915060408051908101604052808381526020018481525085828151811015156113ce57fe5b9060200190602002018190525081830192508080600101915050611398565b50505050919050565b600080826000015111801561141057506021826000015111155b1515611451576040517f08c379a000000000000000000000000000000000000000000000000000000000815260040161144890619133565b60405180910390fd5b600061146083602001516132ea565b9050600081846000015103905060008083866020015101905080519150602083101561149357826020036101000a820491505b81945050505050919050565b6000600182600001511415156114ea576040517f08c379a00000000000000000000000000000000000000000000000000000000081526004016114e190619373565b60405180910390fd5b60008083602001519050805160001a91506000821461150a57600161150d565b60005b92505050919050565b6060611529611524856112b5565b6112e3565b9050606061153e611539856112b5565b6112e3565b9050821561159f576001600e600f81111561155557fe5b01815114151561159a576040517f08c379a000000000000000000000000000000000000000000000000000000000815260040161159190618ff3565b60405180910390fd5b611663565b6001600f808111156115ad57fe5b0181511415156115f2576040517f08c379a00000000000000000000000000000000000000000000000000000000081526004016115e990618ff3565b60405180910390fd5b600061161f82600f8081111561160457fe5b81518110151561161057fe5b906020019060200201516113f6565b14151515611662576040517f08c379a000000000000000000000000000000000000000000000000000000000815260040161165990619153565b60405180910390fd5b5b61168f816000600f81111561167457fe5b81518110151561168057fe5b906020019060200201516113f6565b6116bb836000600f8111156116a057fe5b8151811015156116ac57fe5b906020019060200201516113f6565b1415156116fd576040517f08c379a00000000000000000000000000000000000000000000000000000000081526004016116f490619073565b60405180910390fd5b611729816005600f81111561170e57fe5b81518110151561171a57fe5b906020019060200201516113f6565b611755836005600f81111561173a57fe5b81518110151561174657fe5b906020019060200201516113f6565b141515611797576040517f08c379a000000000000000000000000000000000000000000000000000000000815260040161178e90619293565b60405180910390fd5b6117c381600a600f8111156117a857fe5b8151811015156117b457fe5b906020019060200201516113f6565b6117ef83600a600f8111156117d457fe5b8151811015156117e057fe5b906020019060200201516113f6565b141515611831576040517f08c379a000000000000000000000000000000000000000000000000000000000815260040161182890618db3565b60405180910390fd5b61185d81600b600f81111561184257fe5b81518110151561184e57fe5b906020019060200201516113f6565b61188983600b600f81111561186e57fe5b81518110151561187a57fe5b906020019060200201516113f6565b1415156118cb576040517f08c379a00000000000000000000000000000000000000000000000000000000081526004016118c290619013565b60405180910390fd5b6118f781600c600f8111156118dc57fe5b8151811015156118e857fe5b906020019060200201516113f6565b61192383600c600f81111561190857fe5b81518110151561191457fe5b906020019060200201516113f6565b141515611965576040517f08c379a000000000000000000000000000000000000000000000000000000000815260040161195c90618e33565b60405180910390fd5b60098081111561197157fe5b61199d82600b600f81111561198257fe5b81518110151561198e57fe5b906020019060200201516113f6565b111515156119e0576040517f08c379a00000000000000000000000000000000000000000000000000000000081526004016119d790618df3565b60405180910390fd5b6009808111156119ec57fe5b611a1882600d600f8111156119fd57fe5b815181101515611a0957fe5b906020019060200201516113f6565b11151515611a5b576040517f08c379a0000000000000000000000000000000000000000000000000000000008152600401611a5290618ef3565b60405180910390fd5b611a8781600d600f811115611a6c57fe5b815181101515611a7857fe5b906020019060200201516113f6565b611ab382600e600f811115611a9857fe5b815181101515611aa457fe5b906020019060200201516113f6565b604051602001808381526020018281526020019250505060405160208183030381529060405280519060200120611b0c83600a600f811115611af157fe5b815181101515611afd57fe5b906020019060200201516113f6565b600102141515611b51576040517f08c379a0000000000000000000000000000000000000000000000000000000008152600401611b48906192b3565b60405180910390fd5b611b5961751f565b611b8d611b88846000600f811115611b6d57fe5b815181101515611b7957fe5b906020019060200201516113f6565b610b10565b9050611b976175a0565b600260009054906101000a900473ffffffffffffffffffffffffffffffffffffffff1673ffffffffffffffffffffffffffffffffffffffff16638ef9e13e83600001516040518263ffffffff167c0100000000000000000000000000000000000000000000000000000000028152600401611c129190619405565b6101206040518083038186803b158015611c2b57600080fd5b505afa158015611c3f573d6000803e3d6000fd5b505050506040513d601f19601f82011682018060405250611c639190810190617cf0565b9050611c6d61751f565b611ca1611c9c866005600f811115611c8157fe5b815181101515611c8d57fe5b906020019060200201516113f6565b610b10565b9050611cab6175a0565b600260009054906101000a900473ffffffffffffffffffffffffffffffffffffffff1673ffffffffffffffffffffffffffffffffffffffff16638ef9e13e83600001516040518263ffffffff167c0100000000000000000000000000000000000000000000000000000000028152600401611d269190619405565b6101206040518083038186803b158015611d3f57600080fd5b505afa158015611d53573d6000803e3d6000fd5b505050506040513d601f19601f82011682018060405250611d779190810190617cf0565b9050611d816175e9565b60606040519081016040528060e060405190810160405280611dc58b6001600f811115611daa57fe5b815181101515611db657fe5b906020019060200201516113f6565b8152602001611df68b6002600f811115611ddb57fe5b815181101515611de757fe5b9060200190602002015161149f565b15158152602001611e298b6003600f811115611e0e57fe5b815181101515611e1a57fe5b9060200190602002015161149f565b15158152602001611e5c8b6004600f811115611e4157fe5b815181101515611e4d57fe5b906020019060200201516113f6565b8152602001888152602001878152602001611e998a600b600f811115611e7e57fe5b815181101515611e8a57fe5b906020019060200201516113f6565b6009811115611ea457fe5b6009811115611eaf57fe5b815250815260200160e060405190810160405280611eef8b6006600f811115611ed457fe5b815181101515611ee057fe5b906020019060200201516113f6565b8152602001611f208b6007600f811115611f0557fe5b815181101515611f1157fe5b9060200190602002015161149f565b15158152602001611f538b6008600f811115611f3857fe5b815181101515611f4457fe5b9060200190602002015161149f565b15158152602001611f868b6009600f811115611f6b57fe5b815181101515611f7757fe5b906020019060200201516113f6565b8152602001868152602001858152602001611fc38a600d600f811115611fa857fe5b815181101515611fb457fe5b906020019060200201516113f6565b6009811115611fce57fe5b6009811115611fd957fe5b815250815260200161200d88600c600f811115611ff257fe5b815181101515611ffe57fe5b906020019060200201516113f6565b61203989600e600f81111561201e57fe5b81518110151561202a57fe5b906020019060200201516113f6565b604051602001808381526020018281526020019250505060405160208183030381529060405280519060200120815250905061207481613426565b90506120a2866001600f81111561208757fe5b81518110151561209357fe5b906020019060200201516113f6565b8160000151600001511415156120ed576040517f08c379a00000000000000000000000000000000000000000000000000000000081526004016120e4906190b3565b60405180910390fd5b612119866004600f8111156120fe57fe5b81518110151561210a57fe5b906020019060200201516113f6565b816000015160600151141515612164576040517f08c379a000000000000000000000000000000000000000000000000000000000815260040161215b90619253565b60405180910390fd5b612190866002600f81111561217557fe5b81518110151561218157fe5b9060200190602002015161149f565b151581600001516020015115151415156121df576040517f08c379a00000000000000000000000000000000000000000000000000000000081526004016121d690619233565b60405180910390fd5b61220b866003600f8111156121f057fe5b8151811015156121fc57fe5b9060200190602002015161149f565b1515816000015160400151151514151561225a576040517f08c379a000000000000000000000000000000000000000000000000000000000815260040161225190618d53565b60405180910390fd5b612286866006600f81111561226b57fe5b81518110151561227757fe5b906020019060200201516113f6565b8160200151600001511415156122d1576040517f08c379a00000000000000000000000000000000000000000000000000000000081526004016122c8906190b3565b60405180910390fd5b6122fd866009600f8111156122e257fe5b8151811015156122ee57fe5b906020019060200201516113f6565b816020015160600151141515612348576040517f08c379a000000000000000000000000000000000000000000000000000000000815260040161233f90619253565b60405180910390fd5b612374866007600f81111561235957fe5b81518110151561236557fe5b9060200190602002015161149f565b151581602001516020015115151415156123c3576040517f08c379a00000000000000000000000000000000000000000000000000000000081526004016123ba90619233565b60405180910390fd5b6123ef866008600f8111156123d457fe5b8151811015156123e057fe5b9060200190602002015161149f565b1515816020015160400151151514151561243e576040517f08c379a000000000000000000000000000000000000000000000000000000000815260040161243590618d53565b60405180910390fd5b50505050505050505050565b606061245d612458856112b5565b6112e3565b9050606061247261246d856112b5565b6112e3565b905060008315612506576001600a600f81111561248b57fe5b0183511415156124d0576040517f08c379a00000000000000000000000000000000000000000000000000000000081526004016124c790618f53565b60405180910390fd5b6124fc83600a600f8111156124e157fe5b8151811015156124ed57fe5b906020019060200201516113f6565b600102905061258a565b6001600f8081111561251457fe5b018351141515612559576040517f08c379a000000000000000000000000000000000000000000000000000000000815260040161255090618f53565b60405180910390fd5b61258483600f8081111561256957fe5b81518110151561257557fe5b906020019060200201516113f6565b60010290505b6001600c600f81111561259957fe5b0182511415156125de576040517f08c379a00000000000000000000000000000000000000000000000000000000081526004016125d5906192d3565b60405180910390fd5b6125e88383612b19565b61261482600a600f8111156125f957fe5b81518110151561260557fe5b906020019060200201516113f6565b6001028114151561265a576040517f08c379a000000000000000000000000000000000000000000000000000000000815260040161265190618e13565b60405180910390fd5b600061268883600b600f81111561266d57fe5b81518110151561267957fe5b906020019060200201516113f6565b905060098081111561269657fe5b81111515156126da576040517f08c379a00000000000000000000000000000000000000000000000000000000081526004016126d190618df3565b60405180910390fd5b6126ee8160098111156126e957fe5b61358c565b15612764576000612721846004600f81111561270657fe5b81518110151561271257fe5b906020019060200201516113f6565b111515612763576040517f08c379a000000000000000000000000000000000000000000000000000000000815260040161275a90619093565b60405180910390fd5b5b61276c61751f565b6127a061279b856000600f81111561278057fe5b81518110151561278c57fe5b906020019060200201516113f6565b610b10565b90506127aa6175a0565b600260009054906101000a900473ffffffffffffffffffffffffffffffffffffffff1673ffffffffffffffffffffffffffffffffffffffff16638ef9e13e83600001516040518263ffffffff167c01000000000000000000000000000000000000000000000000000000000281526004016128259190619405565b6101206040518083038186803b15801561283e57600080fd5b505afa158015612852573d6000803e3d6000fd5b505050506040513d601f19601f820116820180604052506128769190810190617cf0565b905073__BattleDamageCalculator________________62fdb43784600981111561289d57fe5b6040518263ffffffff167c01000000000000000000000000000000000000000000000000000000000281526004016128d59190618d38565b60206040518083038186803b1580156128ed57600080fd5b505af4158015612901573d6000803e3d6000fd5b505050506040513d601f19601f820116820180604052506129259190810190617acc565b1561298a5760128081111561293657fe5b8160200151601281111561294657fe5b14151515612989576040517f08c379a0000000000000000000000000000000000000000000000000000000008152600401612980906191f3565b60405180910390fd5b5b73__BattleDamageCalculator________________63da36f29c8460098111156129b057fe5b6040518263ffffffff167c01000000000000000000000000000000000000000000000000000000000281526004016129e89190618d38565b60206040518083038186803b158015612a0057600080fd5b505af4158015612a14573d6000803e3d6000fd5b505050506040513d601f19601f82011682018060405250612a389190810190617acc565b15612a9d57601280811115612a4957fe5b81604001516012811115612a5957fe5b14151515612a9c576040517f08c379a0000000000000000000000000000000000000000000000000000000008152600401612a93906191f3565b60405180910390fd5b5b6000612acb86600c600f811115612ab057fe5b815181101515612abc57fe5b906020019060200201516113f6565b14151515612b0e576040517f08c379a0000000000000000000000000000000000000000000000000000000008152600401612b0590618eb3565b60405180910390fd5b505050505050505050565b612b45816000600f811115612b2a57fe5b815181101515612b3657fe5b906020019060200201516113f6565b612b71836000600f811115612b5657fe5b815181101515612b6257fe5b906020019060200201516113f6565b141515612bb3576040517f08c379a0000000000000000000000000000000000000000000000000000000008152600401612baa90619073565b60405180910390fd5b612bdf816001600f811115612bc457fe5b815181101515612bd057fe5b906020019060200201516113f6565b612c0b836001600f811115612bf057fe5b815181101515612bfc57fe5b906020019060200201516113f6565b141515612c4d576040517f08c379a0000000000000000000000000000000000000000000000000000000008152600401612c44906191b3565b60405180910390fd5b612c79816002600f811115612c5e57fe5b815181101515612c6a57fe5b9060200190602002015161149f565b1515612ca7836002600f811115612c8c57fe5b815181101515612c9857fe5b9060200190602002015161149f565b1515141515612ceb576040517f08c379a0000000000000000000000000000000000000000000000000000000008152600401612ce290618f93565b60405180910390fd5b612d17816003600f811115612cfc57fe5b815181101515612d0857fe5b9060200190602002015161149f565b1515612d45836003600f811115612d2a57fe5b815181101515612d3657fe5b9060200190602002015161149f565b1515141515612d89576040517f08c379a0000000000000000000000000000000000000000000000000000000008152600401612d80906191d3565b60405180910390fd5b612db5816004600f811115612d9a57fe5b815181101515612da657fe5b906020019060200201516113f6565b612de1836004600f811115612dc657fe5b815181101515612dd257fe5b906020019060200201516113f6565b141515612e23576040517f08c379a0000000000000000000000000000000000000000000000000000000008152600401612e1a90619273565b60405180910390fd5b612e4f816005600f811115612e3457fe5b815181101515612e4057fe5b906020019060200201516113f6565b612e7b836005600f811115612e6057fe5b815181101515612e6c57fe5b906020019060200201516113f6565b141515612ebd576040517f08c379a0000000000000000000000000000000000000000000000000000000008152600401612eb490619293565b60405180910390fd5b612ee9816006600f811115612ece57fe5b815181101515612eda57fe5b906020019060200201516113f6565b612f15836006600f811115612efa57fe5b815181101515612f0657fe5b906020019060200201516113f6565b141515612f57576040517f08c379a0000000000000000000000000000000000000000000000000000000008152600401612f4e90619053565b60405180910390fd5b612f83816007600f811115612f6857fe5b815181101515612f7457fe5b9060200190602002015161149f565b1515612fb1836007600f811115612f9657fe5b815181101515612fa257fe5b9060200190602002015161149f565b1515141515612ff5576040517f08c379a0000000000000000000000000000000000000000000000000000000008152600401612fec90619193565b60405180910390fd5b613021816008600f81111561300657fe5b81518110151561301257fe5b9060200190602002015161149f565b151561304f836008600f81111561303457fe5b81518110151561304057fe5b9060200190602002015161149f565b1515141515613093576040517f08c379a000000000000000000000000000000000000000000000000000000000815260040161308a90618d93565b60405180910390fd5b6130bf816009600f8111156130a457fe5b8151811015156130b057fe5b906020019060200201516113f6565b6130eb836009600f8111156130d057fe5b8151811015156130dc57fe5b906020019060200201516113f6565b14151561312d576040517f08c379a000000000000000000000000000000000000000000000000000000000815260040161312490618f13565b60405180910390fd5b5050565b600073ffffffffffffffffffffffffffffffffffffffff168173ffffffffffffffffffffffffffffffffffffffff161415151561316d57600080fd5b8073ffffffffffffffffffffffffffffffffffffffff166000809054906101000a900473ffffffffffffffffffffffffffffffffffffffff1673ffffffffffffffffffffffffffffffffffffffff167f8be0079c531659141344cd1fd0a4f28419497f9722a3daafe3b4186f6b6457e060405160405180910390a3806000806101000a81548173ffffffffffffffffffffffffffffffffffffffff021916908373ffffffffffffffffffffffffffffffffffffffff16021790555050565b600080826000015114156132425760009050613274565b60008083602001519050805160001a915060c060ff168260ff16101561326d57600092505050613274565b6001925050505b919050565b6000808260000151141561329057600090506132e5565b600080905060006132a484602001516132ea565b84602001510190506000846000015185602001510190505b808210156132de576132cd82613373565b8201915082806001019350506132bc565b8293505050505b919050565b600080825160001a9050608060ff1681101561330a57600091505061336e565b60b860ff1681108061332f575060c060ff16811015801561332e575060f860ff1681105b5b1561333e57600191505061336e565b60c060ff1681101561335e5760018060b80360ff1682030191505061336e565b60018060f80360ff168203019150505b919050565b600080825160001a9050608060ff16811015613393576001915050613421565b60b860ff168110156133b1576001608060ff16820301915050613421565b60c060ff168110156133e15760b78103600184019350806020036101000a8451046001820181019350505061341f565b60f860ff168110156133ff57600160c060ff16820301915050613421565b60f78103600184019350806020036101000a845104600182018101935050505b505b919050565b61342e6175e9565b6000613442836000015184602001516135d2565b90506000613458846020015185600001516135d2565b9050600081831090508183141561349657600080613479876040015161366d565b9150915081876040018181525050600f60ff168160ff1611925050505b80156134a8576134a585613693565b94505b6134b1856136c9565b94506134bc85613d4a565b156134d5576134cb8582613d71565b9350505050613587565b6134e66134e186613693565b6136c9565b94506134f185613d4a565b1561350b57613501858215613d71565b9350505050613587565b61351c61351786613693565b613d99565b945061352785613d4a565b15613540576135368582613d71565b9350505050613587565b61355161354c86613693565b613d99565b945061355c85613d4a565b156135765761356c858215613d71565b9350505050613587565b613581858215613d71565b93505050505b919050565b600080600981111561359a57fe5b8260098111156135a657fe5b141580156135cb5750600260098111156135bc57fe5b8260098111156135c857fe5b14155b9050919050565b60008083608001516080015160a0015160ff16905083602001511561360657613603818460a0015160200151613ef4565b90505b83604001511561362557613622818460a0015160400151613ef4565b90505b82604001511561364457613641818560a0015160400151613f94565b90505b82604001511561366357613660818560a0015160400151613f94565b90505b8091505092915050565b600080600060ff600102841660019004905061368884613fd6565b819250925050915091565b61369b6175e9565b6136a361761b565b826020015190508260000151836020018190525080836000018190525082915050919050565b6136d16175e9565b600260098111156136de57fe5b826000015160c0015160098111156136f257fe5b141561370057819050613d45565b613711826000015160c0015161358c565b1561377d576000826000015160600151111515613763576040517f08c379a000000000000000000000000000000000000000000000000000000000815260040161375a90619113565b60405180910390fd5b600182600001516060015103826000015160600181815250505b6000600981111561378a57fe5b826000015160c00151600981111561379e57fe5b14156138125760038260000151606001511015156137f1576040517f08c379a00000000000000000000000000000000000000000000000000000000081526004016137e890619033565b60405180910390fd5b60018260000151606001510182600001516060018181525050819050613d45565b613823826000015160c00151613ff4565b156138905760128081111561383457fe5b826000015160a0015160200151601281111561384c57fe5b1415151561388f576040517f08c379a0000000000000000000000000000000000000000000000000000000008152600401613886906191f3565b60405180910390fd5b5b6138a1826000015160c00151614059565b1561390e576012808111156138b257fe5b826000015160a001516040015160128111156138ca57fe5b1415151561390d576040517f08c379a0000000000000000000000000000000000000000000000000000000008152600401613904906191f3565b60405180910390fd5b5b61391f826000015160c001516140bd565b15613b0257600080613934846040015161366d565b915091506000806139448461366d565b915091506000806139548461366d565b9150915081886040018181525050600061397789600001518a6020015184614143565b90508015613a1a5760006139958a600001518b6020015189886142de565b90506012808111156139a357fe5b8a6000015160a001516040015160128111156139bb57fe5b14156139d7576064607860ff1682028115156139d357fe5b0490505b808a602001516000015110156139fb5760008a602001516000018181525050613a14565b808a6020015160000151038a6020015160000181815250505b50613af3565b60018960000151606001510189600001516060018181525050613a4589600001518a6020015161461a565b15613af2576000896000015160800151608001516020015160ff16905060008a6000015160800151608001516040015160ff16905060006002603283856001600260056064600202811515613a9657fe5b04010202811515613aa357fe5b04811515613aad57fe5b04019050808c60000151600001511015613ad55760008c600001516000018181525050613aee565b808c6000015160000151038c6000015160000181815250505b5050505b5b88975050505050505050613d45565b60036009811115613b0f57fe5b826000015160c001516009811115613b2357fe5b1415613bc55760026009811115613b3657fe5b826020015160c001516009811115613b4a57fe5b1415613bbd5760006003836020015160800151608001516000015160ff16811515613b7157fe5b0460ff169050808360200151600001511015613b9b57600083602001516000018181525050613bb4565b8083602001516000015103836020015160000181815250505b82915050613d45565b819050613d45565b60066009811115613bd257fe5b826000015160c001516009811115613be657fe5b1415613c5757600080613bfc846040015161366d565b9150915081846040018181525050613c1484826146a1565b15613c3357600184602001516020019015159081151581525050613c4d565b600184600001516060015101846000015160600181815250505b8392505050613d45565b600980811115613c6357fe5b826000015160c001516009811115613c7757fe5b1415613ce857600080613c8d846040015161366d565b9150915081846040018181525050613ca584826146a1565b15613cc457600184602001516040019015159081151581525050613cde565b600184600001516060015101846000015160600181815250505b8392505050613d45565b60016009811115613cf557fe5b826000015160c001516009811115613d0957fe5b1415613d4157600082600001516020019015159081151581525050600082600001516040019015159081151581525050819050613d45565b8190505b919050565b6000808260000151600001511480613d6a57506000826020015160000151145b9050919050565b613d796175e9565b8115613d8f57613d8883613693565b9050613d93565b8290505b92915050565b613da16175e9565b600082602001516020015115613dcc57613dc783846000015160a00151602001516147a0565b810190505b82602001516040015115613df557613df083846000015160a00151604001516147a0565b810190505b826000015160800151608001516000015160ff1681846000015160000151011015613e3757808360000151600001510183600001516000018181525050613e59565b826000015160800151608001516000015160ff16836000015160000181815250505b600083600001516020015115613e8457613e7f84856020015160a0015160200151614806565b810190505b83600001516040015115613ead57613ea884856020015160a0015160400151614806565b810190505b808460000151600001511015613ed157600084600001516000018181525050613eea565b8084600001516000015103846000015160000181815250505b8392505050919050565b6000600a6012811115613f0357fe5b826012811115613f0f57fe5b1415613f2c576064603c8402811515613f2457fe5b049050613f8e565b600c6012811115613f3957fe5b826012811115613f4557fe5b1415613f62576064603c8402811515613f5a57fe5b049050613f8e565b600e6012811115613f6f57fe5b826012811115613f7b57fe5b1415613f8a5760009050613f8e565b8290505b92915050565b600060026012811115613fa357fe5b826012811115613faf57fe5b1415613fcc57606460968402811515613fc457fe5b049050613fd0565b8290505b92915050565b60006101008260019004811515613fe957fe5b046001029050919050565b60006004600981111561400357fe5b82600981111561400f57fe5b148061403157506005600981111561402357fe5b82600981111561402f57fe5b145b8061405257506006600981111561404457fe5b82600981111561405057fe5b145b9050919050565b60006007600981111561406857fe5b82600981111561407457fe5b148061409657506008600981111561408857fe5b82600981111561409457fe5b145b806140b657506009808111156140a857fe5b8260098111156140b457fe5b145b9050919050565b6000600460098111156140cc57fe5b8260098111156140d857fe5b14806140fa5750600760098111156140ec57fe5b8260098111156140f857fe5b145b8061411b57506005600981111561410d57fe5b82600981111561411957fe5b145b8061413c57506008600981111561412e57fe5b82600981111561413a57fe5b145b9050919050565b600083602001518015614157575083604001515b1561422c5760006141988460a0015160200151856080015160200151600281111561417e57fe5b876080015160200151600281111561419257fe5b14614a5a565b905060006141d68560a001516040015186608001516020015160028111156141bc57fe5b88608001516020015160028111156141d057fe5b14614a5a565b90506000620f4240800260ff80620f42408560ff16028115156141f557fe5b0460ff620f42408760ff160281151561420a57fe5b04020281151561421657fe5b0490508060ff168560ff161193505050506142d7565b83602001511561427f576142708360a0015160200151846080015160200151600281111561425657fe5b866080015160200151600281111561426a57fe5b14614a5a565b60ff168260ff161190506142d7565b8360400151156142d2576142c38360a001516040015184608001516020015160028111156142a957fe5b86608001516020015160028111156142bd57fe5b14614a5a565b60ff168260ff161190506142d7565b600190505b9392505050565b6000600260098111156142ed57fe5b8460c0015160098111156142fd57fe5b141561430c5760009050614612565b60006004600981111561431b57fe5b8660c00151600981111561432b57fe5b148061435157506007600981111561433f57fe5b8660c00151600981111561434f57fe5b145b156143ad5760006143628787614baa565b905060006143708789614c45565b90506002603282846002806005606460020281151561438b57fe5b0401020281151561439857fe5b048115156143a257fe5b040192505050614488565b600560098111156143ba57fe5b8660c0015160098111156143ca57fe5b14806143f05750600860098111156143de57fe5b8660c0015160098111156143ee57fe5b145b1561444c5760006144018787614ce0565b9050600061440f8789614d7b565b90506002603282846002806005606460020281151561442a57fe5b0401020281151561443757fe5b0481151561444157fe5b040192505050614487565b6040517f08c379a000000000000000000000000000000000000000000000000000000000815260040161447e90618e53565b60405180910390fd5b5b60006144948787614e16565b60ff168560ff1610905080156144b7576064609683028115156144b357fe5b0491505b6000620f424060d902602660ff620f42408860ff16028115156144d657fe5b0402019050620f424060ff8285028115156144ed57fe5b048115156144f757fe5b04925060006145098960c00151613ff4565b1561451e578860a0015160200151905061452a565b8860a001516040015190505b6000614547828a60a00151602001518b60a0015160400151614ece565b60ff1690506003811415614562578495505050505050614612565b60048111156145ac576064609660ff16860281151561457d57fe5b049450600581141561459f576064609660ff16860281151561459b57fe5b0494505b8495505050505050614612565b6003811015614609576064604b60ff1686028115156145c757fe5b0494506002811015614608576064604b60ff1686028115156145e557fe5b0494506000811415614607576064604b60ff16860281151561460357fe5b0494505b5b5b84955050505050505b949350505050565b60008260200151801561464b5750600d601281111561463557fe5b8260a0015160200151601281111561464957fe5b145b15614659576001905061469b565b826040015180156146885750600d601281111561467257fe5b8260a0015160400151601281111561468657fe5b145b15614696576001905061469b565b600090505b92915050565b60008260000151602001511561471a57600e60128111156146be57fe5b836020015160a001516020015160128111156146d657fe5b14151515614719576040517f08c379a000000000000000000000000000000000000000000000000000000000815260040161471090618f73565b60405180910390fd5b5b8260000151604001511561479157600e601281111561473557fe5b836020015160a0015160400151601281111561474d57fe5b14151515614790576040517f08c379a000000000000000000000000000000000000000000000000000000000815260040161478790618f73565b60405180910390fd5b5b60be8260ff1610905092915050565b6000600b60128111156147af57fe5b8260128111156147bb57fe5b14156147fb57620f42406010620f4240856020015160800151608001516000015160ff16028115156147e957fe5b048115156147f357fe5b049050614800565b600090505b92915050565b6000600b601281111561481557fe5b82601281111561482157fe5b141561486157620f42406010620f4240856000015160800151608001516000015160ff160281151561484f57fe5b0481151561485957fe5b049050614a54565b6003601281111561486e57fe5b82601281111561487a57fe5b14156148ba57620f4240600a620f4240856000015160800151608001516000015160ff16028115156148a857fe5b048115156148b257fe5b049050614a54565b600960128111156148c757fe5b8260128111156148d357fe5b141561491357620f42406010620f4240856000015160800151608001516000015160ff160281151561490157fe5b0481151561490b57fe5b049050614a54565b6002601281111561492057fe5b82601281111561492c57fe5b141561496c57620f42406010620f4240856000015160800151608001516000015160ff160281151561495a57fe5b0481151561496457fe5b049050614a54565b6005601281111561497957fe5b82601281111561498557fe5b14156149c557620f42406010620f4240856000015160800151608001516000015160ff16028115156149b357fe5b048115156149bd57fe5b049050614a54565b600460128111156149d257fe5b8260128111156149de57fe5b148015614a1057506149f7836000015160c001516140bd565b80614a0f5750614a0e836000015160c001516172ce565b5b5b15614a4f57620f42406010620f4240856000015160800151608001516000015160ff1602811515614a3d57fe5b04811515614a4757fe5b049050614a54565b600090505b92915050565b600060066012811115614a6957fe5b836012811115614a7557fe5b1415614a9657606460ff606460320202811515614a8e57fe5b049050614ba4565b600c6012811115614aa357fe5b836012811115614aaf57fe5b1415614ad057606460ff6064604b0202811515614ac857fe5b049050614ba4565b60076012811115614add57fe5b836012811115614ae957fe5b1415614b0a57606460ff606460460202811515614b0257fe5b049050614ba4565b600d6012811115614b1757fe5b836012811115614b2357fe5b1415614b4457606460ff606460550202811515614b3c57fe5b049050614ba4565b60116012811115614b5157fe5b836012811115614b5d57fe5b1415614b9f578115614b8457606460ff606460410202811515614b7c57fe5b049050614ba4565b606460ff6064601e0202811515614b9757fe5b049050614ba4565b600090505b92915050565b6000808360800151608001516020015160ff169050836020015115614bde57614bdb818460a0015160200151617311565b90505b836040015115614bfd57614bfa818460a0015160400151617311565b90505b826040015115614c1c57614c19818560a00151604001516173bf565b90505b826040015115614c3b57614c38818560a00151604001516173bf565b90505b8091505092915050565b6000808360800151608001516040015160ff169050836020015115614c7957614c76818460a0015160200151617401565b90505b836040015115614c9857614c95818460a0015160400151617401565b90505b826040015115614cb757614cb4818560a001516040015161740c565b90505b826040015115614cd657614cd3818560a001516040015161740c565b90505b8091505092915050565b6000808360800151608001516060015160ff169050836020015115614d1457614d11818460a001516020015161744e565b90505b836040015115614d3357614d30818460a001516040015161744e565b90505b826040015115614d5257614d4f818560a0015160400151617490565b90505b826040015115614d7157614d6e818560a0015160400151617490565b90505b8091505092915050565b6000808360800151608001516080015160ff169050836020015115614daf57614dac818460a00151602001516174d2565b90505b836040015115614dce57614dcb818460a00151604001516174d2565b90505b826040015115614ded57614dea818560a00151604001516174dd565b90505b826040015115614e0c57614e09818560a00151604001516174dd565b90505b8091505092915050565b6000808360a001516060015160a0015160ff16905082602001518015614e5a575060016012811115614e4457fe5b8460a00151602001516012811115614e5857fe5b145b80614e90575082604001518015614e8f575060016012811115614e7957fe5b8460a00151604001516012811115614e8d57fe5b145b5b15614ea057600881029050614eb0565b600281811515614eac57fe5b0490505b60ff811115614ec35760ff915050614ec8565b809150505b92915050565b6000806003905060006012811115614ee257fe5b856012811115614eee57fe5b1415614fd15760076012811115614f0157fe5b846012811115614f0d57fe5b1480614f2f575060076012811115614f2157fe5b836012811115614f2d57fe5b145b15614f3e5760009150506172c7565b60056012811115614f4b57fe5b846012811115614f5757fe5b1480614f79575060056012811115614f6b57fe5b836012811115614f7757fe5b145b15614f85576001810390505b60086012811115614f9257fe5b846012811115614f9e57fe5b1480614fc0575060086012811115614fb257fe5b836012811115614fbe57fe5b145b15614fcc576001810390505b6172c2565b60016012811115614fde57fe5b856012811115614fea57fe5b14156152be5760076012811115614ffd57fe5b84601281111561500957fe5b148061502b57506007601281111561501d57fe5b83601281111561502957fe5b145b1561503a5760009150506172c7565b6005601281111561504757fe5b84601281111561505357fe5b148061507557506005601281111561506757fe5b83601281111561507357fe5b145b15615081576001810190505b6008601281111561508e57fe5b84601281111561509a57fe5b14806150bc5750600860128111156150ae57fe5b8360128111156150ba57fe5b145b156150c8576001810190505b600e60128111156150d557fe5b8460128111156150e157fe5b14806151035750600e60128111156150f557fe5b83601281111561510157fe5b145b1561510f576001810190505b6010601281111561511c57fe5b84601281111561512857fe5b148061514a57506010601281111561513c57fe5b83601281111561514857fe5b145b15615156576001810190505b6002601281111561516357fe5b84601281111561516f57fe5b148061519157506002601281111561518357fe5b83601281111561518f57fe5b145b1561519d576001810390505b600360128111156151aa57fe5b8460128111156151b657fe5b14806151d85750600360128111156151ca57fe5b8360128111156151d657fe5b145b156151e4576001810390505b600d60128111156151f157fe5b8460128111156151fd57fe5b148061521f5750600d601281111561521157fe5b83601281111561521d57fe5b145b1561522b576001810390505b6006601281111561523857fe5b84601281111561524457fe5b148061526657506006601281111561525857fe5b83601281111561526457fe5b145b15615272576001810390505b6011601281111561527f57fe5b84601281111561528b57fe5b14806152ad57506011601281111561529f57fe5b8360128111156152ab57fe5b145b156152b9576001810390505b6172c1565b600260128111156152cb57fe5b8560128111156152d757fe5b141561548c57600160128111156152ea57fe5b8460128111156152f657fe5b148061531857506001601281111561530a57fe5b83601281111561531657fe5b145b15615324576001810190505b6006601281111561533157fe5b84601281111561533d57fe5b148061535f57506006601281111561535157fe5b83601281111561535d57fe5b145b1561536b576001810190505b600b601281111561537857fe5b84601281111561538457fe5b14806153a65750600b601281111561539857fe5b8360128111156153a457fe5b145b156153b2576001810190505b600560128111156153bf57fe5b8460128111156153cb57fe5b14806153ed5750600560128111156153df57fe5b8360128111156153eb57fe5b145b156153f9576001810390505b6008601281111561540657fe5b84601281111561541257fe5b148061543457506008601281111561542657fe5b83601281111561543257fe5b145b15615440576001810390505b600c601281111561544d57fe5b84601281111561545957fe5b148061547b5750600c601281111561546d57fe5b83601281111561547957fe5b145b15615487576001810390505b6172c0565b6003601281111561549957fe5b8560128111156154a557fe5b14156156a457600860128111156154b857fe5b8460128111156154c457fe5b14806154e65750600860128111156154d857fe5b8360128111156154e457fe5b145b156154f55760009150506172c7565b600b601281111561550257fe5b84601281111561550e57fe5b14806155305750600b601281111561552257fe5b83601281111561552e57fe5b145b1561553c576001810190505b6011601281111561554957fe5b84601281111561555557fe5b148061557757506011601281111561556957fe5b83601281111561557557fe5b145b15615583576001810190505b6003601281111561559057fe5b84601281111561559c57fe5b14806155be5750600360128111156155b057fe5b8360128111156155bc57fe5b145b156155ca576001810390505b600460128111156155d757fe5b8460128111156155e357fe5b14806156055750600460128111156155f757fe5b83601281111561560357fe5b145b15615611576001810390505b6005601281111561561e57fe5b84601281111561562a57fe5b148061564c57506005601281111561563e57fe5b83601281111561564a57fe5b145b15615658576001810390505b6007601281111561566557fe5b84601281111561567157fe5b148061569357506007601281111561568557fe5b83601281111561569157fe5b145b1561569f576001810390505b6172bf565b600460128111156156b157fe5b8560128111156156bd57fe5b141561590357600360128111156156d057fe5b8460128111156156dc57fe5b14806156fe5750600360128111156156f057fe5b8360128111156156fc57fe5b145b1561570a576001810190505b6005601281111561571757fe5b84601281111561572357fe5b148061574557506005601281111561573757fe5b83601281111561574357fe5b145b15615751576001810190505b6008601281111561575e57fe5b84601281111561576a57fe5b148061578c57506008601281111561577e57fe5b83601281111561578a57fe5b145b15615798576001810190505b600960128111156157a557fe5b8460128111156157b157fe5b14806157d35750600960128111156157c557fe5b8360128111156157d157fe5b145b156157df576001810190505b600c60128111156157ec57fe5b8460128111156157f857fe5b148061581a5750600c601281111561580c57fe5b83601281111561581857fe5b145b15615826576001810190505b6002601281111561583357fe5b84601281111561583f57fe5b148061586157506002601281111561585357fe5b83601281111561585f57fe5b145b156158705760009150506172c7565b6006601281111561587d57fe5b84601281111561588957fe5b14806158ab57506006601281111561589d57fe5b8360128111156158a957fe5b145b156158b7576001810390505b600b60128111156158c457fe5b8460128111156158d057fe5b14806158f25750600b60128111156158e457fe5b8360128111156158f057fe5b145b156158fe576001810390505b6172be565b6005601281111561591057fe5b85601281111561591c57fe5b1415615b18576002601281111561592f57fe5b84601281111561593b57fe5b148061595d57506002601281111561594f57fe5b83601281111561595b57fe5b145b15615969576001810190505b6006601281111561597657fe5b84601281111561598257fe5b14806159a457506006601281111561599657fe5b8360128111156159a257fe5b145b156159b0576001810190505b600960128111156159bd57fe5b8460128111156159c957fe5b14806159eb5750600960128111156159dd57fe5b8360128111156159e957fe5b145b156159f7576001810190505b600e6012811115615a0457fe5b846012811115615a1057fe5b1480615a325750600e6012811115615a2457fe5b836012811115615a3057fe5b145b15615a3e576001810190505b60016012811115615a4b57fe5b846012811115615a5757fe5b1480615a79575060016012811115615a6b57fe5b836012811115615a7757fe5b145b15615a85576001810390505b60046012811115615a9257fe5b846012811115615a9e57fe5b1480615ac0575060046012811115615ab257fe5b836012811115615abe57fe5b145b15615acc576001810390505b60086012811115615ad957fe5b846012811115615ae557fe5b1480615b07575060086012811115615af957fe5b836012811115615b0557fe5b145b15615b13576001810390505b6172bd565b60066012811115615b2557fe5b856012811115615b3157fe5b1415615e0257600b6012811115615b4457fe5b846012811115615b5057fe5b1480615b725750600b6012811115615b6457fe5b836012811115615b7057fe5b145b15615b7e576001810190505b600d6012811115615b8b57fe5b846012811115615b9757fe5b1480615bb95750600d6012811115615bab57fe5b836012811115615bb757fe5b145b15615bc5576001810190505b60106012811115615bd257fe5b846012811115615bde57fe5b1480615c00575060106012811115615bf257fe5b836012811115615bfe57fe5b145b15615c0c576001810190505b60016012811115615c1957fe5b846012811115615c2557fe5b1480615c47575060016012811115615c3957fe5b836012811115615c4557fe5b145b15615c53576001810390505b60026012811115615c6057fe5b846012811115615c6c57fe5b1480615c8e575060026012811115615c8057fe5b836012811115615c8c57fe5b145b15615c9a576001810390505b60036012811115615ca757fe5b846012811115615cb357fe5b1480615cd5575060036012811115615cc757fe5b836012811115615cd357fe5b145b15615ce1576001810390505b60076012811115615cee57fe5b846012811115615cfa57fe5b1480615d1c575060076012811115615d0e57fe5b836012811115615d1a57fe5b145b15615d28576001810390505b60086012811115615d3557fe5b846012811115615d4157fe5b1480615d63575060086012811115615d5557fe5b836012811115615d6157fe5b145b15615d6f576001810390505b60096012811115615d7c57fe5b846012811115615d8857fe5b1480615daa575060096012811115615d9c57fe5b836012811115615da857fe5b145b15615db6576001810390505b60116012811115615dc357fe5b846012811115615dcf57fe5b1480615df1575060116012811115615de357fe5b836012811115615def57fe5b145b15615dfd576001810390505b6172bc565b60076012811115615e0f57fe5b856012811115615e1b57fe5b1415615f455760076012811115615e2e57fe5b846012811115615e3a57fe5b1480615e5c575060076012811115615e4e57fe5b836012811115615e5a57fe5b145b15615e68576001810190505b600d6012811115615e7557fe5b846012811115615e8157fe5b1480615ea35750600d6012811115615e9557fe5b836012811115615ea157fe5b145b15615eaf576001810190505b60006012811115615ebc57fe5b846012811115615ec857fe5b1480615eea575060006012811115615edc57fe5b836012811115615ee857fe5b145b15615ef95760009150506172c7565b60106012811115615f0657fe5b846012811115615f1257fe5b1480615f34575060106012811115615f2657fe5b836012811115615f3257fe5b145b15615f40576001810390505b6172bb565b60086012811115615f5257fe5b856012811115615f5e57fe5b141561615a5760056012811115615f7157fe5b846012811115615f7d57fe5b1480615f9f575060056012811115615f9157fe5b836012811115615f9d57fe5b145b15615fab576001810190505b600e6012811115615fb857fe5b846012811115615fc457fe5b1480615fe65750600e6012811115615fd857fe5b836012811115615fe457fe5b145b15615ff2576001810190505b60116012811115615fff57fe5b84601281111561600b57fe5b148061602d57506011601281111561601f57fe5b83601281111561602b57fe5b145b15616039576001810190505b6008601281111561604657fe5b84601281111561605257fe5b148061607457506008601281111561606657fe5b83601281111561607257fe5b145b15616080576001810390505b6009601281111561608d57fe5b84601281111561609957fe5b14806160bb5750600960128111156160ad57fe5b8360128111156160b957fe5b145b156160c7576001810390505b600a60128111156160d457fe5b8460128111156160e057fe5b14806161025750600a60128111156160f457fe5b83601281111561610057fe5b145b1561610e576001810390505b600c601281111561611b57fe5b84601281111561612757fe5b14806161495750600c601281111561613b57fe5b83601281111561614757fe5b145b15616155576001810390505b6172ba565b6009601281111561616757fe5b85601281111561617357fe5b14156163b6576006601281111561618657fe5b84601281111561619257fe5b14806161b45750600660128111156161a657fe5b8360128111156161b257fe5b145b156161c0576001810190505b600860128111156161cd57fe5b8460128111156161d957fe5b14806161fb5750600860128111156161ed57fe5b8360128111156161f957fe5b145b15616207576001810190505b600b601281111561621457fe5b84601281111561622057fe5b14806162425750600b601281111561623457fe5b83601281111561624057fe5b145b1561624e576001810190505b600e601281111561625b57fe5b84601281111561626757fe5b14806162895750600e601281111561627b57fe5b83601281111561628757fe5b145b15616295576001810190505b600560128111156162a257fe5b8460128111156162ae57fe5b14806162d05750600560128111156162c257fe5b8360128111156162ce57fe5b145b156162dc576001810390505b600960128111156162e957fe5b8460128111156162f557fe5b148061631757506009601281111561630957fe5b83601281111561631557fe5b145b15616323576001810390505b600a601281111561633057fe5b84601281111561633c57fe5b148061635e5750600a601281111561635057fe5b83601281111561635c57fe5b145b1561636a576001810390505b600f601281111561637757fe5b84601281111561638357fe5b14806163a55750600f601281111561639757fe5b8360128111156163a357fe5b145b156163b1576001810390505b6172b9565b600a60128111156163c357fe5b8560128111156163cf57fe5b141561658457600460128111156163e257fe5b8460128111156163ee57fe5b148061641057506004601281111561640257fe5b83601281111561640e57fe5b145b1561641c576001810190505b6005601281111561642957fe5b84601281111561643557fe5b148061645757506005601281111561644957fe5b83601281111561645557fe5b145b15616463576001810190505b6009601281111561647057fe5b84601281111561647c57fe5b148061649e57506009601281111561649057fe5b83601281111561649c57fe5b145b156164aa576001810190505b600a60128111156164b757fe5b8460128111156164c357fe5b14806164e55750600a60128111156164d757fe5b8360128111156164e357fe5b145b156164f1576001810390505b600b60128111156164fe57fe5b84601281111561650a57fe5b148061652c5750600b601281111561651e57fe5b83601281111561652a57fe5b145b15616538576001810390505b600f601281111561654557fe5b84601281111561655157fe5b14806165735750600f601281111561656557fe5b83601281111561657157fe5b145b1561657f576001810390505b6172b8565b600b601281111561659157fe5b85601281111561659d57fe5b141561686e57600460128111156165b057fe5b8460128111156165bc57fe5b14806165de5750600460128111156165d057fe5b8360128111156165dc57fe5b145b156165ea576001810190505b600560128111156165f757fe5b84601281111561660357fe5b148061662557506005601281111561661757fe5b83601281111561662357fe5b145b15616631576001810190505b600a601281111561663e57fe5b84601281111561664a57fe5b148061666c5750600a601281111561665e57fe5b83601281111561666a57fe5b145b15616678576001810190505b6002601281111561668557fe5b84601281111561669157fe5b14806166b35750600260128111156166a557fe5b8360128111156166b157fe5b145b156166bf576001810390505b600360128111156166cc57fe5b8460128111156166d857fe5b14806166fa5750600360128111156166ec57fe5b8360128111156166f857fe5b145b15616706576001810390505b6006601281111561671357fe5b84601281111561671f57fe5b148061674157506006601281111561673357fe5b83601281111561673f57fe5b145b1561674d576001810390505b6008601281111561675a57fe5b84601281111561676657fe5b148061678857506008601281111561677a57fe5b83601281111561678657fe5b145b15616794576001810390505b600960128111156167a157fe5b8460128111156167ad57fe5b14806167cf5750600960128111156167c157fe5b8360128111156167cd57fe5b145b156167db576001810390505b600b60128111156167e857fe5b8460128111156167f457fe5b14806168165750600b601281111561680857fe5b83601281111561681457fe5b145b15616822576001810390505b600f601281111561682f57fe5b84601281111561683b57fe5b148061685d5750600f601281111561684f57fe5b83601281111561685b57fe5b145b15616869576001810390505b6172b7565b600c601281111561687b57fe5b85601281111561688757fe5b1415616a3f57600a601281111561689a57fe5b8460128111156168a657fe5b14806168c85750600a60128111156168ba57fe5b8360128111156168c657fe5b145b156168d4576001810190505b600260128111156168e157fe5b8460128111156168ed57fe5b148061690f57506002601281111561690157fe5b83601281111561690d57fe5b145b1561691b576001810190505b6004601281111561692857fe5b84601281111561693457fe5b148061695657506004601281111561694857fe5b83601281111561695457fe5b145b156169655760009150506172c7565b600b601281111561697257fe5b84601281111561697e57fe5b14806169a05750600b601281111561699257fe5b83601281111561699e57fe5b145b156169ac576001810390505b600c60128111156169b957fe5b8460128111156169c557fe5b14806169e75750600c60128111156169d957fe5b8360128111156169e557fe5b145b156169f3576001810390505b600f6012811115616a0057fe5b846012811115616a0c57fe5b1480616a2e5750600f6012811115616a2057fe5b836012811115616a2c57fe5b145b15616a3a576001810390505b6172b6565b600d6012811115616a4c57fe5b856012811115616a5857fe5b1415616bc95760016012811115616a6b57fe5b846012811115616a7757fe5b1480616a99575060016012811115616a8b57fe5b836012811115616a9757fe5b145b15616aa5576001810190505b60036012811115616ab257fe5b846012811115616abe57fe5b1480616ae0575060036012811115616ad257fe5b836012811115616ade57fe5b145b15616aec576001810190505b60086012811115616af957fe5b846012811115616b0557fe5b1480616b27575060086012811115616b1957fe5b836012811115616b2557fe5b145b15616b33576001810390505b600d6012811115616b4057fe5b846012811115616b4c57fe5b1480616b6e5750600d6012811115616b6057fe5b836012811115616b6c57fe5b145b15616b7a576001810390505b60106012811115616b8757fe5b846012811115616b9357fe5b1480616bb5575060106012811115616ba757fe5b836012811115616bb357fe5b145b15616bc45760009150506172c7565b6172b5565b600e6012811115616bd657fe5b856012811115616be257fe5b1415616e255760026012811115616bf557fe5b846012811115616c0157fe5b1480616c23575060026012811115616c1557fe5b836012811115616c2157fe5b145b15616c2f576001810190505b60046012811115616c3c57fe5b846012811115616c4857fe5b1480616c6a575060046012811115616c5c57fe5b836012811115616c6857fe5b145b15616c76576001810190505b600b6012811115616c8357fe5b846012811115616c8f57fe5b1480616cb15750600b6012811115616ca357fe5b836012811115616caf57fe5b145b15616cbd576001810190505b600f6012811115616cca57fe5b846012811115616cd657fe5b1480616cf85750600f6012811115616cea57fe5b836012811115616cf657fe5b145b15616d04576001810190505b60086012811115616d1157fe5b846012811115616d1d57fe5b1480616d3f575060086012811115616d3157fe5b836012811115616d3d57fe5b145b15616d4b576001810390505b60096012811115616d5857fe5b846012811115616d6457fe5b1480616d86575060096012811115616d7857fe5b836012811115616d8457fe5b145b15616d92576001810390505b600a6012811115616d9f57fe5b846012811115616dab57fe5b1480616dcd5750600a6012811115616dbf57fe5b836012811115616dcb57fe5b145b15616dd9576001810390505b600e6012811115616de657fe5b846012811115616df257fe5b1480616e145750600e6012811115616e0657fe5b836012811115616e1257fe5b145b15616e20576001810390505b6172b4565b600f6012811115616e3257fe5b856012811115616e3e57fe5b1415616f2157600f6012811115616e5157fe5b846012811115616e5d57fe5b1480616e7f5750600f6012811115616e7157fe5b836012811115616e7d57fe5b145b15616e8b576001810190505b60086012811115616e9857fe5b846012811115616ea457fe5b1480616ec6575060086012811115616eb857fe5b836012811115616ec457fe5b145b15616ed2576001810390505b60116012811115616edf57fe5b846012811115616eeb57fe5b1480616f0d575060116012811115616eff57fe5b836012811115616f0b57fe5b145b15616f1c5760009150506172c7565b6172b3565b60106012811115616f2e57fe5b856012811115616f3a57fe5b14156170a85760076012811115616f4d57fe5b846012811115616f5957fe5b1480616f7b575060076012811115616f6d57fe5b836012811115616f7957fe5b145b15616f87576001810190505b600d6012811115616f9457fe5b846012811115616fa057fe5b1480616fc25750600d6012811115616fb457fe5b836012811115616fc057fe5b145b15616fce576001810190505b60016012811115616fdb57fe5b846012811115616fe757fe5b1480617009575060016012811115616ffb57fe5b83601281111561700757fe5b145b15617015576001810390505b6010601281111561702257fe5b84601281111561702e57fe5b148061705057506010601281111561704257fe5b83601281111561704e57fe5b145b1561705c576001810390505b6011601281111561706957fe5b84601281111561707557fe5b148061709757506011601281111561708957fe5b83601281111561709557fe5b145b156170a3576001810390505b6172b2565b601160128111156170b557fe5b8560128111156170c157fe5b141561727657600160128111156170d457fe5b8460128111156170e057fe5b14806171025750600160128111156170f457fe5b83601281111561710057fe5b145b1561710e576001810190505b600f601281111561711b57fe5b84601281111561712757fe5b14806171495750600f601281111561713b57fe5b83601281111561714757fe5b145b15617155576001810190505b6010601281111561716257fe5b84601281111561716e57fe5b148061719057506010601281111561718257fe5b83601281111561718e57fe5b145b1561719c576001810190505b600360128111156171a957fe5b8460128111156171b557fe5b14806171d75750600360128111156171c957fe5b8360128111156171d557fe5b145b156171e3576001810390505b600860128111156171f057fe5b8460128111156171fc57fe5b148061721e57506008601281111561721057fe5b83601281111561721c57fe5b145b1561722a576001810390505b6009601281111561723757fe5b84601281111561724357fe5b148061726557506009601281111561725757fe5b83601281111561726357fe5b145b15617271576001810390505b6172b1565b6040517f08c379a00000000000000000000000000000000000000000000000000000000081526004016172a8906192f3565b60405180910390fd5b5b5b5b5b5b5b5b5b5b5b5b5b5b5b5b5b5b809150505b9392505050565b6000600660098111156172dd57fe5b8260098111156172e957fe5b148061730a57506009808111156172fc57fe5b82600981111561730857fe5b145b9050919050565b60006009601281111561732057fe5b82601281111561732c57fe5b14156173495760646050840281151561734157fe5b0490506173b9565b6000601281111561735657fe5b82601281111561736257fe5b141561737f5760646032840281151561737757fe5b0490506173b9565b6007601281111561738c57fe5b82601281111561739857fe5b14156173b5576064604684028115156173ad57fe5b0490506173b9565b8290505b92915050565b6000600f60128111156173ce57fe5b8260128111156173da57fe5b14156173f7576064608284028115156173ef57fe5b0490506173fb565b8290505b92915050565b600082905092915050565b60006005601281111561741b57fe5b82601281111561742757fe5b14156174445760646096840281151561743c57fe5b049050617448565b8290505b92915050565b6000600a601281111561745d57fe5b82601281111561746957fe5b14156174865760646050840281151561747e57fe5b04905061748a565b8290505b92915050565b6000600f601281111561749f57fe5b8260128111156174ab57fe5b14156174c8576064608284028115156174c057fe5b0490506174cc565b8290505b92915050565b600082905092915050565b6000600860128111156174ec57fe5b8260128111156174f857fe5b14156175155760646096840281151561750d57fe5b049050617519565b8290505b92915050565b6101e060405190810160405280600060ff1681526020016000600281111561754357fe5b8152602001600015158152602001617559617675565b8152602001617566617675565b81525090565b604080519081016040528060008152602001600081525090565b604080519081016040528060008152602001600081525090565b61012060405190810160405280600060ff168152602001600060128111156175c457fe5b8152602001600060128111156175d657fe5b81526020016175e3617675565b81525090565b610760604051908101604052806175fe6176be565b815260200161760b6176be565b8152602001600080191681525090565b6103a0604051908101604052806000815260200160001515815260200160001515815260200160008152602001617650617718565b815260200161765d617765565b81526020016000600981111561766f57fe5b81525090565b60c060405190810160405280600060ff168152602001600060ff168152602001600060ff168152602001600060ff168152602001600060ff168152602001600060ff1681525090565b6103a06040519081016040528060008152602001600015158152602001600015158152602001600081526020016176f3617718565b8152602001617700617765565b81526020016000600981111561771257fe5b81525090565b6101e060405190810160405280600060ff1681526020016000600281111561773c57fe5b8152602001600015158152602001617752617675565b815260200161775f617675565b81525090565b61012060405190810160405280600060ff1681526020016000601281111561778957fe5b81526020016000601281111561779b57fe5b81526020016177a8617675565b81525090565b60006177ba823561950e565b905092915050565b60006177ce825161950e565b905092915050565b60006177e28235619520565b905092915050565b60006177f68251619520565b905092915050565b600082601f830112151561781157600080fd5b813561782461781f8261944d565b619420565b9150808252602083016020830185838301111561784057600080fd5b61784b8382846195b2565b50505092915050565b6000617860825161952c565b905092915050565b60006178748251619545565b905092915050565b6000617888825161955e565b905092915050565b600061012082840312156178a357600080fd5b6178ad6080619420565b905060006178bd84828501617a53565b60008301525060206178d18482850161787c565b60208301525060406178e58482850161787c565b60408301525060606178f98482850161798f565b60608301525092915050565b60006101e0828403121561791857600080fd5b61792260a0619420565b9050600061793284828501617a53565b600083015250602061794684828501617854565b602083015250604061795a848285016177ea565b604083015250606061796e8482850161798f565b6060830152506101206179838482850161798f565b60808301525092915050565b600060c082840312156179a157600080fd5b6179ab60c0619420565b905060006179bb84828501617a53565b60008301525060206179cf84828501617a53565b60208301525060406179e384828501617a53565b60408301525060606179f784828501617a53565b6060830152506080617a0b84828501617a53565b60808301525060a0617a1f84828501617a53565b60a08301525092915050565b6000617a378235619577565b905092915050565b6000617a4b8251619577565b905092915050565b6000617a5f8251619581565b905092915050565b600060208284031215617a7957600080fd5b6000617a87848285016177ae565b91505092915050565b60008060408385031215617aa357600080fd5b6000617ab1858286016177ae565b9250506020617ac2858286016177d6565b9150509250929050565b600060208284031215617ade57600080fd5b6000617aec848285016177ea565b91505092915050565b600060208284031215617b0757600080fd5b600082013567ffffffffffffffff811115617b2157600080fd5b617b2d848285016177fe565b91505092915050565b60008060408385031215617b4957600080fd5b600083013567ffffffffffffffff811115617b6357600080fd5b617b6f858286016177fe565b925050602083013567ffffffffffffffff811115617b8c57600080fd5b617b98858286016177fe565b9150509250929050565b60008060408385031215617bb557600080fd5b600083013567ffffffffffffffff811115617bcf57600080fd5b617bdb858286016177fe565b9250506020617bec85828601617a2b565b9150509250929050565b60008060008060808587031215617c0c57600080fd5b600085013567ffffffffffffffff811115617c2657600080fd5b617c32878288016177fe565b9450506020617c4387828801617a2b565b9350506040617c54878288016177ae565b9250506060617c65878288016177ae565b91505092959194509250565b600080600060608486031215617c8657600080fd5b600084013567ffffffffffffffff811115617ca057600080fd5b617cac868287016177fe565b9350506020617cbd86828701617a2b565b925050604084013567ffffffffffffffff811115617cda57600080fd5b617ce6868287016177fe565b9150509250925092565b60006101208284031215617d0357600080fd5b6000617d1184828501617890565b91505092915050565b60006101e08284031215617d2d57600080fd5b6000617d3b84828501617905565b91505092915050565b600060208284031215617d5657600080fd5b6000617d6484828501617a2b565b91505092915050565b60008060008060808587031215617d8357600080fd5b6000617d9187828801617a2b565b945050602085013567ffffffffffffffff811115617dae57600080fd5b617dba878288016177fe565b9350506040617dcb878288016177ae565b9250506060617ddc878288016177ae565b91505092959194509250565b600080600080600060a08688031215617e0057600080fd5b6000617e0e88828901617a3f565b9550506020617e1f88828901617a3f565b9450506040617e30888289016177c2565b9350506060617e4188828901617868565b9250506080617e52888289016177c2565b9150509295509295909350565b617e6881619479565b82525050565b617e778161948b565b82525050565b617e868161958e565b82525050565b617e95816195a0565b82525050565b6000602882527f506c61796572207374617475733220616674657220626174746c65206973206960208301527f6e636f72726563740000000000000000000000000000000000000000000000006040830152606082019050919050565b6000601d82527f496e76616c6964206669727374207475726e20524c50206c656e6774680000006020830152604082019050919050565b6000601f82527f4f70706f6e656e742053746174757332206d75737420737461792073616d65006020830152604082019050919050565b6000601b82527f486173684465636973696f6e206d75737420737461792073616d6500000000006020830152604082019050919050565b6000601d82527f496e76616c6964207374617274207475726e20524c50206c656e6774680000006020830152604082019050919050565b6000601882527f506c6179657273206465636973696f6e20696e76616c696400000000000000006020830152604082019050919050565b6000601f82527f48617368206465636973696f6e206d75737420737461792064652073616d65006020830152604082019050919050565b6000601a82527f506c617965722053616c74206d75737420737461792073616d650000000000006020830152604082019050919050565b6000602a82527f41747461636b696e67206d6f76652073686f756c6420626520616e206174746160208301527f636b696e67206d6f7665000000000000000000000000000000000000000000006040830152606082019050919050565b6000601882527f506c6179657220485020646f6573206e6f74206d6174636800000000000000006020830152604082019050919050565b6000602082527f4f70706f6e656e7420537461747573322073686f756c642062652066616c73656020830152604082019050919050565b6000601a82527f506c61796572206d7573742070726f7669646520612073616c740000000000006020830152604082019050919050565b6000601882527f496e76616c696420524c50207374617274206c656e67746800000000000000006020830152604082019050919050565b6000601982527f4f70706f6e656e74206465636973696f6e20696e76616c6964000000000000006020830152604082019050919050565b6000601f82527f4f70706f6e656e742063686172676573206d75737420737461792073616d65006020830152604082019050919050565b6000603282527f426f746820706c617965727320617420302c207468657265206973206e6f207360208301527f696d756c74616e656f75732064616d61676500000000000000000000000000006040830152606082019050919050565b6000601b82527f496e76616c6964206f6464207475726e20524c50206c656e67746800000000006020830152604082019050919050565b6000601b82527f43616e742075736520537461747573207768696c652046726f7a6500000000006020830152604082019050919050565b6000601d82527f506c617965722053746174757331206d75737420737461792073616d650000006020830152604082019050919050565b6000602a82527f4576656e74732063616e206f6e6c79206265207472696767657265642062792060208301527f76616c696461746f7273000000000000000000000000000000000000000000006040830152606082019050919050565b6000601482527f524c50204974656d206973206e6f74206c6973740000000000000000000000006020830152604082019050919050565b6000601e82527f496e76616c696420656e64696e67207475726e20524c50206c656e67746800006020830152604082019050919050565b6000601e82527f506c61796572204465636973696f6e206d75737420737461792073616d6500006020830152604082019050919050565b6000602882527f506c61796572207265636861726765206e6f7420706f737369626c652077686560208301527f6e206f76657220330000000000000000000000000000000000000000000000006040830152606082019050919050565b6000601a82527f4f70706f6e656e74204850206d75737420737461792073616d650000000000006020830152604082019050919050565b6000601f82527f506c617965722043727970746f6d6f6e206d75737420737461792073616d65006020830152604082019050919050565b6000602982527f506c61796572206d75737420686176652063686172676520746f206d616b652060208301527f74686174206d6f766500000000000000000000000000000000000000000000006040830152606082019050919050565b6000602382527f506c6179657220485020616674657220626174746c6520697320696e636f727260208301527f65637400000000000000000000000000000000000000000000000000000000006040830152606082019050919050565b6000602082527f4f70706f6e656e7420537461747573312073686f756c642062652066616c73656020830152604082019050919050565b6000601e82527f506c617965722063686172676573206d75737420626520696e697469616c00006020830152604082019050919050565b6000602582527f506c61796572206e6565647320612063686172676520746f20646f207468697360208301527f206d6f76650000000000000000000000000000000000000000000000000000006040830152606082019050919050565b6000602782527f524c502055696e74206d757374206265206265747765656e203120616e64203360208301527f33206279746573000000000000000000000000000000000000000000000000006040830152606082019050919050565b6000602982527f4f70706f6e656e74206d7573742070726f766964652061206861736820666f7260208301527f206465636973696f6e00000000000000000000000000000000000000000000006040830152606082019050919050565b6000601e82527f506c6179657220537461747573312073686f756c642062652066616c736500006020830152604082019050919050565b6000601f82527f4f70706f6e656e742053746174757331206d75737420737461792073616d65006020830152604082019050919050565b6000601882527f506c61796572204850206d75737420737461792073616d6500000000000000006020830152604082019050919050565b6000601d82527f506c617965722053746174757332206d75737420737461792073616d650000006020830152604082019050919050565b6000602c82527f506c617965722061747461636b2063616e7420626520646f6e6520776974682060208301527f556e6b6e6f776e207479706500000000000000000000000000000000000000006040830152606082019050919050565b6000601e82527f506c6179657220537461747573322073686f756c642062652066616c736500006020830152604082019050919050565b6000602882527f506c61796572207374617475733120616674657220626174746c65206973206960208301527f6e636f72726563740000000000000000000000000000000000000000000000006040830152606082019050919050565b6000602882527f506c61796572206368617267657320616674657220626174746c65206973206960208301527f6e636f72726563740000000000000000000000000000000000000000000000006040830152606082019050919050565b6000601d82527f506c617965722063686172676573206d75737420737461792073616d650000006020830152604082019050919050565b6000602182527f4f70706f6e656e742043727970746f6d6f6e206d75737420737461792073616d60208301527f65000000000000000000000000000000000000000000000000000000000000006040830152606082019050919050565b6000602582527f4f70706f6e656e74206465636973696f6e20646f6573206e6f74206d6174636860208301527f20686173680000000000000000000000000000000000000000000000000000006040830152606082019050919050565b6000601c82527f496e76616c6964206576656e207475726e20524c50206c656e677468000000006020830152604082019050919050565b6000600c82527f556e6b6e6f776e207479706500000000000000000000000000000000000000006020830152604082019050919050565b6000602082527f4f70706f6e656e742063686172676573206d75737420626520696e697469616c6020830152604082019050919050565b6000601a82527f4f70706f6e656e7420485020646f6573206e6f74206d617463680000000000006020830152604082019050919050565b6000602782527f496e76616c696420506c61736d6149442c2069742073686f756c64206265206160208301527f2075696e743634000000000000000000000000000000000000000000000000006040830152606082019050919050565b6000601a82527f524c5020426f6f6c65616e206d757374206265203120627974650000000000006020830152604082019050919050565b6000601882527f496e76616c696420506c617965722043727970746f6d6f6e00000000000000006020830152604082019050919050565b6101e082016000820151618c076000850182618cf3565b506020820151618c1a6020850182617e7d565b506040820151618c2d6040850182617e6e565b506060820151618c406060850182618c5a565b506080820151618c54610120850182618c5a565b50505050565b60c082016000820151618c706000850182618cf3565b506020820151618c836020850182618cf3565b506040820151618c966040850182618cf3565b506060820151618ca96060850182618cf3565b506080820151618cbc6080850182618cf3565b5060a0820151618ccf60a0850182618cf3565b50505050565b618cde816194e3565b82525050565b618ced816194ed565b82525050565b618cfc81619501565b82525050565b6000602082019050618d176000830184617e5f565b92915050565b6000602082019050618d326000830184617e6e565b92915050565b6000602082019050618d4d6000830184617e8c565b92915050565b60006020820190508181036000830152618d6c81617e9b565b9050919050565b60006020820190508181036000830152618d8c81617ef8565b9050919050565b60006020820190508181036000830152618dac81617f2f565b9050919050565b60006020820190508181036000830152618dcc81617f66565b9050919050565b60006020820190508181036000830152618dec81617f9d565b9050919050565b60006020820190508181036000830152618e0c81617fd4565b9050919050565b60006020820190508181036000830152618e2c8161800b565b9050919050565b60006020820190508181036000830152618e4c81618042565b9050919050565b60006020820190508181036000830152618e6c81618079565b9050919050565b60006020820190508181036000830152618e8c816180d6565b9050919050565b60006020820190508181036000830152618eac8161810d565b9050919050565b60006020820190508181036000830152618ecc81618144565b9050919050565b60006020820190508181036000830152618eec8161817b565b9050919050565b60006020820190508181036000830152618f0c816181b2565b9050919050565b60006020820190508181036000830152618f2c816181e9565b9050919050565b60006020820190508181036000830152618f4c81618220565b9050919050565b60006020820190508181036000830152618f6c8161827d565b9050919050565b60006020820190508181036000830152618f8c816182b4565b9050919050565b60006020820190508181036000830152618fac816182eb565b9050919050565b60006020820190508181036000830152618fcc81618322565b9050919050565b60006020820190508181036000830152618fec8161837f565b9050919050565b6000602082019050818103600083015261900c816183b6565b9050919050565b6000602082019050818103600083015261902c816183ed565b9050919050565b6000602082019050818103600083015261904c81618424565b9050919050565b6000602082019050818103600083015261906c81618481565b9050919050565b6000602082019050818103600083015261908c816184b8565b9050919050565b600060208201905081810360008301526190ac816184ef565b9050919050565b600060208201905081810360008301526190cc8161854c565b9050919050565b600060208201905081810360008301526190ec816185a9565b9050919050565b6000602082019050818103600083015261910c816185e0565b9050919050565b6000602082019050818103600083015261912c81618617565b9050919050565b6000602082019050818103600083015261914c81618674565b9050919050565b6000602082019050818103600083015261916c816186d1565b9050919050565b6000602082019050818103600083015261918c8161872e565b9050919050565b600060208201905081810360008301526191ac81618765565b9050919050565b600060208201905081810360008301526191cc8161879c565b9050919050565b600060208201905081810360008301526191ec816187d3565b9050919050565b6000602082019050818103600083015261920c8161880a565b9050919050565b6000602082019050818103600083015261922c81618867565b9050919050565b6000602082019050818103600083015261924c8161889e565b9050919050565b6000602082019050818103600083015261926c816188fb565b9050919050565b6000602082019050818103600083015261928c81618958565b9050919050565b600060208201905081810360008301526192ac8161898f565b9050919050565b600060208201905081810360008301526192cc816189ec565b9050919050565b600060208201905081810360008301526192ec81618a49565b9050919050565b6000602082019050818103600083015261930c81618a80565b9050919050565b6000602082019050818103600083015261932c81618ab7565b9050919050565b6000602082019050818103600083015261934c81618aee565b9050919050565b6000602082019050818103600083015261936c81618b25565b9050919050565b6000602082019050818103600083015261938c81618b82565b9050919050565b600060208201905081810360008301526193ac81618bb9565b9050919050565b60006101e0820190506193c96000830184618bf0565b92915050565b60006020820190506193e46000830184618cd5565b92915050565b60006020820190506193ff6000830184618ce4565b92915050565b600060208201905061941a6000830184618cf3565b92915050565b6000604051905081810181811067ffffffffffffffff8211171561944357600080fd5b8060405250919050565b600067ffffffffffffffff82111561946457600080fd5b601f19601f8301169050602081019050919050565b6000619484826194c3565b9050919050565b60008115159050919050565b60006003821015156194a557fe5b819050919050565b6000600a821015156194bb57fe5b819050919050565b600073ffffffffffffffffffffffffffffffffffffffff82169050919050565b6000819050919050565b600067ffffffffffffffff82169050919050565b600060ff82169050919050565b6000619519826194c3565b9050919050565b60008115159050919050565b600060038210151561953d57600080fd5b819050919050565b600060038210151561955657600080fd5b819050919050565b600060138210151561956f57600080fd5b819050919050565b6000819050919050565b600060ff82169050919050565b600061959982619497565b9050919050565b60006195ab826194ad565b9050919050565b8281833760008383015250505056fea265627a7a723058206f69aab02910f62dc5674ade3df9e81d0a591b0aaf4834c7c33f963fb25018d36c6578706572696d656e74616cf50037",
  "source": "pragma solidity ^0.5.2;\r\npragma experimental ABIEncoderV2;\r\n\r\nimport \"./PlasmaTurnGame.sol\";\r\nimport \"../Core/RootChain.sol\";\r\nimport \"../Core/CryptoMons.sol\";\r\nimport \"../Libraries/Pokedex.sol\";\r\nimport \"./BattleDamageCalculator.sol\";\r\nimport \"openzeppelin-solidity/contracts/ownership/Ownable.sol\";\r\n\r\ncontract CryptoMonBattles is PlasmaTurnGame, Ownable {\r\n\r\n    using BattleDamageCalculator for BattleDamageCalculator.BattleState;\r\n    using RLPReader for bytes;\r\n    using RLPReader for RLPReader.RLPItem;\r\n    //Signed Player -> Signed OP        -> Signed Player\r\n\r\n    //initialState  + //State 1    + //State even   + //State odd  +  //State ending (odd)\r\n\r\n    //CryptoMonPL   | CryptoMonPL   | CryptoMonPL   | 0 CryptoMonPL        | CryptoMonPL\r\n    //HPPL          | HPPL          | HPPL          | 1 HPPL               | HPPL\r\n    //Status1PL     | Status1PL     | Status1PL     | 2 Status1PL          | Status1PL\r\n    //Status2PL     | Status2PL     | Status2PL     | 3 Status2PL          | Status2PL\r\n    //ChargePL      | ChargePL      | ChargePL      | 4 ChargePL           | ChargePL\r\n    //CryptoMonOP   | CryptoMonOP   | CryptoMonOP   | 5 CryptoMonOP        | CryptoMonOP\r\n    //HPOP          | HPOP          | HPOP          | 6 HPOP               | HPOP\r\n    //Status1OP     | Status1OP     | Status1OP     | 7 Status1OP          | Status1OP\r\n    //Status2OP     | Status2OP     | Status2OP     | 8 Status2OP          | Status2OP\r\n    //ChargeOP      | ChargeOP      | ChargeOP      | 9  ChargeOP          | ChargeOP\r\n    //              | HashDecision  | HashDecision  | 10 HashDecision      | HashDecision\r\n    //              |               | DecisionPL    | 11 DecisionPL        | DecisionPL\r\n    //              |               | SaltPL        | 12 SaltPL            | SaltPL\r\n    //              |               |               | 13 DecisionOp        | DecisionOp\r\n    //              |               |               | 14 SaltOP            | SaltOP\r\n    //              |               |               | 15 nextHashDecision  |\r\n\r\n    enum Battle {\r\n        CryptoMonPL,\r\n        HPPL,\r\n        Status1PL,\r\n        Status2PL,\r\n        ChargePL,\r\n        CryptoMonOP,\r\n        HPOP,\r\n        Status1OP,\r\n        Status2OP,\r\n        ChargeOP,\r\n        HashDecision,\r\n        DecisionPL,\r\n        SaltPL,\r\n        DecisionOP,\r\n        SaltOP,\r\n        NextHashDecision\r\n    }\r\n\r\n    RootChain plasma;\r\n    CryptoMons cryptomons;\r\n\r\n    uint constant INITIAL_CHARGES = 1;\r\n\r\n    constructor(RootChain _plasma, CryptoMons _cryptomons) public {\r\n        plasma = _plasma;\r\n        cryptomons = _cryptomons;\r\n    }\r\n\r\n    function validateStartState(bytes memory state) public view {\r\n        RLPReader.RLPItem[] memory start = state.toRlpItem().toList();\r\n        require(start.length == uint(Battle.ChargeOP) + 1, \"Invalid RLP start length\");\r\n\r\n        //Player\r\n        Pokedex.Pokemon memory cryptoMonPL = getCryptoMon(start[uint(Battle.CryptoMonPL)].toUint());\r\n        require(cryptoMonPL.id > 0                                        , \"Invalid Player Cryptomon\");\r\n        require(start[uint(Battle.HPPL)].toUint() == cryptoMonPL.stats.hp , \"Player HP does not match\");\r\n        require(start[uint(Battle.Status1PL)].toBoolean() == false        , \"Player Status1 should be false\");\r\n        require(start[uint(Battle.Status2PL)].toBoolean() == false        , \"Player Status2 should be false\");\r\n        require(start[uint(Battle.ChargePL)].toUint() == INITIAL_CHARGES  , \"Player charges must be initial\");\r\n\r\n        //Opponent\r\n        Pokedex.Pokemon memory cryptoMonOP = getCryptoMon(start[uint(Battle.CryptoMonOP)].toUint());\r\n        require(cryptoMonOP.id > 0                                        , \"Invalid Player Cryptomon\");\r\n        require(start[uint(Battle.HPOP)].toUint() == cryptoMonOP.stats.hp , \"Opponent HP does not match\");\r\n        require(start[uint(Battle.Status1OP)].toBoolean() == false        , \"Opponent Status1 should be false\");\r\n        require(start[uint(Battle.Status2OP)].toBoolean() == false        , \"Opponent Status2 should be false\");\r\n        require(start[uint(Battle.ChargeOP)].toUint() == INITIAL_CHARGES  , \"Opponent charges must be initial\");\r\n    }\r\n\r\n    function validateTurnTransition(bytes memory oldState, uint turnNum, bytes memory newState) public view {\r\n        if(turnNum == 0) {\r\n            validateInitialTransition(oldState, newState);\r\n        } else if(turnNum%2 == 0) {\r\n            validateEvenToOdd(oldState, newState, isOver(newState, turnNum));\r\n        } else {\r\n            validateOddToEven(oldState, newState, turnNum == 1);\r\n        }\r\n    }\r\n\r\n    function validateTransitionKeepBasics(RLPReader.RLPItem[] memory first, RLPReader.RLPItem[] memory second) private pure {\r\n        //Player\r\n        require(first[uint(Battle.CryptoMonPL)].toUint() == second[uint(Battle.CryptoMonPL)].toUint() , \"Player Cryptomon must stay same\");\r\n        require(first[uint(Battle.HPPL)].toUint()        == second[uint(Battle.HPPL)].toUint()        , \"Player HP must stay same\");\r\n        require(first[uint(Battle.Status1PL)].toBoolean()== second[uint(Battle.Status1PL)].toBoolean(), \"Player Status1 must stay same\");\r\n        require(first[uint(Battle.Status2PL)].toBoolean()== second[uint(Battle.Status2PL)].toBoolean(), \"Player Status2 must stay same\");\r\n        require(first[uint(Battle.ChargePL)].toUint()    == second[uint(Battle.ChargePL)].toUint()    , \"Player charges must stay same\");\r\n        //Opponent\r\n        require(first[uint(Battle.CryptoMonOP)].toUint() == second[uint(Battle.CryptoMonOP)].toUint()  , \"Opponent Cryptomon must stay same\");\r\n        require(first[uint(Battle.HPOP)].toUint()        == second[uint(Battle.HPOP)].toUint()         , \"Opponent HP must stay same\");\r\n        require(first[uint(Battle.Status1OP)].toBoolean()== second[uint(Battle.Status1OP)].toBoolean() , \"Opponent Status1 must stay same\");\r\n        require(first[uint(Battle.Status2OP)].toBoolean()== second[uint(Battle.Status2OP)].toBoolean() , \"Opponent Status2 must stay same\");\r\n        require(first[uint(Battle.ChargeOP)].toUint()    == second[uint(Battle.ChargeOP)].toUint()     , \"Opponent charges must stay same\");\r\n    }\r\n\r\n    function validateInitialTransition(bytes memory startState, bytes memory firstTurn) public pure {\r\n        RLPReader.RLPItem[] memory start = startState.toRlpItem().toList();\r\n        RLPReader.RLPItem[] memory first = firstTurn.toRlpItem().toList();\r\n\r\n        require(start.length == uint(Battle.ChargeOP) + 1    , \"Invalid start turn RLP length\");\r\n        require(first.length == uint(Battle.HashDecision) + 1, \"Invalid first turn RLP length\");\r\n        validateTransitionKeepBasics(start, first);\r\n        require(first[uint(Battle.HashDecision)].toUint() != 0, \"Opponent must provide a hash for decision\");\r\n    }\r\n\r\n    function validateEvenToOdd(bytes memory evenTurn, bytes memory oddTurn, bool isFinal) private view {\r\n        RLPReader.RLPItem[] memory even = evenTurn.toRlpItem().toList();\r\n        RLPReader.RLPItem[] memory odd  = oddTurn.toRlpItem().toList();\r\n\r\n        if(isFinal) {\r\n            require(odd.length == uint(Battle.SaltOP) + 1, \"Invalid ending turn RLP length\");\r\n        } else {\r\n            require(odd.length == uint(Battle.NextHashDecision) + 1, \"Invalid ending turn RLP length\");\r\n            require(odd[uint(Battle.NextHashDecision)].toUint() != 0, \"Opponent must provide a hash for decision\");\r\n        }\r\n\r\n        require(even[uint(Battle.CryptoMonPL)].toUint() == odd[uint(Battle.CryptoMonPL)].toUint()  , \"Player Cryptomon must stay same\");\r\n        require(even[uint(Battle.CryptoMonOP)].toUint() == odd[uint(Battle.CryptoMonOP)].toUint()  , \"Opponent Cryptomon must stay same\");\r\n        require(even[uint(Battle.HashDecision)].toUint()== odd[uint(Battle.HashDecision)].toUint() , \"HashDecision must stay same\");\r\n        require(even[uint(Battle.DecisionPL  )].toUint()== odd[uint(Battle.DecisionPL   )].toUint(), \"Player Decision must stay same\");\r\n        require(even[uint(Battle.SaltPL      )].toUint()== odd[uint(Battle.SaltPL      )].toUint() , \"Player Salt must stay same\");\r\n\r\n        require(odd[uint(Battle.DecisionPL)].toUint() <= uint(BattleDamageCalculator.Moves.STATUS2), \"Players decision invalid\");\r\n        require(odd[uint(Battle.DecisionOP)].toUint() <= uint(BattleDamageCalculator.Moves.STATUS2), \"Opponent decision invalid\");\r\n\r\n        require(bytes32(even[uint(Battle.HashDecision)].toUint()) ==\r\n            keccak256(abi.encodePacked(odd[uint(Battle.DecisionOP)].toUint(), odd[uint(Battle.SaltOP)].toUint())),\r\n                        \"Opponent decision does not match hash\");\r\n\r\n        Pokedex.Pokemon memory cryptoMonPL = getCryptoMon(even[uint(Battle.CryptoMonPL)].toUint());\r\n        Pokedex.PokemonData memory cryptoMonPLData = cryptomons.getPokemonData(cryptoMonPL.id);\r\n\r\n        Pokedex.Pokemon memory cryptoMonOP = getCryptoMon(even[uint(Battle.CryptoMonOP)].toUint());\r\n        Pokedex.PokemonData memory cryptoMonOPData = cryptomons.getPokemonData(cryptoMonOP.id);\r\n\r\n        BattleDamageCalculator.BattleState memory state = BattleDamageCalculator.BattleState(\r\n            BattleDamageCalculator.CryptoMonState(\r\n                even[uint(Battle.HPPL)].toUint(),\r\n                even[uint(Battle.Status1PL)].toBoolean(),\r\n                even[uint(Battle.Status2PL)].toBoolean(),\r\n                even[uint(Battle.ChargePL)].toUint(),\r\n                cryptoMonPL,\r\n                cryptoMonPLData,\r\n                BattleDamageCalculator.Moves(odd[uint(Battle.DecisionPL)].toUint())\r\n            ),\r\n            BattleDamageCalculator.CryptoMonState(\r\n                even[uint(Battle.HPOP)].toUint(),\r\n                even[uint(Battle.Status1OP)].toBoolean(),\r\n                even[uint(Battle.Status2OP)].toBoolean(),\r\n                even[uint(Battle.ChargeOP)].toUint(),\r\n                cryptoMonOP,\r\n                cryptoMonOPData,\r\n                BattleDamageCalculator.Moves(odd[uint(Battle.DecisionOP)].toUint())\r\n            ),\r\n            keccak256(abi.encodePacked(odd[uint(Battle.SaltPL)].toUint(), odd[uint(Battle.SaltOP)].toUint()))\r\n        );\r\n\r\n        state = state.calculateBattle();\r\n\r\n        require(state.player.hp      == odd[uint(Battle.HPPL )].toUint()        , \"Player HP after battle is incorrect\");\r\n        require(state.player.charges == odd[uint(Battle.ChargePL )].toUint()    , \"Player charges after battle is incorrect\");\r\n        require(state.player.status1 == odd[uint(Battle.Status1PL )].toBoolean(), \"Player status1 after battle is incorrect\");\r\n        require(state.player.status2 == odd[uint(Battle.Status2PL )].toBoolean(), \"Player status2 after battle is incorrect\");\r\n\r\n        require(state.opponent.hp      == odd[uint(Battle.HPOP )].toUint()        , \"Player HP after battle is incorrect\");\r\n        require(state.opponent.charges == odd[uint(Battle.ChargeOP )].toUint()    , \"Player charges after battle is incorrect\");\r\n        require(state.opponent.status1 == odd[uint(Battle.Status1OP )].toBoolean(), \"Player status1 after battle is incorrect\");\r\n        require(state.opponent.status2 == odd[uint(Battle.Status2OP )].toBoolean(), \"Player status2 after battle is incorrect\");\r\n    }\r\n\r\n    function validateOddToEven(bytes memory oddTurn, bytes memory evenTurn, bool isFirst) private view {\r\n        RLPReader.RLPItem[] memory odd = oddTurn.toRlpItem().toList();\r\n        RLPReader.RLPItem[] memory even = evenTurn.toRlpItem().toList();\r\n\r\n        bytes32 oddNewHashDec;\r\n        if(isFirst) {\r\n            require(odd.length == uint(Battle.HashDecision) + 1, \"Invalid odd turn RLP length\");\r\n            oddNewHashDec = bytes32(odd[uint(Battle.HashDecision)].toUint());\r\n        } else {\r\n            require(odd.length == uint(Battle.NextHashDecision) + 1, \"Invalid odd turn RLP length\");\r\n            oddNewHashDec = bytes32(odd[uint(Battle.NextHashDecision)].toUint());\r\n        }\r\n\r\n        require(even.length == uint(Battle.SaltPL) + 1, \"Invalid even turn RLP length\");\r\n\r\n        validateTransitionKeepBasics(odd, even);\r\n\r\n        require(oddNewHashDec == bytes32(even[uint(Battle.HashDecision)].toUint()) , \"Hash decision must stay de same\");\r\n\r\n        uint playerDecision = even[uint(Battle.DecisionPL)].toUint();\r\n        require(playerDecision <= uint(BattleDamageCalculator.Moves.STATUS2), \"Players decision invalid\");\r\n\r\n        if(BattleDamageCalculator.needsCharge(BattleDamageCalculator.Moves(playerDecision))) {\r\n            require(even[uint(Battle.ChargePL)].toUint() > 0, \"Player must have charge to make that move\");\r\n        }\r\n\r\n        Pokedex.Pokemon memory cryptoMonPL = getCryptoMon(even[uint(Battle.CryptoMonPL)].toUint());\r\n        Pokedex.PokemonData memory cryptoMonPLData = cryptomons.getPokemonData(cryptoMonPL.id);\r\n\r\n        if(BattleDamageCalculator.usesFirstType(BattleDamageCalculator.Moves(playerDecision))) {\r\n            require(cryptoMonPLData.type1 != Pokedex.Type.Unknown, \"Player attack cant be done with Unknown type\");\r\n        }\r\n\r\n        if(BattleDamageCalculator.usesSecondType(BattleDamageCalculator.Moves(playerDecision))) {\r\n            require(cryptoMonPLData.type2 != Pokedex.Type.Unknown, \"Player attack cant be done with Unknown type\");\r\n        }\r\n\r\n        require(even[uint(Battle.SaltPL)].toUint() != 0, \"Player must provide a salt\");\r\n    }\r\n\r\n    function winner(bytes memory state, uint turnNum, address player, address opponent) public pure returns (address) {\r\n        if(isOver(state, turnNum)) {\r\n            RLPReader.RLPItem[] memory ending = state.toRlpItem().toList();\r\n            uint HPPL = ending[uint(Battle.HPPL)].toUint();\r\n            uint HPOP = ending[uint(Battle.HPOP)].toUint();\r\n\r\n            if(HPPL > HPOP) {\r\n                return player;\r\n            } else if(HPOP > HPPL) {\r\n                return opponent;\r\n            } else {\r\n                revert(\"Both players at 0, there is no simultaneous damage\");\r\n            }\r\n        } else {\r\n            return address(0);\r\n        }\r\n    }\r\n\r\n    function isOver(bytes memory state, uint /*turnNum*/) public pure returns (bool) {\r\n        RLPReader.RLPItem[] memory ending = state.toRlpItem().toList();\r\n        uint HPPL = ending[uint(Battle.HPPL)].toUint();\r\n        uint HPOP = ending[uint(Battle.HPOP)].toUint();\r\n        return HPPL == 0 || HPOP == 0;\r\n    }\r\n\r\n    function mover(bytes memory /*state*/, uint turnNum, address player, address opponent) public pure returns (address) {\r\n        return turnNum%2 == 0 ? player: opponent;\r\n    }\r\n\r\n    function getCryptoMon(uint plasmaID) public view returns (Pokedex.Pokemon memory) {\r\n        if(plasmaID >= 2**64) revert(\"Invalid PlasmaID, it should be a uint64\");\r\n        (uint256 cryptoMonId, , , , ) = plasma.getPlasmaCoin(uint64(plasmaID));\r\n        return cryptomons.getCryptomon(cryptoMonId);\r\n    }\r\n\r\n    event CryptoMonBattleRequested(uint indexed gameId, address indexed player, uint indexed CryptoMon);\r\n    event CryptoMonBattleStarted(uint indexed gameId, address indexed player, uint indexed CryptoMon);\r\n\r\n    function eventRequestState(uint gameId, bytes memory state, address player, address opponent) public isApproved(msg.sender) {\r\n        RLPReader.RLPItem[] memory decoded = state.toRlpItem().toList();\r\n        uint CryptoMonPL = decoded[uint(Battle.CryptoMonPL)].toUint();\r\n        uint CryptoMonOP = decoded[uint(Battle.CryptoMonOP)].toUint();\r\n\r\n        emit CryptoMonBattleRequested(gameId, player, CryptoMonPL);\r\n        emit CryptoMonBattleRequested(gameId, opponent, CryptoMonOP);\r\n    }\r\n    function eventStartState(uint gameId, bytes memory state, address player, address opponent) public isApproved(msg.sender) {\r\n        RLPReader.RLPItem[] memory decoded = state.toRlpItem().toList();\r\n        uint CryptoMonPL = decoded[uint(Battle.CryptoMonPL)].toUint();\r\n        uint CryptoMonOP = decoded[uint(Battle.CryptoMonOP)].toUint();\r\n\r\n        emit CryptoMonBattleStarted(gameId, player, CryptoMonPL);\r\n        emit CryptoMonBattleStarted(gameId, opponent, CryptoMonOP);\r\n    }\r\n\r\n    //VALIDATOR\r\n    mapping (address => bool) public validators;\r\n\r\n    function setValidator(address _address, bool value) public onlyOwner {\r\n        validators[_address] = value;\r\n    }\r\n\r\n    modifier isApproved(address _address) {\r\n        require(validators[_address], \"Events can only be triggered by validators\");\r\n        _;\r\n    }\r\n\r\n\r\n}\r\n",
  "sourcePath": "C:/Users/Mariano/IdeaProjects/Plasma-Cash-RootChain/contracts/Battles/CryptMonBattles.sol",
  "compiler": {
    "name": "solc",
    "version": "0.5.2+commit.1df8f40c.Emscripten.clang"
  },
  "schemaVersion": "3.0.14",
  "updatedAt": "2019-10-27T16:53:47.130Z",
  "devdoc": {
    "methods": {
      "isOwner()": {
        "return": "true if `msg.sender` is the owner of the contract."
      },
      "owner()": {
        "return": "the address of the owner."
      },
      "renounceOwnership()": {
        "details": "Allows the current owner to relinquish control of the contract. It will not be possible to call the functions with the `onlyOwner` modifier anymore."
      },
      "transferOwnership(address)": {
        "details": "Allows the current owner to transfer control of the contract to a newOwner.",
        "params": {
          "newOwner": "The address to transfer ownership to."
        }
      }
    }
  },
  "userdoc": {
    "methods": {
      "renounceOwnership()": {
        "notice": "Renouncing ownership will leave the contract without an owner, thereby removing any functionality that is only available to the owner."
      }
    }
  }
}