{
  "contractName": "CryptoMonBattles",
  "abi": [
    {
      "constant": false,
      "inputs": [],
      "name": "renounceOwnership",
      "outputs": [],
      "payable": false,
      "stateMutability": "nonpayable",
      "type": "function"
    },
    {
      "constant": true,
      "inputs": [],
      "name": "owner",
      "outputs": [
        {
          "name": "",
          "type": "address"
        }
      ],
      "payable": false,
      "stateMutability": "view",
      "type": "function"
    },
    {
      "constant": true,
      "inputs": [],
      "name": "isOwner",
      "outputs": [
        {
          "name": "",
          "type": "bool"
        }
      ],
      "payable": false,
      "stateMutability": "view",
      "type": "function"
    },
    {
      "constant": false,
      "inputs": [
        {
          "name": "newOwner",
          "type": "address"
        }
      ],
      "name": "transferOwnership",
      "outputs": [],
      "payable": false,
      "stateMutability": "nonpayable",
      "type": "function"
    },
    {
      "constant": true,
      "inputs": [
        {
          "name": "",
          "type": "address"
        }
      ],
      "name": "validators",
      "outputs": [
        {
          "name": "",
          "type": "bool"
        }
      ],
      "payable": false,
      "stateMutability": "view",
      "type": "function"
    },
    {
      "inputs": [
        {
          "name": "_rootChain",
          "type": "address"
        },
        {
          "name": "_cryptomons",
          "type": "address"
        }
      ],
      "payable": false,
      "stateMutability": "nonpayable",
      "type": "constructor"
    },
    {
      "anonymous": false,
      "inputs": [
        {
          "indexed": true,
          "name": "gameId",
          "type": "uint256"
        },
        {
          "indexed": true,
          "name": "player",
          "type": "address"
        },
        {
          "indexed": true,
          "name": "CryptoMon",
          "type": "uint256"
        }
      ],
      "name": "CryptoMonBattleRequested",
      "type": "event"
    },
    {
      "anonymous": false,
      "inputs": [
        {
          "indexed": true,
          "name": "gameId",
          "type": "uint256"
        },
        {
          "indexed": true,
          "name": "player",
          "type": "address"
        },
        {
          "indexed": true,
          "name": "CryptoMon",
          "type": "uint256"
        }
      ],
      "name": "CryptoMonBattleStarted",
      "type": "event"
    },
    {
      "anonymous": false,
      "inputs": [
        {
          "indexed": true,
          "name": "previousOwner",
          "type": "address"
        },
        {
          "indexed": true,
          "name": "newOwner",
          "type": "address"
        }
      ],
      "name": "OwnershipTransferred",
      "type": "event"
    },
    {
      "constant": true,
      "inputs": [
        {
          "name": "state",
          "type": "bytes"
        },
        {
          "name": "players",
          "type": "address[2]"
        },
        {
          "name": "exitDataIndex",
          "type": "uint256"
        },
        {
          "name": "exitData",
          "type": "bytes"
        }
      ],
      "name": "validateStartState",
      "outputs": [
        {
          "components": [
            {
              "name": "slot",
              "type": "uint64"
            },
            {
              "name": "prevOwner",
              "type": "address"
            },
            {
              "name": "owner",
              "type": "address"
            },
            {
              "name": "createdAt",
              "type": "uint256"
            },
            {
              "name": "prevBlock",
              "type": "uint256"
            },
            {
              "name": "exitBlock",
              "type": "uint256"
            }
          ],
          "name": "",
          "type": "tuple[]"
        }
      ],
      "payable": false,
      "stateMutability": "view",
      "type": "function"
    },
    {
      "constant": true,
      "inputs": [
        {
          "name": "oldState",
          "type": "bytes"
        },
        {
          "name": "turnNum",
          "type": "uint256"
        },
        {
          "name": "newState",
          "type": "bytes"
        }
      ],
      "name": "validateTurnTransition",
      "outputs": [],
      "payable": false,
      "stateMutability": "view",
      "type": "function"
    },
    {
      "constant": true,
      "inputs": [
        {
          "name": "startState",
          "type": "bytes"
        },
        {
          "name": "firstTurn",
          "type": "bytes"
        }
      ],
      "name": "validateInitialTransition",
      "outputs": [],
      "payable": false,
      "stateMutability": "pure",
      "type": "function"
    },
    {
      "constant": true,
      "inputs": [
        {
          "name": "state",
          "type": "bytes"
        },
        {
          "name": "turnNum",
          "type": "uint256"
        },
        {
          "name": "player",
          "type": "address"
        },
        {
          "name": "opponent",
          "type": "address"
        }
      ],
      "name": "winner",
      "outputs": [
        {
          "name": "",
          "type": "address"
        }
      ],
      "payable": false,
      "stateMutability": "pure",
      "type": "function"
    },
    {
      "constant": true,
      "inputs": [
        {
          "name": "state",
          "type": "bytes"
        },
        {
          "name": "",
          "type": "uint256"
        }
      ],
      "name": "isOver",
      "outputs": [
        {
          "name": "",
          "type": "bool"
        }
      ],
      "payable": false,
      "stateMutability": "pure",
      "type": "function"
    },
    {
      "constant": true,
      "inputs": [
        {
          "name": "",
          "type": "bytes"
        },
        {
          "name": "turnNum",
          "type": "uint256"
        },
        {
          "name": "player",
          "type": "address"
        },
        {
          "name": "opponent",
          "type": "address"
        }
      ],
      "name": "mover",
      "outputs": [
        {
          "name": "",
          "type": "address"
        }
      ],
      "payable": false,
      "stateMutability": "pure",
      "type": "function"
    },
    {
      "constant": true,
      "inputs": [
        {
          "name": "plasmaID",
          "type": "uint256"
        }
      ],
      "name": "getCryptoMon",
      "outputs": [
        {
          "components": [
            {
              "name": "id",
              "type": "uint8"
            },
            {
              "name": "gender",
              "type": "uint8"
            },
            {
              "name": "isShiny",
              "type": "bool"
            },
            {
              "components": [
                {
                  "name": "hp",
                  "type": "uint16"
                },
                {
                  "name": "atk",
                  "type": "uint16"
                },
                {
                  "name": "def",
                  "type": "uint16"
                },
                {
                  "name": "spAtk",
                  "type": "uint16"
                },
                {
                  "name": "spDef",
                  "type": "uint16"
                },
                {
                  "name": "speed",
                  "type": "uint16"
                }
              ],
              "name": "IVs",
              "type": "tuple"
            },
            {
              "components": [
                {
                  "name": "hp",
                  "type": "uint16"
                },
                {
                  "name": "atk",
                  "type": "uint16"
                },
                {
                  "name": "def",
                  "type": "uint16"
                },
                {
                  "name": "spAtk",
                  "type": "uint16"
                },
                {
                  "name": "spDef",
                  "type": "uint16"
                },
                {
                  "name": "speed",
                  "type": "uint16"
                }
              ],
              "name": "stats",
              "type": "tuple"
            }
          ],
          "name": "",
          "type": "tuple"
        }
      ],
      "payable": false,
      "stateMutability": "view",
      "type": "function"
    },
    {
      "constant": false,
      "inputs": [
        {
          "name": "gameId",
          "type": "uint256"
        },
        {
          "name": "state",
          "type": "bytes"
        },
        {
          "name": "player",
          "type": "address"
        },
        {
          "name": "opponent",
          "type": "address"
        }
      ],
      "name": "eventRequestState",
      "outputs": [],
      "payable": false,
      "stateMutability": "nonpayable",
      "type": "function"
    },
    {
      "constant": false,
      "inputs": [
        {
          "name": "gameId",
          "type": "uint256"
        },
        {
          "name": "state",
          "type": "bytes"
        },
        {
          "name": "player",
          "type": "address"
        },
        {
          "name": "opponent",
          "type": "address"
        }
      ],
      "name": "eventStartState",
      "outputs": [],
      "payable": false,
      "stateMutability": "nonpayable",
      "type": "function"
    },
    {
      "constant": false,
      "inputs": [
        {
          "name": "_address",
          "type": "address"
        },
        {
          "name": "value",
          "type": "bool"
        }
      ],
      "name": "setValidator",
      "outputs": [],
      "payable": false,
      "stateMutability": "nonpayable",
      "type": "function"
    }
  ],
  "bytecode": "0x60806040523480156200001157600080fd5b506040516040806200a9698339810180604052620000339190810190620001a5565b336000806101000a81548173ffffffffffffffffffffffffffffffffffffffff021916908373ffffffffffffffffffffffffffffffffffffffff1602179055506000809054906101000a900473ffffffffffffffffffffffffffffffffffffffff1673ffffffffffffffffffffffffffffffffffffffff16600073ffffffffffffffffffffffffffffffffffffffff167f8be0079c531659141344cd1fd0a4f28419497f9722a3daafe3b4186f6b6457e060405160405180910390a381600160006101000a81548173ffffffffffffffffffffffffffffffffffffffff021916908373ffffffffffffffffffffffffffffffffffffffff16021790555080600260006101000a81548173ffffffffffffffffffffffffffffffffffffffff021916908373ffffffffffffffffffffffffffffffffffffffff160217905550505062000256565b60006200018782516200022e565b905092915050565b60006200019d825162000242565b905092915050565b60008060408385031215620001b957600080fd5b6000620001c9858286016200018f565b9250506020620001dc8582860162000179565b9150509250929050565b6000620001f3826200020e565b9050919050565b600062000207826200020e565b9050919050565b600073ffffffffffffffffffffffffffffffffffffffff82169050919050565b60006200023b82620001e6565b9050919050565b60006200024f82620001fa565b9050919050565b61a70380620002666000396000f3fe608060405234801561001057600080fd5b5060043610610112576000357c0100000000000000000000000000000000000000000000000000000000900480639608d1d3116100b4578063ca62b96e11610083578063ca62b96e14610279578063d2f6722c146102a9578063f2fde38b146102d9578063fa52c7d8146102f557610112565b80639608d1d3146101e1578063a3cd4eca14610211578063afb531c114610241578063be8290e21461025d57610112565b8063748eaa74116100f0578063748eaa74146101595780638cfd80d8146101895780638da5cb5b146101a55780638f32d59b146101c357610112565b806332a4b4eb146101175780634623c91d14610133578063715018a61461014f575b600080fd5b610131600480360361012c919081019061893b565b610325565b005b61014d60048036036101489190810190618604565b6104bd565b005b61015761052b565b005b610173600480360361016e9190810190618912565b6105fd565b604051610180919061a409565b60405180910390f35b6101a3600480360361019e919081019061883f565b6107f1565b005b6101ad61084c565b6040516101ba9190619bf2565b60405180910390f35b6101cb610875565b6040516101d89190619c2f565b60405180910390f35b6101fb60048036036101f691908101906187c4565b6108cc565b6040516102089190619bf2565b60405180910390f35b61022b60048036036102269190810190618669565b6109c0565b6040516102389190619c0d565b60405180910390f35b61025b6004803603610256919081019061893b565b611649565b005b61027760048036036102729190810190618704565b6117e1565b005b610293600480360361028e91908101906187c4565b611934565b6040516102a09190619bf2565b60405180910390f35b6102c360048036036102be9190810190618770565b61195b565b6040516102d09190619c2f565b60405180910390f35b6102f360048036036102ee91908101906185db565b6119ec565b005b61030f600480360361030a91908101906185db565b611a0b565b60405161031c9190619c2f565b60405180910390f35b33600360008273ffffffffffffffffffffffffffffffffffffffff1673ffffffffffffffffffffffffffffffffffffffff16815260200190815260200160002060009054906101000a900460ff1615156103b4576040517f08c379a00000000000000000000000000000000000000000000000000000000081526004016103ab90619f49565b60405180910390fd5b60606103c76103c286611a2b565b611a59565b905060006103f7826000600f8111156103dc57fe5b8151811015156103e857fe5b90602001906020020151611b6c565b90506000610427836005600f81111561040c57fe5b81518110151561041857fe5b90602001906020020151611b6c565b9050818673ffffffffffffffffffffffffffffffffffffffff16897fe347f51b2c52adb2dc38a860aba042721bb546727c26d4a52d86dd4bcfb2567460405160405180910390a4808573ffffffffffffffffffffffffffffffffffffffff16897fe347f51b2c52adb2dc38a860aba042721bb546727c26d4a52d86dd4bcfb2567460405160405180910390a45050505050505050565b6104c5610875565b15156104d057600080fd5b80600360008473ffffffffffffffffffffffffffffffffffffffff1673ffffffffffffffffffffffffffffffffffffffff16815260200190815260200160002060006101000a81548160ff0219169083151502179055505050565b610533610875565b151561053e57600080fd5b600073ffffffffffffffffffffffffffffffffffffffff166000809054906101000a900473ffffffffffffffffffffffffffffffffffffffff1673ffffffffffffffffffffffffffffffffffffffff167f8be0079c531659141344cd1fd0a4f28419497f9722a3daafe3b4186f6b6457e060405160405180910390a360008060006101000a81548173ffffffffffffffffffffffffffffffffffffffff021916908373ffffffffffffffffffffffffffffffffffffffff160217905550565b610605617f13565b6801000000000000000082101515610652576040517f08c379a00000000000000000000000000000000000000000000000000000000081526004016106499061a389565b60405180910390fd5b6000600160009054906101000a900473ffffffffffffffffffffffffffffffffffffffff1673ffffffffffffffffffffffffffffffffffffffff1663f8353cf0846040518263ffffffff167c01000000000000000000000000000000000000000000000000000000000281526004016106cb919061a440565b60a06040518083038186803b1580156106e357600080fd5b505afa1580156106f7573d6000803e3d6000fd5b505050506040513d601f19601f8201168201806040525061071b91908101906189b6565b505050509050600260009054906101000a900473ffffffffffffffffffffffffffffffffffffffff1673ffffffffffffffffffffffffffffffffffffffff1663467fb1e4826040518263ffffffff167c0100000000000000000000000000000000000000000000000000000000028152600401610798919061a425565b6101e06040518083038186803b1580156107b157600080fd5b505afa1580156107c5573d6000803e3d6000fd5b505050506040513d601f19601f820116820180604052506107e991908101906188e8565b915050919050565b60008214156108095761080483826117e1565b610847565b600060028381151561081757fe5b06141561083757610832838261082d848661195b565b611c15565b610846565b610845838260018514612b49565b5b5b505050565b60008060009054906101000a900473ffffffffffffffffffffffffffffffffffffffff16905090565b60008060009054906101000a900473ffffffffffffffffffffffffffffffffffffffff1673ffffffffffffffffffffffffffffffffffffffff163373ffffffffffffffffffffffffffffffffffffffff1614905090565b60006108d8858561195b565b156109b35760606108f06108eb87611a2b565b611a59565b90506000610920826001600f81111561090557fe5b81518110151561091157fe5b90602001906020020151611b6c565b90506000610950836006600f81111561093557fe5b81518110151561094157fe5b90602001906020020151611b6c565b905080821115610965578593505050506109b8565b81811115610978578493505050506109b8565b6040517f08c379a00000000000000000000000000000000000000000000000000000000081526004016109aa90619ec9565b60405180910390fd5b600090505b949350505050565b606080610a18610a1389898080601f016020809104026020016040519081016040528093929190818152602001838380828437600081840152601f19601f82011690508083019250505050505050611a2b565b611a59565b905060016009600f811115610a2957fe5b018151141515610a6e576040517f08c379a0000000000000000000000000000000000000000000000000000000008152600401610a6590619e69565b60405180910390fd5b610a76617f13565b610aaa610aa5836000600f811115610a8a57fe5b815181101515610a9657fe5b90602001906020020151611b6c565b6105fd565b90506000816000015160ff16111515610af8576040517f08c379a0000000000000000000000000000000000000000000000000000000008152600401610aef9061a3c9565b60405180910390fd5b80608001516000015161ffff16610b31836001600f811115610b1657fe5b815181101515610b2257fe5b90602001906020020151611b6c565b141515610b73576040517f08c379a0000000000000000000000000000000000000000000000000000000008152600401610b6a90619e09565b60405180910390fd5b60001515610ba3836002600f811115610b8857fe5b815181101515610b9457fe5b90602001906020020151613218565b1515141515610be7576040517f08c379a0000000000000000000000000000000000000000000000000000000008152600401610bde9061a169565b60405180910390fd5b60001515610c17836003600f811115610bfc57fe5b815181101515610c0857fe5b90602001906020020151613218565b1515141515610c5b576040517f08c379a0000000000000000000000000000000000000000000000000000000008152600401610c529061a209565b60405180910390fd5b6001610c89836004600f811115610c6e57fe5b815181101515610c7a57fe5b90602001906020020151611b6c565b141515610ccb576040517f08c379a0000000000000000000000000000000000000000000000000000000008152600401610cc29061a0a9565b60405180910390fd5b610cd3617f13565b610d07610d02846005600f811115610ce757fe5b815181101515610cf357fe5b90602001906020020151611b6c565b6105fd565b90506000816000015160ff16111515610d55576040517f08c379a0000000000000000000000000000000000000000000000000000000008152600401610d4c9061a3c9565b60405180910390fd5b80608001516000015161ffff16610d8e846006600f811115610d7357fe5b815181101515610d7f57fe5b90602001906020020151611b6c565b141515610dd0576040517f08c379a0000000000000000000000000000000000000000000000000000000008152600401610dc79061a369565b60405180910390fd5b60001515610e00846007600f811115610de557fe5b815181101515610df157fe5b90602001906020020151613218565b1515141515610e44576040517f08c379a0000000000000000000000000000000000000000000000000000000008152600401610e3b9061a089565b60405180910390fd5b60001515610e74846008600f811115610e5957fe5b815181101515610e6557fe5b90602001906020020151613218565b1515141515610eb8576040517f08c379a0000000000000000000000000000000000000000000000000000000008152600401610eaf90619e29565b60405180910390fd5b6001610ee6846009600f811115610ecb57fe5b815181101515610ed757fe5b90602001906020020151611b6c565b141515610f28576040517f08c379a0000000000000000000000000000000000000000000000000000000008152600401610f1f9061a349565b60405180910390fd5b6060610f7f610f7a88888080601f016020809104026020016040519081016040528093929190818152602001838380828437600081840152601f19601f82011690508083019250505050505050611a2b565b611a59565b905060008060008a1415610fec578a6000600281101515610f9c57fe5b602002013573ffffffffffffffffffffffffffffffffffffffff169150610fe5866000600f811115610fca57fe5b815181101515610fd657fe5b90602001906020020151611b6c565b9050611047565b8a6001600281101515610ffb57fe5b602002013573ffffffffffffffffffffffffffffffffffffffff169150611044866005600f81111561102957fe5b81518110151561103557fe5b90602001906020020151611b6c565b90505b61104f617f60565b60018451141561120957600080600160009054906101000a900473ffffffffffffffffffffffffffffffffffffffff1673ffffffffffffffffffffffffffffffffffffffff1663f8353cf0856040518263ffffffff167c01000000000000000000000000000000000000000000000000000000000281526004016110d3919061a440565b60a06040518083038186803b1580156110eb57600080fd5b505afa1580156110ff573d6000803e3d6000fd5b505050506040513d601f19601f8201168201806040525061112391908101906189b6565b505092509250508473ffffffffffffffffffffffffffffffffffffffff168173ffffffffffffffffffffffffffffffffffffffff1614151561119a576040517f08c379a00000000000000000000000000000000000000000000000000000000081526004016111919061a3e9565b60405180910390fd5b60c0604051908101604052808567ffffffffffffffff168152602001600073ffffffffffffffffffffffffffffffffffffffff1681526020018273ffffffffffffffffffffffffffffffffffffffff1681526020014281526020016000815260200183815250925050506115d7565b611211617fcd565b61123d856001600781111561122257fe5b81518110151561122e57fe5b90602001906020020151611b6c565b81600060028110151561124c57fe5b602002018181525050611281856002600781111561126657fe5b81518110151561127257fe5b90602001906020020151611b6c565b81600160028110151561129057fe5b60200201818152505060016007808111156112a757fe5b0185511415156112ec576040517f08c379a00000000000000000000000000000000000000000000000000000000081526004016112e390619fa9565b60405180910390fd5b61132061131b866004600781111561130057fe5b81518110151561130c57fe5b9060200190602002015161328f565b613353565b73ffffffffffffffffffffffffffffffffffffffff168473ffffffffffffffffffffffffffffffffffffffff1614151561138f576040517f08c379a00000000000000000000000000000000000000000000000000000000081526004016113869061a129565b60405180910390fd5b600160009054906101000a900473ffffffffffffffffffffffffffffffffffffffff1673ffffffffffffffffffffffffffffffffffffffff1663ac970bc46113f987600360078111156113de57fe5b8151811015156113ea57fe5b9060200190602002015161328f565b611425886004600781111561140a57fe5b81518110151561141657fe5b9060200190602002015161328f565b611451896005600781111561143657fe5b81518110151561144257fe5b9060200190602002015161328f565b61147d8a6006600781111561146257fe5b81518110151561146e57fe5b9060200190602002015161328f565b6114a88b60078081111561148d57fe5b81518110151561149957fe5b9060200190602002015161328f565b876040518763ffffffff167c01000000000000000000000000000000000000000000000000000000000281526004016114e696959493929190619c4a565b60006040518083038186803b1580156114fe57600080fd5b505afa158015611512573d6000803e3d6000fd5b5050505060c0604051908101604052808467ffffffffffffffff168152602001611566611561886003600781111561154657fe5b81518110151561155257fe5b9060200190602002015161328f565b613353565b73ffffffffffffffffffffffffffffffffffffffff1681526020018573ffffffffffffffffffffffffffffffffffffffff1681526020014281526020018260006002811015156115b257fe5b602002015181526020018260016002811015156115cb57fe5b60200201518152509150505b6060600160405190808252806020026020018201604052801561161457816020015b611601617fef565b8152602001906001900390816115f95790505b5090508181600081518110151561162757fe5b9060200190602002018190525080985050505050505050509695505050505050565b33600360008273ffffffffffffffffffffffffffffffffffffffff1673ffffffffffffffffffffffffffffffffffffffff16815260200190815260200160002060009054906101000a900460ff1615156116d8576040517f08c379a00000000000000000000000000000000000000000000000000000000081526004016116cf90619f49565b60405180910390fd5b60606116eb6116e686611a2b565b611a59565b9050600061171b826000600f81111561170057fe5b81518110151561170c57fe5b90602001906020020151611b6c565b9050600061174b836005600f81111561173057fe5b81518110151561173c57fe5b90602001906020020151611b6c565b9050818673ffffffffffffffffffffffffffffffffffffffff16897f503d5d704014c475b98c9861a0e457d66badaaeda096375d871241d5f456025960405160405180910390a4808573ffffffffffffffffffffffffffffffffffffffff16897f503d5d704014c475b98c9861a0e457d66badaaeda096375d871241d5f456025960405160405180910390a45050505050505050565b60606117f46117ef84611a2b565b611a59565b9050606061180961180484611a2b565b611a59565b905060016009600f81111561181a57fe5b01825114151561185f576040517f08c379a000000000000000000000000000000000000000000000000000000000815260040161185690619d69565b60405180910390fd5b6001600a600f81111561186e57fe5b0181511415156118b3576040517f08c379a00000000000000000000000000000000000000000000000000000000081526004016118aa90619d09565b60405180910390fd5b6118bd8282613418565b60006118eb82600a600f8111156118d057fe5b8151811015156118dc57fe5b90602001906020020151611b6c565b1415151561192e576040517f08c379a00000000000000000000000000000000000000000000000000000000081526004016119259061a149565b60405180910390fd5b50505050565b60008060028581151561194357fe5b061461194f5781611951565b825b9050949350505050565b6000606061197061196b85611a2b565b611a59565b905060006119a0826001600f81111561198557fe5b81518110151561199157fe5b90602001906020020151611b6c565b905060006119d0836006600f8111156119b557fe5b8151811015156119c157fe5b90602001906020020151611b6c565b905060008214806119e15750600081145b935050505092915050565b6119f4610875565b15156119ff57600080fd5b611a0881613a30565b50565b60036020528060005260406000206000915054906101000a900460ff1681565b611a3361805c565b600060208301905060408051908101604052808451815260200182815250915050919050565b6060611a6482613b2a565b1515611aa5576040517f08c379a0000000000000000000000000000000000000000000000000000000008152600401611a9c90619f69565b60405180910390fd5b6000611ab083613b78565b905080604051908082528060200260200182016040528015611aec57816020015b611ad9618076565b815260200190600190039081611ad15790505b5091506000611afe8460200151613be9565b8460200151019050600080600090505b83811015611b6357611b1f83613c72565b91506040805190810160405280838152602001848152508582815181101515611b4457fe5b9060200190602002018190525081830192508080600101915050611b0e565b50505050919050565b6000808260000151118015611b8657506021826000015111155b1515611bc7576040517f08c379a0000000000000000000000000000000000000000000000000000000008152600401611bbe9061a0e9565b60405180910390fd5b6000611bd68360200151613be9565b90506000818460000151039050600080838660200151019050805191506020831015611c0957826020036101000a820491505b81945050505050919050565b6060611c28611c2385611a2b565b611a59565b90506060611c3d611c3885611a2b565b611a59565b90508215611c9e576001600e600f811115611c5457fe5b018151141515611c99576040517f08c379a0000000000000000000000000000000000000000000000000000000008152600401611c9090619f89565b60405180910390fd5b611d62565b6001600f80811115611cac57fe5b018151141515611cf1576040517f08c379a0000000000000000000000000000000000000000000000000000000008152600401611ce890619f89565b60405180910390fd5b6000611d1e82600f80811115611d0357fe5b815181101515611d0f57fe5b90602001906020020151611b6c565b14151515611d61576040517f08c379a0000000000000000000000000000000000000000000000000000000008152600401611d589061a149565b60405180910390fd5b5b611d8e816000600f811115611d7357fe5b815181101515611d7f57fe5b90602001906020020151611b6c565b611dba836000600f811115611d9f57fe5b815181101515611dab57fe5b90602001906020020151611b6c565b141515611dfc576040517f08c379a0000000000000000000000000000000000000000000000000000000008152600401611df39061a029565b60405180910390fd5b611e28816005600f811115611e0d57fe5b815181101515611e1957fe5b90602001906020020151611b6c565b611e54836005600f811115611e3957fe5b815181101515611e4557fe5b90602001906020020151611b6c565b141515611e96576040517f08c379a0000000000000000000000000000000000000000000000000000000008152600401611e8d9061a2a9565b60405180910390fd5b611ec281600a600f811115611ea757fe5b815181101515611eb357fe5b90602001906020020151611b6c565b611eee83600a600f811115611ed357fe5b815181101515611edf57fe5b90602001906020020151611b6c565b141515611f30576040517f08c379a0000000000000000000000000000000000000000000000000000000008152600401611f2790619d49565b60405180910390fd5b611f5c81600b600f811115611f4157fe5b815181101515611f4d57fe5b90602001906020020151611b6c565b611f8883600b600f811115611f6d57fe5b815181101515611f7957fe5b90602001906020020151611b6c565b141515611fca576040517f08c379a0000000000000000000000000000000000000000000000000000000008152600401611fc190619fc9565b60405180910390fd5b611ff681600c600f811115611fdb57fe5b815181101515611fe757fe5b90602001906020020151611b6c565b61202283600c600f81111561200757fe5b81518110151561201357fe5b90602001906020020151611b6c565b141515612064576040517f08c379a000000000000000000000000000000000000000000000000000000000815260040161205b90619dc9565b60405180910390fd5b60098081111561207057fe5b61209c82600b600f81111561208157fe5b81518110151561208d57fe5b90602001906020020151611b6c565b111515156120df576040517f08c379a00000000000000000000000000000000000000000000000000000000081526004016120d690619d89565b60405180910390fd5b6009808111156120eb57fe5b61211782600d600f8111156120fc57fe5b81518110151561210857fe5b90602001906020020151611b6c565b1115151561215a576040517f08c379a000000000000000000000000000000000000000000000000000000000815260040161215190619e89565b60405180910390fd5b61218681600d600f81111561216b57fe5b81518110151561217757fe5b90602001906020020151611b6c565b6121b282600e600f81111561219757fe5b8151811015156121a357fe5b90602001906020020151611b6c565b60405160200180838152602001828152602001925050506040516020818303038152906040528051906020012061220b83600a600f8111156121f057fe5b8151811015156121fc57fe5b90602001906020020151611b6c565b600102141515612250576040517f08c379a00000000000000000000000000000000000000000000000000000000081526004016122479061a2c9565b60405180910390fd5b612258617f13565b61228c612287846000600f81111561226c57fe5b81518110151561227857fe5b90602001906020020151611b6c565b6105fd565b9050612296618090565b600260009054906101000a900473ffffffffffffffffffffffffffffffffffffffff1673ffffffffffffffffffffffffffffffffffffffff16638ef9e13e83600001516040518263ffffffff167c0100000000000000000000000000000000000000000000000000000000028152600401612311919061a45b565b6101206040518083038186803b15801561232a57600080fd5b505afa15801561233e573d6000803e3d6000fd5b505050506040513d601f19601f8201168201806040525061236291908101906188be565b905061236c617f13565b6123a061239b866005600f81111561238057fe5b81518110151561238c57fe5b90602001906020020151611b6c565b6105fd565b90506123aa618090565b600260009054906101000a900473ffffffffffffffffffffffffffffffffffffffff1673ffffffffffffffffffffffffffffffffffffffff16638ef9e13e83600001516040518263ffffffff167c0100000000000000000000000000000000000000000000000000000000028152600401612425919061a45b565b6101206040518083038186803b15801561243e57600080fd5b505afa158015612452573d6000803e3d6000fd5b505050506040513d601f19601f8201168201806040525061247691908101906188be565b90506124806180d9565b60606040519081016040528060e0604051908101604052806124c48b6001600f8111156124a957fe5b8151811015156124b557fe5b90602001906020020151611b6c565b81526020016124f58b6002600f8111156124da57fe5b8151811015156124e657fe5b90602001906020020151613218565b151581526020016125288b6003600f81111561250d57fe5b81518110151561251957fe5b90602001906020020151613218565b1515815260200161255b8b6004600f81111561254057fe5b81518110151561254c57fe5b90602001906020020151611b6c565b81526020018881526020018781526020016125988a600b600f81111561257d57fe5b81518110151561258957fe5b90602001906020020151611b6c565b60098111156125a357fe5b60098111156125ae57fe5b815250815260200160e0604051908101604052806125ee8b6006600f8111156125d357fe5b8151811015156125df57fe5b90602001906020020151611b6c565b815260200161261f8b6007600f81111561260457fe5b81518110151561261057fe5b90602001906020020151613218565b151581526020016126528b6008600f81111561263757fe5b81518110151561264357fe5b90602001906020020151613218565b151581526020016126858b6009600f81111561266a57fe5b81518110151561267657fe5b90602001906020020151611b6c565b81526020018681526020018581526020016126c28a600d600f8111156126a757fe5b8151811015156126b357fe5b90602001906020020151611b6c565b60098111156126cd57fe5b60098111156126d857fe5b815250815260200161270c88600c600f8111156126f157fe5b8151811015156126fd57fe5b90602001906020020151611b6c565b61273889600e600f81111561271d57fe5b81518110151561272957fe5b90602001906020020151611b6c565b604051602001808381526020018281526020019250505060405160208183030381529060405280519060200120815250905061277381613d25565b90506127a1866001600f81111561278657fe5b81518110151561279257fe5b90602001906020020151611b6c565b8160000151600001511415156127ec576040517f08c379a00000000000000000000000000000000000000000000000000000000081526004016127e39061a069565b60405180910390fd5b612818866004600f8111156127fd57fe5b81518110151561280957fe5b90602001906020020151611b6c565b816000015160600151141515612863576040517f08c379a000000000000000000000000000000000000000000000000000000000815260040161285a9061a269565b60405180910390fd5b61288f866002600f81111561287457fe5b81518110151561288057fe5b90602001906020020151613218565b151581600001516020015115151415156128de576040517f08c379a00000000000000000000000000000000000000000000000000000000081526004016128d59061a249565b60405180910390fd5b61290a866003600f8111156128ef57fe5b8151811015156128fb57fe5b90602001906020020151613218565b15158160000151604001511515141515612959576040517f08c379a000000000000000000000000000000000000000000000000000000000815260040161295090619ce9565b60405180910390fd5b612985866006600f81111561296a57fe5b81518110151561297657fe5b90602001906020020151611b6c565b8160200151600001511415156129d0576040517f08c379a00000000000000000000000000000000000000000000000000000000081526004016129c79061a069565b60405180910390fd5b6129fc866009600f8111156129e157fe5b8151811015156129ed57fe5b90602001906020020151611b6c565b816020015160600151141515612a47576040517f08c379a0000000000000000000000000000000000000000000000000000000008152600401612a3e9061a269565b60405180910390fd5b612a73866007600f811115612a5857fe5b815181101515612a6457fe5b90602001906020020151613218565b15158160200151602001511515141515612ac2576040517f08c379a0000000000000000000000000000000000000000000000000000000008152600401612ab99061a249565b60405180910390fd5b612aee866008600f811115612ad357fe5b815181101515612adf57fe5b90602001906020020151613218565b15158160200151604001511515141515612b3d576040517f08c379a0000000000000000000000000000000000000000000000000000000008152600401612b3490619ce9565b60405180910390fd5b50505050505050505050565b6060612b5c612b5785611a2b565b611a59565b90506060612b71612b6c85611a2b565b611a59565b905060008315612c05576001600a600f811115612b8a57fe5b018351141515612bcf576040517f08c379a0000000000000000000000000000000000000000000000000000000008152600401612bc690619ee9565b60405180910390fd5b612bfb83600a600f811115612be057fe5b815181101515612bec57fe5b90602001906020020151611b6c565b6001029050612c89565b6001600f80811115612c1357fe5b018351141515612c58576040517f08c379a0000000000000000000000000000000000000000000000000000000008152600401612c4f90619ee9565b60405180910390fd5b612c8383600f80811115612c6857fe5b815181101515612c7457fe5b90602001906020020151611b6c565b60010290505b6001600c600f811115612c9857fe5b018251141515612cdd576040517f08c379a0000000000000000000000000000000000000000000000000000000008152600401612cd49061a309565b60405180910390fd5b612ce78383613418565b612d1382600a600f811115612cf857fe5b815181101515612d0457fe5b90602001906020020151611b6c565b60010281141515612d59576040517f08c379a0000000000000000000000000000000000000000000000000000000008152600401612d5090619da9565b60405180910390fd5b6000612d8783600b600f811115612d6c57fe5b815181101515612d7857fe5b90602001906020020151611b6c565b9050600980811115612d9557fe5b8111151515612dd9576040517f08c379a0000000000000000000000000000000000000000000000000000000008152600401612dd090619d89565b60405180910390fd5b612ded816009811115612de857fe5b613e8b565b15612e63576000612e20846004600f811115612e0557fe5b815181101515612e1157fe5b90602001906020020151611b6c565b111515612e62576040517f08c379a0000000000000000000000000000000000000000000000000000000008152600401612e599061a049565b60405180910390fd5b5b612e6b617f13565b612e9f612e9a856000600f811115612e7f57fe5b815181101515612e8b57fe5b90602001906020020151611b6c565b6105fd565b9050612ea9618090565b600260009054906101000a900473ffffffffffffffffffffffffffffffffffffffff1673ffffffffffffffffffffffffffffffffffffffff16638ef9e13e83600001516040518263ffffffff167c0100000000000000000000000000000000000000000000000000000000028152600401612f24919061a45b565b6101206040518083038186803b158015612f3d57600080fd5b505afa158015612f51573d6000803e3d6000fd5b505050506040513d601f19601f82011682018060405250612f7591908101906188be565b905073__BattleDamageCalculator________________62fdb437846009811115612f9c57fe5b6040518263ffffffff167c0100000000000000000000000000000000000000000000000000000000028152600401612fd49190619cce565b60206040518083038186803b158015612fec57600080fd5b505af4158015613000573d6000803e3d6000fd5b505050506040513d601f19601f820116820180604052506130249190810190618640565b156130895760128081111561303557fe5b8160200151601281111561304557fe5b14151515613088576040517f08c379a000000000000000000000000000000000000000000000000000000000815260040161307f9061a1e9565b60405180910390fd5b5b73__BattleDamageCalculator________________63da36f29c8460098111156130af57fe5b6040518263ffffffff167c01000000000000000000000000000000000000000000000000000000000281526004016130e79190619cce565b60206040518083038186803b1580156130ff57600080fd5b505af4158015613113573d6000803e3d6000fd5b505050506040513d601f19601f820116820180604052506131379190810190618640565b1561319c5760128081111561314857fe5b8160400151601281111561315857fe5b1415151561319b576040517f08c379a00000000000000000000000000000000000000000000000000000000081526004016131929061a1e9565b60405180910390fd5b5b60006131ca86600c600f8111156131af57fe5b8151811015156131bb57fe5b90602001906020020151611b6c565b1415151561320d576040517f08c379a000000000000000000000000000000000000000000000000000000000815260040161320490619e49565b60405180910390fd5b505050505050505050565b600060018260000151141515613263576040517f08c379a000000000000000000000000000000000000000000000000000000000815260040161325a9061a3a9565b60405180910390fd5b60008083602001519050805160001a915060008214613283576001613286565b60005b92505050919050565b6060600082600001511115156132da576040517f08c379a00000000000000000000000000000000000000000000000000000000081526004016132d19061a2e9565b60405180910390fd5b60006132e98360200151613be9565b905060008184600001510390506060816040519080825280601f01601f19166020018201604052801561332b5781602001600182028038833980820191505090505b5090506000816020019050613347848760200151018285613ed1565b81945050505050919050565b6000606061336861336384611a2b565b611a59565b905061337381613f3a565b156133a05761339981600281518110151561338a57fe5b90602001906020020151613f48565b9150613412565b6133a981613fa3565b156133d6576133cf8160038151811015156133c057fe5b90602001906020020151613f48565b9150613411565b6040517f08c379a00000000000000000000000000000000000000000000000000000000081526004016134089061a109565b60405180910390fd5b5b50919050565b613444816000600f81111561342957fe5b81518110151561343557fe5b90602001906020020151611b6c565b613470836000600f81111561345557fe5b81518110151561346157fe5b90602001906020020151611b6c565b1415156134b2576040517f08c379a00000000000000000000000000000000000000000000000000000000081526004016134a99061a029565b60405180910390fd5b6134de816001600f8111156134c357fe5b8151811015156134cf57fe5b90602001906020020151611b6c565b61350a836001600f8111156134ef57fe5b8151811015156134fb57fe5b90602001906020020151611b6c565b14151561354c576040517f08c379a00000000000000000000000000000000000000000000000000000000081526004016135439061a1a9565b60405180910390fd5b613578816002600f81111561355d57fe5b81518110151561356957fe5b90602001906020020151613218565b15156135a6836002600f81111561358b57fe5b81518110151561359757fe5b90602001906020020151613218565b15151415156135ea576040517f08c379a00000000000000000000000000000000000000000000000000000000081526004016135e190619f29565b60405180910390fd5b613616816003600f8111156135fb57fe5b81518110151561360757fe5b90602001906020020151613218565b1515613644836003600f81111561362957fe5b81518110151561363557fe5b90602001906020020151613218565b1515141515613688576040517f08c379a000000000000000000000000000000000000000000000000000000000815260040161367f9061a1c9565b60405180910390fd5b6136b4816004600f81111561369957fe5b8151811015156136a557fe5b90602001906020020151611b6c565b6136e0836004600f8111156136c557fe5b8151811015156136d157fe5b90602001906020020151611b6c565b141515613722576040517f08c379a00000000000000000000000000000000000000000000000000000000081526004016137199061a289565b60405180910390fd5b61374e816005600f81111561373357fe5b81518110151561373f57fe5b90602001906020020151611b6c565b61377a836005600f81111561375f57fe5b81518110151561376b57fe5b90602001906020020151611b6c565b1415156137bc576040517f08c379a00000000000000000000000000000000000000000000000000000000081526004016137b39061a2a9565b60405180910390fd5b6137e8816006600f8111156137cd57fe5b8151811015156137d957fe5b90602001906020020151611b6c565b613814836006600f8111156137f957fe5b81518110151561380557fe5b90602001906020020151611b6c565b141515613856576040517f08c379a000000000000000000000000000000000000000000000000000000000815260040161384d9061a009565b60405180910390fd5b613882816007600f81111561386757fe5b81518110151561387357fe5b90602001906020020151613218565b15156138b0836007600f81111561389557fe5b8151811015156138a157fe5b90602001906020020151613218565b15151415156138f4576040517f08c379a00000000000000000000000000000000000000000000000000000000081526004016138eb9061a189565b60405180910390fd5b613920816008600f81111561390557fe5b81518110151561391157fe5b90602001906020020151613218565b151561394e836008600f81111561393357fe5b81518110151561393f57fe5b90602001906020020151613218565b1515141515613992576040517f08c379a000000000000000000000000000000000000000000000000000000000815260040161398990619d29565b60405180910390fd5b6139be816009600f8111156139a357fe5b8151811015156139af57fe5b90602001906020020151611b6c565b6139ea836009600f8111156139cf57fe5b8151811015156139db57fe5b90602001906020020151611b6c565b141515613a2c576040517f08c379a0000000000000000000000000000000000000000000000000000000008152600401613a2390619ea9565b60405180910390fd5b5050565b600073ffffffffffffffffffffffffffffffffffffffff168173ffffffffffffffffffffffffffffffffffffffff1614151515613a6c57600080fd5b8073ffffffffffffffffffffffffffffffffffffffff166000809054906101000a900473ffffffffffffffffffffffffffffffffffffffff1673ffffffffffffffffffffffffffffffffffffffff167f8be0079c531659141344cd1fd0a4f28419497f9722a3daafe3b4186f6b6457e060405160405180910390a3806000806101000a81548173ffffffffffffffffffffffffffffffffffffffff021916908373ffffffffffffffffffffffffffffffffffffffff16021790555050565b60008082600001511415613b415760009050613b73565b60008083602001519050805160001a915060c060ff168260ff161015613b6c57600092505050613b73565b6001925050505b919050565b60008082600001511415613b8f5760009050613be4565b60008090506000613ba38460200151613be9565b84602001510190506000846000015185602001510190505b80821015613bdd57613bcc82613c72565b820191508280600101935050613bbb565b8293505050505b919050565b600080825160001a9050608060ff16811015613c09576000915050613c6d565b60b860ff16811080613c2e575060c060ff168110158015613c2d575060f860ff1681105b5b15613c3d576001915050613c6d565b60c060ff16811015613c5d5760018060b80360ff16820301915050613c6d565b60018060f80360ff168203019150505b919050565b600080825160001a9050608060ff16811015613c92576001915050613d20565b60b860ff16811015613cb0576001608060ff16820301915050613d20565b60c060ff16811015613ce05760b78103600184019350806020036101000a84510460018201810193505050613d1e565b60f860ff16811015613cfe57600160c060ff16820301915050613d20565b60f78103600184019350806020036101000a845104600182018101935050505b505b919050565b613d2d6180d9565b6000613d4183600001518460200151613fb1565b90506000613d5784602001518560000151613fb1565b90506000818310905081831415613d9557600080613d78876040015161404d565b9150915081876040018181525050600f60ff168160ff1611925050505b8015613da757613da485614073565b94505b613db0856140a9565b9450613dbb8561472e565b15613dd457613dca8582614755565b9350505050613e86565b613de5613de086614073565b6140a9565b9450613df08561472e565b15613e0a57613e00858215614755565b9350505050613e86565b613e1b613e1686614073565b61477d565b9450613e268561472e565b15613e3f57613e358582614755565b9350505050613e86565b613e50613e4b86614073565b61477d565b9450613e5b8561472e565b15613e7557613e6b858215614755565b9350505050613e86565b613e80858215614755565b93505050505b919050565b6000806009811115613e9957fe5b826009811115613ea557fe5b14158015613eca575060026009811115613ebb57fe5b826009811115613ec757fe5b14155b9050919050565b6000811415613edf57613f35565b5b602060ff1681101515613f115782518252602060ff1683019250602060ff1682019150602060ff1681039050613ee0565b6000600182602060ff16036101000a03905080198451168184511681811785525050505b505050565b600060038251149050919050565b600060158260000151141515613f93576040517f08c379a0000000000000000000000000000000000000000000000000000000008152600401613f8a9061a229565b60405180910390fd5b613f9c82611b6c565b9050919050565b600060098251149050919050565b60008083608001516080015160a0015161ffff169050836020015115613fe657613fe3818460a00151602001516148da565b90505b83604001511561400557614002818460a00151604001516148da565b90505b82604001511561402457614021818560a001516040015161497a565b90505b82604001511561404357614040818560a001516040015161497a565b90505b8091505092915050565b600080600060ff6001028416600190049050614068846149bc565b819250925050915091565b61407b6180d9565b61408361810b565b826020015190508260000151836020018190525080836000018190525082915050919050565b6140b16180d9565b600260098111156140be57fe5b826000015160c0015160098111156140d257fe5b14156140e057819050614729565b6140f1826000015160c00151613e8b565b1561415d576000826000015160600151111515614143576040517f08c379a000000000000000000000000000000000000000000000000000000000815260040161413a9061a0c9565b60405180910390fd5b600182600001516060015103826000015160600181815250505b6000600981111561416a57fe5b826000015160c00151600981111561417e57fe5b14156141f25760038260000151606001511015156141d1576040517f08c379a00000000000000000000000000000000000000000000000000000000081526004016141c890619fe9565b60405180910390fd5b60018260000151606001510182600001516060018181525050819050614729565b614203826000015160c001516149da565b156142705760128081111561421457fe5b826000015160a0015160200151601281111561422c57fe5b1415151561426f576040517f08c379a00000000000000000000000000000000000000000000000000000000081526004016142669061a1e9565b60405180910390fd5b5b614281826000015160c00151614a3f565b156142ee5760128081111561429257fe5b826000015160a001516040015160128111156142aa57fe5b141515156142ed576040517f08c379a00000000000000000000000000000000000000000000000000000000081526004016142e49061a1e9565b60405180910390fd5b5b6142ff826000015160c00151614aa3565b156144e457600080614314846040015161404d565b915091506000806143248461404d565b915091506000806143348461404d565b9150915081886040018181525050600061435789600001518a6020015184614b29565b905080156143fa5760006143758a600001518b602001518988614cc4565b905060128081111561438357fe5b8a6000015160a0015160400151601281111561439b57fe5b14156143b7576064607860ff1682028115156143b357fe5b0490505b808a602001516000015110156143db5760008a6020015160000181815250506143f4565b808a6020015160000151038a6020015160000181815250505b506144d5565b6001896000015160600151018960000151606001818152505061442589600001518a60200151615002565b156144d4576000896000015160800151608001516020015161ffff16905060008a6000015160800151608001516040015161ffff1690506000600260328385600a60026005606460020281151561447857fe5b0401020281151561448557fe5b0481151561448f57fe5b04019050808c600001516000015110156144b75760008c6000015160000181815250506144d0565b808c6000015160000151038c6000015160000181815250505b5050505b5b88975050505050505050614729565b600360098111156144f157fe5b826000015160c00151600981111561450557fe5b14156145a9576002600981111561451857fe5b826020015160c00151600981111561452c57fe5b14156145a15760006003836020015160800151608001516000015161ffff1681151561455457fe5b0461ffff16905080836020015160000151101561457f57600083602001516000018181525050614598565b8083602001516000015103836020015160000181815250505b82915050614729565b819050614729565b600660098111156145b657fe5b826000015160c0015160098111156145ca57fe5b141561463b576000806145e0846040015161404d565b91509150818460400181815250506145f88482615089565b1561461757600184602001516020019015159081151581525050614631565b600184600001516060015101846000015160600181815250505b8392505050614729565b60098081111561464757fe5b826000015160c00151600981111561465b57fe5b14156146cc57600080614671846040015161404d565b91509150818460400181815250506146898482615089565b156146a8576001846020015160400190151590811515815250506146c2565b600184600001516060015101846000015160600181815250505b8392505050614729565b600160098111156146d957fe5b826000015160c0015160098111156146ed57fe5b141561472557600082600001516020019015159081151581525050600082600001516040019015159081151581525050819050614729565b8190505b919050565b600080826000015160000151148061474e57506000826020015160000151145b9050919050565b61475d6180d9565b81156147735761476c83614073565b9050614777565b8290505b92915050565b6147856180d9565b6000826020015160200151156147b0576147ab83846000015160a0015160200151615188565b810190505b826020015160400151156147d9576147d483846000015160a0015160400151615188565b810190505b826000015160800151608001516000015161ffff168184600001516000015101101561481c5780836000015160000151018360000151600001818152505061483f565b826000015160800151608001516000015161ffff16836000015160000181815250505b60008360000151602001511561486a5761486584856020015160a00151602001516151ef565b810190505b836000015160400151156148935761488e84856020015160a00151604001516151ef565b810190505b8084600001516000015110156148b7576000846000015160000181815250506148d0565b8084600001516000015103846000015160000181815250505b8392505050919050565b6000600a60128111156148e957fe5b8260128111156148f557fe5b1415614912576064603c840281151561490a57fe5b049050614974565b600c601281111561491f57fe5b82601281111561492b57fe5b1415614948576064603c840281151561494057fe5b049050614974565b600e601281111561495557fe5b82601281111561496157fe5b14156149705760009050614974565b8290505b92915050565b60006002601281111561498957fe5b82601281111561499557fe5b14156149b2576064609684028115156149aa57fe5b0490506149b6565b8290505b92915050565b600061010082600190048115156149cf57fe5b046001029050919050565b6000600460098111156149e957fe5b8260098111156149f557fe5b1480614a17575060056009811115614a0957fe5b826009811115614a1557fe5b145b80614a38575060066009811115614a2a57fe5b826009811115614a3657fe5b145b9050919050565b600060076009811115614a4e57fe5b826009811115614a5a57fe5b1480614a7c575060086009811115614a6e57fe5b826009811115614a7a57fe5b145b80614a9c5750600980811115614a8e57fe5b826009811115614a9a57fe5b145b9050919050565b600060046009811115614ab257fe5b826009811115614abe57fe5b1480614ae0575060076009811115614ad257fe5b826009811115614ade57fe5b145b80614b01575060056009811115614af357fe5b826009811115614aff57fe5b145b80614b22575060086009811115614b1457fe5b826009811115614b2057fe5b145b9050919050565b600083602001518015614b3d575083604001515b15614c12576000614b7e8460a00151602001518560800151602001516002811115614b6457fe5b8760800151602001516002811115614b7857fe5b14615449565b90506000614bbc8560a00151604001518660800151602001516002811115614ba257fe5b8860800151602001516002811115614bb657fe5b14615449565b90506000620f4240800260ff80620f42408560ff1602811515614bdb57fe5b0460ff620f42408760ff1602811515614bf057fe5b040202811515614bfc57fe5b0490508060ff168560ff16109350505050614cbd565b836020015115614c6557614c568360a00151602001518460800151602001516002811115614c3c57fe5b8660800151602001516002811115614c5057fe5b14615449565b60ff168260ff16109050614cbd565b836040015115614cb857614ca98360a00151604001518460800151602001516002811115614c8f57fe5b8660800151602001516002811115614ca357fe5b14615449565b60ff168260ff16109050614cbd565b600190505b9392505050565b600060026009811115614cd357fe5b8460c001516009811115614ce357fe5b1415614cf25760009050614ffa565b600060046009811115614d0157fe5b8660c001516009811115614d1157fe5b1480614d37575060076009811115614d2557fe5b8660c001516009811115614d3557fe5b145b15614d94576000614d488787615599565b90506000614d568789615635565b90506002603282846014600260056064600202811515614d7257fe5b04010202811515614d7f57fe5b04811515614d8957fe5b040192505050614e70565b60056009811115614da157fe5b8660c001516009811115614db157fe5b1480614dd7575060086009811115614dc557fe5b8660c001516009811115614dd557fe5b145b15614e34576000614de887876156d1565b90506000614df6878961576d565b90506002603282846014600260056064600202811515614e1257fe5b04010202811515614e1f57fe5b04811515614e2957fe5b040192505050614e6f565b6040517f08c379a0000000000000000000000000000000000000000000000000000000008152600401614e6690619de9565b60405180910390fd5b5b6000614e7c8787615809565b60ff168560ff161090508015614e9f57606460968302811515614e9b57fe5b0491505b6000620f424060d902602660ff620f42408860ff1602811515614ebe57fe5b0402019050620f424060ff828502811515614ed557fe5b04811515614edf57fe5b0492506000614ef18960c001516149da565b15614f06578860a00151602001519050614f12565b8860a001516040015190505b6000614f2f828a60a00151602001518b60a00151604001516158c2565b60ff1690506003811415614f4a578495505050505050614ffa565b6004811115614f94576064609660ff168602811515614f6557fe5b0494506005811415614f87576064609660ff168602811515614f8357fe5b0494505b8495505050505050614ffa565b6003811015614ff1576064604b60ff168602811515614faf57fe5b0494506002811015614ff0576064604b60ff168602811515614fcd57fe5b0494506000811415614fef576064604b60ff168602811515614feb57fe5b0494505b5b5b84955050505050505b949350505050565b6000826020015180156150335750600d601281111561501d57fe5b8260a0015160200151601281111561503157fe5b145b156150415760019050615083565b826040015180156150705750600d601281111561505a57fe5b8260a0015160400151601281111561506e57fe5b145b1561507e5760019050615083565b600090505b92915050565b60008260000151602001511561510257600e60128111156150a657fe5b836020015160a001516020015160128111156150be57fe5b14151515615101576040517f08c379a00000000000000000000000000000000000000000000000000000000081526004016150f890619f09565b60405180910390fd5b5b8260000151604001511561517957600e601281111561511d57fe5b836020015160a0015160400151601281111561513557fe5b14151515615178576040517f08c379a000000000000000000000000000000000000000000000000000000000815260040161516f90619f09565b60405180910390fd5b5b60be8260ff1610905092915050565b6000600b601281111561519757fe5b8260128111156151a357fe5b14156151e457620f42406010620f4240856020015160800151608001516000015161ffff16028115156151d257fe5b048115156151dc57fe5b0490506151e9565b600090505b92915050565b6000600b60128111156151fe57fe5b82601281111561520a57fe5b141561524b57620f42406010620f4240856000015160800151608001516000015161ffff160281151561523957fe5b0481151561524357fe5b049050615443565b6003601281111561525857fe5b82601281111561526457fe5b14156152a557620f4240600a620f4240856000015160800151608001516000015161ffff160281151561529357fe5b0481151561529d57fe5b049050615443565b600960128111156152b257fe5b8260128111156152be57fe5b14156152ff57620f42406010620f4240856000015160800151608001516000015161ffff16028115156152ed57fe5b048115156152f757fe5b049050615443565b6002601281111561530c57fe5b82601281111561531857fe5b141561535957620f42406010620f4240856000015160800151608001516000015161ffff160281151561534757fe5b0481151561535157fe5b049050615443565b6005601281111561536657fe5b82601281111561537257fe5b14156153b357620f42406010620f4240856000015160800151608001516000015161ffff16028115156153a157fe5b048115156153ab57fe5b049050615443565b600460128111156153c057fe5b8260128111156153cc57fe5b1480156153fe57506153e5836000015160c00151614aa3565b806153fd57506153fc836000015160c00151617cc2565b5b5b1561543e57620f42406010620f4240856000015160800151608001516000015161ffff160281151561542c57fe5b0481151561543657fe5b049050615443565b600090505b92915050565b60006006601281111561545857fe5b83601281111561546457fe5b141561548557606460ff60646032020281151561547d57fe5b049050615593565b600c601281111561549257fe5b83601281111561549e57fe5b14156154bf57606460ff6064604b02028115156154b757fe5b049050615593565b600760128111156154cc57fe5b8360128111156154d857fe5b14156154f957606460ff6064604602028115156154f157fe5b049050615593565b600d601281111561550657fe5b83601281111561551257fe5b141561553357606460ff60646055020281151561552b57fe5b049050615593565b6011601281111561554057fe5b83601281111561554c57fe5b141561558e57811561557357606460ff60646041020281151561556b57fe5b049050615593565b606460ff6064601e020281151561558657fe5b049050615593565b600090505b92915050565b6000808360800151608001516020015161ffff1690508360200151156155ce576155cb818460a0015160200151617d05565b90505b8360400151156155ed576155ea818460a0015160400151617d05565b90505b82604001511561560c57615609818560a0015160400151617db3565b90505b82604001511561562b57615628818560a0015160400151617db3565b90505b8091505092915050565b6000808360800151608001516040015161ffff16905083602001511561566a57615667818460a0015160200151617df5565b90505b83604001511561568957615686818460a0015160400151617df5565b90505b8260400151156156a8576156a5818560a0015160400151617e00565b90505b8260400151156156c7576156c4818560a0015160400151617e00565b90505b8091505092915050565b6000808360800151608001516060015161ffff16905083602001511561570657615703818460a0015160200151617e42565b90505b83604001511561572557615722818460a0015160400151617e42565b90505b82604001511561574457615741818560a0015160400151617e84565b90505b82604001511561576357615760818560a0015160400151617e84565b90505b8091505092915050565b6000808360800151608001516080015161ffff1690508360200151156157a25761579f818460a0015160200151617ec6565b90505b8360400151156157c1576157be818460a0015160400151617ec6565b90505b8260400151156157e0576157dd818560a0015160400151617ed1565b90505b8260400151156157ff576157fc818560a0015160400151617ed1565b90505b8091505092915050565b6000808360a001516060015160a0015161ffff1690508260200151801561584e57506001601281111561583857fe5b8460a0015160200151601281111561584c57fe5b145b8061588457508260400151801561588357506001601281111561586d57fe5b8460a0015160400151601281111561588157fe5b145b5b15615894576008810290506158a4565b6002818115156158a057fe5b0490505b60ff8111156158b75760ff9150506158bc565b809150505b92915050565b60008060039050600060128111156158d657fe5b8560128111156158e257fe5b14156159c557600760128111156158f557fe5b84601281111561590157fe5b148061592357506007601281111561591557fe5b83601281111561592157fe5b145b15615932576000915050617cbb565b6005601281111561593f57fe5b84601281111561594b57fe5b148061596d57506005601281111561595f57fe5b83601281111561596b57fe5b145b15615979576001810390505b6008601281111561598657fe5b84601281111561599257fe5b14806159b45750600860128111156159a657fe5b8360128111156159b257fe5b145b156159c0576001810390505b617cb6565b600160128111156159d257fe5b8560128111156159de57fe5b1415615cb257600760128111156159f157fe5b8460128111156159fd57fe5b1480615a1f575060076012811115615a1157fe5b836012811115615a1d57fe5b145b15615a2e576000915050617cbb565b60056012811115615a3b57fe5b846012811115615a4757fe5b1480615a69575060056012811115615a5b57fe5b836012811115615a6757fe5b145b15615a75576001810190505b60086012811115615a8257fe5b846012811115615a8e57fe5b1480615ab0575060086012811115615aa257fe5b836012811115615aae57fe5b145b15615abc576001810190505b600e6012811115615ac957fe5b846012811115615ad557fe5b1480615af75750600e6012811115615ae957fe5b836012811115615af557fe5b145b15615b03576001810190505b60106012811115615b1057fe5b846012811115615b1c57fe5b1480615b3e575060106012811115615b3057fe5b836012811115615b3c57fe5b145b15615b4a576001810190505b60026012811115615b5757fe5b846012811115615b6357fe5b1480615b85575060026012811115615b7757fe5b836012811115615b8357fe5b145b15615b91576001810390505b60036012811115615b9e57fe5b846012811115615baa57fe5b1480615bcc575060036012811115615bbe57fe5b836012811115615bca57fe5b145b15615bd8576001810390505b600d6012811115615be557fe5b846012811115615bf157fe5b1480615c135750600d6012811115615c0557fe5b836012811115615c1157fe5b145b15615c1f576001810390505b60066012811115615c2c57fe5b846012811115615c3857fe5b1480615c5a575060066012811115615c4c57fe5b836012811115615c5857fe5b145b15615c66576001810390505b60116012811115615c7357fe5b846012811115615c7f57fe5b1480615ca1575060116012811115615c9357fe5b836012811115615c9f57fe5b145b15615cad576001810390505b617cb5565b60026012811115615cbf57fe5b856012811115615ccb57fe5b1415615e805760016012811115615cde57fe5b846012811115615cea57fe5b1480615d0c575060016012811115615cfe57fe5b836012811115615d0a57fe5b145b15615d18576001810190505b60066012811115615d2557fe5b846012811115615d3157fe5b1480615d53575060066012811115615d4557fe5b836012811115615d5157fe5b145b15615d5f576001810190505b600b6012811115615d6c57fe5b846012811115615d7857fe5b1480615d9a5750600b6012811115615d8c57fe5b836012811115615d9857fe5b145b15615da6576001810190505b60056012811115615db357fe5b846012811115615dbf57fe5b1480615de1575060056012811115615dd357fe5b836012811115615ddf57fe5b145b15615ded576001810390505b60086012811115615dfa57fe5b846012811115615e0657fe5b1480615e28575060086012811115615e1a57fe5b836012811115615e2657fe5b145b15615e34576001810390505b600c6012811115615e4157fe5b846012811115615e4d57fe5b1480615e6f5750600c6012811115615e6157fe5b836012811115615e6d57fe5b145b15615e7b576001810390505b617cb4565b60036012811115615e8d57fe5b856012811115615e9957fe5b14156160985760086012811115615eac57fe5b846012811115615eb857fe5b1480615eda575060086012811115615ecc57fe5b836012811115615ed857fe5b145b15615ee9576000915050617cbb565b600b6012811115615ef657fe5b846012811115615f0257fe5b1480615f245750600b6012811115615f1657fe5b836012811115615f2257fe5b145b15615f30576001810190505b60116012811115615f3d57fe5b846012811115615f4957fe5b1480615f6b575060116012811115615f5d57fe5b836012811115615f6957fe5b145b15615f77576001810190505b60036012811115615f8457fe5b846012811115615f9057fe5b1480615fb2575060036012811115615fa457fe5b836012811115615fb057fe5b145b15615fbe576001810390505b60046012811115615fcb57fe5b846012811115615fd757fe5b1480615ff9575060046012811115615feb57fe5b836012811115615ff757fe5b145b15616005576001810390505b6005601281111561601257fe5b84601281111561601e57fe5b148061604057506005601281111561603257fe5b83601281111561603e57fe5b145b1561604c576001810390505b6007601281111561605957fe5b84601281111561606557fe5b148061608757506007601281111561607957fe5b83601281111561608557fe5b145b15616093576001810390505b617cb3565b600460128111156160a557fe5b8560128111156160b157fe5b14156162f757600360128111156160c457fe5b8460128111156160d057fe5b14806160f25750600360128111156160e457fe5b8360128111156160f057fe5b145b156160fe576001810190505b6005601281111561610b57fe5b84601281111561611757fe5b148061613957506005601281111561612b57fe5b83601281111561613757fe5b145b15616145576001810190505b6008601281111561615257fe5b84601281111561615e57fe5b148061618057506008601281111561617257fe5b83601281111561617e57fe5b145b1561618c576001810190505b6009601281111561619957fe5b8460128111156161a557fe5b14806161c75750600960128111156161b957fe5b8360128111156161c557fe5b145b156161d3576001810190505b600c60128111156161e057fe5b8460128111156161ec57fe5b148061620e5750600c601281111561620057fe5b83601281111561620c57fe5b145b1561621a576001810190505b6002601281111561622757fe5b84601281111561623357fe5b148061625557506002601281111561624757fe5b83601281111561625357fe5b145b15616264576000915050617cbb565b6006601281111561627157fe5b84601281111561627d57fe5b148061629f57506006601281111561629157fe5b83601281111561629d57fe5b145b156162ab576001810390505b600b60128111156162b857fe5b8460128111156162c457fe5b14806162e65750600b60128111156162d857fe5b8360128111156162e457fe5b145b156162f2576001810390505b617cb2565b6005601281111561630457fe5b85601281111561631057fe5b141561650c576002601281111561632357fe5b84601281111561632f57fe5b148061635157506002601281111561634357fe5b83601281111561634f57fe5b145b1561635d576001810190505b6006601281111561636a57fe5b84601281111561637657fe5b148061639857506006601281111561638a57fe5b83601281111561639657fe5b145b156163a4576001810190505b600960128111156163b157fe5b8460128111156163bd57fe5b14806163df5750600960128111156163d157fe5b8360128111156163dd57fe5b145b156163eb576001810190505b600e60128111156163f857fe5b84601281111561640457fe5b14806164265750600e601281111561641857fe5b83601281111561642457fe5b145b15616432576001810190505b6001601281111561643f57fe5b84601281111561644b57fe5b148061646d57506001601281111561645f57fe5b83601281111561646b57fe5b145b15616479576001810390505b6004601281111561648657fe5b84601281111561649257fe5b14806164b45750600460128111156164a657fe5b8360128111156164b257fe5b145b156164c0576001810390505b600860128111156164cd57fe5b8460128111156164d957fe5b14806164fb5750600860128111156164ed57fe5b8360128111156164f957fe5b145b15616507576001810390505b617cb1565b6006601281111561651957fe5b85601281111561652557fe5b14156167f657600b601281111561653857fe5b84601281111561654457fe5b14806165665750600b601281111561655857fe5b83601281111561656457fe5b145b15616572576001810190505b600d601281111561657f57fe5b84601281111561658b57fe5b14806165ad5750600d601281111561659f57fe5b8360128111156165ab57fe5b145b156165b9576001810190505b601060128111156165c657fe5b8460128111156165d257fe5b14806165f45750601060128111156165e657fe5b8360128111156165f257fe5b145b15616600576001810190505b6001601281111561660d57fe5b84601281111561661957fe5b148061663b57506001601281111561662d57fe5b83601281111561663957fe5b145b15616647576001810390505b6002601281111561665457fe5b84601281111561666057fe5b148061668257506002601281111561667457fe5b83601281111561668057fe5b145b1561668e576001810390505b6003601281111561669b57fe5b8460128111156166a757fe5b14806166c95750600360128111156166bb57fe5b8360128111156166c757fe5b145b156166d5576001810390505b600760128111156166e257fe5b8460128111156166ee57fe5b148061671057506007601281111561670257fe5b83601281111561670e57fe5b145b1561671c576001810390505b6008601281111561672957fe5b84601281111561673557fe5b148061675757506008601281111561674957fe5b83601281111561675557fe5b145b15616763576001810390505b6009601281111561677057fe5b84601281111561677c57fe5b148061679e57506009601281111561679057fe5b83601281111561679c57fe5b145b156167aa576001810390505b601160128111156167b757fe5b8460128111156167c357fe5b14806167e55750601160128111156167d757fe5b8360128111156167e357fe5b145b156167f1576001810390505b617cb0565b6007601281111561680357fe5b85601281111561680f57fe5b1415616939576007601281111561682257fe5b84601281111561682e57fe5b148061685057506007601281111561684257fe5b83601281111561684e57fe5b145b1561685c576001810190505b600d601281111561686957fe5b84601281111561687557fe5b14806168975750600d601281111561688957fe5b83601281111561689557fe5b145b156168a3576001810190505b600060128111156168b057fe5b8460128111156168bc57fe5b14806168de5750600060128111156168d057fe5b8360128111156168dc57fe5b145b156168ed576000915050617cbb565b601060128111156168fa57fe5b84601281111561690657fe5b148061692857506010601281111561691a57fe5b83601281111561692657fe5b145b15616934576001810390505b617caf565b6008601281111561694657fe5b85601281111561695257fe5b1415616b4e576005601281111561696557fe5b84601281111561697157fe5b148061699357506005601281111561698557fe5b83601281111561699157fe5b145b1561699f576001810190505b600e60128111156169ac57fe5b8460128111156169b857fe5b14806169da5750600e60128111156169cc57fe5b8360128111156169d857fe5b145b156169e6576001810190505b601160128111156169f357fe5b8460128111156169ff57fe5b1480616a21575060116012811115616a1357fe5b836012811115616a1f57fe5b145b15616a2d576001810190505b60086012811115616a3a57fe5b846012811115616a4657fe5b1480616a68575060086012811115616a5a57fe5b836012811115616a6657fe5b145b15616a74576001810390505b60096012811115616a8157fe5b846012811115616a8d57fe5b1480616aaf575060096012811115616aa157fe5b836012811115616aad57fe5b145b15616abb576001810390505b600a6012811115616ac857fe5b846012811115616ad457fe5b1480616af65750600a6012811115616ae857fe5b836012811115616af457fe5b145b15616b02576001810390505b600c6012811115616b0f57fe5b846012811115616b1b57fe5b1480616b3d5750600c6012811115616b2f57fe5b836012811115616b3b57fe5b145b15616b49576001810390505b617cae565b60096012811115616b5b57fe5b856012811115616b6757fe5b1415616daa5760066012811115616b7a57fe5b846012811115616b8657fe5b1480616ba8575060066012811115616b9a57fe5b836012811115616ba657fe5b145b15616bb4576001810190505b60086012811115616bc157fe5b846012811115616bcd57fe5b1480616bef575060086012811115616be157fe5b836012811115616bed57fe5b145b15616bfb576001810190505b600b6012811115616c0857fe5b846012811115616c1457fe5b1480616c365750600b6012811115616c2857fe5b836012811115616c3457fe5b145b15616c42576001810190505b600e6012811115616c4f57fe5b846012811115616c5b57fe5b1480616c7d5750600e6012811115616c6f57fe5b836012811115616c7b57fe5b145b15616c89576001810190505b60056012811115616c9657fe5b846012811115616ca257fe5b1480616cc4575060056012811115616cb657fe5b836012811115616cc257fe5b145b15616cd0576001810390505b60096012811115616cdd57fe5b846012811115616ce957fe5b1480616d0b575060096012811115616cfd57fe5b836012811115616d0957fe5b145b15616d17576001810390505b600a6012811115616d2457fe5b846012811115616d3057fe5b1480616d525750600a6012811115616d4457fe5b836012811115616d5057fe5b145b15616d5e576001810390505b600f6012811115616d6b57fe5b846012811115616d7757fe5b1480616d995750600f6012811115616d8b57fe5b836012811115616d9757fe5b145b15616da5576001810390505b617cad565b600a6012811115616db757fe5b856012811115616dc357fe5b1415616f785760046012811115616dd657fe5b846012811115616de257fe5b1480616e04575060046012811115616df657fe5b836012811115616e0257fe5b145b15616e10576001810190505b60056012811115616e1d57fe5b846012811115616e2957fe5b1480616e4b575060056012811115616e3d57fe5b836012811115616e4957fe5b145b15616e57576001810190505b60096012811115616e6457fe5b846012811115616e7057fe5b1480616e92575060096012811115616e8457fe5b836012811115616e9057fe5b145b15616e9e576001810190505b600a6012811115616eab57fe5b846012811115616eb757fe5b1480616ed95750600a6012811115616ecb57fe5b836012811115616ed757fe5b145b15616ee5576001810390505b600b6012811115616ef257fe5b846012811115616efe57fe5b1480616f205750600b6012811115616f1257fe5b836012811115616f1e57fe5b145b15616f2c576001810390505b600f6012811115616f3957fe5b846012811115616f4557fe5b1480616f675750600f6012811115616f5957fe5b836012811115616f6557fe5b145b15616f73576001810390505b617cac565b600b6012811115616f8557fe5b856012811115616f9157fe5b14156172625760046012811115616fa457fe5b846012811115616fb057fe5b1480616fd2575060046012811115616fc457fe5b836012811115616fd057fe5b145b15616fde576001810190505b60056012811115616feb57fe5b846012811115616ff757fe5b148061701957506005601281111561700b57fe5b83601281111561701757fe5b145b15617025576001810190505b600a601281111561703257fe5b84601281111561703e57fe5b14806170605750600a601281111561705257fe5b83601281111561705e57fe5b145b1561706c576001810190505b6002601281111561707957fe5b84601281111561708557fe5b14806170a757506002601281111561709957fe5b8360128111156170a557fe5b145b156170b3576001810390505b600360128111156170c057fe5b8460128111156170cc57fe5b14806170ee5750600360128111156170e057fe5b8360128111156170ec57fe5b145b156170fa576001810390505b6006601281111561710757fe5b84601281111561711357fe5b148061713557506006601281111561712757fe5b83601281111561713357fe5b145b15617141576001810390505b6008601281111561714e57fe5b84601281111561715a57fe5b148061717c57506008601281111561716e57fe5b83601281111561717a57fe5b145b15617188576001810390505b6009601281111561719557fe5b8460128111156171a157fe5b14806171c35750600960128111156171b557fe5b8360128111156171c157fe5b145b156171cf576001810390505b600b60128111156171dc57fe5b8460128111156171e857fe5b148061720a5750600b60128111156171fc57fe5b83601281111561720857fe5b145b15617216576001810390505b600f601281111561722357fe5b84601281111561722f57fe5b14806172515750600f601281111561724357fe5b83601281111561724f57fe5b145b1561725d576001810390505b617cab565b600c601281111561726f57fe5b85601281111561727b57fe5b141561743357600a601281111561728e57fe5b84601281111561729a57fe5b14806172bc5750600a60128111156172ae57fe5b8360128111156172ba57fe5b145b156172c8576001810190505b600260128111156172d557fe5b8460128111156172e157fe5b14806173035750600260128111156172f557fe5b83601281111561730157fe5b145b1561730f576001810190505b6004601281111561731c57fe5b84601281111561732857fe5b148061734a57506004601281111561733c57fe5b83601281111561734857fe5b145b15617359576000915050617cbb565b600b601281111561736657fe5b84601281111561737257fe5b14806173945750600b601281111561738657fe5b83601281111561739257fe5b145b156173a0576001810390505b600c60128111156173ad57fe5b8460128111156173b957fe5b14806173db5750600c60128111156173cd57fe5b8360128111156173d957fe5b145b156173e7576001810390505b600f60128111156173f457fe5b84601281111561740057fe5b14806174225750600f601281111561741457fe5b83601281111561742057fe5b145b1561742e576001810390505b617caa565b600d601281111561744057fe5b85601281111561744c57fe5b14156175bd576001601281111561745f57fe5b84601281111561746b57fe5b148061748d57506001601281111561747f57fe5b83601281111561748b57fe5b145b15617499576001810190505b600360128111156174a657fe5b8460128111156174b257fe5b14806174d45750600360128111156174c657fe5b8360128111156174d257fe5b145b156174e0576001810190505b600860128111156174ed57fe5b8460128111156174f957fe5b148061751b57506008601281111561750d57fe5b83601281111561751957fe5b145b15617527576001810390505b600d601281111561753457fe5b84601281111561754057fe5b14806175625750600d601281111561755457fe5b83601281111561756057fe5b145b1561756e576001810390505b6010601281111561757b57fe5b84601281111561758757fe5b14806175a957506010601281111561759b57fe5b8360128111156175a757fe5b145b156175b8576000915050617cbb565b617ca9565b600e60128111156175ca57fe5b8560128111156175d657fe5b141561781957600260128111156175e957fe5b8460128111156175f557fe5b148061761757506002601281111561760957fe5b83601281111561761557fe5b145b15617623576001810190505b6004601281111561763057fe5b84601281111561763c57fe5b148061765e57506004601281111561765057fe5b83601281111561765c57fe5b145b1561766a576001810190505b600b601281111561767757fe5b84601281111561768357fe5b14806176a55750600b601281111561769757fe5b8360128111156176a357fe5b145b156176b1576001810190505b600f60128111156176be57fe5b8460128111156176ca57fe5b14806176ec5750600f60128111156176de57fe5b8360128111156176ea57fe5b145b156176f8576001810190505b6008601281111561770557fe5b84601281111561771157fe5b148061773357506008601281111561772557fe5b83601281111561773157fe5b145b1561773f576001810390505b6009601281111561774c57fe5b84601281111561775857fe5b148061777a57506009601281111561776c57fe5b83601281111561777857fe5b145b15617786576001810390505b600a601281111561779357fe5b84601281111561779f57fe5b14806177c15750600a60128111156177b357fe5b8360128111156177bf57fe5b145b156177cd576001810390505b600e60128111156177da57fe5b8460128111156177e657fe5b14806178085750600e60128111156177fa57fe5b83601281111561780657fe5b145b15617814576001810390505b617ca8565b600f601281111561782657fe5b85601281111561783257fe5b141561791557600f601281111561784557fe5b84601281111561785157fe5b14806178735750600f601281111561786557fe5b83601281111561787157fe5b145b1561787f576001810190505b6008601281111561788c57fe5b84601281111561789857fe5b14806178ba5750600860128111156178ac57fe5b8360128111156178b857fe5b145b156178c6576001810390505b601160128111156178d357fe5b8460128111156178df57fe5b14806179015750601160128111156178f357fe5b8360128111156178ff57fe5b145b15617910576000915050617cbb565b617ca7565b6010601281111561792257fe5b85601281111561792e57fe5b1415617a9c576007601281111561794157fe5b84601281111561794d57fe5b148061796f57506007601281111561796157fe5b83601281111561796d57fe5b145b1561797b576001810190505b600d601281111561798857fe5b84601281111561799457fe5b14806179b65750600d60128111156179a857fe5b8360128111156179b457fe5b145b156179c2576001810190505b600160128111156179cf57fe5b8460128111156179db57fe5b14806179fd5750600160128111156179ef57fe5b8360128111156179fb57fe5b145b15617a09576001810390505b60106012811115617a1657fe5b846012811115617a2257fe5b1480617a44575060106012811115617a3657fe5b836012811115617a4257fe5b145b15617a50576001810390505b60116012811115617a5d57fe5b846012811115617a6957fe5b1480617a8b575060116012811115617a7d57fe5b836012811115617a8957fe5b145b15617a97576001810390505b617ca6565b60116012811115617aa957fe5b856012811115617ab557fe5b1415617c6a5760016012811115617ac857fe5b846012811115617ad457fe5b1480617af6575060016012811115617ae857fe5b836012811115617af457fe5b145b15617b02576001810190505b600f6012811115617b0f57fe5b846012811115617b1b57fe5b1480617b3d5750600f6012811115617b2f57fe5b836012811115617b3b57fe5b145b15617b49576001810190505b60106012811115617b5657fe5b846012811115617b6257fe5b1480617b84575060106012811115617b7657fe5b836012811115617b8257fe5b145b15617b90576001810190505b60036012811115617b9d57fe5b846012811115617ba957fe5b1480617bcb575060036012811115617bbd57fe5b836012811115617bc957fe5b145b15617bd7576001810390505b60086012811115617be457fe5b846012811115617bf057fe5b1480617c12575060086012811115617c0457fe5b836012811115617c1057fe5b145b15617c1e576001810390505b60096012811115617c2b57fe5b846012811115617c3757fe5b1480617c59575060096012811115617c4b57fe5b836012811115617c5757fe5b145b15617c65576001810390505b617ca5565b6040517f08c379a0000000000000000000000000000000000000000000000000000000008152600401617c9c9061a329565b60405180910390fd5b5b5b5b5b5b5b5b5b5b5b5b5b5b5b5b5b5b809150505b9392505050565b600060066009811115617cd157fe5b826009811115617cdd57fe5b1480617cfe5750600980811115617cf057fe5b826009811115617cfc57fe5b145b9050919050565b600060096012811115617d1457fe5b826012811115617d2057fe5b1415617d3d57606460508402811515617d3557fe5b049050617dad565b60006012811115617d4a57fe5b826012811115617d5657fe5b1415617d7357606460328402811515617d6b57fe5b049050617dad565b60076012811115617d8057fe5b826012811115617d8c57fe5b1415617da957606460468402811515617da157fe5b049050617dad565b8290505b92915050565b6000600f6012811115617dc257fe5b826012811115617dce57fe5b1415617deb57606460828402811515617de357fe5b049050617def565b8290505b92915050565b600082905092915050565b600060056012811115617e0f57fe5b826012811115617e1b57fe5b1415617e3857606460968402811515617e3057fe5b049050617e3c565b8290505b92915050565b6000600a6012811115617e5157fe5b826012811115617e5d57fe5b1415617e7a57606460508402811515617e7257fe5b049050617e7e565b8290505b92915050565b6000600f6012811115617e9357fe5b826012811115617e9f57fe5b1415617ebc57606460828402811515617eb457fe5b049050617ec0565b8290505b92915050565b600082905092915050565b600060086012811115617ee057fe5b826012811115617eec57fe5b1415617f0957606460968402811515617f0157fe5b049050617f0d565b8290505b92915050565b6101e060405190810160405280600060ff16815260200160006002811115617f3757fe5b8152602001600015158152602001617f4d618165565b8152602001617f5a618165565b81525090565b60c060405190810160405280600067ffffffffffffffff168152602001600073ffffffffffffffffffffffffffffffffffffffff168152602001600073ffffffffffffffffffffffffffffffffffffffff1681526020016000815260200160008152602001600081525090565b6040805190810160405280600290602082028038833980820191505090505090565b60c060405190810160405280600067ffffffffffffffff168152602001600073ffffffffffffffffffffffffffffffffffffffff168152602001600073ffffffffffffffffffffffffffffffffffffffff1681526020016000815260200160008152602001600081525090565b604080519081016040528060008152602001600081525090565b604080519081016040528060008152602001600081525090565b61012060405190810160405280600060ff168152602001600060128111156180b457fe5b8152602001600060128111156180c657fe5b81526020016180d3618165565b81525090565b610760604051908101604052806180ee6181b4565b81526020016180fb6181b4565b8152602001600080191681525090565b6103a060405190810160405280600081526020016000151581526020016000151581526020016000815260200161814061820e565b815260200161814d61825b565b81526020016000600981111561815f57fe5b81525090565b60c060405190810160405280600061ffff168152602001600061ffff168152602001600061ffff168152602001600061ffff168152602001600061ffff168152602001600061ffff1681525090565b6103a06040519081016040528060008152602001600015158152602001600015158152602001600081526020016181e961820e565b81526020016181f661825b565b81526020016000600981111561820857fe5b81525090565b6101e060405190810160405280600060ff1681526020016000600281111561823257fe5b8152602001600015158152602001618248618165565b8152602001618255618165565b81525090565b61012060405190810160405280600060ff1681526020016000601281111561827f57fe5b81526020016000601281111561829157fe5b815260200161829e618165565b81525090565b60006182b0823561a5c4565b905092915050565b60006182c4825161a5c4565b905092915050565b6000819050826020600202820111156182e457600080fd5b92915050565b60006182f6823561a5d6565b905092915050565b600061830a825161a5d6565b905092915050565b60008083601f840112151561832657600080fd5b8235905067ffffffffffffffff81111561833f57600080fd5b60208301915083600182028301111561835757600080fd5b9250929050565b600082601f830112151561837157600080fd5b813561838461837f8261a4a3565b61a476565b915080825260208301602083018583830111156183a057600080fd5b6183ab83828461a676565b50505092915050565b60006183c0825161a5e2565b905092915050565b60006183d4825161a5fb565b905092915050565b60006183e8825161a614565b905092915050565b6000610120828403121561840357600080fd5b61840d608061a476565b9050600061841d848285016185c7565b6000830152506020618431848285016183dc565b6020830152506040618445848285016183dc565b6040830152506060618459848285016184ef565b60608301525092915050565b60006101e0828403121561847857600080fd5b61848260a061a476565b90506000618492848285016185c7565b60008301525060206184a6848285016183b4565b60208301525060406184ba848285016182fe565b60408301525060606184ce848285016184ef565b6060830152506101206184e3848285016184ef565b60808301525092915050565b600060c0828403121561850157600080fd5b61850b60c061a476565b9050600061851b8482850161858b565b600083015250602061852f8482850161858b565b60208301525060406185438482850161858b565b60408301525060606185578482850161858b565b606083015250608061856b8482850161858b565b60808301525060a061857f8482850161858b565b60a08301525092915050565b6000618597825161a62d565b905092915050565b60006185ab823561a63b565b905092915050565b60006185bf825161a63b565b905092915050565b60006185d3825161a645565b905092915050565b6000602082840312156185ed57600080fd5b60006185fb848285016182a4565b91505092915050565b6000806040838503121561861757600080fd5b6000618625858286016182a4565b9250506020618636858286016182ea565b9150509250929050565b60006020828403121561865257600080fd5b6000618660848285016182fe565b91505092915050565b60008060008060008060a0878903121561868257600080fd5b600087013567ffffffffffffffff81111561869c57600080fd5b6186a889828a01618312565b965096505060206186bb89828a016182cc565b94505060606186cc89828a0161859f565b935050608087013567ffffffffffffffff8111156186e957600080fd5b6186f589828a01618312565b92509250509295509295509295565b6000806040838503121561871757600080fd5b600083013567ffffffffffffffff81111561873157600080fd5b61873d8582860161835e565b925050602083013567ffffffffffffffff81111561875a57600080fd5b6187668582860161835e565b9150509250929050565b6000806040838503121561878357600080fd5b600083013567ffffffffffffffff81111561879d57600080fd5b6187a98582860161835e565b92505060206187ba8582860161859f565b9150509250929050565b600080600080608085870312156187da57600080fd5b600085013567ffffffffffffffff8111156187f457600080fd5b6188008782880161835e565b94505060206188118782880161859f565b9350506040618822878288016182a4565b9250506060618833878288016182a4565b91505092959194509250565b60008060006060848603121561885457600080fd5b600084013567ffffffffffffffff81111561886e57600080fd5b61887a8682870161835e565b935050602061888b8682870161859f565b925050604084013567ffffffffffffffff8111156188a857600080fd5b6188b48682870161835e565b9150509250925092565b600061012082840312156188d157600080fd5b60006188df848285016183f0565b91505092915050565b60006101e082840312156188fb57600080fd5b600061890984828501618465565b91505092915050565b60006020828403121561892457600080fd5b60006189328482850161859f565b91505092915050565b6000806000806080858703121561895157600080fd5b600061895f8782880161859f565b945050602085013567ffffffffffffffff81111561897c57600080fd5b6189888782880161835e565b9350506040618999878288016182a4565b92505060606189aa878288016182a4565b91505092959194509250565b600080600080600060a086880312156189ce57600080fd5b60006189dc888289016185b3565b95505060206189ed888289016185b3565b94505060406189fe888289016182b8565b9350506060618a0f888289016183c8565b9250506080618a20888289016182b8565b9150509295509295909350565b618a368161a521565b82525050565b6000618a478261a4e6565b808452602084019350618a598361a4cf565b60005b82811015618a8b57618a6f868351619a56565b618a788261a507565b915060c086019550600181019050618a5c565b50849250505092915050565b618aa08161a4f1565b618aa98261a4dc565b60005b82811015618adb57618abf858351619bc5565b618ac88261a514565b9150602085019450600181019050618aac565b5050505050565b618aeb8161a533565b82525050565b6000618afc8261a4fc565b808452618b1081602086016020860161a685565b618b198161a6b8565b602085010191505092915050565b618b308161a652565b82525050565b618b3f8161a664565b82525050565b6000602882527f506c61796572207374617475733220616674657220626174746c65206973206960208301527f6e636f72726563740000000000000000000000000000000000000000000000006040830152606082019050919050565b6000601d82527f496e76616c6964206669727374207475726e20524c50206c656e6774680000006020830152604082019050919050565b6000601f82527f4f70706f6e656e742053746174757332206d75737420737461792073616d65006020830152604082019050919050565b6000601b82527f486173684465636973696f6e206d75737420737461792073616d6500000000006020830152604082019050919050565b6000601d82527f496e76616c6964207374617274207475726e20524c50206c656e6774680000006020830152604082019050919050565b6000601882527f506c6179657273206465636973696f6e20696e76616c696400000000000000006020830152604082019050919050565b6000601f82527f48617368206465636973696f6e206d75737420737461792064652073616d65006020830152604082019050919050565b6000601a82527f506c617965722053616c74206d75737420737461792073616d650000000000006020830152604082019050919050565b6000602a82527f41747461636b696e67206d6f76652073686f756c6420626520616e206174746160208301527f636b696e67206d6f7665000000000000000000000000000000000000000000006040830152606082019050919050565b6000601882527f506c6179657220485020646f6573206e6f74206d6174636800000000000000006020830152604082019050919050565b6000602082527f4f70706f6e656e7420537461747573322073686f756c642062652066616c73656020830152604082019050919050565b6000601a82527f506c61796572206d7573742070726f7669646520612073616c740000000000006020830152604082019050919050565b6000601882527f496e76616c696420524c50207374617274206c656e67746800000000000000006020830152604082019050919050565b6000601982527f4f70706f6e656e74206465636973696f6e20696e76616c6964000000000000006020830152604082019050919050565b6000601f82527f4f70706f6e656e742063686172676573206d75737420737461792073616d65006020830152604082019050919050565b6000603282527f426f746820706c617965727320617420302c207468657265206973206e6f207360208301527f696d756c74616e656f75732064616d61676500000000000000000000000000006040830152606082019050919050565b6000601b82527f496e76616c6964206f6464207475726e20524c50206c656e67746800000000006020830152604082019050919050565b6000601b82527f43616e742075736520537461747573207768696c652046726f7a6500000000006020830152604082019050919050565b6000601d82527f506c617965722053746174757331206d75737420737461792073616d650000006020830152604082019050919050565b6000602a82527f4576656e74732063616e206f6e6c79206265207472696767657265642062792060208301527f76616c696461746f7273000000000000000000000000000000000000000000006040830152606082019050919050565b6000601482527f524c50204974656d206973206e6f74206c6973740000000000000000000000006020830152604082019050919050565b6000601e82527f496e76616c696420656e64696e67207475726e20524c50206c656e67746800006020830152604082019050919050565b6000601b82527f496e76616c696420657869744461746120524c50204c656e67746800000000006020830152604082019050919050565b6000601e82527f506c61796572204465636973696f6e206d75737420737461792073616d6500006020830152604082019050919050565b6000602882527f506c61796572207265636861726765206e6f7420706f737369626c652077686560208301527f6e206f76657220330000000000000000000000000000000000000000000000006040830152606082019050919050565b6000601a82527f4f70706f6e656e74204850206d75737420737461792073616d650000000000006020830152604082019050919050565b6000601f82527f506c617965722043727970746f6d6f6e206d75737420737461792073616d65006020830152604082019050919050565b6000602982527f506c61796572206d75737420686176652063686172676520746f206d616b652060208301527f74686174206d6f766500000000000000000000000000000000000000000000006040830152606082019050919050565b6000602382527f506c6179657220485020616674657220626174746c6520697320696e636f727260208301527f65637400000000000000000000000000000000000000000000000000000000006040830152606082019050919050565b6000602082527f4f70706f6e656e7420537461747573312073686f756c642062652066616c73656020830152604082019050919050565b6000601e82527f506c617965722063686172676573206d75737420626520696e697469616c00006020830152604082019050919050565b6000602582527f506c61796572206e6565647320612063686172676520746f20646f207468697360208301527f206d6f76650000000000000000000000000000000000000000000000000000006040830152606082019050919050565b6000602782527f524c502055696e74206d757374206265206265747765656e203120616e64203360208301527f33206279746573000000000000000000000000000000000000000000000000006040830152606082019050919050565b6000603a82527f436f756c64206e6f742064657465726d696e65207472616e73616374696f6e2060208301527f7479706520746f20726574726965766520746865206f776e65720000000000006040830152606082019050919050565b6000602a82527f506c6179657220646f6573206e6f74206d617463682065786974696e6754784260208301527f79746573206f776e6572000000000000000000000000000000000000000000006040830152606082019050919050565b6000602982527f4f70706f6e656e74206d7573742070726f766964652061206861736820666f7260208301527f206465636973696f6e00000000000000000000000000000000000000000000006040830152606082019050919050565b6000601e82527f506c6179657220537461747573312073686f756c642062652066616c736500006020830152604082019050919050565b6000601f82527f4f70706f6e656e742053746174757331206d75737420737461792073616d65006020830152604082019050919050565b6000601882527f506c61796572204850206d75737420737461792073616d6500000000000000006020830152604082019050919050565b6000601d82527f506c617965722053746174757332206d75737420737461792073616d650000006020830152604082019050919050565b6000602c82527f506c617965722061747461636b2063616e7420626520646f6e6520776974682060208301527f556e6b6e6f776e207479706500000000000000000000000000000000000000006040830152606082019050919050565b6000601e82527f506c6179657220537461747573322073686f756c642062652066616c736500006020830152604082019050919050565b6000601c82527f524c502061646472657373206d757374206265203231206279746573000000006020830152604082019050919050565b6000602882527f506c61796572207374617475733120616674657220626174746c65206973206960208301527f6e636f72726563740000000000000000000000000000000000000000000000006040830152606082019050919050565b6000602882527f506c61796572206368617267657320616674657220626174746c65206973206960208301527f6e636f72726563740000000000000000000000000000000000000000000000006040830152606082019050919050565b6000601d82527f506c617965722063686172676573206d75737420737461792073616d650000006020830152604082019050919050565b6000602182527f4f70706f6e656e742043727970746f6d6f6e206d75737420737461792073616d60208301527f65000000000000000000000000000000000000000000000000000000000000006040830152606082019050919050565b6000602582527f4f70706f6e656e74206465636973696f6e20646f6573206e6f74206d6174636860208301527f20686173680000000000000000000000000000000000000000000000000000006040830152606082019050919050565b6000601d82527f524c50206279746573206d757374206265206d6f7265207468616e20300000006020830152604082019050919050565b6000601c82527f496e76616c6964206576656e207475726e20524c50206c656e677468000000006020830152604082019050919050565b6000600c82527f556e6b6e6f776e207479706500000000000000000000000000000000000000006020830152604082019050919050565b6000602082527f4f70706f6e656e742063686172676573206d75737420626520696e697469616c6020830152604082019050919050565b6000601a82527f4f70706f6e656e7420485020646f6573206e6f74206d617463680000000000006020830152604082019050919050565b6000602782527f496e76616c696420506c61736d6149442c2069742073686f756c64206265206160208301527f2075696e743634000000000000000000000000000000000000000000000000006040830152606082019050919050565b6000601a82527f524c5020426f6f6c65616e206d757374206265203120627974650000000000006020830152604082019050919050565b6000601882527f496e76616c696420506c617965722043727970746f6d6f6e00000000000000006020830152604082019050919050565b6000602382527f53656e64657220646f6573206e6f74206d61746368206465706f736974206f7760208301527f6e657200000000000000000000000000000000000000000000000000000000006040830152606082019050919050565b60c082016000820151619a6c6000850182619bd4565b506020820151619a7f6020850182618a2d565b506040820151619a926040850182618a2d565b506060820151619aa56060850182619bc5565b506080820151619ab86080850182619bc5565b5060a0820151619acb60a0850182619bc5565b50505050565b6101e082016000820151619ae86000850182619be3565b506020820151619afb6020850182618b27565b506040820151619b0e6040850182618ae2565b506060820151619b216060850182619b3b565b506080820151619b35610120850182619b3b565b50505050565b60c082016000820151619b516000850182619bb6565b506020820151619b646020850182619bb6565b506040820151619b776040850182619bb6565b506060820151619b8a6060850182619bb6565b506080820151619b9d6080850182619bb6565b5060a0820151619bb060a0850182619bb6565b50505050565b619bbf8161a56b565b82525050565b619bce8161a599565b82525050565b619bdd8161a5a3565b82525050565b619bec8161a5b7565b82525050565b6000602082019050619c076000830184618a2d565b92915050565b60006020820190508181036000830152619c278184618a3c565b905092915050565b6000602082019050619c446000830184618ae2565b92915050565b600060e0820190508181036000830152619c648189618af1565b90508181036020830152619c788188618af1565b90508181036040830152619c8c8187618af1565b90508181036060830152619ca08186618af1565b90508181036080830152619cb48185618af1565b9050619cc360a0830184618a97565b979650505050505050565b6000602082019050619ce36000830184618b36565b92915050565b60006020820190508181036000830152619d0281618b45565b9050919050565b60006020820190508181036000830152619d2281618ba2565b9050919050565b60006020820190508181036000830152619d4281618bd9565b9050919050565b60006020820190508181036000830152619d6281618c10565b9050919050565b60006020820190508181036000830152619d8281618c47565b9050919050565b60006020820190508181036000830152619da281618c7e565b9050919050565b60006020820190508181036000830152619dc281618cb5565b9050919050565b60006020820190508181036000830152619de281618cec565b9050919050565b60006020820190508181036000830152619e0281618d23565b9050919050565b60006020820190508181036000830152619e2281618d80565b9050919050565b60006020820190508181036000830152619e4281618db7565b9050919050565b60006020820190508181036000830152619e6281618dee565b9050919050565b60006020820190508181036000830152619e8281618e25565b9050919050565b60006020820190508181036000830152619ea281618e5c565b9050919050565b60006020820190508181036000830152619ec281618e93565b9050919050565b60006020820190508181036000830152619ee281618eca565b9050919050565b60006020820190508181036000830152619f0281618f27565b9050919050565b60006020820190508181036000830152619f2281618f5e565b9050919050565b60006020820190508181036000830152619f4281618f95565b9050919050565b60006020820190508181036000830152619f6281618fcc565b9050919050565b60006020820190508181036000830152619f8281619029565b9050919050565b60006020820190508181036000830152619fa281619060565b9050919050565b60006020820190508181036000830152619fc281619097565b9050919050565b60006020820190508181036000830152619fe2816190ce565b9050919050565b6000602082019050818103600083015261a00281619105565b9050919050565b6000602082019050818103600083015261a02281619162565b9050919050565b6000602082019050818103600083015261a04281619199565b9050919050565b6000602082019050818103600083015261a062816191d0565b9050919050565b6000602082019050818103600083015261a0828161922d565b9050919050565b6000602082019050818103600083015261a0a28161928a565b9050919050565b6000602082019050818103600083015261a0c2816192c1565b9050919050565b6000602082019050818103600083015261a0e2816192f8565b9050919050565b6000602082019050818103600083015261a10281619355565b9050919050565b6000602082019050818103600083015261a122816193b2565b9050919050565b6000602082019050818103600083015261a1428161940f565b9050919050565b6000602082019050818103600083015261a1628161946c565b9050919050565b6000602082019050818103600083015261a182816194c9565b9050919050565b6000602082019050818103600083015261a1a281619500565b9050919050565b6000602082019050818103600083015261a1c281619537565b9050919050565b6000602082019050818103600083015261a1e28161956e565b9050919050565b6000602082019050818103600083015261a202816195a5565b9050919050565b6000602082019050818103600083015261a22281619602565b9050919050565b6000602082019050818103600083015261a24281619639565b9050919050565b6000602082019050818103600083015261a26281619670565b9050919050565b6000602082019050818103600083015261a282816196cd565b9050919050565b6000602082019050818103600083015261a2a28161972a565b9050919050565b6000602082019050818103600083015261a2c281619761565b9050919050565b6000602082019050818103600083015261a2e2816197be565b9050919050565b6000602082019050818103600083015261a3028161981b565b9050919050565b6000602082019050818103600083015261a32281619852565b9050919050565b6000602082019050818103600083015261a34281619889565b9050919050565b6000602082019050818103600083015261a362816198c0565b9050919050565b6000602082019050818103600083015261a382816198f7565b9050919050565b6000602082019050818103600083015261a3a28161992e565b9050919050565b6000602082019050818103600083015261a3c28161998b565b9050919050565b6000602082019050818103600083015261a3e2816199c2565b9050919050565b6000602082019050818103600083015261a402816199f9565b9050919050565b60006101e08201905061a41f6000830184619ad1565b92915050565b600060208201905061a43a6000830184619bc5565b92915050565b600060208201905061a4556000830184619bd4565b92915050565b600060208201905061a4706000830184619be3565b92915050565b6000604051905081810181811067ffffffffffffffff8211171561a49957600080fd5b8060405250919050565b600067ffffffffffffffff82111561a4ba57600080fd5b601f19601f8301169050602081019050919050565b6000602082019050919050565b6000819050919050565b600081519050919050565b600060029050919050565b600081519050919050565b6000602082019050919050565b6000602082019050919050565b600061a52c8261a579565b9050919050565b60008115159050919050565b600060038210151561a54d57fe5b819050919050565b6000600a8210151561a56357fe5b819050919050565b600061ffff82169050919050565b600073ffffffffffffffffffffffffffffffffffffffff82169050919050565b6000819050919050565b600067ffffffffffffffff82169050919050565b600060ff82169050919050565b600061a5cf8261a579565b9050919050565b60008115159050919050565b600060038210151561a5f357600080fd5b819050919050565b600060038210151561a60c57600080fd5b819050919050565b600060138210151561a62557600080fd5b819050919050565b600061ffff82169050919050565b6000819050919050565b600060ff82169050919050565b600061a65d8261a53f565b9050919050565b600061a66f8261a555565b9050919050565b82818337600083830152505050565b60005b8381101561a6a357808201518184015260208101905061a688565b8381111561a6b2576000848401525b50505050565b6000601f19601f830116905091905056fea265627a7a72305820905d9cc3c2e3945c0e3127e640f330d7b00801156f6e1f9795795adb8bb30c4b6c6578706572696d656e74616cf50037",
  "source": "pragma solidity ^0.5.2;\npragma experimental ABIEncoderV2;\n\nimport \"openzeppelin-solidity/contracts/ownership/Ownable.sol\";\n\nimport \"../../PlasmaCore/RootChain.sol\";\nimport \"../../PlasmaCore/PlasmaTurnGame.sol\";\n\nimport \"../Libraries/BattleDamageCalculator.sol\";\nimport \"../Libraries/Pokedex.sol\";\nimport \"./CryptoMons.sol\";\n\ncontract CryptoMonBattles is PlasmaTurnGame, Ownable {\n\n    using BattleDamageCalculator for BattleDamageCalculator.BattleState;\n    using RLPReader for bytes;\n    using Transaction for bytes;\n    using RLPReader for RLPReader.RLPItem;\n    //Signed Player -> Signed OP        -> Signed Player\n\n    //initialState  + //State 1    + //State even   + //State odd  +  //State ending (odd)\n\n    //CryptoMonPL   | CryptoMonPL   | CryptoMonPL   | 0 CryptoMonPL        | CryptoMonPL\n    //HPPL          | HPPL          | HPPL          | 1 HPPL               | HPPL\n    //Status1PL     | Status1PL     | Status1PL     | 2 Status1PL          | Status1PL\n    //Status2PL     | Status2PL     | Status2PL     | 3 Status2PL          | Status2PL\n    //ChargePL      | ChargePL      | ChargePL      | 4 ChargePL           | ChargePL\n    //CryptoMonOP   | CryptoMonOP   | CryptoMonOP   | 5 CryptoMonOP        | CryptoMonOP\n    //HPOP          | HPOP          | HPOP          | 6 HPOP               | HPOP\n    //Status1OP     | Status1OP     | Status1OP     | 7 Status1OP          | Status1OP\n    //Status2OP     | Status2OP     | Status2OP     | 8 Status2OP          | Status2OP\n    //ChargeOP      | ChargeOP      | ChargeOP      | 9  ChargeOP          | ChargeOP\n    //              | HashDecision  | HashDecision  | 10 HashDecision      | HashDecision\n    //              |               | DecisionPL    | 11 DecisionPL        | DecisionPL\n    //              |               | SaltPL        | 12 SaltPL            | SaltPL\n    //              |               |               | 13 DecisionOp        | DecisionOp\n    //              |               |               | 14 SaltOP            | SaltOP\n    //              |               |               | 15 nextHashDecision  |\n\n    enum Battle {\n        CryptoMonPL,\n        HPPL,\n        Status1PL,\n        Status2PL,\n        ChargePL,\n        CryptoMonOP,\n        HPOP,\n        Status1OP,\n        Status2OP,\n        ChargeOP,\n        HashDecision,\n        DecisionPL,\n        SaltPL,\n        DecisionOP,\n        SaltOP,\n        NextHashDecision\n    }\n\n    enum RLPExitData {\n        Slot,\n        PrevBlockNumber,\n        BlockNumber,\n        PrevTxBytes,\n        ExitingTxBytes,\n        PrevTxInclusionProof,\n        ExitingTxInclusionProof,\n        Signature\n    }\n\n    RootChain rootChain;\n    CryptoMons cryptomons;\n\n    uint constant INITIAL_CHARGES = 1;\n\n    constructor(RootChain _rootChain, CryptoMons _cryptomons) public {\n        rootChain = _rootChain;\n        cryptomons = _cryptomons;\n    }\n\n    function validateStartState(\n        bytes calldata state,\n        address[2] calldata players,\n        uint exitDataIndex,\n        bytes calldata exitData\n    ) external view returns (RootChain.Exit[] memory) {\n\n        RLPReader.RLPItem[] memory start = state.toRlpItem().toList();\n        require(start.length == uint(Battle.ChargeOP) + 1, \"Invalid RLP start length\");\n\n        //Player\n        Pokedex.Pokemon memory cryptoMonPL = getCryptoMon(start[uint(Battle.CryptoMonPL)].toUint());\n        require(cryptoMonPL.id > 0                                        , \"Invalid Player Cryptomon\");\n        require(start[uint(Battle.HPPL)].toUint() == cryptoMonPL.stats.hp , \"Player HP does not match\");\n        require(start[uint(Battle.Status1PL)].toBoolean() == false        , \"Player Status1 should be false\");\n        require(start[uint(Battle.Status2PL)].toBoolean() == false        , \"Player Status2 should be false\");\n        require(start[uint(Battle.ChargePL)].toUint() == INITIAL_CHARGES  , \"Player charges must be initial\");\n\n        //Opponent\n        Pokedex.Pokemon memory cryptoMonOP = getCryptoMon(start[uint(Battle.CryptoMonOP)].toUint());\n        require(cryptoMonOP.id > 0                                        , \"Invalid Player Cryptomon\");\n        require(start[uint(Battle.HPOP)].toUint() == cryptoMonOP.stats.hp , \"Opponent HP does not match\");\n        require(start[uint(Battle.Status1OP)].toBoolean() == false        , \"Opponent Status1 should be false\");\n        require(start[uint(Battle.Status2OP)].toBoolean() == false        , \"Opponent Status2 should be false\");\n        require(start[uint(Battle.ChargeOP)].toUint() == INITIAL_CHARGES  , \"Opponent charges must be initial\");\n\n        RLPReader.RLPItem[] memory rlpExit = exitData.toRlpItem().toList();\n\n        address supposedOwner;\n        uint64 token;\n        if(exitDataIndex == 0) {\n            supposedOwner = players[0];\n            token = uint64(start[uint(Battle.CryptoMonPL)].toUint());\n        } else {\n            supposedOwner = players[1];\n            token = uint64(start[uint(Battle.CryptoMonOP)].toUint());\n        }\n\n        RootChain.Exit memory exit;\n        if (rlpExit.length == 1) {\n            (,uint256 depositBlock, address owner, , ) = rootChain.getPlasmaCoin(token);\n            require(owner == supposedOwner, \"Sender does not match deposit owner\");\n            exit = RootChain.Exit({\n                slot: token,\n                prevOwner: address(0),\n                owner: owner,\n                createdAt: block.timestamp,\n                prevBlock: 0,\n                exitBlock: depositBlock\n            });\n        } else {\n            uint[2] memory blocks;\n            blocks[0] = rlpExit[uint(RLPExitData.PrevBlockNumber)].toUint();\n            blocks[1] = rlpExit[uint(RLPExitData.BlockNumber)].toUint();\n\n            require(rlpExit.length == uint(RLPExitData.Signature) + 1, \"Invalid exitData RLP Length\");\n            require(supposedOwner == rlpExit[uint(RLPExitData.ExitingTxBytes)].toBytes().getOwner(),\n                \"Player does not match exitingTxBytes owner\");\n\n            rootChain.checkBothIncludedAndSigned(\n                rlpExit[uint(RLPExitData.PrevTxBytes)].toBytes(),\n                rlpExit[uint(RLPExitData.ExitingTxBytes)].toBytes(),\n                rlpExit[uint(RLPExitData.PrevTxInclusionProof)].toBytes(),\n                rlpExit[uint(RLPExitData.ExitingTxInclusionProof)].toBytes(),\n                rlpExit[uint(RLPExitData.Signature)].toBytes(),\n                blocks\n            );\n\n            exit = RootChain.Exit({\n                slot: token,\n                prevOwner: rlpExit[uint(RLPExitData.PrevTxBytes)].toBytes().getOwner(),\n                owner: supposedOwner,\n                createdAt: block.timestamp,\n                prevBlock: blocks[0],\n                exitBlock: blocks[1]\n            });\n        }\n\n        RootChain.Exit[] memory result = new RootChain.Exit[](1);\n        result[0] = exit;\n        return result;\n    }\n\n    function validateTurnTransition(bytes memory oldState, uint turnNum, bytes memory newState) public view {\n        if(turnNum == 0) {\n            validateInitialTransition(oldState, newState);\n        } else if(turnNum%2 == 0) {\n            validateEvenToOdd(oldState, newState, isOver(newState, turnNum));\n        } else {\n            validateOddToEven(oldState, newState, turnNum == 1);\n        }\n    }\n\n    function validateTransitionKeepBasics(RLPReader.RLPItem[] memory first, RLPReader.RLPItem[] memory second) private pure {\n        //Player\n        require(first[uint(Battle.CryptoMonPL)].toUint() == second[uint(Battle.CryptoMonPL)].toUint() ,\"Player Cryptomon must stay same\");\n        require(first[uint(Battle.HPPL)].toUint()        == second[uint(Battle.HPPL)].toUint()        ,\"Player HP must stay same\");\n        require(first[uint(Battle.Status1PL)].toBoolean()== second[uint(Battle.Status1PL)].toBoolean(),\"Player Status1 must stay same\");\n        require(first[uint(Battle.Status2PL)].toBoolean()== second[uint(Battle.Status2PL)].toBoolean(),\"Player Status2 must stay same\");\n        require(first[uint(Battle.ChargePL)].toUint()    == second[uint(Battle.ChargePL)].toUint()    ,\"Player charges must stay same\");\n        //Opponent\n        require(first[uint(Battle.CryptoMonOP)].toUint() == second[uint(Battle.CryptoMonOP)].toUint() ,\"Opponent Cryptomon must stay same\");\n        require(first[uint(Battle.HPOP)].toUint()        == second[uint(Battle.HPOP)].toUint()        ,\"Opponent HP must stay same\");\n        require(first[uint(Battle.Status1OP)].toBoolean()== second[uint(Battle.Status1OP)].toBoolean(),\"Opponent Status1 must stay same\");\n        require(first[uint(Battle.Status2OP)].toBoolean()== second[uint(Battle.Status2OP)].toBoolean(),\"Opponent Status2 must stay same\");\n        require(first[uint(Battle.ChargeOP)].toUint()    == second[uint(Battle.ChargeOP)].toUint()    ,\"Opponent charges must stay same\");\n    }\n\n    function validateInitialTransition(bytes memory startState, bytes memory firstTurn) public pure {\n        RLPReader.RLPItem[] memory start = startState.toRlpItem().toList();\n        RLPReader.RLPItem[] memory first = firstTurn.toRlpItem().toList();\n\n        require(start.length == uint(Battle.ChargeOP) + 1    , \"Invalid start turn RLP length\");\n        require(first.length == uint(Battle.HashDecision) + 1, \"Invalid first turn RLP length\");\n        validateTransitionKeepBasics(start, first);\n        require(first[uint(Battle.HashDecision)].toUint() != 0, \"Opponent must provide a hash for decision\");\n    }\n\n    function validateEvenToOdd(bytes memory evenTurn, bytes memory oddTurn, bool isFinal) private view {\n        RLPReader.RLPItem[] memory even = evenTurn.toRlpItem().toList();\n        RLPReader.RLPItem[] memory odd  = oddTurn.toRlpItem().toList();\n\n        if(isFinal) {\n            require(odd.length == uint(Battle.SaltOP) + 1, \"Invalid ending turn RLP length\");\n        } else {\n            require(odd.length == uint(Battle.NextHashDecision) + 1, \"Invalid ending turn RLP length\");\n            require(odd[uint(Battle.NextHashDecision)].toUint() != 0, \"Opponent must provide a hash for decision\");\n        }\n\n        require(even[uint(Battle.CryptoMonPL)].toUint() == odd[uint(Battle.CryptoMonPL)].toUint()  , \"Player Cryptomon must stay same\");\n        require(even[uint(Battle.CryptoMonOP)].toUint() == odd[uint(Battle.CryptoMonOP)].toUint()  , \"Opponent Cryptomon must stay same\");\n        require(even[uint(Battle.HashDecision)].toUint()== odd[uint(Battle.HashDecision)].toUint() , \"HashDecision must stay same\");\n        require(even[uint(Battle.DecisionPL  )].toUint()== odd[uint(Battle.DecisionPL   )].toUint(), \"Player Decision must stay same\");\n        require(even[uint(Battle.SaltPL      )].toUint()== odd[uint(Battle.SaltPL      )].toUint() , \"Player Salt must stay same\");\n\n        require(odd[uint(Battle.DecisionPL)].toUint() <= uint(BattleDamageCalculator.Moves.STATUS2), \"Players decision invalid\");\n        require(odd[uint(Battle.DecisionOP)].toUint() <= uint(BattleDamageCalculator.Moves.STATUS2), \"Opponent decision invalid\");\n\n        require(bytes32(even[uint(Battle.HashDecision)].toUint()) ==\n            keccak256(abi.encodePacked(odd[uint(Battle.DecisionOP)].toUint(), odd[uint(Battle.SaltOP)].toUint())),\n                        \"Opponent decision does not match hash\");\n\n        Pokedex.Pokemon memory cryptoMonPL = getCryptoMon(even[uint(Battle.CryptoMonPL)].toUint());\n        Pokedex.PokemonData memory cryptoMonPLData = cryptomons.getPokemonData(cryptoMonPL.id);\n\n        Pokedex.Pokemon memory cryptoMonOP = getCryptoMon(even[uint(Battle.CryptoMonOP)].toUint());\n        Pokedex.PokemonData memory cryptoMonOPData = cryptomons.getPokemonData(cryptoMonOP.id);\n\n        BattleDamageCalculator.BattleState memory state = BattleDamageCalculator.BattleState(\n            BattleDamageCalculator.CryptoMonState(\n                even[uint(Battle.HPPL)].toUint(),\n                even[uint(Battle.Status1PL)].toBoolean(),\n                even[uint(Battle.Status2PL)].toBoolean(),\n                even[uint(Battle.ChargePL)].toUint(),\n                cryptoMonPL,\n                cryptoMonPLData,\n                BattleDamageCalculator.Moves(odd[uint(Battle.DecisionPL)].toUint())\n            ),\n            BattleDamageCalculator.CryptoMonState(\n                even[uint(Battle.HPOP)].toUint(),\n                even[uint(Battle.Status1OP)].toBoolean(),\n                even[uint(Battle.Status2OP)].toBoolean(),\n                even[uint(Battle.ChargeOP)].toUint(),\n                cryptoMonOP,\n                cryptoMonOPData,\n                BattleDamageCalculator.Moves(odd[uint(Battle.DecisionOP)].toUint())\n            ),\n            keccak256(abi.encodePacked(odd[uint(Battle.SaltPL)].toUint(), odd[uint(Battle.SaltOP)].toUint()))\n        );\n\n        state = state.calculateBattle();\n\n        require(state.player.hp      == odd[uint(Battle.HPPL )].toUint()        , \"Player HP after battle is incorrect\");\n        require(state.player.charges == odd[uint(Battle.ChargePL )].toUint()    , \"Player charges after battle is incorrect\");\n        require(state.player.status1 == odd[uint(Battle.Status1PL )].toBoolean(), \"Player status1 after battle is incorrect\");\n        require(state.player.status2 == odd[uint(Battle.Status2PL )].toBoolean(), \"Player status2 after battle is incorrect\");\n\n        require(state.opponent.hp      == odd[uint(Battle.HPOP )].toUint()        , \"Player HP after battle is incorrect\");\n        require(state.opponent.charges == odd[uint(Battle.ChargeOP )].toUint()    , \"Player charges after battle is incorrect\");\n        require(state.opponent.status1 == odd[uint(Battle.Status1OP )].toBoolean(), \"Player status1 after battle is incorrect\");\n        require(state.opponent.status2 == odd[uint(Battle.Status2OP )].toBoolean(), \"Player status2 after battle is incorrect\");\n    }\n\n    function validateOddToEven(bytes memory oddTurn, bytes memory evenTurn, bool isFirst) private view {\n        RLPReader.RLPItem[] memory odd = oddTurn.toRlpItem().toList();\n        RLPReader.RLPItem[] memory even = evenTurn.toRlpItem().toList();\n\n        bytes32 oddNewHashDec;\n        if(isFirst) {\n            require(odd.length == uint(Battle.HashDecision) + 1, \"Invalid odd turn RLP length\");\n            oddNewHashDec = bytes32(odd[uint(Battle.HashDecision)].toUint());\n        } else {\n            require(odd.length == uint(Battle.NextHashDecision) + 1, \"Invalid odd turn RLP length\");\n            oddNewHashDec = bytes32(odd[uint(Battle.NextHashDecision)].toUint());\n        }\n\n        require(even.length == uint(Battle.SaltPL) + 1, \"Invalid even turn RLP length\");\n\n        validateTransitionKeepBasics(odd, even);\n\n        require(oddNewHashDec == bytes32(even[uint(Battle.HashDecision)].toUint()) , \"Hash decision must stay de same\");\n\n        uint playerDecision = even[uint(Battle.DecisionPL)].toUint();\n        require(playerDecision <= uint(BattleDamageCalculator.Moves.STATUS2), \"Players decision invalid\");\n\n        if(BattleDamageCalculator.needsCharge(BattleDamageCalculator.Moves(playerDecision))) {\n            require(even[uint(Battle.ChargePL)].toUint() > 0, \"Player must have charge to make that move\");\n        }\n\n        Pokedex.Pokemon memory cryptoMonPL = getCryptoMon(even[uint(Battle.CryptoMonPL)].toUint());\n        Pokedex.PokemonData memory cryptoMonPLData = cryptomons.getPokemonData(cryptoMonPL.id);\n\n        if(BattleDamageCalculator.usesFirstType(BattleDamageCalculator.Moves(playerDecision))) {\n            require(cryptoMonPLData.type1 != Pokedex.Type.Unknown, \"Player attack cant be done with Unknown type\");\n        }\n\n        if(BattleDamageCalculator.usesSecondType(BattleDamageCalculator.Moves(playerDecision))) {\n            require(cryptoMonPLData.type2 != Pokedex.Type.Unknown, \"Player attack cant be done with Unknown type\");\n        }\n\n        require(even[uint(Battle.SaltPL)].toUint() != 0, \"Player must provide a salt\");\n    }\n\n    function winner(bytes memory state, uint turnNum, address player, address opponent) public pure returns (address) {\n        if(isOver(state, turnNum)) {\n            RLPReader.RLPItem[] memory ending = state.toRlpItem().toList();\n            uint HPPL = ending[uint(Battle.HPPL)].toUint();\n            uint HPOP = ending[uint(Battle.HPOP)].toUint();\n\n            if(HPPL > HPOP) {\n                return player;\n            } else if(HPOP > HPPL) {\n                return opponent;\n            } else {\n                revert(\"Both players at 0, there is no simultaneous damage\");\n            }\n        } else {\n            return address(0);\n        }\n    }\n\n    function isOver(bytes memory state, uint /*turnNum*/) public pure returns (bool) {\n        RLPReader.RLPItem[] memory ending = state.toRlpItem().toList();\n        uint HPPL = ending[uint(Battle.HPPL)].toUint();\n        uint HPOP = ending[uint(Battle.HPOP)].toUint();\n        return HPPL == 0 || HPOP == 0;\n    }\n\n    function mover(bytes memory /*state*/, uint turnNum, address player, address opponent) public pure returns (address) {\n        return turnNum%2 == 0 ? player: opponent;\n    }\n\n    function getCryptoMon(uint plasmaID) public view returns (Pokedex.Pokemon memory) {\n        if(plasmaID >= 2**64) revert(\"Invalid PlasmaID, it should be a uint64\");\n        (uint256 cryptoMonId, , , , ) = rootChain.getPlasmaCoin(uint64(plasmaID));\n        return cryptomons.getCryptomon(cryptoMonId);\n    }\n\n    event CryptoMonBattleRequested(uint indexed gameId, address indexed player, uint indexed CryptoMon);\n    event CryptoMonBattleStarted(uint indexed gameId, address indexed player, uint indexed CryptoMon);\n\n    function eventRequestState(uint gameId, bytes memory state, address player, address opponent) public isApproved(msg.sender) {\n        RLPReader.RLPItem[] memory decoded = state.toRlpItem().toList();\n        uint CryptoMonPL = decoded[uint(Battle.CryptoMonPL)].toUint();\n        uint CryptoMonOP = decoded[uint(Battle.CryptoMonOP)].toUint();\n\n        emit CryptoMonBattleRequested(gameId, player, CryptoMonPL);\n        emit CryptoMonBattleRequested(gameId, opponent, CryptoMonOP);\n    }\n    function eventStartState(uint gameId, bytes memory state, address player, address opponent) public isApproved(msg.sender) {\n        RLPReader.RLPItem[] memory decoded = state.toRlpItem().toList();\n        uint CryptoMonPL = decoded[uint(Battle.CryptoMonPL)].toUint();\n        uint CryptoMonOP = decoded[uint(Battle.CryptoMonOP)].toUint();\n\n        emit CryptoMonBattleStarted(gameId, player, CryptoMonPL);\n        emit CryptoMonBattleStarted(gameId, opponent, CryptoMonOP);\n    }\n\n    //VALIDATOR\n    mapping (address => bool) public validators;\n\n    function setValidator(address _address, bool value) public onlyOwner {\n        validators[_address] = value;\n    }\n\n    modifier isApproved(address _address) {\n        require(validators[_address], \"Events can only be triggered by validators\");\n        _;\n    }\n\n\n}\n",
  "sourcePath": "/home/juanfra/Documents/ITBA/PF/Plasma-Cash-RootChain/contracts/CryptoMonExample/Plasma/CryptMonBattles.sol",
  "compiler": {
    "name": "solc",
    "version": "0.5.2+commit.1df8f40c.Emscripten.clang"
  },
  "schemaVersion": "3.0.16",
  "updatedAt": "2019-11-11T16:36:48.158Z",
  "devdoc": {
    "methods": {
      "isOwner()": {
        "return": "true if `msg.sender` is the owner of the contract."
      },
      "owner()": {
        "return": "the address of the owner."
      },
      "renounceOwnership()": {
        "details": "Allows the current owner to relinquish control of the contract. It will not be possible to call the functions with the `onlyOwner` modifier anymore."
      },
      "transferOwnership(address)": {
        "details": "Allows the current owner to transfer control of the contract to a newOwner.",
        "params": {
          "newOwner": "The address to transfer ownership to."
        }
      }
    }
  },
  "userdoc": {
    "methods": {
      "renounceOwnership()": {
        "notice": "Renouncing ownership will leave the contract without an owner, thereby removing any functionality that is only available to the owner."
      }
    }
  }
}