{
  "contractName": "PlasmaCM",
  "abi": [
    {
      "payable": true,
      "stateMutability": "payable",
      "type": "fallback"
    },
    {
      "anonymous": false,
      "inputs": [
        {
          "indexed": false,
          "name": "channelId",
          "type": "uint256"
        },
        {
          "indexed": true,
          "name": "creator",
          "type": "address"
        },
        {
          "indexed": true,
          "name": "opponent",
          "type": "address"
        },
        {
          "indexed": false,
          "name": "channelType",
          "type": "address"
        }
      ],
      "name": "ChannelInitiated",
      "type": "event"
    },
    {
      "anonymous": false,
      "inputs": [
        {
          "indexed": false,
          "name": "channelId",
          "type": "uint256"
        },
        {
          "indexed": true,
          "name": "creator",
          "type": "address"
        },
        {
          "indexed": true,
          "name": "opponent",
          "type": "address"
        },
        {
          "indexed": false,
          "name": "channelType",
          "type": "address"
        },
        {
          "indexed": false,
          "name": "initialState",
          "type": "bytes"
        }
      ],
      "name": "ChannelFunded",
      "type": "event"
    },
    {
      "anonymous": false,
      "inputs": [
        {
          "indexed": false,
          "name": "channelId",
          "type": "uint256"
        },
        {
          "indexed": true,
          "name": "creator",
          "type": "address"
        },
        {
          "indexed": true,
          "name": "opponent",
          "type": "address"
        },
        {
          "indexed": false,
          "name": "channelType",
          "type": "address"
        }
      ],
      "name": "ChannelConcluded",
      "type": "event"
    },
    {
      "anonymous": false,
      "inputs": [
        {
          "indexed": true,
          "name": "channelId",
          "type": "uint256"
        },
        {
          "components": [
            {
              "name": "channelId",
              "type": "uint256"
            },
            {
              "name": "channelType",
              "type": "address"
            },
            {
              "name": "participants",
              "type": "address[]"
            },
            {
              "name": "turnNum",
              "type": "uint256"
            },
            {
              "name": "gameAttributes",
              "type": "bytes"
            }
          ],
          "indexed": false,
          "name": "nextState",
          "type": "tuple"
        },
        {
          "indexed": false,
          "name": "signature",
          "type": "bytes"
        }
      ],
      "name": "ForceMoveResponded",
      "type": "event"
    },
    {
      "constant": false,
      "inputs": [
        {
          "name": "channelType",
          "type": "address"
        },
        {
          "name": "opponent",
          "type": "address"
        },
        {
          "name": "stake",
          "type": "uint256"
        },
        {
          "name": "initialGameAttributes",
          "type": "bytes"
        }
      ],
      "name": "initiateChannel",
      "outputs": [],
      "payable": true,
      "stateMutability": "payable",
      "type": "function"
    },
    {
      "constant": false,
      "inputs": [
        {
          "name": "channelId",
          "type": "uint256"
        },
        {
          "name": "initialGameAttributes",
          "type": "bytes"
        }
      ],
      "name": "fundChannel",
      "outputs": [],
      "payable": true,
      "stateMutability": "payable",
      "type": "function"
    },
    {
      "constant": false,
      "inputs": [
        {
          "name": "channelId",
          "type": "uint256"
        }
      ],
      "name": "closeUnfundedChannel",
      "outputs": [],
      "payable": false,
      "stateMutability": "nonpayable",
      "type": "function"
    },
    {
      "constant": false,
      "inputs": [
        {
          "name": "channelId",
          "type": "uint256"
        },
        {
          "components": [
            {
              "name": "channelId",
              "type": "uint256"
            },
            {
              "name": "channelType",
              "type": "address"
            },
            {
              "name": "participants",
              "type": "address[]"
            },
            {
              "name": "turnNum",
              "type": "uint256"
            },
            {
              "name": "gameAttributes",
              "type": "bytes"
            }
          ],
          "name": "initialState",
          "type": "tuple"
        }
      ],
      "name": "forceFirstMove",
      "outputs": [],
      "payable": false,
      "stateMutability": "nonpayable",
      "type": "function"
    },
    {
      "constant": false,
      "inputs": [
        {
          "name": "channelId",
          "type": "uint256"
        },
        {
          "components": [
            {
              "name": "channelId",
              "type": "uint256"
            },
            {
              "name": "channelType",
              "type": "address"
            },
            {
              "name": "participants",
              "type": "address[]"
            },
            {
              "name": "turnNum",
              "type": "uint256"
            },
            {
              "name": "gameAttributes",
              "type": "bytes"
            }
          ],
          "name": "fromState",
          "type": "tuple"
        },
        {
          "components": [
            {
              "name": "channelId",
              "type": "uint256"
            },
            {
              "name": "channelType",
              "type": "address"
            },
            {
              "name": "participants",
              "type": "address[]"
            },
            {
              "name": "turnNum",
              "type": "uint256"
            },
            {
              "name": "gameAttributes",
              "type": "bytes"
            }
          ],
          "name": "nextState",
          "type": "tuple"
        },
        {
          "name": "signatures",
          "type": "bytes[]"
        }
      ],
      "name": "forceMove",
      "outputs": [],
      "payable": false,
      "stateMutability": "nonpayable",
      "type": "function"
    },
    {
      "constant": false,
      "inputs": [
        {
          "name": "channelId",
          "type": "uint256"
        },
        {
          "components": [
            {
              "name": "channelId",
              "type": "uint256"
            },
            {
              "name": "channelType",
              "type": "address"
            },
            {
              "name": "participants",
              "type": "address[]"
            },
            {
              "name": "turnNum",
              "type": "uint256"
            },
            {
              "name": "gameAttributes",
              "type": "bytes"
            }
          ],
          "name": "nextState",
          "type": "tuple"
        },
        {
          "name": "signature",
          "type": "bytes"
        }
      ],
      "name": "respondWithMove",
      "outputs": [],
      "payable": false,
      "stateMutability": "nonpayable",
      "type": "function"
    },
    {
      "constant": false,
      "inputs": [
        {
          "name": "channelId",
          "type": "uint256"
        },
        {
          "components": [
            {
              "name": "channelId",
              "type": "uint256"
            },
            {
              "name": "channelType",
              "type": "address"
            },
            {
              "name": "participants",
              "type": "address[]"
            },
            {
              "name": "turnNum",
              "type": "uint256"
            },
            {
              "name": "gameAttributes",
              "type": "bytes"
            }
          ],
          "name": "alternativeState",
          "type": "tuple"
        },
        {
          "components": [
            {
              "name": "channelId",
              "type": "uint256"
            },
            {
              "name": "channelType",
              "type": "address"
            },
            {
              "name": "participants",
              "type": "address[]"
            },
            {
              "name": "turnNum",
              "type": "uint256"
            },
            {
              "name": "gameAttributes",
              "type": "bytes"
            }
          ],
          "name": "nextState",
          "type": "tuple"
        },
        {
          "name": "signatures",
          "type": "bytes[]"
        }
      ],
      "name": "alternativeRespondWithMove",
      "outputs": [],
      "payable": false,
      "stateMutability": "nonpayable",
      "type": "function"
    },
    {
      "constant": false,
      "inputs": [
        {
          "name": "channelId",
          "type": "uint256"
        },
        {
          "components": [
            {
              "name": "channelId",
              "type": "uint256"
            },
            {
              "name": "channelType",
              "type": "address"
            },
            {
              "name": "participants",
              "type": "address[]"
            },
            {
              "name": "turnNum",
              "type": "uint256"
            },
            {
              "name": "gameAttributes",
              "type": "bytes"
            }
          ],
          "name": "prevState",
          "type": "tuple"
        },
        {
          "components": [
            {
              "name": "channelId",
              "type": "uint256"
            },
            {
              "name": "channelType",
              "type": "address"
            },
            {
              "name": "participants",
              "type": "address[]"
            },
            {
              "name": "turnNum",
              "type": "uint256"
            },
            {
              "name": "gameAttributes",
              "type": "bytes"
            }
          ],
          "name": "lastState",
          "type": "tuple"
        },
        {
          "name": "signatures",
          "type": "bytes[]"
        }
      ],
      "name": "conclude",
      "outputs": [],
      "payable": false,
      "stateMutability": "nonpayable",
      "type": "function"
    },
    {
      "constant": false,
      "inputs": [],
      "name": "withdraw",
      "outputs": [],
      "payable": false,
      "stateMutability": "nonpayable",
      "type": "function"
    },
    {
      "constant": true,
      "inputs": [
        {
          "name": "user",
          "type": "address"
        }
      ],
      "name": "getFunds",
      "outputs": [
        {
          "name": "",
          "type": "uint256"
        }
      ],
      "payable": false,
      "stateMutability": "view",
      "type": "function"
    },
    {
      "constant": true,
      "inputs": [
        {
          "name": "channelId",
          "type": "uint256"
        }
      ],
      "name": "getChannel",
      "outputs": [
        {
          "components": [
            {
              "name": "channelId",
              "type": "uint256"
            },
            {
              "name": "channelType",
              "type": "address"
            },
            {
              "name": "stake",
              "type": "uint256"
            },
            {
              "name": "players",
              "type": "address[2]"
            },
            {
              "name": "initialArgumentsHash",
              "type": "bytes32"
            },
            {
              "name": "state",
              "type": "uint8"
            },
            {
              "components": [
                {
                  "components": [
                    {
                      "name": "channelId",
                      "type": "uint256"
                    },
                    {
                      "name": "channelType",
                      "type": "address"
                    },
                    {
                      "name": "participants",
                      "type": "address[]"
                    },
                    {
                      "name": "turnNum",
                      "type": "uint256"
                    },
                    {
                      "name": "gameAttributes",
                      "type": "bytes"
                    }
                  ],
                  "name": "state",
                  "type": "tuple"
                },
                {
                  "name": "expirationTime",
                  "type": "uint32"
                },
                {
                  "name": "winner",
                  "type": "address"
                }
              ],
              "name": "forceMoveChallenge",
              "type": "tuple"
            },
            {
              "components": [
                {
                  "name": "owner",
                  "type": "address"
                },
                {
                  "name": "challenger",
                  "type": "address"
                },
                {
                  "name": "txHash",
                  "type": "bytes32"
                },
                {
                  "name": "challengingBlockNumber",
                  "type": "uint256"
                }
              ],
              "name": "plasmaChallenge",
              "type": "tuple"
            }
          ],
          "name": "",
          "type": "tuple"
        }
      ],
      "payable": false,
      "stateMutability": "view",
      "type": "function"
    }
  ],
  "bytecode": "0x608060405234801561001057600080fd5b506152d3806100206000396000f3fe6080604052600436106100b9576000357c01000000000000000000000000000000000000000000000000000000009004806377f526b41161008157806377f526b4146101c35780639b8d757d146101df578063c4eafa50146101fb578063d77533c114610224578063decebbce1461024d578063e649544c1461028a576100b9565b806307494ed9146100f457806310df54a01461011d578063254d4f561461015a5780633ccfd60b14610183578063437135801461019a575b6040517f08c379a00000000000000000000000000000000000000000000000000000000081526004016100eb90614bfe565b60405180910390fd5b34801561010057600080fd5b5061011b60048036036101169190810190613bdd565b6102b3565b005b34801561012957600080fd5b50610144600480360361013f9190810190613a89565b6106d3565b6040516101519190614d5e565b60405180910390f35b34801561016657600080fd5b50610181600480360361017c9190810190613bdd565b610b32565b005b34801561018f57600080fd5b50610198610cee565b005b3480156101a657600080fd5b506101c160048036036101bc9190810190613b0a565b610e45565b005b6101dd60048036036101d891908101906139e0565b610ffb565b005b6101f960048036036101f49190810190613ab2565b6115c8565b005b34801561020757600080fd5b50610222600480360361021d9190810190613bdd565b611a35565b005b34801561023057600080fd5b5061024b60048036036102469190810190613b5e565b611b33565b005b34801561025957600080fd5b50610274600480360361026f919081019061398e565b611bfa565b6040516102819190614ef3565b60405180910390f35b34801561029657600080fd5b506102b160048036036102ac9190810190613a89565b611c43565b005b8360008060008381526020019081526020016000206000015411151561030e576040517f08c379a000000000000000000000000000000000000000000000000000000000815260040161030590614b3e565b60405180910390fd5b600080600087815260200190815260200160002090506001600381111561033157fe5b8160060160009054906101000a900460ff16600381111561034e57fe5b141515610390576040517f08c379a000000000000000000000000000000000000000000000000000000000815260040161038790614a5e565b60405180910390fd5b8073__Adjudicators__________________________6393eb57d890916040518263ffffffff167c01000000000000000000000000000000000000000000000000000000000281526004016103e59190614d80565b60206040518083038186803b1580156103fd57600080fd5b505af4158015610411573d6000803e3d6000fd5b505050506040513d601f19601f820116820180604052506104359190810190613a60565b15156104535761045285858584611f68909392919063ffffffff16565b5b8073__Adjudicators__________________________6393eb57d890916040518263ffffffff167c01000000000000000000000000000000000000000000000000000000000281526004016104a89190614d80565b60206040518083038186803b1580156104c057600080fd5b505af41580156104d4573d6000803e3d6000fd5b505050506040513d601f19601f820116820180604052506104f89190810190613a60565b1515610539576040517f08c379a000000000000000000000000000000000000000000000000000000000815260040161053090614cbe565b60405180910390fd5b60028160060160006101000a81548160ff0219169083600381111561055a57fe5b02179055506002816002015402600160008360070160050160049054906101000a900473ffffffffffffffffffffffffffffffffffffffff1673ffffffffffffffffffffffffffffffffffffffff1673ffffffffffffffffffffffffffffffffffffffff168152602001908152602001600020600082825401925050819055508060030160016002811015156105ec57fe5b0160009054906101000a900473ffffffffffffffffffffffffffffffffffffffff1673ffffffffffffffffffffffffffffffffffffffff1681600301600060028110151561063657fe5b0160009054906101000a900473ffffffffffffffffffffffffffffffffffffffff1673ffffffffffffffffffffffffffffffffffffffff167f39b61285e1f395267f0a67b67e57a8dc3f31d8bc64cd9ff3ec6930831bb67624888460010160009054906101000a900473ffffffffffffffffffffffffffffffffffffffff166040516106c3929190614f0e565b60405180910390a3505050505050565b6106db613266565b6000808381526020019081526020016000206101006040519081016040529081600082015481526020016001820160009054906101000a900473ffffffffffffffffffffffffffffffffffffffff1673ffffffffffffffffffffffffffffffffffffffff1673ffffffffffffffffffffffffffffffffffffffff16815260200160028201548152602001600382016002806020026040519081016040528092919082600280156107d6576020028201915b8160009054906101000a900473ffffffffffffffffffffffffffffffffffffffff1673ffffffffffffffffffffffffffffffffffffffff168152602001906001019080831161078c575b50505050508152602001600582015481526020016006820160009054906101000a900460ff16600381111561080757fe5b600381111561081257fe5b815260200160078201606060405190810160405290816000820160a06040519081016040529081600082015481526020016001820160009054906101000a900473ffffffffffffffffffffffffffffffffffffffff1673ffffffffffffffffffffffffffffffffffffffff1673ffffffffffffffffffffffffffffffffffffffff1681526020016002820180548060200260200160405190810160405280929190818152602001828054801561091d57602002820191906000526020600020905b8160009054906101000a900473ffffffffffffffffffffffffffffffffffffffff1673ffffffffffffffffffffffffffffffffffffffff16815260200190600101908083116108d3575b5050505050815260200160038201548152602001600482018054600181600116156101000203166002900480601f0160208091040260200160405190810160405280929190818152602001828054600181600116156101000203166002900480156109c95780601f1061099e576101008083540402835291602001916109c9565b820191906000526020600020905b8154815290600101906020018083116109ac57829003601f168201915b50505050508152505081526020016005820160009054906101000a900463ffffffff1663ffffffff1663ffffffff1681526020016005820160049054906101000a900473ffffffffffffffffffffffffffffffffffffffff1673ffffffffffffffffffffffffffffffffffffffff1673ffffffffffffffffffffffffffffffffffffffff16815250508152602001600d8201608060405190810160405290816000820160009054906101000a900473ffffffffffffffffffffffffffffffffffffffff1673ffffffffffffffffffffffffffffffffffffffff1673ffffffffffffffffffffffffffffffffffffffff1681526020016001820160009054906101000a900473ffffffffffffffffffffffffffffffffffffffff1673ffffffffffffffffffffffffffffffffffffffff1673ffffffffffffffffffffffffffffffffffffffff16815260200160028201548152602001600382015481525050815250509050919050565b83600080600083815260200190815260200160002060000154111515610b8d576040517f08c379a0000000000000000000000000000000000000000000000000000000008152600401610b8490614b3e565b60405180910390fd5b843373ffffffffffffffffffffffffffffffffffffffff166000808381526020019081526020016000206003016000600281101515610bc857fe5b0160009054906101000a900473ffffffffffffffffffffffffffffffffffffffff1673ffffffffffffffffffffffffffffffffffffffff161480610c7b57503373ffffffffffffffffffffffffffffffffffffffff166000808381526020019081526020016000206003016001600281101515610c4157fe5b0160009054906101000a900473ffffffffffffffffffffffffffffffffffffffff1673ffffffffffffffffffffffffffffffffffffffff16145b1515610cbc576040517f08c379a0000000000000000000000000000000000000000000000000000000008152600401610cb390614b7e565b60405180910390fd5b610ce6858533866000808c815260200190815260200160002061221c90949392919063ffffffff16565b505050505050565b6000600160003373ffffffffffffffffffffffffffffffffffffffff1673ffffffffffffffffffffffffffffffffffffffff16815260200190815260200160002054111515610d72576040517f08c379a0000000000000000000000000000000000000000000000000000000008152600401610d6990614abe565b60405180910390fd5b6000600160003373ffffffffffffffffffffffffffffffffffffffff1673ffffffffffffffffffffffffffffffffffffffff1681526020019081526020016000205490506000600160003373ffffffffffffffffffffffffffffffffffffffff1673ffffffffffffffffffffffffffffffffffffffff168152602001908152602001600020819055503373ffffffffffffffffffffffffffffffffffffffff166108fc829081150290604051600060405180830381858888f19350505050158015610e41573d6000803e3d6000fd5b5050565b81600080600083815260200190815260200160002060000154111515610ea0576040517f08c379a0000000000000000000000000000000000000000000000000000000008152600401610e9790614b3e565b60405180910390fd5b823373ffffffffffffffffffffffffffffffffffffffff166000808381526020019081526020016000206003016000600281101515610edb57fe5b0160009054906101000a900473ffffffffffffffffffffffffffffffffffffffff1673ffffffffffffffffffffffffffffffffffffffff161480610f8e57503373ffffffffffffffffffffffffffffffffffffffff166000808381526020019081526020016000206003016001600281101515610f5457fe5b0160009054906101000a900473ffffffffffffffffffffffffffffffffffffffff1673ffffffffffffffffffffffffffffffffffffffff16145b1515610fcf576040517f08c379a0000000000000000000000000000000000000000000000000000000008152600401610fc690614b7e565b60405180910390fd5b610ff583336000808881526020019081526020016000206124929092919063ffffffff16565b50505050565b82600081111515611041576040517f08c379a000000000000000000000000000000000000000000000000000000000815260040161103890614a1e565b60405180910390fd5b3481141515611085576040517f08c379a000000000000000000000000000000000000000000000000000000000815260040161107c90614d1e565b60405180910390fd5b8573ffffffffffffffffffffffffffffffffffffffff166308487b5284846040518363ffffffff167c01000000000000000000000000000000000000000000000000000000000281526004016110dc9291906149da565b60006040518083038186803b1580156110f457600080fd5b505afa158015611108573d6000803e3d6000fd5b50505050611116600261262a565b60006111226002612640565b905061112c6132e2565b3381600060028110151561113c57fe5b602002019073ffffffffffffffffffffffffffffffffffffffff16908173ffffffffffffffffffffffffffffffffffffffff16815250508681600160028110151561118357fe5b602002019073ffffffffffffffffffffffffffffffffffffffff16908173ffffffffffffffffffffffffffffffffffffffff16815250506111c2613304565b6111ca613348565b610100604051908101604052808581526020018b73ffffffffffffffffffffffffffffffffffffffff1681526020018981526020018481526020018888604051808383808284378083019250505092505050604051809103902081526020016000600381111561123657fe5b8152602001838152602001828152506000808681526020019081526020016000206000820151816000015560208201518160010160006101000a81548173ffffffffffffffffffffffffffffffffffffffff021916908373ffffffffffffffffffffffffffffffffffffffff160217905550604082015181600201556060820151816003019060026112c99291906133a0565b506080820151816005015560a08201518160060160006101000a81548160ff021916908360038111156112f857fe5b021790555060c0820151816007016000820151816000016000820151816000015560208201518160010160006101000a81548173ffffffffffffffffffffffffffffffffffffffff021916908373ffffffffffffffffffffffffffffffffffffffff160217905550604082015181600201908051906020019061137c92919061341d565b506060820151816003015560808201518160040190805190602001906113a39291906134a7565b50505060208201518160050160006101000a81548163ffffffff021916908363ffffffff16021790555060408201518160050160046101000a81548173ffffffffffffffffffffffffffffffffffffffff021916908373ffffffffffffffffffffffffffffffffffffffff160217905550505060e082015181600d0160008201518160000160006101000a81548173ffffffffffffffffffffffffffffffffffffffff021916908373ffffffffffffffffffffffffffffffffffffffff16021790555060208201518160010160006101000a81548173ffffffffffffffffffffffffffffffffffffffff021916908373ffffffffffffffffffffffffffffffffffffffff160217905550604082015181600201556060820151816003015550509050508873ffffffffffffffffffffffffffffffffffffffff163373ffffffffffffffffffffffffffffffffffffffff167f25cf3599109edb1e430fb6b67729a3e2d50143f7f06d41c5140504803919c1a2868d604051611525929190614f0e565b60405180910390a38973ffffffffffffffffffffffffffffffffffffffff166332a4b4eb858989338e6040518663ffffffff167c010000000000000000000000000000000000000000000000000000000002815260040161158a959493929190614f77565b600060405180830381600087803b1580156115a457600080fd5b505af11580156115b8573d6000803e3d6000fd5b5050505050505050505050505050565b82600080600083815260200190815260200160002060000154111515611623576040517f08c379a000000000000000000000000000000000000000000000000000000000815260040161161a90614b3e565b60405180910390fd5b600080600086815260200190815260200160002090506000600381111561164657fe5b8160060160009054906101000a900460ff16600381111561166357fe5b1415156116a5576040517f08c379a000000000000000000000000000000000000000000000000000000000815260040161169c90614bbe565b60405180910390fd5b3373ffffffffffffffffffffffffffffffffffffffff168160030160016002811015156116ce57fe5b0160009054906101000a900473ffffffffffffffffffffffffffffffffffffffff1673ffffffffffffffffffffffffffffffffffffffff16141515611748576040517f08c379a000000000000000000000000000000000000000000000000000000000815260040161173f90614c9e565b60405180910390fd5b348160020154141515611790576040517f08c379a000000000000000000000000000000000000000000000000000000000815260040161178790614afe565b60405180910390fd5b8383604051808383808284378083019250505092505050604051809103902081600501541415156117f6576040517f08c379a00000000000000000000000000000000000000000000000000000000081526004016117ed90614cde565b60405180910390fd5b60018160060160006101000a81548160ff0219169083600381111561181757fe5b021790555080600301600160028110151561182e57fe5b0160009054906101000a900473ffffffffffffffffffffffffffffffffffffffff1673ffffffffffffffffffffffffffffffffffffffff1681600301600060028110151561187857fe5b0160009054906101000a900473ffffffffffffffffffffffffffffffffffffffff1673ffffffffffffffffffffffffffffffffffffffff167f66b133a8a03d17724e3e4a03ecf4828c80e833164b10cee3bc4ea87179ec47ce83600001548460010160009054906101000a900473ffffffffffffffffffffffffffffffffffffffff16888860405161190d9493929190614f37565b60405180910390a38060010160009054906101000a900473ffffffffffffffffffffffffffffffffffffffff1673ffffffffffffffffffffffffffffffffffffffff1663afb531c186868685600301600060028110151561196a57fe5b0160009054906101000a900473ffffffffffffffffffffffffffffffffffffffff1686600301600160028110151561199e57fe5b0160009054906101000a900473ffffffffffffffffffffffffffffffffffffffff166040518663ffffffff167c01000000000000000000000000000000000000000000000000000000000281526004016119fc959493929190614fc5565b600060405180830381600087803b158015611a1657600080fd5b505af1158015611a2a573d6000803e3d6000fd5b505050505050505050565b83600080600083815260200190815260200160002060000154111515611a90576040517f08c379a0000000000000000000000000000000000000000000000000000000008152600401611a8790614b3e565b60405180910390fd5b60008086815260200190815260200160002073__Adjudicators__________________________630f9c940390918686866040518563ffffffff167c0100000000000000000000000000000000000000000000000000000000028152600401611afc9493929190614d9b565b60006040518083038186803b158015611b1457600080fd5b505af4158015611b28573d6000803e3d6000fd5b505050505050505050565b82600080600083815260200190815260200160002060000154111515611b8e576040517f08c379a0000000000000000000000000000000000000000000000000000000008152600401611b8590614b3e565b60405180910390fd5b60008060008681526020019081526020016000209050611bb984848361264e9092919063ffffffff16565b847f1e28397eca303bbc3b7933b3c68919fd3946a1381fb2214046b0451d2e463c228585604051611beb929190614e4e565b60405180910390a25050505050565b6000600160008373ffffffffffffffffffffffffffffffffffffffff1673ffffffffffffffffffffffffffffffffffffffff168152602001908152602001600020549050919050565b80600080600083815260200190815260200160002060000154111515611c9e576040517f08c379a0000000000000000000000000000000000000000000000000000000008152600401611c9590614b3e565b60405180910390fd5b6000806000848152602001908152602001600020905060006003811115611cc157fe5b8160060160009054906101000a900460ff166003811115611cde57fe5b141515611d20576040517f08c379a0000000000000000000000000000000000000000000000000000000008152600401611d1790614bbe565b60405180910390fd5b3373ffffffffffffffffffffffffffffffffffffffff16816003016000600281101515611d4957fe5b0160009054906101000a900473ffffffffffffffffffffffffffffffffffffffff1673ffffffffffffffffffffffffffffffffffffffff16141515611dc3576040517f08c379a0000000000000000000000000000000000000000000000000000000008152600401611dba90614b9e565b60405180910390fd5b60028160060160006101000a81548160ff02191690836003811115611de457fe5b02179055508060020154600160003373ffffffffffffffffffffffffffffffffffffffff1673ffffffffffffffffffffffffffffffffffffffff1681526020019081526020016000205401600160003373ffffffffffffffffffffffffffffffffffffffff1673ffffffffffffffffffffffffffffffffffffffff16815260200190815260200160002081905550806003016001600281101515611e8457fe5b0160009054906101000a900473ffffffffffffffffffffffffffffffffffffffff1673ffffffffffffffffffffffffffffffffffffffff16816003016000600281101515611ece57fe5b0160009054906101000a900473ffffffffffffffffffffffffffffffffffffffff1673ffffffffffffffffffffffffffffffffffffffff167f39b61285e1f395267f0a67b67e57a8dc3f31d8bc64cd9ff3ec6930831bb67624858460010160009054906101000a900473ffffffffffffffffffffffffffffffffffffffff16604051611f5b929190614f0e565b60405180910390a3505050565b83611f7281612955565b151515611fb4576040517f08c379a0000000000000000000000000000000000000000000000000000000008152600401611fab90614a9e565b60405180910390fd5b846001806003811115611fc357fe5b8260060160009054906101000a900460ff166003811115611fe057fe5b141515612022576040517f08c379a000000000000000000000000000000000000000000000000000000000815260040161201990614a7e565b60405180910390fd5b868680600001518260000154141515612070576040517f08c379a000000000000000000000000000000000000000000000000000000000815260040161206790614bde565b60405180910390fd5b61207b88888861297e565b8673__State_________________________________63e563190090916040518263ffffffff167c01000000000000000000000000000000000000000000000000000000000281526004016120d09190614df5565b60206040518083038186803b1580156120e857600080fd5b505af41580156120fc573d6000803e3d6000fd5b505050506040513d601f19601f820116820180604052506121209190810190613a60565b1515612161576040517f08c379a0000000000000000000000000000000000000000000000000000000008152600401612158906149fe565b60405180910390fd5b6122118942898a73__State_________________________________63bb60e9c990916040518263ffffffff167c01000000000000000000000000000000000000000000000000000000000281526004016121bc9190614df5565b60206040518083038186803b1580156121d457600080fd5b505af41580156121e8573d6000803e3d6000fd5b505050506040513d601f19601f8201168201806040525061220c91908101906139b7565b612acb565b505050505050505050565b8461222681612d77565b151515612268576040517f08c379a000000000000000000000000000000000000000000000000000000000815260040161225f90614c3e565b60405180910390fd5b85600180600381111561227757fe5b8260060160009054906101000a900460ff16600381111561229457fe5b1415156122d6576040517f08c379a00000000000000000000000000000000000000000000000000000000081526004016122cd90614a7e565b60405180910390fd5b878780600001518260000154141515612324576040517f08c379a000000000000000000000000000000000000000000000000000000000815260040161231b90614bde565b60405180910390fd5b600086600081518110151561233557fe5b9060200190602002015151141561246a576123bc898b600301600060028110151561235c57fe5b0160009054906101000a900473ffffffffffffffffffffffffffffffffffffffff168c600301600160028110151561239057fe5b0160009054906101000a900473ffffffffffffffffffffffffffffffffffffffff168d60050154612d8d565b8773__State_________________________________63654fc67d90918860018151811015156123e857fe5b906020019060200201516040518363ffffffff167c010000000000000000000000000000000000000000000000000000000002815260040161242b929190614e17565b60006040518083038186803b15801561244357600080fd5b505af4158015612457573d6000803e3d6000fd5b505050506124658989612f9e565b612476565b61247589898861297e565b5b6124868a61025842018a8a612acb565b50505050505050505050565b8261249c81612d77565b1515156124de576040517f08c379a00000000000000000000000000000000000000000000000000000000081526004016124d590614c3e565b60405180910390fd5b8360018060038111156124ed57fe5b8260060160009054906101000a900460ff16600381111561250a57fe5b14151561254c576040517f08c379a000000000000000000000000000000000000000000000000000000000815260040161254390614a7e565b60405180910390fd5b85858060000151826000015414151561259a576040517f08c379a000000000000000000000000000000000000000000000000000000000815260040161259190614bde565b60405180910390fd5b612610878960030160006002811015156125b057fe5b0160009054906101000a900473ffffffffffffffffffffffffffffffffffffffff168a60030160016002811015156125e457fe5b0160009054906101000a900473ffffffffffffffffffffffffffffffffffffffff168b60050154612d8d565b6126208861025842018989612acb565b5050505050505050565b6001816000016000828254019250508190555050565b600081600001549050919050565b8261265881612955565b1515612699576040517f08c379a000000000000000000000000000000000000000000000000000000000815260040161269090614c7e565b60405180910390fd5b8360018060038111156126a857fe5b8260060160009054906101000a900460ff1660038111156126c557fe5b141515612707576040517f08c379a00000000000000000000000000000000000000000000000000000000081526004016126fe90614a7e565b60405180910390fd5b8473__State_________________________________63654fc67d9091866040518363ffffffff167c010000000000000000000000000000000000000000000000000000000002815260040161275e929190614e85565b60006040518083038186803b15801561277657600080fd5b505af415801561278a573d6000803e3d6000fd5b505050506129448660070160000160a06040519081016040529081600082015481526020016001820160009054906101000a900473ffffffffffffffffffffffffffffffffffffffff1673ffffffffffffffffffffffffffffffffffffffff1673ffffffffffffffffffffffffffffffffffffffff1681526020016002820180548060200260200160405190810160405280929190818152602001828054801561288957602002820191906000526020600020905b8160009054906101000a900473ffffffffffffffffffffffffffffffffffffffff1673ffffffffffffffffffffffffffffffffffffffff168152602001906001019080831161283f575b5050505050815260200160038201548152602001600482018054600181600116156101000203166002900480601f0160208091040260200160405190810160405280929190818152602001828054600181600116156101000203166002900480156129355780601f1061290a57610100808354040283529160200191612935565b820191906000526020600020905b81548152906001019060200180831161291857829003601f168201915b50505050508152505086612f9e565b61294d86613253565b505050505050565b6000428260070160050160009054906101000a900463ffffffff1663ffffffff16119050919050565b8273__State_________________________________63654fc67d90918360008151811015156129aa57fe5b906020019060200201516040518363ffffffff167c01000000000000000000000000000000000000000000000000000000000281526004016129ed929190614e17565b60006040518083038186803b158015612a0557600080fd5b505af4158015612a19573d6000803e3d6000fd5b505050508173__State_________________________________63654fc67d9091836001815181101515612a4957fe5b906020019060200201516040518363ffffffff167c0100000000000000000000000000000000000000000000000000000000028152600401612a8c929190614e17565b60006040518083038186803b158015612aa457600080fd5b505af4158015612ab8573d6000803e3d6000fd5b50505050612ac68383612f9e565b505050565b81846007016000016000820151816000015560208201518160010160006101000a81548173ffffffffffffffffffffffffffffffffffffffff021916908373ffffffffffffffffffffffffffffffffffffffff1602179055506040820151816002019080519060200190612b4092919061341d565b50606082015181600301556080820151816004019080519060200190612b679291906134a7565b50905050828460070160050160006101000a81548163ffffffff021916908363ffffffff1602179055508173__State_________________________________63e563190090916040518263ffffffff167c0100000000000000000000000000000000000000000000000000000000028152600401612be69190614df5565b60206040518083038186803b158015612bfe57600080fd5b505af4158015612c12573d6000803e3d6000fd5b505050506040513d601f19601f82011682018060405250612c369190810190613a60565b15612d2a578173__State_________________________________63bb60e9c990916040518263ffffffff167c0100000000000000000000000000000000000000000000000000000000028152600401612c909190614df5565b60206040518083038186803b158015612ca857600080fd5b505af4158015612cbc573d6000803e3d6000fd5b505050506040513d601f19601f82011682018060405250612ce091908101906139b7565b8460070160050160046101000a81548173ffffffffffffffffffffffffffffffffffffffff021916908373ffffffffffffffffffffffffffffffffffffffff160217905550612d71565b808460070160050160046101000a81548173ffffffffffffffffffffffffffffffffffffffff021916908373ffffffffffffffffffffffffffffffffffffffff1602179055505b50505050565b6000808260070160000160000154119050919050565b60008460600151141515612dd6576040517f08c379a0000000000000000000000000000000000000000000000000000000008152600401612dcd90614ade565b60405180910390fd5b8273ffffffffffffffffffffffffffffffffffffffff1684604001516000815181101515612e0057fe5b9060200190602002015173ffffffffffffffffffffffffffffffffffffffff16141515612e62576040517f08c379a0000000000000000000000000000000000000000000000000000000008152600401612e5990614b5e565b60405180910390fd5b8173ffffffffffffffffffffffffffffffffffffffff1684604001516001815181101515612e8c57fe5b9060200190602002015173ffffffffffffffffffffffffffffffffffffffff16141515612eee576040517f08c379a0000000000000000000000000000000000000000000000000000000008152600401612ee590614c5e565b60405180910390fd5b83608001516040518082805190602001908083835b602083101515612f285780518252602082019150602081019050602083039250612f03565b6001836020036101000a038019825116818451168082178552505050505050905001915050604051809103902081141515612f98576040517f08c379a0000000000000000000000000000000000000000000000000000000008152600401612f8f90614c1e565b60405180910390fd5b50505050565b81600001518160000151141515612fea576040517f08c379a0000000000000000000000000000000000000000000000000000000008152600401612fe190614d3e565b60405180910390fd5b60018260600151018160600151141515613039576040517f08c379a000000000000000000000000000000000000000000000000000000000815260040161303090614b1e565b60405180910390fd5b816020015173ffffffffffffffffffffffffffffffffffffffff16816020015173ffffffffffffffffffffffffffffffffffffffff161415156130b1576040517f08c379a00000000000000000000000000000000000000000000000000000000081526004016130a890614cfe565b60405180910390fd5b816040015160008151811015156130c457fe5b9060200190602002015173ffffffffffffffffffffffffffffffffffffffff16816040015160008151811015156130f757fe5b9060200190602002015173ffffffffffffffffffffffffffffffffffffffff1614801561318757508160400151600181518110151561313257fe5b9060200190602002015173ffffffffffffffffffffffffffffffffffffffff168160400151600181518110151561316557fe5b9060200190602002015173ffffffffffffffffffffffffffffffffffffffff16145b15156131c8576040517f08c379a00000000000000000000000000000000000000000000000000000000081526004016131bf90614a3e565b60405180910390fd5b8173__State_________________________________63eb4f60419091836040518363ffffffff167c010000000000000000000000000000000000000000000000000000000002815260040161321f929190614ebc565b60006040518083038186803b15801561323757600080fd5b505af415801561324b573d6000803e3d6000fd5b505050505050565b6000816007016000016000018190555050565b6102406040519081016040528060008152602001600073ffffffffffffffffffffffffffffffffffffffff168152602001600081526020016132a6613527565b815260200160008019168152602001600060038111156132c257fe5b81526020016132cf613549565b81526020016132dc61358d565b81525090565b6040805190810160405280600290602082028038833980820191505090505090565b60e0604051908101604052806133186135e5565b8152602001600063ffffffff168152602001600073ffffffffffffffffffffffffffffffffffffffff1681525090565b608060405190810160405280600073ffffffffffffffffffffffffffffffffffffffff168152602001600073ffffffffffffffffffffffffffffffffffffffff16815260200160008019168152602001600081525090565b826002810192821561340c579160200282015b8281111561340b5782518260006101000a81548173ffffffffffffffffffffffffffffffffffffffff021916908373ffffffffffffffffffffffffffffffffffffffff160217905550916020019190600101906133b3565b5b509050613419919061362b565b5090565b828054828255906000526020600020908101928215613496579160200282015b828111156134955782518260006101000a81548173ffffffffffffffffffffffffffffffffffffffff021916908373ffffffffffffffffffffffffffffffffffffffff1602179055509160200191906001019061343d565b5b5090506134a3919061362b565b5090565b828054600181600116156101000203166002900490600052602060002090601f016020900481019282601f106134e857805160ff1916838001178555613516565b82800160010185558215613516579182015b828111156135155782518255916020019190600101906134fa565b5b509050613523919061366e565b5090565b6040805190810160405280600290602082028038833980820191505090505090565b60e06040519081016040528061355d6135e5565b8152602001600063ffffffff168152602001600073ffffffffffffffffffffffffffffffffffffffff1681525090565b608060405190810160405280600073ffffffffffffffffffffffffffffffffffffffff168152602001600073ffffffffffffffffffffffffffffffffffffffff16815260200160008019168152602001600081525090565b60a06040519081016040528060008152602001600073ffffffffffffffffffffffffffffffffffffffff1681526020016060815260200160008152602001606081525090565b61366b91905b8082111561366757600081816101000a81549073ffffffffffffffffffffffffffffffffffffffff021916905550600101613631565b5090565b90565b61369091905b8082111561368c576000816000905550600101613674565b5090565b90565b600061369f82356151d6565b905092915050565b60006136b382516151d6565b905092915050565b600082601f83011215156136ce57600080fd5b81356136e16136dc82615040565b615013565b9150818183526020840193506020810190508385602084028201111561370657600080fd5b60005b83811015613736578161371c8882613693565b845260208401935060208301925050600181019050613709565b5050505092915050565b600082601f830112151561375357600080fd5b813561376661376182615068565b615013565b9150818183526020840193506020810190508360005b838110156137ac57813586016137928882613816565b84526020840193506020830192505060018101905061377c565b5050505092915050565b60006137c282516151e8565b905092915050565b60008083601f84011215156137de57600080fd5b8235905067ffffffffffffffff8111156137f757600080fd5b60208301915083600182028301111561380f57600080fd5b9250929050565b600082601f830112151561382957600080fd5b813561383c61383782615090565b615013565b9150808252602083016020830185838301111561385857600080fd5b613863838284615246565b50505092915050565b600082601f830112151561387f57600080fd5b813561389261388d826150bc565b615013565b915080825260208301602083018583830111156138ae57600080fd5b6138b9838284615246565b50505092915050565b600060a082840312156138d457600080fd5b6138de60a0615013565b905060006138ee8482850161397a565b600083015250602061390284828501613693565b602083015250604082013567ffffffffffffffff81111561392257600080fd5b61392e848285016136bb565b60408301525060606139428482850161397a565b606083015250608082013567ffffffffffffffff81111561396257600080fd5b61396e84828501613816565b60808301525092915050565b600061398682356151f4565b905092915050565b6000602082840312156139a057600080fd5b60006139ae84828501613693565b91505092915050565b6000602082840312156139c957600080fd5b60006139d7848285016136a7565b91505092915050565b6000806000806000608086880312156139f857600080fd5b6000613a0688828901613693565b9550506020613a1788828901613693565b9450506040613a288882890161397a565b935050606086013567ffffffffffffffff811115613a4557600080fd5b613a51888289016137ca565b92509250509295509295909350565b600060208284031215613a7257600080fd5b6000613a80848285016137b6565b91505092915050565b600060208284031215613a9b57600080fd5b6000613aa98482850161397a565b91505092915050565b600080600060408486031215613ac757600080fd5b6000613ad58682870161397a565b935050602084013567ffffffffffffffff811115613af257600080fd5b613afe868287016137ca565b92509250509250925092565b60008060408385031215613b1d57600080fd5b6000613b2b8582860161397a565b925050602083013567ffffffffffffffff811115613b4857600080fd5b613b54858286016138c2565b9150509250929050565b600080600060608486031215613b7357600080fd5b6000613b818682870161397a565b935050602084013567ffffffffffffffff811115613b9e57600080fd5b613baa868287016138c2565b925050604084013567ffffffffffffffff811115613bc757600080fd5b613bd38682870161386c565b9150509250925092565b60008060008060808587031215613bf357600080fd5b6000613c018782880161397a565b945050602085013567ffffffffffffffff811115613c1e57600080fd5b613c2a878288016138c2565b935050604085013567ffffffffffffffff811115613c4757600080fd5b613c53878288016138c2565b925050606085013567ffffffffffffffff811115613c7057600080fd5b613c7c87828801613740565b91505092959194509250565b613c91816151fe565b82525050565b613ca08161516a565b82525050565b613caf8161516a565b82525050565b613cbe8161510c565b613cc7826150e8565b60005b82811015613cf957613cdd858351613c97565b613ce682615143565b9150602085019450600181019050613cca565b5050505050565b6000613d0b82615117565b808452602084019350613d1d836150f2565b60005b82811015613d4f57613d33868351613c97565b613d3c82615150565b9150602086019550600181019050613d20565b50849250505092915050565b6000613d6682615117565b808452602084019350613d78836150f2565b60005b82811015613daa57613d8e868351613ca6565b613d9782615150565b9150602086019550600181019050613d7b565b50849250505092915050565b6000613dc182615122565b80845260208401935083602082028501613dda856150ff565b60005b84811015613e13578383038852613df5838351613eff565b9250613e008261515d565b9150602088019750600181019050613ddd565b508196508694505050505092915050565b613e2d8161517c565b82525050565b6000828452602084019350613e49838584615246565b613e5283615288565b840190509392505050565b6000613e6882615138565b808452613e7c816020860160208601615255565b613e8581615288565b602085010191505092915050565b6000613e9e82615138565b808452613eb2816020860160208601615255565b613ebb81615288565b602085010191505092915050565b6000613ed48261512d565b808452613ee8816020860160208601615255565b613ef181615288565b602085010191505092915050565b6000613f0a8261512d565b808452613f1e816020860160208601615255565b613f2781615288565b602085010191505092915050565b613f3e81615210565b82525050565b6000602482527f556c74696d617465205374617465206d75737420626520612066696e616c207360208301527f74617465000000000000000000000000000000000000000000000000000000006040830152606082019050919050565b6000601c82527f5374616b65206d7573742062652067726561746572207468616e2030000000006020830152604082019050919050565b6000601c82527f506c6179657273206d7573742072656d61696e207468652073616d65000000006020830152604082019050919050565b6000602582527f4368616e6e656c206d7573742062652066756e64656420746f20636f6e636c7560208301527f64652069740000000000000000000000000000000000000000000000000000006040830152606082019050919050565b6000601782527f496e636f7272656374206368616e6e656c2073746174650000000000000000006020830152604082019050919050565b6000602482527f616374697665206368616c6c656e6765206d757374206e6f742062652070726560208301527f73656e74000000000000000000000000000000000000000000000000000000006040830152606082019050919050565b6000601382527f53656e64657220686173206e6f2066756e6473000000000000000000000000006020830152604082019050919050565b6000601482527f4669727374207475726e206d75737420626520300000000000000000000000006020830152604082019050919050565b6000602682527f5061796d656e74206d75737420626520657175616c20746f206368616e6e656c60208301527f207374616b6500000000000000000000000000000000000000000000000000006040830152606082019050919050565b6000602e82527f496e76616c6964207472616e736974696f6e3a207475726e4e756d206d75737460208301527f20696e63726561736520627920310000000000000000000000000000000000006040830152606082019050919050565b6000602082527f4368616e6e656c20686173206e6f7420796574206265656e20637265617465646020830152604082019050919050565b6000601982527f537461746520706c6179657220697320696e636f7272656374000000000000006020830152604082019050919050565b6000602982527f5468652073656e646572206973206e6f7420696e766f6c76656420696e20746860208301527f65206368616e6e656c00000000000000000000000000000000000000000000006040830152606082019050919050565b6000602582527f53656e646572206973206e6f742063726561746f72206f66207468697320636860208301527f616e6e656c0000000000000000000000000000000000000000000000000000006040830152606082019050919050565b6000601982527f4368616e6e656c20697320616c72656164792066756e646564000000000000006020830152604082019050919050565b6000603482527f4368616e6e656c2773206368616e6e656c4964206d757374206d61746368207460208301527f68652073746174652773206368616e6e656c49640000000000000000000000006040830152606082019050919050565b6000603d82527f506c656173652073656e642066756e6473207573696e67207468652046756e6460208301527f4368616e6e656c206f72206d616b654465706f736974206d6574686f640000006040830152606082019050919050565b6000601d82527f496e697469616c2073746174657320646f6573206e6f74206d617463680000006020830152604082019050919050565b6000602582527f63757272656e74206368616c6c656e6765206d757374206e6f7420626520707260208301527f6573656e740000000000000000000000000000000000000000000000000000006040830152606082019050919050565b6000601b82527f5374617465206f70706f6e656e7420697320696e636f727265637400000000006020830152604082019050919050565b6000602082527f616374697665206368616c6c656e6765206d7573742062652070726573656e746020830152604082019050919050565b6000602982527f53656e646572206973206e6f74207061727469636970616e74206f662074686960208301527f73206368616e6e656c00000000000000000000000000000000000000000000006040830152606082019050919050565b6000601c82527f57696e6e6572206e6f7420636f72726563746c792064656369646564000000006020830152604082019050919050565b6000601c82527f496e697469616c20737461746520646f6573206e6f74206d61746368000000006020830152604082019050919050565b6000602082527f4368616e6e656c54797065206d7573742072656d61696e207468652073616d656020830152604082019050919050565b6000601682527f496e76616c6964205061796d656e7420616d6f756e74000000000000000000006020830152604082019050919050565b6000603382527f496e76616c6964207472616e736974696f6e3a206368616e6e656c4964206d7560208301527f7374206d61746368206f6e20746f5374617465000000000000000000000000006040830152606082019050919050565b6080820160008201516146ef6000850182613c97565b5060208201516147026020850182613c97565b5060408201516147156040850182613e24565b50606082015161472860608501826149ad565b50505050565b6000606083016000830151848203600086015261474b8282614930565b915050602083015161476060208601826149cb565b5060408301516147736040860182613c97565b508091505092915050565b60006101808301600083015161479760008601826149ad565b5060208301516147aa6020860182613c97565b5060408301516147bd60408601826149ad565b5060608301516147d06060860182613cb5565b5060808301516147e360a0860182613e24565b5060a08301516147f660c0860182613f35565b5060c083015184820360e086015261480e828261472e565b91505060e08301516148246101008601826146d9565b508091505092915050565b8082525050565b600060a08301600083015161484e60008601826149ad565b5060208301516148616020860182613c97565b50604083015184820360408601526148798282613d00565b915050606083015161488e60608601826149ad565b50608083015184820360808601526148a68282613ec9565b9150508091505092915050565b600060a0830160008301516148cb60008601826149bc565b5060208301516148de6020860182613ca6565b50604083015184820360408601526148f68282613d5b565b915050606083015161490b60608601826149bc565b50608083015184820360808601526149238282613eff565b9150508091505092915050565b600060a08301600083015161494860008601826149ad565b50602083015161495b6020860182613c97565b50604083015184820360408601526149738282613d00565b915050606083015161498860608601826149ad565b50608083015184820360808601526149a08282613ec9565b9150508091505092915050565b6149b6816151bc565b82525050565b6149c5816151bc565b82525050565b6149d4816151c6565b82525050565b600060208201905081810360008301526149f5818486613e33565b90509392505050565b60006020820190508181036000830152614a1781613f44565b9050919050565b60006020820190508181036000830152614a3781613fa1565b9050919050565b60006020820190508181036000830152614a5781613fd8565b9050919050565b60006020820190508181036000830152614a778161400f565b9050919050565b60006020820190508181036000830152614a978161406c565b9050919050565b60006020820190508181036000830152614ab7816140a3565b9050919050565b60006020820190508181036000830152614ad781614100565b9050919050565b60006020820190508181036000830152614af781614137565b9050919050565b60006020820190508181036000830152614b178161416e565b9050919050565b60006020820190508181036000830152614b37816141cb565b9050919050565b60006020820190508181036000830152614b5781614228565b9050919050565b60006020820190508181036000830152614b778161425f565b9050919050565b60006020820190508181036000830152614b9781614296565b9050919050565b60006020820190508181036000830152614bb7816142f3565b9050919050565b60006020820190508181036000830152614bd781614350565b9050919050565b60006020820190508181036000830152614bf781614387565b9050919050565b60006020820190508181036000830152614c17816143e4565b9050919050565b60006020820190508181036000830152614c3781614441565b9050919050565b60006020820190508181036000830152614c5781614478565b9050919050565b60006020820190508181036000830152614c77816144d5565b9050919050565b60006020820190508181036000830152614c978161450c565b9050919050565b60006020820190508181036000830152614cb781614543565b9050919050565b60006020820190508181036000830152614cd7816145a0565b9050919050565b60006020820190508181036000830152614cf7816145d7565b9050919050565b60006020820190508181036000830152614d178161460e565b9050919050565b60006020820190508181036000830152614d3781614645565b9050919050565b60006020820190508181036000830152614d578161467c565b9050919050565b60006020820190508181036000830152614d78818461477e565b905092915050565b6000602082019050614d95600083018461482f565b92915050565b6000608082019050614db0600083018761482f565b8181036020830152614dc281866148b3565b90508181036040830152614dd681856148b3565b90508181036060830152614dea8184613db6565b905095945050505050565b60006020820190508181036000830152614e0f81846148b3565b905092915050565b60006040820190508181036000830152614e3181856148b3565b90508181036020830152614e458184613eff565b90509392505050565b60006040820190508181036000830152614e688185614836565b90508181036020830152614e7c8184613e5d565b90509392505050565b60006040820190508181036000830152614e9f81856148b3565b90508181036020830152614eb38184613e93565b90509392505050565b60006040820190508181036000830152614ed681856148b3565b90508181036020830152614eea81846148b3565b90509392505050565b6000602082019050614f0860008301846149ad565b92915050565b6000604082019050614f2360008301856149ad565b614f306020830184613c97565b9392505050565b6000606082019050614f4c60008301876149ad565b614f596020830186613c97565b8181036040830152614f6c818486613e33565b905095945050505050565b6000608082019050614f8c60008301886149ad565b8181036020830152614f9f818688613e33565b9050614fae6040830185613c88565b614fbb6060830184613c97565b9695505050505050565b6000608082019050614fda60008301886149ad565b8181036020830152614fed818688613e33565b9050614ffc6040830185613c97565b6150096060830184613c97565b9695505050505050565b6000604051905081810181811067ffffffffffffffff8211171561503657600080fd5b8060405250919050565b600067ffffffffffffffff82111561505757600080fd5b602082029050602081019050919050565b600067ffffffffffffffff82111561507f57600080fd5b602082029050602081019050919050565b600067ffffffffffffffff8211156150a757600080fd5b601f19601f8301169050602081019050919050565b600067ffffffffffffffff8211156150d357600080fd5b601f19601f8301169050602081019050919050565b6000819050919050565b6000602082019050919050565b6000602082019050919050565b600060029050919050565b600081519050919050565b600081519050919050565b600081519050919050565b600081519050919050565b6000602082019050919050565b6000602082019050919050565b6000602082019050919050565b60006151758261519c565b9050919050565b6000819050919050565b600060048210151561519457fe5b819050919050565b600073ffffffffffffffffffffffffffffffffffffffff82169050919050565b6000819050919050565b600063ffffffff82169050919050565b60006151e18261519c565b9050919050565b60008115159050919050565b6000819050919050565b600061520982615222565b9050919050565b600061521b82615186565b9050919050565b600061522d82615234565b9050919050565b600061523f8261519c565b9050919050565b82818337600083830152505050565b60005b83811015615273578082015181840152602081019050615258565b83811115615282576000848401525b50505050565b6000601f19601f830116905091905056fea265627a7a72305820140c2c6357393a267b5d63cbbda9617e203b3593e7b1aded438d34965913dd4d6c6578706572696d656e74616cf50037",
  "source": "pragma solidity ^0.5.2;\r\npragma experimental ABIEncoderV2;\r\n\r\nimport \"./Adjudicator.sol\";\r\nimport \"./Rules.sol\";\r\nimport \"./State.sol\";\r\nimport \"openzeppelin-solidity/contracts/drafts/Counters.sol\";\r\nimport \"../Libraries/ChallengeLib.sol\";\r\nimport \"../Libraries/ECVerify.sol\";\r\nimport \"./PlasmaTurnGame.sol\";\r\n\r\n\r\n//Plasma Channel Manager\r\ncontract PlasmaCM {\r\n    //events\r\n    event ChannelInitiated(uint channelId, address indexed creator, address indexed opponent, address channelType);\r\n    event ChannelFunded(uint channelId, address indexed creator, address indexed opponent, address channelType, bytes initialState);\r\n    event ChannelConcluded(uint channelId, address indexed creator, address indexed opponent, address channelType);\r\n    event ForceMoveResponded(uint indexed channelId, State.StateStruct nextState, bytes signature);\r\n\r\n    //events\r\n\r\n    using Adjudicators for FMChannel;\r\n    using Counters for Counters.Counter;\r\n    using ECVerify for bytes32;\r\n    using State for State.StateStruct;\r\n\r\n    enum ChannelState { INITIATED, FUNDED, CLOSED, SUSPENDED }\r\n\r\n    //Force Move Channel\r\n    struct FMChannel {\r\n        uint256 channelId;\r\n        address channelType;\r\n        uint256 stake;\r\n        address[2] players;\r\n        bytes32 initialArgumentsHash;\r\n        ChannelState state;\r\n        Rules.Challenge forceMoveChallenge;\r\n        ChallengeLib.Challenge plasmaChallenge;\r\n    }\r\n\r\n    mapping (uint => FMChannel) channels;\r\n    mapping (address => uint) funds;\r\n\r\n    Counters.Counter channelCounter;\r\n\r\n    uint256 constant MINIMAL_BET = 0.01 ether;\r\n\r\n    function () external payable {\r\n        revert(\"Please send funds using the FundChannel or makeDeposit method\");\r\n    }\r\n\r\n    function initiateChannel(\r\n        address channelType,\r\n        address opponent,\r\n        uint stake,\r\n        bytes calldata initialGameAttributes\r\n    ) external payable Payment(stake) {\r\n\r\n        ((PlasmaTurnGame)(channelType)).validateStartState(initialGameAttributes);\r\n        channelCounter.increment();\r\n\r\n        uint channelId = channelCounter.current();\r\n\r\n        address[2] memory addresses;\r\n        addresses[0] = msg.sender;\r\n        addresses[1] = opponent;\r\n\r\n        Rules.Challenge memory rchallenge;\r\n        ChallengeLib.Challenge memory cchallenge;\r\n\r\n        channels[channelId] = FMChannel(\r\n            channelId,\r\n            channelType,\r\n            stake,\r\n            addresses,\r\n            keccak256(initialGameAttributes),\r\n            ChannelState.INITIATED,\r\n            rchallenge,\r\n            cchallenge\r\n        );\r\n\r\n\r\n        emit ChannelInitiated(channelId, msg.sender, opponent, channelType);\r\n        ((PlasmaTurnGame)(channelType)).eventRequestState(channelId, initialGameAttributes, msg.sender, opponent);\r\n    }\r\n\r\n    function fundChannel(\r\n        uint channelId,\r\n        bytes calldata initialGameAttributes\r\n    ) external payable channelExists(channelId) {\r\n        FMChannel storage channel = channels[channelId];\r\n\r\n        require(channel.state == ChannelState.INITIATED, \"Channel is already funded\");\r\n        require(channel.players[1] == msg.sender, \"Sender is not participant of this channel\");\r\n        require(channel.stake == msg.value, \"Payment must be equal to channel stake\");\r\n        require(channel.initialArgumentsHash == keccak256(initialGameAttributes), \"Initial state does not match\");\r\n        channel.state = ChannelState.FUNDED;\r\n\r\n        emit ChannelFunded(channel.channelId, channel.players[0], channel.players[1], channel.channelType, initialGameAttributes);\r\n        ((PlasmaTurnGame)(channel.channelType)).eventStartState(channelId, initialGameAttributes, channel.players[0], channel.players[1]);\r\n    }\r\n\r\n    function closeUnfundedChannel(uint channelId) external channelExists(channelId) {\r\n        FMChannel storage channel = channels[channelId];\r\n\r\n        require(channel.state == ChannelState.INITIATED, \"Channel is already funded\");\r\n        require(channel.players[0] == msg.sender, \"Sender is not creator of this channel\");\r\n\r\n        channel.state = ChannelState.CLOSED;\r\n\r\n        funds[msg.sender] = funds[msg.sender] + channel.stake;\r\n        emit ChannelConcluded(channelId, channel.players[0], channel.players[1], channel.channelType);\r\n    }\r\n\r\n    function forceFirstMove(\r\n        uint channelId,\r\n        State.StateStruct memory initialState) public channelExists(channelId) isAllowed(channelId) {\r\n        channels[channelId].forceFirstMove(initialState, msg.sender);\r\n    }\r\n\r\n    function forceMove(\r\n        uint channelId,\r\n        State.StateStruct memory fromState,\r\n        State.StateStruct memory nextState,\r\n        bytes[] memory signatures)\r\n    public channelExists(channelId) isAllowed(channelId) {\r\n        channels[channelId].forceMove(fromState, nextState, msg.sender, signatures);\r\n    }\r\n\r\n    function respondWithMove(\r\n        uint channelId,\r\n        State.StateStruct memory nextState,\r\n        bytes memory signature)\r\n    public channelExists(channelId) {\r\n        FMChannel storage channel = channels[channelId];\r\n        channel.respondWithMove(nextState, signature);\r\n        emit ForceMoveResponded(channelId, nextState, signature);\r\n    }\r\n\r\n    function alternativeRespondWithMove(\r\n        uint channelId,\r\n        State.StateStruct memory alternativeState,\r\n        State.StateStruct memory nextState,\r\n        bytes[] memory signatures)\r\n    public channelExists(channelId) {\r\n        channels[channelId].alternativeRespondWithMove(alternativeState, nextState, signatures);\r\n    }\r\n\r\n    function conclude(\r\n        uint channelId,\r\n        State.StateStruct memory prevState,\r\n        State.StateStruct memory lastState,\r\n        bytes[] memory signatures)\r\n        public channelExists(channelId) {\r\n\r\n        FMChannel storage channel = channels[channelId];\r\n        require(channel.state == ChannelState.FUNDED, \"Channel must be funded to conclude it\");\r\n\r\n        if(!channel.expiredChallengePresent()) {\r\n            channel.conclude(prevState, lastState, signatures);\r\n        }\r\n\r\n        //should never fail\r\n        require(channel.expiredChallengePresent(), \"Winner not correctly decided\");\r\n\r\n        channel.state = ChannelState.CLOSED;\r\n        funds[channel.forceMoveChallenge.winner] += channel.stake * 2;\r\n        emit ChannelConcluded(channelId, channel.players[0], channel.players[1], channel.channelType);\r\n    }\r\n\r\n    function withdraw() public {\r\n        require(funds[msg.sender] > 0, \"Sender has no funds\");\r\n        uint value = funds[msg.sender];\r\n        funds[msg.sender] = 0;\r\n        msg.sender.transfer(value);\r\n    }\r\n\r\n    function getFunds(address user) external view returns (uint) {\r\n        return funds[user];\r\n    }\r\n\r\n    function getChannel(uint channelId) external view returns (FMChannel memory) {\r\n        return channels[channelId];\r\n    }\r\n\r\n    ///\r\n    //CHALLENGES\r\n    ///\r\n\r\n    //modifiers\r\n    modifier Payment(uint stake) {\r\n        require(stake > 0,\"Stake must be greater than 0\");\r\n        require(stake == msg.value, \"Invalid Payment amount\");\r\n        _;\r\n    }\r\n\r\n    modifier channelExists(uint channelId) {\r\n        require(channels[channelId].channelId > 0, \"Channel has not yet been created\");\r\n        _;\r\n    }\r\n\r\n    modifier isAllowed(uint channelId) {\r\n        require(channels[channelId].players[0] == msg.sender || channels[channelId].players[1] == msg.sender, \"The sender is not involved in the channel\");\r\n        _;\r\n    }\r\n\r\n}\r\n",
  "sourcePath": "C:\\Users\\Mariano\\IdeaProjects\\Plasma-Cash-RootChain\\contracts\\Battles\\PlasmaChannelManager.sol",
  "compiler": {
    "name": "solc",
    "version": "0.5.2+commit.1df8f40c.Emscripten.clang"
  },
  "schemaVersion": "3.0.14",
  "updatedAt": "2019-10-25T03:11:47.219Z",
  "devdoc": {
    "methods": {}
  },
  "userdoc": {
    "methods": {}
  }
}