{
  "contractName": "PlasmaCM",
  "abi": [
    {
      "inputs": [
        {
          "name": "_rootChain",
          "type": "address"
        }
      ],
      "payable": false,
      "stateMutability": "nonpayable",
      "type": "constructor"
    },
    {
      "payable": true,
      "stateMutability": "payable",
      "type": "fallback"
    },
    {
      "anonymous": false,
      "inputs": [
        {
          "indexed": false,
          "name": "channelId",
          "type": "uint256"
        },
        {
          "indexed": true,
          "name": "creator",
          "type": "address"
        },
        {
          "indexed": true,
          "name": "opponent",
          "type": "address"
        },
        {
          "indexed": false,
          "name": "channelType",
          "type": "address"
        }
      ],
      "name": "ChannelInitiated",
      "type": "event"
    },
    {
      "anonymous": false,
      "inputs": [
        {
          "indexed": false,
          "name": "channelId",
          "type": "uint256"
        },
        {
          "indexed": true,
          "name": "creator",
          "type": "address"
        },
        {
          "indexed": true,
          "name": "opponent",
          "type": "address"
        },
        {
          "indexed": false,
          "name": "channelType",
          "type": "address"
        },
        {
          "indexed": false,
          "name": "initialState",
          "type": "bytes"
        }
      ],
      "name": "ChannelFunded",
      "type": "event"
    },
    {
      "anonymous": false,
      "inputs": [
        {
          "indexed": false,
          "name": "channelId",
          "type": "uint256"
        },
        {
          "indexed": true,
          "name": "creator",
          "type": "address"
        },
        {
          "indexed": true,
          "name": "opponent",
          "type": "address"
        },
        {
          "indexed": false,
          "name": "channelType",
          "type": "address"
        }
      ],
      "name": "ChannelConcluded",
      "type": "event"
    },
    {
      "anonymous": false,
      "inputs": [
        {
          "indexed": true,
          "name": "channelId",
          "type": "uint256"
        },
        {
          "indexed": false,
          "name": "exitIndex",
          "type": "uint256"
        },
        {
          "indexed": true,
          "name": "creator",
          "type": "address"
        },
        {
          "indexed": true,
          "name": "opponent",
          "type": "address"
        },
        {
          "indexed": false,
          "name": "challenger",
          "type": "address"
        }
      ],
      "name": "ChannelChallenged",
      "type": "event"
    },
    {
      "anonymous": false,
      "inputs": [
        {
          "indexed": true,
          "name": "channelId",
          "type": "uint256"
        },
        {
          "indexed": false,
          "name": "exitIndex",
          "type": "uint256"
        },
        {
          "indexed": false,
          "name": "txHash",
          "type": "bytes32"
        },
        {
          "indexed": true,
          "name": "creator",
          "type": "address"
        },
        {
          "indexed": true,
          "name": "opponent",
          "type": "address"
        },
        {
          "indexed": false,
          "name": "challenger",
          "type": "address"
        }
      ],
      "name": "ChallengeRequest",
      "type": "event"
    },
    {
      "anonymous": false,
      "inputs": [
        {
          "indexed": true,
          "name": "channelId",
          "type": "uint256"
        },
        {
          "indexed": false,
          "name": "exitIndex",
          "type": "uint256"
        },
        {
          "indexed": false,
          "name": "txHash",
          "type": "bytes32"
        },
        {
          "indexed": true,
          "name": "creator",
          "type": "address"
        },
        {
          "indexed": true,
          "name": "opponent",
          "type": "address"
        },
        {
          "indexed": false,
          "name": "challenger",
          "type": "address"
        }
      ],
      "name": "ChallengeResponded",
      "type": "event"
    },
    {
      "anonymous": false,
      "inputs": [
        {
          "indexed": true,
          "name": "channelId",
          "type": "uint256"
        },
        {
          "components": [
            {
              "name": "channelId",
              "type": "uint256"
            },
            {
              "name": "channelType",
              "type": "address"
            },
            {
              "name": "participants",
              "type": "address[]"
            },
            {
              "name": "turnNum",
              "type": "uint256"
            },
            {
              "name": "gameAttributes",
              "type": "bytes"
            }
          ],
          "indexed": false,
          "name": "nextState",
          "type": "tuple"
        },
        {
          "indexed": false,
          "name": "signature",
          "type": "bytes"
        }
      ],
      "name": "ForceMoveResponded",
      "type": "event"
    },
    {
      "constant": false,
      "inputs": [
        {
          "name": "channelType",
          "type": "address"
        },
        {
          "name": "opponent",
          "type": "address"
        },
        {
          "name": "stake",
          "type": "uint256"
        },
        {
          "name": "initialGameAttributes",
          "type": "bytes"
        },
        {
          "name": "exitData",
          "type": "bytes"
        }
      ],
      "name": "initiateChannel",
      "outputs": [],
      "payable": true,
      "stateMutability": "payable",
      "type": "function"
    },
    {
      "constant": false,
      "inputs": [
        {
          "name": "channelId",
          "type": "uint256"
        },
        {
          "name": "initialGameAttributes",
          "type": "bytes"
        },
        {
          "name": "exitData",
          "type": "bytes"
        }
      ],
      "name": "fundChannel",
      "outputs": [],
      "payable": true,
      "stateMutability": "payable",
      "type": "function"
    },
    {
      "constant": false,
      "inputs": [
        {
          "name": "channelId",
          "type": "uint256"
        }
      ],
      "name": "closeUnfundedChannel",
      "outputs": [],
      "payable": false,
      "stateMutability": "nonpayable",
      "type": "function"
    },
    {
      "constant": false,
      "inputs": [
        {
          "name": "channelId",
          "type": "uint256"
        },
        {
          "components": [
            {
              "name": "channelId",
              "type": "uint256"
            },
            {
              "name": "channelType",
              "type": "address"
            },
            {
              "name": "participants",
              "type": "address[]"
            },
            {
              "name": "turnNum",
              "type": "uint256"
            },
            {
              "name": "gameAttributes",
              "type": "bytes"
            }
          ],
          "name": "initialState",
          "type": "tuple"
        }
      ],
      "name": "forceFirstMove",
      "outputs": [],
      "payable": false,
      "stateMutability": "nonpayable",
      "type": "function"
    },
    {
      "constant": false,
      "inputs": [
        {
          "name": "channelId",
          "type": "uint256"
        },
        {
          "components": [
            {
              "name": "channelId",
              "type": "uint256"
            },
            {
              "name": "channelType",
              "type": "address"
            },
            {
              "name": "participants",
              "type": "address[]"
            },
            {
              "name": "turnNum",
              "type": "uint256"
            },
            {
              "name": "gameAttributes",
              "type": "bytes"
            }
          ],
          "name": "fromState",
          "type": "tuple"
        },
        {
          "components": [
            {
              "name": "channelId",
              "type": "uint256"
            },
            {
              "name": "channelType",
              "type": "address"
            },
            {
              "name": "participants",
              "type": "address[]"
            },
            {
              "name": "turnNum",
              "type": "uint256"
            },
            {
              "name": "gameAttributes",
              "type": "bytes"
            }
          ],
          "name": "nextState",
          "type": "tuple"
        },
        {
          "name": "signatures",
          "type": "bytes[]"
        }
      ],
      "name": "forceMove",
      "outputs": [],
      "payable": false,
      "stateMutability": "nonpayable",
      "type": "function"
    },
    {
      "constant": false,
      "inputs": [
        {
          "name": "channelId",
          "type": "uint256"
        },
        {
          "components": [
            {
              "name": "channelId",
              "type": "uint256"
            },
            {
              "name": "channelType",
              "type": "address"
            },
            {
              "name": "participants",
              "type": "address[]"
            },
            {
              "name": "turnNum",
              "type": "uint256"
            },
            {
              "name": "gameAttributes",
              "type": "bytes"
            }
          ],
          "name": "nextState",
          "type": "tuple"
        },
        {
          "name": "signature",
          "type": "bytes"
        }
      ],
      "name": "respondWithMove",
      "outputs": [],
      "payable": false,
      "stateMutability": "nonpayable",
      "type": "function"
    },
    {
      "constant": false,
      "inputs": [
        {
          "name": "channelId",
          "type": "uint256"
        },
        {
          "components": [
            {
              "name": "channelId",
              "type": "uint256"
            },
            {
              "name": "channelType",
              "type": "address"
            },
            {
              "name": "participants",
              "type": "address[]"
            },
            {
              "name": "turnNum",
              "type": "uint256"
            },
            {
              "name": "gameAttributes",
              "type": "bytes"
            }
          ],
          "name": "alternativeState",
          "type": "tuple"
        },
        {
          "components": [
            {
              "name": "channelId",
              "type": "uint256"
            },
            {
              "name": "channelType",
              "type": "address"
            },
            {
              "name": "participants",
              "type": "address[]"
            },
            {
              "name": "turnNum",
              "type": "uint256"
            },
            {
              "name": "gameAttributes",
              "type": "bytes"
            }
          ],
          "name": "nextState",
          "type": "tuple"
        },
        {
          "name": "signatures",
          "type": "bytes[]"
        }
      ],
      "name": "alternativeRespondWithMove",
      "outputs": [],
      "payable": false,
      "stateMutability": "nonpayable",
      "type": "function"
    },
    {
      "constant": false,
      "inputs": [
        {
          "name": "channelId",
          "type": "uint256"
        },
        {
          "components": [
            {
              "name": "channelId",
              "type": "uint256"
            },
            {
              "name": "channelType",
              "type": "address"
            },
            {
              "name": "participants",
              "type": "address[]"
            },
            {
              "name": "turnNum",
              "type": "uint256"
            },
            {
              "name": "gameAttributes",
              "type": "bytes"
            }
          ],
          "name": "prevState",
          "type": "tuple"
        },
        {
          "components": [
            {
              "name": "channelId",
              "type": "uint256"
            },
            {
              "name": "channelType",
              "type": "address"
            },
            {
              "name": "participants",
              "type": "address[]"
            },
            {
              "name": "turnNum",
              "type": "uint256"
            },
            {
              "name": "gameAttributes",
              "type": "bytes"
            }
          ],
          "name": "lastState",
          "type": "tuple"
        },
        {
          "name": "signatures",
          "type": "bytes[]"
        }
      ],
      "name": "conclude",
      "outputs": [],
      "payable": false,
      "stateMutability": "nonpayable",
      "type": "function"
    },
    {
      "constant": false,
      "inputs": [],
      "name": "withdraw",
      "outputs": [],
      "payable": false,
      "stateMutability": "nonpayable",
      "type": "function"
    },
    {
      "constant": false,
      "inputs": [
        {
          "name": "channelId",
          "type": "uint256"
        },
        {
          "name": "index",
          "type": "uint256"
        },
        {
          "name": "txBytes",
          "type": "bytes"
        },
        {
          "name": "txInclusionProof",
          "type": "bytes"
        },
        {
          "name": "blockNumber",
          "type": "uint256"
        }
      ],
      "name": "challengeBefore",
      "outputs": [],
      "payable": true,
      "stateMutability": "payable",
      "type": "function"
    },
    {
      "constant": false,
      "inputs": [
        {
          "name": "channelId",
          "type": "uint256"
        },
        {
          "name": "index",
          "type": "uint256"
        },
        {
          "name": "challengingTransaction",
          "type": "bytes"
        },
        {
          "name": "proof",
          "type": "bytes"
        },
        {
          "name": "signature",
          "type": "bytes"
        },
        {
          "name": "challengingBlockNumber",
          "type": "uint256"
        }
      ],
      "name": "challengeAfter",
      "outputs": [],
      "payable": false,
      "stateMutability": "nonpayable",
      "type": "function"
    },
    {
      "constant": false,
      "inputs": [
        {
          "name": "channelId",
          "type": "uint256"
        },
        {
          "name": "index",
          "type": "uint256"
        },
        {
          "name": "challengingTransaction",
          "type": "bytes"
        },
        {
          "name": "proof",
          "type": "bytes"
        },
        {
          "name": "signature",
          "type": "bytes"
        },
        {
          "name": "challengingBlockNumber",
          "type": "uint256"
        }
      ],
      "name": "challengeBetween",
      "outputs": [],
      "payable": false,
      "stateMutability": "nonpayable",
      "type": "function"
    },
    {
      "constant": false,
      "inputs": [
        {
          "name": "channelId",
          "type": "uint256"
        },
        {
          "name": "index",
          "type": "uint256"
        },
        {
          "name": "challengingTxHash",
          "type": "bytes32"
        },
        {
          "name": "respondingBlockNumber",
          "type": "uint256"
        },
        {
          "name": "respondingTransaction",
          "type": "bytes"
        },
        {
          "name": "proof",
          "type": "bytes"
        },
        {
          "name": "signature",
          "type": "bytes"
        }
      ],
      "name": "respondChallengeBefore",
      "outputs": [],
      "payable": false,
      "stateMutability": "nonpayable",
      "type": "function"
    },
    {
      "constant": false,
      "inputs": [
        {
          "name": "channelId",
          "type": "uint256"
        }
      ],
      "name": "closeChallengedChannel",
      "outputs": [],
      "payable": false,
      "stateMutability": "nonpayable",
      "type": "function"
    },
    {
      "constant": true,
      "inputs": [
        {
          "name": "user",
          "type": "address"
        }
      ],
      "name": "getFunds",
      "outputs": [
        {
          "name": "",
          "type": "uint256"
        }
      ],
      "payable": false,
      "stateMutability": "view",
      "type": "function"
    },
    {
      "constant": true,
      "inputs": [
        {
          "name": "channelId",
          "type": "uint256"
        }
      ],
      "name": "getChannel",
      "outputs": [
        {
          "components": [
            {
              "name": "channelId",
              "type": "uint256"
            },
            {
              "name": "channelType",
              "type": "address"
            },
            {
              "name": "fundedTimestamp",
              "type": "uint256"
            },
            {
              "name": "stake",
              "type": "uint256"
            },
            {
              "name": "players",
              "type": "address[2]"
            },
            {
              "name": "initialArgumentsHash",
              "type": "bytes32"
            },
            {
              "name": "state",
              "type": "uint8"
            },
            {
              "components": [
                {
                  "components": [
                    {
                      "name": "channelId",
                      "type": "uint256"
                    },
                    {
                      "name": "channelType",
                      "type": "address"
                    },
                    {
                      "name": "participants",
                      "type": "address[]"
                    },
                    {
                      "name": "turnNum",
                      "type": "uint256"
                    },
                    {
                      "name": "gameAttributes",
                      "type": "bytes"
                    }
                  ],
                  "name": "state",
                  "type": "tuple"
                },
                {
                  "name": "expirationTime",
                  "type": "uint32"
                },
                {
                  "name": "winner",
                  "type": "address"
                }
              ],
              "name": "forceMoveChallenge",
              "type": "tuple"
            }
          ],
          "name": "",
          "type": "tuple"
        }
      ],
      "payable": false,
      "stateMutability": "view",
      "type": "function"
    },
    {
      "constant": true,
      "inputs": [
        {
          "name": "channelId",
          "type": "uint256"
        },
        {
          "name": "index",
          "type": "uint256"
        }
      ],
      "name": "getExit",
      "outputs": [
        {
          "components": [
            {
              "name": "slot",
              "type": "uint64"
            },
            {
              "name": "prevOwner",
              "type": "address"
            },
            {
              "name": "owner",
              "type": "address"
            },
            {
              "name": "createdAt",
              "type": "uint256"
            },
            {
              "name": "prevBlock",
              "type": "uint256"
            },
            {
              "name": "exitBlock",
              "type": "uint256"
            }
          ],
          "name": "",
          "type": "tuple"
        }
      ],
      "payable": false,
      "stateMutability": "view",
      "type": "function"
    },
    {
      "constant": true,
      "inputs": [
        {
          "name": "channelId",
          "type": "uint256"
        },
        {
          "name": "txHash",
          "type": "bytes32"
        }
      ],
      "name": "getChallenge",
      "outputs": [
        {
          "components": [
            {
              "name": "owner",
              "type": "address"
            },
            {
              "name": "challenger",
              "type": "address"
            },
            {
              "name": "txHash",
              "type": "bytes32"
            },
            {
              "name": "challengingBlockNumber",
              "type": "uint256"
            }
          ],
          "name": "",
          "type": "tuple"
        }
      ],
      "payable": false,
      "stateMutability": "view",
      "type": "function"
    }
  ],
  "bytecode": "0x60806040523480156200001157600080fd5b506040516020806200a94d833981018060405262000033919081019062000091565b80600560006101000a81548173ffffffffffffffffffffffffffffffffffffffff021916908373ffffffffffffffffffffffffffffffffffffffff1602179055505062000105565b6000620000898251620000f1565b905092915050565b600060208284031215620000a457600080fd5b6000620000b4848285016200007b565b91505092915050565b6000620000ca82620000d1565b9050919050565b600073ffffffffffffffffffffffffffffffffffffffff82169050919050565b6000620000fe82620000bd565b9050919050565b61a83880620001156000396000f3fe608060405260043610610126576000357c010000000000000000000000000000000000000000000000000000000090048063b3586724116100b2578063decebbce11610081578063decebbce14610393578063e4a47d4d146103d0578063e649544c146103f9578063f264c05f14610422578063f5f585781461043e57610126565b8063b3586724146102db578063b38dd09014610304578063c4eafa5014610341578063d77533c11461036a57610126565b806327129344116100f9578063271293441461020c5780633ccfd60b14610235578063437135801461024c5780634f32af911461027557806364e070881461029e57610126565b806307494ed9146101615780630aeae3611461018a57806310df54a0146101a6578063254d4f56146101e3575b6040517f08c379a000000000000000000000000000000000000000000000000000000000815260040161015890619b74565b60405180910390fd5b34801561016d57600080fd5b506101886004803603610183919081019061810e565b61045a565b005b6101a4600480360361019f9190810190617e33565b61088d565b005b3480156101b257600080fd5b506101cd60048036036101c89190810190617f4d565b610fb1565b6040516101da919061a1ca565b60405180910390f35b3480156101ef57600080fd5b5061020a6004803603610205919081019061810e565b611345565b005b34801561021857600080fd5b50610233600480360361022e91908101906181f5565b611501565b005b34801561024157600080fd5b5061024a611b2a565b005b34801561025857600080fd5b50610273600480360361026e919081019061803b565b611c81565b005b34801561028157600080fd5b5061029c600480360361029791908101906182e8565b611e37565b005b3480156102aa57600080fd5b506102c560048036036102c09190810190617f76565b61228a565b6040516102d2919061a194565b60405180910390f35b3480156102e757600080fd5b5061030260048036036102fd9190810190617f4d565b6123be565b005b34801561031057600080fd5b5061032b600480360361032691908101906181b9565b612832565b604051610338919061a1af565b60405180910390f35b34801561034d57600080fd5b506103686004803603610363919081019061810e565b612978565b005b34801561037657600080fd5b50610391600480360361038c919081019061808f565b612ba6565b005b34801561039f57600080fd5b506103ba60048036036103b59190810190617de1565b612c6d565b6040516103c7919061a35f565b60405180910390f35b3480156103dc57600080fd5b506103f760048036036103f291908101906182e8565b612cb6565b005b34801561040557600080fd5b50610420600480360361041b9190810190617f4d565b613109565b005b61043c60048036036104379190810190617fb2565b61342e565b005b610458600480360361045391908101906183c7565b613ad6565b005b836000806000838152602001908152602001600020600001541115156104b5576040517f08c379a00000000000000000000000000000000000000000000000000000000081526004016104ac90619d74565b60405180910390fd5b84600160048111156104c357fe5b60008083815260200190815260200160002060070160009054906101000a900460ff1660048111156104f157fe5b141515610533576040517f08c379a000000000000000000000000000000000000000000000000000000000815260040161052a90619dd4565b60405180910390fd5b600080600088815260200190815260200160002090508073__Adjudicators__________________________6393eb57d890916040518263ffffffff167c010000000000000000000000000000000000000000000000000000000002815260040161059e919061a1ec565b60206040518083038186803b1580156105b657600080fd5b505af41580156105ca573d6000803e3d6000fd5b505050506040513d601f19601f820116820180604052506105ee9190810190617f24565b151561060c5761060b868686846141b3909392919063ffffffff16565b5b8073__Adjudicators__________________________6393eb57d890916040518263ffffffff167c0100000000000000000000000000000000000000000000000000000000028152600401610661919061a1ec565b60206040518083038186803b15801561067957600080fd5b505af415801561068d573d6000803e3d6000fd5b505050506040513d601f19601f820116820180604052506106b19190810190617f24565b15156106f2576040517f08c379a00000000000000000000000000000000000000000000000000000000081526004016106e99061a054565b60405180910390fd5b60038160070160006101000a81548160ff0219169083600481111561071357fe5b02179055506002816003015402600360008360080160050160049054906101000a900473ffffffffffffffffffffffffffffffffffffffff1673ffffffffffffffffffffffffffffffffffffffff1673ffffffffffffffffffffffffffffffffffffffff168152602001908152602001600020600082825401925050819055508060040160016002811015156107a557fe5b0160009054906101000a900473ffffffffffffffffffffffffffffffffffffffff1673ffffffffffffffffffffffffffffffffffffffff168160040160006002811015156107ef57fe5b0160009054906101000a900473ffffffffffffffffffffffffffffffffffffffff1673ffffffffffffffffffffffffffffffffffffffff167f39b61285e1f395267f0a67b67e57a8dc3f31d8bc64cd9ff3ec6930831bb67624898460010160009054906101000a900473ffffffffffffffffffffffffffffffffffffffff1660405161087c92919061a37a565b60405180910390a350505050505050565b84662386f26fc1000081101515156108da576040517f08c379a00000000000000000000000000000000000000000000000000000000081526004016108d190619d54565b60405180910390fd5b348114151561091e576040517f08c379a00000000000000000000000000000000000000000000000000000000081526004016109159061a0f4565b60405180910390fd5b6109286004614467565b610930617388565b3381600060028110151561094057fe5b602002019073ffffffffffffffffffffffffffffffffffffffff16908173ffffffffffffffffffffffffffffffffffffffff16815250508781600160028110151561098757fe5b602002019073ffffffffffffffffffffffffffffffffffffffff16908173ffffffffffffffffffffffffffffffffffffffff168152505060608973ffffffffffffffffffffffffffffffffffffffff1663764dfafe88888589896040518663ffffffff167c0100000000000000000000000000000000000000000000000000000000028152600401610a1d959493929190619a34565b60006040518083038186803b158015610a3557600080fd5b505afa158015610a49573d6000803e3d6000fd5b505050506040513d6000823e3d601f19601f82011682018060405250610a729190810190617ee3565b905060005b8151811015610bca5760026000610a8e600461447d565b81526020019081526020016000208282815181101515610aaa57fe5b906020019060200201519080600181540180825580915050906001820390600052602060002090600502016000909192909190915060008201518160000160006101000a81548167ffffffffffffffff021916908367ffffffffffffffff16021790555060208201518160000160086101000a81548173ffffffffffffffffffffffffffffffffffffffff021916908373ffffffffffffffffffffffffffffffffffffffff16021790555060408201518160010160006101000a81548173ffffffffffffffffffffffffffffffffffffffff021916908373ffffffffffffffffffffffffffffffffffffffff160217905550606082015181600201556080820151816003015560a082015181600401555050508080600101915050610a77565b50610bd36173aa565b610bdb6173ee565b61010060405190810160405280610bf2600461447d565b81526020018d73ffffffffffffffffffffffffffffffffffffffff168152602001600081526020018b81526020018581526020018a8a6040518083838082843780830192505050925050506040518091039020815260200160006004811115610c5757fe5b815260200183815250905080600080836000015181526020019081526020016000206000820151816000015560208201518160010160006101000a81548173ffffffffffffffffffffffffffffffffffffffff021916908373ffffffffffffffffffffffffffffffffffffffff1602179055506040820151816002015560608201518160030155608082015181600401906002610cf5929190617464565b5060a0820151816006015560c08201518160070160006101000a81548160ff02191690836004811115610d2457fe5b021790555060e0820151816008016000820151816000016000820151816000015560208201518160010160006101000a81548173ffffffffffffffffffffffffffffffffffffffff021916908373ffffffffffffffffffffffffffffffffffffffff1602179055506040820151816002019080519060200190610da89291906174e1565b50606082015181600301556080820151816004019080519060200190610dcf92919061756b565b50505060208201518160050160006101000a81548163ffffffff021916908363ffffffff16021790555060408201518160050160046101000a81548173ffffffffffffffffffffffffffffffffffffffff021916908373ffffffffffffffffffffffffffffffffffffffff160217905550505090505080608001516001600281101515610e5857fe5b602002015173ffffffffffffffffffffffffffffffffffffffff1681608001516000600281101515610e8657fe5b602002015173ffffffffffffffffffffffffffffffffffffffff167f25cf3599109edb1e430fb6b67729a3e2d50143f7f06d41c5140504803919c1a283600001518460200151604051610eda92919061a37a565b60405180910390a38b73ffffffffffffffffffffffffffffffffffffffff166332a4b4eb82600001518b8b85608001516000600281101515610f1857fe5b602002015186608001516001600281101515610f3057fe5b60200201516040518663ffffffff167c0100000000000000000000000000000000000000000000000000000000028152600401610f7195949392919061a47a565b600060405180830381600087803b158015610f8b57600080fd5b505af1158015610f9f573d6000803e3d6000fd5b50505050505050505050505050505050565b610fb96173ee565b6000808381526020019081526020016000206101006040519081016040529081600082015481526020016001820160009054906101000a900473ffffffffffffffffffffffffffffffffffffffff1673ffffffffffffffffffffffffffffffffffffffff1673ffffffffffffffffffffffffffffffffffffffff1681526020016002820154815260200160038201548152602001600482016002806020026040519081016040528092919082600280156110be576020028201915b8160009054906101000a900473ffffffffffffffffffffffffffffffffffffffff1673ffffffffffffffffffffffffffffffffffffffff1681526020019060010190808311611074575b50505050508152602001600682015481526020016007820160009054906101000a900460ff1660048111156110ef57fe5b60048111156110fa57fe5b815260200160088201606060405190810160405290816000820160a06040519081016040529081600082015481526020016001820160009054906101000a900473ffffffffffffffffffffffffffffffffffffffff1673ffffffffffffffffffffffffffffffffffffffff1673ffffffffffffffffffffffffffffffffffffffff1681526020016002820180548060200260200160405190810160405280929190818152602001828054801561120557602002820191906000526020600020905b8160009054906101000a900473ffffffffffffffffffffffffffffffffffffffff1673ffffffffffffffffffffffffffffffffffffffff16815260200190600101908083116111bb575b5050505050815260200160038201548152602001600482018054600181600116156101000203166002900480601f0160208091040260200160405190810160405280929190818152602001828054600181600116156101000203166002900480156112b15780601f10611286576101008083540402835291602001916112b1565b820191906000526020600020905b81548152906001019060200180831161129457829003601f168201915b50505050508152505081526020016005820160009054906101000a900463ffffffff1663ffffffff1663ffffffff1681526020016005820160049054906101000a900473ffffffffffffffffffffffffffffffffffffffff1673ffffffffffffffffffffffffffffffffffffffff1673ffffffffffffffffffffffffffffffffffffffff1681525050815250509050919050565b836000806000838152602001908152602001600020600001541115156113a0576040517f08c379a000000000000000000000000000000000000000000000000000000000815260040161139790619d74565b60405180910390fd5b843373ffffffffffffffffffffffffffffffffffffffff1660008083815260200190815260200160002060040160006002811015156113db57fe5b0160009054906101000a900473ffffffffffffffffffffffffffffffffffffffff1673ffffffffffffffffffffffffffffffffffffffff16148061148e57503373ffffffffffffffffffffffffffffffffffffffff16600080838152602001908152602001600020600401600160028110151561145457fe5b0160009054906101000a900473ffffffffffffffffffffffffffffffffffffffff1673ffffffffffffffffffffffffffffffffffffffff16145b15156114cf576040517f08c379a00000000000000000000000000000000000000000000000000000000081526004016114c690619e34565b60405180910390fd5b6114f9858533866000808c815260200190815260200160002061448b90949392919063ffffffff16565b505050505050565b8960008060008381526020019081526020016000206000015411151561155c576040517f08c379a000000000000000000000000000000000000000000000000000000000815260040161155390619d74565b60405180910390fd5b8a6002600481111561156a57fe5b60008083815260200190815260200160002060070160009054906101000a900460ff16600481111561159857fe5b1415156115da576040517f08c379a00000000000000000000000000000000000000000000000000000000081526004016115d190619f34565b60405180910390fd5b6000600160008e815260200190815260200160002090506116048b8261470190919063ffffffff16565b1515611645576040517f08c379a000000000000000000000000000000000000000000000000000000000815260040161163c90619b34565b60405180910390fd5b600061165a8c8361473d90919063ffffffff16565b905060008d905060008f905060008d905060608d8d8080601f016020809104026020016040519081016040528093929190818152602001838380828437600081840152601f19601f82011690508083019250505050505050905060608c8c8080601f016020809104026020016040519081016040528093929190818152602001838380828437600081840152601f19601f82011690508083019250505050505050905060608b8b8080601f016020809104026020016040519081016040528093929190818152602001838380828437600081840152601f19601f82011690508083019250505050505050905061174e6175eb565b600260008781526020019081526020016000208781548110151561176e57fe5b906000526020600020906005020160c060405190810160405290816000820160009054906101000a900467ffffffffffffffff1667ffffffffffffffff1667ffffffffffffffff1681526020016000820160089054906101000a900473ffffffffffffffffffffffffffffffffffffffff1673ffffffffffffffffffffffffffffffffffffffff1673ffffffffffffffffffffffffffffffffffffffff1681526020016001820160009054906101000a900473ffffffffffffffffffffffffffffffffffffffff1673ffffffffffffffffffffffffffffffffffffffff1673ffffffffffffffffffffffffffffffffffffffff1681526020016002820154815260200160038201548152602001600482015481525050905061188e617658565b898981548110151561189c57fe5b9060005260206000209060040201608060405190810160405290816000820160009054906101000a900473ffffffffffffffffffffffffffffffffffffffff1673ffffffffffffffffffffffffffffffffffffffff1673ffffffffffffffffffffffffffffffffffffffff1681526020016001820160009054906101000a900473ffffffffffffffffffffffffffffffffffffffff1673ffffffffffffffffffffffffffffffffffffffff1673ffffffffffffffffffffffffffffffffffffffff1681526020016002820154815260200160038201548152505090506119868282888887896147b9565b67016345785d8a0000600360003373ffffffffffffffffffffffffffffffffffffffff1673ffffffffffffffffffffffffffffffffffffffff1681526020019081526020016000206000828254019250508190555060008060008981526020019081526020016000209050611a04898c6149cf90919063ffffffff16565b5060008b805490501415611a395760018160070160006101000a81548160ff02191690836004811115611a3357fe5b02179055505b806004016001600281101515611a4b57fe5b0160009054906101000a900473ffffffffffffffffffffffffffffffffffffffff1673ffffffffffffffffffffffffffffffffffffffff16816004016000600281101515611a9557fe5b0160009054906101000a900473ffffffffffffffffffffffffffffffffffffffff1673ffffffffffffffffffffffffffffffffffffffff16897fcf151482e26f1cea5e270edcca2971265164cb8490d235037b223a3d6c7a38e38c86604001518760200151604051611b099392919061a40c565b60405180910390a45050505050505050505050505050505050505050505050565b6000600360003373ffffffffffffffffffffffffffffffffffffffff1673ffffffffffffffffffffffffffffffffffffffff16815260200190815260200160002054111515611bae576040517f08c379a0000000000000000000000000000000000000000000000000000000008152600401611ba590619c74565b60405180910390fd5b6000600360003373ffffffffffffffffffffffffffffffffffffffff1673ffffffffffffffffffffffffffffffffffffffff1681526020019081526020016000205490506000600360003373ffffffffffffffffffffffffffffffffffffffff1673ffffffffffffffffffffffffffffffffffffffff168152602001908152602001600020819055503373ffffffffffffffffffffffffffffffffffffffff166108fc829081150290604051600060405180830381858888f19350505050158015611c7d573d6000803e3d6000fd5b5050565b81600080600083815260200190815260200160002060000154111515611cdc576040517f08c379a0000000000000000000000000000000000000000000000000000000008152600401611cd390619d74565b60405180910390fd5b823373ffffffffffffffffffffffffffffffffffffffff166000808381526020019081526020016000206004016000600281101515611d1757fe5b0160009054906101000a900473ffffffffffffffffffffffffffffffffffffffff1673ffffffffffffffffffffffffffffffffffffffff161480611dca57503373ffffffffffffffffffffffffffffffffffffffff166000808381526020019081526020016000206004016001600281101515611d9057fe5b0160009054906101000a900473ffffffffffffffffffffffffffffffffffffffff1673ffffffffffffffffffffffffffffffffffffffff16145b1515611e0b576040517f08c379a0000000000000000000000000000000000000000000000000000000008152600401611e0290619e34565b60405180910390fd5b611e318333600080888152602001908152602001600020614c339092919063ffffffff16565b50505050565b88600080600083815260200190815260200160002060000154111515611e92576040517f08c379a0000000000000000000000000000000000000000000000000000000008152600401611e8990619d74565b60405180910390fd5b8960016004811115611ea057fe5b60008083815260200190815260200160002060070160009054906101000a900460ff166004811115611ece57fe5b141515611f10576040517f08c379a0000000000000000000000000000000000000000000000000000000008152600401611f0790619dd4565b60405180910390fd5b61211e600260008d81526020019081526020016000208b815481101515611f3357fe5b906000526020600020906005020160c060405190810160405290816000820160009054906101000a900467ffffffffffffffff1667ffffffffffffffff1667ffffffffffffffff1681526020016000820160089054906101000a900473ffffffffffffffffffffffffffffffffffffffff1673ffffffffffffffffffffffffffffffffffffffff1673ffffffffffffffffffffffffffffffffffffffff1681526020016001820160009054906101000a900473ffffffffffffffffffffffffffffffffffffffff1673ffffffffffffffffffffffffffffffffffffffff1673ffffffffffffffffffffffffffffffffffffffff16815260200160028201548152602001600382015481526020016004820154815250508a8a8080601f016020809104026020016040519081016040528093929190818152602001838380828437600081840152601f19601f8201169050808301925050505050505089898080601f016020809104026020016040519081016040528093929190818152602001838380828437600081840152601f19601f8201169050808301925050505050505088888080601f016020809104026020016040519081016040528093929190818152602001838380828437600081840152601f19601f8201169050808301925050505050505087614dcb565b60008060008d8152602001908152602001600020905060048160070160006101000a81548160ff0219169083600481111561215557fe5b02179055506002816003015402600360003373ffffffffffffffffffffffffffffffffffffffff1673ffffffffffffffffffffffffffffffffffffffff168152602001908152602001600020600082825401925050819055508060040160016002811015156121c057fe5b0160009054906101000a900473ffffffffffffffffffffffffffffffffffffffff1673ffffffffffffffffffffffffffffffffffffffff1681600401600060028110151561220a57fe5b0160009054906101000a900473ffffffffffffffffffffffffffffffffffffffff1673ffffffffffffffffffffffffffffffffffffffff168d7feef7e33b0682f712bfc4bfd601cbc55e1cf1b9b7a1f4ebe129d092224279eb468e3360405161227492919061a3a3565b60405180910390a4505050505050505050505050565b612292617658565b60006122b9836001600087815260200190815260200160002061473d90919063ffffffff16565b905060016000858152602001908152602001600020818154811015156122db57fe5b9060005260206000209060040201608060405190810160405290816000820160009054906101000a900473ffffffffffffffffffffffffffffffffffffffff1673ffffffffffffffffffffffffffffffffffffffff1673ffffffffffffffffffffffffffffffffffffffff1681526020016001820160009054906101000a900473ffffffffffffffffffffffffffffffffffffffff1673ffffffffffffffffffffffffffffffffffffffff1673ffffffffffffffffffffffffffffffffffffffff1681526020016002820154815260200160038201548152505091505092915050565b80600080600083815260200190815260200160002060000154111515612419576040517f08c379a000000000000000000000000000000000000000000000000000000000815260040161241090619d74565b60405180910390fd5b816002600481111561242757fe5b60008083815260200190815260200160002060070160009054906101000a900460ff16600481111561245557fe5b141515612497576040517f08c379a000000000000000000000000000000000000000000000000000000000815260040161248e90619f34565b60405180910390fd5b600080600085815260200190815260200160002090506201518081600201540142101515156124fb576040517f08c379a00000000000000000000000000000000000000000000000000000000081526004016124f290619b54565b60405180910390fd5b606060016000868152602001908152602001600020805480602002602001604051908101604052809291908181526020016000905b828210156126235783829060005260206000209060040201608060405190810160405290816000820160009054906101000a900473ffffffffffffffffffffffffffffffffffffffff1673ffffffffffffffffffffffffffffffffffffffff1673ffffffffffffffffffffffffffffffffffffffff1681526020016001820160009054906101000a900473ffffffffffffffffffffffffffffffffffffffff1673ffffffffffffffffffffffffffffffffffffffff1673ffffffffffffffffffffffffffffffffffffffff1681526020016002820154815260200160038201548152505081526020019060010190612530565b50505050905060008090505b81518110156126b55767016345785d8a000060036000848481518110151561265357fe5b906020019060200201516020015173ffffffffffffffffffffffffffffffffffffffff1673ffffffffffffffffffffffffffffffffffffffff16815260200190815260200160002060008282540192505081905550808060010191505061262f565b5060048260070160006101000a81548160ff021916908360048111156126d757fe5b02179055506126e4617658565b8160008151811015156126f357fe5b906020019060200201519050600283600301540260036000836020015173ffffffffffffffffffffffffffffffffffffffff1673ffffffffffffffffffffffffffffffffffffffff1681526020019081526020016000206000828254019250508190555082600401600160028110151561276957fe5b0160009054906101000a900473ffffffffffffffffffffffffffffffffffffffff1673ffffffffffffffffffffffffffffffffffffffff168360040160006002811015156127b357fe5b0160009054906101000a900473ffffffffffffffffffffffffffffffffffffffff1673ffffffffffffffffffffffffffffffffffffffff16877feef7e33b0682f712bfc4bfd601cbc55e1cf1b9b7a1f4ebe129d092224279eb4660008560200151604051612822929190619b0b565b60405180910390a4505050505050565b61283a6175eb565b600260008481526020019081526020016000208281548110151561285a57fe5b906000526020600020906005020160c060405190810160405290816000820160009054906101000a900467ffffffffffffffff1667ffffffffffffffff1667ffffffffffffffff1681526020016000820160089054906101000a900473ffffffffffffffffffffffffffffffffffffffff1673ffffffffffffffffffffffffffffffffffffffff1673ffffffffffffffffffffffffffffffffffffffff1681526020016001820160009054906101000a900473ffffffffffffffffffffffffffffffffffffffff1673ffffffffffffffffffffffffffffffffffffffff1673ffffffffffffffffffffffffffffffffffffffff1681526020016002820154815260200160038201548152602001600482015481525050905092915050565b836000806000838152602001908152602001600020600001541115156129d3576040517f08c379a00000000000000000000000000000000000000000000000000000000081526004016129ca90619d74565b60405180910390fd5b843373ffffffffffffffffffffffffffffffffffffffff166000808381526020019081526020016000206004016000600281101515612a0e57fe5b0160009054906101000a900473ffffffffffffffffffffffffffffffffffffffff1673ffffffffffffffffffffffffffffffffffffffff161480612ac157503373ffffffffffffffffffffffffffffffffffffffff166000808381526020019081526020016000206004016001600281101515612a8757fe5b0160009054906101000a900473ffffffffffffffffffffffffffffffffffffffff1673ffffffffffffffffffffffffffffffffffffffff16145b1515612b02576040517f08c379a0000000000000000000000000000000000000000000000000000000008152600401612af990619e34565b60405180910390fd5b60008087815260200190815260200160002073__Adjudicators__________________________630f9c940390918787876040518563ffffffff167c0100000000000000000000000000000000000000000000000000000000028152600401612b6e949392919061a207565b60006040518083038186803b158015612b8657600080fd5b505af4158015612b9a573d6000803e3d6000fd5b50505050505050505050565b82600080600083815260200190815260200160002060000154111515612c01576040517f08c379a0000000000000000000000000000000000000000000000000000000008152600401612bf890619d74565b60405180910390fd5b60008060008681526020019081526020016000209050612c2c848483614fa69092919063ffffffff16565b847f1e28397eca303bbc3b7933b3c68919fd3946a1381fb2214046b0451d2e463c228585604051612c5e92919061a2ba565b60405180910390a25050505050565b6000600360008373ffffffffffffffffffffffffffffffffffffffff1673ffffffffffffffffffffffffffffffffffffffff168152602001908152602001600020549050919050565b88600080600083815260200190815260200160002060000154111515612d11576040517f08c379a0000000000000000000000000000000000000000000000000000000008152600401612d0890619d74565b60405180910390fd5b8960016004811115612d1f57fe5b60008083815260200190815260200160002060070160009054906101000a900460ff166004811115612d4d57fe5b141515612d8f576040517f08c379a0000000000000000000000000000000000000000000000000000000008152600401612d8690619dd4565b60405180910390fd5b612f9d600260008d81526020019081526020016000208b815481101515612db257fe5b906000526020600020906005020160c060405190810160405290816000820160009054906101000a900467ffffffffffffffff1667ffffffffffffffff1667ffffffffffffffff1681526020016000820160089054906101000a900473ffffffffffffffffffffffffffffffffffffffff1673ffffffffffffffffffffffffffffffffffffffff1673ffffffffffffffffffffffffffffffffffffffff1681526020016001820160009054906101000a900473ffffffffffffffffffffffffffffffffffffffff1673ffffffffffffffffffffffffffffffffffffffff1673ffffffffffffffffffffffffffffffffffffffff16815260200160028201548152602001600382015481526020016004820154815250508a8a8080601f016020809104026020016040519081016040528093929190818152602001838380828437600081840152601f19601f8201169050808301925050505050505089898080601f016020809104026020016040519081016040528093929190818152602001838380828437600081840152601f19601f8201169050808301925050505050505088888080601f016020809104026020016040519081016040528093929190818152602001838380828437600081840152601f19601f82011690508083019250505050505050876152ad565b60008060008d8152602001908152602001600020905060048160070160006101000a81548160ff02191690836004811115612fd457fe5b02179055506002816003015402600360003373ffffffffffffffffffffffffffffffffffffffff1673ffffffffffffffffffffffffffffffffffffffff1681526020019081526020016000206000828254019250508190555080600401600160028110151561303f57fe5b0160009054906101000a900473ffffffffffffffffffffffffffffffffffffffff1673ffffffffffffffffffffffffffffffffffffffff1681600401600060028110151561308957fe5b0160009054906101000a900473ffffffffffffffffffffffffffffffffffffffff1673ffffffffffffffffffffffffffffffffffffffff168d7feef7e33b0682f712bfc4bfd601cbc55e1cf1b9b7a1f4ebe129d092224279eb468e336040516130f392919061a3a3565b60405180910390a4505050505050505050505050565b80600080600083815260200190815260200160002060000154111515613164576040517f08c379a000000000000000000000000000000000000000000000000000000000815260040161315b90619d74565b60405180910390fd5b600080600084815260200190815260200160002090506000600481111561318757fe5b8160070160009054906101000a900460ff1660048111156131a457fe5b1415156131e6576040517f08c379a00000000000000000000000000000000000000000000000000000000081526004016131dd90619e94565b60405180910390fd5b3373ffffffffffffffffffffffffffffffffffffffff1681600401600060028110151561320f57fe5b0160009054906101000a900473ffffffffffffffffffffffffffffffffffffffff1673ffffffffffffffffffffffffffffffffffffffff16141515613289576040517f08c379a000000000000000000000000000000000000000000000000000000000815260040161328090619e54565b60405180910390fd5b60038160070160006101000a81548160ff021916908360048111156132aa57fe5b02179055508060030154600360003373ffffffffffffffffffffffffffffffffffffffff1673ffffffffffffffffffffffffffffffffffffffff1681526020019081526020016000205401600360003373ffffffffffffffffffffffffffffffffffffffff1673ffffffffffffffffffffffffffffffffffffffff1681526020019081526020016000208190555080600401600160028110151561334a57fe5b0160009054906101000a900473ffffffffffffffffffffffffffffffffffffffff1673ffffffffffffffffffffffffffffffffffffffff1681600401600060028110151561339457fe5b0160009054906101000a900473ffffffffffffffffffffffffffffffffffffffff1673ffffffffffffffffffffffffffffffffffffffff167f39b61285e1f395267f0a67b67e57a8dc3f31d8bc64cd9ff3ec6930831bb67624858460010160009054906101000a900473ffffffffffffffffffffffffffffffffffffffff1660405161342192919061a37a565b60405180910390a3505050565b84600080600083815260200190815260200160002060000154111515613489576040517f08c379a000000000000000000000000000000000000000000000000000000000815260040161348090619d74565b60405180910390fd5b60008060008881526020019081526020016000209050600060048111156134ac57fe5b8160070160009054906101000a900460ff1660048111156134c957fe5b14151561350b576040517f08c379a000000000000000000000000000000000000000000000000000000000815260040161350290619e94565b60405180910390fd5b3373ffffffffffffffffffffffffffffffffffffffff1681600401600160028110151561353457fe5b0160009054906101000a900473ffffffffffffffffffffffffffffffffffffffff1673ffffffffffffffffffffffffffffffffffffffff161415156135ae576040517f08c379a00000000000000000000000000000000000000000000000000000000081526004016135a59061a034565b60405180910390fd5b3481600301541415156135f6576040517f08c379a00000000000000000000000000000000000000000000000000000000081526004016135ed90619d14565b60405180910390fd5b85856040518083838082843780830192505050925050506040518091039020816006015414151561365c576040517f08c379a00000000000000000000000000000000000000000000000000000000081526004016136539061a094565b60405180910390fd5b60018160070160006101000a81548160ff0219169083600481111561367d57fe5b021790555042816002018190555060608160010160009054906101000a900473ffffffffffffffffffffffffffffffffffffffff1673ffffffffffffffffffffffffffffffffffffffff1663764dfafe88888560040189896040518663ffffffff167c0100000000000000000000000000000000000000000000000000000000028152600401613711959493929190619a7d565b60006040518083038186803b15801561372957600080fd5b505afa15801561373d573d6000803e3d6000fd5b505050506040513d6000823e3d601f19601f820116820180604052506137669190810190617ee3565b905060005b81518110156138b9576002600084600001548152602001908152602001600020828281518110151561379957fe5b906020019060200201519080600181540180825580915050906001820390600052602060002090600502016000909192909190915060008201518160000160006101000a81548167ffffffffffffffff021916908367ffffffffffffffff16021790555060208201518160000160086101000a81548173ffffffffffffffffffffffffffffffffffffffff021916908373ffffffffffffffffffffffffffffffffffffffff16021790555060408201518160010160006101000a81548173ffffffffffffffffffffffffffffffffffffffff021916908373ffffffffffffffffffffffffffffffffffffffff160217905550606082015181600201556080820151816003015560a08201518160040155505050808060010191505061376b565b508160040160016002811015156138cc57fe5b0160009054906101000a900473ffffffffffffffffffffffffffffffffffffffff1673ffffffffffffffffffffffffffffffffffffffff1682600401600060028110151561391657fe5b0160009054906101000a900473ffffffffffffffffffffffffffffffffffffffff1673ffffffffffffffffffffffffffffffffffffffff167f66b133a8a03d17724e3e4a03ecf4828c80e833164b10cee3bc4ea87179ec47ce84600001548560010160009054906101000a900473ffffffffffffffffffffffffffffffffffffffff168b8b6040516139ab949392919061a3cc565b60405180910390a38160010160009054906101000a900473ffffffffffffffffffffffffffffffffffffffff1673ffffffffffffffffffffffffffffffffffffffff1663afb531c1898989866004016000600281101515613a0857fe5b0160009054906101000a900473ffffffffffffffffffffffffffffffffffffffff16876004016001600281101515613a3c57fe5b0160009054906101000a900473ffffffffffffffffffffffffffffffffffffffff166040518663ffffffff167c0100000000000000000000000000000000000000000000000000000000028152600401613a9a95949392919061a47a565b600060405180830381600087803b158015613ab457600080fd5b505af1158015613ac8573d6000803e3d6000fd5b505050505050505050505050565b86600080600083815260200190815260200160002060000154111515613b31576040517f08c379a0000000000000000000000000000000000000000000000000000000008152600401613b2890619d74565b60405180910390fd5b8760026004811115613b3f57fe5b60008083815260200190815260200160002060070160009054906101000a900460ff166004811115613b6d57fe5b1480613bb1575060016004811115613b8157fe5b60008083815260200190815260200160002060070160009054906101000a900460ff166004811115613baf57fe5b145b1515613bf2576040517f08c379a0000000000000000000000000000000000000000000000000000000008152600401613be990619c54565b60405180910390fd5b3467016345785d8a0000141515613c3e576040517f08c379a0000000000000000000000000000000000000000000000000000000008152600401613c359061a154565b60405180910390fd5b61a8c06000808b815260200190815260200160002060020154014211151515613c9c576040517f08c379a0000000000000000000000000000000000000000000000000000000008152600401613c9390619db4565b60405180910390fd5b613e65600260008b815260200190815260200160002089815481101515613cbf57fe5b906000526020600020906005020160c060405190810160405290816000820160009054906101000a900467ffffffffffffffff1667ffffffffffffffff1667ffffffffffffffff1681526020016000820160089054906101000a900473ffffffffffffffffffffffffffffffffffffffff1673ffffffffffffffffffffffffffffffffffffffff1673ffffffffffffffffffffffffffffffffffffffff1681526020016001820160009054906101000a900473ffffffffffffffffffffffffffffffffffffffff1673ffffffffffffffffffffffffffffffffffffffff1673ffffffffffffffffffffffffffffffffffffffff168152602001600282015481526020016003820154815260200160048201548152505088888080601f016020809104026020016040519081016040528093929190818152602001838380828437600081840152601f19601f8201169050808301925050505050505087878080601f016020809104026020016040519081016040528093929190818152602001838380828437600081840152601f19601f82011690508083019250505050505050866154c5565b6000613eb488888080601f016020809104026020016040519081016040528093929190818152602001838380828437600081840152601f19601f82011690508083019250505050505050615633565b9050613edb81600160008d815260200190815260200160002061470190919063ffffffff16565b151515613f1d576040517f08c379a0000000000000000000000000000000000000000000000000000000008152600401613f1490619f54565b60405180910390fd5b600160008b8152602001908152602001600020608060405190810160405280613f898b8b8080601f016020809104026020016040519081016040528093929190818152602001838380828437600081840152601f19601f8201169050808301925050505050505061570d565b73ffffffffffffffffffffffffffffffffffffffff1681526020013373ffffffffffffffffffffffffffffffffffffffff168152602001838152602001868152509080600181540180825580915050906001820390600052602060002090600402016000909192909190915060008201518160000160006101000a81548173ffffffffffffffffffffffffffffffffffffffff021916908373ffffffffffffffffffffffffffffffffffffffff16021790555060208201518160010160006101000a81548173ffffffffffffffffffffffffffffffffffffffff021916908373ffffffffffffffffffffffffffffffffffffffff160217905550604082015181600201556060820151816003015550505060008060008c8152602001908152602001600020905060028160070160006101000a81548160ff021916908360048111156140d157fe5b02179055508060040160016002811015156140e857fe5b0160009054906101000a900473ffffffffffffffffffffffffffffffffffffffff1673ffffffffffffffffffffffffffffffffffffffff1681600401600060028110151561413257fe5b0160009054906101000a900473ffffffffffffffffffffffffffffffffffffffff1673ffffffffffffffffffffffffffffffffffffffff168c7f87b53a9af69001b2f443aaa5a733186e3ecc478db203526b704e64588aaaaaaf8d863360405161419e9392919061a443565b60405180910390a45050505050505050505050565b836141bd816157d2565b1515156141ff576040517f08c379a00000000000000000000000000000000000000000000000000000000081526004016141f690619c34565b60405180910390fd5b84600180600481111561420e57fe5b8260070160009054906101000a900460ff16600481111561422b57fe5b14151561426d576040517f08c379a000000000000000000000000000000000000000000000000000000000815260040161426490619c14565b60405180910390fd5b8686806000015182600001541415156142bb576040517f08c379a00000000000000000000000000000000000000000000000000000000081526004016142b290619eb4565b60405180910390fd5b6142c68888886157fb565b8673__State_________________________________63e563190090916040518263ffffffff167c010000000000000000000000000000000000000000000000000000000002815260040161431b919061a261565b60206040518083038186803b15801561433357600080fd5b505af4158015614347573d6000803e3d6000fd5b505050506040513d601f19601f8201168201806040525061436b9190810190617f24565b15156143ac576040517f08c379a00000000000000000000000000000000000000000000000000000000081526004016143a390619bb4565b60405180910390fd5b61445c8942898a73__State_________________________________63bb60e9c990916040518263ffffffff167c0100000000000000000000000000000000000000000000000000000000028152600401614407919061a261565b60206040518083038186803b15801561441f57600080fd5b505af4158015614433573d6000803e3d6000fd5b505050506040513d601f19601f820116820180604052506144579190810190617e0a565b615948565b505050505050505050565b6001816000016000828254019250508190555050565b600081600001549050919050565b8461449581615bf4565b1515156144d7576040517f08c379a00000000000000000000000000000000000000000000000000000000081526004016144ce90619f74565b60405180910390fd5b8560018060048111156144e657fe5b8260070160009054906101000a900460ff16600481111561450357fe5b141515614545576040517f08c379a000000000000000000000000000000000000000000000000000000000815260040161453c90619c14565b60405180910390fd5b878780600001518260000154141515614593576040517f08c379a000000000000000000000000000000000000000000000000000000000815260040161458a90619eb4565b60405180910390fd5b60008660008151811015156145a457fe5b906020019060200201515114156146d95761462b898b60040160006002811015156145cb57fe5b0160009054906101000a900473ffffffffffffffffffffffffffffffffffffffff168c60040160016002811015156145ff57fe5b0160009054906101000a900473ffffffffffffffffffffffffffffffffffffffff168d60060154615c0a565b8773__State_________________________________63654fc67d909188600181518110151561465757fe5b906020019060200201516040518363ffffffff167c010000000000000000000000000000000000000000000000000000000002815260040161469a92919061a283565b60006040518083038186803b1580156146b257600080fd5b505af41580156146c6573d6000803e3d6000fd5b505050506146d48989615e1b565b6146e5565b6146e48989886157fb565b5b6146f58a61025842018a8a615948565b50505050505050505050565b60008061470e848461473d565b90507fffffffffffffffffffffffffffffffffffffffffffffffffffffffffffffffff81141591505092915050565b600080600090505b838054905081101561478e5782848281548110151561476057fe5b906000526020600020906004020160020154141561478157809150506147b3565b8080600101915050614745565b507fffffffffffffffffffffffffffffffffffffffffffffffffffffffffffffffff90505b92915050565b600560009054906101000a900473ffffffffffffffffffffffffffffffffffffffff1673ffffffffffffffffffffffffffffffffffffffff1663620251098483876040518463ffffffff167c010000000000000000000000000000000000000000000000000000000002815260040161483493929190619ac6565b60006040518083038186803b15801561484c57600080fd5b505afa158015614860573d6000803e3d6000fd5b5050505061486c6176b0565b614875846160d0565b9050614894838760000151836040015161618a9092919063ffffffff16565b15156148d5576040517f08c379a00000000000000000000000000000000000000000000000000000000081526004016148cc90619cf4565b60405180910390fd5b866000015167ffffffffffffffff16816000015167ffffffffffffffff16141515614935576040517f08c379a000000000000000000000000000000000000000000000000000000000815260040161492c90619bd4565b60405180910390fd5b85606001518511151561497d576040517f08c379a000000000000000000000000000000000000000000000000000000000815260040161497490619fb4565b60405180910390fd5b8660a0015185111515156149c6576040517f08c379a00000000000000000000000000000000000000000000000000000000081526004016149bd90619cb4565b60405180910390fd5b50505050505050565b60006149d9617658565b8360018580549050038154811015156149ee57fe5b9060005260206000209060040201608060405190810160405290816000820160009054906101000a900473ffffffffffffffffffffffffffffffffffffffff1673ffffffffffffffffffffffffffffffffffffffff1673ffffffffffffffffffffffffffffffffffffffff1681526020016001820160009054906101000a900473ffffffffffffffffffffffffffffffffffffffff1673ffffffffffffffffffffffffffffffffffffffff1673ffffffffffffffffffffffffffffffffffffffff168152602001600282015481526020016003820154815250509050808484815481101515614ad957fe5b906000526020600020906004020160008201518160000160006101000a81548173ffffffffffffffffffffffffffffffffffffffff021916908373ffffffffffffffffffffffffffffffffffffffff16021790555060208201518160010160006101000a81548173ffffffffffffffffffffffffffffffffffffffff021916908373ffffffffffffffffffffffffffffffffffffffff1602179055506040820151816002015560608201518160030155905050836001858054905003815481101515614ba157fe5b9060005260206000209060040201600080820160006101000a81549073ffffffffffffffffffffffffffffffffffffffff02191690556001820160006101000a81549073ffffffffffffffffffffffffffffffffffffffff021916905560028201600090556003820160009055505060018481818054905003915081614c2791906176fc565b50600191505092915050565b82614c3d81615bf4565b151515614c7f576040517f08c379a0000000000000000000000000000000000000000000000000000000008152600401614c7690619f74565b60405180910390fd5b836001806004811115614c8e57fe5b8260070160009054906101000a900460ff166004811115614cab57fe5b141515614ced576040517f08c379a0000000000000000000000000000000000000000000000000000000008152600401614ce490619c14565b60405180910390fd5b858580600001518260000154141515614d3b576040517f08c379a0000000000000000000000000000000000000000000000000000000008152600401614d3290619eb4565b60405180910390fd5b614db187896004016000600281101515614d5157fe5b0160009054906101000a900473ffffffffffffffffffffffffffffffffffffffff168a6004016001600281101515614d8557fe5b0160009054906101000a900473ffffffffffffffffffffffffffffffffffffffff168b60060154615c0a565b614dc18861025842018989615948565b5050505050505050565b808560a00151118015614de15750808560800151105b1515614e22576040517f08c379a0000000000000000000000000000000000000000000000000000000008152600401614e199061a114565b60405180910390fd5b600560009054906101000a900473ffffffffffffffffffffffffffffffffffffffff1673ffffffffffffffffffffffffffffffffffffffff1663620251098585846040518463ffffffff167c0100000000000000000000000000000000000000000000000000000000028152600401614e9d93929190619ac6565b60006040518083038186803b158015614eb557600080fd5b505afa158015614ec9573d6000803e3d6000fd5b50505050614ed56176b0565b614ede856160d0565b9050614efd838760200151836040015161618a9092919063ffffffff16565b1515614f3e576040517f08c379a0000000000000000000000000000000000000000000000000000000008152600401614f3590619cf4565b60405180910390fd5b856000015167ffffffffffffffff16816000015167ffffffffffffffff16141515614f9e576040517f08c379a0000000000000000000000000000000000000000000000000000000008152600401614f9590619bd4565b60405180910390fd5b505050505050565b82614fb0816157d2565b1515614ff1576040517f08c379a0000000000000000000000000000000000000000000000000000000008152600401614fe89061a014565b60405180910390fd5b83600180600481111561500057fe5b8260070160009054906101000a900460ff16600481111561501d57fe5b14151561505f576040517f08c379a000000000000000000000000000000000000000000000000000000000815260040161505690619c14565b60405180910390fd5b8473__State_________________________________63654fc67d9091866040518363ffffffff167c01000000000000000000000000000000000000000000000000000000000281526004016150b692919061a2f1565b60006040518083038186803b1580156150ce57600080fd5b505af41580156150e2573d6000803e3d6000fd5b5050505061529c8660080160000160a06040519081016040529081600082015481526020016001820160009054906101000a900473ffffffffffffffffffffffffffffffffffffffff1673ffffffffffffffffffffffffffffffffffffffff1673ffffffffffffffffffffffffffffffffffffffff168152602001600282018054806020026020016040519081016040528092919081815260200182805480156151e157602002820191906000526020600020905b8160009054906101000a900473ffffffffffffffffffffffffffffffffffffffff1673ffffffffffffffffffffffffffffffffffffffff1681526020019060010190808311615197575b5050505050815260200160038201548152602001600482018054600181600116156101000203166002900480601f01602080910402602001604051908101604052809291908181526020018280546001816001161561010002031660029004801561528d5780601f106152625761010080835404028352916020019161528d565b820191906000526020600020905b81548152906001019060200180831161527057829003601f168201915b50505050508152505086615e1b565b6152a5866161cd565b505050505050565b808560a001511015156152f5576040517f08c379a00000000000000000000000000000000000000000000000000000000081526004016152ec90619cd4565b60405180910390fd5b600560009054906101000a900473ffffffffffffffffffffffffffffffffffffffff1673ffffffffffffffffffffffffffffffffffffffff1663620251098585846040518463ffffffff167c010000000000000000000000000000000000000000000000000000000002815260040161537093929190619ac6565b60006040518083038186803b15801561538857600080fd5b505afa15801561539c573d6000803e3d6000fd5b505050506153a86176b0565b6153b1856160d0565b90506153d0838760400151836040015161618a9092919063ffffffff16565b1515615411576040517f08c379a000000000000000000000000000000000000000000000000000000000815260040161540890619cf4565b60405180910390fd5b856000015167ffffffffffffffff16816000015167ffffffffffffffff16141515615471576040517f08c379a000000000000000000000000000000000000000000000000000000000815260040161546890619bd4565b60405180910390fd5b8560a0015181606001511415156154bd576040517f08c379a00000000000000000000000000000000000000000000000000000000081526004016154b490619df4565b60405180910390fd5b505050505050565b8360800151811115151561550e576040517f08c379a000000000000000000000000000000000000000000000000000000000815260040161550590619b94565b60405180910390fd5b600560009054906101000a900473ffffffffffffffffffffffffffffffffffffffff1673ffffffffffffffffffffffffffffffffffffffff1663620251098484846040518463ffffffff167c010000000000000000000000000000000000000000000000000000000002815260040161558993929190619ac6565b60006040518083038186803b1580156155a157600080fd5b505afa1580156155b5573d6000803e3d6000fd5b505050506155c16176b0565b6155ca846160d0565b9050846000015167ffffffffffffffff16816000015167ffffffffffffffff1614151561562c576040517f08c379a000000000000000000000000000000000000000000000000000000000815260040161562390619bd4565b60405180910390fd5b5050505050565b60006060615648615643846161e0565b61620e565b9050600061566d82600081518110151561565e57fe5b90602001906020020151616321565b9050600061569283600181518110151561568357fe5b90602001906020020151616321565b905060008114156156fa5781604051602001808267ffffffffffffffff1667ffffffffffffffff167801000000000000000000000000000000000000000000000000028152600801915050604051602081830303815290604052805190602001209350615705565b848051906020012093505b505050919050565b6000606061572261571d846161e0565b61620e565b905061572d816163ca565b1561575a5761575381600281518110151561574457fe5b906020019060200201516163d8565b91506157cc565b61576381616433565b156157905761578981600381518110151561577a57fe5b906020019060200201516163d8565b91506157cb565b6040517f08c379a00000000000000000000000000000000000000000000000000000000081526004016157c290619f14565b60405180910390fd5b5b50919050565b6000428260080160050160009054906101000a900463ffffffff1663ffffffff16119050919050565b8273__State_________________________________63654fc67d909183600081518110151561582757fe5b906020019060200201516040518363ffffffff167c010000000000000000000000000000000000000000000000000000000002815260040161586a92919061a283565b60006040518083038186803b15801561588257600080fd5b505af4158015615896573d6000803e3d6000fd5b505050508173__State_________________________________63654fc67d90918360018151811015156158c657fe5b906020019060200201516040518363ffffffff167c010000000000000000000000000000000000000000000000000000000002815260040161590992919061a283565b60006040518083038186803b15801561592157600080fd5b505af4158015615935573d6000803e3d6000fd5b505050506159438383615e1b565b505050565b81846008016000016000820151816000015560208201518160010160006101000a81548173ffffffffffffffffffffffffffffffffffffffff021916908373ffffffffffffffffffffffffffffffffffffffff16021790555060408201518160020190805190602001906159bd9291906174e1565b506060820151816003015560808201518160040190805190602001906159e492919061756b565b50905050828460080160050160006101000a81548163ffffffff021916908363ffffffff1602179055508173__State_________________________________63e563190090916040518263ffffffff167c0100000000000000000000000000000000000000000000000000000000028152600401615a63919061a261565b60206040518083038186803b158015615a7b57600080fd5b505af4158015615a8f573d6000803e3d6000fd5b505050506040513d601f19601f82011682018060405250615ab39190810190617f24565b15615ba7578173__State_________________________________63bb60e9c990916040518263ffffffff167c0100000000000000000000000000000000000000000000000000000000028152600401615b0d919061a261565b60206040518083038186803b158015615b2557600080fd5b505af4158015615b39573d6000803e3d6000fd5b505050506040513d601f19601f82011682018060405250615b5d9190810190617e0a565b8460080160050160046101000a81548173ffffffffffffffffffffffffffffffffffffffff021916908373ffffffffffffffffffffffffffffffffffffffff160217905550615bee565b808460080160050160046101000a81548173ffffffffffffffffffffffffffffffffffffffff021916908373ffffffffffffffffffffffffffffffffffffffff1602179055505b50505050565b6000808260080160000160000154119050919050565b60008460600151141515615c53576040517f08c379a0000000000000000000000000000000000000000000000000000000008152600401615c4a90619c94565b60405180910390fd5b8273ffffffffffffffffffffffffffffffffffffffff1684604001516000815181101515615c7d57fe5b9060200190602002015173ffffffffffffffffffffffffffffffffffffffff16141515615cdf576040517f08c379a0000000000000000000000000000000000000000000000000000000008152600401615cd690619e14565b60405180910390fd5b8173ffffffffffffffffffffffffffffffffffffffff1684604001516001815181101515615d0957fe5b9060200190602002015173ffffffffffffffffffffffffffffffffffffffff16141515615d6b576040517f08c379a0000000000000000000000000000000000000000000000000000000008152600401615d6290619f94565b60405180910390fd5b83608001516040518082805190602001908083835b602083101515615da55780518252602082019150602081019050602083039250615d80565b6001836020036101000a038019825116818451168082178552505050505050905001915050604051809103902081141515615e15576040517f08c379a0000000000000000000000000000000000000000000000000000000008152600401615e0c90619ef4565b60405180910390fd5b50505050565b81600001518160000151141515615e67576040517f08c379a0000000000000000000000000000000000000000000000000000000008152600401615e5e9061a174565b60405180910390fd5b60018260600151018160600151141515615eb6576040517f08c379a0000000000000000000000000000000000000000000000000000000008152600401615ead90619d34565b60405180910390fd5b816020015173ffffffffffffffffffffffffffffffffffffffff16816020015173ffffffffffffffffffffffffffffffffffffffff16141515615f2e576040517f08c379a0000000000000000000000000000000000000000000000000000000008152600401615f259061a0d4565b60405180910390fd5b81604001516000815181101515615f4157fe5b9060200190602002015173ffffffffffffffffffffffffffffffffffffffff1681604001516000815181101515615f7457fe5b9060200190602002015173ffffffffffffffffffffffffffffffffffffffff16148015616004575081604001516001815181101515615faf57fe5b9060200190602002015173ffffffffffffffffffffffffffffffffffffffff1681604001516001815181101515615fe257fe5b9060200190602002015173ffffffffffffffffffffffffffffffffffffffff16145b1515616045576040517f08c379a000000000000000000000000000000000000000000000000000000000815260040161603c90619bf4565b60405180910390fd5b8173__State_________________________________63eb4f60419091836040518363ffffffff167c010000000000000000000000000000000000000000000000000000000002815260040161609c92919061a328565b60006040518083038186803b1580156160b457600080fd5b505af41580156160c8573d6000803e3d6000fd5b505050505050565b6160d86176b0565b60606160e383616441565b90506160ee816163ca565b15616105576160fd818461645b565b915050616185565b61610e81616433565b1561614a57606061611e82616608565b905061614181600081518110151561613257fe5b90602001906020020151616c4b565b92505050616185565b6040517f08c379a000000000000000000000000000000000000000000000000000000000815260040161617c90619fd4565b60405180910390fd5b919050565b60006161968484616ce0565b73ffffffffffffffffffffffffffffffffffffffff168273ffffffffffffffffffffffffffffffffffffffff161490509392505050565b6000816008016000016000018190555050565b6161e861772e565b600060208301905060408051908101604052808451815260200182815250915050919050565b606061621982616f62565b151561625a576040517f08c379a000000000000000000000000000000000000000000000000000000000815260040161625190619d94565b60405180910390fd5b600061626583616fb0565b9050806040519080825280602002602001820160405280156162a157816020015b61628e617748565b8152602001906001900390816162865790505b50915060006162b38460200151617021565b8460200151019050600080600090505b83811015616318576162d4836170aa565b915060408051908101604052808381526020018481525085828151811015156162f957fe5b90602001906020020181905250818301925080806001019150506162c3565b50505050919050565b600080826000015111801561633b57506021826000015111155b151561637c576040517f08c379a000000000000000000000000000000000000000000000000000000000815260040161637390619ed4565b60405180910390fd5b600061638b8360200151617021565b905060008184600001510390506000808386602001510190508051915060208310156163be57826020036101000a820491505b81945050505050919050565b600060038251149050919050565b600060158260000151141515616423576040517f08c379a000000000000000000000000000000000000000000000000000000000815260040161641a90619ff4565b60405180910390fd5b61642c82616321565b9050919050565b600060098251149050919050565b606061645461644f836161e0565b61620e565b9050919050565b6164636176b0565b61646c836163ca565b15156164ad576040517f08c379a00000000000000000000000000000000000000000000000000000000081526004016164a49061a134565b60405180910390fd5b6164b56176b0565b6164d68460008151811015156164c757fe5b90602001906020020151616321565b816000019067ffffffffffffffff16908167ffffffffffffffff168152505061651684600181518110151561650757fe5b90602001906020020151616321565b81606001818152505061654084600281518110151561653157fe5b906020019060200201516163d8565b816020019073ffffffffffffffffffffffffffffffffffffffff16908173ffffffffffffffffffffffffffffffffffffffff16815250506000816060015114156165ec578060000151604051602001808267ffffffffffffffff1667ffffffffffffffff167801000000000000000000000000000000000000000000000000028152600801915050604051602081830303815290604052805190602001208160400181815250506165fe565b82805190602001208160400181815250505b8091505092915050565b606061661382616433565b1515616654576040517f08c379a000000000000000000000000000000000000000000000000000000000815260040161664b90619e74565b60405180910390fd5b6060600260405190808252806020026020018201604052801561669157816020015b61667e617762565b8152602001906001900390816166765790505b5090506166b58360008151811015156166a657fe5b90602001906020020151616321565b8160008151811015156166c457fe5b906020019060200201516000019067ffffffffffffffff16908167ffffffffffffffff168152505061670d8360018151811015156166fe57fe5b90602001906020020151616321565b81600081518110151561671c57fe5b90602001906020020151602001818152505061674f83600281518110151561674057fe5b90602001906020020151616321565b60010281600081518110151561676157fe5b90602001906020020151608001818152505061679483600381518110151561678557fe5b906020019060200201516163d8565b8160008151811015156167a357fe5b906020019060200201516060019073ffffffffffffffffffffffffffffffffffffffff16908173ffffffffffffffffffffffffffffffffffffffff16815250506168048360048151811015156167f557fe5b90602001906020020151616321565b81600081518110151561681357fe5b90602001906020020151610100019067ffffffffffffffff16908167ffffffffffffffff168152505061685d83600581518110151561684e57fe5b90602001906020020151616321565b81600181518110151561686c57fe5b90602001906020020151602001818152505061689f83600681518110151561689057fe5b90602001906020020151616321565b6001028160018151811015156168b157fe5b9060200190602002015160800181815250506168e48360078151811015156168d557fe5b906020019060200201516163d8565b8160018151811015156168f357fe5b906020019060200201516060019073ffffffffffffffffffffffffffffffffffffffff16908173ffffffffffffffffffffffffffffffffffffffff168152505061695483600881518110151561694557fe5b9060200190602002015161715d565b81600181518110151561696357fe5b9060200190602002015160a0018190525080600181518110151561698357fe5b90602001906020020151606001518160008151811015156169a057fe5b906020019060200201516040019073ffffffffffffffffffffffffffffffffffffffff16908173ffffffffffffffffffffffffffffffffffffffff16815250508060008151811015156169ef57fe5b90602001906020020151608001516040516020018082815260200191505060405160208183030381529060405280519060200120816000815181101515616a3257fe5b9060200190602002015160c0018181525050616a65816000815181101515616a5657fe5b90602001906020020151617221565b816000815181101515616a7457fe5b9060200190602002015160e0018181525050806000815181101515616a9557fe5b906020019060200201516101000151816001815181101515616ab357fe5b906020019060200201516000019067ffffffffffffffff16908167ffffffffffffffff1681525050806000815181101515616aea57fe5b9060200190602002015160000151816001815181101515616b0757fe5b90602001906020020151610100019067ffffffffffffffff16908167ffffffffffffffff1681525050806000815181101515616b3f57fe5b9060200190602002015160600151816001815181101515616b5c57fe5b906020019060200201516040019073ffffffffffffffffffffffffffffffffffffffff16908173ffffffffffffffffffffffffffffffffffffffff1681525050806001815181101515616bab57fe5b90602001906020020151608001516040516020018082815260200191505060405160208183030381529060405280519060200120816001815181101515616bee57fe5b9060200190602002015160c0018181525050616c21816001815181101515616c1257fe5b90602001906020020151617221565b816001815181101515616c3057fe5b9060200190602002015160e001818152505080915050919050565b616c536176b0565b616c5b6176b0565b8260000151816000019067ffffffffffffffff16908167ffffffffffffffff16815250508260600151816020019073ffffffffffffffffffffffffffffffffffffffff16908173ffffffffffffffffffffffffffffffffffffffff16815250508260e00151816040018181525050826020015181606001818152505080915050919050565b6000604182511480616cf3575060428251145b1515616d34576040517f08c379a0000000000000000000000000000000000000000000000000000000008152600401616d2b9061a074565b60405180910390fd5b60008084905060008060008060019050604188511415616d5b576000905060009550616de9565b876000815181101515616d6a57fe5b9060200101517f010000000000000000000000000000000000000000000000000000000000000090047f0100000000000000000000000000000000000000000000000000000000000000027f0100000000000000000000000000000000000000000000000000000000000000900460ff166002811115616de657fe5b95505b80602001880151925080604001880151915060ff8160410189015116935060016002811115616e1457fe5b866002811115616e2057fe5b1415616e7c578460405160200180807f19457468657265756d205369676e6564204d6573736167653a0a333200000000815250601c01828152602001915050604051602081830303815290604052805190602001209450616eed565b600280811115616e8857fe5b866002811115616e9457fe5b1415616eec578460405160200180807f19457468657265756d205369676e6564204d6573736167653a0a200000000000815250601b018281526020019150506040516020818303038152906040528051906020012094505b5b60018585858560405160008152602001604052604051808581526020018460ff1660ff1681526020018381526020018281526020019450505050506020604051602081039080840390855afa158015616f4a573d6000803e3d6000fd5b50505060206040510351965050505050505092915050565b60008082600001511415616f795760009050616fab565b60008083602001519050805160001a915060c060ff168260ff161015616fa457600092505050616fab565b6001925050505b919050565b60008082600001511415616fc7576000905061701c565b60008090506000616fdb8460200151617021565b84602001510190506000846000015185602001510190505b8082101561701557617004826170aa565b820191508280600101935050616ff3565b8293505050505b919050565b600080825160001a9050608060ff168110156170415760009150506170a5565b60b860ff16811080617066575060c060ff168110158015617065575060f860ff1681105b5b156170755760019150506170a5565b60c060ff168110156170955760018060b80360ff168203019150506170a5565b60018060f80360ff168203019150505b919050565b600080825160001a9050608060ff168110156170ca576001915050617158565b60b860ff168110156170e8576001608060ff16820301915050617158565b60c060ff168110156171185760b78103600184019350806020036101000a84510460018201810193505050617156565b60f860ff1681101561713657600160c060ff16820301915050617158565b60f78103600184019350806020036101000a845104600182018101935050505b505b919050565b6060600082600001511115156171a8576040517f08c379a000000000000000000000000000000000000000000000000000000000815260040161719f9061a0b4565b60405180910390fd5b60006171b78360200151617021565b905060008184600001510390506060816040519080825280601f01601f1916602001820160405280156171f95781602001600182028038833980820191505090505b509050600081602001905061721584876020015101828561731f565b81945050505050919050565b6000816000015182602001518360c001518460600151856101000151604051602001808667ffffffffffffffff1667ffffffffffffffff1678010000000000000000000000000000000000000000000000000281526008018581526020018481526020018373ffffffffffffffffffffffffffffffffffffffff1673ffffffffffffffffffffffffffffffffffffffff166c010000000000000000000000000281526014018267ffffffffffffffff1667ffffffffffffffff16780100000000000000000000000000000000000000000000000002815260080195505050505050604051602081830303815290604052805190602001209050919050565b600081141561732d57617383565b5b602060ff168110151561735f5782518252602060ff1683019250602060ff1682019150602060ff168103905061732e565b6000600182602060ff16036101000a03905080198451168184511681811785525050505b505050565b6040805190810160405280600290602082028038833980820191505090505090565b60e0604051908101604052806173be6177f8565b8152602001600063ffffffff168152602001600073ffffffffffffffffffffffffffffffffffffffff1681525090565b6101e06040519081016040528060008152602001600073ffffffffffffffffffffffffffffffffffffffff168152602001600081526020016000815260200161743561783e565b8152602001600080191681526020016000600481111561745157fe5b815260200161745e617860565b81525090565b82600281019282156174d0579160200282015b828111156174cf5782518260006101000a81548173ffffffffffffffffffffffffffffffffffffffff021916908373ffffffffffffffffffffffffffffffffffffffff16021790555091602001919060010190617477565b5b5090506174dd91906178a4565b5090565b82805482825590600052602060002090810192821561755a579160200282015b828111156175595782518260006101000a81548173ffffffffffffffffffffffffffffffffffffffff021916908373ffffffffffffffffffffffffffffffffffffffff16021790555091602001919060010190617501565b5b50905061756791906178a4565b5090565b828054600181600116156101000203166002900490600052602060002090601f016020900481019282601f106175ac57805160ff19168380011785556175da565b828001600101855582156175da579182015b828111156175d95782518255916020019190600101906175be565b5b5090506175e791906178e7565b5090565b60c060405190810160405280600067ffffffffffffffff168152602001600073ffffffffffffffffffffffffffffffffffffffff168152602001600073ffffffffffffffffffffffffffffffffffffffff1681526020016000815260200160008152602001600081525090565b608060405190810160405280600073ffffffffffffffffffffffffffffffffffffffff168152602001600073ffffffffffffffffffffffffffffffffffffffff16815260200160008019168152602001600081525090565b608060405190810160405280600067ffffffffffffffff168152602001600073ffffffffffffffffffffffffffffffffffffffff16815260200160008019168152602001600081525090565b81548183558181111561772957600402816004028360005260206000209182019101617728919061790c565b5b505050565b604080519081016040528060008152602001600081525090565b604080519081016040528060008152602001600081525090565b61012060405190810160405280600067ffffffffffffffff16815260200160008152602001600073ffffffffffffffffffffffffffffffffffffffff168152602001600073ffffffffffffffffffffffffffffffffffffffff16815260200160008019168152602001606081526020016000801916815260200160008019168152602001600067ffffffffffffffff1681525090565b60a06040519081016040528060008152602001600073ffffffffffffffffffffffffffffffffffffffff1681526020016060815260200160008152602001606081525090565b6040805190810160405280600290602082028038833980820191505090505090565b60e0604051908101604052806178746177f8565b8152602001600063ffffffff168152602001600073ffffffffffffffffffffffffffffffffffffffff1681525090565b6178e491905b808211156178e057600081816101000a81549073ffffffffffffffffffffffffffffffffffffffff0219169055506001016178aa565b5090565b90565b61790991905b808211156179055760008160009055506001016178ed565b5090565b90565b61798691905b8082111561798257600080820160006101000a81549073ffffffffffffffffffffffffffffffffffffffff02191690556001820160006101000a81549073ffffffffffffffffffffffffffffffffffffffff02191690556002820160009055600382016000905550600401617912565b5090565b90565b6000617995823561a70b565b905092915050565b60006179a9825161a70b565b905092915050565b600082601f83011215156179c457600080fd5b81356179d76179d28261a4f5565b61a4c8565b915081818352602084019350602081019050838560208402820111156179fc57600080fd5b60005b83811015617a2c5781617a128882617989565b8452602084019350602083019250506001810190506179ff565b5050505092915050565b600082601f8301121515617a4957600080fd5b8135617a5c617a578261a51d565b61a4c8565b9150818183526020840193506020810190508360005b83811015617aa25781358601617a888882617ba5565b845260208401935060208301925050600181019050617a72565b5050505092915050565b600082601f8301121515617abf57600080fd5b8151617ad2617acd8261a545565b61a4c8565b915081818352602084019350602081019050838560c0840282011115617af757600080fd5b60005b83811015617b275781617b0d8882617c51565b845260208401935060c08301925050600181019050617afa565b5050505092915050565b6000617b3d825161a71d565b905092915050565b6000617b51823561a729565b905092915050565b60008083601f8401121515617b6d57600080fd5b8235905067ffffffffffffffff811115617b8657600080fd5b602083019150836001820283011115617b9e57600080fd5b9250929050565b600082601f8301121515617bb857600080fd5b8135617bcb617bc68261a56d565b61a4c8565b91508082526020830160208301858383011115617be757600080fd5b617bf283828461a7ab565b50505092915050565b600082601f8301121515617c0e57600080fd5b8135617c21617c1c8261a599565b61a4c8565b91508082526020830160208301858383011115617c3d57600080fd5b617c4883828461a7ab565b50505092915050565b600060c08284031215617c6357600080fd5b617c6d60c061a4c8565b90506000617c7d84828501617dcd565b6000830152506020617c918482850161799d565b6020830152506040617ca58482850161799d565b6040830152506060617cb984828501617db9565b6060830152506080617ccd84828501617db9565b60808301525060a0617ce184828501617db9565b60a08301525092915050565b600060a08284031215617cff57600080fd5b617d0960a061a4c8565b90506000617d1984828501617da5565b6000830152506020617d2d84828501617989565b602083015250604082013567ffffffffffffffff811115617d4d57600080fd5b617d59848285016179b1565b6040830152506060617d6d84828501617da5565b606083015250608082013567ffffffffffffffff811115617d8d57600080fd5b617d9984828501617ba5565b60808301525092915050565b6000617db1823561a733565b905092915050565b6000617dc5825161a733565b905092915050565b6000617dd9825161a73d565b905092915050565b600060208284031215617df357600080fd5b6000617e0184828501617989565b91505092915050565b600060208284031215617e1c57600080fd5b6000617e2a8482850161799d565b91505092915050565b600080600080600080600060a0888a031215617e4e57600080fd5b6000617e5c8a828b01617989565b9750506020617e6d8a828b01617989565b9650506040617e7e8a828b01617da5565b955050606088013567ffffffffffffffff811115617e9b57600080fd5b617ea78a828b01617b59565b9450945050608088013567ffffffffffffffff811115617ec657600080fd5b617ed28a828b01617b59565b925092505092959891949750929550565b600060208284031215617ef557600080fd5b600082015167ffffffffffffffff811115617f0f57600080fd5b617f1b84828501617aac565b91505092915050565b600060208284031215617f3657600080fd5b6000617f4484828501617b31565b91505092915050565b600060208284031215617f5f57600080fd5b6000617f6d84828501617da5565b91505092915050565b60008060408385031215617f8957600080fd5b6000617f9785828601617da5565b9250506020617fa885828601617b45565b9150509250929050565b600080600080600060608688031215617fca57600080fd5b6000617fd888828901617da5565b955050602086013567ffffffffffffffff811115617ff557600080fd5b61800188828901617b59565b9450945050604086013567ffffffffffffffff81111561802057600080fd5b61802c88828901617b59565b92509250509295509295909350565b6000806040838503121561804e57600080fd5b600061805c85828601617da5565b925050602083013567ffffffffffffffff81111561807957600080fd5b61808585828601617ced565b9150509250929050565b6000806000606084860312156180a457600080fd5b60006180b286828701617da5565b935050602084013567ffffffffffffffff8111156180cf57600080fd5b6180db86828701617ced565b925050604084013567ffffffffffffffff8111156180f857600080fd5b61810486828701617bfb565b9150509250925092565b6000806000806080858703121561812457600080fd5b600061813287828801617da5565b945050602085013567ffffffffffffffff81111561814f57600080fd5b61815b87828801617ced565b935050604085013567ffffffffffffffff81111561817857600080fd5b61818487828801617ced565b925050606085013567ffffffffffffffff8111156181a157600080fd5b6181ad87828801617a36565b91505092959194509250565b600080604083850312156181cc57600080fd5b60006181da85828601617da5565b92505060206181eb85828601617da5565b9150509250929050565b60008060008060008060008060008060e08b8d03121561821457600080fd5b60006182228d828e01617da5565b9a505060206182338d828e01617da5565b99505060406182448d828e01617b45565b98505060606182558d828e01617da5565b97505060808b013567ffffffffffffffff81111561827257600080fd5b61827e8d828e01617b59565b965096505060a08b013567ffffffffffffffff81111561829d57600080fd5b6182a98d828e01617b59565b945094505060c08b013567ffffffffffffffff8111156182c857600080fd5b6182d48d828e01617b59565b92509250509295989b9194979a5092959850565b600080600080600080600080600060c08a8c03121561830657600080fd5b60006183148c828d01617da5565b99505060206183258c828d01617da5565b98505060408a013567ffffffffffffffff81111561834257600080fd5b61834e8c828d01617b59565b975097505060608a013567ffffffffffffffff81111561836d57600080fd5b6183798c828d01617b59565b955095505060808a013567ffffffffffffffff81111561839857600080fd5b6183a48c828d01617b59565b935093505060a06183b78c828d01617da5565b9150509295985092959850929598565b600080600080600080600060a0888a0312156183e257600080fd5b60006183f08a828b01617da5565b97505060206184018a828b01617da5565b965050604088013567ffffffffffffffff81111561841e57600080fd5b61842a8a828b01617b59565b9550955050606088013567ffffffffffffffff81111561844957600080fd5b6184558a828b01617b59565b935093505060806184688a828b01617da5565b91505092959891949750929550565b6184808161a751565b82525050565b61848f8161a68b565b82525050565b61849e8161a68b565b82525050565b6184ad8161a608565b6184b68261a5cf565b60005b828110156184e8576184cc858351618486565b6184d58261a657565b91506020850194506001810190506184b9565b5050505050565b6184f88161a5fd565b6185018261a5c5565b60005b8281101561853357618517858351618486565b6185208261a64a565b9150602085019450600181019050618504565b5050505050565b6185438161a613565b61854c8261a5d9565b60005b8281101561857e57618562858354618486565b61856b8261a664565b915060208501945060018101905061854f565b5050505050565b60006185908261a61e565b8084526020840193506185a28361a5e3565b60005b828110156185d4576185b8868351618486565b6185c18261a671565b91506020860195506001810190506185a5565b50849250505092915050565b60006185eb8261a61e565b8084526020840193506185fd8361a5e3565b60005b8281101561862f57618613868351618495565b61861c8261a671565b9150602086019550600181019050618600565b50849250505092915050565b60006186468261a629565b8084526020840193508360208202850161865f8561a5f0565b60005b8481101561869857838303885261867a838351618784565b92506186858261a67e565b9150602088019750600181019050618662565b508196508694505050505092915050565b6186b28161a69d565b82525050565b60008284526020840193506186ce83858461a7ab565b6186d78361a7ed565b840190509392505050565b60006186ed8261a63f565b80845261870181602086016020860161a7ba565b61870a8161a7ed565b602085010191505092915050565b60006187238261a63f565b80845261873781602086016020860161a7ba565b6187408161a7ed565b602085010191505092915050565b60006187598261a634565b80845261876d81602086016020860161a7ba565b6187768161a7ed565b602085010191505092915050565b600061878f8261a634565b8084526187a381602086016020860161a7ba565b6187ac8161a7ed565b602085010191505092915050565b6187c38161a763565b82525050565b6187d28161a775565b82525050565b6000602482527f526573706f6e64696e6720746f206e6f6e206578697374696e67206368616c6c60208301527f656e6765000000000000000000000000000000000000000000000000000000006040830152606082019050919050565b6000602282527f4368616c6c656e676520726573706f6e642077696e646f772069736e74206f7660208301527f65720000000000000000000000000000000000000000000000000000000000006040830152606082019050919050565b6000602782527f506c656173652073656e642066756e6473207573696e67207468652046756e6460208301527f4368616e6e656c000000000000000000000000000000000000000000000000006040830152606082019050919050565b6000602b82527f54782073686f756c64206265206265666f72652074686520657869742773207060208301527f6172656e7420626c6f636b0000000000000000000000000000000000000000006040830152606082019050919050565b6000602482527f556c74696d617465205374617465206d75737420626520612066696e616c207360208301527f74617465000000000000000000000000000000000000000000000000000000006040830152606082019050919050565b6000601e82527f5478206973207265666572656e63696e6720616e6f7468657220736c6f7400006020830152604082019050919050565b6000601c82527f506c6179657273206d7573742072656d61696e207468652073616d65000000006020830152604082019050919050565b6000601782527f496e636f7272656374206368616e6e656c2073746174650000000000000000006020830152604082019050919050565b6000602482527f616374697665206368616c6c656e6765206d757374206e6f742062652070726560208301527f73656e74000000000000000000000000000000000000000000000000000000006040830152606082019050919050565b6000602382527f4368616e6e656c206d7573742062652066756e646564206f722073757370656e60208301527f64656400000000000000000000000000000000000000000000000000000000006040830152606082019050919050565b6000601382527f53656e64657220686173206e6f2066756e6473000000000000000000000000006020830152604082019050919050565b6000601482527f4669727374207475726e206d75737420626520300000000000000000000000006020830152604082019050919050565b6000602782527f43616e6e6f7420726573706f6e6420776974682061207478206166746572207460208301527f68652065786974000000000000000000000000000000000000000000000000006040830152606082019050919050565b6000602082527f54782073686f756c64206265206166746572207468652065786974426c6f636b6020830152604082019050919050565b6000601182527f496e76616c6964207369676e61747572650000000000000000000000000000006020830152604082019050919050565b6000602682527f5061796d656e74206d75737420626520657175616c20746f206368616e6e656c60208301527f207374616b6500000000000000000000000000000000000000000000000000006040830152606082019050919050565b6000602e82527f496e76616c6964207472616e736974696f6e3a207475726e4e756d206d75737460208301527f20696e63726561736520627920310000000000000000000000000000000000006040830152606082019050919050565b6000602682527f5374616b65206d7573742062652067726561746572207468616e206d696e696d60208301527f616c2062657400000000000000000000000000000000000000000000000000006040830152606082019050919050565b6000602082527f4368616e6e656c20686173206e6f7420796574206265656e20637265617465646020830152604082019050919050565b6000601482527f524c50204974656d206973206e6f74206c6973740000000000000000000000006020830152604082019050919050565b6000601882527f4368616c6c656e67652077696e646f77206973206f76657200000000000000006020830152604082019050919050565b6000603382527f4368616e6e656c206d7573742062652066756e64656420286d6179626520746860208301527f6572652069732061206368616c6c656e676529000000000000000000000000006040830152606082019050919050565b6000601282527f4e6f74206120646972656374207370656e6400000000000000000000000000006020830152604082019050919050565b6000601982527f537461746520706c6179657220697320696e636f7272656374000000000000006020830152604082019050919050565b6000602982527f5468652073656e646572206973206e6f7420696e766f6c76656420696e20746860208301527f65206368616e6e656c00000000000000000000000000000000000000000000006040830152606082019050919050565b6000602582527f53656e646572206973206e6f742063726561746f72206f66207468697320636860208301527f616e6e656c0000000000000000000000000000000000000000000000000000006040830152606082019050919050565b6000604182527f5472616e73616374696f6e20627974657320646f206e6f7420636f727265737060208301527f6f6e6420746f20616e2061746f6d69632073776170207472616e73616374696f60408301527f6e000000000000000000000000000000000000000000000000000000000000006060830152608082019050919050565b6000601982527f4368616e6e656c20697320616c72656164792066756e646564000000000000006020830152604082019050919050565b6000603482527f4368616e6e656c2773206368616e6e656c4964206d757374206d61746368207460208301527f68652073746174652773206368616e6e656c49640000000000000000000000006040830152606082019050919050565b6000602782527f524c502055696e74206d757374206265206265747765656e203120616e64203360208301527f33206279746573000000000000000000000000000000000000000000000000006040830152606082019050919050565b6000601d82527f496e697469616c2073746174657320646f6573206e6f74206d617463680000006020830152604082019050919050565b6000603a82527f436f756c64206e6f742064657465726d696e65207472616e73616374696f6e2060208301527f7479706520746f20726574726965766520746865206f776e65720000000000006040830152606082019050919050565b6000601982527f4368616e6e656c206d7573742062652073757370656e646564000000000000006020830152604082019050919050565b6000602682527f5472616e73616374696f6e207573656420666f72206368616c6c656e6765206160208301527f6c726561647900000000000000000000000000000000000000000000000000006040830152606082019050919050565b6000602582527f63757272656e74206368616c6c656e6765206d757374206e6f7420626520707260208301527f6573656e740000000000000000000000000000000000000000000000000000006040830152606082019050919050565b6000601b82527f5374617465206f70706f6e656e7420697320696e636f727265637400000000006020830152604082019050919050565b6000602682527f426c6f636b4e756d626572206d7573742062652061667465722074686520636860208301527f616c656e676500000000000000000000000000000000000000000000000000006040830152606082019050919050565b6000601782527f496e76616c696420524c50205472616e73616374696f6e0000000000000000006020830152604082019050919050565b6000601c82527f524c502061646472657373206d757374206265203231206279746573000000006020830152604082019050919050565b6000602082527f616374697665206368616c6c656e6765206d7573742062652070726573656e746020830152604082019050919050565b6000602982527f53656e646572206973206e6f74207061727469636970616e74206f662074686960208301527f73206368616e6e656c00000000000000000000000000000000000000000000006040830152606082019050919050565b6000601c82527f57696e6e6572206e6f7420636f72726563746c792064656369646564000000006020830152604082019050919050565b6000601b82527f5369676e6174757265206c656e67687420697320696e76616c696400000000006020830152604082019050919050565b6000601c82527f496e697469616c20737461746520646f6573206e6f74206d61746368000000006020830152604082019050919050565b6000601d82527f524c50206279746573206d757374206265206d6f7265207468616e20300000006020830152604082019050919050565b6000602082527f4368616e6e656c54797065206d7573742072656d61696e207468652073616d656020830152604082019050919050565b6000601682527f496e76616c6964205061796d656e7420616d6f756e74000000000000000000006020830152604082019050919050565b6000602682527f54782073686f756c64206265206265747765656e20746865206578697427732060208301527f626c6f636b7300000000000000000000000000000000000000000000000000006040830152606082019050919050565b6000603882527f5472616e73616374696f6e20627974657320646f206e6f7420636f727265737060208301527f6f6e6420746f206261736963207472616e73616374696f6e00000000000000006040830152606082019050919050565b6000601f82527f4368616c6c656e676520426f6e64206d7573742062652070726f7669646564006020830152604082019050919050565b6000603382527f496e76616c6964207472616e736974696f6e3a206368616e6e656c4964206d7560208301527f7374206d61746368206f6e20746f5374617465000000000000000000000000006040830152606082019050919050565b6080820160008201516196bf6000850182618486565b5060208201516196d26020850182618486565b5060408201516196e560408501826186a9565b5060608201516196f860608501826199f8565b50505050565b6000606083016000830151848203600086015261971b828261997b565b91505060208301516197306020860182619a16565b5060408301516197436040860182618486565b508091505092915050565b60c0820160008201516197646000850182619a25565b5060208201516197776020850182618486565b50604082015161978a6040850182618486565b50606082015161979d60608501826199f8565b5060808201516197b060808501826199f8565b5060a08201516197c360a08501826199f8565b50505050565b6000610120830160008301516197e260008601826199f8565b5060208301516197f56020860182618486565b50604083015161980860408601826199f8565b50606083015161981b60608601826199f8565b50608083015161982e60808601826184ef565b5060a083015161984160c08601826186a9565b5060c083015161985460e08601826187ba565b5060e083015184820361010086015261986d82826196fe565b9150508091505092915050565b8082525050565b600060a08301600083015161989960008601826199f8565b5060208301516198ac6020860182618486565b50604083015184820360408601526198c48282618585565b91505060608301516198d960608601826199f8565b50608083015184820360808601526198f1828261874e565b9150508091505092915050565b600060a0830160008301516199166000860182619a07565b5060208301516199296020860182618495565b506040830151848203604086015261994182826185e0565b91505060608301516199566060860182619a07565b506080830151848203608086015261996e8282618784565b9150508091505092915050565b600060a08301600083015161999360008601826199f8565b5060208301516199a66020860182618486565b50604083015184820360408601526199be8282618585565b91505060608301516199d360608601826199f8565b50608083015184820360808601526199eb828261874e565b9150508091505092915050565b619a018161a6dd565b82525050565b619a108161a6dd565b82525050565b619a1f8161a6e7565b82525050565b619a2e8161a6f7565b82525050565b60006080820190508181036000830152619a4f8187896186b8565b9050619a5e60208301866184a4565b8181036060830152619a718184866186b8565b90509695505050505050565b60006080820190508181036000830152619a988187896186b8565b9050619aa7602083018661853a565b8181036060830152619aba8184866186b8565b90509695505050505050565b60006060820190508181036000830152619ae081866186e2565b90508181036020830152619af481856186e2565b9050619b0360408301846199f8565b949350505050565b6000604082019050619b2060008301856187c9565b619b2d6020830184618486565b9392505050565b60006020820190508181036000830152619b4d816187d8565b9050919050565b60006020820190508181036000830152619b6d81618835565b9050919050565b60006020820190508181036000830152619b8d81618892565b9050919050565b60006020820190508181036000830152619bad816188ef565b9050919050565b60006020820190508181036000830152619bcd8161894c565b9050919050565b60006020820190508181036000830152619bed816189a9565b9050919050565b60006020820190508181036000830152619c0d816189e0565b9050919050565b60006020820190508181036000830152619c2d81618a17565b9050919050565b60006020820190508181036000830152619c4d81618a4e565b9050919050565b60006020820190508181036000830152619c6d81618aab565b9050919050565b60006020820190508181036000830152619c8d81618b08565b9050919050565b60006020820190508181036000830152619cad81618b3f565b9050919050565b60006020820190508181036000830152619ccd81618b76565b9050919050565b60006020820190508181036000830152619ced81618bd3565b9050919050565b60006020820190508181036000830152619d0d81618c0a565b9050919050565b60006020820190508181036000830152619d2d81618c41565b9050919050565b60006020820190508181036000830152619d4d81618c9e565b9050919050565b60006020820190508181036000830152619d6d81618cfb565b9050919050565b60006020820190508181036000830152619d8d81618d58565b9050919050565b60006020820190508181036000830152619dad81618d8f565b9050919050565b60006020820190508181036000830152619dcd81618dc6565b9050919050565b60006020820190508181036000830152619ded81618dfd565b9050919050565b60006020820190508181036000830152619e0d81618e5a565b9050919050565b60006020820190508181036000830152619e2d81618e91565b9050919050565b60006020820190508181036000830152619e4d81618ec8565b9050919050565b60006020820190508181036000830152619e6d81618f25565b9050919050565b60006020820190508181036000830152619e8d81618f82565b9050919050565b60006020820190508181036000830152619ead81619005565b9050919050565b60006020820190508181036000830152619ecd8161903c565b9050919050565b60006020820190508181036000830152619eed81619099565b9050919050565b60006020820190508181036000830152619f0d816190f6565b9050919050565b60006020820190508181036000830152619f2d8161912d565b9050919050565b60006020820190508181036000830152619f4d8161918a565b9050919050565b60006020820190508181036000830152619f6d816191c1565b9050919050565b60006020820190508181036000830152619f8d8161921e565b9050919050565b60006020820190508181036000830152619fad8161927b565b9050919050565b60006020820190508181036000830152619fcd816192b2565b9050919050565b60006020820190508181036000830152619fed8161930f565b9050919050565b6000602082019050818103600083015261a00d81619346565b9050919050565b6000602082019050818103600083015261a02d8161937d565b9050919050565b6000602082019050818103600083015261a04d816193b4565b9050919050565b6000602082019050818103600083015261a06d81619411565b9050919050565b6000602082019050818103600083015261a08d81619448565b9050919050565b6000602082019050818103600083015261a0ad8161947f565b9050919050565b6000602082019050818103600083015261a0cd816194b6565b9050919050565b6000602082019050818103600083015261a0ed816194ed565b9050919050565b6000602082019050818103600083015261a10d81619524565b9050919050565b6000602082019050818103600083015261a12d8161955b565b9050919050565b6000602082019050818103600083015261a14d816195b8565b9050919050565b6000602082019050818103600083015261a16d81619615565b9050919050565b6000602082019050818103600083015261a18d8161964c565b9050919050565b600060808201905061a1a960008301846196a9565b92915050565b600060c08201905061a1c4600083018461974e565b92915050565b6000602082019050818103600083015261a1e481846197c9565b905092915050565b600060208201905061a201600083018461987a565b92915050565b600060808201905061a21c600083018761987a565b818103602083015261a22e81866198fe565b9050818103604083015261a24281856198fe565b9050818103606083015261a256818461863b565b905095945050505050565b6000602082019050818103600083015261a27b81846198fe565b905092915050565b6000604082019050818103600083015261a29d81856198fe565b9050818103602083015261a2b18184618784565b90509392505050565b6000604082019050818103600083015261a2d48185619881565b9050818103602083015261a2e881846186e2565b90509392505050565b6000604082019050818103600083015261a30b81856198fe565b9050818103602083015261a31f8184618718565b90509392505050565b6000604082019050818103600083015261a34281856198fe565b9050818103602083015261a35681846198fe565b90509392505050565b600060208201905061a37460008301846199f8565b92915050565b600060408201905061a38f60008301856199f8565b61a39c6020830184618486565b9392505050565b600060408201905061a3b860008301856199f8565b61a3c56020830184618477565b9392505050565b600060608201905061a3e160008301876199f8565b61a3ee6020830186618486565b818103604083015261a4018184866186b8565b905095945050505050565b600060608201905061a42160008301866199f8565b61a42e60208301856186a9565b61a43b6040830184618486565b949350505050565b600060608201905061a45860008301866199f8565b61a46560208301856186a9565b61a4726040830184618477565b949350505050565b600060808201905061a48f60008301886199f8565b818103602083015261a4a28186886186b8565b905061a4b16040830185618486565b61a4be6060830184618486565b9695505050505050565b6000604051905081810181811067ffffffffffffffff8211171561a4eb57600080fd5b8060405250919050565b600067ffffffffffffffff82111561a50c57600080fd5b602082029050602081019050919050565b600067ffffffffffffffff82111561a53457600080fd5b602082029050602081019050919050565b600067ffffffffffffffff82111561a55c57600080fd5b602082029050602081019050919050565b600067ffffffffffffffff82111561a58457600080fd5b601f19601f8301169050602081019050919050565b600067ffffffffffffffff82111561a5b057600080fd5b601f19601f8301169050602081019050919050565b6000819050919050565b6000819050919050565b6000819050919050565b6000602082019050919050565b6000602082019050919050565b600060029050919050565b600060029050919050565b600060029050919050565b600081519050919050565b600081519050919050565b600081519050919050565b600081519050919050565b6000602082019050919050565b6000602082019050919050565b6000600182019050919050565b6000602082019050919050565b6000602082019050919050565b600061a6968261a6bd565b9050919050565b6000819050919050565b600060058210151561a6b557fe5b819050919050565b600073ffffffffffffffffffffffffffffffffffffffff82169050919050565b6000819050919050565b600063ffffffff82169050919050565b600067ffffffffffffffff82169050919050565b600061a7168261a6bd565b9050919050565b60008115159050919050565b6000819050919050565b6000819050919050565b600067ffffffffffffffff82169050919050565b600061a75c8261a787565b9050919050565b600061a76e8261a6a7565b9050919050565b600061a7808261a6dd565b9050919050565b600061a7928261a799565b9050919050565b600061a7a48261a6bd565b9050919050565b82818337600083830152505050565b60005b8381101561a7d857808201518184015260208101905061a7bd565b8381111561a7e7576000848401525b50505050565b6000601f19601f830116905091905056fea265627a7a723058206015b9246c3ab31bdac8cf06e31b70684fb6778867e3832c5c9cfd236d45140a6c6578706572696d656e74616cf50037",
  "source": "pragma solidity ^0.5.2;\npragma experimental ABIEncoderV2;\n\nimport \"./Adjudicator.sol\";\nimport \"./Rules.sol\";\nimport \"./State.sol\";\nimport \"openzeppelin-solidity/contracts/drafts/Counters.sol\";\nimport \"../Libraries/ChallengeLib.sol\";\nimport \"../Libraries/ECVerify.sol\";\nimport \"./PlasmaTurnGame.sol\";\nimport \"../Core/RootChain.sol\";\n\n\n//Plasma Channel Manager\ncontract PlasmaCM {\n    using Adjudicators for FMChannel;\n    using Counters for Counters.Counter;\n    using ECVerify for bytes32;\n    using State for State.StateStruct;\n    using Transaction for bytes;\n    using ChallengeLib for ChallengeLib.Challenge[];\n\n    ///////////////////////////////////////////////////////////////////////////////////\n    ////\n    ////            EVENTS\n    ////\n    //////////////////////////////////////////////////////////////////////////////////\n    event ChannelInitiated(uint channelId, address indexed creator, address indexed opponent, address channelType);\n    event ChannelFunded(uint channelId, address indexed creator, address indexed opponent, address channelType, bytes initialState);\n    event ChannelConcluded(uint channelId, address indexed creator, address indexed opponent, address channelType);\n    event ChannelChallenged(\n        uint indexed channelId, uint exitIndex,\n        address indexed creator, address indexed opponent, address challenger\n    );\n    event ChallengeRequest(\n        uint indexed channelId, uint exitIndex, bytes32 txHash,\n        address indexed creator, address indexed opponent, address challenger\n    );\n    event ChallengeResponded(\n        uint indexed channelId, uint exitIndex, bytes32 txHash,\n        address indexed creator, address indexed opponent, address challenger\n    );\n    event ForceMoveResponded(uint indexed channelId, State.StateStruct nextState, bytes signature);\n\n    ///////////////////////////////////////////////////////////////////////////////////\n    ////\n    ////            STRUCTS\n    ////\n    //////////////////////////////////////////////////////////////////////////////////\n    enum ChannelState { INITIATED, FUNDED, SUSPENDED, CLOSED, CHALLENGED }\n\n    //Force Move Channel\n    struct FMChannel {\n        uint256 channelId;\n        address channelType;\n        uint fundedTimestamp;\n        uint256 stake;\n        address[2] players;\n        bytes32 initialArgumentsHash;\n        ChannelState state;\n        Rules.Challenge forceMoveChallenge;\n    }\n\n    mapping (uint => FMChannel) channels;\n    mapping (uint => ChallengeLib.Challenge[]) challenges;\n    mapping (uint => RootChain.Exit[]) exits;\n    mapping (address => uint) funds;\n\n    Counters.Counter channelCounter;\n    RootChain rootChain;\n\n    uint256 constant MINIMAL_BET = 0.01 ether;\n    uint256 constant CHALLENGE_BOND = 0.1 ether;\n    uint256 constant CHALLENGE_RESPOND_PERIOD = 24 hours;\n    uint256 constant CHALLENGE_PERIOD = 12 hours;\n\n    constructor(RootChain _rootChain) public {\n        rootChain = _rootChain;\n    }\n\n    function () external payable {\n        revert(\"Please send funds using the FundChannel\");\n    }\n\n    ///////////////////////////////////////////////////////////////////////////////////\n    ////\n    ////            Channel Creation\n    ////\n    //////////////////////////////////////////////////////////////////////////////////\n    function initiateChannel(\n        address channelType,\n        address opponent,\n        uint stake,\n        bytes calldata initialGameAttributes,\n        bytes calldata exitData\n    ) external payable Payment(stake) {\n\n        channelCounter.increment();\n\n        address[2] memory addresses;\n        addresses[0] = msg.sender;\n        addresses[1] = opponent;\n\n        RootChain.Exit[] memory exitPlayer = ((PlasmaTurnGame)(channelType))\n            .validateStartState(initialGameAttributes, addresses,  exitData);\n        for(uint i; i<exitPlayer.length; i++) {\n            exits[channelCounter.current()].push(exitPlayer[i]);\n        }\n\n        Rules.Challenge memory challenge;\n        FMChannel memory channel = FMChannel(\n            channelCounter.current(),\n            channelType,\n            0,\n            stake,\n            addresses,\n            keccak256(initialGameAttributes),\n            ChannelState.INITIATED,\n            challenge\n        );\n\n        channels[channel.channelId] = channel;\n        emit ChannelInitiated(channel.channelId, channel.players[0], channel.players[1], channel.channelType);\n\n        ((PlasmaTurnGame)(channelType)).eventRequestState(\n            channel.channelId,\n            initialGameAttributes,\n            channel.players[0],\n            channel.players[1]\n        );\n    }\n\n    function fundChannel(\n        uint channelId,\n        bytes calldata initialGameAttributes,\n        bytes calldata exitData\n    ) external payable channelExists(channelId) {\n\n        FMChannel storage channel = channels[channelId];\n\n        require(channel.state == ChannelState.INITIATED, \"Channel is already funded\");\n        require(channel.players[1] == msg.sender, \"Sender is not participant of this channel\");\n        require(channel.stake == msg.value, \"Payment must be equal to channel stake\");\n        require(channel.initialArgumentsHash == keccak256(initialGameAttributes), \"Initial state does not match\");\n        channel.state = ChannelState.FUNDED;\n        channel.fundedTimestamp = block.timestamp;\n        RootChain.Exit[] memory exitOpponent = ((PlasmaTurnGame)(channel.channelType))\n            .validateStartState(initialGameAttributes, channel.players,  exitData);\n        for(uint i; i<exitOpponent.length; i++) {\n            exits[channel.channelId].push(exitOpponent[i]);\n        }\n        emit ChannelFunded(channel.channelId, channel.players[0], channel.players[1], channel.channelType, initialGameAttributes);\n        ((PlasmaTurnGame)(channel.channelType)).eventStartState(channelId, initialGameAttributes, channel.players[0], channel.players[1]);\n    }\n\n    function closeUnfundedChannel(uint channelId) external channelExists(channelId) {\n        FMChannel storage channel = channels[channelId];\n\n        require(channel.state == ChannelState.INITIATED, \"Channel is already funded\");\n        require(channel.players[0] == msg.sender, \"Sender is not creator of this channel\");\n\n        channel.state = ChannelState.CLOSED;\n\n        funds[msg.sender] = funds[msg.sender] + channel.stake;\n        emit ChannelConcluded(channelId, channel.players[0], channel.players[1], channel.channelType);\n    }\n\n    ///////////////////////////////////////////////////////////////////////////////////\n    ////\n    ////            Force Moves\n    ////\n    //////////////////////////////////////////////////////////////////////////////////\n    function forceFirstMove(\n        uint channelId,\n        State.StateStruct memory initialState) public channelExists(channelId) isAllowed(channelId) {\n\n        channels[channelId].forceFirstMove(initialState, msg.sender);\n    }\n\n    function forceMove(\n        uint channelId,\n        State.StateStruct memory fromState,\n        State.StateStruct memory nextState,\n        bytes[] memory signatures\n    ) public channelExists(channelId) isAllowed(channelId) {\n\n        channels[channelId].forceMove(fromState, nextState, msg.sender, signatures);\n    }\n\n    function respondWithMove(\n        uint channelId,\n        State.StateStruct memory nextState,\n        bytes memory signature\n    ) public channelExists(channelId) {\n\n        FMChannel storage channel = channels[channelId];\n        channel.respondWithMove(nextState, signature);\n        emit ForceMoveResponded(channelId, nextState, signature);\n    }\n\n    function alternativeRespondWithMove(\n        uint channelId,\n        State.StateStruct memory alternativeState,\n        State.StateStruct memory nextState,\n        bytes[] memory signatures\n    ) public channelExists(channelId) isAllowed(channelId) {\n\n        channels[channelId].alternativeRespondWithMove(alternativeState, nextState, signatures);\n    }\n\n    ///////////////////////////////////////////////////////////////////////////////////\n    ////\n    ////            End Channel\n    ////\n    //////////////////////////////////////////////////////////////////////////////////\n    function conclude(\n        uint channelId,\n        State.StateStruct memory prevState,\n        State.StateStruct memory lastState,\n        bytes[] memory signatures\n    ) public channelExists(channelId) isFunded(channelId) {\n        FMChannel storage channel = channels[channelId];\n\n        if(!channel.expiredChallengePresent()) {\n            channel.conclude(prevState, lastState, signatures);\n        }\n\n        //should never fail\n        require(channel.expiredChallengePresent(), \"Winner not correctly decided\");\n\n        channel.state = ChannelState.CLOSED;\n        funds[channel.forceMoveChallenge.winner] += channel.stake * 2;\n        emit ChannelConcluded(channelId, channel.players[0], channel.players[1], channel.channelType);\n    }\n\n    function withdraw() public {\n        require(funds[msg.sender] > 0, \"Sender has no funds\");\n        uint value = funds[msg.sender];\n        funds[msg.sender] = 0;\n        msg.sender.transfer(value);\n    }\n\n    ///////////////////////////////////////////////////////////////////////////////////\n    ////\n    ////            Plasma Challenges\n    ////\n    //////////////////////////////////////////////////////////////////////////////////\n    function challengeBefore(\n        uint channelId,\n        uint index,\n        bytes calldata txBytes,\n        bytes calldata txInclusionProof,\n        uint256 blockNumber\n    ) external payable channelExists(channelId) isChallengeable(channelId) Bonded {\n\n        require(block.timestamp <= channels[channelId].fundedTimestamp + CHALLENGE_PERIOD, \"Challenge window is over\");\n        checkBefore(exits[channelId][index], txBytes, txInclusionProof, blockNumber);\n        bytes32 txHash = txBytes.getHash();\n        require(!challenges[channelId].contains(txHash), \"Transaction used for challenge already\");\n\n        // Need to save the exiting transaction's owner, to verify\n        // that the response is valid\n        challenges[channelId].push(\n            ChallengeLib.Challenge({\n                owner:  txBytes.getOwner(),\n                challenger: msg.sender,\n                txHash: txHash,\n                challengingBlockNumber: blockNumber\n            })\n        );\n\n        FMChannel storage channel = channels[channelId];\n        channel.state = ChannelState.SUSPENDED;\n        emit ChallengeRequest(channelId, index, txHash, channel.players[0], channel.players[1], msg.sender);\n    }\n\n    function checkBefore(\n        RootChain.Exit memory exit,\n        bytes memory txBytes,\n        bytes memory proof,\n        uint blockNumber\n    ) private view {\n        require(blockNumber <= exit.prevBlock, \"Tx should be before the exit's parent block\");\n        rootChain.checkTX(txBytes, proof, blockNumber);\n        Transaction.TX memory txData = txBytes.getTransaction();\n        require(txData.slot == exit.slot, \"Tx is referencing another slot\");\n    }\n\n    function challengeAfter(\n        uint channelId,\n        uint index,\n        bytes calldata challengingTransaction,\n        bytes calldata proof,\n        bytes calldata signature,\n        uint256 challengingBlockNumber)\n    external channelExists(channelId) isFunded(channelId) {\n        checkAfter(exits[channelId][index], challengingTransaction, proof, signature, challengingBlockNumber);\n\n        FMChannel storage channel = channels[channelId];\n        channel.state = ChannelState.CHALLENGED;\n        funds[msg.sender] += channel.stake * 2;\n        emit ChannelChallenged(channelId, index, channel.players[0], channel.players[1], msg.sender);\n    }\n\n    function checkAfter(\n        RootChain.Exit memory exit,\n        bytes memory txBytes,\n        bytes memory proof,\n        bytes memory signature,\n        uint blockNumber\n    ) private view {\n\n        require(exit.exitBlock < blockNumber, \"Tx should be after the exitBlock\");\n        rootChain.checkTX(txBytes, proof, blockNumber);\n        Transaction.TX memory txData = txBytes.getTransaction();\n        require(txData.hash.ecverify(signature, exit.owner), \"Invalid signature\");\n        require(txData.slot == exit.slot, \"Tx is referencing another slot\");\n        require(txData.prevBlock == exit.exitBlock, \"Not a direct spend\");\n    }\n\n    function challengeBetween(\n        uint channelId,\n        uint index,\n        bytes calldata challengingTransaction,\n        bytes calldata proof,\n        bytes calldata signature,\n        uint256 challengingBlockNumber)\n    external channelExists(channelId) isFunded(channelId) {\n        checkBetween(exits[channelId][index], challengingTransaction, proof, signature, challengingBlockNumber);\n\n        FMChannel storage channel = channels[channelId];\n        channel.state = ChannelState.CHALLENGED;\n        funds[msg.sender] += channel.stake * 2;\n        emit ChannelChallenged(channelId, index, channel.players[0], channel.players[1], msg.sender);\n    }\n\n    function checkBetween(\n        RootChain.Exit memory exit,\n        bytes memory txBytes,\n        bytes memory proof,\n        bytes memory signature,\n        uint blockNumber\n    ) private view {\n\n        require(exit.exitBlock > blockNumber && exit.prevBlock < blockNumber,\n            \"Tx should be between the exit's blocks\"\n        );\n\n        rootChain.checkTX(txBytes, proof, blockNumber);\n        Transaction.TX memory txData = txBytes.getTransaction();\n        require(txData.hash.ecverify(signature, exit.prevOwner), \"Invalid signature\");\n        require(txData.slot == exit.slot, \"Tx is referencing another slot\");\n    }\n\n    function respondChallengeBefore(\n        uint channelId,\n        uint index,\n        bytes32 challengingTxHash,\n        uint256 respondingBlockNumber,\n        bytes calldata respondingTransaction,\n        bytes calldata proof,\n        bytes calldata signature\n    ) external channelExists(channelId) isSuspended(channelId) {\n\n        // Check that the transaction being challenged exists\n        ChallengeLib.Challenge[] storage cChallenges = challenges[channelId];\n        require(cChallenges.contains(challengingTxHash), \"Responding to non existing challenge\");\n        // Get index of challenge in the challenges array\n        uint256 cIndex = uint256(cChallenges.indexOf(challengingTxHash));\n        uint _index = index;\n        uint _channelId = channelId;\n        uint _blockNumber = respondingBlockNumber;\n        bytes memory _respondingTransaction = respondingTransaction;\n        bytes memory _proof = proof;\n        bytes memory _signature = signature;\n        RootChain.Exit memory exit = exits[_channelId][_index];\n        ChallengeLib.Challenge memory challenge = cChallenges[cIndex];\n        checkResponse(\n            exit,\n            challenge,\n            _blockNumber,\n            _respondingTransaction,\n            _signature,\n            _proof\n        );\n\n        funds[msg.sender] += CHALLENGE_BOND;\n        FMChannel storage channel = channels[_channelId];\n        cChallenges.removeAt(_index);\n\n        if(cChallenges.length == 0) {\n            channel.state = ChannelState.FUNDED;\n        }\n\n        emit ChallengeResponded(_channelId, _index, challenge.txHash, channel.players[0], channel.players[1], challenge.challenger);\n    }\n\n    function checkResponse(\n        RootChain.Exit memory exit,\n        ChallengeLib.Challenge memory challenge,\n        uint256 blockNumber,\n        bytes memory txBytes,\n        bytes memory signature,\n        bytes memory proof\n    ) private view {\n\n        rootChain.checkTX(txBytes, proof, blockNumber);\n        Transaction.TX memory txData = txBytes.getTransaction();\n        require(txData.hash.ecverify(signature, challenge.owner), \"Invalid signature\");\n        require(txData.slot == exit.slot, \"Tx is referencing another slot\");\n        require(blockNumber > challenge.challengingBlockNumber, \"BlockNumber must be after the chalenge\");\n        require(blockNumber <= exit.exitBlock, \"Cannot respond with a tx after the exit\");\n    }\n\n    function closeChallengedChannel(\n        uint channelId\n    ) external channelExists(channelId) isSuspended(channelId) {\n        FMChannel storage channel = channels[channelId];\n        require(block.timestamp >= channel.fundedTimestamp + CHALLENGE_RESPOND_PERIOD, \"Challenge respond window isnt over\");\n\n        ChallengeLib.Challenge[] memory channelChallenges = challenges[channelId];\n\n        for(uint i=0; i<channelChallenges.length; i++) {\n            funds[channelChallenges[i].challenger] += CHALLENGE_BOND;\n        }\n\n        channel.state = ChannelState.CHALLENGED;\n        ChallengeLib.Challenge memory firstChallenge = channelChallenges[0];\n        funds[firstChallenge.challenger] += channel.stake * 2;\n        emit ChannelChallenged(channelId, 0, channel.players[0], channel.players[1], firstChallenge.challenger);\n    }\n\n    ///////////////////////////////////////////////////////////////////////////////////\n    ////\n    ////            Getters\n    ////\n    //////////////////////////////////////////////////////////////////////////////////\n    function getFunds(address user) external view returns (uint) {\n        return funds[user];\n    }\n\n    function getChannel(uint channelId) external view returns (FMChannel memory) {\n        return channels[channelId];\n    }\n\n    function getExit(uint channelId, uint index) external view returns (RootChain.Exit memory) {\n        return exits[channelId][index];\n    }\n\n    function getChallenge(uint channelId, bytes32 txHash) external view returns (ChallengeLib.Challenge memory) {\n\n        uint256 index = uint256(challenges[channelId].indexOf(txHash));\n        return challenges[channelId][index];\n    }\n    ///////////////////////////////////////////////////////////////////////////////////\n    ////\n    ////            Modifiers\n    ////\n    //////////////////////////////////////////////////////////////////////////////////\n    modifier Payment(uint stake) {\n        require(stake >= MINIMAL_BET,\"Stake must be greater than minimal bet\");\n        require(stake == msg.value, \"Invalid Payment amount\");\n        _;\n    }\n\n    modifier Bonded() {\n        require(CHALLENGE_BOND == msg.value, \"Challenge Bond must be provided\");\n        _;\n    }\n\n    modifier channelExists(uint channelId) {\n        require(channels[channelId].channelId > 0, \"Channel has not yet been created\");\n        _;\n    }\n\n    modifier isFunded(uint channelId) {\n        require(channels[channelId].state  == ChannelState.FUNDED, \"Channel must be funded (maybe there is a challenge)\");\n        _;\n    }\n\n    modifier isSuspended(uint channelId) {\n        require(channels[channelId].state  == ChannelState.SUSPENDED, \"Channel must be suspended\");\n        _;\n    }\n\n    modifier isChallengeable(uint channelId) {\n        require(channels[channelId].state  == ChannelState.SUSPENDED\n        || channels[channelId].state  == ChannelState.FUNDED, \"Channel must be funded or suspended\");\n        _;\n    }\n\n    modifier isAllowed(uint channelId) {\n        require(\n            channels[channelId].players[0] == msg.sender || channels[channelId].players[1] == msg.sender,\n                \"The sender is not involved in the channel\"\n        );\n        _;\n    }\n\n}\n",
  "sourcePath": "/home/juanfra/Documents/ITBA/PF/Plasma-Cash-RootChain/contracts/Battles/PlasmaChannelManager.sol",
  "compiler": {
    "name": "solc",
    "version": "0.5.2+commit.1df8f40c.Emscripten.clang"
  },
  "schemaVersion": "3.0.16",
  "updatedAt": "2019-10-31T20:21:57.982Z",
  "devdoc": {
    "methods": {}
  },
  "userdoc": {
    "methods": {
      "challengeBefore(uint256,uint256,bytes,bytes,uint256)": {
        "notice": "//////////////////////////////////////////////////////////////////////////////// / /            Plasma Challenges / ///////////////////////////////////////////////////////////////////////////////"
      },
      "conclude(uint256,(uint256,address,address[],uint256,bytes),(uint256,address,address[],uint256,bytes),bytes[])": {
        "notice": "//////////////////////////////////////////////////////////////////////////////// / /            End Channel / ///////////////////////////////////////////////////////////////////////////////"
      },
      "forceFirstMove(uint256,(uint256,address,address[],uint256,bytes))": {
        "notice": "//////////////////////////////////////////////////////////////////////////////// / /            Force Moves / ///////////////////////////////////////////////////////////////////////////////"
      },
      "getFunds(address)": {
        "notice": "//////////////////////////////////////////////////////////////////////////////// / /            Getters / ///////////////////////////////////////////////////////////////////////////////"
      },
      "initiateChannel(address,address,uint256,bytes,bytes)": {
        "notice": "//////////////////////////////////////////////////////////////////////////////// / /            Channel Creation / ///////////////////////////////////////////////////////////////////////////////"
      }
    }
  }
}