{
  "contractName": "PlasmaCM",
  "abi": [
    {
      "inputs": [
        {
          "name": "_rootChain",
          "type": "address"
        }
      ],
      "payable": false,
      "stateMutability": "nonpayable",
      "type": "constructor"
    },
    {
      "payable": true,
      "stateMutability": "payable",
      "type": "fallback"
    },
    {
      "anonymous": false,
      "inputs": [
        {
          "indexed": false,
          "name": "channelId",
          "type": "uint256"
        },
        {
          "indexed": true,
          "name": "creator",
          "type": "address"
        },
        {
          "indexed": true,
          "name": "opponent",
          "type": "address"
        },
        {
          "indexed": false,
          "name": "channelType",
          "type": "address"
        }
      ],
      "name": "ChannelInitiated",
      "type": "event"
    },
    {
      "anonymous": false,
      "inputs": [
        {
          "indexed": false,
          "name": "channelId",
          "type": "uint256"
        },
        {
          "indexed": true,
          "name": "creator",
          "type": "address"
        },
        {
          "indexed": true,
          "name": "opponent",
          "type": "address"
        },
        {
          "indexed": false,
          "name": "channelType",
          "type": "address"
        },
        {
          "indexed": false,
          "name": "initialState",
          "type": "bytes"
        }
      ],
      "name": "ChannelFunded",
      "type": "event"
    },
    {
      "anonymous": false,
      "inputs": [
        {
          "indexed": true,
          "name": "channelId",
          "type": "uint256"
        },
        {
          "indexed": true,
          "name": "creator",
          "type": "address"
        },
        {
          "indexed": true,
          "name": "opponent",
          "type": "address"
        }
      ],
      "name": "ChannelConcluded",
      "type": "event"
    },
    {
      "anonymous": false,
      "inputs": [
        {
          "indexed": true,
          "name": "channelId",
          "type": "uint256"
        },
        {
          "indexed": false,
          "name": "exitIndex",
          "type": "uint256"
        },
        {
          "indexed": true,
          "name": "creator",
          "type": "address"
        },
        {
          "indexed": true,
          "name": "opponent",
          "type": "address"
        }
      ],
      "name": "ChannelChallenged",
      "type": "event"
    },
    {
      "anonymous": false,
      "inputs": [
        {
          "indexed": true,
          "name": "channelId",
          "type": "uint256"
        },
        {
          "indexed": false,
          "name": "exitIndex",
          "type": "uint256"
        },
        {
          "indexed": false,
          "name": "txHash",
          "type": "bytes32"
        },
        {
          "indexed": true,
          "name": "creator",
          "type": "address"
        },
        {
          "indexed": true,
          "name": "opponent",
          "type": "address"
        },
        {
          "indexed": false,
          "name": "challenger",
          "type": "address"
        }
      ],
      "name": "ChallengeRequest",
      "type": "event"
    },
    {
      "anonymous": false,
      "inputs": [
        {
          "indexed": true,
          "name": "channelId",
          "type": "uint256"
        },
        {
          "indexed": false,
          "name": "exitIndex",
          "type": "uint256"
        },
        {
          "indexed": false,
          "name": "txHash",
          "type": "bytes32"
        },
        {
          "indexed": true,
          "name": "creator",
          "type": "address"
        },
        {
          "indexed": true,
          "name": "opponent",
          "type": "address"
        },
        {
          "indexed": false,
          "name": "challenger",
          "type": "address"
        }
      ],
      "name": "ChallengeResponded",
      "type": "event"
    },
    {
      "anonymous": false,
      "inputs": [
        {
          "indexed": true,
          "name": "channelId",
          "type": "uint256"
        },
        {
          "components": [
            {
              "name": "channelId",
              "type": "uint256"
            },
            {
              "name": "channelType",
              "type": "address"
            },
            {
              "name": "participants",
              "type": "address[]"
            },
            {
              "name": "turnNum",
              "type": "uint256"
            },
            {
              "name": "gameAttributes",
              "type": "bytes"
            }
          ],
          "indexed": false,
          "name": "state",
          "type": "tuple"
        }
      ],
      "name": "ForceMoveRequested",
      "type": "event"
    },
    {
      "anonymous": false,
      "inputs": [
        {
          "indexed": true,
          "name": "channelId",
          "type": "uint256"
        },
        {
          "components": [
            {
              "name": "channelId",
              "type": "uint256"
            },
            {
              "name": "channelType",
              "type": "address"
            },
            {
              "name": "participants",
              "type": "address[]"
            },
            {
              "name": "turnNum",
              "type": "uint256"
            },
            {
              "name": "gameAttributes",
              "type": "bytes"
            }
          ],
          "indexed": false,
          "name": "nextState",
          "type": "tuple"
        },
        {
          "indexed": false,
          "name": "signature",
          "type": "bytes"
        }
      ],
      "name": "ForceMoveResponded",
      "type": "event"
    },
    {
      "constant": false,
      "inputs": [
        {
          "name": "channelType",
          "type": "address"
        },
        {
          "name": "opponent",
          "type": "address"
        },
        {
          "name": "stake",
          "type": "uint256"
        },
        {
          "name": "initialGameAttributes",
          "type": "bytes"
        },
        {
          "name": "exitData",
          "type": "bytes"
        }
      ],
      "name": "initiateChannel",
      "outputs": [],
      "payable": true,
      "stateMutability": "payable",
      "type": "function"
    },
    {
      "constant": false,
      "inputs": [
        {
          "name": "channelId",
          "type": "uint256"
        },
        {
          "name": "initialGameAttributes",
          "type": "bytes"
        },
        {
          "name": "exitData",
          "type": "bytes"
        }
      ],
      "name": "fundChannel",
      "outputs": [],
      "payable": true,
      "stateMutability": "payable",
      "type": "function"
    },
    {
      "constant": false,
      "inputs": [
        {
          "name": "channelId",
          "type": "uint256"
        }
      ],
      "name": "closeUnfundedChannel",
      "outputs": [],
      "payable": false,
      "stateMutability": "nonpayable",
      "type": "function"
    },
    {
      "constant": false,
      "inputs": [
        {
          "name": "channelId",
          "type": "uint256"
        },
        {
          "components": [
            {
              "name": "channelId",
              "type": "uint256"
            },
            {
              "name": "channelType",
              "type": "address"
            },
            {
              "name": "participants",
              "type": "address[]"
            },
            {
              "name": "turnNum",
              "type": "uint256"
            },
            {
              "name": "gameAttributes",
              "type": "bytes"
            }
          ],
          "name": "prevState",
          "type": "tuple"
        },
        {
          "components": [
            {
              "name": "channelId",
              "type": "uint256"
            },
            {
              "name": "channelType",
              "type": "address"
            },
            {
              "name": "participants",
              "type": "address[]"
            },
            {
              "name": "turnNum",
              "type": "uint256"
            },
            {
              "name": "gameAttributes",
              "type": "bytes"
            }
          ],
          "name": "lastState",
          "type": "tuple"
        },
        {
          "name": "signatures",
          "type": "bytes[]"
        }
      ],
      "name": "conclude",
      "outputs": [],
      "payable": false,
      "stateMutability": "nonpayable",
      "type": "function"
    },
    {
      "constant": false,
      "inputs": [],
      "name": "withdraw",
      "outputs": [],
      "payable": false,
      "stateMutability": "nonpayable",
      "type": "function"
    },
    {
      "constant": false,
      "inputs": [
        {
          "name": "channelId",
          "type": "uint256"
        },
        {
          "components": [
            {
              "name": "channelId",
              "type": "uint256"
            },
            {
              "name": "channelType",
              "type": "address"
            },
            {
              "name": "participants",
              "type": "address[]"
            },
            {
              "name": "turnNum",
              "type": "uint256"
            },
            {
              "name": "gameAttributes",
              "type": "bytes"
            }
          ],
          "name": "initialState",
          "type": "tuple"
        }
      ],
      "name": "forceFirstMove",
      "outputs": [],
      "payable": false,
      "stateMutability": "nonpayable",
      "type": "function"
    },
    {
      "constant": false,
      "inputs": [
        {
          "name": "channelId",
          "type": "uint256"
        },
        {
          "components": [
            {
              "name": "channelId",
              "type": "uint256"
            },
            {
              "name": "channelType",
              "type": "address"
            },
            {
              "name": "participants",
              "type": "address[]"
            },
            {
              "name": "turnNum",
              "type": "uint256"
            },
            {
              "name": "gameAttributes",
              "type": "bytes"
            }
          ],
          "name": "fromState",
          "type": "tuple"
        },
        {
          "components": [
            {
              "name": "channelId",
              "type": "uint256"
            },
            {
              "name": "channelType",
              "type": "address"
            },
            {
              "name": "participants",
              "type": "address[]"
            },
            {
              "name": "turnNum",
              "type": "uint256"
            },
            {
              "name": "gameAttributes",
              "type": "bytes"
            }
          ],
          "name": "toState",
          "type": "tuple"
        },
        {
          "name": "signatures",
          "type": "bytes[]"
        }
      ],
      "name": "forceMove",
      "outputs": [],
      "payable": false,
      "stateMutability": "nonpayable",
      "type": "function"
    },
    {
      "constant": false,
      "inputs": [
        {
          "name": "channelId",
          "type": "uint256"
        },
        {
          "components": [
            {
              "name": "channelId",
              "type": "uint256"
            },
            {
              "name": "channelType",
              "type": "address"
            },
            {
              "name": "participants",
              "type": "address[]"
            },
            {
              "name": "turnNum",
              "type": "uint256"
            },
            {
              "name": "gameAttributes",
              "type": "bytes"
            }
          ],
          "name": "nextState",
          "type": "tuple"
        },
        {
          "name": "signature",
          "type": "bytes"
        }
      ],
      "name": "respondWithMove",
      "outputs": [],
      "payable": false,
      "stateMutability": "nonpayable",
      "type": "function"
    },
    {
      "constant": false,
      "inputs": [
        {
          "name": "channelId",
          "type": "uint256"
        },
        {
          "components": [
            {
              "name": "channelId",
              "type": "uint256"
            },
            {
              "name": "channelType",
              "type": "address"
            },
            {
              "name": "participants",
              "type": "address[]"
            },
            {
              "name": "turnNum",
              "type": "uint256"
            },
            {
              "name": "gameAttributes",
              "type": "bytes"
            }
          ],
          "name": "alternativeState",
          "type": "tuple"
        },
        {
          "components": [
            {
              "name": "channelId",
              "type": "uint256"
            },
            {
              "name": "channelType",
              "type": "address"
            },
            {
              "name": "participants",
              "type": "address[]"
            },
            {
              "name": "turnNum",
              "type": "uint256"
            },
            {
              "name": "gameAttributes",
              "type": "bytes"
            }
          ],
          "name": "nextState",
          "type": "tuple"
        },
        {
          "name": "signatures",
          "type": "bytes[]"
        }
      ],
      "name": "alternativeRespondWithMove",
      "outputs": [],
      "payable": false,
      "stateMutability": "nonpayable",
      "type": "function"
    },
    {
      "constant": false,
      "inputs": [
        {
          "name": "channelId",
          "type": "uint256"
        },
        {
          "name": "index",
          "type": "uint256"
        },
        {
          "name": "txBytes",
          "type": "bytes"
        },
        {
          "name": "proof",
          "type": "bytes"
        },
        {
          "name": "signature",
          "type": "bytes"
        },
        {
          "name": "blockNumber",
          "type": "uint256"
        }
      ],
      "name": "challengeAfter",
      "outputs": [],
      "payable": false,
      "stateMutability": "nonpayable",
      "type": "function"
    },
    {
      "constant": false,
      "inputs": [
        {
          "name": "channelId",
          "type": "uint256"
        },
        {
          "name": "index",
          "type": "uint256"
        },
        {
          "name": "txBytes",
          "type": "bytes"
        },
        {
          "name": "proof",
          "type": "bytes"
        },
        {
          "name": "signature",
          "type": "bytes"
        },
        {
          "name": "blockNumber",
          "type": "uint256"
        }
      ],
      "name": "challengeBetween",
      "outputs": [],
      "payable": false,
      "stateMutability": "nonpayable",
      "type": "function"
    },
    {
      "constant": false,
      "inputs": [
        {
          "name": "channelId",
          "type": "uint256"
        },
        {
          "name": "index",
          "type": "uint256"
        },
        {
          "name": "txBytes",
          "type": "bytes"
        },
        {
          "name": "proof",
          "type": "bytes"
        },
        {
          "name": "blockNumber",
          "type": "uint256"
        }
      ],
      "name": "challengeBefore",
      "outputs": [],
      "payable": true,
      "stateMutability": "payable",
      "type": "function"
    },
    {
      "constant": false,
      "inputs": [
        {
          "name": "channelId",
          "type": "uint256"
        },
        {
          "name": "index",
          "type": "uint256"
        },
        {
          "name": "challengingTxHash",
          "type": "bytes32"
        },
        {
          "name": "respondingBlockNumber",
          "type": "uint256"
        },
        {
          "name": "respondingTransaction",
          "type": "bytes"
        },
        {
          "name": "proof",
          "type": "bytes"
        },
        {
          "name": "signature",
          "type": "bytes"
        }
      ],
      "name": "respondChallengeBefore",
      "outputs": [],
      "payable": false,
      "stateMutability": "nonpayable",
      "type": "function"
    },
    {
      "constant": false,
      "inputs": [
        {
          "name": "channelId",
          "type": "uint256"
        }
      ],
      "name": "closeChallengedChannel",
      "outputs": [],
      "payable": false,
      "stateMutability": "nonpayable",
      "type": "function"
    },
    {
      "constant": true,
      "inputs": [
        {
          "name": "user",
          "type": "address"
        }
      ],
      "name": "getFunds",
      "outputs": [
        {
          "name": "",
          "type": "uint256"
        }
      ],
      "payable": false,
      "stateMutability": "view",
      "type": "function"
    },
    {
      "constant": true,
      "inputs": [
        {
          "name": "channelId",
          "type": "uint256"
        }
      ],
      "name": "getChannel",
      "outputs": [
        {
          "components": [
            {
              "name": "channelId",
              "type": "uint256"
            },
            {
              "name": "channelType",
              "type": "address"
            },
            {
              "name": "fundedTimestamp",
              "type": "uint256"
            },
            {
              "name": "stake",
              "type": "uint256"
            },
            {
              "name": "players",
              "type": "address[2]"
            },
            {
              "name": "initialArgumentsHash",
              "type": "bytes32"
            },
            {
              "name": "state",
              "type": "uint8"
            },
            {
              "components": [
                {
                  "components": [
                    {
                      "name": "channelId",
                      "type": "uint256"
                    },
                    {
                      "name": "channelType",
                      "type": "address"
                    },
                    {
                      "name": "participants",
                      "type": "address[]"
                    },
                    {
                      "name": "turnNum",
                      "type": "uint256"
                    },
                    {
                      "name": "gameAttributes",
                      "type": "bytes"
                    }
                  ],
                  "name": "state",
                  "type": "tuple"
                },
                {
                  "name": "expirationTime",
                  "type": "uint32"
                },
                {
                  "name": "winner",
                  "type": "address"
                }
              ],
              "name": "forceMoveChallenge",
              "type": "tuple"
            }
          ],
          "name": "",
          "type": "tuple"
        }
      ],
      "payable": false,
      "stateMutability": "view",
      "type": "function"
    },
    {
      "constant": true,
      "inputs": [
        {
          "name": "channelId",
          "type": "uint256"
        },
        {
          "name": "index",
          "type": "uint256"
        }
      ],
      "name": "getExit",
      "outputs": [
        {
          "components": [
            {
              "name": "slot",
              "type": "uint64"
            },
            {
              "name": "prevOwner",
              "type": "address"
            },
            {
              "name": "owner",
              "type": "address"
            },
            {
              "name": "createdAt",
              "type": "uint256"
            },
            {
              "name": "prevBlock",
              "type": "uint256"
            },
            {
              "name": "exitBlock",
              "type": "uint256"
            }
          ],
          "name": "",
          "type": "tuple"
        }
      ],
      "payable": false,
      "stateMutability": "view",
      "type": "function"
    },
    {
      "constant": true,
      "inputs": [
        {
          "name": "channelId",
          "type": "uint256"
        },
        {
          "name": "txHash",
          "type": "bytes32"
        }
      ],
      "name": "getChallenge",
      "outputs": [
        {
          "components": [
            {
              "name": "exitor",
              "type": "address"
            },
            {
              "name": "owner",
              "type": "address"
            },
            {
              "name": "challenger",
              "type": "address"
            },
            {
              "name": "txHash",
              "type": "bytes32"
            },
            {
              "name": "challengingBlockNumber",
              "type": "uint256"
            }
          ],
          "name": "",
          "type": "tuple"
        }
      ],
      "payable": false,
      "stateMutability": "view",
      "type": "function"
    }
  ],
  "bytecode": "0x60806040523480156200001157600080fd5b506040516020806200ba44833981018060405262000033919081019062000091565b80600560006101000a81548173ffffffffffffffffffffffffffffffffffffffff021916908373ffffffffffffffffffffffffffffffffffffffff1602179055505062000105565b6000620000898251620000f1565b905092915050565b600060208284031215620000a457600080fd5b6000620000b4848285016200007b565b91505092915050565b6000620000ca82620000d1565b9050919050565b600073ffffffffffffffffffffffffffffffffffffffff82169050919050565b6000620000fe82620000bd565b9050919050565b61b92f80620001156000396000f3fe608060405260043610610126576000357c010000000000000000000000000000000000000000000000000000000090048063b3586724116100b2578063decebbce11610081578063decebbce14610393578063e4a47d4d146103d0578063e649544c146103f9578063f264c05f14610422578063f5f585781461043e57610126565b8063b3586724146102db578063b38dd09014610304578063c4eafa5014610341578063d77533c11461036a57610126565b806327129344116100f9578063271293441461020c5780633ccfd60b14610235578063437135801461024c5780634f32af911461027557806364e070881461029e57610126565b806307494ed9146101615780630aeae3611461018a57806310df54a0146101a6578063254d4f56146101e3575b6040517f08c379a00000000000000000000000000000000000000000000000000000000081526004016101589061ac1b565b60405180910390fd5b34801561016d57600080fd5b50610188600480360361018391908101906190f9565b61045a565b005b6101a4600480360361019f9190810190618de2565b6109be565b005b3480156101b257600080fd5b506101cd60048036036101c89190810190618f38565b6110e5565b6040516101da919061b271565b60405180910390f35b3480156101ef57600080fd5b5061020a600480360361020591908101906190f9565b611479565b005b34801561021857600080fd5b50610233600480360361022e91908101906191e0565b61166d565b005b34801561024157600080fd5b5061024a611cec565b005b34801561025857600080fd5b50610273600480360361026e9190810190619026565b611e43565b005b34801561028157600080fd5b5061029c600480360361029791908101906192d3565b611ff9565b005b3480156102aa57600080fd5b506102c560048036036102c09190810190618f61565b6125ab565b6040516102d2919061b23b565b60405180910390f35b3480156102e757600080fd5b5061030260048036036102fd9190810190618f38565b612735565b005b34801561031057600080fd5b5061032b600480360361032691908101906191a4565b613001565b604051610338919061b256565b60405180910390f35b34801561034d57600080fd5b50610368600480360361036391908101906190f9565b613147565b005b34801561037657600080fd5b50610391600480360361038c919081019061907a565b613401565b005b34801561039f57600080fd5b506103ba60048036036103b59190810190618d90565b6134c2565b6040516103c7919061b46d565b60405180910390f35b3480156103dc57600080fd5b506103f760048036036103f291908101906192d3565b61350b565b005b34801561040557600080fd5b50610420600480360361041b9190810190618f38565b613bd1565b005b61043c60048036036104379190810190618f9d565b614027565b005b610458600480360361045391908101906193b2565b6146d2565b005b836000806000838152602001908152602001600020600001541115156104b5576040517f08c379a00000000000000000000000000000000000000000000000000000000081526004016104ac9061ae1b565b60405180910390fd5b84600160048111156104c357fe5b60008083815260200190815260200160002060070160009054906101000a900460ff1660048111156104f157fe5b141515610533576040517f08c379a000000000000000000000000000000000000000000000000000000000815260040161052a9061ae7b565b60405180910390fd5b600080600088815260200190815260200160002090508073__Adjudicators__________________________6393eb57d890916040518263ffffffff167c010000000000000000000000000000000000000000000000000000000002815260040161059e919061b293565b60206040518083038186803b1580156105b657600080fd5b505af41580156105ca573d6000803e3d6000fd5b505050506040513d601f19601f820116820180604052506105ee9190810190618ed3565b151561060c5761060b86868684614e63909392919063ffffffff16565b5b8073__Adjudicators__________________________6393eb57d890916040518263ffffffff167c0100000000000000000000000000000000000000000000000000000000028152600401610661919061b293565b60206040518083038186803b15801561067957600080fd5b505af415801561068d573d6000803e3d6000fd5b505050506040513d601f19601f820116820180604052506106b19190810190618ed3565b15156106f2576040517f08c379a00000000000000000000000000000000000000000000000000000000081526004016106e99061b0fb565b60405180910390fd5b60038160070160006101000a81548160ff0219169083600481111561071357fe5b02179055506002816003015402600360008360080160050160049054906101000a900473ffffffffffffffffffffffffffffffffffffffff1673ffffffffffffffffffffffffffffffffffffffff1673ffffffffffffffffffffffffffffffffffffffff168152602001908152602001600020600082825401925050819055508060040160016002811015156107a557fe5b0160009054906101000a900473ffffffffffffffffffffffffffffffffffffffff1673ffffffffffffffffffffffffffffffffffffffff168160040160006002811015156107ef57fe5b0160009054906101000a900473ffffffffffffffffffffffffffffffffffffffff1673ffffffffffffffffffffffffffffffffffffffff16887f7acc0a3dfc6e1bee8385ab38e8a59402462f0731fb255a53311ec95957da995560405160405180910390a46000808881526020019081526020016000206000808201600090556001820160006101000a81549073ffffffffffffffffffffffffffffffffffffffff0219169055600282016000905560038201600090556004820160006108b69190618180565b60068201600090556007820160006101000a81549060ff02191690556008820160008082016000808201600090556001820160006101000a81549073ffffffffffffffffffffffffffffffffffffffff021916905560028201600061091b919061818e565b600382016000905560048201600061093391906181af565b50506005820160006101000a81549063ffffffff02191690556005820160046101000a81549073ffffffffffffffffffffffffffffffffffffffff02191690555050505060016000888152602001908152602001600020600061099691906181f7565b6002600088815260200190815260200160002060006109b5919061821b565b50505050505050565b84662386f26fc100008110151515610a0b576040517f08c379a0000000000000000000000000000000000000000000000000000000008152600401610a029061adfb565b60405180910390fd5b3481141515610a4f576040517f08c379a0000000000000000000000000000000000000000000000000000000008152600401610a469061b19b565b60405180910390fd5b610a596004615117565b610a6161823f565b33816000600281101515610a7157fe5b602002019073ffffffffffffffffffffffffffffffffffffffff16908173ffffffffffffffffffffffffffffffffffffffff168152505087816001600281101515610ab857fe5b602002019073ffffffffffffffffffffffffffffffffffffffff16908173ffffffffffffffffffffffffffffffffffffffff168152505060608973ffffffffffffffffffffffffffffffffffffffff1663a3cd4eca88888560008a8a6040518763ffffffff167c0100000000000000000000000000000000000000000000000000000000028152600401610b519695949392919061aaad565b60006040518083038186803b158015610b6957600080fd5b505afa158015610b7d573d6000803e3d6000fd5b505050506040513d6000823e3d601f19601f82011682018060405250610ba69190810190618e92565b905060005b8151811015610cfe5760026000610bc2600461512d565b81526020019081526020016000208282815181101515610bde57fe5b906020019060200201519080600181540180825580915050906001820390600052602060002090600502016000909192909190915060008201518160000160006101000a81548167ffffffffffffffff021916908367ffffffffffffffff16021790555060208201518160000160086101000a81548173ffffffffffffffffffffffffffffffffffffffff021916908373ffffffffffffffffffffffffffffffffffffffff16021790555060408201518160010160006101000a81548173ffffffffffffffffffffffffffffffffffffffff021916908373ffffffffffffffffffffffffffffffffffffffff160217905550606082015181600201556080820151816003015560a082015181600401555050508080600101915050610bab565b50610d07618261565b610d0f6182a5565b61010060405190810160405280610d26600461512d565b81526020018d73ffffffffffffffffffffffffffffffffffffffff168152602001600081526020018b81526020018581526020018a8a6040518083838082843780830192505050925050506040518091039020815260200160006004811115610d8b57fe5b815260200183815250905080600080836000015181526020019081526020016000206000820151816000015560208201518160010160006101000a81548173ffffffffffffffffffffffffffffffffffffffff021916908373ffffffffffffffffffffffffffffffffffffffff1602179055506040820151816002015560608201518160030155608082015181600401906002610e2992919061831b565b5060a0820151816006015560c08201518160070160006101000a81548160ff02191690836004811115610e5857fe5b021790555060e0820151816008016000820151816000016000820151816000015560208201518160010160006101000a81548173ffffffffffffffffffffffffffffffffffffffff021916908373ffffffffffffffffffffffffffffffffffffffff1602179055506040820151816002019080519060200190610edc929190618398565b50606082015181600301556080820151816004019080519060200190610f03929190618422565b50505060208201518160050160006101000a81548163ffffffff021916908363ffffffff16021790555060408201518160050160046101000a81548173ffffffffffffffffffffffffffffffffffffffff021916908373ffffffffffffffffffffffffffffffffffffffff160217905550505090505080608001516001600281101515610f8c57fe5b602002015173ffffffffffffffffffffffffffffffffffffffff1681608001516000600281101515610fba57fe5b602002015173ffffffffffffffffffffffffffffffffffffffff167f25cf3599109edb1e430fb6b67729a3e2d50143f7f06d41c5140504803919c1a28360000151846020015160405161100e92919061b488565b60405180910390a38b73ffffffffffffffffffffffffffffffffffffffff166332a4b4eb82600001518b8b8560800151600060028110151561104c57fe5b60200201518660800151600160028110151561106457fe5b60200201516040518663ffffffff167c01000000000000000000000000000000000000000000000000000000000281526004016110a595949392919061b55f565b600060405180830381600087803b1580156110bf57600080fd5b505af11580156110d3573d6000803e3d6000fd5b50505050505050505050505050505050565b6110ed6182a5565b6000808381526020019081526020016000206101006040519081016040529081600082015481526020016001820160009054906101000a900473ffffffffffffffffffffffffffffffffffffffff1673ffffffffffffffffffffffffffffffffffffffff1673ffffffffffffffffffffffffffffffffffffffff1681526020016002820154815260200160038201548152602001600482016002806020026040519081016040528092919082600280156111f2576020028201915b8160009054906101000a900473ffffffffffffffffffffffffffffffffffffffff1673ffffffffffffffffffffffffffffffffffffffff16815260200190600101908083116111a8575b50505050508152602001600682015481526020016007820160009054906101000a900460ff16600481111561122357fe5b600481111561122e57fe5b815260200160088201606060405190810160405290816000820160a06040519081016040529081600082015481526020016001820160009054906101000a900473ffffffffffffffffffffffffffffffffffffffff1673ffffffffffffffffffffffffffffffffffffffff1673ffffffffffffffffffffffffffffffffffffffff1681526020016002820180548060200260200160405190810160405280929190818152602001828054801561133957602002820191906000526020600020905b8160009054906101000a900473ffffffffffffffffffffffffffffffffffffffff1673ffffffffffffffffffffffffffffffffffffffff16815260200190600101908083116112ef575b5050505050815260200160038201548152602001600482018054600181600116156101000203166002900480601f0160208091040260200160405190810160405280929190818152602001828054600181600116156101000203166002900480156113e55780601f106113ba576101008083540402835291602001916113e5565b820191906000526020600020905b8154815290600101906020018083116113c857829003601f168201915b50505050508152505081526020016005820160009054906101000a900463ffffffff1663ffffffff1663ffffffff1681526020016005820160049054906101000a900473ffffffffffffffffffffffffffffffffffffffff1673ffffffffffffffffffffffffffffffffffffffff1673ffffffffffffffffffffffffffffffffffffffff1681525050815250509050919050565b836000806000838152602001908152602001600020600001541115156114d4576040517f08c379a00000000000000000000000000000000000000000000000000000000081526004016114cb9061ae1b565b60405180910390fd5b843373ffffffffffffffffffffffffffffffffffffffff16600080838152602001908152602001600020600401600060028110151561150f57fe5b0160009054906101000a900473ffffffffffffffffffffffffffffffffffffffff1673ffffffffffffffffffffffffffffffffffffffff1614806115c257503373ffffffffffffffffffffffffffffffffffffffff16600080838152602001908152602001600020600401600160028110151561158857fe5b0160009054906101000a900473ffffffffffffffffffffffffffffffffffffffff1673ffffffffffffffffffffffffffffffffffffffff16145b1515611603576040517f08c379a00000000000000000000000000000000000000000000000000000000081526004016115fa9061aedb565b60405180910390fd5b61162d858533866000808c815260200190815260200160002061513b90949392919063ffffffff16565b857f463c80689d451b26ecc7938dea62c92d92b1d0b4fcb0862fe682c14eb761ae068560405161165d919061b316565b60405180910390a2505050505050565b896000806000838152602001908152602001600020600001541115156116c8576040517f08c379a00000000000000000000000000000000000000000000000000000000081526004016116bf9061ae1b565b60405180910390fd5b8a600260048111156116d657fe5b60008083815260200190815260200160002060070160009054906101000a900460ff16600481111561170457fe5b141515611746576040517f08c379a000000000000000000000000000000000000000000000000000000000815260040161173d9061afdb565b60405180910390fd5b6000600160008e815260200190815260200160002090506117708b826153b190919063ffffffff16565b15156117b1576040517f08c379a00000000000000000000000000000000000000000000000000000000081526004016117a89061abbb565b60405180910390fd5b60006117c68c836153ed90919063ffffffff16565b905060008d905060008f905060008d905060608d8d8080601f016020809104026020016040519081016040528093929190818152602001838380828437600081840152601f19601f82011690508083019250505050505050905060608c8c8080601f016020809104026020016040519081016040528093929190818152602001838380828437600081840152601f19601f82011690508083019250505050505050905060608b8b8080601f016020809104026020016040519081016040528093929190818152602001838380828437600081840152601f19601f8201169050808301925050505050505090506118ba6184a2565b60026000878152602001908152602001600020878154811015156118da57fe5b906000526020600020906005020160c060405190810160405290816000820160009054906101000a900467ffffffffffffffff1667ffffffffffffffff1667ffffffffffffffff1681526020016000820160089054906101000a900473ffffffffffffffffffffffffffffffffffffffff1673ffffffffffffffffffffffffffffffffffffffff1673ffffffffffffffffffffffffffffffffffffffff1681526020016001820160009054906101000a900473ffffffffffffffffffffffffffffffffffffffff1673ffffffffffffffffffffffffffffffffffffffff1673ffffffffffffffffffffffffffffffffffffffff168152602001600282015481526020016003820154815260200160048201548152505090506119fa61850f565b8989815481101515611a0857fe5b906000526020600020906005020160a060405190810160405290816000820160009054906101000a900473ffffffffffffffffffffffffffffffffffffffff1673ffffffffffffffffffffffffffffffffffffffff1673ffffffffffffffffffffffffffffffffffffffff1681526020016001820160009054906101000a900473ffffffffffffffffffffffffffffffffffffffff1673ffffffffffffffffffffffffffffffffffffffff1673ffffffffffffffffffffffffffffffffffffffff1681526020016002820160009054906101000a900473ffffffffffffffffffffffffffffffffffffffff1673ffffffffffffffffffffffffffffffffffffffff1673ffffffffffffffffffffffffffffffffffffffff168152602001600382015481526020016004820154815250509050611b48828288888789615469565b67016345785d8a0000600360003373ffffffffffffffffffffffffffffffffffffffff1673ffffffffffffffffffffffffffffffffffffffff1681526020019081526020016000206000828254019250508190555060008060008981526020019081526020016000209050611bc6898c6156a090919063ffffffff16565b5060008b805490501415611bfb5760018160070160006101000a81548160ff02191690836004811115611bf557fe5b02179055505b806004016001600281101515611c0d57fe5b0160009054906101000a900473ffffffffffffffffffffffffffffffffffffffff1673ffffffffffffffffffffffffffffffffffffffff16816004016000600281101515611c5757fe5b0160009054906101000a900473ffffffffffffffffffffffffffffffffffffffff1673ffffffffffffffffffffffffffffffffffffffff16897fcf151482e26f1cea5e270edcca2971265164cb8490d235037b223a3d6c7a38e38c86606001518760400151604051611ccb9392919061b4f1565b60405180910390a45050505050505050505050505050505050505050505050565b6000600360003373ffffffffffffffffffffffffffffffffffffffff1673ffffffffffffffffffffffffffffffffffffffff16815260200190815260200160002054111515611d70576040517f08c379a0000000000000000000000000000000000000000000000000000000008152600401611d679061ad1b565b60405180910390fd5b6000600360003373ffffffffffffffffffffffffffffffffffffffff1673ffffffffffffffffffffffffffffffffffffffff1681526020019081526020016000205490506000600360003373ffffffffffffffffffffffffffffffffffffffff1673ffffffffffffffffffffffffffffffffffffffff168152602001908152602001600020819055503373ffffffffffffffffffffffffffffffffffffffff166108fc829081150290604051600060405180830381858888f19350505050158015611e3f573d6000803e3d6000fd5b5050565b81600080600083815260200190815260200160002060000154111515611e9e576040517f08c379a0000000000000000000000000000000000000000000000000000000008152600401611e959061ae1b565b60405180910390fd5b823373ffffffffffffffffffffffffffffffffffffffff166000808381526020019081526020016000206004016000600281101515611ed957fe5b0160009054906101000a900473ffffffffffffffffffffffffffffffffffffffff1673ffffffffffffffffffffffffffffffffffffffff161480611f8c57503373ffffffffffffffffffffffffffffffffffffffff166000808381526020019081526020016000206004016001600281101515611f5257fe5b0160009054906101000a900473ffffffffffffffffffffffffffffffffffffffff1673ffffffffffffffffffffffffffffffffffffffff16145b1515611fcd576040517f08c379a0000000000000000000000000000000000000000000000000000000008152600401611fc49061aedb565b60405180910390fd5b611ff383336000808881526020019081526020016000206159c89092919063ffffffff16565b50505050565b88600080600083815260200190815260200160002060000154111515612054576040517f08c379a000000000000000000000000000000000000000000000000000000000815260040161204b9061ae1b565b60405180910390fd5b896001600481111561206257fe5b60008083815260200190815260200160002060070160009054906101000a900460ff16600481111561209057fe5b1415156120d2576040517f08c379a00000000000000000000000000000000000000000000000000000000081526004016120c99061ae7b565b60405180910390fd5b6122e0600260008d81526020019081526020016000208b8154811015156120f557fe5b906000526020600020906005020160c060405190810160405290816000820160009054906101000a900467ffffffffffffffff1667ffffffffffffffff1667ffffffffffffffff1681526020016000820160089054906101000a900473ffffffffffffffffffffffffffffffffffffffff1673ffffffffffffffffffffffffffffffffffffffff1673ffffffffffffffffffffffffffffffffffffffff1681526020016001820160009054906101000a900473ffffffffffffffffffffffffffffffffffffffff1673ffffffffffffffffffffffffffffffffffffffff1673ffffffffffffffffffffffffffffffffffffffff16815260200160028201548152602001600382015481526020016004820154815250508a8a8080601f016020809104026020016040519081016040528093929190818152602001838380828437600081840152601f19601f8201169050808301925050505050505089898080601f016020809104026020016040519081016040528093929190818152602001838380828437600081840152601f19601f8201169050808301925050505050505088888080601f016020809104026020016040519081016040528093929190818152602001838380828437600081840152601f19601f8201169050808301925050505050505087615b60565b60008060008d8152602001908152602001600020905060048160070160006101000a81548160ff0219169083600481111561231757fe5b02179055506002816003015402600360003373ffffffffffffffffffffffffffffffffffffffff1673ffffffffffffffffffffffffffffffffffffffff1681526020019081526020016000206000828254019250508190555080600401600160028110151561238257fe5b0160009054906101000a900473ffffffffffffffffffffffffffffffffffffffff1673ffffffffffffffffffffffffffffffffffffffff168160040160006002811015156123cc57fe5b0160009054906101000a900473ffffffffffffffffffffffffffffffffffffffff1673ffffffffffffffffffffffffffffffffffffffff168d7fc48336ffe7a7ca0bf72638330813b6395901f57d17a41859d5b7a81e122a310b8e604051612434919061b46d565b60405180910390a46000808d81526020019081526020016000206000808201600090556001820160006101000a81549073ffffffffffffffffffffffffffffffffffffffff02191690556002820160009055600382016000905560048201600061249e9190618180565b60068201600090556007820160006101000a81549060ff02191690556008820160008082016000808201600090556001820160006101000a81549073ffffffffffffffffffffffffffffffffffffffff0219169055600282016000612503919061818e565b600382016000905560048201600061251b91906181af565b50506005820160006101000a81549063ffffffff02191690556005820160046101000a81549073ffffffffffffffffffffffffffffffffffffffff021916905550505050600160008d8152602001908152602001600020600061257e91906181f7565b600260008d8152602001908152602001600020600061259d919061821b565b505050505050505050505050565b6125b361850f565b60006125da83600160008781526020019081526020016000206153ed90919063ffffffff16565b905060016000858152602001908152602001600020818154811015156125fc57fe5b906000526020600020906005020160a060405190810160405290816000820160009054906101000a900473ffffffffffffffffffffffffffffffffffffffff1673ffffffffffffffffffffffffffffffffffffffff1673ffffffffffffffffffffffffffffffffffffffff1681526020016001820160009054906101000a900473ffffffffffffffffffffffffffffffffffffffff1673ffffffffffffffffffffffffffffffffffffffff1673ffffffffffffffffffffffffffffffffffffffff1681526020016002820160009054906101000a900473ffffffffffffffffffffffffffffffffffffffff1673ffffffffffffffffffffffffffffffffffffffff1673ffffffffffffffffffffffffffffffffffffffff1681526020016003820154815260200160048201548152505091505092915050565b80600080600083815260200190815260200160002060000154111515612790576040517f08c379a00000000000000000000000000000000000000000000000000000000081526004016127879061ae1b565b60405180910390fd5b816002600481111561279e57fe5b60008083815260200190815260200160002060070160009054906101000a900460ff1660048111156127cc57fe5b14151561280e576040517f08c379a00000000000000000000000000000000000000000000000000000000081526004016128059061afdb565b60405180910390fd5b60008060008581526020019081526020016000209050620151808160020154014210151515612872576040517f08c379a00000000000000000000000000000000000000000000000000000000081526004016128699061abdb565b60405180910390fd5b606060016000868152602001908152602001600020805480602002602001604051908101604052809291908181526020016000905b828210156129f0578382906000526020600020906005020160a060405190810160405290816000820160009054906101000a900473ffffffffffffffffffffffffffffffffffffffff1673ffffffffffffffffffffffffffffffffffffffff1673ffffffffffffffffffffffffffffffffffffffff1681526020016001820160009054906101000a900473ffffffffffffffffffffffffffffffffffffffff1673ffffffffffffffffffffffffffffffffffffffff1673ffffffffffffffffffffffffffffffffffffffff1681526020016002820160009054906101000a900473ffffffffffffffffffffffffffffffffffffffff1673ffffffffffffffffffffffffffffffffffffffff1673ffffffffffffffffffffffffffffffffffffffff16815260200160038201548152602001600482015481525050815260200190600101906128a7565b5050505090506000809050600080905060008090505b8351811015612c8b5782158015612a965750846004016000600281101515612a2a57fe5b0160009054906101000a900473ffffffffffffffffffffffffffffffffffffffff1673ffffffffffffffffffffffffffffffffffffffff168482815181101515612a7057fe5b906020019060200201516000015173ffffffffffffffffffffffffffffffffffffffff16145b15612b1057600192508460030154600360008684815181101515612ab657fe5b906020019060200201516040015173ffffffffffffffffffffffffffffffffffffffff1673ffffffffffffffffffffffffffffffffffffffff16815260200190815260200160002060008282540192505081905550612c0e565b81158015612b975750846004016001600281101515612b2b57fe5b0160009054906101000a900473ffffffffffffffffffffffffffffffffffffffff1673ffffffffffffffffffffffffffffffffffffffff168482815181101515612b7157fe5b906020019060200201516000015173ffffffffffffffffffffffffffffffffffffffff16145b15612c0d578460030154600360008684815181101515612bb357fe5b906020019060200201516040015173ffffffffffffffffffffffffffffffffffffffff1673ffffffffffffffffffffffffffffffffffffffff16815260200190815260200160002060008282540192505081905550600191505b5b67016345785d8a0000600360008684815181101515612c2957fe5b906020019060200201516040015173ffffffffffffffffffffffffffffffffffffffff1673ffffffffffffffffffffffffffffffffffffffff168152602001908152602001600020600082825401925050819055508080600101915050612a06565b5060048460070160006101000a81548160ff02191690836004811115612cad57fe5b0217905550811515612d3e57836003015460036000866004016000600281101515612cd457fe5b0160009054906101000a900473ffffffffffffffffffffffffffffffffffffffff1673ffffffffffffffffffffffffffffffffffffffff1673ffffffffffffffffffffffffffffffffffffffff168152602001908152602001600020600082825401925050819055505b801515612dca57836003015460036000866004016001600281101515612d6057fe5b0160009054906101000a900473ffffffffffffffffffffffffffffffffffffffff1673ffffffffffffffffffffffffffffffffffffffff1673ffffffffffffffffffffffffffffffffffffffff168152602001908152602001600020600082825401925050819055505b836004016001600281101515612ddc57fe5b0160009054906101000a900473ffffffffffffffffffffffffffffffffffffffff1673ffffffffffffffffffffffffffffffffffffffff16846004016000600281101515612e2657fe5b0160009054906101000a900473ffffffffffffffffffffffffffffffffffffffff1673ffffffffffffffffffffffffffffffffffffffff16887fc48336ffe7a7ca0bf72638330813b6395901f57d17a41859d5b7a81e122a310b6000604051612e8f919061aba0565b60405180910390a46000808881526020019081526020016000206000808201600090556001820160006101000a81549073ffffffffffffffffffffffffffffffffffffffff021916905560028201600090556003820160009055600482016000612ef99190618180565b60068201600090556007820160006101000a81549060ff02191690556008820160008082016000808201600090556001820160006101000a81549073ffffffffffffffffffffffffffffffffffffffff0219169055600282016000612f5e919061818e565b6003820160009055600482016000612f7691906181af565b50506005820160006101000a81549063ffffffff02191690556005820160046101000a81549073ffffffffffffffffffffffffffffffffffffffff021916905550505050600160008881526020019081526020016000206000612fd991906181f7565b600260008881526020019081526020016000206000612ff8919061821b565b50505050505050565b6130096184a2565b600260008481526020019081526020016000208281548110151561302957fe5b906000526020600020906005020160c060405190810160405290816000820160009054906101000a900467ffffffffffffffff1667ffffffffffffffff1667ffffffffffffffff1681526020016000820160089054906101000a900473ffffffffffffffffffffffffffffffffffffffff1673ffffffffffffffffffffffffffffffffffffffff1673ffffffffffffffffffffffffffffffffffffffff1681526020016001820160009054906101000a900473ffffffffffffffffffffffffffffffffffffffff1673ffffffffffffffffffffffffffffffffffffffff1673ffffffffffffffffffffffffffffffffffffffff1681526020016002820154815260200160038201548152602001600482015481525050905092915050565b836000806000838152602001908152602001600020600001541115156131a2576040517f08c379a00000000000000000000000000000000000000000000000000000000081526004016131999061ae1b565b60405180910390fd5b843373ffffffffffffffffffffffffffffffffffffffff1660008083815260200190815260200160002060040160006002811015156131dd57fe5b0160009054906101000a900473ffffffffffffffffffffffffffffffffffffffff1673ffffffffffffffffffffffffffffffffffffffff16148061329057503373ffffffffffffffffffffffffffffffffffffffff16600080838152602001908152602001600020600401600160028110151561325657fe5b0160009054906101000a900473ffffffffffffffffffffffffffffffffffffffff1673ffffffffffffffffffffffffffffffffffffffff16145b15156132d1576040517f08c379a00000000000000000000000000000000000000000000000000000000081526004016132c89061aedb565b60405180910390fd5b60008087815260200190815260200160002073__Adjudicators__________________________63e29e6a129091878733886040518663ffffffff167c010000000000000000000000000000000000000000000000000000000002815260040161333f95949392919061b2ae565b60006040518083038186803b15801561335757600080fd5b505af415801561336b573d6000803e3d6000fd5b50505050857f1e28397eca303bbc3b7933b3c68919fd3946a1381fb2214046b0451d2e463c22858560018151811015156133a157fe5b906020019060200201516040516133b992919061b35a565b60405180910390a2857f463c80689d451b26ecc7938dea62c92d92b1d0b4fcb0862fe682c14eb761ae06856040516133f1919061b316565b60405180910390a2505050505050565b8260008060008381526020019081526020016000206000015411151561345c576040517f08c379a00000000000000000000000000000000000000000000000000000000081526004016134539061ae1b565b60405180910390fd5b6134828383600080888152602001908152602001600020615d5c9092919063ffffffff16565b837f1e28397eca303bbc3b7933b3c68919fd3946a1381fb2214046b0451d2e463c2284846040516134b492919061b3c8565b60405180910390a250505050565b6000600360008373ffffffffffffffffffffffffffffffffffffffff1673ffffffffffffffffffffffffffffffffffffffff168152602001908152602001600020549050919050565b88600080600083815260200190815260200160002060000154111515613566576040517f08c379a000000000000000000000000000000000000000000000000000000000815260040161355d9061ae1b565b60405180910390fd5b896001600481111561357457fe5b60008083815260200190815260200160002060070160009054906101000a900460ff1660048111156135a257fe5b1415156135e4576040517f08c379a00000000000000000000000000000000000000000000000000000000081526004016135db9061ae7b565b60405180910390fd5b60008060008d815260200190815260200160002090506000600560009054906101000a900473ffffffffffffffffffffffffffffffffffffffff1673ffffffffffffffffffffffffffffffffffffffff166304c07569866040518263ffffffff167c0100000000000000000000000000000000000000000000000000000000028152600401613673919061b46d565b604080518083038186803b15801561368a57600080fd5b505afa15801561369e573d6000803e3d6000fd5b505050506040513d601f19601f820116820180604052506136c29190810190618efc565b91505081600201548110151561370d576040517f08c379a00000000000000000000000000000000000000000000000000000000081526004016137049061abfb565b60405180910390fd5b61391b600260008f81526020019081526020016000208d81548110151561373057fe5b906000526020600020906005020160c060405190810160405290816000820160009054906101000a900467ffffffffffffffff1667ffffffffffffffff1667ffffffffffffffff1681526020016000820160089054906101000a900473ffffffffffffffffffffffffffffffffffffffff1673ffffffffffffffffffffffffffffffffffffffff1673ffffffffffffffffffffffffffffffffffffffff1681526020016001820160009054906101000a900473ffffffffffffffffffffffffffffffffffffffff1673ffffffffffffffffffffffffffffffffffffffff1673ffffffffffffffffffffffffffffffffffffffff16815260200160028201548152602001600382015481526020016004820154815250508c8c8080601f016020809104026020016040519081016040528093929190818152602001838380828437600081840152601f19601f820116905080830192505050505050508b8b8080601f016020809104026020016040519081016040528093929190818152602001838380828437600081840152601f19601f820116905080830192505050505050508a8a8080601f016020809104026020016040519081016040528093929190818152602001838380828437600081840152601f19601f8201169050808301925050505050505089616063565b60048260070160006101000a81548160ff0219169083600481111561393c57fe5b02179055506002826003015402600360003373ffffffffffffffffffffffffffffffffffffffff1673ffffffffffffffffffffffffffffffffffffffff168152602001908152602001600020600082825401925050819055508160040160016002811015156139a757fe5b0160009054906101000a900473ffffffffffffffffffffffffffffffffffffffff1673ffffffffffffffffffffffffffffffffffffffff168260040160006002811015156139f157fe5b0160009054906101000a900473ffffffffffffffffffffffffffffffffffffffff1673ffffffffffffffffffffffffffffffffffffffff168e7fc48336ffe7a7ca0bf72638330813b6395901f57d17a41859d5b7a81e122a310b8f604051613a59919061b46d565b60405180910390a46000808e81526020019081526020016000206000808201600090556001820160006101000a81549073ffffffffffffffffffffffffffffffffffffffff021916905560028201600090556003820160009055600482016000613ac39190618180565b60068201600090556007820160006101000a81549060ff02191690556008820160008082016000808201600090556001820160006101000a81549073ffffffffffffffffffffffffffffffffffffffff0219169055600282016000613b28919061818e565b6003820160009055600482016000613b4091906181af565b50506005820160006101000a81549063ffffffff02191690556005820160046101000a81549073ffffffffffffffffffffffffffffffffffffffff021916905550505050600160008e81526020019081526020016000206000613ba391906181f7565b600260008e81526020019081526020016000206000613bc2919061821b565b50505050505050505050505050565b80600080600083815260200190815260200160002060000154111515613c2c576040517f08c379a0000000000000000000000000000000000000000000000000000000008152600401613c239061ae1b565b60405180910390fd5b6000806000848152602001908152602001600020905060006004811115613c4f57fe5b8160070160009054906101000a900460ff166004811115613c6c57fe5b141515613cae576040517f08c379a0000000000000000000000000000000000000000000000000000000008152600401613ca59061af3b565b60405180910390fd5b3373ffffffffffffffffffffffffffffffffffffffff16816004016000600281101515613cd757fe5b0160009054906101000a900473ffffffffffffffffffffffffffffffffffffffff1673ffffffffffffffffffffffffffffffffffffffff16141515613d51576040517f08c379a0000000000000000000000000000000000000000000000000000000008152600401613d489061aefb565b60405180910390fd5b60038160070160006101000a81548160ff02191690836004811115613d7257fe5b02179055508060030154600360003373ffffffffffffffffffffffffffffffffffffffff1673ffffffffffffffffffffffffffffffffffffffff1681526020019081526020016000205401600360003373ffffffffffffffffffffffffffffffffffffffff1673ffffffffffffffffffffffffffffffffffffffff16815260200190815260200160002081905550806004016001600281101515613e1257fe5b0160009054906101000a900473ffffffffffffffffffffffffffffffffffffffff1673ffffffffffffffffffffffffffffffffffffffff16816004016000600281101515613e5c57fe5b0160009054906101000a900473ffffffffffffffffffffffffffffffffffffffff1673ffffffffffffffffffffffffffffffffffffffff16847f7acc0a3dfc6e1bee8385ab38e8a59402462f0731fb255a53311ec95957da995560405160405180910390a46000808481526020019081526020016000206000808201600090556001820160006101000a81549073ffffffffffffffffffffffffffffffffffffffff021916905560028201600090556003820160009055600482016000613f239190618180565b60068201600090556007820160006101000a81549060ff02191690556008820160008082016000808201600090556001820160006101000a81549073ffffffffffffffffffffffffffffffffffffffff0219169055600282016000613f88919061818e565b6003820160009055600482016000613fa091906181af565b50506005820160006101000a81549063ffffffff02191690556005820160046101000a81549073ffffffffffffffffffffffffffffffffffffffff02191690555050505060016000848152602001908152602001600020600061400391906181f7565b600260008481526020019081526020016000206000614022919061821b565b505050565b84600080600083815260200190815260200160002060000154111515614082576040517f08c379a00000000000000000000000000000000000000000000000000000000081526004016140799061ae1b565b60405180910390fd5b60008060008881526020019081526020016000209050600060048111156140a557fe5b8160070160009054906101000a900460ff1660048111156140c257fe5b141515614104576040517f08c379a00000000000000000000000000000000000000000000000000000000081526004016140fb9061af3b565b60405180910390fd5b3373ffffffffffffffffffffffffffffffffffffffff1681600401600160028110151561412d57fe5b0160009054906101000a900473ffffffffffffffffffffffffffffffffffffffff1673ffffffffffffffffffffffffffffffffffffffff161415156141a7576040517f08c379a000000000000000000000000000000000000000000000000000000000815260040161419e9061b0db565b60405180910390fd5b3481600301541415156141ef576040517f08c379a00000000000000000000000000000000000000000000000000000000081526004016141e69061adbb565b60405180910390fd5b858560405180838380828437808301925050509250505060405180910390208160060154141515614255576040517f08c379a000000000000000000000000000000000000000000000000000000000815260040161424c9061b13b565b60405180910390fd5b60018160070160006101000a81548160ff0219169083600481111561427657fe5b021790555042816002018190555060608160010160009054906101000a900473ffffffffffffffffffffffffffffffffffffffff1673ffffffffffffffffffffffffffffffffffffffff1663a3cd4eca88888560040160018a8a6040518763ffffffff167c010000000000000000000000000000000000000000000000000000000002815260040161430d9695949392919061ab04565b60006040518083038186803b15801561432557600080fd5b505afa158015614339573d6000803e3d6000fd5b505050506040513d6000823e3d601f19601f820116820180604052506143629190810190618e92565b905060005b81518110156144b5576002600084600001548152602001908152602001600020828281518110151561439557fe5b906020019060200201519080600181540180825580915050906001820390600052602060002090600502016000909192909190915060008201518160000160006101000a81548167ffffffffffffffff021916908367ffffffffffffffff16021790555060208201518160000160086101000a81548173ffffffffffffffffffffffffffffffffffffffff021916908373ffffffffffffffffffffffffffffffffffffffff16021790555060408201518160010160006101000a81548173ffffffffffffffffffffffffffffffffffffffff021916908373ffffffffffffffffffffffffffffffffffffffff160217905550606082015181600201556080820151816003015560a082015181600401555050508080600101915050614367565b508160040160016002811015156144c857fe5b0160009054906101000a900473ffffffffffffffffffffffffffffffffffffffff1673ffffffffffffffffffffffffffffffffffffffff1682600401600060028110151561451257fe5b0160009054906101000a900473ffffffffffffffffffffffffffffffffffffffff1673ffffffffffffffffffffffffffffffffffffffff167f66b133a8a03d17724e3e4a03ecf4828c80e833164b10cee3bc4ea87179ec47ce84600001548560010160009054906101000a900473ffffffffffffffffffffffffffffffffffffffff168b8b6040516145a7949392919061b4b1565b60405180910390a38160010160009054906101000a900473ffffffffffffffffffffffffffffffffffffffff1673ffffffffffffffffffffffffffffffffffffffff1663afb531c189898986600401600060028110151561460457fe5b0160009054906101000a900473ffffffffffffffffffffffffffffffffffffffff1687600401600160028110151561463857fe5b0160009054906101000a900473ffffffffffffffffffffffffffffffffffffffff166040518663ffffffff167c010000000000000000000000000000000000000000000000000000000002815260040161469695949392919061b55f565b600060405180830381600087803b1580156146b057600080fd5b505af11580156146c4573d6000803e3d6000fd5b505050505050505050505050565b8660008060008381526020019081526020016000206000015411151561472d576040517f08c379a00000000000000000000000000000000000000000000000000000000081526004016147249061ae1b565b60405180910390fd5b876002600481111561473b57fe5b60008083815260200190815260200160002060070160009054906101000a900460ff16600481111561476957fe5b14806147ad57506001600481111561477d57fe5b60008083815260200190815260200160002060070160009054906101000a900460ff1660048111156147ab57fe5b145b15156147ee576040517f08c379a00000000000000000000000000000000000000000000000000000000081526004016147e59061acfb565b60405180910390fd5b3467016345785d8a000014151561483a576040517f08c379a00000000000000000000000000000000000000000000000000000000081526004016148319061b1fb565b60405180910390fd5b61a8c06000808b815260200190815260200160002060020154014211151515614898576040517f08c379a000000000000000000000000000000000000000000000000000000000815260040161488f9061ae5b565b60405180910390fd5b614a61600260008b8152602001908152602001600020898154811015156148bb57fe5b906000526020600020906005020160c060405190810160405290816000820160009054906101000a900467ffffffffffffffff1667ffffffffffffffff1667ffffffffffffffff1681526020016000820160089054906101000a900473ffffffffffffffffffffffffffffffffffffffff1673ffffffffffffffffffffffffffffffffffffffff1673ffffffffffffffffffffffffffffffffffffffff1681526020016001820160009054906101000a900473ffffffffffffffffffffffffffffffffffffffff1673ffffffffffffffffffffffffffffffffffffffff1673ffffffffffffffffffffffffffffffffffffffff168152602001600282015481526020016003820154815260200160048201548152505088888080601f016020809104026020016040519081016040528093929190818152602001838380828437600081840152601f19601f8201169050808301925050505050505087878080601f016020809104026020016040519081016040528093929190818152602001838380828437600081840152601f19601f820116905080830192505050505050508661629c565b6000614ab088888080601f016020809104026020016040519081016040528093929190818152602001838380828437600081840152601f19601f8201169050808301925050505050505061642b565b9050614ad781600160008d81526020019081526020016000206153b190919063ffffffff16565b151515614b19576040517f08c379a0000000000000000000000000000000000000000000000000000000008152600401614b109061affb565b60405180910390fd5b600160008b815260200190815260200160002060a060405190810160405280600260008e81526020019081526020016000208c815481101515614b5857fe5b906000526020600020906005020160010160009054906101000a900473ffffffffffffffffffffffffffffffffffffffff1673ffffffffffffffffffffffffffffffffffffffff168152602001614bf28b8b8080601f016020809104026020016040519081016040528093929190818152602001838380828437600081840152601f19601f82011690508083019250505050505050616505565b73ffffffffffffffffffffffffffffffffffffffff1681526020013373ffffffffffffffffffffffffffffffffffffffff168152602001838152602001868152509080600181540180825580915050906001820390600052602060002090600502016000909192909190915060008201518160000160006101000a81548173ffffffffffffffffffffffffffffffffffffffff021916908373ffffffffffffffffffffffffffffffffffffffff16021790555060208201518160010160006101000a81548173ffffffffffffffffffffffffffffffffffffffff021916908373ffffffffffffffffffffffffffffffffffffffff16021790555060408201518160020160006101000a81548173ffffffffffffffffffffffffffffffffffffffff021916908373ffffffffffffffffffffffffffffffffffffffff160217905550606082015181600301556080820151816004015550505060008060008c8152602001908152602001600020905060028160070160006101000a81548160ff02191690836004811115614d8157fe5b0217905550806004016001600281101515614d9857fe5b0160009054906101000a900473ffffffffffffffffffffffffffffffffffffffff1673ffffffffffffffffffffffffffffffffffffffff16816004016000600281101515614de257fe5b0160009054906101000a900473ffffffffffffffffffffffffffffffffffffffff1673ffffffffffffffffffffffffffffffffffffffff168c7f87b53a9af69001b2f443aaa5a733186e3ecc478db203526b704e64588aaaaaaf8d8633604051614e4e9392919061b528565b60405180910390a45050505050505050505050565b83614e6d816165ca565b151515614eaf576040517f08c379a0000000000000000000000000000000000000000000000000000000008152600401614ea69061acdb565b60405180910390fd5b846001806004811115614ebe57fe5b8260070160009054906101000a900460ff166004811115614edb57fe5b141515614f1d576040517f08c379a0000000000000000000000000000000000000000000000000000000008152600401614f149061acbb565b60405180910390fd5b868680600001518260000154141515614f6b576040517f08c379a0000000000000000000000000000000000000000000000000000000008152600401614f629061af5b565b60405180910390fd5b614f768888886165f3565b8673__State_________________________________63e563190090916040518263ffffffff167c0100000000000000000000000000000000000000000000000000000000028152600401614fcb919061b338565b60206040518083038186803b158015614fe357600080fd5b505af4158015614ff7573d6000803e3d6000fd5b505050506040513d601f19601f8201168201806040525061501b9190810190618ed3565b151561505c576040517f08c379a00000000000000000000000000000000000000000000000000000000081526004016150539061ac5b565b60405180910390fd5b61510c8942898a73__State_________________________________63bb60e9c990916040518263ffffffff167c01000000000000000000000000000000000000000000000000000000000281526004016150b7919061b338565b60206040518083038186803b1580156150cf57600080fd5b505af41580156150e3573d6000803e3d6000fd5b505050506040513d601f19601f820116820180604052506151079190810190618db9565b616740565b505050505050505050565b6001816000016000828254019250508190555050565b600081600001549050919050565b84615145816169ec565b151515615187576040517f08c379a000000000000000000000000000000000000000000000000000000000815260040161517e9061b01b565b60405180910390fd5b85600180600481111561519657fe5b8260070160009054906101000a900460ff1660048111156151b357fe5b1415156151f5576040517f08c379a00000000000000000000000000000000000000000000000000000000081526004016151ec9061acbb565b60405180910390fd5b878780600001518260000154141515615243576040517f08c379a000000000000000000000000000000000000000000000000000000000815260040161523a9061af5b565b60405180910390fd5b600086600081518110151561525457fe5b90602001906020020151511415615389576152db898b600401600060028110151561527b57fe5b0160009054906101000a900473ffffffffffffffffffffffffffffffffffffffff168c60040160016002811015156152af57fe5b0160009054906101000a900473ffffffffffffffffffffffffffffffffffffffff168d60060154616a02565b8773__State_________________________________63654fc67d909188600181518110151561530757fe5b906020019060200201516040518363ffffffff167c010000000000000000000000000000000000000000000000000000000002815260040161534a92919061b391565b60006040518083038186803b15801561536257600080fd5b505af4158015615376573d6000803e3d6000fd5b505050506153848989616c13565b615395565b6153948989886165f3565b5b6153a58a61025842018a8a616740565b50505050505050505050565b6000806153be84846153ed565b90507fffffffffffffffffffffffffffffffffffffffffffffffffffffffffffffffff81141591505092915050565b600080600090505b838054905081101561543e5782848281548110151561541057fe5b90600052602060002090600502016003015414156154315780915050615463565b80806001019150506153f5565b507fffffffffffffffffffffffffffffffffffffffffffffffffffffffffffffffff90505b92915050565b600560009054906101000a900473ffffffffffffffffffffffffffffffffffffffff1673ffffffffffffffffffffffffffffffffffffffff1663620251098483876040518463ffffffff167c01000000000000000000000000000000000000000000000000000000000281526004016154e49392919061ab5b565b60206040518083038186803b1580156154fc57600080fd5b505afa158015615510573d6000803e3d6000fd5b505050506040513d601f19601f820116820180604052506155349190810190618ed3565b5061553d618584565b61554684616ec8565b90506155658387602001518360400151616f829092919063ffffffff16565b15156155a6576040517f08c379a000000000000000000000000000000000000000000000000000000000815260040161559d9061ad9b565b60405180910390fd5b866000015167ffffffffffffffff16816000015167ffffffffffffffff16141515615606576040517f08c379a00000000000000000000000000000000000000000000000000000000081526004016155fd9061ac7b565b60405180910390fd5b85608001518511151561564e576040517f08c379a00000000000000000000000000000000000000000000000000000000081526004016156459061b05b565b60405180910390fd5b8660a001518511151515615697576040517f08c379a000000000000000000000000000000000000000000000000000000000815260040161568e9061ad5b565b60405180910390fd5b50505050505050565b60006156aa61850f565b8360018580549050038154811015156156bf57fe5b906000526020600020906005020160a060405190810160405290816000820160009054906101000a900473ffffffffffffffffffffffffffffffffffffffff1673ffffffffffffffffffffffffffffffffffffffff1673ffffffffffffffffffffffffffffffffffffffff1681526020016001820160009054906101000a900473ffffffffffffffffffffffffffffffffffffffff1673ffffffffffffffffffffffffffffffffffffffff1673ffffffffffffffffffffffffffffffffffffffff1681526020016002820160009054906101000a900473ffffffffffffffffffffffffffffffffffffffff1673ffffffffffffffffffffffffffffffffffffffff1673ffffffffffffffffffffffffffffffffffffffff16815260200160038201548152602001600482015481525050905080848481548110151561580057fe5b906000526020600020906005020160008201518160000160006101000a81548173ffffffffffffffffffffffffffffffffffffffff021916908373ffffffffffffffffffffffffffffffffffffffff16021790555060208201518160010160006101000a81548173ffffffffffffffffffffffffffffffffffffffff021916908373ffffffffffffffffffffffffffffffffffffffff16021790555060408201518160020160006101000a81548173ffffffffffffffffffffffffffffffffffffffff021916908373ffffffffffffffffffffffffffffffffffffffff160217905550606082015181600301556080820151816004015590505083600185805490500381548110151561590f57fe5b9060005260206000209060050201600080820160006101000a81549073ffffffffffffffffffffffffffffffffffffffff02191690556001820160006101000a81549073ffffffffffffffffffffffffffffffffffffffff02191690556002820160006101000a81549073ffffffffffffffffffffffffffffffffffffffff0219169055600382016000905560048201600090555050600184818180549050039150816159bc91906185d0565b50600191505092915050565b826159d2816169ec565b151515615a14576040517f08c379a0000000000000000000000000000000000000000000000000000000008152600401615a0b9061b01b565b60405180910390fd5b836001806004811115615a2357fe5b8260070160009054906101000a900460ff166004811115615a4057fe5b141515615a82576040517f08c379a0000000000000000000000000000000000000000000000000000000008152600401615a799061acbb565b60405180910390fd5b858580600001518260000154141515615ad0576040517f08c379a0000000000000000000000000000000000000000000000000000000008152600401615ac79061af5b565b60405180910390fd5b615b4687896004016000600281101515615ae657fe5b0160009054906101000a900473ffffffffffffffffffffffffffffffffffffffff168a6004016001600281101515615b1a57fe5b0160009054906101000a900473ffffffffffffffffffffffffffffffffffffffff168b60060154616a02565b615b568861025842018989616740565b5050505050505050565b808560a00151118015615b765750808560800151105b1515615bb7576040517f08c379a0000000000000000000000000000000000000000000000000000000008152600401615bae9061b1bb565b60405180910390fd5b600560009054906101000a900473ffffffffffffffffffffffffffffffffffffffff1673ffffffffffffffffffffffffffffffffffffffff1663620251098585846040518463ffffffff167c0100000000000000000000000000000000000000000000000000000000028152600401615c329392919061ab5b565b60206040518083038186803b158015615c4a57600080fd5b505afa158015615c5e573d6000803e3d6000fd5b505050506040513d601f19601f82011682018060405250615c829190810190618ed3565b50615c8b618584565b615c9485616ec8565b9050615cb38387602001518360400151616f829092919063ffffffff16565b1515615cf4576040517f08c379a0000000000000000000000000000000000000000000000000000000008152600401615ceb9061ad9b565b60405180910390fd5b856000015167ffffffffffffffff16816000015167ffffffffffffffff16141515615d54576040517f08c379a0000000000000000000000000000000000000000000000000000000008152600401615d4b9061ac7b565b60405180910390fd5b505050505050565b82615d66816165ca565b1515615da7576040517f08c379a0000000000000000000000000000000000000000000000000000000008152600401615d9e9061b0bb565b60405180910390fd5b836001806004811115615db657fe5b8260070160009054906101000a900460ff166004811115615dd357fe5b141515615e15576040517f08c379a0000000000000000000000000000000000000000000000000000000008152600401615e0c9061acbb565b60405180910390fd5b8473__State_________________________________63654fc67d9091866040518363ffffffff167c0100000000000000000000000000000000000000000000000000000000028152600401615e6c92919061b3ff565b60006040518083038186803b158015615e8457600080fd5b505af4158015615e98573d6000803e3d6000fd5b505050506160528660080160000160a06040519081016040529081600082015481526020016001820160009054906101000a900473ffffffffffffffffffffffffffffffffffffffff1673ffffffffffffffffffffffffffffffffffffffff1673ffffffffffffffffffffffffffffffffffffffff16815260200160028201805480602002602001604051908101604052809291908181526020018280548015615f9757602002820191906000526020600020905b8160009054906101000a900473ffffffffffffffffffffffffffffffffffffffff1673ffffffffffffffffffffffffffffffffffffffff1681526020019060010190808311615f4d575b5050505050815260200160038201548152602001600482018054600181600116156101000203166002900480601f0160208091040260200160405190810160405280929190818152602001828054600181600116156101000203166002900480156160435780601f1061601857610100808354040283529160200191616043565b820191906000526020600020905b81548152906001019060200180831161602657829003601f168201915b50505050508152505086616c13565b61605b86616fc5565b505050505050565b808560a001511015156160ab576040517f08c379a00000000000000000000000000000000000000000000000000000000081526004016160a29061ad7b565b60405180910390fd5b600560009054906101000a900473ffffffffffffffffffffffffffffffffffffffff1673ffffffffffffffffffffffffffffffffffffffff1663620251098585846040518463ffffffff167c01000000000000000000000000000000000000000000000000000000000281526004016161269392919061ab5b565b60206040518083038186803b15801561613e57600080fd5b505afa158015616152573d6000803e3d6000fd5b505050506040513d601f19601f820116820180604052506161769190810190618ed3565b5061617f618584565b61618885616ec8565b90506161a78387604001518360400151616f829092919063ffffffff16565b15156161e8576040517f08c379a00000000000000000000000000000000000000000000000000000000081526004016161df9061ad9b565b60405180910390fd5b856000015167ffffffffffffffff16816000015167ffffffffffffffff16141515616248576040517f08c379a000000000000000000000000000000000000000000000000000000000815260040161623f9061ac7b565b60405180910390fd5b8560a001518160600151141515616294576040517f08c379a000000000000000000000000000000000000000000000000000000000815260040161628b9061ae9b565b60405180910390fd5b505050505050565b836080015181111515156162e5576040517f08c379a00000000000000000000000000000000000000000000000000000000081526004016162dc9061ac3b565b60405180910390fd5b600560009054906101000a900473ffffffffffffffffffffffffffffffffffffffff1673ffffffffffffffffffffffffffffffffffffffff1663620251098484846040518463ffffffff167c01000000000000000000000000000000000000000000000000000000000281526004016163609392919061ab5b565b60206040518083038186803b15801561637857600080fd5b505afa15801561638c573d6000803e3d6000fd5b505050506040513d601f19601f820116820180604052506163b09190810190618ed3565b506163b9618584565b6163c284616ec8565b9050846000015167ffffffffffffffff16816000015167ffffffffffffffff16141515616424576040517f08c379a000000000000000000000000000000000000000000000000000000000815260040161641b9061ac7b565b60405180910390fd5b5050505050565b6000606061644061643b84616fd8565b617006565b9050600061646582600081518110151561645657fe5b90602001906020020151617119565b9050600061648a83600181518110151561647b57fe5b90602001906020020151617119565b905060008114156164f25781604051602001808267ffffffffffffffff1667ffffffffffffffff1678010000000000000000000000000000000000000000000000000281526008019150506040516020818303038152906040528051906020012093506164fd565b848051906020012093505b505050919050565b6000606061651a61651584616fd8565b617006565b9050616525816171c2565b156165525761654b81600281518110151561653c57fe5b906020019060200201516171d0565b91506165c4565b61655b8161722b565b156165885761658181600381518110151561657257fe5b906020019060200201516171d0565b91506165c3565b6040517f08c379a00000000000000000000000000000000000000000000000000000000081526004016165ba9061afbb565b60405180910390fd5b5b50919050565b6000428260080160050160009054906101000a900463ffffffff1663ffffffff16119050919050565b8273__State_________________________________63654fc67d909183600081518110151561661f57fe5b906020019060200201516040518363ffffffff167c010000000000000000000000000000000000000000000000000000000002815260040161666292919061b391565b60006040518083038186803b15801561667a57600080fd5b505af415801561668e573d6000803e3d6000fd5b505050508173__State_________________________________63654fc67d90918360018151811015156166be57fe5b906020019060200201516040518363ffffffff167c010000000000000000000000000000000000000000000000000000000002815260040161670192919061b391565b60006040518083038186803b15801561671957600080fd5b505af415801561672d573d6000803e3d6000fd5b5050505061673b8383616c13565b505050565b81846008016000016000820151816000015560208201518160010160006101000a81548173ffffffffffffffffffffffffffffffffffffffff021916908373ffffffffffffffffffffffffffffffffffffffff16021790555060408201518160020190805190602001906167b5929190618398565b506060820151816003015560808201518160040190805190602001906167dc929190618422565b50905050828460080160050160006101000a81548163ffffffff021916908363ffffffff1602179055508173__State_________________________________63e563190090916040518263ffffffff167c010000000000000000000000000000000000000000000000000000000002815260040161685b919061b338565b60206040518083038186803b15801561687357600080fd5b505af4158015616887573d6000803e3d6000fd5b505050506040513d601f19601f820116820180604052506168ab9190810190618ed3565b1561699f578173__State_________________________________63bb60e9c990916040518263ffffffff167c0100000000000000000000000000000000000000000000000000000000028152600401616905919061b338565b60206040518083038186803b15801561691d57600080fd5b505af4158015616931573d6000803e3d6000fd5b505050506040513d601f19601f820116820180604052506169559190810190618db9565b8460080160050160046101000a81548173ffffffffffffffffffffffffffffffffffffffff021916908373ffffffffffffffffffffffffffffffffffffffff1602179055506169e6565b808460080160050160046101000a81548173ffffffffffffffffffffffffffffffffffffffff021916908373ffffffffffffffffffffffffffffffffffffffff1602179055505b50505050565b6000808260080160000160000154119050919050565b60008460600151141515616a4b576040517f08c379a0000000000000000000000000000000000000000000000000000000008152600401616a429061ad3b565b60405180910390fd5b8273ffffffffffffffffffffffffffffffffffffffff1684604001516000815181101515616a7557fe5b9060200190602002015173ffffffffffffffffffffffffffffffffffffffff16141515616ad7576040517f08c379a0000000000000000000000000000000000000000000000000000000008152600401616ace9061aebb565b60405180910390fd5b8173ffffffffffffffffffffffffffffffffffffffff1684604001516001815181101515616b0157fe5b9060200190602002015173ffffffffffffffffffffffffffffffffffffffff16141515616b63576040517f08c379a0000000000000000000000000000000000000000000000000000000008152600401616b5a9061b03b565b60405180910390fd5b83608001516040518082805190602001908083835b602083101515616b9d5780518252602082019150602081019050602083039250616b78565b6001836020036101000a038019825116818451168082178552505050505050905001915050604051809103902081141515616c0d576040517f08c379a0000000000000000000000000000000000000000000000000000000008152600401616c049061af9b565b60405180910390fd5b50505050565b81600001518160000151141515616c5f576040517f08c379a0000000000000000000000000000000000000000000000000000000008152600401616c569061b21b565b60405180910390fd5b60018260600151018160600151141515616cae576040517f08c379a0000000000000000000000000000000000000000000000000000000008152600401616ca59061addb565b60405180910390fd5b816020015173ffffffffffffffffffffffffffffffffffffffff16816020015173ffffffffffffffffffffffffffffffffffffffff16141515616d26576040517f08c379a0000000000000000000000000000000000000000000000000000000008152600401616d1d9061b17b565b60405180910390fd5b81604001516000815181101515616d3957fe5b9060200190602002015173ffffffffffffffffffffffffffffffffffffffff1681604001516000815181101515616d6c57fe5b9060200190602002015173ffffffffffffffffffffffffffffffffffffffff16148015616dfc575081604001516001815181101515616da757fe5b9060200190602002015173ffffffffffffffffffffffffffffffffffffffff1681604001516001815181101515616dda57fe5b9060200190602002015173ffffffffffffffffffffffffffffffffffffffff16145b1515616e3d576040517f08c379a0000000000000000000000000000000000000000000000000000000008152600401616e349061ac9b565b60405180910390fd5b8173__State_________________________________63eb4f60419091836040518363ffffffff167c0100000000000000000000000000000000000000000000000000000000028152600401616e9492919061b436565b60006040518083038186803b158015616eac57600080fd5b505af4158015616ec0573d6000803e3d6000fd5b505050505050565b616ed0618584565b6060616edb83617239565b9050616ee6816171c2565b15616efd57616ef58184617253565b915050616f7d565b616f068161722b565b15616f42576060616f1682617400565b9050616f39816000815181101515616f2a57fe5b90602001906020020151617a43565b92505050616f7d565b6040517f08c379a0000000000000000000000000000000000000000000000000000000008152600401616f749061b07b565b60405180910390fd5b919050565b6000616f8e8484617ad8565b73ffffffffffffffffffffffffffffffffffffffff168273ffffffffffffffffffffffffffffffffffffffff161490509392505050565b6000816008016000016000018190555050565b616fe0618602565b600060208301905060408051908101604052808451815260200182815250915050919050565b606061701182617d5a565b1515617052576040517f08c379a00000000000000000000000000000000000000000000000000000000081526004016170499061ae3b565b60405180910390fd5b600061705d83617da8565b90508060405190808252806020026020018201604052801561709957816020015b61708661861c565b81526020019060019003908161707e5790505b50915060006170ab8460200151617e19565b8460200151019050600080600090505b83811015617110576170cc83617ea2565b915060408051908101604052808381526020018481525085828151811015156170f157fe5b90602001906020020181905250818301925080806001019150506170bb565b50505050919050565b600080826000015111801561713357506021826000015111155b1515617174576040517f08c379a000000000000000000000000000000000000000000000000000000000815260040161716b9061af7b565b60405180910390fd5b60006171838360200151617e19565b905060008184600001510390506000808386602001510190508051915060208310156171b657826020036101000a820491505b81945050505050919050565b600060038251149050919050565b60006015826000015114151561721b576040517f08c379a00000000000000000000000000000000000000000000000000000000081526004016172129061b09b565b60405180910390fd5b61722482617119565b9050919050565b600060098251149050919050565b606061724c61724783616fd8565b617006565b9050919050565b61725b618584565b617264836171c2565b15156172a5576040517f08c379a000000000000000000000000000000000000000000000000000000000815260040161729c9061b1db565b60405180910390fd5b6172ad618584565b6172ce8460008151811015156172bf57fe5b90602001906020020151617119565b816000019067ffffffffffffffff16908167ffffffffffffffff168152505061730e8460018151811015156172ff57fe5b90602001906020020151617119565b81606001818152505061733884600281518110151561732957fe5b906020019060200201516171d0565b816020019073ffffffffffffffffffffffffffffffffffffffff16908173ffffffffffffffffffffffffffffffffffffffff16815250506000816060015114156173e4578060000151604051602001808267ffffffffffffffff1667ffffffffffffffff167801000000000000000000000000000000000000000000000000028152600801915050604051602081830303815290604052805190602001208160400181815250506173f6565b82805190602001208160400181815250505b8091505092915050565b606061740b8261722b565b151561744c576040517f08c379a00000000000000000000000000000000000000000000000000000000081526004016174439061af1b565b60405180910390fd5b6060600260405190808252806020026020018201604052801561748957816020015b617476618636565b81526020019060019003908161746e5790505b5090506174ad83600081518110151561749e57fe5b90602001906020020151617119565b8160008151811015156174bc57fe5b906020019060200201516000019067ffffffffffffffff16908167ffffffffffffffff16815250506175058360018151811015156174f657fe5b90602001906020020151617119565b81600081518110151561751457fe5b90602001906020020151602001818152505061754783600281518110151561753857fe5b90602001906020020151617119565b60010281600081518110151561755957fe5b90602001906020020151608001818152505061758c83600381518110151561757d57fe5b906020019060200201516171d0565b81600081518110151561759b57fe5b906020019060200201516060019073ffffffffffffffffffffffffffffffffffffffff16908173ffffffffffffffffffffffffffffffffffffffff16815250506175fc8360048151811015156175ed57fe5b90602001906020020151617119565b81600081518110151561760b57fe5b90602001906020020151610100019067ffffffffffffffff16908167ffffffffffffffff168152505061765583600581518110151561764657fe5b90602001906020020151617119565b81600181518110151561766457fe5b90602001906020020151602001818152505061769783600681518110151561768857fe5b90602001906020020151617119565b6001028160018151811015156176a957fe5b9060200190602002015160800181815250506176dc8360078151811015156176cd57fe5b906020019060200201516171d0565b8160018151811015156176eb57fe5b906020019060200201516060019073ffffffffffffffffffffffffffffffffffffffff16908173ffffffffffffffffffffffffffffffffffffffff168152505061774c83600881518110151561773d57fe5b90602001906020020151617f55565b81600181518110151561775b57fe5b9060200190602002015160a0018190525080600181518110151561777b57fe5b906020019060200201516060015181600081518110151561779857fe5b906020019060200201516040019073ffffffffffffffffffffffffffffffffffffffff16908173ffffffffffffffffffffffffffffffffffffffff16815250508060008151811015156177e757fe5b9060200190602002015160800151604051602001808281526020019150506040516020818303038152906040528051906020012081600081518110151561782a57fe5b9060200190602002015160c001818152505061785d81600081518110151561784e57fe5b90602001906020020151618019565b81600081518110151561786c57fe5b9060200190602002015160e001818152505080600081518110151561788d57fe5b9060200190602002015161010001518160018151811015156178ab57fe5b906020019060200201516000019067ffffffffffffffff16908167ffffffffffffffff16815250508060008151811015156178e257fe5b90602001906020020151600001518160018151811015156178ff57fe5b90602001906020020151610100019067ffffffffffffffff16908167ffffffffffffffff168152505080600081518110151561793757fe5b906020019060200201516060015181600181518110151561795457fe5b906020019060200201516040019073ffffffffffffffffffffffffffffffffffffffff16908173ffffffffffffffffffffffffffffffffffffffff16815250508060018151811015156179a357fe5b906020019060200201516080015160405160200180828152602001915050604051602081830303815290604052805190602001208160018151811015156179e657fe5b9060200190602002015160c0018181525050617a19816001815181101515617a0a57fe5b90602001906020020151618019565b816001815181101515617a2857fe5b9060200190602002015160e001818152505080915050919050565b617a4b618584565b617a53618584565b8260000151816000019067ffffffffffffffff16908167ffffffffffffffff16815250508260600151816020019073ffffffffffffffffffffffffffffffffffffffff16908173ffffffffffffffffffffffffffffffffffffffff16815250508260e00151816040018181525050826020015181606001818152505080915050919050565b6000604182511480617aeb575060428251145b1515617b2c576040517f08c379a0000000000000000000000000000000000000000000000000000000008152600401617b239061b11b565b60405180910390fd5b60008084905060008060008060019050604188511415617b53576000905060009550617be1565b876000815181101515617b6257fe5b9060200101517f010000000000000000000000000000000000000000000000000000000000000090047f0100000000000000000000000000000000000000000000000000000000000000027f0100000000000000000000000000000000000000000000000000000000000000900460ff166002811115617bde57fe5b95505b80602001880151925080604001880151915060ff8160410189015116935060016002811115617c0c57fe5b866002811115617c1857fe5b1415617c74578460405160200180807f19457468657265756d205369676e6564204d6573736167653a0a333200000000815250601c01828152602001915050604051602081830303815290604052805190602001209450617ce5565b600280811115617c8057fe5b866002811115617c8c57fe5b1415617ce4578460405160200180807f19457468657265756d205369676e6564204d6573736167653a0a200000000000815250601b018281526020019150506040516020818303038152906040528051906020012094505b5b60018585858560405160008152602001604052604051808581526020018460ff1660ff1681526020018381526020018281526020019450505050506020604051602081039080840390855afa158015617d42573d6000803e3d6000fd5b50505060206040510351965050505050505092915050565b60008082600001511415617d715760009050617da3565b60008083602001519050805160001a915060c060ff168260ff161015617d9c57600092505050617da3565b6001925050505b919050565b60008082600001511415617dbf5760009050617e14565b60008090506000617dd38460200151617e19565b84602001510190506000846000015185602001510190505b80821015617e0d57617dfc82617ea2565b820191508280600101935050617deb565b8293505050505b919050565b600080825160001a9050608060ff16811015617e39576000915050617e9d565b60b860ff16811080617e5e575060c060ff168110158015617e5d575060f860ff1681105b5b15617e6d576001915050617e9d565b60c060ff16811015617e8d5760018060b80360ff16820301915050617e9d565b60018060f80360ff168203019150505b919050565b600080825160001a9050608060ff16811015617ec2576001915050617f50565b60b860ff16811015617ee0576001608060ff16820301915050617f50565b60c060ff16811015617f105760b78103600184019350806020036101000a84510460018201810193505050617f4e565b60f860ff16811015617f2e57600160c060ff16820301915050617f50565b60f78103600184019350806020036101000a845104600182018101935050505b505b919050565b606060008260000151111515617fa0576040517f08c379a0000000000000000000000000000000000000000000000000000000008152600401617f979061b15b565b60405180910390fd5b6000617faf8360200151617e19565b905060008184600001510390506060816040519080825280601f01601f191660200182016040528015617ff15781602001600182028038833980820191505090505b509050600081602001905061800d848760200151018285618117565b81945050505050919050565b6000816000015182602001518360c001518460600151856101000151604051602001808667ffffffffffffffff1667ffffffffffffffff1678010000000000000000000000000000000000000000000000000281526008018581526020018481526020018373ffffffffffffffffffffffffffffffffffffffff1673ffffffffffffffffffffffffffffffffffffffff166c010000000000000000000000000281526014018267ffffffffffffffff1667ffffffffffffffff16780100000000000000000000000000000000000000000000000002815260080195505050505050604051602081830303815290604052805190602001209050919050565b60008114156181255761817b565b5b602060ff16811015156181575782518252602060ff1683019250602060ff1682019150602060ff1681039050618126565b6000600182602060ff16036101000a03905080198451168184511681811785525050505b505050565b506000815560010160009055565b50805460008255906000526020600020908101906181ac91906186cc565b50565b50805460018160011615610100020316600290046000825580601f106181d557506181f4565b601f0160209004906000526020600020908101906181f391906186cc565b5b50565b508054600082556005029060005260206000209081019061821891906186f1565b50565b508054600082556005029060005260206000209081019061823c9190618795565b50565b6040805190810160405280600290602082028038833980820191505090505090565b60e060405190810160405280618275618835565b8152602001600063ffffffff168152602001600073ffffffffffffffffffffffffffffffffffffffff1681525090565b6101e06040519081016040528060008152602001600073ffffffffffffffffffffffffffffffffffffffff16815260200160008152602001600081526020016182ec61887b565b8152602001600080191681526020016000600481111561830857fe5b815260200161831561889d565b81525090565b8260028101928215618387579160200282015b828111156183865782518260006101000a81548173ffffffffffffffffffffffffffffffffffffffff021916908373ffffffffffffffffffffffffffffffffffffffff1602179055509160200191906001019061832e565b5b50905061839491906188e1565b5090565b828054828255906000526020600020908101928215618411579160200282015b828111156184105782518260006101000a81548173ffffffffffffffffffffffffffffffffffffffff021916908373ffffffffffffffffffffffffffffffffffffffff160217905550916020019190600101906183b8565b5b50905061841e91906188e1565b5090565b828054600181600116156101000203166002900490600052602060002090601f016020900481019282601f1061846357805160ff1916838001178555618491565b82800160010185558215618491579182015b82811115618490578251825591602001919060010190618475565b5b50905061849e91906186cc565b5090565b60c060405190810160405280600067ffffffffffffffff168152602001600073ffffffffffffffffffffffffffffffffffffffff168152602001600073ffffffffffffffffffffffffffffffffffffffff1681526020016000815260200160008152602001600081525090565b60a060405190810160405280600073ffffffffffffffffffffffffffffffffffffffff168152602001600073ffffffffffffffffffffffffffffffffffffffff168152602001600073ffffffffffffffffffffffffffffffffffffffff16815260200160008019168152602001600081525090565b608060405190810160405280600067ffffffffffffffff168152602001600073ffffffffffffffffffffffffffffffffffffffff16815260200160008019168152602001600081525090565b8154818355818111156185fd576005028160050283600052602060002091820191016185fc91906186f1565b5b505050565b604080519081016040528060008152602001600081525090565b604080519081016040528060008152602001600081525090565b61012060405190810160405280600067ffffffffffffffff16815260200160008152602001600073ffffffffffffffffffffffffffffffffffffffff168152602001600073ffffffffffffffffffffffffffffffffffffffff16815260200160008019168152602001606081526020016000801916815260200160008019168152602001600067ffffffffffffffff1681525090565b6186ee91905b808211156186ea5760008160009055506001016186d2565b5090565b90565b61879291905b8082111561878e57600080820160006101000a81549073ffffffffffffffffffffffffffffffffffffffff02191690556001820160006101000a81549073ffffffffffffffffffffffffffffffffffffffff02191690556002820160006101000a81549073ffffffffffffffffffffffffffffffffffffffff021916905560038201600090556004820160009055506005016186f7565b5090565b90565b61883291905b8082111561882e57600080820160006101000a81549067ffffffffffffffff02191690556000820160086101000a81549073ffffffffffffffffffffffffffffffffffffffff02191690556001820160006101000a81549073ffffffffffffffffffffffffffffffffffffffff02191690556002820160009055600382016000905560048201600090555060050161879b565b5090565b90565b60a06040519081016040528060008152602001600073ffffffffffffffffffffffffffffffffffffffff1681526020016060815260200160008152602001606081525090565b6040805190810160405280600290602082028038833980820191505090505090565b60e0604051908101604052806188b1618835565b8152602001600063ffffffff168152602001600073ffffffffffffffffffffffffffffffffffffffff1681525090565b61892191905b8082111561891d57600081816101000a81549073ffffffffffffffffffffffffffffffffffffffff0219169055506001016188e7565b5090565b90565b6000618930823561b7f0565b905092915050565b6000618944825161b7f0565b905092915050565b600082601f830112151561895f57600080fd5b813561897261896d8261b5da565b61b5ad565b9150818183526020840193506020810190508385602084028201111561899757600080fd5b60005b838110156189c757816189ad8882618924565b84526020840193506020830192505060018101905061899a565b5050505092915050565b600082601f83011215156189e457600080fd5b81356189f76189f28261b602565b61b5ad565b9150818183526020840193506020810190508360005b83811015618a3d5781358601618a238882618b54565b845260208401935060208301925050600181019050618a0d565b5050505092915050565b600082601f8301121515618a5a57600080fd5b8151618a6d618a688261b62a565b61b5ad565b915081818352602084019350602081019050838560c0840282011115618a9257600080fd5b60005b83811015618ac25781618aa88882618c00565b845260208401935060c08301925050600181019050618a95565b5050505092915050565b6000618ad8825161b802565b905092915050565b6000618aec823561b80e565b905092915050565b6000618b00825161b80e565b905092915050565b60008083601f8401121515618b1c57600080fd5b8235905067ffffffffffffffff811115618b3557600080fd5b602083019150836001820283011115618b4d57600080fd5b9250929050565b600082601f8301121515618b6757600080fd5b8135618b7a618b758261b652565b61b5ad565b91508082526020830160208301858383011115618b9657600080fd5b618ba183828461b8a2565b50505092915050565b600082601f8301121515618bbd57600080fd5b8135618bd0618bcb8261b67e565b61b5ad565b91508082526020830160208301858383011115618bec57600080fd5b618bf783828461b8a2565b50505092915050565b600060c08284031215618c1257600080fd5b618c1c60c061b5ad565b90506000618c2c84828501618d7c565b6000830152506020618c4084828501618938565b6020830152506040618c5484828501618938565b6040830152506060618c6884828501618d68565b6060830152506080618c7c84828501618d68565b60808301525060a0618c9084828501618d68565b60a08301525092915050565b600060a08284031215618cae57600080fd5b618cb860a061b5ad565b90506000618cc884828501618d54565b6000830152506020618cdc84828501618924565b602083015250604082013567ffffffffffffffff811115618cfc57600080fd5b618d088482850161894c565b6040830152506060618d1c84828501618d54565b606083015250608082013567ffffffffffffffff811115618d3c57600080fd5b618d4884828501618b54565b60808301525092915050565b6000618d60823561b818565b905092915050565b6000618d74825161b818565b905092915050565b6000618d88825161b822565b905092915050565b600060208284031215618da257600080fd5b6000618db084828501618924565b91505092915050565b600060208284031215618dcb57600080fd5b6000618dd984828501618938565b91505092915050565b600080600080600080600060a0888a031215618dfd57600080fd5b6000618e0b8a828b01618924565b9750506020618e1c8a828b01618924565b9650506040618e2d8a828b01618d54565b955050606088013567ffffffffffffffff811115618e4a57600080fd5b618e568a828b01618b08565b9450945050608088013567ffffffffffffffff811115618e7557600080fd5b618e818a828b01618b08565b925092505092959891949750929550565b600060208284031215618ea457600080fd5b600082015167ffffffffffffffff811115618ebe57600080fd5b618eca84828501618a47565b91505092915050565b600060208284031215618ee557600080fd5b6000618ef384828501618acc565b91505092915050565b60008060408385031215618f0f57600080fd5b6000618f1d85828601618af4565b9250506020618f2e85828601618d68565b9150509250929050565b600060208284031215618f4a57600080fd5b6000618f5884828501618d54565b91505092915050565b60008060408385031215618f7457600080fd5b6000618f8285828601618d54565b9250506020618f9385828601618ae0565b9150509250929050565b600080600080600060608688031215618fb557600080fd5b6000618fc388828901618d54565b955050602086013567ffffffffffffffff811115618fe057600080fd5b618fec88828901618b08565b9450945050604086013567ffffffffffffffff81111561900b57600080fd5b61901788828901618b08565b92509250509295509295909350565b6000806040838503121561903957600080fd5b600061904785828601618d54565b925050602083013567ffffffffffffffff81111561906457600080fd5b61907085828601618c9c565b9150509250929050565b60008060006060848603121561908f57600080fd5b600061909d86828701618d54565b935050602084013567ffffffffffffffff8111156190ba57600080fd5b6190c686828701618c9c565b925050604084013567ffffffffffffffff8111156190e357600080fd5b6190ef86828701618baa565b9150509250925092565b6000806000806080858703121561910f57600080fd5b600061911d87828801618d54565b945050602085013567ffffffffffffffff81111561913a57600080fd5b61914687828801618c9c565b935050604085013567ffffffffffffffff81111561916357600080fd5b61916f87828801618c9c565b925050606085013567ffffffffffffffff81111561918c57600080fd5b619198878288016189d1565b91505092959194509250565b600080604083850312156191b757600080fd5b60006191c585828601618d54565b92505060206191d685828601618d54565b9150509250929050565b60008060008060008060008060008060e08b8d0312156191ff57600080fd5b600061920d8d828e01618d54565b9a5050602061921e8d828e01618d54565b995050604061922f8d828e01618ae0565b98505060606192408d828e01618d54565b97505060808b013567ffffffffffffffff81111561925d57600080fd5b6192698d828e01618b08565b965096505060a08b013567ffffffffffffffff81111561928857600080fd5b6192948d828e01618b08565b945094505060c08b013567ffffffffffffffff8111156192b357600080fd5b6192bf8d828e01618b08565b92509250509295989b9194979a5092959850565b600080600080600080600080600060c08a8c0312156192f157600080fd5b60006192ff8c828d01618d54565b99505060206193108c828d01618d54565b98505060408a013567ffffffffffffffff81111561932d57600080fd5b6193398c828d01618b08565b975097505060608a013567ffffffffffffffff81111561935857600080fd5b6193648c828d01618b08565b955095505060808a013567ffffffffffffffff81111561938357600080fd5b61938f8c828d01618b08565b935093505060a06193a28c828d01618d54565b9150509295985092959850929598565b600080600080600080600060a0888a0312156193cd57600080fd5b60006193db8a828b01618d54565b97505060206193ec8a828b01618d54565b965050604088013567ffffffffffffffff81111561940957600080fd5b6194158a828b01618b08565b9550955050606088013567ffffffffffffffff81111561943457600080fd5b6194408a828b01618b08565b935093505060806194538a828b01618d54565b91505092959891949750929550565b61946b8161b836565b82525050565b61947a8161b836565b82525050565b6194898161b770565b82525050565b6194988161b770565b82525050565b6194a78161b6ed565b6194b08261b6b4565b60005b828110156194e2576194c6858351619480565b6194cf8261b73c565b91506020850194506001810190506194b3565b5050505050565b6194f28161b6e2565b6194fb8261b6aa565b60005b8281101561952d57619511858351619480565b61951a8261b72f565b91506020850194506001810190506194fe565b5050505050565b61953d8161b6f8565b6195468261b6be565b60005b828110156195785761955c858354619480565b6195658261b749565b9150602085019450600181019050619549565b5050505050565b600061958a8261b703565b80845260208401935061959c8361b6c8565b60005b828110156195ce576195b2868351619480565b6195bb8261b756565b915060208601955060018101905061959f565b50849250505092915050565b60006195e58261b703565b8084526020840193506195f78361b6c8565b60005b828110156196295761960d86835161948f565b6196168261b756565b91506020860195506001810190506195fa565b50849250505092915050565b60006196408261b70e565b808452602084019350836020820285016196598561b6d5565b60005b8481101561969257838303885261967483835161977e565b925061967f8261b763565b915060208801975060018101905061965c565b508196508694505050505092915050565b6196ac8161b782565b82525050565b60008284526020840193506196c883858461b8a2565b6196d18361b8e4565b840190509392505050565b60006196e78261b724565b8084526196fb81602086016020860161b8b1565b6197048161b8e4565b602085010191505092915050565b600061971d8261b724565b80845261973181602086016020860161b8b1565b61973a8161b8e4565b602085010191505092915050565b60006197538261b719565b80845261976781602086016020860161b8b1565b6197708161b8e4565b602085010191505092915050565b60006197898261b719565b80845261979d81602086016020860161b8b1565b6197a68161b8e4565b602085010191505092915050565b6197bd8161b848565b82525050565b6197cc8161b85a565b82525050565b6197db8161b86c565b82525050565b6000602482527f526573706f6e64696e6720746f206e6f6e206578697374696e67206368616c6c60208301527f656e6765000000000000000000000000000000000000000000000000000000006040830152606082019050919050565b6000602282527f4368616c6c656e676520726573706f6e642077696e646f772069736e74206f7660208301527f65720000000000000000000000000000000000000000000000000000000000006040830152606082019050919050565b6000603a82527f4368616c6c656e676520416674657220626c6f636b206d75737420626520707260208301527f6576696f757320746f206368616e6e656c206372656174696f6e0000000000006040830152606082019050919050565b6000602782527f506c656173652073656e642066756e6473207573696e67207468652046756e6460208301527f4368616e6e656c000000000000000000000000000000000000000000000000006040830152606082019050919050565b6000602b82527f54782073686f756c64206265206265666f72652074686520657869742773207060208301527f6172656e7420626c6f636b0000000000000000000000000000000000000000006040830152606082019050919050565b6000602482527f556c74696d617465205374617465206d75737420626520612066696e616c207360208301527f74617465000000000000000000000000000000000000000000000000000000006040830152606082019050919050565b6000601e82527f5478206973207265666572656e63696e6720616e6f7468657220736c6f7400006020830152604082019050919050565b6000601c82527f506c6179657273206d7573742072656d61696e207468652073616d65000000006020830152604082019050919050565b6000601782527f496e636f7272656374206368616e6e656c2073746174650000000000000000006020830152604082019050919050565b6000602482527f616374697665206368616c6c656e6765206d757374206e6f742062652070726560208301527f73656e74000000000000000000000000000000000000000000000000000000006040830152606082019050919050565b6000602382527f4368616e6e656c206d7573742062652066756e646564206f722073757370656e60208301527f64656400000000000000000000000000000000000000000000000000000000006040830152606082019050919050565b6000601382527f53656e64657220686173206e6f2066756e6473000000000000000000000000006020830152604082019050919050565b6000601482527f4669727374207475726e206d75737420626520300000000000000000000000006020830152604082019050919050565b6000602782527f43616e6e6f7420726573706f6e6420776974682061207478206166746572207460208301527f68652065786974000000000000000000000000000000000000000000000000006040830152606082019050919050565b6000602082527f54782073686f756c64206265206166746572207468652065786974426c6f636b6020830152604082019050919050565b6000601182527f496e76616c6964207369676e61747572650000000000000000000000000000006020830152604082019050919050565b6000602682527f5061796d656e74206d75737420626520657175616c20746f206368616e6e656c60208301527f207374616b6500000000000000000000000000000000000000000000000000006040830152606082019050919050565b6000602e82527f496e76616c6964207472616e736974696f6e3a207475726e4e756d206d75737460208301527f20696e63726561736520627920310000000000000000000000000000000000006040830152606082019050919050565b6000602682527f5374616b65206d7573742062652067726561746572207468616e206d696e696d60208301527f616c2062657400000000000000000000000000000000000000000000000000006040830152606082019050919050565b6000602082527f4368616e6e656c20686173206e6f7420796574206265656e20637265617465646020830152604082019050919050565b6000601482527f524c50204974656d206973206e6f74206c6973740000000000000000000000006020830152604082019050919050565b6000601882527f4368616c6c656e67652077696e646f77206973206f76657200000000000000006020830152604082019050919050565b6000603382527f4368616e6e656c206d7573742062652066756e64656420286d6179626520746860208301527f6572652069732061206368616c6c656e676529000000000000000000000000006040830152606082019050919050565b6000601282527f4e6f74206120646972656374207370656e6400000000000000000000000000006020830152604082019050919050565b6000601982527f537461746520706c6179657220697320696e636f7272656374000000000000006020830152604082019050919050565b6000602982527f5468652073656e646572206973206e6f7420696e766f6c76656420696e20746860208301527f65206368616e6e656c00000000000000000000000000000000000000000000006040830152606082019050919050565b6000602582527f53656e646572206973206e6f742063726561746f72206f66207468697320636860208301527f616e6e656c0000000000000000000000000000000000000000000000000000006040830152606082019050919050565b6000604182527f5472616e73616374696f6e20627974657320646f206e6f7420636f727265737060208301527f6f6e6420746f20616e2061746f6d69632073776170207472616e73616374696f60408301527f6e000000000000000000000000000000000000000000000000000000000000006060830152608082019050919050565b6000601982527f4368616e6e656c20697320616c72656164792066756e646564000000000000006020830152604082019050919050565b6000603482527f4368616e6e656c2773206368616e6e656c4964206d757374206d61746368207460208301527f68652073746174652773206368616e6e656c49640000000000000000000000006040830152606082019050919050565b6000602782527f524c502055696e74206d757374206265206265747765656e203120616e64203360208301527f33206279746573000000000000000000000000000000000000000000000000006040830152606082019050919050565b6000601d82527f496e697469616c2073746174657320646f6573206e6f74206d617463680000006020830152604082019050919050565b6000603a82527f436f756c64206e6f742064657465726d696e65207472616e73616374696f6e2060208301527f7479706520746f20726574726965766520746865206f776e65720000000000006040830152606082019050919050565b6000601982527f4368616e6e656c206d7573742062652073757370656e646564000000000000006020830152604082019050919050565b6000602682527f5472616e73616374696f6e207573656420666f72206368616c6c656e6765206160208301527f6c726561647900000000000000000000000000000000000000000000000000006040830152606082019050919050565b6000602582527f63757272656e74206368616c6c656e6765206d757374206e6f7420626520707260208301527f6573656e740000000000000000000000000000000000000000000000000000006040830152606082019050919050565b6000601b82527f5374617465206f70706f6e656e7420697320696e636f727265637400000000006020830152604082019050919050565b6000602682527f426c6f636b4e756d626572206d7573742062652061667465722074686520636860208301527f616c656e676500000000000000000000000000000000000000000000000000006040830152606082019050919050565b6000601782527f496e76616c696420524c50205472616e73616374696f6e0000000000000000006020830152604082019050919050565b6000601c82527f524c502061646472657373206d757374206265203231206279746573000000006020830152604082019050919050565b6000602082527f616374697665206368616c6c656e6765206d7573742062652070726573656e746020830152604082019050919050565b6000602982527f53656e646572206973206e6f74207061727469636970616e74206f662074686960208301527f73206368616e6e656c00000000000000000000000000000000000000000000006040830152606082019050919050565b6000601c82527f57696e6e6572206e6f7420636f72726563746c792064656369646564000000006020830152604082019050919050565b6000601b82527f5369676e6174757265206c656e67687420697320696e76616c696400000000006020830152604082019050919050565b6000601c82527f496e697469616c20737461746520646f6573206e6f74206d61746368000000006020830152604082019050919050565b6000601d82527f524c50206279746573206d757374206265206d6f7265207468616e20300000006020830152604082019050919050565b6000602082527f4368616e6e656c54797065206d7573742072656d61696e207468652073616d656020830152604082019050919050565b6000601682527f496e76616c6964205061796d656e7420616d6f756e74000000000000000000006020830152604082019050919050565b6000602682527f54782073686f756c64206265206265747765656e20746865206578697427732060208301527f626c6f636b7300000000000000000000000000000000000000000000000000006040830152606082019050919050565b6000603882527f5472616e73616374696f6e20627974657320646f206e6f7420636f727265737060208301527f6f6e6420746f206261736963207472616e73616374696f6e00000000000000006040830152606082019050919050565b6000601f82527f4368616c6c656e676520426f6e64206d7573742062652070726f7669646564006020830152604082019050919050565b6000603382527f496e76616c6964207472616e736974696f6e3a206368616e6e656c4964206d7560208301527f7374206d61746368206f6e20746f5374617465000000000000000000000000006040830152606082019050919050565b6000606083016000830151848203600086015261a72c828261a9f4565b915050602083015161a741602086018261aa8f565b50604083015161a7546040860182619480565b508091505092915050565b60a08201600082015161a7756000850182619480565b50602082015161a7886020850182619480565b50604082015161a79b6040850182619480565b50606082015161a7ae60608501826196a3565b50608082015161a7c1608085018261aa71565b50505050565b60c08201600082015161a7dd600085018261aa9e565b50602082015161a7f06020850182619480565b50604082015161a8036040850182619480565b50606082015161a816606085018261aa71565b50608082015161a829608085018261aa71565b5060a082015161a83c60a085018261aa71565b50505050565b60006101208301600083015161a85b600086018261aa71565b50602083015161a86e6020860182619480565b50604083015161a881604086018261aa71565b50606083015161a894606086018261aa71565b50608083015161a8a760808601826194e9565b5060a083015161a8ba60c08601826196a3565b5060c083015161a8cd60e08601826197b4565b5060e083015184820361010086015261a8e6828261a70f565b9150508091505092915050565b8082525050565b600060a08301600083015161a912600086018261aa71565b50602083015161a9256020860182619480565b506040830151848203604086015261a93d828261957f565b915050606083015161a952606086018261aa71565b506080830151848203608086015261a96a8282619748565b9150508091505092915050565b600060a08301600083015161a98f600086018261aa80565b50602083015161a9a2602086018261948f565b506040830151848203604086015261a9ba82826195da565b915050606083015161a9cf606086018261aa80565b506080830151848203608086015261a9e7828261977e565b9150508091505092915050565b600060a08301600083015161aa0c600086018261aa71565b50602083015161aa1f6020860182619480565b506040830151848203604086015261aa37828261957f565b915050606083015161aa4c606086018261aa71565b506080830151848203608086015261aa648282619748565b9150508091505092915050565b61aa7a8161b7c2565b82525050565b61aa898161b7c2565b82525050565b61aa988161b7cc565b82525050565b61aaa78161b7dc565b82525050565b600060a082019050818103600083015261aac881888a6196b2565b905061aad7602083018761949e565b61aae460608301866197c3565b818103608083015261aaf78184866196b2565b9050979650505050505050565b600060a082019050818103600083015261ab1f81888a6196b2565b905061ab2e6020830187619534565b61ab3b60608301866197d2565b818103608083015261ab4e8184866196b2565b9050979650505050505050565b6000606082019050818103600083015261ab7581866196dc565b9050818103602083015261ab8981856196dc565b905061ab98604083018461aa71565b949350505050565b600060208201905061abb560008301846197c3565b92915050565b6000602082019050818103600083015261abd4816197e1565b9050919050565b6000602082019050818103600083015261abf48161983e565b9050919050565b6000602082019050818103600083015261ac148161989b565b9050919050565b6000602082019050818103600083015261ac34816198f8565b9050919050565b6000602082019050818103600083015261ac5481619955565b9050919050565b6000602082019050818103600083015261ac74816199b2565b9050919050565b6000602082019050818103600083015261ac9481619a0f565b9050919050565b6000602082019050818103600083015261acb481619a46565b9050919050565b6000602082019050818103600083015261acd481619a7d565b9050919050565b6000602082019050818103600083015261acf481619ab4565b9050919050565b6000602082019050818103600083015261ad1481619b11565b9050919050565b6000602082019050818103600083015261ad3481619b6e565b9050919050565b6000602082019050818103600083015261ad5481619ba5565b9050919050565b6000602082019050818103600083015261ad7481619bdc565b9050919050565b6000602082019050818103600083015261ad9481619c39565b9050919050565b6000602082019050818103600083015261adb481619c70565b9050919050565b6000602082019050818103600083015261add481619ca7565b9050919050565b6000602082019050818103600083015261adf481619d04565b9050919050565b6000602082019050818103600083015261ae1481619d61565b9050919050565b6000602082019050818103600083015261ae3481619dbe565b9050919050565b6000602082019050818103600083015261ae5481619df5565b9050919050565b6000602082019050818103600083015261ae7481619e2c565b9050919050565b6000602082019050818103600083015261ae9481619e63565b9050919050565b6000602082019050818103600083015261aeb481619ec0565b9050919050565b6000602082019050818103600083015261aed481619ef7565b9050919050565b6000602082019050818103600083015261aef481619f2e565b9050919050565b6000602082019050818103600083015261af1481619f8b565b9050919050565b6000602082019050818103600083015261af3481619fe8565b9050919050565b6000602082019050818103600083015261af548161a06b565b9050919050565b6000602082019050818103600083015261af748161a0a2565b9050919050565b6000602082019050818103600083015261af948161a0ff565b9050919050565b6000602082019050818103600083015261afb48161a15c565b9050919050565b6000602082019050818103600083015261afd48161a193565b9050919050565b6000602082019050818103600083015261aff48161a1f0565b9050919050565b6000602082019050818103600083015261b0148161a227565b9050919050565b6000602082019050818103600083015261b0348161a284565b9050919050565b6000602082019050818103600083015261b0548161a2e1565b9050919050565b6000602082019050818103600083015261b0748161a318565b9050919050565b6000602082019050818103600083015261b0948161a375565b9050919050565b6000602082019050818103600083015261b0b48161a3ac565b9050919050565b6000602082019050818103600083015261b0d48161a3e3565b9050919050565b6000602082019050818103600083015261b0f48161a41a565b9050919050565b6000602082019050818103600083015261b1148161a477565b9050919050565b6000602082019050818103600083015261b1348161a4ae565b9050919050565b6000602082019050818103600083015261b1548161a4e5565b9050919050565b6000602082019050818103600083015261b1748161a51c565b9050919050565b6000602082019050818103600083015261b1948161a553565b9050919050565b6000602082019050818103600083015261b1b48161a58a565b9050919050565b6000602082019050818103600083015261b1d48161a5c1565b9050919050565b6000602082019050818103600083015261b1f48161a61e565b9050919050565b6000602082019050818103600083015261b2148161a67b565b9050919050565b6000602082019050818103600083015261b2348161a6b2565b9050919050565b600060a08201905061b250600083018461a75f565b92915050565b600060c08201905061b26b600083018461a7c7565b92915050565b6000602082019050818103600083015261b28b818461a842565b905092915050565b600060208201905061b2a8600083018461a8f3565b92915050565b600060a08201905061b2c3600083018861a8f3565b818103602083015261b2d5818761a977565b9050818103604083015261b2e9818661a977565b905061b2f86060830185619471565b818103608083015261b30a8184619635565b90509695505050505050565b6000602082019050818103600083015261b330818461a8fa565b905092915050565b6000602082019050818103600083015261b352818461a977565b905092915050565b6000604082019050818103600083015261b374818561a8fa565b9050818103602083015261b3888184619748565b90509392505050565b6000604082019050818103600083015261b3ab818561a977565b9050818103602083015261b3bf818461977e565b90509392505050565b6000604082019050818103600083015261b3e2818561a8fa565b9050818103602083015261b3f681846196dc565b90509392505050565b6000604082019050818103600083015261b419818561a977565b9050818103602083015261b42d8184619712565b90509392505050565b6000604082019050818103600083015261b450818561a977565b9050818103602083015261b464818461a977565b90509392505050565b600060208201905061b482600083018461aa71565b92915050565b600060408201905061b49d600083018561aa71565b61b4aa6020830184619480565b9392505050565b600060608201905061b4c6600083018761aa71565b61b4d36020830186619480565b818103604083015261b4e68184866196b2565b905095945050505050565b600060608201905061b506600083018661aa71565b61b51360208301856196a3565b61b5206040830184619480565b949350505050565b600060608201905061b53d600083018661aa71565b61b54a60208301856196a3565b61b5576040830184619462565b949350505050565b600060808201905061b574600083018861aa71565b818103602083015261b5878186886196b2565b905061b5966040830185619480565b61b5a36060830184619480565b9695505050505050565b6000604051905081810181811067ffffffffffffffff8211171561b5d057600080fd5b8060405250919050565b600067ffffffffffffffff82111561b5f157600080fd5b602082029050602081019050919050565b600067ffffffffffffffff82111561b61957600080fd5b602082029050602081019050919050565b600067ffffffffffffffff82111561b64157600080fd5b602082029050602081019050919050565b600067ffffffffffffffff82111561b66957600080fd5b601f19601f8301169050602081019050919050565b600067ffffffffffffffff82111561b69557600080fd5b601f19601f8301169050602081019050919050565b6000819050919050565b6000819050919050565b6000819050919050565b6000602082019050919050565b6000602082019050919050565b600060029050919050565b600060029050919050565b600060029050919050565b600081519050919050565b600081519050919050565b600081519050919050565b600081519050919050565b6000602082019050919050565b6000602082019050919050565b6000600182019050919050565b6000602082019050919050565b6000602082019050919050565b600061b77b8261b7a2565b9050919050565b6000819050919050565b600060058210151561b79a57fe5b819050919050565b600073ffffffffffffffffffffffffffffffffffffffff82169050919050565b6000819050919050565b600063ffffffff82169050919050565b600067ffffffffffffffff82169050919050565b600061b7fb8261b7a2565b9050919050565b60008115159050919050565b6000819050919050565b6000819050919050565b600067ffffffffffffffff82169050919050565b600061b8418261b87e565b9050919050565b600061b8538261b78c565b9050919050565b600061b8658261b7c2565b9050919050565b600061b8778261b7c2565b9050919050565b600061b8898261b890565b9050919050565b600061b89b8261b7a2565b9050919050565b82818337600083830152505050565b60005b8381101561b8cf57808201518184015260208101905061b8b4565b8381111561b8de576000848401525b50505050565b6000601f19601f830116905091905056fea265627a7a7230582034bf7bb612d153f48d66f1bc0b5575ea4a90523c2d0c444d970ff230c2106a1a6c6578706572696d656e74616cf50037",
  "source": "pragma solidity ^0.5.2;\npragma experimental ABIEncoderV2;\n\nimport \"openzeppelin-solidity/contracts/drafts/Counters.sol\";\n\nimport \"./Libraries/Battles/Adjudicator.sol\";\nimport \"./Libraries/Transaction/Transaction.sol\";\nimport \"./Libraries/ChallengeLib.sol\";\nimport \"./RootChain.sol\";\nimport \"./Libraries/Battles/Rules.sol\";\n\n\n//Plasma Channel Manager\ncontract PlasmaCM {\n    using Adjudicators for FMChannel;\n    using Counters for Counters.Counter;\n    using ECVerify for bytes32;\n    using State for State.StateStruct;\n    using Transaction for bytes;\n    using ChallengeLib for ChallengeLib.Challenge[];\n\n    ///////////////////////////////////////////////////////////////////////////////////\n    ////   EVENTS\n    //////////////////////////////////////////////////////////////////////////////////\n\n    /**\n     * Event for channel initiated waiting for opponent's response.\n     * @param channelId   Unique identifier of the channel\n     * @param creator     Creator of the channel, also known as player\n     * @param opponent    Opponent of the channel, require to fund to start the channel\n     * @param channelType The address of PlasmaTurnGame implementation contract which determines the game\n     */\n    event ChannelInitiated(uint channelId, address indexed creator, address indexed opponent, address channelType);\n\n    /**\n     * Event for channel funding, after both participants have secured the stake and agreed on an initial state.\n     * @param channelId    Unique identifier of the channel\n     * @param creator      Creator of the channel, also known as player\n     * @param opponent     Opponent of the channel, who funded the channel\n     * @param channelType  The address of PlasmaTurnGame implementation contract which determines the game\n     * @param initialState The encoded state, determined how to be decoded by the channelType, that will be defined as\n                           the starting point of this channel, that both parties agreed on.\n     */\n    event ChannelFunded(uint channelId, address indexed creator, address indexed opponent, address channelType, bytes initialState);\n\n    /**\n     * Event for channel conclusion\n     * @notice A channel can be concluded by:\n                A) Being close in an unfunded state by the creator\n                B) Being close in case of a force move challenge is not answered\n                C) The final states are provided and validated\n     * @param channelId   Unique identifier of the channel\n     * @param creator     Creator of the channel, also known as player\n     * @param opponent    Opponent of the channel\n     */\n    event ChannelConcluded(uint indexed channelId, address indexed creator, address indexed opponent);\n\n    /**\n     * Event for the closure of a channel due to a Plasma challenge being issued.\n     * @notice This event is generated when ChallengeAfter or ChallengeBetween is called, closing the channel and giving\n               the stake to the challenger.\n     * @param channelId   Unique identifier of the channel\n     * @param exitIndex   Index corresponding to the exit's index to be challenged\n     * @param creator     Creator of the channel, also known as player\n     * @param opponent    Opponent of the channel\n     */\n    event ChannelChallenged(uint indexed channelId, uint exitIndex, address indexed creator, address indexed opponent);\n\n    /**\n     * Event for the creation of a Plasma challenge inside a channel.\n     * @notice This event is generated when ChallengeBefore is called, forcing someone to ask the challenge before\n               the challenge window ends or surrendering the channel's stake.\n     * @param channelId   Unique identifier of the channel\n     * @param exitIndex   Index corresponding to the exit's index to be challenged\n     * @param txHash      Hash of the challenging transaction\n     * @param creator     Creator of the channel, also known as player\n     * @param opponent    Opponent of the channel\n     * @param challenger  Address of the challenge issuer\n     */\n    event ChallengeRequest(\n        uint indexed channelId, uint exitIndex, bytes32 txHash,\n        address indexed creator, address indexed opponent, address challenger\n    );\n\n    /**\n      * Event for the response of a Plasma challenge inside a channel.\n      * @notice This event is generated when respondChallengeBefore is called, invalidating the plasma challenge.\n      * @param channelId   Unique identifier of the channel\n      * @param exitIndex   Index corresponding to the exit's index challenged\n      * @param txHash      Hash of the challenging transaction\n      * @param creator     Creator of the channel, also known as player\n      * @param opponent    Opponent of the channel\n      * @param challenger  Address of the challenge issuer\n      */\n    event ChallengeResponded(\n        uint indexed channelId, uint exitIndex, bytes32 txHash,\n        address indexed creator, address indexed opponent, address challenger\n    );\n\n    /**\n      * Event for the request of Force Move challenge inside a channel.\n      * @notice This event is generated when ForceMove or alternativeRespondWithMove is called, forcing a player\n                to answer or surrender the channel's stake.\n      * @param channelId   Unique identifier of the channel\n      * @param state       Game State to be answered to\n      */\n    event ForceMoveRequested(uint indexed channelId, State.StateStruct state);\n\n    /**\n      * Event for the response of Force Move challenge inside a channel.\n      * @notice This event is generated when respondWithMove or alternativeRespondWithMove is called, notifying the players\n                of the state to continue from the channel\n      * @param channelId   Unique identifier of the channel\n      * @param nextState   Game State answer, to be used to continue the channel\n      * @param signature   Signature corresponding to nextState\n      */\n    event ForceMoveResponded(uint indexed channelId, State.StateStruct nextState, bytes signature);\n\n    ///////////////////////////////////////////////////////////////////////////////////\n    ////            VARIABLES\n    //////////////////////////////////////////////////////////////////////////////////\n    enum ChannelState { INITIATED, FUNDED, SUSPENDED, CLOSED, CHALLENGED }\n\n    //Force Move Channel\n    struct FMChannel {\n        uint256 channelId;\n        address channelType;\n        uint fundedTimestamp;\n        uint256 stake;\n        address[2] players;\n        bytes32 initialArgumentsHash;\n        ChannelState state;\n        Rules.Challenge forceMoveChallenge;\n    }\n\n    mapping (uint => FMChannel) channels;\n    mapping (uint => ChallengeLib.Challenge[]) challenges;\n    mapping (uint => RootChain.Exit[]) exits;\n    mapping (address => uint) funds;\n\n    Counters.Counter channelCounter;\n    RootChain rootChain;\n\n    uint256 constant MINIMAL_BET = 0.01 ether;\n    uint256 constant CHALLENGE_BOND = 0.1 ether;\n    uint256 constant CHALLENGE_RESPOND_PERIOD = 24 hours;\n    uint256 constant CHALLENGE_PERIOD = 12 hours;\n\n    constructor(RootChain _rootChain) public {\n        rootChain = _rootChain;\n    }\n\n    function () external payable {\n        revert(\"Please send funds using the FundChannel\");\n    }\n\n    ///////////////////////////////////////////////////////////////////////////////////\n    ////            Channel Creation and Closure\n    //////////////////////////////////////////////////////////////////////////////////\n\n    /**\n      * @dev Allows a player to create a Force Move Channel against an opponent, staking an amount of ether declaring\n      *      the winner of it to be able to reclaim it, using within it any plasma tokens deposited on rootChain.\n      * @notice Appends a FMChannel to channels, ExitData to exits.\n      * @notice Emits ChannelInitiated event\n      * @param channelType  The address of the contract implementing PlasmaTurnGame interface to determine the type of game\n      * @param opponent     The address of the user who will be facing the creator\n      * @param stake        The amount of money to be staking. Same amount of ether must accompany the function call.\n      * @param initialGameAttributes The encoded initial state to be decoded by the channelType\n      * @param exitData     The encoded exitData to be decoded by the channelType of the creator's plasma tokens being used by\n      *                     the creator.\n      */\n    function initiateChannel(\n        address channelType,\n        address opponent,\n        uint stake,\n        bytes calldata initialGameAttributes,\n        bytes calldata exitData\n    ) external payable Payment(stake) {\n\n        channelCounter.increment();\n\n        address[2] memory addresses;\n        addresses[0] = msg.sender;\n        addresses[1] = opponent;\n\n        RootChain.Exit[] memory exited = PlasmaTurnGame(channelType).validateStartState(\n            initialGameAttributes, addresses, 0, exitData);\n        for(uint i; i < exited.length; i++) {\n            exits[channelCounter.current()].push(exited[i]);\n        }\n\n        Rules.Challenge memory challenge;\n        FMChannel memory channel = FMChannel(\n            channelCounter.current(),\n            channelType,\n            0, // to be filled when channel is funded\n            stake,\n            addresses,\n            keccak256(initialGameAttributes),\n            ChannelState.INITIATED,\n            challenge\n        );\n\n        channels[channel.channelId] = channel;\n\n        // Emit events\n        emit ChannelInitiated(channel.channelId, channel.players[0], channel.players[1], channel.channelType);\n        PlasmaTurnGame(channelType).eventRequestState(\n            channel.channelId,\n            initialGameAttributes,\n            channel.players[0],\n            channel.players[1]\n        );\n    }\n\n    /**\n      * @dev Allows a player respond to a channel creation, funding it.\n      *      the winner of it to be able to reclaim it, using within it any plasma tokens deposited on rootChain.\n      * @notice Appends ExitData to exits, sets the fundedTimestamp for the channel\n      * @notice Sets channel's state to FUNDED\n      * @notice Emits ChannelFunded event\n      * @param channelId   Unique identifier of the channel\n      * @param initialGameAttributes The encoded initial state to be decoded by the channelType\n      * @param exitData     The encoded exitData to be decoded by the channelType of the plasma tokens being used by\n      *                     the opponent.\n      */\n    function fundChannel(\n        uint channelId,\n        bytes calldata initialGameAttributes,\n        bytes calldata exitData\n    ) external payable channelExists(channelId) {\n\n        FMChannel storage channel = channels[channelId];\n\n        require(channel.state == ChannelState.INITIATED, \"Channel is already funded\");\n        require(channel.players[1] == msg.sender, \"Sender is not participant of this channel\");\n        require(channel.stake == msg.value, \"Payment must be equal to channel stake\");\n        require(channel.initialArgumentsHash == keccak256(initialGameAttributes), \"Initial state does not match\");\n        channel.state = ChannelState.FUNDED;\n        channel.fundedTimestamp = block.timestamp;\n        RootChain.Exit[] memory exitOpponent = PlasmaTurnGame(channel.channelType)\n            .validateStartState(initialGameAttributes, channel.players, 1, exitData);\n        for(uint i; i<exitOpponent.length; i++) {\n            exits[channel.channelId].push(exitOpponent[i]);\n        }\n        emit ChannelFunded(channel.channelId, channel.players[0], channel.players[1], channel.channelType, initialGameAttributes);\n        PlasmaTurnGame(channel.channelType).eventStartState(channelId, initialGameAttributes, channel.players[0], channel.players[1]);\n    }\n\n    /**\n      * @dev Allows a creator of a channel to close if it is unfunded and retrieve the stakes.\n      * @notice Sets channel's state to CLOSED\n      * @notice Emits ChannelConcluded event\n      * @param channelId   Unique identifier of the channel\n      */\n    function closeUnfundedChannel(uint channelId) external channelExists(channelId) {\n        FMChannel storage channel = channels[channelId];\n\n        require(channel.state == ChannelState.INITIATED, \"Channel is already funded\");\n        require(channel.players[0] == msg.sender, \"Sender is not creator of this channel\");\n\n        channel.state = ChannelState.CLOSED;\n\n        funds[msg.sender] = funds[msg.sender] + channel.stake;\n        emit ChannelConcluded(channelId, channel.players[0], channel.players[1]);\n        delete channels[channelId];\n        delete challenges[channelId];\n        delete exits[channelId];\n    }\n\n    /**\n     * @dev Allows conclusion of a channel whether if there is an expired challenge or by providing the last states\n     * @notice Sets channel's state to CLOSED. Stakes are added to the winner.\n     * @notice Emits ChannelConcluded event\n     * @param channelId  Unique identifier of the channel\n     * @param prevState  State previous to last state. Ignored if an expired challenge is present.\n     * @param lastState  Last State, which must be a valid transition from prevState and also validate as a final state.\n     *                   Ignored if an expired challenge is present\n     * @param signatures The signatures (array of size 2) corresponding to prevState and lastState in that order.\n     *                   Ignored if an expired challenge is present\n     */\n    function conclude(\n        uint channelId,\n        State.StateStruct memory prevState,\n        State.StateStruct memory lastState,\n        bytes[] memory signatures\n    ) public channelExists(channelId) isFunded(channelId) {\n        FMChannel storage channel = channels[channelId];\n\n        if(!channel.expiredChallengePresent()) {\n            channel.conclude(prevState, lastState, signatures);\n        }\n\n        //should never fail\n        require(channel.expiredChallengePresent(), \"Winner not correctly decided\");\n\n        channel.state = ChannelState.CLOSED;\n        funds[channel.forceMoveChallenge.winner] += channel.stake * 2;\n        emit ChannelConcluded(channelId, channel.players[0], channel.players[1]);\n        delete channels[channelId];\n        delete challenges[channelId];\n        delete exits[channelId];\n    }\n\n    /**\n    * @dev Allows an address to extract the funds locked in this contract\n    */\n    function withdraw() public {\n        require(funds[msg.sender] > 0, \"Sender has no funds\");\n        uint value = funds[msg.sender];\n        funds[msg.sender] = 0;\n        msg.sender.transfer(value);\n    }\n\n    ///////////////////////////////////////////////////////////////////////////////////\n    ////            Force Moves\n    //////////////////////////////////////////////////////////////////////////////////\n\n    /**\n     * @dev Allows the creation of a forceMove Challenge for the first move in a channel.\n     * @notice Modifies the channel's forceMoveChallenge if there isn't any\n     * @param channelId  Unique identifier of the channel\n     * @param initialState The initial state of the channel. Must comply with the initialArgumentsHash of the channel.\n     *                     Will be the starting point to validate the forceMove response\n     */\n    function forceFirstMove(\n        uint channelId,\n        State.StateStruct memory initialState\n    ) public channelExists(channelId) isAllowed(channelId) {\n\n        channels[channelId].forceFirstMove(initialState, msg.sender);\n    }\n\n    /**\n     * @dev Allows the creation of a forceMove Challenge for the any move in a channel.\n     * @notice Modifies the channel's forceMoveChallenge if there isn't any.\n     * @notice Emits ForceMoveRequested event\n     * @notice Either the fromState or toState must be signed one by each of the channel's participants to be a valid\n     *         transition, so it is ok to assume both parties agreed on these states.\n     * @param channelId  Unique identifier of the channel\n     * @param fromState   The previous to current state of the channel\n     * @param toState     The current state of the channel. Must be a valid transition from fromState\n     * @param signatures  The signatures (array of size 2) corresponding to fromState and toState in that order\n     */\n    function forceMove(\n        uint channelId,\n        State.StateStruct memory fromState,\n        State.StateStruct memory toState,\n        bytes[] memory signatures\n    ) public channelExists(channelId) isAllowed(channelId) {\n\n        channels[channelId].forceMove(fromState, toState, msg.sender, signatures);\n        emit ForceMoveRequested(channelId, toState);\n    }\n\n    /**\n     * @dev Allows the response of an active forceMove Challenge.\n     * @notice Removes the channel's forceMoveChallenge if there is any.\n     * @notice Emits ForceMoveResponded event\n     * @param channelId  Unique identifier of the channel\n     * @param nextState   The next state of the channel. Must be a valid transition from the challenge's state.\n     * @param signature   The signature corresponding to nextState\n     */\n    function respondWithMove(\n        uint channelId,\n        State.StateStruct memory nextState,\n        bytes memory signature\n    ) public channelExists(channelId) {\n\n        channels[channelId].respondWithMove(nextState, signature);\n        emit ForceMoveResponded(channelId, nextState, signature);\n    }\n\n    /**\n     * @dev Allows the response of an active forceMove Challenge by canceling with a different state signed by the\n     *      challenge's issuer. Then proceeds to create a challenge for the alternativeState.\n     * @notice Changes the channel's forceMoveChallenge if there is any.\n     * @notice Emits ForceMoveResponded event\n     * @notice Emits ForceMoveRequested event\n     * @param channelId  Unique identifier of the channel\n     * @param alternativeState  The state replacing the challenge's state. Must have the same turnNum as it,\n     *                          and thus, be signed by the same person.\n     * @param nextState         The next state of the channel. Must be a valid transition from the alternativeState.\n     * @param signatures        The signatures (array of size 2) corresponding to alternativeState and nextState in that order\n     */\n    function alternativeRespondWithMove(\n        uint channelId,\n        State.StateStruct memory alternativeState,\n        State.StateStruct memory nextState,\n        bytes[] memory signatures\n    ) public channelExists(channelId) isAllowed(channelId) {\n\n        channels[channelId].alternativeRespondWithMove(alternativeState, nextState, msg.sender, signatures);\n        emit ForceMoveResponded(channelId, nextState, signatures[1]);\n        emit ForceMoveRequested(channelId, nextState);\n    }\n\n    ///////////////////////////////////////////////////////////////////////////////////\n    ////            Plasma Challenges\n    //////////////////////////////////////////////////////////////////////////////////\n\n    /**\n     * @dev Allows a user to challenge a funded channel's exit, by providing a direct spend, in order to prevent the\n     *      use of unauthorized tokens.\n     * @notice Emits ChannelChallenged event\n     * @notice Sets channel's state to CHALLENGED\n     * @param channelId   Unique identifier of the channel\n     * @param index       Index corresponding to the exit's index to be challenged\n     * @param txBytes     RLP encoded bytes of the transaction to make a Challenge After. See CheckAfter for conditions.\n     * @param proof       Bytes needed for the proof of inclusion of txBytes in the Plasma block\n     * @param signature   Signature of the txBytes proving the validity of it.\n     * @param blockNumber BlockNumber of the transaction to be checked for the inclusion proof\n     */\n    function challengeAfter(\n        uint channelId,\n        uint index,\n        bytes calldata txBytes,\n        bytes calldata proof,\n        bytes calldata signature,\n        uint256 blockNumber)\n    external channelExists(channelId) isFunded(channelId) {\n        FMChannel storage channel = channels[channelId];\n        ( ,uint createdAt) = rootChain.getBlock(blockNumber);\n        require(createdAt < channel.fundedTimestamp, \"Challenge After block must be previous to channel creation\");\n        checkAfter(exits[channelId][index], txBytes, proof, signature, blockNumber);\n\n        channel.state = ChannelState.CHALLENGED;\n        funds[msg.sender] += channel.stake * 2;\n        emit ChannelChallenged(channelId, index, channel.players[0], channel.players[1]);\n        delete channels[channelId];\n        delete challenges[channelId];\n        delete exits[channelId];\n    }\n\n    /**\n     * @dev Checks a transaction to be a direct spend from an Exit\n     * @param exit        RootChain.Exit exit to be challenged\n     * @param txBytes     RLP encoded bytes of the transaction to make a Challenge After. Should be a direct spend.\n     *                     Has to be the same slot, signed by the same owner and its' prevBlock equal to exit's exitBlock\n     * @param proof       Bytes needed for the proof of inclusion of txBytes in the Plasma block\n     * @param blockNumber BlockNumber of the transaction to be checked for the inclusion proof. Must be greater to\n     *                    exit.exitBlock.\n     */\n    function checkAfter(\n        RootChain.Exit memory exit,\n        bytes memory txBytes,\n        bytes memory proof,\n        bytes memory signature,\n        uint blockNumber\n    ) private view {\n\n        require(exit.exitBlock < blockNumber, \"Tx should be after the exitBlock\");\n        rootChain.checkTX(txBytes, proof, blockNumber);\n        Transaction.TX memory txData = txBytes.getTransaction();\n        require(txData.hash.ecverify(signature, exit.owner), \"Invalid signature\");\n        require(txData.slot == exit.slot, \"Tx is referencing another slot\");\n        require(txData.prevBlock == exit.exitBlock, \"Not a direct spend\");\n    }\n\n    /**\n     * @dev Allows a user to challenge a funded channel's exit, by providing a previous double spend, in order to prevent the\n     *      use of unauthorized tokens.\n     * @notice Emits ChannelChallenged event\n     * @notice Sets channel's state to CHALLENGED\n     * @param channelId   Unique identifier of the channel\n     * @param index       Index corresponding to the exit's index to be challenged\n     * @param txBytes     RLP encoded bytes of the transaction to make a Challenge Between. See CheckBetween for conditions.\n     * @param proof       Bytes needed for the proof of inclusion of txBytes in the Plasma block\n     * @param signature   Signature of the txBytes proving the validity of it.\n     * @param blockNumber BlockNumber of the transaction to be checked for the inclusion proof\n     */\n    function challengeBetween(\n        uint channelId,\n        uint index,\n        bytes calldata txBytes,\n        bytes calldata proof,\n        bytes calldata signature,\n        uint256 blockNumber)\n    external channelExists(channelId) isFunded(channelId) {\n        checkBetween(exits[channelId][index], txBytes, proof, signature, blockNumber);\n\n        FMChannel storage channel = channels[channelId];\n        channel.state = ChannelState.CHALLENGED;\n        funds[msg.sender] += channel.stake * 2;\n        emit ChannelChallenged(channelId, index, channel.players[0], channel.players[1]);\n        delete channels[channelId];\n        delete challenges[channelId];\n        delete exits[channelId];\n    }\n\n    /**\n     * @dev Checks a transaction to be a previous double spend from an Exit\n     * @param exit        RootChain.Exit exit to be challenged\n     * @param txBytes     RLP encoded bytes of the transaction to make a Challenge Between. Should be a direct spend of\n     *                    the exit.prevBlock. Has to be the same slot, signed by the same owner and the blockNumber\n     *                    Should be before exit.exitBlock.\n     * @param proof       Bytes needed for the proof of inclusion of txBytes in the Plasma block\n     * @param blockNumber BlockNumber of the transaction to be checked for the inclusion proof. Must be between exit.prevBlock\n     *                    and exit.exitBlock.\n     */\n    function checkBetween(\n        RootChain.Exit memory exit,\n        bytes memory txBytes,\n        bytes memory proof,\n        bytes memory signature,\n        uint blockNumber\n    ) private view {\n\n        require(exit.exitBlock > blockNumber && exit.prevBlock < blockNumber,\n            \"Tx should be between the exit's blocks\"\n        );\n\n        rootChain.checkTX(txBytes, proof, blockNumber);\n        Transaction.TX memory txData = txBytes.getTransaction();\n        require(txData.hash.ecverify(signature, exit.prevOwner), \"Invalid signature\");\n        require(txData.slot == exit.slot, \"Tx is referencing another slot\");\n    }\n\n    /**\n     * @dev Allows a user to create a Plasma Challenge targeting a funded channel's exit in order to prevent the use of\n     *       unauthorized tokens. A plasma challenge is any previous transaction of the token that must be proved invalid\n     *       by a direct spend of it.\n     * @notice Pushes a ChallengeLib.Challenge to challenges\n     * @notice Emits ChallengeRequest event\n     * @notice Sets channel's state to SUSPENDED\n     * @notice A bond must be locked to prevent unlawful challenges. If the challenge is not answered, the bond is returned.\n     * @param channelId   Unique identifier of the channel\n     * @param index       Index corresponding to the exit's index to be challenged\n     * @param txBytes     RLP encoded bytes of the transaction to make a Challenge Before. See CheckBefore for conditions.\n     * @param proof       Bytes needed for the proof of inclusion of txBytes in the Plasma block\n     * @param blockNumber BlockNumber of the transaction to be checked for the inclusion proof\n     */\n    function challengeBefore(\n        uint channelId,\n        uint index,\n        bytes calldata txBytes,\n        bytes calldata proof,\n        uint256 blockNumber\n    ) external payable channelExists(channelId) isChallengeable(channelId) Bonded {\n\n        require(block.timestamp <= channels[channelId].fundedTimestamp + CHALLENGE_PERIOD, \"Challenge window is over\");\n        checkBefore(exits[channelId][index], txBytes, proof, blockNumber);\n        bytes32 txHash = txBytes.getHash();\n        require(!challenges[channelId].contains(txHash), \"Transaction used for challenge already\");\n\n        // Need to save the exiting transaction's owner, to verify\n        // that the response is valid\n        challenges[channelId].push(\n            ChallengeLib.Challenge({\n            exitor: exits[channelId][index].owner,\n            owner:  txBytes.getOwner(),\n            challenger: msg.sender,\n            txHash: txHash,\n            challengingBlockNumber: blockNumber\n            })\n        );\n\n        FMChannel storage channel = channels[channelId];\n        channel.state = ChannelState.SUSPENDED;\n        emit ChallengeRequest(channelId, index, txHash, channel.players[0], channel.players[1], msg.sender);\n    }\n\n    /**\n     * @dev Checks a transaction against an exit for a Challenge Before\n     * @param exit        RootChain.Exit exit to be challenged\n     * @param txBytes     RLP encoded bytes of the transaction to make a Challenge Before.\n     * @param proof       Bytes needed for the proof of inclusion of txBytes in the Plasma block\n     * @param blockNumber BlockNumber of the transaction to be checked for the inclusion proof. Must be previous to\n     *                    exit.prevBlock.\n     */\n    function checkBefore(\n        RootChain.Exit memory exit,\n        bytes memory txBytes,\n        bytes memory proof,\n        uint blockNumber\n    ) private view {\n        require(blockNumber <= exit.prevBlock, \"Tx should be before the exit's parent block\");\n        rootChain.checkTX(txBytes, proof, blockNumber);\n        Transaction.TX memory txData = txBytes.getTransaction();\n        require(txData.slot == exit.slot, \"Tx is referencing another slot\");\n    }\n\n    /**\n     * @dev Allows a user to respond to a Plasma Challenge targeting a funded channel's exit. For validity go to CheckResponse\n     * @notice Removes a ChallengeLib.Challenge to challenges\n     * @notice Emits ChallengeResponded event\n     * @notice Sets channel's state to FUNDED if no more challenges are left\n     * @notice The bond is given to the responder.\n     * @param channelId             Unique identifier of the channel\n     * @param index                 Index corresponding to the exit's index to be challenged\n     * @param challengingTxHash     Hash of the transaction being challenged with.\n     * @param respondingBlockNumber BlockNumber of the respondingTransaction to be checked for the inclusion proof.\n     * @param respondingTransaction Transaction signed by the challengingTxHash owner showing a spent\n     * @param proof                 Bytes needed for the proof of inclusion of respondingTransaction in the Plasma block\n     * @param signature             Signature of the respondingTransaction to prove its validity\n     */\n    function respondChallengeBefore(\n        uint channelId,\n        uint index,\n        bytes32 challengingTxHash,\n        uint256 respondingBlockNumber,\n        bytes calldata respondingTransaction,\n        bytes calldata proof,\n        bytes calldata signature\n    ) external channelExists(channelId) isSuspended(channelId) {\n\n        // Check that the transaction being challenged exists\n        ChallengeLib.Challenge[] storage cChallenges = challenges[channelId];\n        require(cChallenges.contains(challengingTxHash), \"Responding to non existing challenge\");\n        // Get index of challenge in the challenges array\n        uint256 cIndex = uint256(cChallenges.indexOf(challengingTxHash));\n        uint _index = index;\n        uint _channelId = channelId;\n        uint _blockNumber = respondingBlockNumber;\n        bytes memory _respondingTransaction = respondingTransaction;\n        bytes memory _proof = proof;\n        bytes memory _signature = signature;\n        RootChain.Exit memory exit = exits[_channelId][_index];\n        ChallengeLib.Challenge memory challenge = cChallenges[cIndex];\n        checkResponse(\n            exit,\n            challenge,\n            _blockNumber,\n            _respondingTransaction,\n            _signature,\n            _proof\n        );\n\n        funds[msg.sender] += CHALLENGE_BOND;\n        FMChannel storage channel = channels[_channelId];\n        cChallenges.removeAt(_index);\n\n        if(cChallenges.length == 0) {\n            channel.state = ChannelState.FUNDED;\n        }\n\n        emit ChallengeResponded(_channelId, _index, challenge.txHash, channel.players[0], channel.players[1], challenge.challenger);\n    }\n\n   /**\n    * @dev Checks a Plasma Challenge's response against an exit.\n    * @param exit        RootChain.Exit exit to be challenged\n    * @param challenge   ChallengeLib.Challenge challenge to respond to\n    * @param blockNumber BlockNumber of the transaction to be checked for the inclusion proof. Should be a future spend of\n    *                    the challenge.challengingBlockNumber but before the exit.exitBlock. Has to be the same slot,\n    *                    signed by the same owner.\n    * @param txBytes     RLP encoded bytes of the transaction to proof the spending of the challenge. Must\n    * @param proof       Bytes needed for the proof of inclusion of txBytes in the Plasma block\n    * @param signature   Signature of the txBytes to prove its validity. Must be signed by the challenged owner\n    */\n    function checkResponse(\n        RootChain.Exit memory exit,\n        ChallengeLib.Challenge memory challenge,\n        uint256 blockNumber,\n        bytes memory txBytes,\n        bytes memory signature,\n        bytes memory proof\n    ) private view {\n\n        rootChain.checkTX(txBytes, proof, blockNumber);\n        Transaction.TX memory txData = txBytes.getTransaction();\n        require(txData.hash.ecverify(signature, challenge.owner), \"Invalid signature\");\n        require(txData.slot == exit.slot, \"Tx is referencing another slot\");\n        require(blockNumber > challenge.challengingBlockNumber, \"BlockNumber must be after the chalenge\");\n        require(blockNumber <= exit.exitBlock, \"Cannot respond with a tx after the exit\");\n    }\n\n    /**\n     * @dev Allows a user to close and unanswered channel after a Challenge Before was made\n     * @notice Removes a ChallengeLib.Challenge to challenges\n     * @notice Emits ChannelChallenged event\n     * @notice Sets channel's state to CHALLENGED\n     * @notice The bond is returned to the challengers, with the stakes of the channel to the first valid one.\n     * @param channelId             Unique identifier of the channel\n     */\n    function closeChallengedChannel(\n        uint channelId\n    ) external channelExists(channelId) isSuspended(channelId) {\n        FMChannel storage channel = channels[channelId];\n        require(block.timestamp >= channel.fundedTimestamp + CHALLENGE_RESPOND_PERIOD, \"Challenge respond window isnt over\");\n\n        ChallengeLib.Challenge[] memory channelChallenges = challenges[channelId];\n\n        bool playerChallenged = false;\n        bool opponentChallenged = false;\n\n        for(uint i=0; i<channelChallenges.length; i++) {\n            if(!playerChallenged && channelChallenges[i].exitor == channel.players[0]) {\n                playerChallenged = true;\n                funds[channelChallenges[i].challenger] += channel.stake;\n            } else if(!opponentChallenged && channelChallenges[i].exitor == channel.players[1]) {\n                funds[channelChallenges[i].challenger] += channel.stake;\n                opponentChallenged = true;\n            }\n            funds[channelChallenges[i].challenger] += CHALLENGE_BOND;\n        }\n\n        channel.state = ChannelState.CHALLENGED;\n        if(!playerChallenged) {\n            funds[channel.players[0]] += channel.stake;\n        }\n\n        if(!opponentChallenged) {\n            funds[channel.players[1]] += channel.stake;\n        }\n\n        emit ChannelChallenged(channelId, 0, channel.players[0], channel.players[1]);\n        delete channels[channelId];\n        delete challenges[channelId];\n        delete exits[channelId];\n    }\n\n    ///////////////////////////////////////////////////////////////////////////////////\n    ////            Getters\n    //////////////////////////////////////////////////////////////////////////////////\n\n    function getFunds(address user) external view returns (uint) {\n        return funds[user];\n    }\n\n    function getChannel(uint channelId) external view returns (FMChannel memory) {\n        return channels[channelId];\n    }\n\n    function getExit(uint channelId, uint index) external view returns (RootChain.Exit memory) {\n        return exits[channelId][index];\n    }\n\n    function getChallenge(uint channelId, bytes32 txHash) external view returns (ChallengeLib.Challenge memory) {\n\n        uint256 index = uint256(challenges[channelId].indexOf(txHash));\n        return challenges[channelId][index];\n    }\n\n    ///////////////////////////////////////////////////////////////////////////////////\n    ////            Modifiers\n    //////////////////////////////////////////////////////////////////////////////////\n\n    modifier Payment(uint stake) {\n        require(stake >= MINIMAL_BET,\"Stake must be greater than minimal bet\");\n        require(stake == msg.value, \"Invalid Payment amount\");\n        _;\n    }\n\n    modifier Bonded() {\n        require(CHALLENGE_BOND == msg.value, \"Challenge Bond must be provided\");\n        _;\n    }\n\n    modifier channelExists(uint channelId) {\n        require(channels[channelId].channelId > 0, \"Channel has not yet been created\");\n        _;\n    }\n\n    modifier isFunded(uint channelId) {\n        require(channels[channelId].state  == ChannelState.FUNDED, \"Channel must be funded (maybe there is a challenge)\");\n        _;\n    }\n\n    modifier isSuspended(uint channelId) {\n        require(channels[channelId].state  == ChannelState.SUSPENDED, \"Channel must be suspended\");\n        _;\n    }\n\n    modifier isChallengeable(uint channelId) {\n        require(channels[channelId].state  == ChannelState.SUSPENDED\n        || channels[channelId].state  == ChannelState.FUNDED, \"Channel must be funded or suspended\");\n        _;\n    }\n\n    modifier isAllowed(uint channelId) {\n        require(\n            channels[channelId].players[0] == msg.sender || channels[channelId].players[1] == msg.sender,\n                \"The sender is not involved in the channel\"\n        );\n        _;\n    }\n\n}\n",
  "sourcePath": "/home/juanfra/Documents/ITBA/PF/Plasma-Cash-RootChain/contracts/PlasmaCore/PlasmaChannelManager.sol",
  "compiler": {
    "name": "solc",
    "version": "0.5.2+commit.1df8f40c.Emscripten.clang"
  },
  "schemaVersion": "3.0.16",
  "updatedAt": "2019-11-11T16:36:47.919Z",
  "devdoc": {
    "methods": {
      "alternativeRespondWithMove(uint256,(uint256,address,address[],uint256,bytes),(uint256,address,address[],uint256,bytes),bytes[])": {
        "details": "Allows the response of an active forceMove Challenge by canceling with a different state signed by the     challenge's issuer. Then proceeds to create a challenge for the alternativeState.",
        "params": {
          "alternativeState": "The state replacing the challenge's state. Must have the same turnNum as it,                         and thus, be signed by the same person.",
          "channelId": "Unique identifier of the channel",
          "nextState": "The next state of the channel. Must be a valid transition from the alternativeState.",
          "signatures": "The signatures (array of size 2) corresponding to alternativeState and nextState in that order"
        }
      },
      "challengeAfter(uint256,uint256,bytes,bytes,bytes,uint256)": {
        "details": "Allows a user to challenge a funded channel's exit, by providing a direct spend, in order to prevent the     use of unauthorized tokens.",
        "params": {
          "blockNumber": "BlockNumber of the transaction to be checked for the inclusion proof",
          "channelId": "Unique identifier of the channel",
          "index": "Index corresponding to the exit's index to be challenged",
          "proof": "Bytes needed for the proof of inclusion of txBytes in the Plasma block",
          "signature": "Signature of the txBytes proving the validity of it.",
          "txBytes": "RLP encoded bytes of the transaction to make a Challenge After. See CheckAfter for conditions."
        }
      },
      "challengeBefore(uint256,uint256,bytes,bytes,uint256)": {
        "details": "Allows a user to create a Plasma Challenge targeting a funded channel's exit in order to prevent the use of      unauthorized tokens. A plasma challenge is any previous transaction of the token that must be proved invalid      by a direct spend of it.",
        "params": {
          "blockNumber": "BlockNumber of the transaction to be checked for the inclusion proof",
          "channelId": "Unique identifier of the channel",
          "index": "Index corresponding to the exit's index to be challenged",
          "proof": "Bytes needed for the proof of inclusion of txBytes in the Plasma block",
          "txBytes": "RLP encoded bytes of the transaction to make a Challenge Before. See CheckBefore for conditions."
        }
      },
      "challengeBetween(uint256,uint256,bytes,bytes,bytes,uint256)": {
        "details": "Allows a user to challenge a funded channel's exit, by providing a previous double spend, in order to prevent the     use of unauthorized tokens.",
        "params": {
          "blockNumber": "BlockNumber of the transaction to be checked for the inclusion proof",
          "channelId": "Unique identifier of the channel",
          "index": "Index corresponding to the exit's index to be challenged",
          "proof": "Bytes needed for the proof of inclusion of txBytes in the Plasma block",
          "signature": "Signature of the txBytes proving the validity of it.",
          "txBytes": "RLP encoded bytes of the transaction to make a Challenge Between. See CheckBetween for conditions."
        }
      },
      "closeChallengedChannel(uint256)": {
        "details": "Allows a user to close and unanswered channel after a Challenge Before was made",
        "params": {
          "channelId": "Unique identifier of the channel"
        }
      },
      "closeUnfundedChannel(uint256)": {
        "details": "Allows a creator of a channel to close if it is unfunded and retrieve the stakes.",
        "params": {
          "channelId": "Unique identifier of the channel"
        }
      },
      "conclude(uint256,(uint256,address,address[],uint256,bytes),(uint256,address,address[],uint256,bytes),bytes[])": {
        "details": "Allows conclusion of a channel whether if there is an expired challenge or by providing the last states",
        "params": {
          "channelId": "Unique identifier of the channel",
          "lastState": "Last State, which must be a valid transition from prevState and also validate as a final state.                  Ignored if an expired challenge is present",
          "prevState": "State previous to last state. Ignored if an expired challenge is present.",
          "signatures": "The signatures (array of size 2) corresponding to prevState and lastState in that order.                  Ignored if an expired challenge is present"
        }
      },
      "forceFirstMove(uint256,(uint256,address,address[],uint256,bytes))": {
        "details": "Allows the creation of a forceMove Challenge for the first move in a channel.",
        "params": {
          "channelId": "Unique identifier of the channel",
          "initialState": "The initial state of the channel. Must comply with the initialArgumentsHash of the channel.                    Will be the starting point to validate the forceMove response"
        }
      },
      "forceMove(uint256,(uint256,address,address[],uint256,bytes),(uint256,address,address[],uint256,bytes),bytes[])": {
        "details": "Allows the creation of a forceMove Challenge for the any move in a channel.",
        "params": {
          "channelId": "Unique identifier of the channel",
          "fromState": "The previous to current state of the channel",
          "signatures": "The signatures (array of size 2) corresponding to fromState and toState in that order",
          "toState": "The current state of the channel. Must be a valid transition from fromState"
        }
      },
      "fundChannel(uint256,bytes,bytes)": {
        "details": "Allows a player respond to a channel creation, funding it.     the winner of it to be able to reclaim it, using within it any plasma tokens deposited on rootChain.",
        "params": {
          "channelId": "Unique identifier of the channel",
          "exitData": "The encoded exitData to be decoded by the channelType of the plasma tokens being used by                    the opponent.",
          "initialGameAttributes": "The encoded initial state to be decoded by the channelType"
        }
      },
      "initiateChannel(address,address,uint256,bytes,bytes)": {
        "details": "Allows a player to create a Force Move Channel against an opponent, staking an amount of ether declaring     the winner of it to be able to reclaim it, using within it any plasma tokens deposited on rootChain.",
        "params": {
          "channelType": "The address of the contract implementing PlasmaTurnGame interface to determine the type of game",
          "exitData": "The encoded exitData to be decoded by the channelType of the creator's plasma tokens being used by                    the creator.",
          "initialGameAttributes": "The encoded initial state to be decoded by the channelType",
          "opponent": "The address of the user who will be facing the creator",
          "stake": "The amount of money to be staking. Same amount of ether must accompany the function call."
        }
      },
      "respondChallengeBefore(uint256,uint256,bytes32,uint256,bytes,bytes,bytes)": {
        "details": "Allows a user to respond to a Plasma Challenge targeting a funded channel's exit. For validity go to CheckResponse",
        "params": {
          "challengingTxHash": "Hash of the transaction being challenged with.",
          "channelId": "Unique identifier of the channel",
          "index": "Index corresponding to the exit's index to be challenged",
          "proof": "Bytes needed for the proof of inclusion of respondingTransaction in the Plasma block",
          "respondingBlockNumber": "BlockNumber of the respondingTransaction to be checked for the inclusion proof.",
          "respondingTransaction": "Transaction signed by the challengingTxHash owner showing a spent",
          "signature": "Signature of the respondingTransaction to prove its validity"
        }
      },
      "respondWithMove(uint256,(uint256,address,address[],uint256,bytes),bytes)": {
        "details": "Allows the response of an active forceMove Challenge.",
        "params": {
          "channelId": "Unique identifier of the channel",
          "nextState": "The next state of the channel. Must be a valid transition from the challenge's state.",
          "signature": "The signature corresponding to nextState"
        }
      },
      "withdraw()": {
        "details": "Allows an address to extract the funds locked in this contract"
      }
    }
  },
  "userdoc": {
    "methods": {
      "alternativeRespondWithMove(uint256,(uint256,address,address[],uint256,bytes),(uint256,address,address[],uint256,bytes),bytes[])": {
        "notice": "Changes the channel's forceMoveChallenge if there is any.Emits ForceMoveResponded eventEmits ForceMoveRequested event"
      },
      "challengeAfter(uint256,uint256,bytes,bytes,bytes,uint256)": {
        "notice": "Emits ChannelChallenged eventSets channel's state to CHALLENGED"
      },
      "challengeBefore(uint256,uint256,bytes,bytes,uint256)": {
        "notice": "Pushes a ChallengeLib.Challenge to challengesEmits ChallengeRequest eventSets channel's state to SUSPENDEDA bond must be locked to prevent unlawful challenges. If the challenge is not answered, the bond is returned."
      },
      "challengeBetween(uint256,uint256,bytes,bytes,bytes,uint256)": {
        "notice": "Emits ChannelChallenged eventSets channel's state to CHALLENGED"
      },
      "closeChallengedChannel(uint256)": {
        "notice": "Removes a ChallengeLib.Challenge to challengesEmits ChannelChallenged eventSets channel's state to CHALLENGEDThe bond is returned to the challengers, with the stakes of the channel to the first valid one."
      },
      "closeUnfundedChannel(uint256)": {
        "notice": "Sets channel's state to CLOSEDEmits ChannelConcluded event"
      },
      "conclude(uint256,(uint256,address,address[],uint256,bytes),(uint256,address,address[],uint256,bytes),bytes[])": {
        "notice": "Sets channel's state to CLOSED. Stakes are added to the winner.Emits ChannelConcluded event"
      },
      "forceFirstMove(uint256,(uint256,address,address[],uint256,bytes))": {
        "notice": "Modifies the channel's forceMoveChallenge if there isn't any"
      },
      "forceMove(uint256,(uint256,address,address[],uint256,bytes),(uint256,address,address[],uint256,bytes),bytes[])": {
        "notice": "Modifies the channel's forceMoveChallenge if there isn't any.Emits ForceMoveRequested eventEither the fromState or toState must be signed one by each of the channel's participants to be a valid        transition, so it is ok to assume both parties agreed on these states."
      },
      "fundChannel(uint256,bytes,bytes)": {
        "notice": "Appends ExitData to exits, sets the fundedTimestamp for the channelSets channel's state to FUNDEDEmits ChannelFunded event"
      },
      "getFunds(address)": {
        "notice": "//////////////////////////////////////////////////////////////////////////////// /            Getters ///////////////////////////////////////////////////////////////////////////////"
      },
      "initiateChannel(address,address,uint256,bytes,bytes)": {
        "notice": "Appends a FMChannel to channels, ExitData to exits.Emits ChannelInitiated event"
      },
      "respondChallengeBefore(uint256,uint256,bytes32,uint256,bytes,bytes,bytes)": {
        "notice": "Removes a ChallengeLib.Challenge to challengesEmits ChallengeResponded eventSets channel's state to FUNDED if no more challenges are leftThe bond is given to the responder."
      },
      "respondWithMove(uint256,(uint256,address,address[],uint256,bytes),bytes)": {
        "notice": "Removes the channel's forceMoveChallenge if there is any.Emits ForceMoveResponded event"
      }
    }
  }
}