{
  "contractName": "PlasmaCM",
  "abi": [
    {
      "payable": true,
      "stateMutability": "payable",
      "type": "fallback"
    },
    {
      "anonymous": false,
      "inputs": [
        {
          "indexed": false,
          "name": "channelId",
          "type": "uint256"
        },
        {
          "indexed": true,
          "name": "creator",
          "type": "address"
        },
        {
          "indexed": true,
          "name": "opponent",
          "type": "address"
        },
        {
          "indexed": false,
          "name": "channelType",
          "type": "address"
        }
      ],
      "name": "ChannelInitiated",
      "type": "event",
      "signature": "0x25cf3599109edb1e430fb6b67729a3e2d50143f7f06d41c5140504803919c1a2"
    },
    {
      "anonymous": false,
      "inputs": [
        {
          "indexed": false,
          "name": "channelId",
          "type": "uint256"
        },
        {
          "indexed": true,
          "name": "creator",
          "type": "address"
        },
        {
          "indexed": true,
          "name": "opponent",
          "type": "address"
        },
        {
          "indexed": false,
          "name": "channelType",
          "type": "address"
        }
      ],
      "name": "ChannelFunded",
      "type": "event",
      "signature": "0x4dfda6d827dbbd24a80219af6691c8a622c86a3353bc5f5f67231f60958dd54b"
    },
    {
      "constant": false,
      "inputs": [
        {
          "name": "channelType",
          "type": "address"
        },
        {
          "name": "opponent",
          "type": "address"
        },
        {
          "name": "stake",
          "type": "uint256"
        },
        {
          "name": "initialGameAttributes",
          "type": "bytes"
        }
      ],
      "name": "initiateChannel",
      "outputs": [],
      "payable": true,
      "stateMutability": "payable",
      "type": "function",
      "signature": "0x77f526b4"
    },
    {
      "constant": false,
      "inputs": [
        {
          "name": "channelId",
          "type": "uint256"
        },
        {
          "name": "initialGameAttributes",
          "type": "bytes"
        }
      ],
      "name": "fundChannel",
      "outputs": [],
      "payable": true,
      "stateMutability": "payable",
      "type": "function",
      "signature": "0x9b8d757d"
    },
    {
      "constant": false,
      "inputs": [],
      "name": "makeDeposit",
      "outputs": [],
      "payable": true,
      "stateMutability": "payable",
      "type": "function",
      "signature": "0x40732c89"
    },
    {
      "constant": false,
      "inputs": [],
      "name": "retrieveDeposit",
      "outputs": [],
      "payable": true,
      "stateMutability": "payable",
      "type": "function",
      "signature": "0xe6139021"
    },
    {
      "constant": false,
      "inputs": [
        {
          "name": "channelId",
          "type": "uint256"
        },
        {
          "components": [
            {
              "name": "channelId",
              "type": "uint256"
            },
            {
              "name": "channelType",
              "type": "address"
            },
            {
              "name": "participants",
              "type": "address[]"
            },
            {
              "name": "turnNum",
              "type": "uint256"
            },
            {
              "name": "gameAttributes",
              "type": "bytes"
            }
          ],
          "name": "initialState",
          "type": "tuple"
        }
      ],
      "name": "forceFirstMove",
      "outputs": [],
      "payable": false,
      "stateMutability": "nonpayable",
      "type": "function",
      "signature": "0x43713580"
    },
    {
      "constant": false,
      "inputs": [
        {
          "name": "channelId",
          "type": "uint256"
        },
        {
          "components": [
            {
              "name": "channelId",
              "type": "uint256"
            },
            {
              "name": "channelType",
              "type": "address"
            },
            {
              "name": "participants",
              "type": "address[]"
            },
            {
              "name": "turnNum",
              "type": "uint256"
            },
            {
              "name": "gameAttributes",
              "type": "bytes"
            }
          ],
          "name": "fromState",
          "type": "tuple"
        },
        {
          "components": [
            {
              "name": "channelId",
              "type": "uint256"
            },
            {
              "name": "channelType",
              "type": "address"
            },
            {
              "name": "participants",
              "type": "address[]"
            },
            {
              "name": "turnNum",
              "type": "uint256"
            },
            {
              "name": "gameAttributes",
              "type": "bytes"
            }
          ],
          "name": "nextState",
          "type": "tuple"
        },
        {
          "name": "signatures",
          "type": "bytes[]"
        }
      ],
      "name": "forceMove",
      "outputs": [],
      "payable": false,
      "stateMutability": "nonpayable",
      "type": "function",
      "signature": "0x254d4f56"
    },
    {
      "constant": false,
      "inputs": [
        {
          "name": "channelId",
          "type": "uint256"
        },
        {
          "components": [
            {
              "name": "channelId",
              "type": "uint256"
            },
            {
              "name": "channelType",
              "type": "address"
            },
            {
              "name": "participants",
              "type": "address[]"
            },
            {
              "name": "turnNum",
              "type": "uint256"
            },
            {
              "name": "gameAttributes",
              "type": "bytes"
            }
          ],
          "name": "nextState",
          "type": "tuple"
        },
        {
          "name": "signature",
          "type": "bytes"
        }
      ],
      "name": "respondWithMove",
      "outputs": [],
      "payable": false,
      "stateMutability": "nonpayable",
      "type": "function",
      "signature": "0xd77533c1"
    },
    {
      "constant": false,
      "inputs": [
        {
          "name": "channelId",
          "type": "uint256"
        },
        {
          "components": [
            {
              "name": "channelId",
              "type": "uint256"
            },
            {
              "name": "channelType",
              "type": "address"
            },
            {
              "name": "participants",
              "type": "address[]"
            },
            {
              "name": "turnNum",
              "type": "uint256"
            },
            {
              "name": "gameAttributes",
              "type": "bytes"
            }
          ],
          "name": "alternativeState",
          "type": "tuple"
        },
        {
          "components": [
            {
              "name": "channelId",
              "type": "uint256"
            },
            {
              "name": "channelType",
              "type": "address"
            },
            {
              "name": "participants",
              "type": "address[]"
            },
            {
              "name": "turnNum",
              "type": "uint256"
            },
            {
              "name": "gameAttributes",
              "type": "bytes"
            }
          ],
          "name": "nextState",
          "type": "tuple"
        },
        {
          "name": "signatures",
          "type": "bytes[]"
        }
      ],
      "name": "alternativeRespondWithMove",
      "outputs": [],
      "payable": false,
      "stateMutability": "nonpayable",
      "type": "function",
      "signature": "0xc4eafa50"
    },
    {
      "constant": false,
      "inputs": [
        {
          "name": "channelId",
          "type": "uint256"
        },
        {
          "components": [
            {
              "name": "channelId",
              "type": "uint256"
            },
            {
              "name": "channelType",
              "type": "address"
            },
            {
              "name": "participants",
              "type": "address[]"
            },
            {
              "name": "turnNum",
              "type": "uint256"
            },
            {
              "name": "gameAttributes",
              "type": "bytes"
            }
          ],
          "name": "prevState",
          "type": "tuple"
        },
        {
          "components": [
            {
              "name": "channelId",
              "type": "uint256"
            },
            {
              "name": "channelType",
              "type": "address"
            },
            {
              "name": "participants",
              "type": "address[]"
            },
            {
              "name": "turnNum",
              "type": "uint256"
            },
            {
              "name": "gameAttributes",
              "type": "bytes"
            }
          ],
          "name": "lastState",
          "type": "tuple"
        },
        {
          "name": "signatures",
          "type": "bytes[]"
        }
      ],
      "name": "conclude",
      "outputs": [],
      "payable": false,
      "stateMutability": "nonpayable",
      "type": "function",
      "signature": "0x07494ed9"
    },
    {
      "constant": false,
      "inputs": [
        {
          "name": "channelId",
          "type": "uint256"
        }
      ],
      "name": "withdraw",
      "outputs": [],
      "payable": false,
      "stateMutability": "nonpayable",
      "type": "function",
      "signature": "0x2e1a7d4d"
    },
    {
      "constant": true,
      "inputs": [
        {
          "name": "user",
          "type": "address"
        }
      ],
      "name": "hasDeposit",
      "outputs": [
        {
          "name": "",
          "type": "bool"
        }
      ],
      "payable": false,
      "stateMutability": "view",
      "type": "function",
      "signature": "0x1c48c7ec"
    },
    {
      "constant": true,
      "inputs": [
        {
          "name": "channelId",
          "type": "uint256"
        }
      ],
      "name": "getChannel",
      "outputs": [
        {
          "components": [
            {
              "name": "channelId",
              "type": "uint256"
            },
            {
              "name": "channelType",
              "type": "address"
            },
            {
              "name": "stake",
              "type": "uint256"
            },
            {
              "name": "players",
              "type": "address[2]"
            },
            {
              "name": "initialArgumentsHash",
              "type": "bytes32"
            },
            {
              "name": "state",
              "type": "uint8"
            },
            {
              "components": [
                {
                  "components": [
                    {
                      "name": "channelId",
                      "type": "uint256"
                    },
                    {
                      "name": "channelType",
                      "type": "address"
                    },
                    {
                      "name": "participants",
                      "type": "address[]"
                    },
                    {
                      "name": "turnNum",
                      "type": "uint256"
                    },
                    {
                      "name": "gameAttributes",
                      "type": "bytes"
                    }
                  ],
                  "name": "state",
                  "type": "tuple"
                },
                {
                  "name": "expirationTime",
                  "type": "uint32"
                },
                {
                  "name": "winner",
                  "type": "address"
                }
              ],
              "name": "forceMoveChallenge",
              "type": "tuple"
            },
            {
              "components": [
                {
                  "name": "owner",
                  "type": "address"
                },
                {
                  "name": "challenger",
                  "type": "address"
                },
                {
                  "name": "txHash",
                  "type": "bytes32"
                },
                {
                  "name": "challengingBlockNumber",
                  "type": "uint256"
                }
              ],
              "name": "plasmaChallenge",
              "type": "tuple"
            }
          ],
          "name": "",
          "type": "tuple"
        }
      ],
      "payable": false,
      "stateMutability": "view",
      "type": "function",
      "signature": "0x10df54a0"
    }
  ],
  "bytecode": "0x608060405234801561001057600080fd5b50614ff6806100206000396000f3fe6080604052600436106100c4576000357c010000000000000000000000000000000000000000000000000000000090048063437135801161008157806343713580146101fe57806377f526b4146102275780639b8d757d14610243578063c4eafa501461025f578063d77533c114610288578063e6139021146102b1576100c4565b806307494ed9146100ff57806310df54a0146101285780631c48c7ec14610165578063254d4f56146101a25780632e1a7d4d146101cb57806340732c89146101f4575b6040517f08c379a00000000000000000000000000000000000000000000000000000000081526004016100f6906149c6565b60405180910390fd5b34801561010b57600080fd5b5061012660048036036101219190810190613b44565b6102bb565b005b34801561013457600080fd5b5061014f600480360361014a91908101906139f4565b6103ff565b60405161015c9190614b26565b60405180910390f35b34801561017157600080fd5b5061018c600480360361018791908101906138fe565b61085e565b60405161019991906147c9565b60405180910390f35b3480156101ae57600080fd5b506101c960048036036101c49190810190613b44565b6108b4565b005b3480156101d757600080fd5b506101f260048036036101ed91908101906139f4565b6109ce565b005b6101fc610c18565b005b34801561020a57600080fd5b5061022560048036036102209190810190613a71565b610d94565b005b610241600480360361023c9190810190613950565b610ea8565b005b61025d60048036036102589190810190613a1d565b61152e565b005b34801561026b57600080fd5b5061028660048036036102819190810190613b44565b611a52565b005b34801561029457600080fd5b506102af60048036036102aa9190810190613ac5565b611bde565b005b6102b9611cf3565b005b83600080600083815260200190815260200160002060000154111515610316576040517f08c379a000000000000000000000000000000000000000000000000000000000815260040161030d90614926565b60405180910390fd5b600360003373ffffffffffffffffffffffffffffffffffffffff1673ffffffffffffffffffffffffffffffffffffffff16815260200190815260200160002060009054906101000a900460ff1615156103a4576040517f08c379a000000000000000000000000000000000000000000000000000000000815260040161039b90614ac6565b60405180910390fd5b600080600087815260200190815260200160002090506103d185858584611eb5909392919063ffffffff16565b60038160060160006101000a81548160ff021916908360048111156103f257fe5b0217905550505050505050565b610407613222565b6000808381526020019081526020016000206101006040519081016040529081600082015481526020016001820160009054906101000a900473ffffffffffffffffffffffffffffffffffffffff1673ffffffffffffffffffffffffffffffffffffffff1673ffffffffffffffffffffffffffffffffffffffff1681526020016002820154815260200160038201600280602002604051908101604052809291908260028015610502576020028201915b8160009054906101000a900473ffffffffffffffffffffffffffffffffffffffff1673ffffffffffffffffffffffffffffffffffffffff16815260200190600101908083116104b8575b50505050508152602001600582015481526020016006820160009054906101000a900460ff16600481111561053357fe5b600481111561053e57fe5b815260200160078201606060405190810160405290816000820160a06040519081016040529081600082015481526020016001820160009054906101000a900473ffffffffffffffffffffffffffffffffffffffff1673ffffffffffffffffffffffffffffffffffffffff1673ffffffffffffffffffffffffffffffffffffffff1681526020016002820180548060200260200160405190810160405280929190818152602001828054801561064957602002820191906000526020600020905b8160009054906101000a900473ffffffffffffffffffffffffffffffffffffffff1673ffffffffffffffffffffffffffffffffffffffff16815260200190600101908083116105ff575b5050505050815260200160038201548152602001600482018054600181600116156101000203166002900480601f0160208091040260200160405190810160405280929190818152602001828054600181600116156101000203166002900480156106f55780601f106106ca576101008083540402835291602001916106f5565b820191906000526020600020905b8154815290600101906020018083116106d857829003601f168201915b50505050508152505081526020016005820160009054906101000a900463ffffffff1663ffffffff1663ffffffff1681526020016005820160049054906101000a900473ffffffffffffffffffffffffffffffffffffffff1673ffffffffffffffffffffffffffffffffffffffff1673ffffffffffffffffffffffffffffffffffffffff16815250508152602001600d8201608060405190810160405290816000820160009054906101000a900473ffffffffffffffffffffffffffffffffffffffff1673ffffffffffffffffffffffffffffffffffffffff1673ffffffffffffffffffffffffffffffffffffffff1681526020016001820160009054906101000a900473ffffffffffffffffffffffffffffffffffffffff1673ffffffffffffffffffffffffffffffffffffffff1673ffffffffffffffffffffffffffffffffffffffff16815260200160028201548152602001600382015481525050815250509050919050565b6000600360008373ffffffffffffffffffffffffffffffffffffffff1673ffffffffffffffffffffffffffffffffffffffff16815260200190815260200160002060009054906101000a900460ff169050919050565b8360008060008381526020019081526020016000206000015411151561090f576040517f08c379a000000000000000000000000000000000000000000000000000000000815260040161090690614926565b60405180910390fd5b600360003373ffffffffffffffffffffffffffffffffffffffff1673ffffffffffffffffffffffffffffffffffffffff16815260200190815260200160002060009054906101000a900460ff16151561099d576040517f08c379a000000000000000000000000000000000000000000000000000000000815260040161099490614ac6565b60405180910390fd5b6109c7848433856000808b815260200190815260200160002061216990949392919063ffffffff16565b5050505050565b80600080600083815260200190815260200160002060000154111515610a29576040517f08c379a0000000000000000000000000000000000000000000000000000000008152600401610a2090614926565b60405180910390fd5b6000806000848152602001908152602001600020905060036004811115610a4c57fe5b8160060160009054906101000a900460ff166004811115610a6957fe5b141515610aab576040517f08c379a0000000000000000000000000000000000000000000000000000000008152600401610aa290614826565b60405180910390fd5b60048160060160006101000a81548160ff02191690836004811115610acc57fe5b0217905550610b4b60026000836003016000600281101515610aea57fe5b0160009054906101000a900473ffffffffffffffffffffffffffffffffffffffff1673ffffffffffffffffffffffffffffffffffffffff1673ffffffffffffffffffffffffffffffffffffffff1681526020019081526020016000206123df565b610bc560026000836003016001600281101515610b6457fe5b0160009054906101000a900473ffffffffffffffffffffffffffffffffffffffff1673ffffffffffffffffffffffffffffffffffffffff1673ffffffffffffffffffffffffffffffffffffffff1681526020019081526020016000206123df565b3373ffffffffffffffffffffffffffffffffffffffff166108fc60028360020154029081150290604051600060405180830381858888f19350505050158015610c12573d6000803e3d6000fd5b50505050565b67016345785d8a0000600081111515610c66576040517f08c379a0000000000000000000000000000000000000000000000000000000008152600401610c5d90614846565b60405180910390fd5b3481141515610caa576040517f08c379a0000000000000000000000000000000000000000000000000000000008152600401610ca190614ae6565b60405180910390fd5b600360003373ffffffffffffffffffffffffffffffffffffffff1673ffffffffffffffffffffffffffffffffffffffff16815260200190815260200160002060009054906101000a900460ff16151515610d39576040517f08c379a0000000000000000000000000000000000000000000000000000000008152600401610d3090614886565b60405180910390fd5b6001600360003373ffffffffffffffffffffffffffffffffffffffff1673ffffffffffffffffffffffffffffffffffffffff16815260200190815260200160002060006101000a81548160ff02191690831515021790555050565b81600080600083815260200190815260200160002060000154111515610def576040517f08c379a0000000000000000000000000000000000000000000000000000000008152600401610de690614926565b60405180910390fd5b600360003373ffffffffffffffffffffffffffffffffffffffff1673ffffffffffffffffffffffffffffffffffffffff16815260200190815260200160002060009054906101000a900460ff161515610e7d576040517f08c379a0000000000000000000000000000000000000000000000000000000008152600401610e7490614ac6565b60405180910390fd5b610ea382336000808781526020019081526020016000206124029092919063ffffffff16565b505050565b81600081111515610eee576040517f08c379a0000000000000000000000000000000000000000000000000000000008152600401610ee590614846565b60405180910390fd5b3481141515610f32576040517f08c379a0000000000000000000000000000000000000000000000000000000008152600401610f2990614ae6565b60405180910390fd5b600360003373ffffffffffffffffffffffffffffffffffffffff1673ffffffffffffffffffffffffffffffffffffffff16815260200190815260200160002060009054906101000a900460ff161515610fc0576040517f08c379a0000000000000000000000000000000000000000000000000000000008152600401610fb790614ac6565b60405180910390fd5b8473ffffffffffffffffffffffffffffffffffffffff166308487b52836040518263ffffffff167c010000000000000000000000000000000000000000000000000000000002815260040161101591906147e4565b60006040518083038186803b15801561102d57600080fd5b505afa158015611041573d6000803e3d6000fd5b5050505061104f600161259a565b600061105b60016125b0565b905061106561329e565b3381600060028110151561107557fe5b602002019073ffffffffffffffffffffffffffffffffffffffff16908173ffffffffffffffffffffffffffffffffffffffff1681525050858160016002811015156110bc57fe5b602002019073ffffffffffffffffffffffffffffffffffffffff16908173ffffffffffffffffffffffffffffffffffffffff168152505061113a600260003373ffffffffffffffffffffffffffffffffffffffff1673ffffffffffffffffffffffffffffffffffffffff16815260200190815260200160002061259a565b6111426132c0565b61114a613304565b610100604051908101604052808581526020018a73ffffffffffffffffffffffffffffffffffffffff168152602001888152602001848152602001878051906020012081526020016000600481111561119f57fe5b8152602001838152602001828152506000808681526020019081526020016000206000820151816000015560208201518160010160006101000a81548173ffffffffffffffffffffffffffffffffffffffff021916908373ffffffffffffffffffffffffffffffffffffffff1602179055506040820151816002015560608201518160030190600261123292919061335c565b506080820151816005015560a08201518160060160006101000a81548160ff0219169083600481111561126157fe5b021790555060c0820151816007016000820151816000016000820151816000015560208201518160010160006101000a81548173ffffffffffffffffffffffffffffffffffffffff021916908373ffffffffffffffffffffffffffffffffffffffff16021790555060408201518160020190805190602001906112e59291906133d9565b5060608201518160030155608082015181600401908051906020019061130c929190613463565b50505060208201518160050160006101000a81548163ffffffff021916908363ffffffff16021790555060408201518160050160046101000a81548173ffffffffffffffffffffffffffffffffffffffff021916908373ffffffffffffffffffffffffffffffffffffffff160217905550505060e082015181600d0160008201518160000160006101000a81548173ffffffffffffffffffffffffffffffffffffffff021916908373ffffffffffffffffffffffffffffffffffffffff16021790555060208201518160010160006101000a81548173ffffffffffffffffffffffffffffffffffffffff021916908373ffffffffffffffffffffffffffffffffffffffff160217905550604082015181600201556060820151816003015550509050508773ffffffffffffffffffffffffffffffffffffffff163373ffffffffffffffffffffffffffffffffffffffff167f25cf3599109edb1e430fb6b67729a3e2d50143f7f06d41c5140504803919c1a2868c60405161148e929190614c69565b60405180910390a38873ffffffffffffffffffffffffffffffffffffffff166332a4b4eb8588338c6040518563ffffffff167c01000000000000000000000000000000000000000000000000000000000281526004016114f19493929190614c92565b600060405180830381600087803b15801561150b57600080fd5b505af115801561151f573d6000803e3d6000fd5b50505050505050505050505050565b81600080600083815260200190815260200160002060000154111515611589576040517f08c379a000000000000000000000000000000000000000000000000000000000815260040161158090614926565b60405180910390fd5b600360003373ffffffffffffffffffffffffffffffffffffffff1673ffffffffffffffffffffffffffffffffffffffff16815260200190815260200160002060009054906101000a900460ff161515611617576040517f08c379a000000000000000000000000000000000000000000000000000000000815260040161160e90614ac6565b60405180910390fd5b600080600085815260200190815260200160002090506000600481111561163a57fe5b8160060160009054906101000a900460ff16600481111561165757fe5b141515611699576040517f08c379a000000000000000000000000000000000000000000000000000000000815260040161169090614986565b60405180910390fd5b3373ffffffffffffffffffffffffffffffffffffffff168160030160016002811015156116c257fe5b0160009054906101000a900473ffffffffffffffffffffffffffffffffffffffff1673ffffffffffffffffffffffffffffffffffffffff1614151561173c576040517f08c379a000000000000000000000000000000000000000000000000000000000815260040161173390614a66565b60405180910390fd5b348160020154141515611784576040517f08c379a000000000000000000000000000000000000000000000000000000000815260040161177b906148e6565b60405180910390fd5b828051906020012081600501541415156117d3576040517f08c379a00000000000000000000000000000000000000000000000000000000081526004016117ca90614a86565b60405180910390fd5b60018160060160006101000a81548160ff021916908360048111156117f457fe5b0217905550611840600260003373ffffffffffffffffffffffffffffffffffffffff1673ffffffffffffffffffffffffffffffffffffffff16815260200190815260200160002061259a565b80600301600160028110151561185257fe5b0160009054906101000a900473ffffffffffffffffffffffffffffffffffffffff1673ffffffffffffffffffffffffffffffffffffffff1681600301600060028110151561189c57fe5b0160009054906101000a900473ffffffffffffffffffffffffffffffffffffffff1673ffffffffffffffffffffffffffffffffffffffff167f4dfda6d827dbbd24a80219af6691c8a622c86a3353bc5f5f67231f60958dd54b83600001548460010160009054906101000a900473ffffffffffffffffffffffffffffffffffffffff1660405161192d929190614c69565b60405180910390a38060010160009054906101000a900473ffffffffffffffffffffffffffffffffffffffff1673ffffffffffffffffffffffffffffffffffffffff1663afb531c1858584600301600060028110151561198957fe5b0160009054906101000a900473ffffffffffffffffffffffffffffffffffffffff168560030160016002811015156119bd57fe5b0160009054906101000a900473ffffffffffffffffffffffffffffffffffffffff166040518563ffffffff167c0100000000000000000000000000000000000000000000000000000000028152600401611a1a9493929190614cde565b600060405180830381600087803b158015611a3457600080fd5b505af1158015611a48573d6000803e3d6000fd5b5050505050505050565b83600080600083815260200190815260200160002060000154111515611aad576040517f08c379a0000000000000000000000000000000000000000000000000000000008152600401611aa490614926565b60405180910390fd5b600360003373ffffffffffffffffffffffffffffffffffffffff1673ffffffffffffffffffffffffffffffffffffffff16815260200190815260200160002060009054906101000a900460ff161515611b3b576040517f08c379a0000000000000000000000000000000000000000000000000000000008152600401611b3290614ac6565b60405180910390fd5b60008086815260200190815260200160002073__Adjudicators__________________________630f9c940390918686866040518563ffffffff167c0100000000000000000000000000000000000000000000000000000000028152600401611ba79493929190614b48565b60006040518083038186803b158015611bbf57600080fd5b505af4158015611bd3573d6000803e3d6000fd5b505050505050505050565b82600080600083815260200190815260200160002060000154111515611c39576040517f08c379a0000000000000000000000000000000000000000000000000000000008152600401611c3090614926565b60405180910390fd5b600360003373ffffffffffffffffffffffffffffffffffffffff1673ffffffffffffffffffffffffffffffffffffffff16815260200190815260200160002060009054906101000a900460ff161515611cc7576040517f08c379a0000000000000000000000000000000000000000000000000000000008152600401611cbe90614ac6565b60405180910390fd5b611ced83836000808881526020019081526020016000206125be9092919063ffffffff16565b50505050565b600360003373ffffffffffffffffffffffffffffffffffffffff1673ffffffffffffffffffffffffffffffffffffffff16815260200190815260200160002060009054906101000a900460ff161515611d81576040517f08c379a0000000000000000000000000000000000000000000000000000000008152600401611d7890614ac6565b60405180910390fd5b6000611dca600260003373ffffffffffffffffffffffffffffffffffffffff1673ffffffffffffffffffffffffffffffffffffffff1681526020019081526020016000206125b0565b141515611e0c576040517f08c379a0000000000000000000000000000000000000000000000000000000008152600401611e0390614966565b60405180910390fd5b6000600360003373ffffffffffffffffffffffffffffffffffffffff1673ffffffffffffffffffffffffffffffffffffffff16815260200190815260200160002060006101000a81548160ff0219169083151502179055503373ffffffffffffffffffffffffffffffffffffffff166108fc67016345785d8a00009081150290604051600060405180830381858888f19350505050158015611eb2573d6000803e3d6000fd5b50565b83611ebf816128c5565b151515611f01576040517f08c379a0000000000000000000000000000000000000000000000000000000008152600401611ef890614a46565b60405180910390fd5b846001806004811115611f1057fe5b8260060160009054906101000a900460ff166004811115611f2d57fe5b141515611f6f576040517f08c379a0000000000000000000000000000000000000000000000000000000008152600401611f66906148a6565b60405180910390fd5b868680600001518260000154141515611fbd576040517f08c379a0000000000000000000000000000000000000000000000000000000008152600401611fb4906149a6565b60405180910390fd5b611fc88888886128ee565b8673__State_________________________________63e563190090916040518263ffffffff167c010000000000000000000000000000000000000000000000000000000002815260040161201d9190614ba2565b60206040518083038186803b15801561203557600080fd5b505af4158015612049573d6000803e3d6000fd5b505050506040513d601f19601f8201168201806040525061206d91908101906139cb565b15156120ae576040517f08c379a00000000000000000000000000000000000000000000000000000000081526004016120a590614806565b60405180910390fd5b61215e8942898a73__State_________________________________63bb60e9c990916040518263ffffffff167c01000000000000000000000000000000000000000000000000000000000281526004016121099190614ba2565b60206040518083038186803b15801561212157600080fd5b505af4158015612135573d6000803e3d6000fd5b505050506040513d601f19601f820116820180604052506121599190810190613927565b612a3b565b505050505050505050565b8461217381612ce7565b1515156121b5576040517f08c379a00000000000000000000000000000000000000000000000000000000081526004016121ac90614a06565b60405180910390fd5b8560018060048111156121c457fe5b8260060160009054906101000a900460ff1660048111156121e157fe5b141515612223576040517f08c379a000000000000000000000000000000000000000000000000000000000815260040161221a906148a6565b60405180910390fd5b878780600001518260000154141515612271576040517f08c379a0000000000000000000000000000000000000000000000000000000008152600401612268906149a6565b60405180910390fd5b600086600081518110151561228257fe5b906020019060200201515114156123b757612309898b60030160006002811015156122a957fe5b0160009054906101000a900473ffffffffffffffffffffffffffffffffffffffff168c60030160016002811015156122dd57fe5b0160009054906101000a900473ffffffffffffffffffffffffffffffffffffffff168d60050154612d10565b8773__State_________________________________63654fc67d909188600181518110151561233557fe5b906020019060200201516040518363ffffffff167c0100000000000000000000000000000000000000000000000000000000028152600401612378929190614bc4565b60006040518083038186803b15801561239057600080fd5b505af41580156123a4573d6000803e3d6000fd5b505050506123b28989612f21565b6123c3565b6123c28989886128ee565b5b6123d38a61025842018a8a612a3b565b50505050505050505050565b6123f7600182600001546131d690919063ffffffff16565b816000018190555050565b8261240c81612ce7565b15151561244e576040517f08c379a000000000000000000000000000000000000000000000000000000000815260040161244590614a06565b60405180910390fd5b83600180600481111561245d57fe5b8260060160009054906101000a900460ff16600481111561247a57fe5b1415156124bc576040517f08c379a00000000000000000000000000000000000000000000000000000000081526004016124b3906148a6565b60405180910390fd5b85858060000151826000015414151561250a576040517f08c379a0000000000000000000000000000000000000000000000000000000008152600401612501906149a6565b60405180910390fd5b6125808789600301600060028110151561252057fe5b0160009054906101000a900473ffffffffffffffffffffffffffffffffffffffff168a600301600160028110151561255457fe5b0160009054906101000a900473ffffffffffffffffffffffffffffffffffffffff168b60050154612d10565b6125908861025842018989612a3b565b5050505050505050565b6001816000016000828254019250508190555050565b600081600001549050919050565b826125c8816128c5565b1515612609576040517f08c379a000000000000000000000000000000000000000000000000000000000815260040161260090614a46565b60405180910390fd5b83600180600481111561261857fe5b8260060160009054906101000a900460ff16600481111561263557fe5b141515612677576040517f08c379a000000000000000000000000000000000000000000000000000000000815260040161266e906148a6565b60405180910390fd5b8473__State_________________________________63654fc67d9091866040518363ffffffff167c01000000000000000000000000000000000000000000000000000000000281526004016126ce929190614bfb565b60006040518083038186803b1580156126e657600080fd5b505af41580156126fa573d6000803e3d6000fd5b505050506128b48660070160000160a06040519081016040529081600082015481526020016001820160009054906101000a900473ffffffffffffffffffffffffffffffffffffffff1673ffffffffffffffffffffffffffffffffffffffff1673ffffffffffffffffffffffffffffffffffffffff168152602001600282018054806020026020016040519081016040528092919081815260200182805480156127f957602002820191906000526020600020905b8160009054906101000a900473ffffffffffffffffffffffffffffffffffffffff1673ffffffffffffffffffffffffffffffffffffffff16815260200190600101908083116127af575b5050505050815260200160038201548152602001600482018054600181600116156101000203166002900480601f0160208091040260200160405190810160405280929190818152602001828054600181600116156101000203166002900480156128a55780601f1061287a576101008083540402835291602001916128a5565b820191906000526020600020905b81548152906001019060200180831161288857829003601f168201915b50505050508152505086612f21565b6128bd866131f8565b505050505050565b6000428260070160050160009054906101000a900463ffffffff1663ffffffff16119050919050565b8273__State_________________________________63654fc67d909183600081518110151561291a57fe5b906020019060200201516040518363ffffffff167c010000000000000000000000000000000000000000000000000000000002815260040161295d929190614bc4565b60006040518083038186803b15801561297557600080fd5b505af4158015612989573d6000803e3d6000fd5b505050508173__State_________________________________63654fc67d90918360018151811015156129b957fe5b906020019060200201516040518363ffffffff167c01000000000000000000000000000000000000000000000000000000000281526004016129fc929190614bc4565b60006040518083038186803b158015612a1457600080fd5b505af4158015612a28573d6000803e3d6000fd5b50505050612a368383612f21565b505050565b81846007016000016000820151816000015560208201518160010160006101000a81548173ffffffffffffffffffffffffffffffffffffffff021916908373ffffffffffffffffffffffffffffffffffffffff1602179055506040820151816002019080519060200190612ab09291906133d9565b50606082015181600301556080820151816004019080519060200190612ad7929190613463565b50905050828460070160050160006101000a81548163ffffffff021916908363ffffffff1602179055508173__State_________________________________63e563190090916040518263ffffffff167c0100000000000000000000000000000000000000000000000000000000028152600401612b569190614ba2565b60206040518083038186803b158015612b6e57600080fd5b505af4158015612b82573d6000803e3d6000fd5b505050506040513d601f19601f82011682018060405250612ba691908101906139cb565b15612c9a578173__State_________________________________63bb60e9c990916040518263ffffffff167c0100000000000000000000000000000000000000000000000000000000028152600401612c009190614ba2565b60206040518083038186803b158015612c1857600080fd5b505af4158015612c2c573d6000803e3d6000fd5b505050506040513d601f19601f82011682018060405250612c509190810190613927565b8460070160050160046101000a81548173ffffffffffffffffffffffffffffffffffffffff021916908373ffffffffffffffffffffffffffffffffffffffff160217905550612ce1565b808460070160050160046101000a81548173ffffffffffffffffffffffffffffffffffffffff021916908373ffffffffffffffffffffffffffffffffffffffff1602179055505b50505050565b6000808260070160050160009054906101000a900463ffffffff1663ffffffff16119050919050565b60008460600151141515612d59576040517f08c379a0000000000000000000000000000000000000000000000000000000008152600401612d50906148c6565b60405180910390fd5b8273ffffffffffffffffffffffffffffffffffffffff1684604001516000815181101515612d8357fe5b9060200190602002015173ffffffffffffffffffffffffffffffffffffffff16141515612de5576040517f08c379a0000000000000000000000000000000000000000000000000000000008152600401612ddc90614946565b60405180910390fd5b8173ffffffffffffffffffffffffffffffffffffffff1684604001516001815181101515612e0f57fe5b9060200190602002015173ffffffffffffffffffffffffffffffffffffffff16141515612e71576040517f08c379a0000000000000000000000000000000000000000000000000000000008152600401612e6890614a26565b60405180910390fd5b83608001516040518082805190602001908083835b602083101515612eab5780518252602082019150602081019050602083039250612e86565b6001836020036101000a038019825116818451168082178552505050505050905001915050604051809103902081141515612f1b576040517f08c379a0000000000000000000000000000000000000000000000000000000008152600401612f12906149e6565b60405180910390fd5b50505050565b81600001518160000151141515612f6d576040517f08c379a0000000000000000000000000000000000000000000000000000000008152600401612f6490614b06565b60405180910390fd5b60018260600151018160600151141515612fbc576040517f08c379a0000000000000000000000000000000000000000000000000000000008152600401612fb390614906565b60405180910390fd5b816020015173ffffffffffffffffffffffffffffffffffffffff16816020015173ffffffffffffffffffffffffffffffffffffffff16141515613034576040517f08c379a000000000000000000000000000000000000000000000000000000000815260040161302b90614aa6565b60405180910390fd5b8160400151600081518110151561304757fe5b9060200190602002015173ffffffffffffffffffffffffffffffffffffffff168160400151600081518110151561307a57fe5b9060200190602002015173ffffffffffffffffffffffffffffffffffffffff1614801561310a5750816040015160018151811015156130b557fe5b9060200190602002015173ffffffffffffffffffffffffffffffffffffffff16816040015160018151811015156130e857fe5b9060200190602002015173ffffffffffffffffffffffffffffffffffffffff16145b151561314b576040517f08c379a000000000000000000000000000000000000000000000000000000000815260040161314290614866565b60405180910390fd5b8173__State_________________________________63eb4f60419091836040518363ffffffff167c01000000000000000000000000000000000000000000000000000000000281526004016131a2929190614c32565b60006040518083038186803b1580156131ba57600080fd5b505af41580156131ce573d6000803e3d6000fd5b505050505050565b60008282111515156131e757600080fd5b600082840390508091505092915050565b60008160070160050160006101000a81548163ffffffff021916908363ffffffff16021790555050565b6102406040519081016040528060008152602001600073ffffffffffffffffffffffffffffffffffffffff168152602001600081526020016132626134e3565b8152602001600080191681526020016000600481111561327e57fe5b815260200161328b613505565b8152602001613298613549565b81525090565b6040805190810160405280600290602082028038833980820191505090505090565b60e0604051908101604052806132d46135a1565b8152602001600063ffffffff168152602001600073ffffffffffffffffffffffffffffffffffffffff1681525090565b608060405190810160405280600073ffffffffffffffffffffffffffffffffffffffff168152602001600073ffffffffffffffffffffffffffffffffffffffff16815260200160008019168152602001600081525090565b82600281019282156133c8579160200282015b828111156133c75782518260006101000a81548173ffffffffffffffffffffffffffffffffffffffff021916908373ffffffffffffffffffffffffffffffffffffffff1602179055509160200191906001019061336f565b5b5090506133d591906135e7565b5090565b828054828255906000526020600020908101928215613452579160200282015b828111156134515782518260006101000a81548173ffffffffffffffffffffffffffffffffffffffff021916908373ffffffffffffffffffffffffffffffffffffffff160217905550916020019190600101906133f9565b5b50905061345f91906135e7565b5090565b828054600181600116156101000203166002900490600052602060002090601f016020900481019282601f106134a457805160ff19168380011785556134d2565b828001600101855582156134d2579182015b828111156134d15782518255916020019190600101906134b6565b5b5090506134df919061362a565b5090565b6040805190810160405280600290602082028038833980820191505090505090565b60e0604051908101604052806135196135a1565b8152602001600063ffffffff168152602001600073ffffffffffffffffffffffffffffffffffffffff1681525090565b608060405190810160405280600073ffffffffffffffffffffffffffffffffffffffff168152602001600073ffffffffffffffffffffffffffffffffffffffff16815260200160008019168152602001600081525090565b60a06040519081016040528060008152602001600073ffffffffffffffffffffffffffffffffffffffff1681526020016060815260200160008152602001606081525090565b61362791905b8082111561362357600081816101000a81549073ffffffffffffffffffffffffffffffffffffffff0219169055506001016135ed565b5090565b90565b61364c91905b80821115613648576000816000905550600101613630565b5090565b90565b600061365b8235614ef9565b905092915050565b600061366f8251614ef9565b905092915050565b600082601f830112151561368a57600080fd5b813561369d61369882614d57565b614d2a565b915081818352602084019350602081019050838560208402820111156136c257600080fd5b60005b838110156136f257816136d8888261364f565b8452602084019350602083019250506001810190506136c5565b5050505092915050565b600082601f830112151561370f57600080fd5b813561372261371d82614d7f565b614d2a565b9150818183526020840193506020810190508360005b83811015613768578135860161374e8882613786565b845260208401935060208301925050600181019050613738565b5050505092915050565b600061377e8251614f0b565b905092915050565b600082601f830112151561379957600080fd5b81356137ac6137a782614da7565b614d2a565b915080825260208301602083018583830111156137c857600080fd5b6137d3838284614f69565b50505092915050565b600082601f83011215156137ef57600080fd5b81356138026137fd82614dd3565b614d2a565b9150808252602083016020830185838301111561381e57600080fd5b613829838284614f69565b50505092915050565b600060a0828403121561384457600080fd5b61384e60a0614d2a565b9050600061385e848285016138ea565b60008301525060206138728482850161364f565b602083015250604082013567ffffffffffffffff81111561389257600080fd5b61389e84828501613677565b60408301525060606138b2848285016138ea565b606083015250608082013567ffffffffffffffff8111156138d257600080fd5b6138de84828501613786565b60808301525092915050565b60006138f68235614f17565b905092915050565b60006020828403121561391057600080fd5b600061391e8482850161364f565b91505092915050565b60006020828403121561393957600080fd5b600061394784828501613663565b91505092915050565b6000806000806080858703121561396657600080fd5b60006139748782880161364f565b94505060206139858782880161364f565b9350506040613996878288016138ea565b925050606085013567ffffffffffffffff8111156139b357600080fd5b6139bf878288016137dc565b91505092959194509250565b6000602082840312156139dd57600080fd5b60006139eb84828501613772565b91505092915050565b600060208284031215613a0657600080fd5b6000613a14848285016138ea565b91505092915050565b60008060408385031215613a3057600080fd5b6000613a3e858286016138ea565b925050602083013567ffffffffffffffff811115613a5b57600080fd5b613a67858286016137dc565b9150509250929050565b60008060408385031215613a8457600080fd5b6000613a92858286016138ea565b925050602083013567ffffffffffffffff811115613aaf57600080fd5b613abb85828601613832565b9150509250929050565b600080600060608486031215613ada57600080fd5b6000613ae8868287016138ea565b935050602084013567ffffffffffffffff811115613b0557600080fd5b613b1186828701613832565b925050604084013567ffffffffffffffff811115613b2e57600080fd5b613b3a868287016137dc565b9150509250925092565b60008060008060808587031215613b5a57600080fd5b6000613b68878288016138ea565b945050602085013567ffffffffffffffff811115613b8557600080fd5b613b9187828801613832565b935050604085013567ffffffffffffffff811115613bae57600080fd5b613bba87828801613832565b925050606085013567ffffffffffffffff811115613bd757600080fd5b613be3878288016136fc565b91505092959194509250565b613bf881614f21565b82525050565b613c0781614e81565b82525050565b613c1681614e81565b82525050565b613c2581614e23565b613c2e82614dff565b60005b82811015613c6057613c44858351613bfe565b613c4d82614e5a565b9150602085019450600181019050613c31565b5050505050565b6000613c7282614e2e565b808452602084019350613c8483614e09565b60005b82811015613cb657613c9a868351613bfe565b613ca382614e67565b9150602086019550600181019050613c87565b50849250505092915050565b6000613ccd82614e2e565b808452602084019350613cdf83614e09565b60005b82811015613d1157613cf5868351613c0d565b613cfe82614e67565b9150602086019550600181019050613ce2565b50849250505092915050565b6000613d2882614e39565b80845260208401935083602082028501613d4185614e16565b60005b84811015613d7a578383038852613d5c838351613e4b565b9250613d6782614e74565b9150602088019750600181019050613d44565b508196508694505050505092915050565b613d9481614e93565b82525050565b613da381614e9f565b82525050565b6000613db482614e4f565b808452613dc8816020860160208601614f78565b613dd181614fab565b602085010191505092915050565b6000613dea82614e4f565b808452613dfe816020860160208601614f78565b613e0781614fab565b602085010191505092915050565b6000613e2082614e44565b808452613e34816020860160208601614f78565b613e3d81614fab565b602085010191505092915050565b6000613e5682614e44565b808452613e6a816020860160208601614f78565b613e7381614fab565b602085010191505092915050565b613e8a81614f33565b82525050565b6000602482527f556c74696d617465205374617465206d75737420626520612066696e616c207360208301527f74617465000000000000000000000000000000000000000000000000000000006040830152606082019050919050565b6000601682527f4368616e6e656c206d75737420626520636c6f736564000000000000000000006020830152604082019050919050565b6000601c82527f5374616b65206d7573742062652067726561746572207468616e2030000000006020830152604082019050919050565b6000601c82527f506c6179657273206d7573742072656d61696e207468652073616d65000000006020830152604082019050919050565b6000601c82527f53656e64657220616c7265616479206469642061206465706f736974000000006020830152604082019050919050565b6000601782527f496e636f7272656374206368616e6e656c2073746174650000000000000000006020830152604082019050919050565b6000601482527f4669727374207475726e206d75737420626520300000000000000000000000006020830152604082019050919050565b6000602682527f5061796d656e74206d75737420626520657175616c20746f206368616e6e656c60208301527f207374616b6500000000000000000000000000000000000000000000000000006040830152606082019050919050565b6000602e82527f496e76616c6964207472616e736974696f6e3a207475726e4e756d206d75737460208301527f20696e63726561736520627920310000000000000000000000000000000000006040830152606082019050919050565b6000602082527f4368616e6e656c20686173206e6f7420796574206265656e20637265617465646020830152604082019050919050565b6000601982527f537461746520706c6179657220697320696e636f7272656374000000000000006020830152604082019050919050565b6000601a82527f53656e6465722068617320616e206f70656e206368616e6e656c0000000000006020830152604082019050919050565b6000601982527f4368616e6e656c20697320616c72656164792066756e646564000000000000006020830152604082019050919050565b6000603482527f4368616e6e656c2773206368616e6e656c4964206d757374206d61746368207460208301527f68652073746174652773206368616e6e656c49640000000000000000000000006040830152606082019050919050565b6000603d82527f506c656173652073656e642066756e6473207573696e67207468652046756e6460208301527f4368616e6e656c206f72206d616b654465706f736974206d6574686f640000006040830152606082019050919050565b6000601d82527f496e697469616c2073746174657320646f6573206e6f74206d617463680000006020830152604082019050919050565b6000602582527f63757272656e74206368616c6c656e6765206d757374206e6f7420626520707260208301527f6573656e740000000000000000000000000000000000000000000000000000006040830152606082019050919050565b6000601b82527f5374617465206f70706f6e656e7420697320696e636f727265637400000000006020830152604082019050919050565b6000602082527f616374697665206368616c6c656e6765206d7573742062652070726573656e746020830152604082019050919050565b6000602982527f53656e646572206973206e6f74207061727469636970616e74206f662074686960208301527f73206368616e6e656c00000000000000000000000000000000000000000000006040830152606082019050919050565b6000601c82527f496e697469616c20737461746520646f6573206e6f74206d61746368000000006020830152604082019050919050565b6000602082527f4368616e6e656c54797065206d7573742072656d61696e207468652073616d656020830152604082019050919050565b6000603082527f596f75206d757374206d616b652061206465706f73697420746f20757365207460208301527f68652047616d65204368616e6e656c73000000000000000000000000000000006040830152606082019050919050565b6000601682527f496e76616c6964205061796d656e7420616d6f756e74000000000000000000006020830152604082019050919050565b6000603382527f496e76616c6964207472616e736974696f6e3a206368616e6e656c4964206d7560208301527f7374206d61746368206f6e20746f5374617465000000000000000000000000006040830152606082019050919050565b60006060830160008301518482036000860152614562828261471f565b915050602083015161457760208601826147ba565b50604083015161458a6040860182613bfe565b508091505092915050565b6080820160008201516145ab6000850182613bfe565b5060208201516145be6020850182613bfe565b5060408201516145d16040850182613d9a565b5060608201516145e4606085018261479c565b50505050565b600061018083016000830151614603600086018261479c565b5060208301516146166020860182613bfe565b506040830151614629604086018261479c565b50606083015161463c6060860182613c1c565b50608083015161464f60a0860182613d9a565b5060a083015161466260c0860182613e81565b5060c083015184820360e086015261467a8282614545565b91505060e0830151614690610100860182614595565b508091505092915050565b8082525050565b600060a0830160008301516146ba60008601826147ab565b5060208301516146cd6020860182613c0d565b50604083015184820360408601526146e58282613cc2565b91505060608301516146fa60608601826147ab565b50608083015184820360808601526147128282613e4b565b9150508091505092915050565b600060a083016000830151614737600086018261479c565b50602083015161474a6020860182613bfe565b50604083015184820360408601526147628282613c67565b9150506060830151614777606086018261479c565b506080830151848203608086015261478f8282613e15565b9150508091505092915050565b6147a581614edf565b82525050565b6147b481614edf565b82525050565b6147c381614ee9565b82525050565b60006020820190506147de6000830184613d8b565b92915050565b600060208201905081810360008301526147fe8184613da9565b905092915050565b6000602082019050818103600083015261481f81613e90565b9050919050565b6000602082019050818103600083015261483f81613eed565b9050919050565b6000602082019050818103600083015261485f81613f24565b9050919050565b6000602082019050818103600083015261487f81613f5b565b9050919050565b6000602082019050818103600083015261489f81613f92565b9050919050565b600060208201905081810360008301526148bf81613fc9565b9050919050565b600060208201905081810360008301526148df81614000565b9050919050565b600060208201905081810360008301526148ff81614037565b9050919050565b6000602082019050818103600083015261491f81614094565b9050919050565b6000602082019050818103600083015261493f816140f1565b9050919050565b6000602082019050818103600083015261495f81614128565b9050919050565b6000602082019050818103600083015261497f8161415f565b9050919050565b6000602082019050818103600083015261499f81614196565b9050919050565b600060208201905081810360008301526149bf816141cd565b9050919050565b600060208201905081810360008301526149df8161422a565b9050919050565b600060208201905081810360008301526149ff81614287565b9050919050565b60006020820190508181036000830152614a1f816142be565b9050919050565b60006020820190508181036000830152614a3f8161431b565b9050919050565b60006020820190508181036000830152614a5f81614352565b9050919050565b60006020820190508181036000830152614a7f81614389565b9050919050565b60006020820190508181036000830152614a9f816143e6565b9050919050565b60006020820190508181036000830152614abf8161441d565b9050919050565b60006020820190508181036000830152614adf81614454565b9050919050565b60006020820190508181036000830152614aff816144b1565b9050919050565b60006020820190508181036000830152614b1f816144e8565b9050919050565b60006020820190508181036000830152614b4081846145ea565b905092915050565b6000608082019050614b5d600083018761469b565b8181036020830152614b6f81866146a2565b90508181036040830152614b8381856146a2565b90508181036060830152614b978184613d1d565b905095945050505050565b60006020820190508181036000830152614bbc81846146a2565b905092915050565b60006040820190508181036000830152614bde81856146a2565b90508181036020830152614bf28184613e4b565b90509392505050565b60006040820190508181036000830152614c1581856146a2565b90508181036020830152614c298184613ddf565b90509392505050565b60006040820190508181036000830152614c4c81856146a2565b90508181036020830152614c6081846146a2565b90509392505050565b6000604082019050614c7e600083018561479c565b614c8b6020830184613bfe565b9392505050565b6000608082019050614ca7600083018761479c565b8181036020830152614cb98186613da9565b9050614cc86040830185613bef565b614cd56060830184613bfe565b95945050505050565b6000608082019050614cf3600083018761479c565b8181036020830152614d058186613da9565b9050614d146040830185613bfe565b614d216060830184613bfe565b95945050505050565b6000604051905081810181811067ffffffffffffffff82111715614d4d57600080fd5b8060405250919050565b600067ffffffffffffffff821115614d6e57600080fd5b602082029050602081019050919050565b600067ffffffffffffffff821115614d9657600080fd5b602082029050602081019050919050565b600067ffffffffffffffff821115614dbe57600080fd5b601f19601f8301169050602081019050919050565b600067ffffffffffffffff821115614dea57600080fd5b601f19601f8301169050602081019050919050565b6000819050919050565b6000602082019050919050565b6000602082019050919050565b600060029050919050565b600081519050919050565b600081519050919050565b600081519050919050565b600081519050919050565b6000602082019050919050565b6000602082019050919050565b6000602082019050919050565b6000614e8c82614ebf565b9050919050565b60008115159050919050565b6000819050919050565b6000600582101515614eb757fe5b819050919050565b600073ffffffffffffffffffffffffffffffffffffffff82169050919050565b6000819050919050565b600063ffffffff82169050919050565b6000614f0482614ebf565b9050919050565b60008115159050919050565b6000819050919050565b6000614f2c82614f45565b9050919050565b6000614f3e82614ea9565b9050919050565b6000614f5082614f57565b9050919050565b6000614f6282614ebf565b9050919050565b82818337600083830152505050565b60005b83811015614f96578082015181840152602081019050614f7b565b83811115614fa5576000848401525b50505050565b6000601f19601f830116905091905056fea265627a7a72305820c857c4ef1fcb0afc2d64424d43be5af1bfe211840da28542aced696685514de36c6578706572696d656e74616cf50037",
  "source": "pragma solidity ^0.5.2;\npragma experimental ABIEncoderV2;\n\nimport \"./Adjudicator.sol\";\nimport \"./Rules.sol\";\nimport \"./State.sol\";\nimport \"openzeppelin-solidity/contracts/drafts/Counters.sol\";\nimport \"../Libraries/ChallengeLib.sol\";\nimport \"../Libraries/ECVerify.sol\";\nimport \"./PlasmaTurnGame.sol\";\n\n\n//TODO add global timeout for channel\n//Plasma Channel Manager\ncontract PlasmaCM {\n    //events\n    event ChannelInitiated(uint channelId, address indexed creator, address indexed opponent, address channelType);\n    event ChannelFunded(uint channelId, address indexed creator, address indexed opponent, address channelType);\n\n    //events\n\n    using Adjudicators for FMChannel;\n    using Counters for Counters.Counter;\n    using ECVerify for bytes32;\n    using State for State.StateStruct;\n\n    enum ChannelState { INITIATED, FUNDED, SUSPENDED, CLOSED, WITHDRAWN }\n\n    //Force Move Channel\n    struct FMChannel {\n        uint256 channelId;\n        address channelType;\n        uint256 stake;\n        address[2] players;\n        bytes32 initialArgumentsHash;\n        ChannelState state;\n        Rules.Challenge forceMoveChallenge;\n        ChallengeLib.Challenge plasmaChallenge;\n    }\n\n    mapping (uint => FMChannel) channels;\n\n    Counters.Counter channelCounter;\n\n    uint256 constant DEPOSIT_AMOUNT = 0.1 ether;\n    mapping (address => Counters.Counter) openChannels;\n    mapping (address => bool) deposited;\n\n    function () external payable {\n        revert(\"Please send funds using the FundChannel or makeDeposit method\");\n    }\n\n    //TODO close unfunded channel\n    function initiateChannel(\n        address channelType,\n        address opponent,\n        uint stake,\n        bytes memory initialGameAttributes\n    ) public payable Payment(stake) hasDeposited {\n\n        ((PlasmaTurnGame)(channelType)).validateStartState(initialGameAttributes);\n        channelCounter.increment();\n\n        uint channelId = channelCounter.current();\n\n        address[2] memory addresses;\n        addresses[0] = msg.sender;\n        addresses[1] = opponent;\n\n        openChannels[msg.sender].increment();\n\n        Rules.Challenge memory rchallenge;\n        ChallengeLib.Challenge memory cchallenge;\n\n        channels[channelId] = FMChannel(\n            channelId,\n            channelType,\n            stake,\n            addresses,\n            keccak256(initialGameAttributes),\n            ChannelState.INITIATED,\n            rchallenge,\n            cchallenge\n        );\n\n\n        emit ChannelInitiated(channelId, msg.sender, opponent, channelType);\n        ((PlasmaTurnGame)(channelType)).eventRequestState(channelId, initialGameAttributes, msg.sender, opponent);\n    }\n\n    function fundChannel(\n        uint channelId,\n        bytes memory initialGameAttributes\n    ) public payable channelExists(channelId) hasDeposited {\n        FMChannel storage channel = channels[channelId];\n\n        require(channel.state == ChannelState.INITIATED, \"Channel is already funded\");\n        require(channel.players[1] == msg.sender, \"Sender is not participant of this channel\");\n        require(channel.stake == msg.value, \"Payment must be equal to channel stake\");\n        require(channel.initialArgumentsHash == keccak256(initialGameAttributes), \"Initial state does not match\");\n        channel.state = ChannelState.FUNDED;\n\n        openChannels[msg.sender].increment();\n\n        emit ChannelFunded(channel.channelId, channel.players[0], channel.players[1], channel.channelType);\n        ((PlasmaTurnGame)(channel.channelType)).eventStartState(channelId, initialGameAttributes, channel.players[0], channel.players[1]);\n    }\n\n    function makeDeposit() external payable Payment(DEPOSIT_AMOUNT) {\n        require(!deposited[msg.sender], \"Sender already did a deposit\");\n        deposited[msg.sender] = true;\n    }\n\n    function retrieveDeposit() external payable hasDeposited {\n        require(openChannels[msg.sender].current() == 0, \"Sender has an open channel\");\n        deposited[msg.sender] = false;\n\n        msg.sender.transfer(DEPOSIT_AMOUNT);\n    }\n\n    function forceFirstMove(\n        uint channelId,\n        State.StateStruct memory initialState) public channelExists(channelId) hasDeposited {\n        channels[channelId].forceFirstMove(initialState, msg.sender);\n    }\n\n    function forceMove(\n        uint channelId,\n        State.StateStruct memory fromState,\n        State.StateStruct memory nextState,\n        bytes[] memory signatures)\n    public channelExists(channelId) hasDeposited {\n\n        channels[channelId].forceMove(fromState, nextState, msg.sender, signatures);\n    }\n\n    function respondWithMove(\n        uint channelId,\n        State.StateStruct memory nextState,\n        bytes memory signature)\n    public channelExists(channelId) hasDeposited {\n\n        channels[channelId].respondWithMove(nextState, signature);\n    }\n\n    function alternativeRespondWithMove(\n        uint channelId,\n        State.StateStruct memory alternativeState,\n        State.StateStruct memory nextState,\n        bytes[] memory signatures)\n    public channelExists(channelId) hasDeposited {\n\n        channels[channelId].alternativeRespondWithMove(alternativeState, nextState, signatures);\n    }\n\n    function conclude(\n        uint channelId,\n        State.StateStruct memory prevState,\n        State.StateStruct memory lastState,\n        bytes[] memory signatures)\n        public channelExists(channelId) hasDeposited {\n\n        FMChannel storage channel = channels[channelId];\n        channel.conclude(prevState, lastState, signatures);\n        channel.state = ChannelState.CLOSED;\n        //TODO emit\n    }\n\n    function withdraw(uint channelId) external channelExists(channelId) {\n\n        FMChannel storage channel = channels[channelId];\n        require(channel.state == ChannelState.CLOSED, \"Channel must be closed\");\n        channel.state = ChannelState.WITHDRAWN;\n\n        openChannels[channel.players[0]].decrement();\n        openChannels[channel.players[1]].decrement();\n\n        msg.sender.transfer(channel.stake * 2);\n        //TODO emit\n    }\n\n    function hasDeposit(address user) external view returns (bool) {\n        return deposited[user];\n    }\n\n    function getChannel(uint channelId) external view returns (FMChannel memory) {\n        return channels[channelId];\n    }\n\n    ///\n    //CHALLENGES\n    ///\n\n    //modifiers\n    modifier Payment(uint stake) {\n        require(stake > 0,\"Stake must be greater than 0\");\n        require(stake == msg.value, \"Invalid Payment amount\");\n        _;\n    }\n\n    modifier channelExists(uint channelId) {\n        require(channels[channelId].channelId > 0, \"Channel has not yet been created\");\n        _;\n    }\n\n    modifier hasDeposited() {\n        require(deposited[msg.sender], \"You must make a deposit to use the Game Channels\");\n        _;\n    }\n}\n",
  "sourcePath": "/Users/epord/Desktop/PF/Plasma-Cash-RootChain/contracts/Battles/PlasmaChannelManager.sol",
  "compiler": {
    "name": "solc",
    "version": "0.5.2+commit.1df8f40c.Emscripten.clang"
  },
  "schemaVersion": "3.0.0",
  "updatedAt": "2019-10-18T20:11:02.316Z",
  "devdoc": {
    "methods": {}
  },
  "userdoc": {
    "methods": {}
  }
}