{
  "contractName": "RootChain",
  "abi": [
    {
      "constant": true,
      "inputs": [
        {
          "name": "",
          "type": "address"
        }
      ],
      "name": "balances",
      "outputs": [
        {
          "name": "bonded",
          "type": "uint256"
        },
        {
          "name": "withdrawable",
          "type": "uint256"
        }
      ],
      "payable": false,
      "stateMutability": "view",
      "type": "function"
    },
    {
      "constant": true,
      "inputs": [],
      "name": "childBlockInterval",
      "outputs": [
        {
          "name": "",
          "type": "uint256"
        }
      ],
      "payable": false,
      "stateMutability": "view",
      "type": "function"
    },
    {
      "constant": true,
      "inputs": [
        {
          "name": "",
          "type": "uint256"
        }
      ],
      "name": "secretRevealingChain",
      "outputs": [
        {
          "name": "root",
          "type": "bytes32"
        },
        {
          "name": "createdAt",
          "type": "uint256"
        }
      ],
      "payable": false,
      "stateMutability": "view",
      "type": "function"
    },
    {
      "constant": true,
      "inputs": [],
      "name": "numCoins",
      "outputs": [
        {
          "name": "",
          "type": "uint64"
        }
      ],
      "payable": false,
      "stateMutability": "view",
      "type": "function"
    },
    {
      "constant": true,
      "inputs": [],
      "name": "currentBlock",
      "outputs": [
        {
          "name": "",
          "type": "uint256"
        }
      ],
      "payable": false,
      "stateMutability": "view",
      "type": "function"
    },
    {
      "constant": true,
      "inputs": [
        {
          "name": "",
          "type": "uint256"
        }
      ],
      "name": "childChain",
      "outputs": [
        {
          "name": "root",
          "type": "bytes32"
        },
        {
          "name": "createdAt",
          "type": "uint256"
        }
      ],
      "payable": false,
      "stateMutability": "view",
      "type": "function"
    },
    {
      "inputs": [
        {
          "name": "_vmc",
          "type": "address"
        }
      ],
      "payable": false,
      "stateMutability": "nonpayable",
      "type": "constructor"
    },
    {
      "payable": true,
      "stateMutability": "payable",
      "type": "fallback"
    },
    {
      "anonymous": false,
      "inputs": [
        {
          "indexed": false,
          "name": "message",
          "type": "address"
        }
      ],
      "name": "Debug",
      "type": "event"
    },
    {
      "anonymous": false,
      "inputs": [
        {
          "indexed": true,
          "name": "slot",
          "type": "uint64"
        },
        {
          "indexed": false,
          "name": "blockNumber",
          "type": "uint256"
        },
        {
          "indexed": true,
          "name": "from",
          "type": "address"
        },
        {
          "indexed": true,
          "name": "contractAddress",
          "type": "address"
        }
      ],
      "name": "Deposit",
      "type": "event"
    },
    {
      "anonymous": false,
      "inputs": [
        {
          "indexed": false,
          "name": "blockNumber",
          "type": "uint256"
        },
        {
          "indexed": false,
          "name": "root",
          "type": "bytes32"
        },
        {
          "indexed": false,
          "name": "timestamp",
          "type": "uint256"
        }
      ],
      "name": "SubmittedBlock",
      "type": "event"
    },
    {
      "anonymous": false,
      "inputs": [
        {
          "indexed": false,
          "name": "blockNumber",
          "type": "uint256"
        },
        {
          "indexed": false,
          "name": "root",
          "type": "bytes32"
        },
        {
          "indexed": false,
          "name": "timestamp",
          "type": "uint256"
        }
      ],
      "name": "SubmittedSecretBlock",
      "type": "event"
    },
    {
      "anonymous": false,
      "inputs": [
        {
          "indexed": true,
          "name": "slot",
          "type": "uint64"
        },
        {
          "indexed": true,
          "name": "owner",
          "type": "address"
        }
      ],
      "name": "StartedExit",
      "type": "event"
    },
    {
      "anonymous": false,
      "inputs": [
        {
          "indexed": true,
          "name": "slot",
          "type": "uint64"
        },
        {
          "indexed": true,
          "name": "owner",
          "type": "address"
        },
        {
          "indexed": false,
          "name": "txHash",
          "type": "bytes32"
        },
        {
          "indexed": false,
          "name": "challengingBlockNumber",
          "type": "uint256"
        }
      ],
      "name": "ChallengedExit",
      "type": "event"
    },
    {
      "anonymous": false,
      "inputs": [
        {
          "indexed": true,
          "name": "slot",
          "type": "uint64"
        }
      ],
      "name": "RespondedExitChallenge",
      "type": "event"
    },
    {
      "anonymous": false,
      "inputs": [
        {
          "indexed": true,
          "name": "slot",
          "type": "uint64"
        },
        {
          "indexed": true,
          "name": "owner",
          "type": "address"
        }
      ],
      "name": "CoinReset",
      "type": "event"
    },
    {
      "anonymous": false,
      "inputs": [
        {
          "indexed": true,
          "name": "slot",
          "type": "uint64"
        },
        {
          "indexed": false,
          "name": "owner",
          "type": "address"
        }
      ],
      "name": "FinalizedExit",
      "type": "event"
    },
    {
      "anonymous": false,
      "inputs": [
        {
          "indexed": true,
          "name": "from",
          "type": "address"
        },
        {
          "indexed": false,
          "name": "amount",
          "type": "uint256"
        }
      ],
      "name": "FreedBond",
      "type": "event"
    },
    {
      "anonymous": false,
      "inputs": [
        {
          "indexed": true,
          "name": "from",
          "type": "address"
        },
        {
          "indexed": true,
          "name": "to",
          "type": "address"
        },
        {
          "indexed": false,
          "name": "amount",
          "type": "uint256"
        }
      ],
      "name": "SlashedBond",
      "type": "event"
    },
    {
      "anonymous": false,
      "inputs": [
        {
          "indexed": true,
          "name": "from",
          "type": "address"
        },
        {
          "indexed": false,
          "name": "amount",
          "type": "uint256"
        }
      ],
      "name": "WithdrewBonds",
      "type": "event"
    },
    {
      "anonymous": false,
      "inputs": [
        {
          "indexed": true,
          "name": "owner",
          "type": "address"
        },
        {
          "indexed": true,
          "name": "slot",
          "type": "uint64"
        },
        {
          "indexed": false,
          "name": "contractAddress",
          "type": "address"
        },
        {
          "indexed": false,
          "name": "uid",
          "type": "uint256"
        }
      ],
      "name": "Withdrew",
      "type": "event"
    },
    {
      "anonymous": false,
      "inputs": [
        {
          "indexed": false,
          "name": "status",
          "type": "bool"
        }
      ],
      "name": "Paused",
      "type": "event"
    },
    {
      "constant": false,
      "inputs": [
        {
          "name": "blockNumber",
          "type": "uint256"
        },
        {
          "name": "root",
          "type": "bytes32"
        }
      ],
      "name": "submitBlock",
      "outputs": [],
      "payable": false,
      "stateMutability": "nonpayable",
      "type": "function"
    },
    {
      "constant": false,
      "inputs": [
        {
          "name": "blockNumber",
          "type": "uint256"
        },
        {
          "name": "root",
          "type": "bytes32"
        }
      ],
      "name": "submitSecretBlock",
      "outputs": [],
      "payable": false,
      "stateMutability": "nonpayable",
      "type": "function"
    },
    {
      "constant": false,
      "inputs": [
        {
          "name": "slot",
          "type": "uint64"
        }
      ],
      "name": "startDepositExit",
      "outputs": [],
      "payable": true,
      "stateMutability": "payable",
      "type": "function"
    },
    {
      "constant": false,
      "inputs": [
        {
          "name": "slot",
          "type": "uint64"
        },
        {
          "name": "prevTxBytes",
          "type": "bytes"
        },
        {
          "name": "exitingTxBytes",
          "type": "bytes"
        },
        {
          "name": "prevTxInclusionProof",
          "type": "bytes"
        },
        {
          "name": "exitingTxInclusionProof",
          "type": "bytes"
        },
        {
          "name": "signature",
          "type": "bytes"
        },
        {
          "name": "blocks",
          "type": "uint256[2]"
        }
      ],
      "name": "startExit",
      "outputs": [],
      "payable": true,
      "stateMutability": "payable",
      "type": "function"
    },
    {
      "constant": false,
      "inputs": [
        {
          "name": "slot",
          "type": "uint64"
        }
      ],
      "name": "finalizeExit",
      "outputs": [],
      "payable": false,
      "stateMutability": "nonpayable",
      "type": "function"
    },
    {
      "constant": false,
      "inputs": [
        {
          "name": "slots",
          "type": "uint64[]"
        }
      ],
      "name": "finalizeExits",
      "outputs": [],
      "payable": false,
      "stateMutability": "nonpayable",
      "type": "function"
    },
    {
      "constant": false,
      "inputs": [
        {
          "name": "slot",
          "type": "uint64"
        }
      ],
      "name": "cancelExit",
      "outputs": [],
      "payable": false,
      "stateMutability": "nonpayable",
      "type": "function"
    },
    {
      "constant": false,
      "inputs": [
        {
          "name": "slots",
          "type": "uint64[]"
        }
      ],
      "name": "cancelExits",
      "outputs": [],
      "payable": false,
      "stateMutability": "nonpayable",
      "type": "function"
    },
    {
      "constant": false,
      "inputs": [
        {
          "name": "slot",
          "type": "uint64"
        }
      ],
      "name": "withdraw",
      "outputs": [],
      "payable": false,
      "stateMutability": "nonpayable",
      "type": "function"
    },
    {
      "constant": false,
      "inputs": [
        {
          "name": "slot",
          "type": "uint64"
        },
        {
          "name": "txBytes",
          "type": "bytes"
        },
        {
          "name": "txInclusionProof",
          "type": "bytes"
        },
        {
          "name": "blockNumber",
          "type": "uint256"
        }
      ],
      "name": "challengeBefore",
      "outputs": [],
      "payable": true,
      "stateMutability": "payable",
      "type": "function"
    },
    {
      "constant": false,
      "inputs": [
        {
          "name": "slot",
          "type": "uint64"
        },
        {
          "name": "challengingTxHash",
          "type": "bytes32"
        },
        {
          "name": "respondingBlockNumber",
          "type": "uint256"
        },
        {
          "name": "respondingTransaction",
          "type": "bytes"
        },
        {
          "name": "proof",
          "type": "bytes"
        },
        {
          "name": "signature",
          "type": "bytes"
        }
      ],
      "name": "respondChallengeBefore",
      "outputs": [],
      "payable": false,
      "stateMutability": "nonpayable",
      "type": "function"
    },
    {
      "constant": false,
      "inputs": [
        {
          "name": "slot",
          "type": "uint64"
        },
        {
          "name": "challengingTransaction",
          "type": "bytes"
        },
        {
          "name": "proof",
          "type": "bytes"
        },
        {
          "name": "signature",
          "type": "bytes"
        },
        {
          "name": "challengingBlockNumber",
          "type": "uint256"
        }
      ],
      "name": "challengeBetween",
      "outputs": [],
      "payable": false,
      "stateMutability": "nonpayable",
      "type": "function"
    },
    {
      "constant": false,
      "inputs": [
        {
          "name": "slot",
          "type": "uint64"
        },
        {
          "name": "challengingTransaction",
          "type": "bytes"
        },
        {
          "name": "proof",
          "type": "bytes"
        },
        {
          "name": "signature",
          "type": "bytes"
        },
        {
          "name": "challengingBlockNumber",
          "type": "uint256"
        }
      ],
      "name": "challengeAfter",
      "outputs": [],
      "payable": false,
      "stateMutability": "nonpayable",
      "type": "function"
    },
    {
      "constant": false,
      "inputs": [],
      "name": "withdrawBonds",
      "outputs": [],
      "payable": false,
      "stateMutability": "nonpayable",
      "type": "function"
    },
    {
      "constant": false,
      "inputs": [],
      "name": "pause",
      "outputs": [],
      "payable": false,
      "stateMutability": "nonpayable",
      "type": "function"
    },
    {
      "constant": false,
      "inputs": [],
      "name": "unpause",
      "outputs": [],
      "payable": false,
      "stateMutability": "nonpayable",
      "type": "function"
    },
    {
      "constant": false,
      "inputs": [
        {
          "name": "",
          "type": "address"
        },
        {
          "name": "from",
          "type": "address"
        },
        {
          "name": "tokenId",
          "type": "uint256"
        },
        {
          "name": "",
          "type": "bytes"
        }
      ],
      "name": "onERC721Received",
      "outputs": [
        {
          "name": "",
          "type": "bytes4"
        }
      ],
      "payable": false,
      "stateMutability": "nonpayable",
      "type": "function"
    },
    {
      "constant": false,
      "inputs": [
        {
          "name": "uid",
          "type": "uint256"
        },
        {
          "name": "contractAddress",
          "type": "address"
        }
      ],
      "name": "depositERC721",
      "outputs": [],
      "payable": false,
      "stateMutability": "nonpayable",
      "type": "function"
    },
    {
      "constant": true,
      "inputs": [
        {
          "name": "txHash",
          "type": "bytes32"
        },
        {
          "name": "root",
          "type": "bytes32"
        },
        {
          "name": "slot",
          "type": "uint64"
        },
        {
          "name": "proof",
          "type": "bytes"
        }
      ],
      "name": "checkMembership",
      "outputs": [
        {
          "name": "",
          "type": "bool"
        }
      ],
      "payable": false,
      "stateMutability": "view",
      "type": "function"
    },
    {
      "constant": true,
      "inputs": [
        {
          "name": "txHash",
          "type": "bytes32"
        },
        {
          "name": "blockNumber",
          "type": "uint256"
        },
        {
          "name": "slot",
          "type": "uint64"
        },
        {
          "name": "proof",
          "type": "bytes"
        }
      ],
      "name": "checkInclusion",
      "outputs": [
        {
          "name": "",
          "type": "bool"
        }
      ],
      "payable": false,
      "stateMutability": "view",
      "type": "function"
    },
    {
      "constant": true,
      "inputs": [
        {
          "name": "slot",
          "type": "uint64"
        }
      ],
      "name": "getPlasmaCoin",
      "outputs": [
        {
          "name": "",
          "type": "uint256"
        },
        {
          "name": "",
          "type": "uint256"
        },
        {
          "name": "",
          "type": "address"
        },
        {
          "name": "",
          "type": "uint8"
        },
        {
          "name": "",
          "type": "address"
        }
      ],
      "payable": false,
      "stateMutability": "view",
      "type": "function"
    },
    {
      "constant": true,
      "inputs": [
        {
          "name": "slot",
          "type": "uint64"
        },
        {
          "name": "txHash",
          "type": "bytes32"
        }
      ],
      "name": "getChallenge",
      "outputs": [
        {
          "name": "",
          "type": "address"
        },
        {
          "name": "",
          "type": "address"
        },
        {
          "name": "",
          "type": "bytes32"
        },
        {
          "name": "",
          "type": "uint256"
        }
      ],
      "payable": false,
      "stateMutability": "view",
      "type": "function"
    },
    {
      "constant": true,
      "inputs": [
        {
          "name": "slot",
          "type": "uint64"
        }
      ],
      "name": "getChallenges",
      "outputs": [
        {
          "name": "",
          "type": "bytes32[]"
        }
      ],
      "payable": false,
      "stateMutability": "view",
      "type": "function"
    },
    {
      "constant": true,
      "inputs": [
        {
          "name": "slot",
          "type": "uint64"
        }
      ],
      "name": "getExit",
      "outputs": [
        {
          "name": "",
          "type": "address"
        },
        {
          "name": "",
          "type": "uint256"
        },
        {
          "name": "",
          "type": "uint256"
        },
        {
          "name": "",
          "type": "uint8"
        },
        {
          "name": "",
          "type": "uint256"
        }
      ],
      "payable": false,
      "stateMutability": "view",
      "type": "function"
    },
    {
      "constant": true,
      "inputs": [
        {
          "name": "blockNumber",
          "type": "uint256"
        }
      ],
      "name": "getBlockRoot",
      "outputs": [
        {
          "name": "root",
          "type": "bytes32"
        }
      ],
      "payable": false,
      "stateMutability": "view",
      "type": "function"
    },
    {
      "constant": true,
      "inputs": [],
      "name": "getBalance",
      "outputs": [
        {
          "name": "",
          "type": "uint256"
        },
        {
          "name": "",
          "type": "uint256"
        }
      ],
      "payable": false,
      "stateMutability": "view",
      "type": "function"
    }
  ],
  "bytecode": "0x608060405260008060016101000a81548167ffffffffffffffff021916908367ffffffffffffffff1602179055506103e860045560006005553480156200004557600080fd5b5060405160208062009663833981018060405260208110156200006757600080fd5b810190808051906020019092919050505080600860006101000a81548173ffffffffffffffffffffffffffffffffffffffff021916908373ffffffffffffffffffffffffffffffffffffffff160217905550620000c362000128565b604051809103906000f080158015620000e0573d6000803e3d6000fd5b50600960006101000a81548173ffffffffffffffffffffffffffffffffffffffff021916908373ffffffffffffffffffffffffffffffffffffffff1602179055505062000139565b60405161060e806200905583390190565b618f0c80620001496000396000f3fe608060405260043610610200576000357c0100000000000000000000000000000000000000000000000000000000900480637abb421f1161011f578063df3b8377116100b2578063f586df6511610081578063f586df6514611173578063f8353cf01461127b578063f95643b114611356578063fa2f2b77146113ac57610200565b8063df3b837714610e87578063e12ed13c14610f0d578063e41a5d1714610f38578063e9a067c014610f8757610200565b8063c33a0158116100ee578063c33a015814610c4c578063c8ac654214610d38578063cbd8da6314610d93578063d157796e14610dd857610200565b80637abb421f14610ad057806381686e6b14610b265780638456cb5914610bf6578063a973759514610c0d57610200565b80633f4ba83a116101975780637109b65e116101665780637109b65e1461092657806374c0a56f146109c0578063750f0acc14610a465780637841721414610a8b57610200565b80633f4ba83a146105615780634d69a8a1146105785780636222252f146106d0578063689828a3146107d857610200565b806319627609116101d3578063196276091461047b5780631cc6ffa0146104b357806327e235e3146104ca57806338a9e0bc1461053657610200565b806312065fe01461025b578063149be19f1461028d578063150b7a02146102d25780631513a04314610436575b60001515610259576040517f08c379a0000000000000000000000000000000000000000000000000000000008152600401808060200182810382526024815260200180618e3c6024913960400191505060405180910390fd5b005b34801561026757600080fd5b506102706114fa565b604051808381526020018281526020019250505060405180910390f35b34801561029957600080fd5b506102d0600480360360408110156102b057600080fd5b81019080803590602001909291908035906020019092919050505061158b565b005b3480156102de57600080fd5b506103e2600480360360808110156102f557600080fd5b81019080803573ffffffffffffffffffffffffffffffffffffffff169060200190929190803573ffffffffffffffffffffffffffffffffffffffff169060200190929190803590602001909291908035906020019064010000000081111561035c57600080fd5b82018360208201111561036e57600080fd5b8035906020019184600183028401116401000000008311171561039057600080fd5b91908080601f016020809104026020016040519081016040528093929190818152602001838380828437600081840152601f19601f8201169050808301925050505050505091929192905050506117e7565b60405180827bffffffffffffffffffffffffffffffffffffffffffffffffffffffff19167bffffffffffffffffffffffffffffffffffffffffffffffffffffffff1916815260200191505060405180910390f35b34801561044257600080fd5b506104796004803603604081101561045957600080fd5b810190808035906020019092919080359060200190929190505050611a9e565b005b6104b16004803603602081101561049157600080fd5b81019080803567ffffffffffffffff169060200190929190505050611d95565b005b3480156104bf57600080fd5b506104c861220d565b005b3480156104d657600080fd5b50610519600480360360208110156104ed57600080fd5b81019080803573ffffffffffffffffffffffffffffffffffffffff169060200190929190505050612334565b604051808381526020018281526020019250505060405180910390f35b34801561054257600080fd5b5061054b612358565b6040518082815260200191505060405180910390f35b34801561056d57600080fd5b5061057661235e565b005b34801561058457600080fd5b506106ce600480360360c081101561059b57600080fd5b81019080803567ffffffffffffffff1690602001909291908035906020019092919080359060200190929190803590602001906401000000008111156105e057600080fd5b8201836020820111156105f257600080fd5b8035906020019184600183028401116401000000008311171561061457600080fd5b90919293919293908035906020019064010000000081111561063557600080fd5b82018360208201111561064757600080fd5b8035906020019184600183028401116401000000008311171561066957600080fd5b90919293919293908035906020019064010000000081111561068a57600080fd5b82018360208201111561069c57600080fd5b803590602001918460018302840111640100000000831117156106be57600080fd5b9091929391929390505050612520565b005b3480156106dc57600080fd5b506107be600480360360808110156106f357600080fd5b810190808035906020019092919080359060200190929190803567ffffffffffffffff1690602001909291908035906020019064010000000081111561073857600080fd5b82018360208201111561074a57600080fd5b8035906020019184600183028401116401000000008311171561076c57600080fd5b91908080601f016020809104026020016040519081016040528093929190818152602001838380828437600081840152601f19601f8201169050808301925050505050505091929192905050506127b3565b604051808215151515815260200191505060405180910390f35b3480156107e457600080fd5b50610924600480360360a08110156107fb57600080fd5b81019080803567ffffffffffffffff1690602001909291908035906020019064010000000081111561082c57600080fd5b82018360208201111561083e57600080fd5b8035906020019184600183028401116401000000008311171561086057600080fd5b90919293919293908035906020019064010000000081111561088157600080fd5b82018360208201111561089357600080fd5b803590602001918460018302840111640100000000831117156108b557600080fd5b9091929391929390803590602001906401000000008111156108d657600080fd5b8201836020820111156108e857600080fd5b8035906020019184600183028401116401000000008311171561090a57600080fd5b909192939192939080359060200190929190505050612897565b005b34801561093257600080fd5b506109696004803603602081101561094957600080fd5b81019080803567ffffffffffffffff169060200190929190505050612a4c565b6040518080602001828103825283818151815260200191508051906020019060200280838360005b838110156109ac578082015181840152602081019050610991565b505050509050019250505060405180910390f35b3480156109cc57600080fd5b50610a44600480360360208110156109e357600080fd5b8101908080359060200190640100000000811115610a0057600080fd5b820183602082011115610a1257600080fd5b80359060200191846020830284011164010000000083111715610a3457600080fd5b9091929391929390505050612b39565b005b348015610a5257600080fd5b50610a8960048036036020811015610a6957600080fd5b81019080803567ffffffffffffffff169060200190929190505050612b89565b005b348015610a9757600080fd5b50610ace60048036036020811015610aae57600080fd5b81019080803567ffffffffffffffff16906020019092919050505061321b565b005b348015610adc57600080fd5b50610b0960048036036020811015610af357600080fd5b8101908080359060200190929190505050613616565b604051808381526020018281526020019250505060405180910390f35b348015610b3257600080fd5b50610b7360048036036040811015610b4957600080fd5b81019080803567ffffffffffffffff1690602001909291908035906020019092919050505061363a565b604051808573ffffffffffffffffffffffffffffffffffffffff1673ffffffffffffffffffffffffffffffffffffffff1681526020018473ffffffffffffffffffffffffffffffffffffffff1673ffffffffffffffffffffffffffffffffffffffff16815260200183815260200182815260200194505050505060405180910390f35b348015610c0257600080fd5b50610c0b6137bc565b005b348015610c1957600080fd5b50610c2261397e565b604051808267ffffffffffffffff1667ffffffffffffffff16815260200191505060405180910390f35b610d3660048036036080811015610c6257600080fd5b81019080803567ffffffffffffffff16906020019092919080359060200190640100000000811115610c9357600080fd5b820183602082011115610ca557600080fd5b80359060200191846001830284011164010000000083111715610cc757600080fd5b909192939192939080359060200190640100000000811115610ce857600080fd5b820183602082011115610cfa57600080fd5b80359060200191846001830284011164010000000083111715610d1c57600080fd5b909192939192939080359060200190929190505050613998565b005b348015610d4457600080fd5b50610d9160048036036040811015610d5b57600080fd5b8101908080359060200190929190803573ffffffffffffffffffffffffffffffffffffffff169060200190929190505050613c9e565b005b348015610d9f57600080fd5b50610dd660048036036020811015610db657600080fd5b81019080803567ffffffffffffffff169060200190929190505050613d91565b005b348015610de457600080fd5b50610e1b60048036036020811015610dfb57600080fd5b81019080803567ffffffffffffffff169060200190929190505050613fef565b604051808673ffffffffffffffffffffffffffffffffffffffff1673ffffffffffffffffffffffffffffffffffffffff168152602001858152602001848152602001836002811115610e6957fe5b60ff1681526020018281526020019550505050505060405180910390f35b348015610e9357600080fd5b50610f0b60048036036020811015610eaa57600080fd5b8101908080359060200190640100000000811115610ec757600080fd5b820183602082011115610ed957600080fd5b80359060200191846020830284011164010000000083111715610efb57600080fd5b909192939192939050505061416b565b005b348015610f1957600080fd5b50610f226141bb565b6040518082815260200191505060405180910390f35b348015610f4457600080fd5b50610f7160048036036020811015610f5b57600080fd5b81019080803590602001909291905050506141c1565b6040518082815260200191505060405180910390f35b6111716004803603610100811015610f9e57600080fd5b81019080803567ffffffffffffffff16906020019092919080359060200190640100000000811115610fcf57600080fd5b820183602082011115610fe157600080fd5b8035906020019184600183028401116401000000008311171561100357600080fd5b90919293919293908035906020019064010000000081111561102457600080fd5b82018360208201111561103657600080fd5b8035906020019184600183028401116401000000008311171561105857600080fd5b90919293919293908035906020019064010000000081111561107957600080fd5b82018360208201111561108b57600080fd5b803590602001918460018302840111640100000000831117156110ad57600080fd5b9091929391929390803590602001906401000000008111156110ce57600080fd5b8201836020820111156110e057600080fd5b8035906020019184600183028401116401000000008311171561110257600080fd5b90919293919293908035906020019064010000000081111561112357600080fd5b82018360208201111561113557600080fd5b8035906020019184600183028401116401000000008311171561115757600080fd5b9091929391929390806040019091929192905050506141e1565b005b34801561117f57600080fd5b506112616004803603608081101561119657600080fd5b810190808035906020019092919080359060200190929190803567ffffffffffffffff169060200190929190803590602001906401000000008111156111db57600080fd5b8201836020820111156111ed57600080fd5b8035906020019184600183028401116401000000008311171561120f57600080fd5b91908080601f016020809104026020016040519081016040528093929190818152602001838380828437600081840152601f19601f82011690508083019250505050505050919291929050505061469e565b604051808215151515815260200191505060405180910390f35b34801561128757600080fd5b506112be6004803603602081101561129e57600080fd5b81019080803567ffffffffffffffff169060200190929190505050614805565b604051808681526020018581526020018473ffffffffffffffffffffffffffffffffffffffff1673ffffffffffffffffffffffffffffffffffffffff16815260200183600281111561130c57fe5b60ff1681526020018273ffffffffffffffffffffffffffffffffffffffff1673ffffffffffffffffffffffffffffffffffffffff1681526020019550505050505060405180910390f35b34801561136257600080fd5b5061138f6004803603602081101561137957600080fd5b8101908080359060200190929190505050614a4d565b604051808381526020018281526020019250505060405180910390f35b3480156113b857600080fd5b506114f8600480360360a08110156113cf57600080fd5b81019080803567ffffffffffffffff1690602001909291908035906020019064010000000081111561140057600080fd5b82018360208201111561141257600080fd5b8035906020019184600183028401116401000000008311171561143457600080fd5b90919293919293908035906020019064010000000081111561145557600080fd5b82018360208201111561146757600080fd5b8035906020019184600183028401116401000000008311171561148957600080fd5b9091929391929390803590602001906401000000008111156114aa57600080fd5b8201836020820111156114bc57600080fd5b803590602001918460018302840111640100000000831117156114de57600080fd5b909192939192939080359060200190929190505050614a71565b005b600080600160003373ffffffffffffffffffffffffffffffffffffffff1673ffffffffffffffffffffffffffffffffffffffff16815260200190815260200160002060000154600160003373ffffffffffffffffffffffffffffffffffffffff1673ffffffffffffffffffffffffffffffffffffffff16815260200190815260200160002060010154915091509091565b600860009054906101000a900473ffffffffffffffffffffffffffffffffffffffff1673ffffffffffffffffffffffffffffffffffffffff1663797327ae336040518263ffffffff167c0100000000000000000000000000000000000000000000000000000000028152600401808273ffffffffffffffffffffffffffffffffffffffff1673ffffffffffffffffffffffffffffffffffffffff16815260200191505060206040518083038186803b15801561164657600080fd5b505afa15801561165a573d6000803e3d6000fd5b505050506040513d602081101561167057600080fd5b810190808051906020019092919050505015156116f5576040517f08c379a00000000000000000000000000000000000000000000000000000000081526004018080602001828103825260198152602001807f53656e646572206973206e6f7420612056616c696461746f720000000000000081525060200191505060405180910390fd5b6005548210151515611752576040517f08c379a0000000000000000000000000000000000000000000000000000000008152600401808060200182810382526032815260200180618e0a6032913960400191505060405180910390fd5b8160058190555060408051908101604052808281526020014281525060066000600554815260200190815260200160002060008201518160000155602082015181600101559050507f6d91cd6ccac8368394df514e6aee19a55264f5ab49a891af91ca86da27bedd4f600554824260405180848152602001838152602001828152602001935050505060405180910390a15050565b600033600860009054906101000a900473ffffffffffffffffffffffffffffffffffffffff1673ffffffffffffffffffffffffffffffffffffffff1663e744092e826040518263ffffffff167c0100000000000000000000000000000000000000000000000000000000028152600401808273ffffffffffffffffffffffffffffffffffffffff1673ffffffffffffffffffffffffffffffffffffffff16815260200191505060206040518083038186803b1580156118a557600080fd5b505afa1580156118b9573d6000803e3d6000fd5b505050506040513d60208110156118cf57600080fd5b81019080805190602001909291905050501515611937576040517f08c379a000000000000000000000000000000000000000000000000000000000815260040180806020018281038252602d815260200180618b18602d913960400191505060405180910390fd5b3073ffffffffffffffffffffffffffffffffffffffff163373ffffffffffffffffffffffffffffffffffffffff16636352211e866040518263ffffffff167c01000000000000000000000000000000000000000000000000000000000281526004018082815260200191505060206040518083038186803b1580156119bb57600080fd5b505afa1580156119cf573d6000803e3d6000fd5b505050506040513d60208110156119e557600080fd5b810190808051906020019092919050505073ffffffffffffffffffffffffffffffffffffffff16141515611a64576040517f08c379a00000000000000000000000000000000000000000000000000000000081526004018080602001828103825260228152602001806189ad6022913960400191505060405180910390fd5b611a6f853386614c26565b63150b7a027c010000000000000000000000000000000000000000000000000000000002915050949350505050565b600860009054906101000a900473ffffffffffffffffffffffffffffffffffffffff1673ffffffffffffffffffffffffffffffffffffffff1663797327ae336040518263ffffffff167c0100000000000000000000000000000000000000000000000000000000028152600401808273ffffffffffffffffffffffffffffffffffffffff1673ffffffffffffffffffffffffffffffffffffffff16815260200191505060206040518083038186803b158015611b5957600080fd5b505afa158015611b6d573d6000803e3d6000fd5b505050506040513d6020811015611b8357600080fd5b81019080805190602001909291905050501515611c08576040517f08c379a00000000000000000000000000000000000000000000000000000000081526004018080602001828103825260198152602001807f53656e646572206973206e6f7420612056616c696461746f720000000000000081525060200191505060405180910390fd5b611c10618597565b600660008481526020019081526020016000206040805190810160405290816000820154815260200160018201548152505090506000600102816000015114151515611ca7576040517f08c379a0000000000000000000000000000000000000000000000000000000008152600401808060200182810382526043815260200180618b6d6043913960600191505060405180910390fd5b6201518081602001514203101515611d0a576040517f08c379a00000000000000000000000000000000000000000000000000000000081526004018080602001828103825260268152602001806189cf6026913960400191505060405180910390fd5b6040805190810160405280838152602001428152506007600085815260200190815260200160002060008201518160000155602082015181600101559050507ff2899e36485db2b5838848eae26a10a1a468cca7ed04ad75170322b00f7d134983834260405180848152602001838152602001828152602001935050505060405180910390a1505050565b67016345785d8a000034141515611df7576040517f08c379a00000000000000000000000000000000000000000000000000000000081526004018080602001828103825260328152602001806189f56032913960400191505060405180910390fd5b611e4c34600160003373ffffffffffffffffffffffffffffffffffffffff1673ffffffffffffffffffffffffffffffffffffffff16815260200190815260200160002060000154614ff790919063ffffffff16565b600160003373ffffffffffffffffffffffffffffffffffffffff1673ffffffffffffffffffffffffffffffffffffffff16815260200190815260200160002060000181905550806000806002811115611ea157fe5b600360008467ffffffffffffffff1667ffffffffffffffff16815260200190815260200160002060000160009054906101000a900460ff166002811115611ee457fe5b141515611f59576040517f08c379a00000000000000000000000000000000000000000000000000000000081526004018080602001828103825260108152602001807f57726f6e6720636f696e2073746174650000000000000000000000000000000081525060200191505060405180910390fd5b611f616185b4565b600360008567ffffffffffffffff1667ffffffffffffffff16815260200190815260200160002060c060405190810160405290816000820160009054906101000a900460ff166002811115611fb257fe5b6002811115611fbd57fe5b81526020016000820160019054906101000a900473ffffffffffffffffffffffffffffffffffffffff1673ffffffffffffffffffffffffffffffffffffffff1673ffffffffffffffffffffffffffffffffffffffff1681526020016001820160009054906101000a900473ffffffffffffffffffffffffffffffffffffffff1673ffffffffffffffffffffffffffffffffffffffff1673ffffffffffffffffffffffffffffffffffffffff1681526020016002820160c060405190810160405290816000820160009054906101000a900473ffffffffffffffffffffffffffffffffffffffff1673ffffffffffffffffffffffffffffffffffffffff1673ffffffffffffffffffffffffffffffffffffffff1681526020016001820160009054906101000a900473ffffffffffffffffffffffffffffffffffffffff1673ffffffffffffffffffffffffffffffffffffffff1673ffffffffffffffffffffffffffffffffffffffff16815260200160028201548152602001600382015481526020016004820154815260200160058201548152505081526020016008820154815260200160098201548152505090503373ffffffffffffffffffffffffffffffffffffffff16816020015173ffffffffffffffffffffffffffffffffffffffff161415156121f6576040517f08c379a0000000000000000000000000000000000000000000000000000000008152600401808060200182810382526023815260200180618ebe6023913960400191505060405180910390fd5b612207846000808460a00151615018565b50505050565b6000600160003373ffffffffffffffffffffffffffffffffffffffff1673ffffffffffffffffffffffffffffffffffffffff1681526020019081526020016000206001015490506000600160003373ffffffffffffffffffffffffffffffffffffffff1673ffffffffffffffffffffffffffffffffffffffff168152602001908152602001600020600101819055503373ffffffffffffffffffffffffffffffffffffffff166108fc829081150290604051600060405180830381858888f193505050501580156122e2573d6000803e3d6000fd5b503373ffffffffffffffffffffffffffffffffffffffff167fba49a755e2e4831fb6ef34b384178b03af45679532c9ac5a2199b27b4dddea8d826040518082815260200191505060405180910390a250565b60016020528060005260406000206000915090508060000154908060010154905082565b60045481565b600860009054906101000a900473ffffffffffffffffffffffffffffffffffffffff1673ffffffffffffffffffffffffffffffffffffffff1663797327ae336040518263ffffffff167c0100000000000000000000000000000000000000000000000000000000028152600401808273ffffffffffffffffffffffffffffffffffffffff1673ffffffffffffffffffffffffffffffffffffffff16815260200191505060206040518083038186803b15801561241957600080fd5b505afa15801561242d573d6000803e3d6000fd5b505050506040513d602081101561244357600080fd5b810190808051906020019092919050505015156124c8576040517f08c379a00000000000000000000000000000000000000000000000000000000081526004018080602001828103825260198152602001807f53656e646572206973206e6f7420612056616c696461746f720000000000000081525060200191505060405180910390fd5b60008060006101000a81548160ff0219169083151502179055507f0e2fb031ee032dc02d8011dc50b816eb450cf856abd8261680dac74f72165bd26000604051808215151515815260200191505060405180910390a1565b61255988600260008c67ffffffffffffffff1667ffffffffffffffff1681526020019081526020016000206151d590919063ffffffff16565b15156125b0576040517f08c379a000000000000000000000000000000000000000000000000000000000815260040180806020018281038252602481526020018061895e6024913960400191505060405180910390fd5b60006125eb89600260008d67ffffffffffffffff1667ffffffffffffffff16815260200190815260200160002061521190919063ffffffff16565b90506126c78a828a8a8a8080601f016020809104026020016040519081016040528093929190818152602001838380828437600081840152601f19601f8201169050808301925050505050505087878080601f016020809104026020016040519081016040528093929190818152602001838380828437600081840152601f19601f820116905080830192505050505050508a8a8080601f016020809104026020016040519081016040528093929190818152602001838380828437600081840152601f19601f8201169050808301925050505050505061528d565b612736600260008c67ffffffffffffffff1667ffffffffffffffff168152602001908152602001600020828154811015156126fe57fe5b906000526020600020906004020160010160009054906101000a900473ffffffffffffffffffffffffffffffffffffffff1633615553565b61276f89600260008d67ffffffffffffffff1667ffffffffffffffff16815260200190815260200160002061570a90919063ffffffff16565b508967ffffffffffffffff167f7deeb80e1644537d3ba4f917cfcbaba62b54354e9f2598d6885d52e359885e2560405160405180910390a250505050505050505050565b60006127bd618597565b6006600086815260200190815260200160002060408051908101604052908160008201548152602001600182015481525050905060006004548681151561280057fe5b0614151561287b578060000151861480156128735750806000015184604051602001808267ffffffffffffffff1667ffffffffffffffff16780100000000000000000000000000000000000000000000000002815260080191505060405160208183030381529060405280519060200120145b91505061288f565b61288b868260000151868661469e565b9150505b949350505050565b8760018060028111156128a657fe5b600360008467ffffffffffffffff1667ffffffffffffffff16815260200190815260200160002060000160009054906101000a900460ff1660028111156128e957fe5b14151561295e576040517f08c379a00000000000000000000000000000000000000000000000000000000081526004018080602001828103825260108152602001807f57726f6e6720636f696e2073746174650000000000000000000000000000000081525060200191505060405180910390fd5b612a378a8a8a8080601f016020809104026020016040519081016040528093929190818152602001838380828437600081840152601f19601f8201169050808301925050505050505089898080601f016020809104026020016040519081016040528093929190818152602001838380828437600081840152601f19601f8201169050808301925050505050505088888080601f016020809104026020016040519081016040528093929190818152602001838380828437600081840152601f19601f82011690508083019250505050505050876159af565b612a408a615c81565b50505050505050505050565b60606000600260008467ffffffffffffffff1667ffffffffffffffff168152602001908152602001600020805490509050606081604051908082528060200260200182016040528015612aae5781602001602082028038833980820191505090505b50905060008090505b82811015612b2e57600260008667ffffffffffffffff1667ffffffffffffffff16815260200190815260200160002081815481101515612af357fe5b9060005260206000209060040201600201548282815181101515612b1357fe5b90602001906020020181815250508080600101915050612ab7565b508092505050919050565b600082829050905060008090505b81811015612b8357612b768484838181101515612b6057fe5b9050602002013567ffffffffffffffff1661321b565b8080600101915050612b47565b50505050565b806002806002811115612b9857fe5b600360008467ffffffffffffffff1667ffffffffffffffff16815260200190815260200160002060000160009054906101000a900460ff166002811115612bdb57fe5b141515612c50576040517f08c379a00000000000000000000000000000000000000000000000000000000081526004018080602001828103825260108152602001807f57726f6e6720636f696e2073746174650000000000000000000000000000000081525060200191505060405180910390fd5b3373ffffffffffffffffffffffffffffffffffffffff16600360008567ffffffffffffffff1667ffffffffffffffff16815260200190815260200160002060000160019054906101000a900473ffffffffffffffffffffffffffffffffffffffff1673ffffffffffffffffffffffffffffffffffffffff16141515612d3d576040517f08c379a00000000000000000000000000000000000000000000000000000000081526004018080602001828103825260188152602001807f596f7520646f206e6f74206f776e2074686174205554584f000000000000000081525060200191505060405180910390fd5b6000600360008567ffffffffffffffff1667ffffffffffffffff168152602001908152602001600020600801549050612d746185b4565b600360008667ffffffffffffffff1667ffffffffffffffff16815260200190815260200160002060c060405190810160405290816000820160009054906101000a900460ff166002811115612dc557fe5b6002811115612dd057fe5b81526020016000820160019054906101000a900473ffffffffffffffffffffffffffffffffffffffff1673ffffffffffffffffffffffffffffffffffffffff1673ffffffffffffffffffffffffffffffffffffffff1681526020016001820160009054906101000a900473ffffffffffffffffffffffffffffffffffffffff1673ffffffffffffffffffffffffffffffffffffffff1673ffffffffffffffffffffffffffffffffffffffff1681526020016002820160c060405190810160405290816000820160009054906101000a900473ffffffffffffffffffffffffffffffffffffffff1673ffffffffffffffffffffffffffffffffffffffff1673ffffffffffffffffffffffffffffffffffffffff1681526020016001820160009054906101000a900473ffffffffffffffffffffffffffffffffffffffff1673ffffffffffffffffffffffffffffffffffffffff1673ffffffffffffffffffffffffffffffffffffffff1681526020016002820154815260200160038201548152602001600482015481526020016005820154815250508152602001600882015481526020016009820154815250509050600360008667ffffffffffffffff1667ffffffffffffffff168152602001908152602001600020600080820160006101000a81549060ff02191690556000820160016101000a81549073ffffffffffffffffffffffffffffffffffffffff02191690556001820160006101000a81549073ffffffffffffffffffffffffffffffffffffffff021916905560028201600080820160006101000a81549073ffffffffffffffffffffffffffffffffffffffff02191690556001820160006101000a81549073ffffffffffffffffffffffffffffffffffffffff021916905560028201600090556003820160009055600482016000905560058201600090555050600882016000905560098201600090555050806040015173ffffffffffffffffffffffffffffffffffffffff166342842e0e3033856040518463ffffffff167c0100000000000000000000000000000000000000000000000000000000028152600401808473ffffffffffffffffffffffffffffffffffffffff1673ffffffffffffffffffffffffffffffffffffffff1681526020018373ffffffffffffffffffffffffffffffffffffffff1673ffffffffffffffffffffffffffffffffffffffff1681526020018281526020019350505050600060405180830381600087803b15801561316b57600080fd5b505af115801561317f573d6000803e3d6000fd5b505050508467ffffffffffffffff163373ffffffffffffffffffffffffffffffffffffffff167fbb8c77f80d40a232c518e16058c59d0d555d9d775622b4839c7039007d10a037836040015185604051808373ffffffffffffffffffffffffffffffffffffffff1673ffffffffffffffffffffffffffffffffffffffff1681526020018281526020019250505060405180910390a35050505050565b80600180600281111561322a57fe5b600360008467ffffffffffffffff1667ffffffffffffffff16815260200190815260200160002060000160009054906101000a900460ff16600281111561326d57fe5b1415156132e2576040517f08c379a00000000000000000000000000000000000000000000000000000000081526004018080602001828103825260108152602001807f57726f6e6720636f696e2073746174650000000000000000000000000000000081525060200191505060405180910390fd5b6000600360008567ffffffffffffffff1667ffffffffffffffff168152602001908152602001600020905062093a8081600201600201544203111515613373576040517f08c379a000000000000000000000000000000000000000000000000000000000815260040180806020018281038252603c815260200180618d8e603c913960400191505060405180910390fd5b600061337e85615e5a565b90508015156134db578160020160010160009054906101000a900473ffffffffffffffffffffffffffffffffffffffff168260000160016101000a81548173ffffffffffffffffffffffffffffffffffffffff021916908373ffffffffffffffffffffffffffffffffffffffff16021790555060028260000160006101000a81548160ff0219169083600281111561341257fe5b02179055506134448260000160019054906101000a900473ffffffffffffffffffffffffffffffffffffffff166160e2565b8467ffffffffffffffff167f432647a5fb9bdea356d78f8e3d83b6ddc2e78b4e4a702ac7eb968f7fe03d9dda8360000160019054906101000a900473ffffffffffffffffffffffffffffffffffffffff16604051808273ffffffffffffffffffffffffffffffffffffffff1673ffffffffffffffffffffffffffffffffffffffff16815260200191505060405180910390a2613574565b60008260000160006101000a81548160ff021916908360028111156134fc57fe5b02179055508160000160019054906101000a900473ffffffffffffffffffffffffffffffffffffffff1673ffffffffffffffffffffffffffffffffffffffff168567ffffffffffffffff167f35cc9c4d0d9a2ce748d131382582af17dbf1f0d72167ea7906ea3f18597b31a460405160405180910390a35b600360008667ffffffffffffffff1667ffffffffffffffff168152602001908152602001600020600201600080820160006101000a81549073ffffffffffffffffffffffffffffffffffffffff02191690556001820160006101000a81549073ffffffffffffffffffffffffffffffffffffffff0219169055600282016000905560038201600090556004820160009055600582016000905550505050505050565b60076020528060005260406000206000915090508060000154908060010154905082565b600080600080600061367b86600260008a67ffffffffffffffff1667ffffffffffffffff16815260200190815260200160002061521190919063ffffffff16565b9050613685618629565b600260008967ffffffffffffffff1667ffffffffffffffff168152602001908152602001600020828154811015156136b957fe5b9060005260206000209060040201608060405190810160405290816000820160009054906101000a900473ffffffffffffffffffffffffffffffffffffffff1673ffffffffffffffffffffffffffffffffffffffff1673ffffffffffffffffffffffffffffffffffffffff1681526020016001820160009054906101000a900473ffffffffffffffffffffffffffffffffffffffff1673ffffffffffffffffffffffffffffffffffffffff1673ffffffffffffffffffffffffffffffffffffffff16815260200160028201548152602001600382015481525050905080600001518160200151826040015183606001519550955095509550505092959194509250565b600860009054906101000a900473ffffffffffffffffffffffffffffffffffffffff1673ffffffffffffffffffffffffffffffffffffffff1663797327ae336040518263ffffffff167c0100000000000000000000000000000000000000000000000000000000028152600401808273ffffffffffffffffffffffffffffffffffffffff1673ffffffffffffffffffffffffffffffffffffffff16815260200191505060206040518083038186803b15801561387757600080fd5b505afa15801561388b573d6000803e3d6000fd5b505050506040513d60208110156138a157600080fd5b81019080805190602001909291905050501515613926576040517f08c379a00000000000000000000000000000000000000000000000000000000081526004018080602001828103825260198152602001807f53656e646572206973206e6f7420612056616c696461746f720000000000000081525060200191505060405180910390fd5b60016000806101000a81548160ff0219169083151502179055507f0e2fb031ee032dc02d8011dc50b816eb450cf856abd8261680dac74f72165bd26001604051808215151515815260200191505060405180910390a1565b600060019054906101000a900467ffffffffffffffff1681565b67016345785d8a0000341415156139fa576040517f08c379a00000000000000000000000000000000000000000000000000000000081526004018080602001828103825260328152602001806189f56032913960400191505060405180910390fd5b613a4f34600160003373ffffffffffffffffffffffffffffffffffffffff1673ffffffffffffffffffffffffffffffffffffffff16815260200190815260200160002060000154614ff790919063ffffffff16565b600160003373ffffffffffffffffffffffffffffffffffffffff1673ffffffffffffffffffffffffffffffffffffffff16815260200190815260200160002060000181905550856001806002811115613aa457fe5b600360008467ffffffffffffffff1667ffffffffffffffff16815260200190815260200160002060000160009054906101000a900460ff166002811115613ae757fe5b141515613b5c576040517f08c379a00000000000000000000000000000000000000000000000000000000081526004018080602001828103825260108152602001807f57726f6e6720636f696e2073746174650000000000000000000000000000000081525060200191505060405180910390fd5b613bf08888888080601f016020809104026020016040519081016040528093929190818152602001838380828437600081840152601f19601f8201169050808301925050505050505087878080601f016020809104026020016040519081016040528093929190818152602001838380828437600081840152601f19601f8201169050808301925050505050505086616281565b613c9488613c4189898080601f016020809104026020016040519081016040528093929190818152602001838380828437600081840152601f19601f820116905080830192505050505050506163b4565b85613c8f8b8b8080601f016020809104026020016040519081016040528093929190818152602001838380828437600081840152601f19601f8201169050808301925050505050505061648f565b616569565b5050505050505050565b8073ffffffffffffffffffffffffffffffffffffffff166342842e0e3330856040518463ffffffff167c0100000000000000000000000000000000000000000000000000000000028152600401808473ffffffffffffffffffffffffffffffffffffffff1673ffffffffffffffffffffffffffffffffffffffff1681526020018373ffffffffffffffffffffffffffffffffffffffff1673ffffffffffffffffffffffffffffffffffffffff1681526020018281526020019350505050600060405180830381600087803b158015613d7557600080fd5b505af1158015613d89573d6000803e3d6000fd5b505050505050565b3373ffffffffffffffffffffffffffffffffffffffff16600360008367ffffffffffffffff1667ffffffffffffffff16815260200190815260200160002060020160010160009054906101000a900473ffffffffffffffffffffffffffffffffffffffff1673ffffffffffffffffffffffffffffffffffffffff16141515613e64576040517f08c379a000000000000000000000000000000000000000000000000000000000815260040180806020018281038252602f815260200180618cc0602f913960400191505060405180910390fd5b600360008267ffffffffffffffff1667ffffffffffffffff168152602001908152602001600020600201600080820160006101000a81549073ffffffffffffffffffffffffffffffffffffffff02191690556001820160006101000a81549073ffffffffffffffffffffffffffffffffffffffff0219169055600282016000905560038201600090556004820160009055600582016000905550506000600360008367ffffffffffffffff1667ffffffffffffffff16815260200190815260200160002060000160006101000a81548160ff02191690836002811115613f4657fe5b0217905550613f54336160e2565b600360008267ffffffffffffffff1667ffffffffffffffff16815260200190815260200160002060000160019054906101000a900473ffffffffffffffffffffffffffffffffffffffff1673ffffffffffffffffffffffffffffffffffffffff168167ffffffffffffffff167f35cc9c4d0d9a2ce748d131382582af17dbf1f0d72167ea7906ea3f18597b31a460405160405180910390a350565b6000806000806000613fff618681565b600360008867ffffffffffffffff1667ffffffffffffffff16815260200190815260200160002060020160c060405190810160405290816000820160009054906101000a900473ffffffffffffffffffffffffffffffffffffffff1673ffffffffffffffffffffffffffffffffffffffff1673ffffffffffffffffffffffffffffffffffffffff1681526020016001820160009054906101000a900473ffffffffffffffffffffffffffffffffffffffff1673ffffffffffffffffffffffffffffffffffffffff1673ffffffffffffffffffffffffffffffffffffffff1681526020016002820154815260200160038201548152602001600482015481526020016005820154815250509050806020015181608001518260a00151600360008b67ffffffffffffffff1667ffffffffffffffff16815260200190815260200160002060000160009054906101000a900460ff168460400151955095509550955095505091939590929450565b600082829050905060008090505b818110156141b5576141a8848483818110151561419257fe5b9050602002013567ffffffffffffffff16613d91565b8080600101915050614179565b50505050565b60055481565b600060066000838152602001908152602001600020600001549050919050565b67016345785d8a000034141515614243576040517f08c379a00000000000000000000000000000000000000000000000000000000081526004018080602001828103825260328152602001806189f56032913960400191505060405180910390fd5b61429834600160003373ffffffffffffffffffffffffffffffffffffffff1673ffffffffffffffffffffffffffffffffffffffff16815260200190815260200160002060000154614ff790919063ffffffff16565b600160003373ffffffffffffffffffffffffffffffffffffffff1673ffffffffffffffffffffffffffffffffffffffff168152602001908152602001600020600001819055508b60008060028111156142ed57fe5b600360008467ffffffffffffffff1667ffffffffffffffff16815260200190815260200160002060000160009054906101000a900460ff16600281111561433057fe5b1415156143a5576040517f08c379a00000000000000000000000000000000000000000000000000000000081526004018080602001828103825260108152602001807f57726f6e6720636f696e2073746174650000000000000000000000000000000081525060200191505060405180910390fd5b6143f28b8b8080601f016020809104026020016040519081016040528093929190818152602001838380828437600081840152601f19601f820116905080830192505050505050506163b4565b73ffffffffffffffffffffffffffffffffffffffff163373ffffffffffffffffffffffffffffffffffffffff16141515614477576040517f08c379a000000000000000000000000000000000000000000000000000000000815260040180806020018281038252602a815260200180618d3e602a913960400191505060405180910390fd5b6146108d8d8080601f016020809104026020016040519081016040528093929190818152602001838380828437600081840152601f19601f820116905080830192505050505050508c8c8080601f016020809104026020016040519081016040528093929190818152602001838380828437600081840152601f19601f820116905080830192505050505050508b8b8080601f016020809104026020016040519081016040528093929190818152602001838380828437600081840152601f19601f820116905080830192505050505050508a8a8080601f016020809104026020016040519081016040528093929190818152602001838380828437600081840152601f19601f8201169050808301925050505050505089898080601f016020809104026020016040519081016040528093929190818152602001838380828437600081840152601f19601f82011690508083019250505050505050886002806020026040519081016040528092919082600260200280828437600081840152601f19601f820116905080830192505050505050616850565b61468e8e6146618f8f8080601f016020809104026020016040519081016040528093929190818152602001838380828437600081840152601f19601f820116905080830192505050505050506163b4565b85600060028110151561467057fe5b602002013586600160028110151561468457fe5b6020020135615018565b5050505050505050505050505050565b6000600960009054906101000a900473ffffffffffffffffffffffffffffffffffffffff1673ffffffffffffffffffffffffffffffffffffffff1663f586df65868686866040518563ffffffff167c0100000000000000000000000000000000000000000000000000000000028152600401808581526020018481526020018367ffffffffffffffff1667ffffffffffffffff16815260200180602001828103825283818151815260200191508051906020019080838360005b83811015614773578082015181840152602081019050614758565b50505050905090810190601f1680156147a05780820380516001836020036101000a031916815260200191505b509550505050505060206040518083038186803b1580156147c057600080fd5b505afa1580156147d4573d6000803e3d6000fd5b505050506040513d60208110156147ea57600080fd5b81019080805190602001909291905050509050949350505050565b60008060008060006148156185b4565b600360008867ffffffffffffffff1667ffffffffffffffff16815260200190815260200160002060c060405190810160405290816000820160009054906101000a900460ff16600281111561486657fe5b600281111561487157fe5b81526020016000820160019054906101000a900473ffffffffffffffffffffffffffffffffffffffff1673ffffffffffffffffffffffffffffffffffffffff1673ffffffffffffffffffffffffffffffffffffffff1681526020016001820160009054906101000a900473ffffffffffffffffffffffffffffffffffffffff1673ffffffffffffffffffffffffffffffffffffffff1673ffffffffffffffffffffffffffffffffffffffff1681526020016002820160c060405190810160405290816000820160009054906101000a900473ffffffffffffffffffffffffffffffffffffffff1673ffffffffffffffffffffffffffffffffffffffff1673ffffffffffffffffffffffffffffffffffffffff1681526020016001820160009054906101000a900473ffffffffffffffffffffffffffffffffffffffff1673ffffffffffffffffffffffffffffffffffffffff1673ffffffffffffffffffffffffffffffffffffffff168152602001600282015481526020016003820154815260200160048201548152602001600582015481525050815260200160088201548152602001600982015481525050905080608001518160a00151826020015183600001518460400151955095509550955095505091939590929450565b60066020528060005260406000206000915090508060000154908060010154905082565b876001806002811115614a8057fe5b600360008467ffffffffffffffff1667ffffffffffffffff16815260200190815260200160002060000160009054906101000a900460ff166002811115614ac357fe5b141515614b38576040517f08c379a00000000000000000000000000000000000000000000000000000000081526004018080602001828103825260108152602001807f57726f6e6720636f696e2073746174650000000000000000000000000000000081525060200191505060405180910390fd5b614c118a8a8a8080601f016020809104026020016040519081016040528093929190818152602001838380828437600081840152601f19601f8201169050808301925050505050505089898080601f016020809104026020016040519081016040528093929190818152602001838380828437600081840152601f19601f8201169050808301925050505050505088888080601f016020809104026020016040519081016040528093929190818152602001838380828437600081840152601f19601f82011690508083019250505050505050876168e1565b614c1a8a615c81565b50505050505050505050565b6000809054906101000a900460ff16151515614c8d576040517f08c379a00000000000000000000000000000000000000000000000000000000081526004018080602001828103825260288152602001806189366028913960400191505060405180910390fd5b614ca36001600554614ff790919063ffffffff16565b60058190555060008060019054906101000a900467ffffffffffffffff163385604051602001808467ffffffffffffffff1667ffffffffffffffff1678010000000000000000000000000000000000000000000000000281526008018373ffffffffffffffffffffffffffffffffffffffff1673ffffffffffffffffffffffffffffffffffffffff166c010000000000000000000000000281526014018273ffffffffffffffffffffffffffffffffffffffff1673ffffffffffffffffffffffffffffffffffffffff166c010000000000000000000000000281526014019350505050604051602081830303815290604052805190602001207801000000000000000000000000000000000000000000000000900490506000600360008367ffffffffffffffff1667ffffffffffffffff1681526020019081526020016000209050828160080181905550838160010160006101000a81548173ffffffffffffffffffffffffffffffffffffffff021916908373ffffffffffffffffffffffffffffffffffffffff1602179055506005548160090181905550848160000160016101000a81548173ffffffffffffffffffffffffffffffffffffffff021916908373ffffffffffffffffffffffffffffffffffffffff16021790555060008160000160006101000a81548160ff02191690836002811115614ea057fe5b0217905550604080519081016040528083604051602001808267ffffffffffffffff1667ffffffffffffffff1678010000000000000000000000000000000000000000000000000281526008019150506040516020818303038152906040528051906020012081526020014281525060066000600554815260200190815260200160002060008201518160000155602082015181600101559050508373ffffffffffffffffffffffffffffffffffffffff168573ffffffffffffffffffffffffffffffffffffffff168367ffffffffffffffff167f68d22e85b0df39249291acbe65dba95feb05284fca981b8faf168e50fce70af76005546040518082815260200191505060405180910390a46001600060018282829054906101000a900467ffffffffffffffff160192506101000a81548167ffffffffffffffff021916908367ffffffffffffffff1602179055505050505050565b600080828401905083811015151561500e57600080fd5b8091505092915050565b6000600360008667ffffffffffffffff1667ffffffffffffffff168152602001908152602001600020905060c0604051908101604052808573ffffffffffffffffffffffffffffffffffffffff1681526020013373ffffffffffffffffffffffffffffffffffffffff168152602001428152602001348152602001848152602001838152508160020160008201518160000160006101000a81548173ffffffffffffffffffffffffffffffffffffffff021916908373ffffffffffffffffffffffffffffffffffffffff16021790555060208201518160010160006101000a81548173ffffffffffffffffffffffffffffffffffffffff021916908373ffffffffffffffffffffffffffffffffffffffff16021790555060408201518160020155606082015181600301556080820151816004015560a0820151816005015590505060018160000160006101000a81548160ff0219169083600281111561517b57fe5b02179055503373ffffffffffffffffffffffffffffffffffffffff168567ffffffffffffffff167fbaf912dedc1b0ee4647f945b0432e694bce1aa2c4e21052d977687641587495660405160405180910390a35050505050565b6000806151e28484615211565b90507fffffffffffffffffffffffffffffffffffffffffffffffffffffffffffffffff81141591505092915050565b600080600090505b83805490508110156152625782848281548110151561523457fe5b90600052602060002090600402016002015414156152555780915050615287565b8080600101915050615219565b507fffffffffffffffffffffffffffffffffffffffffffffffffffffffffffffffff90505b92915050565b6152956186e4565b6152a0848387616b26565b905061532083600260008a67ffffffffffffffff1667ffffffffffffffff168152602001908152602001600020888154811015156152da57fe5b906000526020600020906004020160000160009054906101000a900473ffffffffffffffffffffffffffffffffffffffff1683604001516170189092919063ffffffff16565b1515615394576040517f08c379a00000000000000000000000000000000000000000000000000000000081526004018080602001828103825260118152602001807f496e76616c6964207369676e617475726500000000000000000000000000000081525060200191505060405180910390fd5b8667ffffffffffffffff16816000015167ffffffffffffffff16141515615423576040517f08c379a000000000000000000000000000000000000000000000000000000000815260040180806020018281038252601e8152602001807f5478206973207265666572656e63696e6720616e6f7468657220736c6f74000081525060200191505060405180910390fd5b600260008867ffffffffffffffff1667ffffffffffffffff1681526020019081526020016000208681548110151561545757fe5b906000526020600020906004020160030154851115156154c2576040517f08c379a0000000000000000000000000000000000000000000000000000000008152600401808060200182810382526026815260200180618d686026913960400191505060405180910390fd5b600360008867ffffffffffffffff1667ffffffffffffffff16815260200190815260200160002060020160050154851115151561554a576040517f08c379a0000000000000000000000000000000000000000000000000000000008152600401808060200182810382526027815260200180618a276027913960400191505060405180910390fd5b50505050505050565b6155b067016345785d8a0000600160008573ffffffffffffffffffffffffffffffffffffffff1673ffffffffffffffffffffffffffffffffffffffff1681526020019081526020016000206000015461705b90919063ffffffff16565b600160008473ffffffffffffffffffffffffffffffffffffffff1673ffffffffffffffffffffffffffffffffffffffff1681526020019081526020016000206000018190555061565367016345785d8a0000600160008473ffffffffffffffffffffffffffffffffffffffff1673ffffffffffffffffffffffffffffffffffffffff16815260200190815260200160002060010154614ff790919063ffffffff16565b600160008373ffffffffffffffffffffffffffffffffffffffff1673ffffffffffffffffffffffffffffffffffffffff168152602001908152602001600020600101819055508073ffffffffffffffffffffffffffffffffffffffff168273ffffffffffffffffffffffffffffffffffffffff167fbd6bf2f753dc1a7dee94a7abd7645adc6c228c2af17fd72d9104674cc5d2127367016345785d8a00006040518082815260200191505060405180910390a35050565b6000806157178484615211565b90507fffffffffffffffffffffffffffffffffffffffffffffffffffffffffffffffff81141561574b5760009150506159a9565b615753618629565b84600186805490500381548110151561576857fe5b9060005260206000209060040201608060405190810160405290816000820160009054906101000a900473ffffffffffffffffffffffffffffffffffffffff1673ffffffffffffffffffffffffffffffffffffffff1673ffffffffffffffffffffffffffffffffffffffff1681526020016001820160009054906101000a900473ffffffffffffffffffffffffffffffffffffffff1673ffffffffffffffffffffffffffffffffffffffff1673ffffffffffffffffffffffffffffffffffffffff16815260200160028201548152602001600382015481525050905080858381548110151561585357fe5b906000526020600020906004020160008201518160000160006101000a81548173ffffffffffffffffffffffffffffffffffffffff021916908373ffffffffffffffffffffffffffffffffffffffff16021790555060208201518160010160006101000a81548173ffffffffffffffffffffffffffffffffffffffff021916908373ffffffffffffffffffffffffffffffffffffffff160217905550604082015181600201556060820151816003015590505084600186805490500381548110151561591b57fe5b9060005260206000209060040201600080820160006101000a81549073ffffffffffffffffffffffffffffffffffffffff02191690556001820160006101000a81549073ffffffffffffffffffffffffffffffffffffffff0219169055600282016000905560038201600090555050600185818180549050039150816159a19190618730565b506001925050505b92915050565b80600360008767ffffffffffffffff1667ffffffffffffffff16815260200190815260200160002060020160050154101515615a53576040517f08c379a00000000000000000000000000000000000000000000000000000000081526004018080602001828103825260208152602001807f54782073686f756c64206265206166746572207468652065786974426c6f636b81525060200191505060405180910390fd5b615a5b6186e4565b615a66858584616b26565b9050615ace83600360008967ffffffffffffffff1667ffffffffffffffff16815260200190815260200160002060020160010160009054906101000a900473ffffffffffffffffffffffffffffffffffffffff1683604001516170189092919063ffffffff16565b1515615b42576040517f08c379a00000000000000000000000000000000000000000000000000000000081526004018080602001828103825260118152602001807f496e76616c6964207369676e617475726500000000000000000000000000000081525060200191505060405180910390fd5b8567ffffffffffffffff16816000015167ffffffffffffffff16141515615bd1576040517f08c379a000000000000000000000000000000000000000000000000000000000815260040180806020018281038252601e8152602001807f5478206973207265666572656e63696e6720616e6f7468657220736c6f74000081525060200191505060405180910390fd5b600360008767ffffffffffffffff1667ffffffffffffffff168152602001908152602001600020600201600501548160600151141515615c79576040517f08c379a00000000000000000000000000000000000000000000000000000000081526004018080602001828103825260128152602001807f4e6f74206120646972656374207370656e64000000000000000000000000000081525060200191505060405180910390fd5b505050505050565b615cd8600360008367ffffffffffffffff1667ffffffffffffffff16815260200190815260200160002060020160010160009054906101000a900473ffffffffffffffffffffffffffffffffffffffff1633615553565b6000600360008367ffffffffffffffff1667ffffffffffffffff16815260200190815260200160002060000160006101000a81548160ff02191690836002811115615d1f57fe5b0217905550600360008267ffffffffffffffff1667ffffffffffffffff168152602001908152602001600020600201600080820160006101000a81549073ffffffffffffffffffffffffffffffffffffffff02191690556001820160006101000a81549073ffffffffffffffffffffffffffffffffffffffff021916905560028201600090556003820160009055600482016000905560058201600090555050600360008267ffffffffffffffff1667ffffffffffffffff16815260200190815260200160002060000160019054906101000a900473ffffffffffffffffffffffffffffffffffffffff1673ffffffffffffffffffffffffffffffffffffffff168167ffffffffffffffff167f35cc9c4d0d9a2ce748d131382582af17dbf1f0d72167ea7906ea3f18597b31a460405160405180910390a350565b600080600260008467ffffffffffffffff1667ffffffffffffffff168152602001908152602001600020805490509050600080925060008090505b828110156160da576000600102600260008767ffffffffffffffff1667ffffffffffffffff16815260200190815260200160002082815481101515615ed657fe5b9060005260206000209060040201600201541415156160cd57811515615fb757615fb2600360008767ffffffffffffffff1667ffffffffffffffff16815260200190815260200160002060020160010160009054906101000a900473ffffffffffffffffffffffffffffffffffffffff16600260008867ffffffffffffffff1667ffffffffffffffff16815260200190815260200160002083815481101515615f7b57fe5b906000526020600020906004020160010160009054906101000a900473ffffffffffffffffffffffffffffffffffffffff16615553565b600191505b616025600260008767ffffffffffffffff1667ffffffffffffffff16815260200190815260200160002082815481101515615fee57fe5b906000526020600020906004020160010160009054906101000a900473ffffffffffffffffffffffffffffffffffffffff166160e2565b600260008667ffffffffffffffff1667ffffffffffffffff1681526020019081526020016000208181548110151561605957fe5b9060005260206000209060040201600080820160006101000a81549073ffffffffffffffffffffffffffffffffffffffff02191690556001820160006101000a81549073ffffffffffffffffffffffffffffffffffffffff0219169055600282016000905560038201600090555050600193505b8080600101915050615e95565b505050919050565b61613f67016345785d8a0000600160008473ffffffffffffffffffffffffffffffffffffffff1673ffffffffffffffffffffffffffffffffffffffff1681526020019081526020016000206000015461705b90919063ffffffff16565b600160008373ffffffffffffffffffffffffffffffffffffffff1673ffffffffffffffffffffffffffffffffffffffff168152602001908152602001600020600001819055506161e267016345785d8a0000600160008473ffffffffffffffffffffffffffffffffffffffff1673ffffffffffffffffffffffffffffffffffffffff16815260200190815260200160002060010154614ff790919063ffffffff16565b600160008373ffffffffffffffffffffffffffffffffffffffff1673ffffffffffffffffffffffffffffffffffffffff168152602001908152602001600020600101819055508073ffffffffffffffffffffffffffffffffffffffff167f5406cdbb33189b887da81a90c7ff307f3af1854b2504d0bde438b8bb5b7d8b5267016345785d8a00006040518082815260200191505060405180910390a250565b600360008567ffffffffffffffff1667ffffffffffffffff168152602001908152602001600020600201600401548111151515616309576040517f08c379a000000000000000000000000000000000000000000000000000000000815260040180806020018281038252602b815260200180618982602b913960400191505060405180910390fd5b6163116186e4565b61631c848484616b26565b90508467ffffffffffffffff16816000015167ffffffffffffffff161415156163ad576040517f08c379a000000000000000000000000000000000000000000000000000000000815260040180806020018281038252601e8152602001807f5478206973207265666572656e63696e6720616e6f7468657220736c6f74000081525060200191505060405180910390fd5b5050505050565b600060606163c96163c48461707d565b6170ab565b90506163d481617188565b15616401576163fa8160028151811015156163eb57fe5b90602001906020020151617196565b9150616489565b61640a816171bb565b156164375761643081600381518110151561642157fe5b90602001906020020151617196565b9150616488565b6040517f08c379a000000000000000000000000000000000000000000000000000000000815260040180806020018281038252603a815260200180618c60603a913960400191505060405180910390fd5b5b50919050565b600060606164a461649f8461707d565b6170ab565b905060006164c98260008151811015156164ba57fe5b906020019060200201516171c9565b905060006164ee8360018151811015156164df57fe5b906020019060200201516171c9565b905060008114156165565781604051602001808267ffffffffffffffff1667ffffffffffffffff167801000000000000000000000000000000000000000000000000028152600801915050604051602081830303815290604052805190602001209350616561565b848051906020012093505b505050919050565b62049d40600360008667ffffffffffffffff1667ffffffffffffffff16815260200190815260200160002060020160020154014211151515616613576040517f08c379a00000000000000000000000000000000000000000000000000000000081526004018080602001828103825260198152602001807f4368616c6c656e67652077696e646f7773206973206f7665720000000000000081525060200191505060405180910390fd5b61664c81600260008767ffffffffffffffff1667ffffffffffffffff1681526020019081526020016000206151d590919063ffffffff16565b1515156166a4576040517f08c379a0000000000000000000000000000000000000000000000000000000008152600401808060200182810382526026815260200180618c9a6026913960400191505060405180910390fd5b600260008567ffffffffffffffff1667ffffffffffffffff1681526020019081526020016000206080604051908101604052808573ffffffffffffffffffffffffffffffffffffffff1681526020013373ffffffffffffffffffffffffffffffffffffffff168152602001838152602001848152509080600181540180825580915050906001820390600052602060002090600402016000909192909190915060008201518160000160006101000a81548173ffffffffffffffffffffffffffffffffffffffff021916908373ffffffffffffffffffffffffffffffffffffffff16021790555060208201518160010160006101000a81548173ffffffffffffffffffffffffffffffffffffffff021916908373ffffffffffffffffffffffffffffffffffffffff16021790555060408201518160020155606082015181600301555050508273ffffffffffffffffffffffffffffffffffffffff168467ffffffffffffffff167f6c66d916f7de00b00553c0be460c2844c555cb0d8d37fffbfb8c115f8ba27f418385604051808381526020018281526020019250505060405180910390a350505050565b600060045482600160028110151561686457fe5b602002015181151561687257fe5b061415156168cb576040517f08c379a0000000000000000000000000000000000000000000000000000000008152600401808060200182810382526036815260200180618bf16036913960400191505060405180910390fd5b6168d986868686868661723c565b505050505050565b80600360008767ffffffffffffffff1667ffffffffffffffff16815260200190815260200160002060020160050154118015616949575080600360008767ffffffffffffffff1667ffffffffffffffff16815260200190815260200160002060020160040154105b15156169a0576040517f08c379a0000000000000000000000000000000000000000000000000000000008152600401808060200182810382526026815260200180618e606026913960400191505060405180910390fd5b6169a86186e4565b6169b3858584616b26565b9050616a1b83600360008967ffffffffffffffff1667ffffffffffffffff16815260200190815260200160002060020160000160009054906101000a900473ffffffffffffffffffffffffffffffffffffffff1683604001516170189092919063ffffffff16565b1515616a8f576040517f08c379a00000000000000000000000000000000000000000000000000000000081526004018080602001828103825260118152602001807f496e76616c6964207369676e617475726500000000000000000000000000000081525060200191505060405180910390fd5b8567ffffffffffffffff16816000015167ffffffffffffffff16141515616b1e576040517f08c379a000000000000000000000000000000000000000000000000000000000815260040180806020018281038252601e8152602001807f5478206973207265666572656e63696e6720616e6f7468657220736c6f74000081525060200191505060405180910390fd5b505050505050565b616b2e6186e4565b6060616b398561741d565b9050616b4481617188565b15616b8457616b516186e4565b616b64868361743790919063ffffffff16565b9050616b7a8160000151826040015186886175fa565b8092505050617011565b616b8d816171bb565b15616fc057616b9a618597565b6007600085815260200190815260200160002060408051908101604052908160008201548152602001600182015481525050905060006001028160000151141515616ed1576060616bea83617713565b9050616c55816001815181101515616bfe57fe5b9060200190602002015160a00151826001815181101515616c1b57fe5b9060200190602002015160400151836001815181101515616c3857fe5b9060200190602002015160e001516170189092919063ffffffff16565b1515616cac576040517f08c379a0000000000000000000000000000000000000000000000000000000008152600401808060200182810382526022815260200180618a856022913960400191505060405180910390fd5b6060616cb78761741d565b905060048151141515616d15576040517f08c379a000000000000000000000000000000000000000000000000000000000815260040180806020018281038252602c81526020018061890a602c913960400191505060405180910390fd5b616d79826000815181101515616d2757fe5b9060200190602002015160000151836000815181101515616d4457fe5b9060200190602002015160e0015188616d74856000815181101515616d6557fe5b90602001906020020151617d0c565b6175fa565b616ddd826001815181101515616d8b57fe5b9060200190602002015160000151836001815181101515616da857fe5b9060200190602002015160e0015188616dd8856001815181101515616dc957fe5b90602001906020020151617d0c565b6175fa565b616e41826000815181101515616def57fe5b9060200190602002015160000151836000815181101515616e0c57fe5b9060200190602002015160c0015188616e3c856002815181101515616e2d57fe5b90602001906020020151617d0c565b617d9a565b616ea5826001815181101515616e5357fe5b9060200190602002015160000151836001815181101515616e7057fe5b9060200190602002015160c0015188616ea0856003815181101515616e9157fe5b90602001906020020151617d0c565b617d9a565b616ec6826000815181101515616eb757fe5b90602001906020020151617ea4565b945050505050617011565b616ed9618597565b6006600086815260200190815260200160002060408051908101604052908160008201548152602001600182015481525050905062015180816020015142031115616f6f576040517f08c379a0000000000000000000000000000000000000000000000000000000008152600401808060200182810382526039815260200180618c276039913960400191505060405180910390fd5b6040517f08c379a000000000000000000000000000000000000000000000000000000000815260040180806020018281038252604f815260200180618cef604f913960600191505060405180910390fd5b6040517f08c379a0000000000000000000000000000000000000000000000000000000008152600401808060200182810382526040815260200180618dca6040913960400191505060405180910390fd5b9392505050565b60006170248484617f39565b73ffffffffffffffffffffffffffffffffffffffff168273ffffffffffffffffffffffffffffffffffffffff161490509392505050565b600082821115151561706c57600080fd5b600082840390508091505092915050565b617085618762565b600060208301905060408051908101604052808451815260200182815250915050919050565b60606170b6826181ee565b15156170c157600080fd5b60006170cc8361823c565b90508060405190808252806020026020018201604052801561710857816020015b6170f561877c565b8152602001906001900390816170ed5790505b509150600061711a84602001516182ad565b8460200151019050600080600090505b8381101561717f5761713b83618336565b9150604080519081016040528083815260200184815250858281518110151561716057fe5b906020019060200201819052508183019250808060010191505061712a565b50505050919050565b600060038251149050919050565b6000601582600001511415156171ab57600080fd5b6171b4826171c9565b9050919050565b600060098251149050919050565b60008082600001511180156171e357506021826000015111155b15156171ee57600080fd5b60006171fd83602001516182ad565b9050600081846000015103905060008083866020015101905080519150602083101561723057826020036101000a820491505b81945050505050919050565b80600160028110151561724b57fe5b602002015181600060028110151561725f57fe5b60200201511015156172bc576040517f08c379a000000000000000000000000000000000000000000000000000000000815260040180806020018281038252603c815260200180618aa7603c913960400191505060405180910390fd5b6172c46186e4565b6172e287868460006002811015156172d857fe5b6020020151616b26565b90506172ec6186e4565b61730a878685600160028110151561730057fe5b6020020151616b26565b9050816000015167ffffffffffffffff16816000015167ffffffffffffffff16141515617382576040517f08c379a0000000000000000000000000000000000000000000000000000000008152600401808060200182810382526037815260200180618a4e6037913960400191505060405180910390fd5b61739f84836020015183604001516170189092919063ffffffff16565b1515617413576040517f08c379a00000000000000000000000000000000000000000000000000000000081526004018080602001828103825260118152602001807f496e76616c6964207369676e617475726500000000000000000000000000000081525060200191505060405180910390fd5b5050505050505050565b606061743061742b8361707d565b6170ab565b9050919050565b61743f6186e4565b61744883617188565b151561749f576040517f08c379a0000000000000000000000000000000000000000000000000000000008152600401808060200182810382526038815260200180618e866038913960400191505060405180910390fd5b6174a76186e4565b6174c88460008151811015156174b957fe5b906020019060200201516171c9565b816000019067ffffffffffffffff16908167ffffffffffffffff16815250506175088460018151811015156174f957fe5b906020019060200201516171c9565b81606001818152505061753284600281518110151561752357fe5b90602001906020020151617196565b816020019073ffffffffffffffffffffffffffffffffffffffff16908173ffffffffffffffffffffffffffffffffffffffff16815250506000816060015114156175de578060000151604051602001808267ffffffffffffffff1667ffffffffffffffff167801000000000000000000000000000000000000000000000000028152600801915050604051602081830303815290604052805190602001208160400181815250506175f0565b82805190602001208160400181815250505b8091505092915050565b60006006600084815260200190815260200160002060000154905060006004548481151561762457fe5b0614151561768b578084141515617686576040517f08c379a0000000000000000000000000000000000000000000000000000000008152600401808060200182810382526028815260200180618b456028913960400191505060405180910390fd5b61770c565b6176978482878561469e565b151561770b576040517f08c379a00000000000000000000000000000000000000000000000000000000081526004018080602001828103825260208152602001807f5478206e6f7420696e636c7564656420696e20636c61696d656420626c6f636b81525060200191505060405180910390fd5b5b5050505050565b606061771e826171bb565b1515617775576040517f08c379a0000000000000000000000000000000000000000000000000000000008152600401808060200182810382526041815260200180618bb06041913960600191505060405180910390fd5b606060026040519080825280602002602001820160405280156177b257816020015b61779f618796565b8152602001906001900390816177975790505b5090506177d68360008151811015156177c757fe5b906020019060200201516171c9565b8160008151811015156177e557fe5b906020019060200201516000019067ffffffffffffffff16908167ffffffffffffffff168152505061782e83600181518110151561781f57fe5b906020019060200201516171c9565b81600081518110151561783d57fe5b90602001906020020151602001818152505061787083600281518110151561786157fe5b906020019060200201516171c9565b81600081518110151561787f57fe5b9060200190602002015160800181815250506178b28360038151811015156178a357fe5b90602001906020020151617196565b8160008151811015156178c157fe5b906020019060200201516060019073ffffffffffffffffffffffffffffffffffffffff16908173ffffffffffffffffffffffffffffffffffffffff168152505061792283600481518110151561791357fe5b906020019060200201516171c9565b81600081518110151561793157fe5b90602001906020020151610100019067ffffffffffffffff16908167ffffffffffffffff168152505061797b83600581518110151561796c57fe5b906020019060200201516171c9565b67ffffffffffffffff1681600181518110151561799457fe5b9060200190602002015160200181815250506179c78360068151811015156179b857fe5b906020019060200201516171c9565b8160018151811015156179d657fe5b906020019060200201516080018181525050617a098360078151811015156179fa57fe5b90602001906020020151617196565b816001815181101515617a1857fe5b906020019060200201516060019073ffffffffffffffffffffffffffffffffffffffff16908173ffffffffffffffffffffffffffffffffffffffff1681525050617a79836008815181101515617a6a57fe5b90602001906020020151617d0c565b816001815181101515617a8857fe5b9060200190602002015160a00181905250806001815181101515617aa857fe5b9060200190602002015160600151816000815181101515617ac557fe5b906020019060200201516040019073ffffffffffffffffffffffffffffffffffffffff16908173ffffffffffffffffffffffffffffffffffffffff1681525050806000815181101515617b1457fe5b90602001906020020151608001516040516020018082815260200191505060405160208183030381529060405280519060200120816000815181101515617b5757fe5b9060200190602002015160c0018181525050617b8a816000815181101515617b7b57fe5b906020019060200201516183e9565b816000815181101515617b9957fe5b9060200190602002015160e0018181525050806000815181101515617bba57fe5b906020019060200201516101000151816001815181101515617bd857fe5b906020019060200201516000019067ffffffffffffffff16908167ffffffffffffffff1681525050806000815181101515617c0f57fe5b9060200190602002015160000151816001815181101515617c2c57fe5b90602001906020020151610100019067ffffffffffffffff16908167ffffffffffffffff1681525050806000815181101515617c6457fe5b9060200190602002015160600151816001815181101515617c8157fe5b906020019060200201516040019073ffffffffffffffffffffffffffffffffffffffff16908173ffffffffffffffffffffffffffffffffffffffff1681525050617ce2816001815181101515617cd357fe5b906020019060200201516183e9565b816001815181101515617cf157fe5b9060200190602002015160e001818152505080915050919050565b606060008260000151111515617d2157600080fd5b6000617d3083602001516182ad565b905060008184600001510390506060816040519080825280601f01601f191660200182016040528015617d725781602001600182028038833980820191505090505b5090506000816020019050617d8e84876020015101828561852e565b81945050505050919050565b600060076000848152602001908152602001600020600001549050600060045484811515617dc457fe5b06141515617e1d576040517f08c379a0000000000000000000000000000000000000000000000000000000008152600401808060200182810382526035815260200180618ae36035913960400191505060405180910390fd5b617e298482878561469e565b1515617e9d576040517f08c379a00000000000000000000000000000000000000000000000000000000081526004018080602001828103825260208152602001807f5478206e6f7420696e636c7564656420696e20636c61696d656420626c6f636b81525060200191505060405180910390fd5b5050505050565b617eac6186e4565b617eb46186e4565b8260000151816000019067ffffffffffffffff16908167ffffffffffffffff16815250508260600151816020019073ffffffffffffffffffffffffffffffffffffffff16908173ffffffffffffffffffffffffffffffffffffffff16815250508260e00151816040018181525050826020015181606001818152505080915050919050565b6000604182511480617f4c575060428251145b1515617fc0576040517f08c379a000000000000000000000000000000000000000000000000000000000815260040180806020018281038252601b8152602001807f5369676e6174757265206c656e67687420697320696e76616c6964000000000081525060200191505060405180910390fd5b60008084905060008060008060019050604188511415617fe7576000905060009550618075565b876000815181101515617ff657fe5b9060200101517f010000000000000000000000000000000000000000000000000000000000000090047f0100000000000000000000000000000000000000000000000000000000000000027f0100000000000000000000000000000000000000000000000000000000000000900460ff16600281111561807257fe5b95505b80602001880151925080604001880151915060ff81604101890151169350600160028111156180a057fe5b8660028111156180ac57fe5b1415618108578460405160200180807f19457468657265756d205369676e6564204d6573736167653a0a333200000000815250601c01828152602001915050604051602081830303815290604052805190602001209450618179565b60028081111561811457fe5b86600281111561812057fe5b1415618178578460405160200180807f19457468657265756d205369676e6564204d6573736167653a0a200000000000815250601b018281526020019150506040516020818303038152906040528051906020012094505b5b60018585858560405160008152602001604052604051808581526020018460ff1660ff1681526020018381526020018281526020019450505050506020604051602081039080840390855afa1580156181d6573d6000803e3d6000fd5b50505060206040510351965050505050505092915050565b600080826000015114156182055760009050618237565b60008083602001519050805160001a915060c060ff168260ff16101561823057600092505050618237565b6001925050505b919050565b6000808260000151141561825357600090506182a8565b6000809050600061826784602001516182ad565b84602001510190506000846000015185602001510190505b808210156182a15761829082618336565b82019150828060010193505061827f565b8293505050505b919050565b600080825160001a9050608060ff168110156182cd576000915050618331565b60b860ff168110806182f2575060c060ff1681101580156182f1575060f860ff1681105b5b15618301576001915050618331565b60c060ff168110156183215760018060b80360ff16820301915050618331565b60018060f80360ff168203019150505b919050565b600080825160001a9050608060ff168110156183565760019150506183e4565b60b860ff16811015618374576001608060ff168203019150506183e4565b60c060ff168110156183a45760b78103600184019350806020036101000a845104600182018101935050506183e2565b60f860ff168110156183c257600160c060ff168203019150506183e4565b60f78103600184019350806020036101000a845104600182018101935050505b505b919050565b600081600001518260200151836040015184610100015185606001518660c00151604051602001808767ffffffffffffffff1667ffffffffffffffff1678010000000000000000000000000000000000000000000000000281526008018681526020018573ffffffffffffffffffffffffffffffffffffffff1673ffffffffffffffffffffffffffffffffffffffff166c010000000000000000000000000281526014018467ffffffffffffffff1667ffffffffffffffff1678010000000000000000000000000000000000000000000000000281526008018373ffffffffffffffffffffffffffffffffffffffff1673ffffffffffffffffffffffffffffffffffffffff166c010000000000000000000000000281526014018281526020019650505050505050604051602081830303815290604052805190602001209050919050565b600081141561853c57618592565b5b602060ff168110151561856e5782518252602060ff1683019250602060ff1682019150602060ff168103905061853d565b6000600182602060ff16036101000a03905080198451168184511681811785525050505b505050565b604080519081016040528060008019168152602001600081525090565b61016060405190810160405280600060028111156185ce57fe5b8152602001600073ffffffffffffffffffffffffffffffffffffffff168152602001600073ffffffffffffffffffffffffffffffffffffffff168152602001618615618829565b815260200160008152602001600081525090565b608060405190810160405280600073ffffffffffffffffffffffffffffffffffffffff168152602001600073ffffffffffffffffffffffffffffffffffffffff16815260200160008019168152602001600081525090565b60c060405190810160405280600073ffffffffffffffffffffffffffffffffffffffff168152602001600073ffffffffffffffffffffffffffffffffffffffff168152602001600081526020016000815260200160008152602001600081525090565b608060405190810160405280600067ffffffffffffffff168152602001600073ffffffffffffffffffffffffffffffffffffffff16815260200160008019168152602001600081525090565b81548183558181111561875d5760040281600402836000526020600020918201910161875c919061888c565b5b505050565b604080519081016040528060008152602001600081525090565b604080519081016040528060008152602001600081525090565b61012060405190810160405280600067ffffffffffffffff16815260200160008152602001600073ffffffffffffffffffffffffffffffffffffffff168152602001600073ffffffffffffffffffffffffffffffffffffffff16815260200160008152602001606081526020016000801916815260200160008019168152602001600067ffffffffffffffff1681525090565b60c060405190810160405280600073ffffffffffffffffffffffffffffffffffffffff168152602001600073ffffffffffffffffffffffffffffffffffffffff168152602001600081526020016000815260200160008152602001600081525090565b61890691905b8082111561890257600080820160006101000a81549073ffffffffffffffffffffffffffffffffffffffff02191690556001820160006101000a81549073ffffffffffffffffffffffffffffffffffffffff02191690556002820160009055600382016000905550600401618892565b5090565b9056fe342070726f6f66206d757374206265207375626d697474656420666f7220616e2061746f6d69632073776170436f6e7472616374206973206e6f7420616363657074696e67206d6f7265206465706f7369747321526573706f6e64696e6720746f206e6f6e206578697374696e67206368616c6c656e676554782073686f756c64206265206265666f7265207468652065786974277320706172656e7420626c6f636b546f6b656e20776173206e6f74207472616e73666572656420636f72726563746c7954696d6520746f2072657665616c207365637265747320697320616c7265616479206f7665725472616e73616374696f6e206d757374206265206163636f6d70616e6965642062792074686520424f4e4420414d4f554e5443616e6e6f7420726573706f6e6420776974682061207478206166746572207468652065786974536c6f74206f6e207468652045786974696e67547820646f6573206e6f74206d617463682074686174206f6e2074686520707265765478496e76616c6964207369676e6174757265204220696e2061746f6d69632073776170426c6f636b206f6e2074686520666972737420696e646578206d75737420626520746865206561726c696572206f6620746865203220626c6f636b73547279696e6720746f2076616c696461746520616e2061746f6d6963207377617020666f722061206465706f73697420626c6f636b436f6e74726163742061646472657373206973206e6f7420617070726f76656420666f72206465706f736974735472616e73616374696f6e206861736820646f6573206e6f74206d6174636820726f6f74486173684120626c6f636b206d757374206265207375626d697474656420666972737420696e206f7264657220746f2072657665616c20746865207377617020736563726574735472616e73616374696f6e20627974657320646f206e6f7420636f72726573706f6e6420746f20616e2061746f6d69632073776170207472616e73616374696f6e506c6561736520646f20612073746172744465706f73697445787420666f72206465706f7369746564207472616e73616374696f6e7353656372657420776173206e657665722072657665616c656420666f72207468697320626c6f636b2c207377617020697320696e76616c6964436f756c64206e6f742064657465726d696e65207472616e73616374696f6e207479706520746f20726574726965766520746865206f776e65725472616e73616374696f6e207573656420666f72206368616c6c656e676520616c72656164794f6e6c7920636f696e2773206f776e657220697320616c6c6f77656420746f2063616e63656c20746865206578697453656372657420686173206e6f7420796574206265656e2072657665616c65642c207468657265206973207374696c6c2074696d6520746f20636f6d6d697420746865207472616e73616374696f6e53656e64657220646f6573206e6f74206d617463682065786974696e6754784279746573206f776e6572426c6f636b4e756d626572206d75737420626520616674657220746865206368616c656e6765596f75206d757374207761697420746865206d6174757269747920706572696f64206265666f72652066696e616c697a696e672074686520657869747478427974657320646f206e6f7420636f72726573706f6e64206e65697468657220746f206261736963205458206e6f7220746f2041746f6d696320737761704120626c6f636b206c657373207468616e2063757272656e74426c6f636b2063616e6e6f74206265207375626d69747465645468697320636f6e747261637420646f6573206e6f742072656365697665206d6f6e657954782073686f756c64206265206265747765656e207468652065786974277320626c6f636b735472616e73616374696f6e20627974657320646f206e6f7420636f72726573706f6e6420746f206261736963207472616e73616374696f6e53656e64657220646f6573206e6f74206d61746368206465706f736974206f776e6572a165627a7a7230582030a7edd19960aeffe90332e6bebf20dfc87c65912737a2bd09d18abf5238f83f0029608060405234801561001057600080fd5b507f290decd9548b62a8d60345a988386fc84ba6bc95484008f6362f93160ef3e56360010260008060418110151561004457fe5b018190555061006460016040610069640100000000026401000000009004565b610102565b60008290505b8160ff168160ff161115156100fd5760006001820360ff1660418110151561009357fe5b015460006001830360ff166041811015156100aa57fe5b015460405160200180838152602001828152602001925050506040516020818303038152906040528051906020012060008260ff166041811015156100eb57fe5b0181905550808060010191505061006f565b505050565b6104fd806101116000396000f3fe608060405234801561001057600080fd5b506004361061005e576000357c01000000000000000000000000000000000000000000000000000000009004806348419ad814610063578063509a7e54146100a5578063f586df6514610192575b600080fd5b61008f6004803603602081101561007957600080fd5b810190808035906020019092919050505061028d565b6040518082815260200191505060405180910390f35b61017c600480360360608110156100bb57600080fd5b8101908080359060200190929190803567ffffffffffffffff169060200190929190803590602001906401000000008111156100f657600080fd5b82018360208201111561010857600080fd5b8035906020019184600183028401116401000000008311171561012a57600080fd5b91908080601f016020809104026020016040519081016040528093929190818152602001838380828437600081840152601f19601f8201169050808301925050505050505091929192905050506102a7565b6040518082815260200191505060405180910390f35b610273600480360360808110156101a857600080fd5b810190808035906020019092919080359060200190929190803567ffffffffffffffff169060200190929190803590602001906401000000008111156101ed57600080fd5b8201836020820111156101ff57600080fd5b8035906020019184600183028401116401000000008311171561022157600080fd5b91908080601f016020809104026020016040519081016040528093929190818152602001838380828437600081840152601f19601f8201169050808301925050505050505091929192905050506104b3565b604051808215151515815260200191505060405180910390f35b60008160418110151561029c57fe5b016000915090505481565b600080602060088451038115156102ba57fe5b061480156102cb5750610808825111155b151561033f576040517f08c379a00000000000000000000000000000000000000000000000000000000081526004018080602001828103825260178152602001807f50726f6f66206c656e67746820697320696e76616c696400000000000000000081525060200191505060405180910390fd5b60008085905060006008905060008087905060186101000a602088015104915060008090505b604060ff168110156104a357600060028467ffffffffffffffff1681151561038957fe5b0667ffffffffffffffff1614156103b2576000816041811015156103a957fe5b015495506103d3565b6020840193508361ffff168851101515156103cc57600080fd5b8388015195505b600060028367ffffffffffffffff168115156103eb57fe5b0667ffffffffffffffff1614156104325784866040516020018083815260200182815260200192505050604051602081830303815290604052805190602001209450610464565b858560405160200180838152602001828152602001925050506040516020818303038152906040528051906020012094505b60028367ffffffffffffffff1681151561047a57fe5b04925060028267ffffffffffffffff1681151561049357fe5b0491508080600101915050610365565b5083955050505050509392505050565b6000806104c18685856102a7565b905084811491505094935050505056fea165627a7a723058203cd8d8a9d86fc93a007197a4b89e61fb24e0f6cf9de7a56cf388ec8f3a52bcf30029",
  "source": "// Copyright Loom Network 2018 - All rights reserved, Dual licensed on GPLV3\r\n// Learn more about Loom DappChains at https://loomx.io\r\n// All derivitive works of this code must incluse this copyright header on every file\r\n\r\npragma solidity ^0.5.2;\r\n\r\n\r\n// ERC721\r\nimport \"openzeppelin-solidity/contracts/token/ERC721/ERC721.sol\";\r\nimport \"openzeppelin-solidity/contracts/token/ERC721/IERC721Receiver.sol\";\r\n\r\n// Lib deps\r\nimport \"openzeppelin-solidity/contracts/math/SafeMath.sol\";\r\nimport \"../Libraries/Transaction/Transaction.sol\";\r\nimport \"../Libraries/ECVerify.sol\";\r\nimport \"../Libraries/ChallengeLib.sol\";\r\n\r\n// SMT and VMC\r\nimport \"./SparseMerkleTree.sol\";\r\nimport \"./ValidatorManagerContract.sol\";\r\n\r\n\r\ncontract RootChain is IERC721Receiver {\r\n\r\n    event Debug(address message);\r\n\r\n    /**\r\n     * Event for coin deposit logging.\r\n     * @notice The Deposit event indicates that a deposit block has been added\r\n     *         to the Plasma chain\r\n     * @param slot Plasma slot, a unique identifier, assigned to the deposit\r\n     * @param blockNumber The index of the block in which a deposit transaction\r\n     *                    is included\r\n     * @param from The address of the depositor\r\n     * @param contractAddress The address of the contract making the deposit\r\n     */\r\n    event Deposit(uint64 indexed slot, uint256 blockNumber,\r\n                  address indexed from, address indexed contractAddress);\r\n\r\n    /**\r\n     * Event for block submission logging\r\n     * @notice The event indicates the addition of a new Plasma block\r\n     * @param blockNumber The block number of the submitted block\r\n     * @param root The root hash of the Merkle tree containing all of a block's\r\n     *             transactions.\r\n     * @param timestamp The time when a block was added to the Plasma chain\r\n     */\r\n    event SubmittedBlock(uint256 blockNumber, bytes32 root, uint256 timestamp);\r\n\r\n    /**\r\n     * Event for secret-revealing block submission logging\r\n     * @notice The event indicates the addition of a new Secret Revealing block\r\n     * @param blockNumber The block number of the submitted block\r\n     * @param root The root hash of the Merkle tree containing all of a block's\r\n     *             secrets.\r\n     * @param timestamp The time when a block was added to the Plasma chain\r\n     */\r\n    event SubmittedSecretBlock(uint256 blockNumber, bytes32 root, uint256 timestamp);\r\n\r\n    /**\r\n     * Event for logging exit starts\r\n     * @param slot The slot of the coin being exited\r\n     * @param owner The user who claims to own the coin being exited\r\n     */\r\n    event StartedExit(uint64 indexed slot, address indexed owner);\r\n\r\n    /**\r\n     * Event for exit challenge logging\r\n     * @notice This event only fires if `challengeBefore` is called.\r\n     * @param slot The slot of the coin whose exit was challenged\r\n     * @param owner The current claiming owner of the exit\r\n     * @param txHash The hash of the tx used for the challenge\r\n     */\r\n    event ChallengedExit(uint64 indexed slot, address indexed owner, bytes32 txHash, uint256 challengingBlockNumber);\r\n\r\n    /**\r\n     * Event for exit response logging\r\n     * @notice This only logs responses to `challengeBefore`\r\n     * @param slot The slot of the coin whose challenge was responded to\r\n     */\r\n    event RespondedExitChallenge(uint64 indexed slot);\r\n\r\n    /**\r\n     * Event for logging when an exit was successfully challenged\r\n     * @param slot The slot of the coin being reset to NOT_EXITING\r\n     * @param owner The owner of the coin\r\n     */\r\n    event CoinReset(uint64 indexed slot, address indexed owner);\r\n\r\n    /**\r\n     * Event for exit finalization logging\r\n     * @param slot The slot of the coin whose exit has been finalized\r\n     * @param owner The owner of the coin whose exit has been finalized\r\n     */\r\n    event FinalizedExit(uint64 indexed slot, address owner);\r\n\r\n    /**\r\n     * Event to log the freeing of a bond\r\n     * @param from The address of the user whose bonds have been freed\r\n     * @param amount The bond amount which can now be withdrawn\r\n     */\r\n    event FreedBond(address indexed from, uint256 amount);\r\n\r\n    /**\r\n     * Event to log the slashing of a bond\r\n     * @param from The address of the user whose bonds have been slashed\r\n     * @param to The recipient of the slashed bonds\r\n     * @param amount The bound amount which has been forfeited\r\n     */\r\n    event SlashedBond(address indexed from, address indexed to, uint256 amount);\r\n\r\n    /**\r\n     * Event to log the withdrawal of a bond\r\n     * @param from The address of the user who withdrew bonds\r\n     * @param amount The bond amount which has been withdrawn\r\n     */\r\n    event WithdrewBonds(address indexed from, uint256 amount);\r\n\r\n    /**\r\n     * Event to log the withdrawal of a coin\r\n     * @param owner The address of the user who withdrew bonds\r\n     * @param slot the slot of the coin that was exited\r\n     * @param contractAddress The contract address where the coin is being withdrawn from\r\n              is same as `from` when withdrawing a ETH coin\r\n     * @param uid The uid of the coin being withdrawn if ERC721, else 0\r\n     */\r\n    event Withdrew(address indexed owner, uint64 indexed slot, address contractAddress, uint uid);\r\n\r\n    /**\r\n     * Event to pause deposits in the contract.\r\n     * Temporarily added while the contract is being battle tested\r\n     * @param status Boolean value of the contract's status\r\n     */\r\n    event Paused(bool status);\r\n\r\n    using SafeMath for uint256;\r\n    using Transaction for bytes;\r\n    using Transaction for RLPReader.RLPItem[];\r\n    using RLPReader for RLPReader.RLPItem;\r\n    using Transaction for Transaction.AtomicSwapTX;\r\n    using ECVerify for bytes32;\r\n    using ChallengeLib for ChallengeLib.Challenge[];\r\n\r\n    uint256 constant BOND_AMOUNT = 0.1 ether;\r\n\r\n    /* An exit can be finalized after it has matured,\r\n     * after T2 = T0 + MATURITY_PERIOD\r\n     * An exit can be challenged in the first window\r\n     * between T0 and T1 ( T1 = T0 + CHALLENGE_WINDOW)\r\n     * A challenge can be responded to in the second window\r\n     * between T1 and T2\r\n    */\r\n    uint256 constant MATURITY_PERIOD = 7 days;\r\n    uint256 constant CHALLENGE_WINDOW = 3 days + 12 hours;\r\n\r\n    /* A secret-revealing root hash can only be submitted during a period\r\n     * after T0 and before T0 + SECRET_REVEALING_PERIOD\r\n     * where T0 is the time the corresponding block was submitted\r\n    */\r\n    uint256 constant SECRET_REVEALING_PERIOD = 1 days;\r\n\r\n    bool paused;\r\n\r\n    /*\r\n     * Modifiers\r\n     */\r\n    modifier isValidator() {\r\n        require(vmc.checkValidator(msg.sender), \"Sender is not a Validator\");\r\n        _;\r\n    }\r\n\r\n    modifier isTokenApproved(address _address) {\r\n        require(vmc.allowedTokens(_address), \"Contract address is not approved for deposits\");\r\n        _;\r\n    }\r\n\r\n    modifier isBonded() {\r\n        require(msg.value == BOND_AMOUNT, \"Transaction must be accompanied by the BOND AMOUNT\");\r\n\r\n        // Save challenger's bond\r\n        balances[msg.sender].bonded = balances[msg.sender].bonded.add(msg.value);\r\n        _;\r\n    }\r\n\r\n    modifier isState(uint64 slot, State state) {\r\n        require(coins[slot].state == state, \"Wrong coin state\");\r\n        _;\r\n    }\r\n\r\n    struct Balance {\r\n        uint256 bonded;\r\n        uint256 withdrawable;\r\n    }\r\n\r\n    // Each exit can only be challenged by a single challenger at a time\r\n    struct Exit {\r\n        address prevOwner; // previous owner of coin\r\n        address owner;\r\n        uint256 createdAt;\r\n        uint256 bond;\r\n        uint256 prevBlock;\r\n        uint256 exitBlock;\r\n    }\r\n\r\n    enum State {\r\n        NOT_EXITING,\r\n        EXITING,\r\n        EXITED\r\n    }\r\n\r\n    struct Coin {\r\n        State state;\r\n        address owner; // who owns that nft\r\n        address contractAddress; // which contract does the coin belong to\r\n        Exit exit;\r\n        uint256 uid;\r\n        uint256 depositBlock;\r\n    }\r\n\r\n    uint64 public numCoins = 0;\r\n\r\n    mapping (address => Balance) public balances;\r\n    mapping (uint64 => ChallengeLib.Challenge[]) challenges;\r\n    mapping (uint64 => Coin) coins;\r\n\r\n    struct ChildBlock {\r\n        bytes32 root;\r\n        uint256 createdAt;\r\n    }\r\n\r\n    // child chain\r\n    uint256 public childBlockInterval = 1000;\r\n    uint256 public currentBlock = 0;\r\n    mapping (uint256 => ChildBlock) public childChain;\r\n    mapping (uint256 => ChildBlock) public secretRevealingChain;\r\n\r\n\r\n    ValidatorManagerContract vmc;\r\n    SparseMerkleTree smt;\r\n\r\n    constructor (ValidatorManagerContract _vmc) public {\r\n        vmc = _vmc;\r\n        smt = new SparseMerkleTree();\r\n    }\r\n\r\n\r\n    /// @dev called by a Validator to append a Plasma block to the Plasma chain\r\n    /// @param root The transaction root hash of the Plasma block being added\r\n    function submitBlock(uint256 blockNumber, bytes32 root) public isValidator {\r\n        // rounding to next whole `childBlockInterval`\r\n        require(blockNumber >= currentBlock, \"A block less than currentBlock cannot be submitted\");\r\n        currentBlock = blockNumber;\r\n\r\n        childChain[currentBlock] = ChildBlock({\r\n            root: root,\r\n            createdAt: block.timestamp\r\n        });\r\n\r\n        emit SubmittedBlock(currentBlock, root, block.timestamp);\r\n    }\r\n\r\n    /// @dev called by a Validator to append a Secret Revealing block to the Plasma chain\r\n    /// @param root The transaction root hash of the Secret Revealing block being added\r\n    function submitSecretBlock(uint256 blockNumber, bytes32 root) public isValidator {\r\n        // rounding to next whole `childBlockInterval`\r\n        ChildBlock memory childBlock = childChain[blockNumber];\r\n        require(childBlock.root != 0, \"A block must be submitted first in order to reveal the swap secrets\");\r\n        require((block.timestamp - childBlock.createdAt) < SECRET_REVEALING_PERIOD ,\r\n                \"Time to reveal secrets is already over\");\r\n\r\n        secretRevealingChain[blockNumber] = ChildBlock({\r\n            root: root,\r\n            createdAt: block.timestamp\r\n            });\r\n\r\n        emit SubmittedSecretBlock(blockNumber, root, block.timestamp);\r\n    }\r\n\r\n    /// @dev Allows anyone to deposit funds into the Plasma chain, called when\r\n    //       contract receives ERC721\r\n    /// @notice Appends a deposit block to the Plasma chain\r\n    /// @param from The address of the user who is depositing a coin\r\n    /// @param uid The uid of the ERC721 coin being deposited. This is an\r\n    ///            identifier allocated by the ERC721 token contract; it is not\r\n    ///            related to `slot`. If the coin is ETH or ERC20 the uid is 0\r\n    function deposit(address from, address contractAddress, uint256 uid) private {\r\n        require(!paused, \"Contract is not accepting more deposits!\");\r\n        currentBlock = currentBlock.add(1);\r\n        uint64 slot = uint64(bytes8(keccak256(abi.encodePacked(numCoins, msg.sender, from))));\r\n\r\n        // Update state. Leave `exit` empty\r\n        Coin storage coin = coins[slot];\r\n        coin.uid = uid;\r\n        coin.contractAddress = contractAddress;\r\n        coin.depositBlock = currentBlock;\r\n        coin.owner = from;\r\n        coin.state = State.NOT_EXITING;\r\n\r\n        childChain[currentBlock] = ChildBlock({\r\n            // hash for deposit transactions is the hash of its slot\r\n            root: keccak256(abi.encodePacked(slot)),\r\n            createdAt: block.timestamp\r\n        });\r\n\r\n        // create a utxo at `slot`\r\n        emit Deposit(\r\n            slot,\r\n            currentBlock,\r\n            from,\r\n            contractAddress\r\n        );\r\n\r\n        numCoins += 1;\r\n    }\r\n\r\n    /******************** EXIT RELATED ********************/\r\n\r\n    // @dev Allows and exit of a deposited transaction\r\n    // @param slot The slot of the coin being exited\r\n    function startDepositExit(uint64 slot)\r\n    external\r\n    payable isBonded\r\n    isState(slot, State.NOT_EXITING) {\r\n        Coin memory coin = coins[slot];\r\n        require(coin.owner == msg.sender, \"Sender does not match deposit owner\");\r\n        pushExit(slot, address(0), 0, coin.depositBlock);\r\n    }\r\n\r\n    // @dev Allows and exit of a non-depositing transaction\r\n    function startExit(\r\n        uint64 slot,\r\n        bytes calldata prevTxBytes, bytes calldata exitingTxBytes,\r\n        bytes calldata prevTxInclusionProof, bytes calldata exitingTxInclusionProof,\r\n        bytes calldata signature,\r\n        uint256[2] calldata blocks)\r\n        external\r\n        payable isBonded\r\n        isState(slot, State.NOT_EXITING)\r\n    {\r\n        require(msg.sender == exitingTxBytes.getOwner(), \"Sender does not match exitingTxBytes owner\");\r\n\r\n        doInclusionChecks(\r\n            prevTxBytes, exitingTxBytes,\r\n            prevTxInclusionProof, exitingTxInclusionProof,\r\n            signature,\r\n            blocks\r\n        );\r\n\r\n        pushExit(slot, prevTxBytes.getOwner(), blocks[0], blocks[1]);\r\n    }\r\n\r\n    /// @dev Verifies that consecutive two transaction involving the same coin\r\n    ///      are valid\r\n    /// @notice If exitingTxBytes corresponds to a deposit transaction, this function fails\r\n    /// @param prevTxBytes The RLP-encoded transaction involving a particular\r\n    ///        coin which took place directly before exitingTxBytes\r\n    /// @param exitingTxBytes The RLP-encoded transaction involving a particular\r\n    ///        coin which an exiting owner of the coin claims to be the latest\r\n    /// @param prevTxInclusionProof An inclusion proof of prevTx\r\n    /// @param exitingTxInclusionProof An inclusion proof of exitingTx\r\n    /// @param signature The signature of the exitingTxBytes by the coin\r\n    ///        owner indicated in prevTx.\r\n    /// @param blocks An array of two block numbers, at index 0, the block\r\n    ///        containing the prevTx and at index 1, the block containing\r\n    ///        the exitingTx\r\n    function doInclusionChecks(\r\n        bytes memory prevTxBytes, bytes memory exitingTxBytes,\r\n        bytes memory prevTxInclusionProof, bytes memory exitingTxInclusionProof,\r\n        bytes memory signature,\r\n        uint256[2] memory blocks)\r\n        private\r\n        view\r\n    {\r\n        if (blocks[1] % childBlockInterval != 0) {\r\n            revert(\"Please do a startDepositExt for deposited transactions\");\r\n        } else {\r\n            checkBothIncludedAndSigned(\r\n                prevTxBytes, exitingTxBytes, prevTxInclusionProof,\r\n                exitingTxInclusionProof, signature,\r\n                blocks\r\n            );\r\n        }\r\n    }\r\n\r\n    function pushExit(\r\n        uint64 slot,\r\n        address prevOwner,\r\n        uint256 prevBlock, uint256 exitingBlock)\r\n        private\r\n    {\r\n        // Create exit\r\n        Coin storage c = coins[slot];\r\n        c.exit = Exit({\r\n            prevOwner: prevOwner,\r\n            owner: msg.sender,\r\n            createdAt: block.timestamp,\r\n            bond: msg.value,\r\n            prevBlock: prevBlock,\r\n            exitBlock: exitingBlock\r\n        });\r\n\r\n        // Update coin state\r\n        c.state = State.EXITING;\r\n        emit StartedExit(slot, msg.sender);\r\n    }\r\n\r\n    /// @dev Finalizes an exit, i.e. puts the exiting coin into the EXITED\r\n    ///      state which will allow it to be withdrawn, provided the exit has\r\n    ///      matured and has not been successfully challenged\r\n    function finalizeExit(uint64 slot) isState(slot, State.EXITING) public {\r\n        Coin storage coin = coins[slot];\r\n        require((block.timestamp - coin.exit.createdAt) > MATURITY_PERIOD, \"You must wait the maturity period before finalizing the exit\");\r\n\r\n        // Check if there are any pending challenges for the coin.\r\n        // `checkPendingChallenges` will also penalize\r\n        // for each challenge that has not been responded to\r\n        bool hasChallenges = checkPendingChallenges(slot);\r\n\r\n        if (!hasChallenges) {\r\n            // Update coin's owner\r\n            coin.owner = coin.exit.owner;\r\n            coin.state = State.EXITED;\r\n\r\n            // Allow the exitor to withdraw their bond\r\n            freeBond(coin.owner);\r\n\r\n            emit FinalizedExit(slot, coin.owner);\r\n        } else {\r\n            // Reset coin state since it was challenged\r\n            coin.state = State.NOT_EXITING;\r\n            emit CoinReset(slot, coin.owner);\r\n        }\r\n\r\n        delete coins[slot].exit;\r\n    }\r\n\r\n    function checkPendingChallenges(uint64 slot) private returns (bool hasChallenges) {\r\n        uint256 length = challenges[slot].length;\r\n        bool slashed;\r\n        hasChallenges = false;\r\n        for (uint i = 0; i < length; i++) {\r\n            if (challenges[slot][i].txHash != 0x0) {\r\n                // Penalize the exitor and reward the first valid challenger.\r\n                if (!slashed) {\r\n                    slashBond(coins[slot].exit.owner, challenges[slot][i].challenger);\r\n                    slashed = true;\r\n                }\r\n                // Also free the bond of the challenger.\r\n                freeBond(challenges[slot][i].challenger);\r\n\r\n                // Challenge resolved, delete it\r\n                delete challenges[slot][i];\r\n                hasChallenges = true;\r\n            }\r\n        }\r\n    }\r\n\r\n    /// @dev Iterates through all of the initiated exits and finalizes those\r\n    ///      which have matured without being successfully challenged\r\n    function finalizeExits(uint64[] calldata slots) external {\r\n        uint256 slotsLength = slots.length;\r\n        for (uint256 i = 0; i < slotsLength; i++) {\r\n            finalizeExit(slots[i]);\r\n        }\r\n    }\r\n\r\n    function cancelExit(uint64 slot) public {\r\n        require(coins[slot].exit.owner == msg.sender, \"Only coin's owner is allowed to cancel the exit\");\r\n        delete coins[slot].exit;\r\n        coins[slot].state = State.NOT_EXITING;\r\n        freeBond(msg.sender);\r\n        emit CoinReset(slot, coins[slot].owner);\r\n    }\r\n\r\n    function cancelExits(uint64[] calldata slots) external {\r\n        uint256 slotsLength = slots.length;\r\n        for (uint256 i = 0; i < slotsLength; i++) {\r\n            cancelExit(slots[i]);\r\n        }\r\n    }\r\n\r\n    /// @dev Withdraw a UTXO that has been exited\r\n    /// @param slot The slot of the coin being withdrawn\r\n    function withdraw(uint64 slot) external isState(slot, State.EXITED) {\r\n        require(coins[slot].owner == msg.sender, \"You do not own that UTXO\");\r\n        uint256 uid = coins[slot].uid;\r\n\r\n        // Delete the coin that is being withdrawn\r\n        Coin memory c = coins[slot];\r\n        delete coins[slot];\r\n        ERC721(c.contractAddress).safeTransferFrom(address(this), msg.sender, uid);\r\n\r\n        emit Withdrew(\r\n            msg.sender,\r\n            slot,\r\n            c.contractAddress,\r\n            uid\r\n        );\r\n    }\r\n\r\n    /******************** CHALLENGES ********************/\r\n\r\n    /// @dev Submits proof of a transaction before prevTx as an exit challenge\r\n    /// @notice Exitor has to call respondChallengeBefore and submit a\r\n    ///         transaction before prevTx or prevTx itself.\r\n    /// @param slot The slot corresponding to the coin whose exit is being challenged\r\n    /// @param txBytes The RLP-encoded transaction involving a particular\r\n    ///        coin which an exiting owner of the coin claims to be the latest\r\n    /// @param txInclusionProof An inclusion proof of exitingTx\r\n    ///        owner indicated in prevTx\r\n    /// @param blockNumber The block containing the exitingTx\r\n    function challengeBefore(\r\n        uint64 slot,\r\n        bytes calldata txBytes,\r\n        bytes calldata txInclusionProof,\r\n        uint256 blockNumber)\r\n        external\r\n        payable isBonded\r\n        isState(slot, State.EXITING)\r\n    {\r\n        checkBefore(slot, txBytes, txInclusionProof, blockNumber);\r\n        setChallenged(slot, txBytes.getOwner(), blockNumber, txBytes.getHash());\r\n    }\r\n\r\n    /// @dev Submits proof of a later transaction that corresponds to a challenge\r\n    /// @notice Can only be called in the second window of the exit period.\r\n    /// @param slot The slot corresponding to the coin whose exit is being challenged\r\n    /// @param challengingTxHash The hash of the transaction\r\n    ///        corresponding to the challenge we're responding to\r\n    /// @param respondingBlockNumber The block number which included the transaction\r\n    ///        we are responding with\r\n    /// @param respondingTransaction The RLP-encoded transaction involving a particular\r\n    ///        coin which took place directly after challengingTransaction\r\n    /// @param proof An inclusion proof of respondingTransaction\r\n    /// @param signature The signature which proves a direct spend from the challenger\r\n    function respondChallengeBefore(\r\n        uint64 slot,\r\n        bytes32 challengingTxHash,\r\n        uint256 respondingBlockNumber,\r\n        bytes calldata respondingTransaction,\r\n        bytes calldata proof,\r\n        bytes calldata signature)\r\n        external\r\n    {\r\n        // Check that the transaction being challenged exists\r\n        require(challenges[slot].contains(challengingTxHash), \"Responding to non existing challenge\");\r\n\r\n        // Get index of challenge in the challenges array\r\n        uint256 index = uint256(challenges[slot].indexOf(challengingTxHash));\r\n\r\n        checkResponse(slot, index, respondingBlockNumber, respondingTransaction, signature, proof);\r\n\r\n        // If the exit was actually challenged and responded, penalize the challenger and award the responder\r\n        slashBond(challenges[slot][index].challenger, msg.sender);\r\n\r\n        challenges[slot].remove(challengingTxHash);\r\n        emit RespondedExitChallenge(slot);\r\n    }\r\n\r\n    function checkResponse(\r\n        uint64 slot,\r\n        uint256 index,\r\n        uint256 blockNumber,\r\n        bytes memory txBytes,\r\n        bytes memory signature,\r\n        bytes memory proof\r\n    )\r\n        private\r\n        view\r\n    {\r\n        Transaction.TX memory txData = checkTxValid(txBytes, proof, blockNumber);\r\n        require(txData.hash.ecverify(signature, challenges[slot][index].owner), \"Invalid signature\");\r\n        require(txData.slot == slot, \"Tx is referencing another slot\");\r\n        require(blockNumber > challenges[slot][index].challengingBlockNumber, \"BlockNumber must be after the chalenge\");\r\n        require(blockNumber <= coins[slot].exit.exitBlock, \"Cannot respond with a tx after the exit\");\r\n    }\r\n\r\n    function challengeBetween(\r\n        uint64 slot,\r\n        bytes calldata challengingTransaction,\r\n        bytes calldata proof,\r\n        bytes calldata signature,\r\n        uint256 challengingBlockNumber)\r\n        external isState(slot, State.EXITING)\r\n    {\r\n        checkBetween(slot, challengingTransaction, proof, signature, challengingBlockNumber);\r\n        applyPenalties(slot);\r\n    }\r\n\r\n    function challengeAfter(\r\n        uint64 slot,\r\n        bytes calldata challengingTransaction,\r\n        bytes calldata proof,\r\n        bytes calldata signature,\r\n        uint256 challengingBlockNumber)\r\n        external\r\n        isState(slot, State.EXITING)\r\n    {\r\n        checkAfter(slot, challengingTransaction, proof, signature, challengingBlockNumber);\r\n        applyPenalties(slot);\r\n    }\r\n\r\n\r\n    // Must challenge with a tx in between\r\n\r\n    function checkBefore(\r\n        uint64 slot,\r\n        bytes memory txBytes,\r\n        bytes memory proof,\r\n        uint blockNumber)\r\n        private\r\n        view\r\n    {\r\n        require(\r\n            blockNumber <= coins[slot].exit.prevBlock,\r\n            \"Tx should be before the exit's parent block\"\r\n        );\r\n\r\n        Transaction.TX memory txData = checkTxValid(txBytes, proof, blockNumber);\r\n        require(txData.slot == slot, \"Tx is referencing another slot\");\r\n    }\r\n\r\n\r\n    // Check that the challenging transaction has been signed\r\n    // by the attested previous owner of the coin in the exit\r\n    function checkBetween(\r\n        uint64 slot,\r\n        bytes memory txBytes,\r\n        bytes memory proof,\r\n        bytes memory signature,\r\n        uint blockNumber)\r\n        private\r\n        view\r\n    {\r\n        require(\r\n            coins[slot].exit.exitBlock > blockNumber &&\r\n            coins[slot].exit.prevBlock < blockNumber,\r\n            \"Tx should be between the exit's blocks\"\r\n        );\r\n\r\n        Transaction.TX memory txData = checkTxValid(txBytes, proof, blockNumber);\r\n        require(txData.hash.ecverify(signature, coins[slot].exit.prevOwner), \"Invalid signature\");\r\n        require(txData.slot == slot, \"Tx is referencing another slot\");\r\n    }\r\n\r\n    function checkAfter(\r\n        uint64 slot,\r\n        bytes memory txBytes,\r\n        bytes memory proof,\r\n        bytes memory signature,\r\n        uint blockNumber) private view {\r\n        require(\r\n            coins[slot].exit.exitBlock < blockNumber,\r\n            \"Tx should be after the exitBlock\"\r\n        );\r\n\r\n        Transaction.TX memory txData = checkTxValid(txBytes, proof, blockNumber);\r\n        require(txData.hash.ecverify(signature, coins[slot].exit.owner), \"Invalid signature\");\r\n        require(txData.slot == slot, \"Tx is referencing another slot\");\r\n        require(txData.prevBlock == coins[slot].exit.exitBlock, \"Not a direct spend\");\r\n    }\r\n\r\n    function applyPenalties(uint64 slot) private {\r\n        // Apply penalties and change state\r\n        slashBond(coins[slot].exit.owner, msg.sender);\r\n        coins[slot].state = State.NOT_EXITING;\r\n        delete coins[slot].exit;\r\n        emit CoinReset(slot, coins[slot].owner);\r\n    }\r\n\r\n    /// @param slot The slot of the coin being challenged\r\n    /// @param owner The user claimed to be the true owner of the coin\r\n    function setChallenged(uint64 slot, address owner, uint256 challengingBlockNumber, bytes32 txHash) private {\r\n        // Require that the challenge is in the first half of the challenge window\r\n        require(block.timestamp <= coins[slot].exit.createdAt + CHALLENGE_WINDOW, \"Challenge windows is over\");\r\n\r\n        require(!challenges[slot].contains(txHash),\r\n                \"Transaction used for challenge already\");\r\n\r\n        // Need to save the exiting transaction's owner, to verify\r\n        // that the response is valid\r\n        challenges[slot].push(\r\n            ChallengeLib.Challenge({\r\n                owner: owner,\r\n                challenger: msg.sender,\r\n                txHash: txHash,\r\n                challengingBlockNumber: challengingBlockNumber\r\n            })\r\n        );\r\n\r\n        emit ChallengedExit(slot, owner, txHash, challengingBlockNumber);\r\n    }\r\n\r\n    /******************** BOND RELATED ********************/\r\n\r\n    function freeBond(address from) private {\r\n        balances[from].bonded = balances[from].bonded.sub(BOND_AMOUNT);\r\n        balances[from].withdrawable = balances[from].withdrawable.add(BOND_AMOUNT);\r\n        emit FreedBond(from, BOND_AMOUNT);\r\n    }\r\n\r\n    function withdrawBonds() external {\r\n        // Can only withdraw bond if the msg.sender\r\n        uint256 amount = balances[msg.sender].withdrawable;\r\n        balances[msg.sender].withdrawable = 0; // no reentrancy!\r\n\r\n        msg.sender.transfer(amount);\r\n        emit WithdrewBonds(msg.sender, amount);\r\n    }\r\n\r\n    function slashBond(address from, address to) private {\r\n        balances[from].bonded = balances[from].bonded.sub(BOND_AMOUNT);\r\n        balances[to].withdrawable = balances[to].withdrawable.add(BOND_AMOUNT);\r\n        emit SlashedBond(from, to, BOND_AMOUNT);\r\n    }\r\n\r\n    /******************** PROOF CHECKING ********************/\r\n\r\n    function checkBothIncludedAndSigned(\r\n        bytes memory prevTxBytes, bytes memory exitingTxBytes,\r\n        bytes memory prevTxInclusionProof, bytes memory exitingTxInclusionProof,\r\n        bytes memory signature,\r\n        uint256[2] memory blocks)\r\n        private\r\n        view\r\n    {\r\n        require(blocks[0] < blocks[1], \"Block on the first index must be the earlier of the 2 blocks\");\r\n\r\n        Transaction.TX memory prevTxData    = checkTxValid(prevTxBytes, prevTxInclusionProof, blocks[0]);\r\n        Transaction.TX memory exitingTxData = checkTxValid(exitingTxBytes, exitingTxInclusionProof, blocks[1]);\r\n\r\n        // Both transactions need to be referring to the same slot\r\n        require(exitingTxData.slot == prevTxData.slot,\"Slot on the ExitingTx does not match that on the prevTx\");\r\n\r\n        // The exiting transaction must be signed by the previous transaciton's receiver\r\n        require(exitingTxData.hash.ecverify(signature, prevTxData.receiver), \"Invalid signature\");\r\n    }\r\n\r\n\r\n    function checkTxValid(\r\n        bytes memory txBytes,\r\n        bytes memory proof,\r\n        uint256 blockNumber)\r\n    private\r\n    view returns(Transaction.TX memory)\r\n    {\r\n        RLPReader.RLPItem[] memory rlpTx = txBytes.toRLPItems();\r\n\r\n        if(rlpTx.isBasicTransaction()) {\r\n            //Basic transactions only validate are included\r\n            Transaction.TX memory txData = rlpTx.getBasicTx(txBytes);\r\n            checkHashIncluded(txData.slot, txData.hash, blockNumber, proof);\r\n            return txData;\r\n\r\n        } else if(rlpTx.isAtomicSwap()) {\r\n            ChildBlock memory secretRevealingBlock = secretRevealingChain[blockNumber];\r\n\r\n            if(secretRevealingBlock.root != 0) {\r\n                Transaction.AtomicSwapTX[] memory txsData = rlpTx.getAtomicSwapTxs();\r\n\r\n                //Check signature B -> A. A -> B signature is checked in outside if this function\r\n                require(txsData[1].hash.ecverify(txsData[1].signature, txsData[1].prevOwner), \"Invalid signature B in atomic swap\");\r\n\r\n                RLPReader.RLPItem[] memory proofs = proof.toRLPItems();\r\n                require(proofs.length == 4, \"4 proof must be submitted for an atomic swap\");\r\n                checkHashIncluded(txsData[0].slot, txsData[0].hash, blockNumber, proofs[0].toBytes());\r\n                checkHashIncluded(txsData[1].slot, txsData[1].hash, blockNumber, proofs[1].toBytes());\r\n                checkHashIncludedSecret(txsData[0].slot, txsData[0].secretHash, blockNumber, proofs[2].toBytes());\r\n                checkHashIncludedSecret(txsData[1].slot, txsData[1].secretHash, blockNumber, proofs[3].toBytes());\r\n\r\n                return txsData[0].toBasicTx();\r\n            } else {\r\n                ChildBlock memory childBlock = childChain[blockNumber];\r\n                if((block.timestamp - childBlock.createdAt) > SECRET_REVEALING_PERIOD) {\r\n                    revert(\"Secret was never revealed for this block, swap is invalid\");\r\n                } else {\r\n                    revert(\"Secret has not yet been revealed, there is still time to commit the transaction\");\r\n                }\r\n            }\r\n        } else {\r\n            revert(\"txBytes do not correspond neither to basic TX nor to Atomic swap\");\r\n        }\r\n    }\r\n\r\n\r\n    function checkHashIncluded(\r\n        uint64 slot,\r\n        bytes32 txHash,\r\n        uint256 blockNumber,\r\n        bytes memory proof\r\n    )\r\n        private\r\n        view\r\n    {\r\n        bytes32 root = childChain[blockNumber].root;\r\n\r\n        if (blockNumber % childBlockInterval != 0) {\r\n            // Check against block root for deposit block numbers\r\n            require(txHash == root, \"Transaction hash does not match rootHash\");\r\n        } else {\r\n            // Check against merkle tree for all other block numbers\r\n            require(\r\n                checkMembership(\r\n                    txHash,\r\n                    root,\r\n                    slot,\r\n                    proof\r\n            ),\r\n            \"Tx not included in claimed block\"\r\n            );\r\n        }\r\n    }\r\n\r\n    function checkHashIncludedSecret(\r\n        uint64 slot,\r\n        bytes32 secret,\r\n        uint256 blockNumber,\r\n        bytes memory proof\r\n    )\r\n    private\r\n    view\r\n    {\r\n        bytes32 root = secretRevealingChain[blockNumber].root;\r\n        require(blockNumber % childBlockInterval == 0, \"Trying to validate an atomic swap for a deposit block\");\r\n        // Check against merkle tree for all other block numbers\r\n        require(\r\n            checkMembership(\r\n                secret,\r\n                root,\r\n                slot,\r\n                proof\r\n            ),\r\n            \"Tx not included in claimed block\"\r\n        );\r\n    }\r\n\r\n    /******************** DEPOSIT FUNCTIONS ********************/\r\n\r\n    function pause() external isValidator {\r\n        paused = true;\r\n        emit Paused(true);\r\n    }\r\n\r\n    function unpause() external isValidator {\r\n        paused = false;\r\n        emit Paused(false);\r\n    }\r\n\r\n    function() external payable {\r\n        //TODO: Not quite sure about this\r\n        require(false, \"This contract does not receive money\");\r\n    }\r\n\r\n    function onERC721Received(address /*operator*/, address from, uint256 tokenId, bytes memory /*data*/) public isTokenApproved(msg.sender)\r\n    returns (bytes4)\r\n     {\r\n        require(ERC721(msg.sender).ownerOf(tokenId) == address(this), \"Token was not transfered correctly\");\r\n        deposit(from, msg.sender, tokenId);\r\n        return this.onERC721Received.selector;\r\n    }\r\n\r\n    // Approve and Deposit function for 2-step deposits without having to approve the token by the validators\r\n    // Requires first to have called `approve` on the specified ERC721 contract\r\n    function depositERC721(uint256 uid, address contractAddress) external {\r\n        ERC721(contractAddress).safeTransferFrom(msg.sender, address(this), uid);\r\n    }\r\n\r\n    /******************** HELPERS ********************/\r\n\r\n    function checkMembership(\r\n        bytes32 txHash,\r\n        bytes32 root,\r\n        uint64 slot,\r\n        bytes memory proof) public view returns (bool)\r\n    {\r\n        return smt.checkMembership(\r\n            txHash,\r\n            root,\r\n            slot,\r\n            proof);\r\n    }\r\n\r\n    function checkInclusion(\r\n        bytes32 txHash,\r\n        uint256 blockNumber,\r\n        uint64 slot,\r\n        bytes memory proof\r\n    ) public view returns (bool) {\r\n        ChildBlock memory childBlock = childChain[blockNumber];\r\n        if (blockNumber % childBlockInterval != 0) {\r\n            return txHash == childBlock.root && keccak256(abi.encodePacked(slot)) == childBlock.root;\r\n        } else {\r\n            return checkMembership(txHash, childBlock.root, slot, proof);\r\n        }\r\n    }\r\n\r\n    function getPlasmaCoin(uint64 slot) external view returns(uint256, uint256, address, State, address) {\r\n        Coin memory c = coins[slot];\r\n        return (c.uid, c.depositBlock, c.owner, c.state, c.contractAddress);\r\n    }\r\n\r\n    function getChallenge(uint64 slot, bytes32 txHash)\r\n        external\r\n        view\r\n        returns(address, address, bytes32, uint256)\r\n    {\r\n        uint256 index = uint256(challenges[slot].indexOf(txHash));\r\n        ChallengeLib.Challenge memory c = challenges[slot][index];\r\n        return (c.owner, c.challenger, c.txHash, c.challengingBlockNumber);\r\n    }\r\n\r\n    function getChallenges(uint64 slot) external view returns(bytes32[] memory) {\r\n        uint length = challenges[slot].length;\r\n        bytes32[] memory slotChallenges = new bytes32[](length);\r\n        for (uint i = 0; i < length; i++) {\r\n            slotChallenges[i] = challenges[slot][i].txHash;\r\n        }\r\n\r\n        return slotChallenges;\r\n    }\r\n\r\n    function getExit(uint64 slot) external view returns(address, uint256, uint256, State, uint256) {\r\n        Exit memory e = coins[slot].exit;\r\n        return (e.owner, e.prevBlock, e.exitBlock, coins[slot].state, e.createdAt);\r\n    }\r\n\r\n    function getBlockRoot(uint256 blockNumber) public view returns (bytes32 root) {\r\n        root = childChain[blockNumber].root;\r\n    }\r\n\r\n    function getBalance() external view returns(uint256, uint256) {\r\n        // Can only withdraw bond if the msg.sender\r\n        return (balances[msg.sender].bonded, balances[msg.sender].withdrawable);\r\n    }\r\n}\r\n",
  "sourcePath": "C:/Users/Mariano/IdeaProjects/Plasma-Cash-RootChain/contracts/Core/RootChain.sol",
  "compiler": {
    "name": "solc",
    "version": "0.5.2+commit.1df8f40c.Emscripten.clang"
  },
  "schemaVersion": "3.0.14",
  "updatedAt": "2019-09-13T00:05:37.848Z",
  "devdoc": {
    "methods": {
      "challengeBefore(uint64,bytes,bytes,uint256)": {
        "params": {
          "blockNumber": "The block containing the exitingTx"
        }
      },
      "respondChallengeBefore(uint64,bytes32,uint256,bytes,bytes,bytes)": {
        "params": {
          "signature": "The signature which proves a direct spend from the challenger"
        }
      },
      "submitBlock(uint256,bytes32)": {
        "params": {
          "root": "The transaction root hash of the Plasma block being added"
        }
      },
      "submitSecretBlock(uint256,bytes32)": {
        "params": {
          "root": "The transaction root hash of the Secret Revealing block being added"
        }
      },
      "withdraw(uint64)": {
        "params": {
          "slot": "The slot of the coin being withdrawn"
        }
      }
    }
  },
  "userdoc": {
    "methods": {
      "checkMembership(bytes32,bytes32,uint64,bytes)": {
        "notice": "****************** HELPERS *******************"
      },
      "finalizeExit(uint64)": {
        "notice": "matured and has not been successfully challenged"
      },
      "finalizeExits(uint64[])": {
        "notice": "which have matured without being successfully challenged"
      },
      "pause()": {
        "notice": "****************** DEPOSIT FUNCTIONS *******************"
      },
      "startDepositExit(uint64)": {
        "notice": "****************** EXIT RELATED *******************"
      }
    }
  }
}