{
  "contractName": "RootChain",
  "abi": [
    {
      "constant": true,
      "inputs": [
        {
          "name": "",
          "type": "address"
        }
      ],
      "name": "balances",
      "outputs": [
        {
          "name": "bonded",
          "type": "uint256"
        },
        {
          "name": "withdrawable",
          "type": "uint256"
        }
      ],
      "payable": false,
      "stateMutability": "view",
      "type": "function",
      "signature": "0x27e235e3"
    },
    {
      "constant": true,
      "inputs": [],
      "name": "childBlockInterval",
      "outputs": [
        {
          "name": "",
          "type": "uint256"
        }
      ],
      "payable": false,
      "stateMutability": "view",
      "type": "function",
      "signature": "0x38a9e0bc"
    },
    {
      "constant": true,
      "inputs": [
        {
          "name": "",
          "type": "uint256"
        }
      ],
      "name": "secretRevealingChain",
      "outputs": [
        {
          "name": "root",
          "type": "bytes32"
        },
        {
          "name": "createdAt",
          "type": "uint256"
        }
      ],
      "payable": false,
      "stateMutability": "view",
      "type": "function",
      "signature": "0x7abb421f"
    },
    {
      "constant": true,
      "inputs": [],
      "name": "numCoins",
      "outputs": [
        {
          "name": "",
          "type": "uint64"
        }
      ],
      "payable": false,
      "stateMutability": "view",
      "type": "function",
      "signature": "0xa9737595"
    },
    {
      "constant": true,
      "inputs": [],
      "name": "currentBlock",
      "outputs": [
        {
          "name": "",
          "type": "uint256"
        }
      ],
      "payable": false,
      "stateMutability": "view",
      "type": "function",
      "signature": "0xe12ed13c"
    },
    {
      "constant": true,
      "inputs": [
        {
          "name": "",
          "type": "uint256"
        }
      ],
      "name": "childChain",
      "outputs": [
        {
          "name": "root",
          "type": "bytes32"
        },
        {
          "name": "createdAt",
          "type": "uint256"
        }
      ],
      "payable": false,
      "stateMutability": "view",
      "type": "function",
      "signature": "0xf95643b1"
    },
    {
      "inputs": [
        {
          "name": "_vmc",
          "type": "address"
        }
      ],
      "payable": false,
      "stateMutability": "nonpayable",
      "type": "constructor",
      "signature": "constructor"
    },
    {
      "payable": true,
      "stateMutability": "payable",
      "type": "fallback"
    },
    {
      "anonymous": false,
      "inputs": [
        {
          "indexed": false,
          "name": "message",
          "type": "address"
        }
      ],
      "name": "Debug",
      "type": "event",
      "signature": "0x330da4cde831ccab151372275307c2f0cce2bcce846635cd66e6908f10d20363"
    },
    {
      "anonymous": false,
      "inputs": [
        {
          "indexed": true,
          "name": "slot",
          "type": "uint64"
        },
        {
          "indexed": false,
          "name": "blockNumber",
          "type": "uint256"
        },
        {
          "indexed": true,
          "name": "from",
          "type": "address"
        },
        {
          "indexed": true,
          "name": "contractAddress",
          "type": "address"
        }
      ],
      "name": "Deposit",
      "type": "event",
      "signature": "0x68d22e85b0df39249291acbe65dba95feb05284fca981b8faf168e50fce70af7"
    },
    {
      "anonymous": false,
      "inputs": [
        {
          "indexed": false,
          "name": "blockNumber",
          "type": "uint256"
        },
        {
          "indexed": false,
          "name": "root",
          "type": "bytes32"
        },
        {
          "indexed": false,
          "name": "timestamp",
          "type": "uint256"
        }
      ],
      "name": "SubmittedBlock",
      "type": "event",
      "signature": "0x6d91cd6ccac8368394df514e6aee19a55264f5ab49a891af91ca86da27bedd4f"
    },
    {
      "anonymous": false,
      "inputs": [
        {
          "indexed": false,
          "name": "blockNumber",
          "type": "uint256"
        },
        {
          "indexed": false,
          "name": "root",
          "type": "bytes32"
        },
        {
          "indexed": false,
          "name": "timestamp",
          "type": "uint256"
        }
      ],
      "name": "SubmittedSecretBlock",
      "type": "event",
      "signature": "0xf2899e36485db2b5838848eae26a10a1a468cca7ed04ad75170322b00f7d1349"
    },
    {
      "anonymous": false,
      "inputs": [
        {
          "indexed": true,
          "name": "slot",
          "type": "uint64"
        },
        {
          "indexed": true,
          "name": "owner",
          "type": "address"
        }
      ],
      "name": "StartedExit",
      "type": "event",
      "signature": "0xbaf912dedc1b0ee4647f945b0432e694bce1aa2c4e21052d9776876415874956"
    },
    {
      "anonymous": false,
      "inputs": [
        {
          "indexed": true,
          "name": "slot",
          "type": "uint64"
        },
        {
          "indexed": true,
          "name": "owner",
          "type": "address"
        },
        {
          "indexed": false,
          "name": "txHash",
          "type": "bytes32"
        },
        {
          "indexed": false,
          "name": "challengingBlockNumber",
          "type": "uint256"
        }
      ],
      "name": "ChallengedExit",
      "type": "event",
      "signature": "0x6c66d916f7de00b00553c0be460c2844c555cb0d8d37fffbfb8c115f8ba27f41"
    },
    {
      "anonymous": false,
      "inputs": [
        {
          "indexed": true,
          "name": "slot",
          "type": "uint64"
        }
      ],
      "name": "RespondedExitChallenge",
      "type": "event",
      "signature": "0x7deeb80e1644537d3ba4f917cfcbaba62b54354e9f2598d6885d52e359885e25"
    },
    {
      "anonymous": false,
      "inputs": [
        {
          "indexed": true,
          "name": "slot",
          "type": "uint64"
        },
        {
          "indexed": true,
          "name": "owner",
          "type": "address"
        }
      ],
      "name": "CoinReset",
      "type": "event",
      "signature": "0x35cc9c4d0d9a2ce748d131382582af17dbf1f0d72167ea7906ea3f18597b31a4"
    },
    {
      "anonymous": false,
      "inputs": [
        {
          "indexed": true,
          "name": "slot",
          "type": "uint64"
        },
        {
          "indexed": false,
          "name": "owner",
          "type": "address"
        }
      ],
      "name": "FinalizedExit",
      "type": "event",
      "signature": "0x432647a5fb9bdea356d78f8e3d83b6ddc2e78b4e4a702ac7eb968f7fe03d9dda"
    },
    {
      "anonymous": false,
      "inputs": [
        {
          "indexed": true,
          "name": "from",
          "type": "address"
        },
        {
          "indexed": false,
          "name": "amount",
          "type": "uint256"
        }
      ],
      "name": "FreedBond",
      "type": "event",
      "signature": "0x5406cdbb33189b887da81a90c7ff307f3af1854b2504d0bde438b8bb5b7d8b52"
    },
    {
      "anonymous": false,
      "inputs": [
        {
          "indexed": true,
          "name": "from",
          "type": "address"
        },
        {
          "indexed": true,
          "name": "to",
          "type": "address"
        },
        {
          "indexed": false,
          "name": "amount",
          "type": "uint256"
        }
      ],
      "name": "SlashedBond",
      "type": "event",
      "signature": "0xbd6bf2f753dc1a7dee94a7abd7645adc6c228c2af17fd72d9104674cc5d21273"
    },
    {
      "anonymous": false,
      "inputs": [
        {
          "indexed": true,
          "name": "from",
          "type": "address"
        },
        {
          "indexed": false,
          "name": "amount",
          "type": "uint256"
        }
      ],
      "name": "WithdrewBonds",
      "type": "event",
      "signature": "0xba49a755e2e4831fb6ef34b384178b03af45679532c9ac5a2199b27b4dddea8d"
    },
    {
      "anonymous": false,
      "inputs": [
        {
          "indexed": true,
          "name": "owner",
          "type": "address"
        },
        {
          "indexed": true,
          "name": "slot",
          "type": "uint64"
        },
        {
          "indexed": false,
          "name": "contractAddress",
          "type": "address"
        },
        {
          "indexed": false,
          "name": "uid",
          "type": "uint256"
        }
      ],
      "name": "Withdrew",
      "type": "event",
      "signature": "0xbb8c77f80d40a232c518e16058c59d0d555d9d775622b4839c7039007d10a037"
    },
    {
      "anonymous": false,
      "inputs": [
        {
          "indexed": false,
          "name": "status",
          "type": "bool"
        }
      ],
      "name": "Paused",
      "type": "event",
      "signature": "0x0e2fb031ee032dc02d8011dc50b816eb450cf856abd8261680dac74f72165bd2"
    },
    {
      "constant": false,
      "inputs": [
        {
          "name": "blockNumber",
          "type": "uint256"
        },
        {
          "name": "root",
          "type": "bytes32"
        }
      ],
      "name": "submitBlock",
      "outputs": [],
      "payable": false,
      "stateMutability": "nonpayable",
      "type": "function",
      "signature": "0x149be19f"
    },
    {
      "constant": false,
      "inputs": [
        {
          "name": "blockNumber",
          "type": "uint256"
        },
        {
          "name": "root",
          "type": "bytes32"
        }
      ],
      "name": "submitSecretBlock",
      "outputs": [],
      "payable": false,
      "stateMutability": "nonpayable",
      "type": "function",
      "signature": "0x1513a043"
    },
    {
      "constant": false,
      "inputs": [
        {
          "name": "slot",
          "type": "uint64"
        }
      ],
      "name": "startDepositExit",
      "outputs": [],
      "payable": true,
      "stateMutability": "payable",
      "type": "function",
      "signature": "0x19627609"
    },
    {
      "constant": false,
      "inputs": [
        {
          "name": "slot",
          "type": "uint64"
        },
        {
          "name": "prevTxBytes",
          "type": "bytes"
        },
        {
          "name": "exitingTxBytes",
          "type": "bytes"
        },
        {
          "name": "prevTxInclusionProof",
          "type": "bytes"
        },
        {
          "name": "exitingTxInclusionProof",
          "type": "bytes"
        },
        {
          "name": "signature",
          "type": "bytes"
        },
        {
          "name": "blocks",
          "type": "uint256[2]"
        }
      ],
      "name": "startExit",
      "outputs": [],
      "payable": true,
      "stateMutability": "payable",
      "type": "function",
      "signature": "0xe9a067c0"
    },
    {
      "constant": false,
      "inputs": [
        {
          "name": "slot",
          "type": "uint64"
        }
      ],
      "name": "finalizeExit",
      "outputs": [],
      "payable": false,
      "stateMutability": "nonpayable",
      "type": "function",
      "signature": "0x78417214"
    },
    {
      "constant": false,
      "inputs": [
        {
          "name": "slots",
          "type": "uint64[]"
        }
      ],
      "name": "finalizeExits",
      "outputs": [],
      "payable": false,
      "stateMutability": "nonpayable",
      "type": "function",
      "signature": "0x74c0a56f"
    },
    {
      "constant": false,
      "inputs": [
        {
          "name": "slot",
          "type": "uint64"
        }
      ],
      "name": "cancelExit",
      "outputs": [],
      "payable": false,
      "stateMutability": "nonpayable",
      "type": "function",
      "signature": "0xcbd8da63"
    },
    {
      "constant": false,
      "inputs": [
        {
          "name": "slots",
          "type": "uint64[]"
        }
      ],
      "name": "cancelExits",
      "outputs": [],
      "payable": false,
      "stateMutability": "nonpayable",
      "type": "function",
      "signature": "0xdf3b8377"
    },
    {
      "constant": false,
      "inputs": [
        {
          "name": "slot",
          "type": "uint64"
        }
      ],
      "name": "withdraw",
      "outputs": [],
      "payable": false,
      "stateMutability": "nonpayable",
      "type": "function",
      "signature": "0x750f0acc"
    },
    {
      "constant": false,
      "inputs": [
        {
          "name": "slot",
          "type": "uint64"
        },
        {
          "name": "txBytes",
          "type": "bytes"
        },
        {
          "name": "txInclusionProof",
          "type": "bytes"
        },
        {
          "name": "blockNumber",
          "type": "uint256"
        }
      ],
      "name": "challengeBefore",
      "outputs": [],
      "payable": true,
      "stateMutability": "payable",
      "type": "function",
      "signature": "0xc33a0158"
    },
    {
      "constant": false,
      "inputs": [
        {
          "name": "slot",
          "type": "uint64"
        },
        {
          "name": "challengingTxHash",
          "type": "bytes32"
        },
        {
          "name": "respondingBlockNumber",
          "type": "uint256"
        },
        {
          "name": "respondingTransaction",
          "type": "bytes"
        },
        {
          "name": "proof",
          "type": "bytes"
        },
        {
          "name": "signature",
          "type": "bytes"
        }
      ],
      "name": "respondChallengeBefore",
      "outputs": [],
      "payable": false,
      "stateMutability": "nonpayable",
      "type": "function",
      "signature": "0x4d69a8a1"
    },
    {
      "constant": false,
      "inputs": [
        {
          "name": "slot",
          "type": "uint64"
        },
        {
          "name": "challengingTransaction",
          "type": "bytes"
        },
        {
          "name": "proof",
          "type": "bytes"
        },
        {
          "name": "signature",
          "type": "bytes"
        },
        {
          "name": "challengingBlockNumber",
          "type": "uint256"
        }
      ],
      "name": "challengeBetween",
      "outputs": [],
      "payable": false,
      "stateMutability": "nonpayable",
      "type": "function",
      "signature": "0xfa2f2b77"
    },
    {
      "constant": false,
      "inputs": [
        {
          "name": "slot",
          "type": "uint64"
        },
        {
          "name": "challengingTransaction",
          "type": "bytes"
        },
        {
          "name": "proof",
          "type": "bytes"
        },
        {
          "name": "signature",
          "type": "bytes"
        },
        {
          "name": "challengingBlockNumber",
          "type": "uint256"
        }
      ],
      "name": "challengeAfter",
      "outputs": [],
      "payable": false,
      "stateMutability": "nonpayable",
      "type": "function",
      "signature": "0x689828a3"
    },
    {
      "constant": false,
      "inputs": [],
      "name": "withdrawBonds",
      "outputs": [],
      "payable": false,
      "stateMutability": "nonpayable",
      "type": "function",
      "signature": "0x1cc6ffa0"
    },
    {
      "constant": false,
      "inputs": [],
      "name": "pause",
      "outputs": [],
      "payable": false,
      "stateMutability": "nonpayable",
      "type": "function",
      "signature": "0x8456cb59"
    },
    {
      "constant": false,
      "inputs": [],
      "name": "unpause",
      "outputs": [],
      "payable": false,
      "stateMutability": "nonpayable",
      "type": "function",
      "signature": "0x3f4ba83a"
    },
    {
      "constant": false,
      "inputs": [
        {
          "name": "",
          "type": "address"
        },
        {
          "name": "from",
          "type": "address"
        },
        {
          "name": "tokenId",
          "type": "uint256"
        },
        {
          "name": "",
          "type": "bytes"
        }
      ],
      "name": "onERC721Received",
      "outputs": [
        {
          "name": "",
          "type": "bytes4"
        }
      ],
      "payable": false,
      "stateMutability": "nonpayable",
      "type": "function",
      "signature": "0x150b7a02"
    },
    {
      "constant": false,
      "inputs": [
        {
          "name": "uid",
          "type": "uint256"
        },
        {
          "name": "contractAddress",
          "type": "address"
        }
      ],
      "name": "depositERC721",
      "outputs": [],
      "payable": false,
      "stateMutability": "nonpayable",
      "type": "function",
      "signature": "0xc8ac6542"
    },
    {
      "constant": true,
      "inputs": [
        {
          "name": "txHash",
          "type": "bytes32"
        },
        {
          "name": "root",
          "type": "bytes32"
        },
        {
          "name": "slot",
          "type": "uint64"
        },
        {
          "name": "proof",
          "type": "bytes"
        }
      ],
      "name": "checkMembership",
      "outputs": [
        {
          "name": "",
          "type": "bool"
        }
      ],
      "payable": false,
      "stateMutability": "view",
      "type": "function",
      "signature": "0xf586df65"
    },
    {
      "constant": true,
      "inputs": [
        {
          "name": "txHash",
          "type": "bytes32"
        },
        {
          "name": "blockNumber",
          "type": "uint256"
        },
        {
          "name": "slot",
          "type": "uint64"
        },
        {
          "name": "proof",
          "type": "bytes"
        }
      ],
      "name": "checkInclusion",
      "outputs": [
        {
          "name": "",
          "type": "bool"
        }
      ],
      "payable": false,
      "stateMutability": "view",
      "type": "function",
      "signature": "0x6222252f"
    },
    {
      "constant": true,
      "inputs": [
        {
          "name": "txBytes",
          "type": "bytes"
        },
        {
          "name": "proof",
          "type": "bytes"
        },
        {
          "name": "blockNumber",
          "type": "uint256"
        }
      ],
      "name": "checkValidationAndInclusion",
      "outputs": [
        {
          "name": "",
          "type": "bool"
        }
      ],
      "payable": false,
      "stateMutability": "view",
      "type": "function",
      "signature": "0x88b11bc4"
    },
    {
      "constant": true,
      "inputs": [
        {
          "name": "slot",
          "type": "uint64"
        }
      ],
      "name": "getPlasmaCoin",
      "outputs": [
        {
          "name": "",
          "type": "uint256"
        },
        {
          "name": "",
          "type": "uint256"
        },
        {
          "name": "",
          "type": "address"
        },
        {
          "name": "",
          "type": "uint8"
        },
        {
          "name": "",
          "type": "address"
        }
      ],
      "payable": false,
      "stateMutability": "view",
      "type": "function",
      "signature": "0xf8353cf0"
    },
    {
      "constant": true,
      "inputs": [
        {
          "name": "slot",
          "type": "uint64"
        },
        {
          "name": "txHash",
          "type": "bytes32"
        }
      ],
      "name": "getChallenge",
      "outputs": [
        {
          "name": "",
          "type": "address"
        },
        {
          "name": "",
          "type": "address"
        },
        {
          "name": "",
          "type": "bytes32"
        },
        {
          "name": "",
          "type": "uint256"
        }
      ],
      "payable": false,
      "stateMutability": "view",
      "type": "function",
      "signature": "0x81686e6b"
    },
    {
      "constant": true,
      "inputs": [
        {
          "name": "slot",
          "type": "uint64"
        }
      ],
      "name": "getChallenges",
      "outputs": [
        {
          "name": "",
          "type": "bytes32[]"
        }
      ],
      "payable": false,
      "stateMutability": "view",
      "type": "function",
      "signature": "0x7109b65e"
    },
    {
      "constant": true,
      "inputs": [
        {
          "name": "slot",
          "type": "uint64"
        }
      ],
      "name": "getExit",
      "outputs": [
        {
          "name": "",
          "type": "address"
        },
        {
          "name": "",
          "type": "uint256"
        },
        {
          "name": "",
          "type": "uint256"
        },
        {
          "name": "",
          "type": "uint8"
        },
        {
          "name": "",
          "type": "uint256"
        }
      ],
      "payable": false,
      "stateMutability": "view",
      "type": "function",
      "signature": "0xd157796e"
    },
    {
      "constant": true,
      "inputs": [
        {
          "name": "blockNumber",
          "type": "uint256"
        }
      ],
      "name": "getBlockRoot",
      "outputs": [
        {
          "name": "root",
          "type": "bytes32"
        }
      ],
      "payable": false,
      "stateMutability": "view",
      "type": "function",
      "signature": "0xe41a5d17"
    },
    {
      "constant": true,
      "inputs": [
        {
          "name": "blockNumber",
          "type": "uint256"
        }
      ],
      "name": "getSecretBlockRoot",
      "outputs": [
        {
          "name": "root",
          "type": "bytes32"
        }
      ],
      "payable": false,
      "stateMutability": "view",
      "type": "function",
      "signature": "0xaf23b15b"
    },
    {
      "constant": true,
      "inputs": [],
      "name": "getBalance",
      "outputs": [
        {
          "name": "",
          "type": "uint256"
        },
        {
          "name": "",
          "type": "uint256"
        }
      ],
      "payable": false,
      "stateMutability": "view",
      "type": "function",
      "signature": "0x12065fe0"
    }
  ],
  "bytecode": "0x608060405260008060016101000a81548167ffffffffffffffff021916908367ffffffffffffffff1602179055506103e860045560006005553480156200004557600080fd5b50604051602080620098ae833981018060405260208110156200006757600080fd5b810190808051906020019092919050505080600860006101000a81548173ffffffffffffffffffffffffffffffffffffffff021916908373ffffffffffffffffffffffffffffffffffffffff160217905550620000c362000128565b604051809103906000f080158015620000e0573d6000803e3d6000fd5b50600960006101000a81548173ffffffffffffffffffffffffffffffffffffffff021916908373ffffffffffffffffffffffffffffffffffffffff1602179055505062000139565b60405161060e80620092a083390190565b61915780620001496000396000f3fe608060405260043610610216576000357c01000000000000000000000000000000000000000000000000000000009004806381686e6b1161012a578063d157796e116100bd578063e9a067c01161008c578063e9a067c0146110e9578063f586df65146112d5578063f8353cf0146113dd578063f95643b1146114b8578063fa2f2b771461150e57610216565b8063d157796e14610f3a578063df3b837714610fe9578063e12ed13c1461106f578063e41a5d171461109a57610216565b8063af23b15b116100f9578063af23b15b14610d5f578063c33a015814610dae578063c8ac654214610e9a578063cbd8da6314610ef557610216565b806381686e6b14610b3c5780638456cb5914610c0c57806388b11bc414610c23578063a973759514610d2057610216565b80633f4ba83a116101ad5780637109b65e1161017c5780637109b65e1461093c57806374c0a56f146109d6578063750f0acc14610a5c5780637841721414610aa15780637abb421f14610ae657610216565b80633f4ba83a146105775780634d69a8a11461058e5780636222252f146106e6578063689828a3146107ee57610216565b806319627609116101e957806319627609146104915780631cc6ffa0146104c957806327e235e3146104e057806338a9e0bc1461054c57610216565b806312065fe014610271578063149be19f146102a3578063150b7a02146102e85780631513a0431461044c575b6000151561026f576040517f08c379a00000000000000000000000000000000000000000000000000000000081526004018080602001828103825260248152602001806190876024913960400191505060405180910390fd5b005b34801561027d57600080fd5b5061028661165c565b604051808381526020018281526020019250505060405180910390f35b3480156102af57600080fd5b506102e6600480360360408110156102c657600080fd5b8101908080359060200190929190803590602001909291905050506116ed565b005b3480156102f457600080fd5b506103f86004803603608081101561030b57600080fd5b81019080803573ffffffffffffffffffffffffffffffffffffffff169060200190929190803573ffffffffffffffffffffffffffffffffffffffff169060200190929190803590602001909291908035906020019064010000000081111561037257600080fd5b82018360208201111561038457600080fd5b803590602001918460018302840111640100000000831117156103a657600080fd5b91908080601f016020809104026020016040519081016040528093929190818152602001838380828437600081840152601f19601f820116905080830192505050505050509192919290505050611949565b60405180827bffffffffffffffffffffffffffffffffffffffffffffffffffffffff19167bffffffffffffffffffffffffffffffffffffffffffffffffffffffff1916815260200191505060405180910390f35b34801561045857600080fd5b5061048f6004803603604081101561046f57600080fd5b810190808035906020019092919080359060200190929190505050611c00565b005b6104c7600480360360208110156104a757600080fd5b81019080803567ffffffffffffffff169060200190929190505050611ef7565b005b3480156104d557600080fd5b506104de61236f565b005b3480156104ec57600080fd5b5061052f6004803603602081101561050357600080fd5b81019080803573ffffffffffffffffffffffffffffffffffffffff169060200190929190505050612496565b604051808381526020018281526020019250505060405180910390f35b34801561055857600080fd5b506105616124ba565b6040518082815260200191505060405180910390f35b34801561058357600080fd5b5061058c6124c0565b005b34801561059a57600080fd5b506106e4600480360360c08110156105b157600080fd5b81019080803567ffffffffffffffff1690602001909291908035906020019092919080359060200190929190803590602001906401000000008111156105f657600080fd5b82018360208201111561060857600080fd5b8035906020019184600183028401116401000000008311171561062a57600080fd5b90919293919293908035906020019064010000000081111561064b57600080fd5b82018360208201111561065d57600080fd5b8035906020019184600183028401116401000000008311171561067f57600080fd5b9091929391929390803590602001906401000000008111156106a057600080fd5b8201836020820111156106b257600080fd5b803590602001918460018302840111640100000000831117156106d457600080fd5b9091929391929390505050612682565b005b3480156106f257600080fd5b506107d46004803603608081101561070957600080fd5b810190808035906020019092919080359060200190929190803567ffffffffffffffff1690602001909291908035906020019064010000000081111561074e57600080fd5b82018360208201111561076057600080fd5b8035906020019184600183028401116401000000008311171561078257600080fd5b91908080601f016020809104026020016040519081016040528093929190818152602001838380828437600081840152601f19601f820116905080830192505050505050509192919290505050612915565b604051808215151515815260200191505060405180910390f35b3480156107fa57600080fd5b5061093a600480360360a081101561081157600080fd5b81019080803567ffffffffffffffff1690602001909291908035906020019064010000000081111561084257600080fd5b82018360208201111561085457600080fd5b8035906020019184600183028401116401000000008311171561087657600080fd5b90919293919293908035906020019064010000000081111561089757600080fd5b8201836020820111156108a957600080fd5b803590602001918460018302840111640100000000831117156108cb57600080fd5b9091929391929390803590602001906401000000008111156108ec57600080fd5b8201836020820111156108fe57600080fd5b8035906020019184600183028401116401000000008311171561092057600080fd5b9091929391929390803590602001909291905050506129f9565b005b34801561094857600080fd5b5061097f6004803603602081101561095f57600080fd5b81019080803567ffffffffffffffff169060200190929190505050612bae565b6040518080602001828103825283818151815260200191508051906020019060200280838360005b838110156109c25780820151818401526020810190506109a7565b505050509050019250505060405180910390f35b3480156109e257600080fd5b50610a5a600480360360208110156109f957600080fd5b8101908080359060200190640100000000811115610a1657600080fd5b820183602082011115610a2857600080fd5b80359060200191846020830284011164010000000083111715610a4a57600080fd5b9091929391929390505050612c9b565b005b348015610a6857600080fd5b50610a9f60048036036020811015610a7f57600080fd5b81019080803567ffffffffffffffff169060200190929190505050612ceb565b005b348015610aad57600080fd5b50610ae460048036036020811015610ac457600080fd5b81019080803567ffffffffffffffff16906020019092919050505061337d565b005b348015610af257600080fd5b50610b1f60048036036020811015610b0957600080fd5b8101908080359060200190929190505050613778565b604051808381526020018281526020019250505060405180910390f35b348015610b4857600080fd5b50610b8960048036036040811015610b5f57600080fd5b81019080803567ffffffffffffffff1690602001909291908035906020019092919050505061379c565b604051808573ffffffffffffffffffffffffffffffffffffffff1673ffffffffffffffffffffffffffffffffffffffff1681526020018473ffffffffffffffffffffffffffffffffffffffff1673ffffffffffffffffffffffffffffffffffffffff16815260200183815260200182815260200194505050505060405180910390f35b348015610c1857600080fd5b50610c2161391e565b005b348015610c2f57600080fd5b50610d0660048036036060811015610c4657600080fd5b8101908080359060200190640100000000811115610c6357600080fd5b820183602082011115610c7557600080fd5b80359060200191846001830284011164010000000083111715610c9757600080fd5b909192939192939080359060200190640100000000811115610cb857600080fd5b820183602082011115610cca57600080fd5b80359060200191846001830284011164010000000083111715610cec57600080fd5b909192939192939080359060200190929190505050613ae0565b604051808215151515815260200191505060405180910390f35b348015610d2c57600080fd5b50610d35613b83565b604051808267ffffffffffffffff1667ffffffffffffffff16815260200191505060405180910390f35b348015610d6b57600080fd5b50610d9860048036036020811015610d8257600080fd5b8101908080359060200190929190505050613b9d565b6040518082815260200191505060405180910390f35b610e9860048036036080811015610dc457600080fd5b81019080803567ffffffffffffffff16906020019092919080359060200190640100000000811115610df557600080fd5b820183602082011115610e0757600080fd5b80359060200191846001830284011164010000000083111715610e2957600080fd5b909192939192939080359060200190640100000000811115610e4a57600080fd5b820183602082011115610e5c57600080fd5b80359060200191846001830284011164010000000083111715610e7e57600080fd5b909192939192939080359060200190929190505050613bbd565b005b348015610ea657600080fd5b50610ef360048036036040811015610ebd57600080fd5b8101908080359060200190929190803573ffffffffffffffffffffffffffffffffffffffff169060200190929190505050613ec3565b005b348015610f0157600080fd5b50610f3860048036036020811015610f1857600080fd5b81019080803567ffffffffffffffff169060200190929190505050613fb6565b005b348015610f4657600080fd5b50610f7d60048036036020811015610f5d57600080fd5b81019080803567ffffffffffffffff169060200190929190505050614214565b604051808673ffffffffffffffffffffffffffffffffffffffff1673ffffffffffffffffffffffffffffffffffffffff168152602001858152602001848152602001836002811115610fcb57fe5b60ff1681526020018281526020019550505050505060405180910390f35b348015610ff557600080fd5b5061106d6004803603602081101561100c57600080fd5b810190808035906020019064010000000081111561102957600080fd5b82018360208201111561103b57600080fd5b8035906020019184602083028401116401000000008311171561105d57600080fd5b9091929391929390505050614390565b005b34801561107b57600080fd5b506110846143e0565b6040518082815260200191505060405180910390f35b3480156110a657600080fd5b506110d3600480360360208110156110bd57600080fd5b81019080803590602001909291905050506143e6565b6040518082815260200191505060405180910390f35b6112d3600480360361010081101561110057600080fd5b81019080803567ffffffffffffffff1690602001909291908035906020019064010000000081111561113157600080fd5b82018360208201111561114357600080fd5b8035906020019184600183028401116401000000008311171561116557600080fd5b90919293919293908035906020019064010000000081111561118657600080fd5b82018360208201111561119857600080fd5b803590602001918460018302840111640100000000831117156111ba57600080fd5b9091929391929390803590602001906401000000008111156111db57600080fd5b8201836020820111156111ed57600080fd5b8035906020019184600183028401116401000000008311171561120f57600080fd5b90919293919293908035906020019064010000000081111561123057600080fd5b82018360208201111561124257600080fd5b8035906020019184600183028401116401000000008311171561126457600080fd5b90919293919293908035906020019064010000000081111561128557600080fd5b82018360208201111561129757600080fd5b803590602001918460018302840111640100000000831117156112b957600080fd5b909192939192939080604001909192919290505050614406565b005b3480156112e157600080fd5b506113c3600480360360808110156112f857600080fd5b810190808035906020019092919080359060200190929190803567ffffffffffffffff1690602001909291908035906020019064010000000081111561133d57600080fd5b82018360208201111561134f57600080fd5b8035906020019184600183028401116401000000008311171561137157600080fd5b91908080601f016020809104026020016040519081016040528093929190818152602001838380828437600081840152601f19601f8201169050808301925050505050505091929192905050506148c3565b604051808215151515815260200191505060405180910390f35b3480156113e957600080fd5b506114206004803603602081101561140057600080fd5b81019080803567ffffffffffffffff169060200190929190505050614a2a565b604051808681526020018581526020018473ffffffffffffffffffffffffffffffffffffffff1673ffffffffffffffffffffffffffffffffffffffff16815260200183600281111561146e57fe5b60ff1681526020018273ffffffffffffffffffffffffffffffffffffffff1673ffffffffffffffffffffffffffffffffffffffff1681526020019550505050505060405180910390f35b3480156114c457600080fd5b506114f1600480360360208110156114db57600080fd5b8101908080359060200190929190505050614c72565b604051808381526020018281526020019250505060405180910390f35b34801561151a57600080fd5b5061165a600480360360a081101561153157600080fd5b81019080803567ffffffffffffffff1690602001909291908035906020019064010000000081111561156257600080fd5b82018360208201111561157457600080fd5b8035906020019184600183028401116401000000008311171561159657600080fd5b9091929391929390803590602001906401000000008111156115b757600080fd5b8201836020820111156115c957600080fd5b803590602001918460018302840111640100000000831117156115eb57600080fd5b90919293919293908035906020019064010000000081111561160c57600080fd5b82018360208201111561161e57600080fd5b8035906020019184600183028401116401000000008311171561164057600080fd5b909192939192939080359060200190929190505050614c96565b005b600080600160003373ffffffffffffffffffffffffffffffffffffffff1673ffffffffffffffffffffffffffffffffffffffff16815260200190815260200160002060000154600160003373ffffffffffffffffffffffffffffffffffffffff1673ffffffffffffffffffffffffffffffffffffffff16815260200190815260200160002060010154915091509091565b600860009054906101000a900473ffffffffffffffffffffffffffffffffffffffff1673ffffffffffffffffffffffffffffffffffffffff1663797327ae336040518263ffffffff167c0100000000000000000000000000000000000000000000000000000000028152600401808273ffffffffffffffffffffffffffffffffffffffff1673ffffffffffffffffffffffffffffffffffffffff16815260200191505060206040518083038186803b1580156117a857600080fd5b505afa1580156117bc573d6000803e3d6000fd5b505050506040513d60208110156117d257600080fd5b81019080805190602001909291905050501515611857576040517f08c379a00000000000000000000000000000000000000000000000000000000081526004018080602001828103825260198152602001807f53656e646572206973206e6f7420612056616c696461746f720000000000000081525060200191505060405180910390fd5b60055482101515156118b4576040517f08c379a00000000000000000000000000000000000000000000000000000000081526004018080602001828103825260328152602001806190556032913960400191505060405180910390fd5b8160058190555060408051908101604052808281526020014281525060066000600554815260200190815260200160002060008201518160000155602082015181600101559050507f6d91cd6ccac8368394df514e6aee19a55264f5ab49a891af91ca86da27bedd4f600554824260405180848152602001838152602001828152602001935050505060405180910390a15050565b600033600860009054906101000a900473ffffffffffffffffffffffffffffffffffffffff1673ffffffffffffffffffffffffffffffffffffffff1663e744092e826040518263ffffffff167c0100000000000000000000000000000000000000000000000000000000028152600401808273ffffffffffffffffffffffffffffffffffffffff1673ffffffffffffffffffffffffffffffffffffffff16815260200191505060206040518083038186803b158015611a0757600080fd5b505afa158015611a1b573d6000803e3d6000fd5b505050506040513d6020811015611a3157600080fd5b81019080805190602001909291905050501515611a99576040517f08c379a000000000000000000000000000000000000000000000000000000000815260040180806020018281038252602d815260200180618d3c602d913960400191505060405180910390fd5b3073ffffffffffffffffffffffffffffffffffffffff163373ffffffffffffffffffffffffffffffffffffffff16636352211e866040518263ffffffff167c01000000000000000000000000000000000000000000000000000000000281526004018082815260200191505060206040518083038186803b158015611b1d57600080fd5b505afa158015611b31573d6000803e3d6000fd5b505050506040513d6020811015611b4757600080fd5b810190808051906020019092919050505073ffffffffffffffffffffffffffffffffffffffff16141515611bc6576040517f08c379a0000000000000000000000000000000000000000000000000000000008152600401808060200182810382526022815260200180618bd16022913960400191505060405180910390fd5b611bd1853386614e4b565b63150b7a027c010000000000000000000000000000000000000000000000000000000002915050949350505050565b600860009054906101000a900473ffffffffffffffffffffffffffffffffffffffff1673ffffffffffffffffffffffffffffffffffffffff1663797327ae336040518263ffffffff167c0100000000000000000000000000000000000000000000000000000000028152600401808273ffffffffffffffffffffffffffffffffffffffff1673ffffffffffffffffffffffffffffffffffffffff16815260200191505060206040518083038186803b158015611cbb57600080fd5b505afa158015611ccf573d6000803e3d6000fd5b505050506040513d6020811015611ce557600080fd5b81019080805190602001909291905050501515611d6a576040517f08c379a00000000000000000000000000000000000000000000000000000000081526004018080602001828103825260198152602001807f53656e646572206973206e6f7420612056616c696461746f720000000000000081525060200191505060405180910390fd5b611d726187b8565b600660008481526020019081526020016000206040805190810160405290816000820154815260200160018201548152505090506000600102816000015114151515611e09576040517f08c379a0000000000000000000000000000000000000000000000000000000008152600401808060200182810382526043815260200180618d916043913960600191505060405180910390fd5b6201518081602001514203101515611e6c576040517f08c379a0000000000000000000000000000000000000000000000000000000008152600401808060200182810382526026815260200180618bf36026913960400191505060405180910390fd5b6040805190810160405280838152602001428152506007600085815260200190815260200160002060008201518160000155602082015181600101559050507ff2899e36485db2b5838848eae26a10a1a468cca7ed04ad75170322b00f7d134983834260405180848152602001838152602001828152602001935050505060405180910390a1505050565b67016345785d8a000034141515611f59576040517f08c379a0000000000000000000000000000000000000000000000000000000008152600401808060200182810382526032815260200180618c196032913960400191505060405180910390fd5b611fae34600160003373ffffffffffffffffffffffffffffffffffffffff1673ffffffffffffffffffffffffffffffffffffffff1681526020019081526020016000206000015461521c90919063ffffffff16565b600160003373ffffffffffffffffffffffffffffffffffffffff1673ffffffffffffffffffffffffffffffffffffffff1681526020019081526020016000206000018190555080600080600281111561200357fe5b600360008467ffffffffffffffff1667ffffffffffffffff16815260200190815260200160002060000160009054906101000a900460ff16600281111561204657fe5b1415156120bb576040517f08c379a00000000000000000000000000000000000000000000000000000000081526004018080602001828103825260108152602001807f57726f6e6720636f696e2073746174650000000000000000000000000000000081525060200191505060405180910390fd5b6120c36187d5565b600360008567ffffffffffffffff1667ffffffffffffffff16815260200190815260200160002060c060405190810160405290816000820160009054906101000a900460ff16600281111561211457fe5b600281111561211f57fe5b81526020016000820160019054906101000a900473ffffffffffffffffffffffffffffffffffffffff1673ffffffffffffffffffffffffffffffffffffffff1673ffffffffffffffffffffffffffffffffffffffff1681526020016001820160009054906101000a900473ffffffffffffffffffffffffffffffffffffffff1673ffffffffffffffffffffffffffffffffffffffff1673ffffffffffffffffffffffffffffffffffffffff1681526020016002820160c060405190810160405290816000820160009054906101000a900473ffffffffffffffffffffffffffffffffffffffff1673ffffffffffffffffffffffffffffffffffffffff1673ffffffffffffffffffffffffffffffffffffffff1681526020016001820160009054906101000a900473ffffffffffffffffffffffffffffffffffffffff1673ffffffffffffffffffffffffffffffffffffffff1673ffffffffffffffffffffffffffffffffffffffff16815260200160028201548152602001600382015481526020016004820154815260200160058201548152505081526020016008820154815260200160098201548152505090503373ffffffffffffffffffffffffffffffffffffffff16816020015173ffffffffffffffffffffffffffffffffffffffff16141515612358576040517f08c379a00000000000000000000000000000000000000000000000000000000081526004018080602001828103825260238152602001806191096023913960400191505060405180910390fd5b612369846000808460a0015161523d565b50505050565b6000600160003373ffffffffffffffffffffffffffffffffffffffff1673ffffffffffffffffffffffffffffffffffffffff1681526020019081526020016000206001015490506000600160003373ffffffffffffffffffffffffffffffffffffffff1673ffffffffffffffffffffffffffffffffffffffff168152602001908152602001600020600101819055503373ffffffffffffffffffffffffffffffffffffffff166108fc829081150290604051600060405180830381858888f19350505050158015612444573d6000803e3d6000fd5b503373ffffffffffffffffffffffffffffffffffffffff167fba49a755e2e4831fb6ef34b384178b03af45679532c9ac5a2199b27b4dddea8d826040518082815260200191505060405180910390a250565b60016020528060005260406000206000915090508060000154908060010154905082565b60045481565b600860009054906101000a900473ffffffffffffffffffffffffffffffffffffffff1673ffffffffffffffffffffffffffffffffffffffff1663797327ae336040518263ffffffff167c0100000000000000000000000000000000000000000000000000000000028152600401808273ffffffffffffffffffffffffffffffffffffffff1673ffffffffffffffffffffffffffffffffffffffff16815260200191505060206040518083038186803b15801561257b57600080fd5b505afa15801561258f573d6000803e3d6000fd5b505050506040513d60208110156125a557600080fd5b8101908080519060200190929190505050151561262a576040517f08c379a00000000000000000000000000000000000000000000000000000000081526004018080602001828103825260198152602001807f53656e646572206973206e6f7420612056616c696461746f720000000000000081525060200191505060405180910390fd5b60008060006101000a81548160ff0219169083151502179055507f0e2fb031ee032dc02d8011dc50b816eb450cf856abd8261680dac74f72165bd26000604051808215151515815260200191505060405180910390a1565b6126bb88600260008c67ffffffffffffffff1667ffffffffffffffff1681526020019081526020016000206153fa90919063ffffffff16565b1515612712576040517f08c379a0000000000000000000000000000000000000000000000000000000008152600401808060200182810382526024815260200180618b826024913960400191505060405180910390fd5b600061274d89600260008d67ffffffffffffffff1667ffffffffffffffff16815260200190815260200160002061543690919063ffffffff16565b90506128298a828a8a8a8080601f016020809104026020016040519081016040528093929190818152602001838380828437600081840152601f19601f8201169050808301925050505050505087878080601f016020809104026020016040519081016040528093929190818152602001838380828437600081840152601f19601f820116905080830192505050505050508a8a8080601f016020809104026020016040519081016040528093929190818152602001838380828437600081840152601f19601f820116905080830192505050505050506154b2565b612898600260008c67ffffffffffffffff1667ffffffffffffffff1681526020019081526020016000208281548110151561286057fe5b906000526020600020906004020160010160009054906101000a900473ffffffffffffffffffffffffffffffffffffffff1633615778565b6128d189600260008d67ffffffffffffffff1667ffffffffffffffff16815260200190815260200160002061592f90919063ffffffff16565b508967ffffffffffffffff167f7deeb80e1644537d3ba4f917cfcbaba62b54354e9f2598d6885d52e359885e2560405160405180910390a250505050505050505050565b600061291f6187b8565b6006600086815260200190815260200160002060408051908101604052908160008201548152602001600182015481525050905060006004548681151561296257fe5b061415156129dd578060000151861480156129d55750806000015184604051602001808267ffffffffffffffff1667ffffffffffffffff16780100000000000000000000000000000000000000000000000002815260080191505060405160208183030381529060405280519060200120145b9150506129f1565b6129ed86826000015186866148c3565b9150505b949350505050565b876001806002811115612a0857fe5b600360008467ffffffffffffffff1667ffffffffffffffff16815260200190815260200160002060000160009054906101000a900460ff166002811115612a4b57fe5b141515612ac0576040517f08c379a00000000000000000000000000000000000000000000000000000000081526004018080602001828103825260108152602001807f57726f6e6720636f696e2073746174650000000000000000000000000000000081525060200191505060405180910390fd5b612b998a8a8a8080601f016020809104026020016040519081016040528093929190818152602001838380828437600081840152601f19601f8201169050808301925050505050505089898080601f016020809104026020016040519081016040528093929190818152602001838380828437600081840152601f19601f8201169050808301925050505050505088888080601f016020809104026020016040519081016040528093929190818152602001838380828437600081840152601f19601f8201169050808301925050505050505087615bd4565b612ba28a615ea6565b50505050505050505050565b60606000600260008467ffffffffffffffff1667ffffffffffffffff168152602001908152602001600020805490509050606081604051908082528060200260200182016040528015612c105781602001602082028038833980820191505090505b50905060008090505b82811015612c9057600260008667ffffffffffffffff1667ffffffffffffffff16815260200190815260200160002081815481101515612c5557fe5b9060005260206000209060040201600201548282815181101515612c7557fe5b90602001906020020181815250508080600101915050612c19565b508092505050919050565b600082829050905060008090505b81811015612ce557612cd88484838181101515612cc257fe5b9050602002013567ffffffffffffffff1661337d565b8080600101915050612ca9565b50505050565b806002806002811115612cfa57fe5b600360008467ffffffffffffffff1667ffffffffffffffff16815260200190815260200160002060000160009054906101000a900460ff166002811115612d3d57fe5b141515612db2576040517f08c379a00000000000000000000000000000000000000000000000000000000081526004018080602001828103825260108152602001807f57726f6e6720636f696e2073746174650000000000000000000000000000000081525060200191505060405180910390fd5b3373ffffffffffffffffffffffffffffffffffffffff16600360008567ffffffffffffffff1667ffffffffffffffff16815260200190815260200160002060000160019054906101000a900473ffffffffffffffffffffffffffffffffffffffff1673ffffffffffffffffffffffffffffffffffffffff16141515612e9f576040517f08c379a00000000000000000000000000000000000000000000000000000000081526004018080602001828103825260188152602001807f596f7520646f206e6f74206f776e2074686174205554584f000000000000000081525060200191505060405180910390fd5b6000600360008567ffffffffffffffff1667ffffffffffffffff168152602001908152602001600020600801549050612ed66187d5565b600360008667ffffffffffffffff1667ffffffffffffffff16815260200190815260200160002060c060405190810160405290816000820160009054906101000a900460ff166002811115612f2757fe5b6002811115612f3257fe5b81526020016000820160019054906101000a900473ffffffffffffffffffffffffffffffffffffffff1673ffffffffffffffffffffffffffffffffffffffff1673ffffffffffffffffffffffffffffffffffffffff1681526020016001820160009054906101000a900473ffffffffffffffffffffffffffffffffffffffff1673ffffffffffffffffffffffffffffffffffffffff1673ffffffffffffffffffffffffffffffffffffffff1681526020016002820160c060405190810160405290816000820160009054906101000a900473ffffffffffffffffffffffffffffffffffffffff1673ffffffffffffffffffffffffffffffffffffffff1673ffffffffffffffffffffffffffffffffffffffff1681526020016001820160009054906101000a900473ffffffffffffffffffffffffffffffffffffffff1673ffffffffffffffffffffffffffffffffffffffff1673ffffffffffffffffffffffffffffffffffffffff1681526020016002820154815260200160038201548152602001600482015481526020016005820154815250508152602001600882015481526020016009820154815250509050600360008667ffffffffffffffff1667ffffffffffffffff168152602001908152602001600020600080820160006101000a81549060ff02191690556000820160016101000a81549073ffffffffffffffffffffffffffffffffffffffff02191690556001820160006101000a81549073ffffffffffffffffffffffffffffffffffffffff021916905560028201600080820160006101000a81549073ffffffffffffffffffffffffffffffffffffffff02191690556001820160006101000a81549073ffffffffffffffffffffffffffffffffffffffff021916905560028201600090556003820160009055600482016000905560058201600090555050600882016000905560098201600090555050806040015173ffffffffffffffffffffffffffffffffffffffff166342842e0e3033856040518463ffffffff167c0100000000000000000000000000000000000000000000000000000000028152600401808473ffffffffffffffffffffffffffffffffffffffff1673ffffffffffffffffffffffffffffffffffffffff1681526020018373ffffffffffffffffffffffffffffffffffffffff1673ffffffffffffffffffffffffffffffffffffffff1681526020018281526020019350505050600060405180830381600087803b1580156132cd57600080fd5b505af11580156132e1573d6000803e3d6000fd5b505050508467ffffffffffffffff163373ffffffffffffffffffffffffffffffffffffffff167fbb8c77f80d40a232c518e16058c59d0d555d9d775622b4839c7039007d10a037836040015185604051808373ffffffffffffffffffffffffffffffffffffffff1673ffffffffffffffffffffffffffffffffffffffff1681526020018281526020019250505060405180910390a35050505050565b80600180600281111561338c57fe5b600360008467ffffffffffffffff1667ffffffffffffffff16815260200190815260200160002060000160009054906101000a900460ff1660028111156133cf57fe5b141515613444576040517f08c379a00000000000000000000000000000000000000000000000000000000081526004018080602001828103825260108152602001807f57726f6e6720636f696e2073746174650000000000000000000000000000000081525060200191505060405180910390fd5b6000600360008567ffffffffffffffff1667ffffffffffffffff168152602001908152602001600020905062093a80816002016002015442031115156134d5576040517f08c379a000000000000000000000000000000000000000000000000000000000815260040180806020018281038252603c815260200180618fd9603c913960400191505060405180910390fd5b60006134e08561607f565b905080151561363d578160020160010160009054906101000a900473ffffffffffffffffffffffffffffffffffffffff168260000160016101000a81548173ffffffffffffffffffffffffffffffffffffffff021916908373ffffffffffffffffffffffffffffffffffffffff16021790555060028260000160006101000a81548160ff0219169083600281111561357457fe5b02179055506135a68260000160019054906101000a900473ffffffffffffffffffffffffffffffffffffffff16616307565b8467ffffffffffffffff167f432647a5fb9bdea356d78f8e3d83b6ddc2e78b4e4a702ac7eb968f7fe03d9dda8360000160019054906101000a900473ffffffffffffffffffffffffffffffffffffffff16604051808273ffffffffffffffffffffffffffffffffffffffff1673ffffffffffffffffffffffffffffffffffffffff16815260200191505060405180910390a26136d6565b60008260000160006101000a81548160ff0219169083600281111561365e57fe5b02179055508160000160019054906101000a900473ffffffffffffffffffffffffffffffffffffffff1673ffffffffffffffffffffffffffffffffffffffff168567ffffffffffffffff167f35cc9c4d0d9a2ce748d131382582af17dbf1f0d72167ea7906ea3f18597b31a460405160405180910390a35b600360008667ffffffffffffffff1667ffffffffffffffff168152602001908152602001600020600201600080820160006101000a81549073ffffffffffffffffffffffffffffffffffffffff02191690556001820160006101000a81549073ffffffffffffffffffffffffffffffffffffffff0219169055600282016000905560038201600090556004820160009055600582016000905550505050505050565b60076020528060005260406000206000915090508060000154908060010154905082565b60008060008060006137dd86600260008a67ffffffffffffffff1667ffffffffffffffff16815260200190815260200160002061543690919063ffffffff16565b90506137e761884a565b600260008967ffffffffffffffff1667ffffffffffffffff1681526020019081526020016000208281548110151561381b57fe5b9060005260206000209060040201608060405190810160405290816000820160009054906101000a900473ffffffffffffffffffffffffffffffffffffffff1673ffffffffffffffffffffffffffffffffffffffff1673ffffffffffffffffffffffffffffffffffffffff1681526020016001820160009054906101000a900473ffffffffffffffffffffffffffffffffffffffff1673ffffffffffffffffffffffffffffffffffffffff1673ffffffffffffffffffffffffffffffffffffffff16815260200160028201548152602001600382015481525050905080600001518160200151826040015183606001519550955095509550505092959194509250565b600860009054906101000a900473ffffffffffffffffffffffffffffffffffffffff1673ffffffffffffffffffffffffffffffffffffffff1663797327ae336040518263ffffffff167c0100000000000000000000000000000000000000000000000000000000028152600401808273ffffffffffffffffffffffffffffffffffffffff1673ffffffffffffffffffffffffffffffffffffffff16815260200191505060206040518083038186803b1580156139d957600080fd5b505afa1580156139ed573d6000803e3d6000fd5b505050506040513d6020811015613a0357600080fd5b81019080805190602001909291905050501515613a88576040517f08c379a00000000000000000000000000000000000000000000000000000000081526004018080602001828103825260198152602001807f53656e646572206973206e6f7420612056616c696461746f720000000000000081525060200191505060405180910390fd5b60016000806101000a81548160ff0219169083151502179055507f0e2fb031ee032dc02d8011dc50b816eb450cf856abd8261680dac74f72165bd26001604051808215151515815260200191505060405180910390a1565b6000613b7586868080601f016020809104026020016040519081016040528093929190818152602001838380828437600081840152601f19601f8201169050808301925050505050505085858080601f016020809104026020016040519081016040528093929190818152602001838380828437600081840152601f19601f82011690508083019250505050505050846164a6565b506001905095945050505050565b600060019054906101000a900467ffffffffffffffff1681565b600060076000838152602001908152602001600020600001549050919050565b67016345785d8a000034141515613c1f576040517f08c379a0000000000000000000000000000000000000000000000000000000008152600401808060200182810382526032815260200180618c196032913960400191505060405180910390fd5b613c7434600160003373ffffffffffffffffffffffffffffffffffffffff1673ffffffffffffffffffffffffffffffffffffffff1681526020019081526020016000206000015461521c90919063ffffffff16565b600160003373ffffffffffffffffffffffffffffffffffffffff1673ffffffffffffffffffffffffffffffffffffffff16815260200190815260200160002060000181905550856001806002811115613cc957fe5b600360008467ffffffffffffffff1667ffffffffffffffff16815260200190815260200160002060000160009054906101000a900460ff166002811115613d0c57fe5b141515613d81576040517f08c379a00000000000000000000000000000000000000000000000000000000081526004018080602001828103825260108152602001807f57726f6e6720636f696e2073746174650000000000000000000000000000000081525060200191505060405180910390fd5b613e158888888080601f016020809104026020016040519081016040528093929190818152602001838380828437600081840152601f19601f8201169050808301925050505050505087878080601f016020809104026020016040519081016040528093929190818152602001838380828437600081840152601f19601f8201169050808301925050505050505086616998565b613eb988613e6689898080601f016020809104026020016040519081016040528093929190818152602001838380828437600081840152601f19601f82011690508083019250505050505050616acb565b85613eb48b8b8080601f016020809104026020016040519081016040528093929190818152602001838380828437600081840152601f19601f82011690508083019250505050505050616ba6565b616c80565b5050505050505050565b8073ffffffffffffffffffffffffffffffffffffffff166342842e0e3330856040518463ffffffff167c0100000000000000000000000000000000000000000000000000000000028152600401808473ffffffffffffffffffffffffffffffffffffffff1673ffffffffffffffffffffffffffffffffffffffff1681526020018373ffffffffffffffffffffffffffffffffffffffff1673ffffffffffffffffffffffffffffffffffffffff1681526020018281526020019350505050600060405180830381600087803b158015613f9a57600080fd5b505af1158015613fae573d6000803e3d6000fd5b505050505050565b3373ffffffffffffffffffffffffffffffffffffffff16600360008367ffffffffffffffff1667ffffffffffffffff16815260200190815260200160002060020160010160009054906101000a900473ffffffffffffffffffffffffffffffffffffffff1673ffffffffffffffffffffffffffffffffffffffff16141515614089576040517f08c379a000000000000000000000000000000000000000000000000000000000815260040180806020018281038252602f815260200180618ee4602f913960400191505060405180910390fd5b600360008267ffffffffffffffff1667ffffffffffffffff168152602001908152602001600020600201600080820160006101000a81549073ffffffffffffffffffffffffffffffffffffffff02191690556001820160006101000a81549073ffffffffffffffffffffffffffffffffffffffff0219169055600282016000905560038201600090556004820160009055600582016000905550506000600360008367ffffffffffffffff1667ffffffffffffffff16815260200190815260200160002060000160006101000a81548160ff0219169083600281111561416b57fe5b021790555061417933616307565b600360008267ffffffffffffffff1667ffffffffffffffff16815260200190815260200160002060000160019054906101000a900473ffffffffffffffffffffffffffffffffffffffff1673ffffffffffffffffffffffffffffffffffffffff168167ffffffffffffffff167f35cc9c4d0d9a2ce748d131382582af17dbf1f0d72167ea7906ea3f18597b31a460405160405180910390a350565b60008060008060006142246188a2565b600360008867ffffffffffffffff1667ffffffffffffffff16815260200190815260200160002060020160c060405190810160405290816000820160009054906101000a900473ffffffffffffffffffffffffffffffffffffffff1673ffffffffffffffffffffffffffffffffffffffff1673ffffffffffffffffffffffffffffffffffffffff1681526020016001820160009054906101000a900473ffffffffffffffffffffffffffffffffffffffff1673ffffffffffffffffffffffffffffffffffffffff1673ffffffffffffffffffffffffffffffffffffffff1681526020016002820154815260200160038201548152602001600482015481526020016005820154815250509050806020015181608001518260a00151600360008b67ffffffffffffffff1667ffffffffffffffff16815260200190815260200160002060000160009054906101000a900460ff168460400151955095509550955095505091939590929450565b600082829050905060008090505b818110156143da576143cd84848381811015156143b757fe5b9050602002013567ffffffffffffffff16613fb6565b808060010191505061439e565b50505050565b60055481565b600060066000838152602001908152602001600020600001549050919050565b67016345785d8a000034141515614468576040517f08c379a0000000000000000000000000000000000000000000000000000000008152600401808060200182810382526032815260200180618c196032913960400191505060405180910390fd5b6144bd34600160003373ffffffffffffffffffffffffffffffffffffffff1673ffffffffffffffffffffffffffffffffffffffff1681526020019081526020016000206000015461521c90919063ffffffff16565b600160003373ffffffffffffffffffffffffffffffffffffffff1673ffffffffffffffffffffffffffffffffffffffff168152602001908152602001600020600001819055508b600080600281111561451257fe5b600360008467ffffffffffffffff1667ffffffffffffffff16815260200190815260200160002060000160009054906101000a900460ff16600281111561455557fe5b1415156145ca576040517f08c379a00000000000000000000000000000000000000000000000000000000081526004018080602001828103825260108152602001807f57726f6e6720636f696e2073746174650000000000000000000000000000000081525060200191505060405180910390fd5b6146178b8b8080601f016020809104026020016040519081016040528093929190818152602001838380828437600081840152601f19601f82011690508083019250505050505050616acb565b73ffffffffffffffffffffffffffffffffffffffff163373ffffffffffffffffffffffffffffffffffffffff1614151561469c576040517f08c379a000000000000000000000000000000000000000000000000000000000815260040180806020018281038252602a815260200180618f62602a913960400191505060405180910390fd5b6148358d8d8080601f016020809104026020016040519081016040528093929190818152602001838380828437600081840152601f19601f820116905080830192505050505050508c8c8080601f016020809104026020016040519081016040528093929190818152602001838380828437600081840152601f19601f820116905080830192505050505050508b8b8080601f016020809104026020016040519081016040528093929190818152602001838380828437600081840152601f19601f820116905080830192505050505050508a8a8080601f016020809104026020016040519081016040528093929190818152602001838380828437600081840152601f19601f8201169050808301925050505050505089898080601f016020809104026020016040519081016040528093929190818152602001838380828437600081840152601f19601f82011690508083019250505050505050886002806020026040519081016040528092919082600260200280828437600081840152601f19601f820116905080830192505050505050616f67565b6148b38e6148868f8f8080601f016020809104026020016040519081016040528093929190818152602001838380828437600081840152601f19601f82011690508083019250505050505050616acb565b85600060028110151561489557fe5b60200201358660016002811015156148a957fe5b602002013561523d565b5050505050505050505050505050565b6000600960009054906101000a900473ffffffffffffffffffffffffffffffffffffffff1673ffffffffffffffffffffffffffffffffffffffff1663f586df65868686866040518563ffffffff167c0100000000000000000000000000000000000000000000000000000000028152600401808581526020018481526020018367ffffffffffffffff1667ffffffffffffffff16815260200180602001828103825283818151815260200191508051906020019080838360005b8381101561499857808201518184015260208101905061497d565b50505050905090810190601f1680156149c55780820380516001836020036101000a031916815260200191505b509550505050505060206040518083038186803b1580156149e557600080fd5b505afa1580156149f9573d6000803e3d6000fd5b505050506040513d6020811015614a0f57600080fd5b81019080805190602001909291905050509050949350505050565b6000806000806000614a3a6187d5565b600360008867ffffffffffffffff1667ffffffffffffffff16815260200190815260200160002060c060405190810160405290816000820160009054906101000a900460ff166002811115614a8b57fe5b6002811115614a9657fe5b81526020016000820160019054906101000a900473ffffffffffffffffffffffffffffffffffffffff1673ffffffffffffffffffffffffffffffffffffffff1673ffffffffffffffffffffffffffffffffffffffff1681526020016001820160009054906101000a900473ffffffffffffffffffffffffffffffffffffffff1673ffffffffffffffffffffffffffffffffffffffff1673ffffffffffffffffffffffffffffffffffffffff1681526020016002820160c060405190810160405290816000820160009054906101000a900473ffffffffffffffffffffffffffffffffffffffff1673ffffffffffffffffffffffffffffffffffffffff1673ffffffffffffffffffffffffffffffffffffffff1681526020016001820160009054906101000a900473ffffffffffffffffffffffffffffffffffffffff1673ffffffffffffffffffffffffffffffffffffffff1673ffffffffffffffffffffffffffffffffffffffff168152602001600282015481526020016003820154815260200160048201548152602001600582015481525050815260200160088201548152602001600982015481525050905080608001518160a00151826020015183600001518460400151955095509550955095505091939590929450565b60066020528060005260406000206000915090508060000154908060010154905082565b876001806002811115614ca557fe5b600360008467ffffffffffffffff1667ffffffffffffffff16815260200190815260200160002060000160009054906101000a900460ff166002811115614ce857fe5b141515614d5d576040517f08c379a00000000000000000000000000000000000000000000000000000000081526004018080602001828103825260108152602001807f57726f6e6720636f696e2073746174650000000000000000000000000000000081525060200191505060405180910390fd5b614e368a8a8a8080601f016020809104026020016040519081016040528093929190818152602001838380828437600081840152601f19601f8201169050808301925050505050505089898080601f016020809104026020016040519081016040528093929190818152602001838380828437600081840152601f19601f8201169050808301925050505050505088888080601f016020809104026020016040519081016040528093929190818152602001838380828437600081840152601f19601f8201169050808301925050505050505087616ff8565b614e3f8a615ea6565b50505050505050505050565b6000809054906101000a900460ff16151515614eb2576040517f08c379a0000000000000000000000000000000000000000000000000000000008152600401808060200182810382526028815260200180618b5a6028913960400191505060405180910390fd5b614ec8600160055461521c90919063ffffffff16565b60058190555060008060019054906101000a900467ffffffffffffffff163385604051602001808467ffffffffffffffff1667ffffffffffffffff1678010000000000000000000000000000000000000000000000000281526008018373ffffffffffffffffffffffffffffffffffffffff1673ffffffffffffffffffffffffffffffffffffffff166c010000000000000000000000000281526014018273ffffffffffffffffffffffffffffffffffffffff1673ffffffffffffffffffffffffffffffffffffffff166c010000000000000000000000000281526014019350505050604051602081830303815290604052805190602001207801000000000000000000000000000000000000000000000000900490506000600360008367ffffffffffffffff1667ffffffffffffffff1681526020019081526020016000209050828160080181905550838160010160006101000a81548173ffffffffffffffffffffffffffffffffffffffff021916908373ffffffffffffffffffffffffffffffffffffffff1602179055506005548160090181905550848160000160016101000a81548173ffffffffffffffffffffffffffffffffffffffff021916908373ffffffffffffffffffffffffffffffffffffffff16021790555060008160000160006101000a81548160ff021916908360028111156150c557fe5b0217905550604080519081016040528083604051602001808267ffffffffffffffff1667ffffffffffffffff1678010000000000000000000000000000000000000000000000000281526008019150506040516020818303038152906040528051906020012081526020014281525060066000600554815260200190815260200160002060008201518160000155602082015181600101559050508373ffffffffffffffffffffffffffffffffffffffff168573ffffffffffffffffffffffffffffffffffffffff168367ffffffffffffffff167f68d22e85b0df39249291acbe65dba95feb05284fca981b8faf168e50fce70af76005546040518082815260200191505060405180910390a46001600060018282829054906101000a900467ffffffffffffffff160192506101000a81548167ffffffffffffffff021916908367ffffffffffffffff1602179055505050505050565b600080828401905083811015151561523357600080fd5b8091505092915050565b6000600360008667ffffffffffffffff1667ffffffffffffffff168152602001908152602001600020905060c0604051908101604052808573ffffffffffffffffffffffffffffffffffffffff1681526020013373ffffffffffffffffffffffffffffffffffffffff168152602001428152602001348152602001848152602001838152508160020160008201518160000160006101000a81548173ffffffffffffffffffffffffffffffffffffffff021916908373ffffffffffffffffffffffffffffffffffffffff16021790555060208201518160010160006101000a81548173ffffffffffffffffffffffffffffffffffffffff021916908373ffffffffffffffffffffffffffffffffffffffff16021790555060408201518160020155606082015181600301556080820151816004015560a0820151816005015590505060018160000160006101000a81548160ff021916908360028111156153a057fe5b02179055503373ffffffffffffffffffffffffffffffffffffffff168567ffffffffffffffff167fbaf912dedc1b0ee4647f945b0432e694bce1aa2c4e21052d977687641587495660405160405180910390a35050505050565b6000806154078484615436565b90507fffffffffffffffffffffffffffffffffffffffffffffffffffffffffffffffff81141591505092915050565b600080600090505b83805490508110156154875782848281548110151561545957fe5b906000526020600020906004020160020154141561547a57809150506154ac565b808060010191505061543e565b507fffffffffffffffffffffffffffffffffffffffffffffffffffffffffffffffff90505b92915050565b6154ba618905565b6154c58483876164a6565b905061554583600260008a67ffffffffffffffff1667ffffffffffffffff168152602001908152602001600020888154811015156154ff57fe5b906000526020600020906004020160000160009054906101000a900473ffffffffffffffffffffffffffffffffffffffff16836040015161723d9092919063ffffffff16565b15156155b9576040517f08c379a00000000000000000000000000000000000000000000000000000000081526004018080602001828103825260118152602001807f496e76616c6964207369676e617475726500000000000000000000000000000081525060200191505060405180910390fd5b8667ffffffffffffffff16816000015167ffffffffffffffff16141515615648576040517f08c379a000000000000000000000000000000000000000000000000000000000815260040180806020018281038252601e8152602001807f5478206973207265666572656e63696e6720616e6f7468657220736c6f74000081525060200191505060405180910390fd5b600260008867ffffffffffffffff1667ffffffffffffffff1681526020019081526020016000208681548110151561567c57fe5b906000526020600020906004020160030154851115156156e7576040517f08c379a0000000000000000000000000000000000000000000000000000000008152600401808060200182810382526026815260200180618f8c6026913960400191505060405180910390fd5b600360008867ffffffffffffffff1667ffffffffffffffff16815260200190815260200160002060020160050154851115151561576f576040517f08c379a0000000000000000000000000000000000000000000000000000000008152600401808060200182810382526027815260200180618c4b6027913960400191505060405180910390fd5b50505050505050565b6157d567016345785d8a0000600160008573ffffffffffffffffffffffffffffffffffffffff1673ffffffffffffffffffffffffffffffffffffffff1681526020019081526020016000206000015461728090919063ffffffff16565b600160008473ffffffffffffffffffffffffffffffffffffffff1673ffffffffffffffffffffffffffffffffffffffff1681526020019081526020016000206000018190555061587867016345785d8a0000600160008473ffffffffffffffffffffffffffffffffffffffff1673ffffffffffffffffffffffffffffffffffffffff1681526020019081526020016000206001015461521c90919063ffffffff16565b600160008373ffffffffffffffffffffffffffffffffffffffff1673ffffffffffffffffffffffffffffffffffffffff168152602001908152602001600020600101819055508073ffffffffffffffffffffffffffffffffffffffff168273ffffffffffffffffffffffffffffffffffffffff167fbd6bf2f753dc1a7dee94a7abd7645adc6c228c2af17fd72d9104674cc5d2127367016345785d8a00006040518082815260200191505060405180910390a35050565b60008061593c8484615436565b90507fffffffffffffffffffffffffffffffffffffffffffffffffffffffffffffffff811415615970576000915050615bce565b61597861884a565b84600186805490500381548110151561598d57fe5b9060005260206000209060040201608060405190810160405290816000820160009054906101000a900473ffffffffffffffffffffffffffffffffffffffff1673ffffffffffffffffffffffffffffffffffffffff1673ffffffffffffffffffffffffffffffffffffffff1681526020016001820160009054906101000a900473ffffffffffffffffffffffffffffffffffffffff1673ffffffffffffffffffffffffffffffffffffffff1673ffffffffffffffffffffffffffffffffffffffff168152602001600282015481526020016003820154815250509050808583815481101515615a7857fe5b906000526020600020906004020160008201518160000160006101000a81548173ffffffffffffffffffffffffffffffffffffffff021916908373ffffffffffffffffffffffffffffffffffffffff16021790555060208201518160010160006101000a81548173ffffffffffffffffffffffffffffffffffffffff021916908373ffffffffffffffffffffffffffffffffffffffff1602179055506040820151816002015560608201518160030155905050846001868054905003815481101515615b4057fe5b9060005260206000209060040201600080820160006101000a81549073ffffffffffffffffffffffffffffffffffffffff02191690556001820160006101000a81549073ffffffffffffffffffffffffffffffffffffffff021916905560028201600090556003820160009055505060018581818054905003915081615bc69190618951565b506001925050505b92915050565b80600360008767ffffffffffffffff1667ffffffffffffffff16815260200190815260200160002060020160050154101515615c78576040517f08c379a00000000000000000000000000000000000000000000000000000000081526004018080602001828103825260208152602001807f54782073686f756c64206265206166746572207468652065786974426c6f636b81525060200191505060405180910390fd5b615c80618905565b615c8b8585846164a6565b9050615cf383600360008967ffffffffffffffff1667ffffffffffffffff16815260200190815260200160002060020160010160009054906101000a900473ffffffffffffffffffffffffffffffffffffffff16836040015161723d9092919063ffffffff16565b1515615d67576040517f08c379a00000000000000000000000000000000000000000000000000000000081526004018080602001828103825260118152602001807f496e76616c6964207369676e617475726500000000000000000000000000000081525060200191505060405180910390fd5b8567ffffffffffffffff16816000015167ffffffffffffffff16141515615df6576040517f08c379a000000000000000000000000000000000000000000000000000000000815260040180806020018281038252601e8152602001807f5478206973207265666572656e63696e6720616e6f7468657220736c6f74000081525060200191505060405180910390fd5b600360008767ffffffffffffffff1667ffffffffffffffff168152602001908152602001600020600201600501548160600151141515615e9e576040517f08c379a00000000000000000000000000000000000000000000000000000000081526004018080602001828103825260128152602001807f4e6f74206120646972656374207370656e64000000000000000000000000000081525060200191505060405180910390fd5b505050505050565b615efd600360008367ffffffffffffffff1667ffffffffffffffff16815260200190815260200160002060020160010160009054906101000a900473ffffffffffffffffffffffffffffffffffffffff1633615778565b6000600360008367ffffffffffffffff1667ffffffffffffffff16815260200190815260200160002060000160006101000a81548160ff02191690836002811115615f4457fe5b0217905550600360008267ffffffffffffffff1667ffffffffffffffff168152602001908152602001600020600201600080820160006101000a81549073ffffffffffffffffffffffffffffffffffffffff02191690556001820160006101000a81549073ffffffffffffffffffffffffffffffffffffffff021916905560028201600090556003820160009055600482016000905560058201600090555050600360008267ffffffffffffffff1667ffffffffffffffff16815260200190815260200160002060000160019054906101000a900473ffffffffffffffffffffffffffffffffffffffff1673ffffffffffffffffffffffffffffffffffffffff168167ffffffffffffffff167f35cc9c4d0d9a2ce748d131382582af17dbf1f0d72167ea7906ea3f18597b31a460405160405180910390a350565b600080600260008467ffffffffffffffff1667ffffffffffffffff168152602001908152602001600020805490509050600080925060008090505b828110156162ff576000600102600260008767ffffffffffffffff1667ffffffffffffffff168152602001908152602001600020828154811015156160fb57fe5b9060005260206000209060040201600201541415156162f2578115156161dc576161d7600360008767ffffffffffffffff1667ffffffffffffffff16815260200190815260200160002060020160010160009054906101000a900473ffffffffffffffffffffffffffffffffffffffff16600260008867ffffffffffffffff1667ffffffffffffffff168152602001908152602001600020838154811015156161a057fe5b906000526020600020906004020160010160009054906101000a900473ffffffffffffffffffffffffffffffffffffffff16615778565b600191505b61624a600260008767ffffffffffffffff1667ffffffffffffffff1681526020019081526020016000208281548110151561621357fe5b906000526020600020906004020160010160009054906101000a900473ffffffffffffffffffffffffffffffffffffffff16616307565b600260008667ffffffffffffffff1667ffffffffffffffff1681526020019081526020016000208181548110151561627e57fe5b9060005260206000209060040201600080820160006101000a81549073ffffffffffffffffffffffffffffffffffffffff02191690556001820160006101000a81549073ffffffffffffffffffffffffffffffffffffffff0219169055600282016000905560038201600090555050600193505b80806001019150506160ba565b505050919050565b61636467016345785d8a0000600160008473ffffffffffffffffffffffffffffffffffffffff1673ffffffffffffffffffffffffffffffffffffffff1681526020019081526020016000206000015461728090919063ffffffff16565b600160008373ffffffffffffffffffffffffffffffffffffffff1673ffffffffffffffffffffffffffffffffffffffff1681526020019081526020016000206000018190555061640767016345785d8a0000600160008473ffffffffffffffffffffffffffffffffffffffff1673ffffffffffffffffffffffffffffffffffffffff1681526020019081526020016000206001015461521c90919063ffffffff16565b600160008373ffffffffffffffffffffffffffffffffffffffff1673ffffffffffffffffffffffffffffffffffffffff168152602001908152602001600020600101819055508073ffffffffffffffffffffffffffffffffffffffff167f5406cdbb33189b887da81a90c7ff307f3af1854b2504d0bde438b8bb5b7d8b5267016345785d8a00006040518082815260200191505060405180910390a250565b6164ae618905565b60606164b9856172a2565b90506164c4816172bc565b15616504576164d1618905565b6164e486836172ca90919063ffffffff16565b90506164fa81600001518260400151868861748d565b8092505050616991565b61650d816175a6565b156169405761651a6187b8565b600760008581526020019081526020016000206040805190810160405290816000820154815260200160018201548152505090506000600102816000015114151561685157606061656a836175b4565b90506165d581600181518110151561657e57fe5b9060200190602002015160a0015182600181518110151561659b57fe5b90602001906020020151604001518360018151811015156165b857fe5b9060200190602002015160e0015161723d9092919063ffffffff16565b151561662c576040517f08c379a0000000000000000000000000000000000000000000000000000000008152600401808060200182810382526022815260200180618ca96022913960400191505060405180910390fd5b6060616637876172a2565b905060048151141515616695576040517f08c379a000000000000000000000000000000000000000000000000000000000815260040180806020018281038252602c815260200180618b2e602c913960400191505060405180910390fd5b6166f98260008151811015156166a757fe5b90602001906020020151600001518360008151811015156166c457fe5b9060200190602002015160e00151886166f48560008151811015156166e557fe5b90602001906020020151617c0d565b61748d565b61675d82600181518110151561670b57fe5b906020019060200201516000015183600181518110151561672857fe5b9060200190602002015160e001518861675885600181518110151561674957fe5b90602001906020020151617c0d565b61748d565b6167c182600081518110151561676f57fe5b906020019060200201516000015183600081518110151561678c57fe5b9060200190602002015160800151886167bc8560028151811015156167ad57fe5b90602001906020020151617c0d565b617c9b565b6168258260018151811015156167d357fe5b90602001906020020151600001518360018151811015156167f057fe5b90602001906020020151608001518861682085600381518110151561681157fe5b90602001906020020151617c0d565b617c9b565b61684682600081518110151561683757fe5b90602001906020020151617d88565b945050505050616991565b6168596187b8565b60066000868152602001908152602001600020604080519081016040529081600082015481526020016001820154815250509050620151808160200151420311156168ef576040517f08c379a0000000000000000000000000000000000000000000000000000000008152600401808060200182810382526039815260200180618e4b6039913960400191505060405180910390fd5b6040517f08c379a000000000000000000000000000000000000000000000000000000000815260040180806020018281038252604f815260200180618f13604f913960600191505060405180910390fd5b6040517f08c379a00000000000000000000000000000000000000000000000000000000081526004018080602001828103825260408152602001806190156040913960400191505060405180910390fd5b9392505050565b600360008567ffffffffffffffff1667ffffffffffffffff168152602001908152602001600020600201600401548111151515616a20576040517f08c379a000000000000000000000000000000000000000000000000000000000815260040180806020018281038252602b815260200180618ba6602b913960400191505060405180910390fd5b616a28618905565b616a338484846164a6565b90508467ffffffffffffffff16816000015167ffffffffffffffff16141515616ac4576040517f08c379a000000000000000000000000000000000000000000000000000000000815260040180806020018281038252601e8152602001807f5478206973207265666572656e63696e6720616e6f7468657220736c6f74000081525060200191505060405180910390fd5b5050505050565b60006060616ae0616adb84617e1d565b617e4b565b9050616aeb816172bc565b15616b1857616b11816002815181101515616b0257fe5b90602001906020020151617f28565b9150616ba0565b616b21816175a6565b15616b4e57616b47816003815181101515616b3857fe5b90602001906020020151617f28565b9150616b9f565b6040517f08c379a000000000000000000000000000000000000000000000000000000000815260040180806020018281038252603a815260200180618e84603a913960400191505060405180910390fd5b5b50919050565b60006060616bbb616bb684617e1d565b617e4b565b90506000616be0826000815181101515616bd157fe5b90602001906020020151617f4d565b90506000616c05836001815181101515616bf657fe5b90602001906020020151617f4d565b90506000811415616c6d5781604051602001808267ffffffffffffffff1667ffffffffffffffff167801000000000000000000000000000000000000000000000000028152600801915050604051602081830303815290604052805190602001209350616c78565b848051906020012093505b505050919050565b62049d40600360008667ffffffffffffffff1667ffffffffffffffff16815260200190815260200160002060020160020154014211151515616d2a576040517f08c379a00000000000000000000000000000000000000000000000000000000081526004018080602001828103825260198152602001807f4368616c6c656e67652077696e646f7773206973206f7665720000000000000081525060200191505060405180910390fd5b616d6381600260008767ffffffffffffffff1667ffffffffffffffff1681526020019081526020016000206153fa90919063ffffffff16565b151515616dbb576040517f08c379a0000000000000000000000000000000000000000000000000000000008152600401808060200182810382526026815260200180618ebe6026913960400191505060405180910390fd5b600260008567ffffffffffffffff1667ffffffffffffffff1681526020019081526020016000206080604051908101604052808573ffffffffffffffffffffffffffffffffffffffff1681526020013373ffffffffffffffffffffffffffffffffffffffff168152602001838152602001848152509080600181540180825580915050906001820390600052602060002090600402016000909192909190915060008201518160000160006101000a81548173ffffffffffffffffffffffffffffffffffffffff021916908373ffffffffffffffffffffffffffffffffffffffff16021790555060208201518160010160006101000a81548173ffffffffffffffffffffffffffffffffffffffff021916908373ffffffffffffffffffffffffffffffffffffffff16021790555060408201518160020155606082015181600301555050508273ffffffffffffffffffffffffffffffffffffffff168467ffffffffffffffff167f6c66d916f7de00b00553c0be460c2844c555cb0d8d37fffbfb8c115f8ba27f418385604051808381526020018281526020019250505060405180910390a350505050565b6000600454826001600281101515616f7b57fe5b6020020151811515616f8957fe5b06141515616fe2576040517f08c379a0000000000000000000000000000000000000000000000000000000008152600401808060200182810382526036815260200180618e156036913960400191505060405180910390fd5b616ff0868686868686617fc0565b505050505050565b80600360008767ffffffffffffffff1667ffffffffffffffff16815260200190815260200160002060020160050154118015617060575080600360008767ffffffffffffffff1667ffffffffffffffff16815260200190815260200160002060020160040154105b15156170b7576040517f08c379a00000000000000000000000000000000000000000000000000000000081526004018080602001828103825260268152602001806190ab6026913960400191505060405180910390fd5b6170bf618905565b6170ca8585846164a6565b905061713283600360008967ffffffffffffffff1667ffffffffffffffff16815260200190815260200160002060020160000160009054906101000a900473ffffffffffffffffffffffffffffffffffffffff16836040015161723d9092919063ffffffff16565b15156171a6576040517f08c379a00000000000000000000000000000000000000000000000000000000081526004018080602001828103825260118152602001807f496e76616c6964207369676e617475726500000000000000000000000000000081525060200191505060405180910390fd5b8567ffffffffffffffff16816000015167ffffffffffffffff16141515617235576040517f08c379a000000000000000000000000000000000000000000000000000000000815260040180806020018281038252601e8152602001807f5478206973207265666572656e63696e6720616e6f7468657220736c6f74000081525060200191505060405180910390fd5b505050505050565b600061724984846181a1565b73ffffffffffffffffffffffffffffffffffffffff168273ffffffffffffffffffffffffffffffffffffffff161490509392505050565b600082821115151561729157600080fd5b600082840390508091505092915050565b60606172b56172b083617e1d565b617e4b565b9050919050565b600060038251149050919050565b6172d2618905565b6172db836172bc565b1515617332576040517f08c379a00000000000000000000000000000000000000000000000000000000081526004018080602001828103825260388152602001806190d16038913960400191505060405180910390fd5b61733a618905565b61735b84600081518110151561734c57fe5b90602001906020020151617f4d565b816000019067ffffffffffffffff16908167ffffffffffffffff168152505061739b84600181518110151561738c57fe5b90602001906020020151617f4d565b8160600181815250506173c58460028151811015156173b657fe5b90602001906020020151617f28565b816020019073ffffffffffffffffffffffffffffffffffffffff16908173ffffffffffffffffffffffffffffffffffffffff1681525050600081606001511415617471578060000151604051602001808267ffffffffffffffff1667ffffffffffffffff16780100000000000000000000000000000000000000000000000002815260080191505060405160208183030381529060405280519060200120816040018181525050617483565b82805190602001208160400181815250505b8091505092915050565b6000600660008481526020019081526020016000206000015490506000600454848115156174b757fe5b0614151561751e578084141515617519576040517f08c379a0000000000000000000000000000000000000000000000000000000008152600401808060200182810382526028815260200180618d696028913960400191505060405180910390fd5b61759f565b61752a848287856148c3565b151561759e576040517f08c379a00000000000000000000000000000000000000000000000000000000081526004018080602001828103825260208152602001807f5478206e6f7420696e636c7564656420696e20636c61696d656420626c6f636b81525060200191505060405180910390fd5b5b5050505050565b600060098251149050919050565b60606175bf826175a6565b1515617616576040517f08c379a0000000000000000000000000000000000000000000000000000000008152600401808060200182810382526041815260200180618dd46041913960600191505060405180910390fd5b6060600260405190808252806020026020018201604052801561765357816020015b617640618983565b8152602001906001900390816176385790505b50905061767783600081518110151561766857fe5b90602001906020020151617f4d565b81600081518110151561768657fe5b906020019060200201516000019067ffffffffffffffff16908167ffffffffffffffff16815250506176cf8360018151811015156176c057fe5b90602001906020020151617f4d565b8160008151811015156176de57fe5b90602001906020020151602001818152505061771183600281518110151561770257fe5b90602001906020020151617f4d565b60010281600081518110151561772357fe5b90602001906020020151608001818152505061775683600381518110151561774757fe5b90602001906020020151617f28565b81600081518110151561776557fe5b906020019060200201516060019073ffffffffffffffffffffffffffffffffffffffff16908173ffffffffffffffffffffffffffffffffffffffff16815250506177c68360048151811015156177b757fe5b90602001906020020151617f4d565b8160008151811015156177d557fe5b90602001906020020151610100019067ffffffffffffffff16908167ffffffffffffffff168152505061781f83600581518110151561781057fe5b90602001906020020151617f4d565b81600181518110151561782e57fe5b90602001906020020151602001818152505061786183600681518110151561785257fe5b90602001906020020151617f4d565b60010281600181518110151561787357fe5b9060200190602002015160800181815250506178a683600781518110151561789757fe5b90602001906020020151617f28565b8160018151811015156178b557fe5b906020019060200201516060019073ffffffffffffffffffffffffffffffffffffffff16908173ffffffffffffffffffffffffffffffffffffffff168152505061791683600881518110151561790757fe5b90602001906020020151617c0d565b81600181518110151561792557fe5b9060200190602002015160a0018190525080600181518110151561794557fe5b906020019060200201516060015181600081518110151561796257fe5b906020019060200201516040019073ffffffffffffffffffffffffffffffffffffffff16908173ffffffffffffffffffffffffffffffffffffffff16815250508060008151811015156179b157fe5b906020019060200201516080015160405160200180828152602001915050604051602081830303815290604052805190602001208160008151811015156179f457fe5b9060200190602002015160c0018181525050617a27816000815181101515617a1857fe5b90602001906020020151618456565b816000815181101515617a3657fe5b9060200190602002015160e0018181525050806000815181101515617a5757fe5b906020019060200201516101000151816001815181101515617a7557fe5b906020019060200201516000019067ffffffffffffffff16908167ffffffffffffffff1681525050806000815181101515617aac57fe5b9060200190602002015160000151816001815181101515617ac957fe5b90602001906020020151610100019067ffffffffffffffff16908167ffffffffffffffff1681525050806000815181101515617b0157fe5b9060200190602002015160600151816001815181101515617b1e57fe5b906020019060200201516040019073ffffffffffffffffffffffffffffffffffffffff16908173ffffffffffffffffffffffffffffffffffffffff1681525050806001815181101515617b6d57fe5b90602001906020020151608001516040516020018082815260200191505060405160208183030381529060405280519060200120816001815181101515617bb057fe5b9060200190602002015160c0018181525050617be3816001815181101515617bd457fe5b90602001906020020151618456565b816001815181101515617bf257fe5b9060200190602002015160e001818152505080915050919050565b606060008260000151111515617c2257600080fd5b6000617c318360200151618554565b905060008184600001510390506060816040519080825280601f01601f191660200182016040528015617c735781602001600182028038833980820191505090505b5090506000816020019050617c8f8487602001510182856185dd565b81945050505050919050565b600060076000848152602001908152602001600020600001549050600060045484811515617cc557fe5b06141515617d1e576040517f08c379a0000000000000000000000000000000000000000000000000000000008152600401808060200182810382526035815260200180618d076035913960400191505060405180910390fd5b617d2a848287856148c3565b1515617d81576040517f08c379a0000000000000000000000000000000000000000000000000000000008152600401808060200182810382526027815260200180618fb26027913960400191505060405180910390fd5b5050505050565b617d90618905565b617d98618905565b8260000151816000019067ffffffffffffffff16908167ffffffffffffffff16815250508260600151816020019073ffffffffffffffffffffffffffffffffffffffff16908173ffffffffffffffffffffffffffffffffffffffff16815250508260e00151816040018181525050826020015181606001818152505080915050919050565b617e25618a19565b600060208301905060408051908101604052808451815260200182815250915050919050565b6060617e5682618646565b1515617e6157600080fd5b6000617e6c83618694565b905080604051908082528060200260200182016040528015617ea857816020015b617e95618a33565b815260200190600190039081617e8d5790505b5091506000617eba8460200151618554565b8460200151019050600080600090505b83811015617f1f57617edb83618705565b91506040805190810160405280838152602001848152508582815181101515617f0057fe5b9060200190602002018190525081830192508080600101915050617eca565b50505050919050565b600060158260000151141515617f3d57600080fd5b617f4682617f4d565b9050919050565b6000808260000151118015617f6757506021826000015111155b1515617f7257600080fd5b6000617f818360200151618554565b90506000818460000151039050600080838660200151019050805191506020831015617fb457826020036101000a820491505b81945050505050919050565b806001600281101515617fcf57fe5b6020020151816000600281101515617fe357fe5b6020020151101515618040576040517f08c379a000000000000000000000000000000000000000000000000000000000815260040180806020018281038252603c815260200180618ccb603c913960400191505060405180910390fd5b618048618905565b618066878684600060028110151561805c57fe5b60200201516164a6565b9050618070618905565b61808e878685600160028110151561808457fe5b60200201516164a6565b9050816000015167ffffffffffffffff16816000015167ffffffffffffffff16141515618106576040517f08c379a0000000000000000000000000000000000000000000000000000000008152600401808060200182810382526037815260200180618c726037913960400191505060405180910390fd5b618123848360200151836040015161723d9092919063ffffffff16565b1515618197576040517f08c379a00000000000000000000000000000000000000000000000000000000081526004018080602001828103825260118152602001807f496e76616c6964207369676e617475726500000000000000000000000000000081525060200191505060405180910390fd5b5050505050505050565b60006041825114806181b4575060428251145b1515618228576040517f08c379a000000000000000000000000000000000000000000000000000000000815260040180806020018281038252601b8152602001807f5369676e6174757265206c656e67687420697320696e76616c6964000000000081525060200191505060405180910390fd5b6000808490506000806000806001905060418851141561824f5760009050600095506182dd565b87600081518110151561825e57fe5b9060200101517f010000000000000000000000000000000000000000000000000000000000000090047f0100000000000000000000000000000000000000000000000000000000000000027f0100000000000000000000000000000000000000000000000000000000000000900460ff1660028111156182da57fe5b95505b80602001880151925080604001880151915060ff816041018901511693506001600281111561830857fe5b86600281111561831457fe5b1415618370578460405160200180807f19457468657265756d205369676e6564204d6573736167653a0a333200000000815250601c018281526020019150506040516020818303038152906040528051906020012094506183e1565b60028081111561837c57fe5b86600281111561838857fe5b14156183e0578460405160200180807f19457468657265756d205369676e6564204d6573736167653a0a200000000000815250601b018281526020019150506040516020818303038152906040528051906020012094505b5b60018585858560405160008152602001604052604051808581526020018460ff1660ff1681526020018381526020018281526020019450505050506020604051602081039080840390855afa15801561843e573d6000803e3d6000fd5b50505060206040510351965050505050505092915050565b6000816000015182602001518360c001518460600151856101000151604051602001808667ffffffffffffffff1667ffffffffffffffff1678010000000000000000000000000000000000000000000000000281526008018581526020018481526020018373ffffffffffffffffffffffffffffffffffffffff1673ffffffffffffffffffffffffffffffffffffffff166c010000000000000000000000000281526014018267ffffffffffffffff1667ffffffffffffffff16780100000000000000000000000000000000000000000000000002815260080195505050505050604051602081830303815290604052805190602001209050919050565b600080825160001a9050608060ff168110156185745760009150506185d8565b60b860ff16811080618599575060c060ff168110158015618598575060f860ff1681105b5b156185a85760019150506185d8565b60c060ff168110156185c85760018060b80360ff168203019150506185d8565b60018060f80360ff168203019150505b919050565b60008114156185eb57618641565b5b602060ff168110151561861d5782518252602060ff1683019250602060ff1682019150602060ff16810390506185ec565b6000600182602060ff16036101000a03905080198451168184511681811785525050505b505050565b6000808260000151141561865d576000905061868f565b60008083602001519050805160001a915060c060ff168260ff1610156186885760009250505061868f565b6001925050505b919050565b600080826000015114156186ab5760009050618700565b600080905060006186bf8460200151618554565b84602001510190506000846000015185602001510190505b808210156186f9576186e882618705565b8201915082806001019350506186d7565b8293505050505b919050565b600080825160001a9050608060ff168110156187255760019150506187b3565b60b860ff16811015618743576001608060ff168203019150506187b3565b60c060ff168110156187735760b78103600184019350806020036101000a845104600182018101935050506187b1565b60f860ff1681101561879157600160c060ff168203019150506187b3565b60f78103600184019350806020036101000a845104600182018101935050505b505b919050565b604080519081016040528060008019168152602001600081525090565b61016060405190810160405280600060028111156187ef57fe5b8152602001600073ffffffffffffffffffffffffffffffffffffffff168152602001600073ffffffffffffffffffffffffffffffffffffffff168152602001618836618a4d565b815260200160008152602001600081525090565b608060405190810160405280600073ffffffffffffffffffffffffffffffffffffffff168152602001600073ffffffffffffffffffffffffffffffffffffffff16815260200160008019168152602001600081525090565b60c060405190810160405280600073ffffffffffffffffffffffffffffffffffffffff168152602001600073ffffffffffffffffffffffffffffffffffffffff168152602001600081526020016000815260200160008152602001600081525090565b608060405190810160405280600067ffffffffffffffff168152602001600073ffffffffffffffffffffffffffffffffffffffff16815260200160008019168152602001600081525090565b81548183558181111561897e5760040281600402836000526020600020918201910161897d9190618ab0565b5b505050565b61012060405190810160405280600067ffffffffffffffff16815260200160008152602001600073ffffffffffffffffffffffffffffffffffffffff168152602001600073ffffffffffffffffffffffffffffffffffffffff16815260200160008019168152602001606081526020016000801916815260200160008019168152602001600067ffffffffffffffff1681525090565b604080519081016040528060008152602001600081525090565b604080519081016040528060008152602001600081525090565b60c060405190810160405280600073ffffffffffffffffffffffffffffffffffffffff168152602001600073ffffffffffffffffffffffffffffffffffffffff168152602001600081526020016000815260200160008152602001600081525090565b618b2a91905b80821115618b2657600080820160006101000a81549073ffffffffffffffffffffffffffffffffffffffff02191690556001820160006101000a81549073ffffffffffffffffffffffffffffffffffffffff02191690556002820160009055600382016000905550600401618ab6565b5090565b9056fe342070726f6f66206d757374206265207375626d697474656420666f7220616e2061746f6d69632073776170436f6e7472616374206973206e6f7420616363657074696e67206d6f7265206465706f7369747321526573706f6e64696e6720746f206e6f6e206578697374696e67206368616c6c656e676554782073686f756c64206265206265666f7265207468652065786974277320706172656e7420626c6f636b546f6b656e20776173206e6f74207472616e73666572656420636f72726563746c7954696d6520746f2072657665616c207365637265747320697320616c7265616479206f7665725472616e73616374696f6e206d757374206265206163636f6d70616e6965642062792074686520424f4e4420414d4f554e5443616e6e6f7420726573706f6e6420776974682061207478206166746572207468652065786974536c6f74206f6e207468652045786974696e67547820646f6573206e6f74206d617463682074686174206f6e2074686520707265765478496e76616c6964207369676e6174757265204220696e2061746f6d69632073776170426c6f636b206f6e2074686520666972737420696e646578206d75737420626520746865206561726c696572206f6620746865203220626c6f636b73547279696e6720746f2076616c696461746520616e2061746f6d6963207377617020666f722061206465706f73697420626c6f636b436f6e74726163742061646472657373206973206e6f7420617070726f76656420666f72206465706f736974735472616e73616374696f6e206861736820646f6573206e6f74206d6174636820726f6f74486173684120626c6f636b206d757374206265207375626d697474656420666972737420696e206f7264657220746f2072657665616c20746865207377617020736563726574735472616e73616374696f6e20627974657320646f206e6f7420636f72726573706f6e6420746f20616e2061746f6d69632073776170207472616e73616374696f6e506c6561736520646f20612073746172744465706f73697445787420666f72206465706f7369746564207472616e73616374696f6e7353656372657420776173206e657665722072657665616c656420666f72207468697320626c6f636b2c207377617020697320696e76616c6964436f756c64206e6f742064657465726d696e65207472616e73616374696f6e207479706520746f20726574726965766520746865206f776e65725472616e73616374696f6e207573656420666f72206368616c6c656e676520616c72656164794f6e6c7920636f696e2773206f776e657220697320616c6c6f77656420746f2063616e63656c20746865206578697453656372657420686173206e6f7420796574206265656e2072657665616c65642c207468657265206973207374696c6c2074696d6520746f20636f6d6d697420746865207472616e73616374696f6e53656e64657220646f6573206e6f74206d617463682065786974696e6754784279746573206f776e6572426c6f636b4e756d626572206d75737420626520616674657220746865206368616c656e6765547820736563726574206e6f7420696e636c7564656420696e20636c61696d656420626c6f636b596f75206d757374207761697420746865206d6174757269747920706572696f64206265666f72652066696e616c697a696e672074686520657869747478427974657320646f206e6f7420636f72726573706f6e64206e65697468657220746f206261736963205458206e6f7220746f2041746f6d696320737761704120626c6f636b206c657373207468616e2063757272656e74426c6f636b2063616e6e6f74206265207375626d69747465645468697320636f6e747261637420646f6573206e6f742072656365697665206d6f6e657954782073686f756c64206265206265747765656e207468652065786974277320626c6f636b735472616e73616374696f6e20627974657320646f206e6f7420636f72726573706f6e6420746f206261736963207472616e73616374696f6e53656e64657220646f6573206e6f74206d61746368206465706f736974206f776e6572a165627a7a723058200ec13fb39faa495cf4b566edd3e92ff52b0bde9198056890b4e3a5bc3ce857e40029608060405234801561001057600080fd5b507f290decd9548b62a8d60345a988386fc84ba6bc95484008f6362f93160ef3e56360010260008060418110151561004457fe5b018190555061006460016040610069640100000000026401000000009004565b610102565b60008290505b8160ff168160ff161115156100fd5760006001820360ff1660418110151561009357fe5b015460006001830360ff166041811015156100aa57fe5b015460405160200180838152602001828152602001925050506040516020818303038152906040528051906020012060008260ff166041811015156100eb57fe5b0181905550808060010191505061006f565b505050565b6104fd806101116000396000f3fe608060405234801561001057600080fd5b506004361061005e576000357c01000000000000000000000000000000000000000000000000000000009004806348419ad814610063578063509a7e54146100a5578063f586df6514610192575b600080fd5b61008f6004803603602081101561007957600080fd5b810190808035906020019092919050505061028d565b6040518082815260200191505060405180910390f35b61017c600480360360608110156100bb57600080fd5b8101908080359060200190929190803567ffffffffffffffff169060200190929190803590602001906401000000008111156100f657600080fd5b82018360208201111561010857600080fd5b8035906020019184600183028401116401000000008311171561012a57600080fd5b91908080601f016020809104026020016040519081016040528093929190818152602001838380828437600081840152601f19601f8201169050808301925050505050505091929192905050506102a7565b6040518082815260200191505060405180910390f35b610273600480360360808110156101a857600080fd5b810190808035906020019092919080359060200190929190803567ffffffffffffffff169060200190929190803590602001906401000000008111156101ed57600080fd5b8201836020820111156101ff57600080fd5b8035906020019184600183028401116401000000008311171561022157600080fd5b91908080601f016020809104026020016040519081016040528093929190818152602001838380828437600081840152601f19601f8201169050808301925050505050505091929192905050506104b3565b604051808215151515815260200191505060405180910390f35b60008160418110151561029c57fe5b016000915090505481565b600080602060088451038115156102ba57fe5b061480156102cb5750610808825111155b151561033f576040517f08c379a00000000000000000000000000000000000000000000000000000000081526004018080602001828103825260178152602001807f50726f6f66206c656e67746820697320696e76616c696400000000000000000081525060200191505060405180910390fd5b60008085905060006008905060008087905060186101000a602088015104915060008090505b604060ff168110156104a357600060028467ffffffffffffffff1681151561038957fe5b0667ffffffffffffffff1614156103b2576000816041811015156103a957fe5b015495506103d3565b6020840193508361ffff168851101515156103cc57600080fd5b8388015195505b600060028367ffffffffffffffff168115156103eb57fe5b0667ffffffffffffffff1614156104325784866040516020018083815260200182815260200192505050604051602081830303815290604052805190602001209450610464565b858560405160200180838152602001828152602001925050506040516020818303038152906040528051906020012094505b60028367ffffffffffffffff1681151561047a57fe5b04925060028267ffffffffffffffff1681151561049357fe5b0491508080600101915050610365565b5083955050505050509392505050565b6000806104c18685856102a7565b905084811491505094935050505056fea165627a7a723058201615d5dc6e6e9a7f2dd8c7b4967d359c1e95d00b05d4cf0145883ed27d2c136b0029",
  "source": "// Copyright Loom Network 2018 - All rights reserved, Dual licensed on GPLV3\n// Learn more about Loom DappChains at https://loomx.io\n// All derivitive works of this code must incluse this copyright header on every file\n\npragma solidity ^0.5.2;\n\n\n// ERC721\nimport \"openzeppelin-solidity/contracts/token/ERC721/ERC721.sol\";\nimport \"openzeppelin-solidity/contracts/token/ERC721/IERC721Receiver.sol\";\n\n// Lib deps\nimport \"openzeppelin-solidity/contracts/math/SafeMath.sol\";\nimport \"../Libraries/Transaction/Transaction.sol\";\nimport \"../Libraries/ECVerify.sol\";\nimport \"../Libraries/ChallengeLib.sol\";\n\n// SMT and VMC\nimport \"./SparseMerkleTree.sol\";\nimport \"./ValidatorManagerContract.sol\";\n\n\ncontract RootChain is IERC721Receiver {\n\n    event Debug(address message);\n\n    /**\n     * Event for coin deposit logging.\n     * @notice The Deposit event indicates that a deposit block has been added\n     *         to the Plasma chain\n     * @param slot Plasma slot, a unique identifier, assigned to the deposit\n     * @param blockNumber The index of the block in which a deposit transaction\n     *                    is included\n     * @param from The address of the depositor\n     * @param contractAddress The address of the contract making the deposit\n     */\n    event Deposit(uint64 indexed slot, uint256 blockNumber,\n                  address indexed from, address indexed contractAddress);\n\n    /**\n     * Event for block submission logging\n     * @notice The event indicates the addition of a new Plasma block\n     * @param blockNumber The block number of the submitted block\n     * @param root The root hash of the Merkle tree containing all of a block's\n     *             transactions.\n     * @param timestamp The time when a block was added to the Plasma chain\n     */\n    event SubmittedBlock(uint256 blockNumber, bytes32 root, uint256 timestamp);\n\n    /**\n     * Event for secret-revealing block submission logging\n     * @notice The event indicates the addition of a new Secret Revealing block\n     * @param blockNumber The block number of the submitted block\n     * @param root The root hash of the Merkle tree containing all of a block's\n     *             secrets.\n     * @param timestamp The time when a block was added to the Plasma chain\n     */\n    event SubmittedSecretBlock(uint256 blockNumber, bytes32 root, uint256 timestamp);\n\n    /**\n     * Event for logging exit starts\n     * @param slot The slot of the coin being exited\n     * @param owner The user who claims to own the coin being exited\n     */\n    event StartedExit(uint64 indexed slot, address indexed owner);\n\n    /**\n     * Event for exit challenge logging\n     * @notice This event only fires if `challengeBefore` is called.\n     * @param slot The slot of the coin whose exit was challenged\n     * @param owner The current claiming owner of the exit\n     * @param txHash The hash of the tx used for the challenge\n     */\n    event ChallengedExit(uint64 indexed slot, address indexed owner, bytes32 txHash, uint256 challengingBlockNumber);\n\n    /**\n     * Event for exit response logging\n     * @notice This only logs responses to `challengeBefore`\n     * @param slot The slot of the coin whose challenge was responded to\n     */\n    event RespondedExitChallenge(uint64 indexed slot);\n\n    /**\n     * Event for logging when an exit was successfully challenged\n     * @param slot The slot of the coin being reset to NOT_EXITING\n     * @param owner The owner of the coin\n     */\n    event CoinReset(uint64 indexed slot, address indexed owner);\n\n    /**\n     * Event for exit finalization logging\n     * @param slot The slot of the coin whose exit has been finalized\n     * @param owner The owner of the coin whose exit has been finalized\n     */\n    event FinalizedExit(uint64 indexed slot, address owner);\n\n    /**\n     * Event to log the freeing of a bond\n     * @param from The address of the user whose bonds have been freed\n     * @param amount The bond amount which can now be withdrawn\n     */\n    event FreedBond(address indexed from, uint256 amount);\n\n    /**\n     * Event to log the slashing of a bond\n     * @param from The address of the user whose bonds have been slashed\n     * @param to The recipient of the slashed bonds\n     * @param amount The bound amount which has been forfeited\n     */\n    event SlashedBond(address indexed from, address indexed to, uint256 amount);\n\n    /**\n     * Event to log the withdrawal of a bond\n     * @param from The address of the user who withdrew bonds\n     * @param amount The bond amount which has been withdrawn\n     */\n    event WithdrewBonds(address indexed from, uint256 amount);\n\n    /**\n     * Event to log the withdrawal of a coin\n     * @param owner The address of the user who withdrew bonds\n     * @param slot the slot of the coin that was exited\n     * @param contractAddress The contract address where the coin is being withdrawn from\n              is same as `from` when withdrawing a ETH coin\n     * @param uid The uid of the coin being withdrawn if ERC721, else 0\n     */\n    event Withdrew(address indexed owner, uint64 indexed slot, address contractAddress, uint uid);\n\n    /**\n     * Event to pause deposits in the contract.\n     * Temporarily added while the contract is being battle tested\n     * @param status Boolean value of the contract's status\n     */\n    event Paused(bool status);\n\n    using SafeMath for uint256;\n    using Transaction for bytes;\n    using Transaction for RLPReader.RLPItem[];\n    using RLPReader for RLPReader.RLPItem;\n    using Transaction for Transaction.AtomicSwapTX;\n    using ECVerify for bytes32;\n    using ChallengeLib for ChallengeLib.Challenge[];\n\n    uint256 constant BOND_AMOUNT = 0.1 ether;\n\n    /* An exit can be finalized after it has matured,\n     * after T2 = T0 + MATURITY_PERIOD\n     * An exit can be challenged in the first window\n     * between T0 and T1 ( T1 = T0 + CHALLENGE_WINDOW)\n     * A challenge can be responded to in the second window\n     * between T1 and T2\n    */\n    uint256 constant MATURITY_PERIOD = 7 days;\n    uint256 constant CHALLENGE_WINDOW = 3 days + 12 hours;\n\n    /* A secret-revealing root hash can only be submitted during a period\n     * after T0 and before T0 + SECRET_REVEALING_PERIOD\n     * where T0 is the time the corresponding block was submitted\n    */\n    uint256 constant SECRET_REVEALING_PERIOD = 1 days;\n\n    bool paused;\n\n    /*\n     * Modifiers\n     */\n    modifier isValidator() {\n        require(vmc.checkValidator(msg.sender), \"Sender is not a Validator\");\n        _;\n    }\n\n    modifier isTokenApproved(address _address) {\n        require(vmc.allowedTokens(_address), \"Contract address is not approved for deposits\");\n        _;\n    }\n\n    modifier isBonded() {\n        require(msg.value == BOND_AMOUNT, \"Transaction must be accompanied by the BOND AMOUNT\");\n\n        // Save challenger's bond\n        balances[msg.sender].bonded = balances[msg.sender].bonded.add(msg.value);\n        _;\n    }\n\n    modifier isState(uint64 slot, State state) {\n        require(coins[slot].state == state, \"Wrong coin state\");\n        _;\n    }\n\n    struct Balance {\n        uint256 bonded;\n        uint256 withdrawable;\n    }\n\n    // Each exit can only be challenged by a single challenger at a time\n    struct Exit {\n        address prevOwner; // previous owner of coin\n        address owner;\n        uint256 createdAt;\n        uint256 bond;\n        uint256 prevBlock;\n        uint256 exitBlock;\n    }\n\n    enum State {\n        NOT_EXITING,\n        EXITING,\n        EXITED\n    }\n\n    struct Coin {\n        State state;\n        address owner; // who owns that nft\n        address contractAddress; // which contract does the coin belong to\n        Exit exit;\n        uint256 uid;\n        uint256 depositBlock;\n    }\n\n    uint64 public numCoins = 0;\n\n    mapping (address => Balance) public balances;\n    mapping (uint64 => ChallengeLib.Challenge[]) challenges;\n    mapping (uint64 => Coin) coins;\n\n    struct ChildBlock {\n        bytes32 root;\n        uint256 createdAt;\n    }\n\n    // child chain\n    uint256 public childBlockInterval = 1000;\n    uint256 public currentBlock = 0;\n    mapping (uint256 => ChildBlock) public childChain;\n    mapping (uint256 => ChildBlock) public secretRevealingChain;\n\n\n    ValidatorManagerContract vmc;\n    SparseMerkleTree smt;\n\n    constructor (ValidatorManagerContract _vmc) public {\n        vmc = _vmc;\n        smt = new SparseMerkleTree();\n    }\n\n\n    /// @dev called by a Validator to append a Plasma block to the Plasma chain\n    /// @param root The transaction root hash of the Plasma block being added\n    function submitBlock(uint256 blockNumber, bytes32 root) public isValidator {\n        // rounding to next whole `childBlockInterval`\n        require(blockNumber >= currentBlock, \"A block less than currentBlock cannot be submitted\");\n        currentBlock = blockNumber;\n\n        childChain[currentBlock] = ChildBlock({\n            root: root,\n            createdAt: block.timestamp\n        });\n\n        emit SubmittedBlock(currentBlock, root, block.timestamp);\n    }\n\n    /// @dev called by a Validator to append a Secret Revealing block to the Plasma chain\n    /// @param root The transaction root hash of the Secret Revealing block being added\n    function submitSecretBlock(uint256 blockNumber, bytes32 root) public isValidator {\n        // rounding to next whole `childBlockInterval`\n        ChildBlock memory childBlock = childChain[blockNumber];\n        require(childBlock.root != 0, \"A block must be submitted first in order to reveal the swap secrets\");\n        require((block.timestamp - childBlock.createdAt) < SECRET_REVEALING_PERIOD ,\n                \"Time to reveal secrets is already over\");\n\n        secretRevealingChain[blockNumber] = ChildBlock({\n            root: root,\n            createdAt: block.timestamp\n            });\n\n        emit SubmittedSecretBlock(blockNumber, root, block.timestamp);\n    }\n\n    /// @dev Allows anyone to deposit funds into the Plasma chain, called when\n    //       contract receives ERC721\n    /// @notice Appends a deposit block to the Plasma chain\n    /// @param from The address of the user who is depositing a coin\n    /// @param uid The uid of the ERC721 coin being deposited. This is an\n    ///            identifier allocated by the ERC721 token contract; it is not\n    ///            related to `slot`. If the coin is ETH or ERC20 the uid is 0\n    function deposit(address from, address contractAddress, uint256 uid) private {\n        require(!paused, \"Contract is not accepting more deposits!\");\n        currentBlock = currentBlock.add(1);\n        uint64 slot = uint64(bytes8(keccak256(abi.encodePacked(numCoins, msg.sender, from))));\n\n        // Update state. Leave `exit` empty\n        Coin storage coin = coins[slot];\n        coin.uid = uid;\n        coin.contractAddress = contractAddress;\n        coin.depositBlock = currentBlock;\n        coin.owner = from;\n        coin.state = State.NOT_EXITING;\n\n        childChain[currentBlock] = ChildBlock({\n            // hash for deposit transactions is the hash of its slot\n            root: keccak256(abi.encodePacked(slot)),\n            createdAt: block.timestamp\n        });\n\n        // create a utxo at `slot`\n        emit Deposit(\n            slot,\n            currentBlock,\n            from,\n            contractAddress\n        );\n\n        numCoins += 1;\n    }\n\n    /******************** EXIT RELATED ********************/\n\n    // @dev Allows and exit of a deposited transaction\n    // @param slot The slot of the coin being exited\n    function startDepositExit(uint64 slot)\n    external\n    payable isBonded\n    isState(slot, State.NOT_EXITING) {\n        Coin memory coin = coins[slot];\n        require(coin.owner == msg.sender, \"Sender does not match deposit owner\");\n        pushExit(slot, address(0), 0, coin.depositBlock);\n    }\n\n    // @dev Allows and exit of a non-depositing transaction\n    function startExit(\n        uint64 slot,\n        bytes calldata prevTxBytes, bytes calldata exitingTxBytes,\n        bytes calldata prevTxInclusionProof, bytes calldata exitingTxInclusionProof,\n        bytes calldata signature,\n        uint256[2] calldata blocks)\n        external\n        payable isBonded\n        isState(slot, State.NOT_EXITING)\n    {\n        require(msg.sender == exitingTxBytes.getOwner(), \"Sender does not match exitingTxBytes owner\");\n\n        doInclusionChecks(\n            prevTxBytes, exitingTxBytes,\n            prevTxInclusionProof, exitingTxInclusionProof,\n            signature,\n            blocks\n        );\n\n        pushExit(slot, prevTxBytes.getOwner(), blocks[0], blocks[1]);\n    }\n\n    /// @dev Verifies that consecutive two transaction involving the same coin\n    ///      are valid\n    /// @notice If exitingTxBytes corresponds to a deposit transaction, this function fails\n    /// @param prevTxBytes The RLP-encoded transaction involving a particular\n    ///        coin which took place directly before exitingTxBytes\n    /// @param exitingTxBytes The RLP-encoded transaction involving a particular\n    ///        coin which an exiting owner of the coin claims to be the latest\n    /// @param prevTxInclusionProof An inclusion proof of prevTx\n    /// @param exitingTxInclusionProof An inclusion proof of exitingTx\n    /// @param signature The signature of the exitingTxBytes by the coin\n    ///        owner indicated in prevTx.\n    /// @param blocks An array of two block numbers, at index 0, the block\n    ///        containing the prevTx and at index 1, the block containing\n    ///        the exitingTx\n    function doInclusionChecks(\n        bytes memory prevTxBytes, bytes memory exitingTxBytes,\n        bytes memory prevTxInclusionProof, bytes memory exitingTxInclusionProof,\n        bytes memory signature,\n        uint256[2] memory blocks)\n        private\n        view\n    {\n        if (blocks[1] % childBlockInterval != 0) {\n            revert(\"Please do a startDepositExt for deposited transactions\");\n        } else {\n            checkBothIncludedAndSigned(\n                prevTxBytes, exitingTxBytes, prevTxInclusionProof,\n                exitingTxInclusionProof, signature,\n                blocks\n            );\n        }\n    }\n\n    function pushExit(\n        uint64 slot,\n        address prevOwner,\n        uint256 prevBlock, uint256 exitingBlock)\n        private\n    {\n        // Create exit\n        Coin storage c = coins[slot];\n        c.exit = Exit({\n            prevOwner: prevOwner,\n            owner: msg.sender,\n            createdAt: block.timestamp,\n            bond: msg.value,\n            prevBlock: prevBlock,\n            exitBlock: exitingBlock\n        });\n\n        // Update coin state\n        c.state = State.EXITING;\n        emit StartedExit(slot, msg.sender);\n    }\n\n    /// @dev Finalizes an exit, i.e. puts the exiting coin into the EXITED\n    ///      state which will allow it to be withdrawn, provided the exit has\n    ///      matured and has not been successfully challenged\n    function finalizeExit(uint64 slot) isState(slot, State.EXITING) public {\n        Coin storage coin = coins[slot];\n        require((block.timestamp - coin.exit.createdAt) > MATURITY_PERIOD, \"You must wait the maturity period before finalizing the exit\");\n\n        // Check if there are any pending challenges for the coin.\n        // `checkPendingChallenges` will also penalize\n        // for each challenge that has not been responded to\n        bool hasChallenges = checkPendingChallenges(slot);\n\n        if (!hasChallenges) {\n            // Update coin's owner\n            coin.owner = coin.exit.owner;\n            coin.state = State.EXITED;\n\n            // Allow the exitor to withdraw their bond\n            freeBond(coin.owner);\n\n            emit FinalizedExit(slot, coin.owner);\n        } else {\n            // Reset coin state since it was challenged\n            coin.state = State.NOT_EXITING;\n            emit CoinReset(slot, coin.owner);\n        }\n\n        delete coins[slot].exit;\n    }\n\n    function checkPendingChallenges(uint64 slot) private returns (bool hasChallenges) {\n        uint256 length = challenges[slot].length;\n        bool slashed;\n        hasChallenges = false;\n        for (uint i = 0; i < length; i++) {\n            if (challenges[slot][i].txHash != 0x0) {\n                // Penalize the exitor and reward the first valid challenger.\n                if (!slashed) {\n                    slashBond(coins[slot].exit.owner, challenges[slot][i].challenger);\n                    slashed = true;\n                }\n                // Also free the bond of the challenger.\n                freeBond(challenges[slot][i].challenger);\n\n                // Challenge resolved, delete it\n                delete challenges[slot][i];\n                hasChallenges = true;\n            }\n        }\n    }\n\n    /// @dev Iterates through all of the initiated exits and finalizes those\n    ///      which have matured without being successfully challenged\n    function finalizeExits(uint64[] calldata slots) external {\n        uint256 slotsLength = slots.length;\n        for (uint256 i = 0; i < slotsLength; i++) {\n            finalizeExit(slots[i]);\n        }\n    }\n\n    function cancelExit(uint64 slot) public {\n        require(coins[slot].exit.owner == msg.sender, \"Only coin's owner is allowed to cancel the exit\");\n        delete coins[slot].exit;\n        coins[slot].state = State.NOT_EXITING;\n        freeBond(msg.sender);\n        emit CoinReset(slot, coins[slot].owner);\n    }\n\n    function cancelExits(uint64[] calldata slots) external {\n        uint256 slotsLength = slots.length;\n        for (uint256 i = 0; i < slotsLength; i++) {\n            cancelExit(slots[i]);\n        }\n    }\n\n    /// @dev Withdraw a UTXO that has been exited\n    /// @param slot The slot of the coin being withdrawn\n    function withdraw(uint64 slot) external isState(slot, State.EXITED) {\n        require(coins[slot].owner == msg.sender, \"You do not own that UTXO\");\n        uint256 uid = coins[slot].uid;\n\n        // Delete the coin that is being withdrawn\n        Coin memory c = coins[slot];\n        delete coins[slot];\n        ERC721(c.contractAddress).safeTransferFrom(address(this), msg.sender, uid);\n\n        emit Withdrew(\n            msg.sender,\n            slot,\n            c.contractAddress,\n            uid\n        );\n    }\n\n    /******************** CHALLENGES ********************/\n\n    /// @dev Submits proof of a transaction before prevTx as an exit challenge\n    /// @notice Exitor has to call respondChallengeBefore and submit a\n    ///         transaction before prevTx or prevTx itself.\n    /// @param slot The slot corresponding to the coin whose exit is being challenged\n    /// @param txBytes The RLP-encoded transaction involving a particular\n    ///        coin which an exiting owner of the coin claims to be the latest\n    /// @param txInclusionProof An inclusion proof of exitingTx\n    ///        owner indicated in prevTx\n    /// @param blockNumber The block containing the exitingTx\n    function challengeBefore(\n        uint64 slot,\n        bytes calldata txBytes,\n        bytes calldata txInclusionProof,\n        uint256 blockNumber)\n        external\n        payable isBonded\n        isState(slot, State.EXITING)\n    {\n        checkBefore(slot, txBytes, txInclusionProof, blockNumber);\n        setChallenged(slot, txBytes.getOwner(), blockNumber, txBytes.getHash());\n    }\n\n    /// @dev Submits proof of a later transaction that corresponds to a challenge\n    /// @notice Can only be called in the second window of the exit period.\n    /// @param slot The slot corresponding to the coin whose exit is being challenged\n    /// @param challengingTxHash The hash of the transaction\n    ///        corresponding to the challenge we're responding to\n    /// @param respondingBlockNumber The block number which included the transaction\n    ///        we are responding with\n    /// @param respondingTransaction The RLP-encoded transaction involving a particular\n    ///        coin which took place directly after challengingTransaction\n    /// @param proof An inclusion proof of respondingTransaction\n    /// @param signature The signature which proves a direct spend from the challenger\n    function respondChallengeBefore(\n        uint64 slot,\n        bytes32 challengingTxHash,\n        uint256 respondingBlockNumber,\n        bytes calldata respondingTransaction,\n        bytes calldata proof,\n        bytes calldata signature)\n        external\n    {\n        // Check that the transaction being challenged exists\n        require(challenges[slot].contains(challengingTxHash), \"Responding to non existing challenge\");\n\n        // Get index of challenge in the challenges array\n        uint256 index = uint256(challenges[slot].indexOf(challengingTxHash));\n\n        checkResponse(slot, index, respondingBlockNumber, respondingTransaction, signature, proof);\n\n        // If the exit was actually challenged and responded, penalize the challenger and award the responder\n        slashBond(challenges[slot][index].challenger, msg.sender);\n\n        challenges[slot].remove(challengingTxHash);\n        emit RespondedExitChallenge(slot);\n    }\n\n    function checkResponse(\n        uint64 slot,\n        uint256 index,\n        uint256 blockNumber,\n        bytes memory txBytes,\n        bytes memory signature,\n        bytes memory proof\n    )\n        private\n        view\n    {\n        Transaction.TX memory txData = checkTxValid(txBytes, proof, blockNumber);\n        require(txData.hash.ecverify(signature, challenges[slot][index].owner), \"Invalid signature\");\n        require(txData.slot == slot, \"Tx is referencing another slot\");\n        require(blockNumber > challenges[slot][index].challengingBlockNumber, \"BlockNumber must be after the chalenge\");\n        require(blockNumber <= coins[slot].exit.exitBlock, \"Cannot respond with a tx after the exit\");\n    }\n\n    function challengeBetween(\n        uint64 slot,\n        bytes calldata challengingTransaction,\n        bytes calldata proof,\n        bytes calldata signature,\n        uint256 challengingBlockNumber)\n        external isState(slot, State.EXITING)\n    {\n        checkBetween(slot, challengingTransaction, proof, signature, challengingBlockNumber);\n        applyPenalties(slot);\n    }\n\n    function challengeAfter(\n        uint64 slot,\n        bytes calldata challengingTransaction,\n        bytes calldata proof,\n        bytes calldata signature,\n        uint256 challengingBlockNumber)\n        external\n        isState(slot, State.EXITING)\n    {\n        checkAfter(slot, challengingTransaction, proof, signature, challengingBlockNumber);\n        applyPenalties(slot);\n    }\n\n\n    // Must challenge with a tx in between\n\n    function checkBefore(\n        uint64 slot,\n        bytes memory txBytes,\n        bytes memory proof,\n        uint blockNumber)\n        private\n        view\n    {\n        require(\n            blockNumber <= coins[slot].exit.prevBlock,\n            \"Tx should be before the exit's parent block\"\n        );\n\n        Transaction.TX memory txData = checkTxValid(txBytes, proof, blockNumber);\n        require(txData.slot == slot, \"Tx is referencing another slot\");\n    }\n\n\n    // Check that the challenging transaction has been signed\n    // by the attested previous owner of the coin in the exit\n    function checkBetween(\n        uint64 slot,\n        bytes memory txBytes,\n        bytes memory proof,\n        bytes memory signature,\n        uint blockNumber)\n        private\n        view\n    {\n        require(\n            coins[slot].exit.exitBlock > blockNumber &&\n            coins[slot].exit.prevBlock < blockNumber,\n            \"Tx should be between the exit's blocks\"\n        );\n\n        Transaction.TX memory txData = checkTxValid(txBytes, proof, blockNumber);\n        require(txData.hash.ecverify(signature, coins[slot].exit.prevOwner), \"Invalid signature\");\n        require(txData.slot == slot, \"Tx is referencing another slot\");\n    }\n\n    function checkAfter(\n        uint64 slot,\n        bytes memory txBytes,\n        bytes memory proof,\n        bytes memory signature,\n        uint blockNumber) private view {\n        require(\n            coins[slot].exit.exitBlock < blockNumber,\n            \"Tx should be after the exitBlock\"\n        );\n\n        Transaction.TX memory txData = checkTxValid(txBytes, proof, blockNumber);\n        require(txData.hash.ecverify(signature, coins[slot].exit.owner), \"Invalid signature\");\n        require(txData.slot == slot, \"Tx is referencing another slot\");\n        require(txData.prevBlock == coins[slot].exit.exitBlock, \"Not a direct spend\");\n    }\n\n    function applyPenalties(uint64 slot) private {\n        // Apply penalties and change state\n        slashBond(coins[slot].exit.owner, msg.sender);\n        coins[slot].state = State.NOT_EXITING;\n        delete coins[slot].exit;\n        emit CoinReset(slot, coins[slot].owner);\n    }\n\n    /// @param slot The slot of the coin being challenged\n    /// @param owner The user claimed to be the true owner of the coin\n    function setChallenged(uint64 slot, address owner, uint256 challengingBlockNumber, bytes32 txHash) private {\n        // Require that the challenge is in the first half of the challenge window\n        require(block.timestamp <= coins[slot].exit.createdAt + CHALLENGE_WINDOW, \"Challenge windows is over\");\n\n        require(!challenges[slot].contains(txHash),\n                \"Transaction used for challenge already\");\n\n        // Need to save the exiting transaction's owner, to verify\n        // that the response is valid\n        challenges[slot].push(\n            ChallengeLib.Challenge({\n                owner: owner,\n                challenger: msg.sender,\n                txHash: txHash,\n                challengingBlockNumber: challengingBlockNumber\n            })\n        );\n\n        emit ChallengedExit(slot, owner, txHash, challengingBlockNumber);\n    }\n\n    /******************** BOND RELATED ********************/\n\n    function freeBond(address from) private {\n        balances[from].bonded = balances[from].bonded.sub(BOND_AMOUNT);\n        balances[from].withdrawable = balances[from].withdrawable.add(BOND_AMOUNT);\n        emit FreedBond(from, BOND_AMOUNT);\n    }\n\n    function withdrawBonds() external {\n        // Can only withdraw bond if the msg.sender\n        uint256 amount = balances[msg.sender].withdrawable;\n        balances[msg.sender].withdrawable = 0; // no reentrancy!\n\n        msg.sender.transfer(amount);\n        emit WithdrewBonds(msg.sender, amount);\n    }\n\n    function slashBond(address from, address to) private {\n        balances[from].bonded = balances[from].bonded.sub(BOND_AMOUNT);\n        balances[to].withdrawable = balances[to].withdrawable.add(BOND_AMOUNT);\n        emit SlashedBond(from, to, BOND_AMOUNT);\n    }\n\n    /******************** PROOF CHECKING ********************/\n\n    function checkBothIncludedAndSigned(\n        bytes memory prevTxBytes, bytes memory exitingTxBytes,\n        bytes memory prevTxInclusionProof, bytes memory exitingTxInclusionProof,\n        bytes memory signature,\n        uint256[2] memory blocks)\n        private\n        view\n    {\n        require(blocks[0] < blocks[1], \"Block on the first index must be the earlier of the 2 blocks\");\n\n        Transaction.TX memory prevTxData    = checkTxValid(prevTxBytes, prevTxInclusionProof, blocks[0]);\n        Transaction.TX memory exitingTxData = checkTxValid(exitingTxBytes, exitingTxInclusionProof, blocks[1]);\n\n        // Both transactions need to be referring to the same slot\n        require(exitingTxData.slot == prevTxData.slot,\"Slot on the ExitingTx does not match that on the prevTx\");\n\n        // The exiting transaction must be signed by the previous transaciton's receiver\n        require(exitingTxData.hash.ecverify(signature, prevTxData.receiver), \"Invalid signature\");\n    }\n\n\n    function checkTxValid(\n        bytes memory txBytes,\n        bytes memory proof,\n        uint256 blockNumber)\n    private\n    view returns(Transaction.TX memory)\n    {\n        RLPReader.RLPItem[] memory rlpTx = txBytes.toRLPItems();\n\n        if(rlpTx.isBasicTransaction()) {\n            //Basic transactions only validate are included\n            Transaction.TX memory txData = rlpTx.getBasicTx(txBytes);\n            checkHashIncluded(txData.slot, txData.hash, blockNumber, proof);\n            return txData;\n\n        } else if(rlpTx.isAtomicSwap()) {\n            ChildBlock memory secretRevealingBlock = secretRevealingChain[blockNumber];\n\n            if(secretRevealingBlock.root != 0) {\n                Transaction.AtomicSwapTX[] memory txsData = rlpTx.getAtomicSwapTxs();\n\n                //Check signature B -> A. A -> B signature is checked in outside if this function\n                require(txsData[1].hash.ecverify(txsData[1].signature, txsData[1].prevOwner), \"Invalid signature B in atomic swap\");\n\n                RLPReader.RLPItem[] memory proofs = proof.toRLPItems();\n                require(proofs.length == 4, \"4 proof must be submitted for an atomic swap\");\n                checkHashIncluded(txsData[0].slot, txsData[0].hash, blockNumber, proofs[0].toBytes());\n                checkHashIncluded(txsData[1].slot, txsData[1].hash, blockNumber, proofs[1].toBytes());\n                checkHashIncludedSecret(txsData[0].slot, txsData[0].secret, blockNumber, proofs[2].toBytes());\n                checkHashIncludedSecret(txsData[1].slot, txsData[1].secret, blockNumber, proofs[3].toBytes());\n\n                return txsData[0].toBasicTx();\n            } else {\n                ChildBlock memory childBlock = childChain[blockNumber];\n                if((block.timestamp - childBlock.createdAt) > SECRET_REVEALING_PERIOD) {\n                    revert(\"Secret was never revealed for this block, swap is invalid\");\n                } else {\n                    revert(\"Secret has not yet been revealed, there is still time to commit the transaction\");\n                }\n            }\n        } else {\n            revert(\"txBytes do not correspond neither to basic TX nor to Atomic swap\");\n        }\n    }\n\n\n    function checkHashIncluded(\n        uint64 slot,\n        bytes32 txHash,\n        uint256 blockNumber,\n        bytes memory proof\n    )\n        private\n        view\n    {\n        bytes32 root = childChain[blockNumber].root;\n\n        if (blockNumber % childBlockInterval != 0) {\n            // Check against block root for deposit block numbers\n            require(txHash == root, \"Transaction hash does not match rootHash\");\n        } else {\n            // Check against merkle tree for all other block numbers\n            require(\n                checkMembership(\n                    txHash,\n                    root,\n                    slot,\n                    proof\n            ),\n            \"Tx not included in claimed block\"\n            );\n        }\n    }\n\n    function checkHashIncludedSecret(\n        uint64 slot,\n        bytes32 secret,\n        uint256 blockNumber,\n        bytes memory proof\n    )\n    private\n    view\n    {\n        bytes32 root = secretRevealingChain[blockNumber].root;\n        require(blockNumber % childBlockInterval == 0, \"Trying to validate an atomic swap for a deposit block\");\n        // Check against merkle tree for all other block numbers\n        require(\n            checkMembership(\n                secret,\n                root,\n                slot,\n                proof\n            ),\n            \"Tx secret not included in claimed block\"\n        );\n    }\n\n    /******************** DEPOSIT FUNCTIONS ********************/\n\n    function pause() external isValidator {\n        paused = true;\n        emit Paused(true);\n    }\n\n    function unpause() external isValidator {\n        paused = false;\n        emit Paused(false);\n    }\n\n    function() external payable {\n        //TODO: Not quite sure about this\n        require(false, \"This contract does not receive money\");\n    }\n\n    function onERC721Received(address /*operator*/, address from, uint256 tokenId, bytes memory /*data*/) public isTokenApproved(msg.sender)\n    returns (bytes4)\n     {\n        require(ERC721(msg.sender).ownerOf(tokenId) == address(this), \"Token was not transfered correctly\");\n        deposit(from, msg.sender, tokenId);\n        return this.onERC721Received.selector;\n    }\n\n    // Approve and Deposit function for 2-step deposits without having to approve the token by the validators\n    // Requires first to have called `approve` on the specified ERC721 contract\n    function depositERC721(uint256 uid, address contractAddress) external {\n        ERC721(contractAddress).safeTransferFrom(msg.sender, address(this), uid);\n    }\n\n    /******************** HELPERS ********************/\n\n    function checkMembership(\n        bytes32 txHash,\n        bytes32 root,\n        uint64 slot,\n        bytes memory proof) public view returns (bool)\n    {\n        return smt.checkMembership(\n            txHash,\n            root,\n            slot,\n            proof);\n    }\n\n    function checkInclusion(\n        bytes32 txHash,\n        uint256 blockNumber,\n        uint64 slot,\n        bytes memory proof\n    ) public view returns (bool) {\n        ChildBlock memory childBlock = childChain[blockNumber];\n        if (blockNumber % childBlockInterval != 0) {\n            return txHash == childBlock.root && keccak256(abi.encodePacked(slot)) == childBlock.root;\n        } else {\n            return checkMembership(txHash, childBlock.root, slot, proof);\n        }\n    }\n\n    function checkValidationAndInclusion(\n        bytes calldata txBytes,\n        bytes calldata proof,\n        uint256 blockNumber\n    ) external view returns (bool) {\n        checkTxValid(txBytes, proof, blockNumber);\n        return true;\n    }\n\n    function getPlasmaCoin(uint64 slot) external view returns(uint256, uint256, address, State, address) {\n        Coin memory c = coins[slot];\n        return (c.uid, c.depositBlock, c.owner, c.state, c.contractAddress);\n    }\n\n    function getChallenge(uint64 slot, bytes32 txHash)\n        external\n        view\n        returns(address, address, bytes32, uint256)\n    {\n        uint256 index = uint256(challenges[slot].indexOf(txHash));\n        ChallengeLib.Challenge memory c = challenges[slot][index];\n        return (c.owner, c.challenger, c.txHash, c.challengingBlockNumber);\n    }\n\n    function getChallenges(uint64 slot) external view returns(bytes32[] memory) {\n        uint length = challenges[slot].length;\n        bytes32[] memory slotChallenges = new bytes32[](length);\n        for (uint i = 0; i < length; i++) {\n            slotChallenges[i] = challenges[slot][i].txHash;\n        }\n\n        return slotChallenges;\n    }\n\n    function getExit(uint64 slot) external view returns(address, uint256, uint256, State, uint256) {\n        Exit memory e = coins[slot].exit;\n        return (e.owner, e.prevBlock, e.exitBlock, coins[slot].state, e.createdAt);\n    }\n\n    function getBlockRoot(uint256 blockNumber) public view returns (bytes32 root) {\n        root = childChain[blockNumber].root;\n    }\n\n    function getSecretBlockRoot(uint256 blockNumber) public view returns (bytes32 root) {\n        root = secretRevealingChain[blockNumber].root;\n    }\n\n    function getBalance() external view returns(uint256, uint256) {\n        // Can only withdraw bond if the msg.sender\n        return (balances[msg.sender].bonded, balances[msg.sender].withdrawable);\n    }\n}\n",
  "sourcePath": "/Users/epord/Desktop/PF/Plasma-Cash-RootChain/contracts/Core/RootChain.sol",
  "compiler": {
    "name": "solc",
    "version": "0.5.2+commit.1df8f40c.Emscripten.clang"
  },
  "schemaVersion": "3.0.0",
  "updatedAt": "2019-10-18T20:11:02.389Z",
  "devdoc": {
    "methods": {
      "challengeBefore(uint64,bytes,bytes,uint256)": {
        "details": "Submits proof of a transaction before prevTx as an exit challenge",
        "params": {
          "blockNumber": "The block containing the exitingTx",
          "slot": "The slot corresponding to the coin whose exit is being challenged",
          "txBytes": "The RLP-encoded transaction involving a particular        coin which an exiting owner of the coin claims to be the latest",
          "txInclusionProof": "An inclusion proof of exitingTx        owner indicated in prevTx"
        }
      },
      "finalizeExit(uint64)": {
        "details": "Finalizes an exit, i.e. puts the exiting coin into the EXITED      state which will allow it to be withdrawn, provided the exit has      matured and has not been successfully challenged"
      },
      "finalizeExits(uint64[])": {
        "details": "Iterates through all of the initiated exits and finalizes those      which have matured without being successfully challenged"
      },
      "respondChallengeBefore(uint64,bytes32,uint256,bytes,bytes,bytes)": {
        "details": "Submits proof of a later transaction that corresponds to a challenge",
        "params": {
          "challengingTxHash": "The hash of the transaction        corresponding to the challenge we're responding to",
          "proof": "An inclusion proof of respondingTransaction",
          "respondingBlockNumber": "The block number which included the transaction        we are responding with",
          "respondingTransaction": "The RLP-encoded transaction involving a particular        coin which took place directly after challengingTransaction",
          "signature": "The signature which proves a direct spend from the challenger",
          "slot": "The slot corresponding to the coin whose exit is being challenged"
        }
      },
      "submitBlock(uint256,bytes32)": {
        "details": "called by a Validator to append a Plasma block to the Plasma chain",
        "params": {
          "root": "The transaction root hash of the Plasma block being added"
        }
      },
      "submitSecretBlock(uint256,bytes32)": {
        "details": "called by a Validator to append a Secret Revealing block to the Plasma chain",
        "params": {
          "root": "The transaction root hash of the Secret Revealing block being added"
        }
      },
      "withdraw(uint64)": {
        "details": "Withdraw a UTXO that has been exited",
        "params": {
          "slot": "The slot of the coin being withdrawn"
        }
      }
    }
  },
  "userdoc": {
    "methods": {
      "challengeBefore(uint64,bytes,bytes,uint256)": {
        "notice": "Exitor has to call respondChallengeBefore and submit a         transaction before prevTx or prevTx itself."
      },
      "checkMembership(bytes32,bytes32,uint64,bytes)": {
        "notice": "****************** HELPERS *******************"
      },
      "pause()": {
        "notice": "****************** DEPOSIT FUNCTIONS *******************"
      },
      "respondChallengeBefore(uint64,bytes32,uint256,bytes,bytes,bytes)": {
        "notice": "Can only be called in the second window of the exit period."
      },
      "startDepositExit(uint64)": {
        "notice": "****************** EXIT RELATED *******************"
      }
    }
  }
}