{
  "contractName": "RootChain",
  "abi": [
    {
      "constant": true,
      "inputs": [
        {
          "name": "",
          "type": "address"
        }
      ],
      "name": "balances",
      "outputs": [
        {
          "name": "bonded",
          "type": "uint256"
        },
        {
          "name": "withdrawable",
          "type": "uint256"
        }
      ],
      "payable": false,
      "stateMutability": "view",
      "type": "function"
    },
    {
      "constant": true,
      "inputs": [],
      "name": "childBlockInterval",
      "outputs": [
        {
          "name": "",
          "type": "uint256"
        }
      ],
      "payable": false,
      "stateMutability": "view",
      "type": "function"
    },
    {
      "constant": true,
      "inputs": [
        {
          "name": "",
          "type": "uint256"
        }
      ],
      "name": "secretRevealingChain",
      "outputs": [
        {
          "name": "root",
          "type": "bytes32"
        },
        {
          "name": "createdAt",
          "type": "uint256"
        }
      ],
      "payable": false,
      "stateMutability": "view",
      "type": "function"
    },
    {
      "constant": true,
      "inputs": [],
      "name": "numCoins",
      "outputs": [
        {
          "name": "",
          "type": "uint64"
        }
      ],
      "payable": false,
      "stateMutability": "view",
      "type": "function"
    },
    {
      "constant": true,
      "inputs": [],
      "name": "currentBlock",
      "outputs": [
        {
          "name": "",
          "type": "uint256"
        }
      ],
      "payable": false,
      "stateMutability": "view",
      "type": "function"
    },
    {
      "constant": true,
      "inputs": [
        {
          "name": "",
          "type": "uint256"
        }
      ],
      "name": "childChain",
      "outputs": [
        {
          "name": "root",
          "type": "bytes32"
        },
        {
          "name": "createdAt",
          "type": "uint256"
        }
      ],
      "payable": false,
      "stateMutability": "view",
      "type": "function"
    },
    {
      "inputs": [
        {
          "name": "_vmc",
          "type": "address"
        }
      ],
      "payable": false,
      "stateMutability": "nonpayable",
      "type": "constructor"
    },
    {
      "payable": true,
      "stateMutability": "payable",
      "type": "fallback"
    },
    {
      "anonymous": false,
      "inputs": [
        {
          "indexed": false,
          "name": "message",
          "type": "address"
        }
      ],
      "name": "Debug",
      "type": "event"
    },
    {
      "anonymous": false,
      "inputs": [
        {
          "indexed": true,
          "name": "slot",
          "type": "uint64"
        },
        {
          "indexed": false,
          "name": "blockNumber",
          "type": "uint256"
        },
        {
          "indexed": true,
          "name": "from",
          "type": "address"
        },
        {
          "indexed": true,
          "name": "contractAddress",
          "type": "address"
        }
      ],
      "name": "Deposit",
      "type": "event"
    },
    {
      "anonymous": false,
      "inputs": [
        {
          "indexed": false,
          "name": "blockNumber",
          "type": "uint256"
        },
        {
          "indexed": false,
          "name": "root",
          "type": "bytes32"
        },
        {
          "indexed": false,
          "name": "timestamp",
          "type": "uint256"
        }
      ],
      "name": "SubmittedBlock",
      "type": "event"
    },
    {
      "anonymous": false,
      "inputs": [
        {
          "indexed": false,
          "name": "blockNumber",
          "type": "uint256"
        },
        {
          "indexed": false,
          "name": "root",
          "type": "bytes32"
        },
        {
          "indexed": false,
          "name": "timestamp",
          "type": "uint256"
        }
      ],
      "name": "SubmittedSecretBlock",
      "type": "event"
    },
    {
      "anonymous": false,
      "inputs": [
        {
          "indexed": true,
          "name": "slot",
          "type": "uint64"
        },
        {
          "indexed": true,
          "name": "owner",
          "type": "address"
        }
      ],
      "name": "StartedExit",
      "type": "event"
    },
    {
      "anonymous": false,
      "inputs": [
        {
          "indexed": true,
          "name": "slot",
          "type": "uint64"
        },
        {
          "indexed": true,
          "name": "owner",
          "type": "address"
        },
        {
          "indexed": false,
          "name": "txHash",
          "type": "bytes32"
        },
        {
          "indexed": false,
          "name": "challengingBlockNumber",
          "type": "uint256"
        }
      ],
      "name": "ChallengedExit",
      "type": "event"
    },
    {
      "anonymous": false,
      "inputs": [
        {
          "indexed": true,
          "name": "slot",
          "type": "uint64"
        }
      ],
      "name": "RespondedExitChallenge",
      "type": "event"
    },
    {
      "anonymous": false,
      "inputs": [
        {
          "indexed": true,
          "name": "slot",
          "type": "uint64"
        },
        {
          "indexed": true,
          "name": "owner",
          "type": "address"
        }
      ],
      "name": "CoinReset",
      "type": "event"
    },
    {
      "anonymous": false,
      "inputs": [
        {
          "indexed": true,
          "name": "slot",
          "type": "uint64"
        },
        {
          "indexed": false,
          "name": "owner",
          "type": "address"
        }
      ],
      "name": "FinalizedExit",
      "type": "event"
    },
    {
      "anonymous": false,
      "inputs": [
        {
          "indexed": true,
          "name": "from",
          "type": "address"
        },
        {
          "indexed": false,
          "name": "amount",
          "type": "uint256"
        }
      ],
      "name": "FreedBond",
      "type": "event"
    },
    {
      "anonymous": false,
      "inputs": [
        {
          "indexed": true,
          "name": "from",
          "type": "address"
        },
        {
          "indexed": true,
          "name": "to",
          "type": "address"
        },
        {
          "indexed": false,
          "name": "amount",
          "type": "uint256"
        }
      ],
      "name": "SlashedBond",
      "type": "event"
    },
    {
      "anonymous": false,
      "inputs": [
        {
          "indexed": true,
          "name": "from",
          "type": "address"
        },
        {
          "indexed": false,
          "name": "amount",
          "type": "uint256"
        }
      ],
      "name": "WithdrewBonds",
      "type": "event"
    },
    {
      "anonymous": false,
      "inputs": [
        {
          "indexed": true,
          "name": "owner",
          "type": "address"
        },
        {
          "indexed": true,
          "name": "slot",
          "type": "uint64"
        },
        {
          "indexed": false,
          "name": "contractAddress",
          "type": "address"
        },
        {
          "indexed": false,
          "name": "uid",
          "type": "uint256"
        }
      ],
      "name": "Withdrew",
      "type": "event"
    },
    {
      "anonymous": false,
      "inputs": [
        {
          "indexed": false,
          "name": "status",
          "type": "bool"
        }
      ],
      "name": "Paused",
      "type": "event"
    },
    {
      "constant": false,
      "inputs": [
        {
          "name": "blockNumber",
          "type": "uint256"
        },
        {
          "name": "root",
          "type": "bytes32"
        }
      ],
      "name": "submitBlock",
      "outputs": [],
      "payable": false,
      "stateMutability": "nonpayable",
      "type": "function"
    },
    {
      "constant": false,
      "inputs": [
        {
          "name": "blockNumber",
          "type": "uint256"
        },
        {
          "name": "root",
          "type": "bytes32"
        }
      ],
      "name": "submitSecretBlock",
      "outputs": [],
      "payable": false,
      "stateMutability": "nonpayable",
      "type": "function"
    },
    {
      "constant": false,
      "inputs": [
        {
          "name": "slot",
          "type": "uint64"
        }
      ],
      "name": "startDepositExit",
      "outputs": [],
      "payable": true,
      "stateMutability": "payable",
      "type": "function"
    },
    {
      "constant": false,
      "inputs": [
        {
          "name": "slot",
          "type": "uint64"
        },
        {
          "name": "prevTxBytes",
          "type": "bytes"
        },
        {
          "name": "exitingTxBytes",
          "type": "bytes"
        },
        {
          "name": "prevTxInclusionProof",
          "type": "bytes"
        },
        {
          "name": "exitingTxInclusionProof",
          "type": "bytes"
        },
        {
          "name": "signature",
          "type": "bytes"
        },
        {
          "name": "blocks",
          "type": "uint256[2]"
        }
      ],
      "name": "startExit",
      "outputs": [],
      "payable": true,
      "stateMutability": "payable",
      "type": "function"
    },
    {
      "constant": true,
      "inputs": [
        {
          "name": "prevTxBytes",
          "type": "bytes"
        },
        {
          "name": "exitingTxBytes",
          "type": "bytes"
        },
        {
          "name": "prevTxInclusionProof",
          "type": "bytes"
        },
        {
          "name": "exitingTxInclusionProof",
          "type": "bytes"
        },
        {
          "name": "signature",
          "type": "bytes"
        },
        {
          "name": "blocks",
          "type": "uint256[2]"
        }
      ],
      "name": "doInclusionChecks",
      "outputs": [],
      "payable": false,
      "stateMutability": "view",
      "type": "function"
    },
    {
      "constant": false,
      "inputs": [
        {
          "name": "slot",
          "type": "uint64"
        }
      ],
      "name": "finalizeExit",
      "outputs": [],
      "payable": false,
      "stateMutability": "nonpayable",
      "type": "function"
    },
    {
      "constant": false,
      "inputs": [
        {
          "name": "slots",
          "type": "uint64[]"
        }
      ],
      "name": "finalizeExits",
      "outputs": [],
      "payable": false,
      "stateMutability": "nonpayable",
      "type": "function"
    },
    {
      "constant": false,
      "inputs": [
        {
          "name": "slot",
          "type": "uint64"
        }
      ],
      "name": "cancelExit",
      "outputs": [],
      "payable": false,
      "stateMutability": "nonpayable",
      "type": "function"
    },
    {
      "constant": false,
      "inputs": [
        {
          "name": "slots",
          "type": "uint64[]"
        }
      ],
      "name": "cancelExits",
      "outputs": [],
      "payable": false,
      "stateMutability": "nonpayable",
      "type": "function"
    },
    {
      "constant": false,
      "inputs": [
        {
          "name": "slot",
          "type": "uint64"
        }
      ],
      "name": "withdraw",
      "outputs": [],
      "payable": false,
      "stateMutability": "nonpayable",
      "type": "function"
    },
    {
      "constant": false,
      "inputs": [
        {
          "name": "slot",
          "type": "uint64"
        },
        {
          "name": "txBytes",
          "type": "bytes"
        },
        {
          "name": "txInclusionProof",
          "type": "bytes"
        },
        {
          "name": "blockNumber",
          "type": "uint256"
        }
      ],
      "name": "challengeBefore",
      "outputs": [],
      "payable": true,
      "stateMutability": "payable",
      "type": "function"
    },
    {
      "constant": false,
      "inputs": [
        {
          "name": "slot",
          "type": "uint64"
        },
        {
          "name": "challengingTxHash",
          "type": "bytes32"
        },
        {
          "name": "respondingBlockNumber",
          "type": "uint256"
        },
        {
          "name": "respondingTransaction",
          "type": "bytes"
        },
        {
          "name": "proof",
          "type": "bytes"
        },
        {
          "name": "signature",
          "type": "bytes"
        }
      ],
      "name": "respondChallengeBefore",
      "outputs": [],
      "payable": false,
      "stateMutability": "nonpayable",
      "type": "function"
    },
    {
      "constant": false,
      "inputs": [
        {
          "name": "slot",
          "type": "uint64"
        },
        {
          "name": "challengingTransaction",
          "type": "bytes"
        },
        {
          "name": "proof",
          "type": "bytes"
        },
        {
          "name": "signature",
          "type": "bytes"
        },
        {
          "name": "challengingBlockNumber",
          "type": "uint256"
        }
      ],
      "name": "challengeBetween",
      "outputs": [],
      "payable": false,
      "stateMutability": "nonpayable",
      "type": "function"
    },
    {
      "constant": false,
      "inputs": [
        {
          "name": "slot",
          "type": "uint64"
        },
        {
          "name": "challengingTransaction",
          "type": "bytes"
        },
        {
          "name": "proof",
          "type": "bytes"
        },
        {
          "name": "signature",
          "type": "bytes"
        },
        {
          "name": "challengingBlockNumber",
          "type": "uint256"
        }
      ],
      "name": "challengeAfter",
      "outputs": [],
      "payable": false,
      "stateMutability": "nonpayable",
      "type": "function"
    },
    {
      "constant": false,
      "inputs": [],
      "name": "withdrawBonds",
      "outputs": [],
      "payable": false,
      "stateMutability": "nonpayable",
      "type": "function"
    },
    {
      "constant": true,
      "inputs": [
        {
          "name": "txBytes",
          "type": "bytes"
        },
        {
          "name": "proof",
          "type": "bytes"
        },
        {
          "name": "blockNumber",
          "type": "uint256"
        }
      ],
      "name": "checkTX",
      "outputs": [],
      "payable": false,
      "stateMutability": "view",
      "type": "function"
    },
    {
      "constant": false,
      "inputs": [],
      "name": "pause",
      "outputs": [],
      "payable": false,
      "stateMutability": "nonpayable",
      "type": "function"
    },
    {
      "constant": false,
      "inputs": [],
      "name": "unpause",
      "outputs": [],
      "payable": false,
      "stateMutability": "nonpayable",
      "type": "function"
    },
    {
      "constant": false,
      "inputs": [
        {
          "name": "",
          "type": "address"
        },
        {
          "name": "from",
          "type": "address"
        },
        {
          "name": "tokenId",
          "type": "uint256"
        },
        {
          "name": "",
          "type": "bytes"
        }
      ],
      "name": "onERC721Received",
      "outputs": [
        {
          "name": "",
          "type": "bytes4"
        }
      ],
      "payable": false,
      "stateMutability": "nonpayable",
      "type": "function"
    },
    {
      "constant": false,
      "inputs": [
        {
          "name": "uid",
          "type": "uint256"
        },
        {
          "name": "contractAddress",
          "type": "address"
        }
      ],
      "name": "depositERC721",
      "outputs": [],
      "payable": false,
      "stateMutability": "nonpayable",
      "type": "function"
    },
    {
      "constant": true,
      "inputs": [
        {
          "name": "txHash",
          "type": "bytes32"
        },
        {
          "name": "root",
          "type": "bytes32"
        },
        {
          "name": "slot",
          "type": "uint64"
        },
        {
          "name": "proof",
          "type": "bytes"
        }
      ],
      "name": "checkMembership",
      "outputs": [
        {
          "name": "",
          "type": "bool"
        }
      ],
      "payable": false,
      "stateMutability": "view",
      "type": "function"
    },
    {
      "constant": true,
      "inputs": [
        {
          "name": "txHash",
          "type": "bytes32"
        },
        {
          "name": "blockNumber",
          "type": "uint256"
        },
        {
          "name": "slot",
          "type": "uint64"
        },
        {
          "name": "proof",
          "type": "bytes"
        }
      ],
      "name": "checkInclusion",
      "outputs": [
        {
          "name": "",
          "type": "bool"
        }
      ],
      "payable": false,
      "stateMutability": "view",
      "type": "function"
    },
    {
      "constant": true,
      "inputs": [
        {
          "name": "txBytes",
          "type": "bytes"
        },
        {
          "name": "proof",
          "type": "bytes"
        },
        {
          "name": "blockNumber",
          "type": "uint256"
        }
      ],
      "name": "checkValidationAndInclusion",
      "outputs": [
        {
          "name": "",
          "type": "bool"
        }
      ],
      "payable": false,
      "stateMutability": "view",
      "type": "function"
    },
    {
      "constant": true,
      "inputs": [
        {
          "name": "slot",
          "type": "uint64"
        }
      ],
      "name": "getPlasmaCoin",
      "outputs": [
        {
          "name": "",
          "type": "uint256"
        },
        {
          "name": "",
          "type": "uint256"
        },
        {
          "name": "",
          "type": "address"
        },
        {
          "name": "",
          "type": "uint8"
        },
        {
          "name": "",
          "type": "address"
        }
      ],
      "payable": false,
      "stateMutability": "view",
      "type": "function"
    },
    {
      "constant": true,
      "inputs": [
        {
          "name": "slot",
          "type": "uint64"
        },
        {
          "name": "txHash",
          "type": "bytes32"
        }
      ],
      "name": "getChallenge",
      "outputs": [
        {
          "name": "",
          "type": "address"
        },
        {
          "name": "",
          "type": "address"
        },
        {
          "name": "",
          "type": "bytes32"
        },
        {
          "name": "",
          "type": "uint256"
        }
      ],
      "payable": false,
      "stateMutability": "view",
      "type": "function"
    },
    {
      "constant": true,
      "inputs": [
        {
          "name": "slot",
          "type": "uint64"
        }
      ],
      "name": "getChallenges",
      "outputs": [
        {
          "name": "",
          "type": "bytes32[]"
        }
      ],
      "payable": false,
      "stateMutability": "view",
      "type": "function"
    },
    {
      "constant": true,
      "inputs": [
        {
          "name": "slot",
          "type": "uint64"
        }
      ],
      "name": "getExit",
      "outputs": [
        {
          "name": "",
          "type": "address"
        },
        {
          "name": "",
          "type": "uint256"
        },
        {
          "name": "",
          "type": "uint256"
        },
        {
          "name": "",
          "type": "uint8"
        },
        {
          "name": "",
          "type": "uint256"
        }
      ],
      "payable": false,
      "stateMutability": "view",
      "type": "function"
    },
    {
      "constant": true,
      "inputs": [
        {
          "name": "blockNumber",
          "type": "uint256"
        }
      ],
      "name": "getBlock",
      "outputs": [
        {
          "name": "",
          "type": "bytes32"
        },
        {
          "name": "",
          "type": "uint256"
        }
      ],
      "payable": false,
      "stateMutability": "view",
      "type": "function"
    },
    {
      "constant": true,
      "inputs": [
        {
          "name": "blockNumber",
          "type": "uint256"
        }
      ],
      "name": "getSecretBlock",
      "outputs": [
        {
          "name": "",
          "type": "bytes32"
        },
        {
          "name": "",
          "type": "uint256"
        }
      ],
      "payable": false,
      "stateMutability": "view",
      "type": "function"
    },
    {
      "constant": true,
      "inputs": [],
      "name": "getBalance",
      "outputs": [
        {
          "name": "",
          "type": "uint256"
        },
        {
          "name": "",
          "type": "uint256"
        }
      ],
      "payable": false,
      "stateMutability": "view",
      "type": "function"
    }
  ],
  "bytecode": "0x608060405260008060016101000a81548167ffffffffffffffff021916908367ffffffffffffffff1602179055506103e860045560006005553480156200004557600080fd5b506040516020806200a0d7833981018060405260208110156200006757600080fd5b810190808051906020019092919050505080600860006101000a81548173ffffffffffffffffffffffffffffffffffffffff021916908373ffffffffffffffffffffffffffffffffffffffff160217905550620000c362000128565b604051809103906000f080158015620000e0573d6000803e3d6000fd5b50600960006101000a81548173ffffffffffffffffffffffffffffffffffffffff021916908373ffffffffffffffffffffffffffffffffffffffff1602179055505062000139565b60405161060e8062009ac983390190565b61998080620001496000396000f3fe60806040526004361061022c576000357c010000000000000000000000000000000000000000000000000000000090048063750f0acc11610135578063cbd8da63116100bd578063e9a067c01161008c578063e9a067c0146115db578063f586df65146117c7578063f8353cf0146118cf578063f95643b1146119aa578063fa2f2b7714611a005761022c565b8063cbd8da6314611436578063d157796e1461147b578063df3b83771461152a578063e12ed13c146115b05761022c565b80638456cb59116101045780638456cb591461119c57806388b11bc4146111b3578063a9737595146112b0578063c33a0158146112ef578063c8ac6542146113db5761022c565b8063750f0acc14610fec57806378417214146110315780637abb421f1461107657806381686e6b146110cc5761022c565b80633f4ba83a116101b85780636222252f116101875780636222252f14610c205780636542d8ce14610d28578063689828a314610d7e5780637109b65e14610ecc57806374c0a56f14610f665761022c565b80633f4ba83a146105e35780634cb28708146105fa5780634d69a8a11461095f5780636202510914610ab75761022c565b80631513a043116101ff5780631513a043146104b857806319627609146104fd5780631cc6ffa01461053557806327e235e31461054c57806338a9e0bc146105b85761022c565b806304c075691461028757806312065fe0146102dd578063149be19f1461030f578063150b7a0214610354575b60001515610285576040517f08c379a00000000000000000000000000000000000000000000000000000000081526004018080602001828103825260248152602001806198b06024913960400191505060405180910390fd5b005b34801561029357600080fd5b506102c0600480360360208110156102aa57600080fd5b8101908080359060200190929190505050611b4e565b604051808381526020018281526020019250505060405180910390f35b3480156102e957600080fd5b506102f2611b88565b604051808381526020018281526020019250505060405180910390f35b34801561031b57600080fd5b506103526004803603604081101561033257600080fd5b810190808035906020019092919080359060200190929190505050611c19565b005b34801561036057600080fd5b506104646004803603608081101561037757600080fd5b81019080803573ffffffffffffffffffffffffffffffffffffffff169060200190929190803573ffffffffffffffffffffffffffffffffffffffff16906020019092919080359060200190929190803590602001906401000000008111156103de57600080fd5b8201836020820111156103f057600080fd5b8035906020019184600183028401116401000000008311171561041257600080fd5b91908080601f016020809104026020016040519081016040528093929190818152602001838380828437600081840152601f19601f820116905080830192505050505050509192919290505050611e75565b60405180827bffffffffffffffffffffffffffffffffffffffffffffffffffffffff19167bffffffffffffffffffffffffffffffffffffffffffffffffffffffff1916815260200191505060405180910390f35b3480156104c457600080fd5b506104fb600480360360408110156104db57600080fd5b81019080803590602001909291908035906020019092919050505061212c565b005b6105336004803603602081101561051357600080fd5b81019080803567ffffffffffffffff169060200190929190505050612423565b005b34801561054157600080fd5b5061054a6128c3565b005b34801561055857600080fd5b5061059b6004803603602081101561056f57600080fd5b81019080803573ffffffffffffffffffffffffffffffffffffffff1690602001909291905050506129ea565b604051808381526020018281526020019250505060405180910390f35b3480156105c457600080fd5b506105cd612a0e565b6040518082815260200191505060405180910390f35b3480156105ef57600080fd5b506105f8612a14565b005b34801561060657600080fd5b5061095d600480360360e081101561061d57600080fd5b810190808035906020019064010000000081111561063a57600080fd5b82018360208201111561064c57600080fd5b8035906020019184600183028401116401000000008311171561066e57600080fd5b91908080601f016020809104026020016040519081016040528093929190818152602001838380828437600081840152601f19601f820116905080830192505050505050509192919290803590602001906401000000008111156106d157600080fd5b8201836020820111156106e357600080fd5b8035906020019184600183028401116401000000008311171561070557600080fd5b91908080601f016020809104026020016040519081016040528093929190818152602001838380828437600081840152601f19601f8201169050808301925050505050505091929192908035906020019064010000000081111561076857600080fd5b82018360208201111561077a57600080fd5b8035906020019184600183028401116401000000008311171561079c57600080fd5b91908080601f016020809104026020016040519081016040528093929190818152602001838380828437600081840152601f19601f820116905080830192505050505050509192919290803590602001906401000000008111156107ff57600080fd5b82018360208201111561081157600080fd5b8035906020019184600183028401116401000000008311171561083357600080fd5b91908080601f016020809104026020016040519081016040528093929190818152602001838380828437600081840152601f19601f8201169050808301925050505050505091929192908035906020019064010000000081111561089657600080fd5b8201836020820111156108a857600080fd5b803590602001918460018302840111640100000000831117156108ca57600080fd5b91908080601f016020809104026020016040519081016040528093929190818152602001838380828437600081840152601f19601f82011690508083019250505050505050919291929080604001906002806020026040519081016040528092919082600260200280828437600081840152601f19601f8201169050808301925050505050509192919290505050612bd6565b005b34801561096b57600080fd5b50610ab5600480360360c081101561098257600080fd5b81019080803567ffffffffffffffff1690602001909291908035906020019092919080359060200190929190803590602001906401000000008111156109c757600080fd5b8201836020820111156109d957600080fd5b803590602001918460018302840111640100000000831117156109fb57600080fd5b909192939192939080359060200190640100000000811115610a1c57600080fd5b820183602082011115610a2e57600080fd5b80359060200191846001830284011164010000000083111715610a5057600080fd5b909192939192939080359060200190640100000000811115610a7157600080fd5b820183602082011115610a8357600080fd5b80359060200191846001830284011164010000000083111715610aa557600080fd5b9091929391929390505050612c67565b005b348015610ac357600080fd5b50610c1e60048036036060811015610ada57600080fd5b8101908080359060200190640100000000811115610af757600080fd5b820183602082011115610b0957600080fd5b80359060200191846001830284011164010000000083111715610b2b57600080fd5b91908080601f016020809104026020016040519081016040528093929190818152602001838380828437600081840152601f19601f82011690508083019250505050505050919291929080359060200190640100000000811115610b8e57600080fd5b820183602082011115610ba057600080fd5b80359060200191846001830284011164010000000083111715610bc257600080fd5b91908080601f016020809104026020016040519081016040528093929190818152602001838380828437600081840152601f19601f82011690508083019250505050505050919291929080359060200190929190505050612efa565b005b348015610c2c57600080fd5b50610d0e60048036036080811015610c4357600080fd5b810190808035906020019092919080359060200190929190803567ffffffffffffffff16906020019092919080359060200190640100000000811115610c8857600080fd5b820183602082011115610c9a57600080fd5b80359060200191846001830284011164010000000083111715610cbc57600080fd5b91908080601f016020809104026020016040519081016040528093929190818152602001838380828437600081840152601f19601f820116905080830192505050505050509192919290505050612f0b565b604051808215151515815260200191505060405180910390f35b348015610d3457600080fd5b50610d6160048036036020811015610d4b57600080fd5b8101908080359060200190929190505050612fef565b604051808381526020018281526020019250505060405180910390f35b348015610d8a57600080fd5b50610eca600480360360a0811015610da157600080fd5b81019080803567ffffffffffffffff16906020019092919080359060200190640100000000811115610dd257600080fd5b820183602082011115610de457600080fd5b80359060200191846001830284011164010000000083111715610e0657600080fd5b909192939192939080359060200190640100000000811115610e2757600080fd5b820183602082011115610e3957600080fd5b80359060200191846001830284011164010000000083111715610e5b57600080fd5b909192939192939080359060200190640100000000811115610e7c57600080fd5b820183602082011115610e8e57600080fd5b80359060200191846001830284011164010000000083111715610eb057600080fd5b909192939192939080359060200190929190505050613029565b005b348015610ed857600080fd5b50610f0f60048036036020811015610eef57600080fd5b81019080803567ffffffffffffffff1690602001909291905050506131de565b6040518080602001828103825283818151815260200191508051906020019060200280838360005b83811015610f52578082015181840152602081019050610f37565b505050509050019250505060405180910390f35b348015610f7257600080fd5b50610fea60048036036020811015610f8957600080fd5b8101908080359060200190640100000000811115610fa657600080fd5b820183602082011115610fb857600080fd5b80359060200191846020830284011164010000000083111715610fda57600080fd5b90919293919293905050506132cb565b005b348015610ff857600080fd5b5061102f6004803603602081101561100f57600080fd5b81019080803567ffffffffffffffff16906020019092919050505061331b565b005b34801561103d57600080fd5b506110746004803603602081101561105457600080fd5b81019080803567ffffffffffffffff1690602001909291905050506139e8565b005b34801561108257600080fd5b506110af6004803603602081101561109957600080fd5b8101908080359060200190929190505050613df6565b604051808381526020018281526020019250505060405180910390f35b3480156110d857600080fd5b50611119600480360360408110156110ef57600080fd5b81019080803567ffffffffffffffff16906020019092919080359060200190929190505050613e1a565b604051808573ffffffffffffffffffffffffffffffffffffffff1673ffffffffffffffffffffffffffffffffffffffff1681526020018473ffffffffffffffffffffffffffffffffffffffff1673ffffffffffffffffffffffffffffffffffffffff16815260200183815260200182815260200194505050505060405180910390f35b3480156111a857600080fd5b506111b1613f9c565b005b3480156111bf57600080fd5b50611296600480360360608110156111d657600080fd5b81019080803590602001906401000000008111156111f357600080fd5b82018360208201111561120557600080fd5b8035906020019184600183028401116401000000008311171561122757600080fd5b90919293919293908035906020019064010000000081111561124857600080fd5b82018360208201111561125a57600080fd5b8035906020019184600183028401116401000000008311171561127c57600080fd5b90919293919293908035906020019092919050505061415e565b604051808215151515815260200191505060405180910390f35b3480156112bc57600080fd5b506112c5614201565b604051808267ffffffffffffffff1667ffffffffffffffff16815260200191505060405180910390f35b6113d96004803603608081101561130557600080fd5b81019080803567ffffffffffffffff1690602001909291908035906020019064010000000081111561133657600080fd5b82018360208201111561134857600080fd5b8035906020019184600183028401116401000000008311171561136a57600080fd5b90919293919293908035906020019064010000000081111561138b57600080fd5b82018360208201111561139d57600080fd5b803590602001918460018302840111640100000000831117156113bf57600080fd5b90919293919293908035906020019092919050505061421b565b005b3480156113e757600080fd5b50611434600480360360408110156113fe57600080fd5b8101908080359060200190929190803573ffffffffffffffffffffffffffffffffffffffff169060200190929190505050614521565b005b34801561144257600080fd5b506114796004803603602081101561145957600080fd5b81019080803567ffffffffffffffff169060200190929190505050614614565b005b34801561148757600080fd5b506114be6004803603602081101561149e57600080fd5b81019080803567ffffffffffffffff169060200190929190505050614885565b604051808673ffffffffffffffffffffffffffffffffffffffff1673ffffffffffffffffffffffffffffffffffffffff16815260200185815260200184815260200183600281111561150c57fe5b60ff1681526020018281526020019550505050505060405180910390f35b34801561153657600080fd5b506115ae6004803603602081101561154d57600080fd5b810190808035906020019064010000000081111561156a57600080fd5b82018360208201111561157c57600080fd5b8035906020019184602083028401116401000000008311171561159e57600080fd5b9091929391929390505050614a29565b005b3480156115bc57600080fd5b506115c5614a79565b6040518082815260200191505060405180910390f35b6117c560048036036101008110156115f257600080fd5b81019080803567ffffffffffffffff1690602001909291908035906020019064010000000081111561162357600080fd5b82018360208201111561163557600080fd5b8035906020019184600183028401116401000000008311171561165757600080fd5b90919293919293908035906020019064010000000081111561167857600080fd5b82018360208201111561168a57600080fd5b803590602001918460018302840111640100000000831117156116ac57600080fd5b9091929391929390803590602001906401000000008111156116cd57600080fd5b8201836020820111156116df57600080fd5b8035906020019184600183028401116401000000008311171561170157600080fd5b90919293919293908035906020019064010000000081111561172257600080fd5b82018360208201111561173457600080fd5b8035906020019184600183028401116401000000008311171561175657600080fd5b90919293919293908035906020019064010000000081111561177757600080fd5b82018360208201111561178957600080fd5b803590602001918460018302840111640100000000831117156117ab57600080fd5b909192939192939080604001909192919290505050614a7f565b005b3480156117d357600080fd5b506118b5600480360360808110156117ea57600080fd5b810190808035906020019092919080359060200190929190803567ffffffffffffffff1690602001909291908035906020019064010000000081111561182f57600080fd5b82018360208201111561184157600080fd5b8035906020019184600183028401116401000000008311171561186357600080fd5b91908080601f016020809104026020016040519081016040528093929190818152602001838380828437600081840152601f19601f820116905080830192505050505050509192919290505050614f3c565b604051808215151515815260200191505060405180910390f35b3480156118db57600080fd5b50611912600480360360208110156118f257600080fd5b81019080803567ffffffffffffffff1690602001909291905050506150a3565b604051808681526020018581526020018473ffffffffffffffffffffffffffffffffffffffff1673ffffffffffffffffffffffffffffffffffffffff16815260200183600281111561196057fe5b60ff1681526020018273ffffffffffffffffffffffffffffffffffffffff1673ffffffffffffffffffffffffffffffffffffffff1681526020019550505050505060405180910390f35b3480156119b657600080fd5b506119e3600480360360208110156119cd57600080fd5b8101908080359060200190929190505050615313565b604051808381526020018281526020019250505060405180910390f35b348015611a0c57600080fd5b50611b4c600480360360a0811015611a2357600080fd5b81019080803567ffffffffffffffff16906020019092919080359060200190640100000000811115611a5457600080fd5b820183602082011115611a6657600080fd5b80359060200191846001830284011164010000000083111715611a8857600080fd5b909192939192939080359060200190640100000000811115611aa957600080fd5b820183602082011115611abb57600080fd5b80359060200191846001830284011164010000000083111715611add57600080fd5b909192939192939080359060200190640100000000811115611afe57600080fd5b820183602082011115611b1057600080fd5b80359060200191846001830284011164010000000083111715611b3257600080fd5b909192939192939080359060200190929190505050615337565b005b6000806006600084815260200190815260200160002060000154600660008581526020019081526020016000206001015491509150915091565b600080600160003373ffffffffffffffffffffffffffffffffffffffff1673ffffffffffffffffffffffffffffffffffffffff16815260200190815260200160002060000154600160003373ffffffffffffffffffffffffffffffffffffffff1673ffffffffffffffffffffffffffffffffffffffff16815260200190815260200160002060010154915091509091565b600860009054906101000a900473ffffffffffffffffffffffffffffffffffffffff1673ffffffffffffffffffffffffffffffffffffffff1663797327ae336040518263ffffffff167c0100000000000000000000000000000000000000000000000000000000028152600401808273ffffffffffffffffffffffffffffffffffffffff1673ffffffffffffffffffffffffffffffffffffffff16815260200191505060206040518083038186803b158015611cd457600080fd5b505afa158015611ce8573d6000803e3d6000fd5b505050506040513d6020811015611cfe57600080fd5b81019080805190602001909291905050501515611d83576040517f08c379a00000000000000000000000000000000000000000000000000000000081526004018080602001828103825260198152602001807f53656e646572206973206e6f7420612056616c696461746f720000000000000081525060200191505060405180910390fd5b6005548210151515611de0576040517f08c379a000000000000000000000000000000000000000000000000000000000815260040180806020018281038252603281526020018061987e6032913960400191505060405180910390fd5b8160058190555060408051908101604052808281526020014281525060066000600554815260200190815260200160002060008201518160000155602082015181600101559050507f6d91cd6ccac8368394df514e6aee19a55264f5ab49a891af91ca86da27bedd4f600554824260405180848152602001838152602001828152602001935050505060405180910390a15050565b600033600860009054906101000a900473ffffffffffffffffffffffffffffffffffffffff1673ffffffffffffffffffffffffffffffffffffffff1663e744092e826040518263ffffffff167c0100000000000000000000000000000000000000000000000000000000028152600401808273ffffffffffffffffffffffffffffffffffffffff1673ffffffffffffffffffffffffffffffffffffffff16815260200191505060206040518083038186803b158015611f3357600080fd5b505afa158015611f47573d6000803e3d6000fd5b505050506040513d6020811015611f5d57600080fd5b81019080805190602001909291905050501515611fc5576040517f08c379a000000000000000000000000000000000000000000000000000000000815260040180806020018281038252602d815260200180619574602d913960400191505060405180910390fd5b3073ffffffffffffffffffffffffffffffffffffffff163373ffffffffffffffffffffffffffffffffffffffff16636352211e866040518263ffffffff167c01000000000000000000000000000000000000000000000000000000000281526004018082815260200191505060206040518083038186803b15801561204957600080fd5b505afa15801561205d573d6000803e3d6000fd5b505050506040513d602081101561207357600080fd5b810190808051906020019092919050505073ffffffffffffffffffffffffffffffffffffffff161415156120f2576040517f08c379a00000000000000000000000000000000000000000000000000000000081526004018080602001828103825260228152602001806193d26022913960400191505060405180910390fd5b6120fd8533866154ec565b63150b7a027c010000000000000000000000000000000000000000000000000000000002915050949350505050565b600860009054906101000a900473ffffffffffffffffffffffffffffffffffffffff1673ffffffffffffffffffffffffffffffffffffffff1663797327ae336040518263ffffffff167c0100000000000000000000000000000000000000000000000000000000028152600401808273ffffffffffffffffffffffffffffffffffffffff1673ffffffffffffffffffffffffffffffffffffffff16815260200191505060206040518083038186803b1580156121e757600080fd5b505afa1580156121fb573d6000803e3d6000fd5b505050506040513d602081101561221157600080fd5b81019080805190602001909291905050501515612296576040517f08c379a00000000000000000000000000000000000000000000000000000000081526004018080602001828103825260198152602001807f53656e646572206973206e6f7420612056616c696461746f720000000000000081525060200191505060405180910390fd5b61229e618fa5565b600660008481526020019081526020016000206040805190810160405290816000820154815260200160018201548152505090506000600102816000015114151515612335576040517f08c379a00000000000000000000000000000000000000000000000000000000081526004018080602001828103825260438152602001806195c96043913960600191505060405180910390fd5b6201518081602001514203101515612398576040517f08c379a00000000000000000000000000000000000000000000000000000000081526004018080602001828103825260268152602001806193f46026913960400191505060405180910390fd5b6040805190810160405280838152602001428152506007600085815260200190815260200160002060008201518160000155602082015181600101559050507ff2899e36485db2b5838848eae26a10a1a468cca7ed04ad75170322b00f7d134983834260405180848152602001838152602001828152602001935050505060405180910390a1505050565b67016345785d8a000034141515612485576040517f08c379a000000000000000000000000000000000000000000000000000000000815260040180806020018281038252603281526020018061941a6032913960400191505060405180910390fd5b6124da34600160003373ffffffffffffffffffffffffffffffffffffffff1673ffffffffffffffffffffffffffffffffffffffff168152602001908152602001600020600001546158bd90919063ffffffff16565b600160003373ffffffffffffffffffffffffffffffffffffffff1673ffffffffffffffffffffffffffffffffffffffff1681526020019081526020016000206000018190555080600080600281111561252f57fe5b600360008467ffffffffffffffff1667ffffffffffffffff16815260200190815260200160002060000160009054906101000a900460ff16600281111561257257fe5b1415156125e7576040517f08c379a00000000000000000000000000000000000000000000000000000000081526004018080602001828103825260108152602001807f57726f6e6720636f696e2073746174650000000000000000000000000000000081525060200191505060405180910390fd5b6125ef618fc2565b600360008567ffffffffffffffff1667ffffffffffffffff16815260200190815260200160002060c060405190810160405290816000820160009054906101000a900460ff16600281111561264057fe5b600281111561264b57fe5b81526020016000820160019054906101000a900473ffffffffffffffffffffffffffffffffffffffff1673ffffffffffffffffffffffffffffffffffffffff1673ffffffffffffffffffffffffffffffffffffffff1681526020016001820160009054906101000a900473ffffffffffffffffffffffffffffffffffffffff1673ffffffffffffffffffffffffffffffffffffffff1673ffffffffffffffffffffffffffffffffffffffff1681526020016002820160c060405190810160405290816000820160009054906101000a900467ffffffffffffffff1667ffffffffffffffff1667ffffffffffffffff1681526020016000820160089054906101000a900473ffffffffffffffffffffffffffffffffffffffff1673ffffffffffffffffffffffffffffffffffffffff1673ffffffffffffffffffffffffffffffffffffffff1681526020016001820160009054906101000a900473ffffffffffffffffffffffffffffffffffffffff1673ffffffffffffffffffffffffffffffffffffffff1673ffffffffffffffffffffffffffffffffffffffff168152602001600282015481526020016003820154815260200160048201548152505081526020016007820154815260200160088201548152505090503373ffffffffffffffffffffffffffffffffffffffff16816020015173ffffffffffffffffffffffffffffffffffffffff161415156128ac576040517f08c379a00000000000000000000000000000000000000000000000000000000081526004018080602001828103825260238152602001806199326023913960400191505060405180910390fd5b6128bd846000808460a001516158de565b50505050565b6000600160003373ffffffffffffffffffffffffffffffffffffffff1673ffffffffffffffffffffffffffffffffffffffff1681526020019081526020016000206001015490506000600160003373ffffffffffffffffffffffffffffffffffffffff1673ffffffffffffffffffffffffffffffffffffffff168152602001908152602001600020600101819055503373ffffffffffffffffffffffffffffffffffffffff166108fc829081150290604051600060405180830381858888f19350505050158015612998573d6000803e3d6000fd5b503373ffffffffffffffffffffffffffffffffffffffff167fba49a755e2e4831fb6ef34b384178b03af45679532c9ac5a2199b27b4dddea8d826040518082815260200191505060405180910390a250565b60016020528060005260406000206000915090508060000154908060010154905082565b60045481565b600860009054906101000a900473ffffffffffffffffffffffffffffffffffffffff1673ffffffffffffffffffffffffffffffffffffffff1663797327ae336040518263ffffffff167c0100000000000000000000000000000000000000000000000000000000028152600401808273ffffffffffffffffffffffffffffffffffffffff1673ffffffffffffffffffffffffffffffffffffffff16815260200191505060206040518083038186803b158015612acf57600080fd5b505afa158015612ae3573d6000803e3d6000fd5b505050506040513d6020811015612af957600080fd5b81019080805190602001909291905050501515612b7e576040517f08c379a00000000000000000000000000000000000000000000000000000000081526004018080602001828103825260198152602001807f53656e646572206973206e6f7420612056616c696461746f720000000000000081525060200191505060405180910390fd5b60008060006101000a81548160ff0219169083151502179055507f0e2fb031ee032dc02d8011dc50b816eb450cf856abd8261680dac74f72165bd26000604051808215151515815260200191505060405180910390a1565b6000600454826001600281101515612bea57fe5b6020020151811515612bf857fe5b06141515612c51576040517f08c379a000000000000000000000000000000000000000000000000000000000815260040180806020018281038252603781526020018061944c6037913960400191505060405180910390fd5b612c5f868686868686615aca565b505050505050565b612ca088600260008c67ffffffffffffffff1667ffffffffffffffff168152602001908152602001600020615cab90919063ffffffff16565b1515612cf7576040517f08c379a00000000000000000000000000000000000000000000000000000000081526004018080602001828103825260248152602001806193836024913960400191505060405180910390fd5b6000612d3289600260008d67ffffffffffffffff1667ffffffffffffffff168152602001908152602001600020615ce790919063ffffffff16565b9050612e0e8a828a8a8a8080601f016020809104026020016040519081016040528093929190818152602001838380828437600081840152601f19601f8201169050808301925050505050505087878080601f016020809104026020016040519081016040528093929190818152602001838380828437600081840152601f19601f820116905080830192505050505050508a8a8080601f016020809104026020016040519081016040528093929190818152602001838380828437600081840152601f19601f82011690508083019250505050505050615d63565b612e7d600260008c67ffffffffffffffff1667ffffffffffffffff16815260200190815260200160002082815481101515612e4557fe5b906000526020600020906004020160010160009054906101000a900473ffffffffffffffffffffffffffffffffffffffff1633616029565b612eb689600260008d67ffffffffffffffff1667ffffffffffffffff1681526020019081526020016000206161e090919063ffffffff16565b508967ffffffffffffffff167f7deeb80e1644537d3ba4f917cfcbaba62b54354e9f2598d6885d52e359885e2560405160405180910390a250505050505050505050565b612f05838383616235565b50505050565b6000612f15618fa5565b60066000868152602001908152602001600020604080519081016040529081600082015481526020016001820154815250509050600060045486811515612f5857fe5b06141515612fd357806000015186148015612fcb5750806000015184604051602001808267ffffffffffffffff1667ffffffffffffffff16780100000000000000000000000000000000000000000000000002815260080191505060405160208183030381529060405280519060200120145b915050612fe7565b612fe38682600001518686614f3c565b9150505b949350505050565b6000806007600084815260200190815260200160002060000154600760008581526020019081526020016000206001015491509150915091565b87600180600281111561303857fe5b600360008467ffffffffffffffff1667ffffffffffffffff16815260200190815260200160002060000160009054906101000a900460ff16600281111561307b57fe5b1415156130f0576040517f08c379a00000000000000000000000000000000000000000000000000000000081526004018080602001828103825260108152602001807f57726f6e6720636f696e2073746174650000000000000000000000000000000081525060200191505060405180910390fd5b6131c98a8a8a8080601f016020809104026020016040519081016040528093929190818152602001838380828437600081840152601f19601f8201169050808301925050505050505089898080601f016020809104026020016040519081016040528093929190818152602001838380828437600081840152601f19601f8201169050808301925050505050505088888080601f016020809104026020016040519081016040528093929190818152602001838380828437600081840152601f19601f8201169050808301925050505050505087616727565b6131d28a6169f9565b50505050505050505050565b60606000600260008467ffffffffffffffff1667ffffffffffffffff1681526020019081526020016000208054905090506060816040519080825280602002602001820160405280156132405781602001602082028038833980820191505090505b50905060008090505b828110156132c057600260008667ffffffffffffffff1667ffffffffffffffff1681526020019081526020016000208181548110151561328557fe5b90600052602060002090600402016002015482828151811015156132a557fe5b90602001906020020181815250508080600101915050613249565b508092505050919050565b600082829050905060008090505b818110156133155761330884848381811015156132f257fe5b9050602002013567ffffffffffffffff166139e8565b80806001019150506132d9565b50505050565b80600280600281111561332a57fe5b600360008467ffffffffffffffff1667ffffffffffffffff16815260200190815260200160002060000160009054906101000a900460ff16600281111561336d57fe5b1415156133e2576040517f08c379a00000000000000000000000000000000000000000000000000000000081526004018080602001828103825260108152602001807f57726f6e6720636f696e2073746174650000000000000000000000000000000081525060200191505060405180910390fd5b3373ffffffffffffffffffffffffffffffffffffffff16600360008567ffffffffffffffff1667ffffffffffffffff16815260200190815260200160002060000160019054906101000a900473ffffffffffffffffffffffffffffffffffffffff1673ffffffffffffffffffffffffffffffffffffffff161415156134cf576040517f08c379a00000000000000000000000000000000000000000000000000000000081526004018080602001828103825260188152602001807f596f7520646f206e6f74206f776e2074686174205554584f000000000000000081525060200191505060405180910390fd5b6000600360008567ffffffffffffffff1667ffffffffffffffff168152602001908152602001600020600701549050613506618fc2565b600360008667ffffffffffffffff1667ffffffffffffffff16815260200190815260200160002060c060405190810160405290816000820160009054906101000a900460ff16600281111561355757fe5b600281111561356257fe5b81526020016000820160019054906101000a900473ffffffffffffffffffffffffffffffffffffffff1673ffffffffffffffffffffffffffffffffffffffff1673ffffffffffffffffffffffffffffffffffffffff1681526020016001820160009054906101000a900473ffffffffffffffffffffffffffffffffffffffff1673ffffffffffffffffffffffffffffffffffffffff1673ffffffffffffffffffffffffffffffffffffffff1681526020016002820160c060405190810160405290816000820160009054906101000a900467ffffffffffffffff1667ffffffffffffffff1667ffffffffffffffff1681526020016000820160089054906101000a900473ffffffffffffffffffffffffffffffffffffffff1673ffffffffffffffffffffffffffffffffffffffff1673ffffffffffffffffffffffffffffffffffffffff1681526020016001820160009054906101000a900473ffffffffffffffffffffffffffffffffffffffff1673ffffffffffffffffffffffffffffffffffffffff1673ffffffffffffffffffffffffffffffffffffffff16815260200160028201548152602001600382015481526020016004820154815250508152602001600782015481526020016008820154815250509050600360008667ffffffffffffffff1667ffffffffffffffff168152602001908152602001600020600080820160006101000a81549060ff02191690556000820160016101000a81549073ffffffffffffffffffffffffffffffffffffffff02191690556001820160006101000a81549073ffffffffffffffffffffffffffffffffffffffff021916905560028201600080820160006101000a81549067ffffffffffffffff02191690556000820160086101000a81549073ffffffffffffffffffffffffffffffffffffffff02191690556001820160006101000a81549073ffffffffffffffffffffffffffffffffffffffff02191690556002820160009055600382016000905560048201600090555050600782016000905560088201600090555050806040015173ffffffffffffffffffffffffffffffffffffffff166342842e0e3033856040518463ffffffff167c0100000000000000000000000000000000000000000000000000000000028152600401808473ffffffffffffffffffffffffffffffffffffffff1673ffffffffffffffffffffffffffffffffffffffff1681526020018373ffffffffffffffffffffffffffffffffffffffff1673ffffffffffffffffffffffffffffffffffffffff1681526020018281526020019350505050600060405180830381600087803b15801561393857600080fd5b505af115801561394c573d6000803e3d6000fd5b505050508467ffffffffffffffff163373ffffffffffffffffffffffffffffffffffffffff167fbb8c77f80d40a232c518e16058c59d0d555d9d775622b4839c7039007d10a037836040015185604051808373ffffffffffffffffffffffffffffffffffffffff1673ffffffffffffffffffffffffffffffffffffffff1681526020018281526020019250505060405180910390a35050505050565b8060018060028111156139f757fe5b600360008467ffffffffffffffff1667ffffffffffffffff16815260200190815260200160002060000160009054906101000a900460ff166002811115613a3a57fe5b141515613aaf576040517f08c379a00000000000000000000000000000000000000000000000000000000081526004018080602001828103825260108152602001807f57726f6e6720636f696e2073746174650000000000000000000000000000000081525060200191505060405180910390fd5b6000600360008567ffffffffffffffff1667ffffffffffffffff168152602001908152602001600020905062093a8081600201600201544203111515613b40576040517f08c379a000000000000000000000000000000000000000000000000000000000815260040180806020018281038252603c815260200180619802603c913960400191505060405180910390fd5b6000613b4b85616be5565b9050801515613ca8578160020160010160009054906101000a900473ffffffffffffffffffffffffffffffffffffffff168260000160016101000a81548173ffffffffffffffffffffffffffffffffffffffff021916908373ffffffffffffffffffffffffffffffffffffffff16021790555060028260000160006101000a81548160ff02191690836002811115613bdf57fe5b0217905550613c118260000160019054906101000a900473ffffffffffffffffffffffffffffffffffffffff16616e6d565b8467ffffffffffffffff167f432647a5fb9bdea356d78f8e3d83b6ddc2e78b4e4a702ac7eb968f7fe03d9dda8360000160019054906101000a900473ffffffffffffffffffffffffffffffffffffffff16604051808273ffffffffffffffffffffffffffffffffffffffff1673ffffffffffffffffffffffffffffffffffffffff16815260200191505060405180910390a2613d41565b60008260000160006101000a81548160ff02191690836002811115613cc957fe5b02179055508160000160019054906101000a900473ffffffffffffffffffffffffffffffffffffffff1673ffffffffffffffffffffffffffffffffffffffff168567ffffffffffffffff167f35cc9c4d0d9a2ce748d131382582af17dbf1f0d72167ea7906ea3f18597b31a460405160405180910390a35b600360008667ffffffffffffffff1667ffffffffffffffff168152602001908152602001600020600201600080820160006101000a81549067ffffffffffffffff02191690556000820160086101000a81549073ffffffffffffffffffffffffffffffffffffffff02191690556001820160006101000a81549073ffffffffffffffffffffffffffffffffffffffff021916905560028201600090556003820160009055600482016000905550505050505050565b60076020528060005260406000206000915090508060000154908060010154905082565b6000806000806000613e5b86600260008a67ffffffffffffffff1667ffffffffffffffff168152602001908152602001600020615ce790919063ffffffff16565b9050613e65619037565b600260008967ffffffffffffffff1667ffffffffffffffff16815260200190815260200160002082815481101515613e9957fe5b9060005260206000209060040201608060405190810160405290816000820160009054906101000a900473ffffffffffffffffffffffffffffffffffffffff1673ffffffffffffffffffffffffffffffffffffffff1673ffffffffffffffffffffffffffffffffffffffff1681526020016001820160009054906101000a900473ffffffffffffffffffffffffffffffffffffffff1673ffffffffffffffffffffffffffffffffffffffff1673ffffffffffffffffffffffffffffffffffffffff16815260200160028201548152602001600382015481525050905080600001518160200151826040015183606001519550955095509550505092959194509250565b600860009054906101000a900473ffffffffffffffffffffffffffffffffffffffff1673ffffffffffffffffffffffffffffffffffffffff1663797327ae336040518263ffffffff167c0100000000000000000000000000000000000000000000000000000000028152600401808273ffffffffffffffffffffffffffffffffffffffff1673ffffffffffffffffffffffffffffffffffffffff16815260200191505060206040518083038186803b15801561405757600080fd5b505afa15801561406b573d6000803e3d6000fd5b505050506040513d602081101561408157600080fd5b81019080805190602001909291905050501515614106576040517f08c379a00000000000000000000000000000000000000000000000000000000081526004018080602001828103825260198152602001807f53656e646572206973206e6f7420612056616c696461746f720000000000000081525060200191505060405180910390fd5b60016000806101000a81548160ff0219169083151502179055507f0e2fb031ee032dc02d8011dc50b816eb450cf856abd8261680dac74f72165bd26001604051808215151515815260200191505060405180910390a1565b60006141f386868080601f016020809104026020016040519081016040528093929190818152602001838380828437600081840152601f19601f8201169050808301925050505050505085858080601f016020809104026020016040519081016040528093929190818152602001838380828437600081840152601f19601f8201169050808301925050505050505084616235565b506001905095945050505050565b600060019054906101000a900467ffffffffffffffff1681565b67016345785d8a00003414151561427d576040517f08c379a000000000000000000000000000000000000000000000000000000000815260040180806020018281038252603281526020018061941a6032913960400191505060405180910390fd5b6142d234600160003373ffffffffffffffffffffffffffffffffffffffff1673ffffffffffffffffffffffffffffffffffffffff168152602001908152602001600020600001546158bd90919063ffffffff16565b600160003373ffffffffffffffffffffffffffffffffffffffff1673ffffffffffffffffffffffffffffffffffffffff1681526020019081526020016000206000018190555085600180600281111561432757fe5b600360008467ffffffffffffffff1667ffffffffffffffff16815260200190815260200160002060000160009054906101000a900460ff16600281111561436a57fe5b1415156143df576040517f08c379a00000000000000000000000000000000000000000000000000000000081526004018080602001828103825260108152602001807f57726f6e6720636f696e2073746174650000000000000000000000000000000081525060200191505060405180910390fd5b6144738888888080601f016020809104026020016040519081016040528093929190818152602001838380828437600081840152601f19601f8201169050808301925050505050505087878080601f016020809104026020016040519081016040528093929190818152602001838380828437600081840152601f19601f820116905080830192505050505050508661700c565b614517886144c489898080601f016020809104026020016040519081016040528093929190818152602001838380828437600081840152601f19601f8201169050808301925050505050505061713f565b856145128b8b8080601f016020809104026020016040519081016040528093929190818152602001838380828437600081840152601f19601f8201169050808301925050505050505061721a565b6172f4565b5050505050505050565b8073ffffffffffffffffffffffffffffffffffffffff166342842e0e3330856040518463ffffffff167c0100000000000000000000000000000000000000000000000000000000028152600401808473ffffffffffffffffffffffffffffffffffffffff1673ffffffffffffffffffffffffffffffffffffffff1681526020018373ffffffffffffffffffffffffffffffffffffffff1673ffffffffffffffffffffffffffffffffffffffff1681526020018281526020019350505050600060405180830381600087803b1580156145f857600080fd5b505af115801561460c573d6000803e3d6000fd5b505050505050565b3373ffffffffffffffffffffffffffffffffffffffff16600360008367ffffffffffffffff1667ffffffffffffffff16815260200190815260200160002060020160010160009054906101000a900473ffffffffffffffffffffffffffffffffffffffff1673ffffffffffffffffffffffffffffffffffffffff161415156146e7576040517f08c379a000000000000000000000000000000000000000000000000000000000815260040180806020018281038252602f81526020018061970d602f913960400191505060405180910390fd5b600360008267ffffffffffffffff1667ffffffffffffffff168152602001908152602001600020600201600080820160006101000a81549067ffffffffffffffff02191690556000820160086101000a81549073ffffffffffffffffffffffffffffffffffffffff02191690556001820160006101000a81549073ffffffffffffffffffffffffffffffffffffffff021916905560028201600090556003820160009055600482016000905550506000600360008367ffffffffffffffff1667ffffffffffffffff16815260200190815260200160002060000160006101000a81548160ff021916908360028111156147dc57fe5b02179055506147ea33616e6d565b600360008267ffffffffffffffff1667ffffffffffffffff16815260200190815260200160002060000160019054906101000a900473ffffffffffffffffffffffffffffffffffffffff1673ffffffffffffffffffffffffffffffffffffffff168167ffffffffffffffff167f35cc9c4d0d9a2ce748d131382582af17dbf1f0d72167ea7906ea3f18597b31a460405160405180910390a350565b600080600080600061489561908f565b600360008867ffffffffffffffff1667ffffffffffffffff16815260200190815260200160002060020160c060405190810160405290816000820160009054906101000a900467ffffffffffffffff1667ffffffffffffffff1667ffffffffffffffff1681526020016000820160089054906101000a900473ffffffffffffffffffffffffffffffffffffffff1673ffffffffffffffffffffffffffffffffffffffff1673ffffffffffffffffffffffffffffffffffffffff1681526020016001820160009054906101000a900473ffffffffffffffffffffffffffffffffffffffff1673ffffffffffffffffffffffffffffffffffffffff1673ffffffffffffffffffffffffffffffffffffffff16815260200160028201548152602001600382015481526020016004820154815250509050806040015181608001518260a00151600360008b67ffffffffffffffff1667ffffffffffffffff16815260200190815260200160002060000160009054906101000a900460ff168460600151955095509550955095505091939590929450565b600082829050905060008090505b81811015614a7357614a668484838181101515614a5057fe5b9050602002013567ffffffffffffffff16614614565b8080600101915050614a37565b50505050565b60055481565b67016345785d8a000034141515614ae1576040517f08c379a000000000000000000000000000000000000000000000000000000000815260040180806020018281038252603281526020018061941a6032913960400191505060405180910390fd5b614b3634600160003373ffffffffffffffffffffffffffffffffffffffff1673ffffffffffffffffffffffffffffffffffffffff168152602001908152602001600020600001546158bd90919063ffffffff16565b600160003373ffffffffffffffffffffffffffffffffffffffff1673ffffffffffffffffffffffffffffffffffffffff168152602001908152602001600020600001819055508b6000806002811115614b8b57fe5b600360008467ffffffffffffffff1667ffffffffffffffff16815260200190815260200160002060000160009054906101000a900460ff166002811115614bce57fe5b141515614c43576040517f08c379a00000000000000000000000000000000000000000000000000000000081526004018080602001828103825260108152602001807f57726f6e6720636f696e2073746174650000000000000000000000000000000081525060200191505060405180910390fd5b614c908b8b8080601f016020809104026020016040519081016040528093929190818152602001838380828437600081840152601f19601f8201169050808301925050505050505061713f565b73ffffffffffffffffffffffffffffffffffffffff163373ffffffffffffffffffffffffffffffffffffffff16141515614d15576040517f08c379a000000000000000000000000000000000000000000000000000000000815260040180806020018281038252602a81526020018061978b602a913960400191505060405180910390fd5b614eae8d8d8080601f016020809104026020016040519081016040528093929190818152602001838380828437600081840152601f19601f820116905080830192505050505050508c8c8080601f016020809104026020016040519081016040528093929190818152602001838380828437600081840152601f19601f820116905080830192505050505050508b8b8080601f016020809104026020016040519081016040528093929190818152602001838380828437600081840152601f19601f820116905080830192505050505050508a8a8080601f016020809104026020016040519081016040528093929190818152602001838380828437600081840152601f19601f8201169050808301925050505050505089898080601f016020809104026020016040519081016040528093929190818152602001838380828437600081840152601f19601f82011690508083019250505050505050886002806020026040519081016040528092919082600260200280828437600081840152601f19601f820116905080830192505050505050612bd6565b614f2c8e614eff8f8f8080601f016020809104026020016040519081016040528093929190818152602001838380828437600081840152601f19601f8201169050808301925050505050505061713f565b856000600281101515614f0e57fe5b6020020135866001600281101515614f2257fe5b60200201356158de565b5050505050505050505050505050565b6000600960009054906101000a900473ffffffffffffffffffffffffffffffffffffffff1673ffffffffffffffffffffffffffffffffffffffff1663f586df65868686866040518563ffffffff167c0100000000000000000000000000000000000000000000000000000000028152600401808581526020018481526020018367ffffffffffffffff1667ffffffffffffffff16815260200180602001828103825283818151815260200191508051906020019080838360005b83811015615011578082015181840152602081019050614ff6565b50505050905090810190601f16801561503e5780820380516001836020036101000a031916815260200191505b509550505050505060206040518083038186803b15801561505e57600080fd5b505afa158015615072573d6000803e3d6000fd5b505050506040513d602081101561508857600080fd5b81019080805190602001909291905050509050949350505050565b60008060008060006150b3618fc2565b600360008867ffffffffffffffff1667ffffffffffffffff16815260200190815260200160002060c060405190810160405290816000820160009054906101000a900460ff16600281111561510457fe5b600281111561510f57fe5b81526020016000820160019054906101000a900473ffffffffffffffffffffffffffffffffffffffff1673ffffffffffffffffffffffffffffffffffffffff1673ffffffffffffffffffffffffffffffffffffffff1681526020016001820160009054906101000a900473ffffffffffffffffffffffffffffffffffffffff1673ffffffffffffffffffffffffffffffffffffffff1673ffffffffffffffffffffffffffffffffffffffff1681526020016002820160c060405190810160405290816000820160009054906101000a900467ffffffffffffffff1667ffffffffffffffff1667ffffffffffffffff1681526020016000820160089054906101000a900473ffffffffffffffffffffffffffffffffffffffff1673ffffffffffffffffffffffffffffffffffffffff1673ffffffffffffffffffffffffffffffffffffffff1681526020016001820160009054906101000a900473ffffffffffffffffffffffffffffffffffffffff1673ffffffffffffffffffffffffffffffffffffffff1673ffffffffffffffffffffffffffffffffffffffff1681526020016002820154815260200160038201548152602001600482015481525050815260200160078201548152602001600882015481525050905080608001518160a00151826020015183600001518460400151955095509550955095505091939590929450565b60066020528060005260406000206000915090508060000154908060010154905082565b87600180600281111561534657fe5b600360008467ffffffffffffffff1667ffffffffffffffff16815260200190815260200160002060000160009054906101000a900460ff16600281111561538957fe5b1415156153fe576040517f08c379a00000000000000000000000000000000000000000000000000000000081526004018080602001828103825260108152602001807f57726f6e6720636f696e2073746174650000000000000000000000000000000081525060200191505060405180910390fd5b6154d78a8a8a8080601f016020809104026020016040519081016040528093929190818152602001838380828437600081840152601f19601f8201169050808301925050505050505089898080601f016020809104026020016040519081016040528093929190818152602001838380828437600081840152601f19601f8201169050808301925050505050505088888080601f016020809104026020016040519081016040528093929190818152602001838380828437600081840152601f19601f82011690508083019250505050505050876175db565b6154e08a6169f9565b50505050505050505050565b6000809054906101000a900460ff16151515615553576040517f08c379a000000000000000000000000000000000000000000000000000000000815260040180806020018281038252602881526020018061935b6028913960400191505060405180910390fd5b61556960016005546158bd90919063ffffffff16565b60058190555060008060019054906101000a900467ffffffffffffffff163385604051602001808467ffffffffffffffff1667ffffffffffffffff1678010000000000000000000000000000000000000000000000000281526008018373ffffffffffffffffffffffffffffffffffffffff1673ffffffffffffffffffffffffffffffffffffffff166c010000000000000000000000000281526014018273ffffffffffffffffffffffffffffffffffffffff1673ffffffffffffffffffffffffffffffffffffffff166c010000000000000000000000000281526014019350505050604051602081830303815290604052805190602001207801000000000000000000000000000000000000000000000000900490506000600360008367ffffffffffffffff1667ffffffffffffffff1681526020019081526020016000209050828160070181905550838160010160006101000a81548173ffffffffffffffffffffffffffffffffffffffff021916908373ffffffffffffffffffffffffffffffffffffffff1602179055506005548160080181905550848160000160016101000a81548173ffffffffffffffffffffffffffffffffffffffff021916908373ffffffffffffffffffffffffffffffffffffffff16021790555060008160000160006101000a81548160ff0219169083600281111561576657fe5b0217905550604080519081016040528083604051602001808267ffffffffffffffff1667ffffffffffffffff1678010000000000000000000000000000000000000000000000000281526008019150506040516020818303038152906040528051906020012081526020014281525060066000600554815260200190815260200160002060008201518160000155602082015181600101559050508373ffffffffffffffffffffffffffffffffffffffff168573ffffffffffffffffffffffffffffffffffffffff168367ffffffffffffffff167f68d22e85b0df39249291acbe65dba95feb05284fca981b8faf168e50fce70af76005546040518082815260200191505060405180910390a46001600060018282829054906101000a900467ffffffffffffffff160192506101000a81548167ffffffffffffffff021916908367ffffffffffffffff1602179055505050505050565b60008082840190508381101515156158d457600080fd5b8091505092915050565b6000600360008667ffffffffffffffff1667ffffffffffffffff168152602001908152602001600020905060c0604051908101604052808667ffffffffffffffff1681526020018573ffffffffffffffffffffffffffffffffffffffff1681526020013373ffffffffffffffffffffffffffffffffffffffff168152602001428152602001848152602001838152508160020160008201518160000160006101000a81548167ffffffffffffffff021916908367ffffffffffffffff16021790555060208201518160000160086101000a81548173ffffffffffffffffffffffffffffffffffffffff021916908373ffffffffffffffffffffffffffffffffffffffff16021790555060408201518160010160006101000a81548173ffffffffffffffffffffffffffffffffffffffff021916908373ffffffffffffffffffffffffffffffffffffffff160217905550606082015181600201556080820151816003015560a0820151816004015590505060018160000160006101000a81548160ff02191690836002811115615a7057fe5b02179055503373ffffffffffffffffffffffffffffffffffffffff168567ffffffffffffffff167fbaf912dedc1b0ee4647f945b0432e694bce1aa2c4e21052d977687641587495660405160405180910390a35050505050565b806001600281101515615ad957fe5b6020020151816000600281101515615aed57fe5b6020020151101515615b4a576040517f08c379a000000000000000000000000000000000000000000000000000000000815260040180806020018281038252603c815260200180619503603c913960400191505060405180910390fd5b615b526190fc565b615b708786846000600281101515615b6657fe5b6020020151616235565b9050615b7a6190fc565b615b988786856001600281101515615b8e57fe5b6020020151616235565b9050816000015167ffffffffffffffff16816000015167ffffffffffffffff16141515615c10576040517f08c379a00000000000000000000000000000000000000000000000000000000081526004018080602001828103825260378152602001806194aa6037913960400191505060405180910390fd5b615c2d84836020015183604001516178209092919063ffffffff16565b1515615ca1576040517f08c379a00000000000000000000000000000000000000000000000000000000081526004018080602001828103825260118152602001807f496e76616c6964207369676e617475726500000000000000000000000000000081525060200191505060405180910390fd5b5050505050505050565b600080615cb88484615ce7565b90507fffffffffffffffffffffffffffffffffffffffffffffffffffffffffffffffff81141591505092915050565b600080600090505b8380549050811015615d3857828482815481101515615d0a57fe5b9060005260206000209060040201600201541415615d2b5780915050615d5d565b8080600101915050615cef565b507fffffffffffffffffffffffffffffffffffffffffffffffffffffffffffffffff90505b92915050565b615d6b6190fc565b615d76848387616235565b9050615df683600260008a67ffffffffffffffff1667ffffffffffffffff16815260200190815260200160002088815481101515615db057fe5b906000526020600020906004020160000160009054906101000a900473ffffffffffffffffffffffffffffffffffffffff1683604001516178209092919063ffffffff16565b1515615e6a576040517f08c379a00000000000000000000000000000000000000000000000000000000081526004018080602001828103825260118152602001807f496e76616c6964207369676e617475726500000000000000000000000000000081525060200191505060405180910390fd5b8667ffffffffffffffff16816000015167ffffffffffffffff16141515615ef9576040517f08c379a000000000000000000000000000000000000000000000000000000000815260040180806020018281038252601e8152602001807f5478206973207265666572656e63696e6720616e6f7468657220736c6f74000081525060200191505060405180910390fd5b600260008867ffffffffffffffff1667ffffffffffffffff16815260200190815260200160002086815481101515615f2d57fe5b90600052602060002090600402016003015485111515615f98576040517f08c379a00000000000000000000000000000000000000000000000000000000081526004018080602001828103825260268152602001806197b56026913960400191505060405180910390fd5b600360008867ffffffffffffffff1667ffffffffffffffff168152602001908152602001600020600201600401548511151515616020576040517f08c379a00000000000000000000000000000000000000000000000000000000081526004018080602001828103825260278152602001806194836027913960400191505060405180910390fd5b50505050505050565b61608667016345785d8a0000600160008573ffffffffffffffffffffffffffffffffffffffff1673ffffffffffffffffffffffffffffffffffffffff1681526020019081526020016000206000015461786390919063ffffffff16565b600160008473ffffffffffffffffffffffffffffffffffffffff1673ffffffffffffffffffffffffffffffffffffffff1681526020019081526020016000206000018190555061612967016345785d8a0000600160008473ffffffffffffffffffffffffffffffffffffffff1673ffffffffffffffffffffffffffffffffffffffff168152602001908152602001600020600101546158bd90919063ffffffff16565b600160008373ffffffffffffffffffffffffffffffffffffffff1673ffffffffffffffffffffffffffffffffffffffff168152602001908152602001600020600101819055508073ffffffffffffffffffffffffffffffffffffffff168273ffffffffffffffffffffffffffffffffffffffff167fbd6bf2f753dc1a7dee94a7abd7645adc6c228c2af17fd72d9104674cc5d2127367016345785d8a00006040518082815260200191505060405180910390a35050565b6000806161ed8484615ce7565b90507fffffffffffffffffffffffffffffffffffffffffffffffffffffffffffffffff81141561622157600091505061622f565b61622b8482617885565b9150505b92915050565b61623d6190fc565b606061624885617ae9565b905061625381617b03565b15616293576162606190fc565b6162738683617b1190919063ffffffff16565b9050616289816000015182604001518688617cd4565b8092505050616720565b61629c81617ded565b156166cf576162a9618fa5565b60076000858152602001908152602001600020604080519081016040529081600082015481526020016001820154815250509050600060010281600001511415156165e05760606162f983617dfb565b905061636481600181518110151561630d57fe5b9060200190602002015160a0015182600181518110151561632a57fe5b906020019060200201516040015183600181518110151561634757fe5b9060200190602002015160e001516178209092919063ffffffff16565b15156163bb576040517f08c379a00000000000000000000000000000000000000000000000000000000081526004018080602001828103825260228152602001806194e16022913960400191505060405180910390fd5b60606163c687617ae9565b905060048151141515616424576040517f08c379a000000000000000000000000000000000000000000000000000000000815260040180806020018281038252602c81526020018061932f602c913960400191505060405180910390fd5b61648882600081518110151561643657fe5b906020019060200201516000015183600081518110151561645357fe5b9060200190602002015160e001518861648385600081518110151561647457fe5b90602001906020020151618454565b617cd4565b6164ec82600181518110151561649a57fe5b90602001906020020151600001518360018151811015156164b757fe5b9060200190602002015160e00151886164e78560018151811015156164d857fe5b90602001906020020151618454565b617cd4565b6165508260008151811015156164fe57fe5b906020019060200201516000015183600081518110151561651b57fe5b90602001906020020151608001518861654b85600281518110151561653c57fe5b90602001906020020151618454565b61854b565b6165b482600181518110151561656257fe5b906020019060200201516000015183600181518110151561657f57fe5b9060200190602002015160800151886165af8560038151811015156165a057fe5b90602001906020020151618454565b61854b565b6165d58260008151811015156165c657fe5b90602001906020020151618638565b945050505050616720565b6165e8618fa5565b600660008681526020019081526020016000206040805190810160405290816000820154815260200160018201548152505090506201518081602001514203111561667e576040517f08c379a00000000000000000000000000000000000000000000000000000000081526004018080602001828103825260398152602001806196746039913960400191505060405180910390fd5b6040517f08c379a000000000000000000000000000000000000000000000000000000000815260040180806020018281038252604f81526020018061973c604f913960600191505060405180910390fd5b6040517f08c379a000000000000000000000000000000000000000000000000000000000815260040180806020018281038252604081526020018061983e6040913960400191505060405180910390fd5b9392505050565b80600360008767ffffffffffffffff1667ffffffffffffffff168152602001908152602001600020600201600401541015156167cb576040517f08c379a00000000000000000000000000000000000000000000000000000000081526004018080602001828103825260208152602001807f54782073686f756c64206265206166746572207468652065786974426c6f636b81525060200191505060405180910390fd5b6167d36190fc565b6167de858584616235565b905061684683600360008967ffffffffffffffff1667ffffffffffffffff16815260200190815260200160002060020160010160009054906101000a900473ffffffffffffffffffffffffffffffffffffffff1683604001516178209092919063ffffffff16565b15156168ba576040517f08c379a00000000000000000000000000000000000000000000000000000000081526004018080602001828103825260118152602001807f496e76616c6964207369676e617475726500000000000000000000000000000081525060200191505060405180910390fd5b8567ffffffffffffffff16816000015167ffffffffffffffff16141515616949576040517f08c379a000000000000000000000000000000000000000000000000000000000815260040180806020018281038252601e8152602001807f5478206973207265666572656e63696e6720616e6f7468657220736c6f74000081525060200191505060405180910390fd5b600360008767ffffffffffffffff1667ffffffffffffffff1681526020019081526020016000206002016004015481606001511415156169f1576040517f08c379a00000000000000000000000000000000000000000000000000000000081526004018080602001828103825260128152602001807f4e6f74206120646972656374207370656e64000000000000000000000000000081525060200191505060405180910390fd5b505050505050565b616a50600360008367ffffffffffffffff1667ffffffffffffffff16815260200190815260200160002060020160010160009054906101000a900473ffffffffffffffffffffffffffffffffffffffff1633616029565b6000600360008367ffffffffffffffff1667ffffffffffffffff16815260200190815260200160002060000160006101000a81548160ff02191690836002811115616a9757fe5b0217905550600360008267ffffffffffffffff1667ffffffffffffffff168152602001908152602001600020600201600080820160006101000a81549067ffffffffffffffff02191690556000820160086101000a81549073ffffffffffffffffffffffffffffffffffffffff02191690556001820160006101000a81549073ffffffffffffffffffffffffffffffffffffffff02191690556002820160009055600382016000905560048201600090555050600360008267ffffffffffffffff1667ffffffffffffffff16815260200190815260200160002060000160019054906101000a900473ffffffffffffffffffffffffffffffffffffffff1673ffffffffffffffffffffffffffffffffffffffff168167ffffffffffffffff167f35cc9c4d0d9a2ce748d131382582af17dbf1f0d72167ea7906ea3f18597b31a460405160405180910390a350565b600080600260008467ffffffffffffffff1667ffffffffffffffff168152602001908152602001600020805490509050600080925060008090505b82811015616e65576000600102600260008767ffffffffffffffff1667ffffffffffffffff16815260200190815260200160002082815481101515616c6157fe5b906000526020600020906004020160020154141515616e5857811515616d4257616d3d600360008767ffffffffffffffff1667ffffffffffffffff16815260200190815260200160002060020160010160009054906101000a900473ffffffffffffffffffffffffffffffffffffffff16600260008867ffffffffffffffff1667ffffffffffffffff16815260200190815260200160002083815481101515616d0657fe5b906000526020600020906004020160010160009054906101000a900473ffffffffffffffffffffffffffffffffffffffff16616029565b600191505b616db0600260008767ffffffffffffffff1667ffffffffffffffff16815260200190815260200160002082815481101515616d7957fe5b906000526020600020906004020160010160009054906101000a900473ffffffffffffffffffffffffffffffffffffffff16616e6d565b600260008667ffffffffffffffff1667ffffffffffffffff16815260200190815260200160002081815481101515616de457fe5b9060005260206000209060040201600080820160006101000a81549073ffffffffffffffffffffffffffffffffffffffff02191690556001820160006101000a81549073ffffffffffffffffffffffffffffffffffffffff0219169055600282016000905560038201600090555050600193505b8080600101915050616c20565b505050919050565b616eca67016345785d8a0000600160008473ffffffffffffffffffffffffffffffffffffffff1673ffffffffffffffffffffffffffffffffffffffff1681526020019081526020016000206000015461786390919063ffffffff16565b600160008373ffffffffffffffffffffffffffffffffffffffff1673ffffffffffffffffffffffffffffffffffffffff16815260200190815260200160002060000181905550616f6d67016345785d8a0000600160008473ffffffffffffffffffffffffffffffffffffffff1673ffffffffffffffffffffffffffffffffffffffff168152602001908152602001600020600101546158bd90919063ffffffff16565b600160008373ffffffffffffffffffffffffffffffffffffffff1673ffffffffffffffffffffffffffffffffffffffff168152602001908152602001600020600101819055508073ffffffffffffffffffffffffffffffffffffffff167f5406cdbb33189b887da81a90c7ff307f3af1854b2504d0bde438b8bb5b7d8b5267016345785d8a00006040518082815260200191505060405180910390a250565b600360008567ffffffffffffffff1667ffffffffffffffff168152602001908152602001600020600201600301548111151515617094576040517f08c379a000000000000000000000000000000000000000000000000000000000815260040180806020018281038252602b8152602001806193a7602b913960400191505060405180910390fd5b61709c6190fc565b6170a7848484616235565b90508467ffffffffffffffff16816000015167ffffffffffffffff16141515617138576040517f08c379a000000000000000000000000000000000000000000000000000000000815260040180806020018281038252601e8152602001807f5478206973207265666572656e63696e6720616e6f7468657220736c6f74000081525060200191505060405180910390fd5b5050505050565b6000606061715461714f846186cd565b6186fb565b905061715f81617b03565b1561718c5761718581600281518110151561717657fe5b90602001906020020151618841565b9150617214565b61719581617ded565b156171c2576171bb8160038151811015156171ac57fe5b90602001906020020151618841565b9150617213565b6040517f08c379a000000000000000000000000000000000000000000000000000000000815260040180806020018281038252603a8152602001806196ad603a913960400191505060405180910390fd5b5b50919050565b6000606061722f61722a846186cd565b6186fb565b9050600061725482600081518110151561724557fe5b906020019060200201516188cf565b9050600061727983600181518110151561726a57fe5b906020019060200201516188cf565b905060008114156172e15781604051602001808267ffffffffffffffff1667ffffffffffffffff1678010000000000000000000000000000000000000000000000000281526008019150506040516020818303038152906040528051906020012093506172ec565b848051906020012093505b505050919050565b62049d40600360008667ffffffffffffffff1667ffffffffffffffff1681526020019081526020016000206002016002015401421115151561739e576040517f08c379a00000000000000000000000000000000000000000000000000000000081526004018080602001828103825260198152602001807f4368616c6c656e67652077696e646f7773206973206f7665720000000000000081525060200191505060405180910390fd5b6173d781600260008767ffffffffffffffff1667ffffffffffffffff168152602001908152602001600020615cab90919063ffffffff16565b15151561742f576040517f08c379a00000000000000000000000000000000000000000000000000000000081526004018080602001828103825260268152602001806196e76026913960400191505060405180910390fd5b600260008567ffffffffffffffff1667ffffffffffffffff1681526020019081526020016000206080604051908101604052808573ffffffffffffffffffffffffffffffffffffffff1681526020013373ffffffffffffffffffffffffffffffffffffffff168152602001838152602001848152509080600181540180825580915050906001820390600052602060002090600402016000909192909190915060008201518160000160006101000a81548173ffffffffffffffffffffffffffffffffffffffff021916908373ffffffffffffffffffffffffffffffffffffffff16021790555060208201518160010160006101000a81548173ffffffffffffffffffffffffffffffffffffffff021916908373ffffffffffffffffffffffffffffffffffffffff16021790555060408201518160020155606082015181600301555050508273ffffffffffffffffffffffffffffffffffffffff168467ffffffffffffffff167f6c66d916f7de00b00553c0be460c2844c555cb0d8d37fffbfb8c115f8ba27f418385604051808381526020018281526020019250505060405180910390a350505050565b80600360008767ffffffffffffffff1667ffffffffffffffff16815260200190815260200160002060020160040154118015617643575080600360008767ffffffffffffffff1667ffffffffffffffff16815260200190815260200160002060020160030154105b151561769a576040517f08c379a00000000000000000000000000000000000000000000000000000000081526004018080602001828103825260268152602001806198d46026913960400191505060405180910390fd5b6176a26190fc565b6176ad858584616235565b905061771583600360008967ffffffffffffffff1667ffffffffffffffff16815260200190815260200160002060020160000160089054906101000a900473ffffffffffffffffffffffffffffffffffffffff1683604001516178209092919063ffffffff16565b1515617789576040517f08c379a00000000000000000000000000000000000000000000000000000000081526004018080602001828103825260118152602001807f496e76616c6964207369676e617475726500000000000000000000000000000081525060200191505060405180910390fd5b8567ffffffffffffffff16816000015167ffffffffffffffff16141515617818576040517f08c379a000000000000000000000000000000000000000000000000000000000815260040180806020018281038252601e8152602001807f5478206973207265666572656e63696e6720616e6f7468657220736c6f74000081525060200191505060405180910390fd5b505050505050565b600061782c848461898e565b73ffffffffffffffffffffffffffffffffffffffff168273ffffffffffffffffffffffffffffffffffffffff161490509392505050565b600082821115151561787457600080fd5b600082840390508091505092915050565b600061788f619037565b8360018580549050038154811015156178a457fe5b9060005260206000209060040201608060405190810160405290816000820160009054906101000a900473ffffffffffffffffffffffffffffffffffffffff1673ffffffffffffffffffffffffffffffffffffffff1673ffffffffffffffffffffffffffffffffffffffff1681526020016001820160009054906101000a900473ffffffffffffffffffffffffffffffffffffffff1673ffffffffffffffffffffffffffffffffffffffff1673ffffffffffffffffffffffffffffffffffffffff16815260200160028201548152602001600382015481525050905080848481548110151561798f57fe5b906000526020600020906004020160008201518160000160006101000a81548173ffffffffffffffffffffffffffffffffffffffff021916908373ffffffffffffffffffffffffffffffffffffffff16021790555060208201518160010160006101000a81548173ffffffffffffffffffffffffffffffffffffffff021916908373ffffffffffffffffffffffffffffffffffffffff1602179055506040820151816002015560608201518160030155905050836001858054905003815481101515617a5757fe5b9060005260206000209060040201600080820160006101000a81549073ffffffffffffffffffffffffffffffffffffffff02191690556001820160006101000a81549073ffffffffffffffffffffffffffffffffffffffff021916905560028201600090556003820160009055505060018481818054905003915081617add9190619148565b50600191505092915050565b6060617afc617af7836186cd565b6186fb565b9050919050565b600060038251149050919050565b617b196190fc565b617b2283617b03565b1515617b79576040517f08c379a00000000000000000000000000000000000000000000000000000000081526004018080602001828103825260388152602001806198fa6038913960400191505060405180910390fd5b617b816190fc565b617ba2846000815181101515617b9357fe5b906020019060200201516188cf565b816000019067ffffffffffffffff16908167ffffffffffffffff1681525050617be2846001815181101515617bd357fe5b906020019060200201516188cf565b816060018181525050617c0c846002815181101515617bfd57fe5b90602001906020020151618841565b816020019073ffffffffffffffffffffffffffffffffffffffff16908173ffffffffffffffffffffffffffffffffffffffff1681525050600081606001511415617cb8578060000151604051602001808267ffffffffffffffff1667ffffffffffffffff16780100000000000000000000000000000000000000000000000002815260080191505060405160208183030381529060405280519060200120816040018181525050617cca565b82805190602001208160400181815250505b8091505092915050565b600060066000848152602001908152602001600020600001549050600060045484811515617cfe57fe5b06141515617d65578084141515617d60576040517f08c379a00000000000000000000000000000000000000000000000000000000081526004018080602001828103825260288152602001806195a16028913960400191505060405180910390fd5b617de6565b617d7184828785614f3c565b1515617de5576040517f08c379a00000000000000000000000000000000000000000000000000000000081526004018080602001828103825260208152602001807f5478206e6f7420696e636c7564656420696e20636c61696d656420626c6f636b81525060200191505060405180910390fd5b5b5050505050565b600060098251149050919050565b6060617e0682617ded565b1515617e5d576040517f08c379a000000000000000000000000000000000000000000000000000000000815260040180806020018281038252604181526020018061960c6041913960600191505060405180910390fd5b60606002604051908082528060200260200182016040528015617e9a57816020015b617e8761917a565b815260200190600190039081617e7f5790505b509050617ebe836000815181101515617eaf57fe5b906020019060200201516188cf565b816000815181101515617ecd57fe5b906020019060200201516000019067ffffffffffffffff16908167ffffffffffffffff1681525050617f16836001815181101515617f0757fe5b906020019060200201516188cf565b816000815181101515617f2557fe5b906020019060200201516020018181525050617f58836002815181101515617f4957fe5b906020019060200201516188cf565b600102816000815181101515617f6a57fe5b906020019060200201516080018181525050617f9d836003815181101515617f8e57fe5b90602001906020020151618841565b816000815181101515617fac57fe5b906020019060200201516060019073ffffffffffffffffffffffffffffffffffffffff16908173ffffffffffffffffffffffffffffffffffffffff168152505061800d836004815181101515617ffe57fe5b906020019060200201516188cf565b81600081518110151561801c57fe5b90602001906020020151610100019067ffffffffffffffff16908167ffffffffffffffff168152505061806683600581518110151561805757fe5b906020019060200201516188cf565b81600181518110151561807557fe5b9060200190602002015160200181815250506180a883600681518110151561809957fe5b906020019060200201516188cf565b6001028160018151811015156180ba57fe5b9060200190602002015160800181815250506180ed8360078151811015156180de57fe5b90602001906020020151618841565b8160018151811015156180fc57fe5b906020019060200201516060019073ffffffffffffffffffffffffffffffffffffffff16908173ffffffffffffffffffffffffffffffffffffffff168152505061815d83600881518110151561814e57fe5b90602001906020020151618454565b81600181518110151561816c57fe5b9060200190602002015160a0018190525080600181518110151561818c57fe5b90602001906020020151606001518160008151811015156181a957fe5b906020019060200201516040019073ffffffffffffffffffffffffffffffffffffffff16908173ffffffffffffffffffffffffffffffffffffffff16815250508060008151811015156181f857fe5b9060200190602002015160800151604051602001808281526020019150506040516020818303038152906040528051906020012081600081518110151561823b57fe5b9060200190602002015160c001818152505061826e81600081518110151561825f57fe5b90602001906020020151618c43565b81600081518110151561827d57fe5b9060200190602002015160e001818152505080600081518110151561829e57fe5b9060200190602002015161010001518160018151811015156182bc57fe5b906020019060200201516000019067ffffffffffffffff16908167ffffffffffffffff16815250508060008151811015156182f357fe5b906020019060200201516000015181600181518110151561831057fe5b90602001906020020151610100019067ffffffffffffffff16908167ffffffffffffffff168152505080600081518110151561834857fe5b906020019060200201516060015181600181518110151561836557fe5b906020019060200201516040019073ffffffffffffffffffffffffffffffffffffffff16908173ffffffffffffffffffffffffffffffffffffffff16815250508060018151811015156183b457fe5b906020019060200201516080015160405160200180828152602001915050604051602081830303815290604052805190602001208160018151811015156183f757fe5b9060200190602002015160c001818152505061842a81600181518110151561841b57fe5b90602001906020020151618c43565b81600181518110151561843957fe5b9060200190602002015160e001818152505080915050919050565b6060600082600001511115156184d2576040517f08c379a000000000000000000000000000000000000000000000000000000000815260040180806020018281038252601d8152602001807f524c50206279746573206d757374206265206d6f7265207468616e203000000081525060200191505060405180910390fd5b60006184e18360200151618d41565b905060008184600001510390506060816040519080825280601f01601f1916602001820160405280156185235781602001600182028038833980820191505090505b509050600081602001905061853f848760200151018285618dca565b81945050505050919050565b60006007600084815260200190815260200160002060000154905060006004548481151561857557fe5b061415156185ce576040517f08c379a000000000000000000000000000000000000000000000000000000000815260040180806020018281038252603581526020018061953f6035913960400191505060405180910390fd5b6185da84828785614f3c565b1515618631576040517f08c379a00000000000000000000000000000000000000000000000000000000081526004018080602001828103825260278152602001806197db6027913960400191505060405180910390fd5b5050505050565b6186406190fc565b6186486190fc565b8260000151816000019067ffffffffffffffff16908167ffffffffffffffff16815250508260600151816020019073ffffffffffffffffffffffffffffffffffffffff16908173ffffffffffffffffffffffffffffffffffffffff16815250508260e00151816040018181525050826020015181606001818152505080915050919050565b6186d5619210565b600060208301905060408051908101604052808451815260200182815250915050919050565b606061870682618e33565b151561877a576040517f08c379a00000000000000000000000000000000000000000000000000000000081526004018080602001828103825260148152602001807f524c50204974656d206973206e6f74206c69737400000000000000000000000081525060200191505060405180910390fd5b600061878583618e81565b9050806040519080825280602002602001820160405280156187c157816020015b6187ae61922a565b8152602001906001900390816187a65790505b50915060006187d38460200151618d41565b8460200151019050600080600090505b83811015618838576187f483618ef2565b9150604080519081016040528083815260200184815250858281518110151561881957fe5b90602001906020020181905250818301925080806001019150506187e3565b50505050919050565b6000601582600001511415156188bf576040517f08c379a000000000000000000000000000000000000000000000000000000000815260040180806020018281038252601c8152602001807f524c502061646472657373206d7573742062652032312062797465730000000081525060200191505060405180910390fd5b6188c8826188cf565b9050919050565b60008082600001511180156188e957506021826000015111155b1515618940576040517f08c379a000000000000000000000000000000000000000000000000000000000815260040180806020018281038252602781526020018061964d6027913960400191505060405180910390fd5b600061894f8360200151618d41565b9050600081846000015103905060008083866020015101905080519150602083101561898257826020036101000a820491505b81945050505050919050565b60006041825114806189a1575060428251145b1515618a15576040517f08c379a000000000000000000000000000000000000000000000000000000000815260040180806020018281038252601b8152602001807f5369676e6174757265206c656e67687420697320696e76616c6964000000000081525060200191505060405180910390fd5b60008084905060008060008060019050604188511415618a3c576000905060009550618aca565b876000815181101515618a4b57fe5b9060200101517f010000000000000000000000000000000000000000000000000000000000000090047f0100000000000000000000000000000000000000000000000000000000000000027f0100000000000000000000000000000000000000000000000000000000000000900460ff166002811115618ac757fe5b95505b80602001880151925080604001880151915060ff8160410189015116935060016002811115618af557fe5b866002811115618b0157fe5b1415618b5d578460405160200180807f19457468657265756d205369676e6564204d6573736167653a0a333200000000815250601c01828152602001915050604051602081830303815290604052805190602001209450618bce565b600280811115618b6957fe5b866002811115618b7557fe5b1415618bcd578460405160200180807f19457468657265756d205369676e6564204d6573736167653a0a200000000000815250601b018281526020019150506040516020818303038152906040528051906020012094505b5b60018585858560405160008152602001604052604051808581526020018460ff1660ff1681526020018381526020018281526020019450505050506020604051602081039080840390855afa158015618c2b573d6000803e3d6000fd5b50505060206040510351965050505050505092915050565b6000816000015182602001518360c001518460600151856101000151604051602001808667ffffffffffffffff1667ffffffffffffffff1678010000000000000000000000000000000000000000000000000281526008018581526020018481526020018373ffffffffffffffffffffffffffffffffffffffff1673ffffffffffffffffffffffffffffffffffffffff166c010000000000000000000000000281526014018267ffffffffffffffff1667ffffffffffffffff16780100000000000000000000000000000000000000000000000002815260080195505050505050604051602081830303815290604052805190602001209050919050565b600080825160001a9050608060ff16811015618d61576000915050618dc5565b60b860ff16811080618d86575060c060ff168110158015618d85575060f860ff1681105b5b15618d95576001915050618dc5565b60c060ff16811015618db55760018060b80360ff16820301915050618dc5565b60018060f80360ff168203019150505b919050565b6000811415618dd857618e2e565b5b602060ff1681101515618e0a5782518252602060ff1683019250602060ff1682019150602060ff1681039050618dd9565b6000600182602060ff16036101000a03905080198451168184511681811785525050505b505050565b60008082600001511415618e4a5760009050618e7c565b60008083602001519050805160001a915060c060ff168260ff161015618e7557600092505050618e7c565b6001925050505b919050565b60008082600001511415618e985760009050618eed565b60008090506000618eac8460200151618d41565b84602001510190506000846000015185602001510190505b80821015618ee657618ed582618ef2565b820191508280600101935050618ec4565b8293505050505b919050565b600080825160001a9050608060ff16811015618f12576001915050618fa0565b60b860ff16811015618f30576001608060ff16820301915050618fa0565b60c060ff16811015618f605760b78103600184019350806020036101000a84510460018201810193505050618f9e565b60f860ff16811015618f7e57600160c060ff16820301915050618fa0565b60f78103600184019350806020036101000a845104600182018101935050505b505b919050565b604080519081016040528060008019168152602001600081525090565b6101606040519081016040528060006002811115618fdc57fe5b8152602001600073ffffffffffffffffffffffffffffffffffffffff168152602001600073ffffffffffffffffffffffffffffffffffffffff168152602001619023619244565b815260200160008152602001600081525090565b608060405190810160405280600073ffffffffffffffffffffffffffffffffffffffff168152602001600073ffffffffffffffffffffffffffffffffffffffff16815260200160008019168152602001600081525090565b60c060405190810160405280600067ffffffffffffffff168152602001600073ffffffffffffffffffffffffffffffffffffffff168152602001600073ffffffffffffffffffffffffffffffffffffffff1681526020016000815260200160008152602001600081525090565b608060405190810160405280600067ffffffffffffffff168152602001600073ffffffffffffffffffffffffffffffffffffffff16815260200160008019168152602001600081525090565b8154818355818111156191755760040281600402836000526020600020918201910161917491906192b1565b5b505050565b61012060405190810160405280600067ffffffffffffffff16815260200160008152602001600073ffffffffffffffffffffffffffffffffffffffff168152602001600073ffffffffffffffffffffffffffffffffffffffff16815260200160008019168152602001606081526020016000801916815260200160008019168152602001600067ffffffffffffffff1681525090565b604080519081016040528060008152602001600081525090565b604080519081016040528060008152602001600081525090565b60c060405190810160405280600067ffffffffffffffff168152602001600073ffffffffffffffffffffffffffffffffffffffff168152602001600073ffffffffffffffffffffffffffffffffffffffff1681526020016000815260200160008152602001600081525090565b61932b91905b8082111561932757600080820160006101000a81549073ffffffffffffffffffffffffffffffffffffffff02191690556001820160006101000a81549073ffffffffffffffffffffffffffffffffffffffff021916905560028201600090556003820160009055506004016192b7565b5090565b9056fe342070726f6f66206d757374206265207375626d697474656420666f7220616e2061746f6d69632073776170436f6e7472616374206973206e6f7420616363657074696e67206d6f7265206465706f7369747321526573706f6e64696e6720746f206e6f6e206578697374696e67206368616c6c656e676554782073686f756c64206265206265666f7265207468652065786974277320706172656e7420626c6f636b546f6b656e20776173206e6f74207472616e73666572656420636f72726563746c7954696d6520746f2072657665616c207365637265747320697320616c7265616479206f7665725472616e73616374696f6e206d757374206265206163636f6d70616e6965642062792074686520424f4e4420414d4f554e54506c6561736520646f20612073746172744465706f7369744578697420666f72206465706f7369746564207472616e73616374696f6e7343616e6e6f7420726573706f6e6420776974682061207478206166746572207468652065786974536c6f74206f6e207468652045786974696e67547820646f6573206e6f74206d617463682074686174206f6e2074686520707265765478496e76616c6964207369676e6174757265204220696e2061746f6d69632073776170426c6f636b206f6e2074686520666972737420696e646578206d75737420626520746865206561726c696572206f6620746865203220626c6f636b73547279696e6720746f2076616c696461746520616e2061746f6d6963207377617020666f722061206465706f73697420626c6f636b436f6e74726163742061646472657373206973206e6f7420617070726f76656420666f72206465706f736974735472616e73616374696f6e206861736820646f6573206e6f74206d6174636820726f6f74486173684120626c6f636b206d757374206265207375626d697474656420666972737420696e206f7264657220746f2072657665616c20746865207377617020736563726574735472616e73616374696f6e20627974657320646f206e6f7420636f72726573706f6e6420746f20616e2061746f6d69632073776170207472616e73616374696f6e524c502055696e74206d757374206265206265747765656e203120616e6420333320627974657353656372657420776173206e657665722072657665616c656420666f72207468697320626c6f636b2c207377617020697320696e76616c6964436f756c64206e6f742064657465726d696e65207472616e73616374696f6e207479706520746f20726574726965766520746865206f776e65725472616e73616374696f6e207573656420666f72206368616c6c656e676520616c72656164794f6e6c7920636f696e2773206f776e657220697320616c6c6f77656420746f2063616e63656c20746865206578697453656372657420686173206e6f7420796574206265656e2072657665616c65642c207468657265206973207374696c6c2074696d6520746f20636f6d6d697420746865207472616e73616374696f6e53656e64657220646f6573206e6f74206d617463682065786974696e6754784279746573206f776e6572426c6f636b4e756d626572206d75737420626520616674657220746865206368616c656e6765547820736563726574206e6f7420696e636c7564656420696e20636c61696d656420626c6f636b596f75206d757374207761697420746865206d6174757269747920706572696f64206265666f72652066696e616c697a696e672074686520657869747478427974657320646f206e6f7420636f72726573706f6e64206e65697468657220746f206261736963205458206e6f7220746f2041746f6d696320737761704120626c6f636b206c657373207468616e2063757272656e74426c6f636b2063616e6e6f74206265207375626d69747465645468697320636f6e747261637420646f6573206e6f742072656365697665206d6f6e657954782073686f756c64206265206265747765656e207468652065786974277320626c6f636b735472616e73616374696f6e20627974657320646f206e6f7420636f72726573706f6e6420746f206261736963207472616e73616374696f6e53656e64657220646f6573206e6f74206d61746368206465706f736974206f776e6572a165627a7a723058202271c7f4545d4b0abedeff37da0aec5f9714ac0ddfe63a8bb0b03410743537390029608060405234801561001057600080fd5b507f290decd9548b62a8d60345a988386fc84ba6bc95484008f6362f93160ef3e56360010260008060418110151561004457fe5b018190555061006460016040610069640100000000026401000000009004565b610102565b60008290505b8160ff168160ff161115156100fd5760006001820360ff1660418110151561009357fe5b015460006001830360ff166041811015156100aa57fe5b015460405160200180838152602001828152602001925050506040516020818303038152906040528051906020012060008260ff166041811015156100eb57fe5b0181905550808060010191505061006f565b505050565b6104fd806101116000396000f3fe608060405234801561001057600080fd5b506004361061005e576000357c01000000000000000000000000000000000000000000000000000000009004806348419ad814610063578063509a7e54146100a5578063f586df6514610192575b600080fd5b61008f6004803603602081101561007957600080fd5b810190808035906020019092919050505061028d565b6040518082815260200191505060405180910390f35b61017c600480360360608110156100bb57600080fd5b8101908080359060200190929190803567ffffffffffffffff169060200190929190803590602001906401000000008111156100f657600080fd5b82018360208201111561010857600080fd5b8035906020019184600183028401116401000000008311171561012a57600080fd5b91908080601f016020809104026020016040519081016040528093929190818152602001838380828437600081840152601f19601f8201169050808301925050505050505091929192905050506102a7565b6040518082815260200191505060405180910390f35b610273600480360360808110156101a857600080fd5b810190808035906020019092919080359060200190929190803567ffffffffffffffff169060200190929190803590602001906401000000008111156101ed57600080fd5b8201836020820111156101ff57600080fd5b8035906020019184600183028401116401000000008311171561022157600080fd5b91908080601f016020809104026020016040519081016040528093929190818152602001838380828437600081840152601f19601f8201169050808301925050505050505091929192905050506104b3565b604051808215151515815260200191505060405180910390f35b60008160418110151561029c57fe5b016000915090505481565b600080602060088451038115156102ba57fe5b061480156102cb5750610808825111155b151561033f576040517f08c379a00000000000000000000000000000000000000000000000000000000081526004018080602001828103825260178152602001807f50726f6f66206c656e67746820697320696e76616c696400000000000000000081525060200191505060405180910390fd5b60008085905060006008905060008087905060186101000a602088015104915060008090505b604060ff168110156104a357600060028467ffffffffffffffff1681151561038957fe5b0667ffffffffffffffff1614156103b2576000816041811015156103a957fe5b015495506103d3565b6020840193508361ffff168851101515156103cc57600080fd5b8388015195505b600060028367ffffffffffffffff168115156103eb57fe5b0667ffffffffffffffff1614156104325784866040516020018083815260200182815260200192505050604051602081830303815290604052805190602001209450610464565b858560405160200180838152602001828152602001925050506040516020818303038152906040528051906020012094505b60028367ffffffffffffffff1681151561047a57fe5b04925060028267ffffffffffffffff1681151561049357fe5b0491508080600101915050610365565b5083955050505050509392505050565b6000806104c18685856102a7565b905084811491505094935050505056fea165627a7a723058201b000a39d57058e55cacbd23bb22b12e498b2994caafef57ce198acf76bc1b0c0029",
  "source": "// Copyright Loom Network 2018 - All rights reserved, Dual licensed on GPLV3\n// Learn more about Loom DappChains at https://loomx.io\n// All derivitive works of this code must incluse this copyright header on every file\n\npragma solidity ^0.5.2;\n\n// ERC721\nimport \"openzeppelin-solidity/contracts/token/ERC721/ERC721.sol\";\nimport \"openzeppelin-solidity/contracts/token/ERC721/IERC721Receiver.sol\";\n\n// Lib deps\nimport \"openzeppelin-solidity/contracts/math/SafeMath.sol\";\nimport \"../Libraries/Transaction/Transaction.sol\";\nimport \"../Libraries/ECVerify.sol\";\nimport \"../Libraries/ChallengeLib.sol\";\n\n// SMT and VMC\nimport \"./SparseMerkleTree.sol\";\nimport \"./ValidatorManagerContract.sol\";\n\n\ncontract RootChain is IERC721Receiver {\n\n    event Debug(address message);\n\n    /**\n     * Event for coin deposit logging.\n     * @notice The Deposit event indicates that a deposit block has been added\n     *         to the Plasma chain\n     * @param slot Plasma slot, a unique identifier, assigned to the deposit\n     * @param blockNumber The index of the block in which a deposit transaction\n     *                    is included\n     * @param from The address of the depositor\n     * @param contractAddress The address of the contract making the deposit\n     */\n    event Deposit(uint64 indexed slot, uint256 blockNumber,\n        address indexed from, address indexed contractAddress);\n\n    /**\n     * Event for block submission logging\n     * @notice The event indicates the addition of a new Plasma block\n     * @param blockNumber The block number of the submitted block\n     * @param root The root hash of the Merkle tree containing all of a block's\n     *             transactions.\n     * @param timestamp The time when a block was added to the Plasma chain\n     */\n    event SubmittedBlock(uint256 blockNumber, bytes32 root, uint256 timestamp);\n\n    /**\n     * Event for secret-revealing block submission logging\n     * @notice The event indicates the addition of a new Secret Revealing block\n     * @param blockNumber The block number of the submitted block\n     * @param root The root hash of the Merkle tree containing all of a block's\n     *             secrets.\n     * @param timestamp The time when a block was added to the Plasma chain\n     */\n    event SubmittedSecretBlock(uint256 blockNumber, bytes32 root, uint256 timestamp);\n\n    /**\n     * Event for logging exit starts\n     * @param slot The slot of the coin being exited\n     * @param owner The user who claims to own the coin being exited\n     */\n    event StartedExit(uint64 indexed slot, address indexed owner);\n\n    /**\n     * Event for exit challenge logging\n     * @notice This event only fires if `challengeBefore` is called.\n     * @param slot The slot of the coin whose exit was challenged\n     * @param owner The current claiming owner of the exit\n     * @param txHash The hash of the tx used for the challenge\n     */\n    event ChallengedExit(uint64 indexed slot, address indexed owner, bytes32 txHash, uint256 challengingBlockNumber);\n\n    /**\n     * Event for exit response logging\n     * @notice This only logs responses to `challengeBefore`\n     * @param slot The slot of the coin whose challenge was responded to\n     */\n    event RespondedExitChallenge(uint64 indexed slot);\n\n    /**\n     * Event for logging when an exit was successfully challenged\n     * @param slot The slot of the coin being reset to NOT_EXITING\n     * @param owner The owner of the coin\n     */\n    event CoinReset(uint64 indexed slot, address indexed owner);\n\n    /**\n     * Event for exit finalization logging\n     * @param slot The slot of the coin whose exit has been finalized\n     * @param owner The owner of the coin whose exit has been finalized\n     */\n    event FinalizedExit(uint64 indexed slot, address owner);\n\n    /**\n     * Event to log the freeing of a bond\n     * @param from The address of the user whose bonds have been freed\n     * @param amount The bond amount which can now be withdrawn\n     */\n    event FreedBond(address indexed from, uint256 amount);\n\n    /**\n     * Event to log the slashing of a bond\n     * @param from The address of the user whose bonds have been slashed\n     * @param to The recipient of the slashed bonds\n     * @param amount The bound amount which has been forfeited\n     */\n    event SlashedBond(address indexed from, address indexed to, uint256 amount);\n\n    /**\n     * Event to log the withdrawal of a bond\n     * @param from The address of the user who withdrew bonds\n     * @param amount The bond amount which has been withdrawn\n     */\n    event WithdrewBonds(address indexed from, uint256 amount);\n\n    /**\n     * Event to log the withdrawal of a coin\n     * @param owner The address of the user who withdrew bonds\n     * @param slot the slot of the coin that was exited\n     * @param contractAddress The contract address where the coin is being withdrawn from\n              is same as `from` when withdrawing a ETH coin\n     * @param uid The uid of the coin being withdrawn if ERC721, else 0\n     */\n    event Withdrew(address indexed owner, uint64 indexed slot, address contractAddress, uint uid);\n\n    /**\n     * Event to pause deposits in the contract.\n     * Temporarily added while the contract is being battle tested\n     * @param status Boolean value of the contract's status\n     */\n    event Paused(bool status);\n\n    using SafeMath for uint256;\n    using Transaction for bytes;\n    using Transaction for RLPReader.RLPItem[];\n    using RLPReader for RLPReader.RLPItem;\n    using Transaction for Transaction.AtomicSwapTX;\n    using ECVerify for bytes32;\n    using ChallengeLib for ChallengeLib.Challenge[];\n\n    uint256 constant BOND_AMOUNT = 0.1 ether;\n\n    /* An exit can be finalized after it has matured,\n     * after T2 = T0 + MATURITY_PERIOD\n     * An exit can be challenged in the first window\n     * between T0 and T1 ( T1 = T0 + CHALLENGE_WINDOW)\n     * A challenge can be responded to in the second window\n     * between T1 and T2\n    */\n    uint256 constant MATURITY_PERIOD = 7 days;\n    uint256 constant CHALLENGE_WINDOW = 3 days + 12 hours;\n\n    /* A secret-revealing root hash can only be submitted during a period\n     * after T0 and before T0 + SECRET_REVEALING_PERIOD\n     * where T0 is the time the corresponding block was submitted\n    */\n    uint256 constant SECRET_REVEALING_PERIOD = 1 days;\n\n    bool paused;\n\n    /*\n     * Modifiers\n     */\n    modifier isValidator() {\n        require(vmc.checkValidator(msg.sender), \"Sender is not a Validator\");\n        _;\n    }\n\n    modifier isTokenApproved(address _address) {\n        require(vmc.allowedTokens(_address), \"Contract address is not approved for deposits\");\n        _;\n    }\n\n    modifier isBonded() {\n        require(msg.value == BOND_AMOUNT, \"Transaction must be accompanied by the BOND AMOUNT\");\n\n        // Save challenger's bond\n        balances[msg.sender].bonded = balances[msg.sender].bonded.add(msg.value);\n        _;\n    }\n\n    modifier isState(uint64 slot, State state) {\n        require(coins[slot].state == state, \"Wrong coin state\");\n        _;\n    }\n\n    struct Balance {\n        uint256 bonded;\n        uint256 withdrawable;\n    }\n\n    // Each exit can only be challenged by a single challenger at a time\n    struct Exit {\n        uint64 slot;\n        address prevOwner; // previous owner of coin\n        address owner;\n        uint256 createdAt;\n        uint256 prevBlock;\n        uint256 exitBlock;\n    }\n\n    enum State {\n        NOT_EXITING,\n        EXITING,\n        EXITED\n    }\n\n    struct Coin {\n        State state;\n        address owner; // who owns that nft\n        address contractAddress; // which contract does the coin belong to\n        Exit exit;\n        uint256 uid;\n        uint256 depositBlock;\n    }\n\n    uint64 public numCoins = 0;\n\n    mapping (address => Balance) public balances;\n    mapping (uint64 => ChallengeLib.Challenge[]) challenges;\n    mapping (uint64 => Coin) coins;\n\n    struct ChildBlock {\n        bytes32 root;\n        uint256 createdAt;\n    }\n\n    // child chain\n    uint256 public childBlockInterval = 1000;\n    uint256 public currentBlock = 0;\n    mapping (uint256 => ChildBlock) public childChain;\n    mapping (uint256 => ChildBlock) public secretRevealingChain;\n\n\n    ValidatorManagerContract vmc;\n    SparseMerkleTree smt;\n\n    constructor (ValidatorManagerContract _vmc) public {\n        vmc = _vmc;\n        smt = new SparseMerkleTree();\n    }\n\n\n    /// @dev called by a Validator to append a Plasma block to the Plasma chain\n    /// @param root The transaction root hash of the Plasma block being added\n    function submitBlock(uint256 blockNumber, bytes32 root) public isValidator {\n\n        // rounding to next whole `childBlockInterval`\n        require(blockNumber >= currentBlock, \"A block less than currentBlock cannot be submitted\");\n        currentBlock = blockNumber;\n\n        childChain[currentBlock] = ChildBlock({\n            root: root,\n            createdAt: block.timestamp\n        });\n\n        emit SubmittedBlock(currentBlock, root, block.timestamp);\n    }\n\n    /// @dev called by a Validator to append a Secret Revealing block to the Plasma chain\n    /// @param root The transaction root hash of the Secret Revealing block being added\n    function submitSecretBlock(uint256 blockNumber, bytes32 root) public isValidator {\n\n        // rounding to next whole `childBlockInterval`\n        ChildBlock memory childBlock = childChain[blockNumber];\n        require(childBlock.root != 0, \"A block must be submitted first in order to reveal the swap secrets\");\n        require((block.timestamp - childBlock.createdAt) < SECRET_REVEALING_PERIOD ,\n            \"Time to reveal secrets is already over\");\n\n        secretRevealingChain[blockNumber] = ChildBlock({\n            root: root,\n            createdAt: block.timestamp\n        });\n\n        emit SubmittedSecretBlock(blockNumber, root, block.timestamp);\n    }\n\n    /// @dev Allows anyone to deposit funds into the Plasma chain, called when\n    //       contract receives ERC721\n    /// @notice Appends a deposit block to the Plasma chain\n    /// @param from The address of the user who is depositing a coin\n    /// @param uid The uid of the ERC721 coin being deposited. This is an\n    ///            identifier allocated by the ERC721 token contract; it is not\n    ///            related to `slot`. If the coin is ETH or ERC20 the uid is 0\n    function deposit(address from, address contractAddress, uint256 uid) private {\n\n        require(!paused, \"Contract is not accepting more deposits!\");\n        currentBlock = currentBlock.add(1);\n        uint64 slot = uint64(bytes8(keccak256(abi.encodePacked(numCoins, msg.sender, from))));\n\n        // Update state. Leave `exit` empty\n        Coin storage coin = coins[slot];\n        coin.uid = uid;\n        coin.contractAddress = contractAddress;\n        coin.depositBlock = currentBlock;\n        coin.owner = from;\n        coin.state = State.NOT_EXITING;\n\n        childChain[currentBlock] = ChildBlock({\n            // hash for deposit transactions is the hash of its slot\n            root: keccak256(abi.encodePacked(slot)),\n            createdAt: block.timestamp\n        });\n\n        // create a utxo at `slot`\n        emit Deposit(\n            slot,\n            currentBlock,\n            from,\n            contractAddress\n        );\n\n        numCoins += 1;\n    }\n\n    /******************** EXIT RELATED ********************/\n\n    // @dev Allows and exit of a deposited transaction\n    // @param slot The slot of the coin being exited\n    function startDepositExit(uint64 slot) external payable isBonded isState(slot, State.NOT_EXITING) {\n\n        Coin memory coin = coins[slot];\n        require(coin.owner == msg.sender, \"Sender does not match deposit owner\");\n        pushExit(slot, address(0), 0, coin.depositBlock);\n    }\n\n    // @dev Allows and exit of a non-depositing transaction\n    function startExit(\n        uint64 slot,\n        bytes calldata prevTxBytes, bytes calldata exitingTxBytes,\n        bytes calldata prevTxInclusionProof, bytes calldata exitingTxInclusionProof,\n        bytes calldata signature,\n        uint256[2] calldata blocks\n    ) external payable isBonded isState(slot, State.NOT_EXITING) {\n\n        require(msg.sender == exitingTxBytes.getOwner(), \"Sender does not match exitingTxBytes owner\");\n        doInclusionChecks(\n            prevTxBytes, exitingTxBytes,\n            prevTxInclusionProof, exitingTxInclusionProof,\n            signature,\n            blocks\n        );\n\n        pushExit(slot, prevTxBytes.getOwner(), blocks[0], blocks[1]);\n    }\n\n    /// @dev Verifies that consecutive two transaction involving the same coin\n    ///      are valid\n    /// @notice If exitingTxBytes corresponds to a deposit transaction, this function fails\n    /// @param prevTxBytes The RLP-encoded transaction involving a particular\n    ///        coin which took place directly before exitingTxBytes\n    /// @param exitingTxBytes The RLP-encoded transaction involving a particular\n    ///        coin which an exiting owner of the coin claims to be the latest\n    /// @param prevTxInclusionProof An inclusion proof of prevTx\n    /// @param exitingTxInclusionProof An inclusion proof of exitingTx\n    /// @param signature The signature of the exitingTxBytes by the coin\n    ///        owner indicated in prevTx.\n    /// @param blocks An array of two block numbers, at index 0, the block\n    ///        containing the prevTx and at index 1, the block containing\n    ///        the exitingTx\n    function doInclusionChecks(\n        bytes memory prevTxBytes, bytes memory exitingTxBytes,\n        bytes memory prevTxInclusionProof, bytes memory exitingTxInclusionProof,\n        bytes memory signature,\n        uint256[2] memory blocks\n    ) public view {\n\n        if (blocks[1] % childBlockInterval != 0) {\n            revert(\"Please do a startDepositExit for deposited transactions\");\n        } else {\n            checkBothIncludedAndSigned(\n                prevTxBytes, exitingTxBytes, prevTxInclusionProof,\n                exitingTxInclusionProof, signature,\n                blocks\n            );\n        }\n    }\n\n    function pushExit(\n        uint64 slot,\n        address prevOwner,\n        uint256 prevBlock,\n        uint256 exitingBlock\n    ) private {\n        // Create exit\n        Coin storage c = coins[slot];\n        c.exit = Exit({\n            slot: slot,\n            prevOwner: prevOwner,\n            owner: msg.sender,\n            createdAt: block.timestamp,\n            prevBlock: prevBlock,\n            exitBlock: exitingBlock\n        });\n\n        // Update coin state\n        c.state = State.EXITING;\n        emit StartedExit(slot, msg.sender);\n    }\n\n    /// @dev Finalizes an exit, i.e. puts the exiting coin into the EXITED\n    ///      state which will allow it to be withdrawn, provided the exit has\n    ///      matured and has not been successfully challenged\n    function finalizeExit(uint64 slot) isState(slot, State.EXITING) public {\n\n        Coin storage coin = coins[slot];\n        require((block.timestamp - coin.exit.createdAt) > MATURITY_PERIOD, \"You must wait the maturity period before finalizing the exit\");\n\n        // Check if there are any pending challenges for the coin.\n        // `checkPendingChallenges` will also penalize\n        // for each challenge that has not been responded to\n        bool hasChallenges = checkPendingChallenges(slot);\n\n        if (!hasChallenges) {\n            // Update coin's owner\n            coin.owner = coin.exit.owner;\n            coin.state = State.EXITED;\n\n            // Allow the exitor to withdraw their bond\n            freeBond(coin.owner);\n\n            emit FinalizedExit(slot, coin.owner);\n        } else {\n            // Reset coin state since it was challenged\n            coin.state = State.NOT_EXITING;\n            emit CoinReset(slot, coin.owner);\n        }\n\n        delete coins[slot].exit;\n    }\n\n    function checkPendingChallenges(uint64 slot) private returns (bool hasChallenges) {\n\n        uint256 length = challenges[slot].length;\n        bool slashed;\n        hasChallenges = false;\n        for (uint i = 0; i < length; i++) {\n            if (challenges[slot][i].txHash != 0x0) {\n                // Penalize the exitor and reward the first valid challenger.\n                if (!slashed) {\n                    slashBond(coins[slot].exit.owner, challenges[slot][i].challenger);\n                    slashed = true;\n                }\n                // Also free the bond of the challenger.\n                freeBond(challenges[slot][i].challenger);\n\n                // Challenge resolved, delete it\n                delete challenges[slot][i];\n                hasChallenges = true;\n            }\n        }\n    }\n\n    /// @dev Iterates through all of the initiated exits and finalizes those\n    ///      which have matured without being successfully challenged\n    function finalizeExits(uint64[] calldata slots) external {\n\n        uint256 slotsLength = slots.length;\n        for (uint256 i = 0; i < slotsLength; i++) {\n            finalizeExit(slots[i]);\n        }\n    }\n\n    function cancelExit(uint64 slot) public {\n\n        require(coins[slot].exit.owner == msg.sender, \"Only coin's owner is allowed to cancel the exit\");\n        delete coins[slot].exit;\n        coins[slot].state = State.NOT_EXITING;\n        freeBond(msg.sender);\n        emit CoinReset(slot, coins[slot].owner);\n    }\n\n    function cancelExits(uint64[] calldata slots) external {\n\n        uint256 slotsLength = slots.length;\n        for (uint256 i = 0; i < slotsLength; i++) {\n            cancelExit(slots[i]);\n        }\n    }\n\n    /// @dev Withdraw a UTXO that has been exited\n    /// @param slot The slot of the coin being withdrawn\n    function withdraw(uint64 slot) external isState(slot, State.EXITED) {\n\n        require(coins[slot].owner == msg.sender, \"You do not own that UTXO\");\n        uint256 uid = coins[slot].uid;\n\n        // Delete the coin that is being withdrawn\n        Coin memory c = coins[slot];\n        delete coins[slot];\n        ERC721(c.contractAddress).safeTransferFrom(address(this), msg.sender, uid);\n\n        emit Withdrew(\n            msg.sender,\n            slot,\n            c.contractAddress,\n            uid\n        );\n    }\n\n    /******************** CHALLENGES ********************/\n\n    /// @dev Submits proof of a transaction before prevTx as an exit challenge\n    /// @notice Exitor has to call respondChallengeBefore and submit a\n    ///         transaction before prevTx or prevTx itself.\n    /// @param slot The slot corresponding to the coin whose exit is being challenged\n    /// @param txBytes The RLP-encoded transaction involving a particular\n    ///        coin which an exiting owner of the coin claims to be the latest\n    /// @param txInclusionProof An inclusion proof of exitingTx\n    ///        owner indicated in prevTx\n    /// @param blockNumber The block containing the exitingTx\n    function challengeBefore(\n        uint64 slot,\n        bytes calldata txBytes,\n        bytes calldata txInclusionProof,\n        uint256 blockNumber\n    ) external payable isBonded isState(slot, State.EXITING) {\n\n        checkBefore(slot, txBytes, txInclusionProof, blockNumber);\n        setChallenged(slot, txBytes.getOwner(), blockNumber, txBytes.getHash());\n    }\n\n    /// @dev Submits proof of a later transaction that corresponds to a challenge\n    /// @notice Can only be called in the second window of the exit period.\n    /// @param slot The slot corresponding to the coin whose exit is being challenged\n    /// @param challengingTxHash The hash of the transaction\n    ///        corresponding to the challenge we're responding to\n    /// @param respondingBlockNumber The block number which included the transaction\n    ///        we are responding with\n    /// @param respondingTransaction The RLP-encoded transaction involving a particular\n    ///        coin which took place directly after challengingTransaction\n    /// @param proof An inclusion proof of respondingTransaction\n    /// @param signature The signature which proves a direct spend from the challenger\n    function respondChallengeBefore(\n        uint64 slot,\n        bytes32 challengingTxHash,\n        uint256 respondingBlockNumber,\n        bytes calldata respondingTransaction,\n        bytes calldata proof,\n        bytes calldata signature\n    ) external {\n        // Check that the transaction being challenged exists\n        require(challenges[slot].contains(challengingTxHash), \"Responding to non existing challenge\");\n\n        // Get index of challenge in the challenges array\n        uint256 index = uint256(challenges[slot].indexOf(challengingTxHash));\n\n        checkResponse(slot, index, respondingBlockNumber, respondingTransaction, signature, proof);\n\n        // If the exit was actually challenged and responded, penalize the challenger and award the responder\n        slashBond(challenges[slot][index].challenger, msg.sender);\n\n        challenges[slot].remove(challengingTxHash);\n        emit RespondedExitChallenge(slot);\n    }\n\n    function checkResponse(\n        uint64 slot,\n        uint256 index,\n        uint256 blockNumber,\n        bytes memory txBytes,\n        bytes memory signature,\n        bytes memory proof\n    ) private view {\n        Transaction.TX memory txData = checkTxValid(txBytes, proof, blockNumber);\n        require(txData.hash.ecverify(signature, challenges[slot][index].owner), \"Invalid signature\");\n        require(txData.slot == slot, \"Tx is referencing another slot\");\n        require(blockNumber > challenges[slot][index].challengingBlockNumber, \"BlockNumber must be after the chalenge\");\n        require(blockNumber <= coins[slot].exit.exitBlock, \"Cannot respond with a tx after the exit\");\n    }\n\n    function challengeBetween(\n        uint64 slot,\n        bytes calldata challengingTransaction,\n        bytes calldata proof,\n        bytes calldata signature,\n        uint256 challengingBlockNumber\n    ) external isState(slot, State.EXITING) {\n\n        checkBetween(slot, challengingTransaction, proof, signature, challengingBlockNumber);\n        applyPenalties(slot);\n    }\n\n    function challengeAfter(\n        uint64 slot,\n        bytes calldata challengingTransaction,\n        bytes calldata proof,\n        bytes calldata signature,\n        uint256 challengingBlockNumber\n    ) external isState(slot, State.EXITING) {\n\n        checkAfter(slot, challengingTransaction, proof, signature, challengingBlockNumber);\n        applyPenalties(slot);\n    }\n\n\n    // Must challenge with a tx in between\n\n    function checkBefore(\n        uint64 slot,\n        bytes memory txBytes,\n        bytes memory proof,\n        uint blockNumber\n    ) private view {\n\n        require(\n            blockNumber <= coins[slot].exit.prevBlock,\n            \"Tx should be before the exit's parent block\"\n        );\n\n        Transaction.TX memory txData = checkTxValid(txBytes, proof, blockNumber);\n        require(txData.slot == slot, \"Tx is referencing another slot\");\n    }\n\n\n    // Check that the challenging transaction has been signed\n    // by the attested previous owner of the coin in the exit\n    function checkBetween(\n        uint64 slot,\n        bytes memory txBytes,\n        bytes memory proof,\n        bytes memory signature,\n        uint blockNumber\n    ) private view {\n\n        require(\n            coins[slot].exit.exitBlock > blockNumber &&\n            coins[slot].exit.prevBlock < blockNumber,\n            \"Tx should be between the exit's blocks\"\n        );\n\n        Transaction.TX memory txData = checkTxValid(txBytes, proof, blockNumber);\n        require(txData.hash.ecverify(signature, coins[slot].exit.prevOwner), \"Invalid signature\");\n        require(txData.slot == slot, \"Tx is referencing another slot\");\n    }\n\n    function checkAfter(\n        uint64 slot,\n        bytes memory txBytes,\n        bytes memory proof,\n        bytes memory signature,\n        uint blockNumber\n    ) private view {\n\n        require(\n            coins[slot].exit.exitBlock < blockNumber,\n            \"Tx should be after the exitBlock\"\n        );\n\n        Transaction.TX memory txData = checkTxValid(txBytes, proof, blockNumber);\n        require(txData.hash.ecverify(signature, coins[slot].exit.owner), \"Invalid signature\");\n        require(txData.slot == slot, \"Tx is referencing another slot\");\n        require(txData.prevBlock == coins[slot].exit.exitBlock, \"Not a direct spend\");\n    }\n\n    function applyPenalties(uint64 slot) private {\n\n        // Apply penalties and change state\n        slashBond(coins[slot].exit.owner, msg.sender);\n        coins[slot].state = State.NOT_EXITING;\n        delete coins[slot].exit;\n        emit CoinReset(slot, coins[slot].owner);\n    }\n\n    /// @param slot The slot of the coin being challenged\n    /// @param owner The user claimed to be the true owner of the coin\n    function setChallenged(uint64 slot, address owner, uint256 challengingBlockNumber, bytes32 txHash) private {\n\n        // Require that the challenge is in the first half of the challenge window\n        require(block.timestamp <= coins[slot].exit.createdAt + CHALLENGE_WINDOW, \"Challenge windows is over\");\n\n        require(!challenges[slot].contains(txHash),\n            \"Transaction used for challenge already\");\n\n        // Need to save the exiting transaction's owner, to verify\n        // that the response is valid\n        challenges[slot].push(\n            ChallengeLib.Challenge({\n                owner: owner,\n                challenger: msg.sender,\n                txHash: txHash,\n                challengingBlockNumber: challengingBlockNumber\n            })\n        );\n\n        emit ChallengedExit(slot, owner, txHash, challengingBlockNumber);\n    }\n\n    /******************** BOND RELATED ********************/\n\n    function freeBond(address from) private {\n\n        balances[from].bonded = balances[from].bonded.sub(BOND_AMOUNT);\n        balances[from].withdrawable = balances[from].withdrawable.add(BOND_AMOUNT);\n        emit FreedBond(from, BOND_AMOUNT);\n    }\n\n    function withdrawBonds() external {\n\n        // Can only withdraw bond if the msg.sender\n        uint256 amount = balances[msg.sender].withdrawable;\n        balances[msg.sender].withdrawable = 0; // no reentrancy!\n\n        msg.sender.transfer(amount);\n        emit WithdrewBonds(msg.sender, amount);\n    }\n\n    function slashBond(address from, address to) private {\n\n        balances[from].bonded = balances[from].bonded.sub(BOND_AMOUNT);\n        balances[to].withdrawable = balances[to].withdrawable.add(BOND_AMOUNT);\n        emit SlashedBond(from, to, BOND_AMOUNT);\n    }\n\n    /******************** PROOF CHECKING ********************/\n\n    function checkBothIncludedAndSigned(\n        bytes memory prevTxBytes, bytes memory exitingTxBytes,\n        bytes memory prevTxInclusionProof, bytes memory exitingTxInclusionProof,\n        bytes memory signature,\n        uint256[2] memory blocks\n    ) private view {\n\n        require(blocks[0] < blocks[1], \"Block on the first index must be the earlier of the 2 blocks\");\n\n        Transaction.TX memory prevTxData    = checkTxValid(prevTxBytes, prevTxInclusionProof, blocks[0]);\n        Transaction.TX memory exitingTxData = checkTxValid(exitingTxBytes, exitingTxInclusionProof, blocks[1]);\n\n        // Both transactions need to be referring to the same slot\n        require(exitingTxData.slot == prevTxData.slot,\"Slot on the ExitingTx does not match that on the prevTx\");\n\n        // The exiting transaction must be signed by the previous transaciton's receiver\n        require(exitingTxData.hash.ecverify(signature, prevTxData.receiver), \"Invalid signature\");\n    }\n\n    function checkTX(\n        bytes memory txBytes,\n        bytes memory proof,\n        uint256 blockNumber\n    ) public view {\n\n        checkTxValid(txBytes, proof, blockNumber);\n    }\n\n\n    function checkTxValid(\n        bytes memory txBytes,\n        bytes memory proof,\n        uint256 blockNumber\n    ) private view returns(Transaction.TX memory) {\n\n        RLPReader.RLPItem[] memory rlpTx = txBytes.toRLPItems();\n\n        if(rlpTx.isBasicTransaction()) {\n            //Basic transactions only validate are included\n            Transaction.TX memory txData = rlpTx.getBasicTx(txBytes);\n            checkHashIncluded(txData.slot, txData.hash, blockNumber, proof);\n            return txData;\n\n        } else if(rlpTx.isAtomicSwap()) {\n            ChildBlock memory secretRevealingBlock = secretRevealingChain[blockNumber];\n\n            if(secretRevealingBlock.root != 0) {\n                Transaction.AtomicSwapTX[] memory txsData = rlpTx.getAtomicSwapTxs();\n\n                //Check signature B -> A. A -> B signature is checked in outside if this function\n                require(txsData[1].hash.ecverify(txsData[1].signature, txsData[1].prevOwner), \"Invalid signature B in atomic swap\");\n\n                RLPReader.RLPItem[] memory proofs = proof.toRLPItems();\n                require(proofs.length == 4, \"4 proof must be submitted for an atomic swap\");\n                checkHashIncluded(txsData[0].slot, txsData[0].hash, blockNumber, proofs[0].toBytes());\n                checkHashIncluded(txsData[1].slot, txsData[1].hash, blockNumber, proofs[1].toBytes());\n                checkHashIncludedSecret(txsData[0].slot, txsData[0].secret, blockNumber, proofs[2].toBytes());\n                checkHashIncludedSecret(txsData[1].slot, txsData[1].secret, blockNumber, proofs[3].toBytes());\n\n                return txsData[0].toBasicTx();\n            } else {\n                ChildBlock memory childBlock = childChain[blockNumber];\n                if((block.timestamp - childBlock.createdAt) > SECRET_REVEALING_PERIOD) {\n                    revert(\"Secret was never revealed for this block, swap is invalid\");\n                } else {\n                    revert(\"Secret has not yet been revealed, there is still time to commit the transaction\");\n                }\n            }\n        } else {\n            revert(\"txBytes do not correspond neither to basic TX nor to Atomic swap\");\n        }\n    }\n\n\n    function checkHashIncluded(\n        uint64 slot,\n        bytes32 txHash,\n        uint256 blockNumber,\n        bytes memory proof\n    ) private view {\n        bytes32 root = childChain[blockNumber].root;\n\n        if (blockNumber % childBlockInterval != 0) {\n            // Check against block root for deposit block numbers\n            require(txHash == root, \"Transaction hash does not match rootHash\");\n        } else {\n            // Check against merkle tree for all other block numbers\n            require(\n                checkMembership(\n                    txHash,\n                    root,\n                    slot,\n                    proof\n                ),\n                \"Tx not included in claimed block\"\n            );\n        }\n    }\n\n    function checkHashIncludedSecret(\n        uint64 slot,\n        bytes32 secret,\n        uint256 blockNumber,\n        bytes memory proof\n    ) private view {\n\n        bytes32 root = secretRevealingChain[blockNumber].root;\n        require(blockNumber % childBlockInterval == 0, \"Trying to validate an atomic swap for a deposit block\");\n        // Check against merkle tree for all other block numbers\n        require(\n            checkMembership(\n                secret,\n                root,\n                slot,\n                proof\n            ),\n            \"Tx secret not included in claimed block\"\n        );\n    }\n\n    /******************** DEPOSIT FUNCTIONS ********************/\n\n    function pause() external isValidator {\n        paused = true;\n        emit Paused(true);\n    }\n\n    function unpause() external isValidator {\n        paused = false;\n        emit Paused(false);\n    }\n\n    function() external payable {\n        //TODO: Not quite sure about this\n        require(false, \"This contract does not receive money\");\n    }\n\n    function onERC721Received(address /*operator*/, address from, uint256 tokenId, bytes memory /*data*/)\n    public isTokenApproved(msg.sender) returns (bytes4) {\n\n        require(ERC721(msg.sender).ownerOf(tokenId) == address(this), \"Token was not transfered correctly\");\n        deposit(from, msg.sender, tokenId);\n        return this.onERC721Received.selector;\n    }\n\n    // Approve and Deposit function for 2-step deposits without having to approve the token by the validators\n    // Requires first to have called `approve` on the specified ERC721 contract\n    function depositERC721(uint256 uid, address contractAddress) external {\n        ERC721(contractAddress).safeTransferFrom(msg.sender, address(this), uid);\n    }\n\n    /******************** HELPERS ********************/\n\n    function checkMembership(\n        bytes32 txHash,\n        bytes32 root,\n        uint64 slot,\n        bytes memory proof\n    ) public view returns (bool) {\n\n        return smt.checkMembership(\n            txHash,\n            root,\n            slot,\n            proof);\n    }\n\n    function checkInclusion(\n        bytes32 txHash,\n        uint256 blockNumber,\n        uint64 slot,\n        bytes memory proof\n    ) public view returns (bool) {\n\n        ChildBlock memory childBlock = childChain[blockNumber];\n        if (blockNumber % childBlockInterval != 0) {\n            return txHash == childBlock.root && keccak256(abi.encodePacked(slot)) == childBlock.root;\n        } else {\n            return checkMembership(txHash, childBlock.root, slot, proof);\n        }\n    }\n\n    function checkValidationAndInclusion(\n        bytes calldata txBytes,\n        bytes calldata proof,\n        uint256 blockNumber\n    ) external view returns (bool) {\n\n        checkTxValid(txBytes, proof, blockNumber);\n        return true;\n    }\n\n    function getPlasmaCoin(uint64 slot) external view returns(uint256, uint256, address, State, address) {\n\n        Coin memory c = coins[slot];\n        return (c.uid, c.depositBlock, c.owner, c.state, c.contractAddress);\n    }\n\n    function getChallenge(uint64 slot, bytes32 txHash)\n    external view returns(address, address, bytes32, uint256) {\n\n        uint256 index = uint256(challenges[slot].indexOf(txHash));\n        ChallengeLib.Challenge memory c = challenges[slot][index];\n        return (c.owner, c.challenger, c.txHash, c.challengingBlockNumber);\n    }\n\n    function getChallenges(uint64 slot) external view returns(bytes32[] memory) {\n\n        uint length = challenges[slot].length;\n        bytes32[] memory slotChallenges = new bytes32[](length);\n        for (uint i = 0; i < length; i++) {\n            slotChallenges[i] = challenges[slot][i].txHash;\n        }\n\n        return slotChallenges;\n    }\n\n    function getExit(uint64 slot) external view returns(address, uint256, uint256, State, uint256) {\n        Exit memory e = coins[slot].exit;\n        return (e.owner, e.prevBlock, e.exitBlock, coins[slot].state, e.createdAt);\n    }\n\n    function getBlock(uint256 blockNumber) public view returns (bytes32, uint) {\n        return(childChain[blockNumber].root, childChain[blockNumber].createdAt);\n    }\n\n    function getSecretBlock(uint256 blockNumber) public view returns (bytes32, uint) {\n        return(secretRevealingChain[blockNumber].root, secretRevealingChain[blockNumber].createdAt);\n    }\n\n    function getBalance() external view returns(uint256, uint256) {\n        // Can only withdraw bond if the msg.sender\n        return (balances[msg.sender].bonded, balances[msg.sender].withdrawable);\n    }\n}\n",
  "sourcePath": "/home/juanfra/Documents/ITBA/PF/Plasma-Cash-RootChain/contracts/Core/RootChain.sol",
  "compiler": {
    "name": "solc",
    "version": "0.5.2+commit.1df8f40c.Emscripten.clang"
  },
  "schemaVersion": "3.0.16",
  "updatedAt": "2019-10-31T20:21:57.923Z",
  "devdoc": {
    "methods": {
      "challengeBefore(uint64,bytes,bytes,uint256)": {
        "details": "Submits proof of a transaction before prevTx as an exit challenge",
        "params": {
          "blockNumber": "The block containing the exitingTx",
          "slot": "The slot corresponding to the coin whose exit is being challenged",
          "txBytes": "The RLP-encoded transaction involving a particular        coin which an exiting owner of the coin claims to be the latest",
          "txInclusionProof": "An inclusion proof of exitingTx        owner indicated in prevTx"
        }
      },
      "doInclusionChecks(bytes,bytes,bytes,bytes,bytes,uint256[2])": {
        "details": "Verifies that consecutive two transaction involving the same coin      are valid",
        "params": {
          "blocks": "An array of two block numbers, at index 0, the block        containing the prevTx and at index 1, the block containing        the exitingTx",
          "exitingTxBytes": "The RLP-encoded transaction involving a particular        coin which an exiting owner of the coin claims to be the latest",
          "exitingTxInclusionProof": "An inclusion proof of exitingTx",
          "prevTxBytes": "The RLP-encoded transaction involving a particular        coin which took place directly before exitingTxBytes",
          "prevTxInclusionProof": "An inclusion proof of prevTx",
          "signature": "The signature of the exitingTxBytes by the coin        owner indicated in prevTx."
        }
      },
      "finalizeExit(uint64)": {
        "details": "Finalizes an exit, i.e. puts the exiting coin into the EXITED      state which will allow it to be withdrawn, provided the exit has      matured and has not been successfully challenged"
      },
      "finalizeExits(uint64[])": {
        "details": "Iterates through all of the initiated exits and finalizes those      which have matured without being successfully challenged"
      },
      "respondChallengeBefore(uint64,bytes32,uint256,bytes,bytes,bytes)": {
        "details": "Submits proof of a later transaction that corresponds to a challenge",
        "params": {
          "challengingTxHash": "The hash of the transaction        corresponding to the challenge we're responding to",
          "proof": "An inclusion proof of respondingTransaction",
          "respondingBlockNumber": "The block number which included the transaction        we are responding with",
          "respondingTransaction": "The RLP-encoded transaction involving a particular        coin which took place directly after challengingTransaction",
          "signature": "The signature which proves a direct spend from the challenger",
          "slot": "The slot corresponding to the coin whose exit is being challenged"
        }
      },
      "submitBlock(uint256,bytes32)": {
        "details": "called by a Validator to append a Plasma block to the Plasma chain",
        "params": {
          "root": "The transaction root hash of the Plasma block being added"
        }
      },
      "submitSecretBlock(uint256,bytes32)": {
        "details": "called by a Validator to append a Secret Revealing block to the Plasma chain",
        "params": {
          "root": "The transaction root hash of the Secret Revealing block being added"
        }
      },
      "withdraw(uint64)": {
        "details": "Withdraw a UTXO that has been exited",
        "params": {
          "slot": "The slot of the coin being withdrawn"
        }
      }
    }
  },
  "userdoc": {
    "methods": {
      "challengeBefore(uint64,bytes,bytes,uint256)": {
        "notice": "Exitor has to call respondChallengeBefore and submit a         transaction before prevTx or prevTx itself."
      },
      "checkMembership(bytes32,bytes32,uint64,bytes)": {
        "notice": "****************** HELPERS *******************"
      },
      "doInclusionChecks(bytes,bytes,bytes,bytes,bytes,uint256[2])": {
        "notice": "If exitingTxBytes corresponds to a deposit transaction, this function fails"
      },
      "pause()": {
        "notice": "****************** DEPOSIT FUNCTIONS *******************"
      },
      "respondChallengeBefore(uint64,bytes32,uint256,bytes,bytes,bytes)": {
        "notice": "Can only be called in the second window of the exit period."
      },
      "startDepositExit(uint64)": {
        "notice": "****************** EXIT RELATED *******************"
      }
    }
  }
}