{
  "contractName": "RootChain",
  "abi": [
    {
      "constant": true,
      "inputs": [
        {
          "name": "",
          "type": "address"
        }
      ],
      "name": "balances",
      "outputs": [
        {
          "name": "bonded",
          "type": "uint256"
        },
        {
          "name": "withdrawable",
          "type": "uint256"
        }
      ],
      "payable": false,
      "stateMutability": "view",
      "type": "function",
      "signature": "0x27e235e3"
    },
    {
      "constant": true,
      "inputs": [],
      "name": "childBlockInterval",
      "outputs": [
        {
          "name": "",
          "type": "uint256"
        }
      ],
      "payable": false,
      "stateMutability": "view",
      "type": "function",
      "signature": "0x38a9e0bc"
    },
    {
      "constant": true,
      "inputs": [],
      "name": "numCoins",
      "outputs": [
        {
          "name": "",
          "type": "uint64"
        }
      ],
      "payable": false,
      "stateMutability": "view",
      "type": "function",
      "signature": "0xa9737595"
    },
    {
      "constant": true,
      "inputs": [],
      "name": "currentBlock",
      "outputs": [
        {
          "name": "",
          "type": "uint256"
        }
      ],
      "payable": false,
      "stateMutability": "view",
      "type": "function",
      "signature": "0xe12ed13c"
    },
    {
      "constant": true,
      "inputs": [
        {
          "name": "",
          "type": "uint256"
        }
      ],
      "name": "childChain",
      "outputs": [
        {
          "name": "root",
          "type": "bytes32"
        },
        {
          "name": "createdAt",
          "type": "uint256"
        }
      ],
      "payable": false,
      "stateMutability": "view",
      "type": "function",
      "signature": "0xf95643b1"
    },
    {
      "inputs": [
        {
          "name": "_vmc",
          "type": "address"
        }
      ],
      "payable": false,
      "stateMutability": "nonpayable",
      "type": "constructor",
      "signature": "constructor"
    },
    {
      "payable": true,
      "stateMutability": "payable",
      "type": "fallback"
    },
    {
      "anonymous": false,
      "inputs": [
        {
          "indexed": true,
          "name": "slot",
          "type": "uint64"
        },
        {
          "indexed": false,
          "name": "blockNumber",
          "type": "uint256"
        },
        {
          "indexed": false,
          "name": "denomination",
          "type": "uint256"
        },
        {
          "indexed": true,
          "name": "from",
          "type": "address"
        },
        {
          "indexed": true,
          "name": "contractAddress",
          "type": "address"
        }
      ],
      "name": "Deposit",
      "type": "event",
      "signature": "0xaa231413cf2b61ec7d73eeef7c722cd8ef6ed7a76e4d9e533867281e94f9a823"
    },
    {
      "anonymous": false,
      "inputs": [
        {
          "indexed": false,
          "name": "blockNumber",
          "type": "uint256"
        },
        {
          "indexed": false,
          "name": "root",
          "type": "bytes32"
        },
        {
          "indexed": false,
          "name": "timestamp",
          "type": "uint256"
        }
      ],
      "name": "SubmittedBlock",
      "type": "event",
      "signature": "0x6d91cd6ccac8368394df514e6aee19a55264f5ab49a891af91ca86da27bedd4f"
    },
    {
      "anonymous": false,
      "inputs": [
        {
          "indexed": false,
          "name": "message",
          "type": "address"
        }
      ],
      "name": "Debug",
      "type": "event",
      "signature": "0x330da4cde831ccab151372275307c2f0cce2bcce846635cd66e6908f10d20363"
    },
    {
      "anonymous": false,
      "inputs": [
        {
          "indexed": true,
          "name": "slot",
          "type": "uint64"
        },
        {
          "indexed": true,
          "name": "owner",
          "type": "address"
        }
      ],
      "name": "StartedExit",
      "type": "event",
      "signature": "0xbaf912dedc1b0ee4647f945b0432e694bce1aa2c4e21052d9776876415874956"
    },
    {
      "anonymous": false,
      "inputs": [
        {
          "indexed": true,
          "name": "slot",
          "type": "uint64"
        },
        {
          "indexed": false,
          "name": "txHash",
          "type": "bytes32"
        },
        {
          "indexed": false,
          "name": "challengingBlockNumber",
          "type": "uint256"
        }
      ],
      "name": "ChallengedExit",
      "type": "event",
      "signature": "0x057d34b2360e71f2764a7189966401bc058621905c0bef7123a6bdfe9a13284b"
    },
    {
      "anonymous": false,
      "inputs": [
        {
          "indexed": true,
          "name": "slot",
          "type": "uint64"
        }
      ],
      "name": "RespondedExitChallenge",
      "type": "event",
      "signature": "0x7deeb80e1644537d3ba4f917cfcbaba62b54354e9f2598d6885d52e359885e25"
    },
    {
      "anonymous": false,
      "inputs": [
        {
          "indexed": true,
          "name": "slot",
          "type": "uint64"
        },
        {
          "indexed": true,
          "name": "owner",
          "type": "address"
        }
      ],
      "name": "CoinReset",
      "type": "event",
      "signature": "0x35cc9c4d0d9a2ce748d131382582af17dbf1f0d72167ea7906ea3f18597b31a4"
    },
    {
      "anonymous": false,
      "inputs": [
        {
          "indexed": true,
          "name": "slot",
          "type": "uint64"
        },
        {
          "indexed": false,
          "name": "owner",
          "type": "address"
        }
      ],
      "name": "FinalizedExit",
      "type": "event",
      "signature": "0x432647a5fb9bdea356d78f8e3d83b6ddc2e78b4e4a702ac7eb968f7fe03d9dda"
    },
    {
      "anonymous": false,
      "inputs": [
        {
          "indexed": true,
          "name": "from",
          "type": "address"
        },
        {
          "indexed": false,
          "name": "amount",
          "type": "uint256"
        }
      ],
      "name": "FreedBond",
      "type": "event",
      "signature": "0x5406cdbb33189b887da81a90c7ff307f3af1854b2504d0bde438b8bb5b7d8b52"
    },
    {
      "anonymous": false,
      "inputs": [
        {
          "indexed": true,
          "name": "from",
          "type": "address"
        },
        {
          "indexed": true,
          "name": "to",
          "type": "address"
        },
        {
          "indexed": false,
          "name": "amount",
          "type": "uint256"
        }
      ],
      "name": "SlashedBond",
      "type": "event",
      "signature": "0xbd6bf2f753dc1a7dee94a7abd7645adc6c228c2af17fd72d9104674cc5d21273"
    },
    {
      "anonymous": false,
      "inputs": [
        {
          "indexed": true,
          "name": "from",
          "type": "address"
        },
        {
          "indexed": false,
          "name": "amount",
          "type": "uint256"
        }
      ],
      "name": "WithdrewBonds",
      "type": "event",
      "signature": "0xba49a755e2e4831fb6ef34b384178b03af45679532c9ac5a2199b27b4dddea8d"
    },
    {
      "anonymous": false,
      "inputs": [
        {
          "indexed": true,
          "name": "owner",
          "type": "address"
        },
        {
          "indexed": true,
          "name": "slot",
          "type": "uint64"
        },
        {
          "indexed": false,
          "name": "mode",
          "type": "uint8"
        },
        {
          "indexed": false,
          "name": "contractAddress",
          "type": "address"
        },
        {
          "indexed": false,
          "name": "uid",
          "type": "uint256"
        },
        {
          "indexed": false,
          "name": "denomination",
          "type": "uint256"
        }
      ],
      "name": "Withdrew",
      "type": "event",
      "signature": "0xc753e3ccb1413ef7152e8d33fd0abfb140e236ce17bf9ae40a2a6940bcb7ed7b"
    },
    {
      "anonymous": false,
      "inputs": [
        {
          "indexed": false,
          "name": "status",
          "type": "bool"
        }
      ],
      "name": "Paused",
      "type": "event",
      "signature": "0x0e2fb031ee032dc02d8011dc50b816eb450cf856abd8261680dac74f72165bd2"
    },
    {
      "constant": false,
      "inputs": [
        {
          "name": "blockNumber",
          "type": "uint256"
        },
        {
          "name": "root",
          "type": "bytes32"
        }
      ],
      "name": "submitBlock",
      "outputs": [],
      "payable": false,
      "stateMutability": "nonpayable",
      "type": "function",
      "signature": "0x149be19f"
    },
    {
      "constant": false,
      "inputs": [
        {
          "name": "slot",
          "type": "uint64"
        },
        {
          "name": "prevTxBytes",
          "type": "bytes"
        },
        {
          "name": "exitingTxBytes",
          "type": "bytes"
        },
        {
          "name": "prevTxInclusionProof",
          "type": "bytes"
        },
        {
          "name": "exitingTxInclusionProof",
          "type": "bytes"
        },
        {
          "name": "signature",
          "type": "bytes"
        },
        {
          "name": "blocks",
          "type": "uint256[2]"
        }
      ],
      "name": "startExit",
      "outputs": [],
      "payable": true,
      "stateMutability": "payable",
      "type": "function",
      "signature": "0xe9a067c0"
    },
    {
      "constant": false,
      "inputs": [
        {
          "name": "slot",
          "type": "uint64"
        }
      ],
      "name": "finalizeExit",
      "outputs": [],
      "payable": false,
      "stateMutability": "nonpayable",
      "type": "function",
      "signature": "0x78417214"
    },
    {
      "constant": false,
      "inputs": [
        {
          "name": "slots",
          "type": "uint64[]"
        }
      ],
      "name": "finalizeExits",
      "outputs": [],
      "payable": false,
      "stateMutability": "nonpayable",
      "type": "function",
      "signature": "0x74c0a56f"
    },
    {
      "constant": false,
      "inputs": [
        {
          "name": "slot",
          "type": "uint64"
        }
      ],
      "name": "cancelExit",
      "outputs": [],
      "payable": false,
      "stateMutability": "nonpayable",
      "type": "function",
      "signature": "0xcbd8da63"
    },
    {
      "constant": false,
      "inputs": [
        {
          "name": "slots",
          "type": "uint64[]"
        }
      ],
      "name": "cancelExits",
      "outputs": [],
      "payable": false,
      "stateMutability": "nonpayable",
      "type": "function",
      "signature": "0xdf3b8377"
    },
    {
      "constant": false,
      "inputs": [
        {
          "name": "slot",
          "type": "uint64"
        }
      ],
      "name": "withdraw",
      "outputs": [],
      "payable": false,
      "stateMutability": "nonpayable",
      "type": "function",
      "signature": "0x750f0acc"
    },
    {
      "constant": false,
      "inputs": [
        {
          "name": "slot",
          "type": "uint64"
        },
        {
          "name": "txBytes",
          "type": "bytes"
        },
        {
          "name": "txInclusionProof",
          "type": "bytes"
        },
        {
          "name": "signature",
          "type": "bytes"
        },
        {
          "name": "blockNumber",
          "type": "uint256"
        }
      ],
      "name": "challengeBefore",
      "outputs": [],
      "payable": true,
      "stateMutability": "payable",
      "type": "function",
      "signature": "0x7eb7b0f6"
    },
    {
      "constant": false,
      "inputs": [
        {
          "name": "slot",
          "type": "uint64"
        },
        {
          "name": "challengingTxHash",
          "type": "bytes32"
        },
        {
          "name": "respondingBlockNumber",
          "type": "uint256"
        },
        {
          "name": "respondingTransaction",
          "type": "bytes"
        },
        {
          "name": "proof",
          "type": "bytes"
        },
        {
          "name": "signature",
          "type": "bytes"
        }
      ],
      "name": "respondChallengeBefore",
      "outputs": [],
      "payable": false,
      "stateMutability": "nonpayable",
      "type": "function",
      "signature": "0x4d69a8a1"
    },
    {
      "constant": false,
      "inputs": [
        {
          "name": "slot",
          "type": "uint64"
        },
        {
          "name": "challengingBlockNumber",
          "type": "uint256"
        },
        {
          "name": "challengingTransaction",
          "type": "bytes"
        },
        {
          "name": "proof",
          "type": "bytes"
        },
        {
          "name": "signature",
          "type": "bytes"
        }
      ],
      "name": "challengeBetween",
      "outputs": [],
      "payable": false,
      "stateMutability": "nonpayable",
      "type": "function",
      "signature": "0xf6d0ba1a"
    },
    {
      "constant": false,
      "inputs": [
        {
          "name": "slot",
          "type": "uint64"
        },
        {
          "name": "challengingBlockNumber",
          "type": "uint256"
        },
        {
          "name": "challengingTransaction",
          "type": "bytes"
        },
        {
          "name": "proof",
          "type": "bytes"
        },
        {
          "name": "signature",
          "type": "bytes"
        }
      ],
      "name": "challengeAfter",
      "outputs": [],
      "payable": false,
      "stateMutability": "nonpayable",
      "type": "function",
      "signature": "0x058a6508"
    },
    {
      "constant": false,
      "inputs": [],
      "name": "withdrawBonds",
      "outputs": [],
      "payable": false,
      "stateMutability": "nonpayable",
      "type": "function",
      "signature": "0x1cc6ffa0"
    },
    {
      "constant": false,
      "inputs": [],
      "name": "pause",
      "outputs": [],
      "payable": false,
      "stateMutability": "nonpayable",
      "type": "function",
      "signature": "0x8456cb59"
    },
    {
      "constant": false,
      "inputs": [],
      "name": "unpause",
      "outputs": [],
      "payable": false,
      "stateMutability": "nonpayable",
      "type": "function",
      "signature": "0x3f4ba83a"
    },
    {
      "constant": false,
      "inputs": [
        {
          "name": "",
          "type": "address"
        },
        {
          "name": "from",
          "type": "address"
        },
        {
          "name": "tokenId",
          "type": "uint256"
        },
        {
          "name": "",
          "type": "bytes"
        }
      ],
      "name": "onERC721Received",
      "outputs": [
        {
          "name": "",
          "type": "bytes4"
        }
      ],
      "payable": false,
      "stateMutability": "nonpayable",
      "type": "function",
      "signature": "0x150b7a02"
    },
    {
      "constant": false,
      "inputs": [
        {
          "name": "uid",
          "type": "uint256"
        },
        {
          "name": "contractAddress",
          "type": "address"
        }
      ],
      "name": "depositERC721",
      "outputs": [],
      "payable": false,
      "stateMutability": "nonpayable",
      "type": "function",
      "signature": "0xc8ac6542"
    },
    {
      "constant": true,
      "inputs": [
        {
          "name": "txHash",
          "type": "bytes32"
        },
        {
          "name": "root",
          "type": "bytes32"
        },
        {
          "name": "slot",
          "type": "uint64"
        },
        {
          "name": "proof",
          "type": "bytes"
        }
      ],
      "name": "checkMembership",
      "outputs": [
        {
          "name": "",
          "type": "bool"
        }
      ],
      "payable": false,
      "stateMutability": "view",
      "type": "function",
      "signature": "0xf586df65"
    },
    {
      "constant": true,
      "inputs": [
        {
          "name": "slot",
          "type": "uint64"
        }
      ],
      "name": "getPlasmaCoin",
      "outputs": [
        {
          "name": "",
          "type": "uint256"
        },
        {
          "name": "",
          "type": "uint256"
        },
        {
          "name": "",
          "type": "uint256"
        },
        {
          "name": "",
          "type": "address"
        },
        {
          "name": "",
          "type": "uint8"
        },
        {
          "name": "",
          "type": "uint8"
        },
        {
          "name": "",
          "type": "address"
        }
      ],
      "payable": false,
      "stateMutability": "view",
      "type": "function",
      "signature": "0xf8353cf0"
    },
    {
      "constant": true,
      "inputs": [
        {
          "name": "slot",
          "type": "uint64"
        },
        {
          "name": "txHash",
          "type": "bytes32"
        }
      ],
      "name": "getChallenge",
      "outputs": [
        {
          "name": "",
          "type": "address"
        },
        {
          "name": "",
          "type": "address"
        },
        {
          "name": "",
          "type": "bytes32"
        },
        {
          "name": "",
          "type": "uint256"
        }
      ],
      "payable": false,
      "stateMutability": "view",
      "type": "function",
      "signature": "0x81686e6b"
    },
    {
      "constant": true,
      "inputs": [
        {
          "name": "slot",
          "type": "uint64"
        }
      ],
      "name": "getChallenges",
      "outputs": [
        {
          "name": "",
          "type": "bytes32[]"
        }
      ],
      "payable": false,
      "stateMutability": "view",
      "type": "function",
      "signature": "0x7109b65e"
    },
    {
      "constant": true,
      "inputs": [
        {
          "name": "slot",
          "type": "uint64"
        }
      ],
      "name": "getExit",
      "outputs": [
        {
          "name": "",
          "type": "address"
        },
        {
          "name": "",
          "type": "uint256"
        },
        {
          "name": "",
          "type": "uint256"
        },
        {
          "name": "",
          "type": "uint8"
        },
        {
          "name": "",
          "type": "uint256"
        }
      ],
      "payable": false,
      "stateMutability": "view",
      "type": "function",
      "signature": "0xd157796e"
    },
    {
      "constant": true,
      "inputs": [
        {
          "name": "blockNumber",
          "type": "uint256"
        }
      ],
      "name": "getBlockRoot",
      "outputs": [
        {
          "name": "root",
          "type": "bytes32"
        }
      ],
      "payable": false,
      "stateMutability": "view",
      "type": "function",
      "signature": "0xe41a5d17"
    },
    {
      "constant": true,
      "inputs": [],
      "name": "getBalance",
      "outputs": [
        {
          "name": "",
          "type": "uint256"
        },
        {
          "name": "",
          "type": "uint256"
        }
      ],
      "payable": false,
      "stateMutability": "view",
      "type": "function",
      "signature": "0x12065fe0"
    }
  ],
  "bytecode": "0x60806040526000600360006101000a81548167ffffffffffffffff021916908367ffffffffffffffff1602179055506103e860055560006006553480156200004657600080fd5b5060405160208062007dc0833981018060405260208110156200006857600080fd5b810190808051906020019092919050505080600860006101000a81548173ffffffffffffffffffffffffffffffffffffffff021916908373ffffffffffffffffffffffffffffffffffffffff160217905550620000c462000129565b604051809103906000f080158015620000e1573d6000803e3d6000fd5b50600960006101000a81548173ffffffffffffffffffffffffffffffffffffffff021916908373ffffffffffffffffffffffffffffffffffffffff160217905550506200013a565b60405161060e80620077b283390190565b617668806200014a6000396000f3fe6080604052600436106101d4576000357c01000000000000000000000000000000000000000000000000000000009004806381686e6b11610109578063e12ed13c116100a7578063f586df6511610081578063f586df6514610fc1578063f6d0ba1a146110c9578063f8353cf014611217578063f95643b11461130e576101d4565b8063e12ed13c14610d5b578063e41a5d1714610d86578063e9a067c014610dd5576101d4565b8063c8ac6542116100e3578063c8ac654214610b86578063cbd8da6314610be1578063d157796e14610c26578063df3b837714610cd5576101d4565b806381686e6b14610a605780638456cb5914610b30578063a973759514610b47576101d4565b80633f4ba83a1161017657806374c0a56f1161015057806374c0a56f1461080f578063750f0acc1461089557806378417214146108da5780637eb7b0f61461091f576101d4565b80633f4ba83a146106065780634d69a8a11461061d5780637109b65e14610775576101d4565b8063150b7a02116101b2578063150b7a02146103f45780631cc6ffa01461055857806327e235e31461056f57806338a9e0bc146105db576101d4565b8063058a65081461022f57806312065fe01461037d578063149be19f146103af575b6000151561022d576040517f08c379a00000000000000000000000000000000000000000000000000000000081526004018080602001828103825260248152602001806175f36024913960400191505060405180910390fd5b005b34801561023b57600080fd5b5061037b600480360360a081101561025257600080fd5b81019080803567ffffffffffffffff169060200190929190803590602001909291908035906020019064010000000081111561028d57600080fd5b82018360208201111561029f57600080fd5b803590602001918460018302840111640100000000831117156102c157600080fd5b9091929391929390803590602001906401000000008111156102e257600080fd5b8201836020820111156102f457600080fd5b8035906020019184600183028401116401000000008311171561031657600080fd5b90919293919293908035906020019064010000000081111561033757600080fd5b82018360208201111561034957600080fd5b8035906020019184600183028401116401000000008311171561036b57600080fd5b9091929391929390505050611364565b005b34801561038957600080fd5b50610392611519565b604051808381526020018281526020019250505060405180910390f35b3480156103bb57600080fd5b506103f2600480360360408110156103d257600080fd5b8101908080359060200190929190803590602001909291905050506115aa565b005b34801561040057600080fd5b506105046004803603608081101561041757600080fd5b81019080803573ffffffffffffffffffffffffffffffffffffffff169060200190929190803573ffffffffffffffffffffffffffffffffffffffff169060200190929190803590602001909291908035906020019064010000000081111561047e57600080fd5b82018360208201111561049057600080fd5b803590602001918460018302840111640100000000831117156104b257600080fd5b91908080601f016020809104026020016040519081016040528093929190818152602001838380828437600081840152601f19601f820116905080830192505050505050509192919290505050611806565b60405180827bffffffffffffffffffffffffffffffffffffffffffffffffffffffff19167bffffffffffffffffffffffffffffffffffffffffffffffffffffffff1916815260200191505060405180910390f35b34801561056457600080fd5b5061056d611ac1565b005b34801561057b57600080fd5b506105be6004803603602081101561059257600080fd5b81019080803573ffffffffffffffffffffffffffffffffffffffff169060200190929190505050611be8565b604051808381526020018281526020019250505060405180910390f35b3480156105e757600080fd5b506105f0611c0c565b6040518082815260200191505060405180910390f35b34801561061257600080fd5b5061061b611c12565b005b34801561062957600080fd5b50610773600480360360c081101561064057600080fd5b81019080803567ffffffffffffffff16906020019092919080359060200190929190803590602001909291908035906020019064010000000081111561068557600080fd5b82018360208201111561069757600080fd5b803590602001918460018302840111640100000000831117156106b957600080fd5b9091929391929390803590602001906401000000008111156106da57600080fd5b8201836020820111156106ec57600080fd5b8035906020019184600183028401116401000000008311171561070e57600080fd5b90919293919293908035906020019064010000000081111561072f57600080fd5b82018360208201111561074157600080fd5b8035906020019184600183028401116401000000008311171561076357600080fd5b9091929391929390505050611dd4565b005b34801561078157600080fd5b506107b86004803603602081101561079857600080fd5b81019080803567ffffffffffffffff169060200190929190505050612067565b6040518080602001828103825283818151815260200191508051906020019060200280838360005b838110156107fb5780820151818401526020810190506107e0565b505050509050019250505060405180910390f35b34801561081b57600080fd5b506108936004803603602081101561083257600080fd5b810190808035906020019064010000000081111561084f57600080fd5b82018360208201111561086157600080fd5b8035906020019184602083028401116401000000008311171561088357600080fd5b9091929391929390505050612154565b005b3480156108a157600080fd5b506108d8600480360360208110156108b857600080fd5b81019080803567ffffffffffffffff1690602001909291905050506121a4565b005b3480156108e657600080fd5b5061091d600480360360208110156108fd57600080fd5b81019080803567ffffffffffffffff169060200190929190505050612971565b005b610a5e600480360360a081101561093557600080fd5b81019080803567ffffffffffffffff1690602001909291908035906020019064010000000081111561096657600080fd5b82018360208201111561097857600080fd5b8035906020019184600183028401116401000000008311171561099a57600080fd5b9091929391929390803590602001906401000000008111156109bb57600080fd5b8201836020820111156109cd57600080fd5b803590602001918460018302840111640100000000831117156109ef57600080fd5b909192939192939080359060200190640100000000811115610a1057600080fd5b820183602082011115610a2257600080fd5b80359060200191846001830284011164010000000083111715610a4457600080fd5b909192939192939080359060200190929190505050612d6c565b005b348015610a6c57600080fd5b50610aad60048036036040811015610a8357600080fd5b81019080803567ffffffffffffffff169060200190929190803590602001909291905050506130b9565b604051808573ffffffffffffffffffffffffffffffffffffffff1673ffffffffffffffffffffffffffffffffffffffff1681526020018473ffffffffffffffffffffffffffffffffffffffff1673ffffffffffffffffffffffffffffffffffffffff16815260200183815260200182815260200194505050505060405180910390f35b348015610b3c57600080fd5b50610b4561323b565b005b348015610b5357600080fd5b50610b5c6133fd565b604051808267ffffffffffffffff1667ffffffffffffffff16815260200191505060405180910390f35b348015610b9257600080fd5b50610bdf60048036036040811015610ba957600080fd5b8101908080359060200190929190803573ffffffffffffffffffffffffffffffffffffffff169060200190929190505050613417565b005b348015610bed57600080fd5b50610c2460048036036020811015610c0457600080fd5b81019080803567ffffffffffffffff16906020019092919050505061350a565b005b348015610c3257600080fd5b50610c6960048036036020811015610c4957600080fd5b81019080803567ffffffffffffffff169060200190929190505050613768565b604051808673ffffffffffffffffffffffffffffffffffffffff1673ffffffffffffffffffffffffffffffffffffffff168152602001858152602001848152602001836002811115610cb757fe5b60ff1681526020018281526020019550505050505060405180910390f35b348015610ce157600080fd5b50610d5960048036036020811015610cf857600080fd5b8101908080359060200190640100000000811115610d1557600080fd5b820183602082011115610d2757600080fd5b80359060200191846020830284011164010000000083111715610d4957600080fd5b90919293919293905050506138e4565b005b348015610d6757600080fd5b50610d70613934565b6040518082815260200191505060405180910390f35b348015610d9257600080fd5b50610dbf60048036036020811015610da957600080fd5b810190808035906020019092919050505061393a565b6040518082815260200191505060405180910390f35b610fbf6004803603610100811015610dec57600080fd5b81019080803567ffffffffffffffff16906020019092919080359060200190640100000000811115610e1d57600080fd5b820183602082011115610e2f57600080fd5b80359060200191846001830284011164010000000083111715610e5157600080fd5b909192939192939080359060200190640100000000811115610e7257600080fd5b820183602082011115610e8457600080fd5b80359060200191846001830284011164010000000083111715610ea657600080fd5b909192939192939080359060200190640100000000811115610ec757600080fd5b820183602082011115610ed957600080fd5b80359060200191846001830284011164010000000083111715610efb57600080fd5b909192939192939080359060200190640100000000811115610f1c57600080fd5b820183602082011115610f2e57600080fd5b80359060200191846001830284011164010000000083111715610f5057600080fd5b909192939192939080359060200190640100000000811115610f7157600080fd5b820183602082011115610f8357600080fd5b80359060200191846001830284011164010000000083111715610fa557600080fd5b90919293919293908060400190919291929050505061395a565b005b348015610fcd57600080fd5b506110af60048036036080811015610fe457600080fd5b810190808035906020019092919080359060200190929190803567ffffffffffffffff1690602001909291908035906020019064010000000081111561102957600080fd5b82018360208201111561103b57600080fd5b8035906020019184600183028401116401000000008311171561105d57600080fd5b91908080601f016020809104026020016040519081016040528093929190818152602001838380828437600081840152601f19601f820116905080830192505050505050509192919290505050613e9a565b604051808215151515815260200191505060405180910390f35b3480156110d557600080fd5b50611215600480360360a08110156110ec57600080fd5b81019080803567ffffffffffffffff169060200190929190803590602001909291908035906020019064010000000081111561112757600080fd5b82018360208201111561113957600080fd5b8035906020019184600183028401116401000000008311171561115b57600080fd5b90919293919293908035906020019064010000000081111561117c57600080fd5b82018360208201111561118e57600080fd5b803590602001918460018302840111640100000000831117156111b057600080fd5b9091929391929390803590602001906401000000008111156111d157600080fd5b8201836020820111156111e357600080fd5b8035906020019184600183028401116401000000008311171561120557600080fd5b9091929391929390505050614001565b005b34801561122357600080fd5b5061125a6004803603602081101561123a57600080fd5b81019080803567ffffffffffffffff1690602001909291905050506141b6565b604051808881526020018781526020018681526020018573ffffffffffffffffffffffffffffffffffffffff1673ffffffffffffffffffffffffffffffffffffffff1681526020018460028111156112ae57fe5b60ff1681526020018360008111156112c257fe5b60ff1681526020018273ffffffffffffffffffffffffffffffffffffffff1673ffffffffffffffffffffffffffffffffffffffff16815260200197505050505050505060405180910390f35b34801561131a57600080fd5b506113476004803603602081101561133157600080fd5b8101908080359060200190929190505050614449565b604051808381526020018281526020019250505060405180910390f35b87600180600281111561137357fe5b600460008467ffffffffffffffff1667ffffffffffffffff16815260200190815260200160002060000160019054906101000a900460ff1660028111156113b657fe5b14151561142b576040517f08c379a00000000000000000000000000000000000000000000000000000000081526004018080602001828103825260108152602001807f57726f6e6720636f696e2073746174650000000000000000000000000000000081525060200191505060405180910390fd5b6115048a89898080601f016020809104026020016040519081016040528093929190818152602001838380828437600081840152601f19601f820116905080830192505050505050508b87878080601f016020809104026020016040519081016040528093929190818152602001838380828437600081840152601f19601f820116905080830192505050505050508a8a8080601f016020809104026020016040519081016040528093929190818152602001838380828437600081840152601f19601f8201169050808301925050505050505061446d565b61150d8a61474d565b50505050505050505050565b600080600160003373ffffffffffffffffffffffffffffffffffffffff1673ffffffffffffffffffffffffffffffffffffffff16815260200190815260200160002060000154600160003373ffffffffffffffffffffffffffffffffffffffff1673ffffffffffffffffffffffffffffffffffffffff16815260200190815260200160002060010154915091509091565b600860009054906101000a900473ffffffffffffffffffffffffffffffffffffffff1673ffffffffffffffffffffffffffffffffffffffff1663797327ae336040518263ffffffff167c0100000000000000000000000000000000000000000000000000000000028152600401808273ffffffffffffffffffffffffffffffffffffffff1673ffffffffffffffffffffffffffffffffffffffff16815260200191505060206040518083038186803b15801561166557600080fd5b505afa158015611679573d6000803e3d6000fd5b505050506040513d602081101561168f57600080fd5b81019080805190602001909291905050501515611714576040517f08c379a00000000000000000000000000000000000000000000000000000000081526004018080602001828103825260198152602001807f53656e646572206973206e6f7420612056616c696461746f720000000000000081525060200191505060405180910390fd5b6006548210151515611771576040517f08c379a00000000000000000000000000000000000000000000000000000000081526004018080602001828103825260328152602001806175c16032913960400191505060405180910390fd5b8160068190555060408051908101604052808281526020014281525060076000600654815260200190815260200160002060008201518160000155602082015181600101559050507f6d91cd6ccac8368394df514e6aee19a55264f5ab49a891af91ca86da27bedd4f600654824260405180848152602001838152602001828152602001935050505060405180910390a15050565b600033600860009054906101000a900473ffffffffffffffffffffffffffffffffffffffff1673ffffffffffffffffffffffffffffffffffffffff1663e744092e826040518263ffffffff167c0100000000000000000000000000000000000000000000000000000000028152600401808273ffffffffffffffffffffffffffffffffffffffff1673ffffffffffffffffffffffffffffffffffffffff16815260200191505060206040518083038186803b1580156118c457600080fd5b505afa1580156118d8573d6000803e3d6000fd5b505050506040513d60208110156118ee57600080fd5b81019080805190602001909291905050501515611956576040517f08c379a000000000000000000000000000000000000000000000000000000000815260040180806020018281038252602d81526020018061748b602d913960400191505060405180910390fd5b3073ffffffffffffffffffffffffffffffffffffffff163373ffffffffffffffffffffffffffffffffffffffff16636352211e866040518263ffffffff167c01000000000000000000000000000000000000000000000000000000000281526004018082815260200191505060206040518083038186803b1580156119da57600080fd5b505afa1580156119ee573d6000803e3d6000fd5b505050506040513d6020811015611a0457600080fd5b810190808051906020019092919050505073ffffffffffffffffffffffffffffffffffffffff16141515611a83576040517f08c379a000000000000000000000000000000000000000000000000000000000815260040180806020018281038252602281526020018061739d6022913960400191505060405180910390fd5b611a9285338660016000614926565b63150b7a027c010000000000000000000000000000000000000000000000000000000002915050949350505050565b6000600160003373ffffffffffffffffffffffffffffffffffffffff1673ffffffffffffffffffffffffffffffffffffffff1681526020019081526020016000206001015490506000600160003373ffffffffffffffffffffffffffffffffffffffff1673ffffffffffffffffffffffffffffffffffffffff168152602001908152602001600020600101819055503373ffffffffffffffffffffffffffffffffffffffff166108fc829081150290604051600060405180830381858888f19350505050158015611b96573d6000803e3d6000fd5b503373ffffffffffffffffffffffffffffffffffffffff167fba49a755e2e4831fb6ef34b384178b03af45679532c9ac5a2199b27b4dddea8d826040518082815260200191505060405180910390a250565b60016020528060005260406000206000915090508060000154908060010154905082565b60055481565b600860009054906101000a900473ffffffffffffffffffffffffffffffffffffffff1673ffffffffffffffffffffffffffffffffffffffff1663797327ae336040518263ffffffff167c0100000000000000000000000000000000000000000000000000000000028152600401808273ffffffffffffffffffffffffffffffffffffffff1673ffffffffffffffffffffffffffffffffffffffff16815260200191505060206040518083038186803b158015611ccd57600080fd5b505afa158015611ce1573d6000803e3d6000fd5b505050506040513d6020811015611cf757600080fd5b81019080805190602001909291905050501515611d7c576040517f08c379a00000000000000000000000000000000000000000000000000000000081526004018080602001828103825260198152602001807f53656e646572206973206e6f7420612056616c696461746f720000000000000081525060200191505060405180910390fd5b60008060006101000a81548160ff0219169083151502179055507f0e2fb031ee032dc02d8011dc50b816eb450cf856abd8261680dac74f72165bd26000604051808215151515815260200191505060405180910390a1565b611e0d88600260008c67ffffffffffffffff1667ffffffffffffffff168152602001908152602001600020614d3090919063ffffffff16565b1515611e64576040517f08c379a000000000000000000000000000000000000000000000000000000000815260040180806020018281038252602481526020018061734e6024913960400191505060405180910390fd5b6000611e9f89600260008d67ffffffffffffffff1667ffffffffffffffff168152602001908152602001600020614d6c90919063ffffffff16565b9050611f7b8a828a8a8a8080601f016020809104026020016040519081016040528093929190818152602001838380828437600081840152601f19601f8201169050808301925050505050505087878080601f016020809104026020016040519081016040528093929190818152602001838380828437600081840152601f19601f820116905080830192505050505050508a8a8080601f016020809104026020016040519081016040528093929190818152602001838380828437600081840152601f19601f82011690508083019250505050505050614de8565b611fea600260008c67ffffffffffffffff1667ffffffffffffffff16815260200190815260200160002082815481101515611fb257fe5b906000526020600020906004020160010160009054906101000a900473ffffffffffffffffffffffffffffffffffffffff16336150c0565b61202389600260008d67ffffffffffffffff1667ffffffffffffffff16815260200190815260200160002061527790919063ffffffff16565b508967ffffffffffffffff167f7deeb80e1644537d3ba4f917cfcbaba62b54354e9f2598d6885d52e359885e2560405160405180910390a250505050505050505050565b60606000600260008467ffffffffffffffff1667ffffffffffffffff1681526020019081526020016000208054905090506060816040519080825280602002602001820160405280156120c95781602001602082028038833980820191505090505b50905060008090505b8281101561214957600260008667ffffffffffffffff1667ffffffffffffffff1681526020019081526020016000208181548110151561210e57fe5b906000526020600020906004020160020154828281518110151561212e57fe5b906020019060200201818152505080806001019150506120d2565b508092505050919050565b600082829050905060008090505b8181101561219e57612191848483818110151561217b57fe5b9050602002013567ffffffffffffffff16612971565b8080600101915050612162565b50505050565b8060028060028111156121b357fe5b600460008467ffffffffffffffff1667ffffffffffffffff16815260200190815260200160002060000160019054906101000a900460ff1660028111156121f657fe5b14151561226b576040517f08c379a00000000000000000000000000000000000000000000000000000000081526004018080602001828103825260108152602001807f57726f6e6720636f696e2073746174650000000000000000000000000000000081525060200191505060405180910390fd5b3373ffffffffffffffffffffffffffffffffffffffff16600460008567ffffffffffffffff1667ffffffffffffffff16815260200190815260200160002060000160029054906101000a900473ffffffffffffffffffffffffffffffffffffffff1673ffffffffffffffffffffffffffffffffffffffff16141515612358576040517f08c379a00000000000000000000000000000000000000000000000000000000081526004018080602001828103825260188152602001807f596f7520646f206e6f74206f776e2074686174205554584f000000000000000081525060200191505060405180910390fd5b6000600460008567ffffffffffffffff1667ffffffffffffffff1681526020019081526020016000206008015490506000600460008667ffffffffffffffff1667ffffffffffffffff1681526020019081526020016000206009015490506123be617044565b600460008767ffffffffffffffff1667ffffffffffffffff16815260200190815260200160002061010060405190810160405290816000820160009054906101000a900460ff16600081111561241057fe5b600081111561241b57fe5b81526020016000820160019054906101000a900460ff16600281111561243d57fe5b600281111561244857fe5b81526020016000820160029054906101000a900473ffffffffffffffffffffffffffffffffffffffff1673ffffffffffffffffffffffffffffffffffffffff1673ffffffffffffffffffffffffffffffffffffffff1681526020016001820160009054906101000a900473ffffffffffffffffffffffffffffffffffffffff1673ffffffffffffffffffffffffffffffffffffffff1673ffffffffffffffffffffffffffffffffffffffff1681526020016002820160c060405190810160405290816000820160009054906101000a900473ffffffffffffffffffffffffffffffffffffffff1673ffffffffffffffffffffffffffffffffffffffff1673ffffffffffffffffffffffffffffffffffffffff1681526020016001820160009054906101000a900473ffffffffffffffffffffffffffffffffffffffff1673ffffffffffffffffffffffffffffffffffffffff1673ffffffffffffffffffffffffffffffffffffffff16815260200160028201548152602001600382015481526020016004820154815260200160058201548152505081526020016008820154815260200160098201548152602001600a820154815250509050600460008767ffffffffffffffff1667ffffffffffffffff168152602001908152602001600020600080820160006101000a81549060ff02191690556000820160016101000a81549060ff02191690556000820160026101000a81549073ffffffffffffffffffffffffffffffffffffffff02191690556001820160006101000a81549073ffffffffffffffffffffffffffffffffffffffff021916905560028201600080820160006101000a81549073ffffffffffffffffffffffffffffffffffffffff02191690556001820160006101000a81549073ffffffffffffffffffffffffffffffffffffffff02191690556002820160009055600382016000905560048201600090556005820160009055505060088201600090556009820160009055600a820160009055505060008081111561273a57fe5b8160000151600081111561274a57fe5b141561284857806060015173ffffffffffffffffffffffffffffffffffffffff166342842e0e3033866040518463ffffffff167c0100000000000000000000000000000000000000000000000000000000028152600401808473ffffffffffffffffffffffffffffffffffffffff1673ffffffffffffffffffffffffffffffffffffffff1681526020018373ffffffffffffffffffffffffffffffffffffffff1673ffffffffffffffffffffffffffffffffffffffff1681526020018281526020019350505050600060405180830381600087803b15801561282b57600080fd5b505af115801561283f573d6000803e3d6000fd5b505050506128b6565b6040517f08c379a00000000000000000000000000000000000000000000000000000000081526004018080602001828103825260118152602001807f496e76616c696420636f696e206d6f646500000000000000000000000000000081525060200191505060405180910390fd5b8567ffffffffffffffff163373ffffffffffffffffffffffffffffffffffffffff167fc753e3ccb1413ef7152e8d33fd0abfb140e236ce17bf9ae40a2a6940bcb7ed7b8360000151846060015187876040518085600081111561291557fe5b60ff1681526020018473ffffffffffffffffffffffffffffffffffffffff1673ffffffffffffffffffffffffffffffffffffffff16815260200183815260200182815260200194505050505060405180910390a3505050505050565b80600180600281111561298057fe5b600460008467ffffffffffffffff1667ffffffffffffffff16815260200190815260200160002060000160019054906101000a900460ff1660028111156129c357fe5b141515612a38576040517f08c379a00000000000000000000000000000000000000000000000000000000081526004018080602001828103825260108152602001807f57726f6e6720636f696e2073746174650000000000000000000000000000000081525060200191505060405180910390fd5b6000600460008567ffffffffffffffff1667ffffffffffffffff168152602001908152602001600020905062093a8081600201600201544203111515612ac9576040517f08c379a000000000000000000000000000000000000000000000000000000000815260040180806020018281038252603c815260200180617585603c913960400191505060405180910390fd5b6000612ad48561551c565b9050801515612c31578160020160010160009054906101000a900473ffffffffffffffffffffffffffffffffffffffff168260000160026101000a81548173ffffffffffffffffffffffffffffffffffffffff021916908373ffffffffffffffffffffffffffffffffffffffff16021790555060028260000160016101000a81548160ff02191690836002811115612b6857fe5b0217905550612b9a8260000160029054906101000a900473ffffffffffffffffffffffffffffffffffffffff166157a1565b8467ffffffffffffffff167f432647a5fb9bdea356d78f8e3d83b6ddc2e78b4e4a702ac7eb968f7fe03d9dda8360000160029054906101000a900473ffffffffffffffffffffffffffffffffffffffff16604051808273ffffffffffffffffffffffffffffffffffffffff1673ffffffffffffffffffffffffffffffffffffffff16815260200191505060405180910390a2612cca565b60008260000160016101000a81548160ff02191690836002811115612c5257fe5b02179055508160000160029054906101000a900473ffffffffffffffffffffffffffffffffffffffff1673ffffffffffffffffffffffffffffffffffffffff168567ffffffffffffffff167f35cc9c4d0d9a2ce748d131382582af17dbf1f0d72167ea7906ea3f18597b31a460405160405180910390a35b600460008667ffffffffffffffff1667ffffffffffffffff168152602001908152602001600020600201600080820160006101000a81549073ffffffffffffffffffffffffffffffffffffffff02191690556001820160006101000a81549073ffffffffffffffffffffffffffffffffffffffff0219169055600282016000905560038201600090556004820160009055600582016000905550505050505050565b67016345785d8a000034141515612dce576040517f08c379a00000000000000000000000000000000000000000000000000000000081526004018080602001828103825260328152602001806173bf6032913960400191505060405180910390fd5b612e2334600160003373ffffffffffffffffffffffffffffffffffffffff1673ffffffffffffffffffffffffffffffffffffffff1681526020019081526020016000206000015461594090919063ffffffff16565b600160003373ffffffffffffffffffffffffffffffffffffffff1673ffffffffffffffffffffffffffffffffffffffff16815260200190815260200160002060000181905550876001806002811115612e7857fe5b600460008467ffffffffffffffff1667ffffffffffffffff16815260200190815260200160002060000160019054906101000a900460ff166002811115612ebb57fe5b141515612f30576040517f08c379a00000000000000000000000000000000000000000000000000000000081526004018080602001828103825260108152602001807f57726f6e6720636f696e2073746174650000000000000000000000000000000081525060200191505060405180910390fd5b6130098a8a8a8080601f016020809104026020016040519081016040528093929190818152602001838380828437600081840152601f19601f820116905080830192505050505050508588888080601f016020809104026020016040519081016040528093929190818152602001838380828437600081840152601f19601f820116905080830192505050505050508b8b8080601f016020809104026020016040519081016040528093929190818152602001838380828437600081840152601f19601f82011690508083019250505050505050615961565b6130ad8a61305a8b8b8080601f016020809104026020016040519081016040528093929190818152602001838380828437600081840152601f19601f82011690508083019250505050505050615b5e565b856130a88d8d8080601f016020809104026020016040519081016040528093929190818152602001838380828437600081840152601f19601f82011690508083019250505050505050615b9e565b615c78565b50505050505050505050565b60008060008060006130fa86600260008a67ffffffffffffffff1667ffffffffffffffff168152602001908152602001600020614d6c90919063ffffffff16565b90506131046170d1565b600260008967ffffffffffffffff1667ffffffffffffffff1681526020019081526020016000208281548110151561313857fe5b9060005260206000209060040201608060405190810160405290816000820160009054906101000a900473ffffffffffffffffffffffffffffffffffffffff1673ffffffffffffffffffffffffffffffffffffffff1673ffffffffffffffffffffffffffffffffffffffff1681526020016001820160009054906101000a900473ffffffffffffffffffffffffffffffffffffffff1673ffffffffffffffffffffffffffffffffffffffff1673ffffffffffffffffffffffffffffffffffffffff16815260200160028201548152602001600382015481525050905080600001518160200151826040015183606001519550955095509550505092959194509250565b600860009054906101000a900473ffffffffffffffffffffffffffffffffffffffff1673ffffffffffffffffffffffffffffffffffffffff1663797327ae336040518263ffffffff167c0100000000000000000000000000000000000000000000000000000000028152600401808273ffffffffffffffffffffffffffffffffffffffff1673ffffffffffffffffffffffffffffffffffffffff16815260200191505060206040518083038186803b1580156132f657600080fd5b505afa15801561330a573d6000803e3d6000fd5b505050506040513d602081101561332057600080fd5b810190808051906020019092919050505015156133a5576040517f08c379a00000000000000000000000000000000000000000000000000000000081526004018080602001828103825260198152602001807f53656e646572206973206e6f7420612056616c696461746f720000000000000081525060200191505060405180910390fd5b60016000806101000a81548160ff0219169083151502179055507f0e2fb031ee032dc02d8011dc50b816eb450cf856abd8261680dac74f72165bd26001604051808215151515815260200191505060405180910390a1565b600360009054906101000a900467ffffffffffffffff1681565b8073ffffffffffffffffffffffffffffffffffffffff166342842e0e3330856040518463ffffffff167c0100000000000000000000000000000000000000000000000000000000028152600401808473ffffffffffffffffffffffffffffffffffffffff1673ffffffffffffffffffffffffffffffffffffffff1681526020018373ffffffffffffffffffffffffffffffffffffffff1673ffffffffffffffffffffffffffffffffffffffff1681526020018281526020019350505050600060405180830381600087803b1580156134ee57600080fd5b505af1158015613502573d6000803e3d6000fd5b505050505050565b3373ffffffffffffffffffffffffffffffffffffffff16600460008367ffffffffffffffff1667ffffffffffffffff16815260200190815260200160002060020160010160009054906101000a900473ffffffffffffffffffffffffffffffffffffffff1673ffffffffffffffffffffffffffffffffffffffff161415156135dd576040517f08c379a000000000000000000000000000000000000000000000000000000000815260040180806020018281038252602f815260200180617506602f913960400191505060405180910390fd5b600460008267ffffffffffffffff1667ffffffffffffffff168152602001908152602001600020600201600080820160006101000a81549073ffffffffffffffffffffffffffffffffffffffff02191690556001820160006101000a81549073ffffffffffffffffffffffffffffffffffffffff0219169055600282016000905560038201600090556004820160009055600582016000905550506000600460008367ffffffffffffffff1667ffffffffffffffff16815260200190815260200160002060000160016101000a81548160ff021916908360028111156136bf57fe5b02179055506136cd336157a1565b600460008267ffffffffffffffff1667ffffffffffffffff16815260200190815260200160002060000160029054906101000a900473ffffffffffffffffffffffffffffffffffffffff1673ffffffffffffffffffffffffffffffffffffffff168167ffffffffffffffff167f35cc9c4d0d9a2ce748d131382582af17dbf1f0d72167ea7906ea3f18597b31a460405160405180910390a350565b6000806000806000613778617129565b600460008867ffffffffffffffff1667ffffffffffffffff16815260200190815260200160002060020160c060405190810160405290816000820160009054906101000a900473ffffffffffffffffffffffffffffffffffffffff1673ffffffffffffffffffffffffffffffffffffffff1673ffffffffffffffffffffffffffffffffffffffff1681526020016001820160009054906101000a900473ffffffffffffffffffffffffffffffffffffffff1673ffffffffffffffffffffffffffffffffffffffff1673ffffffffffffffffffffffffffffffffffffffff1681526020016002820154815260200160038201548152602001600482015481526020016005820154815250509050806020015181608001518260a00151600460008b67ffffffffffffffff1667ffffffffffffffff16815260200190815260200160002060000160019054906101000a900460ff168460400151955095509550955095505091939590929450565b600082829050905060008090505b8181101561392e57613921848483818110151561390b57fe5b9050602002013567ffffffffffffffff1661350a565b80806001019150506138f2565b50505050565b60065481565b600060076000838152602001908152602001600020600001549050919050565b67016345785d8a0000341415156139bc576040517f08c379a00000000000000000000000000000000000000000000000000000000081526004018080602001828103825260328152602001806173bf6032913960400191505060405180910390fd5b613a1134600160003373ffffffffffffffffffffffffffffffffffffffff1673ffffffffffffffffffffffffffffffffffffffff1681526020019081526020016000206000015461594090919063ffffffff16565b600160003373ffffffffffffffffffffffffffffffffffffffff1673ffffffffffffffffffffffffffffffffffffffff168152602001908152602001600020600001819055508b6000806002811115613a6657fe5b600460008467ffffffffffffffff1667ffffffffffffffff16815260200190815260200160002060000160019054906101000a900460ff166002811115613aa957fe5b141515613b1e576040517f08c379a00000000000000000000000000000000000000000000000000000000081526004018080602001828103825260108152602001807f57726f6e6720636f696e2073746174650000000000000000000000000000000081525060200191505060405180910390fd5b613b6b8b8b8080601f016020809104026020016040519081016040528093929190818152602001838380828437600081840152601f19601f82011690508083019250505050505050615b5e565b73ffffffffffffffffffffffffffffffffffffffff163373ffffffffffffffffffffffffffffffffffffffff16141515613bf0576040517f08c379a000000000000000000000000000000000000000000000000000000000815260040180806020018281038252602a815260200180617535602a913960400191505060405180910390fd5b613d898d8d8080601f016020809104026020016040519081016040528093929190818152602001838380828437600081840152601f19601f820116905080830192505050505050508c8c8080601f016020809104026020016040519081016040528093929190818152602001838380828437600081840152601f19601f820116905080830192505050505050508b8b8080601f016020809104026020016040519081016040528093929190818152602001838380828437600081840152601f19601f820116905080830192505050505050508a8a8080601f016020809104026020016040519081016040528093929190818152602001838380828437600081840152601f19601f8201169050808301925050505050505089898080601f016020809104026020016040519081016040528093929190818152602001838380828437600081840152601f19601f82011690508083019250505050505050886002806020026040519081016040528092919082600260200280828437600081840152601f19601f820116905080830192505050505050615f48565b6000600554846001600281101515613d9d57fe5b6020020135811515613dab57fe5b06141515613dfb57613df68e6000856002806020026040519081016040528092919082600260200280828437600081840152601f19601f820116905080830192505050505050615fad565b613e8a565b613e898e613e4c8f8f8080601f016020809104026020016040519081016040528093929190818152602001838380828437600081840152601f19601f82011690508083019250505050505050615b5e565b856002806020026040519081016040528092919082600260200280828437600081840152601f19601f820116905080830192505050505050615fad565b5b5050505050505050505050505050565b6000600960009054906101000a900473ffffffffffffffffffffffffffffffffffffffff1673ffffffffffffffffffffffffffffffffffffffff1663f586df65868686866040518563ffffffff167c0100000000000000000000000000000000000000000000000000000000028152600401808581526020018481526020018367ffffffffffffffff1667ffffffffffffffff16815260200180602001828103825283818151815260200191508051906020019080838360005b83811015613f6f578082015181840152602081019050613f54565b50505050905090810190601f168015613f9c5780820380516001836020036101000a031916815260200191505b509550505050505060206040518083038186803b158015613fbc57600080fd5b505afa158015613fd0573d6000803e3d6000fd5b505050506040513d6020811015613fe657600080fd5b81019080805190602001909291905050509050949350505050565b87600180600281111561401057fe5b600460008467ffffffffffffffff1667ffffffffffffffff16815260200190815260200160002060000160019054906101000a900460ff16600281111561405357fe5b1415156140c8576040517f08c379a00000000000000000000000000000000000000000000000000000000081526004018080602001828103825260108152602001807f57726f6e6720636f696e2073746174650000000000000000000000000000000081525060200191505060405180910390fd5b6141a18a89898080601f016020809104026020016040519081016040528093929190818152602001838380828437600081840152601f19601f820116905080830192505050505050508b87878080601f016020809104026020016040519081016040528093929190818152602001838380828437600081840152601f19601f820116905080830192505050505050508a8a8080601f016020809104026020016040519081016040528093929190818152602001838380828437600081840152601f19601f8201169050808301925050505050505061618f565b6141aa8a61474d565b50505050505050505050565b60008060008060008060006141c9617044565b600460008a67ffffffffffffffff1667ffffffffffffffff16815260200190815260200160002061010060405190810160405290816000820160009054906101000a900460ff16600081111561421b57fe5b600081111561422657fe5b81526020016000820160019054906101000a900460ff16600281111561424857fe5b600281111561425357fe5b81526020016000820160029054906101000a900473ffffffffffffffffffffffffffffffffffffffff1673ffffffffffffffffffffffffffffffffffffffff1673ffffffffffffffffffffffffffffffffffffffff1681526020016001820160009054906101000a900473ffffffffffffffffffffffffffffffffffffffff1673ffffffffffffffffffffffffffffffffffffffff1673ffffffffffffffffffffffffffffffffffffffff1681526020016002820160c060405190810160405290816000820160009054906101000a900473ffffffffffffffffffffffffffffffffffffffff1673ffffffffffffffffffffffffffffffffffffffff1673ffffffffffffffffffffffffffffffffffffffff1681526020016001820160009054906101000a900473ffffffffffffffffffffffffffffffffffffffff1673ffffffffffffffffffffffffffffffffffffffff1673ffffffffffffffffffffffffffffffffffffffff16815260200160028201548152602001600382015481526020016004820154815260200160058201548152505081526020016008820154815260200160098201548152602001600a8201548152505090508060a001518160e001518260c001518360400151846020015185600001518660600151975097509750975097509750975050919395979092949650565b60076020528060005260406000206000915090508060000154908060010154905082565b82600460008767ffffffffffffffff1667ffffffffffffffff16815260200190815260200160002060020160050154101515614511576040517f08c379a00000000000000000000000000000000000000000000000000000000081526004018080602001828103825260208152602001807f54782073686f756c64206265206166746572207468652065786974426c6f636b81525060200191505060405180910390fd5b61451961718c565b614522856163e2565b905061458a83600460008967ffffffffffffffff1667ffffffffffffffff16815260200190815260200160002060020160010160009054906101000a900473ffffffffffffffffffffffffffffffffffffffff1683604001516165849092919063ffffffff16565b15156145fe576040517f08c379a00000000000000000000000000000000000000000000000000000000081526004018080602001828103825260118152602001807f496e76616c6964207369676e617475726500000000000000000000000000000081525060200191505060405180910390fd5b8567ffffffffffffffff16816000015167ffffffffffffffff1614151561468d576040517f08c379a000000000000000000000000000000000000000000000000000000000815260040180806020018281038252601e8152602001807f5478206973207265666572656e63696e6720616e6f7468657220736c6f74000081525060200191505060405180910390fd5b600460008767ffffffffffffffff1667ffffffffffffffff168152602001908152602001600020600201600501548160600151141515614735576040517f08c379a00000000000000000000000000000000000000000000000000000000081526004018080602001828103825260128152602001807f4e6f74206120646972656374207370656e64000000000000000000000000000081525060200191505060405180910390fd5b61474586826040015186856165c7565b505050505050565b6147a4600460008367ffffffffffffffff1667ffffffffffffffff16815260200190815260200160002060020160010160009054906101000a900473ffffffffffffffffffffffffffffffffffffffff16336150c0565b6000600460008367ffffffffffffffff1667ffffffffffffffff16815260200190815260200160002060000160016101000a81548160ff021916908360028111156147eb57fe5b0217905550600460008267ffffffffffffffff1667ffffffffffffffff168152602001908152602001600020600201600080820160006101000a81549073ffffffffffffffffffffffffffffffffffffffff02191690556001820160006101000a81549073ffffffffffffffffffffffffffffffffffffffff021916905560028201600090556003820160009055600482016000905560058201600090555050600460008267ffffffffffffffff1667ffffffffffffffff16815260200190815260200160002060000160029054906101000a900473ffffffffffffffffffffffffffffffffffffffff1673ffffffffffffffffffffffffffffffffffffffff168167ffffffffffffffff167f35cc9c4d0d9a2ce748d131382582af17dbf1f0d72167ea7906ea3f18597b31a460405160405180910390a350565b6000809054906101000a900460ff1615151561498d576040517f08c379a00000000000000000000000000000000000000000000000000000000081526004018080602001828103825260288152602001806173266028913960400191505060405180910390fd5b6149a3600160065461594090919063ffffffff16565b6006819055506000600360009054906101000a900467ffffffffffffffff163387604051602001808467ffffffffffffffff1667ffffffffffffffff1678010000000000000000000000000000000000000000000000000281526008018373ffffffffffffffffffffffffffffffffffffffff1673ffffffffffffffffffffffffffffffffffffffff166c010000000000000000000000000281526014018273ffffffffffffffffffffffffffffffffffffffff1673ffffffffffffffffffffffffffffffffffffffff166c010000000000000000000000000281526014019350505050604051602081830303815290604052805190602001207801000000000000000000000000000000000000000000000000900490506000600460008367ffffffffffffffff1667ffffffffffffffff1681526020019081526020016000209050848160080181905550858160010160006101000a81548173ffffffffffffffffffffffffffffffffffffffff021916908373ffffffffffffffffffffffffffffffffffffffff16021790555083816009018190555060065481600a0181905550868160000160026101000a81548173ffffffffffffffffffffffffffffffffffffffff021916908373ffffffffffffffffffffffffffffffffffffffff16021790555060008160000160016101000a81548160ff02191690836002811115614baa57fe5b0217905550828160000160006101000a81548160ff02191690836000811115614bcf57fe5b0217905550604080519081016040528083604051602001808267ffffffffffffffff1667ffffffffffffffff1678010000000000000000000000000000000000000000000000000281526008019150506040516020818303038152906040528051906020012081526020014281525060076000600654815260200190815260200160002060008201518160000155602082015181600101559050508573ffffffffffffffffffffffffffffffffffffffff168773ffffffffffffffffffffffffffffffffffffffff168367ffffffffffffffff167faa231413cf2b61ec7d73eeef7c722cd8ef6ed7a76e4d9e533867281e94f9a82360065488604051808381526020018281526020019250505060405180910390a46001600360008282829054906101000a900467ffffffffffffffff160192506101000a81548167ffffffffffffffff021916908367ffffffffffffffff16021790555050505050505050565b600080614d3d8484614d6c565b90507fffffffffffffffffffffffffffffffffffffffffffffffffffffffffffffffff81141591505092915050565b600080600090505b8380549050811015614dbd57828482815481101515614d8f57fe5b9060005260206000209060040201600201541415614db05780915050614de2565b8080600101915050614d74565b507fffffffffffffffffffffffffffffffffffffffffffffffffffffffffffffffff90505b92915050565b614df061718c565b614df9846163e2565b9050614e7983600260008a67ffffffffffffffff1667ffffffffffffffff16815260200190815260200160002088815481101515614e3357fe5b906000526020600020906004020160000160009054906101000a900473ffffffffffffffffffffffffffffffffffffffff1683604001516165849092919063ffffffff16565b1515614eed576040517f08c379a00000000000000000000000000000000000000000000000000000000081526004018080602001828103825260118152602001807f496e76616c6964207369676e617475726500000000000000000000000000000081525060200191505060405180910390fd5b8667ffffffffffffffff16816000015167ffffffffffffffff16141515614f7c576040517f08c379a000000000000000000000000000000000000000000000000000000000815260040180806020018281038252601e8152602001807f5478206973207265666572656e63696e6720616e6f7468657220736c6f74000081525060200191505060405180910390fd5b600260008867ffffffffffffffff1667ffffffffffffffff16815260200190815260200160002086815481101515614fb057fe5b9060005260206000209060040201600301548511151561501b576040517f08c379a000000000000000000000000000000000000000000000000000000000815260040180806020018281038252602681526020018061755f6026913960400191505060405180910390fd5b600460008867ffffffffffffffff1667ffffffffffffffff1681526020019081526020016000206002016005015485111515156150a3576040517f08c379a00000000000000000000000000000000000000000000000000000000081526004018080602001828103825260278152602001806173f16027913960400191505060405180910390fd5b6150b78160000151826040015187856165c7565b50505050505050565b61511d67016345785d8a0000600160008573ffffffffffffffffffffffffffffffffffffffff1673ffffffffffffffffffffffffffffffffffffffff168152602001908152602001600020600001546166e090919063ffffffff16565b600160008473ffffffffffffffffffffffffffffffffffffffff1673ffffffffffffffffffffffffffffffffffffffff168152602001908152602001600020600001819055506151c067016345785d8a0000600160008473ffffffffffffffffffffffffffffffffffffffff1673ffffffffffffffffffffffffffffffffffffffff1681526020019081526020016000206001015461594090919063ffffffff16565b600160008373ffffffffffffffffffffffffffffffffffffffff1673ffffffffffffffffffffffffffffffffffffffff168152602001908152602001600020600101819055508073ffffffffffffffffffffffffffffffffffffffff168273ffffffffffffffffffffffffffffffffffffffff167fbd6bf2f753dc1a7dee94a7abd7645adc6c228c2af17fd72d9104674cc5d2127367016345785d8a00006040518082815260200191505060405180910390a35050565b6000806152848484614d6c565b90507fffffffffffffffffffffffffffffffffffffffffffffffffffffffffffffffff8114156152b8576000915050615516565b6152c06170d1565b8460018680549050038154811015156152d557fe5b9060005260206000209060040201608060405190810160405290816000820160009054906101000a900473ffffffffffffffffffffffffffffffffffffffff1673ffffffffffffffffffffffffffffffffffffffff1673ffffffffffffffffffffffffffffffffffffffff1681526020016001820160009054906101000a900473ffffffffffffffffffffffffffffffffffffffff1673ffffffffffffffffffffffffffffffffffffffff1673ffffffffffffffffffffffffffffffffffffffff1681526020016002820154815260200160038201548152505090508085838154811015156153c057fe5b906000526020600020906004020160008201518160000160006101000a81548173ffffffffffffffffffffffffffffffffffffffff021916908373ffffffffffffffffffffffffffffffffffffffff16021790555060208201518160010160006101000a81548173ffffffffffffffffffffffffffffffffffffffff021916908373ffffffffffffffffffffffffffffffffffffffff160217905550604082015181600201556060820151816003015590505084600186805490500381548110151561548857fe5b9060005260206000209060040201600080820160006101000a81549073ffffffffffffffffffffffffffffffffffffffff02191690556001820160006101000a81549073ffffffffffffffffffffffffffffffffffffffff02191690556002820160009055600382016000905550506001858181805490500391508161550e91906171df565b506001925050505b92915050565b600080600260008467ffffffffffffffff1667ffffffffffffffff168152602001908152602001600020805490509050600080600090505b82811015615799576000600102600260008767ffffffffffffffff1667ffffffffffffffff1681526020019081526020016000208281548110151561559557fe5b90600052602060002090600402016002015414151561578c5781151561567657615671600460008767ffffffffffffffff1667ffffffffffffffff16815260200190815260200160002060020160010160009054906101000a900473ffffffffffffffffffffffffffffffffffffffff16600260008867ffffffffffffffff1667ffffffffffffffff1681526020019081526020016000208381548110151561563a57fe5b906000526020600020906004020160010160009054906101000a900473ffffffffffffffffffffffffffffffffffffffff166150c0565b600191505b6156e4600260008767ffffffffffffffff1667ffffffffffffffff168152602001908152602001600020828154811015156156ad57fe5b906000526020600020906004020160010160009054906101000a900473ffffffffffffffffffffffffffffffffffffffff166157a1565b600260008667ffffffffffffffff1667ffffffffffffffff1681526020019081526020016000208181548110151561571857fe5b9060005260206000209060040201600080820160006101000a81549073ffffffffffffffffffffffffffffffffffffffff02191690556001820160006101000a81549073ffffffffffffffffffffffffffffffffffffffff0219169055600282016000905560038201600090555050600193505b8080600101915050615554565b505050919050565b6157fe67016345785d8a0000600160008473ffffffffffffffffffffffffffffffffffffffff1673ffffffffffffffffffffffffffffffffffffffff168152602001908152602001600020600001546166e090919063ffffffff16565b600160008373ffffffffffffffffffffffffffffffffffffffff1673ffffffffffffffffffffffffffffffffffffffff168152602001908152602001600020600001819055506158a167016345785d8a0000600160008473ffffffffffffffffffffffffffffffffffffffff1673ffffffffffffffffffffffffffffffffffffffff1681526020019081526020016000206001015461594090919063ffffffff16565b600160008373ffffffffffffffffffffffffffffffffffffffff1673ffffffffffffffffffffffffffffffffffffffff168152602001908152602001600020600101819055508073ffffffffffffffffffffffffffffffffffffffff167f5406cdbb33189b887da81a90c7ff307f3af1854b2504d0bde438b8bb5b7d8b5267016345785d8a00006040518082815260200191505060405180910390a250565b600080828401905083811015151561595757600080fd5b8091505092915050565b600460008667ffffffffffffffff1667ffffffffffffffff1681526020019081526020016000206002016004015483111515156159e9576040517f08c379a000000000000000000000000000000000000000000000000000000000815260040180806020018281038252602b815260200180617372602b913960400191505060405180910390fd5b6159f161718c565b6159fa856163e2565b9050600073ffffffffffffffffffffffffffffffffffffffff16615a2b84836040015161670290919063ffffffff16565b73ffffffffffffffffffffffffffffffffffffffff1614151515615ab7576040517f08c379a00000000000000000000000000000000000000000000000000000000081526004018080602001828103825260118152602001807f496e76616c6964207369676e617475726500000000000000000000000000000081525060200191505060405180910390fd5b8567ffffffffffffffff16816000015167ffffffffffffffff16141515615b46576040517f08c379a000000000000000000000000000000000000000000000000000000000815260040180806020018281038252601e8152602001807f5478206973207265666572656e63696e6720616e6f7468657220736c6f74000081525060200191505060405180910390fd5b615b5686826040015186856165c7565b505050505050565b60006060615b73615b6e846169b7565b6169e5565b9050615b96816003815181101515615b8757fe5b90602001906020020151616ac2565b915050919050565b60006060615bb3615bae846169b7565b6169e5565b90506000615bd8826000815181101515615bc957fe5b90602001906020020151616ae7565b90506000615bfd836001815181101515615bee57fe5b90602001906020020151616ae7565b90506000811415615c655781604051602001808267ffffffffffffffff1667ffffffffffffffff167801000000000000000000000000000000000000000000000000028152600801915050604051602081830303815290604052805190602001209350615c70565b848051906020012093505b505050919050565b62049d40600460008667ffffffffffffffff1667ffffffffffffffff16815260200190815260200160002060020160020154014211151515615d22576040517f08c379a00000000000000000000000000000000000000000000000000000000081526004018080602001828103825260198152602001807f4368616c6c656e67652077696e646f7773206973206f7665720000000000000081525060200191505060405180910390fd5b615d5b81600260008767ffffffffffffffff1667ffffffffffffffff168152602001908152602001600020614d3090919063ffffffff16565b151515615db3576040517f08c379a00000000000000000000000000000000000000000000000000000000081526004018080602001828103825260268152602001806174e06026913960400191505060405180910390fd5b600260008567ffffffffffffffff1667ffffffffffffffff1681526020019081526020016000206080604051908101604052808573ffffffffffffffffffffffffffffffffffffffff1681526020013373ffffffffffffffffffffffffffffffffffffffff168152602001838152602001848152509080600181540180825580915050906001820390600052602060002090600402016000909192909190915060008201518160000160006101000a81548173ffffffffffffffffffffffffffffffffffffffff021916908373ffffffffffffffffffffffffffffffffffffffff16021790555060208201518160010160006101000a81548173ffffffffffffffffffffffffffffffffffffffff021916908373ffffffffffffffffffffffffffffffffffffffff16021790555060408201518160020155606082015181600301555050508367ffffffffffffffff167f057d34b2360e71f2764a7189966401bc058621905c0bef7123a6bdfe9a13284b8284604051808381526020018281526020019250505060405180910390a250505050565b6000600554826001600281101515615f5c57fe5b6020020151811515615f6a57fe5b06141515615f9657615f91858484846001600281101515615f8757fe5b6020020151616b5a565b615fa5565b615fa4868686868686616c19565b5b505050505050565b6000600460008567ffffffffffffffff1667ffffffffffffffff168152602001908152602001600020905060c0604051908101604052808473ffffffffffffffffffffffffffffffffffffffff1681526020013373ffffffffffffffffffffffffffffffffffffffff16815260200142815260200134815260200183600060028110151561603757fe5b6020020151815260200183600160028110151561605057fe5b60200201518152508160020160008201518160000160006101000a81548173ffffffffffffffffffffffffffffffffffffffff021916908373ffffffffffffffffffffffffffffffffffffffff16021790555060208201518160010160006101000a81548173ffffffffffffffffffffffffffffffffffffffff021916908373ffffffffffffffffffffffffffffffffffffffff16021790555060408201518160020155606082015181600301556080820151816004015560a0820151816005015590505060018160000160016101000a81548160ff0219169083600281111561613657fe5b02179055503373ffffffffffffffffffffffffffffffffffffffff168467ffffffffffffffff167fbaf912dedc1b0ee4647f945b0432e694bce1aa2c4e21052d977687641587495660405160405180910390a350505050565b82600460008767ffffffffffffffff1667ffffffffffffffff168152602001908152602001600020600201600501541180156161f7575082600460008767ffffffffffffffff1667ffffffffffffffff16815260200190815260200160002060020160040154105b151561624e576040517f08c379a00000000000000000000000000000000000000000000000000000000081526004018080602001828103825260268152602001806176176026913960400191505060405180910390fd5b61625661718c565b61625f856163e2565b90506162c783600460008967ffffffffffffffff1667ffffffffffffffff16815260200190815260200160002060020160000160009054906101000a900473ffffffffffffffffffffffffffffffffffffffff1683604001516165849092919063ffffffff16565b151561633b576040517f08c379a00000000000000000000000000000000000000000000000000000000081526004018080602001828103825260118152602001807f496e76616c6964207369676e617475726500000000000000000000000000000081525060200191505060405180910390fd5b8567ffffffffffffffff16816000015167ffffffffffffffff161415156163ca576040517f08c379a000000000000000000000000000000000000000000000000000000000815260040180806020018281038252601e8152602001807f5478206973207265666572656e63696e6720616e6f7468657220736c6f74000081525060200191505060405180910390fd5b6163da86826040015186856165c7565b505050505050565b6163ea61718c565b60606163fd6163f8846169b7565b6169e5565b905061640761718c565b61642882600081518110151561641957fe5b90602001906020020151616ae7565b816000019067ffffffffffffffff16908167ffffffffffffffff168152505061646882600181518110151561645957fe5b90602001906020020151616ae7565b81606001818152505061649282600281518110151561648357fe5b90602001906020020151616ae7565b8160800181815250506164bc8260038151811015156164ad57fe5b90602001906020020151616ac2565b816020019073ffffffffffffffffffffffffffffffffffffffff16908173ffffffffffffffffffffffffffffffffffffffff1681525050600081606001511415616568578060000151604051602001808267ffffffffffffffff1667ffffffffffffffff1678010000000000000000000000000000000000000000000000000281526008019150506040516020818303038152906040528051906020012081604001818152505061657a565b83805190602001208160400181815250505b8092505050919050565b60006165908484616702565b73ffffffffffffffffffffffffffffffffffffffff168273ffffffffffffffffffffffffffffffffffffffff161490509392505050565b6000600760008481526020019081526020016000206000015490506000600554848115156165f157fe5b06141515616658578084141515616653576040517f08c379a00000000000000000000000000000000000000000000000000000000081526004018080602001828103825260288152602001806174b86028913960400191505060405180910390fd5b6166d9565b61666484828785613e9a565b15156166d8576040517f08c379a00000000000000000000000000000000000000000000000000000000081526004018080602001828103825260208152602001807f5478206e6f7420696e636c7564656420696e20636c61696d656420626c6f636b81525060200191505060405180910390fd5b5b5050505050565b60008282111515156166f157600080fd5b600082840390508091505092915050565b6000604182511480616715575060428251145b1515616789576040517f08c379a000000000000000000000000000000000000000000000000000000000815260040180806020018281038252601b8152602001807f5369676e6174757265206c656e67687420697320696e76616c6964000000000081525060200191505060405180910390fd5b600080849050600080600080600190506041885114156167b057600090506000955061683e565b8760008151811015156167bf57fe5b9060200101517f010000000000000000000000000000000000000000000000000000000000000090047f0100000000000000000000000000000000000000000000000000000000000000027f0100000000000000000000000000000000000000000000000000000000000000900460ff16600281111561683b57fe5b95505b80602001880151925080604001880151915060ff816041018901511693506001600281111561686957fe5b86600281111561687557fe5b14156168d1578460405160200180807f19457468657265756d205369676e6564204d6573736167653a0a333200000000815250601c01828152602001915050604051602081830303815290604052805190602001209450616942565b6002808111156168dd57fe5b8660028111156168e957fe5b1415616941578460405160200180807f19457468657265756d205369676e6564204d6573736167653a0a200000000000815250601b018281526020019150506040516020818303038152906040528051906020012094505b5b60018585858560405160008152602001604052604051808581526020018460ff1660ff1681526020018381526020018281526020019450505050506020604051602081039080840390855afa15801561699f573d6000803e3d6000fd5b50505060206040510351965050505050505092915050565b6169bf617211565b600060208301905060408051908101604052808451815260200182815250915050919050565b60606169f082616e49565b15156169fb57600080fd5b6000616a0683616e97565b905080604051908082528060200260200182016040528015616a4257816020015b616a2f61722b565b815260200190600190039081616a275790505b5091506000616a548460200151616f08565b8460200151019050600080600090505b83811015616ab957616a7583616f91565b91506040805190810160405280838152602001848152508582815181101515616a9a57fe5b9060200190602002018190525081830192508080600101915050616a64565b50505050919050565b600060158260000151141515616ad757600080fd5b616ae082616ae7565b9050919050565b6000808260000151118015616b0157506021826000015111155b1515616b0c57600080fd5b6000616b1b8360200151616f08565b90506000818460000151039050600080838660200151019050805191506020831015616b4e57826020036101000a820491505b81945050505050919050565b616b6261718c565b616b6b856163e2565b9050616b8a83826020015183604001516165849092919063ffffffff16565b1515616bfe576040517f08c379a00000000000000000000000000000000000000000000000000000000081526004018080602001828103825260118152602001807f496e76616c6964207369676e617475726500000000000000000000000000000081525060200191505060405180910390fd5b616c128160000151826040015184876165c7565b5050505050565b6000600554826000600281101515616c2d57fe5b6020020151811515616c3b57fe5b06141515616cc457806001600281101515616c5257fe5b6020020151816000600281101515616c6657fe5b6020020151101515616cc3576040517f08c379a000000000000000000000000000000000000000000000000000000000815260040180806020018281038252603c81526020018061744f603c913960400191505060405180910390fd5b5b616ccc61718c565b616cd5866163e2565b9050616cdf61718c565b616ce8886163e2565b9050806000015167ffffffffffffffff16826000015167ffffffffffffffff16141515616d60576040517f08c379a00000000000000000000000000000000000000000000000000000000081526004018080602001828103825260378152602001806174186037913960400191505060405180910390fd5b616d7d84826020015184604001516165849092919063ffffffff16565b1515616df1576040517f08c379a00000000000000000000000000000000000000000000000000000000081526004018080602001828103825260118152602001807f496e76616c6964207369676e617475726500000000000000000000000000000081525060200191505060405180910390fd5b616e1881600001518260400151856000600281101515616e0d57fe5b6020020151896165c7565b616e3f82600001518360400151856001600281101515616e3457fe5b6020020151886165c7565b5050505050505050565b60008082600001511415616e605760009050616e92565b60008083602001519050805160001a915060c060ff168260ff161015616e8b57600092505050616e92565b6001925050505b919050565b60008082600001511415616eae5760009050616f03565b60008090506000616ec28460200151616f08565b84602001510190506000846000015185602001510190505b80821015616efc57616eeb82616f91565b820191508280600101935050616eda565b8293505050505b919050565b600080825160001a9050608060ff16811015616f28576000915050616f8c565b60b860ff16811080616f4d575060c060ff168110158015616f4c575060f860ff1681105b5b15616f5c576001915050616f8c565b60c060ff16811015616f7c5760018060b80360ff16820301915050616f8c565b60018060f80360ff168203019150505b919050565b600080825160001a9050608060ff16811015616fb157600191505061703f565b60b860ff16811015616fcf576001608060ff1682030191505061703f565b60c060ff16811015616fff5760b78103600184019350806020036101000a8451046001820181019350505061703d565b60f860ff1681101561701d57600160c060ff1682030191505061703f565b60f78103600184019350806020036101000a845104600182018101935050505b505b919050565b6101a06040519081016040528060008081111561705d57fe5b81526020016000600281111561706f57fe5b8152602001600073ffffffffffffffffffffffffffffffffffffffff168152602001600073ffffffffffffffffffffffffffffffffffffffff1681526020016170b6617245565b81526020016000815260200160008152602001600081525090565b608060405190810160405280600073ffffffffffffffffffffffffffffffffffffffff168152602001600073ffffffffffffffffffffffffffffffffffffffff16815260200160008019168152602001600081525090565b60c060405190810160405280600073ffffffffffffffffffffffffffffffffffffffff168152602001600073ffffffffffffffffffffffffffffffffffffffff168152602001600081526020016000815260200160008152602001600081525090565b60a060405190810160405280600067ffffffffffffffff168152602001600073ffffffffffffffffffffffffffffffffffffffff1681526020016000801916815260200160008152602001600081525090565b81548183558181111561720c5760040281600402836000526020600020918201910161720b91906172a8565b5b505050565b604080519081016040528060008152602001600081525090565b604080519081016040528060008152602001600081525090565b60c060405190810160405280600073ffffffffffffffffffffffffffffffffffffffff168152602001600073ffffffffffffffffffffffffffffffffffffffff168152602001600081526020016000815260200160008152602001600081525090565b61732291905b8082111561731e57600080820160006101000a81549073ffffffffffffffffffffffffffffffffffffffff02191690556001820160006101000a81549073ffffffffffffffffffffffffffffffffffffffff021916905560028201600090556003820160009055506004016172ae565b5090565b9056fe436f6e7472616374206973206e6f7420616363657074696e67206d6f7265206465706f7369747321526573706f6e64696e6720746f206e6f6e206578697374696e67206368616c6c656e676554782073686f756c64206265206265666f7265207468652065786974277320706172656e7420626c6f636b546f6b656e20776173206e6f74207472616e73666572656420636f72726563746c795472616e73616374696f6e206d757374206265206163636f6d70616e6965642062792074686520424f4e4420414d4f554e5443616e6e6f7420726573706f6e6420776974682061207478206166746572207468652065786974536c6f74206f6e207468652045786974696e67547820646f6573206e6f74206d617463682074686174206f6e2074686520707265765478426c6f636b206f6e2074686520666972737420696e646578206d75737420626520746865206561726c696572206f6620746865203220626c6f636b73436f6e74726163742061646472657373206973206e6f7420617070726f76656420666f72206465706f736974735472616e73616374696f6e206861736820646f6573206e6f74206d6174636820726f6f74486173685472616e73616374696f6e207573656420666f72206368616c6c656e676520616c72656164794f6e6c7920636f696e2773206f776e657220697320616c6c6f77656420746f2063616e63656c20746865206578697453656e64657220646f6573206e6f74206d617463682065786974696e6754784279746573206f776e6572426c6f636b4e756d626572206d75737420626520616674657220746865206368616c656e6765596f75206d757374207761697420746865206d6174757269747920706572696f64206265666f72652066696e616c697a696e672074686520657869744120626c6f636b206c657373207468616e2063757272656e74426c6f636b2063616e6e6f74206265207375626d69747465645468697320636f6e747261637420646f6573206e6f742072656365697665206d6f6e657954782073686f756c64206265206265747765656e207468652065786974277320626c6f636b73a165627a7a723058209c361f52ce33031c6e6bb072227cdbd98eeb3f929c0a467ae7ab309b538225420029608060405234801561001057600080fd5b507f290decd9548b62a8d60345a988386fc84ba6bc95484008f6362f93160ef3e56360010260008060418110151561004457fe5b018190555061006460016040610069640100000000026401000000009004565b610102565b60008290505b8160ff168160ff161115156100fd5760006001820360ff1660418110151561009357fe5b015460006001830360ff166041811015156100aa57fe5b015460405160200180838152602001828152602001925050506040516020818303038152906040528051906020012060008260ff166041811015156100eb57fe5b0181905550808060010191505061006f565b505050565b6104fd806101116000396000f3fe608060405234801561001057600080fd5b506004361061005e576000357c01000000000000000000000000000000000000000000000000000000009004806348419ad814610063578063509a7e54146100a5578063f586df6514610192575b600080fd5b61008f6004803603602081101561007957600080fd5b810190808035906020019092919050505061028d565b6040518082815260200191505060405180910390f35b61017c600480360360608110156100bb57600080fd5b8101908080359060200190929190803567ffffffffffffffff169060200190929190803590602001906401000000008111156100f657600080fd5b82018360208201111561010857600080fd5b8035906020019184600183028401116401000000008311171561012a57600080fd5b91908080601f016020809104026020016040519081016040528093929190818152602001838380828437600081840152601f19601f8201169050808301925050505050505091929192905050506102a7565b6040518082815260200191505060405180910390f35b610273600480360360808110156101a857600080fd5b810190808035906020019092919080359060200190929190803567ffffffffffffffff169060200190929190803590602001906401000000008111156101ed57600080fd5b8201836020820111156101ff57600080fd5b8035906020019184600183028401116401000000008311171561022157600080fd5b91908080601f016020809104026020016040519081016040528093929190818152602001838380828437600081840152601f19601f8201169050808301925050505050505091929192905050506104b3565b604051808215151515815260200191505060405180910390f35b60008160418110151561029c57fe5b016000915090505481565b600080602060088451038115156102ba57fe5b061480156102cb5750610808825111155b151561033f576040517f08c379a00000000000000000000000000000000000000000000000000000000081526004018080602001828103825260178152602001807f50726f6f66206c656e67746820697320696e76616c696400000000000000000081525060200191505060405180910390fd5b60008085905060006008905060008087905060186101000a602088015104915060008090505b604060ff168110156104a357600060028467ffffffffffffffff1681151561038957fe5b0667ffffffffffffffff1614156103b2576000816041811015156103a957fe5b015495506103d3565b6020840193508361ffff168851101515156103cc57600080fd5b8388015195505b600060028367ffffffffffffffff168115156103eb57fe5b0667ffffffffffffffff1614156104325784866040516020018083815260200182815260200192505050604051602081830303815290604052805190602001209450610464565b858560405160200180838152602001828152602001925050506040516020818303038152906040528051906020012094505b60028367ffffffffffffffff1681151561047a57fe5b04925060028267ffffffffffffffff1681151561049357fe5b0491508080600101915050610365565b5083955050505050509392505050565b6000806104c18685856102a7565b905084811491505094935050505056fea165627a7a723058201615d5dc6e6e9a7f2dd8c7b4967d359c1e95d00b05d4cf0145883ed27d2c136b0029",
  "source": "// Copyright Loom Network 2018 - All rights reserved, Dual licensed on GPLV3\n// Learn more about Loom DappChains at https://loomx.io\n// All derivitive works of this code must incluse this copyright header on every file\n\npragma solidity ^0.5.2;\n\n\n// ERC721\nimport \"openzeppelin-solidity/contracts/token/ERC721/ERC721.sol\";\nimport \"openzeppelin-solidity/contracts/token/ERC721/IERC721Receiver.sol\";\n\n// Lib deps\nimport \"openzeppelin-solidity/contracts/math/SafeMath.sol\";\nimport \"../Libraries/Transaction/Transaction.sol\";\nimport \"../Libraries/ECVerify.sol\";\nimport \"../Libraries/ChallengeLib.sol\";\n\n// SMT and VMC\nimport \"./SparseMerkleTree.sol\";\nimport \"./ValidatorManagerContract.sol\";\n\n\ncontract RootChain is IERC721Receiver {\n\n    /**\n     * Event for coin deposit logging.\n     * @notice The Deposit event indicates that a deposit block has been added\n     *         to the Plasma chain\n     * @param slot Plasma slot, a unique identifier, assigned to the deposit\n     * @param blockNumber The index of the block in which a deposit transaction\n     *                    is included\n     * @param denomination Quantity of a particular coin deposited\n     * @param from The address of the depositor\n     * @param contractAddress The address of the contract making the deposit\n     */\n    event Deposit(uint64 indexed slot, uint256 blockNumber, uint256 denomination,\n                  address indexed from, address indexed contractAddress);\n\n    /**\n     * Event for block submission logging\n     * @notice The event indicates the addition of a new Plasma block\n     * @param blockNumber The block number of the submitted block\n     * @param root The root hash of the Merkle tree containing all of a block's\n     *             transactions.\n     * @param timestamp The time when a block was added to the Plasma chain\n     */\n    event SubmittedBlock(uint256 blockNumber, bytes32 root, uint256 timestamp);\n\n    event Debug(address message);\n\n    /**\n     * Event for logging exit starts\n     * @param slot The slot of the coin being exited\n     * @param owner The user who claims to own the coin being exited\n     */\n    event StartedExit(uint64 indexed slot, address indexed owner);\n\n    /**\n     * Event for exit challenge logging\n     * @notice This event only fires if `challengeBefore` is called.\n     * @param slot The slot of the coin whose exit was challenged\n     * @param txHash The hash of the tx used for the challenge\n     */\n    //TODO index for owner\n    event ChallengedExit(uint64 indexed slot, bytes32 txHash, uint256 challengingBlockNumber);\n\n    /**\n     * Event for exit response logging\n     * @notice This only logs responses to `challengeBefore`\n     * @param slot The slot of the coin whose challenge was responded to\n     */\n    event RespondedExitChallenge(uint64 indexed slot);\n\n    /**\n     * Event for logging when an exit was successfully challenged\n     * @param slot The slot of the coin being reset to NOT_EXITING\n     * @param owner The owner of the coin\n     */\n    event CoinReset(uint64 indexed slot, address indexed owner);\n\n    /**\n     * Event for exit finalization logging\n     * @param slot The slot of the coin whose exit has been finalized\n     * @param owner The owner of the coin whose exit has been finalized\n     */\n    event FinalizedExit(uint64 indexed slot, address owner);\n\n    /**\n     * Event to log the freeing of a bond\n     * @param from The address of the user whose bonds have been freed\n     * @param amount The bond amount which can now be withdrawn\n     */\n    event FreedBond(address indexed from, uint256 amount);\n\n    /**\n     * Event to log the slashing of a bond\n     * @param from The address of the user whose bonds have been slashed\n     * @param to The recipient of the slashed bonds\n     * @param amount The bound amount which has been forfeited\n     */\n    event SlashedBond(address indexed from, address indexed to, uint256 amount);\n\n    /**\n     * Event to log the withdrawal of a bond\n     * @param from The address of the user who withdrew bonds\n     * @param amount The bond amount which has been withdrawn\n     */\n    event WithdrewBonds(address indexed from, uint256 amount);\n\n    /**\n     * Event to log the withdrawal of a coin\n     * @param owner The address of the user who withdrew bonds\n     * @param slot the slot of the coin that was exited\n     * @param mode The type of coin that is being withdrawn (ERC721) (Extendible in the future)\n     * @param contractAddress The contract address where the coin is being withdrawn from\n              is same as `from` when withdrawing a ETH coin\n     * @param uid The uid of the coin being withdrawn if ERC721, else 0\n     * @param denomination The denomination of the coin which has been withdrawn (=1 for ERC721)\n     */\n    event Withdrew(address indexed owner, uint64 indexed slot, Mode mode, address contractAddress, uint uid, uint denomination);\n\n    /**\n     * Event to pause deposits in the contract.\n     * Temporarily added while the contract is being battle tested\n     * @param status Boolean value of the contract's status\n     */\n    event Paused(bool status);\n\n    using SafeMath for uint256;\n    using Transaction for bytes;\n    using ECVerify for bytes32;\n    using ChallengeLib for ChallengeLib.Challenge[];\n\n    uint256 constant BOND_AMOUNT = 0.1 ether;\n    // The contract does not accept more than that amount\n    uint256 constant MAX_VALUE = 10 ether;\n    // An exit can be finalized after it has matured,\n    // after T2 = T0 + MATURITY_PERIOD\n    // An exit can be challenged in the first window\n    // between T0 and T1 ( T1 = T0 + CHALLENGE_WINDOW)\n    // A challenge can be responded to in the second window\n    // between T1 and T2\n    uint256 constant MATURITY_PERIOD = 7 days;\n    uint256 constant CHALLENGE_WINDOW = 3 days + 12 hours;\n    bool paused;\n\n    /*\n     * Modifiers\n     */\n    modifier isValidator() {\n        require(vmc.checkValidator(msg.sender), \"Sender is not a Validator\");\n        _;\n    }\n\n    modifier isTokenApproved(address _address) {\n        require(vmc.allowedTokens(_address), \"Contract address is not approved for deposits\");\n        _;\n    }\n\n    modifier isBonded() {\n        require(msg.value == BOND_AMOUNT, \"Transaction must be accompanied by the BOND AMOUNT\");\n\n        // Save challenger's bond\n        balances[msg.sender].bonded = balances[msg.sender].bonded.add(msg.value);\n        _;\n    }\n\n    modifier isState(uint64 slot, State state) {\n        require(coins[slot].state == state, \"Wrong coin state\");\n        _;\n    }\n\n    struct Balance {\n        uint256 bonded;\n        uint256 withdrawable;\n    }\n    mapping (address => Balance) public balances;\n\n    // Each exit can only be challenged by a single challenger at a time\n    struct Exit {\n        address prevOwner; // previous owner of coin\n        address owner;\n        uint256 createdAt;\n        uint256 bond;\n        uint256 prevBlock;\n        uint256 exitBlock;\n    }\n    enum State {\n        NOT_EXITING,\n        EXITING,\n        EXITED\n    }\n\n    // Track owners of txs that are pending a response\n    struct Challenge {\n        address owner;\n        uint256 blockNumber;\n    }\n    mapping (uint64 => ChallengeLib.Challenge[]) challenges;\n\n    // tracking of NFTs deposited in each slot\n    enum Mode {\n        ERC721\n    }\n    uint64 public numCoins = 0;\n    mapping (uint64 => Coin) coins;\n    struct Coin {\n        Mode mode;\n        State state;\n        address owner; // who owns that nft\n        address contractAddress; // which contract does the coin belong to\n        Exit exit;\n        uint256 uid;\n        uint256 denomination;\n        uint256 depositBlock;\n    }\n\n    // child chain\n    uint256 public childBlockInterval = 1000;\n    uint256 public currentBlock = 0;\n    struct ChildBlock {\n        bytes32 root;\n        uint256 createdAt;\n    }\n\n    mapping(uint256 => ChildBlock) public childChain;\n    ValidatorManagerContract vmc;\n    SparseMerkleTree smt;\n\n    constructor (ValidatorManagerContract _vmc) public {\n        vmc = _vmc;\n        smt = new SparseMerkleTree();\n    }\n\n\n    /// @dev called by a Validator to append a Plasma block to the Plasma chain\n    /// @param root The transaction root hash of the Plasma block being added\n    function submitBlock(uint256 blockNumber, bytes32 root)\n        public\n        isValidator\n    {\n        // rounding to next whole `childBlockInterval`\n        require(blockNumber >= currentBlock, \"A block less than currentBlock cannot be submitted\");\n        currentBlock = blockNumber;\n\n        childChain[currentBlock] = ChildBlock({\n            root: root,\n            createdAt: block.timestamp\n        });\n\n        emit SubmittedBlock(currentBlock, root, block.timestamp);\n    }\n\n    /// @dev Allows anyone to deposit funds into the Plasma chain, called when\n    //       contract receives ERC721\n    /// @notice Appends a deposit block to the Plasma chain\n    /// @param from The address of the user who is depositing a coin\n    /// @param uid The uid of the ERC721 coin being deposited. This is an\n    ///            identifier allocated by the ERC721 token contract; it is not\n    ///            related to `slot`. If the coin is ETH or ERC20 the uid is 0\n    /// @param denomination The quantity of a particular coin being deposited (1 for ERC721) (Extensible in the future)\n    /// @param mode The type of coin that is being deposited (ERC721)\n    function deposit(\n        address from,\n        address contractAddress,\n        uint256 uid,\n        uint256 denomination,\n        Mode mode\n    )\n        private\n    {\n        require(!paused, \"Contract is not accepting more deposits!\");\n        currentBlock = currentBlock.add(1);\n        uint64 slot = uint64(bytes8(keccak256(abi.encodePacked(numCoins, msg.sender, from))));\n\n        // Update state. Leave `exit` empty\n        Coin storage coin = coins[slot];\n        coin.uid = uid;\n        coin.contractAddress = contractAddress;\n        coin.denomination = denomination;\n        coin.depositBlock = currentBlock;\n        coin.owner = from;\n        coin.state = State.NOT_EXITING;\n        coin.mode = mode;\n\n        childChain[currentBlock] = ChildBlock({\n            // save signed transaction hash as root\n            // hash for deposit transactions is the hash of its slot\n            root: keccak256(abi.encodePacked(slot)),\n            createdAt: block.timestamp\n        });\n\n        // create a utxo at `slot`\n        emit Deposit(\n            slot,\n            currentBlock,\n            denomination,\n            from,\n            contractAddress\n        );\n\n        numCoins += 1;\n    }\n\n    /******************** EXIT RELATED ********************/\n\n    function startExit(\n        uint64 slot,\n        bytes calldata prevTxBytes, bytes calldata exitingTxBytes,\n        bytes calldata prevTxInclusionProof, bytes calldata exitingTxInclusionProof,\n        bytes calldata signature,\n        uint256[2] calldata blocks)\n        external\n        payable isBonded\n        isState(slot, State.NOT_EXITING)\n    {\n        require(msg.sender == exitingTxBytes.getOwner(), \"Sender does not match exitingTxBytes owner\");\n\n        doInclusionChecks(\n            prevTxBytes, exitingTxBytes,\n            prevTxInclusionProof, exitingTxInclusionProof,\n            signature,\n            blocks\n        );\n\n        if (blocks[1] % childBlockInterval != 0) {\n            pushExit(slot, address(0), blocks);\n        } else {\n            pushExit(slot, prevTxBytes.getOwner(), blocks);\n        }\n    }\n\n    /// @dev Verifies that consecutive two transaction involving the same coin\n    ///      are valid\n    /// @notice If exitingTxBytes corresponds to a deposit transaction,\n    ///         prevTxBytes cannot have a meaningul value and thus it is ignored.\n    /// @param prevTxBytes The RLP-encoded transaction involving a particular\n    ///        coin which took place directly before exitingTxBytes\n    /// @param exitingTxBytes The RLP-encoded transaction involving a particular\n    ///        coin which an exiting owner of the coin claims to be the latest\n    /// @param prevTxInclusionProof An inclusion proof of prevTx\n    /// @param exitingTxInclusionProof An inclusion proof of exitingTx\n    /// @param signature The signature of the exitingTxBytes by the coin\n    ///        owner indicated in prevTx\n    /// @param blocks An array of two block numbers, at index 0, the block\n    ///        containing the prevTx and at index 1, the block containing\n    ///        the exitingTx\n    function doInclusionChecks(\n        bytes memory prevTxBytes, bytes memory exitingTxBytes,\n        bytes memory prevTxInclusionProof, bytes memory exitingTxInclusionProof,\n        bytes memory signature,\n        uint256[2] memory blocks)\n        private\n        view\n    {\n    if (blocks[1] % childBlockInterval != 0) {\n            checkIncludedAndSigned(\n                exitingTxBytes,\n                exitingTxInclusionProof,\n                signature,\n                blocks[1]\n            );\n        } else {\n            checkBothIncludedAndSigned(\n                prevTxBytes, exitingTxBytes, prevTxInclusionProof,\n                exitingTxInclusionProof, signature,\n                blocks\n            );\n        }\n    }\n\n    // Needed to bypass stack limit errors\n    function pushExit(\n        uint64 slot,\n        address prevOwner,\n        uint256[2] memory blocks)\n        private\n    {\n        // Create exit\n        Coin storage c = coins[slot];\n        c.exit = Exit({\n            prevOwner: prevOwner,\n            owner: msg.sender,\n            createdAt: block.timestamp,\n            bond: msg.value,\n            prevBlock: blocks[0],\n            exitBlock: blocks[1]\n        });\n\n        // Update coin state\n        c.state = State.EXITING;\n        emit StartedExit(slot, msg.sender);\n    }\n\n    /// @dev Finalizes an exit, i.e. puts the exiting coin into the EXITED\n    ///      state which will allow it to be withdrawn, provided the exit has\n    ///      matured and has not been successfully challenged\n    function finalizeExit(uint64 slot) isState(slot, State.EXITING) public {\n        Coin storage coin = coins[slot];\n        require((block.timestamp - coin.exit.createdAt) > MATURITY_PERIOD, \"You must wait the maturity period before finalizing the exit\");\n\n        // Check if there are any pending challenges for the coin.\n        // `checkPendingChallenges` will also penalize\n        // for each challenge that has not been responded to\n        bool hasChallenges = checkPendingChallenges(slot);\n\n        if (!hasChallenges) {\n            // Update coin's owner\n            coin.owner = coin.exit.owner;\n            coin.state = State.EXITED;\n\n            // Allow the exitor to withdraw their bond\n            freeBond(coin.owner);\n\n            emit FinalizedExit(slot, coin.owner);\n        } else {\n            // Reset coin state since it was challenged\n            coin.state = State.NOT_EXITING;\n            emit CoinReset(slot, coin.owner);\n        }\n\n        delete coins[slot].exit;\n    }\n\n    function checkPendingChallenges(uint64 slot) private returns (bool hasChallenges) {\n        uint256 length = challenges[slot].length;\n        bool slashed;\n        for (uint i = 0; i < length; i++) {\n            if (challenges[slot][i].txHash != 0x0) {\n                // Penalize the exitor and reward the first valid challenger.\n                if (!slashed) {\n                    slashBond(coins[slot].exit.owner, challenges[slot][i].challenger);\n                    slashed = true;\n                }\n                // Also free the bond of the challenger.\n                freeBond(challenges[slot][i].challenger);\n\n                // Challenge resolved, delete it\n                delete challenges[slot][i];\n                hasChallenges = true;\n            }\n        }\n    }\n\n    /// @dev Iterates through all of the initiated exits and finalizes those\n    ///      which have matured without being successfully challenged\n    function finalizeExits(uint64[] calldata slots) external {\n        uint256 slotsLength = slots.length;\n        for (uint256 i = 0; i < slotsLength; i++) {\n            finalizeExit(slots[i]);\n        }\n    }\n\n    function cancelExit(uint64 slot) public {\n        require(coins[slot].exit.owner == msg.sender, \"Only coin's owner is allowed to cancel the exit\");\n        delete coins[slot].exit;\n        coins[slot].state = State.NOT_EXITING;\n        freeBond(msg.sender);\n        emit CoinReset(slot, coins[slot].owner);\n    }\n\n    function cancelExits(uint64[] calldata slots) external {\n        uint256 slotsLength = slots.length;\n        for (uint256 i = 0; i < slotsLength; i++) {\n            cancelExit(slots[i]);\n        }\n    }\n\n\n\n    /// @dev Withdraw a UTXO that has been exited\n    /// @param slot The slot of the coin being withdrawn\n    function withdraw(uint64 slot) external isState(slot, State.EXITED) {\n        require(coins[slot].owner == msg.sender, \"You do not own that UTXO\");\n        uint256 uid = coins[slot].uid;\n        uint256 denomination = coins[slot].denomination;\n\n        // Delete the coin that is being withdrawn\n        Coin memory c = coins[slot];\n        delete coins[slot];\n        if (c.mode == Mode.ERC721) {\n            ERC721(c.contractAddress).safeTransferFrom(address(this), msg.sender, uid);\n        } else {\n            revert(\"Invalid coin mode\");\n        }\n\n        emit Withdrew(\n            msg.sender,\n            slot,\n            c.mode,\n            c.contractAddress,\n            uid,\n            denomination\n        );\n    }\n\n    /******************** CHALLENGES ********************/\n\n    /// @dev Submits proof of a transaction before prevTx as an exit challenge\n    /// @notice Exitor has to call respondChallengeBefore and submit a\n    ///         transaction before prevTx or prevTx itself.\n    /// @param slot The slot corresponding to the coin whose exit is being challenged\n    /// @param txBytes The RLP-encoded transaction involving a particular\n    ///        coin which an exiting owner of the coin claims to be the latest\n    /// @param txInclusionProof An inclusion proof of exitingTx\n    /// @param signature The signature of the txBytes by the coin\n    ///        owner indicated in prevTx\n    /// @param blockNumber The block containing the exitingTx\n    /// TODO: change parameters order and names to match challengeAfter()\n    function challengeBefore(\n        uint64 slot,\n        bytes calldata txBytes,\n        bytes calldata txInclusionProof,\n        bytes calldata signature,\n        uint256 blockNumber)\n        external\n        payable isBonded\n        isState(slot, State.EXITING)\n    {\n        checkBefore(slot, txBytes, blockNumber, signature, txInclusionProof);\n        setChallenged(slot, txBytes.getOwner(), blockNumber, txBytes.getHash());\n    }\n\n    /// @dev Submits proof of a later transaction that corresponds to a challenge\n    /// @notice Can only be called in the second window of the exit period.\n    /// @param slot The slot corresponding to the coin whose exit is being challenged\n    /// @param challengingTxHash The hash of the transaction\n    ///        corresponding to the challenge we're responding to\n    /// @param respondingBlockNumber The block number which included the transaction\n    ///        we are responding with\n    /// @param respondingTransaction The RLP-encoded transaction involving a particular\n    ///        coin which took place directly after challengingTransaction\n    /// @param proof An inclusion proof of respondingTransaction\n    /// @param signature The signature which proves a direct spend from the challenger\n    function respondChallengeBefore(\n        uint64 slot,\n        bytes32 challengingTxHash,\n        uint256 respondingBlockNumber,\n        bytes calldata respondingTransaction,\n        bytes calldata proof,\n        bytes calldata signature)\n        external\n    {\n        // Check that the transaction being challenged exists\n        require(challenges[slot].contains(challengingTxHash), \"Responding to non existing challenge\");\n\n        // Get index of challenge in the challenges array\n        uint256 index = uint256(challenges[slot].indexOf(challengingTxHash));\n\n        checkResponse(slot, index, respondingBlockNumber, respondingTransaction, signature, proof);\n\n        // If the exit was actually challenged and responded, penalize the challenger and award the responder\n        slashBond(challenges[slot][index].challenger, msg.sender);\n\n        challenges[slot].remove(challengingTxHash);\n        emit RespondedExitChallenge(slot);\n    }\n\n    function checkResponse(\n        uint64 slot,\n        uint256 index,\n        uint256 blockNumber,\n        bytes memory txBytes,\n        bytes memory signature,\n        bytes memory proof\n    )\n        private\n        view\n    {\n        Transaction.TX memory txData = txBytes.getTx();\n        require(txData.hash.ecverify(signature, challenges[slot][index].owner), \"Invalid signature\");\n        require(txData.slot == slot, \"Tx is referencing another slot\");\n        require(blockNumber > challenges[slot][index].challengingBlockNumber, \"BlockNumber must be after the chalenge\");\n        require(blockNumber <= coins[slot].exit.exitBlock, \"Cannot respond with a tx after the exit\");\n        checkTxIncluded(txData.slot, txData.hash, blockNumber, proof);\n    }\n\n    function challengeBetween(\n        uint64 slot,\n        uint256 challengingBlockNumber,\n        bytes calldata challengingTransaction,\n        bytes calldata proof,\n        bytes calldata signature)\n        external isState(slot, State.EXITING)\n    {\n        checkBetween(slot, challengingTransaction, challengingBlockNumber, signature, proof);\n        applyPenalties(slot);\n    }\n\n    function challengeAfter(\n        uint64 slot,\n        uint256 challengingBlockNumber,\n        bytes calldata challengingTransaction,\n        bytes calldata proof,\n        bytes calldata signature)\n        external\n        isState(slot, State.EXITING)\n    {\n        checkAfter(slot, challengingTransaction, challengingBlockNumber, signature, proof);\n        applyPenalties(slot);\n    }\n\n\n    // Must challenge with a tx in between\n\n    function checkBefore(\n        uint64 slot,\n        bytes memory txBytes,\n        uint blockNumber,\n        bytes memory signature,\n        bytes memory proof\n    )\n        private\n        view\n    {\n        require(\n            blockNumber <= coins[slot].exit.prevBlock,\n            \"Tx should be before the exit's parent block\"\n        );\n\n        Transaction.TX memory txData = txBytes.getTx();\n        require(txData.hash.recover(signature) != address(0x0), \"Invalid signature\");\n        require(txData.slot == slot, \"Tx is referencing another slot\");\n        checkTxIncluded(slot, txData.hash, blockNumber, proof);\n    }\n\n\n    // Check that the challenging transaction has been signed\n    // by the attested previous owner of the coin in the exit\n    function checkBetween(\n        uint64 slot,\n        bytes memory txBytes,\n        uint blockNumber,\n        bytes memory signature,\n        bytes memory proof\n    )\n        private\n        view\n    {\n        require(\n            coins[slot].exit.exitBlock > blockNumber &&\n            coins[slot].exit.prevBlock < blockNumber,\n            \"Tx should be between the exit's blocks\"\n        );\n\n        Transaction.TX memory txData = txBytes.getTx();\n        require(txData.hash.ecverify(signature, coins[slot].exit.prevOwner), \"Invalid signature\");\n        require(txData.slot == slot, \"Tx is referencing another slot\");\n        checkTxIncluded(slot, txData.hash, blockNumber, proof);\n    }\n\n    function checkAfter(uint64 slot, bytes memory txBytes, uint blockNumber, bytes memory signature, bytes memory proof) private view {\n        require(\n            coins[slot].exit.exitBlock < blockNumber,\n            \"Tx should be after the exitBlock\"\n        );\n\n        Transaction.TX memory txData = txBytes.getTx();\n        require(txData.hash.ecverify(signature, coins[slot].exit.owner), \"Invalid signature\");\n        require(txData.slot == slot, \"Tx is referencing another slot\");\n        require(txData.prevBlock == coins[slot].exit.exitBlock, \"Not a direct spend\");\n        checkTxIncluded(slot, txData.hash, blockNumber, proof);\n    }\n\n    function applyPenalties(uint64 slot) private {\n        // Apply penalties and change state\n        slashBond(coins[slot].exit.owner, msg.sender);\n        coins[slot].state = State.NOT_EXITING;\n        delete coins[slot].exit;\n        emit CoinReset(slot, coins[slot].owner);\n    }\n\n    /// @param slot The slot of the coin being challenged\n    /// @param owner The user claimed to be the true owner of the coin\n    function setChallenged(uint64 slot, address owner, uint256 challengingBlockNumber, bytes32 txHash) private {\n        // Require that the challenge is in the first half of the challenge window\n        require(block.timestamp <= coins[slot].exit.createdAt + CHALLENGE_WINDOW, \"Challenge windows is over\");\n\n        require(!challenges[slot].contains(txHash),\n                \"Transaction used for challenge already\");\n\n        // Need to save the exiting transaction's owner, to verify\n        // that the response is valid\n        challenges[slot].push(\n            ChallengeLib.Challenge({\n                owner: owner,\n                challenger: msg.sender,\n                txHash: txHash,\n                challengingBlockNumber: challengingBlockNumber\n            })\n        );\n\n        emit ChallengedExit(slot, txHash, challengingBlockNumber);\n    }\n\n    /******************** BOND RELATED ********************/\n\n    function freeBond(address from) private {\n        balances[from].bonded = balances[from].bonded.sub(BOND_AMOUNT);\n        balances[from].withdrawable = balances[from].withdrawable.add(BOND_AMOUNT);\n        emit FreedBond(from, BOND_AMOUNT);\n    }\n\n    function withdrawBonds() external {\n        // Can only withdraw bond if the msg.sender\n        uint256 amount = balances[msg.sender].withdrawable;\n        balances[msg.sender].withdrawable = 0; // no reentrancy!\n\n        msg.sender.transfer(amount);\n        emit WithdrewBonds(msg.sender, amount);\n    }\n\n    function slashBond(address from, address to) private {\n        balances[from].bonded = balances[from].bonded.sub(BOND_AMOUNT);\n        balances[to].withdrawable = balances[to].withdrawable.add(BOND_AMOUNT);\n        emit SlashedBond(from, to, BOND_AMOUNT);\n    }\n\n    /******************** PROOF CHECKING ********************/\n\n    function checkIncludedAndSigned(\n        bytes memory exitingTxBytes,\n        bytes memory exitingTxInclusionProof,\n        bytes memory signature,\n        uint256 blk)\n        private\n        view\n    {\n        Transaction.TX memory txData = exitingTxBytes.getTx();\n\n        // Deposit transactions need to be signed by their owners\n        // e.g. Alice signs a transaction to Alice\n        require(txData.hash.ecverify(signature, txData.owner), \"Invalid signature\");\n        checkTxIncluded(txData.slot, txData.hash, blk, exitingTxInclusionProof);\n    }\n\n    function checkBothIncludedAndSigned(\n        bytes memory prevTxBytes, bytes memory exitingTxBytes,\n        bytes memory prevTxInclusionProof, bytes memory exitingTxInclusionProof,\n        bytes memory signature,\n        uint256[2] memory blocks)\n        private\n        view\n    {\n        if (blocks[0] % childBlockInterval != 0) {\n            require(blocks[0] < blocks[1], \"Block on the first index must be the earlier of the 2 blocks\");\n        }\n\n        Transaction.TX memory exitingTxData = exitingTxBytes.getTx();\n        Transaction.TX memory prevTxData = prevTxBytes.getTx();\n\n        // Both transactions need to be referring to the same slot\n        require(exitingTxData.slot == prevTxData.slot,\"Slot on the ExitingTx does not match that on the prevTx\");\n\n        // The exiting transaction must be signed by the previous transaciton's owner\n        require(exitingTxData.hash.ecverify(signature, prevTxData.owner), \"Invalid signature\");\n\n        // Both transactions must be included in their respective blocks\n        checkTxIncluded(prevTxData.slot, prevTxData.hash, blocks[0], prevTxInclusionProof);\n        checkTxIncluded(exitingTxData.slot, exitingTxData.hash, blocks[1], exitingTxInclusionProof);\n    }\n\n    function checkTxIncluded(\n        uint64 slot,\n        bytes32 txHash,\n        uint256 blockNumber,\n        bytes memory proof\n    )\n        private\n        view\n    {\n        bytes32 root = childChain[blockNumber].root;\n\n        if (blockNumber % childBlockInterval != 0) {\n            // Check against block root for deposit block numbers\n            require(txHash == root, \"Transaction hash does not match rootHash\");\n        } else {\n            // Check against merkle tree for all other block numbers\n            require(\n                checkMembership(\n                    txHash,\n                    root,\n                    slot,\n                    proof\n            ),\n            \"Tx not included in claimed block\"\n            );\n        }\n    }\n\n    /******************** DEPOSIT FUNCTIONS ********************/\n\n    function pause() external isValidator {\n        paused = true;\n        emit Paused(true);\n    }\n\n    function unpause() external isValidator {\n        paused = false;\n        emit Paused(false);\n    }\n\n    function() external payable {\n        //TODO: Not quite sure about this\n        require(false, \"This contract does not receive money\");\n    }\n\n    function onERC721Received(address /*operator*/, address from, uint256 tokenId, bytes memory /*data*/) public isTokenApproved(msg.sender)\n    returns (bytes4)\n     {\n        require(ERC721(msg.sender).ownerOf(tokenId) == address(this), \"Token was not transfered correctly\");\n        //TODO: Should we allow any contracts? Also is this enough proof of a ERC721 transaction?\n        deposit(from, msg.sender, tokenId, 1, Mode.ERC721);\n        return this.onERC721Received.selector;\n    }\n\n    // Approve and Deposit function for 2-step deposits without having to approve the token by the validators\n    // Requires first to have called `approve` on the specified ERC721 contract\n    function depositERC721(uint256 uid, address contractAddress) external {\n        ERC721(contractAddress).safeTransferFrom(msg.sender, address(this), uid);\n    }\n\n    /******************** HELPERS ********************/\n\n    function checkMembership(\n        bytes32 txHash,\n        bytes32 root,\n        uint64 slot,\n        bytes memory proof) public view returns (bool)\n    {\n        return smt.checkMembership(\n            txHash,\n            root,\n            slot,\n            proof);\n    }\n\n    function getPlasmaCoin(uint64 slot) external view returns(uint256, uint256, uint256, address, State, Mode, address) {\n        Coin memory c = coins[slot];\n        return (c.uid, c.depositBlock, c.denomination, c.owner, c.state, c.mode, c.contractAddress);\n    }\n\n    function getChallenge(uint64 slot, bytes32 txHash)\n        external\n        view\n        returns(address, address, bytes32, uint256)\n    {\n        uint256 index = uint256(challenges[slot].indexOf(txHash));\n        ChallengeLib.Challenge memory c = challenges[slot][index];\n        return (c.owner, c.challenger, c.txHash, c.challengingBlockNumber);\n    }\n\n    function getChallenges(uint64 slot) external view returns(bytes32[] memory) {\n        uint length = challenges[slot].length;\n        bytes32[] memory slotChallenges = new bytes32[](length);\n        for (uint i = 0; i < length; i++) {\n            slotChallenges[i] = challenges[slot][i].txHash;\n        }\n\n        return slotChallenges;\n    }\n\n    function getExit(uint64 slot) external view returns(address, uint256, uint256, State, uint256) {\n        Exit memory e = coins[slot].exit;\n        return (e.owner, e.prevBlock, e.exitBlock, coins[slot].state, e.createdAt);\n    }\n\n    function getBlockRoot(uint256 blockNumber) public view returns (bytes32 root) {\n        root = childChain[blockNumber].root;\n    }\n\n    function getBalance() external view returns(uint256, uint256) {\n        // Can only withdraw bond if the msg.sender\n        return (balances[msg.sender].bonded, balances[msg.sender].withdrawable);\n    }\n}\n",
  "sourcePath": "/Users/epord/Desktop/PF/Plasma-Cash-RootChain/contracts/Core/RootChain.sol",
  "compiler": {
    "name": "solc",
    "version": "0.5.2+commit.1df8f40c.Emscripten.clang"
  },
  "schemaVersion": "3.0.0",
  "updatedAt": "2019-09-03T19:46:16.299Z",
  "devdoc": {
    "methods": {
      "challengeBefore(uint64,bytes,bytes,bytes,uint256)": {
        "details": "Submits proof of a transaction before prevTx as an exit challenge",
        "params": {
          "blockNumber": "The block containing the exitingTx TODO: change parameters order and names to match challengeAfter()",
          "signature": "The signature of the txBytes by the coin        owner indicated in prevTx",
          "slot": "The slot corresponding to the coin whose exit is being challenged",
          "txBytes": "The RLP-encoded transaction involving a particular        coin which an exiting owner of the coin claims to be the latest",
          "txInclusionProof": "An inclusion proof of exitingTx"
        }
      },
      "finalizeExit(uint64)": {
        "details": "Finalizes an exit, i.e. puts the exiting coin into the EXITED      state which will allow it to be withdrawn, provided the exit has      matured and has not been successfully challenged"
      },
      "finalizeExits(uint64[])": {
        "details": "Iterates through all of the initiated exits and finalizes those      which have matured without being successfully challenged"
      },
      "respondChallengeBefore(uint64,bytes32,uint256,bytes,bytes,bytes)": {
        "details": "Submits proof of a later transaction that corresponds to a challenge",
        "params": {
          "challengingTxHash": "The hash of the transaction        corresponding to the challenge we're responding to",
          "proof": "An inclusion proof of respondingTransaction",
          "respondingBlockNumber": "The block number which included the transaction        we are responding with",
          "respondingTransaction": "The RLP-encoded transaction involving a particular        coin which took place directly after challengingTransaction",
          "signature": "The signature which proves a direct spend from the challenger",
          "slot": "The slot corresponding to the coin whose exit is being challenged"
        }
      },
      "submitBlock(uint256,bytes32)": {
        "details": "called by a Validator to append a Plasma block to the Plasma chain",
        "params": {
          "root": "The transaction root hash of the Plasma block being added"
        }
      },
      "withdraw(uint64)": {
        "details": "Withdraw a UTXO that has been exited",
        "params": {
          "slot": "The slot of the coin being withdrawn"
        }
      }
    }
  },
  "userdoc": {
    "methods": {
      "challengeBefore(uint64,bytes,bytes,bytes,uint256)": {
        "notice": "Exitor has to call respondChallengeBefore and submit a         transaction before prevTx or prevTx itself."
      },
      "checkMembership(bytes32,bytes32,uint64,bytes)": {
        "notice": "****************** HELPERS *******************"
      },
      "pause()": {
        "notice": "****************** DEPOSIT FUNCTIONS *******************"
      },
      "respondChallengeBefore(uint64,bytes32,uint256,bytes,bytes,bytes)": {
        "notice": "Can only be called in the second window of the exit period."
      },
      "startExit(uint64,bytes,bytes,bytes,bytes,bytes,uint256[2])": {
        "notice": "****************** EXIT RELATED *******************"
      }
    }
  }
}