{
  "contractName": "RootChain",
  "abi": [
    {
      "constant": true,
      "inputs": [
        {
          "name": "",
          "type": "address"
        }
      ],
      "name": "balances",
      "outputs": [
        {
          "name": "bonded",
          "type": "uint256"
        },
        {
          "name": "withdrawable",
          "type": "uint256"
        }
      ],
      "payable": false,
      "stateMutability": "view",
      "type": "function"
    },
    {
      "constant": true,
      "inputs": [],
      "name": "childBlockInterval",
      "outputs": [
        {
          "name": "",
          "type": "uint256"
        }
      ],
      "payable": false,
      "stateMutability": "view",
      "type": "function"
    },
    {
      "constant": true,
      "inputs": [
        {
          "name": "",
          "type": "uint256"
        }
      ],
      "name": "secretRevealingChain",
      "outputs": [
        {
          "name": "root",
          "type": "bytes32"
        },
        {
          "name": "createdAt",
          "type": "uint256"
        }
      ],
      "payable": false,
      "stateMutability": "view",
      "type": "function"
    },
    {
      "constant": true,
      "inputs": [],
      "name": "numCoins",
      "outputs": [
        {
          "name": "",
          "type": "uint64"
        }
      ],
      "payable": false,
      "stateMutability": "view",
      "type": "function"
    },
    {
      "constant": true,
      "inputs": [],
      "name": "currentBlock",
      "outputs": [
        {
          "name": "",
          "type": "uint256"
        }
      ],
      "payable": false,
      "stateMutability": "view",
      "type": "function"
    },
    {
      "constant": true,
      "inputs": [
        {
          "name": "",
          "type": "uint256"
        }
      ],
      "name": "childChain",
      "outputs": [
        {
          "name": "root",
          "type": "bytes32"
        },
        {
          "name": "createdAt",
          "type": "uint256"
        }
      ],
      "payable": false,
      "stateMutability": "view",
      "type": "function"
    },
    {
      "inputs": [
        {
          "name": "_vmc",
          "type": "address"
        }
      ],
      "payable": false,
      "stateMutability": "nonpayable",
      "type": "constructor"
    },
    {
      "payable": true,
      "stateMutability": "payable",
      "type": "fallback"
    },
    {
      "anonymous": false,
      "inputs": [
        {
          "indexed": true,
          "name": "slot",
          "type": "uint64"
        },
        {
          "indexed": false,
          "name": "blockNumber",
          "type": "uint256"
        },
        {
          "indexed": true,
          "name": "from",
          "type": "address"
        },
        {
          "indexed": true,
          "name": "contractAddress",
          "type": "address"
        }
      ],
      "name": "Deposit",
      "type": "event"
    },
    {
      "anonymous": false,
      "inputs": [
        {
          "indexed": false,
          "name": "blockNumber",
          "type": "uint256"
        },
        {
          "indexed": false,
          "name": "root",
          "type": "bytes32"
        },
        {
          "indexed": false,
          "name": "timestamp",
          "type": "uint256"
        }
      ],
      "name": "SubmittedBlock",
      "type": "event"
    },
    {
      "anonymous": false,
      "inputs": [
        {
          "indexed": false,
          "name": "blockNumber",
          "type": "uint256"
        },
        {
          "indexed": false,
          "name": "root",
          "type": "bytes32"
        },
        {
          "indexed": false,
          "name": "timestamp",
          "type": "uint256"
        }
      ],
      "name": "SubmittedSecretBlock",
      "type": "event"
    },
    {
      "anonymous": false,
      "inputs": [
        {
          "indexed": true,
          "name": "slot",
          "type": "uint64"
        },
        {
          "indexed": true,
          "name": "owner",
          "type": "address"
        }
      ],
      "name": "StartedExit",
      "type": "event"
    },
    {
      "anonymous": false,
      "inputs": [
        {
          "indexed": true,
          "name": "slot",
          "type": "uint64"
        },
        {
          "indexed": true,
          "name": "owner",
          "type": "address"
        },
        {
          "indexed": false,
          "name": "txHash",
          "type": "bytes32"
        },
        {
          "indexed": false,
          "name": "challengingBlockNumber",
          "type": "uint256"
        }
      ],
      "name": "ChallengedExit",
      "type": "event"
    },
    {
      "anonymous": false,
      "inputs": [
        {
          "indexed": true,
          "name": "slot",
          "type": "uint64"
        },
        {
          "indexed": true,
          "name": "owner",
          "type": "address"
        },
        {
          "indexed": true,
          "name": "challenger",
          "type": "address"
        }
      ],
      "name": "RespondedExitChallenge",
      "type": "event"
    },
    {
      "anonymous": false,
      "inputs": [
        {
          "indexed": true,
          "name": "slot",
          "type": "uint64"
        },
        {
          "indexed": true,
          "name": "owner",
          "type": "address"
        }
      ],
      "name": "CoinReset",
      "type": "event"
    },
    {
      "anonymous": false,
      "inputs": [
        {
          "indexed": true,
          "name": "slot",
          "type": "uint64"
        },
        {
          "indexed": true,
          "name": "owner",
          "type": "address"
        }
      ],
      "name": "FinalizedExit",
      "type": "event"
    },
    {
      "anonymous": false,
      "inputs": [
        {
          "indexed": true,
          "name": "from",
          "type": "address"
        },
        {
          "indexed": false,
          "name": "amount",
          "type": "uint256"
        }
      ],
      "name": "FreedBond",
      "type": "event"
    },
    {
      "anonymous": false,
      "inputs": [
        {
          "indexed": true,
          "name": "from",
          "type": "address"
        },
        {
          "indexed": true,
          "name": "to",
          "type": "address"
        },
        {
          "indexed": false,
          "name": "amount",
          "type": "uint256"
        }
      ],
      "name": "SlashedBond",
      "type": "event"
    },
    {
      "anonymous": false,
      "inputs": [
        {
          "indexed": true,
          "name": "from",
          "type": "address"
        },
        {
          "indexed": false,
          "name": "amount",
          "type": "uint256"
        }
      ],
      "name": "WithdrewBonds",
      "type": "event"
    },
    {
      "anonymous": false,
      "inputs": [
        {
          "indexed": true,
          "name": "owner",
          "type": "address"
        },
        {
          "indexed": true,
          "name": "slot",
          "type": "uint64"
        },
        {
          "indexed": false,
          "name": "contractAddress",
          "type": "address"
        },
        {
          "indexed": false,
          "name": "uid",
          "type": "uint256"
        }
      ],
      "name": "Withdrew",
      "type": "event"
    },
    {
      "anonymous": false,
      "inputs": [
        {
          "indexed": false,
          "name": "status",
          "type": "bool"
        }
      ],
      "name": "Paused",
      "type": "event"
    },
    {
      "constant": false,
      "inputs": [],
      "name": "pause",
      "outputs": [],
      "payable": false,
      "stateMutability": "nonpayable",
      "type": "function"
    },
    {
      "constant": false,
      "inputs": [],
      "name": "unpause",
      "outputs": [],
      "payable": false,
      "stateMutability": "nonpayable",
      "type": "function"
    },
    {
      "constant": false,
      "inputs": [
        {
          "name": "blockNumber",
          "type": "uint256"
        },
        {
          "name": "root",
          "type": "bytes32"
        }
      ],
      "name": "submitBlock",
      "outputs": [],
      "payable": false,
      "stateMutability": "nonpayable",
      "type": "function"
    },
    {
      "constant": false,
      "inputs": [
        {
          "name": "blockNumber",
          "type": "uint256"
        },
        {
          "name": "root",
          "type": "bytes32"
        }
      ],
      "name": "submitSecretBlock",
      "outputs": [],
      "payable": false,
      "stateMutability": "nonpayable",
      "type": "function"
    },
    {
      "constant": false,
      "inputs": [
        {
          "name": "",
          "type": "address"
        },
        {
          "name": "from",
          "type": "address"
        },
        {
          "name": "tokenId",
          "type": "uint256"
        },
        {
          "name": "",
          "type": "bytes"
        }
      ],
      "name": "onERC721Received",
      "outputs": [
        {
          "name": "",
          "type": "bytes4"
        }
      ],
      "payable": false,
      "stateMutability": "nonpayable",
      "type": "function"
    },
    {
      "constant": false,
      "inputs": [
        {
          "name": "slot",
          "type": "uint64"
        }
      ],
      "name": "startDepositExit",
      "outputs": [],
      "payable": true,
      "stateMutability": "payable",
      "type": "function"
    },
    {
      "constant": false,
      "inputs": [
        {
          "name": "slot",
          "type": "uint64"
        },
        {
          "name": "prevTxBytes",
          "type": "bytes"
        },
        {
          "name": "exitingTxBytes",
          "type": "bytes"
        },
        {
          "name": "prevTxInclusionProof",
          "type": "bytes"
        },
        {
          "name": "exitingTxInclusionProof",
          "type": "bytes"
        },
        {
          "name": "signature",
          "type": "bytes"
        },
        {
          "name": "blocks",
          "type": "uint256[2]"
        }
      ],
      "name": "startExit",
      "outputs": [],
      "payable": true,
      "stateMutability": "payable",
      "type": "function"
    },
    {
      "constant": false,
      "inputs": [
        {
          "name": "slot",
          "type": "uint64"
        }
      ],
      "name": "finalizeExit",
      "outputs": [],
      "payable": false,
      "stateMutability": "nonpayable",
      "type": "function"
    },
    {
      "constant": false,
      "inputs": [
        {
          "name": "slot",
          "type": "uint64"
        }
      ],
      "name": "cancelExit",
      "outputs": [],
      "payable": false,
      "stateMutability": "nonpayable",
      "type": "function"
    },
    {
      "constant": false,
      "inputs": [
        {
          "name": "slot",
          "type": "uint64"
        },
        {
          "name": "txBytes",
          "type": "bytes"
        },
        {
          "name": "proof",
          "type": "bytes"
        },
        {
          "name": "signature",
          "type": "bytes"
        },
        {
          "name": "blockNumber",
          "type": "uint256"
        }
      ],
      "name": "challengeAfter",
      "outputs": [],
      "payable": false,
      "stateMutability": "nonpayable",
      "type": "function"
    },
    {
      "constant": false,
      "inputs": [
        {
          "name": "slot",
          "type": "uint64"
        },
        {
          "name": "txBytes",
          "type": "bytes"
        },
        {
          "name": "proof",
          "type": "bytes"
        },
        {
          "name": "signature",
          "type": "bytes"
        },
        {
          "name": "blockNumber",
          "type": "uint256"
        }
      ],
      "name": "challengeBetween",
      "outputs": [],
      "payable": false,
      "stateMutability": "nonpayable",
      "type": "function"
    },
    {
      "constant": false,
      "inputs": [
        {
          "name": "slot",
          "type": "uint64"
        },
        {
          "name": "txBytes",
          "type": "bytes"
        },
        {
          "name": "proof",
          "type": "bytes"
        },
        {
          "name": "blockNumber",
          "type": "uint256"
        }
      ],
      "name": "challengeBefore",
      "outputs": [],
      "payable": true,
      "stateMutability": "payable",
      "type": "function"
    },
    {
      "constant": false,
      "inputs": [
        {
          "name": "slot",
          "type": "uint64"
        },
        {
          "name": "challengingTxHash",
          "type": "bytes32"
        },
        {
          "name": "respondingBlockNumber",
          "type": "uint256"
        },
        {
          "name": "respondingTransaction",
          "type": "bytes"
        },
        {
          "name": "proof",
          "type": "bytes"
        },
        {
          "name": "signature",
          "type": "bytes"
        }
      ],
      "name": "respondChallengeBefore",
      "outputs": [],
      "payable": false,
      "stateMutability": "nonpayable",
      "type": "function"
    },
    {
      "constant": false,
      "inputs": [],
      "name": "withdrawBonds",
      "outputs": [],
      "payable": false,
      "stateMutability": "nonpayable",
      "type": "function"
    },
    {
      "constant": true,
      "inputs": [
        {
          "name": "prevTxBytes",
          "type": "bytes"
        },
        {
          "name": "exitingTxBytes",
          "type": "bytes"
        },
        {
          "name": "prevTxInclusionProof",
          "type": "bytes"
        },
        {
          "name": "exitingTxInclusionProof",
          "type": "bytes"
        },
        {
          "name": "signature",
          "type": "bytes"
        },
        {
          "name": "blocks",
          "type": "uint256[2]"
        }
      ],
      "name": "checkBothIncludedAndSigned",
      "outputs": [],
      "payable": false,
      "stateMutability": "view",
      "type": "function"
    },
    {
      "constant": true,
      "inputs": [
        {
          "name": "txBytes",
          "type": "bytes"
        },
        {
          "name": "proof",
          "type": "bytes"
        },
        {
          "name": "blockNumber",
          "type": "uint256"
        }
      ],
      "name": "checkTX",
      "outputs": [
        {
          "name": "",
          "type": "bool"
        }
      ],
      "payable": false,
      "stateMutability": "view",
      "type": "function"
    },
    {
      "constant": true,
      "inputs": [
        {
          "name": "txHash",
          "type": "bytes32"
        },
        {
          "name": "root",
          "type": "bytes32"
        },
        {
          "name": "slot",
          "type": "uint64"
        },
        {
          "name": "proof",
          "type": "bytes"
        }
      ],
      "name": "checkMembership",
      "outputs": [
        {
          "name": "",
          "type": "bool"
        }
      ],
      "payable": false,
      "stateMutability": "view",
      "type": "function"
    },
    {
      "constant": true,
      "inputs": [
        {
          "name": "txHash",
          "type": "bytes32"
        },
        {
          "name": "blockNumber",
          "type": "uint256"
        },
        {
          "name": "slot",
          "type": "uint64"
        },
        {
          "name": "proof",
          "type": "bytes"
        }
      ],
      "name": "checkInclusion",
      "outputs": [
        {
          "name": "",
          "type": "bool"
        }
      ],
      "payable": false,
      "stateMutability": "view",
      "type": "function"
    },
    {
      "constant": true,
      "inputs": [
        {
          "name": "slot",
          "type": "uint64"
        }
      ],
      "name": "getPlasmaCoin",
      "outputs": [
        {
          "name": "",
          "type": "uint256"
        },
        {
          "name": "",
          "type": "uint256"
        },
        {
          "name": "",
          "type": "address"
        },
        {
          "name": "",
          "type": "uint8"
        },
        {
          "name": "",
          "type": "address"
        }
      ],
      "payable": false,
      "stateMutability": "view",
      "type": "function"
    },
    {
      "constant": true,
      "inputs": [
        {
          "name": "slot",
          "type": "uint64"
        },
        {
          "name": "txHash",
          "type": "bytes32"
        }
      ],
      "name": "getChallenge",
      "outputs": [
        {
          "name": "",
          "type": "address"
        },
        {
          "name": "",
          "type": "address"
        },
        {
          "name": "",
          "type": "bytes32"
        },
        {
          "name": "",
          "type": "uint256"
        }
      ],
      "payable": false,
      "stateMutability": "view",
      "type": "function"
    },
    {
      "constant": true,
      "inputs": [
        {
          "name": "slot",
          "type": "uint64"
        }
      ],
      "name": "getChallenges",
      "outputs": [
        {
          "name": "",
          "type": "bytes32[]"
        }
      ],
      "payable": false,
      "stateMutability": "view",
      "type": "function"
    },
    {
      "constant": true,
      "inputs": [
        {
          "name": "slot",
          "type": "uint64"
        }
      ],
      "name": "getExit",
      "outputs": [
        {
          "name": "",
          "type": "address"
        },
        {
          "name": "",
          "type": "uint256"
        },
        {
          "name": "",
          "type": "uint256"
        },
        {
          "name": "",
          "type": "uint8"
        },
        {
          "name": "",
          "type": "uint256"
        }
      ],
      "payable": false,
      "stateMutability": "view",
      "type": "function"
    },
    {
      "constant": true,
      "inputs": [
        {
          "name": "blockNumber",
          "type": "uint256"
        }
      ],
      "name": "getBlock",
      "outputs": [
        {
          "name": "",
          "type": "bytes32"
        },
        {
          "name": "",
          "type": "uint256"
        }
      ],
      "payable": false,
      "stateMutability": "view",
      "type": "function"
    },
    {
      "constant": true,
      "inputs": [
        {
          "name": "blockNumber",
          "type": "uint256"
        }
      ],
      "name": "getSecretBlock",
      "outputs": [
        {
          "name": "",
          "type": "bytes32"
        },
        {
          "name": "",
          "type": "uint256"
        }
      ],
      "payable": false,
      "stateMutability": "view",
      "type": "function"
    },
    {
      "constant": true,
      "inputs": [],
      "name": "getBalance",
      "outputs": [
        {
          "name": "",
          "type": "uint256"
        },
        {
          "name": "",
          "type": "uint256"
        }
      ],
      "payable": false,
      "stateMutability": "view",
      "type": "function"
    }
  ],
  "bytecode": "0x608060405260008060016101000a81548167ffffffffffffffff021916908367ffffffffffffffff1602179055506103e860045560006005553480156200004557600080fd5b506040516020806200a03a833981018060405260208110156200006757600080fd5b810190808051906020019092919050505080600860006101000a81548173ffffffffffffffffffffffffffffffffffffffff021916908373ffffffffffffffffffffffffffffffffffffffff160217905550620000c362000128565b604051809103906000f080158015620000e0573d6000803e3d6000fd5b50600960006101000a81548173ffffffffffffffffffffffffffffffffffffffff021916908373ffffffffffffffffffffffffffffffffffffffff1602179055505062000139565b60405161060e8062009a2c83390190565b6198e380620001496000396000f3fe6080604052600436106101f5576000357c0100000000000000000000000000000000000000000000000000000000900480637109b65e1161011f578063cbd8da63116100b2578063f586df6511610081578063f586df65146114f5578063f8353cf0146115fd578063f95643b1146116d8578063fa2f2b771461172e576101f5565b8063cbd8da63146111ea578063d157796e1461122f578063e12ed13c146112de578063e9a067c014611309576101f5565b80638456cb59116100ee5780638456cb5914610d43578063a973759514610d5a578063ac970bc414610d99578063c33a0158146110fe576101f5565b80637109b65e14610b3e5780637841721414610bd85780637abb421f14610c1d57806381686e6b14610c73576101f5565b806327e235e311610197578063620251091161016657806362025109146107115780636222252f146108925780636542d8ce1461099a578063689828a3146109f0576101f5565b806327e235e31461050b57806338a9e0bc146105775780633f4ba83a146105a25780634d69a8a1146105b9576101f5565b8063150b7a02116101d3578063150b7a02146103135780631513a0431461047757806319627609146104bc5780631cc6ffa0146104f4576101f5565b806304c075691461024657806312065fe01461029c578063149be19f146102ce575b6040517f08c379a00000000000000000000000000000000000000000000000000000000081526004018080602001828103825260248152602001806198136024913960400191505060405180910390fd5b34801561025257600080fd5b5061027f6004803603602081101561026957600080fd5b810190808035906020019092919050505061187c565b604051808381526020018281526020019250505060405180910390f35b3480156102a857600080fd5b506102b16118b6565b604051808381526020018281526020019250505060405180910390f35b3480156102da57600080fd5b50610311600480360360408110156102f157600080fd5b810190808035906020019092919080359060200190929190505050611947565b005b34801561031f57600080fd5b506104236004803603608081101561033657600080fd5b81019080803573ffffffffffffffffffffffffffffffffffffffff169060200190929190803573ffffffffffffffffffffffffffffffffffffffff169060200190929190803590602001909291908035906020019064010000000081111561039d57600080fd5b8201836020820111156103af57600080fd5b803590602001918460018302840111640100000000831117156103d157600080fd5b91908080601f016020809104026020016040519081016040528093929190818152602001838380828437600081840152601f19601f820116905080830192505050505050509192919290505050611c0b565b60405180827bffffffffffffffffffffffffffffffffffffffffffffffffffffffff19167bffffffffffffffffffffffffffffffffffffffffffffffffffffffff1916815260200191505060405180910390f35b34801561048357600080fd5b506104ba6004803603604081101561049a57600080fd5b810190808035906020019092919080359060200190929190505050611ec2565b005b6104f2600480360360208110156104d257600080fd5b81019080803567ffffffffffffffff1690602001909291905050506121b9565b005b34801561050057600080fd5b50610509612659565b005b34801561051757600080fd5b5061055a6004803603602081101561052e57600080fd5b81019080803573ffffffffffffffffffffffffffffffffffffffff169060200190929190505050612780565b604051808381526020018281526020019250505060405180910390f35b34801561058357600080fd5b5061058c6127a4565b6040518082815260200191505060405180910390f35b3480156105ae57600080fd5b506105b76127aa565b005b3480156105c557600080fd5b5061070f600480360360c08110156105dc57600080fd5b81019080803567ffffffffffffffff16906020019092919080359060200190929190803590602001909291908035906020019064010000000081111561062157600080fd5b82018360208201111561063357600080fd5b8035906020019184600183028401116401000000008311171561065557600080fd5b90919293919293908035906020019064010000000081111561067657600080fd5b82018360208201111561068857600080fd5b803590602001918460018302840111640100000000831117156106aa57600080fd5b9091929391929390803590602001906401000000008111156106cb57600080fd5b8201836020820111156106dd57600080fd5b803590602001918460018302840111640100000000831117156106ff57600080fd5b909192939192939050505061296c565b005b34801561071d57600080fd5b506108786004803603606081101561073457600080fd5b810190808035906020019064010000000081111561075157600080fd5b82018360208201111561076357600080fd5b8035906020019184600183028401116401000000008311171561078557600080fd5b91908080601f016020809104026020016040519081016040528093929190818152602001838380828437600081840152601f19601f820116905080830192505050505050509192919290803590602001906401000000008111156107e857600080fd5b8201836020820111156107fa57600080fd5b8035906020019184600183028401116401000000008311171561081c57600080fd5b91908080601f016020809104026020016040519081016040528093929190818152602001838380828437600081840152601f19601f82011690508083019250505050505050919291929080359060200190929190505050612ceb565b604051808215151515815260200191505060405180910390f35b34801561089e57600080fd5b50610980600480360360808110156108b557600080fd5b810190808035906020019092919080359060200190929190803567ffffffffffffffff169060200190929190803590602001906401000000008111156108fa57600080fd5b82018360208201111561090c57600080fd5b8035906020019184600183028401116401000000008311171561092e57600080fd5b91908080601f016020809104026020016040519081016040528093929190818152602001838380828437600081840152601f19601f820116905080830192505050505050509192919290505050612d04565b604051808215151515815260200191505060405180910390f35b3480156109a657600080fd5b506109d3600480360360208110156109bd57600080fd5b8101908080359060200190929190505050612de8565b604051808381526020018281526020019250505060405180910390f35b3480156109fc57600080fd5b50610b3c600480360360a0811015610a1357600080fd5b81019080803567ffffffffffffffff16906020019092919080359060200190640100000000811115610a4457600080fd5b820183602082011115610a5657600080fd5b80359060200191846001830284011164010000000083111715610a7857600080fd5b909192939192939080359060200190640100000000811115610a9957600080fd5b820183602082011115610aab57600080fd5b80359060200191846001830284011164010000000083111715610acd57600080fd5b909192939192939080359060200190640100000000811115610aee57600080fd5b820183602082011115610b0057600080fd5b80359060200191846001830284011164010000000083111715610b2257600080fd5b909192939192939080359060200190929190505050612e22565b005b348015610b4a57600080fd5b50610b8160048036036020811015610b6157600080fd5b81019080803567ffffffffffffffff169060200190929190505050612fd7565b6040518080602001828103825283818151815260200191508051906020019060200280838360005b83811015610bc4578082015181840152602081019050610ba9565b505050509050019250505060405180910390f35b348015610be457600080fd5b50610c1b60048036036020811015610bfb57600080fd5b81019080803567ffffffffffffffff1690602001909291905050506130c4565b005b348015610c2957600080fd5b50610c5660048036036020811015610c4057600080fd5b81019080803590602001909291905050506134bb565b604051808381526020018281526020019250505060405180910390f35b348015610c7f57600080fd5b50610cc060048036036040811015610c9657600080fd5b81019080803567ffffffffffffffff169060200190929190803590602001909291905050506134df565b604051808573ffffffffffffffffffffffffffffffffffffffff1673ffffffffffffffffffffffffffffffffffffffff1681526020018473ffffffffffffffffffffffffffffffffffffffff1673ffffffffffffffffffffffffffffffffffffffff16815260200183815260200182815260200194505050505060405180910390f35b348015610d4f57600080fd5b50610d586136b7565b005b348015610d6657600080fd5b50610d6f613879565b604051808267ffffffffffffffff1667ffffffffffffffff16815260200191505060405180910390f35b348015610da557600080fd5b506110fc600480360360e0811015610dbc57600080fd5b8101908080359060200190640100000000811115610dd957600080fd5b820183602082011115610deb57600080fd5b80359060200191846001830284011164010000000083111715610e0d57600080fd5b91908080601f016020809104026020016040519081016040528093929190818152602001838380828437600081840152601f19601f82011690508083019250505050505050919291929080359060200190640100000000811115610e7057600080fd5b820183602082011115610e8257600080fd5b80359060200191846001830284011164010000000083111715610ea457600080fd5b91908080601f016020809104026020016040519081016040528093929190818152602001838380828437600081840152601f19601f82011690508083019250505050505050919291929080359060200190640100000000811115610f0757600080fd5b820183602082011115610f1957600080fd5b80359060200191846001830284011164010000000083111715610f3b57600080fd5b91908080601f016020809104026020016040519081016040528093929190818152602001838380828437600081840152601f19601f82011690508083019250505050505050919291929080359060200190640100000000811115610f9e57600080fd5b820183602082011115610fb057600080fd5b80359060200191846001830284011164010000000083111715610fd257600080fd5b91908080601f016020809104026020016040519081016040528093929190818152602001838380828437600081840152601f19601f8201169050808301925050505050505091929192908035906020019064010000000081111561103557600080fd5b82018360208201111561104757600080fd5b8035906020019184600183028401116401000000008311171561106957600080fd5b91908080601f016020809104026020016040519081016040528093929190818152602001838380828437600081840152601f19601f82011690508083019250505050505050919291929080604001906002806020026040519081016040528092919082600260200280828437600081840152601f19601f8201169050808301925050505050509192919290505050613893565b005b6111e86004803603608081101561111457600080fd5b81019080803567ffffffffffffffff1690602001909291908035906020019064010000000081111561114557600080fd5b82018360208201111561115757600080fd5b8035906020019184600183028401116401000000008311171561117957600080fd5b90919293919293908035906020019064010000000081111561119a57600080fd5b8201836020820111156111ac57600080fd5b803590602001918460018302840111640100000000831117156111ce57600080fd5b909192939192939080359060200190929190505050613a74565b005b3480156111f657600080fd5b5061122d6004803603602081101561120d57600080fd5b81019080803567ffffffffffffffff169060200190929190505050613d7a565b005b34801561123b57600080fd5b506112726004803603602081101561125257600080fd5b81019080803567ffffffffffffffff169060200190929190505050614090565b604051808673ffffffffffffffffffffffffffffffffffffffff1673ffffffffffffffffffffffffffffffffffffffff1681526020018581526020018481526020018360028111156112c057fe5b60ff1681526020018281526020019550505050505060405180910390f35b3480156112ea57600080fd5b506112f3614234565b6040518082815260200191505060405180910390f35b6114f3600480360361010081101561132057600080fd5b81019080803567ffffffffffffffff1690602001909291908035906020019064010000000081111561135157600080fd5b82018360208201111561136357600080fd5b8035906020019184600183028401116401000000008311171561138557600080fd5b9091929391929390803590602001906401000000008111156113a657600080fd5b8201836020820111156113b857600080fd5b803590602001918460018302840111640100000000831117156113da57600080fd5b9091929391929390803590602001906401000000008111156113fb57600080fd5b82018360208201111561140d57600080fd5b8035906020019184600183028401116401000000008311171561142f57600080fd5b90919293919293908035906020019064010000000081111561145057600080fd5b82018360208201111561146257600080fd5b8035906020019184600183028401116401000000008311171561148457600080fd5b9091929391929390803590602001906401000000008111156114a557600080fd5b8201836020820111156114b757600080fd5b803590602001918460018302840111640100000000831117156114d957600080fd5b90919293919293908060400190919291929050505061423a565b005b34801561150157600080fd5b506115e36004803603608081101561151857600080fd5b810190808035906020019092919080359060200190929190803567ffffffffffffffff1690602001909291908035906020019064010000000081111561155d57600080fd5b82018360208201111561156f57600080fd5b8035906020019184600183028401116401000000008311171561159157600080fd5b91908080601f016020809104026020016040519081016040528093929190818152602001838380828437600081840152601f19601f820116905080830192505050505050509192919290505050614772565b604051808215151515815260200191505060405180910390f35b34801561160957600080fd5b506116406004803603602081101561162057600080fd5b81019080803567ffffffffffffffff1690602001909291905050506148d9565b604051808681526020018581526020018473ffffffffffffffffffffffffffffffffffffffff1673ffffffffffffffffffffffffffffffffffffffff16815260200183600281111561168e57fe5b60ff1681526020018273ffffffffffffffffffffffffffffffffffffffff1673ffffffffffffffffffffffffffffffffffffffff1681526020019550505050505060405180910390f35b3480156116e457600080fd5b50611711600480360360208110156116fb57600080fd5b8101908080359060200190929190505050614b49565b604051808381526020018281526020019250505060405180910390f35b34801561173a57600080fd5b5061187a600480360360a081101561175157600080fd5b81019080803567ffffffffffffffff1690602001909291908035906020019064010000000081111561178257600080fd5b82018360208201111561179457600080fd5b803590602001918460018302840111640100000000831117156117b657600080fd5b9091929391929390803590602001906401000000008111156117d757600080fd5b8201836020820111156117e957600080fd5b8035906020019184600183028401116401000000008311171561180b57600080fd5b90919293919293908035906020019064010000000081111561182c57600080fd5b82018360208201111561183e57600080fd5b8035906020019184600183028401116401000000008311171561186057600080fd5b909192939192939080359060200190929190505050614b6d565b005b6000806006600084815260200190815260200160002060000154600660008581526020019081526020016000206001015491509150915091565b600080600260003373ffffffffffffffffffffffffffffffffffffffff1673ffffffffffffffffffffffffffffffffffffffff16815260200190815260200160002060000154600260003373ffffffffffffffffffffffffffffffffffffffff1673ffffffffffffffffffffffffffffffffffffffff16815260200190815260200160002060010154915091509091565b600860009054906101000a900473ffffffffffffffffffffffffffffffffffffffff1673ffffffffffffffffffffffffffffffffffffffff1663797327ae336040518263ffffffff167c0100000000000000000000000000000000000000000000000000000000028152600401808273ffffffffffffffffffffffffffffffffffffffff1673ffffffffffffffffffffffffffffffffffffffff16815260200191505060206040518083038186803b158015611a0257600080fd5b505afa158015611a16573d6000803e3d6000fd5b505050506040513d6020811015611a2c57600080fd5b81019080805190602001909291905050501515611ab1576040517f08c379a00000000000000000000000000000000000000000000000000000000081526004018080602001828103825260198152602001807f53656e646572206973206e6f7420612056616c696461746f720000000000000081525060200191505060405180910390fd5b6005548210151515611b0e576040517f08c379a00000000000000000000000000000000000000000000000000000000081526004018080602001828103825260328152602001806197e16032913960400191505060405180910390fd5b600060045483811515611b1d57fe5b06141515611b76576040517f08c379a00000000000000000000000000000000000000000000000000000000081526004018080602001828103825260358152602001806197096035913960400191505060405180910390fd5b8160058190555060408051908101604052808281526020014281525060066000600554815260200190815260200160002060008201518160000155602082015181600101559050507f6d91cd6ccac8368394df514e6aee19a55264f5ab49a891af91ca86da27bedd4f600554824260405180848152602001838152602001828152602001935050505060405180910390a15050565b600033600860009054906101000a900473ffffffffffffffffffffffffffffffffffffffff1673ffffffffffffffffffffffffffffffffffffffff1663e744092e826040518263ffffffff167c0100000000000000000000000000000000000000000000000000000000028152600401808273ffffffffffffffffffffffffffffffffffffffff1673ffffffffffffffffffffffffffffffffffffffff16815260200191505060206040518083038186803b158015611cc957600080fd5b505afa158015611cdd573d6000803e3d6000fd5b505050506040513d6020811015611cf357600080fd5b81019080805190602001909291905050501515611d5b576040517f08c379a000000000000000000000000000000000000000000000000000000000815260040180806020018281038252602d815260200180619475602d913960400191505060405180910390fd5b3073ffffffffffffffffffffffffffffffffffffffff163373ffffffffffffffffffffffffffffffffffffffff16636352211e866040518263ffffffff167c01000000000000000000000000000000000000000000000000000000000281526004018082815260200191505060206040518083038186803b158015611ddf57600080fd5b505afa158015611df3573d6000803e3d6000fd5b505050506040513d6020811015611e0957600080fd5b810190808051906020019092919050505073ffffffffffffffffffffffffffffffffffffffff16141515611e88576040517f08c379a00000000000000000000000000000000000000000000000000000000081526004018080602001828103825260228152602001806192d36022913960400191505060405180910390fd5b611e93853386614d22565b63150b7a027c010000000000000000000000000000000000000000000000000000000002915050949350505050565b600860009054906101000a900473ffffffffffffffffffffffffffffffffffffffff1673ffffffffffffffffffffffffffffffffffffffff1663797327ae336040518263ffffffff167c0100000000000000000000000000000000000000000000000000000000028152600401808273ffffffffffffffffffffffffffffffffffffffff1673ffffffffffffffffffffffffffffffffffffffff16815260200191505060206040518083038186803b158015611f7d57600080fd5b505afa158015611f91573d6000803e3d6000fd5b505050506040513d6020811015611fa757600080fd5b8101908080519060200190929190505050151561202c576040517f08c379a00000000000000000000000000000000000000000000000000000000081526004018080602001828103825260198152602001807f53656e646572206973206e6f7420612056616c696461746f720000000000000081525060200191505060405180910390fd5b612034618e62565b6006600084815260200190815260200160002060408051908101604052908160008201548152602001600182015481525050905060006001028160000151141515156120cb576040517f08c379a00000000000000000000000000000000000000000000000000000000081526004018080602001828103825260438152602001806194ca6043913960600191505060405180910390fd5b620151808160200151420310151561212e576040517f08c379a00000000000000000000000000000000000000000000000000000000081526004018080602001828103825260268152602001806192f56026913960400191505060405180910390fd5b6040805190810160405280838152602001428152506007600085815260200190815260200160002060008201518160000155602082015181600101559050507ff2899e36485db2b5838848eae26a10a1a468cca7ed04ad75170322b00f7d134983834260405180848152602001838152602001828152602001935050505060405180910390a1505050565b67016345785d8a00003414151561221b576040517f08c379a000000000000000000000000000000000000000000000000000000000815260040180806020018281038252603281526020018061931b6032913960400191505060405180910390fd5b61227034600260003373ffffffffffffffffffffffffffffffffffffffff1673ffffffffffffffffffffffffffffffffffffffff168152602001908152602001600020600001546150f390919063ffffffff16565b600260003373ffffffffffffffffffffffffffffffffffffffff1673ffffffffffffffffffffffffffffffffffffffff168152602001908152602001600020600001819055508060008060028111156122c557fe5b600160008467ffffffffffffffff1667ffffffffffffffff16815260200190815260200160002060000160009054906101000a900460ff16600281111561230857fe5b14151561237d576040517f08c379a00000000000000000000000000000000000000000000000000000000081526004018080602001828103825260108152602001807f57726f6e6720636f696e2073746174650000000000000000000000000000000081525060200191505060405180910390fd5b612385618e7f565b600160008567ffffffffffffffff1667ffffffffffffffff16815260200190815260200160002060c060405190810160405290816000820160009054906101000a900460ff1660028111156123d657fe5b60028111156123e157fe5b81526020016000820160019054906101000a900473ffffffffffffffffffffffffffffffffffffffff1673ffffffffffffffffffffffffffffffffffffffff1673ffffffffffffffffffffffffffffffffffffffff1681526020016001820160009054906101000a900473ffffffffffffffffffffffffffffffffffffffff1673ffffffffffffffffffffffffffffffffffffffff1673ffffffffffffffffffffffffffffffffffffffff1681526020016002820160c060405190810160405290816000820160009054906101000a900467ffffffffffffffff1667ffffffffffffffff1667ffffffffffffffff1681526020016000820160089054906101000a900473ffffffffffffffffffffffffffffffffffffffff1673ffffffffffffffffffffffffffffffffffffffff1673ffffffffffffffffffffffffffffffffffffffff1681526020016001820160009054906101000a900473ffffffffffffffffffffffffffffffffffffffff1673ffffffffffffffffffffffffffffffffffffffff1673ffffffffffffffffffffffffffffffffffffffff168152602001600282015481526020016003820154815260200160048201548152505081526020016007820154815260200160088201548152505090503373ffffffffffffffffffffffffffffffffffffffff16816020015173ffffffffffffffffffffffffffffffffffffffff16141515612642576040517f08c379a00000000000000000000000000000000000000000000000000000000081526004018080602001828103825260238152602001806198956023913960400191505060405180910390fd5b612653846000808460a00151615114565b50505050565b6000600260003373ffffffffffffffffffffffffffffffffffffffff1673ffffffffffffffffffffffffffffffffffffffff1681526020019081526020016000206001015490506000600260003373ffffffffffffffffffffffffffffffffffffffff1673ffffffffffffffffffffffffffffffffffffffff168152602001908152602001600020600101819055503373ffffffffffffffffffffffffffffffffffffffff166108fc829081150290604051600060405180830381858888f1935050505015801561272e573d6000803e3d6000fd5b503373ffffffffffffffffffffffffffffffffffffffff167fba49a755e2e4831fb6ef34b384178b03af45679532c9ac5a2199b27b4dddea8d826040518082815260200191505060405180910390a250565b60026020528060005260406000206000915090508060000154908060010154905082565b60045481565b600860009054906101000a900473ffffffffffffffffffffffffffffffffffffffff1673ffffffffffffffffffffffffffffffffffffffff1663797327ae336040518263ffffffff167c0100000000000000000000000000000000000000000000000000000000028152600401808273ffffffffffffffffffffffffffffffffffffffff1673ffffffffffffffffffffffffffffffffffffffff16815260200191505060206040518083038186803b15801561286557600080fd5b505afa158015612879573d6000803e3d6000fd5b505050506040513d602081101561288f57600080fd5b81019080805190602001909291905050501515612914576040517f08c379a00000000000000000000000000000000000000000000000000000000081526004018080602001828103825260198152602001807f53656e646572206973206e6f7420612056616c696461746f720000000000000081525060200191505060405180910390fd5b60008060006101000a81548160ff0219169083151502179055507f0e2fb031ee032dc02d8011dc50b816eb450cf856abd8261680dac74f72165bd26000604051808215151515815260200191505060405180910390a1565b6129a588600360008c67ffffffffffffffff1667ffffffffffffffff16815260200190815260200160002061530090919063ffffffff16565b15156129fc576040517f08c379a00000000000000000000000000000000000000000000000000000000081526004018080602001828103825260248152602001806192846024913960400191505060405180910390fd5b6000612a3789600360008d67ffffffffffffffff1667ffffffffffffffff16815260200190815260200160002061533c90919063ffffffff16565b9050612b138a828a8a8a8080601f016020809104026020016040519081016040528093929190818152602001838380828437600081840152601f19601f8201169050808301925050505050505087878080601f016020809104026020016040519081016040528093929190818152602001838380828437600081840152601f19601f820116905080830192505050505050508a8a8080601f016020809104026020016040519081016040528093929190818152602001838380828437600081840152601f19601f820116905080830192505050505050506153b8565b612b82600360008c67ffffffffffffffff1667ffffffffffffffff16815260200190815260200160002082815481101515612b4a57fe5b906000526020600020906005020160020160009054906101000a900473ffffffffffffffffffffffffffffffffffffffff163361567e565b6000600360008c67ffffffffffffffff1667ffffffffffffffff16815260200190815260200160002082815481101515612bb857fe5b906000526020600020906005020160020160009054906101000a900473ffffffffffffffffffffffffffffffffffffffff169050612c258a600360008e67ffffffffffffffff1667ffffffffffffffff16815260200190815260200160002061583590919063ffffffff16565b506000600160008d67ffffffffffffffff1667ffffffffffffffff16815260200190815260200160002090508173ffffffffffffffffffffffffffffffffffffffff168160020160010160009054906101000a900473ffffffffffffffffffffffffffffffffffffffff1673ffffffffffffffffffffffffffffffffffffffff168d67ffffffffffffffff167f6ffb97e6c5622c8a12bac3ddee93e5b440eb4a8f47d4879e5bd62ccac39dc1a260405160405180910390a4505050505050505050505050565b6000612cf884848461588a565b50600190509392505050565b6000612d0e618e62565b60066000868152602001908152602001600020604080519081016040529081600082015481526020016001820154815250509050600060045486811515612d5157fe5b06141515612dcc57806000015186148015612dc45750806000015184604051602001808267ffffffffffffffff1667ffffffffffffffff16780100000000000000000000000000000000000000000000000002815260080191505060405160208183030381529060405280519060200120145b915050612de0565b612ddc8682600001518686614772565b9150505b949350505050565b6000806007600084815260200190815260200160002060000154600760008581526020019081526020016000206001015491509150915091565b876001806002811115612e3157fe5b600160008467ffffffffffffffff1667ffffffffffffffff16815260200190815260200160002060000160009054906101000a900460ff166002811115612e7457fe5b141515612ee9576040517f08c379a00000000000000000000000000000000000000000000000000000000081526004018080602001828103825260108152602001807f57726f6e6720636f696e2073746174650000000000000000000000000000000081525060200191505060405180910390fd5b612fc28a8a8a8080601f016020809104026020016040519081016040528093929190818152602001838380828437600081840152601f19601f8201169050808301925050505050505089898080601f016020809104026020016040519081016040528093929190818152602001838380828437600081840152601f19601f8201169050808301925050505050505088888080601f016020809104026020016040519081016040528093929190818152602001838380828437600081840152601f19601f8201169050808301925050505050505087615d7c565b612fcb8a61604e565b50505050505050505050565b60606000600360008467ffffffffffffffff1667ffffffffffffffff1681526020019081526020016000208054905090506060816040519080825280602002602001820160405280156130395781602001602082028038833980820191505090505b50905060008090505b828110156130b957600360008667ffffffffffffffff1667ffffffffffffffff1681526020019081526020016000208181548110151561307e57fe5b906000526020600020906005020160030154828281518110151561309e57fe5b90602001906020020181815250508080600101915050613042565b508092505050919050565b8060018060028111156130d357fe5b600160008467ffffffffffffffff1667ffffffffffffffff16815260200190815260200160002060000160009054906101000a900460ff16600281111561311657fe5b14151561318b576040517f08c379a00000000000000000000000000000000000000000000000000000000081526004018080602001828103825260108152602001807f57726f6e6720636f696e2073746174650000000000000000000000000000000081525060200191505060405180910390fd5b6000600160008567ffffffffffffffff1667ffffffffffffffff168152602001908152602001600020905062093a808160020160020154420311151561321c576040517f08c379a000000000000000000000000000000000000000000000000000000000815260040180806020018281038252603c815260200180619765603c913960400191505060405180910390fd5b60006132278561623a565b905080151561336d578160020160010160009054906101000a900473ffffffffffffffffffffffffffffffffffffffff168260000160016101000a81548173ffffffffffffffffffffffffffffffffffffffff021916908373ffffffffffffffffffffffffffffffffffffffff16021790555060028260000160006101000a81548160ff021916908360028111156132bb57fe5b02179055506132ed8260000160019054906101000a900473ffffffffffffffffffffffffffffffffffffffff166164e9565b8160000160019054906101000a900473ffffffffffffffffffffffffffffffffffffffff1673ffffffffffffffffffffffffffffffffffffffff168567ffffffffffffffff167f432647a5fb9bdea356d78f8e3d83b6ddc2e78b4e4a702ac7eb968f7fe03d9dda60405160405180910390a361336885616688565b613406565b60008260000160006101000a81548160ff0219169083600281111561338e57fe5b02179055508160000160019054906101000a900473ffffffffffffffffffffffffffffffffffffffff1673ffffffffffffffffffffffffffffffffffffffff168567ffffffffffffffff167f35cc9c4d0d9a2ce748d131382582af17dbf1f0d72167ea7906ea3f18597b31a460405160405180910390a35b600160008667ffffffffffffffff1667ffffffffffffffff168152602001908152602001600020600201600080820160006101000a81549067ffffffffffffffff02191690556000820160086101000a81549073ffffffffffffffffffffffffffffffffffffffff02191690556001820160006101000a81549073ffffffffffffffffffffffffffffffffffffffff021916905560028201600090556003820160009055600482016000905550505050505050565b60076020528060005260406000206000915090508060000154908060010154905082565b600080600080600061352086600360008a67ffffffffffffffff1667ffffffffffffffff16815260200190815260200160002061533c90919063ffffffff16565b905061352a618ef4565b600360008967ffffffffffffffff1667ffffffffffffffff1681526020019081526020016000208281548110151561355e57fe5b906000526020600020906005020160a060405190810160405290816000820160009054906101000a900473ffffffffffffffffffffffffffffffffffffffff1673ffffffffffffffffffffffffffffffffffffffff1673ffffffffffffffffffffffffffffffffffffffff1681526020016001820160009054906101000a900473ffffffffffffffffffffffffffffffffffffffff1673ffffffffffffffffffffffffffffffffffffffff1673ffffffffffffffffffffffffffffffffffffffff1681526020016002820160009054906101000a900473ffffffffffffffffffffffffffffffffffffffff1673ffffffffffffffffffffffffffffffffffffffff1673ffffffffffffffffffffffffffffffffffffffff16815260200160038201548152602001600482015481525050905080602001518160400151826060015183608001519550955095509550505092959194509250565b600860009054906101000a900473ffffffffffffffffffffffffffffffffffffffff1673ffffffffffffffffffffffffffffffffffffffff1663797327ae336040518263ffffffff167c0100000000000000000000000000000000000000000000000000000000028152600401808273ffffffffffffffffffffffffffffffffffffffff1673ffffffffffffffffffffffffffffffffffffffff16815260200191505060206040518083038186803b15801561377257600080fd5b505afa158015613786573d6000803e3d6000fd5b505050506040513d602081101561379c57600080fd5b81019080805190602001909291905050501515613821576040517f08c379a00000000000000000000000000000000000000000000000000000000081526004018080602001828103825260198152602001807f53656e646572206973206e6f7420612056616c696461746f720000000000000081525060200191505060405180910390fd5b60016000806101000a81548160ff0219169083151502179055507f0e2fb031ee032dc02d8011dc50b816eb450cf856abd8261680dac74f72165bd26001604051808215151515815260200191505060405180910390a1565b600060019054906101000a900467ffffffffffffffff1681565b8060016002811015156138a257fe5b60200201518160006002811015156138b657fe5b6020020151101515613913576040517f08c379a000000000000000000000000000000000000000000000000000000000815260040180806020018281038252603c815260200180619404603c913960400191505060405180910390fd5b61391b618f69565b613939878684600060028110151561392f57fe5b602002015161588a565b9050613943618f69565b613961878685600160028110151561395757fe5b602002015161588a565b9050816000015167ffffffffffffffff16816000015167ffffffffffffffff161415156139d9576040517f08c379a00000000000000000000000000000000000000000000000000000000081526004018080602001828103825260378152602001806193ab6037913960400191505060405180910390fd5b6139f68483602001518360400151616d559092919063ffffffff16565b1515613a6a576040517f08c379a00000000000000000000000000000000000000000000000000000000081526004018080602001828103825260118152602001807f496e76616c6964207369676e617475726500000000000000000000000000000081525060200191505060405180910390fd5b5050505050505050565b67016345785d8a000034141515613ad6576040517f08c379a000000000000000000000000000000000000000000000000000000000815260040180806020018281038252603281526020018061931b6032913960400191505060405180910390fd5b613b2b34600260003373ffffffffffffffffffffffffffffffffffffffff1673ffffffffffffffffffffffffffffffffffffffff168152602001908152602001600020600001546150f390919063ffffffff16565b600260003373ffffffffffffffffffffffffffffffffffffffff1673ffffffffffffffffffffffffffffffffffffffff16815260200190815260200160002060000181905550856001806002811115613b8057fe5b600160008467ffffffffffffffff1667ffffffffffffffff16815260200190815260200160002060000160009054906101000a900460ff166002811115613bc357fe5b141515613c38576040517f08c379a00000000000000000000000000000000000000000000000000000000081526004018080602001828103825260108152602001807f57726f6e6720636f696e2073746174650000000000000000000000000000000081525060200191505060405180910390fd5b613ccc8888888080601f016020809104026020016040519081016040528093929190818152602001838380828437600081840152601f19601f8201169050808301925050505050505087878080601f016020809104026020016040519081016040528093929190818152602001838380828437600081840152601f19601f8201169050808301925050505050505086616d98565b613d7088613d1d89898080601f016020809104026020016040519081016040528093929190818152602001838380828437600081840152601f19601f82011690508083019250505050505050616ecb565b85613d6b8b8b8080601f016020809104026020016040519081016040528093929190818152602001838380828437600081840152601f19601f82011690508083019250505050505050616fa6565b617080565b5050505050505050565b3373ffffffffffffffffffffffffffffffffffffffff16600160008367ffffffffffffffff1667ffffffffffffffff16815260200190815260200160002060020160010160009054906101000a900473ffffffffffffffffffffffffffffffffffffffff1673ffffffffffffffffffffffffffffffffffffffff16141515613e4d576040517f08c379a000000000000000000000000000000000000000000000000000000000815260040180806020018281038252602f81526020018061960e602f913960400191505060405180910390fd5b6000600102600360008367ffffffffffffffff1667ffffffffffffffff1681526020019081526020016000206000815481101515613e8757fe5b90600052602060002090600502016003015414151515613ef2576040517f08c379a000000000000000000000000000000000000000000000000000000000815260040180806020018281038252602d81526020018061968c602d913960400191505060405180910390fd5b600160008267ffffffffffffffff1667ffffffffffffffff168152602001908152602001600020600201600080820160006101000a81549067ffffffffffffffff02191690556000820160086101000a81549073ffffffffffffffffffffffffffffffffffffffff02191690556001820160006101000a81549073ffffffffffffffffffffffffffffffffffffffff021916905560028201600090556003820160009055600482016000905550506000600160008367ffffffffffffffff1667ffffffffffffffff16815260200190815260200160002060000160006101000a81548160ff02191690836002811115613fe757fe5b0217905550613ff5336164e9565b600160008267ffffffffffffffff1667ffffffffffffffff16815260200190815260200160002060000160019054906101000a900473ffffffffffffffffffffffffffffffffffffffff1673ffffffffffffffffffffffffffffffffffffffff168167ffffffffffffffff167f35cc9c4d0d9a2ce748d131382582af17dbf1f0d72167ea7906ea3f18597b31a460405160405180910390a350565b60008060008060006140a0618fb5565b600160008867ffffffffffffffff1667ffffffffffffffff16815260200190815260200160002060020160c060405190810160405290816000820160009054906101000a900467ffffffffffffffff1667ffffffffffffffff1667ffffffffffffffff1681526020016000820160089054906101000a900473ffffffffffffffffffffffffffffffffffffffff1673ffffffffffffffffffffffffffffffffffffffff1673ffffffffffffffffffffffffffffffffffffffff1681526020016001820160009054906101000a900473ffffffffffffffffffffffffffffffffffffffff1673ffffffffffffffffffffffffffffffffffffffff1673ffffffffffffffffffffffffffffffffffffffff16815260200160028201548152602001600382015481526020016004820154815250509050806040015181608001518260a00151600160008b67ffffffffffffffff1667ffffffffffffffff16815260200190815260200160002060000160009054906101000a900460ff168460600151955095509550955095505091939590929450565b60055481565b67016345785d8a00003414151561429c576040517f08c379a000000000000000000000000000000000000000000000000000000000815260040180806020018281038252603281526020018061931b6032913960400191505060405180910390fd5b6142f134600260003373ffffffffffffffffffffffffffffffffffffffff1673ffffffffffffffffffffffffffffffffffffffff168152602001908152602001600020600001546150f390919063ffffffff16565b600260003373ffffffffffffffffffffffffffffffffffffffff1673ffffffffffffffffffffffffffffffffffffffff168152602001908152602001600020600001819055508b600080600281111561434657fe5b600160008467ffffffffffffffff1667ffffffffffffffff16815260200190815260200160002060000160009054906101000a900460ff16600281111561438957fe5b1415156143fe576040517f08c379a00000000000000000000000000000000000000000000000000000000081526004018080602001828103825260108152602001807f57726f6e6720636f696e2073746174650000000000000000000000000000000081525060200191505060405180910390fd5b61444b8b8b8080601f016020809104026020016040519081016040528093929190818152602001838380828437600081840152601f19601f82011690508083019250505050505050616ecb565b73ffffffffffffffffffffffffffffffffffffffff163373ffffffffffffffffffffffffffffffffffffffff161415156144d0576040517f08c379a000000000000000000000000000000000000000000000000000000000815260040180806020018281038252602a8152602001806196b9602a913960400191505060405180910390fd5b60006004548460016002811015156144e457fe5b60200201358115156144f257fe5b0614151561454b576040517f08c379a000000000000000000000000000000000000000000000000000000000815260040180806020018281038252603781526020018061934d6037913960400191505060405180910390fd5b6146e48d8d8080601f016020809104026020016040519081016040528093929190818152602001838380828437600081840152601f19601f820116905080830192505050505050508c8c8080601f016020809104026020016040519081016040528093929190818152602001838380828437600081840152601f19601f820116905080830192505050505050508b8b8080601f016020809104026020016040519081016040528093929190818152602001838380828437600081840152601f19601f820116905080830192505050505050508a8a8080601f016020809104026020016040519081016040528093929190818152602001838380828437600081840152601f19601f8201169050808301925050505050505089898080601f016020809104026020016040519081016040528093929190818152602001838380828437600081840152601f19601f82011690508083019250505050505050886002806020026040519081016040528092919082600260200280828437600081840152601f19601f820116905080830192505050505050613893565b6147628e6147358f8f8080601f016020809104026020016040519081016040528093929190818152602001838380828437600081840152601f19601f82011690508083019250505050505050616ecb565b85600060028110151561474457fe5b602002013586600160028110151561475857fe5b6020020135615114565b5050505050505050505050505050565b6000600960009054906101000a900473ffffffffffffffffffffffffffffffffffffffff1673ffffffffffffffffffffffffffffffffffffffff1663f586df65868686866040518563ffffffff167c0100000000000000000000000000000000000000000000000000000000028152600401808581526020018481526020018367ffffffffffffffff1667ffffffffffffffff16815260200180602001828103825283818151815260200191508051906020019080838360005b8381101561484757808201518184015260208101905061482c565b50505050905090810190601f1680156148745780820380516001836020036101000a031916815260200191505b509550505050505060206040518083038186803b15801561489457600080fd5b505afa1580156148a8573d6000803e3d6000fd5b505050506040513d60208110156148be57600080fd5b81019080805190602001909291905050509050949350505050565b60008060008060006148e9618e7f565b600160008867ffffffffffffffff1667ffffffffffffffff16815260200190815260200160002060c060405190810160405290816000820160009054906101000a900460ff16600281111561493a57fe5b600281111561494557fe5b81526020016000820160019054906101000a900473ffffffffffffffffffffffffffffffffffffffff1673ffffffffffffffffffffffffffffffffffffffff1673ffffffffffffffffffffffffffffffffffffffff1681526020016001820160009054906101000a900473ffffffffffffffffffffffffffffffffffffffff1673ffffffffffffffffffffffffffffffffffffffff1673ffffffffffffffffffffffffffffffffffffffff1681526020016002820160c060405190810160405290816000820160009054906101000a900467ffffffffffffffff1667ffffffffffffffff1667ffffffffffffffff1681526020016000820160089054906101000a900473ffffffffffffffffffffffffffffffffffffffff1673ffffffffffffffffffffffffffffffffffffffff1673ffffffffffffffffffffffffffffffffffffffff1681526020016001820160009054906101000a900473ffffffffffffffffffffffffffffffffffffffff1673ffffffffffffffffffffffffffffffffffffffff1673ffffffffffffffffffffffffffffffffffffffff1681526020016002820154815260200160038201548152602001600482015481525050815260200160078201548152602001600882015481525050905080608001518160a00151826020015183600001518460400151955095509550955095505091939590929450565b60066020528060005260406000206000915090508060000154908060010154905082565b876001806002811115614b7c57fe5b600160008467ffffffffffffffff1667ffffffffffffffff16815260200190815260200160002060000160009054906101000a900460ff166002811115614bbf57fe5b141515614c34576040517f08c379a00000000000000000000000000000000000000000000000000000000081526004018080602001828103825260108152602001807f57726f6e6720636f696e2073746174650000000000000000000000000000000081525060200191505060405180910390fd5b614d0d8a8a8a8080601f016020809104026020016040519081016040528093929190818152602001838380828437600081840152601f19601f8201169050808301925050505050505089898080601f016020809104026020016040519081016040528093929190818152602001838380828437600081840152601f19601f8201169050808301925050505050505088888080601f016020809104026020016040519081016040528093929190818152602001838380828437600081840152601f19601f8201169050808301925050505050505087617417565b614d168a61604e565b50505050505050505050565b6000809054906101000a900460ff16151515614d89576040517f08c379a000000000000000000000000000000000000000000000000000000000815260040180806020018281038252602881526020018061925c6028913960400191505060405180910390fd5b614d9f60016005546150f390919063ffffffff16565b60058190555060008060019054906101000a900467ffffffffffffffff163385604051602001808467ffffffffffffffff1667ffffffffffffffff1678010000000000000000000000000000000000000000000000000281526008018373ffffffffffffffffffffffffffffffffffffffff1673ffffffffffffffffffffffffffffffffffffffff166c010000000000000000000000000281526014018273ffffffffffffffffffffffffffffffffffffffff1673ffffffffffffffffffffffffffffffffffffffff166c010000000000000000000000000281526014019350505050604051602081830303815290604052805190602001207801000000000000000000000000000000000000000000000000900490506000600160008367ffffffffffffffff1667ffffffffffffffff1681526020019081526020016000209050828160070181905550838160010160006101000a81548173ffffffffffffffffffffffffffffffffffffffff021916908373ffffffffffffffffffffffffffffffffffffffff1602179055506005548160080181905550848160000160016101000a81548173ffffffffffffffffffffffffffffffffffffffff021916908373ffffffffffffffffffffffffffffffffffffffff16021790555060008160000160006101000a81548160ff02191690836002811115614f9c57fe5b0217905550604080519081016040528083604051602001808267ffffffffffffffff1667ffffffffffffffff1678010000000000000000000000000000000000000000000000000281526008019150506040516020818303038152906040528051906020012081526020014281525060066000600554815260200190815260200160002060008201518160000155602082015181600101559050506001600060018282829054906101000a900467ffffffffffffffff160192506101000a81548167ffffffffffffffff021916908367ffffffffffffffff1602179055508373ffffffffffffffffffffffffffffffffffffffff168573ffffffffffffffffffffffffffffffffffffffff168367ffffffffffffffff167f68d22e85b0df39249291acbe65dba95feb05284fca981b8faf168e50fce70af76005546040518082815260200191505060405180910390a45050505050565b600080828401905083811015151561510a57600080fd5b8091505092915050565b6000600160008667ffffffffffffffff1667ffffffffffffffff168152602001908152602001600020905060c0604051908101604052808667ffffffffffffffff1681526020018573ffffffffffffffffffffffffffffffffffffffff1681526020013373ffffffffffffffffffffffffffffffffffffffff168152602001428152602001848152602001838152508160020160008201518160000160006101000a81548167ffffffffffffffff021916908367ffffffffffffffff16021790555060208201518160000160086101000a81548173ffffffffffffffffffffffffffffffffffffffff021916908373ffffffffffffffffffffffffffffffffffffffff16021790555060408201518160010160006101000a81548173ffffffffffffffffffffffffffffffffffffffff021916908373ffffffffffffffffffffffffffffffffffffffff160217905550606082015181600201556080820151816003015560a0820151816004015590505060018160000160006101000a81548160ff021916908360028111156152a657fe5b02179055503373ffffffffffffffffffffffffffffffffffffffff168567ffffffffffffffff167fbaf912dedc1b0ee4647f945b0432e694bce1aa2c4e21052d977687641587495660405160405180910390a35050505050565b60008061530d848461533c565b90507fffffffffffffffffffffffffffffffffffffffffffffffffffffffffffffffff81141591505092915050565b600080600090505b838054905081101561538d5782848281548110151561535f57fe5b906000526020600020906005020160030154141561538057809150506153b2565b8080600101915050615344565b507fffffffffffffffffffffffffffffffffffffffffffffffffffffffffffffffff90505b92915050565b6153c0618f69565b6153cb84838761588a565b905061544b83600360008a67ffffffffffffffff1667ffffffffffffffff1681526020019081526020016000208881548110151561540557fe5b906000526020600020906005020160010160009054906101000a900473ffffffffffffffffffffffffffffffffffffffff168360400151616d559092919063ffffffff16565b15156154bf576040517f08c379a00000000000000000000000000000000000000000000000000000000081526004018080602001828103825260118152602001807f496e76616c6964207369676e617475726500000000000000000000000000000081525060200191505060405180910390fd5b8667ffffffffffffffff16816000015167ffffffffffffffff1614151561554e576040517f08c379a000000000000000000000000000000000000000000000000000000000815260040180806020018281038252601e8152602001807f5478206973207265666572656e63696e6720616e6f7468657220736c6f74000081525060200191505060405180910390fd5b600360008867ffffffffffffffff1667ffffffffffffffff1681526020019081526020016000208681548110151561558257fe5b906000526020600020906005020160040154851115156155ed576040517f08c379a00000000000000000000000000000000000000000000000000000000081526004018080602001828103825260268152602001806196e36026913960400191505060405180910390fd5b600160008867ffffffffffffffff1667ffffffffffffffff168152602001908152602001600020600201600401548511151515615675576040517f08c379a00000000000000000000000000000000000000000000000000000000081526004018080602001828103825260278152602001806193846027913960400191505060405180910390fd5b50505050505050565b6156db67016345785d8a0000600260008573ffffffffffffffffffffffffffffffffffffffff1673ffffffffffffffffffffffffffffffffffffffff1681526020019081526020016000206000015461765c90919063ffffffff16565b600260008473ffffffffffffffffffffffffffffffffffffffff1673ffffffffffffffffffffffffffffffffffffffff1681526020019081526020016000206000018190555061577e67016345785d8a0000600260008473ffffffffffffffffffffffffffffffffffffffff1673ffffffffffffffffffffffffffffffffffffffff168152602001908152602001600020600101546150f390919063ffffffff16565b600260008373ffffffffffffffffffffffffffffffffffffffff1673ffffffffffffffffffffffffffffffffffffffff168152602001908152602001600020600101819055508073ffffffffffffffffffffffffffffffffffffffff168273ffffffffffffffffffffffffffffffffffffffff167fbd6bf2f753dc1a7dee94a7abd7645adc6c228c2af17fd72d9104674cc5d2127367016345785d8a00006040518082815260200191505060405180910390a35050565b600080615842848461533c565b90507fffffffffffffffffffffffffffffffffffffffffffffffffffffffffffffffff811415615876576000915050615884565b615880848261767e565b9150505b92915050565b615892618f69565b606061589d856179a6565b90506158a8816179c0565b156158e8576158b5618f69565b6158c886836179ce90919063ffffffff16565b90506158de816000015182604001518688617b91565b8092505050615d75565b6158f181617caa565b15615d24576158fe618e62565b6007600085815260200190815260200160002060408051908101604052908160008201548152602001600182015481525050905060006001028160000151141515615c3557606061594e83617cb8565b90506159b981600181518110151561596257fe5b9060200190602002015160a0015182600181518110151561597f57fe5b906020019060200201516040015183600181518110151561599c57fe5b9060200190602002015160e00151616d559092919063ffffffff16565b1515615a10576040517f08c379a00000000000000000000000000000000000000000000000000000000081526004018080602001828103825260228152602001806193e26022913960400191505060405180910390fd5b6060615a1b876179a6565b905060048151141515615a79576040517f08c379a000000000000000000000000000000000000000000000000000000000815260040180806020018281038252602c815260200180619230602c913960400191505060405180910390fd5b615add826000815181101515615a8b57fe5b9060200190602002015160000151836000815181101515615aa857fe5b9060200190602002015160e0015188615ad8856000815181101515615ac957fe5b90602001906020020151618311565b617b91565b615b41826001815181101515615aef57fe5b9060200190602002015160000151836001815181101515615b0c57fe5b9060200190602002015160e0015188615b3c856001815181101515615b2d57fe5b90602001906020020151618311565b617b91565b615ba5826000815181101515615b5357fe5b9060200190602002015160000151836000815181101515615b7057fe5b906020019060200201516080015188615ba0856002815181101515615b9157fe5b90602001906020020151618311565b618408565b615c09826001815181101515615bb757fe5b9060200190602002015160000151836001815181101515615bd457fe5b906020019060200201516080015188615c04856003815181101515615bf557fe5b90602001906020020151618311565b618408565b615c2a826000815181101515615c1b57fe5b906020019060200201516184f5565b945050505050615d75565b615c3d618e62565b6006600086815260200190815260200160002060408051908101604052908160008201548152602001600182015481525050905062015180816020015142031115615cd3576040517f08c379a00000000000000000000000000000000000000000000000000000000081526004018080602001828103825260398152602001806195756039913960400191505060405180910390fd5b6040517f08c379a000000000000000000000000000000000000000000000000000000000815260040180806020018281038252604f81526020018061963d604f913960600191505060405180910390fd5b6040517f08c379a00000000000000000000000000000000000000000000000000000000081526004018080602001828103825260408152602001806197a16040913960400191505060405180910390fd5b9392505050565b80600160008767ffffffffffffffff1667ffffffffffffffff16815260200190815260200160002060020160040154101515615e20576040517f08c379a00000000000000000000000000000000000000000000000000000000081526004018080602001828103825260208152602001807f54782073686f756c64206265206166746572207468652065786974426c6f636b81525060200191505060405180910390fd5b615e28618f69565b615e3385858461588a565b9050615e9b83600160008967ffffffffffffffff1667ffffffffffffffff16815260200190815260200160002060020160010160009054906101000a900473ffffffffffffffffffffffffffffffffffffffff168360400151616d559092919063ffffffff16565b1515615f0f576040517f08c379a00000000000000000000000000000000000000000000000000000000081526004018080602001828103825260118152602001807f496e76616c6964207369676e617475726500000000000000000000000000000081525060200191505060405180910390fd5b8567ffffffffffffffff16816000015167ffffffffffffffff16141515615f9e576040517f08c379a000000000000000000000000000000000000000000000000000000000815260040180806020018281038252601e8152602001807f5478206973207265666572656e63696e6720616e6f7468657220736c6f74000081525060200191505060405180910390fd5b600160008767ffffffffffffffff1667ffffffffffffffff168152602001908152602001600020600201600401548160600151141515616046576040517f08c379a00000000000000000000000000000000000000000000000000000000081526004018080602001828103825260128152602001807f4e6f74206120646972656374207370656e64000000000000000000000000000081525060200191505060405180910390fd5b505050505050565b6160a5600160008367ffffffffffffffff1667ffffffffffffffff16815260200190815260200160002060020160010160009054906101000a900473ffffffffffffffffffffffffffffffffffffffff163361567e565b6000600160008367ffffffffffffffff1667ffffffffffffffff16815260200190815260200160002060000160006101000a81548160ff021916908360028111156160ec57fe5b0217905550600160008267ffffffffffffffff1667ffffffffffffffff168152602001908152602001600020600201600080820160006101000a81549067ffffffffffffffff02191690556000820160086101000a81549073ffffffffffffffffffffffffffffffffffffffff02191690556001820160006101000a81549073ffffffffffffffffffffffffffffffffffffffff02191690556002820160009055600382016000905560048201600090555050600160008267ffffffffffffffff1667ffffffffffffffff16815260200190815260200160002060000160019054906101000a900473ffffffffffffffffffffffffffffffffffffffff1673ffffffffffffffffffffffffffffffffffffffff168167ffffffffffffffff167f35cc9c4d0d9a2ce748d131382582af17dbf1f0d72167ea7906ea3f18597b31a460405160405180910390a350565b600080600360008467ffffffffffffffff1667ffffffffffffffff168152602001908152602001600020805490509050600080925060008090505b828110156164e1576000600102600360008767ffffffffffffffff1667ffffffffffffffff168152602001908152602001600020828154811015156162b657fe5b9060005260206000209060050201600301541415156164d45781151561639757616392600160008767ffffffffffffffff1667ffffffffffffffff16815260200190815260200160002060020160010160009054906101000a900473ffffffffffffffffffffffffffffffffffffffff16600360008867ffffffffffffffff1667ffffffffffffffff1681526020019081526020016000208381548110151561635b57fe5b906000526020600020906005020160020160009054906101000a900473ffffffffffffffffffffffffffffffffffffffff1661567e565b600191505b616405600360008767ffffffffffffffff1667ffffffffffffffff168152602001908152602001600020828154811015156163ce57fe5b906000526020600020906005020160020160009054906101000a900473ffffffffffffffffffffffffffffffffffffffff166164e9565b600360008667ffffffffffffffff1667ffffffffffffffff1681526020019081526020016000208181548110151561643957fe5b9060005260206000209060050201600080820160006101000a81549073ffffffffffffffffffffffffffffffffffffffff02191690556001820160006101000a81549073ffffffffffffffffffffffffffffffffffffffff02191690556002820160006101000a81549073ffffffffffffffffffffffffffffffffffffffff0219169055600382016000905560048201600090555050600193505b8080600101915050616275565b505050919050565b61654667016345785d8a0000600260008473ffffffffffffffffffffffffffffffffffffffff1673ffffffffffffffffffffffffffffffffffffffff1681526020019081526020016000206000015461765c90919063ffffffff16565b600260008373ffffffffffffffffffffffffffffffffffffffff1673ffffffffffffffffffffffffffffffffffffffff168152602001908152602001600020600001819055506165e967016345785d8a0000600260008473ffffffffffffffffffffffffffffffffffffffff1673ffffffffffffffffffffffffffffffffffffffff168152602001908152602001600020600101546150f390919063ffffffff16565b600260008373ffffffffffffffffffffffffffffffffffffffff1673ffffffffffffffffffffffffffffffffffffffff168152602001908152602001600020600101819055508073ffffffffffffffffffffffffffffffffffffffff167f5406cdbb33189b887da81a90c7ff307f3af1854b2504d0bde438b8bb5b7d8b5267016345785d8a00006040518082815260200191505060405180910390a250565b80600280600281111561669757fe5b600160008467ffffffffffffffff1667ffffffffffffffff16815260200190815260200160002060000160009054906101000a900460ff1660028111156166da57fe5b14151561674f576040517f08c379a00000000000000000000000000000000000000000000000000000000081526004018080602001828103825260108152602001807f57726f6e6720636f696e2073746174650000000000000000000000000000000081525060200191505060405180910390fd5b3373ffffffffffffffffffffffffffffffffffffffff16600160008567ffffffffffffffff1667ffffffffffffffff16815260200190815260200160002060000160019054906101000a900473ffffffffffffffffffffffffffffffffffffffff1673ffffffffffffffffffffffffffffffffffffffff1614151561683c576040517f08c379a00000000000000000000000000000000000000000000000000000000081526004018080602001828103825260188152602001807f596f7520646f206e6f74206f776e207468617420736c6f74000000000000000081525060200191505060405180910390fd5b6000600160008567ffffffffffffffff1667ffffffffffffffff168152602001908152602001600020600701549050616873618e7f565b600160008667ffffffffffffffff1667ffffffffffffffff16815260200190815260200160002060c060405190810160405290816000820160009054906101000a900460ff1660028111156168c457fe5b60028111156168cf57fe5b81526020016000820160019054906101000a900473ffffffffffffffffffffffffffffffffffffffff1673ffffffffffffffffffffffffffffffffffffffff1673ffffffffffffffffffffffffffffffffffffffff1681526020016001820160009054906101000a900473ffffffffffffffffffffffffffffffffffffffff1673ffffffffffffffffffffffffffffffffffffffff1673ffffffffffffffffffffffffffffffffffffffff1681526020016002820160c060405190810160405290816000820160009054906101000a900467ffffffffffffffff1667ffffffffffffffff1667ffffffffffffffff1681526020016000820160089054906101000a900473ffffffffffffffffffffffffffffffffffffffff1673ffffffffffffffffffffffffffffffffffffffff1673ffffffffffffffffffffffffffffffffffffffff1681526020016001820160009054906101000a900473ffffffffffffffffffffffffffffffffffffffff1673ffffffffffffffffffffffffffffffffffffffff1673ffffffffffffffffffffffffffffffffffffffff16815260200160028201548152602001600382015481526020016004820154815250508152602001600782015481526020016008820154815250509050600160008667ffffffffffffffff1667ffffffffffffffff168152602001908152602001600020600080820160006101000a81549060ff02191690556000820160016101000a81549073ffffffffffffffffffffffffffffffffffffffff02191690556001820160006101000a81549073ffffffffffffffffffffffffffffffffffffffff021916905560028201600080820160006101000a81549067ffffffffffffffff02191690556000820160086101000a81549073ffffffffffffffffffffffffffffffffffffffff02191690556001820160006101000a81549073ffffffffffffffffffffffffffffffffffffffff02191690556002820160009055600382016000905560048201600090555050600782016000905560088201600090555050806040015173ffffffffffffffffffffffffffffffffffffffff166342842e0e3033856040518463ffffffff167c0100000000000000000000000000000000000000000000000000000000028152600401808473ffffffffffffffffffffffffffffffffffffffff1673ffffffffffffffffffffffffffffffffffffffff1681526020018373ffffffffffffffffffffffffffffffffffffffff1673ffffffffffffffffffffffffffffffffffffffff1681526020018281526020019350505050600060405180830381600087803b158015616ca557600080fd5b505af1158015616cb9573d6000803e3d6000fd5b505050508467ffffffffffffffff163373ffffffffffffffffffffffffffffffffffffffff167fbb8c77f80d40a232c518e16058c59d0d555d9d775622b4839c7039007d10a037836040015185604051808373ffffffffffffffffffffffffffffffffffffffff1673ffffffffffffffffffffffffffffffffffffffff1681526020018281526020019250505060405180910390a35050505050565b6000616d61848461858a565b73ffffffffffffffffffffffffffffffffffffffff168273ffffffffffffffffffffffffffffffffffffffff161490509392505050565b600160008567ffffffffffffffff1667ffffffffffffffff168152602001908152602001600020600201600301548111151515616e20576040517f08c379a000000000000000000000000000000000000000000000000000000000815260040180806020018281038252602b8152602001806192a8602b913960400191505060405180910390fd5b616e28618f69565b616e3384848461588a565b90508467ffffffffffffffff16816000015167ffffffffffffffff16141515616ec4576040517f08c379a000000000000000000000000000000000000000000000000000000000815260040180806020018281038252601e8152602001807f5478206973207265666572656e63696e6720616e6f7468657220736c6f74000081525060200191505060405180910390fd5b5050505050565b60006060616ee0616edb8461883f565b61886d565b9050616eeb816179c0565b15616f1857616f11816002815181101515616f0257fe5b906020019060200201516189b3565b9150616fa0565b616f2181617caa565b15616f4e57616f47816003815181101515616f3857fe5b906020019060200201516189b3565b9150616f9f565b6040517f08c379a000000000000000000000000000000000000000000000000000000000815260040180806020018281038252603a8152602001806195ae603a913960400191505060405180910390fd5b5b50919050565b60006060616fbb616fb68461883f565b61886d565b90506000616fe0826000815181101515616fd157fe5b90602001906020020151618a41565b90506000617005836001815181101515616ff657fe5b90602001906020020151618a41565b9050600081141561706d5781604051602001808267ffffffffffffffff1667ffffffffffffffff167801000000000000000000000000000000000000000000000000028152600801915050604051602081830303815290604052805190602001209350617078565b848051906020012093505b505050919050565b62049d40600160008667ffffffffffffffff1667ffffffffffffffff1681526020019081526020016000206002016002015401421115151561712a576040517f08c379a00000000000000000000000000000000000000000000000000000000081526004018080602001828103825260198152602001807f4368616c6c656e67652077696e646f7773206973206f7665720000000000000081525060200191505060405180910390fd5b61716381600360008767ffffffffffffffff1667ffffffffffffffff16815260200190815260200160002061530090919063ffffffff16565b1515156171bb576040517f08c379a00000000000000000000000000000000000000000000000000000000081526004018080602001828103825260268152602001806195e86026913960400191505060405180910390fd5b600360008567ffffffffffffffff1667ffffffffffffffff16815260200190815260200160002060a060405190810160405280600160008867ffffffffffffffff1667ffffffffffffffff16815260200190815260200160002060020160010160009054906101000a900473ffffffffffffffffffffffffffffffffffffffff1673ffffffffffffffffffffffffffffffffffffffff1681526020018573ffffffffffffffffffffffffffffffffffffffff1681526020013373ffffffffffffffffffffffffffffffffffffffff168152602001838152602001848152509080600181540180825580915050906001820390600052602060002090600502016000909192909190915060008201518160000160006101000a81548173ffffffffffffffffffffffffffffffffffffffff021916908373ffffffffffffffffffffffffffffffffffffffff16021790555060208201518160010160006101000a81548173ffffffffffffffffffffffffffffffffffffffff021916908373ffffffffffffffffffffffffffffffffffffffff16021790555060408201518160020160006101000a81548173ffffffffffffffffffffffffffffffffffffffff021916908373ffffffffffffffffffffffffffffffffffffffff16021790555060608201518160030155608082015181600401555050508273ffffffffffffffffffffffffffffffffffffffff168467ffffffffffffffff167f6c66d916f7de00b00553c0be460c2844c555cb0d8d37fffbfb8c115f8ba27f418385604051808381526020018281526020019250505060405180910390a350505050565b80600160008767ffffffffffffffff1667ffffffffffffffff1681526020019081526020016000206002016004015411801561747f575080600160008767ffffffffffffffff1667ffffffffffffffff16815260200190815260200160002060020160030154105b15156174d6576040517f08c379a00000000000000000000000000000000000000000000000000000000081526004018080602001828103825260268152602001806198376026913960400191505060405180910390fd5b6174de618f69565b6174e985858461588a565b905061755183600160008967ffffffffffffffff1667ffffffffffffffff16815260200190815260200160002060020160000160089054906101000a900473ffffffffffffffffffffffffffffffffffffffff168360400151616d559092919063ffffffff16565b15156175c5576040517f08c379a00000000000000000000000000000000000000000000000000000000081526004018080602001828103825260118152602001807f496e76616c6964207369676e617475726500000000000000000000000000000081525060200191505060405180910390fd5b8567ffffffffffffffff16816000015167ffffffffffffffff16141515617654576040517f08c379a000000000000000000000000000000000000000000000000000000000815260040180806020018281038252601e8152602001807f5478206973207265666572656e63696e6720616e6f7468657220736c6f74000081525060200191505060405180910390fd5b505050505050565b600082821115151561766d57600080fd5b600082840390508091505092915050565b6000617688618ef4565b83600185805490500381548110151561769d57fe5b906000526020600020906005020160a060405190810160405290816000820160009054906101000a900473ffffffffffffffffffffffffffffffffffffffff1673ffffffffffffffffffffffffffffffffffffffff1673ffffffffffffffffffffffffffffffffffffffff1681526020016001820160009054906101000a900473ffffffffffffffffffffffffffffffffffffffff1673ffffffffffffffffffffffffffffffffffffffff1673ffffffffffffffffffffffffffffffffffffffff1681526020016002820160009054906101000a900473ffffffffffffffffffffffffffffffffffffffff1673ffffffffffffffffffffffffffffffffffffffff1673ffffffffffffffffffffffffffffffffffffffff1681526020016003820154815260200160048201548152505090508084848154811015156177de57fe5b906000526020600020906005020160008201518160000160006101000a81548173ffffffffffffffffffffffffffffffffffffffff021916908373ffffffffffffffffffffffffffffffffffffffff16021790555060208201518160010160006101000a81548173ffffffffffffffffffffffffffffffffffffffff021916908373ffffffffffffffffffffffffffffffffffffffff16021790555060408201518160020160006101000a81548173ffffffffffffffffffffffffffffffffffffffff021916908373ffffffffffffffffffffffffffffffffffffffff16021790555060608201518160030155608082015181600401559050508360018580549050038154811015156178ed57fe5b9060005260206000209060050201600080820160006101000a81549073ffffffffffffffffffffffffffffffffffffffff02191690556001820160006101000a81549073ffffffffffffffffffffffffffffffffffffffff02191690556002820160006101000a81549073ffffffffffffffffffffffffffffffffffffffff02191690556003820160009055600482016000905550506001848181805490500391508161799a9190619022565b50600191505092915050565b60606179b96179b48361883f565b61886d565b9050919050565b600060038251149050919050565b6179d6618f69565b6179df836179c0565b1515617a36576040517f08c379a000000000000000000000000000000000000000000000000000000000815260040180806020018281038252603881526020018061985d6038913960400191505060405180910390fd5b617a3e618f69565b617a5f846000815181101515617a5057fe5b90602001906020020151618a41565b816000019067ffffffffffffffff16908167ffffffffffffffff1681525050617a9f846001815181101515617a9057fe5b90602001906020020151618a41565b816060018181525050617ac9846002815181101515617aba57fe5b906020019060200201516189b3565b816020019073ffffffffffffffffffffffffffffffffffffffff16908173ffffffffffffffffffffffffffffffffffffffff1681525050600081606001511415617b75578060000151604051602001808267ffffffffffffffff1667ffffffffffffffff16780100000000000000000000000000000000000000000000000002815260080191505060405160208183030381529060405280519060200120816040018181525050617b87565b82805190602001208160400181815250505b8091505092915050565b600060066000848152602001908152602001600020600001549050600060045484811515617bbb57fe5b06141515617c22578084141515617c1d576040517f08c379a00000000000000000000000000000000000000000000000000000000081526004018080602001828103825260288152602001806194a26028913960400191505060405180910390fd5b617ca3565b617c2e84828785614772565b1515617ca2576040517f08c379a00000000000000000000000000000000000000000000000000000000081526004018080602001828103825260208152602001807f5478206e6f7420696e636c7564656420696e20636c61696d656420626c6f636b81525060200191505060405180910390fd5b5b5050505050565b600060098251149050919050565b6060617cc382617caa565b1515617d1a576040517f08c379a000000000000000000000000000000000000000000000000000000000815260040180806020018281038252604181526020018061950d6041913960600191505060405180910390fd5b60606002604051908082528060200260200182016040528015617d5757816020015b617d44619054565b815260200190600190039081617d3c5790505b509050617d7b836000815181101515617d6c57fe5b90602001906020020151618a41565b816000815181101515617d8a57fe5b906020019060200201516000019067ffffffffffffffff16908167ffffffffffffffff1681525050617dd3836001815181101515617dc457fe5b90602001906020020151618a41565b816000815181101515617de257fe5b906020019060200201516020018181525050617e15836002815181101515617e0657fe5b90602001906020020151618a41565b600102816000815181101515617e2757fe5b906020019060200201516080018181525050617e5a836003815181101515617e4b57fe5b906020019060200201516189b3565b816000815181101515617e6957fe5b906020019060200201516060019073ffffffffffffffffffffffffffffffffffffffff16908173ffffffffffffffffffffffffffffffffffffffff1681525050617eca836004815181101515617ebb57fe5b90602001906020020151618a41565b816000815181101515617ed957fe5b90602001906020020151610100019067ffffffffffffffff16908167ffffffffffffffff1681525050617f23836005815181101515617f1457fe5b90602001906020020151618a41565b816001815181101515617f3257fe5b906020019060200201516020018181525050617f65836006815181101515617f5657fe5b90602001906020020151618a41565b600102816001815181101515617f7757fe5b906020019060200201516080018181525050617faa836007815181101515617f9b57fe5b906020019060200201516189b3565b816001815181101515617fb957fe5b906020019060200201516060019073ffffffffffffffffffffffffffffffffffffffff16908173ffffffffffffffffffffffffffffffffffffffff168152505061801a83600881518110151561800b57fe5b90602001906020020151618311565b81600181518110151561802957fe5b9060200190602002015160a0018190525080600181518110151561804957fe5b906020019060200201516060015181600081518110151561806657fe5b906020019060200201516040019073ffffffffffffffffffffffffffffffffffffffff16908173ffffffffffffffffffffffffffffffffffffffff16815250508060008151811015156180b557fe5b906020019060200201516080015160405160200180828152602001915050604051602081830303815290604052805190602001208160008151811015156180f857fe5b9060200190602002015160c001818152505061812b81600081518110151561811c57fe5b90602001906020020151618b00565b81600081518110151561813a57fe5b9060200190602002015160e001818152505080600081518110151561815b57fe5b90602001906020020151610100015181600181518110151561817957fe5b906020019060200201516000019067ffffffffffffffff16908167ffffffffffffffff16815250508060008151811015156181b057fe5b90602001906020020151600001518160018151811015156181cd57fe5b90602001906020020151610100019067ffffffffffffffff16908167ffffffffffffffff168152505080600081518110151561820557fe5b906020019060200201516060015181600181518110151561822257fe5b906020019060200201516040019073ffffffffffffffffffffffffffffffffffffffff16908173ffffffffffffffffffffffffffffffffffffffff168152505080600181518110151561827157fe5b906020019060200201516080015160405160200180828152602001915050604051602081830303815290604052805190602001208160018151811015156182b457fe5b9060200190602002015160c00181815250506182e78160018151811015156182d857fe5b90602001906020020151618b00565b8160018151811015156182f657fe5b9060200190602002015160e001818152505080915050919050565b60606000826000015111151561838f576040517f08c379a000000000000000000000000000000000000000000000000000000000815260040180806020018281038252601d8152602001807f524c50206279746573206d757374206265206d6f7265207468616e203000000081525060200191505060405180910390fd5b600061839e8360200151618bfe565b905060008184600001510390506060816040519080825280601f01601f1916602001820160405280156183e05781602001600182028038833980820191505090505b50905060008160200190506183fc848760200151018285618c87565b81945050505050919050565b60006007600084815260200190815260200160002060000154905060006004548481151561843257fe5b0614151561848b576040517f08c379a00000000000000000000000000000000000000000000000000000000081526004018080602001828103825260358152602001806194406035913960400191505060405180910390fd5b61849784828785614772565b15156184ee576040517f08c379a000000000000000000000000000000000000000000000000000000000815260040180806020018281038252602781526020018061973e6027913960400191505060405180910390fd5b5050505050565b6184fd618f69565b618505618f69565b8260000151816000019067ffffffffffffffff16908167ffffffffffffffff16815250508260600151816020019073ffffffffffffffffffffffffffffffffffffffff16908173ffffffffffffffffffffffffffffffffffffffff16815250508260e00151816040018181525050826020015181606001818152505080915050919050565b600060418251148061859d575060428251145b1515618611576040517f08c379a000000000000000000000000000000000000000000000000000000000815260040180806020018281038252601b8152602001807f5369676e6174757265206c656e67687420697320696e76616c6964000000000081525060200191505060405180910390fd5b600080849050600080600080600190506041885114156186385760009050600095506186c6565b87600081518110151561864757fe5b9060200101517f010000000000000000000000000000000000000000000000000000000000000090047f0100000000000000000000000000000000000000000000000000000000000000027f0100000000000000000000000000000000000000000000000000000000000000900460ff1660028111156186c357fe5b95505b80602001880151925080604001880151915060ff81604101890151169350600160028111156186f157fe5b8660028111156186fd57fe5b1415618759578460405160200180807f19457468657265756d205369676e6564204d6573736167653a0a333200000000815250601c018281526020019150506040516020818303038152906040528051906020012094506187ca565b60028081111561876557fe5b86600281111561877157fe5b14156187c9578460405160200180807f19457468657265756d205369676e6564204d6573736167653a0a200000000000815250601b018281526020019150506040516020818303038152906040528051906020012094505b5b60018585858560405160008152602001604052604051808581526020018460ff1660ff1681526020018381526020018281526020019450505050506020604051602081039080840390855afa158015618827573d6000803e3d6000fd5b50505060206040510351965050505050505092915050565b6188476190ea565b600060208301905060408051908101604052808451815260200182815250915050919050565b606061887882618cf0565b15156188ec576040517f08c379a00000000000000000000000000000000000000000000000000000000081526004018080602001828103825260148152602001807f524c50204974656d206973206e6f74206c69737400000000000000000000000081525060200191505060405180910390fd5b60006188f783618d3e565b90508060405190808252806020026020018201604052801561893357816020015b618920619104565b8152602001906001900390816189185790505b50915060006189458460200151618bfe565b8460200151019050600080600090505b838110156189aa5761896683618daf565b9150604080519081016040528083815260200184815250858281518110151561898b57fe5b9060200190602002018190525081830192508080600101915050618955565b50505050919050565b600060158260000151141515618a31576040517f08c379a000000000000000000000000000000000000000000000000000000000815260040180806020018281038252601c8152602001807f524c502061646472657373206d7573742062652032312062797465730000000081525060200191505060405180910390fd5b618a3a82618a41565b9050919050565b6000808260000151118015618a5b57506021826000015111155b1515618ab2576040517f08c379a000000000000000000000000000000000000000000000000000000000815260040180806020018281038252602781526020018061954e6027913960400191505060405180910390fd5b6000618ac18360200151618bfe565b90506000818460000151039050600080838660200151019050805191506020831015618af457826020036101000a820491505b81945050505050919050565b6000816000015182602001518360c001518460600151856101000151604051602001808667ffffffffffffffff1667ffffffffffffffff1678010000000000000000000000000000000000000000000000000281526008018581526020018481526020018373ffffffffffffffffffffffffffffffffffffffff1673ffffffffffffffffffffffffffffffffffffffff166c010000000000000000000000000281526014018267ffffffffffffffff1667ffffffffffffffff16780100000000000000000000000000000000000000000000000002815260080195505050505050604051602081830303815290604052805190602001209050919050565b600080825160001a9050608060ff16811015618c1e576000915050618c82565b60b860ff16811080618c43575060c060ff168110158015618c42575060f860ff1681105b5b15618c52576001915050618c82565b60c060ff16811015618c725760018060b80360ff16820301915050618c82565b60018060f80360ff168203019150505b919050565b6000811415618c9557618ceb565b5b602060ff1681101515618cc75782518252602060ff1683019250602060ff1682019150602060ff1681039050618c96565b6000600182602060ff16036101000a03905080198451168184511681811785525050505b505050565b60008082600001511415618d075760009050618d39565b60008083602001519050805160001a915060c060ff168260ff161015618d3257600092505050618d39565b6001925050505b919050565b60008082600001511415618d555760009050618daa565b60008090506000618d698460200151618bfe565b84602001510190506000846000015185602001510190505b80821015618da357618d9282618daf565b820191508280600101935050618d81565b8293505050505b919050565b600080825160001a9050608060ff16811015618dcf576001915050618e5d565b60b860ff16811015618ded576001608060ff16820301915050618e5d565b60c060ff16811015618e1d5760b78103600184019350806020036101000a84510460018201810193505050618e5b565b60f860ff16811015618e3b57600160c060ff16820301915050618e5d565b60f78103600184019350806020036101000a845104600182018101935050505b505b919050565b604080519081016040528060008019168152602001600081525090565b6101606040519081016040528060006002811115618e9957fe5b8152602001600073ffffffffffffffffffffffffffffffffffffffff168152602001600073ffffffffffffffffffffffffffffffffffffffff168152602001618ee061911e565b815260200160008152602001600081525090565b60a060405190810160405280600073ffffffffffffffffffffffffffffffffffffffff168152602001600073ffffffffffffffffffffffffffffffffffffffff168152602001600073ffffffffffffffffffffffffffffffffffffffff16815260200160008019168152602001600081525090565b608060405190810160405280600067ffffffffffffffff168152602001600073ffffffffffffffffffffffffffffffffffffffff16815260200160008019168152602001600081525090565b60c060405190810160405280600067ffffffffffffffff168152602001600073ffffffffffffffffffffffffffffffffffffffff168152602001600073ffffffffffffffffffffffffffffffffffffffff1681526020016000815260200160008152602001600081525090565b81548183558181111561904f5760050281600502836000526020600020918201910161904e919061918b565b5b505050565b61012060405190810160405280600067ffffffffffffffff16815260200160008152602001600073ffffffffffffffffffffffffffffffffffffffff168152602001600073ffffffffffffffffffffffffffffffffffffffff16815260200160008019168152602001606081526020016000801916815260200160008019168152602001600067ffffffffffffffff1681525090565b604080519081016040528060008152602001600081525090565b604080519081016040528060008152602001600081525090565b60c060405190810160405280600067ffffffffffffffff168152602001600073ffffffffffffffffffffffffffffffffffffffff168152602001600073ffffffffffffffffffffffffffffffffffffffff1681526020016000815260200160008152602001600081525090565b61922c91905b8082111561922857600080820160006101000a81549073ffffffffffffffffffffffffffffffffffffffff02191690556001820160006101000a81549073ffffffffffffffffffffffffffffffffffffffff02191690556002820160006101000a81549073ffffffffffffffffffffffffffffffffffffffff02191690556003820160009055600482016000905550600501619191565b5090565b9056fe342070726f6f66206d757374206265207375626d697474656420666f7220616e2061746f6d69632073776170436f6e7472616374206973206e6f7420616363657074696e67206d6f7265206465706f7369747321526573706f6e64696e6720746f206e6f6e206578697374696e67206368616c6c656e676554782073686f756c64206265206265666f7265207468652065786974277320706172656e7420626c6f636b546f6b656e20776173206e6f74207472616e73666572656420636f72726563746c7954696d6520746f2072657665616c207365637265747320697320616c7265616479206f7665725472616e73616374696f6e206d757374206265206163636f6d70616e6965642062792074686520424f4e4420414d4f554e54506c6561736520646f20612073746172744465706f7369744578697420666f72206465706f7369746564207472616e73616374696f6e7343616e6e6f7420726573706f6e6420776974682061207478206166746572207468652065786974536c6f74206f6e207468652045786974696e67547820646f6573206e6f74206d617463682074686174206f6e2074686520707265765478496e76616c6964207369676e6174757265204220696e2061746f6d69632073776170426c6f636b206f6e2074686520666972737420696e646578206d75737420626520746865206561726c696572206f6620746865203220626c6f636b73547279696e6720746f2076616c696461746520616e2061746f6d6963207377617020666f722061206465706f73697420626c6f636b436f6e74726163742061646472657373206973206e6f7420617070726f76656420666f72206465706f736974735472616e73616374696f6e206861736820646f6573206e6f74206d6174636820726f6f74486173684120626c6f636b206d757374206265207375626d697474656420666972737420696e206f7264657220746f2072657665616c20746865207377617020736563726574735472616e73616374696f6e20627974657320646f206e6f7420636f72726573706f6e6420746f20616e2061746f6d69632073776170207472616e73616374696f6e524c502055696e74206d757374206265206265747765656e203120616e6420333320627974657353656372657420776173206e657665722072657665616c656420666f72207468697320626c6f636b2c207377617020697320696e76616c6964436f756c64206e6f742064657465726d696e65207472616e73616374696f6e207479706520746f20726574726965766520746865206f776e65725472616e73616374696f6e207573656420666f72206368616c6c656e676520616c72656164794f6e6c7920636f696e2773206f776e657220697320616c6c6f77656420746f2063616e63656c20746865206578697453656372657420686173206e6f7420796574206265656e2072657665616c65642c207468657265206973207374696c6c2074696d6520746f20636f6d6d697420746865207472616e73616374696f6e43616e27742063616e63656c20616e2065786974207769746820612063757272656e74206368616c6c656e676553656e64657220646f6573206e6f74206d617463682065786974696e6754784279746573206f776e6572426c6f636b4e756d626572206d75737420626520616674657220746865206368616c656e676541207375626d697474656420626c6f636b206d757374206265206368696c64426c6f636b496e74657276616c206e756d6265726564547820736563726574206e6f7420696e636c7564656420696e20636c61696d656420626c6f636b596f75206d757374207761697420746865206d6174757269747920706572696f64206265666f72652066696e616c697a696e672074686520657869747478427974657320646f206e6f7420636f72726573706f6e64206e65697468657220746f206261736963205458206e6f7220746f2041746f6d696320737761704120626c6f636b206c657373207468616e2063757272656e74426c6f636b2063616e6e6f74206265207375626d69747465645468697320636f6e747261637420646f6573206e6f742072656365697665206d6f6e657954782073686f756c64206265206265747765656e207468652065786974277320626c6f636b735472616e73616374696f6e20627974657320646f206e6f7420636f72726573706f6e6420746f206261736963207472616e73616374696f6e53656e64657220646f6573206e6f74206d61746368206465706f736974206f776e6572a165627a7a72305820ae57ca41d2ef310a9e1f7c85e4d5c573d4856a3f3057675473d94b7a22fb0e830029608060405234801561001057600080fd5b507f290decd9548b62a8d60345a988386fc84ba6bc95484008f6362f93160ef3e56360010260008060418110151561004457fe5b018190555061006460016040610069640100000000026401000000009004565b610102565b60008290505b8160ff168160ff161115156100fd5760006001820360ff1660418110151561009357fe5b015460006001830360ff166041811015156100aa57fe5b015460405160200180838152602001828152602001925050506040516020818303038152906040528051906020012060008260ff166041811015156100eb57fe5b0181905550808060010191505061006f565b505050565b6104fd806101116000396000f3fe608060405234801561001057600080fd5b506004361061005e576000357c01000000000000000000000000000000000000000000000000000000009004806348419ad814610063578063509a7e54146100a5578063f586df6514610192575b600080fd5b61008f6004803603602081101561007957600080fd5b810190808035906020019092919050505061028d565b6040518082815260200191505060405180910390f35b61017c600480360360608110156100bb57600080fd5b8101908080359060200190929190803567ffffffffffffffff169060200190929190803590602001906401000000008111156100f657600080fd5b82018360208201111561010857600080fd5b8035906020019184600183028401116401000000008311171561012a57600080fd5b91908080601f016020809104026020016040519081016040528093929190818152602001838380828437600081840152601f19601f8201169050808301925050505050505091929192905050506102a7565b6040518082815260200191505060405180910390f35b610273600480360360808110156101a857600080fd5b810190808035906020019092919080359060200190929190803567ffffffffffffffff169060200190929190803590602001906401000000008111156101ed57600080fd5b8201836020820111156101ff57600080fd5b8035906020019184600183028401116401000000008311171561022157600080fd5b91908080601f016020809104026020016040519081016040528093929190818152602001838380828437600081840152601f19601f8201169050808301925050505050505091929192905050506104b3565b604051808215151515815260200191505060405180910390f35b60008160418110151561029c57fe5b016000915090505481565b600080602060088451038115156102ba57fe5b061480156102cb5750610808825111155b151561033f576040517f08c379a00000000000000000000000000000000000000000000000000000000081526004018080602001828103825260178152602001807f50726f6f66206c656e67746820697320696e76616c696400000000000000000081525060200191505060405180910390fd5b60008085905060006008905060008087905060186101000a602088015104915060008090505b604060ff168110156104a357600060028467ffffffffffffffff1681151561038957fe5b0667ffffffffffffffff1614156103b2576000816041811015156103a957fe5b015495506103d3565b6020840193508361ffff168851101515156103cc57600080fd5b8388015195505b600060028367ffffffffffffffff168115156103eb57fe5b0667ffffffffffffffff1614156104325784866040516020018083815260200182815260200192505050604051602081830303815290604052805190602001209450610464565b858560405160200180838152602001828152602001925050506040516020818303038152906040528051906020012094505b60028367ffffffffffffffff1681151561047a57fe5b04925060028267ffffffffffffffff1681151561049357fe5b0491508080600101915050610365565b5083955050505050509392505050565b6000806104c18685856102a7565b905084811491505094935050505056fea165627a7a7230582075e0a72c89a9a8d7bf3158d48fd5ed07bc1908a9dc2210d09992faf119f4274c0029",
  "source": "// Copyright Loom Network 2018 - All rights reserved, Dual licensed on GPLV3\n// Learn more about Loom DappChains at https://loomx.io\n// All derivitive works of this code must incluse this copyright header on every file\n\npragma solidity ^0.5.2;\n\n// ERC721\nimport \"openzeppelin-solidity/contracts/token/ERC721/ERC721.sol\";\nimport \"openzeppelin-solidity/contracts/token/ERC721/IERC721Receiver.sol\";\n\n// Lib deps\nimport \"openzeppelin-solidity/contracts/math/SafeMath.sol\";\nimport \"./Libraries/Transaction/Transaction.sol\";\nimport \"./Libraries/ECVerify.sol\";\nimport \"./Libraries/ChallengeLib.sol\";\n\n// SMT and VMC\nimport \"./Supporting/ValidatorManagerContract.sol\";\nimport \"./Supporting/SparseMerkleTree.sol\";\n\n\ncontract RootChain is IERC721Receiver {\n\n    using SafeMath for uint256;\n    using Transaction for bytes;\n    using Transaction for RLPReader.RLPItem[];\n    using RLPReader for RLPReader.RLPItem;\n    using Transaction for Transaction.AtomicSwapTX;\n    using ECVerify for bytes32;\n    using ChallengeLib for ChallengeLib.Challenge[];\n\n    ///////////////////////////////////////////////////////////////////////////////////\n    ////   EVENTS\n    //////////////////////////////////////////////////////////////////////////////////\n\n    /**\n     * Event for coin deposit logging.\n     * @notice The Deposit event indicates that a deposit block has been added to the Plasma chain\n     * @param slot            Plasma slot, a unique identifier, assigned to the deposit\n     * @param blockNumber     The index of the block in which a deposit transaction is included\n     * @param from            The address of the depositor\n     * @param contractAddress The address of the contract making the deposit\n     */\n    event Deposit(uint64 indexed slot, uint256 blockNumber, address indexed from, address indexed contractAddress);\n\n    /**\n     * Event for block submission logging\n     * @notice The event indicates the addition of a new Plasma block\n     * @param blockNumber The block number of the submitted block\n     * @param root        The root hash of the Merkle tree containing all of a block's transactions.\n     * @param timestamp   The time when a block was added to the Plasma chain\n     */\n    event SubmittedBlock(uint256 blockNumber, bytes32 root, uint256 timestamp);\n\n    /**\n     * Event for secret-revealing block submission logging\n     * @notice The event indicates the addition of a new Secret Revealing block\n     * @param blockNumber The block number of the submitted block\n     * @param root        The root hash of the Merkle tree containing all of a block's secrets.\n     * @param timestamp   The time when a block was added to the Plasma chain\n     */\n    event SubmittedSecretBlock(uint256 blockNumber, bytes32 root, uint256 timestamp);\n\n    /**\n     * Event for logging exit starts\n     * @param slot  The slot of the coin being exited\n     * @param owner The user who claims to own the coin being exited\n     */\n    event StartedExit(uint64 indexed slot, address indexed owner);\n\n    /**\n     * Event for exit challenge logging\n     * @notice This event only fires if `challengeBefore` is called.\n     * @param slot   The slot of the coin whose exit was challenged\n     * @param owner  The current claiming owner of the exit\n     * @param txHash The hash of the tx used for the challenge\n     */\n    event ChallengedExit(uint64 indexed slot, address indexed owner, bytes32 txHash, uint256 challengingBlockNumber);\n\n    /**\n     * Event for exit response logging\n     * @notice This only logs responses to `challengeBefore`\n     * @param slot The slot of the coin whose challenge was responded to\n     */\n    event RespondedExitChallenge(uint64 indexed slot,  address indexed owner,  address indexed challenger);\n\n    /**\n     * Event for logging when an exit was successfully challenged\n     * @param slot The slot of the coin being reset to NOT_EXITING\n     * @param owner The owner of the coin\n     */\n    event CoinReset(uint64 indexed slot, address indexed owner);\n\n    /**\n     * Event for exit finalization logging\n     * @param slot  The slot of the coin whose exit has been finalized\n     * @param owner The owner of the coin whose exit has been finalized\n     */\n    event FinalizedExit(uint64 indexed slot, address indexed owner);\n\n    /**\n     * Event to log the freeing of a bond\n     * @param from   The address of the user whose bonds have been freed\n     * @param amount The bond amount which can now be withdrawn\n     */\n    event FreedBond(address indexed from, uint256 amount);\n\n    /**\n     * Event to log the slashing of a bond\n     * @param from   The address of the user whose bonds have been slashed\n     * @param to     The recipient of the slashed bonds\n     * @param amount The bound amount which has been forfeited\n     */\n    event SlashedBond(address indexed from, address indexed to, uint256 amount);\n\n    /**\n     * Event to log the withdrawal of a bond\n     * @param from   The address of the user who withdrew bonds\n     * @param amount The bond amount which has been withdrawn\n     */\n    event WithdrewBonds(address indexed from, uint256 amount);\n\n    /**\n     * Event to log the withdrawal of a coin\n     * @param owner           The address of the user who withdrew bonds\n     * @param slot            The slot of the coin that was exited\n     * @param contractAddress The contract address where the coin is being withdrawn from is same as\n     *                        `from` when withdrawing a ETH coin\n     * @param uid             The uid of the coin being withdrawn if ERC721, else 0\n     */\n    event Withdrew(address indexed owner, uint64 indexed slot, address contractAddress, uint uid);\n\n    /**\n     * Event to pause deposits in the contract.\n     * Temporarily added while the contract is being battle tested\n     * @param status Boolean value of the contract's status\n     */\n    event Paused(bool status);\n\n    ///////////////////////////////////////////////////////////////////////////////////\n    ////   Structs\n    //////////////////////////////////////////////////////////////////////////////////\n\n    struct Balance {\n        uint256 bonded;\n        uint256 withdrawable;\n    }\n\n    // Each exit can only be challenged by a single challenger at a time\n    struct Exit {\n        uint64 slot;\n        address prevOwner; // previous owner of coin\n        address owner;\n        uint256 createdAt;\n        uint256 prevBlock;\n        uint256 exitBlock;\n    }\n\n    enum State {\n        NOT_EXITING,\n        EXITING,\n        EXITED\n    }\n\n    struct Coin {\n        State state;\n        address owner; // who owns that nft\n        address contractAddress; // which contract does the coin belong to\n        Exit exit;\n        uint256 uid;\n        uint256 depositBlock;\n    }\n\n    struct ChildBlock {\n        bytes32 root;\n        uint256 createdAt;\n    }\n\n\n    /* An exit can be finalized after it has matured,\n     * after T2 = T0 + MATURITY_PERIOD\n     * An exit can be challenged in the first window\n     * between T0 and T1 ( T1 = T0 + CHALLENGE_WINDOW)\n     * A challenge can be responded to in the second window\n     * between T1 and T2\n    */\n    uint256 constant MATURITY_PERIOD = 7 days;\n    uint256 constant CHALLENGE_WINDOW = 3 days + 12 hours;\n\n    /* A secret-revealing root hash can only be submitted during a period\n     * after T0 and before T0 + SECRET_REVEALING_PERIOD\n     * where T0 is the time the corresponding block was submitted\n    */\n    uint256 constant SECRET_REVEALING_PERIOD = 1 days;\n\n    bool paused;\n\n    uint64 public numCoins = 0;\n    mapping (uint64 => Coin) coins;\n\n    uint256 constant BOND_AMOUNT = 0.1 ether;\n    mapping (address => Balance) public balances;\n    mapping (uint64 => ChallengeLib.Challenge[]) challenges;\n\n    // child chain\n    uint256 public childBlockInterval = 1000;\n    uint256 public currentBlock = 0;\n    mapping (uint256 => ChildBlock) public childChain;\n    mapping (uint256 => ChildBlock) public secretRevealingChain;\n\n    ValidatorManagerContract vmc;\n    SparseMerkleTree smt;\n\n    constructor (ValidatorManagerContract _vmc) public {\n        vmc = _vmc;\n        smt = new SparseMerkleTree();\n    }\n\n    function pause() external isValidator {\n        paused = true;\n        emit Paused(true);\n    }\n\n    function unpause() external isValidator {\n        paused = false;\n        emit Paused(false);\n    }\n\n    function() external payable {\n        revert(\"This contract does not receive money\");\n    }\n\n    ///////////////////////////////////////////////////////////////////////////////////\n    ////   Block submissions\n    //////////////////////////////////////////////////////////////////////////////////\n\n    /**\n     * @dev called by a Validator to append a Plasma block to the Plasma chain\n     * @notice Emits SubmittedBlock event\n     * @param blockNumber Number of the block to submit\n     * @param root        The transaction root hash of the Plasma block being added\n    */\n    function submitBlock(uint256 blockNumber, bytes32 root) public isValidator {\n        require(blockNumber >= currentBlock, \"A block less than currentBlock cannot be submitted\");\n        require(blockNumber % childBlockInterval == 0, \"A submitted block must be childBlockInterval numbered\");\n\n        currentBlock = blockNumber;\n        childChain[currentBlock] = ChildBlock({\n            root: root,\n            createdAt: block.timestamp\n        });\n\n        emit SubmittedBlock(currentBlock, root, block.timestamp);\n    }\n\n    /**\n     * @dev called by a Validator to append a Secret Revealing Plasma block to the Plasma chain. It has to be withing\n     *      SECRET_REVEALING_PERIOD from the submission of the blockNumber block.\n     * @notice Emits SubmittedSecretBlock event\n     * @param blockNumber Number of the block corresponding to this secretBlock\n     * @param root        The transaction root hash of the Plasma block being added\n    */\n    function submitSecretBlock(uint256 blockNumber, bytes32 root) public isValidator {\n\n        ChildBlock memory childBlock = childChain[blockNumber];\n        require(childBlock.root != 0, \"A block must be submitted first in order to reveal the swap secrets\");\n        require((block.timestamp - childBlock.createdAt) < SECRET_REVEALING_PERIOD ,\n            \"Time to reveal secrets is already over\");\n\n        secretRevealingChain[blockNumber] = ChildBlock({\n            root: root,\n            createdAt: block.timestamp\n        });\n\n        emit SubmittedSecretBlock(blockNumber, root, block.timestamp);\n    }\n\n    ///////////////////////////////////////////////////////////////////////////////////\n    ////   Deposit\n    //////////////////////////////////////////////////////////////////////////////////\n\n    function onERC721Received(\n        address /*operator*/,\n        address from,\n        uint256 tokenId,\n        bytes memory /*data*/\n    )public isTokenApproved(msg.sender) returns (bytes4) {\n\n        require(ERC721(msg.sender).ownerOf(tokenId) == address(this), \"Token was not transfered correctly\");\n        deposit(from, msg.sender, tokenId);\n        return this.onERC721Received.selector;\n    }\n\n    /** @dev Allows anyone to deposit funds into the Plasma chain, called when contract receives ERC721\n      * @notice Appends a deposit block to the Plasma chain\n      * @notice Emits Deposit event\n      * @param from             The address of the user who is depositing a coin\n      * @param contractAddress  The address implementing the ERC721 creator of the token\n      * @param uid              The uid of the ERC721 coin being deposited. This is an identifier allocated by the\n      *                         ERC721 token contract; it is not related to `slot`.\n      */\n    function deposit(address from, address contractAddress, uint256 uid) private {\n\n        require(!paused, \"Contract is not accepting more deposits!\");\n        //Deposit blocks are added by 1 each time, so there can be interpolated within the childBlockInterval without problem.\n        currentBlock = currentBlock.add(1);\n\n        //Slot is created uniquely for any deposit. If the same coin is deposited again after exited, it will have a new slot.\n        uint64 slot = uint64(bytes8(keccak256(abi.encodePacked(numCoins, msg.sender, from))));\n\n        // Update state. Leave `exit` empty\n        Coin storage coin = coins[slot];\n        coin.uid = uid;\n        coin.contractAddress = contractAddress;\n        coin.depositBlock = currentBlock;\n        coin.owner = from;\n        coin.state = State.NOT_EXITING;\n\n        childChain[currentBlock] = ChildBlock({\n            // hash for deposit transactions is the hash of its slot\n            root: keccak256(abi.encodePacked(slot)),\n            createdAt: block.timestamp\n        });\n\n        numCoins += 1;\n\n        emit Deposit(slot, currentBlock, from, contractAddress);\n    }\n\n    ///////////////////////////////////////////////////////////////////////////////////\n    ////   Exits\n    //////////////////////////////////////////////////////////////////////////////////\n\n    /**\n     * @dev Allows and exit of a deposit transaction\n     * @notice Emits StartedExit event\n     * @param slot The slot of the coin being exited\n     */\n    function startDepositExit(uint64 slot) external payable isBonded isState(slot, State.NOT_EXITING) {\n\n        Coin memory coin = coins[slot];\n        require(coin.owner == msg.sender, \"Sender does not match deposit owner\");\n        pushExit(slot, address(0), 0, coin.depositBlock);\n    }\n\n    /**\n     * @dev Allows and exit of a non-deposit transaction. See `checkBothIncludedAndSigned` for conditions\n     * @notice Emits StartedExit event\n     * @notice must be bonded with BOND_AMOUNT\n     * @param slot                    The slot of the coin being exited\n     * @param prevTxBytes             The bytes corresponding to the immediate previous transaction to exitingTxBytes.\n     * @param exitingTxBytes          The bytes transaction to be exited. Needs to be the last valid transaction of the\n     *                                slot in order not to be able to be challenged. Owner of it must be msg.sender.\n     * @param prevTxInclusionProof    An inclusion proof of `prevTxBytes`\n     * @param exitingTxInclusionProof An inclusion proof of `exitingTxBytes`\n     * @param signature               Signature of exitingTxBytes. Must be signed by the recipient of prevTxBytes.\n     * @param blocks                  The blocks (array of size 2) corresponding to prevTxBytes and exitingTxBytes in that order\n     *                                to validate their correct inclusion\n     */\n    function startExit(\n        uint64 slot,\n        bytes calldata prevTxBytes, bytes calldata exitingTxBytes,\n        bytes calldata prevTxInclusionProof, bytes calldata exitingTxInclusionProof,\n        bytes calldata signature,\n        uint256[2] calldata blocks\n    ) external payable isBonded isState(slot, State.NOT_EXITING) {\n\n        require(msg.sender == exitingTxBytes.getOwner(), \"Sender does not match exitingTxBytes owner\");\n        if (blocks[1] % childBlockInterval != 0) {\n            revert(\"Please do a startDepositExit for deposited transactions\");\n        }\n\n        checkBothIncludedAndSigned(\n            prevTxBytes, exitingTxBytes, prevTxInclusionProof, exitingTxInclusionProof, signature,blocks\n        );\n\n        pushExit(slot, prevTxBytes.getOwner(), blocks[0], blocks[1]);\n    }\n\n    /**\n      * @dev Generates an Exit and adds it it to the coin.\n      * @notice Emits StartedExit event\n      * @notice Adds exit to coin and changes it state to EXITING\n      * @param slot          The slot of the coin being exited\n      * @param prevOwner     The supposed previous to last owner of the coin in the plasma chain.\n      * @param prevBlock     The supposed previous to last block that the coin was spent on\n      * @param exitingBlock  The supposed last block that the coin was spent on\n      */\n    function pushExit(\n        uint64 slot,\n        address prevOwner,\n        uint256 prevBlock,\n        uint256 exitingBlock\n    ) private {\n        // Create exit\n        Coin storage c = coins[slot];\n        c.exit = Exit({\n            slot: slot,\n            prevOwner: prevOwner,\n            owner: msg.sender,\n            createdAt: block.timestamp,\n            prevBlock: prevBlock,\n            exitBlock: exitingBlock\n        });\n\n        // Update coin state\n        c.state = State.EXITING;\n        emit StartedExit(slot, msg.sender);\n    }\n\n\n    /**\n      * @dev Finalizes an exit, i.e. puts the exiting coin into the EXITED state and withdraws it,\n      *      provided the exit has matured and has not been successfully challenged, else if a challenge is present,\n      *      resets the coin and awards the challenger with the bond.\n      * @notice Changes coin's state to EXITED\n      * @notice Emits FinalizedExit event if no challenges are present\n      * @notice Emits Withdrew event if no challenges are present\n      * @notice Emits CoinReset event if there are challenges present\n      * @param slot          The slot of the coin being exited\n      */\n    function finalizeExit(uint64 slot) isState(slot, State.EXITING) public {\n\n        Coin storage coin = coins[slot];\n        require((block.timestamp - coin.exit.createdAt) > MATURITY_PERIOD, \"You must wait the maturity period before finalizing the exit\");\n\n        // Check if there are any pending challenges for the coin. `checkPendingChallenges` will also penalize\n        // for each challenge that has not been responded to\n        bool hasChallenges = checkPendingChallenges(slot);\n\n        if (!hasChallenges) {\n            // Update coin's owner\n            coin.owner = coin.exit.owner;\n            coin.state = State.EXITED;\n\n            // Allow the exitor to withdraw their bond\n            freeBond(coin.owner);\n\n            emit FinalizedExit(slot, coin.owner);\n            withdraw(slot);\n        } else {\n            // Reset coin state since it was challenged\n            coin.state = State.NOT_EXITING;\n            emit CoinReset(slot, coin.owner);\n        }\n\n        delete coins[slot].exit;\n    }\n\n    function checkPendingChallenges(uint64 slot) private returns (bool hasChallenges) {\n\n        uint256 length = challenges[slot].length;\n        bool slashed;\n        hasChallenges = false;\n        for (uint i = 0; i < length; i++) {\n            if (challenges[slot][i].txHash != 0x0) {\n                // Penalize the exitor and reward the first valid challenger.\n                if (!slashed) {\n                    slashBond(coins[slot].exit.owner, challenges[slot][i].challenger);\n                    slashed = true;\n                }\n                // Also free the bond of the challenger.\n                freeBond(challenges[slot][i].challenger);\n\n                // Challenge resolved, delete it\n                delete challenges[slot][i];\n                hasChallenges = true;\n            }\n        }\n    }\n\n    /**\n      * @dev Withdraws a token that has been exited.\n      * @notice Emits Withdrew event\n      * @param slot          The slot of the coin being withdrawn\n      */\n    function withdraw(uint64 slot) private isState(slot, State.EXITED) {\n        require(coins[slot].owner == msg.sender, \"You do not own that slot\");\n        uint256 uid = coins[slot].uid;\n\n        // Delete the coin that is being withdrawn\n        Coin memory c = coins[slot];\n        delete coins[slot];\n        ERC721(c.contractAddress).safeTransferFrom(address(this), msg.sender, uid);\n\n        emit Withdrew(msg.sender, slot, c.contractAddress, uid);\n    }\n\n    /**\n      * @dev Cancels an ongoing exit, resetting the coin to not-exited.\n      * @notice Emits CoinReset event\n      * @param slot          The slot of the coin being reset\n      */\n    function cancelExit(uint64 slot) public {\n\n        require(coins[slot].exit.owner == msg.sender, \"Only coin's owner is allowed to cancel the exit\");\n        require(challenges[slot][0].txHash != 0x0, \"Can't cancel an exit with a current challenge\");\n        delete coins[slot].exit;\n        coins[slot].state = State.NOT_EXITING;\n        freeBond(msg.sender);\n        emit CoinReset(slot, coins[slot].owner);\n    }\n\n    ///////////////////////////////////////////////////////////////////////////////////\n    ////   Challenges\n    //////////////////////////////////////////////////////////////////////////////////\n\n   /**\n    * @dev Allows a user to challenge an exit, by providing a direct spend, in order to prevent the exit of an unauthorized token.\n    * @notice Emits CoinReset event\n    * @notice Sets coin's state to NOT_EXITING\n    * @param slot        The slot to be challenged\n    * @param txBytes     RLP encoded bytes of the transaction to make a Challenge After. See CheckAfter for conditions.\n    * @param proof       Bytes needed for the proof of inclusion of txBytes in the Plasma block\n    * @param signature   Signature of the txBytes proving the validity of it.\n    * @param blockNumber BlockNumber of the transaction to be checked for the inclusion proof\n    */\n    function challengeAfter(\n        uint64 slot,\n        bytes calldata txBytes,\n        bytes calldata proof,\n        bytes calldata signature,\n        uint256 blockNumber\n    ) external isState(slot, State.EXITING) {\n\n        checkAfter(slot, txBytes, proof, signature, blockNumber);\n        applyPenalties(slot);\n    }\n\n   /**\n    * @dev Checks a transaction to be a direct spend from an Exit\n    * @param slot        The slot to be challenged\n    * @param txBytes     RLP encoded bytes of the transaction to make a Challenge After. Should be a direct spend.\n    *                     Has to be the same slot, signed by the same owner and its' prevBlock equal to exit's exitBlock\n    * @param proof       Bytes needed for the proof of inclusion of txBytes in the Plasma block\n    * @param blockNumber BlockNumber of the transaction to be checked for the inclusion proof. Must be greater than exit.exitBlock.\n    */\n    function checkAfter(\n        uint64 slot,\n        bytes memory txBytes,\n        bytes memory proof,\n        bytes memory signature,\n        uint blockNumber\n    ) private view {\n\n        require(\n            coins[slot].exit.exitBlock < blockNumber,\n            \"Tx should be after the exitBlock\"\n        );\n\n        Transaction.TX memory txData = checkTxValid(txBytes, proof, blockNumber);\n        require(txData.hash.ecverify(signature, coins[slot].exit.owner), \"Invalid signature\");\n        require(txData.slot == slot, \"Tx is referencing another slot\");\n        require(txData.prevBlock == coins[slot].exit.exitBlock, \"Not a direct spend\");\n    }\n\n    /**\n    * @dev Allows a user to challenge an exit, by providing a previous double spend, in order to prevent the exit of an unauthorized token.\n    * @notice Emits CoinReset event\n    * @notice Sets coin's state to NOT_EXITING\n    * @param slot        The slot to be challenged\n    * @param txBytes     RLP encoded bytes of the transaction to make a Challenge Between. See CheckBetween for conditions.\n    * @param proof       Bytes needed for the proof of inclusion of txBytes in the Plasma block\n    * @param signature   Signature of the txBytes proving the validity of it.\n    * @param blockNumber BlockNumber of the transaction to be checked for the inclusion proof\n    */\n    function challengeBetween(\n        uint64 slot,\n        bytes calldata txBytes,\n        bytes calldata proof,\n        bytes calldata signature,\n        uint256 blockNumber\n    ) external isState(slot, State.EXITING) {\n\n        checkBetween(slot, txBytes, proof, signature, blockNumber);\n        applyPenalties(slot);\n    }\n\n   /**\n    * @dev Checks a transaction to be a previous double spend from an Exit\n    * @param slot        The slot to be challenged\n    * @param txBytes     RLP encoded bytes of the transaction to make a Challenge Between. Should be a direct spend of\n    *                    the exit.prevBlock. Has to be the same slot, signed by the same owner and the blockNumber\n    *                    Should be before exit.exitBlock.\n    * @param proof       Bytes needed for the proof of inclusion of txBytes in the Plasma block\n    * @param blockNumber BlockNumber of the transaction to be checked for the inclusion proof. Must be between exit.prevBlock\n    *                    and exit.exitBlock.\n    */\n    function checkBetween(\n        uint64 slot,\n        bytes memory txBytes,\n        bytes memory proof,\n        bytes memory signature,\n        uint blockNumber\n    ) private view {\n\n        require(\n            coins[slot].exit.exitBlock > blockNumber &&\n            coins[slot].exit.prevBlock < blockNumber,\n            \"Tx should be between the exit's blocks\"\n        );\n\n        Transaction.TX memory txData = checkTxValid(txBytes, proof, blockNumber);\n        require(txData.hash.ecverify(signature, coins[slot].exit.prevOwner), \"Invalid signature\");\n        require(txData.slot == slot, \"Tx is referencing another slot\");\n    }\n\n    /**\n     * @dev Apply penalties for un unlawful exit attempt\n     * @notice Set the coin's state to NOT_EXITING\n     * @notice Emits CoinReset event\n     * @notice The bond is given to the responder.\n     * @param slot                  The slot challenged\n     */\n    function applyPenalties(uint64 slot) private {\n\n        // Apply penalties and change state\n        slashBond(coins[slot].exit.owner, msg.sender);\n        coins[slot].state = State.NOT_EXITING;\n        delete coins[slot].exit;\n        emit CoinReset(slot, coins[slot].owner);\n    }\n\n  /**\n   * @dev Allows a user to create a Plasma Challenge targeting an exit in order to prevent the use of unauthorized tokens.\n   *      A plasma challenge is any previous transaction of the token that must be proved invalid by a direct spend of it.\n   * @notice Pushes a ChallengeLib.Challenge to challenges\n   * @notice Emits ChallengedExit event\n   * @notice A bond must be locked to prevent unlawful challenges. If the challenge is not answered, the bond is returned.\n   * @param slot        The slot to be challenged\n   * @param txBytes     RLP encoded bytes of the transaction to make a Challenge Before. See CheckBefore for conditions.\n   * @param proof       Bytes needed for the proof of inclusion of txBytes in the Plasma block\n   * @param blockNumber BlockNumber of the transaction to be checked for the inclusion proof\n   */\n    function challengeBefore(\n        uint64 slot,\n        bytes calldata txBytes,\n        bytes calldata proof,\n        uint256 blockNumber\n    ) external payable isBonded isState(slot, State.EXITING) {\n\n        checkBefore(slot, txBytes, proof, blockNumber);\n        setChallenged(slot, txBytes.getOwner(), blockNumber, txBytes.getHash());\n    }\n\n   /**\n    * @dev Checks a transaction against an exit for a Challenge Before\n    * @param slot        The slot to be challenged\n    * @param txBytes     RLP encoded bytes of the transaction to make a Challenge Before.\n    * @param proof       Bytes needed for the proof of inclusion of txBytes in the Plasma block\n    * @param blockNumber BlockNumber of the transaction to be checked for the inclusion proof. Must be previous to\n    *                    exit.prevBlock.\n    */\n    function checkBefore(\n        uint64 slot,\n        bytes memory txBytes,\n        bytes memory proof,\n        uint blockNumber\n    ) private view {\n\n        require(\n            blockNumber <= coins[slot].exit.prevBlock,\n            \"Tx should be before the exit's parent block\"\n        );\n\n        Transaction.TX memory txData = checkTxValid(txBytes, proof, blockNumber);\n        require(txData.slot == slot, \"Tx is referencing another slot\");\n    }\n\n   /**\n    * @dev Pushes a challenge for a given slot\n    * @notice Pushes a ChallengeLib.Challenge to challenges\n    * @notice Emits ChallengedExit event\n    * @notice The bond is given to the responder.\n    * @param slot                   The slot to be challenged\n    * @param owner                  The claimed owner of the challenge\n    * @param owner                  The claimed owner of the challenge\n    * @param challengingBlockNumber BlockNumber of the challenging transaction\n    * @param txHash                 The hash of the challenging transaction\n    */\n    function setChallenged(uint64 slot, address owner, uint256 challengingBlockNumber, bytes32 txHash) private {\n\n        // Require that the challenge is in the first half of the challenge window\n        require(block.timestamp <= coins[slot].exit.createdAt + CHALLENGE_WINDOW, \"Challenge windows is over\");\n\n        require(!challenges[slot].contains(txHash),\n            \"Transaction used for challenge already\");\n\n        // Need to save the exiting transaction's owner, to verify\n        // that the response is valid\n        challenges[slot].push(\n            ChallengeLib.Challenge({\n            exitor: coins[slot].exit.owner,\n            owner: owner,\n            challenger: msg.sender,\n            txHash: txHash,\n            challengingBlockNumber: challengingBlockNumber\n            })\n        );\n\n        emit ChallengedExit(slot, owner, txHash, challengingBlockNumber);\n    }\n\n    /**\n     * @dev Allows a user to respond to a Plasma Challenge targeting a funded channel's exit. For validity go to CheckResponse\n     * @notice Removes a ChallengeLib.Challenge to challenges\n     * @notice Emits RespondedExitChallenge event\n     * @notice The bond is given to the responder.\n     * @param slot                   The slot to be challenged\n     * @param challengingTxHash     Hash of the transaction being challenged with.\n     * @param respondingBlockNumber BlockNumber of the respondingTransaction to be checked for the inclusion proof.\n     * @param respondingTransaction Transaction signed by the challengingTxHash owner showing a spent\n     * @param proof                 Bytes needed for the proof of inclusion of respondingTransaction in the Plasma block\n     * @param signature             Signature of the respondingTransaction to prove its validity\n     */\n    function respondChallengeBefore(\n        uint64 slot,\n        bytes32 challengingTxHash,\n        uint256 respondingBlockNumber,\n        bytes calldata respondingTransaction,\n        bytes calldata proof,\n        bytes calldata signature\n    ) external {\n        // Check that the transaction being challenged exists\n        require(challenges[slot].contains(challengingTxHash), \"Responding to non existing challenge\");\n\n        // Get index of challenge in the challenges array\n        uint256 index = uint256(challenges[slot].indexOf(challengingTxHash));\n\n        checkResponse(slot, index, respondingBlockNumber, respondingTransaction, signature, proof);\n\n        // If the exit was actually challenged and responded, penalize the challenger and award the responder\n        slashBond(challenges[slot][index].challenger, msg.sender);\n\n        address challenger = challenges[slot][index].challenger;\n        challenges[slot].remove(challengingTxHash);\n        Coin storage coin = coins[slot];\n        emit RespondedExitChallenge(slot, coin.exit.owner, challenger);\n    }\n\n    /**\n     * @dev Checks a Plasma Challenge's response against an exit.\n     * @param slot        The slot to be challenged\n     * @param index       index of the ChallengeLib.Challenge challenge to respond to\n     * @param blockNumber BlockNumber of the transaction to be checked for the inclusion proof. Should be a future spend of\n     *                    the challenge.challengingBlockNumber but before the exit.exitBlock. Has to be the same slot,\n     *                    signed by the same owner.\n     * @param txBytes     RLP encoded bytes of the transaction to proof the spending of the challenge. Must\n     * @param proof       Bytes needed for the proof of inclusion of txBytes in the Plasma block\n     * @param signature   Signature of the txBytes to prove its validity. Must be signed by the challenged owner\n     */\n    function checkResponse(\n        uint64 slot,\n        uint256 index,\n        uint256 blockNumber,\n        bytes memory txBytes,\n        bytes memory signature,\n        bytes memory proof\n    ) private view {\n        Transaction.TX memory txData = checkTxValid(txBytes, proof, blockNumber);\n        require(txData.hash.ecverify(signature, challenges[slot][index].owner), \"Invalid signature\");\n        require(txData.slot == slot, \"Tx is referencing another slot\");\n        require(blockNumber > challenges[slot][index].challengingBlockNumber, \"BlockNumber must be after the chalenge\");\n        require(blockNumber <= coins[slot].exit.exitBlock, \"Cannot respond with a tx after the exit\");\n    }\n\n    ///////////////////////////////////////////////////////////////////////////////////\n    ////   Bonds\n    //////////////////////////////////////////////////////////////////////////////////\n\n    function freeBond(address from) private {\n\n        balances[from].bonded = balances[from].bonded.sub(BOND_AMOUNT);\n        balances[from].withdrawable = balances[from].withdrawable.add(BOND_AMOUNT);\n        emit FreedBond(from, BOND_AMOUNT);\n    }\n\n    function withdrawBonds() external {\n\n        // Can only withdraw bond if the msg.sender\n        uint256 amount = balances[msg.sender].withdrawable;\n        balances[msg.sender].withdrawable = 0; // no reentrancy!\n\n        msg.sender.transfer(amount);\n        emit WithdrewBonds(msg.sender, amount);\n    }\n\n    function slashBond(address from, address to) private {\n\n        balances[from].bonded = balances[from].bonded.sub(BOND_AMOUNT);\n        balances[to].withdrawable = balances[to].withdrawable.add(BOND_AMOUNT);\n        emit SlashedBond(from, to, BOND_AMOUNT);\n    }\n\n    ///////////////////////////////////////////////////////////////////////////////////\n    ////   Proofs\n    //////////////////////////////////////////////////////////////////////////////////\n\n   /**\n    * @dev Verifies that consecutive two transaction involving the same coin are valid\n    * @notice If exitingTxBytes corresponds to a deposit transaction, this function fails\n    * @param prevTxBytes    The RLP-encoded transaction involving a coin which took place directly before exitingTxBytes\n    * @param exitingTxBytes The RLP-encoded transaction involving a coin which an exiting owner of the coin claims to be the latest\n    * @param prevTxInclusionProof    An inclusion proof of prevTx\n    * @param exitingTxInclusionProof An inclusion proof of exitingTx\n    * @param signature The signature of the exitingTxBytes by the coin owner indicated in prevTx.\n    * @param blocks An array of two block numbers, at index 0, the block containing the prevTx and at index 1, the block containing\n    *        the exitingTx\n    */\n    function checkBothIncludedAndSigned(\n        bytes memory prevTxBytes, bytes memory exitingTxBytes,\n        bytes memory prevTxInclusionProof, bytes memory exitingTxInclusionProof,\n        bytes memory signature,\n        uint256[2] memory blocks\n    ) public view {\n\n        require(blocks[0] < blocks[1], \"Block on the first index must be the earlier of the 2 blocks\");\n\n        Transaction.TX memory prevTxData    = checkTxValid(prevTxBytes, prevTxInclusionProof, blocks[0]);\n        Transaction.TX memory exitingTxData = checkTxValid(exitingTxBytes, exitingTxInclusionProof, blocks[1]);\n\n        // Both transactions need to be referring to the same slot\n        require(exitingTxData.slot == prevTxData.slot,\"Slot on the ExitingTx does not match that on the prevTx\");\n\n        // The exiting transaction must be signed by the previous transaciton's receiver\n        require(exitingTxData.hash.ecverify(signature, prevTxData.receiver), \"Invalid signature\");\n    }\n\n    //Non-returning wrapper for checkTxValid\n    function checkTX(bytes memory txBytes, bytes memory proof, uint256 blockNumber) public view returns (bool) {\n\n        checkTxValid(txBytes, proof, blockNumber);\n        return true;\n    }\n\n    /**\n     * @dev Verifies that consecutive two transaction involving the same coin are valid\n     * @notice If exitingTxBytes corresponds to a deposit transaction, this function fails\n     * @param txBytes     The RLP-encoded transaction involving a coin\n     * @param proof       An inclusion proof of txBytes\n     * @param blockNumber The blockNumber that included txBytes\n     */\n    function checkTxValid(\n        bytes memory txBytes,\n        bytes memory proof,\n        uint256 blockNumber\n    ) private view returns(Transaction.TX memory) {\n\n        RLPReader.RLPItem[] memory rlpTx = txBytes.toRLPItems();\n\n        if(rlpTx.isBasicTransaction()) {\n            //Basic transactions only validate are included\n            Transaction.TX memory txData = rlpTx.getBasicTx(txBytes);\n            checkHashIncluded(txData.slot, txData.hash, blockNumber, proof);\n            return txData;\n\n        } else if(rlpTx.isAtomicSwap()) {\n            ChildBlock memory secretRevealingBlock = secretRevealingChain[blockNumber];\n\n            if(secretRevealingBlock.root != 0) {\n                Transaction.AtomicSwapTX[] memory txsData = rlpTx.getAtomicSwapTxs();\n\n                //Check signature B -> A. A -> B signature is checked in outside if this function\n                require(txsData[1].hash.ecverify(txsData[1].signature, txsData[1].prevOwner), \"Invalid signature B in atomic swap\");\n\n                RLPReader.RLPItem[] memory proofs = proof.toRLPItems();\n                require(proofs.length == 4, \"4 proof must be submitted for an atomic swap\");\n                checkHashIncluded(txsData[0].slot, txsData[0].hash, blockNumber, proofs[0].toBytes());\n                checkHashIncluded(txsData[1].slot, txsData[1].hash, blockNumber, proofs[1].toBytes());\n                checkHashIncludedSecret(txsData[0].slot, txsData[0].secret, blockNumber, proofs[2].toBytes());\n                checkHashIncludedSecret(txsData[1].slot, txsData[1].secret, blockNumber, proofs[3].toBytes());\n\n                return txsData[0].toBasicTx();\n            } else {\n                ChildBlock memory childBlock = childChain[blockNumber];\n                if((block.timestamp - childBlock.createdAt) > SECRET_REVEALING_PERIOD) {\n                    revert(\"Secret was never revealed for this block, swap is invalid\");\n                } else {\n                    revert(\"Secret has not yet been revealed, there is still time to commit the transaction\");\n                }\n            }\n        } else {\n            revert(\"txBytes do not correspond neither to basic TX nor to Atomic swap\");\n        }\n    }\n\n   /**\n    * @dev Checks whether a transactionHash was submitted in a block by doing a Merkle Proof\n    * @param slot        Slot where the transaction was included\n    * @param txHash      Hash to be checked was included\n    * @param blockNumber The blockNumber that included txHash\n    * @param proof       An inclusion proof of txHash\n    */\n    function checkHashIncluded(\n        uint64 slot,\n        bytes32 txHash,\n        uint256 blockNumber,\n        bytes memory proof\n    ) private view {\n        bytes32 root = childChain[blockNumber].root;\n\n        if (blockNumber % childBlockInterval != 0) {\n            // Check against block root for deposit block numbers\n            require(txHash == root, \"Transaction hash does not match rootHash\");\n        } else {\n            // Check against merkle tree for all other block numbers\n            require(\n                checkMembership(\n                    txHash,\n                    root,\n                    slot,\n                    proof\n                ),\n                \"Tx not included in claimed block\"\n            );\n        }\n    }\n\n    /**\n     * @dev Checks whether a secret was included in a secret revealing block by doing a Merkle Proof\n     * @param slot        Slot where the transaction was included\n     * @param secret      Secret to be included\n     * @param blockNumber The blockNumber that included txBytes\n     * @param proof       An inclusion proof of txBytes\n     */\n    function checkHashIncludedSecret(\n        uint64 slot,\n        bytes32 secret,\n        uint256 blockNumber,\n        bytes memory proof\n    ) private view {\n\n        bytes32 root = secretRevealingChain[blockNumber].root;\n        require(blockNumber % childBlockInterval == 0, \"Trying to validate an atomic swap for a deposit block\");\n        // Check against merkle tree for all other block numbers\n        require(\n            checkMembership(\n                secret,\n                root,\n                slot,\n                proof\n            ),\n            \"Tx secret not included in claimed block\"\n        );\n    }\n\n    //public wrapper for SMT.checkMembership\n    function checkMembership(\n        bytes32 txHash,\n        bytes32 root,\n        uint64 slot,\n        bytes memory proof\n    ) public view returns (bool) {\n\n        return smt.checkMembership(\n            txHash,\n            root,\n            slot,\n            proof);\n    }\n\n    //Public checkInclusion for validation\n    function checkInclusion(\n        bytes32 txHash,\n        uint256 blockNumber,\n        uint64 slot,\n        bytes memory proof\n    ) public view returns (bool) {\n\n        ChildBlock memory childBlock = childChain[blockNumber];\n        if (blockNumber % childBlockInterval != 0) {\n            return txHash == childBlock.root && keccak256(abi.encodePacked(slot)) == childBlock.root;\n        } else {\n            return checkMembership(txHash, childBlock.root, slot, proof);\n        }\n    }\n\n    ///////////////////////////////////////////////////////////////////////////////////\n    ////   Getters\n    //////////////////////////////////////////////////////////////////////////////////\n\n    function getPlasmaCoin(uint64 slot) external view returns(uint256, uint256, address, State, address) {\n\n        Coin memory c = coins[slot];\n        return (c.uid, c.depositBlock, c.owner, c.state, c.contractAddress);\n    }\n\n    function getChallenge(uint64 slot, bytes32 txHash) external view returns(address, address, bytes32, uint256) {\n\n        uint256 index = uint256(challenges[slot].indexOf(txHash));\n        ChallengeLib.Challenge memory c = challenges[slot][index];\n        return (c.owner, c.challenger, c.txHash, c.challengingBlockNumber);\n    }\n\n    function getChallenges(uint64 slot) external view returns(bytes32[] memory) {\n\n        uint length = challenges[slot].length;\n        bytes32[] memory slotChallenges = new bytes32[](length);\n        for (uint i = 0; i < length; i++) {\n            slotChallenges[i] = challenges[slot][i].txHash;\n        }\n\n        return slotChallenges;\n    }\n\n    function getExit(uint64 slot) external view returns(address, uint256, uint256, State, uint256) {\n        Exit memory e = coins[slot].exit;\n        return (e.owner, e.prevBlock, e.exitBlock, coins[slot].state, e.createdAt);\n    }\n\n    function getBlock(uint256 blockNumber) public view returns (bytes32, uint) {\n        return(childChain[blockNumber].root, childChain[blockNumber].createdAt);\n    }\n\n    function getSecretBlock(uint256 blockNumber) public view returns (bytes32, uint) {\n        return(secretRevealingChain[blockNumber].root, secretRevealingChain[blockNumber].createdAt);\n    }\n\n    function getBalance() external view returns(uint256, uint256) {\n        // Can only withdraw bond if the msg.sender\n        return (balances[msg.sender].bonded, balances[msg.sender].withdrawable);\n    }\n\n    ///////////////////////////////////////////////////////////////////////////////////\n    ////   Modifiers\n    //////////////////////////////////////////////////////////////////////////////////\n\n    modifier isValidator() {\n        require(vmc.checkValidator(msg.sender), \"Sender is not a Validator\");\n        _;\n    }\n\n    modifier isTokenApproved(address _address) {\n        require(vmc.allowedTokens(_address), \"Contract address is not approved for deposits\");\n        _;\n    }\n\n    modifier isBonded() {\n        require(msg.value == BOND_AMOUNT, \"Transaction must be accompanied by the BOND AMOUNT\");\n\n        // Save challenger's bond\n        balances[msg.sender].bonded = balances[msg.sender].bonded.add(msg.value);\n        _;\n    }\n\n    modifier isState(uint64 slot, State state) {\n        require(coins[slot].state == state, \"Wrong coin state\");\n        _;\n    }\n\n}\n",
  "sourcePath": "/home/juanfra/Documents/ITBA/PF/Plasma-Cash-RootChain/contracts/PlasmaCore/RootChain.sol",
  "compiler": {
    "name": "solc",
    "version": "0.5.2+commit.1df8f40c.Emscripten.clang"
  },
  "schemaVersion": "3.0.16",
  "updatedAt": "2019-11-11T16:36:47.852Z",
  "devdoc": {
    "methods": {
      "cancelExit(uint64)": {
        "details": "Cancels an ongoing exit, resetting the coin to not-exited.",
        "params": {
          "slot": "The slot of the coin being reset"
        }
      },
      "challengeAfter(uint64,bytes,bytes,bytes,uint256)": {
        "details": "Allows a user to challenge an exit, by providing a direct spend, in order to prevent the exit of an unauthorized token.",
        "params": {
          "blockNumber": "BlockNumber of the transaction to be checked for the inclusion proof",
          "proof": "Bytes needed for the proof of inclusion of txBytes in the Plasma block",
          "signature": "Signature of the txBytes proving the validity of it.",
          "slot": "The slot to be challenged",
          "txBytes": "RLP encoded bytes of the transaction to make a Challenge After. See CheckAfter for conditions."
        }
      },
      "challengeBefore(uint64,bytes,bytes,uint256)": {
        "details": "Allows a user to create a Plasma Challenge targeting an exit in order to prevent the use of unauthorized tokens.     A plasma challenge is any previous transaction of the token that must be proved invalid by a direct spend of it.",
        "params": {
          "blockNumber": "BlockNumber of the transaction to be checked for the inclusion proof",
          "proof": "Bytes needed for the proof of inclusion of txBytes in the Plasma block",
          "slot": "The slot to be challenged",
          "txBytes": "RLP encoded bytes of the transaction to make a Challenge Before. See CheckBefore for conditions."
        }
      },
      "challengeBetween(uint64,bytes,bytes,bytes,uint256)": {
        "details": "Allows a user to challenge an exit, by providing a previous double spend, in order to prevent the exit of an unauthorized token.",
        "params": {
          "blockNumber": "BlockNumber of the transaction to be checked for the inclusion proof",
          "proof": "Bytes needed for the proof of inclusion of txBytes in the Plasma block",
          "signature": "Signature of the txBytes proving the validity of it.",
          "slot": "The slot to be challenged",
          "txBytes": "RLP encoded bytes of the transaction to make a Challenge Between. See CheckBetween for conditions."
        }
      },
      "checkBothIncludedAndSigned(bytes,bytes,bytes,bytes,bytes,uint256[2])": {
        "details": "Verifies that consecutive two transaction involving the same coin are valid",
        "params": {
          "blocks": "An array of two block numbers, at index 0, the block containing the prevTx and at index 1, the block containing       the exitingTx",
          "exitingTxBytes": "The RLP-encoded transaction involving a coin which an exiting owner of the coin claims to be the latest",
          "exitingTxInclusionProof": "An inclusion proof of exitingTx",
          "prevTxBytes": "The RLP-encoded transaction involving a coin which took place directly before exitingTxBytes",
          "prevTxInclusionProof": "An inclusion proof of prevTx",
          "signature": "The signature of the exitingTxBytes by the coin owner indicated in prevTx."
        }
      },
      "finalizeExit(uint64)": {
        "details": "Finalizes an exit, i.e. puts the exiting coin into the EXITED state and withdraws it,     provided the exit has matured and has not been successfully challenged, else if a challenge is present,     resets the coin and awards the challenger with the bond.",
        "params": {
          "slot": "The slot of the coin being exited"
        }
      },
      "respondChallengeBefore(uint64,bytes32,uint256,bytes,bytes,bytes)": {
        "details": "Allows a user to respond to a Plasma Challenge targeting a funded channel's exit. For validity go to CheckResponse",
        "params": {
          "challengingTxHash": "Hash of the transaction being challenged with.",
          "proof": "Bytes needed for the proof of inclusion of respondingTransaction in the Plasma block",
          "respondingBlockNumber": "BlockNumber of the respondingTransaction to be checked for the inclusion proof.",
          "respondingTransaction": "Transaction signed by the challengingTxHash owner showing a spent",
          "signature": "Signature of the respondingTransaction to prove its validity",
          "slot": "The slot to be challenged"
        }
      },
      "startDepositExit(uint64)": {
        "details": "Allows and exit of a deposit transaction",
        "params": {
          "slot": "The slot of the coin being exited"
        }
      },
      "startExit(uint64,bytes,bytes,bytes,bytes,bytes,uint256[2])": {
        "details": "Allows and exit of a non-deposit transaction. See `checkBothIncludedAndSigned` for conditions",
        "params": {
          "blocks": "The blocks (array of size 2) corresponding to prevTxBytes and exitingTxBytes in that order                               to validate their correct inclusion",
          "exitingTxBytes": "The bytes transaction to be exited. Needs to be the last valid transaction of the                               slot in order not to be able to be challenged. Owner of it must be msg.sender.",
          "exitingTxInclusionProof": "An inclusion proof of `exitingTxBytes`",
          "prevTxBytes": "The bytes corresponding to the immediate previous transaction to exitingTxBytes.",
          "prevTxInclusionProof": "An inclusion proof of `prevTxBytes`",
          "signature": "Signature of exitingTxBytes. Must be signed by the recipient of prevTxBytes.",
          "slot": "The slot of the coin being exited"
        }
      },
      "submitBlock(uint256,bytes32)": {
        "details": "called by a Validator to append a Plasma block to the Plasma chain",
        "params": {
          "blockNumber": "Number of the block to submit",
          "root": "The transaction root hash of the Plasma block being added"
        }
      },
      "submitSecretBlock(uint256,bytes32)": {
        "details": "called by a Validator to append a Secret Revealing Plasma block to the Plasma chain. It has to be withing     SECRET_REVEALING_PERIOD from the submission of the blockNumber block.",
        "params": {
          "blockNumber": "Number of the block corresponding to this secretBlock",
          "root": "The transaction root hash of the Plasma block being added"
        }
      }
    }
  },
  "userdoc": {
    "methods": {
      "cancelExit(uint64)": {
        "notice": "Emits CoinReset event"
      },
      "challengeAfter(uint64,bytes,bytes,bytes,uint256)": {
        "notice": "Emits CoinReset eventSets coin's state to NOT_EXITING"
      },
      "challengeBefore(uint64,bytes,bytes,uint256)": {
        "notice": "Pushes a ChallengeLib.Challenge to challengesEmits ChallengedExit eventA bond must be locked to prevent unlawful challenges. If the challenge is not answered, the bond is returned."
      },
      "challengeBetween(uint64,bytes,bytes,bytes,uint256)": {
        "notice": "Emits CoinReset eventSets coin's state to NOT_EXITING"
      },
      "checkBothIncludedAndSigned(bytes,bytes,bytes,bytes,bytes,uint256[2])": {
        "notice": "If exitingTxBytes corresponds to a deposit transaction, this function fails"
      },
      "finalizeExit(uint64)": {
        "notice": "Changes coin's state to EXITEDEmits FinalizedExit event if no challenges are presentEmits Withdrew event if no challenges are presentEmits CoinReset event if there are challenges present"
      },
      "getPlasmaCoin(uint64)": {
        "notice": "//////////////////////////////////////////////////////////////////////////////// /   Getters ///////////////////////////////////////////////////////////////////////////////"
      },
      "onERC721Received(address,address,uint256,bytes)": {
        "notice": "//////////////////////////////////////////////////////////////////////////////// /   Deposit ///////////////////////////////////////////////////////////////////////////////"
      },
      "respondChallengeBefore(uint64,bytes32,uint256,bytes,bytes,bytes)": {
        "notice": "Removes a ChallengeLib.Challenge to challengesEmits RespondedExitChallenge eventThe bond is given to the responder."
      },
      "startDepositExit(uint64)": {
        "notice": "Emits StartedExit event"
      },
      "startExit(uint64,bytes,bytes,bytes,bytes,bytes,uint256[2])": {
        "notice": "Emits StartedExit eventmust be bonded with BOND_AMOUNT"
      },
      "submitBlock(uint256,bytes32)": {
        "notice": "Emits SubmittedBlock event"
      },
      "submitSecretBlock(uint256,bytes32)": {
        "notice": "Emits SubmittedSecretBlock event"
      }
    }
  }
}