{
  "contractName": "RPSExample",
  "abi": [
    {
      "anonymous": false,
      "inputs": [
        {
          "indexed": false,
          "name": "gameId",
          "type": "uint256"
        },
        {
          "indexed": true,
          "name": "player",
          "type": "address"
        },
        {
          "indexed": true,
          "name": "opponent",
          "type": "address"
        },
        {
          "indexed": false,
          "name": "gamesToPlay",
          "type": "uint256"
        }
      ],
      "name": "RPSRequested",
      "type": "event",
      "signature": "0x593091d290f012d7cc3deab96c9b6710b589c8f300b09827c1f7c6be3ac853a2"
    },
    {
      "anonymous": false,
      "inputs": [
        {
          "indexed": false,
          "name": "gameId",
          "type": "uint256"
        },
        {
          "indexed": true,
          "name": "player",
          "type": "address"
        },
        {
          "indexed": true,
          "name": "opponent",
          "type": "address"
        },
        {
          "indexed": false,
          "name": "gamesToPlay",
          "type": "uint256"
        }
      ],
      "name": "RPSStarted",
      "type": "event",
      "signature": "0x384c1e922a3db0914bcccfb9f43e5a3332dbf0fffe3d48de0acf74f2ba70c3e1"
    },
    {
      "constant": true,
      "inputs": [
        {
          "name": "state",
          "type": "bytes"
        }
      ],
      "name": "validateStartState",
      "outputs": [],
      "payable": false,
      "stateMutability": "pure",
      "type": "function",
      "signature": "0x08487b52"
    },
    {
      "constant": true,
      "inputs": [
        {
          "name": "oldState",
          "type": "bytes"
        },
        {
          "name": "turnNum",
          "type": "uint256"
        },
        {
          "name": "newState",
          "type": "bytes"
        }
      ],
      "name": "validateTurnTransition",
      "outputs": [],
      "payable": false,
      "stateMutability": "pure",
      "type": "function",
      "signature": "0x8cfd80d8"
    },
    {
      "constant": true,
      "inputs": [
        {
          "name": "startState",
          "type": "bytes"
        },
        {
          "name": "firstTurn",
          "type": "bytes"
        }
      ],
      "name": "validateInitialTransition",
      "outputs": [],
      "payable": false,
      "stateMutability": "pure",
      "type": "function",
      "signature": "0xbe8290e2"
    },
    {
      "constant": true,
      "inputs": [
        {
          "name": "state",
          "type": "bytes"
        },
        {
          "name": "turnNum",
          "type": "uint256"
        },
        {
          "name": "player",
          "type": "address"
        },
        {
          "name": "opponent",
          "type": "address"
        }
      ],
      "name": "winner",
      "outputs": [
        {
          "name": "",
          "type": "address"
        }
      ],
      "payable": false,
      "stateMutability": "pure",
      "type": "function",
      "signature": "0x9608d1d3"
    },
    {
      "constant": true,
      "inputs": [
        {
          "name": "state",
          "type": "bytes"
        },
        {
          "name": "",
          "type": "uint256"
        }
      ],
      "name": "isOver",
      "outputs": [
        {
          "name": "",
          "type": "bool"
        }
      ],
      "payable": false,
      "stateMutability": "pure",
      "type": "function",
      "signature": "0xd2f6722c"
    },
    {
      "constant": true,
      "inputs": [
        {
          "name": "",
          "type": "bytes"
        },
        {
          "name": "turnNum",
          "type": "uint256"
        },
        {
          "name": "player",
          "type": "address"
        },
        {
          "name": "opponent",
          "type": "address"
        }
      ],
      "name": "mover",
      "outputs": [
        {
          "name": "",
          "type": "address"
        }
      ],
      "payable": false,
      "stateMutability": "pure",
      "type": "function",
      "signature": "0xca62b96e"
    },
    {
      "constant": false,
      "inputs": [
        {
          "name": "gameId",
          "type": "uint256"
        },
        {
          "name": "state",
          "type": "bytes"
        },
        {
          "name": "player",
          "type": "address"
        },
        {
          "name": "opponent",
          "type": "address"
        }
      ],
      "name": "eventRequestState",
      "outputs": [],
      "payable": false,
      "stateMutability": "nonpayable",
      "type": "function",
      "signature": "0x32a4b4eb"
    },
    {
      "constant": false,
      "inputs": [
        {
          "name": "gameId",
          "type": "uint256"
        },
        {
          "name": "state",
          "type": "bytes"
        },
        {
          "name": "player",
          "type": "address"
        },
        {
          "name": "opponent",
          "type": "address"
        }
      ],
      "name": "eventStartState",
      "outputs": [],
      "payable": false,
      "stateMutability": "nonpayable",
      "type": "function",
      "signature": "0xafb531c1"
    }
  ],
  "bytecode": "0x608060405234801561001057600080fd5b50612400806100206000396000f3fe608060405234801561001057600080fd5b50600436106100a5576000357c010000000000000000000000000000000000000000000000000000000090048063afb531c111610078578063afb531c11461050b578063be8290e214610610578063ca62b96e14610762578063d2f6722c146108a7576100a5565b806308487b52146100aa57806332a4b4eb146101655780638cfd80d81461026a5780639608d1d3146103c6575b600080fd5b610163600480360360208110156100c057600080fd5b81019080803590602001906401000000008111156100dd57600080fd5b8201836020820111156100ef57600080fd5b8035906020019184600183028401116401000000008311171561011157600080fd5b91908080601f016020809104026020016040519081016040528093929190818152602001838380828437600081840152601f19601f820116905080830192505050505050509192919290505050610984565b005b6102686004803603608081101561017b57600080fd5b8101908080359060200190929190803590602001906401000000008111156101a257600080fd5b8201836020820111156101b457600080fd5b803590602001918460018302840111640100000000831117156101d657600080fd5b91908080601f016020809104026020016040519081016040528093929190818152602001838380828437600081840152601f19601f820116905080830192505050505050509192919290803573ffffffffffffffffffffffffffffffffffffffff169060200190929190803573ffffffffffffffffffffffffffffffffffffffff169060200190929190505050610b44565b005b6103c46004803603606081101561028057600080fd5b810190808035906020019064010000000081111561029d57600080fd5b8201836020820111156102af57600080fd5b803590602001918460018302840111640100000000831117156102d157600080fd5b91908080601f016020809104026020016040519081016040528093929190818152602001838380828437600081840152601f19601f820116905080830192505050505050509192919290803590602001909291908035906020019064010000000081111561033e57600080fd5b82018360208201111561035057600080fd5b8035906020019184600183028401116401000000008311171561037257600080fd5b91908080601f016020809104026020016040519081016040528093929190818152602001838380828437600081840152601f19601f820116905080830192505050505050509192919290505050610bed565b005b6104c9600480360360808110156103dc57600080fd5b81019080803590602001906401000000008111156103f957600080fd5b82018360208201111561040b57600080fd5b8035906020019184600183028401116401000000008311171561042d57600080fd5b91908080601f016020809104026020016040519081016040528093929190818152602001838380828437600081840152601f19601f82011690508083019250505050505050919291929080359060200190929190803573ffffffffffffffffffffffffffffffffffffffff169060200190929190803573ffffffffffffffffffffffffffffffffffffffff169060200190929190505050610c48565b604051808273ffffffffffffffffffffffffffffffffffffffff1673ffffffffffffffffffffffffffffffffffffffff16815260200191505060405180910390f35b61060e6004803603608081101561052157600080fd5b81019080803590602001909291908035906020019064010000000081111561054857600080fd5b82018360208201111561055a57600080fd5b8035906020019184600183028401116401000000008311171561057c57600080fd5b91908080601f016020809104026020016040519081016040528093929190818152602001838380828437600081840152601f19601f820116905080830192505050505050509192919290803573ffffffffffffffffffffffffffffffffffffffff169060200190929190803573ffffffffffffffffffffffffffffffffffffffff169060200190929190505050610cd2565b005b6107606004803603604081101561062657600080fd5b810190808035906020019064010000000081111561064357600080fd5b82018360208201111561065557600080fd5b8035906020019184600183028401116401000000008311171561067757600080fd5b91908080601f016020809104026020016040519081016040528093929190818152602001838380828437600081840152601f19601f820116905080830192505050505050509192919290803590602001906401000000008111156106da57600080fd5b8201836020820111156106ec57600080fd5b8035906020019184600183028401116401000000008311171561070e57600080fd5b91908080601f016020809104026020016040519081016040528093929190818152602001838380828437600081840152601f19601f820116905080830192505050505050509192919290505050610d7b565b005b6108656004803603608081101561077857600080fd5b810190808035906020019064010000000081111561079557600080fd5b8201836020820111156107a757600080fd5b803590602001918460018302840111640100000000831117156107c957600080fd5b91908080601f016020809104026020016040519081016040528093929190818152602001838380828437600081840152601f19601f82011690508083019250505050505050919291929080359060200190929190803573ffffffffffffffffffffffffffffffffffffffff169060200190929190803573ffffffffffffffffffffffffffffffffffffffff169060200190929190505050610ffe565b604051808273ffffffffffffffffffffffffffffffffffffffff1673ffffffffffffffffffffffffffffffffffffffff16815260200191505060405180910390f35b61096a600480360360408110156108bd57600080fd5b81019080803590602001906401000000008111156108da57600080fd5b8201836020820111156108ec57600080fd5b8035906020019184600183028401116401000000008311171561090e57600080fd5b91908080601f016020809104026020016040519081016040528093929190818152602001838380828437600081840152601f19601f82011690508083019250505050505050919291929080359060200190929190505050611025565b604051808215151515815260200191505060405180910390f35b606061099761099283611069565b611097565b905060038151141515610a12576040517f08c379a00000000000000000000000000000000000000000000000000000000081526004018080602001828103825260128152602001807f496e76616c696420524c50206c656e677468000000000000000000000000000081525060200191505060405180910390fd5b60016002610a37836000815181101515610a2857fe5b90602001906020020151611174565b811515610a4057fe5b06141515610a99576040517f08c379a00000000000000000000000000000000000000000000000000000000081526004018080602001828103825260268152602001806122ad6026913960400191505060405180910390fd5b6000610abc826001815181101515610aad57fe5b90602001906020020151611174565b148015610ae957506000610ae7826002815181101515610ad857fe5b90602001906020020151611174565b145b1515610b40576040517f08c379a00000000000000000000000000000000000000000000000000000000081526004018080602001828103825260248152602001806122666024913960400191505060405180910390fd5b5050565b6000610b77610b5a610b5586611069565b611097565b6000815181101515610b6857fe5b90602001906020020151611174565b90508173ffffffffffffffffffffffffffffffffffffffff168373ffffffffffffffffffffffffffffffffffffffff167f593091d290f012d7cc3deab96c9b6710b589c8f300b09827c1f7c6be3ac853a28784604051808381526020018281526020019250505060405180910390a35050505050565b6000821415610c0557610c008382610d7b565b610c43565b6000600283811515610c1357fe5b061415610c3357610c2e8382610c298486611025565b6111e7565b610c42565b610c41838260018514611ae3565b5b5b505050565b6000610c548585611025565b15610cc5576060610c6c610c6787611069565b611097565b9050610c8f816002815181101515610c8057fe5b90602001906020020151611174565b610cb0826001815181101515610ca157fe5b90602001906020020151611174565b11610cbb5782610cbd565b835b915050610cca565b600090505b949350505050565b6000610d05610ce8610ce386611069565b611097565b6000815181101515610cf657fe5b90602001906020020151611174565b90508173ffffffffffffffffffffffffffffffffffffffff168373ffffffffffffffffffffffffffffffffffffffff167f384c1e922a3db0914bcccfb9f43e5a3332dbf0fffe3d48de0acf74f2ba70c3e18784604051808381526020018281526020019250505060405180910390a35050505050565b6060610d8e610d8984611069565b611097565b90506060610da3610d9e84611069565b611097565b905060038151141515610e1e576040517f08c379a000000000000000000000000000000000000000000000000000000000815260040180806020018281038252601d8152602001807f496e76616c6964206669727374207475726e20524c50206c656e67746800000081525060200191505060405180910390fd5b610e3f816000815181101515610e3057fe5b90602001906020020151611174565b610e60836000815181101515610e5157fe5b90602001906020020151611174565b141515610eb8576040517f08c379a000000000000000000000000000000000000000000000000000000000815260040180806020018281038252602b8152602001806121e9602b913960400191505060405180910390fd5b6000610edb826001815181101515610ecc57fe5b90602001906020020151611174565b148015610f0857506000610f06826002815181101515610ef757fe5b90602001906020020151611174565b145b1515610f5f576040517f08c379a00000000000000000000000000000000000000000000000000000000081526004018080602001828103825260258152602001806121826025913960400191505060405180910390fd5b6000610f82826002815181101515610f7357fe5b90602001906020020151611174565b14151515610ff8576040517f08c379a000000000000000000000000000000000000000000000000000000000815260040180806020018281038252600c8152602001807f496e76616c69642068617368000000000000000000000000000000000000000081525060200191505060405180910390fd5b50505050565b60008060028581151561100d57fe5b0614611019578161101b565b825b9050949350505050565b6000606061103a61103585611069565b611097565b9050600061105f82600081518110151561105057fe5b90602001906020020151611174565b1491505092915050565b61107161214d565b600060208301905060408051908101604052808451815260200182815250915050919050565b60606110a282611f52565b15156110ad57600080fd5b60006110b883611fa0565b9050806040519080825280602002602001820160405280156110f457816020015b6110e1612167565b8152602001906001900390816110d95790505b50915060006111068460200151612011565b8460200151019050600080600090505b8381101561116b576111278361209a565b9150604080519081016040528083815260200184815250858281518110151561114c57fe5b9060200190602002018190525081830192508080600101915050611116565b50505050919050565b600080826000015111801561118e57506021826000015111155b151561119957600080fd5b60006111a88360200151612011565b905060008184600001510390506000808386602001510190508051915060208310156111db57826020036101000a820491505b81945050505050919050565b60606111fa6111f585611069565b611097565b9050606061120f61120a85611069565b611097565b905082156112955760078151141515611290576040517f08c379a000000000000000000000000000000000000000000000000000000000815260040180806020018281038252601e8152602001807f496e76616c696420656e64696e67207475726e20524c50206c656e677468000081525060200191505060405180910390fd5b61130f565b6008815114151561130e576040517f08c379a000000000000000000000000000000000000000000000000000000000815260040180806020018281038252601e8152602001807f496e76616c696420656e64696e67207475726e20524c50206c656e677468000081525060200191505060405180910390fd5b5b600061133283600081518110151561132357fe5b90602001906020020151611174565b9050600061135784600181518110151561134857fe5b90602001906020020151611174565b9050600061137c85600281518110151561136d57fe5b90602001906020020151611174565b905060006113a186600381518110151561139257fe5b90602001906020020151611174565b600102905060006113c98760048151811015156113ba57fe5b90602001906020020151611174565b905060006113ee8760008151811015156113df57fe5b90602001906020020151611174565b9050600061141388600181518110151561140457fe5b90602001906020020151611174565b9050600061143889600281518110151561142957fe5b90602001906020020151611174565b9050600061145d8a600381518110151561144e57fe5b90602001906020020151611174565b600102905060006114858b600481518110151561147657fe5b90602001906020020151611174565b905060006114aa8c600581518110151561149b57fe5b90602001906020020151611174565b905060006114cf8d60068151811015156114c057fe5b90602001906020020151611174565b90508389141515611548576040517f08c379a000000000000000000000000000000000000000000000000000000000815260040180806020018281038252601e8152602001807f486173684465636973696f6e2073686f756c64206e6f74206368616e6765000081525060200191505060405180910390fd5b8181604051602001808381526020018281526020019250505060405160208183030381529060405280519060200120891415156115d0576040517f08c379a00000000000000000000000000000000000000000000000000000000081526004018080602001828103825260258152602001806122d36025913960400191505060405180910390fd5b828814151561162a576040517f08c379a00000000000000000000000000000000000000000000000000000000081526004018080602001828103825260218152602001806121c86021913960400191505060405180910390fd5b600382101515611685576040517f08c379a000000000000000000000000000000000000000000000000000000000815260040180806020018281038252602381526020018061228a6023913960400191505060405180910390fd5b818314156117a057868c1415156116e7576040517f08c379a000000000000000000000000000000000000000000000000000000000815260040180806020018281038252602481526020018061238e6024913960400191505060405180910390fd5b858b141515611741576040517f08c379a00000000000000000000000000000000000000000000000000000000081526004018080602001828103825260268152602001806122146026913960400191505060405180910390fd5b848a14151561179b576040517f08c379a00000000000000000000000000000000000000000000000000000000081526004018080602001828103825260288152602001806123666028913960400191505060405180910390fd5b611a4c565b6000831480156117b05750600282145b806117c757506001831480156117c65750600082145b5b806117de57506002831480156117dd5750600182145b5b1561191957600187018c14151561185d576040517f08c379a000000000000000000000000000000000000000000000000000000000815260040180806020018281038252601b8152602001807f47616d6573546f506c61792073686f756c64206465637265617365000000000081525060200191505060405180910390fd5b600186018b1415156118ba576040517f08c379a00000000000000000000000000000000000000000000000000000000081526004018080602001828103825260218152602001806121a76021913960400191505060405180910390fd5b848a141515611914576040517f08c379a000000000000000000000000000000000000000000000000000000000815260040180806020018281038252602c81526020018061223a602c913960400191505060405180910390fd5b611a4b565b600187018c141515611993576040517f08c379a000000000000000000000000000000000000000000000000000000000815260040180806020018281038252601b8152602001807f47616d6573546f506c61792073686f756c64206465637265617365000000000081525060200191505060405180910390fd5b858b1415156119ed576040517f08c379a000000000000000000000000000000000000000000000000000000000815260040180806020018281038252602b815260200180612319602b913960400191505060405180910390fd5b600185018a141515611a4a576040517f08c379a00000000000000000000000000000000000000000000000000000000081526004018080602001828103825260238152602001806123b26023913960400191505060405180910390fd5b5b5b8e1515611ad0576000611a768e6007815181101515611a6757fe5b90602001906020020151611174565b14151515611acf576040517f08c379a00000000000000000000000000000000000000000000000000000000081526004018080602001828103825260228152602001806123446022913960400191505060405180910390fd5b5b5050505050505050505050505050505050565b6060611af6611af184611069565b611097565b90506060611b0b611b0686611069565b611097565b90506000611b30836000815181101515611b2157fe5b90602001906020020151611174565b90506000611b55846001815181101515611b4657fe5b90602001906020020151611174565b90506000611b7a856002815181101515611b6b57fe5b90602001906020020151611174565b90506000611b9f866003815181101515611b9057fe5b90602001906020020151611174565b60010290506000611bc7876004815181101515611bb857fe5b90602001906020020151611174565b90506000611bec876000815181101515611bdd57fe5b90602001906020020151611174565b90506000611c11886001815181101515611c0257fe5b90602001906020020151611174565b90506000611c36896002815181101515611c2757fe5b90602001906020020151611174565b905060008b15611c6b57611c618a6004815181101515611c5257fe5b90602001906020020151611174565b6001029050611c92565b611c8c8a6007815181101515611c7d57fe5b90602001906020020151611174565b60010290505b60058a51141515611d0b576040517f08c379a000000000000000000000000000000000000000000000000000000000815260040180806020018281038252601e8152602001807f496e76616c696420656e64696e67207475726e20524c50206c656e677468000081525060200191505060405180910390fd5b8389141515611d82576040517f08c379a000000000000000000000000000000000000000000000000000000000815260040180806020018281038252601d8152602001807f47616d6573546f506c6179206d75737420737461792064652073616d6500000081525060200191505060405180910390fd5b8188141515611df9576040517f08c379a000000000000000000000000000000000000000000000000000000000815260040180806020018281038252601e8152602001807f506c617965722073636f7265206d75737420737461792064652073616d65000081525060200191505060405180910390fd5b8287141515611e70576040517f08c379a00000000000000000000000000000000000000000000000000000000081526004018080602001828103825260208152602001807f4f70706f6e656e742073636f7265206d75737420737461792064652073616d6581525060200191505060405180910390fd5b8086141515611ee7576040517f08c379a000000000000000000000000000000000000000000000000000000000815260040180806020018281038252601f8152602001807f48617368206465636973696f6e206d75737420737461792064652073616d650081525060200191505060405180910390fd5b600385101515611f42576040517f08c379a00000000000000000000000000000000000000000000000000000000081526004018080602001828103825260218152602001806122f86021913960400191505060405180910390fd5b5050505050505050505050505050565b60008082600001511415611f695760009050611f9b565b60008083602001519050805160001a915060c060ff168260ff161015611f9457600092505050611f9b565b6001925050505b919050565b60008082600001511415611fb7576000905061200c565b60008090506000611fcb8460200151612011565b84602001510190506000846000015185602001510190505b8082101561200557611ff48261209a565b820191508280600101935050611fe3565b8293505050505b919050565b600080825160001a9050608060ff16811015612031576000915050612095565b60b860ff16811080612056575060c060ff168110158015612055575060f860ff1681105b5b15612065576001915050612095565b60c060ff168110156120855760018060b80360ff16820301915050612095565b60018060f80360ff168203019150505b919050565b600080825160001a9050608060ff168110156120ba576001915050612148565b60b860ff168110156120d8576001608060ff16820301915050612148565b60c060ff168110156121085760b78103600184019350806020036101000a84510460018201810193505050612146565b60f860ff1681101561212657600160c060ff16820301915050612148565b60f78103600184019350806020036101000a845104600182018101935050505b505b919050565b604080519081016040528060008152602001600081525090565b60408051908101604052806000815260200160008152509056fe53636f72652073686f756c64206e6f74206368616e6765206f6e206669727374207475726e506c617965722053636f726520696e637265617365732064756520746f2077696e504c61796572206465636973696f6e2073686f756c64206e6f74206368616e676547616d6573546f506c61792073686f756c64206e6f74206368616e6765206f6e206669727374207475726e506c617965722053636f726520646f6573206e6f7420696e637265617365206f6e20647261774f70706f6e656e742053636f7265206d75737420736179207468652073616d652064756520746f206c6f7373506c6179657273206d757374207374617274207769746820612073636f7265206f6620304f70706f6e656e74206465636973696f6e206d75737420626520302c2031206f72203247616d6573546f506c6179206d7573742067726561746572206265206f6464206e756d6265724f70706f6e656e74206465636973696f6e20646f6573206e6f74206d617463682068617368506c61796572206465636973696f6e206d75737420626520302c2031206f722032506c617965722053636f7265206d7573742020736179207468652073616d652064756520746f206c6f7373496e76616c6964206465636973696f6e4861736820666f72206e657874207475726e4f70706f6e656e742053636f726520646f6573206e6f7420696e637265617365206f6e206472617747616d6573546f506c617920646f6573206e6f7420676f20646f776e206f6e20647261774f70706f6e656e742053636f726520696e637265617365732064756520746f2077696ea165627a7a723058204b2e69636f1c3cbe7d533a21f569bccb41aeb5f440fc25cbf0b53144b38b22d10029",
  "source": "pragma solidity ^0.5.2;\n\nimport \"./PlasmaTurnGame.sol\";\nimport \"../Libraries/Transaction/RLPReader.sol\";\n\ncontract RPSExample is PlasmaTurnGame {\n    using RLPReader for bytes;\n    using RLPReader for RLPReader.RLPItem;\n\n    //Signed Player -> Signed OP        -> Signed Player\n\n    //initialState  + //State 1         + //State even      + //State odd         +  //State ending (odd)\n    //GamesToPlay   | //GamesToPlay     | //GamesToPlay     | //GamesToPlay       |  //GamesToPlay == 0\n    //ScorePl       | //ScorePl         | //ScorePl         | //ScorePl           |  //ScorePl\n    //ScoreOp       | //ScoreOp         | //ScoreOp         | //ScoreOp           |  //ScoreOp\n    //              | //HashDecision    | //HashDecision    | //HashDecision  \t  |  //HashDecision\n    //              |                   | //DecsionPl       | //DecisionPl        |  //DecisionPl\n    //              |                   |                   | //DecisionOp        |  //DecisionOp\n    //              |                   |                   | //Salt              |  //Salt\n    //              |                   |                   | //nextHashDecision  |\n\n    //Rock 0, Paper 1, Scissor 2\n\n    function validateStartState(bytes memory state) public pure {\n        RLPReader.RLPItem[] memory start = state.toRlpItem().toList();\n        require(start.length == 3, \"Invalid RLP length\");\n        require(start[0].toUint()%2 == 1 , \"GamesToPlay must greater be odd number\");\n        require(start[1].toUint() == 0 && start[2].toUint() == 0, \"Players must start with a score of 0\");\n\n    }\n\n    function validateTurnTransition(bytes memory oldState, uint turnNum, bytes memory newState) public pure {\n        if(turnNum == 0) {\n            validateInitialTransition(oldState, newState);\n        } else if(turnNum%2 == 0) {\n            validateEvenToOdd(oldState, newState, isOver(newState, turnNum));\n        } else {\n            validateOddToEven(oldState, newState, turnNum == 1);\n        }\n    }\n\n    function validateInitialTransition(bytes memory startState, bytes memory firstTurn) public pure {\n        RLPReader.RLPItem[] memory start = startState.toRlpItem().toList();\n        RLPReader.RLPItem[] memory first = firstTurn.toRlpItem().toList();\n\n        require(first.length == 3, \"Invalid first turn RLP length\");\n        require(start[0].toUint() == first[0].toUint(), \"GamesToPlay should not change on first turn\");\n        require(first[1].toUint() == 0 && first[2].toUint() == 0, \"Score should not change on first turn\");\n        require(first[2].toUint() != 0, \"Invalid hash\");\n    }\n\n    function validateEvenToOdd(bytes memory evenTurn, bytes memory oddTurn, bool isFinal) private pure {\n        RLPReader.RLPItem[] memory even = evenTurn.toRlpItem().toList();\n        RLPReader.RLPItem[] memory odd = oddTurn.toRlpItem().toList();\n\n        if(isFinal) {\n            require(odd.length == 7, \"Invalid ending turn RLP length\");\n        } else {\n            require(odd.length == 8, \"Invalid ending turn RLP length\");\n        }\n\n        uint evenGTP = even[0].toUint();\n        uint evenScorePL = even[1].toUint();\n        uint evenScoreOP = even[2].toUint();\n        bytes32 evenHashDec = bytes32(even[3].toUint());\n        uint evenDecPl   = even[4].toUint();\n\n        uint oddGTP = odd[0].toUint();\n        uint oddScorePL = odd[1].toUint();\n        uint oddScoreOP = odd[2].toUint();\n        bytes32 oddHashDec = bytes32(odd[3].toUint());\n        uint oddDecPL   = odd[4].toUint();\n        uint oddDecOP   = odd[5].toUint();\n        uint oddSalt    = odd[6].toUint();\n\n        require(evenHashDec == oddHashDec,  \"HashDecision should not change\");\n        require(evenHashDec == keccak256(abi.encodePacked(oddDecOP, oddSalt)), \"Opponent decision does not match hash\");\n\n        require(evenDecPl == oddDecPL, \"PLayer decision should not change\");\n        require(oddDecOP < 3, \"Opponent decision must be 0, 1 or 2\");\n\n        if(oddDecPL == oddDecOP) {\n            require(evenGTP == oddGTP, \"GamesToPlay does not go down on draw\");\n            require(evenScorePL == oddScorePL, \"Player Score does not increase on draw\");\n            require(evenScoreOP == oddScoreOP, \"Opponent Score does not increase on draw\");\n        } else if(\n            (oddDecPL == 0  && oddDecOP == 2) ||\n            (oddDecPL == 1  && oddDecOP == 0) ||\n            (oddDecPL == 2  && oddDecOP == 1)\n        ) {\n            require(evenGTP == oddGTP + 1, \"GamesToPlay should decrease\");\n            require(evenScorePL == oddScorePL + 1, \"Player Score increases due to win\");\n            require(evenScoreOP == oddScoreOP, \"Opponent Score must say the same due to loss\");\n        } else {\n            require(evenGTP == oddGTP + 1, \"GamesToPlay should decrease\");\n            require(evenScorePL == oddScorePL, \"Player Score must  say the same due to loss\");\n            require(evenScoreOP == oddScoreOP + 1, \"Opponent Score increases due to win\");\n        }\n\n        if(!isFinal) {\n            require(odd[7].toUint() != 0, \"Invalid decisionHash for next turn\");\n        }\n    }\n\n    function validateOddToEven(bytes memory oddTurn, bytes memory evenTurn, bool isFirst) private pure {\n        RLPReader.RLPItem[] memory even = evenTurn.toRlpItem().toList();\n        RLPReader.RLPItem[] memory odd = oddTurn.toRlpItem().toList();\n\n        uint evenGTP = even[0].toUint();\n        uint evenScorePL = even[1].toUint();\n        uint evenScoreOP = even[2].toUint();\n        bytes32 evenHashDec = bytes32(even[3].toUint());\n        uint evenDecPl   = even[4].toUint();\n\n        uint oddGTP = odd[0].toUint();\n        uint oddScoreOP = odd[1].toUint();\n        uint oddScorePL = odd[2].toUint();\n        bytes32 oddNewHashDec;\n\n        if(isFirst) {\n            oddNewHashDec = bytes32(odd[4].toUint());\n        } else {\n            oddNewHashDec = bytes32(odd[7].toUint());\n        }\n\n        require(odd.length == 5, \"Invalid ending turn RLP length\");\n\n        require(evenGTP == oddGTP, \"GamesToPlay must stay de same\");\n        require(evenScorePL == oddScorePL, \"Player score must stay de same\");\n        require(evenScoreOP == oddScoreOP, \"Opponent score must stay de same\");\n        require(evenHashDec == oddNewHashDec, \"Hash decision must stay de same\");\n        require(evenDecPl < 3, \"Player decision must be 0, 1 or 2\");\n\n    }\n\n    function winner(bytes memory state, uint turnNum, address player, address opponent) public pure returns (address) {\n        if(isOver(state, turnNum)) {\n            RLPReader.RLPItem[] memory ending = state.toRlpItem().toList();\n            return ending[1].toUint() > ending[2].toUint() ? player : opponent;\n        } else {\n            return address(0);\n        }\n    }\n\n    function isOver(bytes memory state, uint /*turnNum*/) public pure returns (bool) {\n        RLPReader.RLPItem[] memory ending = state.toRlpItem().toList();\n        return ending[0].toUint() == 0;\n    }\n\n    function mover(bytes memory /*state*/, uint turnNum, address player, address opponent) public pure returns (address) {\n        return turnNum%2 == 0 ? player: opponent;\n    }\n\n    event RPSRequested(uint gameId, address indexed player, address indexed opponent, uint gamesToPlay);\n    event RPSStarted(uint gameId, address indexed player, address indexed opponent, uint gamesToPlay);\n\n    //TODO add validator\n    function eventRequestState(uint gameId, bytes memory state, address player, address opponent) public {\n        uint gamesToPlay = state.toRlpItem().toList()[0].toUint();\n        emit RPSRequested(gameId, player, opponent, gamesToPlay);\n    }\n    //TODO add validator\n    function eventStartState(uint gameId, bytes memory state, address player, address opponent) public {\n        uint gamesToPlay = state.toRlpItem().toList()[0].toUint();\n        emit RPSStarted(gameId, player, opponent, gamesToPlay);\n    }\n\n}\n",
  "sourcePath": "/Users/epord/Desktop/PF/Plasma-Cash-RootChain/contracts/Battles/RPSExample.sol",
  "compiler": {
    "name": "solc",
    "version": "0.5.2+commit.1df8f40c.Emscripten.clang"
  },
  "schemaVersion": "3.0.0",
  "updatedAt": "2019-10-18T20:11:02.338Z",
  "devdoc": {
    "methods": {}
  },
  "userdoc": {
    "methods": {}
  }
}